{
  "contractName": "AddressLibrary",
  "abi": [
    {
      "inputs": [
        {
          "internalType": "address",
          "name": "add",
          "type": "address"
        },
        {
          "internalType": "address[]",
          "name": "list",
          "type": "address[]"
        }
      ],
      "name": "FindAddress",
      "outputs": [
        {
          "internalType": "bool",
          "name": "",
          "type": "bool"
        }
      ],
      "stateMutability": "pure",
      "type": "function"
    },
    {
      "inputs": [
        {
          "internalType": "address",
          "name": "element",
          "type": "address"
        }
      ],
      "name": "AddressToBytes32",
      "outputs": [
        {
          "internalType": "bytes32",
          "name": "",
          "type": "bytes32"
        }
      ],
      "stateMutability": "pure",
      "type": "function"
    },
    {
      "inputs": [
        {
          "internalType": "bytes32",
          "name": "element",
          "type": "bytes32"
        }
      ],
      "name": "Bytes32ToAddress",
      "outputs": [
        {
          "internalType": "address",
          "name": "",
          "type": "address"
        }
      ],
      "stateMutability": "pure",
      "type": "function"
    },
    {
      "inputs": [
        {
          "internalType": "uint256",
          "name": "element",
          "type": "uint256"
        }
      ],
      "name": "UintToAddress",
      "outputs": [
        {
          "internalType": "address",
          "name": "",
          "type": "address"
        }
      ],
      "stateMutability": "pure",
      "type": "function"
    },
    {
      "inputs": [
        {
          "internalType": "address",
          "name": "element",
          "type": "address"
        }
      ],
      "name": "AddressToUint",
      "outputs": [
        {
          "internalType": "uint256",
          "name": "",
          "type": "uint256"
        }
      ],
      "stateMutability": "pure",
      "type": "function"
    }
  ],
  "bytecode": "0x6108ea610053600b82828239805160001a607314610046577f4e487b7100000000000000000000000000000000000000000000000000000000600052600060045260246000fd5b30600052607381538281f3fe730000000000000000000000000000000000000000301460806040526004361061006c5760003560e01c80637873833e14610071578063b1e277141461009a578063bc215e85146100ca578063cf0668ed146100fa578063f4ce9ae81461012a578063f7cf62d71461015a575b600080fd5b81801561007d57600080fd5b5061009860048036038101906100939190610534565b61018a565b005b6100b460048036038101906100af9190610507565b61027d565b6040516100c191906105b0565b60405180910390f35b6100e460048036038101906100df9190610451565b610287565b6040516100f191906105e6565b60405180910390f35b610114600480360381019061010f9190610451565b6102aa565b6040516101219190610601565b60405180910390f35b610144600480360381019061013f91906104da565b6102ca565b60405161015191906105b0565b60405180910390f35b610174600480360381019061016f919061047e565b6102d7565b60405161018191906105cb565b60405180910390f35b806001828054905061019c919061066d565b815481106101ad576101ac6107d5565b5b9060005260206000200160009054906101000a900473ffffffffffffffffffffffffffffffffffffffff168183815481106101eb576101ea6107d5565b5b9060005260206000200160006101000a81548173ffffffffffffffffffffffffffffffffffffffff021916908373ffffffffffffffffffffffffffffffffffffffff16021790555080805480610244576102436107a6565b5b6001900381819060005260206000200160006101000a81549073ffffffffffffffffffffffffffffffffffffffff021916905590555050565b6000819050919050565b60008173ffffffffffffffffffffffffffffffffffffffff1660001b9050919050565b60008173ffffffffffffffffffffffffffffffffffffffff169050919050565b60008160001c9050919050565b600080600090505b8251811015610353578281815181106102fb576102fa6107d5565b5b602002602001015173ffffffffffffffffffffffffffffffffffffffff168473ffffffffffffffffffffffffffffffffffffffff161415610340576001915050610359565b808061034b9061072e565b9150506102df565b50600090505b92915050565b600061037261036d84610641565b61061c565b9050808382526020820190508285602086028201111561039557610394610838565b5b60005b858110156103c557816103ab88826103cf565b845260208401935060208301925050600181019050610398565b5050509392505050565b6000813590506103de81610858565b92915050565b600082601f8301126103f9576103f8610833565b5b813561040984826020860161035f565b91505092915050565b6000813590506104218161086f565b92915050565b60008135905061043681610886565b92915050565b60008135905061044b8161089d565b92915050565b60006020828403121561046757610466610842565b5b6000610475848285016103cf565b91505092915050565b6000806040838503121561049557610494610842565b5b60006104a3858286016103cf565b925050602083013567ffffffffffffffff8111156104c4576104c361083d565b5b6104d0858286016103e4565b9150509250929050565b6000602082840312156104f0576104ef610842565b5b60006104fe84828501610427565b91505092915050565b60006020828403121561051d5761051c610842565b5b600061052b8482850161043c565b91505092915050565b6000806040838503121561054b5761054a610842565b5b60006105598582860161043c565b925050602061056a85828601610412565b9150509250929050565b61057d816106a1565b82525050565b61058c816106bd565b82525050565b61059b816106c9565b82525050565b6105aa816106f3565b82525050565b60006020820190506105c56000830184610574565b92915050565b60006020820190506105e06000830184610583565b92915050565b60006020820190506105fb6000830184610592565b92915050565b600060208201905061061660008301846105a1565b92915050565b6000610626610637565b905061063282826106fd565b919050565b6000604051905090565b600067ffffffffffffffff82111561065c5761065b610804565b5b602082029050602081019050919050565b6000610678826106f3565b9150610683836106f3565b92508282101561069657610695610777565b5b828203905092915050565b60006106ac826106d3565b9050919050565b6000819050919050565b60008115159050919050565b6000819050919050565b600073ffffffffffffffffffffffffffffffffffffffff82169050919050565b6000819050919050565b61070682610847565b810181811067ffffffffffffffff8211171561072557610724610804565b5b80604052505050565b6000610739826106f3565b91507fffffffffffffffffffffffffffffffffffffffffffffffffffffffffffffffff82141561076c5761076b610777565b5b600182019050919050565b7f4e487b7100000000000000000000000000000000000000000000000000000000600052601160045260246000fd5b7f4e487b7100000000000000000000000000000000000000000000000000000000600052603160045260246000fd5b7f4e487b7100000000000000000000000000000000000000000000000000000000600052603260045260246000fd5b7f4e487b7100000000000000000000000000000000000000000000000000000000600052604160045260246000fd5b600080fd5b600080fd5b600080fd5b600080fd5b6000601f19601f8301169050919050565b610861816106a1565b811461086c57600080fd5b50565b610878816106b3565b811461088357600080fd5b50565b61088f816106c9565b811461089a57600080fd5b50565b6108a6816106f3565b81146108b157600080fd5b5056fea26469706673582212203ac97a918b3d3e8516d02d9cec12f67db228cbc7afce55bf6a8d021dc947386064736f6c63430008070033",
  "immutableReferences": {},
  "source": "// SPDX-License-Identifier: GPL-3.0\r\n\r\npragma solidity 0.8.7;\r\n\r\n/**\r\n Address data type common functionality\r\n */\r\n\r\n import \"./Library.sol\";\r\n\r\nlibrary AddressLibrary{\r\n    using Library for *;\r\n\r\n    // AUX FUNCTIONALITY /////////////////////////////////////////\r\n    function FindAddress(address add, address[] memory list) public pure returns (bool){\r\n        for(uint i=0; i < list.length; i++){\r\n            if(add == list[i]) return true;\r\n        }\r\n\r\n        return false;\r\n    }\r\n\r\n    function AddressArrayRemoveResize(uint index, address[] storage array) public \r\n    {\r\n        array[index] = array[array.length - 1];\r\n        array.pop();\r\n    }\r\n\r\n    function AddressToBytes32(address element) public pure returns(bytes32){\r\n        return bytes32(uint256(uint160(element)));\r\n    }\r\n\r\n    function Bytes32ToAddress(bytes32 element) public pure returns(address){\r\n        return address(uint160(uint256(element)));\r\n    }\r\n\r\n    function UintToAddress(uint element) public pure returns(address){\r\n        return address(uint160(element));\r\n    }\r\n\r\n    function AddressToUint(address element) public pure returns(uint){\r\n        return uint256(uint160(element));\r\n    }\r\n\r\n}",
  "sourcePath": "C:\\Users\\d-aam\\GitHub\\Originals\\contracts\\Libraries\\AddressLibrary.sol",
  "compiler": {
    "name": "solc",
    "version": "0.8.7+commit.e28d00a7.Emscripten.clang"
  },
  "schemaVersion": "3.4.3",
  "updatedAt": "2022-01-21T14:18:14.353Z",
  "devdoc": {
    "kind": "dev",
    "methods": {},
    "version": 1
  },
  "userdoc": {
    "kind": "user",
    "methods": {},
    "version": 1
  }
}