{
  "contractName": "AdminPiggyBank",
  "abi": [
    {
      "anonymous": false,
      "inputs": [
        {
          "indexed": false,
          "internalType": "address",
          "name": "owner",
          "type": "address"
        }
      ],
      "name": "_AddOwnerRejection",
      "type": "event"
    },
    {
      "anonymous": false,
      "inputs": [
        {
          "indexed": false,
          "internalType": "address",
          "name": "owner",
          "type": "address"
        }
      ],
      "name": "_AddOwnerValidation",
      "type": "event"
    },
    {
      "anonymous": false,
      "inputs": [
        {
          "indexed": false,
          "internalType": "uint256",
          "name": "minOwner",
          "type": "uint256"
        }
      ],
      "name": "_MinOwnerRejection",
      "type": "event"
    },
    {
      "anonymous": false,
      "inputs": [
        {
          "indexed": false,
          "internalType": "uint256",
          "name": "minOwner",
          "type": "uint256"
        }
      ],
      "name": "_MinOwnerValidation",
      "type": "event"
    },
    {
      "anonymous": false,
      "inputs": [
        {
          "indexed": true,
          "internalType": "address",
          "name": "payer",
          "type": "address"
        },
        {
          "indexed": false,
          "internalType": "uint256",
          "name": "amount",
          "type": "uint256"
        }
      ],
      "name": "_Pay",
      "type": "event"
    },
    {
      "anonymous": false,
      "inputs": [
        {
          "indexed": false,
          "internalType": "address",
          "name": "owner",
          "type": "address"
        }
      ],
      "name": "_RemoveOwnerRejection",
      "type": "event"
    },
    {
      "anonymous": false,
      "inputs": [
        {
          "indexed": false,
          "internalType": "address",
          "name": "owner",
          "type": "address"
        }
      ],
      "name": "_RemoveOwnerValidation",
      "type": "event"
    },
    {
      "anonymous": false,
      "inputs": [
        {
          "indexed": true,
          "internalType": "address",
          "name": "to",
          "type": "address"
        },
        {
          "indexed": false,
          "internalType": "uint256",
          "name": "amount",
          "type": "uint256"
        }
      ],
      "name": "_TransferCreated",
      "type": "event"
    },
    {
      "anonymous": false,
      "inputs": [
        {
          "indexed": true,
          "internalType": "address",
          "name": "to",
          "type": "address"
        },
        {
          "indexed": false,
          "internalType": "uint256",
          "name": "amount",
          "type": "uint256"
        }
      ],
      "name": "_TransferRejected",
      "type": "event"
    },
    {
      "anonymous": false,
      "inputs": [
        {
          "indexed": true,
          "internalType": "address",
          "name": "to",
          "type": "address"
        },
        {
          "indexed": false,
          "internalType": "uint256",
          "name": "amount",
          "type": "uint256"
        }
      ],
      "name": "_TransferValidated",
      "type": "event"
    },
    {
      "anonymous": false,
      "inputs": [
        {
          "indexed": false,
          "internalType": "uint256",
          "name": "minOwner",
          "type": "uint256"
        },
        {
          "indexed": false,
          "internalType": "address",
          "name": "voter",
          "type": "address"
        },
        {
          "indexed": false,
          "internalType": "bool",
          "name": "vote",
          "type": "bool"
        }
      ],
      "name": "_VoteForMinOwner",
      "type": "event"
    },
    {
      "anonymous": false,
      "inputs": [
        {
          "indexed": false,
          "internalType": "address",
          "name": "owner",
          "type": "address"
        },
        {
          "indexed": false,
          "internalType": "address",
          "name": "voter",
          "type": "address"
        },
        {
          "indexed": false,
          "internalType": "bool",
          "name": "vote",
          "type": "bool"
        }
      ],
      "name": "_VoteForOwner",
      "type": "event"
    },
    {
      "anonymous": false,
      "inputs": [
        {
          "indexed": true,
          "internalType": "address",
          "name": "to",
          "type": "address"
        },
        {
          "indexed": false,
          "internalType": "uint256",
          "name": "amount",
          "type": "uint256"
        },
        {
          "indexed": true,
          "internalType": "address",
          "name": "voter",
          "type": "address"
        },
        {
          "indexed": false,
          "internalType": "bool",
          "name": "vote",
          "type": "bool"
        }
      ],
      "name": "_VoteForTransfer",
      "type": "event"
    },
    {
      "inputs": [
        {
          "internalType": "address",
          "name": "sender",
          "type": "address"
        },
        {
          "internalType": "uint256",
          "name": "amount",
          "type": "uint256"
        },
        {
          "internalType": "bytes",
          "name": "data",
          "type": "bytes"
        }
      ],
      "name": "CreditReceived",
      "outputs": [],
      "stateMutability": "nonpayable",
      "type": "function"
    },
    {
      "inputs": [
        {
          "internalType": "address[]",
          "name": "owners",
          "type": "address[]"
        },
        {
          "internalType": "uint256",
          "name": "minOwners",
          "type": "uint256"
        }
      ],
      "name": "MultiSigContract_init",
      "outputs": [],
      "stateMutability": "nonpayable",
      "type": "function"
    },
    {
      "inputs": [
        {
          "internalType": "address",
          "name": "owner",
          "type": "address"
        }
      ],
      "name": "addOwner",
      "outputs": [],
      "stateMutability": "nonpayable",
      "type": "function"
    },
    {
      "inputs": [
        {
          "internalType": "uint256",
          "name": "newMinOwners",
          "type": "uint256"
        }
      ],
      "name": "changeMinOwners",
      "outputs": [],
      "stateMutability": "nonpayable",
      "type": "function"
    },
    {
      "inputs": [],
      "name": "rejectMinOwners",
      "outputs": [],
      "stateMutability": "nonpayable",
      "type": "function"
    },
    {
      "inputs": [
        {
          "internalType": "address",
          "name": "owner",
          "type": "address"
        }
      ],
      "name": "rejectOwner",
      "outputs": [],
      "stateMutability": "nonpayable",
      "type": "function"
    },
    {
      "inputs": [
        {
          "internalType": "address",
          "name": "owner",
          "type": "address"
        }
      ],
      "name": "removeOwner",
      "outputs": [],
      "stateMutability": "nonpayable",
      "type": "function"
    },
    {
      "inputs": [],
      "name": "retrieveAllOwners",
      "outputs": [
        {
          "internalType": "address[]",
          "name": "",
          "type": "address[]"
        }
      ],
      "stateMutability": "view",
      "type": "function"
    },
    {
      "inputs": [],
      "name": "retrieveManagerContract",
      "outputs": [
        {
          "internalType": "address",
          "name": "",
          "type": "address"
        }
      ],
      "stateMutability": "view",
      "type": "function"
    },
    {
      "inputs": [],
      "name": "retrieveMinOwners",
      "outputs": [
        {
          "internalType": "uint256",
          "name": "",
          "type": "uint256"
        }
      ],
      "stateMutability": "view",
      "type": "function"
    },
    {
      "inputs": [],
      "name": "retrievePendingMinOwners",
      "outputs": [
        {
          "internalType": "uint256",
          "name": "",
          "type": "uint256"
        }
      ],
      "stateMutability": "view",
      "type": "function"
    },
    {
      "inputs": [],
      "name": "retrievePendingMinOwnersStatus",
      "outputs": [
        {
          "internalType": "uint256",
          "name": "",
          "type": "uint256"
        },
        {
          "internalType": "uint256",
          "name": "",
          "type": "uint256"
        },
        {
          "internalType": "address[]",
          "name": "",
          "type": "address[]"
        }
      ],
      "stateMutability": "view",
      "type": "function"
    },
    {
      "inputs": [
        {
          "internalType": "bool",
          "name": "addedORremove",
          "type": "bool"
        }
      ],
      "name": "retrievePendingOwners",
      "outputs": [
        {
          "internalType": "address[]",
          "name": "",
          "type": "address[]"
        }
      ],
      "stateMutability": "view",
      "type": "function"
    },
    {
      "inputs": [],
      "name": "validateMinOwners",
      "outputs": [],
      "stateMutability": "nonpayable",
      "type": "function"
    },
    {
      "inputs": [
        {
          "internalType": "address",
          "name": "owner",
          "type": "address"
        }
      ],
      "name": "validateOwner",
      "outputs": [],
      "stateMutability": "nonpayable",
      "type": "function"
    },
    {
      "inputs": [
        {
          "internalType": "address[]",
          "name": "owners",
          "type": "address[]"
        },
        {
          "internalType": "uint256",
          "name": "minOwners",
          "type": "uint256"
        },
        {
          "internalType": "address",
          "name": "managerContractAddress",
          "type": "address"
        }
      ],
      "name": "AdminPiggyBank_init",
      "outputs": [],
      "stateMutability": "nonpayable",
      "type": "function"
    },
    {
      "inputs": [
        {
          "internalType": "address",
          "name": "receiver",
          "type": "address"
        },
        {
          "internalType": "uint256",
          "name": "amount",
          "type": "uint256"
        }
      ],
      "name": "transfer",
      "outputs": [],
      "stateMutability": "nonpayable",
      "type": "function"
    },
    {
      "inputs": [],
      "name": "approve",
      "outputs": [],
      "stateMutability": "nonpayable",
      "type": "function"
    },
    {
      "inputs": [],
      "name": "reject",
      "outputs": [],
      "stateMutability": "nonpayable",
      "type": "function"
    },
    {
      "inputs": [],
      "name": "retrieveTransferInfo",
      "outputs": [
        {
          "components": [
            {
              "internalType": "address",
              "name": "_to",
              "type": "address"
            },
            {
              "internalType": "uint256",
              "name": "_amount",
              "type": "uint256"
            },
            {
              "internalType": "uint256",
              "name": "_validations",
              "type": "uint256"
            },
            {
              "internalType": "uint256",
              "name": "_rejections",
              "type": "uint256"
            },
            {
              "internalType": "address[]",
              "name": "_voters",
              "type": "address[]"
            }
          ],
          "internalType": "struct IAdminPiggyBank._TransferStruct",
          "name": "",
          "type": "tuple"
        }
      ],
      "stateMutability": "view",
      "type": "function"
    }
  ],
  "bytecode": "0x608060405234801561001057600080fd5b506121fe806100206000396000f3fe608060405234801561001057600080fd5b50600436106100fc5760003560e01c80630bee185e1461010157806312424e3f14610116578063173825d91461011e5780632edbe7fc146101315780632f02a3ec1461014857806330ade9221461015b5780634dc415de146101635780635888ebb31461016b5780635b362e84146101825780636151c3431461019b57806365b973e5146101b05780636b299604146101b85780637065cb48146101d857806376f8f90f146101eb578063a9059cbb146101fe578063a93d5ed614610211578063c3079ae714610219578063c66433ea14610221578063cdfba54b14610234578063ce33d58a14610247575b600080fd5b61011461010f366004611e0d565b61025a565b005b6101146103b7565b61011461012c366004611c6d565b6103c3565b6006545b6040519081526020015b60405180910390f35b610114610156366004611cbd565b6103fe565b610114610531565b61011461053b565b610173610545565b60405161013f9392919061209e565b600a546001600160a01b031660405161013f9190611f5b565b6101a36105b9565b60405161013f919061204b565b600554610135565b6101cb6101c6366004611eab565b61068c565b60405161013f9190611fcb565b6101146101e6366004611c6d565b610750565b6101146101f9366004611c6d565b610768565b61011461020c366004611c91565b6107b9565b6101cb610a03565b610114610a67565b61011461022f366004611ee5565b610a71565b610114610242366004611e51565b610abe565b610114610255366004611c6d565b610b45565b600054610100900460ff166102755760005460ff1615610279565b303b155b61029e5760405162461bcd60e51b815260040161029590611ffd565b60405180910390fd5b600054610100900460ff161580156102c0576000805461ffff19166101011790555b8183516102cd8282610b50565b6001846102da8282610b50565b600586905560005b875181101561039b5760018060000160008a848151811061030557610305612179565b6020908102919091018101516001600160a01b03168252810191909152604001600020805460ff1916911515919091179055875160029089908390811061034e5761034e612179565b60209081029190910181015182546001810184556000938452919092200180546001600160a01b0319166001600160a01b039092169190911790558061039381612148565b9150506102e2565b505050505080156103b2576000805461ff00191690555b505050565b6103c16001610b74565b565b8060016103d08282610e9a565b6005546002546103e290600190612131565b6103ec8282610b50565b6103f7856004610ef1565b5050505050565b3373__Library_______________________________6337ea306382600a60009054906101000a90046001600160a01b03166001600160a01b031663e220ad956040518163ffffffff1660e01b815260040160006040518083038186803b15801561046857600080fd5b505afa15801561047c573d6000803e3d6000fd5b505050506040513d6000823e601f3d908101601f191682016040526104a49190810190611d6d565b6006815181106104b6576104b6612179565b60200260200101516040518363ffffffff1660e01b81526004016104f09291906001600160a01b0392831681529116602082015260400190565b60006040518083038186803b15801561050857600080fd5b505af415801561051c573d6000803e3d6000fd5b5050505061052b848484610f7d565b50505050565b6103c16001610fc5565b6103c16000610b74565b60008060606007546008546009808054806020026020016040519081016040528092919081815260200182805480156105a757602002820191906000526020600020905b81546001600160a01b03168152600190910190602001808311610589575b50505050509050925092509250909192565b6105f46040518060a0016040528060006001600160a01b03168152602001600081526020016000815260200160008152602001606081525090565b6040805160a081018252600b80546001600160a01b03168252600c54602080840191909152600d5483850152600e546060840152600f80548551818402810184019096528086529394929360808601939283018282801561067e57602002820191906000526020600020905b81546001600160a01b03168152600190910190602001808311610660575b505050505081525050905090565b606081156106f35760038054604080516020808402820181019092528281529291908301828280156106e757602002820191906000526020600020905b81546001600160a01b031681526001909101906020018083116106c9575b50505050509050919050565b60048054604080516020808402820181019092528281529291908301828280156106e7576020028201919060005260206000209081546001600160a01b031681526001909101906020018083116106c95750505050509050919050565b80600061075d8282610e9a565b6103b2836003610ef1565b61077181611113565b1515600114156107ab5760025461078a90600190612131565b60055411156107ab5760405162461bcd60e51b815260040161029590611fde565b6107b6816001611194565b50565b816001600160a01b0381166108105760405162461bcd60e51b815260206004820152601f60248201527f57652063616e6e6f74207472616e7366657220746f20616464726573732030006044820152606401610295565b8180600a60009054906101000a90046001600160a01b03166001600160a01b031663e220ad956040518163ffffffff1660e01b815260040160006040518083038186803b15801561086057600080fd5b505afa158015610874573d6000803e3d6000fd5b505050506040513d6000823e601f3d908101601f1916820160405261089c9190810190611d6d565b6006815181106108ae576108ae612179565b60200260200101516001600160a01b031663d9967889306040518263ffffffff1660e01b81526004016108e19190611f5b565b60206040518083038186803b1580156108f957600080fd5b505afa15801561090d573d6000803e3d6000fd5b505050506040513d601f19601f820116820180604052508101906109319190611efe565b10156109985760405162461bcd60e51b815260206004820152603060248201527f57652063616e6e6f74207472616e73666572206d6f7265207468616e2074686560448201526f2063757272656e742062616c616e636560801b6064820152608401610295565b60006109a38161161a565b600b80546001600160a01b0319166001600160a01b038716908117909155600c8590556040518581527fc66749b3cc2413da07d31e75dcb0822390ff02e6311a112e9b8aac23563badbc9060200160405180910390a26103f76001610b74565b606060018001805480602002602001604051908101604052809291908181526020018280548015610a5d57602002820191906000526020600020905b81546001600160a01b03168152600190910190602001808311610a3f575b5050505050905090565b6103c16000610fc5565b336001610a7e8282610e9a565b6000610a89816116c3565b6002548490610a988282610b50565b600186610aa58282610b50565b6006889055610ab46001610fc5565b5050505050505050565b600054610100900460ff16610ad95760005460ff1615610add565b303b155b610af95760405162461bcd60e51b815260040161029590611ffd565b600054610100900460ff16158015610b1b576000805461ffff19166101011790555b610b25848461025a565b610b2e82611738565b801561052b576000805461ff001916905550505050565b6107b6816000611194565b80821115610b705760405162461bcd60e51b815260040161029590611fde565b5050565b336001610b818282610e9a565b6001610b8c8161161a565b33600b600401805480602002602001604051908101604052809291908181526020018280548015610be657602002820191906000526020600020905b81546001600160a01b03168152600190910190602001808311610bc8575b5050505050610bf582826117b3565b600b54600c5460408051918252881515602083015233926001600160a01b0316917fa9d7928136deb71b5d70a5313c8332eff4c01c50cec75d98a643c5ba94574747910160405180910390a3600f80546001810182556000919091527f8d1108e10bcb7c27dddfc02ed9d693a074039d026cf4ea4240b40f7d581ac8020180546001600160a01b031916331790558515610e2557600d8054906000610c9983612148565b9091555050600554600d5410610e2057600c54600b54600a546040805163e220ad9560e01b8152905173__ItemsLibrary__________________________94632daec0b49490936001600160a01b039182169391169163e220ad9591600480820192600092909190829003018186803b158015610d1557600080fd5b505afa158015610d29573d6000803e3d6000fd5b505050506040513d6000823e601f3d908101601f19168201604052610d519190810190611d6d565b600681518110610d6357610d63612179565b60200260200101516040518463ffffffff1660e01b8152600401610da3939291909283526001600160a01b03918216602084015216604082015260600190565b60006040518083038186803b158015610dbb57600080fd5b505af4158015610dcf573d6000803e3d6000fd5b5050600b54600c546040519081526001600160a01b0390911692507ffea5a60f19e31d340bbd014f800a5a0556efc2b42812fb94b3702095b761051d915060200160405180910390a2610e20611872565b610e92565b600e8054906000610e3583612148565b9091555050600554600e5410610e9257600b54600c546040519081526001600160a01b03909116907f2ad6cd8714b7ba15fe0e75d87d2799d17fa9ec72a76166e2a2f73fe5da5bb3139060200160405180910390a2610e92611872565b505050505050565b6001600160a01b03821660009081526001602052604090205460ff16151581151514610b705760405162461bcd60e51b8152600401610295906020808252600490820152634543392d60e01b604082015260600190565b336001610efe8282610e9a565b836000610f0b828261189e565b84546001808201875560008781526020812090920180546001600160a01b0319166001600160a01b038a161790558654610f459190612131565b6001600160a01b0388166000908152600160208190526040909120600201829055909150610f74908890611194565b50505050505050565b826001600160a01b03167fa1a75f56738f80584efa96074fcf81008d3e7456d405f2811bc39295c151c10883604051610fb891815260200190565b60405180910390a2505050565b336001610fd28282610e9a565b6001610fdd816116c3565b33600980548060200260200160405190810160405280929190818152602001828054801561103457602002820191906000526020600020905b81546001600160a01b03168152600190910190602001808311611016575b505050505061104382826117b3565b85156110675760016007600082825461105c9190612119565b909155506110809050565b60016008600082825461107a9190612119565b90915550505b600980546001810182556000919091527f6e1540171b6c0c960b71a7020d9f60077f6af931a8bbf590da0223dacf75c7af018054336001600160a01b031990911681179091556006546040805191825260208201929092528715158183015290517fb335599a2dd1eaaedeb810215d45e667a6c5ac7bcfd03c29e597db8bf0cddcc69181900360600190a1610e926118f0565b6004546001600160a01b03821660009081526001602052604081206002015490911161114157506000919050565b6001600160a01b03821660009081526001602052604090206002015460048054909190811061117257611172612179565b6000918252602090912001546001600160a01b03928316921691909114919050565b3360016111a18282610e9a565b8360016111ae828261189e565b6001600160a01b038616600090815260016020908152604091829020600501805483518184028101840190945280845233939283018282801561121a57602002820191906000526020600020905b81546001600160a01b031681526001909101906020018083116111fc575b505050505061122982826117b3565b604080516001600160a01b038a1681523360208201528815158183015290517fc6f241efc3de3ce31d0e682102cc781f0605f0f90d72addfea699e4aea85dd799181900360600190a16001600160a01b038816600090815260016020818152604083206005018054928301815583529091200180546001600160a01b03191633179055861561152c576001600160a01b03881660009081526001602052604081206003018054916112d983612148565b90915550506005546001600160a01b0389166000908152600160205260409020600301541061152757600461130d8961198d565b156113e0575060028054600180820183557f405787fa12a823e0f2b7631cc41b3ba8828b3321ca811111fa75cd3aa3bb5ace90910180546001600160a01b0319166001600160a01b038c169081179091556000908152602082905260409020805460ff191682179055905460039161138491612131565b6001600160a01b038a166000908152600160208190526040918290200191909155517f45bbe5ceeddcb6d0b4045349efc87a3fde966578e3970cda6f53bfc76efaf9f7906113d3908b90611f5b565b60405180910390a161151b565b6001600160a01b03891660009081526001602081905260409182902001549051633c39c19f60e11b8152600481018290526002602482015273__AddressLibrary________________________90637873833e9060440160006040518083038186803b15801561144f57600080fd5b505af4158015611463573d6000803e3d6000fd5b505060025483101591506114b9905057806001600001600060018001848154811061149057611490612179565b60009182526020808320909101546001600160a01b031683528201929092526040019020600101555b6001600160a01b038a166000908152600160208190526040808320805460ff1916815590910191909155517f82bcab3b042f3e2143a9d33d07fa130afdf763f17a45679670f0e39f12064ca890611511908c90611f5b565b60405180910390a1505b61152589826119ec565b505b610ab4565b6001600160a01b038816600090815260016020526040812060040180549161155383612148565b90915550506005546001600160a01b03891660009081526001602052604090206004015410610ab45760046115878961198d565b156115cd57506040516003907f622a69297177c029df8c1ba7f4d2d59881089b571ae96800e634aff50d67492e906115c0908b90611f5b565b60405180910390a1611605565b7f547e31c58b802b63bc89f1109a132a291b0527c9196c97759829aeaecd3c2d39896040516115fc9190611f5b565b60405180910390a15b61160f89826119ec565b505050505050505050565b801561167357600b546001600160a01b03166107b65760405162461bcd60e51b81526020600482015260186024820152775472616e73666572206e6f7420696e2070726f677265737360401b6044820152606401610295565b600b546001600160a01b0316156107b65760405162461bcd60e51b81526020600482015260146024820152735472616e7366657220696e2070726f677265737360601b6044820152606401610295565b8015611700576006546107b65760405162461bcd60e51b8152602060048201526005602482015264454333312d60d81b6044820152606401610295565b600654156107b65760405162461bcd60e51b8152602060048201526005602482015264454333302d60d81b6044820152606401610295565b600054610100900460ff166117535760005460ff1615611757565b303b155b6117735760405162461bcd60e51b815260040161029590611ffd565b600054610100900460ff16158015611795576000805461ffff19166101011790555b61179e82611afe565b8015610b70576000805461ff00191690555050565b60405163f7cf62d760e01b815273__AddressLibrary________________________9063f7cf62d7906117ec9085908590600401611f6f565b60206040518083038186803b15801561180457600080fd5b505af4158015611818573d6000803e3d6000fd5b505050506040513d601f19601f8201168201806040525081019061183c9190611ec8565b15610b705760405162461bcd60e51b8152600401610295906020808252600490820152634543352d60e01b604082015260600190565b600b80546001600160a01b03191681556000600c819055600d819055600e819055610b70600f82611bc0565b6118a78261198d565b806118b657506118b682611113565b151581151514610b705760405162461bcd60e51b8152602060048201526005602482015264454331302d60d81b6044820152606401610295565b6118fe600754600554611b8b565b156119475760065460058190556040519081527f09cfdf09b84b5390e2f9e64a6b66bdfd4e3b7a611dfdd07cde2f5289ecdaace7906020015b60405180910390a16103c1611ba7565b611955600854600554611b8b565b156103c1577f6005dc34d50a3e2ea64571b58119d8a81074b8e2db57a77c28e664641733308f60065460405161193791815260200190565b6003546001600160a01b0382166000908152600160205260408120600201549091116119bb57506000919050565b6001600160a01b03821660009081526001602052604090206002015460038054909190811061117257611172612179565b6001600160a01b03821660009081526001602052604090819020600201549051633c39c19f60e11b8152600481018290526024810183905273__AddressLibrary________________________90637873833e9060440160006040518083038186803b158015611a5b57600080fd5b505af4158015611a6f573d6000803e3d6000fd5b505050508082805490501115611ac2578060016000016000848481548110611a9957611a99612179565b60009182526020808320909101546001600160a01b031683528201929092526040019020600201555b6001600160a01b03831660009081526001602052604081206002810182905560038101829055600481018290556103b291600590910190611bc0565b600054610100900460ff16611b195760005460ff1615611b1d565b303b155b611b395760405162461bcd60e51b815260040161029590611ffd565b600054610100900460ff16158015611b5b576000805461ffff19166101011790555b600a80546001600160a01b0319166001600160a01b0384161790558015610b70576000805461ff00191690555050565b600081831015611b9d57506000611ba1565b5060015b92915050565b60006006819055600781905560088190556103c1906009905b50805460008255906000526020600020908101906107b691905b80821115611bee5760008155600101611bda565b5090565b600082601f830112611c0357600080fd5b81356020611c18611c13836120f6565b6120c6565b80838252828201915082860187848660051b8901011115611c3857600080fd5b60005b85811015611c60578135611c4e816121a5565b84529284019290840190600101611c3b565b5090979650505050505050565b600060208284031215611c7f57600080fd5b8135611c8a816121a5565b9392505050565b60008060408385031215611ca457600080fd5b8235611caf816121a5565b946020939093013593505050565b600080600060608486031215611cd257600080fd5b8335611cdd816121a5565b9250602084810135925060408501356001600160401b0380821115611d0157600080fd5b818701915087601f830112611d1557600080fd5b813581811115611d2757611d2761218f565b611d39601f8201601f191685016120c6565b91508082528884828501011115611d4f57600080fd5b80848401858401376000848284010152508093505050509250925092565b60006020808385031215611d8057600080fd5b82516001600160401b03811115611d9657600080fd5b8301601f81018513611da757600080fd5b8051611db5611c13826120f6565b80828252848201915084840188868560051b8701011115611dd557600080fd5b600094505b83851015611e01578051611ded816121a5565b835260019490940193918501918501611dda565b50979650505050505050565b60008060408385031215611e2057600080fd5b82356001600160401b03811115611e3657600080fd5b611e4285828601611bf2565b95602094909401359450505050565b600080600060608486031215611e6657600080fd5b83356001600160401b03811115611e7c57600080fd5b611e8886828701611bf2565b935050602084013591506040840135611ea0816121a5565b809150509250925092565b600060208284031215611ebd57600080fd5b8135611c8a816121ba565b600060208284031215611eda57600080fd5b8151611c8a816121ba565b600060208284031215611ef757600080fd5b5035919050565b600060208284031215611f1057600080fd5b5051919050565b600081518084526020808501945080840160005b83811015611f505781516001600160a01b031687529582019590820190600101611f2b565b509495945050505050565b6001600160a01b0391909116815260200190565b6001600160a01b038381168252604060208084018290528451918401829052600092858201929091906060860190855b81811015611fbd578551851683529483019491830191600101611f9f565b509098975050505050505050565b602081526000611c8a6020830184611f17565b602080825260059082015264454331392d60d81b604082015260600190565b6020808252602e908201527f496e697469616c697a61626c653a20636f6e747261637420697320616c72656160408201526d191e481a5b9a5d1a585b1a5e995960921b606082015260800190565b6020815260018060a01b0382511660208201526020820151604082015260408201516060820152606082015160808201526000608083015160a08084015261209660c0840182611f17565b949350505050565b8381528260208201526060604082015260006120bd6060830184611f17565b95945050505050565b604051601f8201601f191681016001600160401b03811182821017156120ee576120ee61218f565b604052919050565b60006001600160401b0382111561210f5761210f61218f565b5060051b60200190565b6000821982111561212c5761212c612163565b500190565b60008282101561214357612143612163565b500390565b600060001982141561215c5761215c612163565b5060010190565b634e487b7160e01b600052601160045260246000fd5b634e487b7160e01b600052603260045260246000fd5b634e487b7160e01b600052604160045260246000fd5b6001600160a01b03811681146107b657600080fd5b80151581146107b657600080fdfea2646970667358221220e3dbfdd762392ba44776f10553259bf7606d51933dc41ba3fe0a7e84c1c292f464736f6c63430008070033",
  "immutableReferences": {},
  "source": "// SPDX-License-Identifier: GPL-3.0\r\n\r\npragma solidity 0.8.7;\r\n\r\nimport \"../Interfaces/IAdminPiggyBank.sol\";\r\nimport \"../Interfaces/IPayments.sol\";\r\nimport \"@openzeppelin/contracts-upgradeable/proxy/utils/Initializable.sol\";\r\nimport \"@openzeppelin/contracts/token/ERC20/IERC20.sol\";\r\nimport \"../Libraries/ItemsLibrary.sol\";\r\nimport \"../Base/MultiSigContract.sol\";\r\nimport \"../Base/CreditorBaseContract.sol\";\r\n\r\ncontract AdminPiggyBank is Initializable, MultiSigContract, CreditorBaseContract, IAdminPiggyBank {\r\n    using ItemsLibrary for *;\r\n\r\n    // EVENTS /////////////////////////////////////////\r\n    event _Pay(address indexed payer, uint amount);\r\n    event _TransferCreated(address indexed to, uint amount);\r\n    event _VoteForTransfer(address indexed to, uint amount, address indexed voter, bool vote);\r\n    event _TransferValidated(address indexed to, uint amount);\r\n    event _TransferRejected(address indexed to, uint amount);\r\n\r\n    // DATA /////////////////////////////////////////\r\n    _TransferStruct _transferInProgress;\r\n\r\n    // MODIFIERS /////////////////////////////////////////\r\n    modifier isReceiverOK(address addr)\r\n    {\r\n        require(address(0) != addr, \"We cannot transfer to address 0\");\r\n        _;\r\n    }\r\n\r\n    modifier isAmountOK(uint256 amount)\r\n    {\r\n        require(IPayments(_managerContract.retrieveTransparentProxies()[uint256(Library.TransparentProxies.Payments)]).BalanceOf(address(this)) >= amount, \"We cannot transfer more than the current balance\");\r\n        _;\r\n    }\r\n\r\n    modifier transferInProgress(bool YesOrNo)\r\n    {\r\n        transferInProgressFunc(YesOrNo);\r\n        _;\r\n    }\r\n\r\n    function transferInProgressFunc(bool YesOrNo) internal view\r\n    {\r\n        if(YesOrNo) require(address(0) != _transferInProgress._to, \"Transfer not in progress\");\r\n        else require(address(0) == _transferInProgress._to, \"Transfer in progress\");\r\n    }\r\n\r\n    // CONSTRUCTOR /////////////////////////////////////////\r\n    function AdminPiggyBank_init(address[] memory owners, uint256 minOwners, address managerContractAddress) public initializer {\r\n      super.MultiSigContract_init(owners, minOwners);\r\n      super.CreditorBaseContract_init(managerContractAddress); \r\n    }\r\n\r\n\r\n    // FUNCTIONALITY /////////////////////////////////////////\r\n    function onCreditReceived(address sender, uint256 amount, bytes memory data) internal override\r\n    {\r\n        emit _Pay(sender, amount);\r\n    }\r\n\r\n    function transfer(address receiver, uint256 amount) external override\r\n        isReceiverOK(receiver)\r\n        isAmountOK(amount)\r\n        transferInProgress(false)\r\n    {\r\n        _transferInProgress._to = receiver;\r\n        _transferInProgress._amount = amount;\r\n\r\n        emit _TransferCreated(receiver, amount);\r\n\r\n        VoteForTransfer(true);\r\n    }\r\n\r\n    function approve() external override\r\n    {\r\n        VoteForTransfer(true);\r\n    } \r\n\r\n    function reject() external override\r\n    {\r\n        VoteForTransfer(false);\r\n    }\r\n\r\n    function VoteForTransfer(bool vote) internal\r\n        isAnOwner(msg.sender, true)\r\n        transferInProgress(true)\r\n        HasNotAlreadyVoted(msg.sender, _transferInProgress._voters)\r\n    {\r\n\r\n        emit _VoteForTransfer(_transferInProgress._to, _transferInProgress._amount, msg.sender, vote);\r\n\r\n        _transferInProgress._voters.push(msg.sender);\r\n        \r\n        if(vote){\r\n            _transferInProgress._validations++;\r\n\r\n            if(_transferInProgress._validations >= _minOwners){\r\n                ItemsLibrary.TransferTo(_transferInProgress._amount, _transferInProgress._to, _managerContract.retrieveTransparentProxies()[uint256(Library.TransparentProxies.Payments)]);\r\n                emit _TransferValidated(_transferInProgress._to, _transferInProgress._amount);\r\n                deletingPendingTransfer();\r\n            }\r\n        }\r\n        else{\r\n            _transferInProgress._rejections++;\r\n\r\n            if(_transferInProgress._rejections >= _minOwners){\r\n                emit _TransferRejected(_transferInProgress._to, _transferInProgress._amount);\r\n                deletingPendingTransfer();\r\n            }\r\n        }\r\n\r\n    } \r\n\r\n    function deletingPendingTransfer() internal\r\n    {\r\n        delete(_transferInProgress);\r\n    }\r\n\r\n    function retrieveTransferInfo() external override view returns(_TransferStruct memory)\r\n    {\r\n        return(_transferInProgress);\r\n    }\r\n}",
  "sourcePath": "C:\\Users\\d-aam\\GitHub\\Originals\\contracts\\MainContracts\\AdminPiggyBank.sol",
  "compiler": {
    "name": "solc",
    "version": "0.8.7+commit.e28d00a7.Emscripten.clang"
  },
  "schemaVersion": "3.4.3",
  "updatedAt": "2022-02-15T15:50:51.148Z",
  "devdoc": {
    "kind": "dev",
    "methods": {},
    "version": 1
  },
  "userdoc": {
    "kind": "user",
    "methods": {},
    "version": 1
  }
}