{
  "contractName": "AdminPiggyBank",
  "abi": [
    {
      "anonymous": false,
      "inputs": [
        {
          "indexed": false,
          "internalType": "address",
          "name": "owner",
          "type": "address"
        }
      ],
      "name": "_AddOwnerRejection",
      "type": "event"
    },
    {
      "anonymous": false,
      "inputs": [
        {
          "indexed": false,
          "internalType": "address",
          "name": "owner",
          "type": "address"
        }
      ],
      "name": "_AddOwnerValidation",
      "type": "event"
    },
    {
      "anonymous": false,
      "inputs": [
        {
          "indexed": false,
          "internalType": "uint256",
          "name": "minOwner",
          "type": "uint256"
        }
      ],
      "name": "_MinOwnerRejection",
      "type": "event"
    },
    {
      "anonymous": false,
      "inputs": [
        {
          "indexed": false,
          "internalType": "uint256",
          "name": "minOwner",
          "type": "uint256"
        }
      ],
      "name": "_MinOwnerValidation",
      "type": "event"
    },
    {
      "anonymous": false,
      "inputs": [
        {
          "indexed": true,
          "internalType": "address",
          "name": "payer",
          "type": "address"
        },
        {
          "indexed": false,
          "internalType": "uint256",
          "name": "amount",
          "type": "uint256"
        }
      ],
      "name": "_Pay",
      "type": "event"
    },
    {
      "anonymous": false,
      "inputs": [
        {
          "indexed": false,
          "internalType": "address",
          "name": "owner",
          "type": "address"
        }
      ],
      "name": "_RemoveOwnerRejection",
      "type": "event"
    },
    {
      "anonymous": false,
      "inputs": [
        {
          "indexed": false,
          "internalType": "address",
          "name": "owner",
          "type": "address"
        }
      ],
      "name": "_RemoveOwnerValidation",
      "type": "event"
    },
    {
      "anonymous": false,
      "inputs": [
        {
          "indexed": true,
          "internalType": "address",
          "name": "to",
          "type": "address"
        },
        {
          "indexed": false,
          "internalType": "uint256",
          "name": "amount",
          "type": "uint256"
        }
      ],
      "name": "_TransferCreated",
      "type": "event"
    },
    {
      "anonymous": false,
      "inputs": [
        {
          "indexed": true,
          "internalType": "address",
          "name": "to",
          "type": "address"
        },
        {
          "indexed": false,
          "internalType": "uint256",
          "name": "amount",
          "type": "uint256"
        }
      ],
      "name": "_TransferRejected",
      "type": "event"
    },
    {
      "anonymous": false,
      "inputs": [
        {
          "indexed": true,
          "internalType": "address",
          "name": "to",
          "type": "address"
        },
        {
          "indexed": false,
          "internalType": "uint256",
          "name": "amount",
          "type": "uint256"
        }
      ],
      "name": "_TransferValidated",
      "type": "event"
    },
    {
      "anonymous": false,
      "inputs": [
        {
          "indexed": false,
          "internalType": "uint256",
          "name": "minOwner",
          "type": "uint256"
        },
        {
          "indexed": false,
          "internalType": "address",
          "name": "voter",
          "type": "address"
        },
        {
          "indexed": false,
          "internalType": "bool",
          "name": "vote",
          "type": "bool"
        }
      ],
      "name": "_VoteForMinOwner",
      "type": "event"
    },
    {
      "anonymous": false,
      "inputs": [
        {
          "indexed": false,
          "internalType": "address",
          "name": "owner",
          "type": "address"
        },
        {
          "indexed": false,
          "internalType": "address",
          "name": "voter",
          "type": "address"
        },
        {
          "indexed": false,
          "internalType": "bool",
          "name": "vote",
          "type": "bool"
        }
      ],
      "name": "_VoteForOwner",
      "type": "event"
    },
    {
      "anonymous": false,
      "inputs": [
        {
          "indexed": true,
          "internalType": "address",
          "name": "to",
          "type": "address"
        },
        {
          "indexed": false,
          "internalType": "uint256",
          "name": "amount",
          "type": "uint256"
        },
        {
          "indexed": true,
          "internalType": "address",
          "name": "voter",
          "type": "address"
        },
        {
          "indexed": false,
          "internalType": "bool",
          "name": "vote",
          "type": "bool"
        }
      ],
      "name": "_VoteForTransfer",
      "type": "event"
    },
    {
      "inputs": [
        {
          "internalType": "address",
          "name": "sender",
          "type": "address"
        },
        {
          "internalType": "uint256",
          "name": "amount",
          "type": "uint256"
        },
        {
          "internalType": "bytes",
          "name": "data",
          "type": "bytes"
        }
      ],
      "name": "CreditReceived",
      "outputs": [],
      "stateMutability": "nonpayable",
      "type": "function"
    },
    {
      "inputs": [
        {
          "internalType": "address[]",
          "name": "owners",
          "type": "address[]"
        },
        {
          "internalType": "uint256",
          "name": "minOwners",
          "type": "uint256"
        }
      ],
      "name": "MultiSigContract_init",
      "outputs": [],
      "stateMutability": "nonpayable",
      "type": "function"
    },
    {
      "inputs": [
        {
          "internalType": "address",
          "name": "owner",
          "type": "address"
        }
      ],
      "name": "addOwner",
      "outputs": [],
      "stateMutability": "nonpayable",
      "type": "function"
    },
    {
      "inputs": [
        {
          "internalType": "uint256",
          "name": "newMinOwners",
          "type": "uint256"
        }
      ],
      "name": "changeMinOwners",
      "outputs": [],
      "stateMutability": "nonpayable",
      "type": "function"
    },
    {
      "inputs": [],
      "name": "rejectMinOwners",
      "outputs": [],
      "stateMutability": "nonpayable",
      "type": "function"
    },
    {
      "inputs": [
        {
          "internalType": "address",
          "name": "owner",
          "type": "address"
        }
      ],
      "name": "rejectOwner",
      "outputs": [],
      "stateMutability": "nonpayable",
      "type": "function"
    },
    {
      "inputs": [
        {
          "internalType": "address",
          "name": "owner",
          "type": "address"
        }
      ],
      "name": "removeOwner",
      "outputs": [],
      "stateMutability": "nonpayable",
      "type": "function"
    },
    {
      "inputs": [],
      "name": "retrieveAllOwners",
      "outputs": [
        {
          "internalType": "address[]",
          "name": "",
          "type": "address[]"
        }
      ],
      "stateMutability": "view",
      "type": "function"
    },
    {
      "inputs": [],
      "name": "retrieveManagerContract",
      "outputs": [
        {
          "internalType": "address",
          "name": "",
          "type": "address"
        }
      ],
      "stateMutability": "view",
      "type": "function"
    },
    {
      "inputs": [],
      "name": "retrieveMinOwners",
      "outputs": [
        {
          "internalType": "uint256",
          "name": "",
          "type": "uint256"
        }
      ],
      "stateMutability": "view",
      "type": "function"
    },
    {
      "inputs": [],
      "name": "retrievePendingMinOwners",
      "outputs": [
        {
          "internalType": "uint256",
          "name": "",
          "type": "uint256"
        }
      ],
      "stateMutability": "view",
      "type": "function"
    },
    {
      "inputs": [],
      "name": "retrievePendingMinOwnersStatus",
      "outputs": [
        {
          "internalType": "uint256",
          "name": "",
          "type": "uint256"
        },
        {
          "internalType": "uint256",
          "name": "",
          "type": "uint256"
        },
        {
          "internalType": "address[]",
          "name": "",
          "type": "address[]"
        }
      ],
      "stateMutability": "view",
      "type": "function"
    },
    {
      "inputs": [
        {
          "internalType": "bool",
          "name": "addedORremove",
          "type": "bool"
        }
      ],
      "name": "retrievePendingOwners",
      "outputs": [
        {
          "internalType": "address[]",
          "name": "",
          "type": "address[]"
        }
      ],
      "stateMutability": "view",
      "type": "function"
    },
    {
      "inputs": [],
      "name": "validateMinOwners",
      "outputs": [],
      "stateMutability": "nonpayable",
      "type": "function"
    },
    {
      "inputs": [
        {
          "internalType": "address",
          "name": "owner",
          "type": "address"
        }
      ],
      "name": "validateOwner",
      "outputs": [],
      "stateMutability": "nonpayable",
      "type": "function"
    },
    {
      "inputs": [
        {
          "internalType": "address[]",
          "name": "owners",
          "type": "address[]"
        },
        {
          "internalType": "uint256",
          "name": "minOwners",
          "type": "uint256"
        },
        {
          "internalType": "address",
          "name": "managerContractAddress",
          "type": "address"
        }
      ],
      "name": "AdminPiggyBank_init",
      "outputs": [],
      "stateMutability": "nonpayable",
      "type": "function"
    },
    {
      "inputs": [
        {
          "internalType": "address",
          "name": "receiver",
          "type": "address"
        },
        {
          "internalType": "uint256",
          "name": "amount",
          "type": "uint256"
        }
      ],
      "name": "transfer",
      "outputs": [],
      "stateMutability": "nonpayable",
      "type": "function"
    },
    {
      "inputs": [],
      "name": "approve",
      "outputs": [],
      "stateMutability": "nonpayable",
      "type": "function"
    },
    {
      "inputs": [],
      "name": "reject",
      "outputs": [],
      "stateMutability": "nonpayable",
      "type": "function"
    },
    {
      "inputs": [],
      "name": "retrieveTransferInfo",
      "outputs": [
        {
          "components": [
            {
              "internalType": "address",
              "name": "_to",
              "type": "address"
            },
            {
              "internalType": "uint256",
              "name": "_amount",
              "type": "uint256"
            },
            {
              "internalType": "uint256",
              "name": "_validations",
              "type": "uint256"
            },
            {
              "internalType": "uint256",
              "name": "_rejections",
              "type": "uint256"
            },
            {
              "internalType": "address[]",
              "name": "_voters",
              "type": "address[]"
            }
          ],
          "internalType": "struct IAdminPiggyBank._TransferStruct",
          "name": "",
          "type": "tuple"
        }
      ],
      "stateMutability": "view",
      "type": "function"
    }
  ],
  "bytecode": "0x608060405234801561001057600080fd5b506124a5806100206000396000f3fe608060405234801561001057600080fd5b50600436106100fc5760003560e01c80630bee185e1461010157806312424e3f14610116578063173825d91461011e5780632edbe7fc146101315780632f02a3ec1461014857806330ade9221461015b5780634dc415de146101635780635888ebb31461016b5780635b362e84146101825780636151c3431461019b57806365b973e5146101b05780636b299604146101b85780637065cb48146101d857806376f8f90f146101eb578063a9059cbb146101fe578063a93d5ed614610211578063c3079ae714610219578063c66433ea14610221578063cdfba54b14610234578063ce33d58a14610247575b600080fd5b61011461010f366004611f4d565b61025a565b005b6101146103b7565b61011461012c366004611dad565b6103c3565b6006545b6040519081526020015b60405180910390f35b610114610156366004611dfd565b6103fe565b6101146105de565b6101146105e8565b6101736105f2565b60405161013f9392919061231d565b600a546001600160a01b031660405161013f9190612168565b6101a3610666565b60405161013f919061224a565b600554610135565b6101cb6101c63660046120b8565b610739565b60405161013f91906121ca565b6101146101e6366004611dad565b6107fd565b6101146101f9366004611dad565b610815565b61011461020c366004611dd1565b610866565b6101cb610ab7565b610114610b1b565b61011461022f3660046120f2565b610b25565b610114610242366004611f91565b610b72565b610114610255366004611dad565b610bf9565b600054610100900460ff166102755760005460ff1615610279565b303b155b61029e5760405162461bcd60e51b8152600401610295906121fc565b60405180910390fd5b600054610100900460ff161580156102c0576000805461ffff19166101011790555b8183516102cd8282610c04565b6001846102da8282610c04565b600586905560005b875181101561039b5760018060000160008a848151811061030557610305612420565b6020908102919091018101516001600160a01b03168252810191909152604001600020805460ff1916911515919091179055875160029089908390811061034e5761034e612420565b60209081029190910181015182546001810184556000938452919092200180546001600160a01b0319166001600160a01b0390921691909117905580610393816123ef565b9150506102e2565b505050505080156103b2576000805461ff00191690555b505050565b6103c16001610c28565b565b8060016103d08282610fda565b6005546002546103e2906001906123d8565b6103ec8282610c04565b6103f7856004611031565b5050505050565b600a546040805163e220ad9560e01b8152905133926001600160a01b03169163e220ad95916004808301926000929190829003018186803b15801561044257600080fd5b505afa158015610456573d6000803e3d6000fd5b505050506040513d6000823e601f3d908101601f1916820160405261047e9190810190611ead565b60018151811061049057610490612420565b60200260200101516001600160a01b0316816001600160a01b0316148061056b5750600a60009054906101000a90046001600160a01b03166001600160a01b031663e220ad956040518163ffffffff1660e01b815260040160006040518083038186803b15801561050057600080fd5b505afa158015610514573d6000803e3d6000fd5b505050506040513d6000823e601f3d908101601f1916820160405261053c9190810190611ead565b60068151811061054e5761054e612420565b60200260200101516001600160a01b0316816001600160a01b0316145b6105cd5760405162461bcd60e51b815260206004820152602d60248201527f4974206973206e6f742066726f6d206f6e65206f66207468652063657274696660448201526c69656420636f6e74726163747360981b6064820152608401610295565b6105d88484846110bd565b50505050565b6103c16001611105565b6103c16000610c28565b600080606060075460085460098080548060200260200160405190810160405280929190818152602001828054801561065457602002820191906000526020600020905b81546001600160a01b03168152600190910190602001808311610636575b50505050509050925092509250909192565b6106a16040518060a0016040528060006001600160a01b03168152602001600081526020016000815260200160008152602001606081525090565b6040805160a081018252600b80546001600160a01b03168252600c54602080840191909152600d5483850152600e546060840152600f80548551818402810184019096528086529394929360808601939283018282801561072b57602002820191906000526020600020905b81546001600160a01b0316815260019091019060200180831161070d575b505050505081525050905090565b606081156107a057600380546040805160208084028201810190925282815292919083018282801561079457602002820191906000526020600020905b81546001600160a01b03168152600190910190602001808311610776575b50505050509050919050565b6004805460408051602080840282018101909252828152929190830182828015610794576020028201919060005260206000209081546001600160a01b031681526001909101906020018083116107765750505050509050919050565b80600061080a8282610fda565b6103b2836003611031565b61081e81611253565b15156001141561085857600254610837906001906123d8565b60055411156108585760405162461bcd60e51b8152600401610295906121dd565b6108638160016112d4565b50565b816001600160a01b0381166108bd5760405162461bcd60e51b815260206004820152601f60248201527f57652063616e6e6f74207472616e7366657220746f20616464726573732030006044820152606401610295565b8180600a60009054906101000a90046001600160a01b03166001600160a01b031663e220ad956040518163ffffffff1660e01b815260040160006040518083038186803b15801561090d57600080fd5b505afa158015610921573d6000803e3d6000fd5b505050506040513d6000823e601f3d908101601f191682016040526109499190810190611ead565b60068151811061095b5761095b612420565b60209081029190910101516040516329fd178d60e11b8152306004820152600060248201526001600160a01b03909116906353fa2f1a9060440160206040518083038186803b1580156109ad57600080fd5b505afa1580156109c1573d6000803e3d6000fd5b505050506040513d601f19601f820116820180604052508101906109e5919061210b565b1015610a4c5760405162461bcd60e51b815260206004820152603060248201527f57652063616e6e6f74207472616e73666572206d6f7265207468616e2074686560448201526f2063757272656e742062616c616e636560801b6064820152608401610295565b6000610a578161175a565b600b80546001600160a01b0319166001600160a01b038716908117909155600c8590556040518581527fc66749b3cc2413da07d31e75dcb0822390ff02e6311a112e9b8aac23563badbc9060200160405180910390a26103f76001610c28565b606060018001805480602002602001604051908101604052809291908181526020018280548015610b1157602002820191906000526020600020905b81546001600160a01b03168152600190910190602001808311610af3575b5050505050905090565b6103c16000611105565b336001610b328282610fda565b6000610b3d81611803565b6002548490610b4c8282610c04565b600186610b598282610c04565b6006889055610b686001611105565b5050505050505050565b600054610100900460ff16610b8d5760005460ff1615610b91565b303b155b610bad5760405162461bcd60e51b8152600401610295906121fc565b600054610100900460ff16158015610bcf576000805461ffff19166101011790555b610bd9848461025a565b610be282611878565b80156105d8576000805461ff001916905550505050565b6108638160006112d4565b80821115610c245760405162461bcd60e51b8152600401610295906121dd565b5050565b336001610c358282610fda565b6001610c408161175a565b33600b600401805480602002602001604051908101604052809291908181526020018280548015610c9a57602002820191906000526020600020905b81546001600160a01b03168152600190910190602001808311610c7c575b5050505050610ca982826118f3565b600b54600c5460408051918252881515602083015233926001600160a01b0316917fa9d7928136deb71b5d70a5313c8332eff4c01c50cec75d98a643c5ba94574747910160405180910390a3600f80546001810182556000919091527f8d1108e10bcb7c27dddfc02ed9d693a074039d026cf4ea4240b40f7d581ac8020180546001600160a01b031916331790558515610f6557600d8054906000610d4d836123ef565b9091555050600554600d5410610f6057600c54600b54600a546040805163e220ad9560e01b8152905173__ItemsLibrary__________________________9463e52f34ff9490936001600160a01b039182169391169163e220ad9591600480820192600092909190829003018186803b158015610dc957600080fd5b505afa158015610ddd573d6000803e3d6000fd5b505050506040513d6000823e601f3d908101601f19168201604052610e059190810190611ead565b600681518110610e1757610e17612420565b60200260200101516001600160a01b031663b049473f6040518163ffffffff1660e01b815260040160006040518083038186803b158015610e5757600080fd5b505afa158015610e6b573d6000803e3d6000fd5b505050506040513d6000823e601f3d908101601f19168201604052610e939190810190611feb565b600081518110610ea557610ea5612420565b6020026020010151600001516000604051806020016040528060008152506040518663ffffffff1660e01b8152600401610ee395949392919061229d565b60006040518083038186803b158015610efb57600080fd5b505af4158015610f0f573d6000803e3d6000fd5b5050600b54600c546040519081526001600160a01b0390911692507ffea5a60f19e31d340bbd014f800a5a0556efc2b42812fb94b3702095b761051d915060200160405180910390a2610f606119b2565b610fd2565b600e8054906000610f75836123ef565b9091555050600554600e5410610fd257600b54600c546040519081526001600160a01b03909116907f2ad6cd8714b7ba15fe0e75d87d2799d17fa9ec72a76166e2a2f73fe5da5bb3139060200160405180910390a2610fd26119b2565b505050505050565b6001600160a01b03821660009081526001602052604090205460ff16151581151514610c245760405162461bcd60e51b8152600401610295906020808252600490820152634543392d60e01b604082015260600190565b33600161103e8282610fda565b83600061104b82826119de565b84546001808201875560008781526020812090920180546001600160a01b0319166001600160a01b038a16179055865461108591906123d8565b6001600160a01b03881660009081526001602081905260409091206002018290559091506110b49088906112d4565b50505050505050565b826001600160a01b03167fa1a75f56738f80584efa96074fcf81008d3e7456d405f2811bc39295c151c108836040516110f891815260200190565b60405180910390a2505050565b3360016111128282610fda565b600161111d81611803565b33600980548060200260200160405190810160405280929190818152602001828054801561117457602002820191906000526020600020905b81546001600160a01b03168152600190910190602001808311611156575b505050505061118382826118f3565b85156111a75760016007600082825461119c91906123c0565b909155506111c09050565b6001600860008282546111ba91906123c0565b90915550505b600980546001810182556000919091527f6e1540171b6c0c960b71a7020d9f60077f6af931a8bbf590da0223dacf75c7af018054336001600160a01b031990911681179091556006546040805191825260208201929092528715158183015290517fb335599a2dd1eaaedeb810215d45e667a6c5ac7bcfd03c29e597db8bf0cddcc69181900360600190a1610fd2611a30565b6004546001600160a01b03821660009081526001602052604081206002015490911161128157506000919050565b6001600160a01b0382166000908152600160205260409020600201546004805490919081106112b2576112b2612420565b6000918252602090912001546001600160a01b03928316921691909114919050565b3360016112e18282610fda565b8360016112ee82826119de565b6001600160a01b038616600090815260016020908152604091829020600501805483518184028101840190945280845233939283018282801561135a57602002820191906000526020600020905b81546001600160a01b0316815260019091019060200180831161133c575b505050505061136982826118f3565b604080516001600160a01b038a1681523360208201528815158183015290517fc6f241efc3de3ce31d0e682102cc781f0605f0f90d72addfea699e4aea85dd799181900360600190a16001600160a01b038816600090815260016020818152604083206005018054928301815583529091200180546001600160a01b03191633179055861561166c576001600160a01b0388166000908152600160205260408120600301805491611419836123ef565b90915550506005546001600160a01b0389166000908152600160205260409020600301541061166757600461144d89611acd565b15611520575060028054600180820183557f405787fa12a823e0f2b7631cc41b3ba8828b3321ca811111fa75cd3aa3bb5ace90910180546001600160a01b0319166001600160a01b038c169081179091556000908152602082905260409020805460ff19168217905590546003916114c4916123d8565b6001600160a01b038a166000908152600160208190526040918290200191909155517f45bbe5ceeddcb6d0b4045349efc87a3fde966578e3970cda6f53bfc76efaf9f790611513908b90612168565b60405180910390a161165b565b6001600160a01b03891660009081526001602081905260409182902001549051633c39c19f60e11b8152600481018290526002602482015273__AddressLibrary________________________90637873833e9060440160006040518083038186803b15801561158f57600080fd5b505af41580156115a3573d6000803e3d6000fd5b505060025483101591506115f990505780600160000160006001800184815481106115d0576115d0612420565b60009182526020808320909101546001600160a01b031683528201929092526040019020600101555b6001600160a01b038a166000908152600160208190526040808320805460ff1916815590910191909155517f82bcab3b042f3e2143a9d33d07fa130afdf763f17a45679670f0e39f12064ca890611651908c90612168565b60405180910390a1505b6116658982611b2c565b505b610b68565b6001600160a01b0388166000908152600160205260408120600401805491611693836123ef565b90915550506005546001600160a01b03891660009081526001602052604090206004015410610b685760046116c789611acd565b1561170d57506040516003907f622a69297177c029df8c1ba7f4d2d59881089b571ae96800e634aff50d67492e90611700908b90612168565b60405180910390a1611745565b7f547e31c58b802b63bc89f1109a132a291b0527c9196c97759829aeaecd3c2d398960405161173c9190612168565b60405180910390a15b61174f8982611b2c565b505050505050505050565b80156117b357600b546001600160a01b03166108635760405162461bcd60e51b81526020600482015260186024820152775472616e73666572206e6f7420696e2070726f677265737360401b6044820152606401610295565b600b546001600160a01b0316156108635760405162461bcd60e51b81526020600482015260146024820152735472616e7366657220696e2070726f677265737360601b6044820152606401610295565b8015611840576006546108635760405162461bcd60e51b8152602060048201526005602482015264454333312d60d81b6044820152606401610295565b600654156108635760405162461bcd60e51b8152602060048201526005602482015264454333302d60d81b6044820152606401610295565b600054610100900460ff166118935760005460ff1615611897565b303b155b6118b35760405162461bcd60e51b8152600401610295906121fc565b600054610100900460ff161580156118d5576000805461ffff19166101011790555b6118de82611c3e565b8015610c24576000805461ff00191690555050565b60405163f7cf62d760e01b815273__AddressLibrary________________________9063f7cf62d79061192c908590859060040161217c565b60206040518083038186803b15801561194457600080fd5b505af4158015611958573d6000803e3d6000fd5b505050506040513d601f19601f8201168201806040525081019061197c91906120d5565b15610c245760405162461bcd60e51b8152600401610295906020808252600490820152634543352d60e01b604082015260600190565b600b80546001600160a01b03191681556000600c819055600d819055600e819055610c24600f82611d00565b6119e782611acd565b806119f657506119f682611253565b151581151514610c245760405162461bcd60e51b8152602060048201526005602482015264454331302d60d81b6044820152606401610295565b611a3e600754600554611ccb565b15611a875760065460058190556040519081527f09cfdf09b84b5390e2f9e64a6b66bdfd4e3b7a611dfdd07cde2f5289ecdaace7906020015b60405180910390a16103c1611ce7565b611a95600854600554611ccb565b156103c1577f6005dc34d50a3e2ea64571b58119d8a81074b8e2db57a77c28e664641733308f600654604051611a7791815260200190565b6003546001600160a01b038216600090815260016020526040812060020154909111611afb57506000919050565b6001600160a01b0382166000908152600160205260409020600201546003805490919081106112b2576112b2612420565b6001600160a01b03821660009081526001602052604090819020600201549051633c39c19f60e11b8152600481018290526024810183905273__AddressLibrary________________________90637873833e9060440160006040518083038186803b158015611b9b57600080fd5b505af4158015611baf573d6000803e3d6000fd5b505050508082805490501115611c02578060016000016000848481548110611bd957611bd9612420565b60009182526020808320909101546001600160a01b031683528201929092526040019020600201555b6001600160a01b03831660009081526001602052604081206002810182905560038101829055600481018290556103b291600590910190611d00565b600054610100900460ff16611c595760005460ff1615611c5d565b303b155b611c795760405162461bcd60e51b8152600401610295906121fc565b600054610100900460ff16158015611c9b576000805461ffff19166101011790555b600a80546001600160a01b0319166001600160a01b0384161790558015610c24576000805461ff00191690555050565b600081831015611cdd57506000611ce1565b5060015b92915050565b60006006819055600781905560088190556103c1906009905b508054600082559060005260206000209081019061086391905b80821115611d2e5760008155600101611d1a565b5090565b600082601f830112611d4357600080fd5b81356020611d58611d538361239d565b61236d565b80838252828201915082860187848660051b8901011115611d7857600080fd5b60005b85811015611da0578135611d8e8161244c565b84529284019290840190600101611d7b565b5090979650505050505050565b600060208284031215611dbf57600080fd5b8135611dca8161244c565b9392505050565b60008060408385031215611de457600080fd5b8235611def8161244c565b946020939093013593505050565b600080600060608486031215611e1257600080fd5b8335611e1d8161244c565b9250602084810135925060408501356001600160401b0380821115611e4157600080fd5b818701915087601f830112611e5557600080fd5b813581811115611e6757611e67612436565b611e79601f8201601f1916850161236d565b91508082528884828501011115611e8f57600080fd5b80848401858401376000848284010152508093505050509250925092565b60006020808385031215611ec057600080fd5b82516001600160401b03811115611ed657600080fd5b8301601f81018513611ee757600080fd5b8051611ef5611d538261239d565b80828252848201915084840188868560051b8701011115611f1557600080fd5b600094505b83851015611f41578051611f2d8161244c565b835260019490940193918501918501611f1a565b50979650505050505050565b60008060408385031215611f6057600080fd5b82356001600160401b03811115611f7657600080fd5b611f8285828601611d32565b95602094909401359450505050565b600080600060608486031215611fa657600080fd5b83356001600160401b03811115611fbc57600080fd5b611fc886828701611d32565b935050602084013591506040840135611fe08161244c565b809150509250925092565b60006020808385031215611ffe57600080fd5b82516001600160401b0381111561201457600080fd5b8301601f8101851361202557600080fd5b8051612033611d538261239d565b80828252848201915084840188868560061b870101111561205357600080fd5b60009450845b848110156120aa57604080838c031215612071578687fd5b612079612345565b83516120848161244c565b81528389015161209381612461565b818a01528552938701939190910190600101612059565b509098975050505050505050565b6000602082840312156120ca57600080fd5b8135611dca81612461565b6000602082840312156120e757600080fd5b8151611dca81612461565b60006020828403121561210457600080fd5b5035919050565b60006020828403121561211d57600080fd5b5051919050565b600081518084526020808501945080840160005b8381101561215d5781516001600160a01b031687529582019590820190600101612138565b509495945050505050565b6001600160a01b0391909116815260200190565b6001600160a01b038381168252604060208084018290528451918401829052600092858201929091906060860190855b818110156120aa5785518516835294830194918301916001016121ac565b602081526000611dca6020830184612124565b602080825260059082015264454331392d60d81b604082015260600190565b6020808252602e908201527f496e697469616c697a61626c653a20636f6e747261637420697320616c72656160408201526d191e481a5b9a5d1a585b1a5e995960921b606082015260800190565b6020815260018060a01b0382511660208201526020820151604082015260408201516060820152606082015160808201526000608083015160a08084015261229560c0840182612124565b949350505050565b8581526000602060018060a01b0380881682850152808716604085015250841515606084015260a0608084015283518060a085015260005b818110156122f15785810183015185820160c0015282016122d5565b8181111561230357600060c083870101525b50601f01601f19169290920160c001979650505050505050565b83815282602082015260606040820152600061233c6060830184612124565b95945050505050565b604080519081016001600160401b038111828210171561236757612367612436565b60405290565b604051601f8201601f191681016001600160401b038111828210171561239557612395612436565b604052919050565b60006001600160401b038211156123b6576123b6612436565b5060051b60200190565b600082198211156123d3576123d361240a565b500190565b6000828210156123ea576123ea61240a565b500390565b60006000198214156124035761240361240a565b5060010190565b634e487b7160e01b600052601160045260246000fd5b634e487b7160e01b600052603260045260246000fd5b634e487b7160e01b600052604160045260246000fd5b6001600160a01b038116811461086357600080fd5b801515811461086357600080fdfea26469706673582212202f135ec1d258524935bc09e20ad920a58f4c8f83a5d23c62e01ac8a4b9c3553e64736f6c63430008070033",
  "immutableReferences": {},
  "source": "// SPDX-License-Identifier: GPL-3.0\r\n\r\npragma solidity 0.8.7;\r\n\r\nimport \"../Interfaces/IAdminPiggyBank.sol\";\r\nimport \"../Interfaces/IPayments.sol\";\r\nimport \"@openzeppelin/contracts-upgradeable/proxy/utils/Initializable.sol\";\r\nimport \"@openzeppelin/contracts/token/ERC20/IERC20.sol\";\r\nimport \"../Libraries/ItemsLibrary.sol\";\r\nimport \"../Base/MultiSigContract.sol\";\r\nimport \"../Base/CreditorBaseContract.sol\";\r\n\r\ncontract AdminPiggyBank is Initializable, MultiSigContract, CreditorBaseContract, IAdminPiggyBank {\r\n    using ItemsLibrary for *;\r\n\r\n    // EVENTS /////////////////////////////////////////\r\n    event _Pay(address indexed payer, uint amount);\r\n    event _TransferCreated(address indexed to, uint amount);\r\n    event _VoteForTransfer(address indexed to, uint amount, address indexed voter, bool vote);\r\n    event _TransferValidated(address indexed to, uint amount);\r\n    event _TransferRejected(address indexed to, uint amount);\r\n\r\n    // DATA /////////////////////////////////////////\r\n    _TransferStruct _transferInProgress;\r\n\r\n    // MODIFIERS /////////////////////////////////////////\r\n    modifier isReceiverOK(address addr)\r\n    {\r\n        require(address(0) != addr, \"We cannot transfer to address 0\");\r\n        _;\r\n    }\r\n\r\n    modifier isAmountOK(uint256 amount)\r\n    {\r\n        require(IPayments(_managerContract.retrieveTransparentProxies()[uint256(Library.TransparentProxies.Payments)]).BalanceOf(address(this), 0) >= amount, \"We cannot transfer more than the current balance\");\r\n        _;\r\n    }\r\n\r\n    modifier transferInProgress(bool YesOrNo)\r\n    {\r\n        transferInProgressFunc(YesOrNo);\r\n        _;\r\n    }\r\n\r\n    function transferInProgressFunc(bool YesOrNo) internal view\r\n    {\r\n        if(YesOrNo) require(address(0) != _transferInProgress._to, \"Transfer not in progress\");\r\n        else require(address(0) == _transferInProgress._to, \"Transfer in progress\");\r\n    }\r\n\r\n    // CONSTRUCTOR /////////////////////////////////////////\r\n    function AdminPiggyBank_init(address[] memory owners, uint256 minOwners, address managerContractAddress) public initializer {\r\n      super.MultiSigContract_init(owners, minOwners);\r\n      super.CreditorBaseContract_init(managerContractAddress); \r\n    }\r\n\r\n\r\n    // FUNCTIONALITY /////////////////////////////////////////\r\n    function onCreditReceived(address sender, uint256 amount, bytes memory data) internal override\r\n    {\r\n        emit _Pay(sender, amount);\r\n    }\r\n\r\n    function transfer(address receiver, uint256 amount) external override\r\n        isReceiverOK(receiver)\r\n        isAmountOK(amount)\r\n        transferInProgress(false)\r\n    {\r\n        _transferInProgress._to = receiver;\r\n        _transferInProgress._amount = amount;\r\n\r\n        emit _TransferCreated(receiver, amount);\r\n\r\n        VoteForTransfer(true);\r\n    }\r\n\r\n    function approve() external override\r\n    {\r\n        VoteForTransfer(true);\r\n    } \r\n\r\n    function reject() external override\r\n    {\r\n        VoteForTransfer(false);\r\n    }\r\n\r\n    function VoteForTransfer(bool vote) internal\r\n        isAnOwner(msg.sender, true)\r\n        transferInProgress(true)\r\n        HasNotAlreadyVoted(msg.sender, _transferInProgress._voters)\r\n    {\r\n\r\n        emit _VoteForTransfer(_transferInProgress._to, _transferInProgress._amount, msg.sender, vote);\r\n\r\n        _transferInProgress._voters.push(msg.sender);\r\n        \r\n        if(vote){\r\n            _transferInProgress._validations++;\r\n\r\n            if(_transferInProgress._validations >= _minOwners){\r\n                ItemsLibrary.TransferTo(\r\n                    _transferInProgress._amount, \r\n                    _transferInProgress._to, \r\n                    address(IPayments(_managerContract.retrieveTransparentProxies()[uint256(Library.TransparentProxies.Payments)]).retrieveSettings()[0].TokenContract),\r\n                    false,\r\n                    bytes(\"\")\r\n                );\r\n                emit _TransferValidated(_transferInProgress._to, _transferInProgress._amount);\r\n                deletingPendingTransfer();\r\n            }\r\n        }\r\n        else{\r\n            _transferInProgress._rejections++;\r\n\r\n            if(_transferInProgress._rejections >= _minOwners){\r\n                emit _TransferRejected(_transferInProgress._to, _transferInProgress._amount);\r\n                deletingPendingTransfer();\r\n            }\r\n        }\r\n\r\n    } \r\n\r\n    function deletingPendingTransfer() internal\r\n    {\r\n        delete(_transferInProgress);\r\n    }\r\n\r\n    function retrieveTransferInfo() external override view returns(_TransferStruct memory)\r\n    {\r\n        return(_transferInProgress);\r\n    }\r\n}",
  "sourcePath": "C:\\Users\\d-aam\\GitHub\\Originals\\contracts\\MainContracts\\AdminPiggyBank.sol",
  "compiler": {
    "name": "solc",
    "version": "0.8.7+commit.e28d00a7.Emscripten.clang"
  },
  "schemaVersion": "3.4.3",
  "updatedAt": "2022-02-24T14:33:05.536Z",
  "devdoc": {
    "kind": "dev",
    "methods": {},
    "version": 1
  },
  "userdoc": {
    "kind": "user",
    "methods": {},
    "version": 1
  }
}