{
  "contractName": "AdminPiggyBank",
  "abi": [
    {
      "anonymous": false,
      "inputs": [
        {
          "indexed": false,
          "internalType": "address",
          "name": "owner",
          "type": "address"
        }
      ],
      "name": "_AddOwnerRejection",
      "type": "event"
    },
    {
      "anonymous": false,
      "inputs": [
        {
          "indexed": false,
          "internalType": "address",
          "name": "owner",
          "type": "address"
        }
      ],
      "name": "_AddOwnerValidation",
      "type": "event"
    },
    {
      "anonymous": false,
      "inputs": [
        {
          "indexed": false,
          "internalType": "uint256",
          "name": "minOwner",
          "type": "uint256"
        }
      ],
      "name": "_MinOwnerRejection",
      "type": "event"
    },
    {
      "anonymous": false,
      "inputs": [
        {
          "indexed": false,
          "internalType": "uint256",
          "name": "minOwner",
          "type": "uint256"
        }
      ],
      "name": "_MinOwnerValidation",
      "type": "event"
    },
    {
      "anonymous": false,
      "inputs": [
        {
          "indexed": true,
          "internalType": "address",
          "name": "payer",
          "type": "address"
        },
        {
          "indexed": false,
          "internalType": "uint256",
          "name": "amount",
          "type": "uint256"
        },
        {
          "indexed": false,
          "internalType": "uint256",
          "name": "paymentTokenID",
          "type": "uint256"
        }
      ],
      "name": "_Pay",
      "type": "event"
    },
    {
      "anonymous": false,
      "inputs": [
        {
          "indexed": false,
          "internalType": "address",
          "name": "owner",
          "type": "address"
        }
      ],
      "name": "_RemoveOwnerRejection",
      "type": "event"
    },
    {
      "anonymous": false,
      "inputs": [
        {
          "indexed": false,
          "internalType": "address",
          "name": "owner",
          "type": "address"
        }
      ],
      "name": "_RemoveOwnerValidation",
      "type": "event"
    },
    {
      "anonymous": false,
      "inputs": [
        {
          "indexed": true,
          "internalType": "address",
          "name": "to",
          "type": "address"
        },
        {
          "indexed": false,
          "internalType": "uint256",
          "name": "amount",
          "type": "uint256"
        },
        {
          "indexed": false,
          "internalType": "uint256",
          "name": "paymentTokenID",
          "type": "uint256"
        }
      ],
      "name": "_TransferCreated",
      "type": "event"
    },
    {
      "anonymous": false,
      "inputs": [
        {
          "indexed": true,
          "internalType": "address",
          "name": "to",
          "type": "address"
        },
        {
          "indexed": false,
          "internalType": "uint256",
          "name": "amount",
          "type": "uint256"
        },
        {
          "indexed": false,
          "internalType": "uint256",
          "name": "paymentTokenID",
          "type": "uint256"
        }
      ],
      "name": "_TransferRejected",
      "type": "event"
    },
    {
      "anonymous": false,
      "inputs": [
        {
          "indexed": true,
          "internalType": "address",
          "name": "to",
          "type": "address"
        },
        {
          "indexed": false,
          "internalType": "uint256",
          "name": "amount",
          "type": "uint256"
        },
        {
          "indexed": false,
          "internalType": "uint256",
          "name": "paymentTokenID",
          "type": "uint256"
        }
      ],
      "name": "_TransferValidated",
      "type": "event"
    },
    {
      "anonymous": false,
      "inputs": [
        {
          "indexed": false,
          "internalType": "uint256",
          "name": "minOwner",
          "type": "uint256"
        },
        {
          "indexed": false,
          "internalType": "address",
          "name": "voter",
          "type": "address"
        },
        {
          "indexed": false,
          "internalType": "bool",
          "name": "vote",
          "type": "bool"
        }
      ],
      "name": "_VoteForMinOwner",
      "type": "event"
    },
    {
      "anonymous": false,
      "inputs": [
        {
          "indexed": false,
          "internalType": "address",
          "name": "owner",
          "type": "address"
        },
        {
          "indexed": false,
          "internalType": "address",
          "name": "voter",
          "type": "address"
        },
        {
          "indexed": false,
          "internalType": "bool",
          "name": "vote",
          "type": "bool"
        }
      ],
      "name": "_VoteForOwner",
      "type": "event"
    },
    {
      "anonymous": false,
      "inputs": [
        {
          "indexed": true,
          "internalType": "address",
          "name": "to",
          "type": "address"
        },
        {
          "indexed": false,
          "internalType": "uint256",
          "name": "amount",
          "type": "uint256"
        },
        {
          "indexed": false,
          "internalType": "uint256",
          "name": "paymentTokenID",
          "type": "uint256"
        },
        {
          "indexed": true,
          "internalType": "address",
          "name": "voter",
          "type": "address"
        },
        {
          "indexed": false,
          "internalType": "bool",
          "name": "vote",
          "type": "bool"
        }
      ],
      "name": "_VoteForTransfer",
      "type": "event"
    },
    {
      "inputs": [
        {
          "internalType": "address",
          "name": "sender",
          "type": "address"
        },
        {
          "internalType": "uint256",
          "name": "amount",
          "type": "uint256"
        },
        {
          "internalType": "uint256",
          "name": "paymentTokenID",
          "type": "uint256"
        },
        {
          "internalType": "bytes",
          "name": "data",
          "type": "bytes"
        }
      ],
      "name": "CreditReceived",
      "outputs": [],
      "stateMutability": "nonpayable",
      "type": "function"
    },
    {
      "inputs": [
        {
          "internalType": "address[]",
          "name": "owners",
          "type": "address[]"
        },
        {
          "internalType": "uint256",
          "name": "minOwners",
          "type": "uint256"
        }
      ],
      "name": "MultiSigContract_init",
      "outputs": [],
      "stateMutability": "nonpayable",
      "type": "function"
    },
    {
      "inputs": [
        {
          "internalType": "address",
          "name": "owner",
          "type": "address"
        }
      ],
      "name": "addOwner",
      "outputs": [],
      "stateMutability": "nonpayable",
      "type": "function"
    },
    {
      "inputs": [
        {
          "internalType": "uint256",
          "name": "newMinOwners",
          "type": "uint256"
        }
      ],
      "name": "changeMinOwners",
      "outputs": [],
      "stateMutability": "nonpayable",
      "type": "function"
    },
    {
      "inputs": [],
      "name": "rejectMinOwners",
      "outputs": [],
      "stateMutability": "nonpayable",
      "type": "function"
    },
    {
      "inputs": [
        {
          "internalType": "address",
          "name": "owner",
          "type": "address"
        }
      ],
      "name": "rejectOwner",
      "outputs": [],
      "stateMutability": "nonpayable",
      "type": "function"
    },
    {
      "inputs": [
        {
          "internalType": "address",
          "name": "owner",
          "type": "address"
        }
      ],
      "name": "removeOwner",
      "outputs": [],
      "stateMutability": "nonpayable",
      "type": "function"
    },
    {
      "inputs": [],
      "name": "retrieveAllOwners",
      "outputs": [
        {
          "internalType": "address[]",
          "name": "",
          "type": "address[]"
        }
      ],
      "stateMutability": "view",
      "type": "function"
    },
    {
      "inputs": [],
      "name": "retrieveManagerContract",
      "outputs": [
        {
          "internalType": "address",
          "name": "",
          "type": "address"
        }
      ],
      "stateMutability": "view",
      "type": "function"
    },
    {
      "inputs": [],
      "name": "retrieveMinOwners",
      "outputs": [
        {
          "internalType": "uint256",
          "name": "",
          "type": "uint256"
        }
      ],
      "stateMutability": "view",
      "type": "function"
    },
    {
      "inputs": [],
      "name": "retrievePendingMinOwners",
      "outputs": [
        {
          "internalType": "uint256",
          "name": "",
          "type": "uint256"
        }
      ],
      "stateMutability": "view",
      "type": "function"
    },
    {
      "inputs": [],
      "name": "retrievePendingMinOwnersStatus",
      "outputs": [
        {
          "internalType": "uint256",
          "name": "",
          "type": "uint256"
        },
        {
          "internalType": "uint256",
          "name": "",
          "type": "uint256"
        },
        {
          "internalType": "address[]",
          "name": "",
          "type": "address[]"
        }
      ],
      "stateMutability": "view",
      "type": "function"
    },
    {
      "inputs": [
        {
          "internalType": "bool",
          "name": "addedORremove",
          "type": "bool"
        }
      ],
      "name": "retrievePendingOwners",
      "outputs": [
        {
          "internalType": "address[]",
          "name": "",
          "type": "address[]"
        }
      ],
      "stateMutability": "view",
      "type": "function"
    },
    {
      "inputs": [],
      "name": "validateMinOwners",
      "outputs": [],
      "stateMutability": "nonpayable",
      "type": "function"
    },
    {
      "inputs": [
        {
          "internalType": "address",
          "name": "owner",
          "type": "address"
        }
      ],
      "name": "validateOwner",
      "outputs": [],
      "stateMutability": "nonpayable",
      "type": "function"
    },
    {
      "inputs": [
        {
          "internalType": "address[]",
          "name": "owners",
          "type": "address[]"
        },
        {
          "internalType": "uint256",
          "name": "minOwners",
          "type": "uint256"
        },
        {
          "internalType": "address",
          "name": "managerContractAddress",
          "type": "address"
        }
      ],
      "name": "AdminPiggyBank_init",
      "outputs": [],
      "stateMutability": "nonpayable",
      "type": "function"
    },
    {
      "inputs": [
        {
          "internalType": "address",
          "name": "receiver",
          "type": "address"
        },
        {
          "internalType": "uint256",
          "name": "amount",
          "type": "uint256"
        },
        {
          "internalType": "uint256",
          "name": "paymentTokenID",
          "type": "uint256"
        }
      ],
      "name": "transfer",
      "outputs": [],
      "stateMutability": "nonpayable",
      "type": "function"
    },
    {
      "inputs": [],
      "name": "approve",
      "outputs": [],
      "stateMutability": "nonpayable",
      "type": "function"
    },
    {
      "inputs": [],
      "name": "reject",
      "outputs": [],
      "stateMutability": "nonpayable",
      "type": "function"
    },
    {
      "inputs": [],
      "name": "retrieveTransferInfo",
      "outputs": [
        {
          "components": [
            {
              "internalType": "address",
              "name": "_to",
              "type": "address"
            },
            {
              "internalType": "uint256",
              "name": "_amount",
              "type": "uint256"
            },
            {
              "internalType": "uint256",
              "name": "_paymentTokenID",
              "type": "uint256"
            },
            {
              "internalType": "uint256",
              "name": "_validations",
              "type": "uint256"
            },
            {
              "internalType": "uint256",
              "name": "_rejections",
              "type": "uint256"
            },
            {
              "internalType": "address[]",
              "name": "_voters",
              "type": "address[]"
            }
          ],
          "internalType": "struct IAdminPiggyBank._TransferStruct",
          "name": "",
          "type": "tuple"
        }
      ],
      "stateMutability": "view",
      "type": "function"
    }
  ],
  "bytecode": "0x608060405234801561001057600080fd5b50612686806100206000396000f3fe608060405234801561001057600080fd5b50600436106100fc5760003560e01c8063095bcdb6146101015780630bee185e1461011657806312424e3f14610129578063173825d9146101315780632edbe7fc1461014457806330ade9221461015b5780634dc415de146101635780635888ebb31461016b5780635b362e84146101825780636151c3431461019b57806365b973e5146101b05780636b299604146101b85780637065cb48146101d857806376f8f90f146101eb5780638266251f146101fe578063a93d5ed614610211578063c3079ae714610219578063c66433ea14610221578063cdfba54b14610234578063ce33d58a14610247575b600080fd5b61011461010f366004611f7f565b61025a565b005b61011461012436600461210e565b610639565b61011461078d565b61011461013f366004611f5b565b610799565b6006545b6040519081526020015b60405180910390f35b6101146107d4565b6101146107de565b6101736107e8565b604051610152939291906124fe565b600a546001600160a01b03166040516101529190612329565b6101a361085c565b604051610152919061240b565b600554610148565b6101cb6101c6366004612279565b61093e565b604051610152919061238b565b6101146101e6366004611f5b565b610a02565b6101146101f9366004611f5b565b610a1a565b61011461020c366004611fb4565b610a6b565b6101cb610c46565b610114610caa565b61011461022f3660046122b3565b610cb4565b610114610242366004612152565b610d01565b610114610255366004611f5b565b610d89565b826001600160a01b0381166102b65760405162461bcd60e51b815260206004820152601f60248201527f57652063616e6e6f74207472616e7366657220746f206164647265737320300060448201526064015b60405180910390fd5b8280600a60009054906101000a90046001600160a01b03166001600160a01b031663e220ad956040518163ffffffff1660e01b815260040160006040518083038186803b15801561030657600080fd5b505afa15801561031a573d6000803e3d6000fd5b505050506040513d6000823e601f3d908101601f19168201604052610342919081019061206e565b60068151811061035457610354612601565b60209081029190910101516040516329fd178d60e11b8152306004820152600060248201526001600160a01b03909116906353fa2f1a9060440160206040518083038186803b1580156103a657600080fd5b505afa1580156103ba573d6000803e3d6000fd5b505050506040513d601f19601f820116820180604052508101906103de91906122cc565b10156104455760405162461bcd60e51b815260206004820152603060248201527f57652063616e6e6f74207472616e73666572206d6f7265207468616e2074686560448201526f2063757272656e742062616c616e636560801b60648201526084016102ad565b600a546040805163e220ad9560e01b8152905185926001600160a01b03169163e220ad95916004808301926000929190829003018186803b15801561048957600080fd5b505afa15801561049d573d6000803e3d6000fd5b505050506040513d6000823e601f3d908101601f191682016040526104c5919081019061206e565b6006815181106104d7576104d7612601565b60200260200101516001600160a01b031663b049473f6040518163ffffffff1660e01b815260040160006040518083038186803b15801561051757600080fd5b505afa15801561052b573d6000803e3d6000fd5b505050506040513d6000823e601f3d908101601f1916820160405261055391908101906121ac565b5181106105b95760405162461bcd60e51b815260206004820152602e60248201527f5468697320746f6b656e20496420646f6573206e6f742065786973742079657460448201526d20696e207468652073797374656d60901b60648201526084016102ad565b60006105c481610d94565b600b80546001600160a01b0319166001600160a01b038916908117909155600c879055600d8690556040517f2fb3d98c92ee1dd38a696149e5a394729611ae7d8222e6eb271f7920424743a99061061e90899089906124f0565b60405180910390a26106306001610e3d565b50505050505050565b600054610100900460ff166106545760005460ff1615610658565b303b155b6106745760405162461bcd60e51b81526004016102ad906123bd565b600054610100900460ff16158015610696576000805461ffff19166101011790555b8183516106a38282611211565b6001846106b08282611211565b600586905560005b87518110156107715760018060000160008a84815181106106db576106db612601565b6020908102919091018101516001600160a01b03168252810191909152604001600020805460ff1916911515919091179055875160029089908390811061072457610724612601565b60209081029190910181015182546001810184556000938452919092200180546001600160a01b0319166001600160a01b0390921691909117905580610769816125d0565b9150506106b8565b50505050508015610788576000805461ff00191690555b505050565b6107976001610e3d565b565b8060016107a68282611235565b6005546002546107b8906001906125b9565b6107c28282611211565b6107cd85600461128c565b5050505050565b610797600161130f565b6107976000610e3d565b600080606060075460085460098080548060200260200160405190810160405280929190818152602001828054801561084a57602002820191906000526020600020905b81546001600160a01b0316815260019091019060200180831161082c575b50505050509050925092509250909192565b61089e6040518060c0016040528060006001600160a01b0316815260200160008152602001600081526020016000815260200160008152602001606081525090565b6040805160c081018252600b80546001600160a01b03168252600c54602080840191909152600d5483850152600e546060840152600f546080840152601080548551818402810184019096528086529394929360a08601939283018282801561093057602002820191906000526020600020905b81546001600160a01b03168152600190910190602001808311610912575b505050505081525050905090565b606081156109a557600380546040805160208084028201810190925282815292919083018282801561099957602002820191906000526020600020905b81546001600160a01b0316815260019091019060200180831161097b575b50505050509050919050565b6004805460408051602080840282018101909252828152929190830182828015610999576020028201919060005260206000209081546001600160a01b0316815260019091019060200180831161097b5750505050509050919050565b806000610a0f8282611235565b61078883600361128c565b610a238161145d565b151560011415610a5d57600254610a3c906001906125b9565b6005541115610a5d5760405162461bcd60e51b81526004016102ad9061239e565b610a688160016114de565b50565b600a546040805163e220ad9560e01b8152905133926001600160a01b03169163e220ad95916004808301926000929190829003018186803b158015610aaf57600080fd5b505afa158015610ac3573d6000803e3d6000fd5b505050506040513d6000823e601f3d908101601f19168201604052610aeb919081019061206e565b600181518110610afd57610afd612601565b60200260200101516001600160a01b0316816001600160a01b03161480610bd85750600a60009054906101000a90046001600160a01b03166001600160a01b031663e220ad956040518163ffffffff1660e01b815260040160006040518083038186803b158015610b6d57600080fd5b505afa158015610b81573d6000803e3d6000fd5b505050506040513d6000823e601f3d908101601f19168201604052610ba9919081019061206e565b600681518110610bbb57610bbb612601565b60200260200101516001600160a01b0316816001600160a01b0316145b610c3a5760405162461bcd60e51b815260206004820152602d60248201527f4974206973206e6f742066726f6d206f6e65206f66207468652063657274696660448201526c69656420636f6e74726163747360981b60648201526084016102ad565b6107cd85858585611964565b606060018001805480602002602001604051908101604052809291908181526020018280548015610ca057602002820191906000526020600020905b81546001600160a01b03168152600190910190602001808311610c82575b5050505050905090565b610797600061130f565b336001610cc18282611235565b6000610ccc816119ad565b6002548490610cdb8282611211565b600186610ce88282611211565b6006889055610cf7600161130f565b5050505050505050565b600054610100900460ff16610d1c5760005460ff1615610d20565b303b155b610d3c5760405162461bcd60e51b81526004016102ad906123bd565b600054610100900460ff16158015610d5e576000805461ffff19166101011790555b610d688484610639565b610d7182611a22565b8015610d83576000805461ff00191690555b50505050565b610a688160006114de565b8015610ded57600b546001600160a01b0316610a685760405162461bcd60e51b81526020600482015260186024820152775472616e73666572206e6f7420696e2070726f677265737360401b60448201526064016102ad565b600b546001600160a01b031615610a685760405162461bcd60e51b81526020600482015260146024820152735472616e7366657220696e2070726f677265737360601b60448201526064016102ad565b336001610e4a8282611235565b6001610e5581610d94565b33600b600501805480602002602001604051908101604052809291908181526020018280548015610eaf57602002820191906000526020600020905b81546001600160a01b03168152600190910190602001808311610e91575b5050505050610ebe8282611a9d565b600b54600c54600d546040805192835260208301919091528815159082015233916001600160a01b0316907f524c78bcd46a1ca402c0fabeef8c06f91fe44e513960bed721dc8fa8e8afa7b99060600160405180910390a3601080546001810182556000919091527f1b6847dc741a1b0cd08d278845f9d819d87b734759afb55fe2de5cb82a9ae6720180546001600160a01b03191633179055851561119457600e8054906000610f6e836125d0565b9091555050600554600e541061118f57600c54600b54600a546040805163e220ad9560e01b8152905173__ItemsLibrary__________________________946341650a6e9490936001600160a01b039182169391169163e220ad9591600480820192600092909190829003018186803b158015610fea57600080fd5b505afa158015610ffe573d6000803e3d6000fd5b505050506040513d6000823e601f3d908101601f19168201604052611026919081019061206e565b60068151811061103857611038612601565b60200260200101516001600160a01b031663b049473f6040518163ffffffff1660e01b815260040160006040518083038186803b15801561107857600080fd5b505afa15801561108c573d6000803e3d6000fd5b505050506040513d6000823e601f3d908101601f191682016040526110b491908101906121ac565b600d54815181106110c7576110c7612601565b602002602001015160000151600060405180602001604052806000815250600b600201546040518763ffffffff1660e01b815260040161110c96959493929190612468565b60006040518083038186803b15801561112457600080fd5b505af4158015611138573d6000803e3d6000fd5b5050600b54600c54600d546040516001600160a01b0390931694507f6a9f8b342979e044647b781c6d6ae9f3868bb5a02cae79b553c1778bfddeca4c935061117f926124f0565b60405180910390a261118f611b5c565b611209565b600f80549060006111a4836125d0565b9091555050600554600f541061120957600b54600c54600d546040516001600160a01b03909316927f05b5db4a36f4b1c7e2b45516a57fbefca7f6829a63a32395b89ebd5e1c4585fe926111f99290916124f0565b60405180910390a2611209611b5c565b505050505050565b808211156112315760405162461bcd60e51b81526004016102ad9061239e565b5050565b6001600160a01b03821660009081526001602052604090205460ff161515811515146112315760405162461bcd60e51b81526004016102ad906020808252600490820152634543392d60e01b604082015260600190565b3360016112998282611235565b8360006112a68282611b8d565b84546001808201875560008781526020812090920180546001600160a01b0319166001600160a01b038a1617905586546112e091906125b9565b6001600160a01b03881660009081526001602081905260409091206002018290559091506106309088906114de565b33600161131c8282611235565b6001611327816119ad565b33600980548060200260200160405190810160405280929190818152602001828054801561137e57602002820191906000526020600020905b81546001600160a01b03168152600190910190602001808311611360575b505050505061138d8282611a9d565b85156113b1576001600760008282546113a691906125a1565b909155506113ca9050565b6001600860008282546113c491906125a1565b90915550505b600980546001810182556000919091527f6e1540171b6c0c960b71a7020d9f60077f6af931a8bbf590da0223dacf75c7af018054336001600160a01b031990911681179091556006546040805191825260208201929092528715158183015290517fb335599a2dd1eaaedeb810215d45e667a6c5ac7bcfd03c29e597db8bf0cddcc69181900360600190a1611209611bdf565b6004546001600160a01b03821660009081526001602052604081206002015490911161148b57506000919050565b6001600160a01b0382166000908152600160205260409020600201546004805490919081106114bc576114bc612601565b6000918252602090912001546001600160a01b03928316921691909114919050565b3360016114eb8282611235565b8360016114f88282611b8d565b6001600160a01b038616600090815260016020908152604091829020600501805483518184028101840190945280845233939283018282801561156457602002820191906000526020600020905b81546001600160a01b03168152600190910190602001808311611546575b50505050506115738282611a9d565b604080516001600160a01b038a1681523360208201528815158183015290517fc6f241efc3de3ce31d0e682102cc781f0605f0f90d72addfea699e4aea85dd799181900360600190a16001600160a01b038816600090815260016020818152604083206005018054928301815583529091200180546001600160a01b031916331790558615611876576001600160a01b0388166000908152600160205260408120600301805491611623836125d0565b90915550506005546001600160a01b0389166000908152600160205260409020600301541061187157600461165789611c7c565b1561172a575060028054600180820183557f405787fa12a823e0f2b7631cc41b3ba8828b3321ca811111fa75cd3aa3bb5ace90910180546001600160a01b0319166001600160a01b038c169081179091556000908152602082905260409020805460ff19168217905590546003916116ce916125b9565b6001600160a01b038a166000908152600160208190526040918290200191909155517f45bbe5ceeddcb6d0b4045349efc87a3fde966578e3970cda6f53bfc76efaf9f79061171d908b90612329565b60405180910390a1611865565b6001600160a01b03891660009081526001602081905260409182902001549051633c39c19f60e11b815273__AddressLibrary________________________90637873833e906117819084906002906004016124f0565b60006040518083038186803b15801561179957600080fd5b505af41580156117ad573d6000803e3d6000fd5b5050600254831015915061180390505780600160000160006001800184815481106117da576117da612601565b60009182526020808320909101546001600160a01b031683528201929092526040019020600101555b6001600160a01b038a166000908152600160208190526040808320805460ff1916815590910191909155517f82bcab3b042f3e2143a9d33d07fa130afdf763f17a45679670f0e39f12064ca89061185b908c90612329565b60405180910390a1505b61186f8982611cdb565b505b610cf7565b6001600160a01b038816600090815260016020526040812060040180549161189d836125d0565b90915550506005546001600160a01b03891660009081526001602052604090206004015410610cf75760046118d189611c7c565b1561191757506040516003907f622a69297177c029df8c1ba7f4d2d59881089b571ae96800e634aff50d67492e9061190a908b90612329565b60405180910390a161194f565b7f547e31c58b802b63bc89f1109a132a291b0527c9196c97759829aeaecd3c2d39896040516119469190612329565b60405180910390a15b6119598982611cdb565b505050505050505050565b836001600160a01b03167faef711f818f5d24f55a9c2d7da0afa5edd0420e1505ff8e60c344ce836e3e86e848460405161199f9291906124f0565b60405180910390a250505050565b80156119ea57600654610a685760405162461bcd60e51b8152602060048201526005602482015264454333312d60d81b60448201526064016102ad565b60065415610a685760405162461bcd60e51b8152602060048201526005602482015264454333302d60d81b60448201526064016102ad565b600054610100900460ff16611a3d5760005460ff1615611a41565b303b155b611a5d5760405162461bcd60e51b81526004016102ad906123bd565b600054610100900460ff16158015611a7f576000805461ffff19166101011790555b611a8882611dec565b8015611231576000805461ff00191690555050565b60405163f7cf62d760e01b815273__AddressLibrary________________________9063f7cf62d790611ad6908590859060040161233d565b60206040518083038186803b158015611aee57600080fd5b505af4158015611b02573d6000803e3d6000fd5b505050506040513d601f19601f82011682018060405250810190611b269190612296565b156112315760405162461bcd60e51b81526004016102ad906020808252600490820152634543352d60e01b604082015260600190565b600b80546001600160a01b03191681556000600c819055600d819055600e819055600f819055611231601082611eae565b611b9682611c7c565b80611ba55750611ba58261145d565b1515811515146112315760405162461bcd60e51b8152602060048201526005602482015264454331302d60d81b60448201526064016102ad565b611bed600754600554611e79565b15611c365760065460058190556040519081527f09cfdf09b84b5390e2f9e64a6b66bdfd4e3b7a611dfdd07cde2f5289ecdaace7906020015b60405180910390a1610797611e95565b611c44600854600554611e79565b15610797577f6005dc34d50a3e2ea64571b58119d8a81074b8e2db57a77c28e664641733308f600654604051611c2691815260200190565b6003546001600160a01b038216600090815260016020526040812060020154909111611caa57506000919050565b6001600160a01b0382166000908152600160205260409020600201546003805490919081106114bc576114bc612601565b6001600160a01b03821660009081526001602052604090819020600201549051633c39c19f60e11b815273__AddressLibrary________________________90637873833e90611d3190849086906004016124f0565b60006040518083038186803b158015611d4957600080fd5b505af4158015611d5d573d6000803e3d6000fd5b505050508082805490501115611db0578060016000016000848481548110611d8757611d87612601565b60009182526020808320909101546001600160a01b031683528201929092526040019020600201555b6001600160a01b038316600090815260016020526040812060028101829055600381018290556004810182905561078891600590910190611eae565b600054610100900460ff16611e075760005460ff1615611e0b565b303b155b611e275760405162461bcd60e51b81526004016102ad906123bd565b600054610100900460ff16158015611e49576000805461ffff19166101011790555b600a80546001600160a01b0319166001600160a01b0384161790558015611231576000805461ff00191690555050565b600081831015611e8b57506000611e8f565b5060015b92915050565b6000600681905560078190556008819055610797906009905b5080546000825590600052602060002090810190610a6891905b80821115611edc5760008155600101611ec8565b5090565b600082601f830112611ef157600080fd5b81356020611f06611f018361257e565b61254e565b80838252828201915082860187848660051b8901011115611f2657600080fd5b60005b85811015611f4e578135611f3c8161262d565b84529284019290840190600101611f29565b5090979650505050505050565b600060208284031215611f6d57600080fd5b8135611f788161262d565b9392505050565b600080600060608486031215611f9457600080fd5b8335611f9f8161262d565b95602085013595506040909401359392505050565b60008060008060808587031215611fca57600080fd5b8435611fd58161262d565b935060208581013593506040860135925060608601356001600160401b038082111561200057600080fd5b818801915088601f83011261201457600080fd5b81358181111561202657612026612617565b612038601f8201601f1916850161254e565b9150808252898482850101111561204e57600080fd5b808484018584013760008482840101525080935050505092959194509250565b6000602080838503121561208157600080fd5b82516001600160401b0381111561209757600080fd5b8301601f810185136120a857600080fd5b80516120b6611f018261257e565b80828252848201915084840188868560051b87010111156120d657600080fd5b600094505b838510156121025780516120ee8161262d565b8352600194909401939185019185016120db565b50979650505050505050565b6000806040838503121561212157600080fd5b82356001600160401b0381111561213757600080fd5b61214385828601611ee0565b95602094909401359450505050565b60008060006060848603121561216757600080fd5b83356001600160401b0381111561217d57600080fd5b61218986828701611ee0565b9350506020840135915060408401356121a18161262d565b809150509250925092565b600060208083850312156121bf57600080fd5b82516001600160401b038111156121d557600080fd5b8301601f810185136121e657600080fd5b80516121f4611f018261257e565b80828252848201915084840188868560061b870101111561221457600080fd5b60009450845b8481101561226b57604080838c031215612232578687fd5b61223a612526565b83516122458161262d565b81528389015161225481612642565b818a0152855293870193919091019060010161221a565b509098975050505050505050565b60006020828403121561228b57600080fd5b8135611f7881612642565b6000602082840312156122a857600080fd5b8151611f7881612642565b6000602082840312156122c557600080fd5b5035919050565b6000602082840312156122de57600080fd5b5051919050565b600081518084526020808501945080840160005b8381101561231e5781516001600160a01b0316875295820195908201906001016122f9565b509495945050505050565b6001600160a01b0391909116815260200190565b6001600160a01b038381168252604060208084018290528451918401829052600092858201929091906060860190855b8181101561226b57855185168352948301949183019160010161236d565b602081526000611f7860208301846122e5565b602080825260059082015264454331392d60d81b604082015260600190565b6020808252602e908201527f496e697469616c697a61626c653a20636f6e747261637420697320616c72656160408201526d191e481a5b9a5d1a585b1a5e995960921b606082015260800190565b6020815260018060a01b038251166020820152602082015160408201526040820151606082015260608201516080820152608082015160a0820152600060a083015160c08084015261246060e08401826122e5565b949350505050565b8681526000602060018060a01b0380891682850152808816604085015250851515606084015260c0608084015284518060c085015260005b818110156124bc5786810183015185820160e0015282016124a0565b818111156124ce57600060e083870101525b5060a08401949094525050601f91909101601f19160160e00195945050505050565b918252602082015260400190565b83815282602082015260606040820152600061251d60608301846122e5565b95945050505050565b604080519081016001600160401b038111828210171561254857612548612617565b60405290565b604051601f8201601f191681016001600160401b038111828210171561257657612576612617565b604052919050565b60006001600160401b0382111561259757612597612617565b5060051b60200190565b600082198211156125b4576125b46125eb565b500190565b6000828210156125cb576125cb6125eb565b500390565b60006000198214156125e4576125e46125eb565b5060010190565b634e487b7160e01b600052601160045260246000fd5b634e487b7160e01b600052603260045260246000fd5b634e487b7160e01b600052604160045260246000fd5b6001600160a01b0381168114610a6857600080fd5b8015158114610a6857600080fdfea26469706673582212206d1a1dcca64d498c3204357246e7938101225611e8d397e7df8ca1973f0919c464736f6c63430008070033",
  "immutableReferences": {},
  "source": "// SPDX-License-Identifier: GPL-3.0\r\n\r\npragma solidity 0.8.7;\r\n\r\nimport \"../Interfaces/IAdminPiggyBank.sol\";\r\nimport \"../Interfaces/IPayments.sol\";\r\nimport \"@openzeppelin/contracts-upgradeable/proxy/utils/Initializable.sol\";\r\nimport \"@openzeppelin/contracts/token/ERC20/IERC20.sol\";\r\nimport \"../Libraries/ItemsLibrary.sol\";\r\nimport \"../Base/MultiSigContract.sol\";\r\nimport \"../Base/CreditorBaseContract.sol\";\r\n\r\ncontract AdminPiggyBank is Initializable, MultiSigContract, CreditorBaseContract, IAdminPiggyBank {\r\n    using ItemsLibrary for *;\r\n\r\n    // EVENTS /////////////////////////////////////////\r\n    event _Pay(address indexed payer, uint amount, uint paymentTokenID);\r\n    event _TransferCreated(address indexed to, uint amount, uint paymentTokenID);\r\n    event _VoteForTransfer(address indexed to, uint amount, uint paymentTokenID, address indexed voter, bool vote);\r\n    event _TransferValidated(address indexed to, uint amount, uint paymentTokenID);\r\n    event _TransferRejected(address indexed to, uint amount, uint paymentTokenID);\r\n\r\n    // DATA /////////////////////////////////////////\r\n    _TransferStruct _transferInProgress;\r\n\r\n    // MODIFIERS /////////////////////////////////////////\r\n    modifier isReceiverOK(address addr)\r\n    {\r\n        require(address(0) != addr, \"We cannot transfer to address 0\");\r\n        _;\r\n    }\r\n\r\n    modifier isAmountOK(uint256 amount)\r\n    {\r\n        require(IPayments(_managerContract.retrieveTransparentProxies()[uint256(Library.TransparentProxies.Payments)]).BalanceOf(address(this), 0) >= amount, \"We cannot transfer more than the current balance\");\r\n        _;\r\n    }\r\n\r\n    modifier isTokenOK(uint256 paymentTokenID)\r\n    {\r\n        require(paymentTokenID < IPayments(_managerContract.retrieveTransparentProxies()[uint256(Library.TransparentProxies.Payments)]).retrieveSettings().length,\r\n         \"This token Id does not exist yet in the system\");\r\n        _;\r\n    }\r\n\r\n    modifier transferInProgress(bool YesOrNo)\r\n    {\r\n        transferInProgressFunc(YesOrNo);\r\n        _;\r\n    }\r\n\r\n    function transferInProgressFunc(bool YesOrNo) internal view\r\n    {\r\n        if(YesOrNo) require(address(0) != _transferInProgress._to, \"Transfer not in progress\");\r\n        else require(address(0) == _transferInProgress._to, \"Transfer in progress\");\r\n    }\r\n\r\n    // CONSTRUCTOR /////////////////////////////////////////\r\n    function AdminPiggyBank_init(address[] memory owners, uint256 minOwners, address managerContractAddress) public initializer {\r\n      super.MultiSigContract_init(owners, minOwners);\r\n      super.CreditorBaseContract_init(managerContractAddress); \r\n    }\r\n\r\n\r\n    // FUNCTIONALITY /////////////////////////////////////////\r\n    function onCreditReceived(address sender, uint256 amount, uint256 paymentTokenID, bytes memory data) internal override\r\n    {\r\n        emit _Pay(sender, amount, paymentTokenID);\r\n    }\r\n\r\n    function transfer(address receiver, uint256 amount, uint256 paymentTokenID) external override\r\n        isReceiverOK(receiver)\r\n        isAmountOK(amount)\r\n        isTokenOK(paymentTokenID)\r\n        transferInProgress(false)\r\n    {\r\n        _transferInProgress._to = receiver;\r\n        _transferInProgress._amount = amount;\r\n        _transferInProgress._paymentTokenID = paymentTokenID;\r\n\r\n        emit _TransferCreated(receiver, amount, paymentTokenID);\r\n\r\n        VoteForTransfer(true);\r\n    }\r\n\r\n    function approve() external override\r\n    {\r\n        VoteForTransfer(true);\r\n    } \r\n\r\n    function reject() external override\r\n    {\r\n        VoteForTransfer(false);\r\n    }\r\n\r\n    function VoteForTransfer(bool vote) internal\r\n        isAnOwner(msg.sender, true)\r\n        transferInProgress(true)\r\n        HasNotAlreadyVoted(msg.sender, _transferInProgress._voters)\r\n    {\r\n\r\n        emit _VoteForTransfer(_transferInProgress._to, _transferInProgress._amount, _transferInProgress._paymentTokenID, msg.sender, vote);\r\n\r\n        _transferInProgress._voters.push(msg.sender);\r\n        \r\n        if(vote){\r\n            _transferInProgress._validations++;\r\n\r\n            if(_transferInProgress._validations >= _minOwners){\r\n                ItemsLibrary.TransferTo(\r\n                    _transferInProgress._amount, \r\n                    _transferInProgress._to, \r\n                    address(IPayments(_managerContract.retrieveTransparentProxies()[uint256(Library.TransparentProxies.Payments)]).retrieveSettings()[_transferInProgress._paymentTokenID].TokenContract),\r\n                    false,\r\n                    bytes(\"\"),\r\n                    _transferInProgress._paymentTokenID\r\n                );\r\n                emit _TransferValidated(_transferInProgress._to, _transferInProgress._amount, _transferInProgress._paymentTokenID);\r\n                deletingPendingTransfer();\r\n            }\r\n        }\r\n        else{\r\n            _transferInProgress._rejections++;\r\n\r\n            if(_transferInProgress._rejections >= _minOwners){\r\n                emit _TransferRejected(_transferInProgress._to, _transferInProgress._amount, _transferInProgress._paymentTokenID);\r\n                deletingPendingTransfer();\r\n            }\r\n        }\r\n\r\n    } \r\n\r\n    function deletingPendingTransfer() internal\r\n    {\r\n        delete(_transferInProgress);\r\n    }\r\n\r\n    function retrieveTransferInfo() external override view returns(_TransferStruct memory)\r\n    {\r\n        return(_transferInProgress);\r\n    }\r\n}",
  "sourcePath": "C:\\Users\\d-aam\\GitHub\\Originals\\contracts\\MainContracts\\AdminPiggyBank.sol",
  "compiler": {
    "name": "solc",
    "version": "0.8.7+commit.e28d00a7.Emscripten.clang"
  },
  "schemaVersion": "3.4.3",
  "updatedAt": "2022-03-09T12:18:27.934Z",
  "devdoc": {
    "kind": "dev",
    "methods": {},
    "version": 1
  },
  "userdoc": {
    "kind": "user",
    "methods": {},
    "version": 1
  }
}