{
  "contractName": "AdminPiggyBank",
  "abi": [
    {
      "anonymous": false,
      "inputs": [
        {
          "indexed": false,
          "internalType": "address",
          "name": "owner",
          "type": "address"
        }
      ],
      "name": "_AddOwnerRejection",
      "type": "event"
    },
    {
      "anonymous": false,
      "inputs": [
        {
          "indexed": false,
          "internalType": "address",
          "name": "owner",
          "type": "address"
        }
      ],
      "name": "_AddOwnerValidation",
      "type": "event"
    },
    {
      "anonymous": false,
      "inputs": [
        {
          "indexed": false,
          "internalType": "uint256",
          "name": "minOwner",
          "type": "uint256"
        }
      ],
      "name": "_MinOwnerRejection",
      "type": "event"
    },
    {
      "anonymous": false,
      "inputs": [
        {
          "indexed": false,
          "internalType": "uint256",
          "name": "minOwner",
          "type": "uint256"
        }
      ],
      "name": "_MinOwnerValidation",
      "type": "event"
    },
    {
      "anonymous": false,
      "inputs": [
        {
          "indexed": true,
          "internalType": "address",
          "name": "payer",
          "type": "address"
        },
        {
          "indexed": false,
          "internalType": "uint256",
          "name": "amount",
          "type": "uint256"
        }
      ],
      "name": "_Pay",
      "type": "event"
    },
    {
      "anonymous": false,
      "inputs": [
        {
          "indexed": false,
          "internalType": "address",
          "name": "owner",
          "type": "address"
        }
      ],
      "name": "_RemoveOwnerRejection",
      "type": "event"
    },
    {
      "anonymous": false,
      "inputs": [
        {
          "indexed": false,
          "internalType": "address",
          "name": "owner",
          "type": "address"
        }
      ],
      "name": "_RemoveOwnerValidation",
      "type": "event"
    },
    {
      "anonymous": false,
      "inputs": [
        {
          "indexed": true,
          "internalType": "address",
          "name": "to",
          "type": "address"
        },
        {
          "indexed": false,
          "internalType": "uint256",
          "name": "amount",
          "type": "uint256"
        }
      ],
      "name": "_TransferCreated",
      "type": "event"
    },
    {
      "anonymous": false,
      "inputs": [
        {
          "indexed": true,
          "internalType": "address",
          "name": "to",
          "type": "address"
        },
        {
          "indexed": false,
          "internalType": "uint256",
          "name": "amount",
          "type": "uint256"
        }
      ],
      "name": "_TransferRejected",
      "type": "event"
    },
    {
      "anonymous": false,
      "inputs": [
        {
          "indexed": true,
          "internalType": "address",
          "name": "to",
          "type": "address"
        },
        {
          "indexed": false,
          "internalType": "uint256",
          "name": "amount",
          "type": "uint256"
        }
      ],
      "name": "_TransferValidated",
      "type": "event"
    },
    {
      "anonymous": false,
      "inputs": [
        {
          "indexed": false,
          "internalType": "uint256",
          "name": "minOwner",
          "type": "uint256"
        },
        {
          "indexed": false,
          "internalType": "address",
          "name": "voter",
          "type": "address"
        },
        {
          "indexed": false,
          "internalType": "bool",
          "name": "vote",
          "type": "bool"
        }
      ],
      "name": "_VoteForMinOwner",
      "type": "event"
    },
    {
      "anonymous": false,
      "inputs": [
        {
          "indexed": false,
          "internalType": "address",
          "name": "owner",
          "type": "address"
        },
        {
          "indexed": false,
          "internalType": "address",
          "name": "voter",
          "type": "address"
        },
        {
          "indexed": false,
          "internalType": "bool",
          "name": "vote",
          "type": "bool"
        }
      ],
      "name": "_VoteForOwner",
      "type": "event"
    },
    {
      "anonymous": false,
      "inputs": [
        {
          "indexed": true,
          "internalType": "address",
          "name": "to",
          "type": "address"
        },
        {
          "indexed": false,
          "internalType": "uint256",
          "name": "amount",
          "type": "uint256"
        },
        {
          "indexed": true,
          "internalType": "address",
          "name": "voter",
          "type": "address"
        },
        {
          "indexed": false,
          "internalType": "bool",
          "name": "vote",
          "type": "bool"
        }
      ],
      "name": "_VoteForTransfer",
      "type": "event"
    },
    {
      "inputs": [
        {
          "internalType": "address[]",
          "name": "owners",
          "type": "address[]"
        },
        {
          "internalType": "uint256",
          "name": "minOwners",
          "type": "uint256"
        }
      ],
      "name": "MultiSigContract_init",
      "outputs": [],
      "stateMutability": "nonpayable",
      "type": "function"
    },
    {
      "inputs": [
        {
          "internalType": "address",
          "name": "owner",
          "type": "address"
        }
      ],
      "name": "addOwner",
      "outputs": [],
      "stateMutability": "nonpayable",
      "type": "function"
    },
    {
      "inputs": [
        {
          "internalType": "uint256",
          "name": "newMinOwners",
          "type": "uint256"
        }
      ],
      "name": "changeMinOwners",
      "outputs": [],
      "stateMutability": "nonpayable",
      "type": "function"
    },
    {
      "inputs": [],
      "name": "rejectMinOwners",
      "outputs": [],
      "stateMutability": "nonpayable",
      "type": "function"
    },
    {
      "inputs": [
        {
          "internalType": "address",
          "name": "owner",
          "type": "address"
        }
      ],
      "name": "rejectOwner",
      "outputs": [],
      "stateMutability": "nonpayable",
      "type": "function"
    },
    {
      "inputs": [
        {
          "internalType": "address",
          "name": "owner",
          "type": "address"
        }
      ],
      "name": "removeOwner",
      "outputs": [],
      "stateMutability": "nonpayable",
      "type": "function"
    },
    {
      "inputs": [],
      "name": "retrieveAllOwners",
      "outputs": [
        {
          "internalType": "address[]",
          "name": "",
          "type": "address[]"
        }
      ],
      "stateMutability": "view",
      "type": "function"
    },
    {
      "inputs": [],
      "name": "retrieveMinOwners",
      "outputs": [
        {
          "internalType": "uint256",
          "name": "",
          "type": "uint256"
        }
      ],
      "stateMutability": "view",
      "type": "function"
    },
    {
      "inputs": [],
      "name": "retrievePendingMinOwners",
      "outputs": [
        {
          "internalType": "uint256",
          "name": "",
          "type": "uint256"
        }
      ],
      "stateMutability": "view",
      "type": "function"
    },
    {
      "inputs": [],
      "name": "retrievePendingMinOwnersStatus",
      "outputs": [
        {
          "internalType": "uint256",
          "name": "",
          "type": "uint256"
        },
        {
          "internalType": "uint256",
          "name": "",
          "type": "uint256"
        },
        {
          "internalType": "address[]",
          "name": "",
          "type": "address[]"
        }
      ],
      "stateMutability": "view",
      "type": "function"
    },
    {
      "inputs": [
        {
          "internalType": "bool",
          "name": "addedORremove",
          "type": "bool"
        }
      ],
      "name": "retrievePendingOwners",
      "outputs": [
        {
          "internalType": "address[]",
          "name": "",
          "type": "address[]"
        }
      ],
      "stateMutability": "view",
      "type": "function"
    },
    {
      "inputs": [],
      "name": "validateMinOwners",
      "outputs": [],
      "stateMutability": "nonpayable",
      "type": "function"
    },
    {
      "inputs": [
        {
          "internalType": "address",
          "name": "owner",
          "type": "address"
        }
      ],
      "name": "validateOwner",
      "outputs": [],
      "stateMutability": "nonpayable",
      "type": "function"
    },
    {
      "stateMutability": "payable",
      "type": "receive"
    },
    {
      "inputs": [
        {
          "internalType": "address[]",
          "name": "owners",
          "type": "address[]"
        },
        {
          "internalType": "uint256",
          "name": "minOwners",
          "type": "uint256"
        }
      ],
      "name": "AdminPiggyBank_init",
      "outputs": [],
      "stateMutability": "nonpayable",
      "type": "function"
    },
    {
      "inputs": [
        {
          "internalType": "address",
          "name": "receiver",
          "type": "address"
        },
        {
          "internalType": "uint256",
          "name": "amount",
          "type": "uint256"
        }
      ],
      "name": "transfer",
      "outputs": [],
      "stateMutability": "nonpayable",
      "type": "function"
    },
    {
      "inputs": [],
      "name": "approve",
      "outputs": [],
      "stateMutability": "nonpayable",
      "type": "function"
    },
    {
      "inputs": [],
      "name": "reject",
      "outputs": [],
      "stateMutability": "nonpayable",
      "type": "function"
    },
    {
      "inputs": [],
      "name": "retrieveTransferInfo",
      "outputs": [
        {
          "components": [
            {
              "internalType": "address",
              "name": "_to",
              "type": "address"
            },
            {
              "internalType": "uint256",
              "name": "_amount",
              "type": "uint256"
            },
            {
              "internalType": "uint256",
              "name": "_validations",
              "type": "uint256"
            },
            {
              "internalType": "uint256",
              "name": "_rejections",
              "type": "uint256"
            },
            {
              "internalType": "address[]",
              "name": "_voters",
              "type": "address[]"
            }
          ],
          "internalType": "struct IAdminPiggyBank._TransferStruct",
          "name": "",
          "type": "tuple"
        }
      ],
      "stateMutability": "view",
      "type": "function"
    }
  ],
  "bytecode": "0x608060405234801561001057600080fd5b50611b3c806100206000396000f3fe6080604052600436106100dd5760003560e01c80630bee185e1461011e57806312424e3f14610140578063173825d9146101555780632edbe7fc1461017557806330ade922146101995780634dc415de146101ae5780635888ebb3146101c35780636151c343146101e757806365b973e5146102095780636b2996041461021e5780637065cb481461024b57806376f8f90f1461026b578063a9059cbb1461028b578063a93d5ed6146102ab578063c3079ae7146102c0578063c66433ea146102d5578063ce33d58a146102f5578063d3e447c91461031557600080fd5b366101195760405134815233907fa1a75f56738f80584efa96074fcf81008d3e7456d405f2811bc39295c151c1089060200160405180910390a2005b600080fd5b34801561012a57600080fd5b5061013e610139366004611799565b610335565b005b34801561014c57600080fd5b5061013e610492565b34801561016157600080fd5b5061013e61017036600461174d565b61049e565b34801561018157600080fd5b506006545b6040519081526020015b60405180910390f35b3480156101a557600080fd5b5061013e6104d9565b3480156101ba57600080fd5b5061013e6104e3565b3480156101cf57600080fd5b506101d86104ed565b60405161019093929190611a44565b3480156101f357600080fd5b506101fc610561565b60405161019091906119f1565b34801561021557600080fd5b50600554610186565b34801561022a57600080fd5b5061023e61023936600461186a565b610634565b6040516101909190611971565b34801561025757600080fd5b5061013e61026636600461174d565b6106f8565b34801561027757600080fd5b5061013e61028636600461174d565b610710565b34801561029757600080fd5b5061013e6102a636600461176f565b610761565b3480156102b757600080fd5b5061023e61088d565b3480156102cc57600080fd5b5061013e6108f1565b3480156102e157600080fd5b5061013e6102f03660046118a4565b6108fb565b34801561030157600080fd5b5061013e61031036600461174d565b610948565b34801561032157600080fd5b5061013e610330366004611799565b610953565b600054610100900460ff166103505760005460ff1615610354565b303b155b6103795760405162461bcd60e51b8152600401610370906119a3565b60405180910390fd5b600054610100900460ff1615801561039b576000805461ffff19166101011790555b8183516103a882826109d0565b6001846103b582826109d0565b600586905560005b87518110156104765760018060000160008a84815181106103e0576103e0611acc565b6020908102919091018101516001600160a01b03168252810191909152604001600020805460ff1916911515919091179055875160029089908390811061042957610429611acc565b60209081029190910181015182546001810184556000938452919092200180546001600160a01b0319166001600160a01b039092169190911790558061046e81611a9b565b9150506103bd565b5050505050801561048d576000805461ff00191690555b505050565b61049c60016109f4565b565b8060016104ab8282610c68565b6005546002546104bd90600190611a84565b6104c782826109d0565b6104d2856004610cc0565b5050505050565b61049c6001610d4c565b61049c60006109f4565b600080606060075460085460098080548060200260200160405190810160405280929190818152602001828054801561054f57602002820191906000526020600020905b81546001600160a01b03168152600190910190602001808311610531575b50505050509050925092509250909192565b61059c6040518060a0016040528060006001600160a01b03168152602001600081526020016000815260200160008152602001606081525090565b6040805160a081018252600a80546001600160a01b03168252600b54602080840191909152600c5483850152600d546060840152600e80548551818402810184019096528086529394929360808601939283018282801561062657602002820191906000526020600020905b81546001600160a01b03168152600190910190602001808311610608575b505050505081525050905090565b6060811561069b57600380546040805160208084028201810190925282815292919083018282801561068f57602002820191906000526020600020905b81546001600160a01b03168152600190910190602001808311610671575b50505050509050919050565b600480546040805160208084028201810190925282815292919083018282801561068f576020028201919060005260206000209081546001600160a01b031681526001909101906020018083116106715750505050509050919050565b8060006107058282610c68565b61048d836003610cc0565b61071981610e51565b1515600114156107535760025461073290600190611a84565b60055411156107535760405162461bcd60e51b815260040161037090611984565b61075e816001610ea4565b50565b816001600160a01b0381166107b85760405162461bcd60e51b815260206004820152601f60248201527f57652063616e6e6f74207472616e7366657220746f20616464726573732030006044820152606401610370565b81804710156108225760405162461bcd60e51b815260206004820152603060248201527f57652063616e6e6f74207472616e73666572206d6f7265207468616e2074686560448201526f2063757272656e742062616c616e636560801b6064820152608401610370565b600061082d8161132a565b600a80546001600160a01b0319166001600160a01b038716908117909155600b8590556040518581527fc66749b3cc2413da07d31e75dcb0822390ff02e6311a112e9b8aac23563badbc9060200160405180910390a26104d260016109f4565b6060600180018054806020026020016040519081016040528092919081815260200182805480156108e757602002820191906000526020600020905b81546001600160a01b031681526001909101906020018083116108c9575b5050505050905090565b61049c6000610d4c565b3360016109088282610c68565b6000610913816113d3565b600254849061092282826109d0565b60018661092f82826109d0565b600688905561093e6001610d4c565b5050505050505050565b61075e816000610ea4565b600054610100900460ff1661096e5760005460ff1615610972565b303b155b61098e5760405162461bcd60e51b8152600401610370906119a3565b600054610100900460ff161580156109b0576000805461ffff19166101011790555b6109ba8383610335565b801561048d576000805461ff0019169055505050565b808211156109f05760405162461bcd60e51b815260040161037090611984565b5050565b336001610a018282610c68565b6001610a0c8161132a565b33600a600401805480602002602001604051908101604052809291908181526020018280548015610a6657602002820191906000526020600020905b81546001600160a01b03168152600190910190602001808311610a48575b5050505050610a758282611448565b600a54600b5460408051918252881515602083015233926001600160a01b0316917fa9d7928136deb71b5d70a5313c8332eff4c01c50cec75d98a643c5ba94574747910160405180910390a3600e80546001810182556000919091527fbb7b4a454dc3493923482f07822329ed19e8244eff582cc204f8554c3620c3fd0180546001600160a01b031916331790558515610bf357600c8054906000610b1983611a9b565b9091555050600554600c5410610bee57600b54600a54604051632ac0cb2360e01b815260048101929092526001600160a01b0316602482015273__ItemsLibrary__________________________90632ac0cb239060440160006040518083038186803b158015610b8957600080fd5b505af4158015610b9d573d6000803e3d6000fd5b5050600a54600b546040519081526001600160a01b0390911692507ffea5a60f19e31d340bbd014f800a5a0556efc2b42812fb94b3702095b761051d915060200160405180910390a2610bee611507565b610c60565b600d8054906000610c0383611a9b565b9091555050600554600d5410610c6057600a54600b546040519081526001600160a01b03909116907f2ad6cd8714b7ba15fe0e75d87d2799d17fa9ec72a76166e2a2f73fe5da5bb3139060200160405180910390a2610c60611507565b505050505050565b6001600160a01b03821660009081526001602052604090205460ff165b1515811515146109f05760405162461bcd60e51b8152600401610370906020808252600490820152634543392d60e01b604082015260600190565b336001610ccd8282610c68565b836000610cda8282611533565b84546001808201875560008781526020812090920180546001600160a01b0319166001600160a01b038a161790558654610d149190611a84565b6001600160a01b0388166000908152600160208190526040909120600201829055909150610d43908890610ea4565b50505050505050565b336001610d598282610c68565b6001610d64816113d3565b336009805480602002602001604051908101604052809291908181526020018280548015610dbb57602002820191906000526020600020905b81546001600160a01b03168152600190910190602001808311610d9d575b5050505050610dca8282611448565b8515610dee57600160076000828254610de39190611a6c565b90915550610e079050565b600160086000828254610e019190611a6c565b90915550505b600980546001810182556000919091527f6e1540171b6c0c960b71a7020d9f60077f6af931a8bbf590da0223dacf75c7af0180546001600160a01b03191633179055610c6061154b565b6001600160a01b038116600090815260016020526040812060020154600480549091908110610e8257610e82611acc565b6000918252602090912001546001600160a01b03928316921691909114919050565b336001610eb18282610c68565b836001610ebe8282611533565b6001600160a01b0386166000908152600160209081526040918290206005018054835181840281018401909452808452339392830182828015610f2a57602002820191906000526020600020905b81546001600160a01b03168152600190910190602001808311610f0c575b5050505050610f398282611448565b604080516001600160a01b038a1681523360208201528815158183015290517fc6f241efc3de3ce31d0e682102cc781f0605f0f90d72addfea699e4aea85dd799181900360600190a16001600160a01b038816600090815260016020818152604083206005018054928301815583529091200180546001600160a01b03191633179055861561123c576001600160a01b0388166000908152600160205260408120600301805491610fe983611a9b565b90915550506005546001600160a01b0389166000908152600160205260409020600301541061123757600461101d89611587565b156110f0575060028054600180820183557f405787fa12a823e0f2b7631cc41b3ba8828b3321ca811111fa75cd3aa3bb5ace90910180546001600160a01b0319166001600160a01b038c169081179091556000908152602082905260409020805460ff191682179055905460039161109491611a84565b6001600160a01b038a166000908152600160208190526040918290200191909155517f45bbe5ceeddcb6d0b4045349efc87a3fde966578e3970cda6f53bfc76efaf9f7906110e3908b90611901565b60405180910390a161122b565b6001600160a01b03891660009081526001602081905260409182902001549051633c39c19f60e11b8152600481018290526002602482015273__AddressLibrary________________________90637873833e9060440160006040518083038186803b15801561115f57600080fd5b505af4158015611173573d6000803e3d6000fd5b505060025483101591506111c990505780600160000160006001800184815481106111a0576111a0611acc565b60009182526020808320909101546001600160a01b031683528201929092526040019020600101555b6001600160a01b038a166000908152600160208190526040808320805460ff1916815590910191909155517f82bcab3b042f3e2143a9d33d07fa130afdf763f17a45679670f0e39f12064ca890611221908c90611901565b60405180910390a1505b61123589826115b8565b505b61093e565b6001600160a01b038816600090815260016020526040812060040180549161126383611a9b565b90915550506005546001600160a01b0389166000908152600160205260409020600401541061093e57600461129789611587565b156112dd57506040516003907f622a69297177c029df8c1ba7f4d2d59881089b571ae96800e634aff50d67492e906112d0908b90611901565b60405180910390a1611315565b7f547e31c58b802b63bc89f1109a132a291b0527c9196c97759829aeaecd3c2d398960405161130c9190611901565b60405180910390a15b61131f89826115b8565b505050505050505050565b801561138357600a546001600160a01b031661075e5760405162461bcd60e51b81526020600482015260186024820152775472616e73666572206e6f7420696e2070726f677265737360401b6044820152606401610370565b600a546001600160a01b03161561075e5760405162461bcd60e51b81526020600482015260146024820152735472616e7366657220696e2070726f677265737360601b6044820152606401610370565b80156114105760065461075e5760405162461bcd60e51b8152602060048201526005602482015264454333312d60d81b6044820152606401610370565b6006541561075e5760405162461bcd60e51b8152602060048201526005602482015264454333302d60d81b6044820152606401610370565b60405163f7cf62d760e01b815273__AddressLibrary________________________9063f7cf62d7906114819085908590600401611915565b60206040518083038186803b15801561149957600080fd5b505af41580156114ad573d6000803e3d6000fd5b505050506040513d601f19601f820116820180604052508101906114d19190611887565b156109f05760405162461bcd60e51b8152600401610370906020808252600490820152634543352d60e01b604082015260600190565b600a80546001600160a01b03191681556000600b819055600c819055600d8190556109f0600e826116ff565b61153c82611587565b80610c855750610c8582610e51565b6115596007546005546116ca565b1561156c5760065460055561049c6116e6565b61157a6008546005546116ca565b1561049c5761049c6116e6565b6001600160a01b038116600090815260016020526040812060020154600380549091908110610e8257610e82611acc565b6001600160a01b03821660009081526001602052604090819020600201549051633c39c19f60e11b8152600481018290526024810183905273__AddressLibrary________________________90637873833e9060440160006040518083038186803b15801561162757600080fd5b505af415801561163b573d6000803e3d6000fd5b50505050808280549050111561168e57806001600001600084848154811061166557611665611acc565b60009182526020808320909101546001600160a01b031683528201929092526040019020600201555b6001600160a01b038316600090815260016020526040812060028101829055600381018290556004810182905561048d916005909101906116ff565b6000818310156116dc575060006116e0565b5060015b92915050565b600060068190556007819055600881905561049c906009905b508054600082559060005260206000209081019061075e91905b8082111561172d5760008155600101611719565b5090565b80356001600160a01b038116811461174857600080fd5b919050565b60006020828403121561175f57600080fd5b61176882611731565b9392505050565b6000806040838503121561178257600080fd5b61178b83611731565b946020939093013593505050565b600080604083850312156117ac57600080fd5b82356001600160401b03808211156117c357600080fd5b818501915085601f8301126117d757600080fd5b81356020828211156117eb576117eb611ae2565b8160051b604051601f19603f8301168101818110868211171561181057611810611ae2565b604052838152828101945085830182870184018b101561182f57600080fd5b600096505b848710156118595761184581611731565b865260019690960195948301948301611834565b509997909101359750505050505050565b60006020828403121561187c57600080fd5b813561176881611af8565b60006020828403121561189957600080fd5b815161176881611af8565b6000602082840312156118b657600080fd5b5035919050565b600081518084526020808501945080840160005b838110156118f65781516001600160a01b0316875295820195908201906001016118d1565b509495945050505050565b6001600160a01b0391909116815260200190565b6001600160a01b038381168252604060208084018290528451918401829052600092858201929091906060860190855b81811015611963578551851683529483019491830191600101611945565b509098975050505050505050565b60208152600061176860208301846118bd565b602080825260059082015264454331392d60d81b604082015260600190565b6020808252602e908201527f496e697469616c697a61626c653a20636f6e747261637420697320616c72656160408201526d191e481a5b9a5d1a585b1a5e995960921b606082015260800190565b6020815260018060a01b0382511660208201526020820151604082015260408201516060820152606082015160808201526000608083015160a080840152611a3c60c08401826118bd565b949350505050565b838152826020820152606060408201526000611a6360608301846118bd565b95945050505050565b60008219821115611a7f57611a7f611ab6565b500190565b600082821015611a9657611a96611ab6565b500390565b6000600019821415611aaf57611aaf611ab6565b5060010190565b634e487b7160e01b600052601160045260246000fd5b634e487b7160e01b600052603260045260246000fd5b634e487b7160e01b600052604160045260246000fd5b801515811461075e57600080fdfea264697066735822122052654edf72a40551f437900c47a167536a0b986af41206d3b80d94b7f3c2c6ae64736f6c63430008070033",
  "immutableReferences": {},
  "source": "// SPDX-License-Identifier: GPL-3.0\r\n\r\npragma solidity 0.8.7;\r\n\r\nimport \"../Interfaces/IAdminPiggyBank.sol\";\r\nimport \"@openzeppelin/contracts-upgradeable/proxy/utils/Initializable.sol\";\r\nimport \"../Libraries/ItemsLibrary.sol\";\r\nimport \"../Base/MultiSigContract.sol\";\r\n\r\n\r\ncontract AdminPiggyBank is Initializable, MultiSigContract, IAdminPiggyBank {\r\n\r\n    // EVENTS /////////////////////////////////////////\r\n    event _Pay(address indexed payer, uint amount);\r\n    event _TransferCreated(address indexed to, uint amount);\r\n    event _VoteForTransfer(address indexed to, uint amount, address indexed voter, bool vote);\r\n    event _TransferValidated(address indexed to, uint amount);\r\n    event _TransferRejected(address indexed to, uint amount);\r\n\r\n    // DATA /////////////////////////////////////////\r\n    _TransferStruct _transferInProgress;\r\n\r\n    // MODIFIERS /////////////////////////////////////////\r\n    modifier isReceiverOK(address addr)\r\n    {\r\n        require(address(0) != addr, \"We cannot transfer to address 0\");\r\n        _;\r\n    }\r\n\r\n    modifier isAmountOK(uint256 amount)\r\n    {\r\n        require(address(this).balance >= amount, \"We cannot transfer more than the current balance\");\r\n        _;\r\n    }\r\n\r\n    modifier transferInProgress(bool YesOrNo)\r\n    {\r\n        transferInProgressFunc(YesOrNo);\r\n        _;\r\n    }\r\n\r\n    function transferInProgressFunc(bool YesOrNo) internal view\r\n    {\r\n        if(YesOrNo) require(address(0) != _transferInProgress._to, \"Transfer not in progress\");\r\n        else require(address(0) == _transferInProgress._to, \"Transfer in progress\");\r\n    }\r\n\r\n    // CONSTRUCTOR /////////////////////////////////////////\r\n    function AdminPiggyBank_init(address[] memory owners,  uint256 minOwners) public initializer {\r\n      super.MultiSigContract_init(owners, minOwners); \r\n    }\r\n\r\n\r\n    // FUNCTIONALITY /////////////////////////////////////////\r\n\r\n    receive() external payable\r\n    {\r\n        emit _Pay(msg.sender, msg.value);\r\n    }\r\n\r\n    function transfer(address receiver, uint amount) external override\r\n        isReceiverOK(receiver)\r\n        isAmountOK(amount)\r\n        transferInProgress(false)\r\n    {\r\n        _transferInProgress._to = receiver;\r\n        _transferInProgress._amount = amount;\r\n\r\n        emit _TransferCreated(receiver, amount);\r\n\r\n        VoteForTransfer(true);\r\n    }\r\n\r\n    function approve() external override\r\n    {\r\n        VoteForTransfer(true);\r\n    } \r\n\r\n    function reject() external override\r\n    {\r\n        VoteForTransfer(false);\r\n    }\r\n\r\n    function VoteForTransfer(bool vote) internal\r\n        isAnOwner(msg.sender, true)\r\n        transferInProgress(true)\r\n        HasNotAlreadyVoted(msg.sender, _transferInProgress._voters)\r\n    {\r\n\r\n        emit _VoteForTransfer(_transferInProgress._to, _transferInProgress._amount, msg.sender, vote);\r\n\r\n        _transferInProgress._voters.push(msg.sender);\r\n        \r\n        if(vote){\r\n            _transferInProgress._validations++;\r\n\r\n            if(_transferInProgress._validations >= _minOwners){\r\n                ItemsLibrary.TransferEtherTo(_transferInProgress._amount, _transferInProgress._to);\r\n                emit _TransferValidated(_transferInProgress._to, _transferInProgress._amount);\r\n                deletingPendingTransfer();\r\n            }\r\n        }\r\n        else{\r\n            _transferInProgress._rejections++;\r\n\r\n            if(_transferInProgress._rejections >= _minOwners){\r\n                emit _TransferRejected(_transferInProgress._to, _transferInProgress._amount);\r\n                deletingPendingTransfer();\r\n            }\r\n        }\r\n\r\n    } \r\n\r\n    function deletingPendingTransfer() internal\r\n    {\r\n        delete(_transferInProgress);\r\n    }\r\n\r\n    function retrieveTransferInfo() external override view returns(_TransferStruct memory)\r\n    {\r\n        return(_transferInProgress);\r\n    }\r\n}",
  "sourcePath": "C:\\Users\\d-aam\\GitHub\\Originals\\contracts\\MainContracts\\AdminPiggyBank.sol",
  "compiler": {
    "name": "solc",
    "version": "0.8.7+commit.e28d00a7.Emscripten.clang"
  },
  "schemaVersion": "3.4.3",
  "updatedAt": "2022-01-26T10:09:21.704Z",
  "devdoc": {
    "kind": "dev",
    "methods": {},
    "version": 1
  },
  "userdoc": {
    "kind": "user",
    "methods": {},
    "version": 1
  }
}