{
  "contractName": "CertificatesPoolManager",
  "abi": [
    {
      "anonymous": false,
      "inputs": [
        {
          "indexed": false,
          "internalType": "uint256",
          "name": "Id",
          "type": "uint256"
        },
        {
          "indexed": true,
          "internalType": "address",
          "name": "Proposer",
          "type": "address"
        },
        {
          "indexed": false,
          "internalType": "uint256",
          "name": "Deadline",
          "type": "uint256"
        },
        {
          "indexed": false,
          "internalType": "uint256",
          "name": "Threshold",
          "type": "uint256"
        }
      ],
      "name": "_AddedProposition",
      "type": "event"
    },
    {
      "anonymous": false,
      "inputs": [
        {
          "indexed": false,
          "internalType": "uint256",
          "name": "Id",
          "type": "uint256"
        },
        {
          "indexed": true,
          "internalType": "address",
          "name": "Proposer",
          "type": "address"
        }
      ],
      "name": "_CancelledProposition",
      "type": "event"
    },
    {
      "anonymous": false,
      "inputs": [
        {
          "indexed": false,
          "internalType": "address",
          "name": "NewContractAddress",
          "type": "address"
        },
        {
          "indexed": false,
          "internalType": "uint256",
          "name": "ProxyId",
          "type": "uint256"
        },
        {
          "indexed": false,
          "internalType": "string",
          "name": "ProxyType",
          "type": "string"
        }
      ],
      "name": "_ContractUpgrade",
      "type": "event"
    },
    {
      "anonymous": false,
      "inputs": [
        {
          "indexed": false,
          "internalType": "address",
          "name": "NewContractAddress",
          "type": "address"
        },
        {
          "indexed": false,
          "internalType": "uint256",
          "name": "ProxyId",
          "type": "uint256"
        },
        {
          "indexed": false,
          "internalType": "string",
          "name": "ProxyType",
          "type": "string"
        }
      ],
      "name": "_NewProxy",
      "type": "event"
    },
    {
      "anonymous": false,
      "inputs": [
        {
          "indexed": false,
          "internalType": "uint256",
          "name": "Id",
          "type": "uint256"
        },
        {
          "indexed": true,
          "internalType": "address",
          "name": "Proposer",
          "type": "address"
        },
        {
          "indexed": false,
          "internalType": "uint256",
          "name": "VotesFor",
          "type": "uint256"
        },
        {
          "indexed": false,
          "internalType": "uint256",
          "name": "VotesAgainst",
          "type": "uint256"
        }
      ],
      "name": "_PropositionApproved",
      "type": "event"
    },
    {
      "anonymous": false,
      "inputs": [
        {
          "indexed": false,
          "internalType": "uint256",
          "name": "Id",
          "type": "uint256"
        },
        {
          "indexed": true,
          "internalType": "address",
          "name": "Proposer",
          "type": "address"
        },
        {
          "indexed": false,
          "internalType": "uint256",
          "name": "VotesFor",
          "type": "uint256"
        },
        {
          "indexed": false,
          "internalType": "uint256",
          "name": "VotesAgainst",
          "type": "uint256"
        }
      ],
      "name": "_PropositionRejected",
      "type": "event"
    },
    {
      "anonymous": false,
      "inputs": [
        {
          "indexed": false,
          "internalType": "uint256",
          "name": "Id",
          "type": "uint256"
        },
        {
          "indexed": true,
          "internalType": "address",
          "name": "Voter",
          "type": "address"
        },
        {
          "indexed": false,
          "internalType": "bool",
          "name": "Vote",
          "type": "bool"
        },
        {
          "indexed": false,
          "internalType": "uint256",
          "name": "AmountTokens",
          "type": "uint256"
        }
      ],
      "name": "_PropositionVote",
      "type": "event"
    },
    {
      "anonymous": false,
      "inputs": [
        {
          "indexed": true,
          "internalType": "uint256",
          "name": "Id",
          "type": "uint256"
        },
        {
          "indexed": false,
          "internalType": "address",
          "name": "From",
          "type": "address"
        },
        {
          "indexed": false,
          "internalType": "address",
          "name": "To",
          "type": "address"
        },
        {
          "indexed": false,
          "internalType": "uint256",
          "name": "Amount",
          "type": "uint256"
        }
      ],
      "name": "_UsedTokensTransfered",
      "type": "event"
    },
    {
      "inputs": [
        {
          "internalType": "address",
          "name": "chairPerson",
          "type": "address"
        },
        {
          "internalType": "address",
          "name": "managerContractAddress",
          "type": "address"
        }
      ],
      "name": "StdPropositionBaseContract_init",
      "outputs": [],
      "stateMutability": "nonpayable",
      "type": "function"
    },
    {
      "inputs": [],
      "name": "cancelProposition",
      "outputs": [],
      "stateMutability": "nonpayable",
      "type": "function"
    },
    {
      "inputs": [
        {
          "internalType": "address",
          "name": "from",
          "type": "address"
        },
        {
          "internalType": "address",
          "name": "to",
          "type": "address"
        },
        {
          "internalType": "uint256",
          "name": "amount",
          "type": "uint256"
        }
      ],
      "name": "onTokenBalanceChanged",
      "outputs": [],
      "stateMutability": "nonpayable",
      "type": "function"
    },
    {
      "inputs": [],
      "name": "retrieveChairPerson",
      "outputs": [
        {
          "internalType": "address",
          "name": "",
          "type": "address"
        }
      ],
      "stateMutability": "view",
      "type": "function"
    },
    {
      "inputs": [],
      "name": "retrieveManagerContract",
      "outputs": [
        {
          "internalType": "address",
          "name": "",
          "type": "address"
        }
      ],
      "stateMutability": "view",
      "type": "function"
    },
    {
      "inputs": [],
      "name": "retrieveNextPropId",
      "outputs": [
        {
          "internalType": "uint256",
          "name": "",
          "type": "uint256"
        }
      ],
      "stateMutability": "view",
      "type": "function"
    },
    {
      "inputs": [],
      "name": "retrieveProposition",
      "outputs": [
        {
          "internalType": "bytes[]",
          "name": "",
          "type": "bytes[]"
        }
      ],
      "stateMutability": "view",
      "type": "function"
    },
    {
      "inputs": [],
      "name": "retrievePropositionStatus",
      "outputs": [
        {
          "internalType": "address",
          "name": "",
          "type": "address"
        },
        {
          "internalType": "uint256",
          "name": "",
          "type": "uint256"
        },
        {
          "internalType": "uint256",
          "name": "",
          "type": "uint256"
        },
        {
          "internalType": "uint256",
          "name": "",
          "type": "uint256"
        },
        {
          "internalType": "uint256",
          "name": "",
          "type": "uint256"
        }
      ],
      "stateMutability": "view",
      "type": "function"
    },
    {
      "inputs": [
        {
          "internalType": "uint256",
          "name": "PropId",
          "type": "uint256"
        },
        {
          "internalType": "address",
          "name": "voter",
          "type": "address"
        }
      ],
      "name": "retrieveVotesForVoter",
      "outputs": [
        {
          "internalType": "uint256",
          "name": "",
          "type": "uint256"
        }
      ],
      "stateMutability": "view",
      "type": "function"
    },
    {
      "inputs": [
        {
          "internalType": "bytes[]",
          "name": "NewValues",
          "type": "bytes[]"
        }
      ],
      "name": "sendProposition",
      "outputs": [],
      "stateMutability": "nonpayable",
      "type": "function"
    },
    {
      "inputs": [
        {
          "internalType": "bool",
          "name": "vote",
          "type": "bool"
        }
      ],
      "name": "voteProposition",
      "outputs": [],
      "stateMutability": "nonpayable",
      "type": "function"
    },
    {
      "inputs": [
        {
          "internalType": "address",
          "name": "chairPerson",
          "type": "address"
        }
      ],
      "name": "CertificatesPoolManager_init",
      "outputs": [],
      "stateMutability": "nonpayable",
      "type": "function"
    },
    {
      "inputs": [
        {
          "components": [
            {
              "internalType": "address[]",
              "name": "TransparentAddresses",
              "type": "address[]"
            },
            {
              "internalType": "address[]",
              "name": "BeaconAddresses",
              "type": "address[]"
            },
            {
              "internalType": "bytes[]",
              "name": "TransparentData",
              "type": "bytes[]"
            },
            {
              "internalType": "string",
              "name": "PrivatePoolContractName",
              "type": "string"
            },
            {
              "internalType": "string",
              "name": "PrivatePoolContractVersion",
              "type": "string"
            }
          ],
          "internalType": "struct Library.ProposedContractsStruct",
          "name": "initialContracts",
          "type": "tuple"
        },
        {
          "internalType": "contract TransparentUpgradeableProxy",
          "name": "ManagerProxyAddress",
          "type": "address"
        }
      ],
      "name": "InitializeContracts",
      "outputs": [],
      "stateMutability": "nonpayable",
      "type": "function"
    },
    {
      "inputs": [],
      "name": "retrieveTransparentProxies",
      "outputs": [
        {
          "internalType": "address[]",
          "name": "",
          "type": "address[]"
        }
      ],
      "stateMutability": "view",
      "type": "function"
    },
    {
      "inputs": [],
      "name": "retrieveBeacons",
      "outputs": [
        {
          "internalType": "address[]",
          "name": "",
          "type": "address[]"
        }
      ],
      "stateMutability": "view",
      "type": "function"
    },
    {
      "inputs": [],
      "name": "retrieveProxyAdmin",
      "outputs": [
        {
          "internalType": "address",
          "name": "",
          "type": "address"
        }
      ],
      "stateMutability": "view",
      "type": "function"
    },
    {
      "inputs": [],
      "name": "retrieveTransparentProxiesImpl",
      "outputs": [
        {
          "internalType": "address[]",
          "name": "",
          "type": "address[]"
        }
      ],
      "stateMutability": "view",
      "type": "function"
    },
    {
      "inputs": [],
      "name": "retrieveBeaconsImpl",
      "outputs": [
        {
          "internalType": "address[]",
          "name": "",
          "type": "address[]"
        }
      ],
      "stateMutability": "view",
      "type": "function"
    },
    {
      "inputs": [],
      "name": "isInitialized",
      "outputs": [
        {
          "internalType": "bool",
          "name": "",
          "type": "bool"
        }
      ],
      "stateMutability": "view",
      "type": "function"
    }
  ],
  "bytecode": "0x608060405234801561001057600080fd5b50615121806100206000396000f3fe60806040523480156200001157600080fd5b5060043610620001065760003560e01c806304cc67a9146200010b578063392e53cd14620001225780633c7df55d14620001395780634044adb2146200015257806355457ee9146200018b5780635a85cfda14620001955780635b362e8414620001ac5780636014b9cf14620001ce578063840f6d1714620001e55780638c324a43146200022757806391f9167114620002395780639f7771041462000250578063a93316f51462000269578063b1fd23591462000282578063db85bc4d1462000299578063e15aa3a614620002ab578063e220ad9514620002c2578063efd621de14620002cc578063fe9dc8dc14620002d6575b600080fd5b6008545b6040519081526020015b60405180910390f35b600e5460ff16604051901515815260200162000119565b620001506200014a36600462002c8f565b620002e0565b005b6200010f6200016336600462002fb1565b60009182526009602090815260408084206001600160a01b0393909316845291905290205490565b620001506200040b565b62000150620001a636600462002f59565b620004ef565b6000546201000090046001600160a01b03165b60405162000119919062003058565b62000150620001df36600462002c11565b620005ca565b600354600454600554600654600754604080516001600160a01b0390961686526020860194909452928401919091526060830152608082015260a00162000119565b600b546001600160a01b0316620001bf565b620001506200024a36600462002f35565b6200069c565b6200025a620006ab565b604051620001199190620030e6565b6200027362000785565b60405162000119919062003135565b620001506200029336600462002c51565b62000868565b6001546001600160a01b0316620001bf565b62000150620002bc36600462002e1a565b620008ef565b6200025a62000967565b6200025a62000a3a565b6200025a62000b0d565b3373__Library_______________________________6337ea306382600060029054906101000a90046001600160a01b03166001600160a01b031663e220ad956040518163ffffffff1660e01b815260040160006040518083038186803b1580156200034b57600080fd5b505afa15801562000360573d6000803e3d6000fd5b505050506040513d6000823e601f3d908101601f191682016040526200038a919081019062002cd5565b6003815181106200039f576200039f62003459565b60200260200101516040518363ffffffff1660e01b8152600401620003c69291906200306c565b60006040518083038186803b158015620003df57600080fd5b505af4158015620003f4573d6000803e3d6000fd5b505050506200040584848462000be1565b50505050565b6001620004188162000c03565b6003546040516337ea306360e01b8152339173__Library_______________________________916337ea306391620004609185916001600160a01b0316906004016200306c565b60006040518083038186803b1580156200047957600080fd5b505af41580156200048e573d6000803e3d6000fd5b505050506200049c62000c90565b620004a662000c9c565b6003546002546040519081526001600160a01b03909116907f1fe8aec10c0a50fa765076161e08c1f961ced69594ff45cf7d559f593afe14799060200160405180910390a25050565b6001546040516337ea306360e01b8152339173__Library_______________________________916337ea306391620005379185916001600160a01b0316906004016200306c565b60006040518083038186803b1580156200055057600080fd5b505af415801562000565573d6000803e3d6000fd5b5050600e5460ff16159150620005ac90505760405162461bcd60e51b8152602060048201526005602482015264454332362d60d81b60448201526064015b60405180910390fd5b620005b8838362000cc7565b5050600e805460ff1916600117905550565b600054610100900460ff16620005e75760005460ff1615620005eb565b303b155b6200060a5760405162461bcd60e51b8152600401620005a39062003260565b600054610100900460ff161580156200062d576000805461ffff19166101011790555b62000639823062000868565b604051620006479062002ac1565b604051809103906000f08015801562000664573d6000803e3d6000fd5b50600b80546001600160a01b0319166001600160a01b0392909216919091179055801562000698576000805461ff00191690555b5050565b620006a8338262000e5d565b50565b600d546060906000906001600160401b03811115620006ce57620006ce6200346f565b604051908082528060200260200182016040528015620006f8578160200160208202803683370190505b50905060005b81518110156200077f576200073d600d828154811062000722576200072262003459565b6000918252602090912001546001600160a01b031662000f87565b82828151811062000752576200075262003459565b6001600160a01b039092166020928302919091019091015280620007768162003425565b915050620006fe565b50919050565b6060600a805480602002602001604051908101604052809291908181526020016000905b828210156200085f578382906000526020600020018054620007cb90620033ee565b80601f0160208091040260200160405190810160405280929190818152602001828054620007f990620033ee565b80156200084a5780601f106200081e576101008083540402835291602001916200084a565b820191906000526020600020905b8154815290600101906020018083116200082c57829003601f168201915b505050505081526020019060010190620007a9565b50505050905090565b600054610100900460ff16620008855760005460ff161562000889565b303b155b620008a85760405162461bcd60e51b8152600401620005a39062003260565b600054610100900460ff16158015620008cb576000805461ffff19166101011790555b620008d7838362001004565b8015620008ea576000805461ff00191690555b505050565b620008f9620010a9565b60005b81518110156200069857600a8282815181106200091d576200091d62003459565b6020908102919091018101518254600181018455600093845292829020815162000951949190910192919091019062002acf565b50806200095e8162003425565b915050620008fc565b600c546060906000906001600160401b038111156200098a576200098a6200346f565b604051908082528060200260200182016040528015620009b4578160200160208202803683370190505b50905060005b81518110156200077f57600c8181548110620009da57620009da62003459565b9060005260206000200160009054906101000a90046001600160a01b031682828151811062000a0d5762000a0d62003459565b6001600160a01b03909216602092830291909101909101528062000a318162003425565b915050620009ba565b600d546060906000906001600160401b0381111562000a5d5762000a5d6200346f565b60405190808252806020026020018201604052801562000a87578160200160208202803683370190505b50905060005b81518110156200077f57600d818154811062000aad5762000aad62003459565b9060005260206000200160009054906101000a90046001600160a01b031682828151811062000ae05762000ae062003459565b6001600160a01b03909216602092830291909101909101528062000b048162003425565b91505062000a8d565b600c546060906000906001600160401b0381111562000b305762000b306200346f565b60405190808252806020026020018201604052801562000b5a578160200160208202803683370190505b50905060005b81518110156200077f5762000b9f600c828154811062000b845762000b8462003459565b6000918252602090912001546001600160a01b03166200141d565b82828151811062000bb45762000bb462003459565b6001600160a01b03909216602092830291909101909101528062000bd88162003425565b91505062000b60565b62000beb62001469565b151560011415620008ea57620008ea838383620014a9565b801562000c4f5762000c1462001469565b1515600114620006a85760405162461bcd60e51b8152602060048201526005602482015264454332352d60d81b6044820152606401620005a3565b62000c5962001469565b15620006a85760405162461bcd60e51b8152602060048201526005602482015264454332342d60d81b6044820152606401620005a3565b62000c9a62001621565b565b60006002819055600380546001600160a01b0319169055600481905560058190556006819055600755565b600c805460018101825560009182527fdf6966c971051c3d54ec59162606531493a51404a002842f56009d7e5cf4a8c70180546001600160a01b0319166001600160a01b0384161790555b62000d1e8380620032c4565b905081101562000de85762000dd362000d388480620032c4565b8381811062000d4b5762000d4b62003459565b905060200201602081019062000d62919062002c11565b62000d716040860186620032c4565b8481811062000d845762000d8462003459565b905060200281019062000d98919062003317565b8080601f0160208091040260200160405190810160405280939291908181526020018383808284376000920191909152506200162f92505050565b8062000ddf8162003425565b91505062000d12565b5060005b62000dfb6020840184620032c4565b9050811015620008ea5762000e4862000e186020850185620032c4565b8381811062000e2b5762000e2b62003459565b905060200201602081019062000e42919062002c11565b62001715565b8062000e548162003425565b91505062000dec565b600162000e6a8162000c03565b6002548390600062000e7d8383620017e0565b90506000811162000eb95760405162461bcd60e51b8152602060048201526005602482015264454332332d60d81b6044820152606401620005a3565b600062000ecc87600260000154620017e0565b9050851562000ef857806002600401600082825462000eec9190620033b9565b9091555062000f159050565b806002600501600082825462000f0f9190620033b9565b90915550505b60025462000f2590888362001821565b60025460408051918252871515602083015281018290526001600160a01b038816907f50f654d58981575c05e369cb129aeacb01e1b036af429380242cfc5d1a4b743f9060600160405180910390a262000f7e6200185f565b50505050505050565b6000816001600160a01b0316635c60da1b6040518163ffffffff1660e01b815260040160206040518083038186803b15801562000fc357600080fd5b505afa15801562000fd8573d6000803e3d6000fd5b505050506040513d601f19601f8201168201806040525081019062000ffe919062002c31565b92915050565b600054610100900460ff16620010215760005460ff161562001025565b303b155b620010445760405162461bcd60e51b8152600401620005a39062003260565b600054610100900460ff1615801562001067576000805461ffff19166101011790555b620010728262001941565b600180546001600160a01b0319166001600160a01b03851617905560006008558015620008ea576000805461ff0019169055505050565b6000620010b68162000c03565b60015433906000906001600160a01b0316821415620010d8575060016200121c565b6000620010e583620019dc565b905060008060029054906101000a90046001600160a01b03166001600160a01b031663e220ad956040518163ffffffff1660e01b815260040160006040518083038186803b1580156200113757600080fd5b505afa1580156200114c573d6000803e3d6000fd5b505050506040513d6000823e601f3d908101601f1916820160405262001176919081019062002cd5565b6004815181106200118b576200118b62003459565b60200260200101516001600160a01b031663b049473f6040518163ffffffff1660e01b815260040160606040518083038186803b158015620011cc57600080fd5b505afa158015620011e1573d6000803e3d6000fd5b505050506040513d601f19601f8201168201806040525081019062001207919062002fd9565b92505050808211156200121957600192505b50505b600181151514620012585760405162461bcd60e51b8152602060048201526005602482015264454332322d60d81b6044820152606401620005a3565b600080600060029054906101000a90046001600160a01b03166001600160a01b031663e220ad956040518163ffffffff1660e01b815260040160006040518083038186803b158015620012aa57600080fd5b505afa158015620012bf573d6000803e3d6000fd5b505050506040513d6000823e601f3d908101601f19168201604052620012e9919081019062002cd5565b600481518110620012fe57620012fe62003459565b60200260200101516001600160a01b031663b049473f6040518163ffffffff1660e01b815260040160606040518083038186803b1580156200133f57600080fd5b505afa15801562001354573d6000803e3d6000fd5b505050506040513d601f19601f820116820180604052508101906200137a919062002fd9565b50600380546001600160a01b0319163317905590925090506200139e8242620033b9565b6004556005819055600880546002819055906000620013bd8362003425565b90915550506003546002546004546005546040516001600160a01b03909416937f472501d19bf75639b2e316cd36f8568b0c3ab943b82a87de3c086c98c1929df9936200140e9390929091620032ae565b60405180910390a25050505050565b600b546040516310270e3d60e11b81526000916001600160a01b03169063204e1c7a906200145090859060040162003058565b60206040518083038186803b15801562000fc357600080fd5b6004546000904210156200147d5750600190565b6003546001600160a01b031615620014a3576200149962000c90565b620014a362000c9c565b50600090565b6001600160a01b03831615801590620014e6575060025460009081526009602090815260408083206001600160a01b038716845290915290205415155b15620008ea5760025460009081526009602090815260408083206001600160a01b0387168452909152902054819081111562001544575060025460009081526009602090815260408083206001600160a01b03871684529091529020545b60025460009081526009602090815260408083206001600160a01b0388168452909152812080548392906200157b908490620033d4565b90915550506001600160a01b03831615620015cd5760025460009081526009602090815260408083206001600160a01b038716845290915281208054839290620015c7908490620033b9565b90915550505b600254604080516001600160a01b038088168252861660208201529081018390527f65fbd5e5dd32bea4aeca85bd0be0abf0e489d655dee888a7510d43b06dda2dba9060600160405180910390a250505050565b62000c9a600a600062002b5e565b6001600160a01b038216156200069857600b54604051600c9184916001600160a01b03909116908490620016639062002b7e565b620016719392919062003086565b604051809103906000f0801580156200168e573d6000803e3d6000fd5b50815460018101835560009283526020928390200180546001600160a01b0319166001600160a01b0392909216919091179055600c54604080518082018252600b81526a151c985b9cdc185c995b9d60aa1b9381019390935251600080516020620050cc8339815191529262001709928692909190620030bd565b60405180910390a15050565b6001600160a01b03811615620006a857600d81604051620017369062002b8c565b62001742919062003058565b604051809103906000f0801580156200175f573d6000803e3d6000fd5b50815460018101835560009283526020928390200180546001600160a01b0319166001600160a01b0392909216919091179055600d5460408051808201825260068152652132b0b1b7b760d11b9381019390935251600080516020620050cc83398151915292620017d5928592909190620030bd565b60405180910390a150565b60008181526009602090815260408083206001600160a01b03861684529091528120546200180e84620019dc565b6200181a9190620033d4565b9392505050565b60008381526009602090815260408083206001600160a01b03861684529091528120805483929062001855908490620033b9565b9091555050505050565b60055460065410620018d5576200187562001b09565b6200187f62000c9c565b6003546002546006546007546040516001600160a01b03909416937f23ca0034cf5aad32571b4a492e9598ea8a490e1643a60970e3cdc6933b55e49f93620018cb9390929091620032ae565b60405180910390a2565b6005546007541062000c9a57620018eb62000c90565b620018f562000c9c565b6003546002546006546007546040516001600160a01b03909416937fa58eb6daa3c62c3f883973c4035e5bd3e81aa627c8379de068a7de42df122be293620018cb9390929091620032ae565b600054610100900460ff166200195e5760005460ff161562001962565b303b155b620019815760405162461bcd60e51b8152600401620005a39062003260565b600054610100900460ff16158015620019a4576000805461ffff19166101011790555b6000805462010000600160b01b031916620100006001600160a01b03851602179055801562000698576000805461ff00191690555050565b60008060029054906101000a90046001600160a01b03166001600160a01b031663e220ad956040518163ffffffff1660e01b815260040160006040518083038186803b15801562001a2c57600080fd5b505afa15801562001a41573d6000803e3d6000fd5b505050506040513d6000823e601f3d908101601f1916820160405262001a6b919081019062002cd5565b60038151811062001a805762001a8062003459565b60200260200101516001600160a01b03166370a08231836040518263ffffffff1660e01b815260040162001ab5919062003058565b60206040518083038186803b15801562001ace57600080fd5b505afa15801562001ae3573d6000803e3d6000fd5b505050506040513d601f19601f8201168201806040525081019062000ffe919062002f97565b62000c90600060029050600073__UintLibrary___________________________630bd4715e73__Library_______________________________63caa8f589600a60008154811062001b605762001b6062003459565b906000526020600020016040518263ffffffff1660e01b815260040162001b889190620031b0565b60006040518083038186803b15801562001ba157600080fd5b505af415801562001bb6573d6000803e3d6000fd5b505050506040513d6000823e601f3d908101601f1916820160405262001be0919081019062002d86565b60008151811062001bf55762001bf562003459565b60200260200101516040518263ffffffff1660e01b815260040162001c1c91815260200190565b60206040518083038186803b15801562001c3557600080fd5b505af415801562001c4a573d6000803e3d6000fd5b505050506040513d601f19601f8201168201806040525081019062001c70919062002f97565b9050600073__UintLibrary___________________________630bd4715e73__Library_______________________________63caa8f589600a60018154811062001cbf5762001cbf62003459565b906000526020600020016040518263ffffffff1660e01b815260040162001ce79190620031b0565b60006040518083038186803b15801562001d0057600080fd5b505af415801562001d15573d6000803e3d6000fd5b505050506040513d6000823e601f3d908101601f1916820160405262001d3f919081019062002d86565b60008151811062001d545762001d5462003459565b60200260200101516040518263ffffffff1660e01b815260040162001d7b91815260200190565b60206040518083038186803b15801562001d9457600080fd5b505af415801562001da9573d6000803e3d6000fd5b505050506040513d601f19601f8201168201806040525081019062001dcf919062002f97565b600d54600c5491925060009183919062001deb908690620033b9565b62001df79190620033b9565b62001e039190620033b9565b905060015b600c5481101562001fe55762001fd0600c828154811062001e2d5762001e2d62003459565b6000918252602090912001546001600160a01b031682600a62001e51828a620033b9565b8154811062001e645762001e6462003459565b90600052602060002001805462001e7b90620033ee565b80601f016020809104026020016040519081016040528092919081815260200182805462001ea990620033ee565b801562001efa5780601f1062001ece5761010080835404028352916020019162001efa565b820191906000526020600020905b81548152906001019060200180831162001edc57829003601f168201915b5050505050600a85878b62001f109190620033b9565b62001f1c9190620033b9565b8154811062001f2f5762001f2f62003459565b90600052602060002001805462001f4690620033ee565b80601f016020809104026020016040519081016040528092919081815260200182805462001f7490620033ee565b801562001fc55780601f1062001f995761010080835404028352916020019162001fc5565b820191906000526020600020905b81548152906001019060200180831162001fa757829003601f168201915b505050505062002641565b8062001fdc8162003425565b91505062001e08565b50600c5462001ff59085620033b9565b93508215620022675760005b8381101562002257576200224273__AddressLibrary________________________63f4ce9ae873__Library_______________________________63caa8f589600a62002050878c620033b9565b8154811062002063576200206362003459565b906000526020600020016040518263ffffffff1660e01b81526004016200208b9190620031b0565b60006040518083038186803b158015620020a457600080fd5b505af4158015620020b9573d6000803e3d6000fd5b505050506040513d6000823e601f3d908101601f19168201604052620020e3919081019062002d86565b600081518110620020f857620020f862003459565b60200260200101516040518263ffffffff1660e01b81526004016200211f91815260200190565b60206040518083038186803b1580156200213857600080fd5b505af41580156200214d573d6000803e3d6000fd5b505050506040513d601f19601f8201168201806040525081019062002173919062002c31565b600a8362002182868a620033b9565b6200218e9190620033b9565b81548110620021a157620021a162003459565b906000526020600020018054620021b890620033ee565b80601f0160208091040260200160405190810160405280929190818152602001828054620021e690620033ee565b8015620022375780601f106200220b5761010080835404028352916020019162002237565b820191906000526020600020905b8154815290600101906020018083116200221957829003601f168201915b50505050506200162f565b806200224e8162003425565b91505062002001565b50620022648385620033b9565b93505b60005b600d548110156200237c5762002367600d82815481106200228f576200228f62003459565b6000918252602090912001546001600160a01b031682600a620022b3828a620033b9565b81548110620022c657620022c662003459565b906000526020600020018054620022dd90620033ee565b80601f01602080910402602001604051908101604052809291908181526020018280546200230b90620033ee565b80156200235c5780601f1062002330576101008083540402835291602001916200235c565b820191906000526020600020905b8154815290600101906020018083116200233e57829003601f168201915b5050505050620028c4565b80620023738162003425565b9150506200226a565b50600d546200238c9085620033b9565b935081156200252f5760005b828110156200251f576200250a73__AddressLibrary________________________63f4ce9ae873__Library_______________________________63caa8f589600a620023e7878c620033b9565b81548110620023fa57620023fa62003459565b906000526020600020016040518263ffffffff1660e01b8152600401620024229190620031b0565b60006040518083038186803b1580156200243b57600080fd5b505af415801562002450573d6000803e3d6000fd5b505050506040513d6000823e601f3d908101601f191682016040526200247a919081019062002d86565b6000815181106200248f576200248f62003459565b60200260200101516040518263ffffffff1660e01b8152600401620024b691815260200190565b60206040518083038186803b158015620024cf57600080fd5b505af4158015620024e4573d6000803e3d6000fd5b505050506040513d601f19601f8201168201806040525081019062000e42919062002c31565b80620025168162003425565b91505062002398565b506200252c8285620033b9565b93505b600c548390620025409086620033b9565b6200254c9190620033b9565b935062000405600c60008154811062002569576200256962003459565b60009182526020822001546001600160a01b031690600a60028154811062002595576200259562003459565b906000526020600020018054620025ac90620033ee565b80601f0160208091040260200160405190810160405280929190818152602001828054620025da90620033ee565b80156200262b5780601f10620025ff576101008083540402835291602001916200262b565b820191906000526020600020905b8154815290600101906020018083116200260d57829003601f168201915b5050505050600a85600262001f1c9190620033b9565b600073__AddressLibrary________________________63f4ce9ae873__Library_______________________________63caa8f589866040518263ffffffff1660e01b81526004016200269691906200319b565b60006040518083038186803b158015620026af57600080fd5b505af4158015620026c4573d6000803e3d6000fd5b505050506040513d6000823e601f3d908101601f19168201604052620026ee919081019062002d86565b60008151811062002703576200270362003459565b60200260200101516040518263ffffffff1660e01b81526004016200272a91815260200190565b60206040518083038186803b1580156200274357600080fd5b505af415801562002758573d6000803e3d6000fd5b505050506040513d601f19601f820116820180604052508101906200277e919062002c31565b90506001600160a01b03811615620028bd578151156200280857600b54604051639623609d60e01b81526001600160a01b0390911690639623609d90620027ce9088908590879060040162003086565b600060405180830381600087803b158015620027e957600080fd5b505af1158015620027fe573d6000803e3d6000fd5b5050505062002871565b600b5460405163266a23b160e21b81526001600160a01b03909116906399a88ec4906200283c90889085906004016200306c565b600060405180830381600087803b1580156200285757600080fd5b505af11580156200286c573d6000803e3d6000fd5b505050505b604080518082018252600b81526a151c985b9cdc185c995b9d60aa1b60208201529051600080516020620050ac83398151915291620028b49184918891620030bd565b60405180910390a15b5050505050565b600073__AddressLibrary________________________63f4ce9ae873__Library_______________________________63caa8f589856040518263ffffffff1660e01b81526004016200291991906200319b565b60006040518083038186803b1580156200293257600080fd5b505af415801562002947573d6000803e3d6000fd5b505050506040513d6000823e601f3d908101601f1916820160405262002971919081019062002d86565b60008151811062002986576200298662003459565b60200260200101516040518263ffffffff1660e01b8152600401620029ad91815260200190565b60206040518083038186803b158015620029c657600080fd5b505af4158015620029db573d6000803e3d6000fd5b505050506040513d601f19601f8201168201806040525081019062002a01919062002c31565b90506001600160a01b038116156200040557604051631b2ce7f360e11b81526001600160a01b03851690633659cfe69062002a4190849060040162003058565b600060405180830381600087803b15801562002a5c57600080fd5b505af115801562002a71573d6000803e3d6000fd5b505060408051808201825260068152652132b0b1b7b760d11b60208201529051600080516020620050ac833981519152935062002ab3925084918791620030bd565b60405180910390a150505050565b6107bd806200349c83390190565b82805462002add90620033ee565b90600052602060002090601f01602090048101928262002b01576000855562002b4c565b82601f1062002b1c57805160ff191683800117855562002b4c565b8280016001018555821562002b4c579182015b8281111562002b4c57825182559160200191906001019062002b2f565b5062002b5a92915062002b9a565b5090565b5080546000825590600052602060002090810190620006a8919062002bb1565b610f308062003c5983390190565b6105238062004b8983390190565b5b8082111562002b5a576000815560010162002b9b565b8082111562002b5a57600062002bc8828262002bd2565b5060010162002bb1565b50805462002be090620033ee565b6000825580601f1062002bf1575050565b601f016020900490600052602060002090810190620006a8919062002b9a565b60006020828403121562002c2457600080fd5b81356200181a8162003485565b60006020828403121562002c4457600080fd5b81516200181a8162003485565b6000806040838503121562002c6557600080fd5b823562002c728162003485565b9150602083013562002c848162003485565b809150509250929050565b60008060006060848603121562002ca557600080fd5b833562002cb28162003485565b9250602084013562002cc48162003485565b929592945050506040919091013590565b6000602080838503121562002ce957600080fd5b82516001600160401b0381111562002d0057600080fd5b8301601f8101851362002d1257600080fd5b805162002d2962002d238262003393565b62003360565b80828252848201915084840188868560051b870101111562002d4a57600080fd5b600094505b8385101562002d7a57805162002d658162003485565b83526001949094019391850191850162002d4f565b50979650505050505050565b6000602080838503121562002d9a57600080fd5b82516001600160401b0381111562002db157600080fd5b8301601f8101851362002dc357600080fd5b805162002dd462002d238262003393565b80828252848201915084840188868560051b870101111562002df557600080fd5b600094505b8385101562002d7a57805183526001949094019391850191850162002dfa565b6000602080838503121562002e2e57600080fd5b82356001600160401b038082111562002e4657600080fd5b8185019150601f868184011262002e5c57600080fd5b823562002e6d62002d238262003393565b8082825286820191508686018a888560051b890101111562002e8e57600080fd5b60005b8481101562002f255781358781111562002eaa57600080fd5b8801603f81018d1362002ebc57600080fd5b8981013560408982111562002ed55762002ed56200346f565b62002ee8828a01601f19168d0162003360565b8281528f8284860101111562002efd57600080fd5b828285018e83013760009281018d019290925250855250928801929088019060010162002e91565b50909a9950505050505050505050565b60006020828403121562002f4857600080fd5b813580151581146200181a57600080fd5b6000806040838503121562002f6d57600080fd5b82356001600160401b0381111562002f8457600080fd5b830160a0818603121562002c7257600080fd5b60006020828403121562002faa57600080fd5b5051919050565b6000806040838503121562002fc557600080fd5b82359150602083013562002c848162003485565b60008060006060848603121562002fef57600080fd5b8351925060208401519150604084015190509250925092565b6000815180845260005b81811015620030305760208185018101518683018201520162003012565b8181111562003043576000602083870101525b50601f01601f19169290920160200192915050565b6001600160a01b0391909116815260200190565b6001600160a01b0392831681529116602082015260400190565b6001600160a01b03848116825283166020820152606060408201819052600090620030b49083018462003008565b95945050505050565b60018060a01b0384168152826020820152606060408201526000620030b4606083018462003008565b6020808252825182820181905260009190848201906040850190845b81811015620031295783516001600160a01b03168352928401929184019160010162003102565b50909695505050505050565b6000602080830181845280855180835260408601915060408160051b870101925083870160005b828110156200318e57603f198886030184526200317b85835162003008565b945092850192908501906001016200315c565b5092979650505050505050565b6020815260006200181a602083018462003008565b600060208083526000845481600182811c915080831680620031d357607f831692505b858310811415620031f257634e487b7160e01b85526022600452602485fd5b878601838152602001818015620032125760018114620032245762003251565b60ff1986168252878201965062003251565b60008b81526020902060005b868110156200324b5781548482015290850190890162003230565b83019750505b50949998505050505050505050565b6020808252602e908201527f496e697469616c697a61626c653a20636f6e747261637420697320616c72656160408201526d191e481a5b9a5d1a585b1a5e995960921b606082015260800190565b9283526020830191909152604082015260600190565b6000808335601e19843603018112620032dc57600080fd5b8301803591506001600160401b03821115620032f757600080fd5b6020019150600581901b36038213156200331057600080fd5b9250929050565b6000808335601e198436030181126200332f57600080fd5b8301803591506001600160401b038211156200334a57600080fd5b6020019150368190038213156200331057600080fd5b604051601f8201601f191681016001600160401b03811182821017156200338b576200338b6200346f565b604052919050565b60006001600160401b03821115620033af57620033af6200346f565b5060051b60200190565b60008219821115620033cf57620033cf62003443565b500190565b600082821015620033e957620033e962003443565b500390565b600181811c908216806200340357607f821691505b602082108114156200077f57634e487b7160e01b600052602260045260246000fd5b60006000198214156200343c576200343c62003443565b5060010190565b634e487b7160e01b600052601160045260246000fd5b634e487b7160e01b600052603260045260246000fd5b634e487b7160e01b600052604160045260246000fd5b6001600160a01b0381168114620006a857600080fdfe608060405234801561001057600080fd5b5061001a3361001f565b61006f565b600080546001600160a01b038381166001600160a01b0319831681178455604051919092169283917f8be0079c531659141344cd1fd0a4f28419497f9722a3daafe3b4186f6b6457e09190a35050565b61073f8061007e6000396000f3fe60806040526004361061006b5760003560e01c8063204e1c7a14610070578063715018a6146100a65780637eff275e146100bd5780638da5cb5b146100dd5780639623609d146100f257806399a88ec414610105578063f2fde38b14610125578063f3b7dead14610145575b600080fd5b34801561007c57600080fd5b5061009061008b3660046104e1565b610165565b60405161009d9190610630565b60405180910390f35b3480156100b257600080fd5b506100bb6101f6565b005b3480156100c957600080fd5b506100bb6100d8366004610522565b61023a565b3480156100e957600080fd5b506100906102cb565b6100bb61010036600461055b565b6102da565b34801561011157600080fd5b506100bb610120366004610522565b610370565b34801561013157600080fd5b506100bb6101403660046104e1565b6103cb565b34801561015157600080fd5b506100906101603660046104e1565b61046b565b6000806000836001600160a01b031660405161018b90635c60da1b60e01b815260040190565b600060405180830381855afa9150503d80600081146101c6576040519150601f19603f3d011682016040523d82523d6000602084013e6101cb565b606091505b5091509150816101da57600080fd5b808060200190518101906101ee9190610505565b949350505050565b336101ff6102cb565b6001600160a01b03161461022e5760405162461bcd60e51b8152600401610225906106a9565b60405180910390fd5b6102386000610491565b565b336102436102cb565b6001600160a01b0316146102695760405162461bcd60e51b8152600401610225906106a9565b6040516308f2839760e41b81526001600160a01b03831690638f28397090610295908490600401610630565b600060405180830381600087803b1580156102af57600080fd5b505af11580156102c3573d6000803e3d6000fd5b505050505050565b6000546001600160a01b031690565b336102e36102cb565b6001600160a01b0316146103095760405162461bcd60e51b8152600401610225906106a9565b60405163278f794360e11b81526001600160a01b03841690634f1ef2869034906103399086908690600401610644565b6000604051808303818588803b15801561035257600080fd5b505af1158015610366573d6000803e3d6000fd5b5050505050505050565b336103796102cb565b6001600160a01b03161461039f5760405162461bcd60e51b8152600401610225906106a9565b604051631b2ce7f360e11b81526001600160a01b03831690633659cfe690610295908490600401610630565b336103d46102cb565b6001600160a01b0316146103fa5760405162461bcd60e51b8152600401610225906106a9565b6001600160a01b03811661045f5760405162461bcd60e51b815260206004820152602660248201527f4f776e61626c653a206e6577206f776e657220697320746865207a65726f206160448201526564647265737360d01b6064820152608401610225565b61046881610491565b50565b6000806000836001600160a01b031660405161018b906303e1469160e61b815260040190565b600080546001600160a01b038381166001600160a01b0319831681178455604051919092169283917f8be0079c531659141344cd1fd0a4f28419497f9722a3daafe3b4186f6b6457e09190a35050565b6000602082840312156104f357600080fd5b81356104fe816106f4565b9392505050565b60006020828403121561051757600080fd5b81516104fe816106f4565b6000806040838503121561053557600080fd5b8235610540816106f4565b91506020830135610550816106f4565b809150509250929050565b60008060006060848603121561057057600080fd5b833561057b816106f4565b9250602084013561058b816106f4565b915060408401356001600160401b03808211156105a757600080fd5b818601915086601f8301126105bb57600080fd5b8135818111156105cd576105cd6106de565b604051601f8201601f19908116603f011681019083821181831017156105f5576105f56106de565b8160405282815289602084870101111561060e57600080fd5b8260208601602083013760006020848301015280955050505050509250925092565b6001600160a01b0391909116815260200190565b60018060a01b038316815260006020604081840152835180604085015260005b8181101561068057858101830151858201606001528201610664565b81811115610692576000606083870101525b50601f01601f191692909201606001949350505050565b6020808252818101527f4f776e61626c653a2063616c6c6572206973206e6f7420746865206f776e6572604082015260600190565b634e487b7160e01b600052604160045260246000fd5b6001600160a01b038116811461046857600080fdfea264697066735822122074dc418b97a9db2b9644d1c9b4ce062e77674c6a5763c80b411d9b094dfa21ae64736f6c63430008070033608060405260405162000f3038038062000f308339810160408190526200002691620004c2565b82816200005560017f360894a13ba1a3210667c828492db98dca3e2076cc3735a920a3ca505d382bbd620005f5565b60008051602062000ee9833981519152146200007557620000756200064a565b6200008382826000620000e7565b50620000b3905060017fb53127684a568b3173ae13b9f8a6016e243e63b6e8ee1178d6a717850b5d6104620005f5565b60008051602062000ec983398151915214620000d357620000d36200064a565b620000de8262000124565b50505062000676565b620000f2836200017f565b600082511180620001005750805b156200011f576200011d8383620001c160201b620002601760201c565b505b505050565b7f7e644d79422f17c01e4894b5f4f588d331ebfa28653d42ae832dc59e38c9798f6200014f620001f0565b604080516001600160a01b03928316815291841660208301520160405180910390a16200017c8162000229565b50565b6200018a81620002de565b6040516001600160a01b038216907fbc7cd75a20ee27fd9adebab32041f755214dbc6bffa90cc0225b39da2e5c2d3b90600090a250565b6060620001e9838360405180606001604052806027815260200162000f096027913962000381565b9392505050565b60006200021a60008051602062000ec983398151915260001b6200045e60201b620002081760201c565b546001600160a01b0316919050565b6001600160a01b038116620002945760405162461bcd60e51b815260206004820152602660248201527f455243313936373a206e65772061646d696e20697320746865207a65726f206160448201526564647265737360d01b60648201526084015b60405180910390fd5b80620002bd60008051602062000ec983398151915260001b6200045e60201b620002081760201c565b80546001600160a01b0319166001600160a01b039290921691909117905550565b620002f4816200046160201b6200028c1760201c565b620003585760405162461bcd60e51b815260206004820152602d60248201527f455243313936373a206e657720696d706c656d656e746174696f6e206973206e60448201526c1bdd08184818dbdb9d1c9858dd609a1b60648201526084016200028b565b80620002bd60008051602062000ee983398151915260001b6200045e60201b620002081760201c565b6060833b620003e25760405162461bcd60e51b815260206004820152602660248201527f416464726573733a2064656c65676174652063616c6c20746f206e6f6e2d636f6044820152651b9d1c9858dd60d21b60648201526084016200028b565b600080856001600160a01b031685604051620003ff9190620005a2565b600060405180830381855af49150503d80600081146200043c576040519150601f19603f3d011682016040523d82523d6000602084013e62000441565b606091505b5090925090506200045482828662000467565b9695505050505050565b90565b3b151590565b6060831562000478575081620001e9565b825115620004895782518084602001fd5b8160405162461bcd60e51b81526004016200028b9190620005c0565b80516001600160a01b0381168114620004bd57600080fd5b919050565b600080600060608486031215620004d857600080fd5b620004e384620004a5565b9250620004f360208501620004a5565b60408501519092506001600160401b03808211156200051157600080fd5b818601915086601f8301126200052657600080fd5b8151818111156200053b576200053b62000660565b604051601f8201601f19908116603f0116810190838211818310171562000566576200056662000660565b816040528281528960208487010111156200058057600080fd5b620005938360208301602088016200061b565b80955050505050509250925092565b60008251620005b68184602087016200061b565b9190910192915050565b6020815260008251806020840152620005e18160408501602087016200061b565b601f01601f19169190910160400192915050565b6000828210156200061657634e487b7160e01b600052601160045260246000fd5b500390565b60005b83811015620006385781810151838201526020016200061e565b838111156200011d5750506000910152565b634e487b7160e01b600052600160045260246000fd5b634e487b7160e01b600052604160045260246000fd5b61084380620006866000396000f3fe60806040526004361061004e5760003560e01c80633659cfe6146100655780634f1ef286146100855780635c60da1b146100985780638f283970146100c9578063f851a440146100e95761005d565b3661005d5761005b6100fe565b005b61005b6100fe565b34801561007157600080fd5b5061005b61008036600461068e565b610118565b61005b6100933660046106a9565b61015f565b3480156100a457600080fd5b506100ad6101d0565b6040516001600160a01b03909116815260200160405180910390f35b3480156100d557600080fd5b5061005b6100e436600461068e565b61020b565b3480156100f557600080fd5b506100ad610235565b610106610292565b610116610111610331565b61033b565b565b61012061035f565b6001600160a01b0316336001600160a01b031614156101575761015481604051806020016040528060008152506000610380565b50565b6101546100fe565b61016761035f565b6001600160a01b0316336001600160a01b031614156101c8576101c38383838080601f01602080910402602001604051908101604052809392919081815260200183838082843760009201919091525060019250610380915050565b505050565b6101c36100fe565b60006101da61035f565b6001600160a01b0316336001600160a01b03161415610200576101fb610331565b905090565b6102086100fe565b90565b61021361035f565b6001600160a01b0316336001600160a01b0316141561015757610154816103ab565b600061023f61035f565b6001600160a01b0316336001600160a01b03161415610200576101fb61035f565b606061028583836040518060600160405280602781526020016107e7602791396103ff565b9392505050565b3b151590565b61029a61035f565b6001600160a01b0316336001600160a01b031614156101165760405162461bcd60e51b815260206004820152604260248201527f5472616e73706172656e745570677261646561626c6550726f78793a2061646d60448201527f696e2063616e6e6f742066616c6c6261636b20746f2070726f78792074617267606482015261195d60f21b608482015260a4015b60405180910390fd5b60006101fb6104d3565b3660008037600080366000845af43d6000803e80801561035a573d6000f35b3d6000fd5b60006000805160206107a78339815191525b546001600160a01b0316919050565b610389836104e9565b6000825111806103965750805b156101c3576103a58383610260565b50505050565b7f7e644d79422f17c01e4894b5f4f588d331ebfa28653d42ae832dc59e38c9798f6103d461035f565b604080516001600160a01b03928316815291841660208301520160405180910390a161015481610529565b6060833b61045e5760405162461bcd60e51b815260206004820152602660248201527f416464726573733a2064656c65676174652063616c6c20746f206e6f6e2d636f6044820152651b9d1c9858dd60d21b6064820152608401610328565b600080856001600160a01b031685604051610479919061072b565b600060405180830381855af49150503d80600081146104b4576040519150601f19603f3d011682016040523d82523d6000602084013e6104b9565b606091505b50915091506104c98282866105c0565b9695505050505050565b60006000805160206107c7833981519152610371565b6104f2816105f9565b6040516001600160a01b038216907fbc7cd75a20ee27fd9adebab32041f755214dbc6bffa90cc0225b39da2e5c2d3b90600090a250565b6001600160a01b03811661058e5760405162461bcd60e51b815260206004820152602660248201527f455243313936373a206e65772061646d696e20697320746865207a65726f206160448201526564647265737360d01b6064820152608401610328565b806000805160206107a78339815191525b80546001600160a01b0319166001600160a01b039290921691909117905550565b606083156105cf575081610285565b8251156105df5782518084602001fd5b8160405162461bcd60e51b81526004016103289190610747565b803b61065d5760405162461bcd60e51b815260206004820152602d60248201527f455243313936373a206e657720696d706c656d656e746174696f6e206973206e60448201526c1bdd08184818dbdb9d1c9858dd609a1b6064820152608401610328565b806000805160206107c783398151915261059f565b80356001600160a01b038116811461068957600080fd5b919050565b6000602082840312156106a057600080fd5b61028582610672565b6000806000604084860312156106be57600080fd5b6106c784610672565b925060208401356001600160401b03808211156106e357600080fd5b818601915086601f8301126106f757600080fd5b81358181111561070657600080fd5b87602082850101111561071857600080fd5b6020830194508093505050509250925092565b6000825161073d81846020870161077a565b9190910192915050565b602081526000825180602084015261076681604085016020870161077a565b601f01601f19169190910160400192915050565b60005b8381101561079557818101518382015260200161077d565b838111156103a5575050600091015256feb53127684a568b3173ae13b9f8a6016e243e63b6e8ee1178d6a717850b5d6103360894a13ba1a3210667c828492db98dca3e2076cc3735a920a3ca505d382bbc416464726573733a206c6f772d6c6576656c2064656c65676174652063616c6c206661696c6564a2646970667358221220d5121451bd94f4958652202c13c925bc018eb261277854c696e7e1c284a8b62c64736f6c63430008070033b53127684a568b3173ae13b9f8a6016e243e63b6e8ee1178d6a717850b5d6103360894a13ba1a3210667c828492db98dca3e2076cc3735a920a3ca505d382bbc416464726573733a206c6f772d6c6576656c2064656c65676174652063616c6c206661696c6564608060405234801561001057600080fd5b5060405161052338038061052383398101604081905261002f91610148565b61003833610047565b61004181610097565b50610178565b600080546001600160a01b038381166001600160a01b0319831681178455604051919092169283917f8be0079c531659141344cd1fd0a4f28419497f9722a3daafe3b4186f6b6457e09190a35050565b6100aa8161014260201b61021f1760201c565b6101205760405162461bcd60e51b815260206004820152603360248201527f5570677261646561626c65426561636f6e3a20696d706c656d656e746174696f60448201527f6e206973206e6f74206120636f6e747261637400000000000000000000000000606482015260840160405180910390fd5b600180546001600160a01b0319166001600160a01b0392909216919091179055565b3b151590565b60006020828403121561015a57600080fd5b81516001600160a01b038116811461017157600080fd5b9392505050565b61039c806101876000396000f3fe608060405234801561001057600080fd5b50600436106100575760003560e01c80633659cfe61461005c5780635c60da1b14610071578063715018a61461009a5780638da5cb5b146100a2578063f2fde38b146100aa575b600080fd5b61006f61006a366004610301565b6100bd565b005b6001546001600160a01b03165b6040516001600160a01b03909116815260200160405180910390f35b61006f610135565b61007e610170565b61006f6100b8366004610301565b61017f565b336100c6610170565b6001600160a01b0316146100f55760405162461bcd60e51b81526004016100ec90610331565b60405180910390fd5b6100fe81610225565b6040516001600160a01b038216907fbc7cd75a20ee27fd9adebab32041f755214dbc6bffa90cc0225b39da2e5c2d3b90600090a250565b3361013e610170565b6001600160a01b0316146101645760405162461bcd60e51b81526004016100ec90610331565b61016e60006102b1565b565b6000546001600160a01b031690565b33610188610170565b6001600160a01b0316146101ae5760405162461bcd60e51b81526004016100ec90610331565b6001600160a01b0381166102135760405162461bcd60e51b815260206004820152602660248201527f4f776e61626c653a206e6577206f776e657220697320746865207a65726f206160448201526564647265737360d01b60648201526084016100ec565b61021c816102b1565b50565b3b151590565b803b61028f5760405162461bcd60e51b815260206004820152603360248201527f5570677261646561626c65426561636f6e3a20696d706c656d656e746174696f6044820152721b881a5cc81b9bdd08184818dbdb9d1c9858dd606a1b60648201526084016100ec565b600180546001600160a01b0319166001600160a01b0392909216919091179055565b600080546001600160a01b038381166001600160a01b0319831681178455604051919092169283917f8be0079c531659141344cd1fd0a4f28419497f9722a3daafe3b4186f6b6457e09190a35050565b60006020828403121561031357600080fd5b81356001600160a01b038116811461032a57600080fd5b9392505050565b6020808252818101527f4f776e61626c653a2063616c6c6572206973206e6f7420746865206f776e657260408201526060019056fea2646970667358221220c8fdeec5ecece28177eab647dcc5d9527df89d1970c3f4b5d4bed9062c9bb3fd64736f6c6343000807003328fbcc6e7781af00516c046711977989e1ca1bf627baa89f112b193653efb1a820baf84965293c5077f4dd07839fa02177fcc842a69a52206581f24fb4e092ffa2646970667358221220ce66ae75c9456962a02e7808524ee7106db71a25da9b4d2611a5e88b5ad3e73164736f6c63430008070033",
  "immutableReferences": {},
  "source": "// SPDX-License-Identifier: GPL-3.0\r\n\r\npragma solidity 0.8.7;\r\n\r\n/**\r\n * @title Storage\r\n * @dev Store & retrieve value in a variable\r\n\r\nTransparent Proxies:\r\n    - 0 : Itself (Certificate Pool Manager)\r\n    - 1 : Public Pool\r\n    - 2 : Treasury\r\n    - 3 : Originals Token\r\n    - 4 : Proposition Settings\r\n    - 5 : NFT Factory\r\n\r\nBeacons:\r\n    - 0 : NFT\r\n\r\n NewProposals :\r\n    - Amount of New Transaparent proxies = m\r\n    - Amount of New Beacons = q\r\n    - New Address Transaparent proxy 1\r\n    - ...\r\n    - New Address Transaparent proxy n\r\n    - Address New Transaparent proxy 1\r\n    - ...\r\n    - Address New Transaparent proxy m\r\n    - New Address Beacon proxy 1\r\n    - ...\r\n    - New Address Beacon proxy p\r\n    - Address New Beacon proxy 1\r\n    - ...\r\n    - Address New Beacon proxy q\r\n    - Data Transaparent proxy 1\r\n    - ..\r\n    - Data Transaparent proxy n\r\n    - Data New Transaparent proxy 1\r\n    - ..\r\n    - Data New Transaparent proxy m\r\n */\r\n\r\nimport \"../Interfaces/IManager.sol\";\r\nimport \"../Base/StdPropositionBaseContract.sol\";\r\nimport \"../Libraries/AddressLibrary.sol\";\r\nimport \"../Libraries/Library.sol\";\r\nimport \"../Libraries/UintLibrary.sol\";\r\nimport \"@openzeppelin/contracts-upgradeable/proxy/utils/Initializable.sol\";\r\nimport \"@openzeppelin/contracts/proxy/beacon/UpgradeableBeacon.sol\";\r\nimport \"@openzeppelin/contracts/proxy/transparent/TransparentUpgradeableProxy.sol\";\r\nimport \"@openzeppelin/contracts/proxy/transparent/ProxyAdmin.sol\";\r\n\r\n\r\ncontract CertificatesPoolManager is IManager, StdPropositionBaseContract{\r\n    using AddressLibrary for *;\r\n    using Library for *;\r\n    using UintLibrary for *;\r\n\r\n    // EVENTS /////////////////////////////////////////\r\n    event _NewProxy(address NewContractAddress, uint ProxyId, string ProxyType);\r\n    event _ContractUpgrade(address NewContractAddress, uint ProxyId, string ProxyType);\r\n\r\n    // DATA /////////////////////////////////////////\r\n    // Admin Proxy to manage all the TransparentUpgradeableProxies\r\n    ProxyAdmin private _Admin;\r\n\r\n    // Transparent Proxies\r\n    TransparentUpgradeableProxy[] private _TransparentProxies;\r\n\r\n    // Beacons\r\n    UpgradeableBeacon[] private _Beacons;\r\n\r\n    // Proxy Types\r\n    string constant _TransparentType = \"Transparent\";\r\n    string constant _BeaconType = \"Beacon\";\r\n    uint constant _NewPropositionsRedimesionFields = 2; // The first \"NewPropositionsRedimesionFields\" elements of every new proposition indicate the number of new transaprent/beacon/... proxies to add to the system\r\n\r\n    // init\r\n    bool private _init;\r\n\r\n    // MODIFIERS /////////////////////////////////////////\r\n    modifier isNotInitialized(){\r\n        require(false == _init, \"EC26-\");\r\n        _;\r\n    }\r\n\r\n    // INITIALIZATION /////////////////////////////////////////\r\n    function CertificatesPoolManager_init(address chairPerson) public initializer\r\n    {\r\n        super.StdPropositionBaseContract_init(chairPerson, address(this));\r\n        _Admin = new ProxyAdmin();\r\n    }\r\n\r\n    function InitializeContracts(Library.ProposedContractsStruct calldata initialContracts, TransparentUpgradeableProxy ManagerProxyAddress) \r\n        isFromChairPerson(msg.sender)\r\n        isNotInitialized()\r\n    external override\r\n    {\r\n        initProxies(initialContracts, ManagerProxyAddress);\r\n        _init = true;\r\n    }\r\n\r\n    // FUNCTIONALITY /////////////////////////////////////////\r\n    // governance : contracts assignment and management\r\n    function initProxies(Library.ProposedContractsStruct calldata initialContracts, TransparentUpgradeableProxy ManagerProxyAddress) private\r\n    {\r\n        _TransparentProxies.push(TransparentUpgradeableProxy(ManagerProxyAddress));\r\n\r\n        for(uint i=0; i < initialContracts.TransparentAddresses.length; i++){\r\n            addTransparentProxy(initialContracts.TransparentAddresses[i], initialContracts.TransparentData[i]);\r\n        }\r\n        for(uint i=0; i < initialContracts.BeaconAddresses.length; i++){\r\n            addBeacon(initialContracts.BeaconAddresses[i]);\r\n        }\r\n    }\r\n\r\n    function UpdateAll() internal override\r\n    {\r\n\r\n        uint256 pointer = _NewPropositionsRedimesionFields;\r\n        uint256 NewTransparentProxies = UintLibrary.Bytes32ToUint(Library.BytestoBytes32(_ProposedNewValues[0])[0]); // m\r\n        uint256 NewBeaconProxies = UintLibrary.Bytes32ToUint(Library.BytestoBytes32(_ProposedNewValues[1])[0]); // q\r\n        uint256 TransaprentProxyDataSkip = _TransparentProxies.length + NewTransparentProxies + _Beacons.length + NewBeaconProxies;\r\n\r\n        // Transaprent Proxies : We start at 1 so that if we update the code of this SC it will be done at the end\r\n        for(uint i=1; i < _TransparentProxies.length; i++){\r\n            upgradeTransparentProxy(_TransparentProxies[i], \r\n                i, \r\n                _ProposedNewValues[pointer + i], \r\n                _ProposedNewValues[pointer + TransaprentProxyDataSkip + i]);\r\n        }\r\n\r\n        pointer = pointer + _TransparentProxies.length;\r\n\r\n        if(NewTransparentProxies > 0){\r\n            for(uint i=0; i < NewTransparentProxies; i++){\r\n                addTransparentProxy(\r\n                AddressLibrary.Bytes32ToAddress(Library.BytestoBytes32(_ProposedNewValues[pointer + i])[0]), \r\n                _ProposedNewValues[pointer + TransaprentProxyDataSkip + i]);\r\n            }\r\n\r\n            pointer = pointer + NewTransparentProxies;\r\n        }\r\n        \r\n        // Beacons\r\n        for(uint i=0; i < _Beacons.length; i++){\r\n            upgradeBeacon(_Beacons[i], \r\n                i, \r\n                _ProposedNewValues[pointer + i]);\r\n        }\r\n\r\n        pointer = pointer + _Beacons.length;\r\n\r\n        if(NewBeaconProxies > 0){\r\n            for(uint i=0; i < NewBeaconProxies; i++){\r\n                addBeacon(AddressLibrary.Bytes32ToAddress(Library.BytestoBytes32(_ProposedNewValues[pointer + i])[0]));\r\n            }\r\n\r\n            pointer = pointer + NewBeaconProxies;\r\n        }\r\n\r\n        pointer = pointer + _TransparentProxies.length + NewTransparentProxies;\r\n        \r\n        // We finally upgrade this contract if required\r\n        upgradeTransparentProxy(_TransparentProxies[uint256(Library.TransparentProxies.Manager)], \r\n                uint256(Library.TransparentProxies.Manager), \r\n                _ProposedNewValues[_NewPropositionsRedimesionFields], \r\n                _ProposedNewValues[_NewPropositionsRedimesionFields + TransaprentProxyDataSkip]);\r\n\r\n    }\r\n\r\n    function addTransparentProxy(address implAddress, bytes memory data) private\r\n    {\r\n        if(address(0) != implAddress){\r\n            _TransparentProxies.push(new TransparentUpgradeableProxy(implAddress, address(_Admin), data));\r\n            emit _NewProxy(implAddress, _TransparentProxies.length, _TransparentType);\r\n        }\r\n    }\r\n\r\n    function addBeacon(address implAddress) private\r\n    {\r\n        if(address(0) != implAddress){\r\n            _Beacons.push(new UpgradeableBeacon(implAddress));\r\n            emit _NewProxy(implAddress, _Beacons.length, _BeaconType);\r\n        }\r\n    }\r\n\r\n    function upgradeTransparentProxy(TransparentUpgradeableProxy proxy, uint ProxyId, bytes memory NewImpl, bytes memory Data) private\r\n    {\r\n        address NewImplAddress = AddressLibrary.Bytes32ToAddress(Library.BytestoBytes32(NewImpl)[0]);\r\n        if(address(0) != NewImplAddress){\r\n            if(0 < Data.length)_Admin.upgradeAndCall(proxy, NewImplAddress, Data);\r\n            else _Admin.upgrade(proxy, NewImplAddress);\r\n            emit _ContractUpgrade(NewImplAddress, ProxyId, _TransparentType);\r\n        }\r\n    }\r\n\r\n    function upgradeBeacon(UpgradeableBeacon beacon, uint BeaconId, bytes memory NewImpl) private\r\n    {\r\n        address NewImplAddress = AddressLibrary.Bytes32ToAddress(Library.BytestoBytes32(NewImpl)[0]);\r\n        if(address(0) != NewImplAddress){\r\n            beacon.upgradeTo(NewImplAddress);\r\n            emit _ContractUpgrade(NewImplAddress, BeaconId, _BeaconType);\r\n        }\r\n\r\n    }\r\n\r\n    // configuration Proxies\r\n    function retrieveTransparentProxies() external override view returns (address[] memory) \r\n    {\r\n        address[] memory proxies = new address[](_TransparentProxies.length);\r\n        for(uint i=0; i < proxies.length; i++){\r\n            proxies[i] = address(_TransparentProxies[i]);\r\n        }\r\n        return proxies;\r\n    }\r\n\r\n    function retrieveBeacons() external override view returns (address[] memory) \r\n    {\r\n        address[] memory proxies = new address[](_Beacons.length);\r\n        for(uint i=0; i < proxies.length; i++){\r\n            proxies[i] = address(_Beacons[i]);\r\n        }\r\n        return proxies;\r\n    }\r\n\r\n    // configuration implementations\r\n    function retrieveProxyAdmin() external override view returns (address){\r\n        return address(_Admin);\r\n    }\r\n\r\n    function retrieveTransparentProxiesImpl() external override view returns (address[] memory) \r\n    {\r\n        address[] memory implementations = new address[](_TransparentProxies.length);\r\n        for(uint i=0; i < implementations.length; i++){\r\n            implementations[i] = internalRetrieveTransparentProxyImpl(_TransparentProxies[i]);\r\n        }\r\n        return implementations;\r\n    }\r\n\r\n    function retrieveBeaconsImpl() external override view returns (address[] memory) \r\n    {\r\n        address[] memory implementations = new address[](_Beacons.length);\r\n        for(uint i=0; i < implementations.length; i++){\r\n            implementations[i] = internalRetrieveBeaconImpl(_Beacons[i]);\r\n        }\r\n        return implementations;\r\n    }\r\n\r\n    function isInitialized() external override view returns(bool){\r\n        return _init;\r\n    }\r\n\r\n    // internal\r\n    function internalRetrieveTransparentProxyImpl(TransparentUpgradeableProxy proxy) internal view returns (address){\r\n        return _Admin.getProxyImplementation(proxy);\r\n    }\r\n\r\n    function internalRetrieveBeaconImpl(UpgradeableBeacon beacon) internal view returns (address){\r\n        return beacon.implementation();\r\n    }\r\n  \r\n}",
  "sourcePath": "C:\\Users\\d-aam\\GitHub\\Originals\\contracts\\MainContracts\\Manager.sol",
  "compiler": {
    "name": "solc",
    "version": "0.8.7+commit.e28d00a7.Emscripten.clang"
  },
  "schemaVersion": "3.4.3",
  "updatedAt": "2022-01-26T09:05:41.477Z",
  "devdoc": {
    "kind": "dev",
    "methods": {},
    "version": 1
  },
  "userdoc": {
    "kind": "user",
    "methods": {},
    "version": 1
  }
}