{
  "contractName": "CertificatesPoolManager",
  "abi": [
    {
      "anonymous": false,
      "inputs": [
        {
          "indexed": false,
          "internalType": "uint256",
          "name": "Id",
          "type": "uint256"
        },
        {
          "indexed": true,
          "internalType": "address",
          "name": "Proposer",
          "type": "address"
        },
        {
          "indexed": false,
          "internalType": "uint256",
          "name": "Deadline",
          "type": "uint256"
        },
        {
          "indexed": false,
          "internalType": "uint256",
          "name": "Threshold",
          "type": "uint256"
        }
      ],
      "name": "_AddedProposition",
      "type": "event"
    },
    {
      "anonymous": false,
      "inputs": [
        {
          "indexed": false,
          "internalType": "uint256",
          "name": "Id",
          "type": "uint256"
        },
        {
          "indexed": true,
          "internalType": "address",
          "name": "Proposer",
          "type": "address"
        }
      ],
      "name": "_CancelledProposition",
      "type": "event"
    },
    {
      "anonymous": false,
      "inputs": [
        {
          "indexed": false,
          "internalType": "address",
          "name": "NewContractAddress",
          "type": "address"
        },
        {
          "indexed": false,
          "internalType": "uint256",
          "name": "ProxyId",
          "type": "uint256"
        },
        {
          "indexed": false,
          "internalType": "string",
          "name": "ProxyType",
          "type": "string"
        }
      ],
      "name": "_ContractUpgrade",
      "type": "event"
    },
    {
      "anonymous": false,
      "inputs": [
        {
          "indexed": false,
          "internalType": "address",
          "name": "NewContractAddress",
          "type": "address"
        },
        {
          "indexed": false,
          "internalType": "uint256",
          "name": "ProxyId",
          "type": "uint256"
        },
        {
          "indexed": false,
          "internalType": "string",
          "name": "ProxyType",
          "type": "string"
        }
      ],
      "name": "_NewProxy",
      "type": "event"
    },
    {
      "anonymous": false,
      "inputs": [
        {
          "indexed": false,
          "internalType": "uint256",
          "name": "Id",
          "type": "uint256"
        },
        {
          "indexed": true,
          "internalType": "address",
          "name": "Proposer",
          "type": "address"
        },
        {
          "indexed": false,
          "internalType": "uint256",
          "name": "VotesFor",
          "type": "uint256"
        },
        {
          "indexed": false,
          "internalType": "uint256",
          "name": "VotesAgainst",
          "type": "uint256"
        }
      ],
      "name": "_PropositionApproved",
      "type": "event"
    },
    {
      "anonymous": false,
      "inputs": [
        {
          "indexed": false,
          "internalType": "uint256",
          "name": "Id",
          "type": "uint256"
        },
        {
          "indexed": true,
          "internalType": "address",
          "name": "Proposer",
          "type": "address"
        },
        {
          "indexed": false,
          "internalType": "uint256",
          "name": "VotesFor",
          "type": "uint256"
        },
        {
          "indexed": false,
          "internalType": "uint256",
          "name": "VotesAgainst",
          "type": "uint256"
        }
      ],
      "name": "_PropositionRejected",
      "type": "event"
    },
    {
      "anonymous": false,
      "inputs": [
        {
          "indexed": false,
          "internalType": "uint256",
          "name": "Id",
          "type": "uint256"
        },
        {
          "indexed": true,
          "internalType": "address",
          "name": "Voter",
          "type": "address"
        },
        {
          "indexed": false,
          "internalType": "bool",
          "name": "Vote",
          "type": "bool"
        },
        {
          "indexed": false,
          "internalType": "uint256",
          "name": "AmountTokens",
          "type": "uint256"
        }
      ],
      "name": "_PropositionVote",
      "type": "event"
    },
    {
      "anonymous": false,
      "inputs": [
        {
          "indexed": true,
          "internalType": "uint256",
          "name": "Id",
          "type": "uint256"
        },
        {
          "indexed": false,
          "internalType": "address",
          "name": "From",
          "type": "address"
        },
        {
          "indexed": false,
          "internalType": "address",
          "name": "To",
          "type": "address"
        },
        {
          "indexed": false,
          "internalType": "uint256",
          "name": "Amount",
          "type": "uint256"
        }
      ],
      "name": "_UsedTokensTransfered",
      "type": "event"
    },
    {
      "inputs": [
        {
          "internalType": "address",
          "name": "chairPerson",
          "type": "address"
        },
        {
          "internalType": "address",
          "name": "managerContractAddress",
          "type": "address"
        },
        {
          "internalType": "string",
          "name": "contractName",
          "type": "string"
        },
        {
          "internalType": "string",
          "name": "contractVersion",
          "type": "string"
        }
      ],
      "name": "StdPropositionBaseContract_init",
      "outputs": [],
      "stateMutability": "nonpayable",
      "type": "function"
    },
    {
      "inputs": [],
      "name": "cancelProposition",
      "outputs": [],
      "stateMutability": "nonpayable",
      "type": "function"
    },
    {
      "inputs": [
        {
          "internalType": "address",
          "name": "from",
          "type": "address"
        },
        {
          "internalType": "address",
          "name": "to",
          "type": "address"
        },
        {
          "internalType": "uint256",
          "name": "amount",
          "type": "uint256"
        }
      ],
      "name": "onTokenBalanceChanged",
      "outputs": [],
      "stateMutability": "nonpayable",
      "type": "function"
    },
    {
      "inputs": [],
      "name": "retrieveChairPerson",
      "outputs": [
        {
          "internalType": "address",
          "name": "",
          "type": "address"
        }
      ],
      "stateMutability": "view",
      "type": "function"
    },
    {
      "inputs": [],
      "name": "retrieveManagerContract",
      "outputs": [
        {
          "internalType": "address",
          "name": "",
          "type": "address"
        }
      ],
      "stateMutability": "view",
      "type": "function"
    },
    {
      "inputs": [],
      "name": "retrieveNextPropId",
      "outputs": [
        {
          "internalType": "uint256",
          "name": "",
          "type": "uint256"
        }
      ],
      "stateMutability": "view",
      "type": "function"
    },
    {
      "inputs": [],
      "name": "retrieveProposition",
      "outputs": [
        {
          "internalType": "bytes[]",
          "name": "",
          "type": "bytes[]"
        }
      ],
      "stateMutability": "view",
      "type": "function"
    },
    {
      "inputs": [],
      "name": "retrievePropositionStatus",
      "outputs": [
        {
          "internalType": "address",
          "name": "",
          "type": "address"
        },
        {
          "internalType": "uint256",
          "name": "",
          "type": "uint256"
        },
        {
          "internalType": "uint256",
          "name": "",
          "type": "uint256"
        },
        {
          "internalType": "uint256",
          "name": "",
          "type": "uint256"
        },
        {
          "internalType": "uint256",
          "name": "",
          "type": "uint256"
        }
      ],
      "stateMutability": "view",
      "type": "function"
    },
    {
      "inputs": [
        {
          "internalType": "uint256",
          "name": "PropId",
          "type": "uint256"
        },
        {
          "internalType": "address",
          "name": "voter",
          "type": "address"
        }
      ],
      "name": "retrieveVotesForVoter",
      "outputs": [
        {
          "internalType": "uint256",
          "name": "",
          "type": "uint256"
        }
      ],
      "stateMutability": "view",
      "type": "function"
    },
    {
      "inputs": [
        {
          "internalType": "bytes[]",
          "name": "NewValues",
          "type": "bytes[]"
        }
      ],
      "name": "sendProposition",
      "outputs": [],
      "stateMutability": "nonpayable",
      "type": "function"
    },
    {
      "inputs": [
        {
          "internalType": "bool",
          "name": "vote",
          "type": "bool"
        }
      ],
      "name": "voteProposition",
      "outputs": [],
      "stateMutability": "nonpayable",
      "type": "function"
    },
    {
      "inputs": [
        {
          "internalType": "address",
          "name": "chairPerson",
          "type": "address"
        },
        {
          "internalType": "string",
          "name": "contractName",
          "type": "string"
        },
        {
          "internalType": "string",
          "name": "contractVersion",
          "type": "string"
        }
      ],
      "name": "CertificatesPoolManager_init",
      "outputs": [],
      "stateMutability": "nonpayable",
      "type": "function"
    },
    {
      "inputs": [
        {
          "components": [
            {
              "internalType": "address[]",
              "name": "TransparentAddresses",
              "type": "address[]"
            },
            {
              "internalType": "address[]",
              "name": "BeaconAddresses",
              "type": "address[]"
            },
            {
              "internalType": "bytes[]",
              "name": "TransparentData",
              "type": "bytes[]"
            },
            {
              "internalType": "string",
              "name": "PrivatePoolContractName",
              "type": "string"
            },
            {
              "internalType": "string",
              "name": "PrivatePoolContractVersion",
              "type": "string"
            }
          ],
          "internalType": "struct Library.ProposedContractsStruct",
          "name": "initialContracts",
          "type": "tuple"
        },
        {
          "internalType": "contract TransparentUpgradeableProxy",
          "name": "ManagerProxyAddress",
          "type": "address"
        }
      ],
      "name": "InitializeContracts",
      "outputs": [],
      "stateMutability": "nonpayable",
      "type": "function"
    },
    {
      "inputs": [],
      "name": "retrieveTransparentProxies",
      "outputs": [
        {
          "internalType": "address[]",
          "name": "",
          "type": "address[]"
        }
      ],
      "stateMutability": "view",
      "type": "function"
    },
    {
      "inputs": [],
      "name": "retrieveBeacons",
      "outputs": [
        {
          "internalType": "address[]",
          "name": "",
          "type": "address[]"
        }
      ],
      "stateMutability": "view",
      "type": "function"
    },
    {
      "inputs": [],
      "name": "retrieveProxyAdmin",
      "outputs": [
        {
          "internalType": "address",
          "name": "",
          "type": "address"
        }
      ],
      "stateMutability": "view",
      "type": "function"
    },
    {
      "inputs": [],
      "name": "retrieveTransparentProxiesImpl",
      "outputs": [
        {
          "internalType": "address[]",
          "name": "",
          "type": "address[]"
        }
      ],
      "stateMutability": "view",
      "type": "function"
    },
    {
      "inputs": [],
      "name": "retrieveBeaconsImpl",
      "outputs": [
        {
          "internalType": "address[]",
          "name": "",
          "type": "address[]"
        }
      ],
      "stateMutability": "view",
      "type": "function"
    },
    {
      "inputs": [],
      "name": "isInitialized",
      "outputs": [
        {
          "internalType": "bool",
          "name": "",
          "type": "bool"
        }
      ],
      "stateMutability": "view",
      "type": "function"
    }
  ],
  "bytecode": "0x608060405234801561001057600080fd5b5061893e80620000216000396000f3fe60806040523480156200001157600080fd5b50600436106200013c5760003560e01c80638c324a4311620000bd578063db85bc4d116200007b578063db85bc4d1462000315578063e15aa3a61462000337578063e220ad951462000357578063efd621de1462000379578063fe9dc8dc146200039b576200013c565b80638c324a43146200026f57806391f9167114620002915780639f77710414620002b1578063a81a635614620002d3578063a93316f514620002f3576200013c565b80634044adb2116200010b5780634044adb214620001c557806355457ee914620001fb5780635a85cfda14620002075780635b362e841462000227578063840f6d171462000249576200013c565b806304cc67a914620001415780630f13bbc91462000163578063392e53cd14620001835780633c7df55d14620001a5575b600080fd5b6200014b620003bd565b6040516200015a919062004b86565b60405180910390f35b6200018160048036038101906200017b919062003fe4565b620003c7565b005b6200018d620004c6565b6040516200019c9190620049aa565b60405180910390f35b620001c36004803603810190620001bd919062004094565b620004dd565b005b620001e36004803603810190620001dd919062004347565b62000639565b604051620001f2919062004b86565b60405180910390f35b6200020562000694565b005b6200022560048036038101906200021f9190620042af565b620007c6565b005b62000231620008db565b604051620002409190620047f6565b60405180910390f35b6200025362000904565b6040516200026695949392919062004905565b60405180910390f35b620002796200095a565b604051620002889190620047f6565b60405180910390f35b620002af6004803603810190620002a991906200427d565b62000984565b005b620002bb62000993565b604051620002ca919062004962565b60405180910390f35b620002f16004803603810190620002eb9190620040f0565b62000ab2565b005b620002fd62000c1c565b6040516200030c919062004986565b60405180910390f35b6200031f62000cff565b6040516200032e9190620047f6565b60405180910390f35b6200035560048036038101906200034f91906200422c565b62000d29565b005b6200036162000dc0565b60405162000370919062004962565b60405180910390f35b6200038362000ed5565b60405162000392919062004962565b60405180910390f35b620003a562000fea565b604051620003b4919062004962565b60405180910390f35b6000600854905090565b600060019054906101000a900460ff16620003f15760008054906101000a900460ff1615620003fc565b620003fb62001109565b5b6200043e576040517f08c379a0000000000000000000000000000000000000000000000000000000008152600401620004359062004afe565b60405180910390fd5b60008060019054906101000a900460ff1615905080156200048f576001600060016101000a81548160ff02191690831515021790555060016000806101000a81548160ff0219169083151502179055505b6200049d858585856200111c565b8015620004bf5760008060016101000a81548160ff0219169083151502179055505b5050505050565b6000600e60009054906101000a900460ff16905090565b3373__Library_______________________________6337ea306382600060029054906101000a900473ffffffffffffffffffffffffffffffffffffffff1673ffffffffffffffffffffffffffffffffffffffff1663e220ad956040518163ffffffff1660e01b815260040160006040518083038186803b1580156200056257600080fd5b505afa15801562000577573d6000803e3d6000fd5b505050506040513d6000823e3d601f19601f82011682018060405250810190620005a291906200418a565b60036005811115620005b957620005b8620051e2565b5b81518110620005cd57620005cc62005240565b5b60200260200101516040518363ffffffff1660e01b8152600401620005f492919062004813565b60006040518083038186803b1580156200060d57600080fd5b505af415801562000622573d6000803e3d6000fd5b505050506200063384848462001261565b50505050565b60006009600084815260200190815260200160002060008373ffffffffffffffffffffffffffffffffffffffff1673ffffffffffffffffffffffffffffffffffffffff16815260200190815260200160002054905092915050565b6001620006a1816200128b565b3373__Library_______________________________6337ea306382600260010160009054906101000a900473ffffffffffffffffffffffffffffffffffffffff166040518363ffffffff1660e01b81526004016200070292919062004813565b60006040518083038186803b1580156200071b57600080fd5b505af415801562000730573d6000803e3d6000fd5b505050506200073e62001342565b620007486200134e565b600260010160009054906101000a900473ffffffffffffffffffffffffffffffffffffffff1673ffffffffffffffffffffffffffffffffffffffff167f1fe8aec10c0a50fa765076161e08c1f961ced69594ff45cf7d559f593afe1479600260000154604051620007ba919062004b86565b60405180910390a25050565b3373__Library_______________________________6337ea306382600160009054906101000a900473ffffffffffffffffffffffffffffffffffffffff166040518363ffffffff1660e01b81526004016200082492919062004813565b60006040518083038186803b1580156200083d57600080fd5b505af415801562000852573d6000803e3d6000fd5b50505050600e60009054906101000a900460ff1615156000151514620008af576040517f08c379a0000000000000000000000000000000000000000000000000000000008152600401620008a69062004b20565b60405180910390fd5b620008bb8383620013a4565b6001600e60006101000a81548160ff021916908315150217905550505050565b60008060029054906101000a900473ffffffffffffffffffffffffffffffffffffffff16905090565b6000806000806000600260010160009054906101000a900473ffffffffffffffffffffffffffffffffffffffff166002800154600260030154600260040154600260050154945094509450945094509091929394565b6000600b60009054906101000a900473ffffffffffffffffffffffffffffffffffffffff16905090565b62000990338262001582565b50565b60606000600d8054905067ffffffffffffffff811115620009b957620009b86200526f565b5b604051908082528060200260200182016040528015620009e85781602001602082028036833780820191505090505b50905060005b815181101562000aaa5762000a44600d828154811062000a135762000a1262005240565b5b9060005260206000200160009054906101000a900473ffffffffffffffffffffffffffffffffffffffff16620016c9565b82828151811062000a5a5762000a5962005240565b5b602002602001019073ffffffffffffffffffffffffffffffffffffffff16908173ffffffffffffffffffffffffffffffffffffffff1681525050808062000aa19062005165565b915050620009ee565b508091505090565b600060019054906101000a900460ff1662000adc5760008054906101000a900460ff161562000ae7565b62000ae662001109565b5b62000b29576040517f08c379a000000000000000000000000000000000000000000000000000000000815260040162000b209062004afe565b60405180910390fd5b60008060019054906101000a900460ff16159050801562000b7a576001600060016101000a81548160ff02191690831515021790555060016000806101000a81548160ff0219169083151502179055505b62000b8884308585620003c7565b60405162000b969062003a2b565b604051809103906000f08015801562000bb3573d6000803e3d6000fd5b50600b60006101000a81548173ffffffffffffffffffffffffffffffffffffffff021916908373ffffffffffffffffffffffffffffffffffffffff160217905550801562000c165760008060016101000a81548160ff0219169083151502179055505b50505050565b6060600a805480602002602001604051908101604052809291908181526020016000905b8282101562000cf657838290600052602060002001805462000c6290620050f9565b80601f016020809104026020016040519081016040528092919081815260200182805462000c9090620050f9565b801562000ce15780601f1062000cb55761010080835404028352916020019162000ce1565b820191906000526020600020905b81548152906001019060200180831162000cc357829003601f168201915b50505050508152602001906001019062000c40565b50505050905090565b6000600160009054906101000a900473ffffffffffffffffffffffffffffffffffffffff16905090565b62000d348162001754565b62000d3e62001757565b60005b815181101562000dbc57600a82828151811062000d635762000d6262005240565b5b602002602001015190806001815401808255809150506001900390600052602060002001600090919091909150908051906020019062000da592919062003a39565b50808062000db39062005165565b91505062000d41565b5050565b60606000600c8054905067ffffffffffffffff81111562000de65762000de56200526f565b5b60405190808252806020026020018201604052801562000e155781602001602082028036833780820191505090505b50905060005b815181101562000ecd57600c818154811062000e3c5762000e3b62005240565b5b9060005260206000200160009054906101000a900473ffffffffffffffffffffffffffffffffffffffff1682828151811062000e7d5762000e7c62005240565b5b602002602001019073ffffffffffffffffffffffffffffffffffffffff16908173ffffffffffffffffffffffffffffffffffffffff1681525050808062000ec49062005165565b91505062000e1b565b508091505090565b60606000600d8054905067ffffffffffffffff81111562000efb5762000efa6200526f565b5b60405190808252806020026020018201604052801562000f2a5781602001602082028036833780820191505090505b50905060005b815181101562000fe257600d818154811062000f515762000f5062005240565b5b9060005260206000200160009054906101000a900473ffffffffffffffffffffffffffffffffffffffff1682828151811062000f925762000f9162005240565b5b602002602001019073ffffffffffffffffffffffffffffffffffffffff16908173ffffffffffffffffffffffffffffffffffffffff1681525050808062000fd99062005165565b91505062000f30565b508091505090565b60606000600c8054905067ffffffffffffffff81111562001010576200100f6200526f565b5b6040519080825280602002602001820160405280156200103f5781602001602082028036833780820191505090505b50905060005b815181101562001101576200109b600c82815481106200106a576200106962005240565b5b9060005260206000200160009054906101000a900473ffffffffffffffffffffffffffffffffffffffff1662001c11565b828281518110620010b157620010b062005240565b5b602002602001019073ffffffffffffffffffffffffffffffffffffffff16908173ffffffffffffffffffffffffffffffffffffffff16815250508080620010f89062005165565b91505062001045565b508091505090565b6000620011163062001ccb565b15905090565b600060019054906101000a900460ff16620011465760008054906101000a900460ff161562001151565b6200115062001109565b5b62001193576040517f08c379a00000000000000000000000000000000000000000000000000000000081526004016200118a9062004afe565b60405180910390fd5b60008060019054906101000a900460ff161590508015620011e4576001600060016101000a81548160ff02191690831515021790555060016000806101000a81548160ff0219169083151502179055505b620011ef8462001cde565b84600160006101000a81548173ffffffffffffffffffffffffffffffffffffffff021916908373ffffffffffffffffffffffffffffffffffffffff160217905550600060088190555080156200125a5760008060016101000a81548160ff0219169083151502179055505b5050505050565b6200126b62001e0d565b151560011515141562001286576200128583838362001e9d565b5b505050565b8015620012eb576200129c62001e0d565b15156001151514620012e5576040517f08c379a0000000000000000000000000000000000000000000000000000000008152600401620012dc9062004b42565b60405180910390fd5b6200133f565b620012f562001e0d565b151560001515146200133e576040517f08c379a0000000000000000000000000000000000000000000000000000000008152600401620013359062004aba565b60405180910390fd5b5b50565b6200134c6200214e565b565b60026000808201600090556001820160006101000a81549073ffffffffffffffffffffffffffffffffffffffff021916905560028201600090556003820160009055600482016000905560058201600090555050565b600c819080600181540180825580915050600190039060005260206000200160009091909190916101000a81548173ffffffffffffffffffffffffffffffffffffffff021916908373ffffffffffffffffffffffffffffffffffffffff16021790555060005b8280600001906200141c919062004c1d565b90508110156200150057620014ea8380600001906200143c919062004c1d565b8381811062001450576200144f62005240565b5b905060200201602081019062001467919062003f80565b84806040019062001479919062004c89565b848181106200148d576200148c62005240565b5b9050602002810190620014a1919062004cf5565b8080601f016020809104026020016040519081016040528093929190818152602001838380828437600081840152601f19601f8201169050808301925050505050505062002160565b8080620014f79062005165565b9150506200140a565b5060005b82806020019062001516919062004c1d565b90508110156200157d576200156783806020019062001536919062004c1d565b838181106200154a576200154962005240565b5b905060200201602081019062001561919062003f80565b620022d2565b8080620015749062005165565b91505062001504565b505050565b60016200158f816200128b565b826002600001546000620015a483836200241d565b905060008111620015ec576040517f08c379a0000000000000000000000000000000000000000000000000000000008152600401620015e39062004adc565b60405180910390fd5b6000620015ff876002600001546200241d565b905085156200162c5780600260040160008282546200161f919062004f64565b925050819055506200164b565b806002600501600082825462001643919062004f64565b925050819055505b6200165d60026000015488836200248f565b8673ffffffffffffffffffffffffffffffffffffffff167f50f654d58981575c05e369cb129aeacb01e1b036af429380242cfc5d1a4b743f6002600001548884604051620016ae9392919062004ba3565b60405180910390a2620016c0620024fd565b50505050505050565b60008173ffffffffffffffffffffffffffffffffffffffff16635c60da1b6040518163ffffffff1660e01b815260040160206040518083038186803b1580156200171257600080fd5b505afa15801562001727573d6000803e3d6000fd5b505050506040513d601f19601f820116820180604052508101906200174d919062003fb2565b9050919050565b50565b600062001764816200128b565b336000600160009054906101000a900473ffffffffffffffffffffffffffffffffffffffff1673ffffffffffffffffffffffffffffffffffffffff168273ffffffffffffffffffffffffffffffffffffffff161415620017c857600190506200194a565b6000620017d58362002663565b905060008060029054906101000a900473ffffffffffffffffffffffffffffffffffffffff1673ffffffffffffffffffffffffffffffffffffffff1663e220ad956040518163ffffffff1660e01b815260040160006040518083038186803b1580156200184157600080fd5b505afa15801562001856573d6000803e3d6000fd5b505050506040513d6000823e3d601f19601f820116820180604052508101906200188191906200418a565b60046005811115620018985762001897620051e2565b5b81518110620018ac57620018ab62005240565b5b602002602001015173ffffffffffffffffffffffffffffffffffffffff1663b049473f6040518163ffffffff1660e01b815260040160606040518083038186803b158015620018fa57600080fd5b505afa1580156200190f573d6000803e3d6000fd5b505050506040513d601f19601f820116820180604052508101906200193591906200438e565b92505050808211156200194757600192505b50505b801515600115151462001994576040517f08c379a00000000000000000000000000000000000000000000000000000000081526004016200198b9062004b64565b60405180910390fd5b600080600060029054906101000a900473ffffffffffffffffffffffffffffffffffffffff1673ffffffffffffffffffffffffffffffffffffffff1663e220ad956040518163ffffffff1660e01b815260040160006040518083038186803b15801562001a0057600080fd5b505afa15801562001a15573d6000803e3d6000fd5b505050506040513d6000823e3d601f19601f8201168201806040525081019062001a4091906200418a565b6004600581111562001a575762001a56620051e2565b5b8151811062001a6b5762001a6a62005240565b5b602002602001015173ffffffffffffffffffffffffffffffffffffffff1663b049473f6040518163ffffffff1660e01b815260040160606040518083038186803b15801562001ab957600080fd5b505afa15801562001ace573d6000803e3d6000fd5b505050506040513d601f19601f8201168201806040525081019062001af491906200438e565b509150915033600260010160006101000a81548173ffffffffffffffffffffffffffffffffffffffff021916908373ffffffffffffffffffffffffffffffffffffffff160217905550814262001b4b919062004f64565b6002800181905550806002600301819055506008546002600001819055506008600081548092919062001b7e9062005165565b9190505550600260010160009054906101000a900473ffffffffffffffffffffffffffffffffffffffff1673ffffffffffffffffffffffffffffffffffffffff167f472501d19bf75639b2e316cd36f8568b0c3ab943b82a87de3c086c98c1929df9600260000154600280015460026003015460405162001c029392919062004be0565b60405180910390a25050505050565b6000600b60009054906101000a900473ffffffffffffffffffffffffffffffffffffffff1673ffffffffffffffffffffffffffffffffffffffff1663204e1c7a836040518263ffffffff1660e01b815260040162001c70919062004a2c565b60206040518083038186803b15801562001c8957600080fd5b505afa15801562001c9e573d6000803e3d6000fd5b505050506040513d601f19601f8201168201806040525081019062001cc4919062003fb2565b9050919050565b600080823b905060008111915050919050565b600060019054906101000a900460ff1662001d085760008054906101000a900460ff161562001d13565b62001d1262001109565b5b62001d55576040517f08c379a000000000000000000000000000000000000000000000000000000000815260040162001d4c9062004afe565b60405180910390fd5b60008060019054906101000a900460ff16159050801562001da6576001600060016101000a81548160ff02191690831515021790555060016000806101000a81548160ff0219169083151502179055505b81600060026101000a81548173ffffffffffffffffffffffffffffffffffffffff021916908373ffffffffffffffffffffffffffffffffffffffff160217905550801562001e095760008060016101000a81548160ff0219169083151502179055505b5050565b6000600280015442101562001e26576001905062001e9a565b600260010160009054906101000a900473ffffffffffffffffffffffffffffffffffffffff1673ffffffffffffffffffffffffffffffffffffffff16600073ffffffffffffffffffffffffffffffffffffffff161462001e955762001e8a620027d5565b62001e946200134e565b5b600090505b90565b8273ffffffffffffffffffffffffffffffffffffffff16600073ffffffffffffffffffffffffffffffffffffffff161415801562001f305750600060096000600260000154815260200190815260200160002060008573ffffffffffffffffffffffffffffffffffffffff1673ffffffffffffffffffffffffffffffffffffffff16815260200190815260200160002054115b156200214957600081905060096000600260000154815260200190815260200160002060008573ffffffffffffffffffffffffffffffffffffffff1673ffffffffffffffffffffffffffffffffffffffff1681526020019081526020016000205482111562001ff25760096000600260000154815260200190815260200160002060008573ffffffffffffffffffffffffffffffffffffffff1673ffffffffffffffffffffffffffffffffffffffff1681526020019081526020016000205490505b8060096000600260000154815260200190815260200160002060008673ffffffffffffffffffffffffffffffffffffffff1673ffffffffffffffffffffffffffffffffffffffff168152602001908152602001600020600082825462002059919062004fc1565b925050819055508273ffffffffffffffffffffffffffffffffffffffff16600073ffffffffffffffffffffffffffffffffffffffff161462002104578060096000600260000154815260200190815260200160002060008573ffffffffffffffffffffffffffffffffffffffff1673ffffffffffffffffffffffffffffffffffffffff1681526020019081526020016000206000828254620020fc919062004f64565b925050819055505b6002600001547f65fbd5e5dd32bea4aeca85bd0be0abf0e489d655dee888a7510d43b06dda2dba8585846040516200213f9392919062004884565b60405180910390a2505b505050565b600a60006200215e919062003aca565b565b8173ffffffffffffffffffffffffffffffffffffffff16600073ffffffffffffffffffffffffffffffffffffffff1614620022ce57600c82600b60009054906101000a900473ffffffffffffffffffffffffffffffffffffffff1683604051620021ca9062003aed565b620021d89392919062004840565b604051809103906000f080158015620021f5573d6000803e3d6000fd5b509080600181540180825580915050600190039060005260206000200160009091909190916101000a81548173ffffffffffffffffffffffffffffffffffffffff021916908373ffffffffffffffffffffffffffffffffffffffff1602179055507f20baf84965293c5077f4dd07839fa02177fcc842a69a52206581f24fb4e092ff82600c805490506040518060400160405280600b81526020017f5472616e73706172656e74000000000000000000000000000000000000000000815250604051620022c593929190620048c1565b60405180910390a15b5050565b8073ffffffffffffffffffffffffffffffffffffffff16600073ffffffffffffffffffffffffffffffffffffffff16146200241a57600d81604051620023189062003afb565b620023249190620047f6565b604051809103906000f08015801562002341573d6000803e3d6000fd5b509080600181540180825580915050600190039060005260206000200160009091909190916101000a81548173ffffffffffffffffffffffffffffffffffffffff021916908373ffffffffffffffffffffffffffffffffffffffff1602179055507f20baf84965293c5077f4dd07839fa02177fcc842a69a52206581f24fb4e092ff81600d805490506040518060400160405280600681526020017f426561636f6e00000000000000000000000000000000000000000000000000008152506040516200241193929190620048c1565b60405180910390a15b50565b60006009600083815260200190815260200160002060008473ffffffffffffffffffffffffffffffffffffffff1673ffffffffffffffffffffffffffffffffffffffff168152602001908152602001600020546200247b8462002663565b62002487919062004fc1565b905092915050565b806009600085815260200190815260200160002060008473ffffffffffffffffffffffffffffffffffffffff1673ffffffffffffffffffffffffffffffffffffffff1681526020019081526020016000206000828254620024f1919062004f64565b92505081905550505050565b60026003015460026004015410620025b15762002519620027e1565b620025236200134e565b600260010160009054906101000a900473ffffffffffffffffffffffffffffffffffffffff1673ffffffffffffffffffffffffffffffffffffffff167f23ca0034cf5aad32571b4a492e9598ea8a490e1643a60970e3cdc6933b55e49f600260000154600260040154600260050154604051620025a39392919062004be0565b60405180910390a262002661565b600260030154600260050154106200266057620025cd620027f7565b620025d76200134e565b600260010160009054906101000a900473ffffffffffffffffffffffffffffffffffffffff1673ffffffffffffffffffffffffffffffffffffffff167fa58eb6daa3c62c3f883973c4035e5bd3e81aa627c8379de068a7de42df122be2600260000154600260040154600260050154604051620026579392919062004be0565b60405180910390a25b5b565b60008060029054906101000a900473ffffffffffffffffffffffffffffffffffffffff1673ffffffffffffffffffffffffffffffffffffffff1663e220ad956040518163ffffffff1660e01b815260040160006040518083038186803b158015620026cd57600080fd5b505afa158015620026e2573d6000803e3d6000fd5b505050506040513d6000823e3d601f19601f820116820180604052508101906200270d91906200418a565b60036005811115620027245762002723620051e2565b5b8151811062002738576200273762005240565b5b602002602001015173ffffffffffffffffffffffffffffffffffffffff166370a08231836040518263ffffffff1660e01b81526004016200277a9190620047f6565b60206040518083038186803b1580156200279357600080fd5b505afa158015620027a8573d6000803e3d6000fd5b505050506040513d601f19601f82011682018060405250810190620027ce919062004315565b9050919050565b620027df6200214e565b565b620027eb62002803565b620027f56200214e565b565b620028016200214e565b565b600060029050600073__UintLibrary___________________________630bd4715e73__Library_______________________________63caa8f589600a60008154811062002857576200285662005240565b5b906000526020600020016040518263ffffffff1660e01b81526004016200287f919062004a08565b60006040518083038186803b1580156200289857600080fd5b505af4158015620028ad573d6000803e3d6000fd5b505050506040513d6000823e3d601f19601f82011682018060405250810190620028d89190620041db565b600081518110620028ee57620028ed62005240565b5b60200260200101516040518263ffffffff1660e01b8152600401620029149190620049c7565b60206040518083038186803b1580156200292d57600080fd5b505af415801562002942573d6000803e3d6000fd5b505050506040513d601f19601f8201168201806040525081019062002968919062004315565b9050600073__UintLibrary___________________________630bd4715e73__Library_______________________________63caa8f589600a600181548110620029b857620029b762005240565b5b906000526020600020016040518263ffffffff1660e01b8152600401620029e0919062004a08565b60006040518083038186803b158015620029f957600080fd5b505af415801562002a0e573d6000803e3d6000fd5b505050506040513d6000823e3d601f19601f8201168201806040525081019062002a399190620041db565b60008151811062002a4f5762002a4e62005240565b5b60200260200101516040518263ffffffff1660e01b815260040162002a759190620049c7565b60206040518083038186803b15801562002a8e57600080fd5b505af415801562002aa3573d6000803e3d6000fd5b505050506040513d601f19601f8201168201806040525081019062002ac9919062004315565b9050600081600d8054905084600c8054905062002ae7919062004f64565b62002af3919062004f64565b62002aff919062004f64565b90506000600190505b600c8054905081101562002d045762002cee600c828154811062002b315762002b3062005240565b5b9060005260206000200160009054906101000a900473ffffffffffffffffffffffffffffffffffffffff1682600a848962002b6d919062004f64565b8154811062002b815762002b8062005240565b5b90600052602060002001805462002b9890620050f9565b80601f016020809104026020016040519081016040528092919081815260200182805462002bc690620050f9565b801562002c175780601f1062002beb5761010080835404028352916020019162002c17565b820191906000526020600020905b81548152906001019060200180831162002bf957829003601f168201915b5050505050600a85878b62002c2d919062004f64565b62002c39919062004f64565b8154811062002c4d5762002c4c62005240565b5b90600052602060002001805462002c6490620050f9565b80601f016020809104026020016040519081016040528092919081815260200182805462002c9290620050f9565b801562002ce35780601f1062002cb75761010080835404028352916020019162002ce3565b820191906000526020600020905b81548152906001019060200180831162002cc557829003601f168201915b5050505050620034a5565b808062002cfb9062005165565b91505062002b08565b50600c805490508462002d18919062004f64565b9350600083111562002f975760005b8381101562002f855762002f6f73__AddressLibrary________________________63f4ce9ae873__Library_______________________________63caa8f589600a868b62002d78919062004f64565b8154811062002d8c5762002d8b62005240565b5b906000526020600020016040518263ffffffff1660e01b815260040162002db4919062004a08565b60006040518083038186803b15801562002dcd57600080fd5b505af415801562002de2573d6000803e3d6000fd5b505050506040513d6000823e3d601f19601f8201168201806040525081019062002e0d9190620041db565b60008151811062002e235762002e2262005240565b5b60200260200101516040518263ffffffff1660e01b815260040162002e499190620049c7565b60206040518083038186803b15801562002e6257600080fd5b505af415801562002e77573d6000803e3d6000fd5b505050506040513d601f19601f8201168201806040525081019062002e9d919062003fb2565b600a83858962002eae919062004f64565b62002eba919062004f64565b8154811062002ece5762002ecd62005240565b5b90600052602060002001805462002ee590620050f9565b80601f016020809104026020016040519081016040528092919081815260200182805462002f1390620050f9565b801562002f645780601f1062002f385761010080835404028352916020019162002f64565b820191906000526020600020905b81548152906001019060200180831162002f4657829003601f168201915b505050505062002160565b808062002f7c9062005165565b91505062002d27565b50828462002f94919062004f64565b93505b60005b600d80549050811015620030ca57620030b4600d828154811062002fc35762002fc262005240565b5b9060005260206000200160009054906101000a900473ffffffffffffffffffffffffffffffffffffffff1682600a848962002fff919062004f64565b8154811062003013576200301262005240565b5b9060005260206000200180546200302a90620050f9565b80601f01602080910402602001604051908101604052809291908181526020018280546200305890620050f9565b8015620030a95780601f106200307d57610100808354040283529160200191620030a9565b820191906000526020600020905b8154815290600101906020018083116200308b57829003601f168201915b5050505050620037ce565b8080620030c19062005165565b91505062002f9a565b50600d8054905084620030de919062004f64565b93506000821115620032915760005b828110156200327f576200326973__AddressLibrary________________________63f4ce9ae873__Library_______________________________63caa8f589600a868b6200313e919062004f64565b8154811062003152576200315162005240565b5b906000526020600020016040518263ffffffff1660e01b81526004016200317a919062004a08565b60006040518083038186803b1580156200319357600080fd5b505af4158015620031a8573d6000803e3d6000fd5b505050506040513d6000823e3d601f19601f82011682018060405250810190620031d39190620041db565b600081518110620031e957620031e862005240565b5b60200260200101516040518263ffffffff1660e01b81526004016200320f9190620049c7565b60206040518083038186803b1580156200322857600080fd5b505af41580156200323d573d6000803e3d6000fd5b505050506040513d601f19601f8201168201806040525081019062003263919062003fb2565b620022d2565b8080620032769062005165565b915050620030ed565b5081846200328e919062004f64565b93505b82600c8054905085620032a5919062004f64565b620032b1919062004f64565b93506200349f600c60006005811115620032d057620032cf620051e2565b5b81548110620032e457620032e362005240565b5b9060005260206000200160009054906101000a900473ffffffffffffffffffffffffffffffffffffffff1660006005811115620033265762003325620051e2565b5b600a6002815481106200333e576200333d62005240565b5b9060005260206000200180546200335590620050f9565b80601f01602080910402602001604051908101604052809291908181526020018280546200338390620050f9565b8015620033d45780601f10620033a857610100808354040283529160200191620033d4565b820191906000526020600020905b815481529060010190602001808311620033b657829003601f168201915b5050505050600a856002620033ea919062004f64565b81548110620033fe57620033fd62005240565b5b9060005260206000200180546200341590620050f9565b80601f01602080910402602001604051908101604052809291908181526020018280546200344390620050f9565b8015620034945780601f10620034685761010080835404028352916020019162003494565b820191906000526020600020905b8154815290600101906020018083116200347657829003601f168201915b5050505050620034a5565b50505050565b600073__AddressLibrary________________________63f4ce9ae873__Library_______________________________63caa8f589866040518263ffffffff1660e01b8152600401620034fa9190620049e4565b60006040518083038186803b1580156200351357600080fd5b505af415801562003528573d6000803e3d6000fd5b505050506040513d6000823e3d601f19601f82011682018060405250810190620035539190620041db565b60008151811062003569576200356862005240565b5b60200260200101516040518263ffffffff1660e01b81526004016200358f9190620049c7565b60206040518083038186803b158015620035a857600080fd5b505af4158015620035bd573d6000803e3d6000fd5b505050506040513d601f19601f82011682018060405250810190620035e3919062003fb2565b90508073ffffffffffffffffffffffffffffffffffffffff16600073ffffffffffffffffffffffffffffffffffffffff1614620037c757815160001015620036c057600b60009054906101000a900473ffffffffffffffffffffffffffffffffffffffff1673ffffffffffffffffffffffffffffffffffffffff16639623609d8683856040518463ffffffff1660e01b8152600401620036869392919062004a76565b600060405180830381600087803b158015620036a157600080fd5b505af1158015620036b6573d6000803e3d6000fd5b5050505062003754565b600b60009054906101000a900473ffffffffffffffffffffffffffffffffffffffff1673ffffffffffffffffffffffffffffffffffffffff166399a88ec486836040518363ffffffff1660e01b81526004016200371f92919062004a49565b600060405180830381600087803b1580156200373a57600080fd5b505af11580156200374f573d6000803e3d6000fd5b505050505b7f28fbcc6e7781af00516c046711977989e1ca1bf627baa89f112b193653efb1a881856040518060400160405280600b81526020017f5472616e73706172656e74000000000000000000000000000000000000000000815250604051620037be93929190620048c1565b60405180910390a15b5050505050565b600073__AddressLibrary________________________63f4ce9ae873__Library_______________________________63caa8f589856040518263ffffffff1660e01b8152600401620038239190620049e4565b60006040518083038186803b1580156200383c57600080fd5b505af415801562003851573d6000803e3d6000fd5b505050506040513d6000823e3d601f19601f820116820180604052508101906200387c9190620041db565b60008151811062003892576200389162005240565b5b60200260200101516040518263ffffffff1660e01b8152600401620038b89190620049c7565b60206040518083038186803b158015620038d157600080fd5b505af4158015620038e6573d6000803e3d6000fd5b505050506040513d601f19601f820116820180604052508101906200390c919062003fb2565b90508073ffffffffffffffffffffffffffffffffffffffff16600073ffffffffffffffffffffffffffffffffffffffff161462003a25578373ffffffffffffffffffffffffffffffffffffffff16633659cfe6826040518263ffffffff1660e01b81526004016200397e9190620047f6565b600060405180830381600087803b1580156200399957600080fd5b505af1158015620039ae573d6000803e3d6000fd5b505050507f28fbcc6e7781af00516c046711977989e1ca1bf627baa89f112b193653efb1a881846040518060400160405280600681526020017f426561636f6e000000000000000000000000000000000000000000000000000081525060405162003a1c93929190620048c1565b60405180910390a15b50505050565b610fa0806200547b83390190565b82805462003a4790620050f9565b90600052602060002090601f01602090048101928262003a6b576000855562003ab7565b82601f1062003a8657805160ff191683800117855562003ab7565b8280016001018555821562003ab7579182015b8281111562003ab657825182559160200191906001019062003a99565b5b50905062003ac6919062003b09565b5090565b508054600082559060005260206000209081019062003aea919062003b28565b50565b611a5d806200641b83390190565b610a918062007e7883390190565b5b8082111562003b2457600081600090555060010162003b0a565b5090565b5b8082111562003b4c576000818162003b42919062003b50565b5060010162003b29565b5090565b50805462003b5e90620050f9565b6000825580601f1062003b72575062003b93565b601f01602090049060005260206000209081019062003b92919062003b09565b5b50565b600062003bad62003ba78462004d8a565b62004d61565b9050808382526020820190508285602086028201111562003bd35762003bd2620052b2565b5b60005b8581101562003c07578162003bec888262003dd5565b84526020840193506020830192505060018101905062003bd6565b5050509392505050565b600062003c2862003c228462004db9565b62004d61565b9050808382526020820190508285602086028201111562003c4e5762003c4d620052b2565b5b60005b8581101562003c82578162003c67888262003e9c565b84526020840193506020830192505060018101905062003c51565b5050509392505050565b600062003ca362003c9d8462004de8565b62004d61565b9050808382526020820190508285602086028201111562003cc95762003cc8620052b2565b5b60005b8581101562003d1e57813567ffffffffffffffff81111562003cf35762003cf26200529e565b5b80860162003d02898262003eb3565b8552602085019450602084019350505060018101905062003ccc565b5050509392505050565b600062003d3f62003d398462004e17565b62004d61565b90508281526020810184848401111562003d5e5762003d5d620052bc565b5b62003d6b848285620050b4565b509392505050565b600062003d8a62003d848462004e4d565b62004d61565b90508281526020810184848401111562003da95762003da8620052bc565b5b62003db6848285620050b4565b509392505050565b60008135905062003dcf81620053f8565b92915050565b60008151905062003de681620053f8565b92915050565b600082601f83011262003e045762003e036200529e565b5b815162003e1684826020860162003b96565b91505092915050565b600082601f83011262003e375762003e366200529e565b5b815162003e4984826020860162003c11565b91505092915050565b600082601f83011262003e6a5762003e696200529e565b5b813562003e7c84826020860162003c8c565b91505092915050565b60008135905062003e968162005412565b92915050565b60008151905062003ead816200542c565b92915050565b600082601f83011262003ecb5762003eca6200529e565b5b813562003edd84826020860162003d28565b91505092915050565b60008135905062003ef78162005446565b92915050565b600082601f83011262003f155762003f146200529e565b5b813562003f2784826020860162003d73565b91505092915050565b600060a0828403121562003f495762003f48620052a8565b5b81905092915050565b60008135905062003f638162005460565b92915050565b60008151905062003f7a8162005460565b92915050565b60006020828403121562003f995762003f98620052c6565b5b600062003fa98482850162003dbe565b91505092915050565b60006020828403121562003fcb5762003fca620052c6565b5b600062003fdb8482850162003dd5565b91505092915050565b60008060008060808587031215620040015762004000620052c6565b5b6000620040118782880162003dbe565b9450506020620040248782880162003dbe565b935050604085013567ffffffffffffffff811115620040485762004047620052c1565b5b620040568782880162003efd565b925050606085013567ffffffffffffffff8111156200407a5762004079620052c1565b5b620040888782880162003efd565b91505092959194509250565b600080600060608486031215620040b057620040af620052c6565b5b6000620040c08682870162003dbe565b9350506020620040d38682870162003dbe565b9250506040620040e68682870162003f52565b9150509250925092565b6000806000606084860312156200410c576200410b620052c6565b5b60006200411c8682870162003dbe565b935050602084013567ffffffffffffffff81111562004140576200413f620052c1565b5b6200414e8682870162003efd565b925050604084013567ffffffffffffffff811115620041725762004171620052c1565b5b620041808682870162003efd565b9150509250925092565b600060208284031215620041a357620041a2620052c6565b5b600082015167ffffffffffffffff811115620041c457620041c3620052c1565b5b620041d28482850162003dec565b91505092915050565b600060208284031215620041f457620041f3620052c6565b5b600082015167ffffffffffffffff811115620042155762004214620052c1565b5b620042238482850162003e1f565b91505092915050565b600060208284031215620042455762004244620052c6565b5b600082013567ffffffffffffffff811115620042665762004265620052c1565b5b620042748482850162003e52565b91505092915050565b600060208284031215620042965762004295620052c6565b5b6000620042a68482850162003e85565b91505092915050565b60008060408385031215620042c957620042c8620052c6565b5b600083013567ffffffffffffffff811115620042ea57620042e9620052c1565b5b620042f88582860162003f30565b92505060206200430b8582860162003ee6565b9150509250929050565b6000602082840312156200432e576200432d620052c6565b5b60006200433e8482850162003f69565b91505092915050565b60008060408385031215620043615762004360620052c6565b5b6000620043718582860162003f52565b9250506020620043848582860162003dbe565b9150509250929050565b600080600060608486031215620043aa57620043a9620052c6565b5b6000620043ba8682870162003f69565b9350506020620043cd8682870162003f69565b9250506040620043e08682870162003f69565b9150509250925092565b6000620043f883836200441a565b60208301905092915050565b60006200441283836200455a565b905092915050565b620044258162004ffc565b82525050565b620044368162004ffc565b82525050565b620044478162004ffc565b82525050565b60006200445a8262004eb8565b62004466818562004efe565b9350620044738362004e83565b8060005b83811015620044aa5781516200448e8882620043ea565b97506200449b8362004ee4565b92505060018101905062004477565b5085935050505092915050565b6000620044c48262004ec3565b620044d0818562004f0f565b935083602082028501620044e48562004e93565b8060005b8581101562004526578484038952815162004504858262004404565b9450620045118362004ef1565b925060208a01995050600181019050620044e8565b50829750879550505050505092915050565b620045438162005024565b82525050565b620045548162005030565b82525050565b6000620045678262004ece565b62004573818562004f20565b935062004585818560208601620050c3565b6200459081620052cb565b840191505092915050565b6000620045a88262004ece565b620045b4818562004f31565b9350620045c6818560208601620050c3565b620045d181620052cb565b840191505092915050565b6000620045e98262004ece565b620045f5818562004f42565b935062004607818560208601620050c3565b6200461281620052cb565b840191505092915050565b600081546200462c81620050f9565b62004638818662004f42565b945060018216600081146200465657600181146200466957620046a0565b60ff1983168652602086019350620046a0565b620046748562004ea3565b60005b83811015620046985781548189015260018201915060208101905062004677565b808801955050505b50505092915050565b620046b48162005078565b82525050565b6000620046c78262004ed9565b620046d3818562004f53565b9350620046e5818560208601620050c3565b620046f081620052cb565b840191505092915050565b60006200470a60058362004f53565b91506200471782620052dc565b602082019050919050565b60006200473160058362004f53565b91506200473e8262005305565b602082019050919050565b600062004758602e8362004f53565b915062004765826200532e565b604082019050919050565b60006200477f60058362004f53565b91506200478c826200537d565b602082019050919050565b6000620047a660058362004f53565b9150620047b382620053a6565b602082019050919050565b6000620047cd60058362004f53565b9150620047da82620053cf565b602082019050919050565b620047f0816200506e565b82525050565b60006020820190506200480d60008301846200442b565b92915050565b60006040820190506200482a60008301856200443c565b6200483960208301846200443c565b9392505050565b60006060820190506200485760008301866200442b565b6200486660208301856200442b565b81810360408301526200487a81846200459b565b9050949350505050565b60006060820190506200489b60008301866200442b565b620048aa60208301856200442b565b620048b96040830184620047e5565b949350505050565b6000606082019050620048d860008301866200442b565b620048e76020830185620047e5565b8181036040830152620048fb8184620046ba565b9050949350505050565b600060a0820190506200491c60008301886200442b565b6200492b6020830187620047e5565b6200493a6040830186620047e5565b620049496060830185620047e5565b620049586080830184620047e5565b9695505050505050565b600060208201905081810360008301526200497e81846200444d565b905092915050565b60006020820190508181036000830152620049a28184620044b7565b905092915050565b6000602082019050620049c1600083018462004538565b92915050565b6000602082019050620049de600083018462004549565b92915050565b6000602082019050818103600083015262004a008184620045dc565b905092915050565b6000602082019050818103600083015262004a2481846200461d565b905092915050565b600060208201905062004a436000830184620046a9565b92915050565b600060408201905062004a606000830185620046a9565b62004a6f60208301846200442b565b9392505050565b600060608201905062004a8d6000830186620046a9565b62004a9c60208301856200442b565b818103604083015262004ab081846200459b565b9050949350505050565b6000602082019050818103600083015262004ad581620046fb565b9050919050565b6000602082019050818103600083015262004af78162004722565b9050919050565b6000602082019050818103600083015262004b198162004749565b9050919050565b6000602082019050818103600083015262004b3b8162004770565b9050919050565b6000602082019050818103600083015262004b5d8162004797565b9050919050565b6000602082019050818103600083015262004b7f81620047be565b9050919050565b600060208201905062004b9d6000830184620047e5565b92915050565b600060608201905062004bba6000830186620047e5565b62004bc9602083018562004538565b62004bd86040830184620047e5565b949350505050565b600060608201905062004bf76000830186620047e5565b62004c066020830185620047e5565b62004c156040830184620047e5565b949350505050565b6000808335600160200384360303811262004c3d5762004c3c620052ad565b5b80840192508235915067ffffffffffffffff82111562004c625762004c61620052a3565b5b60208301925060208202360383131562004c815762004c80620052b7565b5b509250929050565b6000808335600160200384360303811262004ca95762004ca8620052ad565b5b80840192508235915067ffffffffffffffff82111562004cce5762004ccd620052a3565b5b60208301925060208202360383131562004ced5762004cec620052b7565b5b509250929050565b6000808335600160200384360303811262004d155762004d14620052ad565b5b80840192508235915067ffffffffffffffff82111562004d3a5762004d39620052a3565b5b60208301925060018202360383131562004d595762004d58620052b7565b5b509250929050565b600062004d6d62004d80565b905062004d7b82826200512f565b919050565b6000604051905090565b600067ffffffffffffffff82111562004da85762004da76200526f565b5b602082029050602081019050919050565b600067ffffffffffffffff82111562004dd75762004dd66200526f565b5b602082029050602081019050919050565b600067ffffffffffffffff82111562004e065762004e056200526f565b5b602082029050602081019050919050565b600067ffffffffffffffff82111562004e355762004e346200526f565b5b62004e4082620052cb565b9050602081019050919050565b600067ffffffffffffffff82111562004e6b5762004e6a6200526f565b5b62004e7682620052cb565b9050602081019050919050565b6000819050602082019050919050565b6000819050602082019050919050565b60008190508160005260206000209050919050565b600081519050919050565b600081519050919050565b600081519050919050565b600081519050919050565b6000602082019050919050565b6000602082019050919050565b600082825260208201905092915050565b600082825260208201905092915050565b600082825260208201905092915050565b600082825260208201905092915050565b600082825260208201905092915050565b600082825260208201905092915050565b600062004f71826200506e565b915062004f7e836200506e565b9250827fffffffffffffffffffffffffffffffffffffffffffffffffffffffffffffffff0382111562004fb65762004fb5620051b3565b5b828201905092915050565b600062004fce826200506e565b915062004fdb836200506e565b92508282101562004ff15762004ff0620051b3565b5b828203905092915050565b600062005009826200504e565b9050919050565b60006200501d826200504e565b9050919050565b60008115159050919050565b6000819050919050565b6000620050478262005010565b9050919050565b600073ffffffffffffffffffffffffffffffffffffffff82169050919050565b6000819050919050565b600062005085826200508c565b9050919050565b60006200509982620050a0565b9050919050565b6000620050ad826200504e565b9050919050565b82818337600083830152505050565b60005b83811015620050e3578082015181840152602081019050620050c6565b83811115620050f3576000848401525b50505050565b600060028204905060018216806200511257607f821691505b6020821081141562005129576200512862005211565b5b50919050565b6200513a82620052cb565b810181811067ffffffffffffffff821117156200515c576200515b6200526f565b5b80604052505050565b600062005172826200506e565b91507fffffffffffffffffffffffffffffffffffffffffffffffffffffffffffffffff821415620051a857620051a7620051b3565b5b600182019050919050565b7f4e487b7100000000000000000000000000000000000000000000000000000000600052601160045260246000fd5b7f4e487b7100000000000000000000000000000000000000000000000000000000600052602160045260246000fd5b7f4e487b7100000000000000000000000000000000000000000000000000000000600052602260045260246000fd5b7f4e487b7100000000000000000000000000000000000000000000000000000000600052603260045260246000fd5b7f4e487b7100000000000000000000000000000000000000000000000000000000600052604160045260246000fd5b600080fd5b600080fd5b600080fd5b600080fd5b600080fd5b600080fd5b600080fd5b600080fd5b600080fd5b6000601f19601f8301169050919050565b7f454332342d000000000000000000000000000000000000000000000000000000600082015250565b7f454332332d000000000000000000000000000000000000000000000000000000600082015250565b7f496e697469616c697a61626c653a20636f6e747261637420697320616c72656160008201527f647920696e697469616c697a6564000000000000000000000000000000000000602082015250565b7f454332362d000000000000000000000000000000000000000000000000000000600082015250565b7f454332352d000000000000000000000000000000000000000000000000000000600082015250565b7f454332322d000000000000000000000000000000000000000000000000000000600082015250565b620054038162004ffc565b81146200540f57600080fd5b50565b6200541d8162005024565b81146200542957600080fd5b50565b620054378162005030565b81146200544357600080fd5b50565b62005451816200503a565b81146200545d57600080fd5b50565b6200546b816200506e565b81146200547757600080fd5b5056fe608060405234801561001057600080fd5b5061002d61002261003260201b60201c565b61003a60201b60201c565b6100fe565b600033905090565b60008060009054906101000a900473ffffffffffffffffffffffffffffffffffffffff169050816000806101000a81548173ffffffffffffffffffffffffffffffffffffffff021916908373ffffffffffffffffffffffffffffffffffffffff1602179055508173ffffffffffffffffffffffffffffffffffffffff168173ffffffffffffffffffffffffffffffffffffffff167f8be0079c531659141344cd1fd0a4f28419497f9722a3daafe3b4186f6b6457e060405160405180910390a35050565b610e938061010d6000396000f3fe60806040526004361061007b5760003560e01c80639623609d1161004e5780639623609d1461012857806399a88ec414610144578063f2fde38b1461016d578063f3b7dead146101965761007b565b8063204e1c7a14610080578063715018a6146100bd5780637eff275e146100d45780638da5cb5b146100fd575b600080fd5b34801561008c57600080fd5b506100a760048036038101906100a2919061093e565b6101d3565b6040516100b49190610b18565b60405180910390f35b3480156100c957600080fd5b506100d2610267565b005b3480156100e057600080fd5b506100fb60048036038101906100f6919061096b565b6102ef565b005b34801561010957600080fd5b506101126103da565b60405161011f9190610b18565b60405180910390f35b610142600480360381019061013d91906109ab565b610403565b005b34801561015057600080fd5b5061016b6004803603810190610166919061096b565b6104f2565b005b34801561017957600080fd5b50610194600480360381019061018f91906108e4565b6105dd565b005b3480156101a257600080fd5b506101bd60048036038101906101b8919061093e565b6106d5565b6040516101ca9190610b18565b60405180910390f35b60008060008373ffffffffffffffffffffffffffffffffffffffff166040516101fb90610aee565b600060405180830381855afa9150503d8060008114610236576040519150601f19603f3d011682016040523d82523d6000602084013e61023b565b606091505b50915091508161024a57600080fd5b8080602001905181019061025e9190610911565b92505050919050565b61026f610769565b73ffffffffffffffffffffffffffffffffffffffff1661028d6103da565b73ffffffffffffffffffffffffffffffffffffffff16146102e3576040517f08c379a00000000000000000000000000000000000000000000000000000000081526004016102da90610b83565b60405180910390fd5b6102ed6000610771565b565b6102f7610769565b73ffffffffffffffffffffffffffffffffffffffff166103156103da565b73ffffffffffffffffffffffffffffffffffffffff161461036b576040517f08c379a000000000000000000000000000000000000000000000000000000000815260040161036290610b83565b60405180910390fd5b8173ffffffffffffffffffffffffffffffffffffffff16638f283970826040518263ffffffff1660e01b81526004016103a49190610b18565b600060405180830381600087803b1580156103be57600080fd5b505af11580156103d2573d6000803e3d6000fd5b505050505050565b60008060009054906101000a900473ffffffffffffffffffffffffffffffffffffffff16905090565b61040b610769565b73ffffffffffffffffffffffffffffffffffffffff166104296103da565b73ffffffffffffffffffffffffffffffffffffffff161461047f576040517f08c379a000000000000000000000000000000000000000000000000000000000815260040161047690610b83565b60405180910390fd5b8273ffffffffffffffffffffffffffffffffffffffff16634f1ef2863484846040518463ffffffff1660e01b81526004016104bb929190610b33565b6000604051808303818588803b1580156104d457600080fd5b505af11580156104e8573d6000803e3d6000fd5b5050505050505050565b6104fa610769565b73ffffffffffffffffffffffffffffffffffffffff166105186103da565b73ffffffffffffffffffffffffffffffffffffffff161461056e576040517f08c379a000000000000000000000000000000000000000000000000000000000815260040161056590610b83565b60405180910390fd5b8173ffffffffffffffffffffffffffffffffffffffff16633659cfe6826040518263ffffffff1660e01b81526004016105a79190610b18565b600060405180830381600087803b1580156105c157600080fd5b505af11580156105d5573d6000803e3d6000fd5b505050505050565b6105e5610769565b73ffffffffffffffffffffffffffffffffffffffff166106036103da565b73ffffffffffffffffffffffffffffffffffffffff1614610659576040517f08c379a000000000000000000000000000000000000000000000000000000000815260040161065090610b83565b60405180910390fd5b600073ffffffffffffffffffffffffffffffffffffffff168173ffffffffffffffffffffffffffffffffffffffff1614156106c9576040517f08c379a00000000000000000000000000000000000000000000000000000000081526004016106c090610b63565b60405180910390fd5b6106d281610771565b50565b60008060008373ffffffffffffffffffffffffffffffffffffffff166040516106fd90610b03565b600060405180830381855afa9150503d8060008114610738576040519150601f19603f3d011682016040523d82523d6000602084013e61073d565b606091505b50915091508161074c57600080fd5b808060200190518101906107609190610911565b92505050919050565b600033905090565b60008060009054906101000a900473ffffffffffffffffffffffffffffffffffffffff169050816000806101000a81548173ffffffffffffffffffffffffffffffffffffffff021916908373ffffffffffffffffffffffffffffffffffffffff1602179055508173ffffffffffffffffffffffffffffffffffffffff168173ffffffffffffffffffffffffffffffffffffffff167f8be0079c531659141344cd1fd0a4f28419497f9722a3daafe3b4186f6b6457e060405160405180910390a35050565b600061084861084384610bc8565b610ba3565b90508281526020810184848401111561086457610863610d2e565b5b61086f848285610c87565b509392505050565b60008135905061088681610e18565b92915050565b60008151905061089b81610e2f565b92915050565b600082601f8301126108b6576108b5610d29565b5b81356108c6848260208601610835565b91505092915050565b6000813590506108de81610e46565b92915050565b6000602082840312156108fa576108f9610d38565b5b600061090884828501610877565b91505092915050565b60006020828403121561092757610926610d38565b5b60006109358482850161088c565b91505092915050565b60006020828403121561095457610953610d38565b5b6000610962848285016108cf565b91505092915050565b6000806040838503121561098257610981610d38565b5b6000610990858286016108cf565b92505060206109a185828601610877565b9150509250929050565b6000806000606084860312156109c4576109c3610d38565b5b60006109d2868287016108cf565b93505060206109e386828701610877565b925050604084013567ffffffffffffffff811115610a0457610a03610d33565b5b610a10868287016108a1565b9150509250925092565b610a2381610c31565b82525050565b6000610a3482610bf9565b610a3e8185610c04565b9350610a4e818560208601610c96565b610a5781610d3d565b840191505092915050565b6000610a6f602683610c20565b9150610a7a82610d4e565b604082019050919050565b6000610a92600483610c15565b9150610a9d82610d9d565b600482019050919050565b6000610ab5602083610c20565b9150610ac082610dc6565b602082019050919050565b6000610ad8600483610c15565b9150610ae382610def565b600482019050919050565b6000610af982610a85565b9150819050919050565b6000610b0e82610acb565b9150819050919050565b6000602082019050610b2d6000830184610a1a565b92915050565b6000604082019050610b486000830185610a1a565b8181036020830152610b5a8184610a29565b90509392505050565b60006020820190508181036000830152610b7c81610a62565b9050919050565b60006020820190508181036000830152610b9c81610aa8565b9050919050565b6000610bad610bbe565b9050610bb98282610cc9565b919050565b6000604051905090565b600067ffffffffffffffff821115610be357610be2610cfa565b5b610bec82610d3d565b9050602081019050919050565b600081519050919050565b600082825260208201905092915050565b600081905092915050565b600082825260208201905092915050565b6000610c3c82610c67565b9050919050565b6000610c4e82610c67565b9050919050565b6000610c6082610c43565b9050919050565b600073ffffffffffffffffffffffffffffffffffffffff82169050919050565b82818337600083830152505050565b60005b83811015610cb4578082015181840152602081019050610c99565b83811115610cc3576000848401525b50505050565b610cd282610d3d565b810181811067ffffffffffffffff82111715610cf157610cf0610cfa565b5b80604052505050565b7f4e487b7100000000000000000000000000000000000000000000000000000000600052604160045260246000fd5b600080fd5b600080fd5b600080fd5b600080fd5b6000601f19601f8301169050919050565b7f4f776e61626c653a206e6577206f776e657220697320746865207a65726f206160008201527f6464726573730000000000000000000000000000000000000000000000000000602082015250565b7f5c60da1b00000000000000000000000000000000000000000000000000000000600082015250565b7f4f776e61626c653a2063616c6c6572206973206e6f7420746865206f776e6572600082015250565b7ff851a44000000000000000000000000000000000000000000000000000000000600082015250565b610e2181610c31565b8114610e2c57600080fd5b50565b610e3881610c43565b8114610e4357600080fd5b50565b610e4f81610c55565b8114610e5a57600080fd5b5056fea2646970667358221220a580b727177b3fb00544cd6bdbdc6125f30846362c5b4ec2d45c435ea554853d64736f6c63430008070033608060405260405162001a5d38038062001a5d83398181016040528101906200002991906200068a565b828160017f360894a13ba1a3210667c828492db98dca3e2076cc3735a920a3ca505d382bbd60001c6200005d919062000964565b60001b7f360894a13ba1a3210667c828492db98dca3e2076cc3735a920a3ca505d382bbc60001b1462000095576200009462000a49565b5b620000a9828260006200012f60201b60201c565b505060017fb53127684a568b3173ae13b9f8a6016e243e63b6e8ee1178d6a717850b5d610460001c620000dd919062000964565b60001b7fb53127684a568b3173ae13b9f8a6016e243e63b6e8ee1178d6a717850b5d610360001b1462000115576200011462000a49565b5b62000126826200017260201b60201c565b50505062000c02565b6200014083620001d060201b60201c565b6000825111806200014e5750805b156200016d576200016b83836200022760201b6200034f1760201c565b505b505050565b7f7e644d79422f17c01e4894b5f4f588d331ebfa28653d42ae832dc59e38c9798f620001a36200025d60201b60201c565b82604051620001b49291906200081c565b60405180910390a1620001cd81620002c160201b60201c565b50565b620001e181620003b260201b60201c565b8073ffffffffffffffffffffffffffffffffffffffff167fbc7cd75a20ee27fd9adebab32041f755214dbc6bffa90cc0225b39da2e5c2d3b60405160405180910390a250565b606062000255838360405180606001604052806027815260200162001a36602791396200048860201b60201c565b905092915050565b6000620002987fb53127684a568b3173ae13b9f8a6016e243e63b6e8ee1178d6a717850b5d610360001b6200056c60201b6200037c1760201c565b60000160009054906101000a900473ffffffffffffffffffffffffffffffffffffffff16905090565b600073ffffffffffffffffffffffffffffffffffffffff168173ffffffffffffffffffffffffffffffffffffffff16141562000334576040517f08c379a00000000000000000000000000000000000000000000000000000000081526004016200032b906200086d565b60405180910390fd5b806200036e7fb53127684a568b3173ae13b9f8a6016e243e63b6e8ee1178d6a717850b5d610360001b6200056c60201b6200037c1760201c565b60000160006101000a81548173ffffffffffffffffffffffffffffffffffffffff021916908373ffffffffffffffffffffffffffffffffffffffff16021790555050565b620003c8816200057660201b620003861760201c565b6200040a576040517f08c379a000000000000000000000000000000000000000000000000000000000815260040162000401906200088f565b60405180910390fd5b80620004447f360894a13ba1a3210667c828492db98dca3e2076cc3735a920a3ca505d382bbc60001b6200056c60201b6200037c1760201c565b60000160006101000a81548173ffffffffffffffffffffffffffffffffffffffff021916908373ffffffffffffffffffffffffffffffffffffffff16021790555050565b60606200049b846200057660201b60201c565b620004dd576040517f08c379a0000000000000000000000000000000000000000000000000000000008152600401620004d490620008b1565b60405180910390fd5b6000808573ffffffffffffffffffffffffffffffffffffffff168560405162000507919062000803565b600060405180830381855af49150503d806000811462000544576040519150601f19603f3d011682016040523d82523d6000602084013e62000549565b606091505b5091509150620005618282866200058960201b60201c565b925050509392505050565b6000819050919050565b600080823b905060008111915050919050565b606083156200059b57829050620005ee565b600083511115620005af5782518084602001fd5b816040517f08c379a0000000000000000000000000000000000000000000000000000000008152600401620005e5919062000849565b60405180910390fd5b9392505050565b60006200060c6200060684620008fc565b620008d3565b9050828152602081018484840111156200062b576200062a62000adb565b5b62000638848285620009dd565b509392505050565b600081519050620006518162000be8565b92915050565b600082601f8301126200066f576200066e62000ad6565b5b815162000681848260208601620005f5565b91505092915050565b600080600060608486031215620006a657620006a562000ae5565b5b6000620006b68682870162000640565b9350506020620006c98682870162000640565b925050604084015167ffffffffffffffff811115620006ed57620006ec62000ae0565b5b620006fb8682870162000657565b9150509250925092565b62000710816200099f565b82525050565b6000620007238262000932565b6200072f818562000948565b935062000741818560208601620009dd565b80840191505092915050565b60006200075a826200093d565b62000766818562000953565b935062000778818560208601620009dd565b620007838162000aea565b840191505092915050565b60006200079d60268362000953565b9150620007aa8262000afb565b604082019050919050565b6000620007c4602d8362000953565b9150620007d18262000b4a565b604082019050919050565b6000620007eb60268362000953565b9150620007f88262000b99565b604082019050919050565b600062000811828462000716565b915081905092915050565b600060408201905062000833600083018562000705565b62000842602083018462000705565b9392505050565b600060208201905081810360008301526200086581846200074d565b905092915050565b6000602082019050818103600083015262000888816200078e565b9050919050565b60006020820190508181036000830152620008aa81620007b5565b9050919050565b60006020820190508181036000830152620008cc81620007dc565b9050919050565b6000620008df620008f2565b9050620008ed828262000a13565b919050565b6000604051905090565b600067ffffffffffffffff8211156200091a576200091962000aa7565b5b620009258262000aea565b9050602081019050919050565b600081519050919050565b600081519050919050565b600081905092915050565b600082825260208201905092915050565b60006200097182620009d3565b91506200097e83620009d3565b92508282101562000994576200099362000a78565b5b828203905092915050565b6000620009ac82620009b3565b9050919050565b600073ffffffffffffffffffffffffffffffffffffffff82169050919050565b6000819050919050565b60005b83811015620009fd578082015181840152602081019050620009e0565b8381111562000a0d576000848401525b50505050565b62000a1e8262000aea565b810181811067ffffffffffffffff8211171562000a405762000a3f62000aa7565b5b80604052505050565b7f4e487b7100000000000000000000000000000000000000000000000000000000600052600160045260246000fd5b7f4e487b7100000000000000000000000000000000000000000000000000000000600052601160045260246000fd5b7f4e487b7100000000000000000000000000000000000000000000000000000000600052604160045260246000fd5b600080fd5b600080fd5b600080fd5b600080fd5b6000601f19601f8301169050919050565b7f455243313936373a206e65772061646d696e20697320746865207a65726f206160008201527f6464726573730000000000000000000000000000000000000000000000000000602082015250565b7f455243313936373a206e657720696d706c656d656e746174696f6e206973206e60008201527f6f74206120636f6e747261637400000000000000000000000000000000000000602082015250565b7f416464726573733a2064656c65676174652063616c6c20746f206e6f6e2d636f60008201527f6e74726163740000000000000000000000000000000000000000000000000000602082015250565b62000bf3816200099f565b811462000bff57600080fd5b50565b610e248062000c126000396000f3fe60806040526004361061004e5760003560e01c80633659cfe6146100675780634f1ef286146100905780635c60da1b146100ac5780638f283970146100d7578063f851a440146101005761005d565b3661005d5761005b61012b565b005b61006561012b565b005b34801561007357600080fd5b5061008e600480360381019061008991906108fe565b610145565b005b6100aa60048036038101906100a5919061092b565b6101ac565b005b3480156100b857600080fd5b506100c161024a565b6040516100ce9190610aa7565b60405180910390f35b3480156100e357600080fd5b506100fe60048036038101906100f991906108fe565b6102a2565b005b34801561010c57600080fd5b506101156102f7565b6040516101229190610aa7565b60405180910390f35b610133610399565b61014361013e610419565b610428565b565b61014d61044e565b73ffffffffffffffffffffffffffffffffffffffff163373ffffffffffffffffffffffffffffffffffffffff1614156101a05761019b816040518060200160405280600081525060006104a5565b6101a9565b6101a861012b565b5b50565b6101b461044e565b73ffffffffffffffffffffffffffffffffffffffff163373ffffffffffffffffffffffffffffffffffffffff16141561023c576102378383838080601f016020809104026020016040519081016040528093929190818152602001838380828437600081840152601f19601f8201169050808301925050505050505060016104a5565b610245565b61024461012b565b5b505050565b600061025461044e565b73ffffffffffffffffffffffffffffffffffffffff163373ffffffffffffffffffffffffffffffffffffffff1614156102965761028f610419565b905061029f565b61029e61012b565b5b90565b6102aa61044e565b73ffffffffffffffffffffffffffffffffffffffff163373ffffffffffffffffffffffffffffffffffffffff1614156102eb576102e6816104d1565b6102f4565b6102f361012b565b5b50565b600061030161044e565b73ffffffffffffffffffffffffffffffffffffffff163373ffffffffffffffffffffffffffffffffffffffff1614156103435761033c61044e565b905061034c565b61034b61012b565b5b90565b60606103748383604051806060016040528060278152602001610dc86027913961051d565b905092915050565b6000819050919050565b600080823b905060008111915050919050565b6103a161044e565b73ffffffffffffffffffffffffffffffffffffffff163373ffffffffffffffffffffffffffffffffffffffff16141561040f576040517f08c379a000000000000000000000000000000000000000000000000000000000815260040161040690610b6d565b60405180910390fd5b6104176105ea565b565b60006104236105ec565b905090565b3660008037600080366000845af43d6000803e8060008114610449573d6000f35b3d6000fd5b600061047c7fb53127684a568b3173ae13b9f8a6016e243e63b6e8ee1178d6a717850b5d610360001b61037c565b60000160009054906101000a900473ffffffffffffffffffffffffffffffffffffffff16905090565b6104ae83610643565b6000825111806104bb5750805b156104cc576104ca838361034f565b505b505050565b7f7e644d79422f17c01e4894b5f4f588d331ebfa28653d42ae832dc59e38c9798f6104fa61044e565b82604051610509929190610ac2565b60405180910390a161051a81610692565b50565b606061052884610386565b610567576040517f08c379a000000000000000000000000000000000000000000000000000000000815260040161055e90610b4d565b60405180910390fd5b6000808573ffffffffffffffffffffffffffffffffffffffff168560405161058f9190610a90565b600060405180830381855af49150503d80600081146105ca576040519150601f19603f3d011682016040523d82523d6000602084013e6105cf565b606091505b50915091506105df828286610773565b925050509392505050565b565b600061061a7f360894a13ba1a3210667c828492db98dca3e2076cc3735a920a3ca505d382bbc60001b61037c565b60000160009054906101000a900473ffffffffffffffffffffffffffffffffffffffff16905090565b61064c816107da565b8073ffffffffffffffffffffffffffffffffffffffff167fbc7cd75a20ee27fd9adebab32041f755214dbc6bffa90cc0225b39da2e5c2d3b60405160405180910390a250565b600073ffffffffffffffffffffffffffffffffffffffff168173ffffffffffffffffffffffffffffffffffffffff161415610702576040517f08c379a00000000000000000000000000000000000000000000000000000000081526004016106f990610b0d565b60405180910390fd5b8061072f7fb53127684a568b3173ae13b9f8a6016e243e63b6e8ee1178d6a717850b5d610360001b61037c565b60000160006101000a81548173ffffffffffffffffffffffffffffffffffffffff021916908373ffffffffffffffffffffffffffffffffffffffff16021790555050565b60608315610783578290506107d3565b6000835111156107965782518084602001fd5b816040517f08c379a00000000000000000000000000000000000000000000000000000000081526004016107ca9190610aeb565b60405180910390fd5b9392505050565b6107e381610386565b610822576040517f08c379a000000000000000000000000000000000000000000000000000000000815260040161081990610b2d565b60405180910390fd5b8061084f7f360894a13ba1a3210667c828492db98dca3e2076cc3735a920a3ca505d382bbc60001b61037c565b60000160006101000a81548173ffffffffffffffffffffffffffffffffffffffff021916908373ffffffffffffffffffffffffffffffffffffffff16021790555050565b6000813590506108a281610db0565b92915050565b60008083601f8401126108be576108bd610c29565b5b8235905067ffffffffffffffff8111156108db576108da610c24565b5b6020830191508360018202830111156108f7576108f6610c2e565b5b9250929050565b60006020828403121561091457610913610c38565b5b600061092284828501610893565b91505092915050565b60008060006040848603121561094457610943610c38565b5b600061095286828701610893565b935050602084013567ffffffffffffffff81111561097357610972610c33565b5b61097f868287016108a8565b92509250509250925092565b61099481610bbf565b82525050565b60006109a582610b8d565b6109af8185610ba3565b93506109bf818560208601610bf1565b80840191505092915050565b60006109d682610b98565b6109e08185610bae565b93506109f0818560208601610bf1565b6109f981610c3d565b840191505092915050565b6000610a11602683610bae565b9150610a1c82610c4e565b604082019050919050565b6000610a34602d83610bae565b9150610a3f82610c9d565b604082019050919050565b6000610a57602683610bae565b9150610a6282610cec565b604082019050919050565b6000610a7a604283610bae565b9150610a8582610d3b565b606082019050919050565b6000610a9c828461099a565b915081905092915050565b6000602082019050610abc600083018461098b565b92915050565b6000604082019050610ad7600083018561098b565b610ae4602083018461098b565b9392505050565b60006020820190508181036000830152610b0581846109cb565b905092915050565b60006020820190508181036000830152610b2681610a04565b9050919050565b60006020820190508181036000830152610b4681610a27565b9050919050565b60006020820190508181036000830152610b6681610a4a565b9050919050565b60006020820190508181036000830152610b8681610a6d565b9050919050565b600081519050919050565b600081519050919050565b600081905092915050565b600082825260208201905092915050565b6000610bca82610bd1565b9050919050565b600073ffffffffffffffffffffffffffffffffffffffff82169050919050565b60005b83811015610c0f578082015181840152602081019050610bf4565b83811115610c1e576000848401525b50505050565b600080fd5b600080fd5b600080fd5b600080fd5b600080fd5b6000601f19601f8301169050919050565b7f455243313936373a206e65772061646d696e20697320746865207a65726f206160008201527f6464726573730000000000000000000000000000000000000000000000000000602082015250565b7f455243313936373a206e657720696d706c656d656e746174696f6e206973206e60008201527f6f74206120636f6e747261637400000000000000000000000000000000000000602082015250565b7f416464726573733a2064656c65676174652063616c6c20746f206e6f6e2d636f60008201527f6e74726163740000000000000000000000000000000000000000000000000000602082015250565b7f5472616e73706172656e745570677261646561626c6550726f78793a2061646d60008201527f696e2063616e6e6f742066616c6c6261636b20746f2070726f7879207461726760208201527f6574000000000000000000000000000000000000000000000000000000000000604082015250565b610db981610bbf565b8114610dc457600080fd5b5056fe416464726573733a206c6f772d6c6576656c2064656c65676174652063616c6c206661696c6564a26469706673582212206e34179e6f30578ba0263aec8bd1beac7a220c3d9df66c34a7d6fdcb2ad643ac64736f6c63430008070033416464726573733a206c6f772d6c6576656c2064656c65676174652063616c6c206661696c6564608060405234801561001057600080fd5b5060405162000a9138038062000a91833981810160405281019061003491906101ef565b61005061004561006560201b60201c565b61006d60201b60201c565b61005f8161013160201b60201c565b5061030d565b600033905090565b60008060009054906101000a900473ffffffffffffffffffffffffffffffffffffffff169050816000806101000a81548173ffffffffffffffffffffffffffffffffffffffff021916908373ffffffffffffffffffffffffffffffffffffffff1602179055508173ffffffffffffffffffffffffffffffffffffffff168173ffffffffffffffffffffffffffffffffffffffff167f8be0079c531659141344cd1fd0a4f28419497f9722a3daafe3b4186f6b6457e060405160405180910390a35050565b610144816101c760201b6103781760201c565b610183576040517f08c379a000000000000000000000000000000000000000000000000000000000815260040161017a9061023f565b60405180910390fd5b80600160006101000a81548173ffffffffffffffffffffffffffffffffffffffff021916908373ffffffffffffffffffffffffffffffffffffffff16021790555050565b600080823b905060008111915050919050565b6000815190506101e9816102f6565b92915050565b600060208284031215610205576102046102a2565b5b6000610213848285016101da565b91505092915050565b600061022960338361025f565b9150610234826102a7565b604082019050919050565b600060208201905081810360008301526102588161021c565b9050919050565b600082825260208201905092915050565b600061027b82610282565b9050919050565b600073ffffffffffffffffffffffffffffffffffffffff82169050919050565b600080fd5b7f5570677261646561626c65426561636f6e3a20696d706c656d656e746174696f60008201527f6e206973206e6f74206120636f6e747261637400000000000000000000000000602082015250565b6102ff81610270565b811461030a57600080fd5b50565b610774806200031d6000396000f3fe608060405234801561001057600080fd5b50600436106100575760003560e01c80633659cfe61461005c5780635c60da1b14610078578063715018a6146100965780638da5cb5b146100a0578063f2fde38b146100be575b600080fd5b610076600480360381019061007191906104f8565b6100da565b005b6100806101a5565b60405161008d919061059d565b60405180910390f35b61009e6101cf565b005b6100a8610257565b6040516100b5919061059d565b60405180910390f35b6100d860048036038101906100d391906104f8565b610280565b005b6100e261038b565b73ffffffffffffffffffffffffffffffffffffffff16610100610257565b73ffffffffffffffffffffffffffffffffffffffff1614610156576040517f08c379a000000000000000000000000000000000000000000000000000000000815260040161014d906105f8565b60405180910390fd5b61015f81610393565b8073ffffffffffffffffffffffffffffffffffffffff167fbc7cd75a20ee27fd9adebab32041f755214dbc6bffa90cc0225b39da2e5c2d3b60405160405180910390a250565b6000600160009054906101000a900473ffffffffffffffffffffffffffffffffffffffff16905090565b6101d761038b565b73ffffffffffffffffffffffffffffffffffffffff166101f5610257565b73ffffffffffffffffffffffffffffffffffffffff161461024b576040517f08c379a0000000000000000000000000000000000000000000000000000000008152600401610242906105f8565b60405180910390fd5b610255600061041f565b565b60008060009054906101000a900473ffffffffffffffffffffffffffffffffffffffff16905090565b61028861038b565b73ffffffffffffffffffffffffffffffffffffffff166102a6610257565b73ffffffffffffffffffffffffffffffffffffffff16146102fc576040517f08c379a00000000000000000000000000000000000000000000000000000000081526004016102f3906105f8565b60405180910390fd5b600073ffffffffffffffffffffffffffffffffffffffff168173ffffffffffffffffffffffffffffffffffffffff16141561036c576040517f08c379a0000000000000000000000000000000000000000000000000000000008152600401610363906105b8565b60405180910390fd5b6103758161041f565b50565b600080823b905060008111915050919050565b600033905090565b61039c81610378565b6103db576040517f08c379a00000000000000000000000000000000000000000000000000000000081526004016103d2906105d8565b60405180910390fd5b80600160006101000a81548173ffffffffffffffffffffffffffffffffffffffff021916908373ffffffffffffffffffffffffffffffffffffffff16021790555050565b60008060009054906101000a900473ffffffffffffffffffffffffffffffffffffffff169050816000806101000a81548173ffffffffffffffffffffffffffffffffffffffff021916908373ffffffffffffffffffffffffffffffffffffffff1602179055508173ffffffffffffffffffffffffffffffffffffffff168173ffffffffffffffffffffffffffffffffffffffff167f8be0079c531659141344cd1fd0a4f28419497f9722a3daafe3b4186f6b6457e060405160405180910390a35050565b6000813590506104f281610727565b92915050565b60006020828403121561050e5761050d61065b565b5b600061051c848285016104e3565b91505092915050565b61052e81610629565b82525050565b6000610541602683610618565b915061054c82610660565b604082019050919050565b6000610564603383610618565b915061056f826106af565b604082019050919050565b6000610587602083610618565b9150610592826106fe565b602082019050919050565b60006020820190506105b26000830184610525565b92915050565b600060208201905081810360008301526105d181610534565b9050919050565b600060208201905081810360008301526105f181610557565b9050919050565b600060208201905081810360008301526106118161057a565b9050919050565b600082825260208201905092915050565b60006106348261063b565b9050919050565b600073ffffffffffffffffffffffffffffffffffffffff82169050919050565b600080fd5b7f4f776e61626c653a206e6577206f776e657220697320746865207a65726f206160008201527f6464726573730000000000000000000000000000000000000000000000000000602082015250565b7f5570677261646561626c65426561636f6e3a20696d706c656d656e746174696f60008201527f6e206973206e6f74206120636f6e747261637400000000000000000000000000602082015250565b7f4f776e61626c653a2063616c6c6572206973206e6f7420746865206f776e6572600082015250565b61073081610629565b811461073b57600080fd5b5056fea2646970667358221220f14c1e123fc6650c2510ce92a5938ce8dbd619e20ec5ceb7ad4526f9ccdb6aca64736f6c63430008070033a2646970667358221220768b7e0a7b118d30bfaffbad5677dba08830828f5be2f079f062e5c21745f21364736f6c63430008070033",
  "immutableReferences": {},
  "source": "// SPDX-License-Identifier: GPL-3.0\r\n\r\npragma solidity 0.8.7;\r\n\r\n/**\r\n * @title Storage\r\n * @dev Store & retrieve value in a variable\r\n\r\nTransparent Proxies:\r\n    - 0 : Itself (Certificate Pool Manager)\r\n    - 1 : Public Pool\r\n    - 2 : Treasury\r\n    - 3 : Originals Token\r\n    - 4 : Proposition Settings\r\n    - 5 : NFT Factory\r\n\r\nBeacons:\r\n    - 0 : NFT\r\n\r\n NewProposals :\r\n    - Amount of New Transaparent proxies = m\r\n    - Amount of New Beacons = q\r\n    - New Address Transaparent proxy 1\r\n    - ...\r\n    - New Address Transaparent proxy n\r\n    - Address New Transaparent proxy 1\r\n    - ...\r\n    - Address New Transaparent proxy m\r\n    - New Address Beacon proxy 1\r\n    - ...\r\n    - New Address Beacon proxy p\r\n    - Address New Beacon proxy 1\r\n    - ...\r\n    - Address New Beacon proxy q\r\n    - Data Transaparent proxy 1\r\n    - ..\r\n    - Data Transaparent proxy n\r\n    - Data New Transaparent proxy 1\r\n    - ..\r\n    - Data New Transaparent proxy m\r\n */\r\n\r\nimport \"../Interfaces/IManager.sol\";\r\nimport \"../Interfaces/IFactory.sol\";\r\nimport \"../Base/StdPropositionBaseContract.sol\";\r\nimport \"../Libraries/AddressLibrary.sol\";\r\nimport \"../Libraries/Library.sol\";\r\nimport \"../Libraries/UintLibrary.sol\";\r\nimport \"@openzeppelin/contracts-upgradeable/proxy/utils/Initializable.sol\";\r\nimport \"@openzeppelin/contracts/proxy/beacon/UpgradeableBeacon.sol\";\r\nimport \"@openzeppelin/contracts/proxy/transparent/TransparentUpgradeableProxy.sol\";\r\nimport \"@openzeppelin/contracts/proxy/transparent/ProxyAdmin.sol\";\r\n\r\n\r\ncontract CertificatesPoolManager is IManager, StdPropositionBaseContract{\r\n    using AddressLibrary for *;\r\n    using Library for *;\r\n    using UintLibrary for *;\r\n\r\n    // EVENTS /////////////////////////////////////////\r\n    event _NewProxy(address NewContractAddress, uint ProxyId, string ProxyType);\r\n    event _ContractUpgrade(address NewContractAddress, uint ProxyId, string ProxyType);\r\n\r\n    // DATA /////////////////////////////////////////\r\n    // Admin Proxy to manage all the TransparentUpgradeableProxies\r\n    ProxyAdmin private _Admin;\r\n\r\n    // Transparent Proxies\r\n    TransparentUpgradeableProxy[] private _TransparentProxies;\r\n\r\n    // Beacons\r\n    UpgradeableBeacon[] private _Beacons;\r\n\r\n    // Proxy Types\r\n    string constant _TransparentType = \"Transparent\";\r\n    string constant _BeaconType = \"Beacon\";\r\n    uint constant _NewPropositionsRedimesionFields = 2; // The first \"NewPropositionsRedimesionFields\" elements of every new proposition indicate the number of new transaprent/beacon/... proxies to add to the system\r\n\r\n    // init\r\n    bool private _init;\r\n\r\n    // MODIFIERS /////////////////////////////////////////\r\n    modifier isNotInitialized(){\r\n        require(false == _init, \"EC26-\");\r\n        _;\r\n    }\r\n\r\n    // INITIALIZATION /////////////////////////////////////////\r\n    function CertificatesPoolManager_init(address chairPerson, string memory contractName, string memory contractVersion) public initializer\r\n    {\r\n        super.StdPropositionBaseContract_init(chairPerson, address(this), contractName, contractVersion);\r\n        _Admin = new ProxyAdmin();\r\n    }\r\n\r\n    function InitializeContracts(Library.ProposedContractsStruct calldata initialContracts, TransparentUpgradeableProxy ManagerProxyAddress) \r\n        isFromChairPerson(msg.sender)\r\n        isNotInitialized()\r\n    external override\r\n    {\r\n        initProxies(initialContracts, ManagerProxyAddress);\r\n        _init = true;\r\n    }\r\n\r\n    // FUNCTIONALITY /////////////////////////////////////////\r\n    // governance : contracts assignment and management\r\n    function initProxies(Library.ProposedContractsStruct calldata initialContracts, TransparentUpgradeableProxy ManagerProxyAddress) private\r\n    {\r\n        _TransparentProxies.push(TransparentUpgradeableProxy(ManagerProxyAddress));\r\n\r\n        for(uint i=0; i < initialContracts.TransparentAddresses.length; i++){\r\n            addTransparentProxy(initialContracts.TransparentAddresses[i], initialContracts.TransparentData[i]);\r\n        }\r\n        for(uint i=0; i < initialContracts.BeaconAddresses.length; i++){\r\n            addBeacon(initialContracts.BeaconAddresses[i]);\r\n        }\r\n    }\r\n\r\n    function UpdateAll() internal override\r\n    {\r\n\r\n        uint256 pointer = _NewPropositionsRedimesionFields;\r\n        uint256 NewTransparentProxies = UintLibrary.Bytes32ToUint(Library.BytestoBytes32(_ProposedNewValues[0])[0]); // m\r\n        uint256 NewBeaconProxies = UintLibrary.Bytes32ToUint(Library.BytestoBytes32(_ProposedNewValues[1])[0]); // q\r\n        uint256 TransaprentProxyDataSkip = _TransparentProxies.length + NewTransparentProxies + _Beacons.length + NewBeaconProxies;\r\n\r\n        // Transaprent Proxies : We start at 1 so that if we update the code of this SC it will be done at the end\r\n        for(uint i=1; i < _TransparentProxies.length; i++){\r\n            upgradeTransparentProxy(_TransparentProxies[i], \r\n                i, \r\n                _ProposedNewValues[pointer + i], \r\n                _ProposedNewValues[pointer + TransaprentProxyDataSkip + i]);\r\n        }\r\n\r\n        pointer = pointer + _TransparentProxies.length;\r\n\r\n        if(NewTransparentProxies > 0){\r\n            for(uint i=0; i < NewTransparentProxies; i++){\r\n                addTransparentProxy(\r\n                AddressLibrary.Bytes32ToAddress(Library.BytestoBytes32(_ProposedNewValues[pointer + i])[0]), \r\n                _ProposedNewValues[pointer + TransaprentProxyDataSkip + i]);\r\n            }\r\n\r\n            pointer = pointer + NewTransparentProxies;\r\n        }\r\n        \r\n        // Beacons\r\n        for(uint i=0; i < _Beacons.length; i++){\r\n            upgradeBeacon(_Beacons[i], \r\n                i, \r\n                _ProposedNewValues[pointer + i]);\r\n        }\r\n\r\n        pointer = pointer + _Beacons.length;\r\n\r\n        if(NewBeaconProxies > 0){\r\n            for(uint i=0; i < NewBeaconProxies; i++){\r\n                addBeacon(AddressLibrary.Bytes32ToAddress(Library.BytestoBytes32(_ProposedNewValues[pointer + i])[0]));\r\n            }\r\n\r\n            pointer = pointer + NewBeaconProxies;\r\n        }\r\n\r\n        pointer = pointer + _TransparentProxies.length + NewTransparentProxies;\r\n        \r\n        // We finally upgrade this contract if required\r\n        upgradeTransparentProxy(_TransparentProxies[uint256(Library.TransparentProxies.Manager)], \r\n                uint256(Library.TransparentProxies.Manager), \r\n                _ProposedNewValues[_NewPropositionsRedimesionFields], \r\n                _ProposedNewValues[_NewPropositionsRedimesionFields + TransaprentProxyDataSkip]);\r\n\r\n    }\r\n\r\n    function addTransparentProxy(address implAddress, bytes memory data) private\r\n    {\r\n        if(address(0) != implAddress){\r\n            _TransparentProxies.push(new TransparentUpgradeableProxy(implAddress, address(_Admin), data));\r\n            emit _NewProxy(implAddress, _TransparentProxies.length, _TransparentType);\r\n        }\r\n    }\r\n\r\n    function addBeacon(address implAddress) private\r\n    {\r\n        if(address(0) != implAddress){\r\n            _Beacons.push(new UpgradeableBeacon(implAddress));\r\n            emit _NewProxy(implAddress, _Beacons.length, _BeaconType);\r\n        }\r\n    }\r\n\r\n    function upgradeTransparentProxy(TransparentUpgradeableProxy proxy, uint ProxyId, bytes memory NewImpl, bytes memory Data) private\r\n    {\r\n        address NewImplAddress = AddressLibrary.Bytes32ToAddress(Library.BytestoBytes32(NewImpl)[0]);\r\n        if(address(0) != NewImplAddress){\r\n            if(0 < Data.length)_Admin.upgradeAndCall(proxy, NewImplAddress, Data);\r\n            else _Admin.upgrade(proxy, NewImplAddress);\r\n            emit _ContractUpgrade(NewImplAddress, ProxyId, _TransparentType);\r\n        }\r\n    }\r\n\r\n    function upgradeBeacon(UpgradeableBeacon beacon, uint BeaconId, bytes memory NewImpl) private\r\n    {\r\n        address NewImplAddress = AddressLibrary.Bytes32ToAddress(Library.BytestoBytes32(NewImpl)[0]);\r\n        if(address(0) != NewImplAddress){\r\n            beacon.upgradeTo(NewImplAddress);\r\n            emit _ContractUpgrade(NewImplAddress, BeaconId, _BeaconType);\r\n        }\r\n\r\n    }\r\n\r\n    // configuration Proxies\r\n    function retrieveTransparentProxies() external override view returns (address[] memory) \r\n    {\r\n        address[] memory proxies = new address[](_TransparentProxies.length);\r\n        for(uint i=0; i < proxies.length; i++){\r\n            proxies[i] = address(_TransparentProxies[i]);\r\n        }\r\n        return proxies;\r\n    }\r\n\r\n    function retrieveBeacons() external override view returns (address[] memory) \r\n    {\r\n        address[] memory proxies = new address[](_Beacons.length);\r\n        for(uint i=0; i < proxies.length; i++){\r\n            proxies[i] = address(_Beacons[i]);\r\n        }\r\n        return proxies;\r\n    }\r\n\r\n    // configuration implementations\r\n    function retrieveProxyAdmin() external override view returns (address){\r\n        return address(_Admin);\r\n    }\r\n\r\n    function retrieveTransparentProxiesImpl() external override view returns (address[] memory) \r\n    {\r\n        address[] memory implementations = new address[](_TransparentProxies.length);\r\n        for(uint i=0; i < implementations.length; i++){\r\n            implementations[i] = internalRetrieveTransparentProxyImpl(_TransparentProxies[i]);\r\n        }\r\n        return implementations;\r\n    }\r\n\r\n    function retrieveBeaconsImpl() external override view returns (address[] memory) \r\n    {\r\n        address[] memory implementations = new address[](_Beacons.length);\r\n        for(uint i=0; i < implementations.length; i++){\r\n            implementations[i] = internalRetrieveBeaconImpl(_Beacons[i]);\r\n        }\r\n        return implementations;\r\n    }\r\n\r\n    function isInitialized() external override view returns(bool){\r\n        return _init;\r\n    }\r\n\r\n    // internal\r\n    function internalRetrieveTransparentProxyImpl(TransparentUpgradeableProxy proxy) internal view returns (address){\r\n        return _Admin.getProxyImplementation(proxy);\r\n    }\r\n\r\n    function internalRetrieveBeaconImpl(UpgradeableBeacon beacon) internal view returns (address){\r\n        return beacon.implementation();\r\n    }\r\n  \r\n}",
  "sourcePath": "C:\\Users\\d-aam\\GitHub\\Originals\\contracts\\MainContracts\\Manager.sol",
  "compiler": {
    "name": "solc",
    "version": "0.8.7+commit.e28d00a7.Emscripten.clang"
  },
  "schemaVersion": "3.4.3",
  "updatedAt": "2022-01-24T11:09:42.757Z",
  "devdoc": {
    "kind": "dev",
    "methods": {},
    "version": 1
  },
  "userdoc": {
    "kind": "user",
    "methods": {},
    "version": 1
  }
}