{
  "contractName": "ItemsLibrary",
  "abi": [
    {
      "anonymous": false,
      "inputs": [
        {
          "indexed": false,
          "internalType": "string",
          "name": "ItemType",
          "type": "string"
        },
        {
          "indexed": true,
          "internalType": "bytes32",
          "name": "Item",
          "type": "bytes32"
        },
        {
          "indexed": false,
          "internalType": "string",
          "name": "Info",
          "type": "string"
        }
      ],
      "name": "_AddItemRejection",
      "type": "event"
    },
    {
      "anonymous": false,
      "inputs": [
        {
          "indexed": false,
          "internalType": "string",
          "name": "ItemType",
          "type": "string"
        },
        {
          "indexed": true,
          "internalType": "bytes32",
          "name": "Item",
          "type": "bytes32"
        },
        {
          "indexed": false,
          "internalType": "string",
          "name": "Info",
          "type": "string"
        }
      ],
      "name": "_AddItemValidation",
      "type": "event"
    },
    {
      "anonymous": false,
      "inputs": [
        {
          "indexed": false,
          "internalType": "string",
          "name": "ItemType",
          "type": "string"
        },
        {
          "indexed": true,
          "internalType": "bytes32",
          "name": "Item",
          "type": "bytes32"
        },
        {
          "indexed": false,
          "internalType": "string",
          "name": "Info",
          "type": "string"
        }
      ],
      "name": "_RemoveItemRejection",
      "type": "event"
    },
    {
      "anonymous": false,
      "inputs": [
        {
          "indexed": false,
          "internalType": "string",
          "name": "ItemType",
          "type": "string"
        },
        {
          "indexed": true,
          "internalType": "bytes32",
          "name": "Item",
          "type": "bytes32"
        },
        {
          "indexed": false,
          "internalType": "string",
          "name": "Info",
          "type": "string"
        }
      ],
      "name": "_RemoveItemValidation",
      "type": "event"
    },
    {
      "inputs": [
        {
          "internalType": "uint256",
          "name": "signatures",
          "type": "uint256"
        },
        {
          "internalType": "uint256",
          "name": "minSignatures",
          "type": "uint256"
        }
      ],
      "name": "CheckValidations",
      "outputs": [
        {
          "internalType": "bool",
          "name": "",
          "type": "bool"
        }
      ],
      "stateMutability": "pure",
      "type": "function"
    },
    {
      "inputs": [
        {
          "components": [
            {
              "internalType": "bytes32",
              "name": "item",
              "type": "bytes32"
            },
            {
              "internalType": "string",
              "name": "info",
              "type": "string"
            },
            {
              "internalType": "uint256",
              "name": "_minSignatures",
              "type": "uint256"
            },
            {
              "internalType": "string",
              "name": "ItemTypeLabel",
              "type": "string"
            },
            {
              "internalType": "uint256[]",
              "name": "ids",
              "type": "uint256[]"
            }
          ],
          "internalType": "struct ItemsLibrary._manipulateItemStruct",
          "name": "manipulateItemstruct",
          "type": "tuple"
        }
      ],
      "name": "ReturnManipulateStructContent",
      "outputs": [
        {
          "internalType": "bytes32",
          "name": "",
          "type": "bytes32"
        },
        {
          "internalType": "uint256",
          "name": "",
          "type": "uint256"
        },
        {
          "internalType": "string",
          "name": "",
          "type": "string"
        },
        {
          "internalType": "uint256[]",
          "name": "",
          "type": "uint256[]"
        }
      ],
      "stateMutability": "pure",
      "type": "function"
    }
  ],
  "bytecode": "0x612ddc610053600b82828239805160001a607314610046577f4e487b7100000000000000000000000000000000000000000000000000000000600052600060045260246000fd5b30600052607381538281f3fe73000000000000000000000000000000000000000030146080604052600436106101405760003560e01c80636e088cc7116100c2578063c8eee74e11610086578063c8eee74e146103b2578063d03be638146103ce578063dbdfbeec146103ea578063e035e0061461041a578063e23fcdef1461044a578063f6001d7d1461047357610140565b80636e088cc7146102eb5780637493a70b146103145780637b6d23de1461033d5780638225579b1461036d57806389b9b5411461039657610140565b8063207c442711610109578063207c44271461020657806327724f4b1461022f5780632854ed2e1461025f5780633dac2dd21461028f5780635cb09bcf146102c257610140565b806226d76614610145578063064d12b514610175578063064e6e7e146101915780630b985aaa146101ad5780631aeccc6a146101d6575b600080fd5b61015f600480360381019061015a9190611eb9565b6104a3565b60405161016c9190612612565b60405180910390f35b61018f600480360381019061018a9190611eb9565b610521565b005b6101ab60048036038101906101a69190611eb9565b610575565b005b8180156101b957600080fd5b506101d460048036038101906101cf9190611f6f565b6105e1565b005b6101f060048036038101906101eb9190611eb9565b6106a9565b6040516101fd91906127b7565b60405180910390f35b81801561021257600080fd5b5061022d60048036038101906102289190611eb9565b6108b6565b005b61024960048036038101906102449190611ef9565b610997565b60405161025691906125f0565b60405180910390f35b61027960048036038101906102749190611eb9565b6109f3565b6040516102869190612612565b60405180910390f35b6102a960048036038101906102a49190611f26565b610a71565b6040516102b9949392919061266b565b60405180910390f35b8180156102ce57600080fd5b506102e960048036038101906102e49190611f6f565b610a9a565b005b8180156102f757600080fd5b50610312600480360381019061030d9190611eb9565b610f4e565b005b81801561032057600080fd5b5061033b60048036038101906103369190611f6f565b610fb8565b005b61035760048036038101906103529190611da6565b611502565b6040516103649190612612565b60405180910390f35b81801561037957600080fd5b50610394600480360381019061038f9190611e26565b611654565b005b6103b060048036038101906103ab9190611da6565b611745565b005b6103cc60048036038101906103c79190611eb9565b61179b565b005b6103e860048036038101906103e39190611eb9565b611808565b005b61040460048036038101906103ff9190611eb9565b61185c565b6040516104119190612612565b60405180910390f35b610434600480360381019061042f9190611e79565b61188c565b60405161044191906125f0565b60405180910390f35b81801561045657600080fd5b50610471600480360381019061046c9190611f6f565b61194f565b005b61048d60048036038101906104889190611fde565b6119e0565b60405161049a9190612612565b60405180910390f35b60008160000160008481526020019081526020016000206003015482600201805490501115610516578160020182600001600085815260200190815260200160002060030154815481106104fa576104f9612bb4565b5b9060005260206000200154831415610515576001905061051b565b5b600090505b92915050565b61052b828261185c565b15156001151514610571576040517f08c379a000000000000000000000000000000000000000000000000000000000815260040161056890612777565b60405180910390fd5b5050565b61057f82826104a3565b151560011515148061059e575061059682826109f3565b151560011515145b6105dd576040517f08c379a00000000000000000000000000000000000000000000000000000000081526004016105d490612737565b60405180910390fd5b5050565b6105ef836000015183611808565b6105fd83600001518361179b565b60008360000151905060008460200151905080846000016000848152602001908152602001600020600001908051906020019061063b9291906119fe565b50836002018290806001815401808255809150506001900390600052602060002001600090919091909150556001846002018054905061067b91906129e7565b846000016000848152602001908152602001600020600301819055506106a2858585610fb8565b5050505050565b6106b1611a84565b8160000160008481526020019081526020016000206040518060c00160405290816000820180546106e190612ad9565b80601f016020809104026020016040519081016040528092919081815260200182805461070d90612ad9565b801561075a5780601f1061072f5761010080835404028352916020019161075a565b820191906000526020600020905b81548152906001019060200180831161073d57829003601f168201915b505050505081526020016001820160009054906101000a900460ff1615151515815260200160028201548152602001600382015481526020016004820180548060200260200160405190810160405280929190818152602001828054801561081757602002820191906000526020600020905b8160009054906101000a900473ffffffffffffffffffffffffffffffffffffffff1673ffffffffffffffffffffffffffffffffffffffff16815260200190600101908083116107cd575b50505050508152602001600582018054806020026020016040519081016040528092919081815260200182805480156108a557602002820191906000526020600020905b8160009054906101000a900473ffffffffffffffffffffffffffffffffffffffff1673ffffffffffffffffffffffffffffffffffffffff168152602001906001019080831161085b575b505050505081525050905092915050565b6000816001019050600082600001600085815260200190815260200160002060020154905073__Library_______________________________63e4ef9c3282846040518363ffffffff1660e01b81526004016109149291906127d9565b60006040518083038186803b15801561092c57600080fd5b505af4158015610940573d6000803e3d6000fd5b50505050818054905081101561099157600082828154811061096557610964612bb4565b5b906000526020600020015490508184600001600083815260200190815260200160002060020181905550505b50505050565b6060816001018054806020026020016040519081016040528092919081815260200182805480156109e757602002820191906000526020600020905b8154815260200190600101908083116109d3575b50505050509050919050565b60008160000160008481526020019081526020016000206003015482600301805490501115610a6657816003018260000160008581526020019081526020016000206003015481548110610a4a57610a49612bb4565b5b9060005260206000200154831415610a655760019050610a6b565b5b600090505b92915050565b600080606080846000015185604001518660600151876080015193509350935093509193509193565b610aa8836000015183610575565b610ab733846000015184611745565b600080600080610ac687610a71565b9350935093509350856000016000858152602001908152602001600020600501339080600181540180825580915050600190039060005260206000200160009091909190916101000a81548173ffffffffffffffffffffffffffffffffffffffff021916908373ffffffffffffffffffffffffffffffffffffffff160217905550610b6c86600001600086815260200190815260200160002060050180549050846119e0565b15610f4557610b7b84876104a3565b15610d9557610b8c60018588611654565b6000808673ffffffffffffffffffffffffffffffffffffffff1686846001604051602401610bbc9392919061262d565b6040516020818303038152906040527f3fd07181000000000000000000000000000000000000000000000000000000007bffffffffffffffffffffffffffffffffffffffffffffffffffffffff19166020820180517bffffffffffffffffffffffffffffffffffffffffffffffffffffffff8381831617835250505050604051610c4691906125a9565b6000604051808303816000865af19150503d8060008114610c83576040519150601f19603f3d011682016040523d82523d6000602084013e610c88565b606091505b5091509150818190610cd0576040517f08c379a0000000000000000000000000000000000000000000000000000000008152600401610cc791906126be565b60405180910390fd5b50857f54b570d1f49da5a541163492680b5d458d7394bd913058973d58c83787e7b1af858a60000160008a8152602001908152602001600020600001604051610d1a9291906126e0565b60405180910390a287600001600087815260200190815260200160002060008082016000610d489190611abc565b6001820160006101000a81549060ff021916905560028201600090556003820160009055600482016000610d7c9190611afc565b600582016000610d8c9190611afc565b50505050610f44565b610da160008588611654565b6000808673ffffffffffffffffffffffffffffffffffffffff1686846000604051602401610dd19392919061262d565b6040516020818303038152906040527f3fd07181000000000000000000000000000000000000000000000000000000007bffffffffffffffffffffffffffffffffffffffffffffffffffffffff19166020820180517bffffffffffffffffffffffffffffffffffffffffffffffffffffffff8381831617835250505050604051610e5b91906125a9565b6000604051808303816000865af19150503d8060008114610e98576040519150601f19603f3d011682016040523d82523d6000602084013e610e9d565b606091505b5091509150818190610ee5576040517f08c379a0000000000000000000000000000000000000000000000000000000008152600401610edc91906126be565b60405180910390fd5b50610ef08689610f4e565b857fe89687f0c26a809a947b2c0e0df6af4f18066aab08e8c6a5c67bb816c3b250ca858a60000160008a8152602001908152602001600020600001604051610f399291906126e0565b60405180910390a250505b5b50505050505050565b8060000160008381526020019081526020016000206005016000610f729190611afc565b8060000160008381526020019081526020016000206004016000610f969190611afc565b6000816000016000848152602001908152602001600020600301819055505050565b610fc6836000015183610575565b610fd533846000015184611745565b600080600080610fe487610a71565b9350935093509350856000016000858152602001908152602001600020600401339080600181540180825580915050600190039060005260206000200160009091909190916101000a81548173ffffffffffffffffffffffffffffffffffffffff021916908373ffffffffffffffffffffffffffffffffffffffff16021790555061108a86600001600086815260200190815260200160002060040180549050846119e0565b156114f95761109984876104a3565b156112dd57600186600001600086815260200190815260200160002060010160006101000a81548160ff021916908315150217905550856001018490806001815401808255809150506001900390600052602060002001600090919091909150556001866001018054905061110e91906129e7565b8660000160008681526020019081526020016000206002018190555061113660018588611654565b6000808673ffffffffffffffffffffffffffffffffffffffff16868460016040516024016111669392919061262d565b6040516020818303038152906040527f7c8c2add000000000000000000000000000000000000000000000000000000007bffffffffffffffffffffffffffffffffffffffffffffffffffffffff19166020820180517bffffffffffffffffffffffffffffffffffffffffffffffffffffffff83818316178352505050506040516111f091906125a9565b6000604051808303816000865af19150503d806000811461122d576040519150601f19603f3d011682016040523d82523d6000602084013e611232565b606091505b509150915081819061127a576040517f08c379a000000000000000000000000000000000000000000000000000000000815260040161127191906126be565b60405180910390fd5b506112858689610f4e565b857f78affcbd9eae81f6f814ad113a0530fe7251494185b89753505ab3529e8f6971858a60000160008a81526020019081526020016000206000016040516112ce9291906126e0565b60405180910390a250506114f8565b6112e784876108b6565b6112f360008588611654565b6000808673ffffffffffffffffffffffffffffffffffffffff16868460006040516024016113239392919061262d565b6040516020818303038152906040527f7c8c2add000000000000000000000000000000000000000000000000000000007bffffffffffffffffffffffffffffffffffffffffffffffffffffffff19166020820180517bffffffffffffffffffffffffffffffffffffffffffffffffffffffff83818316178352505050506040516113ad91906125a9565b6000604051808303816000865af19150503d80600081146113ea576040519150601f19603f3d011682016040523d82523d6000602084013e6113ef565b606091505b5091509150818190611437576040517f08c379a000000000000000000000000000000000000000000000000000000000815260040161142e91906126be565b60405180910390fd5b50857fe3ca55e2b495b3586f7b93152cce47df5bebef16d327f330c0e28f9348d9e6b3858a60000160008a81526020019081526020016000206000016040516114819291906126e0565b60405180910390a2876000016000878152602001908152602001600020600080820160006114af9190611abc565b6001820160006101000a81549060ff0219169055600282016000905560038201600090556004820160006114e39190611afc565b6005820160006114f39190611afc565b505050505b5b50505050505050565b600073__AddressLibrary________________________63f7cf62d7858460000160008781526020019081526020016000206004016040518363ffffffff1660e01b81526004016115549291906125c0565b60206040518083038186803b15801561156c57600080fd5b505af4158015611580573d6000803e3d6000fd5b505050506040513d601f19601f820116820180604052508101906115a49190611df9565b8061164b575073__AddressLibrary________________________63f7cf62d7858460000160008781526020019081526020016000206005016040518363ffffffff1660e01b81526004016115fa9291906125c0565b60206040518083038186803b15801561161257600080fd5b505af4158015611626573d6000803e3d6000fd5b505050506040513d601f19601f8201168201806040525081019061164a9190611df9565b5b90509392505050565b6000836116645781600301611669565b816002015b9050600082600001600085815260200190815260200160002060030154905073__Library_______________________________63e4ef9c3282846040518363ffffffff1660e01b81526004016116c19291906127d9565b60006040518083038186803b1580156116d957600080fd5b505af41580156116ed573d6000803e3d6000fd5b50505050818054905081101561173e57600082828154811061171257611711612bb4565b5b906000526020600020015490508184600001600083815260200190815260200160002060030181905550505b5050505050565b611750838383611502565b15156000151514611796576040517f08c379a000000000000000000000000000000000000000000000000000000000815260040161178d90612797565b60405180910390fd5b505050565b6117a582826104a3565b1515600015151480156117c557506117bd82826109f3565b151560001515145b611804576040517f08c379a00000000000000000000000000000000000000000000000000000000081526004016117fb90612717565b60405180910390fd5b5050565b611812828261185c565b15156000151514611858576040517f08c379a000000000000000000000000000000000000000000000000000000000815260040161184f90612757565b60405180910390fd5b5050565b600081600001600084815260200190815260200160002060010160009054906101000a900460ff16905092915050565b60608083156118ef57826002018054806020026020016040519081016040528092919081815260200182805480156118e357602002820191906000526020600020905b8154815260200190600101908083116118cf575b50505050509050611945565b8260030180548060200260200160405190810160405280929190818152602001828054801561193d57602002820191906000526020600020905b815481526020019060010190808311611929575b505050505090505b8091505092915050565b61195d836000015183610521565b61196b83600001518361179b565b60008360000151905082600301819080600181540180825580915050600190039060005260206000200160009091909190915055600183600301805490506119b391906129e7565b836000016000838152602001908152602001600020600301819055506119da848484610fb8565b50505050565b6000818310156119f357600090506119f8565b600190505b92915050565b828054611a0a90612ad9565b90600052602060002090601f016020900481019282611a2c5760008555611a73565b82601f10611a4557805160ff1916838001178555611a73565b82800160010185558215611a73579182015b82811115611a72578251825591602001919060010190611a57565b5b509050611a809190611b1d565b5090565b6040518060c0016040528060608152602001600015158152602001600081526020016000815260200160608152602001606081525090565b508054611ac890612ad9565b6000825580601f10611ada5750611af9565b601f016020900490600052602060002090810190611af89190611b1d565b5b50565b5080546000825590600052602060002090810190611b1a9190611b1d565b50565b5b80821115611b36576000816000905550600101611b1e565b5090565b6000611b4d611b4884612827565b612802565b90508083825260208201905082856020860282011115611b7057611b6f612c34565b5b60005b85811015611ba05781611b868882611d91565b845260208401935060208301925050600181019050611b73565b5050509392505050565b6000611bbd611bb884612853565b612802565b905082815260208101848484011115611bd957611bd8612c39565b5b611be4848285612a97565b509392505050565b600081359050611bfb81612d33565b92915050565b600082601f830112611c1657611c15612c25565b5b8135611c26848260208601611b3a565b91505092915050565b600081359050611c3e81612d4a565b92915050565b600081519050611c5381612d4a565b92915050565b600081359050611c6881612d61565b92915050565b600082601f830112611c8357611c82612c25565b5b8135611c93848260208601611baa565b91505092915050565b600081359050611cab81612d78565b92915050565b600060a08284031215611cc757611cc6612c2a565b5b611cd160a0612802565b90506000611ce184828501611c59565b600083015250602082013567ffffffffffffffff811115611d0557611d04612c2f565b5b611d1184828501611c6e565b6020830152506040611d2584828501611d91565b604083015250606082013567ffffffffffffffff811115611d4957611d48612c2f565b5b611d5584828501611c6e565b606083015250608082013567ffffffffffffffff811115611d7957611d78612c2f565b5b611d8584828501611c01565b60808301525092915050565b600081359050611da081612d8f565b92915050565b600080600060608486031215611dbf57611dbe612c43565b5b6000611dcd86828701611bec565b9350506020611dde86828701611c59565b9250506040611def86828701611c9c565b9150509250925092565b600060208284031215611e0f57611e0e612c43565b5b6000611e1d84828501611c44565b91505092915050565b600080600060608486031215611e3f57611e3e612c43565b5b6000611e4d86828701611c2f565b9350506020611e5e86828701611c59565b9250506040611e6f86828701611c9c565b9150509250925092565b60008060408385031215611e9057611e8f612c43565b5b6000611e9e85828601611c2f565b9250506020611eaf85828601611c9c565b9150509250929050565b60008060408385031215611ed057611ecf612c43565b5b6000611ede85828601611c59565b9250506020611eef85828601611c9c565b9150509250929050565b600060208284031215611f0f57611f0e612c43565b5b6000611f1d84828501611c9c565b91505092915050565b600060208284031215611f3c57611f3b612c43565b5b600082013567ffffffffffffffff811115611f5a57611f59612c3e565b5b611f6684828501611cb1565b91505092915050565b600080600060608486031215611f8857611f87612c43565b5b600084013567ffffffffffffffff811115611fa657611fa5612c3e565b5b611fb286828701611cb1565b9350506020611fc386828701611c9c565b9250506040611fd486828701611bec565b9150509250925092565b60008060408385031215611ff557611ff4612c43565b5b600061200385828601611d91565b925050602061201485828601611d91565b9150509250929050565b600061202a838361208d565b60208301905092915050565b600061204283836122cb565b60208301905092915050565b600061205a838361257c565b60208301905092915050565b6000612072838361259a565b60208301905092915050565b61208781612a3b565b82525050565b61209681612a3b565b82525050565b60006120a7826128de565b6120b18185612965565b93506120bc83612884565b8060005b838110156120ed5781516120d4888261201e565b97506120df83612920565b9250506001810190506120c0565b5085935050505092915050565b6000612105826128e9565b61210f8185612954565b935061211a83612894565b8060005b838110156121525761212f82612c12565b612139888261201e565b97506121448361292d565b92505060018101905061211e565b5085935050505092915050565b600061216a826128f4565b6121748185612976565b935061217f836128a9565b8060005b838110156121b05781516121978882612036565b97506121a28361293a565b925050600181019050612183565b5085935050505092915050565b8082525050565b60006121cf826128ff565b6121d98185612987565b93506121e4836128b9565b8060005b838110156122155781516121fc888261204e565b975061220783612947565b9250506001810190506121e8565b5085935050505092915050565b600061222d826128ff565b6122378185612998565b9350612242836128b9565b8060005b8381101561227357815161225a8882612066565b975061226583612947565b925050600181019050612246565b5085935050505092915050565b61228981612a4d565b82525050565b61229881612a4d565b82525050565b6122a781612a4d565b82525050565b6122b681612a59565b82525050565b6122c581612a59565b82525050565b6122d481612a59565b82525050565b60006122e58261290a565b6122ef81856129a9565b93506122ff818560208601612aa6565b80840191505092915050565b600061231682612915565b61232081856129b4565b9350612330818560208601612aa6565b61233981612c48565b840191505092915050565b600061234f82612915565b61235981856129c5565b9350612369818560208601612aa6565b61237281612c48565b840191505092915050565b600061238882612915565b61239281856129d6565b93506123a2818560208601612aa6565b6123ab81612c48565b840191505092915050565b600081546123c381612ad9565b6123cd81866129b4565b945060018216600081146123e857600181146123fa5761242d565b60ff198316865260208601935061242d565b612403856128c9565b60005b8381101561242557815481890152600182019150602081019050612406565b808801955050505b50505092915050565b60006124436005836129b4565b915061244e82612c66565b602082019050919050565b60006124666005836129b4565b915061247182612c8f565b602082019050919050565b60006124896004836129b4565b915061249482612cb8565b602082019050919050565b60006124ac6004836129b4565b91506124b782612ce1565b602082019050919050565b60006124cf6004836129b4565b91506124da82612d0a565b602082019050919050565b600060c0830160008301518482036000860152612502828261237d565b9150506020830151612517602086018261229e565b50604083015161252a604086018261259a565b50606083015161253d606086018261259a565b5060808301518482036080860152612555828261209c565b91505060a083015184820360a086015261256f828261209c565b9150508091505092915050565b61258581612a8d565b82525050565b61259481612a8d565b82525050565b6125a381612a8d565b82525050565b60006125b582846122da565b915081905092915050565b60006040820190506125d5600083018561207e565b81810360208301526125e781846120fa565b90509392505050565b6000602082019050818103600083015261260a818461215f565b905092915050565b6000602082019050612627600083018461228f565b92915050565b600060608201905061264260008301866122ad565b818103602083015261265481856121c4565b90506126636040830184612280565b949350505050565b600060808201905061268060008301876122bc565b61268d602083018661258b565b818103604083015261269f8185612344565b905081810360608301526126b38184612222565b905095945050505050565b600060208201905081810360008301526126d8818461230b565b905092915050565b600060408201905081810360008301526126fa818561230b565b9050818103602083015261270e81846123b6565b90509392505050565b6000602082019050818103600083015261273081612436565b9050919050565b6000602082019050818103600083015261275081612459565b9050919050565b600060208201905081810360008301526127708161247c565b9050919050565b600060208201905081810360008301526127908161249f565b9050919050565b600060208201905081810360008301526127b0816124c2565b9050919050565b600060208201905081810360008301526127d181846124e5565b905092915050565b60006040820190506127ee600083018561258b565b6127fb60208301846121bd565b9392505050565b600061280c61281d565b90506128188282612b25565b919050565b6000604051905090565b600067ffffffffffffffff82111561284257612841612be3565b5b602082029050602081019050919050565b600067ffffffffffffffff82111561286e5761286d612be3565b5b61287782612c48565b9050602081019050919050565b6000819050602082019050919050565b60008190508160005260206000209050919050565b6000819050602082019050919050565b6000819050602082019050919050565b60008190508160005260206000209050919050565b600081519050919050565b600081549050919050565b600081519050919050565b600081519050919050565b600081519050919050565b600081519050919050565b6000602082019050919050565b6000600182019050919050565b6000602082019050919050565b6000602082019050919050565b600082825260208201905092915050565b600082825260208201905092915050565b600082825260208201905092915050565b600082825260208201905092915050565b600082825260208201905092915050565b600081905092915050565b600082825260208201905092915050565b600082825260208201905092915050565b600082825260208201905092915050565b60006129f282612a8d565b91506129fd83612a8d565b925082821015612a1057612a0f612b56565b5b828203905092915050565b600073ffffffffffffffffffffffffffffffffffffffff82169050919050565b6000612a4682612a6d565b9050919050565b60008115159050919050565b6000819050919050565b6000819050919050565b600073ffffffffffffffffffffffffffffffffffffffff82169050919050565b6000819050919050565b82818337600083830152505050565b60005b83811015612ac4578082015181840152602081019050612aa9565b83811115612ad3576000848401525b50505050565b60006002820490506001821680612af157607f821691505b60208210811415612b0557612b04612b85565b5b50919050565b6000612b1e612b1983612c59565b612a1b565b9050919050565b612b2e82612c48565b810181811067ffffffffffffffff82111715612b4d57612b4c612be3565b5b80604052505050565b7f4e487b7100000000000000000000000000000000000000000000000000000000600052601160045260246000fd5b7f4e487b7100000000000000000000000000000000000000000000000000000000600052602260045260246000fd5b7f4e487b7100000000000000000000000000000000000000000000000000000000600052603260045260246000fd5b7f4e487b7100000000000000000000000000000000000000000000000000000000600052604160045260246000fd5b6000612c1e8254612b0b565b9050919050565b600080fd5b600080fd5b600080fd5b600080fd5b600080fd5b600080fd5b600080fd5b6000601f19601f8301169050919050565b60008160001c9050919050565b7f454332372d000000000000000000000000000000000000000000000000000000600082015250565b7f454332382d000000000000000000000000000000000000000000000000000000600082015250565b7f4543362d00000000000000000000000000000000000000000000000000000000600082015250565b7f4543372d00000000000000000000000000000000000000000000000000000000600082015250565b7f4543352d00000000000000000000000000000000000000000000000000000000600082015250565b612d3c81612a3b565b8114612d4757600080fd5b50565b612d5381612a4d565b8114612d5e57600080fd5b50565b612d6a81612a59565b8114612d7557600080fd5b50565b612d8181612a63565b8114612d8c57600080fd5b50565b612d9881612a8d565b8114612da357600080fd5b5056fea2646970667358221220e94f2295319d43fcf8768ea2012524cbdeb0cce74137a6f121a029e5b393713364736f6c63430008070033",
  "immutableReferences": {},
  "source": "// SPDX-License-Identifier: GPL-3.0\r\n\r\npragma solidity 0.8.7;\r\n\r\n/*\r\nCommon functionality for all Items\r\n  Items -> Certificate & Entities(Owners & Providers & Pools)\r\n    Item Identity : \r\n       - activated : Item is activated (true/false)\r\n       - info : Item info\r\n       - id : Item id (only is item is activated)\r\n       - pendingId : Item id in activation/deletion pending list (only if item is been added or removed)\r\n       - validations[] : List of address that validated the item (accepted its activation or deletion)\r\n       - rejections[] : List of address that rejected the item (rejected its activation or deletion)\r\n    Items structure:\r\n        - mapping bytes32 to Item identity\r\n        - List of currently activated items (id -> to reference from item identity)\r\n        - List of currently pending Items to be activated (pendingId -> to reference from item identity)\r\n        - List of currently pending Items to be deleted (pendingId -> to reference from item identity)\r\n\r\nFunctionality (with basic security check)\r\n    - Add Item\r\n    - Remove Item\r\n    - Validate Item creation/removal\r\n    - Reject Item creation/removal\r\n  \r\n  Events : \r\n  Item Type(string) - Item(bytes32) - Item info(string)\r\n    - Item activation validated\r\n    - Item activation rejected\r\n    - Item deletion validated\r\n    - Item deletion rejected\r\n  \r\n */\r\n\r\nimport \"./Library.sol\";\r\nimport \"../Libraries/AddressLibrary.sol\";\r\n\r\nlibrary ItemsLibrary{\r\n    using AddressLibrary for *;\r\n    using Library for *;\r\n\r\n    // EVENTS /////////////////////////////////////////\r\n    event _AddItemValidation(string ItemType,  bytes32 indexed Item,  string Info);\r\n    event _RemoveItemValidation(string ItemType,  bytes32 indexed Item,  string Info);\r\n    event _AddItemRejection(string ItemType,  bytes32 indexed Item,  string Info);\r\n    event _RemoveItemRejection( string ItemType,  bytes32 indexed Item,  string Info);\r\n\r\n    // FUNCTIONS for MODIFIERS /////////////////////////////////////////\r\n    function ItemNotActivated(bytes32 item, _ItemsStruct storage itemStruct) public view {\r\n        require(false == isItem(item, itemStruct), \"EC6-\");\r\n    }\r\n\r\n    function ItemActivated(bytes32 item, _ItemsStruct storage itemStruct) public view {\r\n        require(true == isItem(item, itemStruct), \"EC7-\");\r\n    }\r\n\r\n    function ItemNotPending(bytes32 item, _ItemsStruct storage itemStruct) public view{\r\n        require(false == isItemPendingToAdded(item, itemStruct) && \r\n                false == isItemPendingToRemoved(item, itemStruct), \"EC27-\");\r\n    }\r\n\r\n    function ItemPending(bytes32 item, _ItemsStruct storage itemStruct) public view{\r\n        require(true == isItemPendingToAdded(item, itemStruct) ||\r\n                true == isItemPendingToRemoved(item, itemStruct), \"EC28-\");\r\n    }\r\n\r\n    function HasNotAlreadyVoted(address addr, bytes32 item, _ItemsStruct storage itemStruct) public view{\r\n        require(false == hasVoted(addr, item, itemStruct), \"EC5-\");\r\n    }\r\n    \r\n    // DATA /////////////////////////////////////////\r\n    struct _issuerStruct{\r\n        address owner;\r\n        string name;\r\n        string symbol;\r\n        Library.PaymentPlans paymentPlan;\r\n    }\r\n\r\n    struct _pendingIssuerStruct{\r\n        _issuerStruct issuer;\r\n        address[] _Validations;\r\n        address[] _Rejections;\r\n    }\r\n\r\n    struct _offerStruct{\r\n        uint256 offer;\r\n        address sender;\r\n        address bidder;\r\n        uint256 deadline; \r\n    }\r\n    \r\n    struct _itemIdentity{\r\n        string _Info;\r\n        bool _activated;\r\n        uint _id;\r\n        uint _pendingId;\r\n        address[] _Validations;\r\n        address[] _Rejections;\r\n    }\r\n\r\n    struct _ItemsStruct{\r\n        mapping(bytes32 => _itemIdentity) _items;\r\n        bytes32[] _activatedItems;\r\n        bytes32[] _pendingItemsAdd;\r\n        bytes32[] _pendingItemsRemove;\r\n    }\r\n\r\n    // structured used as input parameter for CRUD functions\r\n    struct _manipulateItemStruct{\r\n        bytes32 item;\r\n        string info;\r\n        uint256 _minSignatures;\r\n        string ItemTypeLabel; // Certificate, owner, provider, pool\r\n        uint[] ids; // Ids that will be returned to callback when item activation/deletion has been validated/rejected \r\n    }\r\n\r\n    \r\n    // AUX FUNCTIONALITY /////////////////////////////////////////\r\n    function CheckValidations(uint256 signatures, uint256 minSignatures) public pure returns(bool){\r\n        if(signatures < minSignatures) return false;\r\n        return true;\r\n    }\r\n\r\n    function ReturnManipulateStructContent(_manipulateItemStruct memory manipulateItemstruct) public pure returns(bytes32, uint, string memory, uint[] memory)\r\n    {\r\n        return(manipulateItemstruct.item,\r\n         manipulateItemstruct._minSignatures,\r\n         manipulateItemstruct.ItemTypeLabel,\r\n         manipulateItemstruct.ids);\r\n    }\r\n\r\n    function deleteVoters(bytes32 item, _ItemsStruct storage itemStruct) public{\r\n        delete(itemStruct._items[item]._Rejections);\r\n        delete(itemStruct._items[item]._Validations);\r\n        itemStruct._items[item]._pendingId = 0;\r\n    }\r\n\r\n    // Remove Item from array and resize (not keeping order) it reindexing the item that was moved\r\n    function RemoveResizePending(bool addOrRemove, bytes32 item, _ItemsStruct storage itemStruct) public\r\n    {\r\n        bytes32[] storage arrayToRemoveResize = (addOrRemove)? itemStruct._pendingItemsAdd : itemStruct._pendingItemsRemove;\r\n        uint position = itemStruct._items[item]._pendingId;\r\n\r\n        Library.ArrayRemoveResize(position, arrayToRemoveResize);\r\n\r\n        if(position < arrayToRemoveResize.length){\r\n            bytes32 ItemMoved = arrayToRemoveResize[position];\r\n            itemStruct._items[ItemMoved]._pendingId = position;\r\n        }\r\n\r\n    }\r\n\r\n    function RemoveResizeActivated(bytes32 item, _ItemsStruct storage itemStruct) public\r\n    {\r\n        bytes32[] storage arrayToRemoveResize = itemStruct._activatedItems;\r\n        uint position = itemStruct._items[item]._id;\r\n\r\n        Library.ArrayRemoveResize(position, arrayToRemoveResize);\r\n\r\n        if(position < arrayToRemoveResize.length){\r\n            bytes32 ItemMoved = arrayToRemoveResize[position];\r\n            itemStruct._items[ItemMoved]._id = position;\r\n        }\r\n\r\n    }\r\n\r\n    // MAIN FUNCTIONALITY /////////////////////////////////////////\r\n    function addItem(_manipulateItemStruct memory manipulateItemstruct, _ItemsStruct storage itemStruct, address callerContract) public\r\n    {\r\n        ItemNotActivated(manipulateItemstruct.item, itemStruct);\r\n        ItemNotPending(manipulateItemstruct.item, itemStruct);\r\n\r\n        bytes32 item = manipulateItemstruct.item;\r\n        string memory info = manipulateItemstruct.info;\r\n\r\n        itemStruct._items[item]._Info = info;\r\n        itemStruct._pendingItemsAdd.push(item);\r\n        itemStruct._items[item]._pendingId = itemStruct._pendingItemsAdd.length - 1;\r\n        \r\n        validateItem(manipulateItemstruct, itemStruct, callerContract);\r\n    }\r\n     \r\n    function removeItem(_manipulateItemStruct memory manipulateItemstruct, _ItemsStruct storage itemStruct, address callerContract) public\r\n    {\r\n        ItemActivated(manipulateItemstruct.item, itemStruct);\r\n        ItemNotPending(manipulateItemstruct.item, itemStruct);\r\n\r\n        bytes32 item = manipulateItemstruct.item;\r\n\r\n        itemStruct._pendingItemsRemove.push(item);\r\n        itemStruct._items[item]._pendingId = itemStruct._pendingItemsRemove.length - 1;\r\n\r\n        validateItem(manipulateItemstruct, itemStruct, callerContract);\r\n    }\r\n\r\n    function validateItem(_manipulateItemStruct memory manipulateItemstruct, _ItemsStruct storage itemStruct, address callerContract) public\r\n    {\r\n        ItemPending(manipulateItemstruct.item, itemStruct);\r\n        HasNotAlreadyVoted(msg.sender, manipulateItemstruct.item, itemStruct);\r\n\r\n        (bytes32 item, uint _minSignatures, string memory ItemTypeLabel, uint[] memory ids) = ReturnManipulateStructContent(manipulateItemstruct);\r\n\r\n        itemStruct._items[item]._Validations.push(msg.sender);\r\n\r\n        if(CheckValidations(itemStruct._items[item]._Validations.length, _minSignatures))\r\n        {\r\n            if(isItemPendingToAdded(item, itemStruct))\r\n            {\r\n                itemStruct._items[item]._activated = true; \r\n                itemStruct._activatedItems.push(item);\r\n                itemStruct._items[item]._id = itemStruct._activatedItems.length - 1;\r\n\r\n                RemoveResizePending(true, item, itemStruct);\r\n\r\n                (bool success, bytes memory data) = callerContract.call(abi.encodeWithSignature(\"onItemValidated(bytes32,uint256[],bool)\", item, ids, true));\r\n                require(success, string(data));\r\n                \r\n                deleteVoters(item, itemStruct);\r\n                emit _AddItemValidation(ItemTypeLabel, item, itemStruct._items[item]._Info);\r\n            }\r\n            else{\r\n                RemoveResizeActivated(item, itemStruct);\r\n                RemoveResizePending(false, item, itemStruct);\r\n\r\n                (bool success, bytes memory data) = callerContract.call(abi.encodeWithSignature(\"onItemValidated(bytes32,uint256[],bool)\", item, ids, false));\r\n                require(success, string(data));\r\n\r\n                emit _RemoveItemValidation(ItemTypeLabel, item, itemStruct._items[item]._Info);\r\n                delete(itemStruct._items[item]);\r\n            }   \r\n        }\r\n    }\r\n\r\n    function rejectItem(_manipulateItemStruct memory manipulateItemstruct, _ItemsStruct storage itemStruct, address callerContract) public\r\n    {\r\n        ItemPending(manipulateItemstruct.item, itemStruct);\r\n        HasNotAlreadyVoted(msg.sender, manipulateItemstruct.item, itemStruct);\r\n\r\n        (bytes32 item, uint _minSignatures, string memory ItemTypeLabel, uint[] memory ids) = ReturnManipulateStructContent(manipulateItemstruct);\r\n\r\n        itemStruct._items[item]._Rejections.push(msg.sender);\r\n\r\n        if(CheckValidations(itemStruct._items[item]._Rejections.length, _minSignatures))\r\n        {\r\n\r\n            if(isItemPendingToAdded(item, itemStruct))\r\n            {\r\n                RemoveResizePending(true, item, itemStruct);\r\n\r\n                (bool success, bytes memory data) = callerContract.call(abi.encodeWithSignature(\"onItemRejected(bytes32,uint256[],bool)\", item, ids, true)); \r\n                require(success, string(data));\r\n\r\n                emit _AddItemRejection(ItemTypeLabel, item, itemStruct._items[item]._Info);\r\n                delete(itemStruct._items[item]);\r\n            }\r\n            else\r\n            {\r\n                RemoveResizePending(false, item, itemStruct);\r\n\r\n                (bool success, bytes memory data) = callerContract.call(abi.encodeWithSignature(\"onItemRejected(bytes32,uint256[],bool)\", item, ids, false));\r\n                require(success, string(data));\r\n\r\n                deleteVoters(item, itemStruct);\r\n                emit _RemoveItemRejection(ItemTypeLabel, item, itemStruct._items[item]._Info);\r\n            }\r\n                \r\n        }\r\n    }\r\n\r\n\r\n    // READ Data\r\n\r\n    function isItem(bytes32 item, _ItemsStruct storage itemStruct) public view returns(bool){\r\n        return itemStruct._items[item]._activated;\r\n    }\r\n\r\n    function isItemPendingToAdded(bytes32 item, _ItemsStruct storage itemStruct) public view returns(bool)\r\n    {\r\n        if(itemStruct._pendingItemsAdd.length > itemStruct._items[item]._pendingId){\r\n            if(item == itemStruct._pendingItemsAdd[itemStruct._items[item]._pendingId]) return true;\r\n        }\r\n        return false;\r\n    }\r\n\r\n    function isItemPendingToRemoved(bytes32 item, _ItemsStruct storage itemStruct) public view returns(bool)\r\n    {\r\n        if(itemStruct._pendingItemsRemove.length > itemStruct._items[item]._pendingId){\r\n            if(item == itemStruct._pendingItemsRemove[itemStruct._items[item]._pendingId]) return true;\r\n        }\r\n        return false;\r\n    }\r\n\r\n    function retrievePendingItems(bool addORemove, _ItemsStruct storage itemStruct) public view returns (bytes32[] memory)\r\n    {\r\n        bytes32[] memory Items;\r\n\r\n        if(addORemove) Items = itemStruct._pendingItemsAdd;\r\n        else Items = itemStruct._pendingItemsRemove;\r\n        \r\n        return Items;\r\n    }\r\n\r\n    function retrieveItem(bytes32 item, _ItemsStruct storage itemStruct) public view returns (_itemIdentity memory) \r\n    {\r\n        return (itemStruct._items[item]);\r\n    }\r\n\r\n    function retrieveAllItems(_ItemsStruct storage itemStruct) public view returns (bytes32[] memory) \r\n    {\r\n        return itemStruct._activatedItems;\r\n    }\r\n\r\n    function hasVoted(address add, bytes32 item, _ItemsStruct storage itemStruct) public view returns (bool) \r\n    {\r\n        return (AddressLibrary.FindAddress(add, itemStruct._items[item]._Validations) ||\r\n                AddressLibrary.FindAddress(add, itemStruct._items[item]._Rejections));\r\n    }\r\n\r\n}",
  "sourcePath": "C:\\Users\\d-aam\\GitHub\\Originals\\contracts\\Libraries\\ItemsLibrary.sol",
  "compiler": {
    "name": "solc",
    "version": "0.8.7+commit.e28d00a7.Emscripten.clang"
  },
  "schemaVersion": "3.4.3",
  "updatedAt": "2022-01-21T14:18:14.364Z",
  "devdoc": {
    "kind": "dev",
    "methods": {},
    "version": 1
  },
  "userdoc": {
    "kind": "user",
    "methods": {},
    "version": 1
  }
}