{
  "contractName": "ItemsLibrary",
  "abi": [
    {
      "inputs": [
        {
          "internalType": "uint256",
          "name": "signatures",
          "type": "uint256"
        },
        {
          "internalType": "uint256",
          "name": "minSignatures",
          "type": "uint256"
        }
      ],
      "name": "CheckValidations",
      "outputs": [
        {
          "internalType": "bool",
          "name": "",
          "type": "bool"
        }
      ],
      "stateMutability": "pure",
      "type": "function"
    }
  ],
  "bytecode": "0x61016f610053600b82828239805160001a607314610046577f4e487b7100000000000000000000000000000000000000000000000000000000600052600060045260246000fd5b30600052607381538281f3fe73000000000000000000000000000000000000000030146080604052600436106100355760003560e01c8063f6001d7d1461003a575b600080fd5b610054600480360381019061004f919061009d565b61006a565b60405161006191906100ec565b60405180910390f35b60008183101561007d5760009050610082565b600190505b92915050565b60008135905061009781610122565b92915050565b600080604083850312156100b4576100b361011d565b5b60006100c285828601610088565b92505060206100d385828601610088565b9150509250929050565b6100e681610107565b82525050565b600060208201905061010160008301846100dd565b92915050565b60008115159050919050565b6000819050919050565b600080fd5b61012b81610113565b811461013657600080fd5b5056fea2646970667358221220d874234965f39830de4beaf03c02a6e09039de884d85ae75f9cda627e64bce4b64736f6c63430008070033",
  "immutableReferences": {},
  "source": "// SPDX-License-Identifier: GPL-3.0\r\n\r\npragma solidity 0.8.7;\r\n\r\n/*\r\nCommon functionality for all Items\r\n  Items -> Certificate & Entities(Owners & Providers & Pools)\r\n    Item Identity : \r\n       - activated : Item is activated (true/false)\r\n       - info : Item info\r\n       - id : Item id (only is item is activated)\r\n       - pendingId : Item id in activation/deletion pending list (only if item is been added or removed)\r\n       - validations[] : List of address that validated the item (accepted its activation or deletion)\r\n       - rejections[] : List of address that rejected the item (rejected its activation or deletion)\r\n    Items structure:\r\n        - mapping bytes32 to Item identity\r\n        - List of currently activated items (id -> to reference from item identity)\r\n        - List of currently pending Items to be activated (pendingId -> to reference from item identity)\r\n        - List of currently pending Items to be deleted (pendingId -> to reference from item identity)\r\n\r\nFunctionality (with basic security check)\r\n    - Add Item\r\n    - Remove Item\r\n    - Validate Item creation/removal\r\n    - Reject Item creation/removal\r\n  \r\n  Events : \r\n  Item Type(string) - Item(bytes32) - Item info(string)\r\n    - Item activation validated\r\n    - Item activation rejected\r\n    - Item deletion validated\r\n    - Item deletion rejected\r\n  \r\n */\r\n\r\nimport \"./Library.sol\";\r\nimport \"../Libraries/AddressLibrary.sol\";\r\n\r\nlibrary ItemsLibrary{\r\n    using AddressLibrary for *;\r\n    using Library for *;\r\n\r\n    // EVENTS /////////////////////////////////////////\r\n    /*event _AddItemValidation(string ItemType,  bytes32 indexed Item,  string Info);\r\n    event _RemoveItemValidation(string ItemType,  bytes32 indexed Item,  string Info);\r\n    event _AddItemRejection(string ItemType,  bytes32 indexed Item,  string Info);\r\n    event _RemoveItemRejection( string ItemType,  bytes32 indexed Item,  string Info);\r\n\r\n    // FUNCTIONS for MODIFIERS /////////////////////////////////////////\r\n    function ItemNotActivated(bytes32 item, _ItemsStruct storage itemStruct) public view {\r\n        require(false == isItem(item, itemStruct), \"EC6-\");\r\n    }\r\n\r\n    function ItemActivated(bytes32 item, _ItemsStruct storage itemStruct) public view {\r\n        require(true == isItem(item, itemStruct), \"EC7-\");\r\n    }\r\n\r\n    function ItemNotPending(bytes32 item, _ItemsStruct storage itemStruct) public view{\r\n        require(false == isItemPendingToAdded(item, itemStruct) && \r\n                false == isItemPendingToRemoved(item, itemStruct), \"EC27-\");\r\n    }\r\n\r\n    function ItemPending(bytes32 item, _ItemsStruct storage itemStruct) public view{\r\n        require(true == isItemPendingToAdded(item, itemStruct) ||\r\n                true == isItemPendingToRemoved(item, itemStruct), \"EC28-\");\r\n    }\r\n\r\n    function HasNotAlreadyVoted(address addr, bytes32 item, _ItemsStruct storage itemStruct) public view{\r\n        require(false == hasVoted(addr, item, itemStruct), \"EC5-\");\r\n    }*/\r\n    \r\n    // DATA /////////////////////////////////////////\r\n    struct _issuerStruct{\r\n        address _owner;\r\n        string _name;\r\n        string _symbol;\r\n        Library.PaymentPlans _paymentPlan;\r\n    }\r\n\r\n    struct _pendingIssuerStruct{\r\n        _issuerStruct _issuer;\r\n        uint _pendingId;\r\n        uint _validations;\r\n        uint _rejections;\r\n        address[] _voters;\r\n    }\r\n\r\n    struct _offerStruct{\r\n        uint256 offer;\r\n        address sender;\r\n        address bidder;\r\n        uint256 deadline; \r\n    }\r\n\r\n  /*  \r\n    struct _itemIdentity{\r\n        string _Info;\r\n        bool _activated;\r\n        uint _id;\r\n        uint _pendingId;\r\n        address[] _Validations;\r\n        address[] _Rejections;\r\n    }\r\n\r\n    struct _ItemsStruct{\r\n        mapping(bytes32 => _itemIdentity) _items;\r\n        bytes32[] _activatedItems;\r\n        bytes32[] _pendingItemsAdd;\r\n        bytes32[] _pendingItemsRemove;\r\n    }\r\n\r\n    // structured used as input parameter for CRUD functions\r\n    struct _manipulateItemStruct{\r\n        bytes32 item;\r\n        string info;\r\n        uint256 _minSignatures;\r\n        string ItemTypeLabel; // Certificate, owner, provider, pool\r\n        uint[] ids; // Ids that will be returned to callback when item activation/deletion has been validated/rejected \r\n    }*/\r\n\r\n    \r\n    // AUX FUNCTIONALITY /////////////////////////////////////////\r\n    function CheckValidations(uint256 signatures, uint256 minSignatures) public pure returns(bool){\r\n        if(signatures < minSignatures) return false;\r\n        return true;\r\n    }\r\n\r\n    /*function ReturnManipulateStructContent(_manipulateItemStruct memory manipulateItemstruct) public pure returns(bytes32, uint, string memory, uint[] memory)\r\n    {\r\n        return(manipulateItemstruct.item,\r\n         manipulateItemstruct._minSignatures,\r\n         manipulateItemstruct.ItemTypeLabel,\r\n         manipulateItemstruct.ids);\r\n    }\r\n\r\n    function deleteVoters(bytes32 item, _ItemsStruct storage itemStruct) public{\r\n        delete(itemStruct._items[item]._Rejections);\r\n        delete(itemStruct._items[item]._Validations);\r\n        itemStruct._items[item]._pendingId = 0;\r\n    }\r\n\r\n    // Remove Item from array and resize (not keeping order) it reindexing the item that was moved\r\n    function RemoveResizePending(bool addOrRemove, bytes32 item, _ItemsStruct storage itemStruct) public\r\n    {\r\n        bytes32[] storage arrayToRemoveResize = (addOrRemove)? itemStruct._pendingItemsAdd : itemStruct._pendingItemsRemove;\r\n        uint position = itemStruct._items[item]._pendingId;\r\n\r\n        Library.ArrayRemoveResize(position, arrayToRemoveResize);\r\n\r\n        if(position < arrayToRemoveResize.length){\r\n            bytes32 ItemMoved = arrayToRemoveResize[position];\r\n            itemStruct._items[ItemMoved]._pendingId = position;\r\n        }\r\n\r\n    }\r\n\r\n    function RemoveResizeActivated(bytes32 item, _ItemsStruct storage itemStruct) public\r\n    {\r\n        bytes32[] storage arrayToRemoveResize = itemStruct._activatedItems;\r\n        uint position = itemStruct._items[item]._id;\r\n\r\n        Library.ArrayRemoveResize(position, arrayToRemoveResize);\r\n\r\n        if(position < arrayToRemoveResize.length){\r\n            bytes32 ItemMoved = arrayToRemoveResize[position];\r\n            itemStruct._items[ItemMoved]._id = position;\r\n        }\r\n\r\n    }\r\n\r\n    // MAIN FUNCTIONALITY /////////////////////////////////////////\r\n    function addItem(_manipulateItemStruct memory manipulateItemstruct, _ItemsStruct storage itemStruct, address callerContract) public\r\n    {\r\n        ItemNotActivated(manipulateItemstruct.item, itemStruct);\r\n        ItemNotPending(manipulateItemstruct.item, itemStruct);\r\n\r\n        bytes32 item = manipulateItemstruct.item;\r\n        string memory info = manipulateItemstruct.info;\r\n\r\n        itemStruct._items[item]._Info = info;\r\n        itemStruct._pendingItemsAdd.push(item);\r\n        itemStruct._items[item]._pendingId = itemStruct._pendingItemsAdd.length - 1;\r\n        \r\n        validateItem(manipulateItemstruct, itemStruct, callerContract);\r\n    }\r\n     \r\n    function removeItem(_manipulateItemStruct memory manipulateItemstruct, _ItemsStruct storage itemStruct, address callerContract) public\r\n    {\r\n        ItemActivated(manipulateItemstruct.item, itemStruct);\r\n        ItemNotPending(manipulateItemstruct.item, itemStruct);\r\n\r\n        bytes32 item = manipulateItemstruct.item;\r\n\r\n        itemStruct._pendingItemsRemove.push(item);\r\n        itemStruct._items[item]._pendingId = itemStruct._pendingItemsRemove.length - 1;\r\n\r\n        validateItem(manipulateItemstruct, itemStruct, callerContract);\r\n    }\r\n\r\n    function validateItem(_manipulateItemStruct memory manipulateItemstruct, _ItemsStruct storage itemStruct, address callerContract) public\r\n    {\r\n        ItemPending(manipulateItemstruct.item, itemStruct);\r\n        HasNotAlreadyVoted(msg.sender, manipulateItemstruct.item, itemStruct);\r\n\r\n        (bytes32 item, uint _minSignatures, string memory ItemTypeLabel, uint[] memory ids) = ReturnManipulateStructContent(manipulateItemstruct);\r\n\r\n        itemStruct._items[item]._Validations.push(msg.sender);\r\n\r\n        if(CheckValidations(itemStruct._items[item]._Validations.length, _minSignatures))\r\n        {\r\n            if(isItemPendingToAdded(item, itemStruct))\r\n            {\r\n                itemStruct._items[item]._activated = true; \r\n                itemStruct._activatedItems.push(item);\r\n                itemStruct._items[item]._id = itemStruct._activatedItems.length - 1;\r\n\r\n                RemoveResizePending(true, item, itemStruct);\r\n\r\n                (bool success, bytes memory data) = callerContract.call(abi.encodeWithSignature(\"onItemValidated(bytes32,uint256[],bool)\", item, ids, true));\r\n                require(success, string(data));\r\n                \r\n                deleteVoters(item, itemStruct);\r\n                emit _AddItemValidation(ItemTypeLabel, item, itemStruct._items[item]._Info);\r\n            }\r\n            else{\r\n                RemoveResizeActivated(item, itemStruct);\r\n                RemoveResizePending(false, item, itemStruct);\r\n\r\n                (bool success, bytes memory data) = callerContract.call(abi.encodeWithSignature(\"onItemValidated(bytes32,uint256[],bool)\", item, ids, false));\r\n                require(success, string(data));\r\n\r\n                emit _RemoveItemValidation(ItemTypeLabel, item, itemStruct._items[item]._Info);\r\n                delete(itemStruct._items[item]);\r\n            }   \r\n        }\r\n    }\r\n\r\n    function rejectItem(_manipulateItemStruct memory manipulateItemstruct, _ItemsStruct storage itemStruct, address callerContract) public\r\n    {\r\n        ItemPending(manipulateItemstruct.item, itemStruct);\r\n        HasNotAlreadyVoted(msg.sender, manipulateItemstruct.item, itemStruct);\r\n\r\n        (bytes32 item, uint _minSignatures, string memory ItemTypeLabel, uint[] memory ids) = ReturnManipulateStructContent(manipulateItemstruct);\r\n\r\n        itemStruct._items[item]._Rejections.push(msg.sender);\r\n\r\n        if(CheckValidations(itemStruct._items[item]._Rejections.length, _minSignatures))\r\n        {\r\n\r\n            if(isItemPendingToAdded(item, itemStruct))\r\n            {\r\n                RemoveResizePending(true, item, itemStruct);\r\n\r\n                (bool success, bytes memory data) = callerContract.call(abi.encodeWithSignature(\"onItemRejected(bytes32,uint256[],bool)\", item, ids, true)); \r\n                require(success, string(data));\r\n\r\n                emit _AddItemRejection(ItemTypeLabel, item, itemStruct._items[item]._Info);\r\n                delete(itemStruct._items[item]);\r\n            }\r\n            else\r\n            {\r\n                RemoveResizePending(false, item, itemStruct);\r\n\r\n                (bool success, bytes memory data) = callerContract.call(abi.encodeWithSignature(\"onItemRejected(bytes32,uint256[],bool)\", item, ids, false));\r\n                require(success, string(data));\r\n\r\n                deleteVoters(item, itemStruct);\r\n                emit _RemoveItemRejection(ItemTypeLabel, item, itemStruct._items[item]._Info);\r\n            }\r\n                \r\n        }\r\n    }\r\n\r\n\r\n    // READ Data\r\n\r\n    function isItem(bytes32 item, _ItemsStruct storage itemStruct) public view returns(bool){\r\n        return itemStruct._items[item]._activated;\r\n    }\r\n\r\n    function isItemPendingToAdded(bytes32 item, _ItemsStruct storage itemStruct) public view returns(bool)\r\n    {\r\n        if(itemStruct._pendingItemsAdd.length > itemStruct._items[item]._pendingId){\r\n            if(item == itemStruct._pendingItemsAdd[itemStruct._items[item]._pendingId]) return true;\r\n        }\r\n        return false;\r\n    }\r\n\r\n    function isItemPendingToRemoved(bytes32 item, _ItemsStruct storage itemStruct) public view returns(bool)\r\n    {\r\n        if(itemStruct._pendingItemsRemove.length > itemStruct._items[item]._pendingId){\r\n            if(item == itemStruct._pendingItemsRemove[itemStruct._items[item]._pendingId]) return true;\r\n        }\r\n        return false;\r\n    }\r\n\r\n    function retrievePendingItems(bool addORemove, _ItemsStruct storage itemStruct) public view returns (bytes32[] memory)\r\n    {\r\n        bytes32[] memory Items;\r\n\r\n        if(addORemove) Items = itemStruct._pendingItemsAdd;\r\n        else Items = itemStruct._pendingItemsRemove;\r\n        \r\n        return Items;\r\n    }\r\n\r\n    function retrieveItem(bytes32 item, _ItemsStruct storage itemStruct) public view returns (_itemIdentity memory) \r\n    {\r\n        return (itemStruct._items[item]);\r\n    }\r\n\r\n    function retrieveAllItems(_ItemsStruct storage itemStruct) public view returns (bytes32[] memory) \r\n    {\r\n        return itemStruct._activatedItems;\r\n    }\r\n\r\n    function hasVoted(address add, bytes32 item, _ItemsStruct storage itemStruct) public view returns (bool) \r\n    {\r\n        return (AddressLibrary.FindAddress(add, itemStruct._items[item]._Validations) ||\r\n                AddressLibrary.FindAddress(add, itemStruct._items[item]._Rejections));\r\n    }*/\r\n\r\n}",
  "sourcePath": "C:\\Users\\d-aam\\GitHub\\Originals\\contracts\\Libraries\\ItemsLibrary.sol",
  "compiler": {
    "name": "solc",
    "version": "0.8.7+commit.e28d00a7.Emscripten.clang"
  },
  "schemaVersion": "3.4.3",
  "updatedAt": "2022-01-24T12:38:14.663Z",
  "devdoc": {
    "kind": "dev",
    "methods": {},
    "version": 1
  },
  "userdoc": {
    "kind": "user",
    "methods": {},
    "version": 1
  }
}