{
  "contractName": "ItemsLibrary",
  "abi": [
    {
      "inputs": [
        {
          "internalType": "uint256",
          "name": "signatures",
          "type": "uint256"
        },
        {
          "internalType": "uint256",
          "name": "minSignatures",
          "type": "uint256"
        }
      ],
      "name": "CheckValidations",
      "outputs": [
        {
          "internalType": "bool",
          "name": "",
          "type": "bool"
        }
      ],
      "stateMutability": "pure",
      "type": "function"
    }
  ],
  "bytecode": "0x610a1461003a600b82828239805160001a60731461002d57634e487b7160e01b600052600060045260246000fd5b30600052607381538281f3fe73000000000000000000000000000000000000000030146080604052600436106100825760003560e01c806326162dc31461008757806338335327146100ad578063b9b41f06146100cf578063e5185113146100ef578063e9b318b114610102578063effd07fc14610122578063f6001d7d1461014a578063fd3f205a1461016d575b600080fd5b61009a6100953660046106ff565b61018d565b6040519081526020015b60405180910390f35b8180156100b957600080fd5b506100cd6100c8366004610795565b6101b2565b005b8180156100db57600080fd5b506100cd6100ea366004610795565b61020e565b61009a6100fd366004610718565b6103b5565b6101156101103660046106ff565b6103cb565b6040516100a4919061082d565b6101356101303660046106ff565b610427565b604080519283526020830191909152016100a4565b61015d610158366004610718565b61054a565b60405190151581526020016100a4565b81801561017957600080fd5b506100cd61018836600461073a565b610565565b600080600061019b84610427565b90925090506101aa818361090f565b949350505050565b8115610209576000818152602084905260409020546101e557600180840180549182018155600090815260209020018190555b600081815260208490526040812080548492906102039084906108f7565b90915550505b505050565b60008181526020849052604090205482111561027c5760405162461bcd60e51b815260206004820152602260248201527f4e6f7420656e6f7567682062616c616e636520666f722074686973206661637460448201526137b960f11b60648201526084015b60405180910390fd5b6000818152602084905260408120805484929061029a908490610950565b90915550506000818152602084905260409020546102095773__UintLibrary___________________________63cffd93cd73__UintLibrary___________________________63c5fc6b0284876001016040518363ffffffff1660e01b81526004016103089291906108a4565b60206040518083038186803b15801561032057600080fd5b505af4158015610334573d6000803e3d6000fd5b505050506040513d601f19601f8201168201806040525081019061035891906107c1565b6040516001600160e01b031960e084901b168152600481019190915260018601602482015260440160006040518083038186803b15801561039857600080fd5b505af41580156103ac573d6000803e3d6000fd5b50505050505050565b6000818152602083905260409020545b92915050565b60608160010180548060200260200160405190810160405280929190818152602001828054801561041b57602002820191906000526020600020905b815481526020019060010190808311610407575b50505050509050919050565b6000806000610435846103cb565b9050600073__UintLibrary___________________________63f254becc836040518263ffffffff1660e01b8152600401610470919061082d565b60206040518083038186803b15801561048857600080fd5b505af415801561049c573d6000803e3d6000fd5b505050506040513d601f19601f820116820180604052508101906104c091906107c1565b90506000805b835181101561053f578381815181106104e1576104e16109c8565b60200260200101518361050d89878581518110610500576105006109c8565b60200260200101516103b5565b6105179190610931565b610521919061090f565b61052b90836108f7565b91508061053781610997565b9150506104c6565b509590945092505050565b60008183101561055c575060006103c5565b50600192915050565b8261056f8561018d565b10156105bb5760405162461bcd60e51b815260206004820152601b60248201527a10d85b9b9bdd081dda5d1a191c985dc81d1a185d08185b5bdd5b9d602a1b6044820152606401610273565b60006105c6856103cb565b90506000806105d487610427565b909250905060006105e58288610931565b6105ef9084610950565b905060005b845181101561064857610636896106178b888581518110610500576105006109c8565b878481518110610629576106296109c8565b602002602001015161020e565b8061064081610997565b9150506105f4565b506106548882846101b2565b84156106f557600080876001600160a01b03168960405160006040518083038185875af1925050503d80600081146106a8576040519150601f19603f3d011682016040523d82523d6000602084013e6106ad565b606091505b509150915081816040516020016106c491906107da565b604051602081830303815290604052906106f15760405162461bcd60e51b81526004016102739190610871565b5050505b5050505050505050565b60006020828403121561071157600080fd5b5035919050565b6000806040838503121561072b57600080fd5b50508035926020909101359150565b6000806000806080858703121561075057600080fd5b843593506020850135925060408501356001600160a01b038116811461077557600080fd5b91506060850135801515811461078a57600080fd5b939692955090935050565b6000806000606084860312156107aa57600080fd5b505081359360208301359350604090920135919050565b6000602082840312156107d357600080fd5b5051919050565b7f4572726f72207472616e73666572696e672066756e647320746f206164647265815264039b9901d160dd1b602082015260008251610820816025850160208701610967565b9190910160250192915050565b6020808252825182820181905260009190848201906040850190845b8181101561086557835183529284019291840191600101610849565b50909695505050505050565b6020815260008251806020840152610890816040850160208701610967565b601f01601f19169190910160400192915050565b60006040820184835260206040818501528185548084526060860191508660005282600020935060005b818110156108ea578454835260019485019492840192016108ce565b5090979650505050505050565b6000821982111561090a5761090a6109b2565b500190565b60008261092c57634e487b7160e01b600052601260045260246000fd5b500490565b600081600019048311821515161561094b5761094b6109b2565b500290565b600082821015610962576109626109b2565b500390565b60005b8381101561098257818101518382015260200161096a565b83811115610991576000848401525b50505050565b60006000198214156109ab576109ab6109b2565b5060010190565b634e487b7160e01b600052601160045260246000fd5b634e487b7160e01b600052603260045260246000fdfea2646970667358221220d99a75ca599d5e1a3eb5e5183a75daee1130477821159875c3d1d664d76f1d5d64736f6c63430008070033",
  "immutableReferences": {},
  "source": "// SPDX-License-Identifier: GPL-3.0\r\n\r\npragma solidity 0.8.7;\r\n\r\nimport \"./Library.sol\";\r\nimport \"./UintLibrary.sol\";\r\n\r\nlibrary ItemsLibrary{\r\n    using UintLibrary for *;\r\n    using Library for *;\r\n    \r\n    // DATA /////////////////////////////////////////\r\n    struct _issuerStruct{\r\n        address _owner;\r\n        string _name;\r\n        string _symbol;\r\n        uint256 _feeAmount;\r\n        uint256 _feeDecimals;\r\n        Library.PaymentPlans _paymentPlan;\r\n    }\r\n\r\n    struct _pendingIssuerStruct{\r\n        _issuerStruct _issuer;\r\n        uint _pendingId;\r\n        uint _validations;\r\n        uint _rejections;\r\n        address[] _voters;\r\n    }\r\n\r\n    struct _offerStruct{\r\n        uint256 _offer;\r\n        address _sender;\r\n        address _bidder;\r\n        uint256 _deadline; \r\n    }\r\n\r\n    struct _tokenStruct{\r\n        Library.PaymentPlans _paymentPlan;\r\n        uint256 _price;\r\n    }\r\n\r\n    // dividends per token owner\r\n    struct _BalanceStruct{\r\n        mapping(uint => uint) _balance;\r\n        uint[] _factors;\r\n    }\r\n    \r\n    // AUX FUNCTIONALITY /////////////////////////////////////////\r\n    function CheckValidations(uint256 signatures, uint256 minSignatures) public pure returns(bool){\r\n        if(signatures < minSignatures) return false;\r\n        return true;\r\n    }\r\n\r\n    // TREASURY & NFTMarket///////////////////////////\r\n    function InternalWithdraw(_BalanceStruct storage balance, uint amount, address to, bool transfer) public \r\n    {\r\n        require(checkFullBalance(balance) >= amount, \"Cannot withdraw that amount\");\r\n\r\n        uint[] memory f = returnFactors(balance);\r\n        (uint total, uint commonDividend) = sumUpTotal(balance);\r\n        uint remainder =  total - (amount * commonDividend);\r\n\r\n        for(uint i=0; i < f.length; i++){\r\n            substractBalance(balance, returnBalanceForFactor(balance, f[i]), f[i]);\r\n        }\r\n\r\n        addBalance(balance, remainder, commonDividend);\r\n\r\n        if(transfer){\r\n            (bool success, bytes memory data) = to.call{value: amount}(\"\");\r\n            require(success, string(abi.encodePacked(\"Error transfering funds to address : \", data)));\r\n        }\r\n    }\r\n\r\n    function addBalance(_BalanceStruct storage balance, uint amount, uint factor) public\r\n    {\r\n        if(amount > 0){\r\n            if(0 == balance._balance[factor])\r\n            {\r\n                balance._factors.push(factor);\r\n            }\r\n            balance._balance[factor] += amount;\r\n        }\r\n    }\r\n\r\n    function substractBalance(_BalanceStruct storage balance, uint amount, uint factor) public\r\n    {\r\n        require(balance._balance[factor] >= amount, \"Not enough balance for this factor\");\r\n\r\n        balance._balance[factor] -= amount;\r\n\r\n        if(0 == balance._balance[factor])\r\n        {\r\n            UintLibrary.UintArrayRemoveResize(UintLibrary.FindUintPosition(factor, balance._factors), balance._factors);\r\n        }\r\n        \r\n    }\r\n\r\n    function checkFullBalance(_BalanceStruct storage balance) public view returns(uint)\r\n    {\r\n        (uint total, uint commonDividend) = sumUpTotal(balance);\r\n\r\n        return total / commonDividend;\r\n    }\r\n\r\n    function sumUpTotal(_BalanceStruct storage balance) public view returns (uint, uint)\r\n    {\r\n        uint[] memory f = returnFactors(balance);\r\n        uint CommonDividend = UintLibrary.ProductOfFactors(f);\r\n        uint total = 0;\r\n\r\n        for(uint i=0; i < f.length; i++){\r\n            total += returnBalanceForFactor(balance, f[i]) * CommonDividend / f[i];\r\n        }\r\n\r\n        return (total, CommonDividend);\r\n    }\r\n\r\n\r\n    function returnFactors(_BalanceStruct storage balance) public view returns(uint[] memory)\r\n    {\r\n        return balance._factors;\r\n    }\r\n\r\n    function returnBalanceForFactor(_BalanceStruct storage balance, uint factor) public view returns(uint)\r\n    {\r\n        return balance._balance[factor];\r\n    }\r\n\r\n}",
  "sourcePath": "C:\\Users\\d-aam\\GitHub\\Originals\\contracts\\Libraries\\ItemsLibrary.sol",
  "compiler": {
    "name": "solc",
    "version": "0.8.7+commit.e28d00a7.Emscripten.clang"
  },
  "schemaVersion": "3.4.3",
  "updatedAt": "2022-01-25T15:06:11.929Z",
  "devdoc": {
    "kind": "dev",
    "methods": {},
    "version": 1
  },
  "userdoc": {
    "kind": "user",
    "methods": {},
    "version": 1
  }
}