{
  "contractName": "Library",
  "abi": [
    {
      "inputs": [
        {
          "internalType": "uint256",
          "name": "fee",
          "type": "uint256"
        },
        {
          "internalType": "uint256",
          "name": "decimals",
          "type": "uint256"
        }
      ],
      "name": "validFees",
      "outputs": [],
      "stateMutability": "pure",
      "type": "function"
    },
    {
      "inputs": [
        {
          "internalType": "uint256",
          "name": "Id",
          "type": "uint256"
        },
        {
          "internalType": "uint256",
          "name": "length",
          "type": "uint256"
        }
      ],
      "name": "IdCorrect",
      "outputs": [],
      "stateMutability": "pure",
      "type": "function"
    },
    {
      "inputs": [
        {
          "internalType": "address",
          "name": "addr",
          "type": "address"
        },
        {
          "internalType": "address",
          "name": "someone",
          "type": "address"
        }
      ],
      "name": "ItIsSomeone",
      "outputs": [],
      "stateMutability": "pure",
      "type": "function"
    },
    {
      "inputs": [
        {
          "internalType": "bytes32[]",
          "name": "element",
          "type": "bytes32[]"
        }
      ],
      "name": "Bytes32ArrayToString",
      "outputs": [
        {
          "internalType": "string",
          "name": "",
          "type": "string"
        }
      ],
      "stateMutability": "pure",
      "type": "function"
    },
    {
      "inputs": [
        {
          "internalType": "bytes",
          "name": "_b",
          "type": "bytes"
        }
      ],
      "name": "BytestoBytes32",
      "outputs": [
        {
          "internalType": "bytes32[]",
          "name": "",
          "type": "bytes32[]"
        }
      ],
      "stateMutability": "pure",
      "type": "function"
    },
    {
      "inputs": [
        {
          "internalType": "bytes32",
          "name": "_b",
          "type": "bytes32"
        }
      ],
      "name": "Bytes32toBytes",
      "outputs": [
        {
          "internalType": "bytes",
          "name": "",
          "type": "bytes"
        }
      ],
      "stateMutability": "pure",
      "type": "function"
    }
  ],
  "bytecode": "0x61088e61003a600b82828239805160001a60731461002d57634e487b7160e01b600052600060045260246000fd5b30600052607381538281f3fe73000000000000000000000000000000000000000030146080604052600436106100775760003560e01c80632477a0ea1461007c57806337ea3063146100915780634b648f11146100a45780639bc6133c146100cd578063bdbff487146100e0578063caa8f589146100f3578063e4ef9c3214610113575b600080fd5b61008f61008a366004610570565b610133565b005b61008f61009f3660046103e4565b610178565b6100b76100b2366004610417565b6101c2565b6040516100c49190610659565b60405180910390f35b6100b76100db3660046104c3565b6101eb565b61008f6100ee366004610570565b610200565b6101066101013660046104dc565b610274565b6040516100c49190610615565b81801561011f57600080fd5b5061008f61012e366004610570565b610346565b8181116101745760405162461bcd60e51b815260040161016b906020808252600490820152634543312d60e01b604082015260600190565b60405180910390fd5b5050565b816001600160a01b0316816001600160a01b0316146101745760405162461bcd60e51b815260040161016b906020808252600490820152634543382d60e01b604082015260600190565b6060816040516020016101d591906105df565b6040516020818303038152906040529050919050565b6060816040516020016101d591815260200190565b61020b81600a610720565b6102169060646107ca565b8211156101745760405162461bcd60e51b815260206004820152602660248201527f666565732063616e6e6f74206265206c6172676572207468616e203130302070604482015265195c98d95b9d60d21b606482015260840161016b565b606060006020835161028691906106bb565b905060006102958260016106a3565b6001600160401b038111156102ac576102ac610842565b6040519080825280602002602001820160405280156102d5578160200160208202803683370190505b5090506000805b855181101561033c576000806102f38360206106a3565b90508088015191508185858151811061030e5761030e61082c565b60209081029190910101526103246001856106a3565b9350505080602061033591906106a3565b90506102dc565b5090949350505050565b8054610353908390610133565b80548190610363906001906107e9565b815481106103735761037361082c565b90600052602060002001548183815481106103905761039061082c565b9060005260206000200181905550808054806103ae576103ae610816565b600190038181906000526020600020016000905590555050565b80356001600160a01b03811681146103df57600080fd5b919050565b600080604083850312156103f757600080fd5b610400836103c8565b915061040e602084016103c8565b90509250929050565b6000602080838503121561042a57600080fd5b82356001600160401b038082111561044157600080fd5b818501915085601f83011261045557600080fd5b81358181111561046757610467610842565b8060051b9150610478848301610673565b8181528481019084860184860187018a101561049357600080fd5b600095505b838610156104b6578035835260019590950194918601918601610498565b5098975050505050505050565b6000602082840312156104d557600080fd5b5035919050565b600060208083850312156104ef57600080fd5b82356001600160401b038082111561050657600080fd5b818501915085601f83011261051a57600080fd5b81358181111561052c5761052c610842565b61053e601f8201601f19168501610673565b9150808252868482850101111561055457600080fd5b8084840185840137600090820190930192909252509392505050565b6000806040838503121561058357600080fd5b50508035926020909101359150565b6000815180845260005b818110156105b85760208185018101518683018201520161059c565b818111156105ca576000602083870101525b50601f01601f19169290920160200192915050565b815160009082906020808601845b83811015610609578151855293820193908201906001016105ed565b50929695505050505050565b6020808252825182820181905260009190848201906040850190845b8181101561064d57835183529284019291840191600101610631565b50909695505050505050565b60208152600061066c6020830184610592565b9392505050565b604051601f8201601f191681016001600160401b038111828210171561069b5761069b610842565b604052919050565b600082198211156106b6576106b6610800565b500190565b6000826106d857634e487b7160e01b600052601260045260246000fd5b500490565b600181815b808511156107185781600019048211156106fe576106fe610800565b8085161561070b57918102915b93841c93908002906106e2565b509250929050565b600061066c8383600082610736575060016107c4565b81610743575060006107c4565b816001811461075957600281146107635761077f565b60019150506107c4565b60ff84111561077457610774610800565b50506001821b6107c4565b5060208310610133831016604e8410600b84101617156107a2575081810a6107c4565b6107ac83836106dd565b80600019048211156107c0576107c0610800565b0290505b92915050565b60008160001904831182151516156107e4576107e4610800565b500290565b6000828210156107fb576107fb610800565b500390565b634e487b7160e01b600052601160045260246000fd5b634e487b7160e01b600052603160045260246000fd5b634e487b7160e01b600052603260045260246000fd5b634e487b7160e01b600052604160045260246000fdfea264697066735822122024890198f2ee850c26cd216e85cfe48be826f220a5cc7fa6087f08854e56d10a64736f6c63430008070033",
  "immutableReferences": {},
  "source": "// SPDX-License-Identifier: GPL-3.0\r\n\r\npragma solidity 0.8.7;\r\n\r\n/*\r\nCommon functionality for all contracts and libraries\r\n*/\r\n\r\nlibrary Library{\r\n\r\n    // DATA /////////////////////////////////////////\r\n    // enum\r\n    enum PaymentPlans{Minting, TransferFee}\r\n    enum Prices{NewIssuerFee, MintingFee, AdminMintingFee, TransferFeeAmount, TransferFeeDecimals, AdminTransferFeeAmount, AdminTransferFeeDecimals, OffersLifeTime}\r\n    enum TransparentProxies{Manager, PublicPool, Treasury, Originals, PropSettings, NFTFactory, AdminPiggyBank}\r\n    enum Beacons{NFT}\r\n\r\n    // Structures\r\n    // Certificate Manager\r\n    struct ProposedContractsStruct{\r\n        address[] TransparentAddresses;\r\n        address[] BeaconAddresses;\r\n        bytes[] TransparentData;\r\n        string PrivatePoolContractName;\r\n        string PrivatePoolContractVersion;\r\n    }\r\n\r\n    // FUNCTIONALITY /////////////////////////////////////////\r\n    function validFees(uint256 fee, uint256 decimals) public pure{\r\n      require(fee <= 100 * 10**decimals, \"fees cannot be larger than 100 percent\");\r\n    }\r\n\r\n    function IdCorrect(uint Id, uint length) public pure{\r\n        require(length > Id, \"EC1-\");\r\n    }\r\n\r\n    function ItIsSomeone(address addr, address someone) public pure{\r\n        require(someone == addr, \"EC8-\");\r\n    }\r\n\r\n    function ArrayRemoveResize(uint index, bytes32[] storage array) public \r\n    {\r\n        IdCorrect(index, array.length);\r\n        array[index] = array[array.length - 1];\r\n        array.pop();\r\n    }\r\n\r\n    function Bytes32ArrayToString(bytes32[] memory element) public pure returns(string memory){\r\n        return string(abi.encodePacked(element));\r\n    }\r\n\r\n    function BytestoBytes32(bytes memory _b) public pure returns(bytes32[] memory){\r\n        uint num = _b.length / 32;\r\n        bytes32[] memory result = new bytes32[](num + 1);\r\n        uint t = 0;\r\n        \r\n        for(uint i=0; i<_b.length; i = i + 32){\r\n            bytes32 r;\r\n            uint p = i + 32;\r\n             assembly {\r\n                r := mload(add(_b, p))\r\n            }\r\n            result[t] = r;\r\n            t += 1;\r\n        }\r\n       \r\n        return result;\r\n    }\r\n\r\n    function Bytes32toBytes(bytes32 _b) public pure returns(bytes memory){\r\n        return abi.encodePacked(_b);\r\n    }\r\n    \r\n}",
  "sourcePath": "C:\\Users\\d-aam\\GitHub\\Originals\\contracts\\Libraries\\Library.sol",
  "compiler": {
    "name": "solc",
    "version": "0.8.7+commit.e28d00a7.Emscripten.clang"
  },
  "schemaVersion": "3.4.3",
  "updatedAt": "2022-01-25T13:35:48.481Z",
  "devdoc": {
    "kind": "dev",
    "methods": {},
    "version": 1
  },
  "userdoc": {
    "kind": "user",
    "methods": {},
    "version": 1
  }
}