{
  "contractName": "Library",
  "abi": [
    {
      "inputs": [
        {
          "internalType": "uint256",
          "name": "Id",
          "type": "uint256"
        },
        {
          "internalType": "uint256",
          "name": "length",
          "type": "uint256"
        }
      ],
      "name": "IdCorrect",
      "outputs": [],
      "stateMutability": "pure",
      "type": "function"
    },
    {
      "inputs": [
        {
          "internalType": "address",
          "name": "addr",
          "type": "address"
        },
        {
          "internalType": "address",
          "name": "someone",
          "type": "address"
        }
      ],
      "name": "ItIsSomeone",
      "outputs": [],
      "stateMutability": "pure",
      "type": "function"
    },
    {
      "inputs": [
        {
          "internalType": "bytes32[]",
          "name": "element",
          "type": "bytes32[]"
        }
      ],
      "name": "Bytes32ArrayToString",
      "outputs": [
        {
          "internalType": "string",
          "name": "",
          "type": "string"
        }
      ],
      "stateMutability": "pure",
      "type": "function"
    },
    {
      "inputs": [
        {
          "internalType": "bytes",
          "name": "_b",
          "type": "bytes"
        }
      ],
      "name": "BytestoBytes32",
      "outputs": [
        {
          "internalType": "bytes32[]",
          "name": "",
          "type": "bytes32[]"
        }
      ],
      "stateMutability": "pure",
      "type": "function"
    },
    {
      "inputs": [
        {
          "internalType": "bytes32",
          "name": "_b",
          "type": "bytes32"
        }
      ],
      "name": "Bytes32toBytes",
      "outputs": [
        {
          "internalType": "bytes",
          "name": "",
          "type": "bytes"
        }
      ],
      "stateMutability": "pure",
      "type": "function"
    }
  ],
  "bytecode": "0x610df9610053600b82828239805160001a607314610046577f4e487b7100000000000000000000000000000000000000000000000000000000600052600060045260246000fd5b30600052607381538281f3fe730000000000000000000000000000000000000000301460806040526004361061006c5760003560e01c80632477a0ea1461007157806337ea30631461008d5780634b648f11146100a95780639bc6133c146100d9578063caa8f58914610109578063e4ef9c3214610139575b600080fd5b61008b60048036038101906100869190610678565b610162565b005b6100a760048036038101906100a29190610539565b6101a8565b005b6100c360048036038101906100be9190610579565b61021a565b6040516100d09190610907565b60405180910390f35b6100f360048036038101906100ee91906105c2565b610243565b60405161010091906108e5565b60405180910390f35b610123600480360381019061011e91906105ef565b61026c565b60405161013091906108c3565b60405180910390f35b81801561014557600080fd5b50610160600480360381019061015b9190610638565b61034f565b005b8181116101a4576040517f08c379a000000000000000000000000000000000000000000000000000000000815260040161019b90610949565b60405180910390fd5b5050565b8173ffffffffffffffffffffffffffffffffffffffff168173ffffffffffffffffffffffffffffffffffffffff1614610216576040517f08c379a000000000000000000000000000000000000000000000000000000000815260040161020d90610929565b60405180910390fd5b5050565b60608160405160200161022d9190610891565b6040516020818303038152906040529050919050565b60608160405160200161025691906108a8565b6040516020818303038152906040529050919050565b606060006020835161027e9190610ace565b9050600060018261028f9190610a78565b67ffffffffffffffff8111156102a8576102a7610cbc565b5b6040519080825280602002602001820160405280156102d65781602001602082028036833780820191505090505b5090506000805b8551811015610343576000806020836102f69190610a78565b90508088015191508185858151811061031257610311610c8d565b5b60200260200101818152505060018461032b9190610a78565b9350505060208161033c9190610a78565b90506102dd565b50819350505050919050565b61035d828280549050610162565b806001828054905061036f9190610aff565b815481106103805761037f610c8d565b5b906000526020600020015481838154811061039e5761039d610c8d565b5b9060005260206000200181905550808054806103bd576103bc610c5e565b5b600190038181906000526020600020016000905590555050565b60006103ea6103e58461098e565b610969565b9050808382526020820190508285602086028201111561040d5761040c610cf0565b5b60005b8581101561043d578161042388826104e1565b845260208401935060208301925050600181019050610410565b5050509392505050565b600061045a610455846109ba565b610969565b90508281526020810184848401111561047657610475610cf5565b5b610481848285610b83565b509392505050565b60008135905061049881610d67565b92915050565b600082601f8301126104b3576104b2610ceb565b5b81356104c38482602086016103d7565b91505092915050565b6000813590506104db81610d7e565b92915050565b6000813590506104f081610d95565b92915050565b600082601f83011261050b5761050a610ceb565b5b813561051b848260208601610447565b91505092915050565b60008135905061053381610dac565b92915050565b600080604083850312156105505761054f610cff565b5b600061055e85828601610489565b925050602061056f85828601610489565b9150509250929050565b60006020828403121561058f5761058e610cff565b5b600082013567ffffffffffffffff8111156105ad576105ac610cfa565b5b6105b98482850161049e565b91505092915050565b6000602082840312156105d8576105d7610cff565b5b60006105e6848285016104e1565b91505092915050565b60006020828403121561060557610604610cff565b5b600082013567ffffffffffffffff81111561062357610622610cfa565b5b61062f848285016104f6565b91505092915050565b6000806040838503121561064f5761064e610cff565b5b600061065d85828601610524565b925050602061066e858286016104cc565b9150509250929050565b6000806040838503121561068f5761068e610cff565b5b600061069d85828601610524565b92505060206106ae85828601610524565b9150509250929050565b60006106c483836107a4565b60208301905092915050565b60006106dc83836107b3565b60208301905092915050565b60006106f3826109fb565b6106fd8185610a29565b9350610708836109eb565b8060005b8381101561073957815161072088826106d0565b975061072b83610a1c565b92505060018101905061070c565b5085935050505092915050565b6000610751826109fb565b61075b8185610a3a565b9350610766836109eb565b8060005b8381101561079757815161077e88826106b8565b975061078983610a1c565b92505060018101905061076a565b5085935050505092915050565b6107ad81610b4f565b82525050565b6107bc81610b4f565b82525050565b6107d36107ce82610b4f565b610bf6565b82525050565b60006107e482610a06565b6107ee8185610a45565b93506107fe818560208601610b92565b61080781610d04565b840191505092915050565b600061081d82610a11565b6108278185610a67565b9350610837818560208601610b92565b61084081610d04565b840191505092915050565b6000610858600483610a56565b915061086382610d15565b602082019050919050565b600061087b600483610a56565b915061088682610d3e565b602082019050919050565b600061089d8284610746565b915081905092915050565b60006108b482846107c2565b60208201915081905092915050565b600060208201905081810360008301526108dd81846106e8565b905092915050565b600060208201905081810360008301526108ff81846107d9565b905092915050565b600060208201905081810360008301526109218184610812565b905092915050565b600060208201905081810360008301526109428161084b565b9050919050565b600060208201905081810360008301526109628161086e565b9050919050565b6000610973610984565b905061097f8282610bc5565b919050565b6000604051905090565b600067ffffffffffffffff8211156109a9576109a8610cbc565b5b602082029050602081019050919050565b600067ffffffffffffffff8211156109d5576109d4610cbc565b5b6109de82610d04565b9050602081019050919050565b6000819050602082019050919050565b600081519050919050565b600081519050919050565b600081519050919050565b6000602082019050919050565b600082825260208201905092915050565b600081905092915050565b600082825260208201905092915050565b600082825260208201905092915050565b600082825260208201905092915050565b6000610a8382610b79565b9150610a8e83610b79565b9250827fffffffffffffffffffffffffffffffffffffffffffffffffffffffffffffffff03821115610ac357610ac2610c00565b5b828201905092915050565b6000610ad982610b79565b9150610ae483610b79565b925082610af457610af3610c2f565b5b828204905092915050565b6000610b0a82610b79565b9150610b1583610b79565b925082821015610b2857610b27610c00565b5b828203905092915050565b6000610b3e82610b59565b9050919050565b6000819050919050565b6000819050919050565b600073ffffffffffffffffffffffffffffffffffffffff82169050919050565b6000819050919050565b82818337600083830152505050565b60005b83811015610bb0578082015181840152602081019050610b95565b83811115610bbf576000848401525b50505050565b610bce82610d04565b810181811067ffffffffffffffff82111715610bed57610bec610cbc565b5b80604052505050565b6000819050919050565b7f4e487b7100000000000000000000000000000000000000000000000000000000600052601160045260246000fd5b7f4e487b7100000000000000000000000000000000000000000000000000000000600052601260045260246000fd5b7f4e487b7100000000000000000000000000000000000000000000000000000000600052603160045260246000fd5b7f4e487b7100000000000000000000000000000000000000000000000000000000600052603260045260246000fd5b7f4e487b7100000000000000000000000000000000000000000000000000000000600052604160045260246000fd5b600080fd5b600080fd5b600080fd5b600080fd5b600080fd5b6000601f19601f8301169050919050565b7f4543382d00000000000000000000000000000000000000000000000000000000600082015250565b7f4543312d00000000000000000000000000000000000000000000000000000000600082015250565b610d7081610b33565b8114610d7b57600080fd5b50565b610d8781610b45565b8114610d9257600080fd5b50565b610d9e81610b4f565b8114610da957600080fd5b50565b610db581610b79565b8114610dc057600080fd5b5056fea2646970667358221220b3d0aeabf8591b1060da32cfb6645c9bea4be0f8430d30d8405ed6d49d12265b64736f6c63430008070033",
  "immutableReferences": {},
  "source": "// SPDX-License-Identifier: GPL-3.0\r\n\r\npragma solidity 0.8.7;\r\n\r\n/*\r\nCommon functionality for all contracts and libraries\r\n*/\r\n\r\nlibrary Library{\r\n\r\n    // DATA /////////////////////////////////////////\r\n    // enum\r\n    enum PaymentPlans{Minting, TransferFee}\r\n    enum Prices{NewIssuer, TransferFee}\r\n    enum TransparentProxies{Manager, PublicPool, Treasury, Originals, PropSettings, NFTFactory}\r\n    enum Beacons{NFT}\r\n\r\n    // Structures\r\n    // Certificate Manager\r\n    struct ProposedContractsStruct{\r\n        address[] TransparentAddresses;\r\n        address[] BeaconAddresses;\r\n        bytes[] TransparentData;\r\n        string PrivatePoolContractName;\r\n        string PrivatePoolContractVersion;\r\n    }\r\n\r\n    // FUNCTIONALITY /////////////////////////////////////////\r\n    function IdCorrect(uint Id, uint length) public pure{\r\n        require(length > Id, \"EC1-\");\r\n    }\r\n\r\n    function ItIsSomeone(address addr, address someone) public pure{\r\n        require(someone == addr, \"EC8-\");\r\n    }\r\n\r\n    function ArrayRemoveResize(uint index, bytes32[] storage array) public \r\n    {\r\n        IdCorrect(index, array.length);\r\n        array[index] = array[array.length - 1];\r\n        array.pop();\r\n    }\r\n\r\n    function Bytes32ArrayToString(bytes32[] memory element) public pure returns(string memory){\r\n        return string(abi.encodePacked(element));\r\n    }\r\n\r\n    function BytestoBytes32(bytes memory _b) public pure returns(bytes32[] memory){\r\n        uint num = _b.length / 32;\r\n        bytes32[] memory result = new bytes32[](num + 1);\r\n        uint t = 0;\r\n        \r\n        for(uint i=0; i<_b.length; i = i + 32){\r\n            bytes32 r;\r\n            uint p = i + 32;\r\n             assembly {\r\n                r := mload(add(_b, p))\r\n            }\r\n            result[t] = r;\r\n            t += 1;\r\n        }\r\n       \r\n        return result;\r\n    }\r\n\r\n    function Bytes32toBytes(bytes32 _b) public pure returns(bytes memory){\r\n        return abi.encodePacked(_b);\r\n    }\r\n    \r\n}",
  "sourcePath": "C:\\Users\\d-aam\\GitHub\\Originals\\contracts\\Libraries\\Library.sol",
  "compiler": {
    "name": "solc",
    "version": "0.8.7+commit.e28d00a7.Emscripten.clang"
  },
  "schemaVersion": "3.4.3",
  "updatedAt": "2022-01-24T11:01:27.522Z",
  "devdoc": {
    "kind": "dev",
    "methods": {},
    "version": 1
  },
  "userdoc": {
    "kind": "user",
    "methods": {},
    "version": 1
  }
}