{
  "contractName": "Library",
  "abi": [
    {
      "inputs": [
        {
          "internalType": "uint256",
          "name": "fee",
          "type": "uint256"
        },
        {
          "internalType": "uint256",
          "name": "decimals",
          "type": "uint256"
        }
      ],
      "name": "validFees",
      "outputs": [],
      "stateMutability": "pure",
      "type": "function",
      "constant": true
    },
    {
      "inputs": [
        {
          "internalType": "uint256",
          "name": "Id",
          "type": "uint256"
        },
        {
          "internalType": "uint256",
          "name": "length",
          "type": "uint256"
        }
      ],
      "name": "IdCorrect",
      "outputs": [],
      "stateMutability": "pure",
      "type": "function",
      "constant": true
    },
    {
      "inputs": [
        {
          "internalType": "address",
          "name": "addr",
          "type": "address"
        },
        {
          "internalType": "address",
          "name": "someone",
          "type": "address"
        }
      ],
      "name": "ItIsSomeone",
      "outputs": [],
      "stateMutability": "pure",
      "type": "function",
      "constant": true
    },
    {
      "inputs": [
        {
          "internalType": "bytes32[]",
          "name": "element",
          "type": "bytes32[]"
        }
      ],
      "name": "Bytes32ArrayToString",
      "outputs": [
        {
          "internalType": "string",
          "name": "",
          "type": "string"
        }
      ],
      "stateMutability": "pure",
      "type": "function",
      "constant": true
    },
    {
      "inputs": [
        {
          "internalType": "bytes32[]",
          "name": "element",
          "type": "bytes32[]"
        }
      ],
      "name": "Bytes32ArrayToBytes",
      "outputs": [
        {
          "internalType": "bytes",
          "name": "",
          "type": "bytes"
        }
      ],
      "stateMutability": "pure",
      "type": "function",
      "constant": true
    },
    {
      "inputs": [
        {
          "internalType": "bytes",
          "name": "_b",
          "type": "bytes"
        }
      ],
      "name": "BytestoBytes32",
      "outputs": [
        {
          "internalType": "bytes32[]",
          "name": "",
          "type": "bytes32[]"
        }
      ],
      "stateMutability": "pure",
      "type": "function",
      "constant": true
    },
    {
      "inputs": [
        {
          "internalType": "bytes32",
          "name": "_b",
          "type": "bytes32"
        }
      ],
      "name": "Bytes32toBytes",
      "outputs": [
        {
          "internalType": "bytes",
          "name": "",
          "type": "bytes"
        }
      ],
      "stateMutability": "pure",
      "type": "function",
      "constant": true
    }
  ],
  "bytecode": "0x61089961003a600b82828239805160001a60731461002d57634e487b7160e01b600052600060045260246000fd5b30600052607381538281f3fe73000000000000000000000000000000000000000030146080604052600436106100825760003560e01c80632431a7cf146100875780632477a0ea146100b057806337ea3063146100c55780634b648f11146100875780639bc6133c146100d8578063bdbff487146100eb578063caa8f589146100fe578063e4ef9c321461011e575b600080fd5b61009a610095366004610422565b61013e565b6040516100a79190610664565b60405180910390f35b6100c36100be36600461057b565b610167565b005b6100c36100d33660046103ef565b6101ac565b61009a6100e63660046104ce565b6101f6565b6100c36100f936600461057b565b61020b565b61011161010c3660046104e7565b61027f565b6040516100a79190610620565b81801561012a57600080fd5b506100c361013936600461057b565b610351565b60608160405160200161015191906105ea565b6040516020818303038152906040529050919050565b8181116101a85760405162461bcd60e51b815260040161019f906020808252600490820152634543312d60e01b604082015260600190565b60405180910390fd5b5050565b816001600160a01b0316816001600160a01b0316146101a85760405162461bcd60e51b815260040161019f906020808252600490820152634543382d60e01b604082015260600190565b60608160405160200161015191815260200190565b61021681600a61072b565b6102219060646107d5565b8211156101a85760405162461bcd60e51b815260206004820152602660248201527f666565732063616e6e6f74206265206c6172676572207468616e203130302070604482015265195c98d95b9d60d21b606482015260840161019f565b606060006020835161029191906106c6565b905060006102a08260016106ae565b6001600160401b038111156102b7576102b761084d565b6040519080825280602002602001820160405280156102e0578160200160208202803683370190505b5090506000805b8551811015610347576000806102fe8360206106ae565b90508088015191508185858151811061031957610319610837565b602090810291909101015261032f6001856106ae565b9350505080602061034091906106ae565b90506102e7565b5090949350505050565b805461035e908390610167565b8054819061036e906001906107f4565b8154811061037e5761037e610837565b906000526020600020015481838154811061039b5761039b610837565b9060005260206000200181905550808054806103b9576103b9610821565b600190038181906000526020600020016000905590555050565b80356001600160a01b03811681146103ea57600080fd5b919050565b6000806040838503121561040257600080fd5b61040b836103d3565b9150610419602084016103d3565b90509250929050565b6000602080838503121561043557600080fd5b82356001600160401b038082111561044c57600080fd5b818501915085601f83011261046057600080fd5b8135818111156104725761047261084d565b8060051b915061048384830161067e565b8181528481019084860184860187018a101561049e57600080fd5b600095505b838610156104c15780358352600195909501949186019186016104a3565b5098975050505050505050565b6000602082840312156104e057600080fd5b5035919050565b600060208083850312156104fa57600080fd5b82356001600160401b038082111561051157600080fd5b818501915085601f83011261052557600080fd5b8135818111156105375761053761084d565b610549601f8201601f1916850161067e565b9150808252868482850101111561055f57600080fd5b8084840185840137600090820190930192909252509392505050565b6000806040838503121561058e57600080fd5b50508035926020909101359150565b6000815180845260005b818110156105c3576020818501810151868301820152016105a7565b818111156105d5576000602083870101525b50601f01601f19169290920160200192915050565b815160009082906020808601845b83811015610614578151855293820193908201906001016105f8565b50929695505050505050565b6020808252825182820181905260009190848201906040850190845b818110156106585783518352928401929184019160010161063c565b50909695505050505050565b602081526000610677602083018461059d565b9392505050565b604051601f8201601f191681016001600160401b03811182821017156106a6576106a661084d565b604052919050565b600082198211156106c1576106c161080b565b500190565b6000826106e357634e487b7160e01b600052601260045260246000fd5b500490565b600181815b808511156107235781600019048211156107095761070961080b565b8085161561071657918102915b93841c93908002906106ed565b509250929050565b60006106778383600082610741575060016107cf565b8161074e575060006107cf565b8160018114610764576002811461076e5761078a565b60019150506107cf565b60ff84111561077f5761077f61080b565b50506001821b6107cf565b5060208310610133831016604e8410600b84101617156107ad575081810a6107cf565b6107b783836106e8565b80600019048211156107cb576107cb61080b565b0290505b92915050565b60008160001904831182151516156107ef576107ef61080b565b500290565b6000828210156108065761080661080b565b500390565b634e487b7160e01b600052601160045260246000fd5b634e487b7160e01b600052603160045260246000fd5b634e487b7160e01b600052603260045260246000fd5b634e487b7160e01b600052604160045260246000fdfea2646970667358221220488002ebad2e2e046bab291378a265af5b1adbd67c8dcca4163add33add635eb64736f6c63430008070033",
  "immutableReferences": {},
  "source": "// SPDX-License-Identifier: GPL-3.0\r\n\r\npragma solidity 0.8.7;\r\n\r\n/*\r\nCommon functionality for all contracts and libraries\r\n*/\r\n\r\nlibrary Library{\r\n\r\n    // DATA /////////////////////////////////////////\r\n    // enum\r\n    enum PaymentPlans{Minting, TransferFee}\r\n    enum Prices{NewIssuerFee, AdminNewIssuerFee, MintingFee, AdminMintingFee, TransferFeeAmount, TransferFeeDecimals, AdminTransferFeeAmount, AdminTransferFeeDecimals, OffersLifeTime}\r\n    enum TransparentProxies{Manager, PublicPool, Treasury, Originals, PropSettings, AdminPiggyBank, Payments}\r\n    enum Beacons{NFT}\r\n    enum PublicPoolPaymentTypes{SendCredit, TransferUnassignedCredit}\r\n\r\n\r\n    // Structures\r\n    // Certificate Manager\r\n    struct ProposedContractsStruct{\r\n        address[] TransparentAddresses;\r\n        address[] BeaconAddresses;\r\n        bytes[] TransparentData;\r\n    }\r\n\r\n    // FUNCTIONALITY /////////////////////////////////////////\r\n    function validFees(uint256 fee, uint256 decimals) public pure{\r\n      require(fee <= 100 * 10**decimals, \"fees cannot be larger than 100 percent\");\r\n    }\r\n\r\n    function IdCorrect(uint Id, uint length) public pure{\r\n        require(length > Id, \"EC1-\");\r\n    }\r\n\r\n    function ItIsSomeone(address addr, address someone) public pure{\r\n        require(someone == addr, \"EC8-\");\r\n    }\r\n\r\n    function ArrayRemoveResize(uint index, bytes32[] storage array) public \r\n    {\r\n        IdCorrect(index, array.length);\r\n        array[index] = array[array.length - 1];\r\n        array.pop();\r\n    }\r\n\r\n    function Bytes32ArrayToString(bytes32[] memory element) public pure returns(string memory){\r\n        return string(abi.encodePacked(element));\r\n    }\r\n\r\n    function Bytes32ArrayToBytes(bytes32[] memory element) public pure returns(bytes memory){\r\n        return abi.encodePacked(element);\r\n    }\r\n\r\n    function BytestoBytes32(bytes memory _b) public pure returns(bytes32[] memory){\r\n        uint num = _b.length / 32;\r\n        bytes32[] memory result = new bytes32[](num + 1);\r\n        uint t = 0;\r\n        \r\n        for(uint i=0; i<_b.length; i = i + 32){\r\n            bytes32 r;\r\n            uint p = i + 32;\r\n             assembly {\r\n                r := mload(add(_b, p))\r\n            }\r\n            result[t] = r;\r\n            t += 1;\r\n        }\r\n       \r\n        return result;\r\n    }\r\n\r\n    function Bytes32toBytes(bytes32 _b) public pure returns(bytes memory){\r\n        return abi.encodePacked(_b);\r\n    }\r\n    \r\n}",
  "sourcePath": "C:\\Users\\d-aam\\GitHub\\Originals\\contracts\\Libraries\\Library.sol",
  "compiler": {
    "name": "solc",
    "version": "0.8.7+commit.e28d00a7.Emscripten.clang"
  },
  "schemaVersion": "3.4.3",
  "updatedAt": "2022-02-16T08:47:29.466Z",
  "networkType": "ethereum",
  "devdoc": {
    "kind": "dev",
    "methods": {},
    "version": 1
  },
  "userdoc": {
    "kind": "user",
    "methods": {},
    "version": 1
  }
}