{
  "contractName": "ManagedBaseContract",
  "abi": [
    {
      "inputs": [],
      "name": "retrieveManagerContract",
      "outputs": [
        {
          "internalType": "address",
          "name": "",
          "type": "address"
        }
      ],
      "stateMutability": "view",
      "type": "function"
    }
  ],
  "bytecode": "0x608060405234801561001057600080fd5b5060fc8061001f6000396000f3fe6080604052348015600f57600080fd5b506004361060285760003560e01c80635b362e8414602d575b600080fd5b60336047565b604051603e9190607d565b60405180910390f35b60008060029054906101000a900473ffffffffffffffffffffffffffffffffffffffff16905090565b6077816096565b82525050565b6000602082019050609060008301846070565b92915050565b6000609f8260a6565b9050919050565b600073ffffffffffffffffffffffffffffffffffffffff8216905091905056fea264697066735822122026c6a5ff18371ea0ebd2ae46dac731ca7cc604de563b58fa91ad10f79a5b782864736f6c63430008070033",
  "immutableReferences": {},
  "source": "// SPDX-License-Identifier: GPL-3.0\r\n\r\npragma solidity 0.8.7;\r\n\r\n/*\r\n  Manager Contract is a Base contract that simply adds a manager contract as a reference for multiple operations\r\n */\r\n\r\nimport \"../Libraries/Library.sol\";\r\nimport \"../Interfaces/IManager.sol\";\r\nimport \"@openzeppelin/contracts-upgradeable/proxy/utils/Initializable.sol\";\r\n\r\ncontract ManagedBaseContract is Initializable{\r\n    using Library for *;\r\n\r\n    // DATA /////////////////////////////////////////\r\n    IManager internal _managerContract;\r\n\r\n    // MODIFIERS /////////////////////////////////////////\r\n     modifier isFromManagerContract(address addr){\r\n        Library.ItIsSomeone(addr, address(_managerContract));\r\n        _;\r\n    }\r\n\r\n    // CONSTRUCTOR /////////////////////////////////////////\r\n    function ManagedBaseContract_init(address managerContractAddress) internal initializer {\r\n        _managerContract = IManager(managerContractAddress);\r\n    }\r\n\r\n    // FUNCTIONALITY /////////////////////////////////////////\r\n    function retrieveManagerContract() external view returns(address){\r\n        return address(_managerContract);\r\n    }\r\n\r\n}",
  "sourcePath": "C:\\Users\\d-aam\\GitHub\\Originals\\contracts\\Base\\ManagedBaseContract.sol",
  "compiler": {
    "name": "solc",
    "version": "0.8.7+commit.e28d00a7.Emscripten.clang"
  },
  "schemaVersion": "3.4.3",
  "updatedAt": "2022-01-24T11:01:27.450Z",
  "devdoc": {
    "kind": "dev",
    "methods": {},
    "version": 1
  },
  "userdoc": {
    "kind": "user",
    "methods": {},
    "version": 1
  }
}