{
  "contractName": "MarketsCredits",
  "abi": [
    {
      "anonymous": false,
      "inputs": [
        {
          "indexed": true,
          "internalType": "uint256",
          "name": "NFTMarketId",
          "type": "uint256"
        },
        {
          "indexed": true,
          "internalType": "uint256",
          "name": "tokenID",
          "type": "uint256"
        },
        {
          "indexed": true,
          "internalType": "address",
          "name": "receiver",
          "type": "address"
        },
        {
          "indexed": false,
          "internalType": "uint256",
          "name": "amount",
          "type": "uint256"
        },
        {
          "indexed": false,
          "internalType": "uint256",
          "name": "factor",
          "type": "uint256"
        },
        {
          "indexed": false,
          "internalType": "uint256",
          "name": "paymentTokenID",
          "type": "uint256"
        }
      ],
      "name": "_CreditAssigned",
      "type": "event"
    },
    {
      "anonymous": false,
      "inputs": [
        {
          "indexed": true,
          "internalType": "address",
          "name": "receiver",
          "type": "address"
        },
        {
          "indexed": false,
          "internalType": "uint256",
          "name": "amount",
          "type": "uint256"
        },
        {
          "indexed": true,
          "internalType": "address",
          "name": "sender",
          "type": "address"
        },
        {
          "indexed": false,
          "internalType": "uint256",
          "name": "paymentTokenID",
          "type": "uint256"
        }
      ],
      "name": "_CreditReceived",
      "type": "event"
    },
    {
      "anonymous": false,
      "inputs": [
        {
          "indexed": true,
          "internalType": "uint256",
          "name": "NFTMarketId",
          "type": "uint256"
        },
        {
          "indexed": true,
          "internalType": "uint256",
          "name": "tokenID",
          "type": "uint256"
        },
        {
          "indexed": true,
          "internalType": "address",
          "name": "creditor",
          "type": "address"
        },
        {
          "indexed": false,
          "internalType": "uint256",
          "name": "amount",
          "type": "uint256"
        },
        {
          "indexed": false,
          "internalType": "uint256",
          "name": "paymentTokenID",
          "type": "uint256"
        }
      ],
      "name": "_CreditReused",
      "type": "event"
    },
    {
      "anonymous": false,
      "inputs": [
        {
          "indexed": true,
          "internalType": "uint256",
          "name": "NFTMarketId",
          "type": "uint256"
        },
        {
          "indexed": true,
          "internalType": "address",
          "name": "from",
          "type": "address"
        },
        {
          "indexed": false,
          "internalType": "uint256",
          "name": "amount",
          "type": "uint256"
        },
        {
          "indexed": true,
          "internalType": "address",
          "name": "to",
          "type": "address"
        },
        {
          "indexed": false,
          "internalType": "uint256",
          "name": "paymentTokenID",
          "type": "uint256"
        }
      ],
      "name": "_CreditSpent",
      "type": "event"
    },
    {
      "anonymous": false,
      "inputs": [
        {
          "indexed": true,
          "internalType": "uint256",
          "name": "NFTMarketId",
          "type": "uint256"
        },
        {
          "indexed": true,
          "internalType": "uint256",
          "name": "tokenID",
          "type": "uint256"
        },
        {
          "indexed": false,
          "internalType": "uint256",
          "name": "amount",
          "type": "uint256"
        },
        {
          "indexed": false,
          "internalType": "uint256",
          "name": "paymentTokenID",
          "type": "uint256"
        }
      ],
      "name": "_CreditUnAssignedReceived",
      "type": "event"
    },
    {
      "anonymous": false,
      "inputs": [
        {
          "indexed": true,
          "internalType": "address",
          "name": "withdrawer",
          "type": "address"
        },
        {
          "indexed": false,
          "internalType": "uint256",
          "name": "amount",
          "type": "uint256"
        },
        {
          "indexed": false,
          "internalType": "uint256",
          "name": "paymentTokenID",
          "type": "uint256"
        }
      ],
      "name": "_CreditWithdrawn",
      "type": "event"
    },
    {
      "anonymous": false,
      "inputs": [
        {
          "indexed": true,
          "internalType": "address",
          "name": "withdrawer",
          "type": "address"
        },
        {
          "indexed": false,
          "internalType": "uint256",
          "name": "amount",
          "type": "uint256"
        },
        {
          "indexed": true,
          "internalType": "address",
          "name": "sender",
          "type": "address"
        },
        {
          "indexed": false,
          "internalType": "uint256",
          "name": "paymentTokenID",
          "type": "uint256"
        }
      ],
      "name": "_CreditWithdrawnFor",
      "type": "event"
    },
    {
      "inputs": [
        {
          "internalType": "address",
          "name": "sender",
          "type": "address"
        },
        {
          "internalType": "uint256",
          "name": "amount",
          "type": "uint256"
        },
        {
          "internalType": "uint256",
          "name": "paymentTokenID",
          "type": "uint256"
        },
        {
          "internalType": "bytes",
          "name": "data",
          "type": "bytes"
        }
      ],
      "name": "CreditReceived",
      "outputs": [],
      "stateMutability": "nonpayable",
      "type": "function"
    },
    {
      "inputs": [],
      "name": "retrieveManagerContract",
      "outputs": [
        {
          "internalType": "address",
          "name": "",
          "type": "address"
        }
      ],
      "stateMutability": "view",
      "type": "function"
    },
    {
      "inputs": [
        {
          "internalType": "address",
          "name": "managerContractAddress",
          "type": "address"
        }
      ],
      "name": "MarketsCredits_init",
      "outputs": [],
      "stateMutability": "nonpayable",
      "type": "function"
    },
    {
      "inputs": [
        {
          "internalType": "address",
          "name": "addr",
          "type": "address"
        },
        {
          "internalType": "uint256",
          "name": "amount",
          "type": "uint256"
        },
        {
          "internalType": "uint256",
          "name": "paymentTokenID",
          "type": "uint256"
        }
      ],
      "name": "sendCredit",
      "outputs": [],
      "stateMutability": "nonpayable",
      "type": "function"
    },
    {
      "inputs": [
        {
          "internalType": "uint256",
          "name": "NFTMarketId",
          "type": "uint256"
        },
        {
          "internalType": "uint256",
          "name": "tokenID",
          "type": "uint256"
        },
        {
          "internalType": "address[]",
          "name": "addrs",
          "type": "address[]"
        },
        {
          "internalType": "uint256[]",
          "name": "amounts",
          "type": "uint256[]"
        },
        {
          "internalType": "uint256[]",
          "name": "factors",
          "type": "uint256[]"
        }
      ],
      "name": "assignCredit",
      "outputs": [],
      "stateMutability": "nonpayable",
      "type": "function"
    },
    {
      "inputs": [
        {
          "internalType": "uint256",
          "name": "NFTMarketId",
          "type": "uint256"
        },
        {
          "internalType": "uint256",
          "name": "tokenID",
          "type": "uint256"
        },
        {
          "internalType": "address",
          "name": "addr",
          "type": "address"
        },
        {
          "internalType": "uint256",
          "name": "amount",
          "type": "uint256"
        },
        {
          "internalType": "uint256",
          "name": "paymentTokenID",
          "type": "uint256"
        }
      ],
      "name": "reuseCredit",
      "outputs": [],
      "stateMutability": "nonpayable",
      "type": "function"
    },
    {
      "inputs": [
        {
          "internalType": "uint256",
          "name": "NFTMarketId",
          "type": "uint256"
        },
        {
          "internalType": "address",
          "name": "from",
          "type": "address"
        },
        {
          "internalType": "uint256",
          "name": "amount",
          "type": "uint256"
        },
        {
          "internalType": "address",
          "name": "to",
          "type": "address"
        },
        {
          "internalType": "uint256",
          "name": "paymentTokenID",
          "type": "uint256"
        }
      ],
      "name": "spendCredit",
      "outputs": [],
      "stateMutability": "nonpayable",
      "type": "function"
    },
    {
      "inputs": [
        {
          "internalType": "uint256",
          "name": "amount",
          "type": "uint256"
        },
        {
          "internalType": "uint256",
          "name": "paymentTokenID",
          "type": "uint256"
        }
      ],
      "name": "withdraw",
      "outputs": [],
      "stateMutability": "nonpayable",
      "type": "function"
    },
    {
      "inputs": [
        {
          "internalType": "uint256",
          "name": "paymentTokenID",
          "type": "uint256"
        }
      ],
      "name": "withdrawAll",
      "outputs": [],
      "stateMutability": "nonpayable",
      "type": "function"
    },
    {
      "inputs": [
        {
          "internalType": "uint256",
          "name": "NFTMarketId",
          "type": "uint256"
        },
        {
          "internalType": "address",
          "name": "addr",
          "type": "address"
        },
        {
          "internalType": "uint256",
          "name": "paymentTokenID",
          "type": "uint256"
        },
        {
          "internalType": "bytes",
          "name": "data",
          "type": "bytes"
        }
      ],
      "name": "withdrawAllFor",
      "outputs": [],
      "stateMutability": "nonpayable",
      "type": "function"
    },
    {
      "inputs": [
        {
          "internalType": "address",
          "name": "addr",
          "type": "address"
        },
        {
          "internalType": "uint256",
          "name": "paymentTokenID",
          "type": "uint256"
        }
      ],
      "name": "retrieveCredit",
      "outputs": [
        {
          "internalType": "uint256",
          "name": "",
          "type": "uint256"
        }
      ],
      "stateMutability": "view",
      "type": "function"
    }
  ],
  "bytecode": "0x608060405234801561001057600080fd5b506125f2806100206000396000f3fe608060405234801561001057600080fd5b50600436106100995760003560e01c806304226b881461009e578063441a3e70146100b357806352f615df146100c657806357ffa71b146100ec5780635b362e84146100ff5780638266251f1461011e578063958e2d311461013157806395bf0f3b14610144578063a37b58d514610157578063a67a1e371461016a578063bc617e891461017d575b600080fd5b6100b16100ac366004611feb565b610190565b005b6100b16100c1366004612087565b610224565b6100d96100d4366004611c91565b610288565b6040519081526020015b60405180910390f35b6100b16100fa3660046120f2565b610335565b6000546201000090046001600160a01b03166040516100e391906121ca565b6100b161012c366004611cf2565b610436565b6100b161013f366004611fd2565b610623565b6100b1610152366004611cbd565b610718565b6100b161016536600461203d565b610a29565b6100b16101783660046120a9565b610b55565b6100b161018b366004611c57565b610c70565b843361019e82826001610cec565b8260016101ab8282610f10565b6101cb86888a6001604051806020016040528060008152508a6001611174565b856001600160a01b0316886001600160a01b03168a7f8e46218308a26b6095e80237a5b26d04fcd218ac6e8e4b197cfe3b57305dc6fb8a896040516102119291906123dc565b60405180910390a4505050505050505050565b8060006102318282610f10565b610251338533600060405180602001604052806000815250886001611174565b336001600160a01b031660008051602061259d833981519152858560405161027a9291906123dc565b60405180910390a250505050565b60008181526001602090815260408083206001600160a01b038616845290915280822090516326162dc360e01b8152600481019190915273__ItemsLibrary__________________________906326162dc39060240160206040518083038186803b1580156102f657600080fd5b505af415801561030a573d6000803e3d6000fd5b505050506040513d601f19601f8201168201806040525081019061032e9190611f43565b9392505050565b873361034382826000610cec565b60008a81526002602090815260408083208c84528252918290205482518883028181018401909452888152909290918991899182919085019084908082843760009201919091525050604080516020808a028281018201909352898252909350899250889182918501908490808284376000920191909152506103cd92508591508490508361133d565b8986146103f55760405162461bcd60e51b81526004016103ec9061231b565b60405180910390fd5b6104058d8d8d8d8d8d8d8d6114d3565b5050506000998a525050600260209081526040808a20988a5297905250505092842084815560010193909355505050565b33600060029054906101000a90046001600160a01b03166001600160a01b031663e220ad956040518163ffffffff1660e01b815260040160006040518083038186803b15801561048557600080fd5b505afa158015610499573d6000803e3d6000fd5b505050506040513d6000823e601f3d908101601f191682016040526104c19190810190611d54565b6006815181106104d3576104d3612558565b60200260200101516001600160a01b0316816001600160a01b031614806105ae5750600060029054906101000a90046001600160a01b03166001600160a01b031663e220ad956040518163ffffffff1660e01b815260040160006040518083038186803b15801561054357600080fd5b505afa158015610557573d6000803e3d6000fd5b505050506040513d6000823e601f3d908101601f1916820160405261057f9190810190611d54565b60078151811061059157610591612558565b60200260200101516001600160a01b0316816001600160a01b0316145b6106105760405162461bcd60e51b815260206004820152602d60248201527f4974206973206e6f742066726f6d206f6e65206f66207468652063657274696660448201526c69656420636f6e74726163747360981b60648201526084016103ec565b61061c8585858561169a565b5050505050565b8060006106308282610f10565b600083815260016020908152604080832033845290915280822090516326162dc360e01b8152600481019190915273__ItemsLibrary__________________________906326162dc39060240160206040518083038186803b15801561069557600080fd5b505af41580156106a9573d6000803e3d6000fd5b505050506040513d601f19601f820116820180604052508101906106cd9190611f43565b90506106ef338233600060405180602001604052806000815250896001611174565b336001600160a01b031660008051602061259d833981519152828660405161027a9291906123dc565b60408051600380825260808201909252600091602082016060803683375050604051631635719760e31b81526000600482015291925073__UintLibrary___________________________9163b1ab8cb8915060240160206040518083038186803b15801561078657600080fd5b505af415801561079a573d6000803e3d6000fd5b505050506040513d601f19601f820116820180604052508101906107be9190611f43565b816000815181106107d1576107d1612558565b602090810291909101015260405163bc215e8560e01b815273__AddressLibrary________________________9063bc215e85906108139087906004016121ca565b60206040518083038186803b15801561082b57600080fd5b505af415801561083f573d6000803e3d6000fd5b505050506040513d601f19601f820116820180604052508101906108639190611f43565b8160018151811061087657610876612558565b6020908102919091010152604051632431a7cf60e01b815260009073__Library_______________________________90632431a7cf906108bb90859060040161222b565b60006040518083038186803b1580156108d357600080fd5b505af41580156108e7573d6000803e3d6000fd5b505050506040513d6000823e601f3d908101601f1916820160405261090f9190810190611f5c565b905060008060029054906101000a90046001600160a01b03166001600160a01b031663e220ad956040518163ffffffff1660e01b815260040160006040518083038186803b15801561096057600080fd5b505afa158015610974573d6000803e3d6000fd5b505050506040513d6000823e601f3d908101601f1916820160405261099c9190810190611d54565b6006815181106109ae576109ae612558565b60200260200101519050806001600160a01b0316632c2ec2683330886000878a6040518763ffffffff1660e01b81526004016109ef969594939291906121de565b600060405180830381600087803b158015610a0957600080fd5b505af1158015610a1d573d6000803e3d6000fd5b50505050505050505050565b8333610a3782826000610cec565b836000610a448282610f10565b60008681526001602090815260408083206001600160a01b038b16845290915280822090516326162dc360e01b8152600481019190915273__ItemsLibrary__________________________906326162dc39060240160206040518083038186803b158015610ab257600080fd5b505af4158015610ac6573d6000803e3d6000fd5b505050506040513d601f19601f82011682018060405250810190610aea9190611f43565b9050610afd88828a60018a8c6001611174565b336001600160a01b0316886001600160a01b03167f66f38d03b2ef5d35bd0055daacdada5779c32d8f8379404be96ebb5d044e0954838a604051610b429291906123dc565b60405180910390a3505050505050505050565b8433610b6382826000610cec565b60008781526002602090815260408083208984529091529020548790879015610be45760405162461bcd60e51b815260206004820152602d60248201527f556e61737369676e65642063726564697420666f72207468697320746f6b656e60448201526c206973206e6f7420656d70747960981b60648201526084016103ec565b846001610bf18282610f10565b610c126000898b6000604051806020016040528060008152508c6000611174565b610c1e8b8b8a8a611a9b565b886001600160a01b03168a8c7f65003d30d3f109914e8927ab1b578875696ebb2ed8d9aadf25781a202393495d8b8b604051610c5b9291906123dc565b60405180910390a45050505050505050505050565b600054610100900460ff16610c8b5760005460ff1615610c8f565b303b155b610cab5760405162461bcd60e51b81526004016103ec90612282565b600054610100900460ff16158015610ccd576000805461ffff19166101011790555b610cd682611ac1565b8015610ce8576000805461ff00191690555b5050565b60008060029054906101000a90046001600160a01b03166001600160a01b031663e220ad956040518163ffffffff1660e01b815260040160006040518083038186803b158015610d3b57600080fd5b505afa158015610d4f573d6000803e3d6000fd5b505050506040513d6000823e601f3d908101601f19168201604052610d779190810190611d54565b600181518110610d8957610d89612558565b602002602001015190508115610e62576040516303231e5d60e01b8152600481018590526001600160a01b038216906303231e5d9060240160206040518083038186803b158015610dd957600080fd5b505afa158015610ded573d6000803e3d6000fd5b505050506040513d601f19601f82011682018060405250810190610e119190611c74565b6001600160a01b0316836001600160a01b03161480610e415750806001600160a01b0316836001600160a01b0316145b610e5d5760405162461bcd60e51b81526004016103ec906122d0565b610f0a565b6040516303231e5d60e01b8152600481018590526001600160a01b038216906303231e5d9060240160206040518083038186803b158015610ea257600080fd5b505afa158015610eb6573d6000803e3d6000fd5b505050506040513d601f19601f82011682018060405250810190610eda9190611c74565b6001600160a01b0316836001600160a01b031614610f0a5760405162461bcd60e51b81526004016103ec906122d0565b50505050565b60008060029054906101000a90046001600160a01b03166001600160a01b031663e220ad956040518163ffffffff1660e01b815260040160006040518083038186803b158015610f5f57600080fd5b505afa158015610f73573d6000803e3d6000fd5b505050506040513d6000823e601f3d908101601f19168201604052610f9b9190810190611d54565b600681518110610fad57610fad612558565b602002602001015190506000816001600160a01b031663b049473f6040518163ffffffff1660e01b815260040160006040518083038186803b158015610ff257600080fd5b505afa158015611006573d6000803e3d6000fd5b505050506040513d6000823e601f3d908101601f1916820160405261102e9190810190611e7f565b9050805184106110805760405162461bcd60e51b815260206004820152601f60248201527f54686973207061796d656e7420746f6b656e206973206e6f742076616c69640060448201526064016103ec565b80848151811061109257611092612558565b6020908102919091010151516001600160a01b03166110f35760405162461bcd60e51b815260206004820181905260248201527f54686973207061796d656e7420746f6b656e206861732061646472657373203060448201526064016103ec565b8215610f0a5780848151811061110b5761110b612558565b60200260200101516020015115156001151514610f0a5760405162461bcd60e51b815260206004820152602160248201527f54686973207061796d656e7420746f6b656e206973206e6f7420656e61626c656044820152601960fa1b60648201526084016103ec565b60008281526001602090815260408083206001600160a01b03808a16855292528083208354825163e220ad9560e01b8152925173__ItemsLibrary__________________________956318b84a219593948d948f948a94620100009091049091169263e220ad959260048082019391829003018186803b1580156111f757600080fd5b505afa15801561120b573d6000803e3d6000fd5b505050506040513d6000823e601f3d908101601f191682016040526112339190810190611d54565b60068151811061124557611245612558565b60200260200101516001600160a01b031663b049473f6040518163ffffffff1660e01b815260040160006040518083038186803b15801561128557600080fd5b505afa158015611299573d6000803e3d6000fd5b505050506040513d6000823e601f3d908101601f191682016040526112c19190810190611e7f565b88815181106112d2576112d2612558565b6020026020010151600001518a8a8a6040518963ffffffff1660e01b8152600401611304989796959493929190612366565b60006040518083038186803b15801561131c57600080fd5b505af4158015611330573d6000803e3d6000fd5b5050505050505050505050565b805182511461135e5760405162461bcd60e51b81526004016103ec9061231b565b604051633c952fb360e21b815260009073__UintLibrary___________________________9063f254becc9061139890859060040161222b565b60206040518083038186803b1580156113b057600080fd5b505af41580156113c4573d6000803e3d6000fd5b505050506040513d601f19601f820116820180604052508101906113e89190611f43565b90506000805b835181101561145e5783818151811061140957611409612558565b60200260200101518386838151811061142457611424612558565b602002602001015161143691906124c6565b61144091906124a4565b61144a908361248c565b91508061145681612511565b9150506113ee565b508061146a83876124c6565b1461061c5760405162461bcd60e51b815260206004820152603360248201527f74686520746f74616c20616d6f756e74206973206e6f7420657175616c20746f604482015272207468652063616c63756c61746564206f6e6560681b60648201526084016103ec565b60008881526002602090815260408083208a8452909152812060010154905b86811015610a1d57600082815260016020526040812073__ItemsLibrary__________________________91633833532791908b8b8681811061153757611537612558565b905060200201602081019061154c9190611c57565b6001600160a01b03166001600160a01b0316815260200190815260200160002088888581811061157e5761157e612558565b9050602002013587878681811061159757611597612558565b905060200201356040518463ffffffff1660e01b81526004016115bc939291906123c6565b60006040518083038186803b1580156115d457600080fd5b505af41580156115e8573d6000803e3d6000fd5b505050508787828181106115fe576115fe612558565b90506020020160208101906116139190611c57565b6001600160a01b0316898b7e85dd5c7e25f320179845bd109bec815645a273f03d337f3a46ea43da6ca0c089898681811061165057611650612558565b9050602002013588888781811061166957611669612558565b9050602002013587604051611680939291906123c6565b60405180910390a48061169281612511565b9150506114f2565b60405163caa8f58960e01b815260009073__Library_______________________________9063caa8f589906116d490859060040161226f565b60006040518083038186803b1580156116ec57600080fd5b505af4158015611700573d6000803e3d6000fd5b505050506040513d6000823e601f3d908101601f191682016040526117289190810190611df4565b905060008160008151811061173f5761173f612558565b602002602001015160001c600181111561175b5761175b612542565b905080600181111561176f5761176f612542565b6118fb57600073__AddressLibrary________________________63f4ce9ae8846001815181106117a2576117a2612558565b60200260200101516040518263ffffffff1660e01b81526004016117c891815260200190565b60206040518083038186803b1580156117e057600080fd5b505af41580156117f4573d6000803e3d6000fd5b505050506040513d601f19601f820116820180604052508101906118189190611c74565b60008681526001602081815260408084206001600160a01b0386168552909152918290209151633833532760e01b815292935073__ItemsLibrary__________________________926338335327926118789290918b91906004016123c6565b60006040518083038186803b15801561189057600080fd5b505af41580156118a4573d6000803e3d6000fd5b50505050866001600160a01b0316816001600160a01b03167fac995865659dcf606a8b72619cec439c948be22b1fadce49ed394e003bb594b188886040516118ed9291906123dc565b60405180910390a350611a93565b600073__UintLibrary___________________________630bd4715e8460018151811061192a5761192a612558565b60200260200101516040518263ffffffff1660e01b815260040161195091815260200190565b60206040518083038186803b15801561196857600080fd5b505af415801561197c573d6000803e3d6000fd5b505050506040513d601f19601f820116820180604052508101906119a09190611f43565b9050600073__UintLibrary___________________________630bd4715e856002815181106119d1576119d1612558565b60200260200101516040518263ffffffff1660e01b81526004016119f791815260200190565b60206040518083038186803b158015611a0f57600080fd5b505af4158015611a23573d6000803e3d6000fd5b505050506040513d601f19601f82011682018060405250810190611a479190611f43565b9050611a5582828989611a9b565b80827ff9e629b7f363892b1e150085e7eb5a4b2335f91eb27586b3b563759c250b6d4c8989604051611a889291906123dc565b60405180910390a350505b505050505050565b600093845260026020908152604080862094865293905291909220918255600190910155565b600054610100900460ff16611adc5760005460ff1615611ae0565b303b155b611afc5760405162461bcd60e51b81526004016103ec90612282565b600054610100900460ff16158015611b1e576000805461ffff19166101011790555b610cd682600054610100900460ff16611b3d5760005460ff1615611b41565b303b155b611b5d5760405162461bcd60e51b81526004016103ec90612282565b600054610100900460ff16158015611b7f576000805461ffff19166101011790555b6000805462010000600160b01b031916620100006001600160a01b038516021790558015610ce8576000805461ff00191690555050565b60008083601f840112611bc857600080fd5b5081356001600160401b03811115611bdf57600080fd5b6020830191508360208260051b8501011115611bfa57600080fd5b9250929050565b600082601f830112611c1257600080fd5b8135611c25611c2082612465565b612412565b818152846020838601011115611c3a57600080fd5b816020850160208301376000918101602001919091529392505050565b600060208284031215611c6957600080fd5b813561032e81612584565b600060208284031215611c8657600080fd5b815161032e81612584565b60008060408385031215611ca457600080fd5b8235611caf81612584565b946020939093013593505050565b600080600060608486031215611cd257600080fd5b8335611cdd81612584565b95602085013595506040909401359392505050565b60008060008060808587031215611d0857600080fd5b8435611d1381612584565b9350602085013592506040850135915060608501356001600160401b03811115611d3c57600080fd5b611d4887828801611c01565b91505092959194509250565b60006020808385031215611d6757600080fd5b82516001600160401b03811115611d7d57600080fd5b8301601f81018513611d8e57600080fd5b8051611d9c611c2082612442565b80828252848201915084840188868560051b8701011115611dbc57600080fd5b600094505b83851015611de8578051611dd481612584565b835260019490940193918501918501611dc1565b50979650505050505050565b60006020808385031215611e0757600080fd5b82516001600160401b03811115611e1d57600080fd5b8301601f81018513611e2e57600080fd5b8051611e3c611c2082612442565b80828252848201915084840188868560051b8701011115611e5c57600080fd5b600094505b83851015611de8578051835260019490940193918501918501611e61565b60006020808385031215611e9257600080fd5b82516001600160401b03811115611ea857600080fd5b8301601f81018513611eb957600080fd5b8051611ec7611c2082612442565b80828252848201915084840188868560061b8701011115611ee757600080fd5b600094505b83851015611de857604080828b031215611f0557600080fd5b611f0d6123ea565b8251611f1881612584565b8152828801518015158114611f2c57600080fd5b818901528452600195909501949286019201611eec565b600060208284031215611f5557600080fd5b5051919050565b600060208284031215611f6e57600080fd5b81516001600160401b03811115611f8457600080fd5b8201601f81018413611f9557600080fd5b8051611fa3611c2082612465565b818152856020838501011115611fb857600080fd5b611fc98260208301602086016124e5565b95945050505050565b600060208284031215611fe457600080fd5b5035919050565b600080600080600060a0868803121561200357600080fd5b85359450602086013561201581612584565b935060408601359250606086013561202c81612584565b949793965091946080013592915050565b6000806000806080858703121561205357600080fd5b84359350602085013561206581612584565b92506040850135915060608501356001600160401b03811115611d3c57600080fd5b6000806040838503121561209a57600080fd5b50508035926020909101359150565b600080600080600060a086880312156120c157600080fd5b853594506020860135935060408601356120da81612584565b94979396509394606081013594506080013592915050565b60008060008060008060008060a0898b03121561210e57600080fd5b883597506020890135965060408901356001600160401b038082111561213357600080fd5b61213f8c838d01611bb6565b909850965060608b013591508082111561215857600080fd5b6121648c838d01611bb6565b909650945060808b013591508082111561217d57600080fd5b5061218a8b828c01611bb6565b999c989b5096995094979396929594505050565b600081518084526121b68160208601602086016124e5565b601f01601f19169290920160200192915050565b6001600160a01b0391909116815260200190565b6001600160a01b03878116825286166020820152604081018590526060810184905260c0608082018190526000906122189083018561219e565b90508260a0830152979650505050505050565b6020808252825182820181905260009190848201906040850190845b8181101561226357835183529284019291840191600101612247565b50909695505050505050565b60208152600061032e602083018461219e565b6020808252602e908201527f496e697469616c697a61626c653a20636f6e747261637420697320616c72656160408201526d191e481a5b9a5d1a585b1a5e995960921b606082015260800190565b6020808252602b908201527f546865204d61726b657420496420616e64204164647265737320646f206e6f7460408201526a0818dbdc9c995cdc1bdb9960aa1b606082015260800190565b6020808252602b908201527f50726f76696465642061727261797320646f206e6f742068617665207468652060408201526a0e6c2daca40d8cadccee8d60ab1b606082015260800190565b888152602081018890526001600160a01b03878116604083015286151560608301528516608082015283151560a082015261010060c082018190526000906123b08382018661219e565b9150508260e08301529998505050505050505050565b9283526020830191909152604082015260600190565b918252602082015260400190565b604080519081016001600160401b038111828210171561240c5761240c61256e565b60405290565b604051601f8201601f191681016001600160401b038111828210171561243a5761243a61256e565b604052919050565b60006001600160401b0382111561245b5761245b61256e565b5060051b60200190565b60006001600160401b0382111561247e5761247e61256e565b50601f01601f191660200190565b6000821982111561249f5761249f61252c565b500190565b6000826124c157634e487b7160e01b600052601260045260246000fd5b500490565b60008160001904831182151516156124e0576124e061252c565b500290565b60005b838110156125005781810151838201526020016124e8565b83811115610f0a5750506000910152565b60006000198214156125255761252561252c565b5060010190565b634e487b7160e01b600052601160045260246000fd5b634e487b7160e01b600052602160045260246000fd5b634e487b7160e01b600052603260045260246000fd5b634e487b7160e01b600052604160045260246000fd5b6001600160a01b038116811461259957600080fd5b5056fe35474681258bb96da53df6137ee08756497e570dab2b550ccc53c5784069ddf4a2646970667358221220042cf059c19fb55cca2b3809f2ae3443bfeabe2c94dec064402335238a17e98864736f6c63430008070033",
  "immutableReferences": {},
  "source": "// SPDX-License-Identifier: GPL-3.0\r\n\r\npragma solidity 0.8.7;\r\n\r\n/**\r\n Certis Token is an ERC20 Token that grants its holder the right to:\r\n   - Vote on all the systems propositions (changing system configuraiton etc...)\r\n   - Receive Dividends for all the payments forwarded to the Treasury contract\r\n\r\nBefore every token transfer we contact the token gouvernance Base contracts so that the can update the tokens used for voting if needed\r\n\r\n */\r\n\r\nimport \"@openzeppelin/contracts-upgradeable/proxy/utils/Initializable.sol\";\r\nimport \"../Interfaces/IMarketsCredits.sol\";\r\nimport \"../Interfaces/IPool.sol\";\r\nimport \"../Libraries/ItemsLibrary.sol\";\r\nimport \"../Libraries/UintLibrary.sol\";\r\nimport \"../Libraries/Library.sol\";\r\nimport \"../Libraries/AddressLibrary.sol\";\r\nimport \"../Base/CreditorBaseContract.sol\";\r\nimport \"../Interfaces/IPayments.sol\";\r\n\r\n contract MarketsCredits is  IMarketsCredits, Initializable, CreditorBaseContract {\r\n  using ItemsLibrary for *;\r\n  using UintLibrary for *;\r\n  using Library for *;\r\n  using AddressLibrary for *;\r\n\r\n\r\n  // EVENTS /////////////////////////////////////////\r\n  event _CreditReceived(address indexed receiver, uint256 amount, address indexed sender, uint256 paymentTokenID);\r\n  event _CreditUnAssignedReceived(uint256 indexed NFTMarketId, uint256 indexed tokenID, uint256 amount, uint256 paymentTokenID);\r\n  event _CreditAssigned(uint256 indexed NFTMarketId, uint256 indexed tokenID, address indexed receiver, uint256 amount, uint256 factor, uint256 paymentTokenID);\r\n  event _CreditReused(uint256 indexed NFTMarketId, uint256 indexed tokenID, address indexed creditor, uint256 amount, uint256 paymentTokenID);\r\n  event _CreditSpent(uint256 indexed NFTMarketId, address indexed from, uint256 amount, address indexed to, uint256 paymentTokenID);\r\n  event _CreditWithdrawn(address indexed withdrawer, uint256 amount, uint256 paymentTokenID);\r\n  event _CreditWithdrawnFor(address indexed withdrawer, uint256 amount, address indexed sender, uint256 paymentTokenID);\r\n\r\n\r\n  // DATA /////////////////////////////////////////\r\n  struct _unassignedCreditStruct{\r\n    uint256 _credit;\r\n    uint256 _paymentTokenID;\r\n  }\r\n\r\n  mapping(uint256 => mapping(address => ItemsLibrary._BalanceStruct)) private _creditOfAccount;\r\n  mapping(uint256 => mapping(uint256 => _unassignedCreditStruct)) private _unassignedCreditForMarket;\r\n\r\n\r\n  // MODIFIERS /////////////////////////////////////////\r\n  modifier isNFTMarket(uint256 MarketId, address MarketAddress){\r\n      isNFTMarketorPublicFunc(MarketId, MarketAddress, false);\r\n      _;\r\n  }\r\n\r\n  modifier isNFTMarketorPublicPool(uint256 MarketId, address MarketAddress){\r\n      isNFTMarketorPublicFunc(MarketId, MarketAddress, true);\r\n      _;\r\n  }\r\n\r\n  function isNFTMarketorPublicFunc(uint256 MarketId, address Addr, bool PublicPool) internal view{\r\n    IPool publicPool = IPool(_managerContract.retrieveTransparentProxies()[uint256(Library.TransparentProxies.PublicPool)]);\r\n    if(PublicPool) require(Addr == publicPool.retrieveNFTMarketForIssuer(MarketId) ||\r\n                           Addr == address(publicPool) , \"The Market Id and Address do not correspond\");\r\n    else require(Addr == publicPool.retrieveNFTMarketForIssuer(MarketId), \"The Market Id and Address do not correspond\");\r\n  }\r\n\r\n  modifier isTokenUnassignedCreditEmpty(uint256 NFTMarketId, uint256 tokenID){\r\n    require(0 == _unassignedCreditForMarket[NFTMarketId][tokenID]._credit, \"Unassigned credit for this token is not empty\");\r\n    _;\r\n  }\r\n\r\n  modifier checkTotal(uint256 total, uint256[] memory amounts, uint256[] memory factors){\r\n    checkTotalFunc(total, amounts, factors);\r\n    _;\r\n  }\r\n\r\n  function checkTotalFunc(uint256 total, uint256[] memory amounts, uint256[] memory factors) internal{\r\n    require(amounts.length == factors.length, \"Provided arrays do not have the same length\");\r\n    uint256 CommonDividend = UintLibrary.ProductOfFactors(factors);\r\n    uint256 calculatedTotal = 0;\r\n    for(uint256 i=0; i < factors.length; i++){\r\n        calculatedTotal += amounts[i] * CommonDividend / factors[i];\r\n    }\r\n    require((total * CommonDividend) == calculatedTotal, \"the total amount is not equal to the calculated one\");\r\n  }\r\n\r\n  modifier isPaymentTokenOK(uint256 paymentTokenID, bool checkActive){\r\n    isPaymentTokenOKFunc(paymentTokenID, checkActive);\r\n    _;\r\n  }\r\n\r\n  function isPaymentTokenOKFunc(uint256 paymentTokenID, bool checkActive) internal view{\r\n    IPayments payments = IPayments(_managerContract.retrieveTransparentProxies()[uint256(Library.TransparentProxies.Payments)]);\r\n    Library.PaymentTokenStruct[] memory paymentTokens = payments.retrieveSettings();\r\n    require(paymentTokenID < paymentTokens.length, \"This payment token is not valid\");\r\n    require(address(0) != address(paymentTokens[paymentTokenID].TokenContract), \"This payment token has address 0\");\r\n    if(checkActive) require(true == paymentTokens[paymentTokenID].active, \"This payment token is not enabled\");\r\n  }\r\n\r\n  // CONSTRUCTOR /////////////////////////////////////////\r\n  function MarketsCredits_init(address managerContractAddress) public initializer {\r\n      super.CreditorBaseContract_init(managerContractAddress); \r\n  }\r\n\r\n  // FUNCTIONALITY /////////////////////////////////////////\r\n  function onCreditReceived(address sender, uint256 amount, uint256 paymentTokenID, bytes memory data) internal override\r\n  {\r\n    bytes32[] memory receivedData = Library.BytestoBytes32(data);\r\n    Library.MarketsCreditsPaymentTypes paymentType = Library.MarketsCreditsPaymentTypes(uint256(receivedData[0]));\r\n\r\n    if(Library.MarketsCreditsPaymentTypes.SendCredit == paymentType){\r\n      address account = AddressLibrary.Bytes32ToAddress(receivedData[1]);\r\n      ItemsLibrary.addBalance(_creditOfAccount[paymentTokenID][account], amount, 1);\r\n      emit _CreditReceived(account, amount, sender, paymentTokenID);\r\n    }\r\n\r\n    else{\r\n      uint256 NFTMarketId = UintLibrary.Bytes32ToUint(receivedData[1]);\r\n      uint256 tokenID = UintLibrary.Bytes32ToUint(receivedData[2]);\r\n      internalTransferUnassignedCredit(NFTMarketId, tokenID, amount, paymentTokenID);\r\n      emit _CreditUnAssignedReceived(NFTMarketId, tokenID, amount, paymentTokenID);\r\n    }\r\n     \r\n  }\r\n  \r\n  function sendCredit(address addr, uint256 amount, uint256 paymentTokenID) external override\r\n  {\r\n    bytes32[] memory dataArray = new bytes32[](3);\r\n    dataArray[0] = UintLibrary.UintToBytes32(uint256(Library.MarketsCreditsPaymentTypes.SendCredit));\r\n    dataArray[1] = AddressLibrary.AddressToBytes32(addr);\r\n    bytes memory data = Library.Bytes32ArrayToBytes(dataArray);\r\n\r\n    IPayments payments = IPayments(_managerContract.retrieveTransparentProxies()[uint256(Library.TransparentProxies.Payments)]);\r\n    payments.TransferFrom(msg.sender, address(this), amount, 0, data, paymentTokenID);\r\n  }\r\n\r\n  function assignCredit(uint256 NFTMarketId, uint256 tokenID, address[] calldata addrs, uint256[] calldata amounts, uint256[] calldata factors) external override\r\n    isNFTMarket(NFTMarketId, msg.sender)\r\n    checkTotal(_unassignedCreditForMarket[NFTMarketId][tokenID]._credit, amounts, factors)\r\n  {\r\n    require(addrs.length == factors.length, \"Provided arrays do not have the same length\");\r\n    assignCreditInternal(NFTMarketId, tokenID, addrs, amounts, factors);\r\n    delete(_unassignedCreditForMarket[NFTMarketId][tokenID]);\r\n  }\r\n\r\n  function assignCreditInternal(uint256 NFTMarketId, uint256 tokenID, address[] calldata addrs, uint256[] calldata amounts, uint256[] calldata factors) internal \r\n  {\r\n    uint256 paymentTokenID = _unassignedCreditForMarket[NFTMarketId][tokenID]._paymentTokenID;\r\n    for(uint i=0; i < addrs.length; i++){\r\n      ItemsLibrary.addBalance(_creditOfAccount[paymentTokenID][addrs[i]], amounts[i], factors[i]);\r\n      emit _CreditAssigned(NFTMarketId, tokenID, addrs[i], amounts[i], factors[i], paymentTokenID);\r\n    }\r\n  }\r\n\r\n  function reuseCredit(uint256 NFTMarketId, uint256 tokenID, address addr, uint256 amount, uint256 paymentTokenID) external override\r\n    isNFTMarket(NFTMarketId, msg.sender)\r\n    isTokenUnassignedCreditEmpty(NFTMarketId, tokenID)\r\n    isPaymentTokenOK(paymentTokenID, true)\r\n  {\r\n    internalWithdraw(address(0), amount, addr, false, bytes(\"\"), paymentTokenID, false);\r\n    internalTransferUnassignedCredit(NFTMarketId, tokenID, amount, paymentTokenID);\r\n    emit _CreditReused(NFTMarketId, tokenID, addr, amount, paymentTokenID);\r\n  }\r\n\r\n  function spendCredit(uint256 NFTMarketId, address from, uint256 amount, address to, uint256 paymentTokenID) external override\r\n    isNFTMarketorPublicPool(NFTMarketId, msg.sender)\r\n    isPaymentTokenOK(paymentTokenID, true)\r\n  {\r\n    internalWithdraw(to, amount, from, true, bytes(\"\"), paymentTokenID, true);\r\n    emit _CreditSpent(NFTMarketId, from, amount, to, paymentTokenID);\r\n  }\r\n\r\n  function withdraw(uint amount, uint256 paymentTokenID) external override\r\n    isPaymentTokenOK(paymentTokenID, false)\r\n  {\r\n    internalWithdraw(msg.sender, amount, msg.sender, false, bytes(\"\"), paymentTokenID, true);\r\n    emit _CreditWithdrawn(msg.sender, amount, paymentTokenID);\r\n  }\r\n  \r\n  function withdrawAll(uint256 paymentTokenID) external override\r\n    isPaymentTokenOK(paymentTokenID, false)\r\n  {\r\n    uint amount = ItemsLibrary.checkFullBalance(_creditOfAccount[paymentTokenID][msg.sender]);\r\n    internalWithdraw(msg.sender, amount, msg.sender, false, bytes(\"\"), paymentTokenID, true);\r\n    emit _CreditWithdrawn(msg.sender, amount, paymentTokenID);\r\n  }\r\n  \r\n  function withdrawAllFor(uint256 NFTMarketId, address addr, uint256 paymentTokenID, bytes memory data) external override\r\n    isNFTMarket(NFTMarketId, msg.sender)\r\n    isPaymentTokenOK(paymentTokenID, false)\r\n  {\r\n    uint amount = ItemsLibrary.checkFullBalance(_creditOfAccount[paymentTokenID][addr]);\r\n    internalWithdraw(addr, amount, addr, true, data, paymentTokenID, true);\r\n    emit _CreditWithdrawnFor(addr, amount, msg.sender, paymentTokenID);\r\n  }\r\n\r\n  function internalTransferUnassignedCredit(uint256 NFTMarketId, uint256 tokenID, uint256 amount, uint256 paymentTokenID) internal\r\n  {\r\n      _unassignedCreditForMarket[NFTMarketId][tokenID]._credit = amount;\r\n      _unassignedCreditForMarket[NFTMarketId][tokenID]._paymentTokenID = paymentTokenID;\r\n  }\r\n\r\n  function internalWithdraw(address to, uint amount, address sender, bool sendData, bytes memory data, uint256 paymentTokenID, bool transfer) internal\r\n  {\r\n      ItemsLibrary.InternalWithdraw(\r\n        _creditOfAccount[paymentTokenID][sender], \r\n        amount, \r\n        to, \r\n        transfer, \r\n        address(IPayments(_managerContract.retrieveTransparentProxies()[uint256(Library.TransparentProxies.Payments)]).retrieveSettings()[paymentTokenID].TokenContract),\r\n        sendData,\r\n        data,\r\n        paymentTokenID\r\n      );\r\n  }\r\n\r\n  function retrieveCredit(address addr, uint256 paymentTokenID) external override view returns (uint256)\r\n  {\r\n    return ItemsLibrary.checkFullBalance(_creditOfAccount[paymentTokenID][addr]);\r\n  }\r\n\r\n\r\n\r\n }",
  "sourcePath": "C:\\Users\\d-aam\\GitHub\\Originals\\contracts\\MainContracts\\MarketsCredits.sol",
  "compiler": {
    "name": "solc",
    "version": "0.8.7+commit.e28d00a7.Emscripten.clang"
  },
  "schemaVersion": "3.4.3",
  "updatedAt": "2022-03-11T07:04:41.872Z",
  "devdoc": {
    "kind": "dev",
    "methods": {},
    "version": 1
  },
  "userdoc": {
    "kind": "user",
    "methods": {},
    "version": 1
  }
}