{
  "contractName": "NFTMarket",
  "abi": [
    {
      "anonymous": false,
      "inputs": [
        {
          "indexed": true,
          "internalType": "address",
          "name": "owner",
          "type": "address"
        },
        {
          "indexed": true,
          "internalType": "address",
          "name": "approved",
          "type": "address"
        },
        {
          "indexed": true,
          "internalType": "uint256",
          "name": "tokenId",
          "type": "uint256"
        }
      ],
      "name": "Approval",
      "type": "event"
    },
    {
      "anonymous": false,
      "inputs": [
        {
          "indexed": true,
          "internalType": "address",
          "name": "owner",
          "type": "address"
        },
        {
          "indexed": true,
          "internalType": "address",
          "name": "operator",
          "type": "address"
        },
        {
          "indexed": false,
          "internalType": "bool",
          "name": "approved",
          "type": "bool"
        }
      ],
      "name": "ApprovalForAll",
      "type": "event"
    },
    {
      "anonymous": false,
      "inputs": [
        {
          "indexed": true,
          "internalType": "address",
          "name": "from",
          "type": "address"
        },
        {
          "indexed": true,
          "internalType": "address",
          "name": "to",
          "type": "address"
        },
        {
          "indexed": true,
          "internalType": "uint256",
          "name": "tokenId",
          "type": "uint256"
        }
      ],
      "name": "Transfer",
      "type": "event"
    },
    {
      "inputs": [
        {
          "internalType": "address",
          "name": "to",
          "type": "address"
        },
        {
          "internalType": "uint256",
          "name": "tokenId",
          "type": "uint256"
        }
      ],
      "name": "approve",
      "outputs": [],
      "stateMutability": "nonpayable",
      "type": "function"
    },
    {
      "inputs": [
        {
          "internalType": "address",
          "name": "owner",
          "type": "address"
        }
      ],
      "name": "balanceOf",
      "outputs": [
        {
          "internalType": "uint256",
          "name": "",
          "type": "uint256"
        }
      ],
      "stateMutability": "view",
      "type": "function"
    },
    {
      "inputs": [
        {
          "internalType": "uint256",
          "name": "tokenId",
          "type": "uint256"
        }
      ],
      "name": "getApproved",
      "outputs": [
        {
          "internalType": "address",
          "name": "",
          "type": "address"
        }
      ],
      "stateMutability": "view",
      "type": "function"
    },
    {
      "inputs": [
        {
          "internalType": "address",
          "name": "owner",
          "type": "address"
        },
        {
          "internalType": "address",
          "name": "operator",
          "type": "address"
        }
      ],
      "name": "isApprovedForAll",
      "outputs": [
        {
          "internalType": "bool",
          "name": "",
          "type": "bool"
        }
      ],
      "stateMutability": "view",
      "type": "function"
    },
    {
      "inputs": [],
      "name": "name",
      "outputs": [
        {
          "internalType": "string",
          "name": "",
          "type": "string"
        }
      ],
      "stateMutability": "view",
      "type": "function"
    },
    {
      "inputs": [
        {
          "internalType": "uint256",
          "name": "tokenId",
          "type": "uint256"
        }
      ],
      "name": "ownerOf",
      "outputs": [
        {
          "internalType": "address",
          "name": "",
          "type": "address"
        }
      ],
      "stateMutability": "view",
      "type": "function"
    },
    {
      "inputs": [],
      "name": "retrieveManagerContract",
      "outputs": [
        {
          "internalType": "address",
          "name": "",
          "type": "address"
        }
      ],
      "stateMutability": "view",
      "type": "function"
    },
    {
      "inputs": [
        {
          "internalType": "address",
          "name": "from",
          "type": "address"
        },
        {
          "internalType": "address",
          "name": "to",
          "type": "address"
        },
        {
          "internalType": "uint256",
          "name": "tokenId",
          "type": "uint256"
        }
      ],
      "name": "safeTransferFrom",
      "outputs": [],
      "stateMutability": "nonpayable",
      "type": "function"
    },
    {
      "inputs": [
        {
          "internalType": "address",
          "name": "from",
          "type": "address"
        },
        {
          "internalType": "address",
          "name": "to",
          "type": "address"
        },
        {
          "internalType": "uint256",
          "name": "tokenId",
          "type": "uint256"
        },
        {
          "internalType": "bytes",
          "name": "_data",
          "type": "bytes"
        }
      ],
      "name": "safeTransferFrom",
      "outputs": [],
      "stateMutability": "nonpayable",
      "type": "function"
    },
    {
      "inputs": [
        {
          "internalType": "address",
          "name": "operator",
          "type": "address"
        },
        {
          "internalType": "bool",
          "name": "approved",
          "type": "bool"
        }
      ],
      "name": "setApprovalForAll",
      "outputs": [],
      "stateMutability": "nonpayable",
      "type": "function"
    },
    {
      "inputs": [
        {
          "internalType": "bytes4",
          "name": "interfaceId",
          "type": "bytes4"
        }
      ],
      "name": "supportsInterface",
      "outputs": [
        {
          "internalType": "bool",
          "name": "",
          "type": "bool"
        }
      ],
      "stateMutability": "view",
      "type": "function"
    },
    {
      "inputs": [],
      "name": "symbol",
      "outputs": [
        {
          "internalType": "string",
          "name": "",
          "type": "string"
        }
      ],
      "stateMutability": "view",
      "type": "function"
    },
    {
      "inputs": [
        {
          "internalType": "uint256",
          "name": "tokenId",
          "type": "uint256"
        }
      ],
      "name": "tokenURI",
      "outputs": [
        {
          "internalType": "string",
          "name": "",
          "type": "string"
        }
      ],
      "stateMutability": "view",
      "type": "function"
    },
    {
      "inputs": [
        {
          "internalType": "address",
          "name": "from",
          "type": "address"
        },
        {
          "internalType": "address",
          "name": "to",
          "type": "address"
        },
        {
          "internalType": "uint256",
          "name": "tokenId",
          "type": "uint256"
        }
      ],
      "name": "transferFrom",
      "outputs": [],
      "stateMutability": "nonpayable",
      "type": "function"
    },
    {
      "inputs": [
        {
          "internalType": "address",
          "name": "managerContractAddress",
          "type": "address"
        },
        {
          "internalType": "address",
          "name": "owner",
          "type": "address"
        },
        {
          "internalType": "string",
          "name": "name",
          "type": "string"
        },
        {
          "internalType": "string",
          "name": "symbol",
          "type": "string"
        },
        {
          "internalType": "uint256",
          "name": "offersLifeTime",
          "type": "uint256"
        },
        {
          "internalType": "uint256",
          "name": "ownerTransferFeeAmount",
          "type": "uint256"
        },
        {
          "internalType": "uint256",
          "name": "ownerTransferFeeDecimals",
          "type": "uint256"
        },
        {
          "internalType": "uint8",
          "name": "paymentPlan",
          "type": "uint8"
        }
      ],
      "name": "NFTMarket_init",
      "outputs": [],
      "stateMutability": "nonpayable",
      "type": "function"
    },
    {
      "inputs": [
        {
          "internalType": "address",
          "name": "newOwner",
          "type": "address"
        }
      ],
      "name": "changeOwner",
      "outputs": [],
      "stateMutability": "nonpayable",
      "type": "function"
    },
    {
      "inputs": [
        {
          "internalType": "enum Library.PaymentPlans",
          "name": "newPaymentPlan",
          "type": "uint8"
        }
      ],
      "name": "changePaymentPlan",
      "outputs": [],
      "stateMutability": "nonpayable",
      "type": "function"
    },
    {
      "inputs": [
        {
          "internalType": "uint256",
          "name": "newLifeTime",
          "type": "uint256"
        }
      ],
      "name": "changeOffersLifeTime",
      "outputs": [],
      "stateMutability": "nonpayable",
      "type": "function"
    },
    {
      "inputs": [
        {
          "internalType": "uint256",
          "name": "newAmount",
          "type": "uint256"
        },
        {
          "internalType": "uint256",
          "name": "newDecimals",
          "type": "uint256"
        }
      ],
      "name": "changeOwnerTransferFees",
      "outputs": [],
      "stateMutability": "nonpayable",
      "type": "function"
    },
    {
      "inputs": [
        {
          "internalType": "uint256",
          "name": "tokenId",
          "type": "uint256"
        },
        {
          "internalType": "address",
          "name": "receiver",
          "type": "address"
        },
        {
          "internalType": "uint256",
          "name": "price",
          "type": "uint256"
        }
      ],
      "name": "mintToken",
      "outputs": [],
      "stateMutability": "payable",
      "type": "function"
    },
    {
      "inputs": [
        {
          "internalType": "uint256",
          "name": "tokenId",
          "type": "uint256"
        },
        {
          "internalType": "uint256",
          "name": "price",
          "type": "uint256"
        }
      ],
      "name": "setTokenPrice",
      "outputs": [],
      "stateMutability": "nonpayable",
      "type": "function"
    },
    {
      "inputs": [
        {
          "internalType": "uint256",
          "name": "tokenId",
          "type": "uint256"
        }
      ],
      "name": "acceptOffer",
      "outputs": [],
      "stateMutability": "nonpayable",
      "type": "function"
    },
    {
      "inputs": [
        {
          "internalType": "uint256",
          "name": "tokenId",
          "type": "uint256"
        }
      ],
      "name": "rejectOffer",
      "outputs": [],
      "stateMutability": "nonpayable",
      "type": "function"
    },
    {
      "inputs": [
        {
          "internalType": "uint256",
          "name": "tokenId",
          "type": "uint256"
        },
        {
          "internalType": "address",
          "name": "bidder",
          "type": "address"
        }
      ],
      "name": "submitOffer",
      "outputs": [],
      "stateMutability": "payable",
      "type": "function"
    },
    {
      "inputs": [
        {
          "internalType": "uint256",
          "name": "tokenId",
          "type": "uint256"
        }
      ],
      "name": "withdrawOffer",
      "outputs": [],
      "stateMutability": "nonpayable",
      "type": "function"
    },
    {
      "inputs": [],
      "name": "withdraw",
      "outputs": [],
      "stateMutability": "nonpayable",
      "type": "function"
    },
    {
      "inputs": [],
      "name": "retrieveIssuer",
      "outputs": [
        {
          "components": [
            {
              "internalType": "address",
              "name": "_owner",
              "type": "address"
            },
            {
              "internalType": "string",
              "name": "_name",
              "type": "string"
            },
            {
              "internalType": "string",
              "name": "_symbol",
              "type": "string"
            },
            {
              "internalType": "uint256",
              "name": "_feeAmount",
              "type": "uint256"
            },
            {
              "internalType": "uint256",
              "name": "_feeDecimals",
              "type": "uint256"
            },
            {
              "internalType": "enum Library.PaymentPlans",
              "name": "_paymentPlan",
              "type": "uint8"
            }
          ],
          "internalType": "struct ItemsLibrary._issuerStruct",
          "name": "",
          "type": "tuple"
        },
        {
          "internalType": "uint256",
          "name": "",
          "type": "uint256"
        }
      ],
      "stateMutability": "view",
      "type": "function"
    },
    {
      "inputs": [
        {
          "internalType": "uint256",
          "name": "tokenId",
          "type": "uint256"
        }
      ],
      "name": "retrieveToken",
      "outputs": [
        {
          "components": [
            {
              "internalType": "enum Library.PaymentPlans",
              "name": "_paymentPlan",
              "type": "uint8"
            },
            {
              "internalType": "uint256",
              "name": "_price",
              "type": "uint256"
            }
          ],
          "internalType": "struct ItemsLibrary._tokenStruct",
          "name": "",
          "type": "tuple"
        },
        {
          "internalType": "address",
          "name": "",
          "type": "address"
        }
      ],
      "stateMutability": "view",
      "type": "function"
    },
    {
      "inputs": [
        {
          "internalType": "uint256",
          "name": "tokenId",
          "type": "uint256"
        }
      ],
      "name": "retrieveOffer",
      "outputs": [
        {
          "components": [
            {
              "internalType": "uint256",
              "name": "_offer",
              "type": "uint256"
            },
            {
              "internalType": "address",
              "name": "_sender",
              "type": "address"
            },
            {
              "internalType": "address",
              "name": "_bidder",
              "type": "address"
            },
            {
              "internalType": "uint256",
              "name": "_deadline",
              "type": "uint256"
            }
          ],
          "internalType": "struct ItemsLibrary._offerStruct",
          "name": "",
          "type": "tuple"
        }
      ],
      "stateMutability": "view",
      "type": "function"
    }
  ],
  "bytecode": "0x608060405234801561001057600080fd5b50613574806100206000396000f3fe6080604052600436106101525760003560e01c806301ffc9a71461015757806306fdde031461018c578063081812fc146101ae578063095ea7b3146101e65780630d63cc8b1461020857806323b872dd146102285780633ccfd60b1461024857806342842e0e1461025d5780635542f6801461027d5780635b362e84146102ab5780636352211e146102cf57806370a08231146102ef5780637811a5bf1461031d5780638610f0451461033057806388b10c751461035057806393f82e161461037057806395d89b41146103905780639d16764f146103a5578063a22cb465146103c5578063a6f9dae1146103e5578063aa91855014610405578063b88d4fde14610425578063c815729d14610445578063c87b56dd14610465578063ca25f9e414610485578063cf0ba575146104a8578063e0ccfe8814610575578063e985e9c514610588578063eb685c47146105a8575b600080fd5b34801561016357600080fd5b50610177610172366004612d50565b6105c8565b60405190151581526020015b60405180910390f35b34801561019857600080fd5b506101a161061a565b6040516101839190612f05565b3480156101ba57600080fd5b506101ce6101c9366004612dab565b6106ac565b6040516001600160a01b039091168152602001610183565b3480156101f257600080fd5b50610206610201366004612bf4565b610739565b005b34801561021457600080fd5b50610206610223366004612a41565b61084a565b34801561023457600080fd5b50610206610243366004612b01565b6109ad565b34801561025457600080fd5b506102066109df565b34801561026957600080fd5b50610206610278366004612b01565b6109ec565b34801561028957600080fd5b5061029d610298366004612dab565b610a07565b604051610183929190613217565b3480156102b757600080fd5b506000546201000090046001600160a01b03166101ce565b3480156102db57600080fd5b506101ce6102ea366004612dab565b610a80565b3480156102fb57600080fd5b5061030f61030a3660046129eb565b610af7565b604051908152602001610183565b61020661032b366004612e02565b610b7e565b34801561033c57600080fd5b5061020661034b366004612dab565b610eea565b34801561035c57600080fd5b5061020661036b366004612dab565b610fd7565b34801561037c57600080fd5b5061020661038b366004612d8a565b611068565b34801561039c57600080fd5b506101a16110c2565b3480156103b157600080fd5b506102066103c0366004612dab565b6110d1565b3480156103d157600080fd5b506102066103e0366004612bc1565b611103565b3480156103f157600080fd5b506102066104003660046129eb565b611112565b34801561041157600080fd5b50610206610420366004612e29565b611161565b34801561043157600080fd5b50610206610440366004612b42565b611209565b34801561045157600080fd5b50610206610460366004612dab565b61123b565b34801561047157600080fd5b506101a1610480366004612dab565b61143b565b34801561049157600080fd5b5061049a611513565b60405161018392919061318f565b3480156104b457600080fd5b506105346104c3366004612dab565b6040805160808082018352600080835260208084018290528385018290526060938401829052948152609c8552839020835191820184528054825260018101546001600160a01b03908116958301959095526002810154909416928101929092526003909201549181019190915290565b60408051825181526020808401516001600160a01b039081169183019190915283830151169181019190915260609182015191810191909152608001610183565b610206610583366004612ddd565b611594565b34801561059457600080fd5b506101776105a3366004612a08565b6116e8565b3480156105b457600080fd5b506102066105c3366004612e29565b611716565b60006001600160e01b031982166380ac58cd60e01b14806105f957506001600160e01b03198216635b5e139f60e01b145b8061061457506301ffc9a760e01b6001600160e01b03198316145b92915050565b60606065805461062990613418565b80601f016020809104026020016040519081016040528092919081815260200182805461065590613418565b80156106a25780601f10610677576101008083540402835291602001916106a2565b820191906000526020600020905b81548152906001019060200180831161068557829003601f168201915b5050505050905090565b60006106b782611752565b61071d5760405162461bcd60e51b815260206004820152602c60248201527f4552433732313a20617070726f76656420717565727920666f72206e6f6e657860448201526b34b9ba32b73a103a37b5b2b760a11b60648201526084015b60405180910390fd5b506000908152606960205260409020546001600160a01b031690565b600061074482610a80565b9050806001600160a01b0316836001600160a01b031614156107b25760405162461bcd60e51b815260206004820152602160248201527f4552433732313a20617070726f76616c20746f2063757272656e74206f776e656044820152603960f91b6064820152608401610714565b336001600160a01b03821614806107ce57506107ce81336116e8565b61083b5760405162461bcd60e51b815260206004820152603860248201527f4552433732313a20617070726f76652063616c6c6572206973206e6f74206f776044820152771b995c881b9bdc88185c1c1c9bdd995908199bdc88185b1b60421b6064820152608401610714565b610845838361176f565b505050565b600054610100900460ff166108655760005460ff1615610869565b303b155b6108855760405162461bcd60e51b815260040161071490612fe5565b600054610100900460ff161580156108a7576000805461ffff19166101011790555b60405163bdbff48760e01b815260048101859052602481018490528490849073__Library_______________________________9063bdbff4879060440160006040518083038186803b1580156108fd57600080fd5b505af4158015610911573d6000803e3d6000fd5b5050505061091e8b6117dd565b6109288989611871565b609780546001600160a01b0319166001600160a01b038c1617905560ff84166001811115610958576109586134ae565b6097805460ff60a01b1916600160a01b83600181111561097a5761097a6134ae565b0217905550505060988590556099849055609a83905580156109a2576000805461ff00191690555b505050505050505050565b6109b8335b826118b2565b6109d45760405162461bcd60e51b815260040161071490613080565b61084583838361197c565b6109ea336001611b0a565b565b61084583838360405180602001604052806000815250611209565b60408051808201909152600080825260208201526000828152609b60205260408120610a3284610a80565b6040805180820190915282548390829060ff166001811115610a5657610a566134ae565b6001811115610a6757610a676134ae565b8152602001600182015481525050915091509150915091565b6000818152606760205260408120546001600160a01b0316806106145760405162461bcd60e51b815260206004820152602960248201527f4552433732313a206f776e657220717565727920666f72206e6f6e657869737460448201526832b73a103a37b5b2b760b91b6064820152608401610714565b60006001600160a01b038216610b625760405162461bcd60e51b815260206004820152602a60248201527f4552433732313a2062616c616e636520717565727920666f7220746865207a65604482015269726f206164647265737360b01b6064820152608401610714565b506001600160a01b031660009081526068602052604090205490565b60975433906001600160a01b03168114610baa5760405162461bcd60e51b815260040161071490612f18565b6000609754600160a01b900460ff166001811115610bca57610bca6134ae565b1415610e955760008060029054906101000a90046001600160a01b03166001600160a01b031663e220ad956040518163ffffffff1660e01b815260040160006040518083038186803b158015610c1f57600080fd5b505afa158015610c33573d6000803e3d6000fd5b505050506040513d6000823e601f3d908101601f19168201604052610c5b9190810190612c20565b600281518110610c6d57610c6d6134c4565b60200260200101516001600160a01b031663b049473f6040518163ffffffff1660e01b815260040160006040518083038186803b158015610cad57600080fd5b505afa158015610cc1573d6000803e3d6000fd5b505050506040513d6000823e601f3d908101601f19168201604052610ce99190810190612cc5565b9050600081600181518110610d0057610d006134c4565b6020026020010151905060008260026007811115610d2057610d206134ae565b81518110610d3057610d306134c4565b602002602001015190508082610d46919061329f565b341015610d8f5760405162461bcd60e51b815260206004820152601760248201527609ad2dce8d2dcce408ccacae640dcdee840cadcdeeaced604b1b6044820152606401610714565b600060029054906101000a90046001600160a01b03166001600160a01b031663e220ad956040518163ffffffff1660e01b815260040160006040518083038186803b158015610ddd57600080fd5b505afa158015610df1573d6000803e3d6000fd5b505050506040513d6000823e601f3d908101601f19168201604052610e199190810190612c20565b600281518110610e2b57610e2b6134c4565b60200260200101516001600160a01b0316631b9265b88234610e4d91906133d5565b6040518263ffffffff1660e01b81526004016000604051808303818588803b158015610e7857600080fd5b505af1158015610e8c573d6000803e3d6000fd5b50505050505050505b610e9f8385611c32565b6000848152609b6020526040902060018082018490556097548254600160a01b90910460ff16929160ff19909116908381811115610edf57610edf6134ae565b021790555050505050565b80600080828152609c60205260409020600301544211610f1c5760405162461bcd60e51b815260040161071490612fae565b6000838152609c60205260409020600101546001600160a01b03163314610f9b5760405162461bcd60e51b815260206004820152602d60248201527f4f6e6c7920746865206f726967696e616c2073656e6465722063616e2077697460448201526c1a191c985dc81d1a1948189a59609a1b6064820152608401610714565b6000838152609c6020526040902060018101549054610fc3916001600160a01b031690611c4c565b610fcc83611cd4565b610845336001611b0a565b80610fe1336109b2565b610ffd5760405162461bcd60e51b815260040161071490613033565b8160016000828152609c60205260409020600301544211156110315760405162461bcd60e51b8152600401610714906130d1565b6000848152609c6020526040902060018101549054611059916001600160a01b031690611c4c565b61106284611cd4565b50505050565b60975433906001600160a01b031681146110945760405162461bcd60e51b815260040161071490612f18565b6097805483919060ff60a01b1916600160a01b8360018111156110b9576110b96134ae565b02179055505050565b60606066805461062990613418565b60975433906001600160a01b031681146110fd5760405162461bcd60e51b815260040161071490612f18565b50609855565b61110e338383611d0b565b5050565b60975433906001600160a01b0316811461113e5760405162461bcd60e51b815260040161071490612f18565b50609780546001600160a01b0319166001600160a01b0392909216919091179055565b60975433906001600160a01b0316811461118d5760405162461bcd60e51b815260040161071490612f18565b60405163bdbff48760e01b815260048101849052602481018390528390839073__Library_______________________________9063bdbff4879060440160006040518083038186803b1580156111e357600080fd5b505af41580156111f7573d6000803e3d6000fd5b505050609995909555505050609a5550565b61121333836118b2565b61122f5760405162461bcd60e51b815260040161071490613080565b61106284848484611dd6565b80611245336109b2565b6112615760405162461bcd60e51b815260040161071490613033565b8160016000828152609c60205260409020600301544211156112955760405162461bcd60e51b8152600401610714906130d1565b6000806000806112a488611e09565b9350935093509350600082848684600a6112be919061330e565b6112c99060646133b6565b6112d391906133d5565b6112dd91906133d5565b6112e791906133d5565b905060006112f48a610a80565b60008b8152609c6020908152604080832060020154815192830190915291815291925061132e9183916001600160a01b0316908d90611dd6565b60008a8152609c60205260409020546113468b611cd4565b611355600082888760006120ad565b611406600060029054906101000a90046001600160a01b03166001600160a01b031663e220ad956040518163ffffffff1660e01b815260040160006040518083038186803b1580156113a657600080fd5b505afa1580156113ba573d6000803e3d6000fd5b505050506040513d6000823e601f3d908101601f191682016040526113e29190810190612c20565b6006815181106113f4576113f46134c4565b602002602001015182878760016120ad565b609754611420906001600160a01b031682898760016120ad565b61142e8282858760006120ad565b5050505050505050505050565b606061144682611752565b6114aa5760405162461bcd60e51b815260206004820152602f60248201527f4552433732314d657461646174613a2055524920717565727920666f72206e6f60448201526e3732bc34b9ba32b73a103a37b5b2b760891b6064820152608401610714565b60006114c160408051602081019091526000815290565b905060008151116114e1576040518060200160405280600081525061150c565b806114eb8461245b565b6040516020016114fc929190612e99565b6040516020818303038152906040525b9392505050565b61151b61288c565b6040805160c081019091526097546001600160a01b031681526000906020810161154361061a565b81526020016115506110c2565b81526020016099548152602001609a548152602001609760149054906101000a900460ff166001811115611586576115866134ae565b815250609854915091509091565b81600080828152609c602052604090206003015442116115c65760405162461bcd60e51b815260040161071490612fae565b6000848152609b6020526040902060010154849034908110156116375760405162461bcd60e51b8152602060048201526024808201527f546865206f666665722069732062656c6f7720746865206d696e696d756d20706044820152637269636560e01b6064820152608401610714565b6000868152609c60205260409020600101546001600160a01b03161561167f576000868152609c602052604090206001810154905461167f916001600160a01b031690611c4c565b6000868152609c60205260409020348155600181018054336001600160a01b031991821617909155600290910180549091166001600160a01b0387161790556098546116cb904261329f565b6000968752609c6020526040909620600301959095555050505050565b6001600160a01b039182166000908152606a6020908152604080832093909416825291909152205460ff1690565b81611720336109b2565b61173c5760405162461bcd60e51b815260040161071490613033565b506000918252609b602052604090912060010155565b6000908152606760205260409020546001600160a01b0316151590565b600081815260696020526040902080546001600160a01b0319166001600160a01b03841690811790915581906117a482610a80565b6001600160a01b03167f8c5be1e5ebec7d5bd14f71427d1e84f3dd0314c0f7b2291e5b200ac8c7c3b92560405160405180910390a45050565b600054610100900460ff166117f85760005460ff16156117fc565b303b155b6118185760405162461bcd60e51b815260040161071490612fe5565b600054610100900460ff1615801561183a576000805461ffff19166101011790555b6000805462010000600160b01b031916620100006001600160a01b03851602179055801561110e576000805461ff00191690555050565b600054610100900460ff166118985760405162461bcd60e51b815260040161071490613108565b6118a0612558565b6118a8612558565b61110e828261257f565b60006118bd82611752565b61191e5760405162461bcd60e51b815260206004820152602c60248201527f4552433732313a206f70657261746f7220717565727920666f72206e6f6e657860448201526b34b9ba32b73a103a37b5b2b760a11b6064820152608401610714565b600061192983610a80565b9050806001600160a01b0316846001600160a01b031614806119645750836001600160a01b0316611959846106ac565b6001600160a01b0316145b80611974575061197481856116e8565b949350505050565b826001600160a01b031661198f82610a80565b6001600160a01b0316146119f75760405162461bcd60e51b815260206004820152602960248201527f4552433732313a207472616e73666572206f6620746f6b656e2074686174206960448201526839903737ba1037bbb760b91b6064820152608401610714565b6001600160a01b038216611a595760405162461bcd60e51b8152602060048201526024808201527f4552433732313a207472616e7366657220746f20746865207a65726f206164646044820152637265737360e01b6064820152608401610714565b611a6460008261176f565b6001600160a01b0383166000908152606860205260408120805460019290611a8d9084906133d5565b90915550506001600160a01b0382166000908152606860205260408120805460019290611abb90849061329f565b909155505060008181526067602052604080822080546001600160a01b0319166001600160a01b03868116918217909255915184939187169160008051602061351f83398151915291a4505050565b6001600160a01b0382166000908152609d602052604080822090516326162dc360e01b8152600481019190915273__ItemsLibrary__________________________906326162dc39060240160206040518083038186803b158015611b6e57600080fd5b505af4158015611b82573d6000803e3d6000fd5b505050506040513d601f19601f82011682018060405250810190611ba69190612dc4565b6001600160a01b0384166000908152609d6020526040908190209051637e9f902d60e11b815291925073__ItemsLibrary__________________________9163fd3f205a91611bfd91859088908890600401613153565b60006040518083038186803b158015611c1557600080fd5b505af4158015611c29573d6000803e3d6000fd5b50505050505050565b61110e8282604051806020016040528060008152506125cd565b6001600160a01b0382166000908152609d6020526040908190209051633833532760e01b815273__ItemsLibrary__________________________91633833532791611ca091908590600190600401613179565b60006040518083038186803b158015611cb857600080fd5b505af4158015611ccc573d6000803e3d6000fd5b505050505050565b6000908152609c602052604081208181556001810180546001600160a01b0319908116909155600282018054909116905560030155565b816001600160a01b0316836001600160a01b03161415611d695760405162461bcd60e51b815260206004820152601960248201527822a9219b99189d1030b8383937bb32903a379031b0b63632b960391b6044820152606401610714565b6001600160a01b038381166000818152606a6020908152604080832094871680845294825291829020805460ff191686151590811790915591519182527f17307eab39ab6107e8899845ad3d59bd9653f200f220920489ca2b5937696c31910160405180910390a3505050565b611de184848461197c565b611ded84848484612600565b6110625760405162461bcd60e51b815260040161071490612f5c565b609954609a546000838152609b602052604081205490928392839283929190839081908190819060ff166001811115611e4457611e446134ae565b600114156120105760008060029054906101000a90046001600160a01b03166001600160a01b031663e220ad956040518163ffffffff1660e01b815260040160006040518083038186803b158015611e9b57600080fd5b505afa158015611eaf573d6000803e3d6000fd5b505050506040513d6000823e601f3d908101601f19168201604052611ed79190810190612c20565b600281518110611ee957611ee96134c4565b60200260200101516001600160a01b031663b049473f6040518163ffffffff1660e01b815260040160006040518083038186803b158015611f2957600080fd5b505afa158015611f3d573d6000803e3d6000fd5b505050506040513d6000823e601f3d908101601f19168201604052611f659190810190612cc5565b905080600381518110611f7a57611f7a6134c4565b602002602001015194508060046007811115611f9857611f986134ae565b81518110611fa857611fa86134c4565b602002602001015193508060056007811115611fc657611fc66134ae565b81518110611fd657611fd66134c4565b602002602001015192508060066007811115611ff457611ff46134ae565b81518110612004576120046134c4565b60200260200101519150505b600061203560405180606001604052808881526020018681526020018481525061270d565b905061204186826133d5565b61204c90600a61330e565b61205690886133b6565b965061206284826133d5565b61206d90600a61330e565b61207790866133b6565b945061208382826133d5565b61208e90600a61330e565b61209890846133b6565b969c949b509599509497509195505050505050565b60006120b984866133b6565b905060006120c884600a61330e565b6120d39060646133b6565b905060006120e182846132b7565b905060006120ef83836133b6565b6120f990856133d5565b6001600160a01b038a166000908152609d6020526040908190209051633833532760e01b815291925073__ItemsLibrary__________________________9163383353279161214f918690600190600401613179565b60006040518083038186803b15801561216757600080fd5b505af415801561217b573d6000803e3d6000fd5b5050506001600160a01b038a166000908152609d6020526040908190209051633833532760e01b815273__ItemsLibrary__________________________92506338335327916121d19185908890600401613179565b60006040518083038186803b1580156121e957600080fd5b505af41580156121fd573d6000803e3d6000fd5b50505085151590506109a2576001600160a01b0389161561222857612223896001611b0a565b6109a2565b6001600160a01b0389166000908152609d602052604080822090516326162dc360e01b8152600481019190915273__ItemsLibrary__________________________906326162dc39060240160206040518083038186803b15801561228c57600080fd5b505af41580156122a0573d6000803e3d6000fd5b505050506040513d601f19601f820116820180604052508101906122c49190612dc4565b905073__ItemsLibrary__________________________63fd3f205a609d60008d6001600160a01b03166001600160a01b03168152602001908152602001600020838d60006040518563ffffffff1660e01b81526004016123289493929190613153565b60006040518083038186803b15801561234057600080fd5b505af4158015612354573d6000803e3d6000fd5b50505050600060029054906101000a90046001600160a01b03166001600160a01b031663e220ad956040518163ffffffff1660e01b815260040160006040518083038186803b1580156123a657600080fd5b505afa1580156123ba573d6000803e3d6000fd5b505050506040513d6000823e601f3d908101601f191682016040526123e29190810190612c20565b6002815181106123f4576123f46134c4565b60200260200101516001600160a01b0316631b9265b8826040518263ffffffff1660e01b81526004016000604051808303818588803b15801561243657600080fd5b505af115801561244a573d6000803e3d6000fd5b505050505050505050505050505050565b60608161247f5750506040805180820190915260018152600360fc1b602082015290565b8160005b81156124a9578061249381613453565b91506124a29050600a836132b7565b9150612483565b6000816001600160401b038111156124c3576124c36134da565b6040519080825280601f01601f1916602001820160405280156124ed576020820181803683370190505b5090505b8415611974576125026001836133d5565b915061250f600a8661346e565b61251a90603061329f565b60f81b81838151811061252f5761252f6134c4565b60200101906001600160f81b031916908160001a905350612551600a866132b7565b94506124f1565b600054610100900460ff166109ea5760405162461bcd60e51b815260040161071490613108565b600054610100900460ff166125a65760405162461bcd60e51b815260040161071490613108565b81516125b99060659060208501906128db565b5080516108459060669060208401906128db565b6125d7838361276c565b6125e46000848484612600565b6108455760405162461bcd60e51b815260040161071490612f5c565b60006001600160a01b0384163b1561270257604051630a85bd0160e11b81526001600160a01b0385169063150b7a0290612644903390899088908890600401612ec8565b602060405180830381600087803b15801561265e57600080fd5b505af192505050801561268e575060408051601f3d908101601f1916820190925261268b91810190612d6d565b60015b6126e8573d8080156126bc576040519150601f19603f3d011682016040523d82523d6000602084013e6126c1565b606091505b5080516126e05760405162461bcd60e51b815260040161071490612f5c565b805181602001fd5b6001600160e01b031916630a85bd0160e11b149050611974565b506001949350505050565b600080805b60038110156127655783816003811061272d5761272d6134c4565b60200201518210156127535783816003811061274b5761274b6134c4565b602002015191505b8061275d81613453565b915050612712565b5092915050565b6001600160a01b0382166127c25760405162461bcd60e51b815260206004820181905260248201527f4552433732313a206d696e7420746f20746865207a65726f20616464726573736044820152606401610714565b6127cb81611752565b156128175760405162461bcd60e51b815260206004820152601c60248201527b115490cdcc8c4e881d1bdad95b88185b1c9958591e481b5a5b9d195960221b6044820152606401610714565b6001600160a01b038216600090815260686020526040812080546001929061284090849061329f565b909155505060008181526067602052604080822080546001600160a01b0319166001600160a01b038616908117909155905183929060008051602061351f833981519152908290a45050565b6040518060c0016040528060006001600160a01b0316815260200160608152602001606081526020016000815260200160008152602001600060018111156128d6576128d66134ae565b905290565b8280546128e790613418565b90600052602060002090601f016020900481019282612909576000855561294f565b82601f1061292257805160ff191683800117855561294f565b8280016001018555821561294f579182015b8281111561294f578251825591602001919060010190612934565b5061295b92915061295f565b5090565b5b8082111561295b5760008155600101612960565b60006001600160401b0383111561298d5761298d6134da565b6129a0601f8401601f191660200161324c565b90508281528383830111156129b457600080fd5b828260208301376000602084830101529392505050565b600082601f8301126129dc57600080fd5b61150c83833560208501612974565b6000602082840312156129fd57600080fd5b813561150c816134f0565b60008060408385031215612a1b57600080fd5b8235612a26816134f0565b91506020830135612a36816134f0565b809150509250929050565b600080600080600080600080610100898b031215612a5e57600080fd5b8835612a69816134f0565b97506020890135612a79816134f0565b965060408901356001600160401b0380821115612a9557600080fd5b612aa18c838d016129cb565b975060608b0135915080821115612ab757600080fd5b50612ac48b828c016129cb565b9550506080890135935060a0890135925060c0890135915060e089013560ff81168114612af057600080fd5b809150509295985092959890939650565b600080600060608486031215612b1657600080fd5b8335612b21816134f0565b92506020840135612b31816134f0565b929592945050506040919091013590565b60008060008060808587031215612b5857600080fd5b8435612b63816134f0565b93506020850135612b73816134f0565b92506040850135915060608501356001600160401b03811115612b9557600080fd5b8501601f81018713612ba657600080fd5b612bb587823560208401612974565b91505092959194509250565b60008060408385031215612bd457600080fd5b8235612bdf816134f0565b915060208301358015158114612a3657600080fd5b60008060408385031215612c0757600080fd5b8235612c12816134f0565b946020939093013593505050565b60006020808385031215612c3357600080fd5b82516001600160401b03811115612c4957600080fd5b8301601f81018513612c5a57600080fd5b8051612c6d612c688261327c565b61324c565b80828252848201915084840188868560051b8701011115612c8d57600080fd5b600094505b83851015612cb9578051612ca5816134f0565b835260019490940193918501918501612c92565b50979650505050505050565b60006020808385031215612cd857600080fd5b82516001600160401b03811115612cee57600080fd5b8301601f81018513612cff57600080fd5b8051612d0d612c688261327c565b80828252848201915084840188868560051b8701011115612d2d57600080fd5b600094505b83851015612cb9578051835260019490940193918501918501612d32565b600060208284031215612d6257600080fd5b813561150c81613508565b600060208284031215612d7f57600080fd5b815161150c81613508565b600060208284031215612d9c57600080fd5b81356002811061150c57600080fd5b600060208284031215612dbd57600080fd5b5035919050565b600060208284031215612dd657600080fd5b5051919050565b60008060408385031215612df057600080fd5b823591506020830135612a36816134f0565b600080600060608486031215612e1757600080fd5b833592506020840135612b31816134f0565b60008060408385031215612e3c57600080fd5b50508035926020909101359150565b60008151808452612e638160208601602086016133ec565b601f01601f19169290920160200192915050565b60028110612e9557634e487b7160e01b600052602160045260246000fd5b9052565b60008351612eab8184602088016133ec565b835190830190612ebf8183602088016133ec565b01949350505050565b6001600160a01b0385811682528416602082015260408101839052608060608201819052600090612efb90830184612e4b565b9695505050505050565b60208152600061150c6020830184612e4b565b60208082526024908201527f4f6e6c7920746865204f776e657220697320616c6c6f77656420746f20646f206040820152631d1a185d60e21b606082015260800190565b60208082526032908201527f4552433732313a207472616e7366657220746f206e6f6e20455243373231526560408201527131b2b4bb32b91034b6b83632b6b2b73a32b960711b606082015260800190565b6020808252601d908201527f546865726520697320616e206f6666657220696e2070726f6772657373000000604082015260600190565b6020808252602e908201527f496e697469616c697a61626c653a20636f6e747261637420697320616c72656160408201526d191e481a5b9a5d1a585b1a5e995960921b606082015260800190565b6020808252602d908201527f4f6e6c79206f776e6572206f7220617070726f7665642063616e206368616e6760408201526c6520746f6b656e20707269636560981b606082015260800190565b60208082526031908201527f4552433732313a207472616e736665722063616c6c6572206973206e6f74206f6040820152701ddb995c881b9bdc88185c1c1c9bdd9959607a1b606082015260800190565b6020808252601d908201527f5468657265206973206e6f206f6666657220696e2070726f6772657373000000604082015260600190565b6020808252602b908201527f496e697469616c697a61626c653a20636f6e7472616374206973206e6f74206960408201526a6e697469616c697a696e6760a81b606082015260800190565b93845260208401929092526001600160a01b031660408301521515606082015260800190565b9283526020830191909152604082015260600190565b604080825283516001600160a01b031690820152602083015160c060608301526000906131c0610100840182612e4b565b90506040850151603f198483030160808501526131dd8282612e4b565b915050606085015160a0840152608085015160c084015260a085015161320660e0850182612e77565b506020929092019290925292915050565b600060608201905061322a828551612e77565b602093840151938201939093526001600160a01b039190911660409091015290565b604051601f8201601f191681016001600160401b0381118282101715613274576132746134da565b604052919050565b60006001600160401b03821115613295576132956134da565b5060051b60200190565b600082198211156132b2576132b2613482565b500190565b6000826132c6576132c6613498565b500490565b600181815b808511156133065781600019048211156132ec576132ec613482565b808516156132f957918102915b93841c93908002906132d0565b509250929050565b600061150c838360008261332457506001610614565b8161333157506000610614565b816001811461334757600281146133515761336d565b6001915050610614565b60ff84111561336257613362613482565b50506001821b610614565b5060208310610133831016604e8410600b8410161715613390575081810a610614565b61339a83836132cb565b80600019048211156133ae576133ae613482565b029392505050565b60008160001904831182151516156133d0576133d0613482565b500290565b6000828210156133e7576133e7613482565b500390565b60005b838110156134075781810151838201526020016133ef565b838111156110625750506000910152565b600181811c9082168061342c57607f821691505b6020821081141561344d57634e487b7160e01b600052602260045260246000fd5b50919050565b600060001982141561346757613467613482565b5060010190565b60008261347d5761347d613498565b500690565b634e487b7160e01b600052601160045260246000fd5b634e487b7160e01b600052601260045260246000fd5b634e487b7160e01b600052602160045260246000fd5b634e487b7160e01b600052603260045260246000fd5b634e487b7160e01b600052604160045260246000fd5b6001600160a01b038116811461350557600080fd5b50565b6001600160e01b03198116811461350557600080fdfeddf252ad1be2c89b69c2b068fc378daa952ba7f163c4a11628f55a4df523b3efa264697066735822122047d1ea801c26da48ac10d4ba215ea1b33fdbde8f01320d11eb3ec7711c862cef64736f6c63430008070033",
  "immutableReferences": {},
  "source": "// SPDX-License-Identifier: GPL-3.0\r\n\r\npragma solidity 0.8.7;\r\n\r\n/**\r\n Certis Token is an ERC20 Token that grants its holder the right to:\r\n   - Vote on all the systems propositions (changing system configuraiton etc...)\r\n   - Receive Dividends for all the payments forwarded to the Treasury contract\r\n\r\nBefore every token transfer we contact the token gouvernance Base contracts so that the can update the tokens used for voting if needed\r\n\r\n */\r\n\r\nimport \"@openzeppelin/contracts-upgradeable/token/ERC721/ERC721Upgradeable.sol\";\r\nimport \"@openzeppelin/contracts-upgradeable/proxy/utils/Initializable.sol\";\r\nimport \"../Base/ManagedBaseContract.sol\";\r\nimport \"../Libraries/Library.sol\";\r\nimport \"../Libraries/ItemsLibrary.sol\";\r\nimport \"../Interfaces/ITreasury.sol\";\r\nimport \"../Interfaces/INFTMarket.sol\";\r\n\r\n\r\n contract NFTMarket is  INFTMarket, Initializable, ManagedBaseContract, ERC721Upgradeable {\r\n    using Library for *;\r\n\r\n  // EVENTS /////////////////////////////////////////\r\n  \r\n\r\n  // DATA /////////////////////////////////////////\r\n  address _owner;\r\n  Library.PaymentPlans _paymentPlan;\r\n  uint256 _offersLifeTime;\r\n  uint256 _ownerTransferFeeAmount;\r\n  uint256 _ownerTransferFeeDecimals;\r\n\r\n  mapping(uint256 => ItemsLibrary._tokenStruct) private _tokenInfo;\r\n  mapping(uint256 => ItemsLibrary._offerStruct) private _tokenOffer;\r\n\r\n  mapping(address => ItemsLibrary._BalanceStruct) private _balanceOfAccount;\r\n\r\n\r\n  // MODIFIERS /////////////////////////////////////////\r\n  modifier isTheOwner(address addr){\r\n      require(_owner == addr, \"Only the Owner is allowed to do that\");\r\n      _;\r\n  }\r\n\r\n  modifier isTokenOwnerOrApproved(uint256 tokenId){\r\n      require(_isApprovedOrOwner(_msgSender(), tokenId), \"Only owner or approved can change token price\");\r\n      _;\r\n  }\r\n\r\n  modifier OfferInProgress(uint256 tokenId, bool YesOrNo){\r\n      if(YesOrNo) require(block.timestamp <= _tokenOffer[tokenId]._deadline, \"There is no offer in progress\");\r\n      else require(block.timestamp > _tokenOffer[tokenId]._deadline, \"There is an offer in progress\");\r\n      _;\r\n  }\r\n\r\n  modifier priceOK(uint256 tokenId, uint256 offer){\r\n      require(offer >= _tokenInfo[tokenId]._price, \"The offer is below the minimum price\");\r\n      _;\r\n  }\r\n\r\n  modifier validFees(uint256 fee, uint256 decimals){\r\n    Library.validFees(fee, decimals);\r\n    _;\r\n  }\r\n\r\n  \r\n\r\n  // CONSTRUCTOR /////////////////////////////////////////\r\n  function NFTMarket_init(address managerContractAddress, address owner, string memory name, string memory symbol, uint256 offersLifeTime, uint256 ownerTransferFeeAmount, uint256 ownerTransferFeeDecimals, uint8 paymentPlan) public initializer \r\n    validFees(ownerTransferFeeAmount, ownerTransferFeeDecimals)\r\n  {\r\n      super.ManagedBaseContract_init(managerContractAddress); \r\n      super.__ERC721_init(name, symbol); \r\n\r\n      _owner = owner;\r\n      _paymentPlan = Library.PaymentPlans(paymentPlan);\r\n      _offersLifeTime = offersLifeTime;\r\n      _ownerTransferFeeAmount = ownerTransferFeeAmount;\r\n      _ownerTransferFeeDecimals = ownerTransferFeeDecimals;\r\n  }\r\n\r\n  // FUNCTIONALITY /////////////////////////////////////////\r\n  function changeOwner(address newOwner) external override\r\n    isTheOwner(msg.sender)\r\n  {\r\n      _owner = newOwner;\r\n  }\r\n\r\n  function changePaymentPlan(Library.PaymentPlans newPaymentPlan) external override\r\n    isTheOwner(msg.sender)\r\n  {\r\n      _paymentPlan = newPaymentPlan;\r\n  }\r\n\r\n  function changeOffersLifeTime(uint256 newLifeTime) external override\r\n    isTheOwner(msg.sender)\r\n  {\r\n      _offersLifeTime = newLifeTime;\r\n  }\r\n\r\n  function changeOwnerTransferFees(uint256 newAmount, uint256 newDecimals) external override\r\n    isTheOwner(msg.sender)\r\n    validFees(newAmount, newDecimals)\r\n  {\r\n      _ownerTransferFeeAmount = newAmount;\r\n      _ownerTransferFeeDecimals = newDecimals;\r\n  }\r\n\r\n  function mintToken(uint256 tokenId, address receiver, uint256 price) external payable override\r\n    isTheOwner(msg.sender)\r\n  {\r\n      if(_paymentPlan == Library.PaymentPlans.Minting)\r\n      {\r\n        uint[] memory Prices = ITreasury(_managerContract.retrieveTransparentProxies()[uint256(Library.TransparentProxies.Treasury)]).retrieveSettings();\r\n        uint256 MintingFee = Prices[uint256(Library.Prices.MintingFee)];\r\n        uint256 AdminMintingFee = Prices[uint256(Library.Prices.AdminMintingFee)];\r\n        require(msg.value >= MintingFee + AdminMintingFee, \"Minting Fees not enough\");\r\n        ITreasury(_managerContract.retrieveTransparentProxies()[uint256(Library.TransparentProxies.Treasury)]).pay{value:msg.value - AdminMintingFee}();\r\n      }\r\n      _safeMint(receiver, tokenId);\r\n      _tokenInfo[tokenId]._price = price;\r\n      _tokenInfo[tokenId]._paymentPlan = _paymentPlan;\r\n  }\r\n\r\n  function setTokenPrice(uint256 tokenId, uint256 price) external override\r\n    isTokenOwnerOrApproved(tokenId)\r\n  {\r\n      _tokenInfo[tokenId]._price = price;\r\n  }\r\n\r\n  function acceptOffer(uint256 tokenId) external override\r\n    isTokenOwnerOrApproved(tokenId)\r\n    OfferInProgress(tokenId, true)\r\n  {\r\n    (uint256 OwnerTransferFeeAmount, uint256 TransferFeeAmount, uint256 AdminTransferFeeAmount, uint256 commonDecimals) = getFees(tokenId);\r\n\r\n\r\n    uint256 percentageForTokenOwner = (100 * 10**commonDecimals) - OwnerTransferFeeAmount - TransferFeeAmount - AdminTransferFeeAmount;\r\n    require(percentageForTokenOwner >= 0, \"Fees exceed 100 percent\");\r\n\r\n    address FormerOwner = ownerOf(tokenId);\r\n\r\n    _safeTransfer(FormerOwner, _tokenOffer[tokenId]._bidder, tokenId, \"\");\r\n    uint256 offer = _tokenOffer[tokenId]._offer;\r\n    removeOffer(tokenId);\r\n\r\n    Pay(address(0), offer, TransferFeeAmount, commonDecimals, false);\r\n    Pay(_managerContract.retrieveTransparentProxies()[uint256(Library.TransparentProxies.AdminPiggyBank)], offer, AdminTransferFeeAmount, commonDecimals, true);\r\n    Pay(_owner, offer, OwnerTransferFeeAmount, commonDecimals, true);\r\n    Pay(FormerOwner, offer, percentageForTokenOwner, commonDecimals, false);\r\n  }\r\n\r\n  function getFees(uint256 tokenId) internal view returns(uint256, uint256, uint256, uint256)\r\n  {\r\n    uint256 OwnerTransferFeeAmount = _ownerTransferFeeAmount;\r\n    uint256 OwnerTransferFeeDecimals = _ownerTransferFeeDecimals;\r\n    uint256 TransferFeeAmount = 0;\r\n    uint256 TransferFeeDecimals = 0;\r\n    uint256 AdminTransferFeeAmount = 0;\r\n    uint256 AdminTransferFeeDecimals = 0;\r\n\r\n    if(Library.PaymentPlans.TransferFee == _tokenInfo[tokenId]._paymentPlan){\r\n        uint[] memory Prices = ITreasury(_managerContract.retrieveTransparentProxies()[uint256(Library.TransparentProxies.Treasury)]).retrieveSettings();\r\n        TransferFeeAmount = Prices[uint256(Library.Prices.TransferFeeAmount)];\r\n        TransferFeeDecimals = Prices[uint256(Library.Prices.TransferFeeDecimals)];\r\n        AdminTransferFeeAmount = Prices[uint256(Library.Prices.AdminTransferFeeAmount)];\r\n        AdminTransferFeeDecimals = Prices[uint256(Library.Prices.AdminTransferFeeDecimals)];\r\n    }\r\n\r\n    uint256 commonDecimals = getLargest([OwnerTransferFeeDecimals, TransferFeeDecimals, AdminTransferFeeDecimals]); \r\n    OwnerTransferFeeAmount = OwnerTransferFeeAmount * 10**(commonDecimals - OwnerTransferFeeDecimals);\r\n    TransferFeeAmount = TransferFeeAmount * 10**(commonDecimals - TransferFeeDecimals);\r\n    AdminTransferFeeAmount = AdminTransferFeeAmount * 10**(commonDecimals - AdminTransferFeeDecimals);\r\n\r\n    return(OwnerTransferFeeAmount, TransferFeeAmount, AdminTransferFeeAmount, commonDecimals);\r\n  }\r\n    \r\n  function rejectOffer(uint256 tokenId) external override\r\n    isTokenOwnerOrApproved(tokenId)\r\n    OfferInProgress(tokenId, true)\r\n  {\r\n    assignToRejectedSender(_tokenOffer[tokenId]._sender, _tokenOffer[tokenId]._offer);\r\n    removeOffer(tokenId);\r\n  }\r\n\r\n  function removeOffer(uint256 tokenId) internal\r\n  {\r\n    delete(_tokenOffer[tokenId]);\r\n  }\r\n\r\n  function submitOffer(uint256 tokenId, address bidder) external payable override\r\n    OfferInProgress(tokenId, false)\r\n    priceOK(tokenId, msg.value)\r\n  {\r\n      if(address(0) != _tokenOffer[tokenId]._sender) assignToRejectedSender(_tokenOffer[tokenId]._sender, _tokenOffer[tokenId]._offer);\r\n      _tokenOffer[tokenId]._offer = msg.value;\r\n      _tokenOffer[tokenId]._sender = msg.sender;\r\n      _tokenOffer[tokenId]._bidder = bidder;\r\n      _tokenOffer[tokenId]._deadline = block.timestamp + _offersLifeTime;\r\n  }\r\n    \r\n  function withdrawOffer(uint256 tokenId) external override\r\n    OfferInProgress(tokenId, false)\r\n  {\r\n    require(msg.sender == _tokenOffer[tokenId]._sender, \"Only the original sender can withdraw the bid\");\r\n    assignToRejectedSender(_tokenOffer[tokenId]._sender, _tokenOffer[tokenId]._offer);\r\n    removeOffer(tokenId);\r\n    internalWithdraw(msg.sender, true);\r\n  }\r\n\r\n  function withdraw() external override\r\n  {\r\n    internalWithdraw(msg.sender, true);\r\n  }\r\n\r\n  function assignToRejectedSender(address sender, uint256 offer) internal\r\n  {\r\n      ItemsLibrary.addBalance(_balanceOfAccount[sender], offer, 1);\r\n  }\r\n\r\n  function Pay(address to, uint256 amount, uint256 percentage, uint256 decimals, bool AssignOrSend) internal\r\n  {\r\n      uint256 numerator = amount * percentage;\r\n      uint256 denominator = 100 * 10**decimals;\r\n\r\n      uint256 quotient = numerator / denominator;\r\n      uint256 remainder = numerator - (quotient * denominator);\r\n\r\n      ItemsLibrary.addBalance(_balanceOfAccount[to], quotient, 1);\r\n      ItemsLibrary.addBalance(_balanceOfAccount[to], remainder, denominator);\r\n\r\n      if(false == AssignOrSend)\r\n      {\r\n          if(address(0) != to) internalWithdraw(to, true);\r\n          else {\r\n            uint amountToTransfer = ItemsLibrary.checkFullBalance(_balanceOfAccount[to]);\r\n            ItemsLibrary.InternalWithdraw(_balanceOfAccount[to], amountToTransfer, to, false);\r\n            ITreasury(_managerContract.retrieveTransparentProxies()[uint256(Library.TransparentProxies.Treasury)]).pay{value:amountToTransfer}();\r\n          }\r\n      }\r\n  }\r\n\r\n  function internalWithdraw(address addr, bool send) internal\r\n  {\r\n    uint256 amount = ItemsLibrary.checkFullBalance(_balanceOfAccount[addr]);\r\n    ItemsLibrary.InternalWithdraw(_balanceOfAccount[addr], amount, addr, send);\r\n  }\r\n\r\n  function retrieveIssuer() external override view returns (ItemsLibrary._issuerStruct memory, uint256)\r\n  {\r\n    return(ItemsLibrary._issuerStruct(_owner, name(), symbol(), _ownerTransferFeeAmount, _ownerTransferFeeDecimals, _paymentPlan), _offersLifeTime);\r\n  }\r\n\r\n  function retrieveToken(uint256 tokenId) external override view returns (ItemsLibrary._tokenStruct memory, address)\r\n  {\r\n    return(_tokenInfo[tokenId], ownerOf(tokenId));\r\n  }\r\n\r\n  function retrieveOffer(uint256 tokenId) external override view returns (ItemsLibrary._offerStruct memory)\r\n  {\r\n      return(_tokenOffer[tokenId]);\r\n  }\r\n\r\n  function getLargest(uint256[3] memory nums) internal pure returns(uint256)\r\n  {\r\n    uint256 largest = 0;\r\n\r\n    for(uint i=0; i < nums.length; i++)\r\n    {\r\n        if(largest < nums[i])largest = nums[i];\r\n    }\r\n\r\n    return largest;\r\n  }\r\n\r\n }",
  "sourcePath": "C:\\Users\\d-aam\\GitHub\\Originals\\contracts\\MainContracts\\NFTMarket.sol",
  "compiler": {
    "name": "solc",
    "version": "0.8.7+commit.e28d00a7.Emscripten.clang"
  },
  "schemaVersion": "3.4.3",
  "updatedAt": "2022-01-25T15:06:11.970Z",
  "devdoc": {
    "kind": "dev",
    "methods": {
      "approve(address,uint256)": {
        "details": "See {IERC721-approve}."
      },
      "balanceOf(address)": {
        "details": "See {IERC721-balanceOf}."
      },
      "getApproved(uint256)": {
        "details": "See {IERC721-getApproved}."
      },
      "isApprovedForAll(address,address)": {
        "details": "See {IERC721-isApprovedForAll}."
      },
      "name()": {
        "details": "See {IERC721Metadata-name}."
      },
      "ownerOf(uint256)": {
        "details": "See {IERC721-ownerOf}."
      },
      "safeTransferFrom(address,address,uint256)": {
        "details": "See {IERC721-safeTransferFrom}."
      },
      "safeTransferFrom(address,address,uint256,bytes)": {
        "details": "See {IERC721-safeTransferFrom}."
      },
      "setApprovalForAll(address,bool)": {
        "details": "See {IERC721-setApprovalForAll}."
      },
      "supportsInterface(bytes4)": {
        "details": "See {IERC165-supportsInterface}."
      },
      "symbol()": {
        "details": "See {IERC721Metadata-symbol}."
      },
      "tokenURI(uint256)": {
        "details": "See {IERC721Metadata-tokenURI}."
      },
      "transferFrom(address,address,uint256)": {
        "details": "See {IERC721-transferFrom}."
      }
    },
    "version": 1
  },
  "userdoc": {
    "kind": "user",
    "methods": {},
    "version": 1
  }
}