{
  "contractName": "NFTMarket",
  "abi": [
    {
      "anonymous": false,
      "inputs": [
        {
          "indexed": true,
          "internalType": "address",
          "name": "owner",
          "type": "address"
        },
        {
          "indexed": true,
          "internalType": "address",
          "name": "approved",
          "type": "address"
        },
        {
          "indexed": true,
          "internalType": "uint256",
          "name": "tokenId",
          "type": "uint256"
        }
      ],
      "name": "Approval",
      "type": "event"
    },
    {
      "anonymous": false,
      "inputs": [
        {
          "indexed": true,
          "internalType": "address",
          "name": "owner",
          "type": "address"
        },
        {
          "indexed": true,
          "internalType": "address",
          "name": "operator",
          "type": "address"
        },
        {
          "indexed": false,
          "internalType": "bool",
          "name": "approved",
          "type": "bool"
        }
      ],
      "name": "ApprovalForAll",
      "type": "event"
    },
    {
      "anonymous": false,
      "inputs": [
        {
          "indexed": true,
          "internalType": "address",
          "name": "from",
          "type": "address"
        },
        {
          "indexed": true,
          "internalType": "address",
          "name": "to",
          "type": "address"
        },
        {
          "indexed": true,
          "internalType": "uint256",
          "name": "tokenId",
          "type": "uint256"
        }
      ],
      "name": "Transfer",
      "type": "event"
    },
    {
      "anonymous": false,
      "inputs": [
        {
          "indexed": true,
          "internalType": "uint256",
          "name": "tokenId",
          "type": "uint256"
        },
        {
          "indexed": true,
          "internalType": "address",
          "name": "formerOwner",
          "type": "address"
        },
        {
          "indexed": true,
          "internalType": "address",
          "name": "newOwner",
          "type": "address"
        },
        {
          "indexed": false,
          "internalType": "uint256",
          "name": "offer",
          "type": "uint256"
        },
        {
          "indexed": false,
          "internalType": "uint256",
          "name": "paymentTokenID",
          "type": "uint256"
        }
      ],
      "name": "_AcceptOffer",
      "type": "event"
    },
    {
      "anonymous": false,
      "inputs": [
        {
          "indexed": true,
          "internalType": "uint256",
          "name": "tokenId",
          "type": "uint256"
        },
        {
          "indexed": false,
          "internalType": "address",
          "name": "receiver",
          "type": "address"
        },
        {
          "components": [
            {
              "internalType": "uint256",
              "name": "_paymentTokenID",
              "type": "uint256"
            },
            {
              "internalType": "uint256",
              "name": "_price",
              "type": "uint256"
            },
            {
              "internalType": "bool",
              "name": "_enabled",
              "type": "bool"
            }
          ],
          "indexed": false,
          "internalType": "struct INFTMarket._tokenPriceStruct[]",
          "name": "prices",
          "type": "tuple[]"
        },
        {
          "indexed": false,
          "internalType": "enum Library.PaymentPlans",
          "name": "plan",
          "type": "uint8"
        },
        {
          "indexed": false,
          "internalType": "uint256",
          "name": "MintingFee",
          "type": "uint256"
        },
        {
          "indexed": false,
          "internalType": "uint256",
          "name": "AdminMintingFee",
          "type": "uint256"
        }
      ],
      "name": "_MintToken",
      "type": "event"
    },
    {
      "anonymous": false,
      "inputs": [
        {
          "indexed": true,
          "internalType": "uint256",
          "name": "formerLifeTime",
          "type": "uint256"
        },
        {
          "indexed": false,
          "internalType": "uint256",
          "name": "newLifeTime",
          "type": "uint256"
        }
      ],
      "name": "_NewOffersLifeTime",
      "type": "event"
    },
    {
      "anonymous": false,
      "inputs": [
        {
          "indexed": true,
          "internalType": "address",
          "name": "formerOwner",
          "type": "address"
        },
        {
          "indexed": false,
          "internalType": "address",
          "name": "newOwner",
          "type": "address"
        }
      ],
      "name": "_NewOwner",
      "type": "event"
    },
    {
      "anonymous": false,
      "inputs": [
        {
          "indexed": true,
          "internalType": "uint256",
          "name": "formerAmount",
          "type": "uint256"
        },
        {
          "indexed": true,
          "internalType": "uint256",
          "name": "formerDecimals",
          "type": "uint256"
        },
        {
          "indexed": false,
          "internalType": "uint256",
          "name": "newAmount",
          "type": "uint256"
        },
        {
          "indexed": false,
          "internalType": "uint256",
          "name": "newDecimals",
          "type": "uint256"
        }
      ],
      "name": "_NewOwnerFees",
      "type": "event"
    },
    {
      "anonymous": false,
      "inputs": [
        {
          "indexed": false,
          "internalType": "enum Library.PaymentPlans",
          "name": "formerPlan",
          "type": "uint8"
        },
        {
          "indexed": false,
          "internalType": "enum Library.PaymentPlans",
          "name": "newPlan",
          "type": "uint8"
        }
      ],
      "name": "_NewPaymentPlan",
      "type": "event"
    },
    {
      "anonymous": false,
      "inputs": [
        {
          "indexed": true,
          "internalType": "uint256",
          "name": "tokenId",
          "type": "uint256"
        }
      ],
      "name": "_RejectOffer",
      "type": "event"
    },
    {
      "anonymous": false,
      "inputs": [
        {
          "indexed": true,
          "internalType": "uint256",
          "name": "tokenId",
          "type": "uint256"
        },
        {
          "indexed": false,
          "internalType": "uint256",
          "name": "formerPrice",
          "type": "uint256"
        },
        {
          "indexed": false,
          "internalType": "uint256",
          "name": "newPrice",
          "type": "uint256"
        },
        {
          "indexed": false,
          "internalType": "uint256",
          "name": "paymentTokenID",
          "type": "uint256"
        },
        {
          "indexed": false,
          "internalType": "bool",
          "name": "enabled",
          "type": "bool"
        }
      ],
      "name": "_SetTokenPrice",
      "type": "event"
    },
    {
      "anonymous": false,
      "inputs": [
        {
          "indexed": true,
          "internalType": "uint256",
          "name": "tokenId",
          "type": "uint256"
        },
        {
          "indexed": true,
          "internalType": "address",
          "name": "sender",
          "type": "address"
        },
        {
          "indexed": true,
          "internalType": "address",
          "name": "bidder",
          "type": "address"
        },
        {
          "indexed": false,
          "internalType": "uint256",
          "name": "offer",
          "type": "uint256"
        },
        {
          "indexed": false,
          "internalType": "bool",
          "name": "FromCredit",
          "type": "bool"
        },
        {
          "indexed": false,
          "internalType": "uint256",
          "name": "paymentTokenID",
          "type": "uint256"
        }
      ],
      "name": "_SubmitOffer",
      "type": "event"
    },
    {
      "anonymous": false,
      "inputs": [
        {
          "indexed": true,
          "internalType": "uint256",
          "name": "tokenId",
          "type": "uint256"
        }
      ],
      "name": "_WithdrawOffer",
      "type": "event"
    },
    {
      "inputs": [
        {
          "internalType": "address",
          "name": "to",
          "type": "address"
        },
        {
          "internalType": "uint256",
          "name": "tokenId",
          "type": "uint256"
        }
      ],
      "name": "approve",
      "outputs": [],
      "stateMutability": "nonpayable",
      "type": "function"
    },
    {
      "inputs": [
        {
          "internalType": "address",
          "name": "owner",
          "type": "address"
        }
      ],
      "name": "balanceOf",
      "outputs": [
        {
          "internalType": "uint256",
          "name": "",
          "type": "uint256"
        }
      ],
      "stateMutability": "view",
      "type": "function"
    },
    {
      "inputs": [
        {
          "internalType": "uint256",
          "name": "tokenId",
          "type": "uint256"
        }
      ],
      "name": "getApproved",
      "outputs": [
        {
          "internalType": "address",
          "name": "",
          "type": "address"
        }
      ],
      "stateMutability": "view",
      "type": "function"
    },
    {
      "inputs": [
        {
          "internalType": "address",
          "name": "owner",
          "type": "address"
        },
        {
          "internalType": "address",
          "name": "operator",
          "type": "address"
        }
      ],
      "name": "isApprovedForAll",
      "outputs": [
        {
          "internalType": "bool",
          "name": "",
          "type": "bool"
        }
      ],
      "stateMutability": "view",
      "type": "function"
    },
    {
      "inputs": [],
      "name": "name",
      "outputs": [
        {
          "internalType": "string",
          "name": "",
          "type": "string"
        }
      ],
      "stateMutability": "view",
      "type": "function"
    },
    {
      "inputs": [
        {
          "internalType": "uint256",
          "name": "tokenId",
          "type": "uint256"
        }
      ],
      "name": "ownerOf",
      "outputs": [
        {
          "internalType": "address",
          "name": "",
          "type": "address"
        }
      ],
      "stateMutability": "view",
      "type": "function"
    },
    {
      "inputs": [],
      "name": "retrieveManagerContract",
      "outputs": [
        {
          "internalType": "address",
          "name": "",
          "type": "address"
        }
      ],
      "stateMutability": "view",
      "type": "function"
    },
    {
      "inputs": [
        {
          "internalType": "address",
          "name": "from",
          "type": "address"
        },
        {
          "internalType": "address",
          "name": "to",
          "type": "address"
        },
        {
          "internalType": "uint256",
          "name": "tokenId",
          "type": "uint256"
        }
      ],
      "name": "safeTransferFrom",
      "outputs": [],
      "stateMutability": "nonpayable",
      "type": "function"
    },
    {
      "inputs": [
        {
          "internalType": "address",
          "name": "from",
          "type": "address"
        },
        {
          "internalType": "address",
          "name": "to",
          "type": "address"
        },
        {
          "internalType": "uint256",
          "name": "tokenId",
          "type": "uint256"
        },
        {
          "internalType": "bytes",
          "name": "_data",
          "type": "bytes"
        }
      ],
      "name": "safeTransferFrom",
      "outputs": [],
      "stateMutability": "nonpayable",
      "type": "function"
    },
    {
      "inputs": [
        {
          "internalType": "address",
          "name": "operator",
          "type": "address"
        },
        {
          "internalType": "bool",
          "name": "approved",
          "type": "bool"
        }
      ],
      "name": "setApprovalForAll",
      "outputs": [],
      "stateMutability": "nonpayable",
      "type": "function"
    },
    {
      "inputs": [
        {
          "internalType": "bytes4",
          "name": "interfaceId",
          "type": "bytes4"
        }
      ],
      "name": "supportsInterface",
      "outputs": [
        {
          "internalType": "bool",
          "name": "",
          "type": "bool"
        }
      ],
      "stateMutability": "view",
      "type": "function"
    },
    {
      "inputs": [],
      "name": "symbol",
      "outputs": [
        {
          "internalType": "string",
          "name": "",
          "type": "string"
        }
      ],
      "stateMutability": "view",
      "type": "function"
    },
    {
      "inputs": [
        {
          "internalType": "uint256",
          "name": "tokenId",
          "type": "uint256"
        }
      ],
      "name": "tokenURI",
      "outputs": [
        {
          "internalType": "string",
          "name": "",
          "type": "string"
        }
      ],
      "stateMutability": "view",
      "type": "function"
    },
    {
      "inputs": [
        {
          "internalType": "address",
          "name": "from",
          "type": "address"
        },
        {
          "internalType": "address",
          "name": "to",
          "type": "address"
        },
        {
          "internalType": "uint256",
          "name": "tokenId",
          "type": "uint256"
        }
      ],
      "name": "transferFrom",
      "outputs": [],
      "stateMutability": "nonpayable",
      "type": "function"
    },
    {
      "inputs": [
        {
          "internalType": "address",
          "name": "managerContractAddress",
          "type": "address"
        },
        {
          "internalType": "address",
          "name": "owner",
          "type": "address"
        },
        {
          "internalType": "string",
          "name": "name",
          "type": "string"
        },
        {
          "internalType": "string",
          "name": "symbol",
          "type": "string"
        },
        {
          "internalType": "uint256",
          "name": "offersLifeTime",
          "type": "uint256"
        },
        {
          "internalType": "uint256",
          "name": "ownerTransferFeeAmount",
          "type": "uint256"
        },
        {
          "internalType": "uint256",
          "name": "ownerTransferFeeDecimals",
          "type": "uint256"
        },
        {
          "internalType": "uint256",
          "name": "issuerID",
          "type": "uint256"
        },
        {
          "internalType": "uint8",
          "name": "paymentPlan",
          "type": "uint8"
        }
      ],
      "name": "NFTMarket_init",
      "outputs": [],
      "stateMutability": "nonpayable",
      "type": "function"
    },
    {
      "inputs": [
        {
          "internalType": "address",
          "name": "newOwner",
          "type": "address"
        }
      ],
      "name": "changeOwner",
      "outputs": [],
      "stateMutability": "nonpayable",
      "type": "function"
    },
    {
      "inputs": [
        {
          "internalType": "enum Library.PaymentPlans",
          "name": "newPaymentPlan",
          "type": "uint8"
        }
      ],
      "name": "changePaymentPlan",
      "outputs": [],
      "stateMutability": "nonpayable",
      "type": "function"
    },
    {
      "inputs": [
        {
          "internalType": "uint256",
          "name": "newLifeTime",
          "type": "uint256"
        }
      ],
      "name": "changeOffersLifeTime",
      "outputs": [],
      "stateMutability": "nonpayable",
      "type": "function"
    },
    {
      "inputs": [
        {
          "internalType": "uint256",
          "name": "newAmount",
          "type": "uint256"
        },
        {
          "internalType": "uint256",
          "name": "newDecimals",
          "type": "uint256"
        }
      ],
      "name": "changeOwnerTransferFees",
      "outputs": [],
      "stateMutability": "nonpayable",
      "type": "function"
    },
    {
      "inputs": [
        {
          "internalType": "uint256",
          "name": "tokenId",
          "type": "uint256"
        },
        {
          "internalType": "address",
          "name": "receiver",
          "type": "address"
        },
        {
          "components": [
            {
              "internalType": "uint256",
              "name": "_paymentTokenID",
              "type": "uint256"
            },
            {
              "internalType": "uint256",
              "name": "_price",
              "type": "uint256"
            },
            {
              "internalType": "bool",
              "name": "_enabled",
              "type": "bool"
            }
          ],
          "internalType": "struct INFTMarket._tokenPriceStruct[]",
          "name": "prices",
          "type": "tuple[]"
        },
        {
          "internalType": "bool",
          "name": "FromCredit",
          "type": "bool"
        },
        {
          "internalType": "uint256",
          "name": "paymentTokenID",
          "type": "uint256"
        }
      ],
      "name": "mintToken",
      "outputs": [],
      "stateMutability": "nonpayable",
      "type": "function"
    },
    {
      "inputs": [
        {
          "internalType": "uint256",
          "name": "tokenId",
          "type": "uint256"
        },
        {
          "components": [
            {
              "internalType": "uint256",
              "name": "_paymentTokenID",
              "type": "uint256"
            },
            {
              "internalType": "uint256",
              "name": "_price",
              "type": "uint256"
            },
            {
              "internalType": "bool",
              "name": "_enabled",
              "type": "bool"
            }
          ],
          "internalType": "struct INFTMarket._tokenPriceStruct[]",
          "name": "prices",
          "type": "tuple[]"
        }
      ],
      "name": "setTokenPrice",
      "outputs": [],
      "stateMutability": "nonpayable",
      "type": "function"
    },
    {
      "inputs": [
        {
          "internalType": "uint256",
          "name": "tokenId",
          "type": "uint256"
        }
      ],
      "name": "acceptOffer",
      "outputs": [],
      "stateMutability": "nonpayable",
      "type": "function"
    },
    {
      "inputs": [
        {
          "internalType": "uint256",
          "name": "tokenId",
          "type": "uint256"
        }
      ],
      "name": "rejectOffer",
      "outputs": [],
      "stateMutability": "nonpayable",
      "type": "function"
    },
    {
      "inputs": [
        {
          "components": [
            {
              "internalType": "uint256",
              "name": "_tokenId",
              "type": "uint256"
            },
            {
              "internalType": "address",
              "name": "_bidder",
              "type": "address"
            },
            {
              "internalType": "uint256",
              "name": "_offer",
              "type": "uint256"
            },
            {
              "internalType": "bool",
              "name": "_FromCredit",
              "type": "bool"
            },
            {
              "internalType": "uint256",
              "name": "_paymentTokenID",
              "type": "uint256"
            }
          ],
          "internalType": "struct INFTMarket._submitOfferStruct",
          "name": "offer",
          "type": "tuple"
        }
      ],
      "name": "submitOffer",
      "outputs": [],
      "stateMutability": "nonpayable",
      "type": "function"
    },
    {
      "inputs": [
        {
          "internalType": "uint256",
          "name": "tokenId",
          "type": "uint256"
        }
      ],
      "name": "withdrawOffer",
      "outputs": [],
      "stateMutability": "nonpayable",
      "type": "function"
    },
    {
      "inputs": [],
      "name": "retrieveIssuer",
      "outputs": [
        {
          "components": [
            {
              "internalType": "address",
              "name": "_owner",
              "type": "address"
            },
            {
              "internalType": "string",
              "name": "_name",
              "type": "string"
            },
            {
              "internalType": "string",
              "name": "_symbol",
              "type": "string"
            },
            {
              "internalType": "uint256",
              "name": "_feeAmount",
              "type": "uint256"
            },
            {
              "internalType": "uint256",
              "name": "_feeDecimals",
              "type": "uint256"
            },
            {
              "internalType": "enum Library.PaymentPlans",
              "name": "_paymentPlan",
              "type": "uint8"
            }
          ],
          "internalType": "struct ItemsLibrary._issuerStruct",
          "name": "",
          "type": "tuple"
        },
        {
          "internalType": "uint256",
          "name": "",
          "type": "uint256"
        }
      ],
      "stateMutability": "view",
      "type": "function"
    },
    {
      "inputs": [
        {
          "internalType": "uint256",
          "name": "tokenId",
          "type": "uint256"
        }
      ],
      "name": "retrieveToken",
      "outputs": [
        {
          "components": [
            {
              "internalType": "enum Library.PaymentPlans",
              "name": "_paymentPlan",
              "type": "uint8"
            },
            {
              "components": [
                {
                  "internalType": "uint256",
                  "name": "_paymentTokenID",
                  "type": "uint256"
                },
                {
                  "internalType": "uint256",
                  "name": "_price",
                  "type": "uint256"
                },
                {
                  "internalType": "bool",
                  "name": "_enabled",
                  "type": "bool"
                }
              ],
              "internalType": "struct INFTMarket._tokenPriceStruct[]",
              "name": "_prices",
              "type": "tuple[]"
            }
          ],
          "internalType": "struct INFTMarket._tokenStruct",
          "name": "",
          "type": "tuple"
        },
        {
          "internalType": "address",
          "name": "",
          "type": "address"
        }
      ],
      "stateMutability": "view",
      "type": "function"
    },
    {
      "inputs": [
        {
          "internalType": "uint256",
          "name": "tokenId",
          "type": "uint256"
        }
      ],
      "name": "retrieveOffer",
      "outputs": [
        {
          "components": [
            {
              "internalType": "uint256",
              "name": "_offer",
              "type": "uint256"
            },
            {
              "internalType": "uint256",
              "name": "_paymentTokenID",
              "type": "uint256"
            },
            {
              "internalType": "address",
              "name": "_sender",
              "type": "address"
            },
            {
              "internalType": "address",
              "name": "_bidder",
              "type": "address"
            },
            {
              "internalType": "uint256",
              "name": "_deadline",
              "type": "uint256"
            }
          ],
          "internalType": "struct INFTMarket._offerStruct",
          "name": "",
          "type": "tuple"
        }
      ],
      "stateMutability": "view",
      "type": "function"
    }
  ],
  "bytecode": "0x608060405234801561001057600080fd5b506150b8806100206000396000f3fe608060405234801561001057600080fd5b50600436106101545760003560e01c806301ffc9a71461015957806306fdde0314610181578063081812fc14610196578063095ea7b3146101b6578063231c9d8f146101cb57806323b872dd146101de5780632611b223146101f157806327b67e681461020457806342842e0e146102175780635542f6801461022a5780635b362e841461024b5780636352211e1461026257806370a08231146102755780638610f0451461029657806388b10c75146102a957806393f82e16146102bc57806395d89b41146102cf57806398a7541d146102d75780639d16764f146102ea578063a22cb465146102fd578063a6f9dae114610310578063aa91855014610323578063b88d4fde14610336578063c815729d14610349578063c87b56dd1461035c578063ca25f9e41461036f578063cf0ba57514610385578063e985e9c5146103e6575b600080fd5b61016c6101673660046144b4565b6103f9565b60405190151581526020015b60405180910390f35b61018961044b565b6040516101789190614937565b6101a96101a4366004614602565b6104dd565b60405161017891906147f4565b6101c96101c43660046142d0565b61056a565b005b6101c96101d936600461468c565b61067b565b6101c96101ec3660046141db565b61097b565b6101c96101ff366004614585565b6109ab565b6101c961021236600461461b565b6112d8565b6101c96102253660046141db565b611bb4565b61023d610238366004614602565b611bcf565b604051610178929190614c0d565b6000546201000090046001600160a01b03166101a9565b6101a9610270366004614602565b611cbd565b6102886102833660046140c5565b611d34565b604051908152602001610178565b6101c96102a4366004614602565b611dbb565b6101c96102b7366004614602565b611eae565b6101c96102ca366004614564565b611f4b565b610189611fed565b6101c96102e536600461411b565b611ffc565b6101c96102f8366004614602565b612162565b6101c961030b36600461429b565b6121ca565b6101c961031e3660046140c5565b6121d9565b6101c96103313660046146d2565b61226f565b6101c961034436600461421c565b612353565b6101c9610357366004614602565b612385565b61018961036a366004614602565b61275c565b610377612834565b604051610178929190614b85565b610398610393366004614602565b6128b5565b604051610178919081518152602080830151908201526040808301516001600160a01b0390811691830191909152606080840151909116908201526080918201519181019190915260a00190565b61016c6103f43660046140e2565b612956565b60006001600160e01b031982166380ac58cd60e01b148061042a57506001600160e01b03198216635b5e139f60e01b145b8061044557506301ffc9a760e01b6001600160e01b03198316145b92915050565b60606065805461045a90614f5c565b80601f016020809104026020016040519081016040528092919081815260200182805461048690614f5c565b80156104d35780601f106104a8576101008083540402835291602001916104d3565b820191906000526020600020905b8154815290600101906020018083116104b657829003601f168201915b5050505050905090565b60006104e882612984565b61054e5760405162461bcd60e51b815260206004820152602c60248201527f4552433732313a20617070726f76656420717565727920666f72206e6f6e657860448201526b34b9ba32b73a103a37b5b2b760a11b60648201526084015b60405180910390fd5b506000908152606960205260409020546001600160a01b031690565b600061057582611cbd565b9050806001600160a01b0316836001600160a01b031614156105e35760405162461bcd60e51b815260206004820152602160248201527f4552433732313a20617070726f76616c20746f2063757272656e74206f776e656044820152603960f91b6064820152608401610545565b336001600160a01b03821614806105ff57506105ff8133612956565b61066c5760405162461bcd60e51b815260206004820152603860248201527f4552433732313a20617070726f76652063616c6c6572206973206e6f74206f776044820152771b995c881b9bdc88185c1c1c9bdd995908199bdc88185b1b60421b6064820152608401610545565b61067683836129a1565b505050565b81610687335b82612a0f565b6106a35760405162461bcd60e51b815260040161054590614a65565b60005b82518110156109755760008060005b6000878152609c6020526040902060010154811015610836576000878152609c602052604090206001018054829081106106f1576106f1615008565b90600052602060002090600302016000015486858151811061071557610715615008565b6020026020010151600001511415610824576000878152609c6020526040902060010180548290811061074a5761074a615008565b90600052602060002090600302016001015491506001925085848151811061077457610774615008565b602002602001015160200151609c600089815260200190815260200160002060010182815481106107a7576107a7615008565b9060005260206000209060030201600101819055508584815181106107ce576107ce615008565b602002602001015160400151609c6000898152602001908152602001600020600101828154811061080157610801615008565b60009182526020909120600390910201600201805460ff19169115159190911790555b8061082e81614f97565b9150506106b5565b50816108b357609c600087815260200190815260200160002060010185848151811061086457610864615008565b602090810291909101810151825460018082018555600094855293839020825160039092020190815591810151928201929092556040909101516002909101805460ff19169115159190911790555b857f7a6c0c9893ad7a3e4cfc93f7bbbc00e334026f19977dd995e529dcdbdb18a895828786815181106108e8576108e8615008565b60200260200101516020015188878151811061090657610906615008565b60200260200101516000015189888151811061092457610924615008565b6020026020010151604001516040516109589493929190938452602084019290925260408301521515606082015260800190565b60405180910390a25050808061096d90614f97565b9150506106a6565b50505050565b61098433610681565b6109a05760405162461bcd60e51b815260040161054590614ab2565b610676838383612ad9565b80516000818152609d602052604081206004015442116109dd5760405162461bcd60e51b8152600401610545906149e0565b8260008060005b83516000908152609c6020526040902060010154811015610b375783516000908152609c60205260409020600101805482908110610a2457610a24615008565b90600052602060002090600302016000015484608001511415610b255783516000908152609c60205260409020600101805482908110610a6657610a66615008565b600091825260209091206002600390920201015460ff161515600114610ae15760405162461bcd60e51b815260206004820152602a60248201527f5468697320546f6b656e20646f6573206e6f74206163636570742074686973206044820152691c185e5b595b9d08125160b21b6064820152608401610545565b83516000908152609c60205260409020600190810180549194509082908110610b0c57610b0c615008565b9060005260206000209060030201600101549150610b37565b80610b2f81614f97565b9150506109e4565b50600182151514610b9e5760405162461bcd60e51b815260206004820152602b60248201527f5468697320546f6b656e20686173206e6f20707269636520666f72207468697360448201526a081c185e5b595b9d08125160aa1b6064820152608401610545565b8083604001511015610bfe5760405162461bcd60e51b8152602060048201526024808201527f546865206f666665722069732062656c6f7720746865206d696e696d756d20706044820152637269636560e01b6064820152608401610545565b85516000908152609d60205260409020600201546001600160a01b031615610c2b578551610c2b90612c67565b856060015115610d6757600060029054906101000a90046001600160a01b03166001600160a01b031663e220ad956040518163ffffffff1660e01b815260040160006040518083038186803b158015610c8357600080fd5b505afa158015610c97573d6000803e3d6000fd5b505050506040513d6000823e601f3d908101601f19168201604052610cbf91908101906142fc565b600781518110610cd157610cd1615008565b6020908102919091010151609b5487516040808a015160808b0151915163a67a1e3760e01b815260048101949094526024840192909252336044840152606483019190915260848201526001600160a01b039091169063a67a1e379060a401600060405180830381600087803b158015610d4a57600080fd5b505af1158015610d5e573d6000803e3d6000fd5b505050506111c4565b60408051600380825260808201909252600091602082016060803683375050604051631635719760e31b81526001600482015291925073__UintLibrary___________________________9163b1ab8cb8915060240160206040518083038186803b158015610dd557600080fd5b505af4158015610de9573d6000803e3d6000fd5b505050506040513d601f19601f82011682018060405250810190610e0d919061449b565b81600081518110610e2057610e20615008565b6020908102919091010152609b54604051631635719760e31b8152600481019190915273__UintLibrary___________________________9063b1ab8cb89060240160206040518083038186803b158015610e7a57600080fd5b505af4158015610e8e573d6000803e3d6000fd5b505050506040513d601f19601f82011682018060405250810190610eb2919061449b565b81600181518110610ec557610ec5615008565b60209081029190910101528651604051631635719760e31b8152600481019190915273__UintLibrary___________________________9063b1ab8cb89060240160206040518083038186803b158015610f1e57600080fd5b505af4158015610f32573d6000803e3d6000fd5b505050506040513d601f19601f82011682018060405250810190610f56919061449b565b81600281518110610f6957610f69615008565b6020908102919091010152604051632431a7cf60e01b815260009073__Library_______________________________90632431a7cf90610fae9085906004016148d8565b60006040518083038186803b158015610fc657600080fd5b505af4158015610fda573d6000803e3d6000fd5b505050506040513d6000823e601f3d908101601f1916820160405261100291908101906144ee565b905060008060029054906101000a90046001600160a01b03166001600160a01b031663e220ad956040518163ffffffff1660e01b815260040160006040518083038186803b15801561105357600080fd5b505afa158015611067573d6000803e3d6000fd5b505050506040513d6000823e601f3d908101601f1916820160405261108f91908101906142fc565b6006815181106110a1576110a1615008565b60200260200101519050806001600160a01b0316632c2ec26833600060029054906101000a90046001600160a01b03166001600160a01b031663e220ad956040518163ffffffff1660e01b815260040160006040518083038186803b15801561110957600080fd5b505afa15801561111d573d6000803e3d6000fd5b505050506040513d6000823e601f3d908101601f1916820160405261114591908101906142fc565b60078151811061115757611157615008565b60200260200101518c60400151609b54878f608001516040518763ffffffff1660e01b815260040161118e96959493929190614845565b600060405180830381600087803b1580156111a857600080fd5b505af11580156111bc573d6000803e3d6000fd5b505050505050505b60408681015187516000908152609d60209081528382209290925560808901518951825283822060010155885181528281206002018054336001600160a01b031991821617909155918901518951825292902060030180549091166001600160a01b0390921691909117905560985461123d9042614de3565b609d6000886000015181526020019081526020016000206004018190555085602001516001600160a01b0316336001600160a01b031687600001517fb177ff4fc6c3e39d255057b0b848553134c794582cc33ad181bf9ce5ba6a420d89604001518a606001518b608001516040516112c8939291909283529015156020830152604082015260600190565b60405180910390a4505050505050565b60975433906001600160a01b031681146113045760405162461bcd60e51b81526004016105459061494a565b60008080609754600160a01b900460ff16600181111561132657611326614ff2565b1415611a825760008060029054906101000a90046001600160a01b03166001600160a01b031663e220ad956040518163ffffffff1660e01b815260040160006040518083038186803b15801561137b57600080fd5b505afa15801561138f573d6000803e3d6000fd5b505050506040513d6000823e601f3d908101601f191682016040526113b791908101906142fc565b6002815181106113c9576113c9615008565b60200260200101516001600160a01b031663b049473f6040518163ffffffff1660e01b815260040160006040518083038186803b15801561140957600080fd5b505afa15801561141d573d6000803e3d6000fd5b505050506040513d6000823e601f3d908101601f19168201604052611445919081019061439c565b5050905080858151811061145b5761145b615008565b60200260200101516002600381111561147657611476614ff2565b8151811061148657611486615008565b602002602001015192508085815181106114a2576114a2615008565b60200260200101516003808111156114bc576114bc614ff2565b815181106114cc576114cc615008565b60200260200101519150851561179f5760008060029054906101000a90046001600160a01b03166001600160a01b031663e220ad956040518163ffffffff1660e01b815260040160006040518083038186803b15801561152b57600080fd5b505afa15801561153f573d6000803e3d6000fd5b505050506040513d6000823e601f3d908101601f1916820160405261156791908101906142fc565b60078151811061157957611579615008565b60200260200101519050806001600160a01b03166304226b88609b543387600060029054906101000a90046001600160a01b03166001600160a01b031663e220ad956040518163ffffffff1660e01b815260040160006040518083038186803b1580156115e557600080fd5b505afa1580156115f9573d6000803e3d6000fd5b505050506040513d6000823e601f3d908101601f1916820160405261162191908101906142fc565b60028151811061163357611633615008565b60200260200101518b6040518663ffffffff1660e01b815260040161165c959493929190614c52565b600060405180830381600087803b15801561167657600080fd5b505af115801561168a573d6000803e3d6000fd5b50505050806001600160a01b03166304226b88609b543386600060029054906101000a90046001600160a01b03166001600160a01b031663e220ad956040518163ffffffff1660e01b815260040160006040518083038186803b1580156116f057600080fd5b505afa158015611704573d6000803e3d6000fd5b505050506040513d6000823e601f3d908101601f1916820160405261172c91908101906142fc565b60058151811061173e5761173e615008565b60200260200101518b6040518663ffffffff1660e01b8152600401611767959493929190614c52565b600060405180830381600087803b15801561178157600080fd5b505af1158015611795573d6000803e3d6000fd5b5050505050611a80565b60008060029054906101000a90046001600160a01b03166001600160a01b031663e220ad956040518163ffffffff1660e01b815260040160006040518083038186803b1580156117ee57600080fd5b505afa158015611802573d6000803e3d6000fd5b505050506040513d6000823e601f3d908101601f1916820160405261182a91908101906142fc565b60068151811061183c5761183c615008565b60200260200101519050806001600160a01b0316632c2ec26833600060029054906101000a90046001600160a01b03166001600160a01b031663e220ad956040518163ffffffff1660e01b815260040160006040518083038186803b1580156118a457600080fd5b505afa1580156118b8573d6000803e3d6000fd5b505050506040513d6000823e601f3d908101601f191682016040526118e091908101906142fc565b6002815181106118f2576118f2615008565b602002602001015187609b54604051806020016040528060008152508c6040518763ffffffff1660e01b815260040161193096959493929190614845565b600060405180830381600087803b15801561194a57600080fd5b505af115801561195e573d6000803e3d6000fd5b50505050806001600160a01b0316632c2ec26833600060029054906101000a90046001600160a01b03166001600160a01b031663e220ad956040518163ffffffff1660e01b815260040160006040518083038186803b1580156119c057600080fd5b505afa1580156119d4573d6000803e3d6000fd5b505050506040513d6000823e601f3d908101601f191682016040526119fc91908101906142fc565b600581518110611a0e57611a0e615008565b602002602001015186609b54604051806020016040528060008152508c6040518763ffffffff1660e01b8152600401611a4c96959493929190614845565b600060405180830381600087803b158015611a6657600080fd5b505af1158015611a7a573d6000803e3d6000fd5b50505050505b505b611a8c8789612e72565b60005b8651811015611b2057609c60008a8152602001908152602001600020600101878281518110611ac057611ac0615008565b602090810291909101810151825460018082018555600094855293839020825160039092020190815591810151928201929092556040909101516002909101805460ff191691151591909117905580611b1881614f97565b915050611a8f565b506097546000898152609c602052604090208054600160a01b90920460ff169160ff191660018381811115611b5757611b57614ff2565b021790555060975460405189917ff3b4bd3c3957368ff6a5d73751292ab6fe6e423c632e635d1772c2c17238553a91611ba2918b918b91600160a01b900460ff169088908890614892565b60405180910390a25050505050505050565b61067683838360405180602001604052806000815250612353565b6040805180820190915260008152606060208201526000828152609c60205260408120611bfb84611cbd565b6040805180820190915282548390829060ff166001811115611c1f57611c1f614ff2565b6001811115611c3057611c30614ff2565b815260200160018201805480602002602001604051908101604052809291908181526020016000905b82821015611caa5760008481526020908190206040805160608101825260038602909201805483526001808201548486015260029091015460ff161515918301919091529083529092019101611c59565b5050505081525050915091509150915091565b6000818152606760205260408120546001600160a01b0316806104455760405162461bcd60e51b815260206004820152602960248201527f4552433732313a206f776e657220717565727920666f72206e6f6e657869737460448201526832b73a103a37b5b2b760b91b6064820152608401610545565b60006001600160a01b038216611d9f5760405162461bcd60e51b815260206004820152602a60248201527f4552433732313a2062616c616e636520717565727920666f7220746865207a65604482015269726f206164647265737360b01b6064820152608401610545565b506001600160a01b031660009081526068602052604090205490565b80600080828152609d60205260409020600401544211611ded5760405162461bcd60e51b8152600401610545906149e0565b6000838152609d60205260409020600201546001600160a01b03163314611e6c5760405162461bcd60e51b815260206004820152602d60248201527f4f6e6c7920746865206f726967696e616c2073656e6465722063616e2077697460448201526c1a191c985dc81d1a1948189a59609a1b6064820152608401610545565b611e7583612c67565b611e7e83612e8c565b60405183907f94b71a540d883ff6ff22bd47377cfb303fb9e624812d909e0f04198e606b37df90600090a2505050565b80611eb833610681565b611ed45760405162461bcd60e51b815260040161054590614a65565b8160016000828152609d6020526040902060040154421115611f085760405162461bcd60e51b815260040161054590614b03565b611f1184612c67565b611f1a84612e8c565b60405184907f8066a8132ff25ec62d01ed52cd55ddbae09c3c3e07e29d7c3de2ab2f44312aa390600090a250505050565b60975433906001600160a01b03168114611f775760405162461bcd60e51b81526004016105459061494a565b7f0f6280276bfde6f31b6ca64ae1d1b7443f954a37caad3b1504f361841ec93e39609760149054906101000a900460ff1683604051611fb792919061491c565b60405180910390a16097805483919060ff60a01b1916600160a01b836001811115611fe457611fe4614ff2565b02179055505050565b60606066805461045a90614f5c565b600054610100900460ff166120175760005460ff161561201b565b303b155b6120375760405162461bcd60e51b815260040161054590614a17565b600054610100900460ff16158015612059576000805461ffff19166101011790555b848473__Library_______________________________63bdbff48783836040518363ffffffff1660e01b8152600401612094929190614cad565b60006040518083038186803b1580156120ac57600080fd5b505af41580156120c0573d6000803e3d6000fd5b505050506120cd8c612eca565b6120d78a8a612f5e565b609780546001600160a01b0319166001600160a01b038d1617905560ff8416600181111561210757612107614ff2565b6097805460ff60a01b1916600160a01b83600181111561212957612129614ff2565b0217905550505060988690556099859055609a849055609b8390558015612156576000805461ff00191690555b50505050505050505050565b60975433906001600160a01b0316811461218e5760405162461bcd60e51b81526004016105459061494a565b6098546040518381527ff3c2669e9a3f991cccc770ce527bedc7455f04ceb7e85ab4a76010664264a5a89060200160405180910390a250609855565b6121d5338383612f9f565b5050565b60975433906001600160a01b031681146122055760405162461bcd60e51b81526004016105459061494a565b6097546040516001600160a01b03909116907f8ed2cc08e61acbfdbcf3b71ad64556a3bf3968c3eb0f63e668fa50743e2db37c906122449085906147f4565b60405180910390a250609780546001600160a01b0319166001600160a01b0392909216919091179055565b60975433906001600160a01b0316811461229b5760405162461bcd60e51b81526004016105459061494a565b828273__Library_______________________________63bdbff48783836040518363ffffffff1660e01b81526004016122d6929190614cad565b60006040518083038186803b1580156122ee57600080fd5b505af4158015612302573d6000803e3d6000fd5b50505050609a546099547f66b7f276cd6890c8ca84d869084baa18448ac900272b64d7ba639478f0afbcd8878760405161233d929190614cad565b60405180910390a3505050609991909155609a55565b61235d3383612a0f565b6123795760405162461bcd60e51b815260040161054590614ab2565b6109758484848461306a565b8061238f33610681565b6123ab5760405162461bcd60e51b815260040161054590614a65565b8160016000828152609d60205260409020600401544211156123df5760405162461bcd60e51b815260040161054590614b03565b6000848152609d60205260409020600301546001600160a01b031661240385611cbd565b6000868152609d602052604090819020805460019091015491516001600160a01b03939093169288927f93613c8ef079eb86315ad3a9e0cdf8e9dd142d6bfe0f2dc7e448da0608fdecaf9261245a92909190614cad565b60405180910390a46000806000806124718861309d565b935093509350935060008284866124889190614de3565b6124929190614de3565b60405163bdbff48760e01b815290915073__Library_______________________________9063bdbff487906124ce9084908690600401614cad565b60006040518083038186803b1580156124e657600080fd5b505af41580156124fa573d6000803e3d6000fd5b5050505060008183600261250e9190614de3565b61251990600a614e52565b6125239190614f19565b90506125646125318b611cbd565b60008c8152609d602090815260408083206003015481519283019091529181526001600160a01b03909116908d9061306a565b61274a8a6040518060800160405280600060029054906101000a90046001600160a01b03166001600160a01b031663e220ad956040518163ffffffff1660e01b815260040160006040518083038186803b1580156125c157600080fd5b505afa1580156125d5573d6000803e3d6000fd5b505050506040513d6000823e601f3d908101601f191682016040526125fd91908101906142fc565b60028151811061260f5761260f615008565b60200260200101516001600160a01b03166001600160a01b03168152602001600060029054906101000a90046001600160a01b03166001600160a01b031663e220ad956040518163ffffffff1660e01b815260040160006040518083038186803b15801561267c57600080fd5b505afa158015612690573d6000803e3d6000fd5b505050506040513d6000823e601f3d908101601f191682016040526126b891908101906142fc565b6005815181106126ca576126ca615008565b6020908102919091018101516001600160a01b03908116835260975416908201526040016126f78e611cbd565b6001600160a01b03166001600160a01b031681525060405180608001604052808981526020018881526020018a815260200185815250609d60008f81526020019081526020016000206000015487613343565b6127538a612e8c565b6121568a6136be565b606061276782612984565b6127cb5760405162461bcd60e51b815260206004820152602f60248201527f4552433732314d657461646174613a2055524920717565727920666f72206e6f60448201526e3732bc34b9ba32b73a103a37b5b2b760891b6064820152608401610545565b60006127e260408051602081019091526000815290565b90506000815111612802576040518060200160405280600081525061282d565b8061280c846139b9565b60405160200161281d9291906147c5565b6040516020818303038152906040525b9392505050565b61283c613e4c565b6040805160c081019091526097546001600160a01b031681526000906020810161286461044b565b8152602001612871611fed565b81526020016099548152602001609a548152602001609760149054906101000a900460ff1660018111156128a7576128a7614ff2565b815250609854915091509091565b6128f96040518060a00160405280600081526020016000815260200160006001600160a01b0316815260200160006001600160a01b03168152602001600081525090565b506000908152609d6020908152604091829020825160a0810184528154815260018201549281019290925260028101546001600160a01b039081169383019390935260038101549092166060820152600490910154608082015290565b6001600160a01b039182166000908152606a6020908152604080832093909416825291909152205460ff1690565b6000908152606760205260409020546001600160a01b0316151590565b600081815260696020526040902080546001600160a01b0319166001600160a01b03841690811790915581906129d682611cbd565b6001600160a01b03167f8c5be1e5ebec7d5bd14f71427d1e84f3dd0314c0f7b2291e5b200ac8c7c3b92560405160405180910390a45050565b6000612a1a82612984565b612a7b5760405162461bcd60e51b815260206004820152602c60248201527f4552433732313a206f70657261746f7220717565727920666f72206e6f6e657860448201526b34b9ba32b73a103a37b5b2b760a11b6064820152608401610545565b6000612a8683611cbd565b9050806001600160a01b0316846001600160a01b03161480612ac15750836001600160a01b0316612ab6846104dd565b6001600160a01b0316145b80612ad15750612ad18185612956565b949350505050565b826001600160a01b0316612aec82611cbd565b6001600160a01b031614612b545760405162461bcd60e51b815260206004820152602960248201527f4552433732313a207472616e73666572206f6620746f6b656e2074686174206960448201526839903737ba1037bbb760b91b6064820152608401610545565b6001600160a01b038216612bb65760405162461bcd60e51b8152602060048201526024808201527f4552433732313a207472616e7366657220746f20746865207a65726f206164646044820152637265737360e01b6064820152608401610545565b612bc16000826129a1565b6001600160a01b0383166000908152606860205260408120805460019290612bea908490614f19565b90915550506001600160a01b0382166000908152606860205260408120805460019290612c18908490614de3565b909155505060008181526067602052604080822080546001600160a01b0319166001600160a01b03868116918217909255915184939187169160008051602061506383398151915291a4505050565b60408051600180825281830190925260009160208083019080368337505060408051600180825281830190925292935060009291506020808301908036833750506040805160018082528183019092529293506000929150602080830190803683375050506000858152609d602052604081206002015485519293506001600160a01b031691859190612cfc57612cfc615008565b6001600160a01b039092166020928302919091018201526000858152609d9091526040812054835190918491612d3457612d34615008565b602002602001018181525050600181600081518110612d5557612d55615008565b602002602001018181525050600060029054906101000a90046001600160a01b03166001600160a01b031663e220ad956040518163ffffffff1660e01b815260040160006040518083038186803b158015612daf57600080fd5b505afa158015612dc3573d6000803e3d6000fd5b505050506040513d6000823e601f3d908101601f19168201604052612deb91908101906142fc565b600781518110612dfd57612dfd615008565b60200260200101516001600160a01b03166357ffa71b609b54868686866040518663ffffffff1660e01b8152600401612e3a959493929190614cbb565b600060405180830381600087803b158015612e5457600080fd5b505af1158015612e68573d6000803e3d6000fd5b5050505050505050565b6121d5828260405180602001604052806000815250613ab6565b6000908152609d60205260408120818155600181018290556002810180546001600160a01b0319908116909155600382018054909116905560040155565b600054610100900460ff16612ee55760005460ff1615612ee9565b303b155b612f055760405162461bcd60e51b815260040161054590614a17565b600054610100900460ff16158015612f27576000805461ffff19166101011790555b6000805462010000600160b01b031916620100006001600160a01b0385160217905580156121d5576000805461ff00191690555050565b600054610100900460ff16612f855760405162461bcd60e51b815260040161054590614b3a565b612f8d613ae9565b612f95613ae9565b6121d58282613b12565b816001600160a01b0316836001600160a01b03161415612ffd5760405162461bcd60e51b815260206004820152601960248201527822a9219b99189d1030b8383937bb32903a379031b0b63632b960391b6044820152606401610545565b6001600160a01b038381166000818152606a6020908152604080832094871680845294825291829020805460ff191686151590811790915591519182527f17307eab39ab6107e8899845ad3d59bd9653f200f220920489ca2b5937696c31910160405180910390a3505050565b613075848484612ad9565b61308184848484613b60565b6109755760405162461bcd60e51b81526004016105459061498e565b609954609a546000838152609c602052604081205490928392839283929190839081908190819060ff1660018111156130d8576130d8614ff2565b600114156132a65760008060029054906101000a90046001600160a01b03166001600160a01b031663e220ad956040518163ffffffff1660e01b815260040160006040518083038186803b15801561312f57600080fd5b505afa158015613143573d6000803e3d6000fd5b505050506040513d6000823e601f3d908101601f1916820160405261316b91908101906142fc565b60028151811061317d5761317d615008565b60200260200101516001600160a01b031663b049473f6040518163ffffffff1660e01b815260040160006040518083038186803b1580156131bd57600080fd5b505afa1580156131d1573d6000803e3d6000fd5b505050506040513d6000823e601f3d908101601f191682016040526131f9919081019061439c565b50915081905060008151811061321157613211615008565b60200260200101519450806001600381111561322f5761322f614ff2565b8151811061323f5761323f615008565b60200260200101519350806002600381111561325d5761325d614ff2565b8151811061326d5761326d615008565b602002602001015192508060038081111561328a5761328a614ff2565b8151811061329a5761329a615008565b60200260200101519150505b60006132cb604051806060016040528088815260200186815260200184815250613c6d565b90506132d78682614f19565b6132e290600a614e52565b6132ec9088614efa565b96506132f88482614f19565b61330390600a614e52565b61330d9086614efa565b94506133198282614f19565b61332490600a614e52565b61332e9084614efa565b969c949b509599509497509195505050505050565b600061335160046002614efa565b6001600160401b038111156133685761336861501e565b604051908082528060200260200182016040528015613391578160200160208202803683370190505b50905060006133a260046002614efa565b6001600160401b038111156133b9576133b961501e565b6040519080825280602002602001820160405280156133e2578160200160208202803683370190505b50905060006133f360046002614efa565b6001600160401b0381111561340a5761340a61501e565b604051908082528060200260200182016040528015613433578160200160208202803683370190505b50905060008060008060005b60048110156135a4576134698a8c836004811061345e5761345e615008565b60200201518b613ccc565b919650945092508b816004811061348257613482615008565b602002015188838151811061349957613499615008565b60200260200101906001600160a01b031690816001600160a01b031681525050848783815181106134cc576134cc615008565b6020908102919091010152600186836134e481614f97565b9450815181106134f6576134f6615008565b6020026020010181815250508b816004811061351457613514615008565b602002015188838151811061352b5761352b615008565b60200260200101906001600160a01b031690816001600160a01b0316815250508387838151811061355e5761355e615008565b602090810291909101015282868361357581614f97565b94508151811061358757613587615008565b60209081029190910101528061359c81614f97565b91505061343f565b50600060029054906101000a90046001600160a01b03166001600160a01b031663e220ad956040518163ffffffff1660e01b815260040160006040518083038186803b1580156135f357600080fd5b505afa158015613607573d6000803e3d6000fd5b505050506040513d6000823e601f3d908101601f1916820160405261362f91908101906142fc565b60078151811061364157613641615008565b60200260200101516001600160a01b03166357ffa71b609b548e8a8a8a6040518663ffffffff1660e01b815260040161367e959493929190614cbb565b600060405180830381600087803b15801561369857600080fd5b505af11580156136ac573d6000803e3d6000fd5b50505050505050505050505050505050565b60008060029054906101000a90046001600160a01b03166001600160a01b031663e220ad956040518163ffffffff1660e01b815260040160006040518083038186803b15801561370d57600080fd5b505afa158015613721573d6000803e3d6000fd5b505050506040513d6000823e601f3d908101601f1916820160405261374991908101906142fc565b60078151811061375b5761375b615008565b60200260200101519050806001600160a01b031663a37b58d5609b54600060029054906101000a90046001600160a01b03166001600160a01b031663e220ad956040518163ffffffff1660e01b815260040160006040518083038186803b1580156137c557600080fd5b505afa1580156137d9573d6000803e3d6000fd5b505050506040513d6000823e601f3d908101601f1916820160405261380191908101906142fc565b60028151811061381357613813615008565b6020908102919091018101516000878152609d835260408082206001015481519485018252918452516001600160e01b031960e087901b16815261385b949390600401614c80565b600060405180830381600087803b15801561387557600080fd5b505af1158015613889573d6000803e3d6000fd5b50505050806001600160a01b031663a37b58d5609b54600060029054906101000a90046001600160a01b03166001600160a01b031663e220ad956040518163ffffffff1660e01b815260040160006040518083038186803b1580156138ed57600080fd5b505afa158015613901573d6000803e3d6000fd5b505050506040513d6000823e601f3d908101601f1916820160405261392991908101906142fc565b60058151811061393b5761393b615008565b6020908102919091018101516000878152609d835260408082206001015481519485018252918452516001600160e01b031960e087901b168152613983949390600401614c80565b600060405180830381600087803b15801561399d57600080fd5b505af11580156139b1573d6000803e3d6000fd5b505050505050565b6060816139dd5750506040805180820190915260018152600360fc1b602082015290565b8160005b8115613a0757806139f181614f97565b9150613a009050600a83614dfb565b91506139e1565b6000816001600160401b03811115613a2157613a2161501e565b6040519080825280601f01601f191660200182016040528015613a4b576020820181803683370190505b5090505b8415612ad157613a60600183614f19565b9150613a6d600a86614fb2565b613a78906030614de3565b60f81b818381518110613a8d57613a8d615008565b60200101906001600160f81b031916908160001a905350613aaf600a86614dfb565b9450613a4f565b613ac08383613d2c565b613acd6000848484613b60565b6106765760405162461bcd60e51b81526004016105459061498e565b600054610100900460ff16613b105760405162461bcd60e51b815260040161054590614b3a565b565b600054610100900460ff16613b395760405162461bcd60e51b815260040161054590614b3a565b8151613b4c906065906020850190613e9b565b508051610676906066906020840190613e9b565b60006001600160a01b0384163b15613c6257604051630a85bd0160e11b81526001600160a01b0385169063150b7a0290613ba4903390899088908890600401614808565b602060405180830381600087803b158015613bbe57600080fd5b505af1925050508015613bee575060408051601f3d908101601f19168201909252613beb918101906144d1565b60015b613c48573d808015613c1c576040519150601f19603f3d011682016040523d82523d6000602084013e613c21565b606091505b508051613c405760405162461bcd60e51b81526004016105459061498e565b805181602001fd5b6001600160e01b031916630a85bd0160e11b149050612ad1565b506001949350505050565b600080805b6003811015613cc557838160038110613c8d57613c8d615008565b6020020151821015613cb357838160038110613cab57613cab615008565b602002015191505b80613cbd81614f97565b915050613c72565b5092915050565b6000808080613cdb8688614efa565b90506000613cea86600a614e52565b613cf5906064614efa565b90506000613d038284614dfb565b90506000613d118383614efa565b613d1b9085614f19565b919a91995091975095505050505050565b6001600160a01b038216613d825760405162461bcd60e51b815260206004820181905260248201527f4552433732313a206d696e7420746f20746865207a65726f20616464726573736044820152606401610545565b613d8b81612984565b15613dd75760405162461bcd60e51b815260206004820152601c60248201527b115490cdcc8c4e881d1bdad95b88185b1c9958591e481b5a5b9d195960221b6044820152606401610545565b6001600160a01b0382166000908152606860205260408120805460019290613e00908490614de3565b909155505060008181526067602052604080822080546001600160a01b0319166001600160a01b0386169081179091559051839290600080516020615063833981519152908290a45050565b6040518060c0016040528060006001600160a01b031681526020016060815260200160608152602001600081526020016000815260200160006001811115613e9657613e96614ff2565b905290565b828054613ea790614f5c565b90600052602060002090601f016020900481019282613ec95760008555613f0f565b82601f10613ee257805160ff1916838001178555613f0f565b82800160010185558215613f0f579182015b82811115613f0f578251825591602001919060010190613ef4565b50613f1b929150613f1f565b5090565b5b80821115613f1b5760008155600101613f20565b6000613f47613f4284614dbc565b614d69565b9050828152838383011115613f5b57600080fd5b828260208301376000602084830101529392505050565b600082601f830112613f8357600080fd5b81356020613f93613f4283614d99565b82815281810190858301606080860288018501891015613fb257600080fd5b6000805b878110156140035782848c031215613fcc578182fd5b613fd4614d41565b8435815287850135888201526040613fed81870161407f565b9082015286529486019492820192600101613fb6565b50929998505050505050505050565b600082601f83011261402357600080fd5b81516020614033613f4283614d99565b80838252828201915082860187848660051b890101111561405357600080fd5b60005b8581101561407257815184529284019290840190600101614056565b5090979650505050505050565b8035801515811461408f57600080fd5b919050565b600082601f8301126140a557600080fd5b61282d83833560208501613f34565b803560ff8116811461408f57600080fd5b6000602082840312156140d757600080fd5b813561282d81615034565b600080604083850312156140f557600080fd5b823561410081615034565b9150602083013561411081615034565b809150509250929050565b60008060008060008060008060006101208a8c03121561413a57600080fd5b893561414581615034565b985060208a013561415581615034565b975060408a01356001600160401b038082111561417157600080fd5b61417d8d838e01614094565b985060608c013591508082111561419357600080fd5b506141a08c828d01614094565b96505060808a0135945060a08a0135935060c08a0135925060e08a013591506141cc6101008b016140b4565b90509295985092959850929598565b6000806000606084860312156141f057600080fd5b83356141fb81615034565b9250602084013561420b81615034565b929592945050506040919091013590565b6000806000806080858703121561423257600080fd5b843561423d81615034565b9350602085013561424d81615034565b92506040850135915060608501356001600160401b0381111561426f57600080fd5b8501601f8101871361428057600080fd5b61428f87823560208401613f34565b91505092959194509250565b600080604083850312156142ae57600080fd5b82356142b981615034565b91506142c76020840161407f565b90509250929050565b600080604083850312156142e357600080fd5b82356142ee81615034565b946020939093013593505050565b6000602080838503121561430f57600080fd5b82516001600160401b0381111561432557600080fd5b8301601f8101851361433657600080fd5b8051614344613f4282614d99565b80828252848201915084840188868560051b870101111561436457600080fd5b600094505b8385101561439057805161437c81615034565b835260019490940193918501918501614369565b50979650505050505050565b6000806000606084860312156143b157600080fd5b83516001600160401b03808211156143c857600080fd5b818601915086601f8301126143dc57600080fd5b815160206143ec613f4283614d99565b8083825282820191508286018b848660051b890101111561440c57600080fd5b60005b858110156144475781518781111561442657600080fd5b6144348e87838c0101614012565b855250928401929084019060010161440f565b50509189015191975090935050508082111561446257600080fd5b61446e87838801614012565b9350604086015191508082111561448457600080fd5b5061449186828701614012565b9150509250925092565b6000602082840312156144ad57600080fd5b5051919050565b6000602082840312156144c657600080fd5b813561282d8161504c565b6000602082840312156144e357600080fd5b815161282d8161504c565b60006020828403121561450057600080fd5b81516001600160401b0381111561451657600080fd5b8201601f8101841361452757600080fd5b8051614535613f4282614dbc565b81815285602083850101111561454a57600080fd5b61455b826020830160208601614f30565b95945050505050565b60006020828403121561457657600080fd5b81356002811061282d57600080fd5b600060a0828403121561459757600080fd5b60405160a081016001600160401b03811182821017156145b9576145b961501e565b6040528235815260208301356145ce81615034565b6020820152604083810135908201526145e96060840161407f565b6060820152608083013560808201528091505092915050565b60006020828403121561461457600080fd5b5035919050565b600080600080600060a0868803121561463357600080fd5b85359450602086013561464581615034565b935060408601356001600160401b0381111561466057600080fd5b61466c88828901613f72565b93505061467b6060870161407f565b949793965091946080013592915050565b6000806040838503121561469f57600080fd5b8235915060208301356001600160401b038111156146bc57600080fd5b6146c885828601613f72565b9150509250929050565b600080604083850312156146e557600080fd5b50508035926020909101359150565b600081518084526020808501945080840160005b8381101561473c57815180518852838101518489015260409081015115159088015260609096019590820190600101614708565b509495945050505050565b600081518084526020808501945080840160005b8381101561473c5781518752958201959082019060010161475b565b6000815180845261478f816020860160208601614f30565b601f01601f19169290920160200192915050565b600281106147c157634e487b7160e01b600052602160045260246000fd5b9052565b600083516147d7818460208801614f30565b8351908301906147eb818360208801614f30565b01949350505050565b6001600160a01b0391909116815260200190565b6001600160a01b038581168252841660208201526040810183905260806060820181905260009061483b90830184614777565b9695505050505050565b6001600160a01b03878116825286166020820152604081018590526060810184905260c06080820181905260009061487f90830185614777565b90508260a0830152979650505050505050565b6001600160a01b038616815260a0602082018190526000906148b6908301876146f4565b90506148c560408301866147a3565b6060820193909352608001529392505050565b6020808252825182820181905260009190848201906040850190845b81811015614910578351835292840192918401916001016148f4565b50909695505050505050565b6040810161492a82856147a3565b61282d60208301846147a3565b60208152600061282d6020830184614777565b60208082526024908201527f4f6e6c7920746865204f776e657220697320616c6c6f77656420746f20646f206040820152631d1a185d60e21b606082015260800190565b60208082526032908201527f4552433732313a207472616e7366657220746f206e6f6e20455243373231526560408201527131b2b4bb32b91034b6b83632b6b2b73a32b960711b606082015260800190565b6020808252601d908201527f546865726520697320616e206f6666657220696e2070726f6772657373000000604082015260600190565b6020808252602e908201527f496e697469616c697a61626c653a20636f6e747261637420697320616c72656160408201526d191e481a5b9a5d1a585b1a5e995960921b606082015260800190565b6020808252602d908201527f4f6e6c79206f776e6572206f7220617070726f7665642063616e206368616e6760408201526c6520746f6b656e20707269636560981b606082015260800190565b60208082526031908201527f4552433732313a207472616e736665722063616c6c6572206973206e6f74206f6040820152701ddb995c881b9bdc88185c1c1c9bdd9959607a1b606082015260800190565b6020808252601d908201527f5468657265206973206e6f206f6666657220696e2070726f6772657373000000604082015260600190565b6020808252602b908201527f496e697469616c697a61626c653a20636f6e7472616374206973206e6f74206960408201526a6e697469616c697a696e6760a81b606082015260800190565b604080825283516001600160a01b031690820152602083015160c06060830152600090614bb6610100840182614777565b90506040850151603f19848303016080850152614bd38282614777565b915050606085015160a0840152608085015160c084015260a0850151614bfc60e08501826147a3565b506020929092019290925292915050565b60408152614c1f6040820184516147a3565b6000602084015160406060840152614c3a60808401826146f4565b91505060018060a01b03831660208301529392505050565b9485526001600160a01b03938416602086015260408501929092529091166060830152608082015260a00190565b84815260018060a01b038416602082015282604082015260806060820152600061483b6080830184614777565b918252602082015260400190565b600060a082018783526020878185015260a0604085015281875180845260c086019150828901935060005b81811015614d0b5784516001600160a01b031683529383019391830191600101614ce6565b50508481036060860152614d1f8188614747565b925050508281036080840152614d358185614747565b98975050505050505050565b604051606081016001600160401b0381118282101715614d6357614d6361501e565b60405290565b604051601f8201601f191681016001600160401b0381118282101715614d9157614d9161501e565b604052919050565b60006001600160401b03821115614db257614db261501e565b5060051b60200190565b60006001600160401b03821115614dd557614dd561501e565b50601f01601f191660200190565b60008219821115614df657614df6614fc6565b500190565b600082614e0a57614e0a614fdc565b500490565b600181815b80851115614e4a578160001904821115614e3057614e30614fc6565b80851615614e3d57918102915b93841c9390800290614e14565b509250929050565b600061282d8383600082614e6857506001610445565b81614e7557506000610445565b8160018114614e8b5760028114614e9557614eb1565b6001915050610445565b60ff841115614ea657614ea6614fc6565b50506001821b610445565b5060208310610133831016604e8410600b8410161715614ed4575081810a610445565b614ede8383614e0f565b8060001904821115614ef257614ef2614fc6565b029392505050565b6000816000190483118215151615614f1457614f14614fc6565b500290565b600082821015614f2b57614f2b614fc6565b500390565b60005b83811015614f4b578181015183820152602001614f33565b838111156109755750506000910152565b600181811c90821680614f7057607f821691505b60208210811415614f9157634e487b7160e01b600052602260045260246000fd5b50919050565b6000600019821415614fab57614fab614fc6565b5060010190565b600082614fc157614fc1614fdc565b500690565b634e487b7160e01b600052601160045260246000fd5b634e487b7160e01b600052601260045260246000fd5b634e487b7160e01b600052602160045260246000fd5b634e487b7160e01b600052603260045260246000fd5b634e487b7160e01b600052604160045260246000fd5b6001600160a01b038116811461504957600080fd5b50565b6001600160e01b03198116811461504957600080fdfeddf252ad1be2c89b69c2b068fc378daa952ba7f163c4a11628f55a4df523b3efa2646970667358221220503e25f8ba45ac49e91a109cccfdea16679bbb1b6d854d0929738c1392e00fb264736f6c63430008070033",
  "immutableReferences": {},
  "source": "// SPDX-License-Identifier: GPL-3.0\r\n\r\npragma solidity 0.8.7;\r\n\r\n/**\r\n Certis Token is an ERC20 Token that grants its holder the right to:\r\n   - Vote on all the systems propositions (changing system configuraiton etc...)\r\n   - Receive Dividends for all the payments forwarded to the Treasury contract\r\n\r\nBefore every token transfer we contact the token gouvernance Base contracts so that the can update the tokens used for voting if needed\r\n\r\n */\r\n\r\nimport \"@openzeppelin/contracts-upgradeable/token/ERC721/ERC721Upgradeable.sol\";\r\nimport \"@openzeppelin/contracts-upgradeable/proxy/utils/Initializable.sol\";\r\nimport \"../Base/ManagedBaseContract.sol\";\r\nimport \"../Libraries/Library.sol\";\r\nimport \"../Libraries/UintLibrary.sol\";\r\nimport \"../Libraries/ItemsLibrary.sol\";\r\nimport \"../Interfaces/ITreasury.sol\";\r\nimport \"../Interfaces/IMarketsCredits.sol\";\r\nimport \"../Interfaces/INFTMarket.sol\";\r\nimport \"../Interfaces/IPayments.sol\";\r\n\r\n contract NFTMarket is  INFTMarket, Initializable, ManagedBaseContract, ERC721Upgradeable {\r\n    using Library for *;\r\n    using UintLibrary for *;\r\n    using ItemsLibrary for *;\r\n\r\n\r\n  // EVENTS /////////////////////////////////////////\r\n  event _NewOwner(address indexed formerOwner, address newOwner);\r\n  event _NewPaymentPlan(Library.PaymentPlans formerPlan, Library.PaymentPlans newPlan);\r\n  event _NewOffersLifeTime(uint256 indexed formerLifeTime, uint256 newLifeTime);\r\n  event _NewOwnerFees(uint256 indexed formerAmount, uint256 indexed formerDecimals, uint256 newAmount, uint256 newDecimals);\r\n\r\n  event _MintToken(uint256 indexed tokenId, address receiver, _tokenPriceStruct[] prices, Library.PaymentPlans plan, uint256 MintingFee, uint256 AdminMintingFee);\r\n  event _SetTokenPrice(uint256 indexed tokenId, uint256 formerPrice, uint256 newPrice, uint256 paymentTokenID, bool enabled);\r\n  event _SubmitOffer(uint256 indexed tokenId, address indexed sender, address indexed bidder, uint256 offer, bool FromCredit, uint256 paymentTokenID);\r\n  event _AcceptOffer(uint256 indexed tokenId, address indexed formerOwner, address indexed newOwner, uint256 offer, uint256 paymentTokenID);\r\n  event _RejectOffer(uint256 indexed tokenId);\r\n  event _WithdrawOffer(uint256 indexed tokenId);\r\n  \r\n\r\n  // DATA /////////////////////////////////////////\r\n  address _owner;\r\n  Library.PaymentPlans _paymentPlan;\r\n  uint256 _offersLifeTime;\r\n  uint256 _ownerTransferFeeAmount;\r\n  uint256 _ownerTransferFeeDecimals;\r\n  uint256 _issuerID;\r\n\r\n  mapping(uint256 => _tokenStruct) private _tokenInfo;\r\n  mapping(uint256 => _offerStruct) private _tokenOffer;\r\n\r\n\r\n  // MODIFIERS /////////////////////////////////////////\r\n  modifier isTheOwner(address addr){\r\n      require(_owner == addr, \"Only the Owner is allowed to do that\");\r\n      _;\r\n  }\r\n\r\n  modifier isTokenOwnerOrApproved(uint256 tokenId){\r\n      require(_isApprovedOrOwner(_msgSender(), tokenId), \"Only owner or approved can change token price\");\r\n      _;\r\n  }\r\n\r\n  modifier OfferInProgress(uint256 tokenId, bool YesOrNo){\r\n      if(YesOrNo) require(block.timestamp <= _tokenOffer[tokenId]._deadline, \"There is no offer in progress\");\r\n      else require(block.timestamp > _tokenOffer[tokenId]._deadline, \"There is an offer in progress\");\r\n      _;\r\n  }\r\n\r\n  modifier offerOK(_submitOfferStruct memory offer){\r\n      bool paymentTokendIDFound = false;\r\n      uint256 price = 0;\r\n\r\n      for(uint i=0; i < _tokenInfo[offer._tokenId]._prices.length; i++){\r\n        if(offer._paymentTokenID == _tokenInfo[offer._tokenId]._prices[i]._paymentTokenID){\r\n          require(true == _tokenInfo[offer._tokenId]._prices[i]._enabled, \"This Token does not accept this payment ID\");\r\n          paymentTokendIDFound = true;\r\n          price = _tokenInfo[offer._tokenId]._prices[i]._price;\r\n          break;\r\n        }\r\n      }\r\n\r\n      require(true == paymentTokendIDFound, \"This Token has no price for this payment ID\");\r\n      require(offer._offer >= price, \"The offer is below the minimum price\");\r\n      _;\r\n  }\r\n\r\n  modifier validFees(uint256 fee, uint256 decimals){\r\n    Library.validFees(fee, decimals);\r\n    _;\r\n  }\r\n\r\n  // CONSTRUCTOR /////////////////////////////////////////\r\n  function NFTMarket_init(address managerContractAddress, address owner, string memory name, string memory symbol, uint256 offersLifeTime, uint256 ownerTransferFeeAmount, uint256 ownerTransferFeeDecimals, uint256 issuerID, uint8 paymentPlan) public initializer \r\n    validFees(ownerTransferFeeAmount, ownerTransferFeeDecimals)\r\n  {\r\n      super.ManagedBaseContract_init(managerContractAddress); \r\n      super.__ERC721_init(name, symbol); \r\n\r\n      _owner = owner;\r\n      _paymentPlan = Library.PaymentPlans(paymentPlan);\r\n      _offersLifeTime = offersLifeTime;\r\n      _ownerTransferFeeAmount = ownerTransferFeeAmount;\r\n      _ownerTransferFeeDecimals = ownerTransferFeeDecimals;\r\n      _issuerID = issuerID;\r\n  }\r\n\r\n  // FUNCTIONALITY /////////////////////////////////////////\r\n  function changeOwner(address newOwner) external override\r\n    isTheOwner(msg.sender)\r\n  {\r\n      emit _NewOwner(_owner, newOwner);\r\n      _owner = newOwner;\r\n  }\r\n\r\n  function changePaymentPlan(Library.PaymentPlans newPaymentPlan) external override\r\n    isTheOwner(msg.sender)\r\n  {\r\n      emit _NewPaymentPlan(_paymentPlan, newPaymentPlan);\r\n      _paymentPlan = newPaymentPlan;\r\n  }\r\n\r\n  function changeOffersLifeTime(uint256 newLifeTime) external override\r\n    isTheOwner(msg.sender)\r\n  {\r\n      emit _NewOffersLifeTime(_offersLifeTime, newLifeTime);\r\n      _offersLifeTime = newLifeTime;\r\n  }\r\n\r\n  function changeOwnerTransferFees(uint256 newAmount, uint256 newDecimals) external override\r\n    isTheOwner(msg.sender)\r\n    validFees(newAmount, newDecimals)\r\n  {\r\n      emit _NewOwnerFees(_ownerTransferFeeAmount, _ownerTransferFeeDecimals, newAmount, newDecimals);\r\n      _ownerTransferFeeAmount = newAmount;\r\n      _ownerTransferFeeDecimals = newDecimals;\r\n  }\r\n\r\n  function mintToken(uint256 tokenId, address receiver, _tokenPriceStruct[] memory prices, bool FromCredit, uint256 paymentTokenID) external override\r\n    isTheOwner(msg.sender)\r\n  {\r\n      uint256 MintingFee = 0;\r\n      uint256 AdminMintingFee = 0;\r\n\r\n      if(_paymentPlan == Library.PaymentPlans.Minting)\r\n      {\r\n        (uint[][] memory Fees, , ) = ITreasury(_managerContract.retrieveTransparentProxies()[uint256(Library.TransparentProxies.Treasury)]).retrieveSettings();\r\n        MintingFee = Fees[paymentTokenID][uint256(Library.Fees.MintingFee)];\r\n        AdminMintingFee = Fees[paymentTokenID][uint256(Library.Fees.AdminMintingFee)];\r\n\r\n        if(FromCredit){\r\n          IMarketsCredits marketsCredits = IMarketsCredits(_managerContract.retrieveTransparentProxies()[uint256(Library.TransparentProxies.MarketsCredits)]);\r\n          marketsCredits.spendCredit(_issuerID, msg.sender, MintingFee, _managerContract.retrieveTransparentProxies()[uint256(Library.TransparentProxies.Treasury)], paymentTokenID);\r\n          marketsCredits.spendCredit(_issuerID, msg.sender, AdminMintingFee, _managerContract.retrieveTransparentProxies()[uint256(Library.TransparentProxies.AdminPiggyBank)], paymentTokenID);\r\n        } \r\n        else{\r\n          IPayments payments = IPayments(_managerContract.retrieveTransparentProxies()[uint256(Library.TransparentProxies.Payments)]);\r\n          payments.TransferFrom(msg.sender, _managerContract.retrieveTransparentProxies()[uint256(Library.TransparentProxies.Treasury)], MintingFee, _issuerID, bytes(\"\"), paymentTokenID);\r\n          payments.TransferFrom(msg.sender, _managerContract.retrieveTransparentProxies()[uint256(Library.TransparentProxies.AdminPiggyBank)], AdminMintingFee, _issuerID, bytes(\"\"), paymentTokenID);\r\n        }\r\n      }\r\n\r\n      _safeMint(receiver, tokenId);\r\n      for(uint256 i=0; i < prices.length; i++){\r\n          _tokenInfo[tokenId]._prices.push(prices[i]);\r\n      }\r\n      _tokenInfo[tokenId]._paymentPlan = _paymentPlan;\r\n\r\n      emit _MintToken(tokenId, receiver, prices, _paymentPlan, MintingFee, AdminMintingFee);\r\n  }\r\n\r\n  function setTokenPrice(uint256 tokenId, _tokenPriceStruct[] memory prices) external override\r\n    isTokenOwnerOrApproved(tokenId)\r\n  {\r\n    \r\n    for(uint i=0; i < prices.length; i++){\r\n      bool found = false;\r\n      uint256 formerPrice = 0;\r\n\r\n      for(uint j=0; j < _tokenInfo[tokenId]._prices.length; j++){\r\n        if(prices[i]._paymentTokenID == _tokenInfo[tokenId]._prices[j]._paymentTokenID){\r\n            formerPrice = _tokenInfo[tokenId]._prices[j]._price;\r\n            found = true;\r\n            _tokenInfo[tokenId]._prices[j]._price = prices[i]._price;\r\n            _tokenInfo[tokenId]._prices[j]._enabled = prices[i]._enabled;\r\n        }\r\n      }\r\n\r\n      if(!found) _tokenInfo[tokenId]._prices.push(prices[i]);\r\n\r\n      emit _SetTokenPrice(tokenId, formerPrice, prices[i]._price, prices[i]._paymentTokenID, prices[i]._enabled);\r\n    }\r\n\r\n  }\r\n\r\n  function acceptOffer(uint256 tokenId) external override\r\n    isTokenOwnerOrApproved(tokenId)\r\n    OfferInProgress(tokenId, true)\r\n  {\r\n    emit _AcceptOffer(tokenId, ownerOf(tokenId), _tokenOffer[tokenId]._bidder, _tokenOffer[tokenId]._offer, _tokenOffer[tokenId]._paymentTokenID);\r\n\r\n    (uint256 OwnerTransferFeeAmount, uint256 TransferFeeAmount, uint256 AdminTransferFeeAmount, uint256 commonDecimals) = getFees(tokenId);\r\n\r\n    uint256 TotalFees = OwnerTransferFeeAmount + TransferFeeAmount + AdminTransferFeeAmount;\r\n    Library.validFees(TotalFees, commonDecimals);\r\n\r\n    uint256 percentageForTokenOwner = 10**(commonDecimals + 2) - TotalFees;\r\n\r\n    _safeTransfer(ownerOf(tokenId), _tokenOffer[tokenId]._bidder, tokenId, \"\");\r\n\r\n    AllocatePercents(tokenId,\r\n      [_managerContract.retrieveTransparentProxies()[uint256(Library.TransparentProxies.Treasury)], _managerContract.retrieveTransparentProxies()[uint256(Library.TransparentProxies.AdminPiggyBank)], _owner, ownerOf(tokenId)],\r\n      [TransferFeeAmount, AdminTransferFeeAmount, OwnerTransferFeeAmount, percentageForTokenOwner],\r\n      _tokenOffer[tokenId]._offer,\r\n      commonDecimals);\r\n\r\n    removeOffer(tokenId);\r\n\r\n    transferToSystemContracts(tokenId);\r\n  }\r\n\r\n  function transferToSystemContracts(uint256 tokenId) internal {\r\n    IMarketsCredits marketsCredits = IMarketsCredits(_managerContract.retrieveTransparentProxies()[uint256(Library.TransparentProxies.MarketsCredits)]);\r\n\r\n    marketsCredits.withdrawAllFor(_issuerID,\r\n      _managerContract.retrieveTransparentProxies()[uint256(Library.TransparentProxies.Treasury)],\r\n      _tokenOffer[tokenId]._paymentTokenID,\r\n      bytes(\"\"));\r\n    marketsCredits.withdrawAllFor(_issuerID,\r\n      _managerContract.retrieveTransparentProxies()[uint256(Library.TransparentProxies.AdminPiggyBank)],\r\n      _tokenOffer[tokenId]._paymentTokenID,\r\n      bytes(\"\"));\r\n  }\r\n\r\n  function getFees(uint256 tokenId) internal view returns(uint256, uint256, uint256, uint256)\r\n  {\r\n    uint256 OwnerTransferFeeAmount = _ownerTransferFeeAmount;\r\n    uint256 OwnerTransferFeeDecimals = _ownerTransferFeeDecimals;\r\n    uint256 TransferFeeAmount = 0;\r\n    uint256 TransferFeeDecimals = 0;\r\n    uint256 AdminTransferFeeAmount = 0;\r\n    uint256 AdminTransferFeeDecimals = 0;\r\n\r\n    if(Library.PaymentPlans.TransferFee == _tokenInfo[tokenId]._paymentPlan){\r\n        ( , uint[] memory TransferFees, ) = ITreasury(_managerContract.retrieveTransparentProxies()[uint256(Library.TransparentProxies.Treasury)]).retrieveSettings();\r\n        TransferFeeAmount = TransferFees[uint256(Library.TransferFees.TransferFeeAmount)];\r\n        TransferFeeDecimals = TransferFees[uint256(Library.TransferFees.TransferFeeDecimals)];\r\n        AdminTransferFeeAmount = TransferFees[uint256(Library.TransferFees.AdminTransferFeeAmount)];\r\n        AdminTransferFeeDecimals = TransferFees[uint256(Library.TransferFees.AdminTransferFeeDecimals)];\r\n    }\r\n\r\n    uint256 commonDecimals = getLargest([OwnerTransferFeeDecimals, TransferFeeDecimals, AdminTransferFeeDecimals]); \r\n    OwnerTransferFeeAmount = OwnerTransferFeeAmount * 10**(commonDecimals - OwnerTransferFeeDecimals);\r\n    TransferFeeAmount = TransferFeeAmount * 10**(commonDecimals - TransferFeeDecimals);\r\n    AdminTransferFeeAmount = AdminTransferFeeAmount * 10**(commonDecimals - AdminTransferFeeDecimals);\r\n\r\n    return(OwnerTransferFeeAmount, TransferFeeAmount, AdminTransferFeeAmount, commonDecimals);\r\n  }\r\n    \r\n  function rejectOffer(uint256 tokenId) external override\r\n    isTokenOwnerOrApproved(tokenId)\r\n    OfferInProgress(tokenId, true)\r\n  {\r\n    assignToRejectedSender(tokenId);\r\n    removeOffer(tokenId);\r\n    emit _RejectOffer(tokenId);\r\n  }\r\n\r\n  function removeOffer(uint256 tokenId) internal\r\n  {\r\n    delete(_tokenOffer[tokenId]);\r\n  }\r\n\r\n  function submitOffer(_submitOfferStruct memory offer) external override\r\n    OfferInProgress(offer._tokenId, false)\r\n    offerOK(offer)\r\n  {\r\n    if(address(0) != _tokenOffer[offer._tokenId]._sender) assignToRejectedSender(offer._tokenId);\r\n\r\n    if(offer._FromCredit)\r\n      IMarketsCredits(_managerContract.retrieveTransparentProxies()[uint256(Library.TransparentProxies.MarketsCredits)]).reuseCredit(_issuerID, offer._tokenId,  msg.sender, offer._offer, offer._paymentTokenID);\r\n    \r\n    else{\r\n      bytes32[] memory dataArray = new bytes32[](3);\r\n      dataArray[0] = UintLibrary.UintToBytes32(uint256(Library.MarketsCreditsPaymentTypes.TransferUnassignedCredit));\r\n      dataArray[1] = UintLibrary.UintToBytes32(_issuerID);\r\n      dataArray[2] = UintLibrary.UintToBytes32(offer._tokenId);\r\n      bytes memory data = Library.Bytes32ArrayToBytes(dataArray);\r\n\r\n      IPayments payments = IPayments(_managerContract.retrieveTransparentProxies()[uint256(Library.TransparentProxies.Payments)]);\r\n      payments.TransferFrom(msg.sender, _managerContract.retrieveTransparentProxies()[uint256(Library.TransparentProxies.MarketsCredits)], offer._offer, _issuerID, data, offer._paymentTokenID);\r\n    }\r\n\r\n    _tokenOffer[offer._tokenId]._offer = offer._offer;\r\n    _tokenOffer[offer._tokenId]._paymentTokenID = offer._paymentTokenID;\r\n    _tokenOffer[offer._tokenId]._sender = msg.sender;\r\n    _tokenOffer[offer._tokenId]._bidder = offer._bidder;\r\n    _tokenOffer[offer._tokenId]._deadline = block.timestamp + _offersLifeTime;\r\n\r\n    emit _SubmitOffer(offer._tokenId, msg.sender, offer._bidder, offer._offer, offer._FromCredit, offer._paymentTokenID);\r\n  }\r\n    \r\n  function withdrawOffer(uint256 tokenId) external override\r\n    OfferInProgress(tokenId, false)\r\n  {\r\n    require(msg.sender == _tokenOffer[tokenId]._sender, \"Only the original sender can withdraw the bid\");\r\n    assignToRejectedSender(tokenId);\r\n    removeOffer(tokenId);\r\n    emit _WithdrawOffer(tokenId);\r\n  }\r\n\r\n  function assignToRejectedSender(uint tokenId) internal\r\n  {\r\n    address[] memory addrs = new address[](1);\r\n    uint256[] memory amounts = new uint256[](1);\r\n    uint256[] memory factors = new uint256[](1);\r\n    addrs[0] = _tokenOffer[tokenId]._sender;\r\n    amounts[0] = _tokenOffer[tokenId]._offer;\r\n    factors[0] = 1;\r\n    IMarketsCredits(_managerContract.retrieveTransparentProxies()[uint256(Library.TransparentProxies.MarketsCredits)]).assignCredit(_issuerID, tokenId, addrs, amounts, factors);\r\n  }\r\n\r\n  function AllocatePercents(uint256 tokenId, address[4] memory destinations, uint256[4] memory percentages, uint256 offer, uint256 commonDecimals) internal\r\n  {\r\n    address[] memory addrs = new address[](2 * destinations.length);\r\n    uint256[] memory amounts = new uint256[](2 * destinations.length);\r\n    uint256[] memory factors = new uint256[](2 * destinations.length);\r\n    uint quotient = 0;\r\n    uint remainder = 0;\r\n    uint denominator = 0;\r\n    uint pos = 0;\r\n\r\n\r\n    for(uint i=0; i < destinations.length; i++){\r\n      (quotient, remainder, denominator) = CalculatePercents(offer, percentages[i], commonDecimals);\r\n      addrs[pos] = destinations[i];\r\n      amounts[pos] = quotient;\r\n      factors[pos++] = 1;\r\n      addrs[pos] = destinations[i];\r\n      amounts[pos] = remainder;\r\n      factors[pos++] = denominator;\r\n    }\r\n\r\n    IMarketsCredits(_managerContract.retrieveTransparentProxies()[uint256(Library.TransparentProxies.MarketsCredits)]).assignCredit(\r\n      _issuerID, \r\n      tokenId, \r\n      addrs, \r\n      amounts, \r\n      factors\r\n    );\r\n  }\r\n\r\n  function CalculatePercents(uint256 amount, uint256 percentage, uint256 decimals) internal pure returns(uint256, uint256, uint256)\r\n  {\r\n      uint256 numerator = amount * percentage;\r\n      uint256 denominator = 100 * 10**decimals;\r\n\r\n      uint256 quotient = numerator / denominator;\r\n      uint256 remainder = numerator - (quotient * denominator);\r\n\r\n      return(quotient, remainder, denominator);\r\n  }\r\n\r\n  function retrieveIssuer() external override view returns (ItemsLibrary._issuerStruct memory, uint256)\r\n  {\r\n    return(ItemsLibrary._issuerStruct(_owner, name(), symbol(), _ownerTransferFeeAmount, _ownerTransferFeeDecimals, _paymentPlan), _offersLifeTime);\r\n  }\r\n\r\n  function retrieveToken(uint256 tokenId) external override view returns (_tokenStruct memory, address)\r\n  {\r\n    return(_tokenInfo[tokenId], ownerOf(tokenId));\r\n  }\r\n\r\n  function retrieveOffer(uint256 tokenId) external override view returns (_offerStruct memory)\r\n  {\r\n      return(_tokenOffer[tokenId]);\r\n  }\r\n\r\n  function getLargest(uint256[3] memory nums) internal pure returns(uint256)\r\n  {\r\n    uint256 largest = 0;\r\n\r\n    for(uint i=0; i < nums.length; i++)\r\n    {\r\n        if(largest < nums[i])largest = nums[i];\r\n    }\r\n\r\n    return largest;\r\n  }\r\n\r\n }",
  "sourcePath": "C:\\Users\\d-aam\\GitHub\\Originals\\contracts\\MainContracts\\NFTMarket.sol",
  "compiler": {
    "name": "solc",
    "version": "0.8.7+commit.e28d00a7.Emscripten.clang"
  },
  "schemaVersion": "3.4.3",
  "updatedAt": "2022-03-14T14:27:05.870Z",
  "networkType": "ethereum",
  "devdoc": {
    "kind": "dev",
    "methods": {
      "approve(address,uint256)": {
        "details": "See {IERC721-approve}."
      },
      "balanceOf(address)": {
        "details": "See {IERC721-balanceOf}."
      },
      "getApproved(uint256)": {
        "details": "See {IERC721-getApproved}."
      },
      "isApprovedForAll(address,address)": {
        "details": "See {IERC721-isApprovedForAll}."
      },
      "name()": {
        "details": "See {IERC721Metadata-name}."
      },
      "ownerOf(uint256)": {
        "details": "See {IERC721-ownerOf}."
      },
      "safeTransferFrom(address,address,uint256)": {
        "details": "See {IERC721-safeTransferFrom}."
      },
      "safeTransferFrom(address,address,uint256,bytes)": {
        "details": "See {IERC721-safeTransferFrom}."
      },
      "setApprovalForAll(address,bool)": {
        "details": "See {IERC721-setApprovalForAll}."
      },
      "supportsInterface(bytes4)": {
        "details": "See {IERC165-supportsInterface}."
      },
      "symbol()": {
        "details": "See {IERC721Metadata-symbol}."
      },
      "tokenURI(uint256)": {
        "details": "See {IERC721Metadata-tokenURI}."
      },
      "transferFrom(address,address,uint256)": {
        "details": "See {IERC721-transferFrom}."
      }
    },
    "version": 1
  },
  "userdoc": {
    "kind": "user",
    "methods": {},
    "version": 1
  }
}