{
  "contractName": "NFTMarket",
  "abi": [
    {
      "anonymous": false,
      "inputs": [
        {
          "indexed": true,
          "internalType": "address",
          "name": "owner",
          "type": "address"
        },
        {
          "indexed": true,
          "internalType": "address",
          "name": "approved",
          "type": "address"
        },
        {
          "indexed": true,
          "internalType": "uint256",
          "name": "tokenId",
          "type": "uint256"
        }
      ],
      "name": "Approval",
      "type": "event"
    },
    {
      "anonymous": false,
      "inputs": [
        {
          "indexed": true,
          "internalType": "address",
          "name": "owner",
          "type": "address"
        },
        {
          "indexed": true,
          "internalType": "address",
          "name": "operator",
          "type": "address"
        },
        {
          "indexed": false,
          "internalType": "bool",
          "name": "approved",
          "type": "bool"
        }
      ],
      "name": "ApprovalForAll",
      "type": "event"
    },
    {
      "anonymous": false,
      "inputs": [
        {
          "indexed": true,
          "internalType": "address",
          "name": "from",
          "type": "address"
        },
        {
          "indexed": true,
          "internalType": "address",
          "name": "to",
          "type": "address"
        },
        {
          "indexed": true,
          "internalType": "uint256",
          "name": "tokenId",
          "type": "uint256"
        }
      ],
      "name": "Transfer",
      "type": "event"
    },
    {
      "inputs": [
        {
          "internalType": "address",
          "name": "to",
          "type": "address"
        },
        {
          "internalType": "uint256",
          "name": "tokenId",
          "type": "uint256"
        }
      ],
      "name": "approve",
      "outputs": [],
      "stateMutability": "nonpayable",
      "type": "function"
    },
    {
      "inputs": [
        {
          "internalType": "address",
          "name": "owner",
          "type": "address"
        }
      ],
      "name": "balanceOf",
      "outputs": [
        {
          "internalType": "uint256",
          "name": "",
          "type": "uint256"
        }
      ],
      "stateMutability": "view",
      "type": "function"
    },
    {
      "inputs": [
        {
          "internalType": "uint256",
          "name": "tokenId",
          "type": "uint256"
        }
      ],
      "name": "getApproved",
      "outputs": [
        {
          "internalType": "address",
          "name": "",
          "type": "address"
        }
      ],
      "stateMutability": "view",
      "type": "function"
    },
    {
      "inputs": [
        {
          "internalType": "address",
          "name": "owner",
          "type": "address"
        },
        {
          "internalType": "address",
          "name": "operator",
          "type": "address"
        }
      ],
      "name": "isApprovedForAll",
      "outputs": [
        {
          "internalType": "bool",
          "name": "",
          "type": "bool"
        }
      ],
      "stateMutability": "view",
      "type": "function"
    },
    {
      "inputs": [],
      "name": "name",
      "outputs": [
        {
          "internalType": "string",
          "name": "",
          "type": "string"
        }
      ],
      "stateMutability": "view",
      "type": "function"
    },
    {
      "inputs": [
        {
          "internalType": "uint256",
          "name": "tokenId",
          "type": "uint256"
        }
      ],
      "name": "ownerOf",
      "outputs": [
        {
          "internalType": "address",
          "name": "",
          "type": "address"
        }
      ],
      "stateMutability": "view",
      "type": "function"
    },
    {
      "inputs": [],
      "name": "retrieveManagerContract",
      "outputs": [
        {
          "internalType": "address",
          "name": "",
          "type": "address"
        }
      ],
      "stateMutability": "view",
      "type": "function"
    },
    {
      "inputs": [
        {
          "internalType": "address",
          "name": "from",
          "type": "address"
        },
        {
          "internalType": "address",
          "name": "to",
          "type": "address"
        },
        {
          "internalType": "uint256",
          "name": "tokenId",
          "type": "uint256"
        }
      ],
      "name": "safeTransferFrom",
      "outputs": [],
      "stateMutability": "nonpayable",
      "type": "function"
    },
    {
      "inputs": [
        {
          "internalType": "address",
          "name": "from",
          "type": "address"
        },
        {
          "internalType": "address",
          "name": "to",
          "type": "address"
        },
        {
          "internalType": "uint256",
          "name": "tokenId",
          "type": "uint256"
        },
        {
          "internalType": "bytes",
          "name": "_data",
          "type": "bytes"
        }
      ],
      "name": "safeTransferFrom",
      "outputs": [],
      "stateMutability": "nonpayable",
      "type": "function"
    },
    {
      "inputs": [
        {
          "internalType": "address",
          "name": "operator",
          "type": "address"
        },
        {
          "internalType": "bool",
          "name": "approved",
          "type": "bool"
        }
      ],
      "name": "setApprovalForAll",
      "outputs": [],
      "stateMutability": "nonpayable",
      "type": "function"
    },
    {
      "inputs": [
        {
          "internalType": "bytes4",
          "name": "interfaceId",
          "type": "bytes4"
        }
      ],
      "name": "supportsInterface",
      "outputs": [
        {
          "internalType": "bool",
          "name": "",
          "type": "bool"
        }
      ],
      "stateMutability": "view",
      "type": "function"
    },
    {
      "inputs": [],
      "name": "symbol",
      "outputs": [
        {
          "internalType": "string",
          "name": "",
          "type": "string"
        }
      ],
      "stateMutability": "view",
      "type": "function"
    },
    {
      "inputs": [
        {
          "internalType": "uint256",
          "name": "tokenId",
          "type": "uint256"
        }
      ],
      "name": "tokenURI",
      "outputs": [
        {
          "internalType": "string",
          "name": "",
          "type": "string"
        }
      ],
      "stateMutability": "view",
      "type": "function"
    },
    {
      "inputs": [
        {
          "internalType": "address",
          "name": "from",
          "type": "address"
        },
        {
          "internalType": "address",
          "name": "to",
          "type": "address"
        },
        {
          "internalType": "uint256",
          "name": "tokenId",
          "type": "uint256"
        }
      ],
      "name": "transferFrom",
      "outputs": [],
      "stateMutability": "nonpayable",
      "type": "function"
    },
    {
      "inputs": [
        {
          "internalType": "address",
          "name": "managerContractAddress",
          "type": "address"
        },
        {
          "internalType": "address",
          "name": "owner",
          "type": "address"
        },
        {
          "internalType": "string",
          "name": "name",
          "type": "string"
        },
        {
          "internalType": "string",
          "name": "symbol",
          "type": "string"
        },
        {
          "internalType": "uint8",
          "name": "paymentPlan",
          "type": "uint8"
        }
      ],
      "name": "NFTMarket_init",
      "outputs": [],
      "stateMutability": "nonpayable",
      "type": "function"
    }
  ],
  "bytecode": "0x608060405234801561001057600080fd5b50612c1d806100206000396000f3fe608060405234801561001057600080fd5b50600436106100f55760003560e01c80636352211e11610097578063a22cb46511610066578063a22cb46514610284578063b88d4fde146102a0578063c87b56dd146102bc578063e985e9c5146102ec576100f5565b80636352211e146101ea57806365f9b6911461021a57806370a082311461023657806395d89b4114610266576100f5565b8063095ea7b3116100d3578063095ea7b31461017857806323b872dd1461019457806342842e0e146101b05780635b362e84146101cc576100f5565b806301ffc9a7146100fa57806306fdde031461012a578063081812fc14610148575b600080fd5b610114600480360381019061010f9190611d00565b61031c565b60405161012191906120cc565b60405180910390f35b6101326103fe565b60405161013f91906120e7565b60405180910390f35b610162600480360381019061015d9190611d5a565b610490565b60405161016f9190612065565b60405180910390f35b610192600480360381019061018d9190611cc0565b610515565b005b6101ae60048036038101906101a99190611baa565b61062d565b005b6101ca60048036038101906101c59190611baa565b61068d565b005b6101d46106ad565b6040516101e19190612065565b60405180910390f35b61020460048036038101906101ff9190611d5a565b6106d6565b6040516102119190612065565b60405180910390f35b610234600480360381019061022f9190611af7565b610788565b005b610250600480360381019061024b9190611a8a565b610904565b60405161025d91906122c9565b60405180910390f35b61026e6109bc565b60405161027b91906120e7565b60405180910390f35b61029e60048036038101906102999190611c80565b610a4e565b005b6102ba60048036038101906102b59190611bfd565b610a64565b005b6102d660048036038101906102d19190611d5a565b610ac6565b6040516102e391906120e7565b60405180910390f35b61030660048036038101906103019190611ab7565b610b6d565b60405161031391906120cc565b60405180910390f35b60007f80ac58cd000000000000000000000000000000000000000000000000000000007bffffffffffffffffffffffffffffffffffffffffffffffffffffffff1916827bffffffffffffffffffffffffffffffffffffffffffffffffffffffff191614806103e757507f5b5e139f000000000000000000000000000000000000000000000000000000007bffffffffffffffffffffffffffffffffffffffffffffffffffffffff1916827bffffffffffffffffffffffffffffffffffffffffffffffffffffffff1916145b806103f757506103f682610c01565b5b9050919050565b60606065805461040d9061252c565b80601f01602080910402602001604051908101604052809291908181526020018280546104399061252c565b80156104865780601f1061045b57610100808354040283529160200191610486565b820191906000526020600020905b81548152906001019060200180831161046957829003601f168201915b5050505050905090565b600061049b82610c6b565b6104da576040517f08c379a00000000000000000000000000000000000000000000000000000000081526004016104d190612209565b60405180910390fd5b6069600083815260200190815260200160002060009054906101000a900473ffffffffffffffffffffffffffffffffffffffff169050919050565b6000610520826106d6565b90508073ffffffffffffffffffffffffffffffffffffffff168373ffffffffffffffffffffffffffffffffffffffff161415610591576040517f08c379a000000000000000000000000000000000000000000000000000000000815260040161058890612269565b60405180910390fd5b8073ffffffffffffffffffffffffffffffffffffffff166105b0610cd7565b73ffffffffffffffffffffffffffffffffffffffff1614806105df57506105de816105d9610cd7565b610b6d565b5b61061e576040517f08c379a000000000000000000000000000000000000000000000000000000000815260040161061590612189565b60405180910390fd5b6106288383610cdf565b505050565b61063e610638610cd7565b82610d98565b61067d576040517f08c379a000000000000000000000000000000000000000000000000000000000815260040161067490612289565b60405180910390fd5b610688838383610e76565b505050565b6106a883838360405180602001604052806000815250610a64565b505050565b60008060029054906101000a900473ffffffffffffffffffffffffffffffffffffffff16905090565b6000806067600084815260200190815260200160002060009054906101000a900473ffffffffffffffffffffffffffffffffffffffff169050600073ffffffffffffffffffffffffffffffffffffffff168173ffffffffffffffffffffffffffffffffffffffff16141561077f576040517f08c379a0000000000000000000000000000000000000000000000000000000008152600401610776906121c9565b60405180910390fd5b80915050919050565b600060019054906101000a900460ff166107b05760008054906101000a900460ff16156107b9565b6107b86110d2565b5b6107f8576040517f08c379a00000000000000000000000000000000000000000000000000000000081526004016107ef906121e9565b60405180910390fd5b60008060019054906101000a900460ff161590508015610848576001600060016101000a81548160ff02191690831515021790555060016000806101000a81548160ff0219169083151502179055505b610851866110e3565b61085b8484611209565b84609760006101000a81548173ffffffffffffffffffffffffffffffffffffffff021916908373ffffffffffffffffffffffffffffffffffffffff1602179055508160ff1660018111156108b2576108b1612667565b5b609760146101000a81548160ff021916908360018111156108d6576108d5612667565b5b021790555080156108fc5760008060016101000a81548160ff0219169083151502179055505b505050505050565b60008073ffffffffffffffffffffffffffffffffffffffff168273ffffffffffffffffffffffffffffffffffffffff161415610975576040517f08c379a000000000000000000000000000000000000000000000000000000000815260040161096c906121a9565b60405180910390fd5b606860008373ffffffffffffffffffffffffffffffffffffffff1673ffffffffffffffffffffffffffffffffffffffff168152602001908152602001600020549050919050565b6060606680546109cb9061252c565b80601f01602080910402602001604051908101604052809291908181526020018280546109f79061252c565b8015610a445780601f10610a1957610100808354040283529160200191610a44565b820191906000526020600020905b815481529060010190602001808311610a2757829003601f168201915b5050505050905090565b610a60610a59610cd7565b8383611276565b5050565b610a75610a6f610cd7565b83610d98565b610ab4576040517f08c379a0000000000000000000000000000000000000000000000000000000008152600401610aab90612289565b60405180910390fd5b610ac0848484846113e3565b50505050565b6060610ad182610c6b565b610b10576040517f08c379a0000000000000000000000000000000000000000000000000000000008152600401610b0790612249565b60405180910390fd5b6000610b1a61143f565b90506000815111610b3a5760405180602001604052806000815250610b65565b80610b4484611456565b604051602001610b55929190612041565b6040516020818303038152906040525b915050919050565b6000606a60008473ffffffffffffffffffffffffffffffffffffffff1673ffffffffffffffffffffffffffffffffffffffff16815260200190815260200160002060008373ffffffffffffffffffffffffffffffffffffffff1673ffffffffffffffffffffffffffffffffffffffff16815260200190815260200160002060009054906101000a900460ff16905092915050565b60007f01ffc9a7000000000000000000000000000000000000000000000000000000007bffffffffffffffffffffffffffffffffffffffffffffffffffffffff1916827bffffffffffffffffffffffffffffffffffffffffffffffffffffffff1916149050919050565b60008073ffffffffffffffffffffffffffffffffffffffff166067600084815260200190815260200160002060009054906101000a900473ffffffffffffffffffffffffffffffffffffffff1673ffffffffffffffffffffffffffffffffffffffff1614159050919050565b600033905090565b816069600083815260200190815260200160002060006101000a81548173ffffffffffffffffffffffffffffffffffffffff021916908373ffffffffffffffffffffffffffffffffffffffff160217905550808273ffffffffffffffffffffffffffffffffffffffff16610d52836106d6565b73ffffffffffffffffffffffffffffffffffffffff167f8c5be1e5ebec7d5bd14f71427d1e84f3dd0314c0f7b2291e5b200ac8c7c3b92560405160405180910390a45050565b6000610da382610c6b565b610de2576040517f08c379a0000000000000000000000000000000000000000000000000000000008152600401610dd990612169565b60405180910390fd5b6000610ded836106d6565b90508073ffffffffffffffffffffffffffffffffffffffff168473ffffffffffffffffffffffffffffffffffffffff161480610e5c57508373ffffffffffffffffffffffffffffffffffffffff16610e4484610490565b73ffffffffffffffffffffffffffffffffffffffff16145b80610e6d5750610e6c8185610b6d565b5b91505092915050565b8273ffffffffffffffffffffffffffffffffffffffff16610e96826106d6565b73ffffffffffffffffffffffffffffffffffffffff1614610eec576040517f08c379a0000000000000000000000000000000000000000000000000000000008152600401610ee390612229565b60405180910390fd5b600073ffffffffffffffffffffffffffffffffffffffff168273ffffffffffffffffffffffffffffffffffffffff161415610f5c576040517f08c379a0000000000000000000000000000000000000000000000000000000008152600401610f5390612129565b60405180910390fd5b610f678383836115b7565b610f72600082610cdf565b6001606860008573ffffffffffffffffffffffffffffffffffffffff1673ffffffffffffffffffffffffffffffffffffffff1681526020019081526020016000206000828254610fc29190612435565b925050819055506001606860008473ffffffffffffffffffffffffffffffffffffffff1673ffffffffffffffffffffffffffffffffffffffff168152602001908152602001600020600082825461101991906123ae565b92505081905550816067600083815260200190815260200160002060006101000a81548173ffffffffffffffffffffffffffffffffffffffff021916908373ffffffffffffffffffffffffffffffffffffffff160217905550808273ffffffffffffffffffffffffffffffffffffffff168473ffffffffffffffffffffffffffffffffffffffff167fddf252ad1be2c89b69c2b068fc378daa952ba7f163c4a11628f55a4df523b3ef60405160405180910390a4505050565b60006110dd306115bc565b15905090565b600060019054906101000a900460ff1661110b5760008054906101000a900460ff1615611114565b6111136110d2565b5b611153576040517f08c379a000000000000000000000000000000000000000000000000000000000815260040161114a906121e9565b60405180910390fd5b60008060019054906101000a900460ff1615905080156111a3576001600060016101000a81548160ff02191690831515021790555060016000806101000a81548160ff0219169083151502179055505b81600060026101000a81548173ffffffffffffffffffffffffffffffffffffffff021916908373ffffffffffffffffffffffffffffffffffffffff16021790555080156112055760008060016101000a81548160ff0219169083151502179055505b5050565b600060019054906101000a900460ff16611258576040517f08c379a000000000000000000000000000000000000000000000000000000000815260040161124f906122a9565b60405180910390fd5b6112606115cf565b611268611620565b6112728282611671565b5050565b8173ffffffffffffffffffffffffffffffffffffffff168373ffffffffffffffffffffffffffffffffffffffff1614156112e5576040517f08c379a00000000000000000000000000000000000000000000000000000000081526004016112dc90612149565b60405180910390fd5b80606a60008573ffffffffffffffffffffffffffffffffffffffff1673ffffffffffffffffffffffffffffffffffffffff16815260200190815260200160002060008473ffffffffffffffffffffffffffffffffffffffff1673ffffffffffffffffffffffffffffffffffffffff16815260200190815260200160002060006101000a81548160ff0219169083151502179055508173ffffffffffffffffffffffffffffffffffffffff168373ffffffffffffffffffffffffffffffffffffffff167f17307eab39ab6107e8899845ad3d59bd9653f200f220920489ca2b5937696c31836040516113d691906120cc565b60405180910390a3505050565b6113ee848484610e76565b6113fa848484846116f2565b611439576040517f08c379a000000000000000000000000000000000000000000000000000000000815260040161143090612109565b60405180910390fd5b50505050565b606060405180602001604052806000815250905090565b6060600082141561149e576040518060400160405280600181526020017f300000000000000000000000000000000000000000000000000000000000000081525090506115b2565b600082905060005b600082146114d05780806114b99061258f565b915050600a826114c99190612404565b91506114a6565b60008167ffffffffffffffff8111156114ec576114eb6126f4565b5b6040519080825280601f01601f19166020018201604052801561151e5781602001600182028036833780820191505090505b5090505b600085146115ab576001826115379190612435565b9150600a8561154691906125d8565b603061155291906123ae565b60f81b818381518110611568576115676126c5565b5b60200101907effffffffffffffffffffffffffffffffffffffffffffffffffffffffffffff1916908160001a905350600a856115a49190612404565b9450611522565b8093505050505b919050565b505050565b600080823b905060008111915050919050565b600060019054906101000a900460ff1661161e576040517f08c379a0000000000000000000000000000000000000000000000000000000008152600401611615906122a9565b60405180910390fd5b565b600060019054906101000a900460ff1661166f576040517f08c379a0000000000000000000000000000000000000000000000000000000008152600401611666906122a9565b60405180910390fd5b565b600060019054906101000a900460ff166116c0576040517f08c379a00000000000000000000000000000000000000000000000000000000081526004016116b7906122a9565b60405180910390fd5b81606590805190602001906116d6929190611889565b5080606690805190602001906116ed929190611889565b505050565b60006117138473ffffffffffffffffffffffffffffffffffffffff166115bc565b1561187c578373ffffffffffffffffffffffffffffffffffffffff1663150b7a0261173c610cd7565b8786866040518563ffffffff1660e01b815260040161175e9493929190612080565b602060405180830381600087803b15801561177857600080fd5b505af19250505080156117a957506040513d601f19601f820116820180604052508101906117a69190611d2d565b60015b61182c573d80600081146117d9576040519150601f19603f3d011682016040523d82523d6000602084013e6117de565b606091505b50600081511415611824576040517f08c379a000000000000000000000000000000000000000000000000000000000815260040161181b90612109565b60405180910390fd5b805181602001fd5b63150b7a0260e01b7bffffffffffffffffffffffffffffffffffffffffffffffffffffffff1916817bffffffffffffffffffffffffffffffffffffffffffffffffffffffff191614915050611881565b600190505b949350505050565b8280546118959061252c565b90600052602060002090601f0160209004810192826118b757600085556118fe565b82601f106118d057805160ff19168380011785556118fe565b828001600101855582156118fe579182015b828111156118fd5782518255916020019190600101906118e2565b5b50905061190b919061190f565b5090565b5b80821115611928576000816000905550600101611910565b5090565b600061193f61193a84612309565b6122e4565b90508281526020810184848401111561195b5761195a612728565b5b6119668482856124ea565b509392505050565b600061198161197c8461233a565b6122e4565b90508281526020810184848401111561199d5761199c612728565b5b6119a88482856124ea565b509392505050565b6000813590506119bf81612b74565b92915050565b6000813590506119d481612b8b565b92915050565b6000813590506119e981612ba2565b92915050565b6000815190506119fe81612ba2565b92915050565b600082601f830112611a1957611a18612723565b5b8135611a2984826020860161192c565b91505092915050565b600082601f830112611a4757611a46612723565b5b8135611a5784826020860161196e565b91505092915050565b600081359050611a6f81612bb9565b92915050565b600081359050611a8481612bd0565b92915050565b600060208284031215611aa057611a9f612732565b5b6000611aae848285016119b0565b91505092915050565b60008060408385031215611ace57611acd612732565b5b6000611adc858286016119b0565b9250506020611aed858286016119b0565b9150509250929050565b600080600080600060a08688031215611b1357611b12612732565b5b6000611b21888289016119b0565b9550506020611b32888289016119b0565b945050604086013567ffffffffffffffff811115611b5357611b5261272d565b5b611b5f88828901611a32565b935050606086013567ffffffffffffffff811115611b8057611b7f61272d565b5b611b8c88828901611a32565b9250506080611b9d88828901611a75565b9150509295509295909350565b600080600060608486031215611bc357611bc2612732565b5b6000611bd1868287016119b0565b9350506020611be2868287016119b0565b9250506040611bf386828701611a60565b9150509250925092565b60008060008060808587031215611c1757611c16612732565b5b6000611c25878288016119b0565b9450506020611c36878288016119b0565b9350506040611c4787828801611a60565b925050606085013567ffffffffffffffff811115611c6857611c6761272d565b5b611c7487828801611a04565b91505092959194509250565b60008060408385031215611c9757611c96612732565b5b6000611ca5858286016119b0565b9250506020611cb6858286016119c5565b9150509250929050565b60008060408385031215611cd757611cd6612732565b5b6000611ce5858286016119b0565b9250506020611cf685828601611a60565b9150509250929050565b600060208284031215611d1657611d15612732565b5b6000611d24848285016119da565b91505092915050565b600060208284031215611d4357611d42612732565b5b6000611d51848285016119ef565b91505092915050565b600060208284031215611d7057611d6f612732565b5b6000611d7e84828501611a60565b91505092915050565b611d9081612469565b82525050565b611d9f8161247b565b82525050565b6000611db08261236b565b611dba8185612381565b9350611dca8185602086016124f9565b611dd381612737565b840191505092915050565b6000611de982612376565b611df38185612392565b9350611e038185602086016124f9565b611e0c81612737565b840191505092915050565b6000611e2282612376565b611e2c81856123a3565b9350611e3c8185602086016124f9565b80840191505092915050565b6000611e55603283612392565b9150611e6082612748565b604082019050919050565b6000611e78602483612392565b9150611e8382612797565b604082019050919050565b6000611e9b601983612392565b9150611ea6826127e6565b602082019050919050565b6000611ebe602c83612392565b9150611ec98261280f565b604082019050919050565b6000611ee1603883612392565b9150611eec8261285e565b604082019050919050565b6000611f04602a83612392565b9150611f0f826128ad565b604082019050919050565b6000611f27602983612392565b9150611f32826128fc565b604082019050919050565b6000611f4a602e83612392565b9150611f558261294b565b604082019050919050565b6000611f6d602c83612392565b9150611f788261299a565b604082019050919050565b6000611f90602983612392565b9150611f9b826129e9565b604082019050919050565b6000611fb3602f83612392565b9150611fbe82612a38565b604082019050919050565b6000611fd6602183612392565b9150611fe182612a87565b604082019050919050565b6000611ff9603183612392565b915061200482612ad6565b604082019050919050565b600061201c602b83612392565b915061202782612b25565b604082019050919050565b61203b816124d3565b82525050565b600061204d8285611e17565b91506120598284611e17565b91508190509392505050565b600060208201905061207a6000830184611d87565b92915050565b60006080820190506120956000830187611d87565b6120a26020830186611d87565b6120af6040830185612032565b81810360608301526120c18184611da5565b905095945050505050565b60006020820190506120e16000830184611d96565b92915050565b600060208201905081810360008301526121018184611dde565b905092915050565b6000602082019050818103600083015261212281611e48565b9050919050565b6000602082019050818103600083015261214281611e6b565b9050919050565b6000602082019050818103600083015261216281611e8e565b9050919050565b6000602082019050818103600083015261218281611eb1565b9050919050565b600060208201905081810360008301526121a281611ed4565b9050919050565b600060208201905081810360008301526121c281611ef7565b9050919050565b600060208201905081810360008301526121e281611f1a565b9050919050565b6000602082019050818103600083015261220281611f3d565b9050919050565b6000602082019050818103600083015261222281611f60565b9050919050565b6000602082019050818103600083015261224281611f83565b9050919050565b6000602082019050818103600083015261226281611fa6565b9050919050565b6000602082019050818103600083015261228281611fc9565b9050919050565b600060208201905081810360008301526122a281611fec565b9050919050565b600060208201905081810360008301526122c28161200f565b9050919050565b60006020820190506122de6000830184612032565b92915050565b60006122ee6122ff565b90506122fa828261255e565b919050565b6000604051905090565b600067ffffffffffffffff821115612324576123236126f4565b5b61232d82612737565b9050602081019050919050565b600067ffffffffffffffff821115612355576123546126f4565b5b61235e82612737565b9050602081019050919050565b600081519050919050565b600081519050919050565b600082825260208201905092915050565b600082825260208201905092915050565b600081905092915050565b60006123b9826124d3565b91506123c4836124d3565b9250827fffffffffffffffffffffffffffffffffffffffffffffffffffffffffffffffff038211156123f9576123f8612609565b5b828201905092915050565b600061240f826124d3565b915061241a836124d3565b92508261242a57612429612638565b5b828204905092915050565b6000612440826124d3565b915061244b836124d3565b92508282101561245e5761245d612609565b5b828203905092915050565b6000612474826124b3565b9050919050565b60008115159050919050565b60007fffffffff0000000000000000000000000000000000000000000000000000000082169050919050565b600073ffffffffffffffffffffffffffffffffffffffff82169050919050565b6000819050919050565b600060ff82169050919050565b82818337600083830152505050565b60005b838110156125175780820151818401526020810190506124fc565b83811115612526576000848401525b50505050565b6000600282049050600182168061254457607f821691505b6020821081141561255857612557612696565b5b50919050565b61256782612737565b810181811067ffffffffffffffff82111715612586576125856126f4565b5b80604052505050565b600061259a826124d3565b91507fffffffffffffffffffffffffffffffffffffffffffffffffffffffffffffffff8214156125cd576125cc612609565b5b600182019050919050565b60006125e3826124d3565b91506125ee836124d3565b9250826125fe576125fd612638565b5b828206905092915050565b7f4e487b7100000000000000000000000000000000000000000000000000000000600052601160045260246000fd5b7f4e487b7100000000000000000000000000000000000000000000000000000000600052601260045260246000fd5b7f4e487b7100000000000000000000000000000000000000000000000000000000600052602160045260246000fd5b7f4e487b7100000000000000000000000000000000000000000000000000000000600052602260045260246000fd5b7f4e487b7100000000000000000000000000000000000000000000000000000000600052603260045260246000fd5b7f4e487b7100000000000000000000000000000000000000000000000000000000600052604160045260246000fd5b600080fd5b600080fd5b600080fd5b600080fd5b6000601f19601f8301169050919050565b7f4552433732313a207472616e7366657220746f206e6f6e20455243373231526560008201527f63656976657220696d706c656d656e7465720000000000000000000000000000602082015250565b7f4552433732313a207472616e7366657220746f20746865207a65726f2061646460008201527f7265737300000000000000000000000000000000000000000000000000000000602082015250565b7f4552433732313a20617070726f766520746f2063616c6c657200000000000000600082015250565b7f4552433732313a206f70657261746f7220717565727920666f72206e6f6e657860008201527f697374656e7420746f6b656e0000000000000000000000000000000000000000602082015250565b7f4552433732313a20617070726f76652063616c6c6572206973206e6f74206f7760008201527f6e6572206e6f7220617070726f76656420666f7220616c6c0000000000000000602082015250565b7f4552433732313a2062616c616e636520717565727920666f7220746865207a6560008201527f726f206164647265737300000000000000000000000000000000000000000000602082015250565b7f4552433732313a206f776e657220717565727920666f72206e6f6e657869737460008201527f656e7420746f6b656e0000000000000000000000000000000000000000000000602082015250565b7f496e697469616c697a61626c653a20636f6e747261637420697320616c72656160008201527f647920696e697469616c697a6564000000000000000000000000000000000000602082015250565b7f4552433732313a20617070726f76656420717565727920666f72206e6f6e657860008201527f697374656e7420746f6b656e0000000000000000000000000000000000000000602082015250565b7f4552433732313a207472616e73666572206f6620746f6b656e2074686174206960008201527f73206e6f74206f776e0000000000000000000000000000000000000000000000602082015250565b7f4552433732314d657461646174613a2055524920717565727920666f72206e6f60008201527f6e6578697374656e7420746f6b656e0000000000000000000000000000000000602082015250565b7f4552433732313a20617070726f76616c20746f2063757272656e74206f776e6560008201527f7200000000000000000000000000000000000000000000000000000000000000602082015250565b7f4552433732313a207472616e736665722063616c6c6572206973206e6f74206f60008201527f776e6572206e6f7220617070726f766564000000000000000000000000000000602082015250565b7f496e697469616c697a61626c653a20636f6e7472616374206973206e6f74206960008201527f6e697469616c697a696e67000000000000000000000000000000000000000000602082015250565b612b7d81612469565b8114612b8857600080fd5b50565b612b948161247b565b8114612b9f57600080fd5b50565b612bab81612487565b8114612bb657600080fd5b50565b612bc2816124d3565b8114612bcd57600080fd5b50565b612bd9816124dd565b8114612be457600080fd5b5056fea26469706673582212200d23e58df27da24227821ec6418b6059495eab8c7d3ea10d17c79377091c28af64736f6c63430008070033",
  "immutableReferences": {},
  "source": "// SPDX-License-Identifier: GPL-3.0\r\n\r\npragma solidity 0.8.7;\r\n\r\n/**\r\n Certis Token is an ERC20 Token that grants its holder the right to:\r\n   - Vote on all the systems propositions (changing system configuraiton etc...)\r\n   - Receive Dividends for all the payments forwarded to the Treasury contract\r\n\r\nBefore every token transfer we contact the token gouvernance Base contracts so that the can update the tokens used for voting if needed\r\n\r\n */\r\n\r\nimport \"@openzeppelin/contracts-upgradeable/token/ERC721/ERC721Upgradeable.sol\";\r\nimport \"@openzeppelin/contracts-upgradeable/proxy/utils/Initializable.sol\";\r\nimport \"../Base/ManagedBaseContract.sol\";\r\nimport \"../Libraries/Library.sol\";\r\n\r\n\r\n contract NFTMarket is  Initializable, ManagedBaseContract, ERC721Upgradeable {\r\n    using Library for *;\r\n\r\n  // EVENTS /////////////////////////////////////////\r\n  \r\n\r\n  // DATA /////////////////////////////////////////\r\n  address _owner;\r\n  Library.PaymentPlans _paymentPlan;\r\n\r\n  // MODIFIERS /////////////////////////////////////////\r\n  \r\n\r\n  // CONSTRUCTOR /////////////////////////////////////////\r\n  function NFTMarket_init(address managerContractAddress, address owner, string memory name, string memory symbol, uint8 paymentPlan) public initializer {\r\n      super.ManagedBaseContract_init(managerContractAddress); \r\n      super.__ERC721_init(name, symbol); \r\n\r\n      _owner = owner;\r\n      _paymentPlan = Library.PaymentPlans(paymentPlan);\r\n  }\r\n\r\n  // FUNCTIONALITY /////////////////////////////////////////\r\n }",
  "sourcePath": "C:\\Users\\d-aam\\GitHub\\Originals\\contracts\\MainContracts\\NFTMarket.sol",
  "compiler": {
    "name": "solc",
    "version": "0.8.7+commit.e28d00a7.Emscripten.clang"
  },
  "schemaVersion": "3.4.3",
  "updatedAt": "2022-01-24T13:10:41.939Z",
  "devdoc": {
    "kind": "dev",
    "methods": {
      "approve(address,uint256)": {
        "details": "See {IERC721-approve}."
      },
      "balanceOf(address)": {
        "details": "See {IERC721-balanceOf}."
      },
      "getApproved(uint256)": {
        "details": "See {IERC721-getApproved}."
      },
      "isApprovedForAll(address,address)": {
        "details": "See {IERC721-isApprovedForAll}."
      },
      "name()": {
        "details": "See {IERC721Metadata-name}."
      },
      "ownerOf(uint256)": {
        "details": "See {IERC721-ownerOf}."
      },
      "safeTransferFrom(address,address,uint256)": {
        "details": "See {IERC721-safeTransferFrom}."
      },
      "safeTransferFrom(address,address,uint256,bytes)": {
        "details": "See {IERC721-safeTransferFrom}."
      },
      "setApprovalForAll(address,bool)": {
        "details": "See {IERC721-setApprovalForAll}."
      },
      "supportsInterface(bytes4)": {
        "details": "See {IERC165-supportsInterface}."
      },
      "symbol()": {
        "details": "See {IERC721Metadata-symbol}."
      },
      "tokenURI(uint256)": {
        "details": "See {IERC721Metadata-tokenURI}."
      },
      "transferFrom(address,address,uint256)": {
        "details": "See {IERC721-transferFrom}."
      }
    },
    "version": 1
  },
  "userdoc": {
    "kind": "user",
    "methods": {},
    "version": 1
  }
}