{
  "contractName": "NFTMarket",
  "abi": [
    {
      "anonymous": false,
      "inputs": [
        {
          "indexed": true,
          "internalType": "address",
          "name": "owner",
          "type": "address"
        },
        {
          "indexed": true,
          "internalType": "address",
          "name": "approved",
          "type": "address"
        },
        {
          "indexed": true,
          "internalType": "uint256",
          "name": "tokenId",
          "type": "uint256"
        }
      ],
      "name": "Approval",
      "type": "event"
    },
    {
      "anonymous": false,
      "inputs": [
        {
          "indexed": true,
          "internalType": "address",
          "name": "owner",
          "type": "address"
        },
        {
          "indexed": true,
          "internalType": "address",
          "name": "operator",
          "type": "address"
        },
        {
          "indexed": false,
          "internalType": "bool",
          "name": "approved",
          "type": "bool"
        }
      ],
      "name": "ApprovalForAll",
      "type": "event"
    },
    {
      "anonymous": false,
      "inputs": [
        {
          "indexed": true,
          "internalType": "address",
          "name": "from",
          "type": "address"
        },
        {
          "indexed": true,
          "internalType": "address",
          "name": "to",
          "type": "address"
        },
        {
          "indexed": true,
          "internalType": "uint256",
          "name": "tokenId",
          "type": "uint256"
        }
      ],
      "name": "Transfer",
      "type": "event"
    },
    {
      "inputs": [
        {
          "internalType": "address",
          "name": "to",
          "type": "address"
        },
        {
          "internalType": "uint256",
          "name": "tokenId",
          "type": "uint256"
        }
      ],
      "name": "approve",
      "outputs": [],
      "stateMutability": "nonpayable",
      "type": "function"
    },
    {
      "inputs": [
        {
          "internalType": "address",
          "name": "owner",
          "type": "address"
        }
      ],
      "name": "balanceOf",
      "outputs": [
        {
          "internalType": "uint256",
          "name": "",
          "type": "uint256"
        }
      ],
      "stateMutability": "view",
      "type": "function"
    },
    {
      "inputs": [
        {
          "internalType": "uint256",
          "name": "tokenId",
          "type": "uint256"
        }
      ],
      "name": "getApproved",
      "outputs": [
        {
          "internalType": "address",
          "name": "",
          "type": "address"
        }
      ],
      "stateMutability": "view",
      "type": "function"
    },
    {
      "inputs": [
        {
          "internalType": "address",
          "name": "owner",
          "type": "address"
        },
        {
          "internalType": "address",
          "name": "operator",
          "type": "address"
        }
      ],
      "name": "isApprovedForAll",
      "outputs": [
        {
          "internalType": "bool",
          "name": "",
          "type": "bool"
        }
      ],
      "stateMutability": "view",
      "type": "function"
    },
    {
      "inputs": [],
      "name": "name",
      "outputs": [
        {
          "internalType": "string",
          "name": "",
          "type": "string"
        }
      ],
      "stateMutability": "view",
      "type": "function"
    },
    {
      "inputs": [
        {
          "internalType": "uint256",
          "name": "tokenId",
          "type": "uint256"
        }
      ],
      "name": "ownerOf",
      "outputs": [
        {
          "internalType": "address",
          "name": "",
          "type": "address"
        }
      ],
      "stateMutability": "view",
      "type": "function"
    },
    {
      "inputs": [],
      "name": "retrieveManagerContract",
      "outputs": [
        {
          "internalType": "address",
          "name": "",
          "type": "address"
        }
      ],
      "stateMutability": "view",
      "type": "function"
    },
    {
      "inputs": [
        {
          "internalType": "address",
          "name": "from",
          "type": "address"
        },
        {
          "internalType": "address",
          "name": "to",
          "type": "address"
        },
        {
          "internalType": "uint256",
          "name": "tokenId",
          "type": "uint256"
        }
      ],
      "name": "safeTransferFrom",
      "outputs": [],
      "stateMutability": "nonpayable",
      "type": "function"
    },
    {
      "inputs": [
        {
          "internalType": "address",
          "name": "from",
          "type": "address"
        },
        {
          "internalType": "address",
          "name": "to",
          "type": "address"
        },
        {
          "internalType": "uint256",
          "name": "tokenId",
          "type": "uint256"
        },
        {
          "internalType": "bytes",
          "name": "_data",
          "type": "bytes"
        }
      ],
      "name": "safeTransferFrom",
      "outputs": [],
      "stateMutability": "nonpayable",
      "type": "function"
    },
    {
      "inputs": [
        {
          "internalType": "address",
          "name": "operator",
          "type": "address"
        },
        {
          "internalType": "bool",
          "name": "approved",
          "type": "bool"
        }
      ],
      "name": "setApprovalForAll",
      "outputs": [],
      "stateMutability": "nonpayable",
      "type": "function"
    },
    {
      "inputs": [
        {
          "internalType": "bytes4",
          "name": "interfaceId",
          "type": "bytes4"
        }
      ],
      "name": "supportsInterface",
      "outputs": [
        {
          "internalType": "bool",
          "name": "",
          "type": "bool"
        }
      ],
      "stateMutability": "view",
      "type": "function"
    },
    {
      "inputs": [],
      "name": "symbol",
      "outputs": [
        {
          "internalType": "string",
          "name": "",
          "type": "string"
        }
      ],
      "stateMutability": "view",
      "type": "function"
    },
    {
      "inputs": [
        {
          "internalType": "uint256",
          "name": "tokenId",
          "type": "uint256"
        }
      ],
      "name": "tokenURI",
      "outputs": [
        {
          "internalType": "string",
          "name": "",
          "type": "string"
        }
      ],
      "stateMutability": "view",
      "type": "function"
    },
    {
      "inputs": [
        {
          "internalType": "address",
          "name": "from",
          "type": "address"
        },
        {
          "internalType": "address",
          "name": "to",
          "type": "address"
        },
        {
          "internalType": "uint256",
          "name": "tokenId",
          "type": "uint256"
        }
      ],
      "name": "transferFrom",
      "outputs": [],
      "stateMutability": "nonpayable",
      "type": "function"
    },
    {
      "inputs": [
        {
          "internalType": "address",
          "name": "managerContractAddress",
          "type": "address"
        },
        {
          "internalType": "address",
          "name": "owner",
          "type": "address"
        },
        {
          "internalType": "string",
          "name": "name",
          "type": "string"
        },
        {
          "internalType": "string",
          "name": "symbol",
          "type": "string"
        },
        {
          "internalType": "uint256",
          "name": "offersLifeTime",
          "type": "uint256"
        },
        {
          "internalType": "uint256",
          "name": "ownerTransferFeeAmount",
          "type": "uint256"
        },
        {
          "internalType": "uint256",
          "name": "ownerTransferFeeDecimals",
          "type": "uint256"
        },
        {
          "internalType": "uint256",
          "name": "issuerID",
          "type": "uint256"
        },
        {
          "internalType": "uint8",
          "name": "paymentPlan",
          "type": "uint8"
        }
      ],
      "name": "NFTMarket_init",
      "outputs": [],
      "stateMutability": "nonpayable",
      "type": "function"
    },
    {
      "inputs": [
        {
          "internalType": "address",
          "name": "newOwner",
          "type": "address"
        }
      ],
      "name": "changeOwner",
      "outputs": [],
      "stateMutability": "nonpayable",
      "type": "function"
    },
    {
      "inputs": [
        {
          "internalType": "enum Library.PaymentPlans",
          "name": "newPaymentPlan",
          "type": "uint8"
        }
      ],
      "name": "changePaymentPlan",
      "outputs": [],
      "stateMutability": "nonpayable",
      "type": "function"
    },
    {
      "inputs": [
        {
          "internalType": "uint256",
          "name": "newLifeTime",
          "type": "uint256"
        }
      ],
      "name": "changeOffersLifeTime",
      "outputs": [],
      "stateMutability": "nonpayable",
      "type": "function"
    },
    {
      "inputs": [
        {
          "internalType": "uint256",
          "name": "newAmount",
          "type": "uint256"
        },
        {
          "internalType": "uint256",
          "name": "newDecimals",
          "type": "uint256"
        }
      ],
      "name": "changeOwnerTransferFees",
      "outputs": [],
      "stateMutability": "nonpayable",
      "type": "function"
    },
    {
      "inputs": [
        {
          "internalType": "uint256",
          "name": "tokenId",
          "type": "uint256"
        },
        {
          "internalType": "address",
          "name": "receiver",
          "type": "address"
        },
        {
          "internalType": "uint256",
          "name": "price",
          "type": "uint256"
        }
      ],
      "name": "mintToken",
      "outputs": [],
      "stateMutability": "payable",
      "type": "function"
    },
    {
      "inputs": [
        {
          "internalType": "uint256",
          "name": "tokenId",
          "type": "uint256"
        },
        {
          "internalType": "uint256",
          "name": "price",
          "type": "uint256"
        }
      ],
      "name": "setTokenPrice",
      "outputs": [],
      "stateMutability": "nonpayable",
      "type": "function"
    },
    {
      "inputs": [
        {
          "internalType": "uint256",
          "name": "tokenId",
          "type": "uint256"
        }
      ],
      "name": "acceptOffer",
      "outputs": [],
      "stateMutability": "nonpayable",
      "type": "function"
    },
    {
      "inputs": [
        {
          "internalType": "uint256",
          "name": "tokenId",
          "type": "uint256"
        }
      ],
      "name": "rejectOffer",
      "outputs": [],
      "stateMutability": "nonpayable",
      "type": "function"
    },
    {
      "inputs": [
        {
          "internalType": "uint256",
          "name": "tokenId",
          "type": "uint256"
        },
        {
          "internalType": "address",
          "name": "bidder",
          "type": "address"
        }
      ],
      "name": "submitOffer",
      "outputs": [],
      "stateMutability": "payable",
      "type": "function"
    },
    {
      "inputs": [
        {
          "internalType": "uint256",
          "name": "tokenId",
          "type": "uint256"
        }
      ],
      "name": "withdrawOffer",
      "outputs": [],
      "stateMutability": "nonpayable",
      "type": "function"
    },
    {
      "inputs": [],
      "name": "withdraw",
      "outputs": [],
      "stateMutability": "nonpayable",
      "type": "function"
    },
    {
      "inputs": [],
      "name": "retrieveIssuer",
      "outputs": [
        {
          "components": [
            {
              "internalType": "address",
              "name": "_owner",
              "type": "address"
            },
            {
              "internalType": "string",
              "name": "_name",
              "type": "string"
            },
            {
              "internalType": "string",
              "name": "_symbol",
              "type": "string"
            },
            {
              "internalType": "uint256",
              "name": "_feeAmount",
              "type": "uint256"
            },
            {
              "internalType": "uint256",
              "name": "_feeDecimals",
              "type": "uint256"
            },
            {
              "internalType": "enum Library.PaymentPlans",
              "name": "_paymentPlan",
              "type": "uint8"
            }
          ],
          "internalType": "struct ItemsLibrary._issuerStruct",
          "name": "",
          "type": "tuple"
        },
        {
          "internalType": "uint256",
          "name": "",
          "type": "uint256"
        }
      ],
      "stateMutability": "view",
      "type": "function"
    },
    {
      "inputs": [
        {
          "internalType": "uint256",
          "name": "tokenId",
          "type": "uint256"
        }
      ],
      "name": "retrieveToken",
      "outputs": [
        {
          "components": [
            {
              "internalType": "enum Library.PaymentPlans",
              "name": "_paymentPlan",
              "type": "uint8"
            },
            {
              "internalType": "uint256",
              "name": "_price",
              "type": "uint256"
            }
          ],
          "internalType": "struct INFTMarket._tokenStruct",
          "name": "",
          "type": "tuple"
        },
        {
          "internalType": "address",
          "name": "",
          "type": "address"
        }
      ],
      "stateMutability": "view",
      "type": "function"
    },
    {
      "inputs": [
        {
          "internalType": "uint256",
          "name": "tokenId",
          "type": "uint256"
        }
      ],
      "name": "retrieveOffer",
      "outputs": [
        {
          "components": [
            {
              "internalType": "uint256",
              "name": "_offer",
              "type": "uint256"
            },
            {
              "internalType": "address",
              "name": "_sender",
              "type": "address"
            },
            {
              "internalType": "address",
              "name": "_bidder",
              "type": "address"
            },
            {
              "internalType": "uint256",
              "name": "_deadline",
              "type": "uint256"
            }
          ],
          "internalType": "struct INFTMarket._offerStruct",
          "name": "",
          "type": "tuple"
        }
      ],
      "stateMutability": "view",
      "type": "function"
    }
  ],
  "bytecode": "0x608060405234801561001057600080fd5b50613518806100206000396000f3fe6080604052600436106101525760003560e01c806301ffc9a71461015757806306fdde031461018c578063081812fc146101ae578063095ea7b3146101e657806323b872dd146102085780633ccfd60b1461022857806342842e0e1461023d5780635542f6801461025d5780635b362e841461028b5780636352211e146102af57806370a08231146102cf5780637811a5bf146102fd5780638610f0451461031057806388b10c751461033057806393f82e161461035057806395d89b411461037057806398a7541d146103855780639d16764f146103a5578063a22cb465146103c5578063a6f9dae1146103e5578063aa91855014610405578063b88d4fde14610425578063c815729d14610445578063c87b56dd14610465578063ca25f9e414610485578063cf0ba575146104a8578063e0ccfe8814610575578063e985e9c514610588578063eb685c47146105a8575b600080fd5b34801561016357600080fd5b50610177610172366004612d03565b6105c8565b60405190151581526020015b60405180910390f35b34801561019857600080fd5b506101a161061a565b6040516101839190612eb8565b3480156101ba57600080fd5b506101ce6101c9366004612d5e565b6106ac565b6040516001600160a01b039091168152602001610183565b3480156101f257600080fd5b50610206610201366004612ba7565b610739565b005b34801561021457600080fd5b50610206610223366004612ab4565b61084a565b34801561023457600080fd5b5061020661087c565b34801561024957600080fd5b50610206610258366004612ab4565b610889565b34801561026957600080fd5b5061027d610278366004612d5e565b6108a4565b6040516101839291906131a4565b34801561029757600080fd5b506000546201000090046001600160a01b03166101ce565b3480156102bb57600080fd5b506101ce6102ca366004612d5e565b61091d565b3480156102db57600080fd5b506102ef6102ea36600461299e565b610994565b604051908152602001610183565b61020661030b366004612db5565b610a1b565b34801561031c57600080fd5b5061020661032b366004612d5e565b610ea8565b34801561033c57600080fd5b5061020661034b366004612d5e565b610f95565b34801561035c57600080fd5b5061020661036b366004612d3d565b611026565b34801561037c57600080fd5b506101a1611080565b34801561039157600080fd5b506102066103a03660046129f4565b61108f565b3480156103b157600080fd5b506102066103c0366004612d5e565b6111f8565b3480156103d157600080fd5b506102066103e0366004612b74565b61122a565b3480156103f157600080fd5b5061020661040036600461299e565b611239565b34801561041157600080fd5b50610206610420366004612ddc565b611288565b34801561043157600080fd5b50610206610440366004612af5565b611330565b34801561045157600080fd5b50610206610460366004612d5e565b611362565b34801561047157600080fd5b506101a1610480366004612d5e565b611604565b34801561049157600080fd5b5061049a6116dc565b60405161018392919061311c565b3480156104b457600080fd5b506105346104c3366004612d5e565b6040805160808082018352600080835260208084018290528385018290526060938401829052948152609d8552839020835191820184528054825260018101546001600160a01b03908116958301959095526002810154909416928101929092526003909201549181019190915290565b60408051825181526020808401516001600160a01b039081169183019190915283830151169181019190915260609182015191810191909152608001610183565b610206610583366004612d90565b61175d565b34801561059457600080fd5b506101776105a33660046129bb565b6118b1565b3480156105b457600080fd5b506102066105c3366004612ddc565b6118df565b60006001600160e01b031982166380ac58cd60e01b14806105f957506001600160e01b03198216635b5e139f60e01b145b8061061457506301ffc9a760e01b6001600160e01b03198316145b92915050565b606060658054610629906133bc565b80601f0160208091040260200160405190810160405280929190818152602001828054610655906133bc565b80156106a25780601f10610677576101008083540402835291602001916106a2565b820191906000526020600020905b81548152906001019060200180831161068557829003601f168201915b5050505050905090565b60006106b78261191b565b61071d5760405162461bcd60e51b815260206004820152602c60248201527f4552433732313a20617070726f76656420717565727920666f72206e6f6e657860448201526b34b9ba32b73a103a37b5b2b760a11b60648201526084015b60405180910390fd5b506000908152606960205260409020546001600160a01b031690565b60006107448261091d565b9050806001600160a01b0316836001600160a01b031614156107b25760405162461bcd60e51b815260206004820152602160248201527f4552433732313a20617070726f76616c20746f2063757272656e74206f776e656044820152603960f91b6064820152608401610714565b336001600160a01b03821614806107ce57506107ce81336118b1565b61083b5760405162461bcd60e51b815260206004820152603860248201527f4552433732313a20617070726f76652063616c6c6572206973206e6f74206f776044820152771b995c881b9bdc88185c1c1c9bdd995908199bdc88185b1b60421b6064820152608401610714565b6108458383611938565b505050565b610855335b826119a6565b6108715760405162461bcd60e51b815260040161071490613033565b610845838383611a70565b610887336001611bfe565b565b61084583838360405180602001604052806000815250611330565b60408051808201909152600080825260208201526000828152609c602052604081206108cf8461091d565b6040805180820190915282548390829060ff1660018111156108f3576108f3613452565b600181111561090457610904613452565b8152602001600182015481525050915091509150915091565b6000818152606760205260408120546001600160a01b0316806106145760405162461bcd60e51b815260206004820152602960248201527f4552433732313a206f776e657220717565727920666f72206e6f6e657869737460448201526832b73a103a37b5b2b760b91b6064820152608401610714565b60006001600160a01b0382166109ff5760405162461bcd60e51b815260206004820152602a60248201527f4552433732313a2062616c616e636520717565727920666f7220746865207a65604482015269726f206164647265737360b01b6064820152608401610714565b506001600160a01b031660009081526068602052604090205490565b60975433906001600160a01b03168114610a475760405162461bcd60e51b815260040161071490612ecb565b6000609754600160a01b900460ff166001811115610a6757610a67613452565b1415610e535760008060029054906101000a90046001600160a01b03166001600160a01b031663e220ad956040518163ffffffff1660e01b815260040160006040518083038186803b158015610abc57600080fd5b505afa158015610ad0573d6000803e3d6000fd5b505050506040513d6000823e601f3d908101601f19168201604052610af89190810190612bd3565b600281518110610b0a57610b0a613468565b60200260200101516001600160a01b031663b049473f6040518163ffffffff1660e01b815260040160006040518083038186803b158015610b4a57600080fd5b505afa158015610b5e573d6000803e3d6000fd5b505050506040513d6000823e601f3d908101601f19168201604052610b869190810190612c78565b9050600081600281518110610b9d57610b9d613468565b6020026020010151905060008260036008811115610bbd57610bbd613452565b81518110610bcd57610bcd613468565b602002602001015190508082610be39190613243565b341015610c2c5760405162461bcd60e51b815260206004820152601760248201527609ad2dce8d2dcce408ccacae640dcdee840cadcdeeaced604b1b6044820152606401610714565b73__ItemsLibrary__________________________632ac0cb2383600060029054906101000a90046001600160a01b03166001600160a01b031663e220ad956040518163ffffffff1660e01b815260040160006040518083038186803b158015610c9557600080fd5b505afa158015610ca9573d6000803e3d6000fd5b505050506040513d6000823e601f3d908101601f19168201604052610cd19190810190612bd3565b600281518110610ce357610ce3613468565b60200260200101516040518363ffffffff1660e01b8152600401610d089291906131d9565b60006040518083038186803b158015610d2057600080fd5b505af4158015610d34573d6000803e3d6000fd5b5050505073__ItemsLibrary__________________________632ac0cb238334610d5e9190613379565b600060029054906101000a90046001600160a01b03166001600160a01b031663e220ad956040518163ffffffff1660e01b815260040160006040518083038186803b158015610dac57600080fd5b505afa158015610dc0573d6000803e3d6000fd5b505050506040513d6000823e601f3d908101601f19168201604052610de89190810190612bd3565b600581518110610dfa57610dfa613468565b60200260200101516040518363ffffffff1660e01b8152600401610e1f9291906131d9565b60006040518083038186803b158015610e3757600080fd5b505af4158015610e4b573d6000803e3d6000fd5b505050505050505b610e5d8385611d36565b6000848152609c6020526040902060018082018490556097548254600160a01b90910460ff16929160ff19909116908381811115610e9d57610e9d613452565b021790555050505050565b80600080828152609d60205260409020600301544211610eda5760405162461bcd60e51b815260040161071490612f61565b6000838152609d60205260409020600101546001600160a01b03163314610f595760405162461bcd60e51b815260206004820152602d60248201527f4f6e6c7920746865206f726967696e616c2073656e6465722063616e2077697460448201526c1a191c985dc81d1a1948189a59609a1b6064820152608401610714565b6000838152609d6020526040902060018101549054610f81916001600160a01b031690611d50565b610f8a83611dd8565b610845336001611bfe565b80610f9f3361084f565b610fbb5760405162461bcd60e51b815260040161071490612fe6565b8160016000828152609d6020526040902060030154421115610fef5760405162461bcd60e51b815260040161071490613084565b6000848152609d6020526040902060018101549054611017916001600160a01b031690611d50565b61102084611dd8565b50505050565b60975433906001600160a01b031681146110525760405162461bcd60e51b815260040161071490612ecb565b6097805483919060ff60a01b1916600160a01b83600181111561107757611077613452565b02179055505050565b606060668054610629906133bc565b600054610100900460ff166110aa5760005460ff16156110ae565b303b155b6110ca5760405162461bcd60e51b815260040161071490612f98565b600054610100900460ff161580156110ec576000805461ffff19166101011790555b60405163bdbff48760e01b815260048101869052602481018590528590859073__Library_______________________________9063bdbff4879060440160006040518083038186803b15801561114257600080fd5b505af4158015611156573d6000803e3d6000fd5b505050506111638c611e0f565b61116d8a8a611ea3565b609780546001600160a01b0319166001600160a01b038d1617905560ff8416600181111561119d5761119d613452565b6097805460ff60a01b1916600160a01b8360018111156111bf576111bf613452565b0217905550505060988690556099859055609a849055609b83905580156111ec576000805461ff00191690555b50505050505050505050565b60975433906001600160a01b031681146112245760405162461bcd60e51b815260040161071490612ecb565b50609855565b611235338383611ee4565b5050565b60975433906001600160a01b031681146112655760405162461bcd60e51b815260040161071490612ecb565b50609780546001600160a01b0319166001600160a01b0392909216919091179055565b60975433906001600160a01b031681146112b45760405162461bcd60e51b815260040161071490612ecb565b60405163bdbff48760e01b815260048101849052602481018390528390839073__Library_______________________________9063bdbff4879060440160006040518083038186803b15801561130a57600080fd5b505af415801561131e573d6000803e3d6000fd5b505050609995909555505050609a5550565b61133a33836119a6565b6113565760405162461bcd60e51b815260040161071490613033565b61102084848484611faf565b8061136c3361084f565b6113885760405162461bcd60e51b815260040161071490612fe6565b8160016000828152609d60205260409020600301544211156113bc5760405162461bcd60e51b815260040161071490613084565b6000806000806113cb88611fe2565b9350935093509350600082848684600a6113e591906132b2565b6113f090606461335a565b6113fa9190613379565b6114049190613379565b61140e9190613379565b9050600061141b8a61091d565b60008b8152609d602090815260408083206002015481519283019091529181529192506114559183916001600160a01b0316908d90611faf565b60008a8152609d602052604090205461146d8b611dd8565b61151e600060029054906101000a90046001600160a01b03166001600160a01b031663e220ad956040518163ffffffff1660e01b815260040160006040518083038186803b1580156114be57600080fd5b505afa1580156114d2573d6000803e3d6000fd5b505050506040513d6000823e601f3d908101601f191682016040526114fa9190810190612bd3565b60028151811061150c5761150c613468565b60200260200101518288876000612286565b6115cf600060029054906101000a90046001600160a01b03166001600160a01b031663e220ad956040518163ffffffff1660e01b815260040160006040518083038186803b15801561156f57600080fd5b505afa158015611583573d6000803e3d6000fd5b505050506040513d6000823e601f3d908101601f191682016040526115ab9190810190612bd3565b6005815181106115bd576115bd613468565b60200260200101518287876000612286565b6097546115e9906001600160a01b03168289876001612286565b6115f7828285876001612286565b5050505050505050505050565b606061160f8261191b565b6116735760405162461bcd60e51b815260206004820152602f60248201527f4552433732314d657461646174613a2055524920717565727920666f72206e6f60448201526e3732bc34b9ba32b73a103a37b5b2b760891b6064820152608401610714565b600061168a60408051602081019091526000815290565b905060008151116116aa57604051806020016040528060008152506116d5565b806116b4846123f8565b6040516020016116c5929190612e4c565b6040516020818303038152906040525b9392505050565b6116e4612829565b6040805160c081019091526097546001600160a01b031681526000906020810161170c61061a565b8152602001611719611080565b81526020016099548152602001609a548152602001609760149054906101000a900460ff16600181111561174f5761174f613452565b815250609854915091509091565b81600080828152609d6020526040902060030154421161178f5760405162461bcd60e51b815260040161071490612f61565b6000848152609c6020526040902060010154849034908110156118005760405162461bcd60e51b8152602060048201526024808201527f546865206f666665722069732062656c6f7720746865206d696e696d756d20706044820152637269636560e01b6064820152608401610714565b6000868152609d60205260409020600101546001600160a01b031615611848576000868152609d6020526040902060018101549054611848916001600160a01b031690611d50565b6000868152609d60205260409020348155600181018054336001600160a01b031991821617909155600290910180549091166001600160a01b0387161790556098546118949042613243565b6000968752609d6020526040909620600301959095555050505050565b6001600160a01b039182166000908152606a6020908152604080832093909416825291909152205460ff1690565b816118e93361084f565b6119055760405162461bcd60e51b815260040161071490612fe6565b506000918252609c602052604090912060010155565b6000908152606760205260409020546001600160a01b0316151590565b600081815260696020526040902080546001600160a01b0319166001600160a01b038416908117909155819061196d8261091d565b6001600160a01b03167f8c5be1e5ebec7d5bd14f71427d1e84f3dd0314c0f7b2291e5b200ac8c7c3b92560405160405180910390a45050565b60006119b18261191b565b611a125760405162461bcd60e51b815260206004820152602c60248201527f4552433732313a206f70657261746f7220717565727920666f72206e6f6e657860448201526b34b9ba32b73a103a37b5b2b760a11b6064820152608401610714565b6000611a1d8361091d565b9050806001600160a01b0316846001600160a01b03161480611a585750836001600160a01b0316611a4d846106ac565b6001600160a01b0316145b80611a685750611a6881856118b1565b949350505050565b826001600160a01b0316611a838261091d565b6001600160a01b031614611aeb5760405162461bcd60e51b815260206004820152602960248201527f4552433732313a207472616e73666572206f6620746f6b656e2074686174206960448201526839903737ba1037bbb760b91b6064820152608401610714565b6001600160a01b038216611b4d5760405162461bcd60e51b8152602060048201526024808201527f4552433732313a207472616e7366657220746f20746865207a65726f206164646044820152637265737360e01b6064820152608401610714565b611b58600082611938565b6001600160a01b0383166000908152606860205260408120805460019290611b81908490613379565b90915550506001600160a01b0382166000908152606860205260408120805460019290611baf908490613243565b909155505060008181526067602052604080822080546001600160a01b0319166001600160a01b0386811691821790925591518493918716916000805160206134c383398151915291a4505050565b6001600160a01b0382166000908152609e602052604080822090516326162dc360e01b8152600481019190915273__ItemsLibrary__________________________906326162dc39060240160206040518083038186803b158015611c6257600080fd5b505af4158015611c76573d6000803e3d6000fd5b505050506040513d601f19601f82011682018060405250810190611c9a9190612d77565b6001600160a01b0384166000818152609e6020526040908190209051637e9f902d60e11b81526004810191909152602481018390526044810191909152831515606482015290915073__ItemsLibrary__________________________9063fd3f205a9060840160006040518083038186803b158015611d1957600080fd5b505af4158015611d2d573d6000803e3d6000fd5b50505050505050565b6112358282604051806020016040528060008152506124f5565b6001600160a01b0382166000908152609e6020526040908190209051633833532760e01b815273__ItemsLibrary__________________________91633833532791611da491908590600190600401613106565b60006040518083038186803b158015611dbc57600080fd5b505af4158015611dd0573d6000803e3d6000fd5b505050505050565b6000908152609d602052604081208181556001810180546001600160a01b0319908116909155600282018054909116905560030155565b600054610100900460ff16611e2a5760005460ff1615611e2e565b303b155b611e4a5760405162461bcd60e51b815260040161071490612f98565b600054610100900460ff16158015611e6c576000805461ffff19166101011790555b6000805462010000600160b01b031916620100006001600160a01b038516021790558015611235576000805461ff00191690555050565b600054610100900460ff16611eca5760405162461bcd60e51b8152600401610714906130bb565b611ed2612528565b611eda612528565b611235828261254f565b816001600160a01b0316836001600160a01b03161415611f425760405162461bcd60e51b815260206004820152601960248201527822a9219b99189d1030b8383937bb32903a379031b0b63632b960391b6044820152606401610714565b6001600160a01b038381166000818152606a6020908152604080832094871680845294825291829020805460ff191686151590811790915591519182527f17307eab39ab6107e8899845ad3d59bd9653f200f220920489ca2b5937696c31910160405180910390a3505050565b611fba848484611a70565b611fc68484848461259d565b6110205760405162461bcd60e51b815260040161071490612f0f565b609954609a546000838152609c602052604081205490928392839283929190839081908190819060ff16600181111561201d5761201d613452565b600114156121e95760008060029054906101000a90046001600160a01b03166001600160a01b031663e220ad956040518163ffffffff1660e01b815260040160006040518083038186803b15801561207457600080fd5b505afa158015612088573d6000803e3d6000fd5b505050506040513d6000823e601f3d908101601f191682016040526120b09190810190612bd3565b6002815181106120c2576120c2613468565b60200260200101516001600160a01b031663b049473f6040518163ffffffff1660e01b815260040160006040518083038186803b15801561210257600080fd5b505afa158015612116573d6000803e3d6000fd5b505050506040513d6000823e601f3d908101601f1916820160405261213e9190810190612c78565b90508060048151811061215357612153613468565b60200260200101519450806005600881111561217157612171613452565b8151811061218157612181613468565b60200260200101519350806006600881111561219f5761219f613452565b815181106121af576121af613468565b6020026020010151925080600760088111156121cd576121cd613452565b815181106121dd576121dd613468565b60200260200101519150505b600061220e6040518060600160405280888152602001868152602001848152506126aa565b905061221a8682613379565b61222590600a6132b2565b61222f908861335a565b965061223b8482613379565b61224690600a6132b2565b612250908661335a565b945061225c8282613379565b61226790600a6132b2565b612271908461335a565b969c949b509599509497509195505050505050565b6000612292848661335a565b905060006122a184600a6132b2565b6122ac90606461335a565b905060006122ba828461325b565b905060006122c8838361335a565b6122d29085613379565b6001600160a01b038a166000908152609e6020526040908190209051633833532760e01b815291925073__ItemsLibrary__________________________91633833532791612328918690600190600401613106565b60006040518083038186803b15801561234057600080fd5b505af4158015612354573d6000803e3d6000fd5b5050506001600160a01b038a166000908152609e6020526040908190209051633833532760e01b815273__ItemsLibrary__________________________92506338335327916123aa9185908890600401613106565b60006040518083038186803b1580156123c257600080fd5b505af41580156123d6573d6000803e3d6000fd5b50505085151590506123ed576123ed896001611bfe565b505050505050505050565b60608161241c5750506040805180820190915260018152600360fc1b602082015290565b8160005b81156124465780612430816133f7565b915061243f9050600a8361325b565b9150612420565b6000816001600160401b038111156124605761246061347e565b6040519080825280601f01601f19166020018201604052801561248a576020820181803683370190505b5090505b8415611a685761249f600183613379565b91506124ac600a86613412565b6124b7906030613243565b60f81b8183815181106124cc576124cc613468565b60200101906001600160f81b031916908160001a9053506124ee600a8661325b565b945061248e565b6124ff8383612709565b61250c600084848461259d565b6108455760405162461bcd60e51b815260040161071490612f0f565b600054610100900460ff166108875760405162461bcd60e51b8152600401610714906130bb565b600054610100900460ff166125765760405162461bcd60e51b8152600401610714906130bb565b8151612589906065906020850190612878565b508051610845906066906020840190612878565b60006001600160a01b0384163b1561269f57604051630a85bd0160e11b81526001600160a01b0385169063150b7a02906125e1903390899088908890600401612e7b565b602060405180830381600087803b1580156125fb57600080fd5b505af192505050801561262b575060408051601f3d908101601f1916820190925261262891810190612d20565b60015b612685573d808015612659576040519150601f19603f3d011682016040523d82523d6000602084013e61265e565b606091505b50805161267d5760405162461bcd60e51b815260040161071490612f0f565b805181602001fd5b6001600160e01b031916630a85bd0160e11b149050611a68565b506001949350505050565b600080805b6003811015612702578381600381106126ca576126ca613468565b60200201518210156126f0578381600381106126e8576126e8613468565b602002015191505b806126fa816133f7565b9150506126af565b5092915050565b6001600160a01b03821661275f5760405162461bcd60e51b815260206004820181905260248201527f4552433732313a206d696e7420746f20746865207a65726f20616464726573736044820152606401610714565b6127688161191b565b156127b45760405162461bcd60e51b815260206004820152601c60248201527b115490cdcc8c4e881d1bdad95b88185b1c9958591e481b5a5b9d195960221b6044820152606401610714565b6001600160a01b03821660009081526068602052604081208054600192906127dd908490613243565b909155505060008181526067602052604080822080546001600160a01b0319166001600160a01b03861690811790915590518392906000805160206134c3833981519152908290a45050565b6040518060c0016040528060006001600160a01b03168152602001606081526020016060815260200160008152602001600081526020016000600181111561287357612873613452565b905290565b828054612884906133bc565b90600052602060002090601f0160209004810192826128a657600085556128ec565b82601f106128bf57805160ff19168380011785556128ec565b828001600101855582156128ec579182015b828111156128ec5782518255916020019190600101906128d1565b506128f89291506128fc565b5090565b5b808211156128f857600081556001016128fd565b60006001600160401b0383111561292a5761292a61347e565b61293d601f8401601f19166020016131f0565b905082815283838301111561295157600080fd5b828260208301376000602084830101529392505050565b600082601f83011261297957600080fd5b6116d583833560208501612911565b803560ff8116811461299957600080fd5b919050565b6000602082840312156129b057600080fd5b81356116d581613494565b600080604083850312156129ce57600080fd5b82356129d981613494565b915060208301356129e981613494565b809150509250929050565b60008060008060008060008060006101208a8c031215612a1357600080fd5b8935612a1e81613494565b985060208a0135612a2e81613494565b975060408a01356001600160401b0380821115612a4a57600080fd5b612a568d838e01612968565b985060608c0135915080821115612a6c57600080fd5b50612a798c828d01612968565b96505060808a0135945060a08a0135935060c08a0135925060e08a01359150612aa56101008b01612988565b90509295985092959850929598565b600080600060608486031215612ac957600080fd5b8335612ad481613494565b92506020840135612ae481613494565b929592945050506040919091013590565b60008060008060808587031215612b0b57600080fd5b8435612b1681613494565b93506020850135612b2681613494565b92506040850135915060608501356001600160401b03811115612b4857600080fd5b8501601f81018713612b5957600080fd5b612b6887823560208401612911565b91505092959194509250565b60008060408385031215612b8757600080fd5b8235612b9281613494565b9150602083013580151581146129e957600080fd5b60008060408385031215612bba57600080fd5b8235612bc581613494565b946020939093013593505050565b60006020808385031215612be657600080fd5b82516001600160401b03811115612bfc57600080fd5b8301601f81018513612c0d57600080fd5b8051612c20612c1b82613220565b6131f0565b80828252848201915084840188868560051b8701011115612c4057600080fd5b600094505b83851015612c6c578051612c5881613494565b835260019490940193918501918501612c45565b50979650505050505050565b60006020808385031215612c8b57600080fd5b82516001600160401b03811115612ca157600080fd5b8301601f81018513612cb257600080fd5b8051612cc0612c1b82613220565b80828252848201915084840188868560051b8701011115612ce057600080fd5b600094505b83851015612c6c578051835260019490940193918501918501612ce5565b600060208284031215612d1557600080fd5b81356116d5816134ac565b600060208284031215612d3257600080fd5b81516116d5816134ac565b600060208284031215612d4f57600080fd5b8135600281106116d557600080fd5b600060208284031215612d7057600080fd5b5035919050565b600060208284031215612d8957600080fd5b5051919050565b60008060408385031215612da357600080fd5b8235915060208301356129e981613494565b600080600060608486031215612dca57600080fd5b833592506020840135612ae481613494565b60008060408385031215612def57600080fd5b50508035926020909101359150565b60008151808452612e16816020860160208601613390565b601f01601f19169290920160200192915050565b60028110612e4857634e487b7160e01b600052602160045260246000fd5b9052565b60008351612e5e818460208801613390565b835190830190612e72818360208801613390565b01949350505050565b6001600160a01b0385811682528416602082015260408101839052608060608201819052600090612eae90830184612dfe565b9695505050505050565b6020815260006116d56020830184612dfe565b60208082526024908201527f4f6e6c7920746865204f776e657220697320616c6c6f77656420746f20646f206040820152631d1a185d60e21b606082015260800190565b60208082526032908201527f4552433732313a207472616e7366657220746f206e6f6e20455243373231526560408201527131b2b4bb32b91034b6b83632b6b2b73a32b960711b606082015260800190565b6020808252601d908201527f546865726520697320616e206f6666657220696e2070726f6772657373000000604082015260600190565b6020808252602e908201527f496e697469616c697a61626c653a20636f6e747261637420697320616c72656160408201526d191e481a5b9a5d1a585b1a5e995960921b606082015260800190565b6020808252602d908201527f4f6e6c79206f776e6572206f7220617070726f7665642063616e206368616e6760408201526c6520746f6b656e20707269636560981b606082015260800190565b60208082526031908201527f4552433732313a207472616e736665722063616c6c6572206973206e6f74206f6040820152701ddb995c881b9bdc88185c1c1c9bdd9959607a1b606082015260800190565b6020808252601d908201527f5468657265206973206e6f206f6666657220696e2070726f6772657373000000604082015260600190565b6020808252602b908201527f496e697469616c697a61626c653a20636f6e7472616374206973206e6f74206960408201526a6e697469616c697a696e6760a81b606082015260800190565b9283526020830191909152604082015260600190565b604080825283516001600160a01b031690820152602083015160c0606083015260009061314d610100840182612dfe565b90506040850151603f1984830301608085015261316a8282612dfe565b915050606085015160a0840152608085015160c084015260a085015161319360e0850182612e2a565b506020929092019290925292915050565b60006060820190506131b7828551612e2a565b602093840151938201939093526001600160a01b039190911660409091015290565b9182526001600160a01b0316602082015260400190565b604051601f8201601f191681016001600160401b03811182821017156132185761321861347e565b604052919050565b60006001600160401b038211156132395761323961347e565b5060051b60200190565b6000821982111561325657613256613426565b500190565b60008261326a5761326a61343c565b500490565b600181815b808511156132aa57816000190482111561329057613290613426565b8085161561329d57918102915b93841c9390800290613274565b509250929050565b60006116d583836000826132c857506001610614565b816132d557506000610614565b81600181146132eb57600281146132f557613311565b6001915050610614565b60ff84111561330657613306613426565b50506001821b610614565b5060208310610133831016604e8410600b8410161715613334575081810a610614565b61333e838361326f565b806000190482111561335257613352613426565b029392505050565b600081600019048311821515161561337457613374613426565b500290565b60008282101561338b5761338b613426565b500390565b60005b838110156133ab578181015183820152602001613393565b838111156110205750506000910152565b600181811c908216806133d057607f821691505b602082108114156133f157634e487b7160e01b600052602260045260246000fd5b50919050565b600060001982141561340b5761340b613426565b5060010190565b6000826134215761342161343c565b500690565b634e487b7160e01b600052601160045260246000fd5b634e487b7160e01b600052601260045260246000fd5b634e487b7160e01b600052602160045260246000fd5b634e487b7160e01b600052603260045260246000fd5b634e487b7160e01b600052604160045260246000fd5b6001600160a01b03811681146134a957600080fd5b50565b6001600160e01b0319811681146134a957600080fdfeddf252ad1be2c89b69c2b068fc378daa952ba7f163c4a11628f55a4df523b3efa2646970667358221220feb4d5f518b89f196bcb5c8a94e90a8b97dbc4d7e93e4e47194dc5a26094166164736f6c63430008070033",
  "immutableReferences": {},
  "source": "// SPDX-License-Identifier: GPL-3.0\r\n\r\npragma solidity 0.8.7;\r\n\r\n/**\r\n Certis Token is an ERC20 Token that grants its holder the right to:\r\n   - Vote on all the systems propositions (changing system configuraiton etc...)\r\n   - Receive Dividends for all the payments forwarded to the Treasury contract\r\n\r\nBefore every token transfer we contact the token gouvernance Base contracts so that the can update the tokens used for voting if needed\r\n\r\n */\r\n\r\nimport \"@openzeppelin/contracts-upgradeable/token/ERC721/ERC721Upgradeable.sol\";\r\nimport \"@openzeppelin/contracts-upgradeable/proxy/utils/Initializable.sol\";\r\nimport \"../Base/ManagedBaseContract.sol\";\r\nimport \"../Libraries/Library.sol\";\r\nimport \"../Libraries/ItemsLibrary.sol\";\r\nimport \"../Interfaces/ITreasury.sol\";\r\nimport \"../Interfaces/INFTMarket.sol\";\r\n\r\n\r\n contract NFTMarket is  INFTMarket, Initializable, ManagedBaseContract, ERC721Upgradeable {\r\n    using Library for *;\r\n\r\n  // EVENTS /////////////////////////////////////////\r\n  \r\n\r\n  // DATA /////////////////////////////////////////\r\n  address _owner;\r\n  Library.PaymentPlans _paymentPlan;\r\n  uint256 _offersLifeTime;\r\n  uint256 _ownerTransferFeeAmount;\r\n  uint256 _ownerTransferFeeDecimals;\r\n  uint256 _issuerID;\r\n\r\n  mapping(uint256 => _tokenStruct) private _tokenInfo;\r\n  mapping(uint256 => _offerStruct) private _tokenOffer;\r\n\r\n  mapping(address => ItemsLibrary._BalanceStruct) private _balanceOfAccount;\r\n\r\n\r\n  // MODIFIERS /////////////////////////////////////////\r\n  modifier isTheOwner(address addr){\r\n      require(_owner == addr, \"Only the Owner is allowed to do that\");\r\n      _;\r\n  }\r\n\r\n  modifier isTokenOwnerOrApproved(uint256 tokenId){\r\n      require(_isApprovedOrOwner(_msgSender(), tokenId), \"Only owner or approved can change token price\");\r\n      _;\r\n  }\r\n\r\n  modifier OfferInProgress(uint256 tokenId, bool YesOrNo){\r\n      if(YesOrNo) require(block.timestamp <= _tokenOffer[tokenId]._deadline, \"There is no offer in progress\");\r\n      else require(block.timestamp > _tokenOffer[tokenId]._deadline, \"There is an offer in progress\");\r\n      _;\r\n  }\r\n\r\n  modifier priceOK(uint256 tokenId, uint256 offer){\r\n      require(offer >= _tokenInfo[tokenId]._price, \"The offer is below the minimum price\");\r\n      _;\r\n  }\r\n\r\n  modifier validFees(uint256 fee, uint256 decimals){\r\n    Library.validFees(fee, decimals);\r\n    _;\r\n  }\r\n\r\n  \r\n\r\n  // CONSTRUCTOR /////////////////////////////////////////\r\n  function NFTMarket_init(address managerContractAddress, address owner, string memory name, string memory symbol, uint256 offersLifeTime, uint256 ownerTransferFeeAmount, uint256 ownerTransferFeeDecimals, uint256 issuerID, uint8 paymentPlan) public initializer \r\n    validFees(ownerTransferFeeAmount, ownerTransferFeeDecimals)\r\n  {\r\n      super.ManagedBaseContract_init(managerContractAddress); \r\n      super.__ERC721_init(name, symbol); \r\n\r\n      _owner = owner;\r\n      _paymentPlan = Library.PaymentPlans(paymentPlan);\r\n      _offersLifeTime = offersLifeTime;\r\n      _ownerTransferFeeAmount = ownerTransferFeeAmount;\r\n      _ownerTransferFeeDecimals = ownerTransferFeeDecimals;\r\n      _issuerID = issuerID;\r\n  }\r\n\r\n  // FUNCTIONALITY /////////////////////////////////////////\r\n  function changeOwner(address newOwner) external override\r\n    isTheOwner(msg.sender)\r\n  {\r\n      _owner = newOwner;\r\n  }\r\n\r\n  function changePaymentPlan(Library.PaymentPlans newPaymentPlan) external override\r\n    isTheOwner(msg.sender)\r\n  {\r\n      _paymentPlan = newPaymentPlan;\r\n  }\r\n\r\n  function changeOffersLifeTime(uint256 newLifeTime) external override\r\n    isTheOwner(msg.sender)\r\n  {\r\n      _offersLifeTime = newLifeTime;\r\n  }\r\n\r\n  function changeOwnerTransferFees(uint256 newAmount, uint256 newDecimals) external override\r\n    isTheOwner(msg.sender)\r\n    validFees(newAmount, newDecimals)\r\n  {\r\n      _ownerTransferFeeAmount = newAmount;\r\n      _ownerTransferFeeDecimals = newDecimals;\r\n  }\r\n\r\n  function mintToken(uint256 tokenId, address receiver, uint256 price) external payable override\r\n    isTheOwner(msg.sender)\r\n  {\r\n      if(_paymentPlan == Library.PaymentPlans.Minting)\r\n      {\r\n        uint[] memory Prices = ITreasury(_managerContract.retrieveTransparentProxies()[uint256(Library.TransparentProxies.Treasury)]).retrieveSettings();\r\n        uint256 MintingFee = Prices[uint256(Library.Prices.MintingFee)];\r\n        uint256 AdminMintingFee = Prices[uint256(Library.Prices.AdminMintingFee)];\r\n        require(msg.value >= MintingFee + AdminMintingFee, \"Minting Fees not enough\");\r\n\r\n        ItemsLibrary.TransferEtherTo(MintingFee, _managerContract.retrieveTransparentProxies()[uint256(Library.TransparentProxies.Treasury)]);\r\n        ItemsLibrary.TransferEtherTo(msg.value - MintingFee, _managerContract.retrieveTransparentProxies()[uint256(Library.TransparentProxies.AdminPiggyBank)]);\r\n      }\r\n      _safeMint(receiver, tokenId);\r\n      _tokenInfo[tokenId]._price = price;\r\n      _tokenInfo[tokenId]._paymentPlan = _paymentPlan;\r\n  }\r\n\r\n  function setTokenPrice(uint256 tokenId, uint256 price) external override\r\n    isTokenOwnerOrApproved(tokenId)\r\n  {\r\n      _tokenInfo[tokenId]._price = price;\r\n  }\r\n\r\n  function acceptOffer(uint256 tokenId) external override\r\n    isTokenOwnerOrApproved(tokenId)\r\n    OfferInProgress(tokenId, true)\r\n  {\r\n    (uint256 OwnerTransferFeeAmount, uint256 TransferFeeAmount, uint256 AdminTransferFeeAmount, uint256 commonDecimals) = getFees(tokenId);\r\n\r\n\r\n    uint256 percentageForTokenOwner = (100 * 10**commonDecimals) - OwnerTransferFeeAmount - TransferFeeAmount - AdminTransferFeeAmount;\r\n    require(percentageForTokenOwner >= 0, \"Fees exceed 100 percent\");\r\n\r\n    address FormerOwner = ownerOf(tokenId);\r\n\r\n    _safeTransfer(FormerOwner, _tokenOffer[tokenId]._bidder, tokenId, \"\");\r\n    uint256 offer = _tokenOffer[tokenId]._offer;\r\n    removeOffer(tokenId);\r\n\r\n    Pay(_managerContract.retrieveTransparentProxies()[uint256(Library.TransparentProxies.Treasury)], offer, TransferFeeAmount, commonDecimals, false);\r\n    Pay(_managerContract.retrieveTransparentProxies()[uint256(Library.TransparentProxies.AdminPiggyBank)], offer, AdminTransferFeeAmount, commonDecimals, false);\r\n    Pay(_owner, offer, OwnerTransferFeeAmount, commonDecimals, true);\r\n    Pay(FormerOwner, offer, percentageForTokenOwner, commonDecimals, true);\r\n  }\r\n\r\n  function getFees(uint256 tokenId) internal view returns(uint256, uint256, uint256, uint256)\r\n  {\r\n    uint256 OwnerTransferFeeAmount = _ownerTransferFeeAmount;\r\n    uint256 OwnerTransferFeeDecimals = _ownerTransferFeeDecimals;\r\n    uint256 TransferFeeAmount = 0;\r\n    uint256 TransferFeeDecimals = 0;\r\n    uint256 AdminTransferFeeAmount = 0;\r\n    uint256 AdminTransferFeeDecimals = 0;\r\n\r\n    if(Library.PaymentPlans.TransferFee == _tokenInfo[tokenId]._paymentPlan){\r\n        uint[] memory Prices = ITreasury(_managerContract.retrieveTransparentProxies()[uint256(Library.TransparentProxies.Treasury)]).retrieveSettings();\r\n        TransferFeeAmount = Prices[uint256(Library.Prices.TransferFeeAmount)];\r\n        TransferFeeDecimals = Prices[uint256(Library.Prices.TransferFeeDecimals)];\r\n        AdminTransferFeeAmount = Prices[uint256(Library.Prices.AdminTransferFeeAmount)];\r\n        AdminTransferFeeDecimals = Prices[uint256(Library.Prices.AdminTransferFeeDecimals)];\r\n    }\r\n\r\n    uint256 commonDecimals = getLargest([OwnerTransferFeeDecimals, TransferFeeDecimals, AdminTransferFeeDecimals]); \r\n    OwnerTransferFeeAmount = OwnerTransferFeeAmount * 10**(commonDecimals - OwnerTransferFeeDecimals);\r\n    TransferFeeAmount = TransferFeeAmount * 10**(commonDecimals - TransferFeeDecimals);\r\n    AdminTransferFeeAmount = AdminTransferFeeAmount * 10**(commonDecimals - AdminTransferFeeDecimals);\r\n\r\n    return(OwnerTransferFeeAmount, TransferFeeAmount, AdminTransferFeeAmount, commonDecimals);\r\n  }\r\n    \r\n  function rejectOffer(uint256 tokenId) external override\r\n    isTokenOwnerOrApproved(tokenId)\r\n    OfferInProgress(tokenId, true)\r\n  {\r\n    assignToRejectedSender(_tokenOffer[tokenId]._sender, _tokenOffer[tokenId]._offer);\r\n    removeOffer(tokenId);\r\n  }\r\n\r\n  function removeOffer(uint256 tokenId) internal\r\n  {\r\n    delete(_tokenOffer[tokenId]);\r\n  }\r\n\r\n  function submitOffer(uint256 tokenId, address bidder) external payable override\r\n    OfferInProgress(tokenId, false)\r\n    priceOK(tokenId, msg.value)\r\n  {\r\n      if(address(0) != _tokenOffer[tokenId]._sender) assignToRejectedSender(_tokenOffer[tokenId]._sender, _tokenOffer[tokenId]._offer);\r\n      _tokenOffer[tokenId]._offer = msg.value;\r\n      _tokenOffer[tokenId]._sender = msg.sender;\r\n      _tokenOffer[tokenId]._bidder = bidder;\r\n      _tokenOffer[tokenId]._deadline = block.timestamp + _offersLifeTime;\r\n  }\r\n    \r\n  function withdrawOffer(uint256 tokenId) external override\r\n    OfferInProgress(tokenId, false)\r\n  {\r\n    require(msg.sender == _tokenOffer[tokenId]._sender, \"Only the original sender can withdraw the bid\");\r\n    assignToRejectedSender(_tokenOffer[tokenId]._sender, _tokenOffer[tokenId]._offer);\r\n    removeOffer(tokenId);\r\n    internalWithdraw(msg.sender, true);\r\n  }\r\n\r\n  function withdraw() external override\r\n  {\r\n    internalWithdraw(msg.sender, true);\r\n  }\r\n\r\n  function assignToRejectedSender(address sender, uint256 offer) internal\r\n  {\r\n      ItemsLibrary.addBalance(_balanceOfAccount[sender], offer, 1);\r\n  }\r\n\r\n  function Pay(address to, uint256 amount, uint256 percentage, uint256 decimals, bool AssignOrSend) internal\r\n  {\r\n      uint256 numerator = amount * percentage;\r\n      uint256 denominator = 100 * 10**decimals;\r\n\r\n      uint256 quotient = numerator / denominator;\r\n      uint256 remainder = numerator - (quotient * denominator);\r\n\r\n      ItemsLibrary.addBalance(_balanceOfAccount[to], quotient, 1);\r\n      ItemsLibrary.addBalance(_balanceOfAccount[to], remainder, denominator);\r\n\r\n      if(false == AssignOrSend)\r\n      {\r\n        internalWithdraw(to, true);\r\n      }\r\n  }\r\n\r\n  function internalWithdraw(address addr, bool send) internal\r\n  {\r\n    uint256 amount = ItemsLibrary.checkFullBalance(_balanceOfAccount[addr]);\r\n    ItemsLibrary.InternalWithdraw(_balanceOfAccount[addr], amount, addr, send);\r\n  }\r\n\r\n  function retrieveIssuer() external override view returns (ItemsLibrary._issuerStruct memory, uint256)\r\n  {\r\n    return(ItemsLibrary._issuerStruct(_owner, name(), symbol(), _ownerTransferFeeAmount, _ownerTransferFeeDecimals, _paymentPlan), _offersLifeTime);\r\n  }\r\n\r\n  function retrieveToken(uint256 tokenId) external override view returns (_tokenStruct memory, address)\r\n  {\r\n    return(_tokenInfo[tokenId], ownerOf(tokenId));\r\n  }\r\n\r\n  function retrieveOffer(uint256 tokenId) external override view returns (_offerStruct memory)\r\n  {\r\n      return(_tokenOffer[tokenId]);\r\n  }\r\n\r\n  function getLargest(uint256[3] memory nums) internal pure returns(uint256)\r\n  {\r\n    uint256 largest = 0;\r\n\r\n    for(uint i=0; i < nums.length; i++)\r\n    {\r\n        if(largest < nums[i])largest = nums[i];\r\n    }\r\n\r\n    return largest;\r\n  }\r\n\r\n }",
  "sourcePath": "C:\\Users\\d-aam\\GitHub\\Originals\\contracts\\MainContracts\\NFTMarket.sol",
  "compiler": {
    "name": "solc",
    "version": "0.8.7+commit.e28d00a7.Emscripten.clang"
  },
  "schemaVersion": "3.4.3",
  "updatedAt": "2022-01-27T08:30:34.622Z",
  "devdoc": {
    "kind": "dev",
    "methods": {
      "approve(address,uint256)": {
        "details": "See {IERC721-approve}."
      },
      "balanceOf(address)": {
        "details": "See {IERC721-balanceOf}."
      },
      "getApproved(uint256)": {
        "details": "See {IERC721-getApproved}."
      },
      "isApprovedForAll(address,address)": {
        "details": "See {IERC721-isApprovedForAll}."
      },
      "name()": {
        "details": "See {IERC721Metadata-name}."
      },
      "ownerOf(uint256)": {
        "details": "See {IERC721-ownerOf}."
      },
      "safeTransferFrom(address,address,uint256)": {
        "details": "See {IERC721-safeTransferFrom}."
      },
      "safeTransferFrom(address,address,uint256,bytes)": {
        "details": "See {IERC721-safeTransferFrom}."
      },
      "setApprovalForAll(address,bool)": {
        "details": "See {IERC721-setApprovalForAll}."
      },
      "supportsInterface(bytes4)": {
        "details": "See {IERC165-supportsInterface}."
      },
      "symbol()": {
        "details": "See {IERC721Metadata-symbol}."
      },
      "tokenURI(uint256)": {
        "details": "See {IERC721Metadata-tokenURI}."
      },
      "transferFrom(address,address,uint256)": {
        "details": "See {IERC721-transferFrom}."
      }
    },
    "version": 1
  },
  "userdoc": {
    "kind": "user",
    "methods": {},
    "version": 1
  }
}