{
  "contractName": "NFTMarket",
  "abi": [
    {
      "anonymous": false,
      "inputs": [
        {
          "indexed": true,
          "internalType": "address",
          "name": "owner",
          "type": "address"
        },
        {
          "indexed": true,
          "internalType": "address",
          "name": "approved",
          "type": "address"
        },
        {
          "indexed": true,
          "internalType": "uint256",
          "name": "tokenId",
          "type": "uint256"
        }
      ],
      "name": "Approval",
      "type": "event"
    },
    {
      "anonymous": false,
      "inputs": [
        {
          "indexed": true,
          "internalType": "address",
          "name": "owner",
          "type": "address"
        },
        {
          "indexed": true,
          "internalType": "address",
          "name": "operator",
          "type": "address"
        },
        {
          "indexed": false,
          "internalType": "bool",
          "name": "approved",
          "type": "bool"
        }
      ],
      "name": "ApprovalForAll",
      "type": "event"
    },
    {
      "anonymous": false,
      "inputs": [
        {
          "indexed": true,
          "internalType": "address",
          "name": "from",
          "type": "address"
        },
        {
          "indexed": true,
          "internalType": "address",
          "name": "to",
          "type": "address"
        },
        {
          "indexed": true,
          "internalType": "uint256",
          "name": "tokenId",
          "type": "uint256"
        }
      ],
      "name": "Transfer",
      "type": "event"
    },
    {
      "anonymous": false,
      "inputs": [
        {
          "indexed": true,
          "internalType": "uint256",
          "name": "tokenId",
          "type": "uint256"
        },
        {
          "indexed": true,
          "internalType": "address",
          "name": "formerOwner",
          "type": "address"
        },
        {
          "indexed": true,
          "internalType": "address",
          "name": "newOwner",
          "type": "address"
        },
        {
          "indexed": false,
          "internalType": "uint256",
          "name": "offer",
          "type": "uint256"
        },
        {
          "indexed": false,
          "internalType": "uint256",
          "name": "paymentTokenID",
          "type": "uint256"
        }
      ],
      "name": "_AcceptOffer",
      "type": "event"
    },
    {
      "anonymous": false,
      "inputs": [
        {
          "indexed": true,
          "internalType": "uint256",
          "name": "tokenId",
          "type": "uint256"
        },
        {
          "indexed": false,
          "internalType": "address",
          "name": "receiver",
          "type": "address"
        },
        {
          "indexed": false,
          "internalType": "uint256[]",
          "name": "prices",
          "type": "uint256[]"
        },
        {
          "indexed": false,
          "internalType": "enum Library.PaymentPlans",
          "name": "plan",
          "type": "uint8"
        },
        {
          "indexed": false,
          "internalType": "uint256",
          "name": "MintingFee",
          "type": "uint256"
        },
        {
          "indexed": false,
          "internalType": "uint256",
          "name": "AdminMintingFee",
          "type": "uint256"
        }
      ],
      "name": "_MintToken",
      "type": "event"
    },
    {
      "anonymous": false,
      "inputs": [
        {
          "indexed": true,
          "internalType": "uint256",
          "name": "formerLifeTime",
          "type": "uint256"
        },
        {
          "indexed": false,
          "internalType": "uint256",
          "name": "newLifeTime",
          "type": "uint256"
        }
      ],
      "name": "_NewOffersLifeTime",
      "type": "event"
    },
    {
      "anonymous": false,
      "inputs": [
        {
          "indexed": true,
          "internalType": "address",
          "name": "formerOwner",
          "type": "address"
        },
        {
          "indexed": false,
          "internalType": "address",
          "name": "newOwner",
          "type": "address"
        }
      ],
      "name": "_NewOwner",
      "type": "event"
    },
    {
      "anonymous": false,
      "inputs": [
        {
          "indexed": true,
          "internalType": "uint256",
          "name": "formerAmount",
          "type": "uint256"
        },
        {
          "indexed": true,
          "internalType": "uint256",
          "name": "formerDecimals",
          "type": "uint256"
        },
        {
          "indexed": false,
          "internalType": "uint256",
          "name": "newAmount",
          "type": "uint256"
        },
        {
          "indexed": false,
          "internalType": "uint256",
          "name": "newDecimals",
          "type": "uint256"
        }
      ],
      "name": "_NewOwnerFees",
      "type": "event"
    },
    {
      "anonymous": false,
      "inputs": [
        {
          "indexed": false,
          "internalType": "enum Library.PaymentPlans",
          "name": "formerPlan",
          "type": "uint8"
        },
        {
          "indexed": false,
          "internalType": "enum Library.PaymentPlans",
          "name": "newPlan",
          "type": "uint8"
        }
      ],
      "name": "_NewPaymentPlan",
      "type": "event"
    },
    {
      "anonymous": false,
      "inputs": [
        {
          "indexed": true,
          "internalType": "uint256",
          "name": "tokenId",
          "type": "uint256"
        }
      ],
      "name": "_RejectOffer",
      "type": "event"
    },
    {
      "anonymous": false,
      "inputs": [
        {
          "indexed": true,
          "internalType": "uint256",
          "name": "tokenId",
          "type": "uint256"
        },
        {
          "indexed": false,
          "internalType": "uint256[]",
          "name": "formerPrices",
          "type": "uint256[]"
        },
        {
          "indexed": false,
          "internalType": "uint256[]",
          "name": "newPrices",
          "type": "uint256[]"
        }
      ],
      "name": "_SetTokenPrice",
      "type": "event"
    },
    {
      "anonymous": false,
      "inputs": [
        {
          "indexed": true,
          "internalType": "uint256",
          "name": "tokenId",
          "type": "uint256"
        },
        {
          "indexed": true,
          "internalType": "address",
          "name": "sender",
          "type": "address"
        },
        {
          "indexed": true,
          "internalType": "address",
          "name": "bidder",
          "type": "address"
        },
        {
          "indexed": false,
          "internalType": "uint256",
          "name": "offer",
          "type": "uint256"
        },
        {
          "indexed": false,
          "internalType": "bool",
          "name": "FromCredit",
          "type": "bool"
        },
        {
          "indexed": false,
          "internalType": "uint256",
          "name": "paymentTokenID",
          "type": "uint256"
        }
      ],
      "name": "_SubmitOffer",
      "type": "event"
    },
    {
      "anonymous": false,
      "inputs": [
        {
          "indexed": true,
          "internalType": "uint256",
          "name": "tokenId",
          "type": "uint256"
        }
      ],
      "name": "_WithdrawOffer",
      "type": "event"
    },
    {
      "inputs": [
        {
          "internalType": "address",
          "name": "to",
          "type": "address"
        },
        {
          "internalType": "uint256",
          "name": "tokenId",
          "type": "uint256"
        }
      ],
      "name": "approve",
      "outputs": [],
      "stateMutability": "nonpayable",
      "type": "function"
    },
    {
      "inputs": [
        {
          "internalType": "address",
          "name": "owner",
          "type": "address"
        }
      ],
      "name": "balanceOf",
      "outputs": [
        {
          "internalType": "uint256",
          "name": "",
          "type": "uint256"
        }
      ],
      "stateMutability": "view",
      "type": "function",
      "constant": true
    },
    {
      "inputs": [
        {
          "internalType": "uint256",
          "name": "tokenId",
          "type": "uint256"
        }
      ],
      "name": "getApproved",
      "outputs": [
        {
          "internalType": "address",
          "name": "",
          "type": "address"
        }
      ],
      "stateMutability": "view",
      "type": "function",
      "constant": true
    },
    {
      "inputs": [
        {
          "internalType": "address",
          "name": "owner",
          "type": "address"
        },
        {
          "internalType": "address",
          "name": "operator",
          "type": "address"
        }
      ],
      "name": "isApprovedForAll",
      "outputs": [
        {
          "internalType": "bool",
          "name": "",
          "type": "bool"
        }
      ],
      "stateMutability": "view",
      "type": "function",
      "constant": true
    },
    {
      "inputs": [],
      "name": "name",
      "outputs": [
        {
          "internalType": "string",
          "name": "",
          "type": "string"
        }
      ],
      "stateMutability": "view",
      "type": "function",
      "constant": true
    },
    {
      "inputs": [
        {
          "internalType": "uint256",
          "name": "tokenId",
          "type": "uint256"
        }
      ],
      "name": "ownerOf",
      "outputs": [
        {
          "internalType": "address",
          "name": "",
          "type": "address"
        }
      ],
      "stateMutability": "view",
      "type": "function",
      "constant": true
    },
    {
      "inputs": [],
      "name": "retrieveManagerContract",
      "outputs": [
        {
          "internalType": "address",
          "name": "",
          "type": "address"
        }
      ],
      "stateMutability": "view",
      "type": "function",
      "constant": true
    },
    {
      "inputs": [
        {
          "internalType": "address",
          "name": "from",
          "type": "address"
        },
        {
          "internalType": "address",
          "name": "to",
          "type": "address"
        },
        {
          "internalType": "uint256",
          "name": "tokenId",
          "type": "uint256"
        }
      ],
      "name": "safeTransferFrom",
      "outputs": [],
      "stateMutability": "nonpayable",
      "type": "function"
    },
    {
      "inputs": [
        {
          "internalType": "address",
          "name": "from",
          "type": "address"
        },
        {
          "internalType": "address",
          "name": "to",
          "type": "address"
        },
        {
          "internalType": "uint256",
          "name": "tokenId",
          "type": "uint256"
        },
        {
          "internalType": "bytes",
          "name": "_data",
          "type": "bytes"
        }
      ],
      "name": "safeTransferFrom",
      "outputs": [],
      "stateMutability": "nonpayable",
      "type": "function"
    },
    {
      "inputs": [
        {
          "internalType": "address",
          "name": "operator",
          "type": "address"
        },
        {
          "internalType": "bool",
          "name": "approved",
          "type": "bool"
        }
      ],
      "name": "setApprovalForAll",
      "outputs": [],
      "stateMutability": "nonpayable",
      "type": "function"
    },
    {
      "inputs": [
        {
          "internalType": "bytes4",
          "name": "interfaceId",
          "type": "bytes4"
        }
      ],
      "name": "supportsInterface",
      "outputs": [
        {
          "internalType": "bool",
          "name": "",
          "type": "bool"
        }
      ],
      "stateMutability": "view",
      "type": "function",
      "constant": true
    },
    {
      "inputs": [],
      "name": "symbol",
      "outputs": [
        {
          "internalType": "string",
          "name": "",
          "type": "string"
        }
      ],
      "stateMutability": "view",
      "type": "function",
      "constant": true
    },
    {
      "inputs": [
        {
          "internalType": "uint256",
          "name": "tokenId",
          "type": "uint256"
        }
      ],
      "name": "tokenURI",
      "outputs": [
        {
          "internalType": "string",
          "name": "",
          "type": "string"
        }
      ],
      "stateMutability": "view",
      "type": "function",
      "constant": true
    },
    {
      "inputs": [
        {
          "internalType": "address",
          "name": "from",
          "type": "address"
        },
        {
          "internalType": "address",
          "name": "to",
          "type": "address"
        },
        {
          "internalType": "uint256",
          "name": "tokenId",
          "type": "uint256"
        }
      ],
      "name": "transferFrom",
      "outputs": [],
      "stateMutability": "nonpayable",
      "type": "function"
    },
    {
      "inputs": [
        {
          "internalType": "address",
          "name": "managerContractAddress",
          "type": "address"
        },
        {
          "internalType": "address",
          "name": "owner",
          "type": "address"
        },
        {
          "internalType": "string",
          "name": "name",
          "type": "string"
        },
        {
          "internalType": "string",
          "name": "symbol",
          "type": "string"
        },
        {
          "internalType": "uint256",
          "name": "offersLifeTime",
          "type": "uint256"
        },
        {
          "internalType": "uint256",
          "name": "ownerTransferFeeAmount",
          "type": "uint256"
        },
        {
          "internalType": "uint256",
          "name": "ownerTransferFeeDecimals",
          "type": "uint256"
        },
        {
          "internalType": "uint256",
          "name": "issuerID",
          "type": "uint256"
        },
        {
          "internalType": "uint8",
          "name": "paymentPlan",
          "type": "uint8"
        }
      ],
      "name": "NFTMarket_init",
      "outputs": [],
      "stateMutability": "nonpayable",
      "type": "function"
    },
    {
      "inputs": [
        {
          "internalType": "address",
          "name": "newOwner",
          "type": "address"
        }
      ],
      "name": "changeOwner",
      "outputs": [],
      "stateMutability": "nonpayable",
      "type": "function"
    },
    {
      "inputs": [
        {
          "internalType": "enum Library.PaymentPlans",
          "name": "newPaymentPlan",
          "type": "uint8"
        }
      ],
      "name": "changePaymentPlan",
      "outputs": [],
      "stateMutability": "nonpayable",
      "type": "function"
    },
    {
      "inputs": [
        {
          "internalType": "uint256",
          "name": "newLifeTime",
          "type": "uint256"
        }
      ],
      "name": "changeOffersLifeTime",
      "outputs": [],
      "stateMutability": "nonpayable",
      "type": "function"
    },
    {
      "inputs": [
        {
          "internalType": "uint256",
          "name": "newAmount",
          "type": "uint256"
        },
        {
          "internalType": "uint256",
          "name": "newDecimals",
          "type": "uint256"
        }
      ],
      "name": "changeOwnerTransferFees",
      "outputs": [],
      "stateMutability": "nonpayable",
      "type": "function"
    },
    {
      "inputs": [
        {
          "internalType": "uint256",
          "name": "tokenId",
          "type": "uint256"
        },
        {
          "internalType": "address",
          "name": "receiver",
          "type": "address"
        },
        {
          "internalType": "uint256[]",
          "name": "prices",
          "type": "uint256[]"
        },
        {
          "internalType": "bool",
          "name": "FromCredit",
          "type": "bool"
        },
        {
          "internalType": "uint256",
          "name": "paymentTokenID",
          "type": "uint256"
        }
      ],
      "name": "mintToken",
      "outputs": [],
      "stateMutability": "nonpayable",
      "type": "function"
    },
    {
      "inputs": [
        {
          "internalType": "uint256",
          "name": "tokenId",
          "type": "uint256"
        },
        {
          "internalType": "uint256[]",
          "name": "prices",
          "type": "uint256[]"
        }
      ],
      "name": "setTokenPrice",
      "outputs": [],
      "stateMutability": "nonpayable",
      "type": "function"
    },
    {
      "inputs": [
        {
          "internalType": "uint256",
          "name": "tokenId",
          "type": "uint256"
        }
      ],
      "name": "acceptOffer",
      "outputs": [],
      "stateMutability": "nonpayable",
      "type": "function"
    },
    {
      "inputs": [
        {
          "internalType": "uint256",
          "name": "tokenId",
          "type": "uint256"
        }
      ],
      "name": "rejectOffer",
      "outputs": [],
      "stateMutability": "nonpayable",
      "type": "function"
    },
    {
      "inputs": [
        {
          "internalType": "uint256",
          "name": "tokenId",
          "type": "uint256"
        },
        {
          "internalType": "address",
          "name": "bidder",
          "type": "address"
        },
        {
          "internalType": "uint256",
          "name": "offer",
          "type": "uint256"
        },
        {
          "internalType": "bool",
          "name": "FromCredit",
          "type": "bool"
        },
        {
          "internalType": "uint256",
          "name": "paymentTokenID",
          "type": "uint256"
        }
      ],
      "name": "submitOffer",
      "outputs": [],
      "stateMutability": "nonpayable",
      "type": "function"
    },
    {
      "inputs": [
        {
          "internalType": "uint256",
          "name": "tokenId",
          "type": "uint256"
        }
      ],
      "name": "withdrawOffer",
      "outputs": [],
      "stateMutability": "nonpayable",
      "type": "function"
    },
    {
      "inputs": [],
      "name": "retrieveIssuer",
      "outputs": [
        {
          "components": [
            {
              "internalType": "address",
              "name": "_owner",
              "type": "address"
            },
            {
              "internalType": "string",
              "name": "_name",
              "type": "string"
            },
            {
              "internalType": "string",
              "name": "_symbol",
              "type": "string"
            },
            {
              "internalType": "uint256",
              "name": "_feeAmount",
              "type": "uint256"
            },
            {
              "internalType": "uint256",
              "name": "_feeDecimals",
              "type": "uint256"
            },
            {
              "internalType": "enum Library.PaymentPlans",
              "name": "_paymentPlan",
              "type": "uint8"
            }
          ],
          "internalType": "struct ItemsLibrary._issuerStruct",
          "name": "",
          "type": "tuple"
        },
        {
          "internalType": "uint256",
          "name": "",
          "type": "uint256"
        }
      ],
      "stateMutability": "view",
      "type": "function",
      "constant": true
    },
    {
      "inputs": [
        {
          "internalType": "uint256",
          "name": "tokenId",
          "type": "uint256"
        }
      ],
      "name": "retrieveToken",
      "outputs": [
        {
          "components": [
            {
              "internalType": "enum Library.PaymentPlans",
              "name": "_paymentPlan",
              "type": "uint8"
            },
            {
              "internalType": "uint256[]",
              "name": "_prices",
              "type": "uint256[]"
            }
          ],
          "internalType": "struct INFTMarket._tokenStruct",
          "name": "",
          "type": "tuple"
        },
        {
          "internalType": "address",
          "name": "",
          "type": "address"
        }
      ],
      "stateMutability": "view",
      "type": "function",
      "constant": true
    },
    {
      "inputs": [
        {
          "internalType": "uint256",
          "name": "tokenId",
          "type": "uint256"
        }
      ],
      "name": "retrieveOffer",
      "outputs": [
        {
          "components": [
            {
              "internalType": "uint256",
              "name": "_offer",
              "type": "uint256"
            },
            {
              "internalType": "uint256",
              "name": "_paymentTokenID",
              "type": "uint256"
            },
            {
              "internalType": "address",
              "name": "_sender",
              "type": "address"
            },
            {
              "internalType": "address",
              "name": "_bidder",
              "type": "address"
            },
            {
              "internalType": "uint256",
              "name": "_deadline",
              "type": "uint256"
            }
          ],
          "internalType": "struct INFTMarket._offerStruct",
          "name": "",
          "type": "tuple"
        }
      ],
      "stateMutability": "view",
      "type": "function",
      "constant": true
    }
  ],
  "bytecode": "0x608060405234801561001057600080fd5b50614d58806100206000396000f3fe608060405234801561001057600080fd5b50600436106101545760003560e01c806301ffc9a71461015957806306fdde0314610181578063081812fc14610196578063095ea7b3146101b657806323b872dd146101cb57806342842e0e146101de57806346aeda50146101f15780635542f680146102045780635b362e84146102255780636352211e1461023c5780636dfe83461461024f57806370a08231146102625780638610f0451461028357806388b10c751461029657806393f82e16146102a957806395d89b41146102bc57806398a7541d146102c45780639d16764f146102d7578063a22cb465146102ea578063a6f9dae1146102fd578063aa91855014610310578063af48907a14610323578063b88d4fde14610336578063c815729d14610349578063c87b56dd1461035c578063ca25f9e41461036f578063cf0ba57514610385578063e985e9c5146103e6575b600080fd5b61016c6101673660046141ad565b6103f9565b60405190151581526020015b60405180910390f35b61018961044b565b60405161017891906145ff565b6101a96101a436600461427e565b6104dd565b6040516101789190614467565b6101c96101c4366004613fc9565b61056a565b005b6101c96101d9366004613ed4565b61067b565b6101c96101ec366004613ed4565b6106ad565b6101c96101ff366004614308565b6106c8565b61021761021236600461427e565b610df9565b6040516101789291906148d5565b6000546201000090046001600160a01b03166101a9565b6101a961024a36600461427e565b610ec1565b6101c961025d366004614347565b610f38565b610275610270366004613dbe565b611084565b604051908152602001610178565b6101c961029136600461427e565b61110b565b6101c96102a436600461427e565b6111fe565b6101c96102b736600461425d565b61129b565b61018961133d565b6101c96102d2366004613e14565b61134c565b6101c96102e536600461427e565b6114b2565b6101c96102f8366004613f94565b61151a565b6101c961030b366004613dbe565b611529565b6101c961031e36600461438d565b6115bf565b6101c9610331366004614297565b6116a3565b6101c9610344366004613f15565b611fee565b6101c961035736600461427e565b612020565b61018961036a36600461427e565b612790565b610377612868565b60405161017892919061484d565b61039861039336600461427e565b6128e9565b604051610178919081518152602080830151908201526040808301516001600160a01b0390811691830191909152606080840151909116908201526080918201519181019190915260a00190565b61016c6103f4366004613ddb565b61298a565b60006001600160e01b031982166380ac58cd60e01b148061042a57506001600160e01b03198216635b5e139f60e01b145b8061044557506301ffc9a760e01b6001600160e01b03198316145b92915050565b60606065805461045a90614bfc565b80601f016020809104026020016040519081016040528092919081815260200182805461048690614bfc565b80156104d35780601f106104a8576101008083540402835291602001916104d3565b820191906000526020600020905b8154815290600101906020018083116104b657829003601f168201915b5050505050905090565b60006104e8826129b8565b61054e5760405162461bcd60e51b815260206004820152602c60248201527f4552433732313a20617070726f76656420717565727920666f72206e6f6e657860448201526b34b9ba32b73a103a37b5b2b760a11b60648201526084015b60405180910390fd5b506000908152606960205260409020546001600160a01b031690565b600061057582610ec1565b9050806001600160a01b0316836001600160a01b031614156105e35760405162461bcd60e51b815260206004820152602160248201527f4552433732313a20617070726f76616c20746f2063757272656e74206f776e656044820152603960f91b6064820152608401610545565b336001600160a01b03821614806105ff57506105ff813361298a565b61066c5760405162461bcd60e51b815260206004820152603860248201527f4552433732313a20617070726f76652063616c6c6572206973206e6f74206f776044820152771b995c881b9bdc88185c1c1c9bdd995908199bdc88185b1b60421b6064820152608401610545565b61067683836129d5565b505050565b610686335b82612a43565b6106a25760405162461bcd60e51b81526004016105459061477a565b610676838383612b0d565b61067683838360405180602001604052806000815250611fee565b84600080828152609d602052604090206004015442116106fa5760405162461bcd60e51b8152600401610545906146a8565b868584609c6000848152602001908152602001600020600101818154811061072457610724614ca8565b906000526020600020015482101561078a5760405162461bcd60e51b8152602060048201526024808201527f546865206f666665722069732062656c6f7720746865206d696e696d756d20706044820152637269636560e01b6064820152608401610545565b60008a8152609d60205260409020600201546001600160a01b0316156107b3576107b38a612c9b565b86156108df57600060029054906101000a90046001600160a01b03166001600160a01b031663e220ad956040518163ffffffff1660e01b815260040160006040518083038186803b15801561080757600080fd5b505afa15801561081b573d6000803e3d6000fd5b505050506040513d6000823e601f3d908101601f191682016040526108439190810190613ff5565b60018151811061085557610855614ca8565b6020908102919091010151609b5460405163a67a1e3760e01b81526004810191909152602481018c9052336044820152606481018a9052608481018890526001600160a01b039091169063a67a1e379060a401600060405180830381600087803b1580156108c257600080fd5b505af11580156108d6573d6000803e3d6000fd5b50505050610d31565b60408051600380825260808201909252600091602082016060803683375050604051631635719760e31b81526001600482015291925073__UintLibrary___________________________9163b1ab8cb8915060240160206040518083038186803b15801561094d57600080fd5b505af4158015610961573d6000803e3d6000fd5b505050506040513d601f19601f820116820180604052508101906109859190614194565b8160008151811061099857610998614ca8565b6020908102919091010152609b54604051631635719760e31b8152600481019190915273__UintLibrary___________________________9063b1ab8cb89060240160206040518083038186803b1580156109f257600080fd5b505af4158015610a06573d6000803e3d6000fd5b505050506040513d601f19601f82011682018060405250810190610a2a9190614194565b81600181518110610a3d57610a3d614ca8565b6020908102919091010152604051631635719760e31b8152600481018c905273__UintLibrary___________________________9063b1ab8cb89060240160206040518083038186803b158015610a9357600080fd5b505af4158015610aa7573d6000803e3d6000fd5b505050506040513d601f19601f82011682018060405250810190610acb9190614194565b81600281518110610ade57610ade614ca8565b6020908102919091010152604051632431a7cf60e01b815260009073__Library_______________________________90632431a7cf90610b2390859060040161454b565b60006040518083038186803b158015610b3b57600080fd5b505af4158015610b4f573d6000803e3d6000fd5b505050506040513d6000823e601f3d908101601f19168201604052610b7791908101906141e7565b905060008060029054906101000a90046001600160a01b03166001600160a01b031663e220ad956040518163ffffffff1660e01b815260040160006040518083038186803b158015610bc857600080fd5b505afa158015610bdc573d6000803e3d6000fd5b505050506040513d6000823e601f3d908101601f19168201604052610c049190810190613ff5565b600681518110610c1657610c16614ca8565b60200260200101519050806001600160a01b0316632c2ec26833600060029054906101000a90046001600160a01b03166001600160a01b031663e220ad956040518163ffffffff1660e01b815260040160006040518083038186803b158015610c7e57600080fd5b505afa158015610c92573d6000803e3d6000fd5b505050506040513d6000823e601f3d908101601f19168201604052610cba9190810190613ff5565b600181518110610ccc57610ccc614ca8565b60200260200101518e609b54878f6040518763ffffffff1660e01b8152600401610cfb969594939291906144b8565b600060405180830381600087803b158015610d1557600080fd5b505af1158015610d29573d6000803e3d6000fd5b505050505050505b60008a8152609d6020526040902088815560018101879055600281018054336001600160a01b031991821617909155600390910180549091166001600160a01b038b16179055609854610d849042614a83565b60008b8152609d60209081526040918290206004019290925580518a81528915159281019290925281018790526001600160a01b038a169033908c907fb177ff4fc6c3e39d255057b0b848553134c794582cc33ad181bf9ce5ba6a420d9060600160405180910390a450505050505050505050565b6040805180820190915260008152606060208201526000828152609c60205260408120610e2584610ec1565b6040805180820190915282548390829060ff166001811115610e4957610e49614c92565b6001811115610e5a57610e5a614c92565b815260200160018201805480602002602001604051908101604052809291908181526020018280548015610ead57602002820191906000526020600020905b815481526020019060010190808311610e99575b505050505081525050915091509150915091565b6000818152606760205260408120546001600160a01b0316806104455760405162461bcd60e51b815260206004820152602960248201527f4552433732313a206f776e657220717565727920666f72206e6f6e657869737460448201526832b73a103a37b5b2b760b91b6064820152608401610545565b81610f4233610680565b610f5e5760405162461bcd60e51b81526004016105459061472d565b827f23c808a384b08b07c6dec68cc81c9add771fa6043e5e089e62a712f5333b11e9609c600086815260200190815260200160002060010184604051610fa592919061458f565b60405180910390a260005b825181101561107e576000848152609c602052604090206001015481101561102457828181518110610fe457610fe4614ca8565b6020026020010151609c6000868152602001908152602001600020600101828154811061101357611013614ca8565b60009182526020909120015561106c565b609c600085815260200190815260200160002060010183828151811061104c5761104c614ca8565b602090810291909101810151825460018101845560009384529190922001555b8061107681614c37565b915050610fb0565b50505050565b60006001600160a01b0382166110ef5760405162461bcd60e51b815260206004820152602a60248201527f4552433732313a2062616c616e636520717565727920666f7220746865207a65604482015269726f206164647265737360b01b6064820152608401610545565b506001600160a01b031660009081526068602052604090205490565b80600080828152609d6020526040902060040154421161113d5760405162461bcd60e51b8152600401610545906146a8565b6000838152609d60205260409020600201546001600160a01b031633146111bc5760405162461bcd60e51b815260206004820152602d60248201527f4f6e6c7920746865206f726967696e616c2073656e6465722063616e2077697460448201526c1a191c985dc81d1a1948189a59609a1b6064820152608401610545565b6111c583612c9b565b6111ce83612ea6565b60405183907f94b71a540d883ff6ff22bd47377cfb303fb9e624812d909e0f04198e606b37df90600090a2505050565b8061120833610680565b6112245760405162461bcd60e51b81526004016105459061472d565b8160016000828152609d60205260409020600401544211156112585760405162461bcd60e51b8152600401610545906147cb565b61126184612c9b565b61126a84612ea6565b60405184907f8066a8132ff25ec62d01ed52cd55ddbae09c3c3e07e29d7c3de2ab2f44312aa390600090a250505050565b60975433906001600160a01b031681146112c75760405162461bcd60e51b815260040161054590614612565b7f0f6280276bfde6f31b6ca64ae1d1b7443f954a37caad3b1504f361841ec93e39609760149054906101000a900460ff16836040516113079291906145e4565b60405180910390a16097805483919060ff60a01b1916600160a01b83600181111561133457611334614c92565b02179055505050565b60606066805461045a90614bfc565b600054610100900460ff166113675760005460ff161561136b565b303b155b6113875760405162461bcd60e51b8152600401610545906146df565b600054610100900460ff161580156113a9576000805461ffff19166101011790555b848473__Library_______________________________63bdbff48783836040518363ffffffff1660e01b81526004016113e4929190614975565b60006040518083038186803b1580156113fc57600080fd5b505af4158015611410573d6000803e3d6000fd5b5050505061141d8c612ee4565b6114278a8a612f78565b609780546001600160a01b0319166001600160a01b038d1617905560ff8416600181111561145757611457614c92565b6097805460ff60a01b1916600160a01b83600181111561147957611479614c92565b0217905550505060988690556099859055609a849055609b83905580156114a6576000805461ff00191690555b50505050505050505050565b60975433906001600160a01b031681146114de5760405162461bcd60e51b815260040161054590614612565b6098546040518381527ff3c2669e9a3f991cccc770ce527bedc7455f04ceb7e85ab4a76010664264a5a89060200160405180910390a250609855565b611525338383612fb9565b5050565b60975433906001600160a01b031681146115555760405162461bcd60e51b815260040161054590614612565b6097546040516001600160a01b03909116907f8ed2cc08e61acbfdbcf3b71ad64556a3bf3968c3eb0f63e668fa50743e2db37c90611594908590614467565b60405180910390a250609780546001600160a01b0319166001600160a01b0392909216919091179055565b60975433906001600160a01b031681146115eb5760405162461bcd60e51b815260040161054590614612565b828273__Library_______________________________63bdbff48783836040518363ffffffff1660e01b8152600401611626929190614975565b60006040518083038186803b15801561163e57600080fd5b505af4158015611652573d6000803e3d6000fd5b50505050609a546099547f66b7f276cd6890c8ca84d869084baa18448ac900272b64d7ba639478f0afbcd8878760405161168d929190614975565b60405180910390a3505050609991909155609a55565b60975433906001600160a01b031681146116cf5760405162461bcd60e51b815260040161054590614612565b60008080609754600160a01b900460ff1660018111156116f1576116f1614c92565b1415611eeb5760008060029054906101000a90046001600160a01b03166001600160a01b031663e220ad956040518163ffffffff1660e01b815260040160006040518083038186803b15801561174657600080fd5b505afa15801561175a573d6000803e3d6000fd5b505050506040513d6000823e601f3d908101601f191682016040526117829190810190613ff5565b60028151811061179457611794614ca8565b60200260200101516001600160a01b031663b049473f6040518163ffffffff1660e01b815260040160006040518083038186803b1580156117d457600080fd5b505afa1580156117e8573d6000803e3d6000fd5b505050506040513d6000823e601f3d908101601f191682016040526118109190810190614095565b5050905080858151811061182657611826614ca8565b60200260200101516002600381111561184157611841614c92565b8151811061185157611851614ca8565b6020026020010151925080858151811061186d5761186d614ca8565b602002602001015160038081111561188757611887614c92565b8151811061189757611897614ca8565b602002602001015191508515611c0857600060029054906101000a90046001600160a01b03166001600160a01b031663e220ad956040518163ffffffff1660e01b815260040160006040518083038186803b1580156118f557600080fd5b505afa158015611909573d6000803e3d6000fd5b505050506040513d6000823e601f3d908101601f191682016040526119319190810190613ff5565b60018151811061194357611943614ca8565b60200260200101516001600160a01b03166304226b88609b543386600060029054906101000a90046001600160a01b03166001600160a01b031663e220ad956040518163ffffffff1660e01b815260040160006040518083038186803b1580156119ac57600080fd5b505afa1580156119c0573d6000803e3d6000fd5b505050506040513d6000823e601f3d908101601f191682016040526119e89190810190613ff5565b6002815181106119fa576119fa614ca8565b60200260200101518a6040518663ffffffff1660e01b8152600401611a2395949392919061491a565b600060405180830381600087803b158015611a3d57600080fd5b505af1158015611a51573d6000803e3d6000fd5b50505050600060029054906101000a90046001600160a01b03166001600160a01b031663e220ad956040518163ffffffff1660e01b815260040160006040518083038186803b158015611aa357600080fd5b505afa158015611ab7573d6000803e3d6000fd5b505050506040513d6000823e601f3d908101601f19168201604052611adf9190810190613ff5565b600181518110611af157611af1614ca8565b60200260200101516001600160a01b03166304226b88609b543385600060029054906101000a90046001600160a01b03166001600160a01b031663e220ad956040518163ffffffff1660e01b815260040160006040518083038186803b158015611b5a57600080fd5b505afa158015611b6e573d6000803e3d6000fd5b505050506040513d6000823e601f3d908101601f19168201604052611b969190810190613ff5565b600581518110611ba857611ba8614ca8565b60200260200101518a6040518663ffffffff1660e01b8152600401611bd195949392919061491a565b600060405180830381600087803b158015611beb57600080fd5b505af1158015611bff573d6000803e3d6000fd5b50505050611ee9565b60008060029054906101000a90046001600160a01b03166001600160a01b031663e220ad956040518163ffffffff1660e01b815260040160006040518083038186803b158015611c5757600080fd5b505afa158015611c6b573d6000803e3d6000fd5b505050506040513d6000823e601f3d908101601f19168201604052611c939190810190613ff5565b600681518110611ca557611ca5614ca8565b60200260200101519050806001600160a01b0316632c2ec26833600060029054906101000a90046001600160a01b03166001600160a01b031663e220ad956040518163ffffffff1660e01b815260040160006040518083038186803b158015611d0d57600080fd5b505afa158015611d21573d6000803e3d6000fd5b505050506040513d6000823e601f3d908101601f19168201604052611d499190810190613ff5565b600281518110611d5b57611d5b614ca8565b602002602001015187609b54604051806020016040528060008152508c6040518763ffffffff1660e01b8152600401611d99969594939291906144b8565b600060405180830381600087803b158015611db357600080fd5b505af1158015611dc7573d6000803e3d6000fd5b50505050806001600160a01b0316632c2ec26833600060029054906101000a90046001600160a01b03166001600160a01b031663e220ad956040518163ffffffff1660e01b815260040160006040518083038186803b158015611e2957600080fd5b505afa158015611e3d573d6000803e3d6000fd5b505050506040513d6000823e601f3d908101601f19168201604052611e659190810190613ff5565b600581518110611e7757611e77614ca8565b602002602001015186609b54604051806020016040528060008152508c6040518763ffffffff1660e01b8152600401611eb5969594939291906144b8565b600060405180830381600087803b158015611ecf57600080fd5b505af1158015611ee3573d6000803e3d6000fd5b50505050505b505b611ef58789613084565b60005b8651811015611f5a57609c60008a8152602001908152602001600020600101878281518110611f2957611f29614ca8565b6020908102919091018101518254600181018455600093845291909220015580611f5281614c37565b915050611ef8565b506097546000898152609c602052604090208054600160a01b90920460ff169160ff191660018381811115611f9157611f91614c92565b021790555060975460405189917f23696c9835867c8684a30cb187014c8532259cbdf78f056d8fbf0c5085bbd29a91611fdc918b918b91600160a01b900460ff169088908890614505565b60405180910390a25050505050505050565b611ff83383612a43565b6120145760405162461bcd60e51b81526004016105459061477a565b61107e8484848461309e565b8061202a33610680565b6120465760405162461bcd60e51b81526004016105459061472d565b8160016000828152609d602052604090206004015442111561207a5760405162461bcd60e51b8152600401610545906147cb565b6000848152609d60205260409020600301546001600160a01b031661209e85610ec1565b6000868152609d602052604090819020805460019091015491516001600160a01b03939093169288927f93613c8ef079eb86315ad3a9e0cdf8e9dd142d6bfe0f2dc7e448da0608fdecaf926120f592909190614975565b60405180910390a460008060008061210c886130d1565b935093509350935060008284866121239190614a83565b61212d9190614a83565b60405163bdbff48760e01b815290915073__Library_______________________________9063bdbff487906121699084908690600401614975565b60006040518083038186803b15801561218157600080fd5b505af4158015612195573d6000803e3d6000fd5b505050506000818360026121a99190614a83565b6121b490600a614af2565b6121be9190614bb9565b90506121ff6121cc8b610ec1565b60008c8152609d602090815260408083206003015481519283019091529181526001600160a01b03909116908d9061309e565b6123e58a6040518060800160405280600060029054906101000a90046001600160a01b03166001600160a01b031663e220ad956040518163ffffffff1660e01b815260040160006040518083038186803b15801561225c57600080fd5b505afa158015612270573d6000803e3d6000fd5b505050506040513d6000823e601f3d908101601f191682016040526122989190810190613ff5565b6002815181106122aa576122aa614ca8565b60200260200101516001600160a01b03166001600160a01b03168152602001600060029054906101000a90046001600160a01b03166001600160a01b031663e220ad956040518163ffffffff1660e01b815260040160006040518083038186803b15801561231757600080fd5b505afa15801561232b573d6000803e3d6000fd5b505050506040513d6000823e601f3d908101601f191682016040526123539190810190613ff5565b60058151811061236557612365614ca8565b6020908102919091018101516001600160a01b03908116835260975416908201526040016123928e610ec1565b6001600160a01b03166001600160a01b031681525060405180608001604052808981526020018881526020018a815260200185815250609d60008f81526020019081526020016000206000015487613377565b6123ee8a612ea6565b600060029054906101000a90046001600160a01b03166001600160a01b031663e220ad956040518163ffffffff1660e01b815260040160006040518083038186803b15801561243c57600080fd5b505afa158015612450573d6000803e3d6000fd5b505050506040513d6000823e601f3d908101601f191682016040526124789190810190613ff5565b60018151811061248a5761248a614ca8565b60200260200101516001600160a01b031663a37b58d5609b54600060029054906101000a90046001600160a01b03166001600160a01b031663e220ad956040518163ffffffff1660e01b815260040160006040518083038186803b1580156124f157600080fd5b505afa158015612505573d6000803e3d6000fd5b505050506040513d6000823e601f3d908101601f1916820160405261252d9190810190613ff5565b60028151811061253f5761253f614ca8565b60209081029190910181015160008f8152609d835260408082206001015481519485018252918452516001600160e01b031960e087901b168152612587949390600401614948565b600060405180830381600087803b1580156125a157600080fd5b505af11580156125b5573d6000803e3d6000fd5b50505050600060029054906101000a90046001600160a01b03166001600160a01b031663e220ad956040518163ffffffff1660e01b815260040160006040518083038186803b15801561260757600080fd5b505afa15801561261b573d6000803e3d6000fd5b505050506040513d6000823e601f3d908101601f191682016040526126439190810190613ff5565b60018151811061265557612655614ca8565b60200260200101516001600160a01b031663a37b58d5609b54600060029054906101000a90046001600160a01b03166001600160a01b031663e220ad956040518163ffffffff1660e01b815260040160006040518083038186803b1580156126bc57600080fd5b505afa1580156126d0573d6000803e3d6000fd5b505050506040513d6000823e601f3d908101601f191682016040526126f89190810190613ff5565b60058151811061270a5761270a614ca8565b60209081029190910181015160008f8152609d835260408082206001015481519485018252918452516001600160e01b031960e087901b168152612752949390600401614948565b600060405180830381600087803b15801561276c57600080fd5b505af1158015612780573d6000803e3d6000fd5b5050505050505050505050505050565b606061279b826129b8565b6127ff5760405162461bcd60e51b815260206004820152602f60248201527f4552433732314d657461646174613a2055524920717565727920666f72206e6f60448201526e3732bc34b9ba32b73a103a37b5b2b760891b6064820152608401610545565b600061281660408051602081019091526000815290565b905060008151116128365760405180602001604052806000815250612861565b80612840846136f2565b604051602001612851929190614438565b6040516020818303038152906040525b9392505050565b612870613b85565b6040805160c081019091526097546001600160a01b031681526000906020810161289861044b565b81526020016128a561133d565b81526020016099548152602001609a548152602001609760149054906101000a900460ff1660018111156128db576128db614c92565b815250609854915091509091565b61292d6040518060a00160405280600081526020016000815260200160006001600160a01b0316815260200160006001600160a01b03168152602001600081525090565b506000908152609d6020908152604091829020825160a0810184528154815260018201549281019290925260028101546001600160a01b039081169383019390935260038101549092166060820152600490910154608082015290565b6001600160a01b039182166000908152606a6020908152604080832093909416825291909152205460ff1690565b6000908152606760205260409020546001600160a01b0316151590565b600081815260696020526040902080546001600160a01b0319166001600160a01b0384169081179091558190612a0a82610ec1565b6001600160a01b03167f8c5be1e5ebec7d5bd14f71427d1e84f3dd0314c0f7b2291e5b200ac8c7c3b92560405160405180910390a45050565b6000612a4e826129b8565b612aaf5760405162461bcd60e51b815260206004820152602c60248201527f4552433732313a206f70657261746f7220717565727920666f72206e6f6e657860448201526b34b9ba32b73a103a37b5b2b760a11b6064820152608401610545565b6000612aba83610ec1565b9050806001600160a01b0316846001600160a01b03161480612af55750836001600160a01b0316612aea846104dd565b6001600160a01b0316145b80612b055750612b05818561298a565b949350505050565b826001600160a01b0316612b2082610ec1565b6001600160a01b031614612b885760405162461bcd60e51b815260206004820152602960248201527f4552433732313a207472616e73666572206f6620746f6b656e2074686174206960448201526839903737ba1037bbb760b91b6064820152608401610545565b6001600160a01b038216612bea5760405162461bcd60e51b8152602060048201526024808201527f4552433732313a207472616e7366657220746f20746865207a65726f206164646044820152637265737360e01b6064820152608401610545565b612bf56000826129d5565b6001600160a01b0383166000908152606860205260408120805460019290612c1e908490614bb9565b90915550506001600160a01b0382166000908152606860205260408120805460019290612c4c908490614a83565b909155505060008181526067602052604080822080546001600160a01b0319166001600160a01b038681169182179092559151849391871691600080516020614d0383398151915291a4505050565b60408051600180825281830190925260009160208083019080368337505060408051600180825281830190925292935060009291506020808301908036833750506040805160018082528183019092529293506000929150602080830190803683375050506000858152609d602052604081206002015485519293506001600160a01b031691859190612d3057612d30614ca8565b6001600160a01b039092166020928302919091018201526000858152609d9091526040812054835190918491612d6857612d68614ca8565b602002602001018181525050600181600081518110612d8957612d89614ca8565b602002602001018181525050600060029054906101000a90046001600160a01b03166001600160a01b031663e220ad956040518163ffffffff1660e01b815260040160006040518083038186803b158015612de357600080fd5b505afa158015612df7573d6000803e3d6000fd5b505050506040513d6000823e601f3d908101601f19168201604052612e1f9190810190613ff5565b600181518110612e3157612e31614ca8565b60200260200101516001600160a01b03166391c0734b609b54868686866040518663ffffffff1660e01b8152600401612e6e959493929190614983565b600060405180830381600087803b158015612e8857600080fd5b505af1158015612e9c573d6000803e3d6000fd5b5050505050505050565b6000908152609d60205260408120818155600181018290556002810180546001600160a01b0319908116909155600382018054909116905560040155565b600054610100900460ff16612eff5760005460ff1615612f03565b303b155b612f1f5760405162461bcd60e51b8152600401610545906146df565b600054610100900460ff16158015612f41576000805461ffff19166101011790555b6000805462010000600160b01b031916620100006001600160a01b038516021790558015611525576000805461ff00191690555050565b600054610100900460ff16612f9f5760405162461bcd60e51b815260040161054590614802565b612fa76137ef565b612faf6137ef565b6115258282613818565b816001600160a01b0316836001600160a01b031614156130175760405162461bcd60e51b815260206004820152601960248201527822a9219b99189d1030b8383937bb32903a379031b0b63632b960391b6044820152606401610545565b6001600160a01b038381166000818152606a6020908152604080832094871680845294825291829020805460ff191686151590811790915591519182527f17307eab39ab6107e8899845ad3d59bd9653f200f220920489ca2b5937696c31910160405180910390a3505050565b611525828260405180602001604052806000815250613866565b6130a9848484612b0d565b6130b584848484613899565b61107e5760405162461bcd60e51b815260040161054590614656565b609954609a546000838152609c602052604081205490928392839283929190839081908190819060ff16600181111561310c5761310c614c92565b600114156132da5760008060029054906101000a90046001600160a01b03166001600160a01b031663e220ad956040518163ffffffff1660e01b815260040160006040518083038186803b15801561316357600080fd5b505afa158015613177573d6000803e3d6000fd5b505050506040513d6000823e601f3d908101601f1916820160405261319f9190810190613ff5565b6002815181106131b1576131b1614ca8565b60200260200101516001600160a01b031663b049473f6040518163ffffffff1660e01b815260040160006040518083038186803b1580156131f157600080fd5b505afa158015613205573d6000803e3d6000fd5b505050506040513d6000823e601f3d908101601f1916820160405261322d9190810190614095565b50915081905060008151811061324557613245614ca8565b60200260200101519450806001600381111561326357613263614c92565b8151811061327357613273614ca8565b60200260200101519350806002600381111561329157613291614c92565b815181106132a1576132a1614ca8565b60200260200101519250806003808111156132be576132be614c92565b815181106132ce576132ce614ca8565b60200260200101519150505b60006132ff6040518060600160405280888152602001868152602001848152506139a6565b905061330b8682614bb9565b61331690600a614af2565b6133209088614b9a565b965061332c8482614bb9565b61333790600a614af2565b6133419086614b9a565b945061334d8282614bb9565b61335890600a614af2565b6133629084614b9a565b969c949b509599509497509195505050505050565b600061338560046002614b9a565b6001600160401b0381111561339c5761339c614cbe565b6040519080825280602002602001820160405280156133c5578160200160208202803683370190505b50905060006133d660046002614b9a565b6001600160401b038111156133ed576133ed614cbe565b604051908082528060200260200182016040528015613416578160200160208202803683370190505b509050600061342760046002614b9a565b6001600160401b0381111561343e5761343e614cbe565b604051908082528060200260200182016040528015613467578160200160208202803683370190505b50905060008060008060005b60048110156135d85761349d8a8c836004811061349257613492614ca8565b60200201518b613a05565b919650945092508b81600481106134b6576134b6614ca8565b60200201518883815181106134cd576134cd614ca8565b60200260200101906001600160a01b031690816001600160a01b0316815250508487838151811061350057613500614ca8565b60209081029190910101526001868361351881614c37565b94508151811061352a5761352a614ca8565b6020026020010181815250508b816004811061354857613548614ca8565b602002015188838151811061355f5761355f614ca8565b60200260200101906001600160a01b031690816001600160a01b0316815250508387838151811061359257613592614ca8565b60209081029190910101528286836135a981614c37565b9450815181106135bb576135bb614ca8565b6020908102919091010152806135d081614c37565b915050613473565b50600060029054906101000a90046001600160a01b03166001600160a01b031663e220ad956040518163ffffffff1660e01b815260040160006040518083038186803b15801561362757600080fd5b505afa15801561363b573d6000803e3d6000fd5b505050506040513d6000823e601f3d908101601f191682016040526136639190810190613ff5565b60018151811061367557613675614ca8565b60200260200101516001600160a01b03166391c0734b609b548e8a8a8a6040518663ffffffff1660e01b81526004016136b2959493929190614983565b600060405180830381600087803b1580156136cc57600080fd5b505af11580156136e0573d6000803e3d6000fd5b50505050505050505050505050505050565b6060816137165750506040805180820190915260018152600360fc1b602082015290565b8160005b8115613740578061372a81614c37565b91506137399050600a83614a9b565b915061371a565b6000816001600160401b0381111561375a5761375a614cbe565b6040519080825280601f01601f191660200182016040528015613784576020820181803683370190505b5090505b8415612b0557613799600183614bb9565b91506137a6600a86614c52565b6137b1906030614a83565b60f81b8183815181106137c6576137c6614ca8565b60200101906001600160f81b031916908160001a9053506137e8600a86614a9b565b9450613788565b600054610100900460ff166138165760405162461bcd60e51b815260040161054590614802565b565b600054610100900460ff1661383f5760405162461bcd60e51b815260040161054590614802565b8151613852906065906020850190613bd4565b508051610676906066906020840190613bd4565b6138708383613a65565b61387d6000848484613899565b6106765760405162461bcd60e51b815260040161054590614656565b60006001600160a01b0384163b1561399b57604051630a85bd0160e11b81526001600160a01b0385169063150b7a02906138dd90339089908890889060040161447b565b602060405180830381600087803b1580156138f757600080fd5b505af1925050508015613927575060408051601f3d908101601f19168201909252613924918101906141ca565b60015b613981573d808015613955576040519150601f19603f3d011682016040523d82523d6000602084013e61395a565b606091505b5080516139795760405162461bcd60e51b815260040161054590614656565b805181602001fd5b6001600160e01b031916630a85bd0160e11b149050612b05565b506001949350505050565b600080805b60038110156139fe578381600381106139c6576139c6614ca8565b60200201518210156139ec578381600381106139e4576139e4614ca8565b602002015191505b806139f681614c37565b9150506139ab565b5092915050565b6000808080613a148688614b9a565b90506000613a2386600a614af2565b613a2e906064614b9a565b90506000613a3c8284614a9b565b90506000613a4a8383614b9a565b613a549085614bb9565b919a91995091975095505050505050565b6001600160a01b038216613abb5760405162461bcd60e51b815260206004820181905260248201527f4552433732313a206d696e7420746f20746865207a65726f20616464726573736044820152606401610545565b613ac4816129b8565b15613b105760405162461bcd60e51b815260206004820152601c60248201527b115490cdcc8c4e881d1bdad95b88185b1c9958591e481b5a5b9d195960221b6044820152606401610545565b6001600160a01b0382166000908152606860205260408120805460019290613b39908490614a83565b909155505060008181526067602052604080822080546001600160a01b0319166001600160a01b0386169081179091559051839290600080516020614d03833981519152908290a45050565b6040518060c0016040528060006001600160a01b031681526020016060815260200160608152602001600081526020016000815260200160006001811115613bcf57613bcf614c92565b905290565b828054613be090614bfc565b90600052602060002090601f016020900481019282613c025760008555613c48565b82601f10613c1b57805160ff1916838001178555613c48565b82800160010185558215613c48579182015b82811115613c48578251825591602001919060010190613c2d565b50613c54929150613c58565b5090565b5b80821115613c545760008155600101613c59565b6000613c80613c7b84614a5c565b614a09565b9050828152838383011115613c9457600080fd5b828260208301376000602084830101529392505050565b600082601f830112613cbc57600080fd5b81356020613ccc613c7b83614a39565b80838252828201915082860187848660051b8901011115613cec57600080fd5b60005b85811015613d0b57813584529284019290840190600101613cef565b5090979650505050505050565b600082601f830112613d2957600080fd5b81516020613d39613c7b83614a39565b80838252828201915082860187848660051b8901011115613d5957600080fd5b60005b85811015613d0b57815184529284019290840190600101613d5c565b80358015158114613d8857600080fd5b919050565b600082601f830112613d9e57600080fd5b61286183833560208501613c6d565b803560ff81168114613d8857600080fd5b600060208284031215613dd057600080fd5b813561286181614cd4565b60008060408385031215613dee57600080fd5b8235613df981614cd4565b91506020830135613e0981614cd4565b809150509250929050565b60008060008060008060008060006101208a8c031215613e3357600080fd5b8935613e3e81614cd4565b985060208a0135613e4e81614cd4565b975060408a01356001600160401b0380821115613e6a57600080fd5b613e768d838e01613d8d565b985060608c0135915080821115613e8c57600080fd5b50613e998c828d01613d8d565b96505060808a0135945060a08a0135935060c08a0135925060e08a01359150613ec56101008b01613dad565b90509295985092959850929598565b600080600060608486031215613ee957600080fd5b8335613ef481614cd4565b92506020840135613f0481614cd4565b929592945050506040919091013590565b60008060008060808587031215613f2b57600080fd5b8435613f3681614cd4565b93506020850135613f4681614cd4565b92506040850135915060608501356001600160401b03811115613f6857600080fd5b8501601f81018713613f7957600080fd5b613f8887823560208401613c6d565b91505092959194509250565b60008060408385031215613fa757600080fd5b8235613fb281614cd4565b9150613fc060208401613d78565b90509250929050565b60008060408385031215613fdc57600080fd5b8235613fe781614cd4565b946020939093013593505050565b6000602080838503121561400857600080fd5b82516001600160401b0381111561401e57600080fd5b8301601f8101851361402f57600080fd5b805161403d613c7b82614a39565b80828252848201915084840188868560051b870101111561405d57600080fd5b600094505b8385101561408957805161407581614cd4565b835260019490940193918501918501614062565b50979650505050505050565b6000806000606084860312156140aa57600080fd5b83516001600160401b03808211156140c157600080fd5b818601915086601f8301126140d557600080fd5b815160206140e5613c7b83614a39565b8083825282820191508286018b848660051b890101111561410557600080fd5b60005b858110156141405781518781111561411f57600080fd5b61412d8e87838c0101613d18565b8552509284019290840190600101614108565b50509189015191975090935050508082111561415b57600080fd5b61416787838801613d18565b9350604086015191508082111561417d57600080fd5b5061418a86828701613d18565b9150509250925092565b6000602082840312156141a657600080fd5b5051919050565b6000602082840312156141bf57600080fd5b813561286181614cec565b6000602082840312156141dc57600080fd5b815161286181614cec565b6000602082840312156141f957600080fd5b81516001600160401b0381111561420f57600080fd5b8201601f8101841361422057600080fd5b805161422e613c7b82614a5c565b81815285602083850101111561424357600080fd5b614254826020830160208601614bd0565b95945050505050565b60006020828403121561426f57600080fd5b81356002811061286157600080fd5b60006020828403121561429057600080fd5b5035919050565b600080600080600060a086880312156142af57600080fd5b8535945060208601356142c181614cd4565b935060408601356001600160401b038111156142dc57600080fd5b6142e888828901613cab565b9350506142f760608701613d78565b949793965091946080013592915050565b600080600080600060a0868803121561432057600080fd5b85359450602086013561433281614cd4565b9350604086013592506142f760608701613d78565b6000806040838503121561435a57600080fd5b8235915060208301356001600160401b0381111561437757600080fd5b61438385828601613cab565b9150509250929050565b600080604083850312156143a057600080fd5b50508035926020909101359150565b600081518084526020808501945080840160005b838110156143df578151875295820195908201906001016143c3565b509495945050505050565b60008151808452614402816020860160208601614bd0565b601f01601f19169290920160200192915050565b6002811061443457634e487b7160e01b600052602160045260246000fd5b9052565b6000835161444a818460208801614bd0565b83519083019061445e818360208801614bd0565b01949350505050565b6001600160a01b0391909116815260200190565b6001600160a01b03858116825284166020820152604081018390526080606082018190526000906144ae908301846143ea565b9695505050505050565b6001600160a01b03878116825286166020820152604081018590526060810184905260c0608082018190526000906144f2908301856143ea565b90508260a0830152979650505050505050565b6001600160a01b038616815260a060208201819052600090614529908301876143af565b90506145386040830186614416565b6060820193909352608001529392505050565b6020808252825182820181905260009190848201906040850190845b8181101561458357835183529284019291840191600101614567565b50909695505050505050565b6000604082016040835280855480835260608501915086600052602092508260002060005b828110156145d0578154845292840192600191820191016145b4565b505050838103828501526144ae81866143af565b604081016145f28285614416565b6128616020830184614416565b60208152600061286160208301846143ea565b60208082526024908201527f4f6e6c7920746865204f776e657220697320616c6c6f77656420746f20646f206040820152631d1a185d60e21b606082015260800190565b60208082526032908201527f4552433732313a207472616e7366657220746f206e6f6e20455243373231526560408201527131b2b4bb32b91034b6b83632b6b2b73a32b960711b606082015260800190565b6020808252601d908201527f546865726520697320616e206f6666657220696e2070726f6772657373000000604082015260600190565b6020808252602e908201527f496e697469616c697a61626c653a20636f6e747261637420697320616c72656160408201526d191e481a5b9a5d1a585b1a5e995960921b606082015260800190565b6020808252602d908201527f4f6e6c79206f776e6572206f7220617070726f7665642063616e206368616e6760408201526c6520746f6b656e20707269636560981b606082015260800190565b60208082526031908201527f4552433732313a207472616e736665722063616c6c6572206973206e6f74206f6040820152701ddb995c881b9bdc88185c1c1c9bdd9959607a1b606082015260800190565b6020808252601d908201527f5468657265206973206e6f206f6666657220696e2070726f6772657373000000604082015260600190565b6020808252602b908201527f496e697469616c697a61626c653a20636f6e7472616374206973206e6f74206960408201526a6e697469616c697a696e6760a81b606082015260800190565b604080825283516001600160a01b031690820152602083015160c0606083015260009061487e6101008401826143ea565b90506040850151603f1984830301608085015261489b82826143ea565b915050606085015160a0840152608085015160c084015260a08501516148c460e0850182614416565b506020929092019290925292915050565b604081526148e7604082018451614416565b600060208401516040606084015261490260808401826143af565b91505060018060a01b03831660208301529392505050565b9485526001600160a01b03938416602086015260408501929092529091166060830152608082015260a00190565b84815260018060a01b03841660208201528260408201526080606082015260006144ae60808301846143ea565b918252602082015260400190565b600060a082018783526020878185015260a0604085015281875180845260c086019150828901935060005b818110156149d35784516001600160a01b0316835293830193918301916001016149ae565b505084810360608601526149e781886143af565b9250505082810360808401526149fd81856143af565b98975050505050505050565b604051601f8201601f191681016001600160401b0381118282101715614a3157614a31614cbe565b604052919050565b60006001600160401b03821115614a5257614a52614cbe565b5060051b60200190565b60006001600160401b03821115614a7557614a75614cbe565b50601f01601f191660200190565b60008219821115614a9657614a96614c66565b500190565b600082614aaa57614aaa614c7c565b500490565b600181815b80851115614aea578160001904821115614ad057614ad0614c66565b80851615614add57918102915b93841c9390800290614ab4565b509250929050565b60006128618383600082614b0857506001610445565b81614b1557506000610445565b8160018114614b2b5760028114614b3557614b51565b6001915050610445565b60ff841115614b4657614b46614c66565b50506001821b610445565b5060208310610133831016604e8410600b8410161715614b74575081810a610445565b614b7e8383614aaf565b8060001904821115614b9257614b92614c66565b029392505050565b6000816000190483118215151615614bb457614bb4614c66565b500290565b600082821015614bcb57614bcb614c66565b500390565b60005b83811015614beb578181015183820152602001614bd3565b8381111561107e5750506000910152565b600181811c90821680614c1057607f821691505b60208210811415614c3157634e487b7160e01b600052602260045260246000fd5b50919050565b6000600019821415614c4b57614c4b614c66565b5060010190565b600082614c6157614c61614c7c565b500690565b634e487b7160e01b600052601160045260246000fd5b634e487b7160e01b600052601260045260246000fd5b634e487b7160e01b600052602160045260246000fd5b634e487b7160e01b600052603260045260246000fd5b634e487b7160e01b600052604160045260246000fd5b6001600160a01b0381168114614ce957600080fd5b50565b6001600160e01b031981168114614ce957600080fdfeddf252ad1be2c89b69c2b068fc378daa952ba7f163c4a11628f55a4df523b3efa26469706673582212200ed575197cf941cc0437e3bac65401f938f1997ea25c178f438414bdff6c7f2b64736f6c63430008070033",
  "immutableReferences": {},
  "source": "// SPDX-License-Identifier: GPL-3.0\r\n\r\npragma solidity 0.8.7;\r\n\r\n/**\r\n Certis Token is an ERC20 Token that grants its holder the right to:\r\n   - Vote on all the systems propositions (changing system configuraiton etc...)\r\n   - Receive Dividends for all the payments forwarded to the Treasury contract\r\n\r\nBefore every token transfer we contact the token gouvernance Base contracts so that the can update the tokens used for voting if needed\r\n\r\n */\r\n\r\nimport \"@openzeppelin/contracts-upgradeable/token/ERC721/ERC721Upgradeable.sol\";\r\nimport \"@openzeppelin/contracts-upgradeable/proxy/utils/Initializable.sol\";\r\nimport \"../Base/ManagedBaseContract.sol\";\r\nimport \"../Libraries/Library.sol\";\r\nimport \"../Libraries/UintLibrary.sol\";\r\nimport \"../Libraries/ItemsLibrary.sol\";\r\nimport \"../Interfaces/ITreasury.sol\";\r\nimport \"../Interfaces/IPool.sol\";\r\nimport \"../Interfaces/INFTMarket.sol\";\r\nimport \"../Interfaces/IPayments.sol\";\r\n\r\n contract NFTMarket is  INFTMarket, Initializable, ManagedBaseContract, ERC721Upgradeable {\r\n    using Library for *;\r\n    using UintLibrary for *;\r\n    using ItemsLibrary for *;\r\n\r\n\r\n  // EVENTS /////////////////////////////////////////\r\n  event _NewOwner(address indexed formerOwner, address newOwner);\r\n  event _NewPaymentPlan(Library.PaymentPlans formerPlan, Library.PaymentPlans newPlan);\r\n  event _NewOffersLifeTime(uint256 indexed formerLifeTime, uint256 newLifeTime);\r\n  event _NewOwnerFees(uint256 indexed formerAmount, uint256 indexed formerDecimals, uint256 newAmount, uint256 newDecimals);\r\n\r\n  event _MintToken(uint256 indexed tokenId, address receiver, uint256[] prices, Library.PaymentPlans plan, uint256 MintingFee, uint256 AdminMintingFee);\r\n  event _SetTokenPrice(uint256 indexed tokenId, uint256[] formerPrices, uint256[] newPrices);\r\n  event _SubmitOffer(uint256 indexed tokenId, address indexed sender, address indexed bidder, uint256 offer, bool FromCredit, uint256 paymentTokenID);\r\n  event _AcceptOffer(uint256 indexed tokenId, address indexed formerOwner, address indexed newOwner, uint256 offer, uint256 paymentTokenID);\r\n  event _RejectOffer(uint256 indexed tokenId);\r\n  event _WithdrawOffer(uint256 indexed tokenId);\r\n  \r\n\r\n  // DATA /////////////////////////////////////////\r\n  address _owner;\r\n  Library.PaymentPlans _paymentPlan;\r\n  uint256 _offersLifeTime;\r\n  uint256 _ownerTransferFeeAmount;\r\n  uint256 _ownerTransferFeeDecimals;\r\n  uint256 _issuerID;\r\n\r\n  mapping(uint256 => _tokenStruct) private _tokenInfo;\r\n  mapping(uint256 => _offerStruct) private _tokenOffer;\r\n\r\n\r\n  // MODIFIERS /////////////////////////////////////////\r\n  modifier isTheOwner(address addr){\r\n      require(_owner == addr, \"Only the Owner is allowed to do that\");\r\n      _;\r\n  }\r\n\r\n  modifier isTokenOwnerOrApproved(uint256 tokenId){\r\n      require(_isApprovedOrOwner(_msgSender(), tokenId), \"Only owner or approved can change token price\");\r\n      _;\r\n  }\r\n\r\n  modifier OfferInProgress(uint256 tokenId, bool YesOrNo){\r\n      if(YesOrNo) require(block.timestamp <= _tokenOffer[tokenId]._deadline, \"There is no offer in progress\");\r\n      else require(block.timestamp > _tokenOffer[tokenId]._deadline, \"There is an offer in progress\");\r\n      _;\r\n  }\r\n\r\n  modifier priceOK(uint256 tokenId, uint256 offer, uint256 paymentTokenID){\r\n      require(offer >= _tokenInfo[tokenId]._prices[paymentTokenID], \"The offer is below the minimum price\");\r\n      _;\r\n  }\r\n\r\n  modifier validFees(uint256 fee, uint256 decimals){\r\n    Library.validFees(fee, decimals);\r\n    _;\r\n  }\r\n\r\n  // CONSTRUCTOR /////////////////////////////////////////\r\n  function NFTMarket_init(address managerContractAddress, address owner, string memory name, string memory symbol, uint256 offersLifeTime, uint256 ownerTransferFeeAmount, uint256 ownerTransferFeeDecimals, uint256 issuerID, uint8 paymentPlan) public initializer \r\n    validFees(ownerTransferFeeAmount, ownerTransferFeeDecimals)\r\n  {\r\n      super.ManagedBaseContract_init(managerContractAddress); \r\n      super.__ERC721_init(name, symbol); \r\n\r\n      _owner = owner;\r\n      _paymentPlan = Library.PaymentPlans(paymentPlan);\r\n      _offersLifeTime = offersLifeTime;\r\n      _ownerTransferFeeAmount = ownerTransferFeeAmount;\r\n      _ownerTransferFeeDecimals = ownerTransferFeeDecimals;\r\n      _issuerID = issuerID;\r\n  }\r\n\r\n  // FUNCTIONALITY /////////////////////////////////////////\r\n  function changeOwner(address newOwner) external override\r\n    isTheOwner(msg.sender)\r\n  {\r\n      emit _NewOwner(_owner, newOwner);\r\n      _owner = newOwner;\r\n  }\r\n\r\n  function changePaymentPlan(Library.PaymentPlans newPaymentPlan) external override\r\n    isTheOwner(msg.sender)\r\n  {\r\n      emit _NewPaymentPlan(_paymentPlan, newPaymentPlan);\r\n      _paymentPlan = newPaymentPlan;\r\n  }\r\n\r\n  function changeOffersLifeTime(uint256 newLifeTime) external override\r\n    isTheOwner(msg.sender)\r\n  {\r\n      emit _NewOffersLifeTime(_offersLifeTime, newLifeTime);\r\n      _offersLifeTime = newLifeTime;\r\n  }\r\n\r\n  function changeOwnerTransferFees(uint256 newAmount, uint256 newDecimals) external override\r\n    isTheOwner(msg.sender)\r\n    validFees(newAmount, newDecimals)\r\n  {\r\n      emit _NewOwnerFees(_ownerTransferFeeAmount, _ownerTransferFeeDecimals, newAmount, newDecimals);\r\n      _ownerTransferFeeAmount = newAmount;\r\n      _ownerTransferFeeDecimals = newDecimals;\r\n  }\r\n\r\n  function mintToken(uint256 tokenId, address receiver, uint256[] memory prices, bool FromCredit, uint256 paymentTokenID) external override\r\n    isTheOwner(msg.sender)\r\n  {\r\n      uint256 MintingFee = 0;\r\n      uint256 AdminMintingFee = 0;\r\n\r\n      if(_paymentPlan == Library.PaymentPlans.Minting)\r\n      {\r\n        (uint[][] memory Fees, , ) = ITreasury(_managerContract.retrieveTransparentProxies()[uint256(Library.TransparentProxies.Treasury)]).retrieveSettings();\r\n        MintingFee = Fees[paymentTokenID][uint256(Library.Fees.MintingFee)];\r\n        AdminMintingFee = Fees[paymentTokenID][uint256(Library.Fees.AdminMintingFee)];\r\n\r\n        if(FromCredit){\r\n          IPool(_managerContract.retrieveTransparentProxies()[uint256(Library.TransparentProxies.PublicPool)]).spendCredit(_issuerID, msg.sender, MintingFee, _managerContract.retrieveTransparentProxies()[uint256(Library.TransparentProxies.Treasury)], paymentTokenID);\r\n          IPool(_managerContract.retrieveTransparentProxies()[uint256(Library.TransparentProxies.PublicPool)]).spendCredit(_issuerID, msg.sender, AdminMintingFee, _managerContract.retrieveTransparentProxies()[uint256(Library.TransparentProxies.AdminPiggyBank)], paymentTokenID);\r\n        } \r\n        else{\r\n          IPayments payments = IPayments(_managerContract.retrieveTransparentProxies()[uint256(Library.TransparentProxies.Payments)]);\r\n          payments.TransferFrom(msg.sender, _managerContract.retrieveTransparentProxies()[uint256(Library.TransparentProxies.Treasury)], MintingFee, _issuerID, bytes(\"\"), paymentTokenID);\r\n          payments.TransferFrom(msg.sender, _managerContract.retrieveTransparentProxies()[uint256(Library.TransparentProxies.AdminPiggyBank)], AdminMintingFee, _issuerID, bytes(\"\"), paymentTokenID);\r\n        }\r\n      }\r\n\r\n      _safeMint(receiver, tokenId);\r\n      for(uint256 i=0; i < prices.length; i++){\r\n          _tokenInfo[tokenId]._prices.push(prices[i]);\r\n      }\r\n      _tokenInfo[tokenId]._paymentPlan = _paymentPlan;\r\n\r\n      emit _MintToken(tokenId, receiver, prices, _paymentPlan, MintingFee, AdminMintingFee);\r\n  }\r\n\r\n  function setTokenPrice(uint256 tokenId, uint256[] memory prices) external override\r\n    isTokenOwnerOrApproved(tokenId)\r\n  {\r\n    emit _SetTokenPrice(tokenId, _tokenInfo[tokenId]._prices, prices);\r\n    for(uint256 i=0; i < prices.length; i++){\r\n      if(i < _tokenInfo[tokenId]._prices.length) _tokenInfo[tokenId]._prices[i] = prices[i];\r\n      else _tokenInfo[tokenId]._prices.push(prices[i]);\r\n    }\r\n  }\r\n\r\n  function acceptOffer(uint256 tokenId) external override\r\n    isTokenOwnerOrApproved(tokenId)\r\n    OfferInProgress(tokenId, true)\r\n  {\r\n    emit _AcceptOffer(tokenId, ownerOf(tokenId), _tokenOffer[tokenId]._bidder, _tokenOffer[tokenId]._offer, _tokenOffer[tokenId]._paymentTokenID);\r\n\r\n    (uint256 OwnerTransferFeeAmount, uint256 TransferFeeAmount, uint256 AdminTransferFeeAmount, uint256 commonDecimals) = getFees(tokenId);\r\n\r\n    uint256 TotalFees = OwnerTransferFeeAmount + TransferFeeAmount + AdminTransferFeeAmount;\r\n    Library.validFees(TotalFees, commonDecimals);\r\n\r\n    uint256 percentageForTokenOwner = 10**(commonDecimals + 2) - TotalFees;\r\n\r\n    _safeTransfer(ownerOf(tokenId), _tokenOffer[tokenId]._bidder, tokenId, \"\");\r\n\r\n    AllocatePercents(tokenId,\r\n      [_managerContract.retrieveTransparentProxies()[uint256(Library.TransparentProxies.Treasury)], _managerContract.retrieveTransparentProxies()[uint256(Library.TransparentProxies.AdminPiggyBank)], _owner, ownerOf(tokenId)],\r\n      [TransferFeeAmount, AdminTransferFeeAmount, OwnerTransferFeeAmount, percentageForTokenOwner],\r\n      _tokenOffer[tokenId]._offer,\r\n      commonDecimals);\r\n\r\n    removeOffer(tokenId);\r\n\r\n    IPool(_managerContract.retrieveTransparentProxies()[uint256(Library.TransparentProxies.PublicPool)]).withdrawAllFor(_issuerID,\r\n      _managerContract.retrieveTransparentProxies()[uint256(Library.TransparentProxies.Treasury)],\r\n      _tokenOffer[tokenId]._paymentTokenID,\r\n      bytes(\"\"));\r\n    IPool(_managerContract.retrieveTransparentProxies()[uint256(Library.TransparentProxies.PublicPool)]).withdrawAllFor(_issuerID,\r\n      _managerContract.retrieveTransparentProxies()[uint256(Library.TransparentProxies.AdminPiggyBank)],\r\n      _tokenOffer[tokenId]._paymentTokenID,\r\n      bytes(\"\"));\r\n  }\r\n\r\n  function getFees(uint256 tokenId) internal view returns(uint256, uint256, uint256, uint256)\r\n  {\r\n    uint256 OwnerTransferFeeAmount = _ownerTransferFeeAmount;\r\n    uint256 OwnerTransferFeeDecimals = _ownerTransferFeeDecimals;\r\n    uint256 TransferFeeAmount = 0;\r\n    uint256 TransferFeeDecimals = 0;\r\n    uint256 AdminTransferFeeAmount = 0;\r\n    uint256 AdminTransferFeeDecimals = 0;\r\n\r\n    if(Library.PaymentPlans.TransferFee == _tokenInfo[tokenId]._paymentPlan){\r\n        ( , uint[] memory TransferFees, ) = ITreasury(_managerContract.retrieveTransparentProxies()[uint256(Library.TransparentProxies.Treasury)]).retrieveSettings();\r\n        TransferFeeAmount = TransferFees[uint256(Library.TransferFees.TransferFeeAmount)];\r\n        TransferFeeDecimals = TransferFees[uint256(Library.TransferFees.TransferFeeDecimals)];\r\n        AdminTransferFeeAmount = TransferFees[uint256(Library.TransferFees.AdminTransferFeeAmount)];\r\n        AdminTransferFeeDecimals = TransferFees[uint256(Library.TransferFees.AdminTransferFeeDecimals)];\r\n    }\r\n\r\n    uint256 commonDecimals = getLargest([OwnerTransferFeeDecimals, TransferFeeDecimals, AdminTransferFeeDecimals]); \r\n    OwnerTransferFeeAmount = OwnerTransferFeeAmount * 10**(commonDecimals - OwnerTransferFeeDecimals);\r\n    TransferFeeAmount = TransferFeeAmount * 10**(commonDecimals - TransferFeeDecimals);\r\n    AdminTransferFeeAmount = AdminTransferFeeAmount * 10**(commonDecimals - AdminTransferFeeDecimals);\r\n\r\n    return(OwnerTransferFeeAmount, TransferFeeAmount, AdminTransferFeeAmount, commonDecimals);\r\n  }\r\n    \r\n  function rejectOffer(uint256 tokenId) external override\r\n    isTokenOwnerOrApproved(tokenId)\r\n    OfferInProgress(tokenId, true)\r\n  {\r\n    assignToRejectedSender(tokenId);\r\n    removeOffer(tokenId);\r\n    emit _RejectOffer(tokenId);\r\n  }\r\n\r\n  function removeOffer(uint256 tokenId) internal\r\n  {\r\n    delete(_tokenOffer[tokenId]);\r\n  }\r\n\r\n  function submitOffer(uint256 tokenId, address bidder, uint256 offer, bool FromCredit, uint256 paymentTokenID) external override\r\n    OfferInProgress(tokenId, false)\r\n    priceOK(tokenId, offer, paymentTokenID)\r\n  {\r\n    if(address(0) != _tokenOffer[tokenId]._sender) assignToRejectedSender(tokenId);\r\n\r\n    if(FromCredit)\r\n      IPool(_managerContract.retrieveTransparentProxies()[uint256(Library.TransparentProxies.PublicPool)]).reuseCredit(_issuerID, tokenId,  msg.sender, offer, paymentTokenID);\r\n    \r\n    else{\r\n      bytes32[] memory dataArray = new bytes32[](3);\r\n      dataArray[0] = UintLibrary.UintToBytes32(uint256(Library.PublicPoolPaymentTypes.TransferUnassignedCredit));\r\n      dataArray[1] = UintLibrary.UintToBytes32(_issuerID);\r\n      dataArray[2] = UintLibrary.UintToBytes32(tokenId);\r\n      bytes memory data = Library.Bytes32ArrayToBytes(dataArray);\r\n\r\n      IPayments payments = IPayments(_managerContract.retrieveTransparentProxies()[uint256(Library.TransparentProxies.Payments)]);\r\n      payments.TransferFrom(msg.sender, _managerContract.retrieveTransparentProxies()[uint256(Library.TransparentProxies.PublicPool)], offer, _issuerID, data, paymentTokenID);\r\n    }\r\n\r\n    _tokenOffer[tokenId]._offer = offer;\r\n    _tokenOffer[tokenId]._paymentTokenID = paymentTokenID;\r\n    _tokenOffer[tokenId]._sender = msg.sender;\r\n    _tokenOffer[tokenId]._bidder = bidder;\r\n    _tokenOffer[tokenId]._deadline = block.timestamp + _offersLifeTime;\r\n\r\n    emit _SubmitOffer(tokenId, msg.sender, bidder, offer, FromCredit, paymentTokenID);\r\n  }\r\n    \r\n  function withdrawOffer(uint256 tokenId) external override\r\n    OfferInProgress(tokenId, false)\r\n  {\r\n    require(msg.sender == _tokenOffer[tokenId]._sender, \"Only the original sender can withdraw the bid\");\r\n    assignToRejectedSender(tokenId);\r\n    removeOffer(tokenId);\r\n    emit _WithdrawOffer(tokenId);\r\n  }\r\n\r\n  function assignToRejectedSender(uint tokenId) internal\r\n  {\r\n    address[] memory addrs = new address[](1);\r\n    uint256[] memory amounts = new uint256[](1);\r\n    uint256[] memory factors = new uint256[](1);\r\n    addrs[0] = _tokenOffer[tokenId]._sender;\r\n    amounts[0] = _tokenOffer[tokenId]._offer;\r\n    factors[0] = 1;\r\n    IPool(_managerContract.retrieveTransparentProxies()[uint256(Library.TransparentProxies.PublicPool)]).addCredit(_issuerID, tokenId, addrs, amounts, factors);\r\n  }\r\n\r\n  function AllocatePercents(uint256 tokenId, address[4] memory destinations, uint256[4] memory percentages, uint256 offer, uint256 commonDecimals) internal\r\n  {\r\n    address[] memory addrs = new address[](2 * destinations.length);\r\n    uint256[] memory amounts = new uint256[](2 * destinations.length);\r\n    uint256[] memory factors = new uint256[](2 * destinations.length);\r\n    uint quotient = 0;\r\n    uint remainder = 0;\r\n    uint denominator = 0;\r\n    uint pos = 0;\r\n\r\n\r\n    for(uint i=0; i < destinations.length; i++){\r\n      (quotient, remainder, denominator) = CalculatePercents(offer, percentages[i], commonDecimals);\r\n      addrs[pos] = destinations[i];\r\n      amounts[pos] = quotient;\r\n      factors[pos++] = 1;\r\n      addrs[pos] = destinations[i];\r\n      amounts[pos] = remainder;\r\n      factors[pos++] = denominator;\r\n    }\r\n\r\n    IPool(_managerContract.retrieveTransparentProxies()[uint256(Library.TransparentProxies.PublicPool)]).addCredit(_issuerID, \r\n      tokenId, \r\n      addrs, \r\n      amounts, \r\n      factors);\r\n  }\r\n\r\n  function CalculatePercents(uint256 amount, uint256 percentage, uint256 decimals) internal pure returns(uint256, uint256, uint256)\r\n  {\r\n      uint256 numerator = amount * percentage;\r\n      uint256 denominator = 100 * 10**decimals;\r\n\r\n      uint256 quotient = numerator / denominator;\r\n      uint256 remainder = numerator - (quotient * denominator);\r\n\r\n      return(quotient, remainder, denominator);\r\n  }\r\n\r\n  function retrieveIssuer() external override view returns (ItemsLibrary._issuerStruct memory, uint256)\r\n  {\r\n    return(ItemsLibrary._issuerStruct(_owner, name(), symbol(), _ownerTransferFeeAmount, _ownerTransferFeeDecimals, _paymentPlan), _offersLifeTime);\r\n  }\r\n\r\n  function retrieveToken(uint256 tokenId) external override view returns (_tokenStruct memory, address)\r\n  {\r\n    return(_tokenInfo[tokenId], ownerOf(tokenId));\r\n  }\r\n\r\n  function retrieveOffer(uint256 tokenId) external override view returns (_offerStruct memory)\r\n  {\r\n      return(_tokenOffer[tokenId]);\r\n  }\r\n\r\n  function getLargest(uint256[3] memory nums) internal pure returns(uint256)\r\n  {\r\n    uint256 largest = 0;\r\n\r\n    for(uint i=0; i < nums.length; i++)\r\n    {\r\n        if(largest < nums[i])largest = nums[i];\r\n    }\r\n\r\n    return largest;\r\n  }\r\n\r\n }",
  "sourcePath": "C:\\Users\\d-aam\\GitHub\\Originals\\contracts\\MainContracts\\NFTMarket.sol",
  "compiler": {
    "name": "solc",
    "version": "0.8.7+commit.e28d00a7.Emscripten.clang"
  },
  "schemaVersion": "3.4.3",
  "updatedAt": "2022-03-08T09:06:36.413Z",
  "networkType": "ethereum",
  "devdoc": {
    "kind": "dev",
    "methods": {
      "approve(address,uint256)": {
        "details": "See {IERC721-approve}."
      },
      "balanceOf(address)": {
        "details": "See {IERC721-balanceOf}."
      },
      "getApproved(uint256)": {
        "details": "See {IERC721-getApproved}."
      },
      "isApprovedForAll(address,address)": {
        "details": "See {IERC721-isApprovedForAll}."
      },
      "name()": {
        "details": "See {IERC721Metadata-name}."
      },
      "ownerOf(uint256)": {
        "details": "See {IERC721-ownerOf}."
      },
      "safeTransferFrom(address,address,uint256)": {
        "details": "See {IERC721-safeTransferFrom}."
      },
      "safeTransferFrom(address,address,uint256,bytes)": {
        "details": "See {IERC721-safeTransferFrom}."
      },
      "setApprovalForAll(address,bool)": {
        "details": "See {IERC721-setApprovalForAll}."
      },
      "supportsInterface(bytes4)": {
        "details": "See {IERC165-supportsInterface}."
      },
      "symbol()": {
        "details": "See {IERC721Metadata-symbol}."
      },
      "tokenURI(uint256)": {
        "details": "See {IERC721Metadata-tokenURI}."
      },
      "transferFrom(address,address,uint256)": {
        "details": "See {IERC721-transferFrom}."
      }
    },
    "version": 1
  },
  "userdoc": {
    "kind": "user",
    "methods": {},
    "version": 1
  }
}