{
  "contractName": "NFTMarket",
  "abi": [
    {
      "anonymous": false,
      "inputs": [
        {
          "indexed": true,
          "internalType": "address",
          "name": "owner",
          "type": "address"
        },
        {
          "indexed": true,
          "internalType": "address",
          "name": "approved",
          "type": "address"
        },
        {
          "indexed": true,
          "internalType": "uint256",
          "name": "tokenId",
          "type": "uint256"
        }
      ],
      "name": "Approval",
      "type": "event"
    },
    {
      "anonymous": false,
      "inputs": [
        {
          "indexed": true,
          "internalType": "address",
          "name": "owner",
          "type": "address"
        },
        {
          "indexed": true,
          "internalType": "address",
          "name": "operator",
          "type": "address"
        },
        {
          "indexed": false,
          "internalType": "bool",
          "name": "approved",
          "type": "bool"
        }
      ],
      "name": "ApprovalForAll",
      "type": "event"
    },
    {
      "anonymous": false,
      "inputs": [
        {
          "indexed": true,
          "internalType": "address",
          "name": "from",
          "type": "address"
        },
        {
          "indexed": true,
          "internalType": "address",
          "name": "to",
          "type": "address"
        },
        {
          "indexed": true,
          "internalType": "uint256",
          "name": "tokenId",
          "type": "uint256"
        }
      ],
      "name": "Transfer",
      "type": "event"
    },
    {
      "inputs": [
        {
          "internalType": "address",
          "name": "to",
          "type": "address"
        },
        {
          "internalType": "uint256",
          "name": "tokenId",
          "type": "uint256"
        }
      ],
      "name": "approve",
      "outputs": [],
      "stateMutability": "nonpayable",
      "type": "function"
    },
    {
      "inputs": [
        {
          "internalType": "address",
          "name": "owner",
          "type": "address"
        }
      ],
      "name": "balanceOf",
      "outputs": [
        {
          "internalType": "uint256",
          "name": "",
          "type": "uint256"
        }
      ],
      "stateMutability": "view",
      "type": "function"
    },
    {
      "inputs": [
        {
          "internalType": "uint256",
          "name": "tokenId",
          "type": "uint256"
        }
      ],
      "name": "getApproved",
      "outputs": [
        {
          "internalType": "address",
          "name": "",
          "type": "address"
        }
      ],
      "stateMutability": "view",
      "type": "function"
    },
    {
      "inputs": [
        {
          "internalType": "address",
          "name": "owner",
          "type": "address"
        },
        {
          "internalType": "address",
          "name": "operator",
          "type": "address"
        }
      ],
      "name": "isApprovedForAll",
      "outputs": [
        {
          "internalType": "bool",
          "name": "",
          "type": "bool"
        }
      ],
      "stateMutability": "view",
      "type": "function"
    },
    {
      "inputs": [],
      "name": "name",
      "outputs": [
        {
          "internalType": "string",
          "name": "",
          "type": "string"
        }
      ],
      "stateMutability": "view",
      "type": "function"
    },
    {
      "inputs": [
        {
          "internalType": "uint256",
          "name": "tokenId",
          "type": "uint256"
        }
      ],
      "name": "ownerOf",
      "outputs": [
        {
          "internalType": "address",
          "name": "",
          "type": "address"
        }
      ],
      "stateMutability": "view",
      "type": "function"
    },
    {
      "inputs": [],
      "name": "retrieveManagerContract",
      "outputs": [
        {
          "internalType": "address",
          "name": "",
          "type": "address"
        }
      ],
      "stateMutability": "view",
      "type": "function"
    },
    {
      "inputs": [
        {
          "internalType": "address",
          "name": "from",
          "type": "address"
        },
        {
          "internalType": "address",
          "name": "to",
          "type": "address"
        },
        {
          "internalType": "uint256",
          "name": "tokenId",
          "type": "uint256"
        }
      ],
      "name": "safeTransferFrom",
      "outputs": [],
      "stateMutability": "nonpayable",
      "type": "function"
    },
    {
      "inputs": [
        {
          "internalType": "address",
          "name": "from",
          "type": "address"
        },
        {
          "internalType": "address",
          "name": "to",
          "type": "address"
        },
        {
          "internalType": "uint256",
          "name": "tokenId",
          "type": "uint256"
        },
        {
          "internalType": "bytes",
          "name": "_data",
          "type": "bytes"
        }
      ],
      "name": "safeTransferFrom",
      "outputs": [],
      "stateMutability": "nonpayable",
      "type": "function"
    },
    {
      "inputs": [
        {
          "internalType": "address",
          "name": "operator",
          "type": "address"
        },
        {
          "internalType": "bool",
          "name": "approved",
          "type": "bool"
        }
      ],
      "name": "setApprovalForAll",
      "outputs": [],
      "stateMutability": "nonpayable",
      "type": "function"
    },
    {
      "inputs": [
        {
          "internalType": "bytes4",
          "name": "interfaceId",
          "type": "bytes4"
        }
      ],
      "name": "supportsInterface",
      "outputs": [
        {
          "internalType": "bool",
          "name": "",
          "type": "bool"
        }
      ],
      "stateMutability": "view",
      "type": "function"
    },
    {
      "inputs": [],
      "name": "symbol",
      "outputs": [
        {
          "internalType": "string",
          "name": "",
          "type": "string"
        }
      ],
      "stateMutability": "view",
      "type": "function"
    },
    {
      "inputs": [
        {
          "internalType": "uint256",
          "name": "tokenId",
          "type": "uint256"
        }
      ],
      "name": "tokenURI",
      "outputs": [
        {
          "internalType": "string",
          "name": "",
          "type": "string"
        }
      ],
      "stateMutability": "view",
      "type": "function"
    },
    {
      "inputs": [
        {
          "internalType": "address",
          "name": "from",
          "type": "address"
        },
        {
          "internalType": "address",
          "name": "to",
          "type": "address"
        },
        {
          "internalType": "uint256",
          "name": "tokenId",
          "type": "uint256"
        }
      ],
      "name": "transferFrom",
      "outputs": [],
      "stateMutability": "nonpayable",
      "type": "function"
    },
    {
      "inputs": [
        {
          "internalType": "address",
          "name": "managerContractAddress",
          "type": "address"
        },
        {
          "internalType": "address",
          "name": "owner",
          "type": "address"
        },
        {
          "internalType": "string",
          "name": "name",
          "type": "string"
        },
        {
          "internalType": "string",
          "name": "symbol",
          "type": "string"
        },
        {
          "internalType": "uint256",
          "name": "offersLifeTime",
          "type": "uint256"
        },
        {
          "internalType": "uint256",
          "name": "ownerTransferFeeAmount",
          "type": "uint256"
        },
        {
          "internalType": "uint256",
          "name": "ownerTransferFeeDecimals",
          "type": "uint256"
        },
        {
          "internalType": "uint8",
          "name": "paymentPlan",
          "type": "uint8"
        }
      ],
      "name": "NFTMarket_init",
      "outputs": [],
      "stateMutability": "nonpayable",
      "type": "function"
    },
    {
      "inputs": [
        {
          "internalType": "address",
          "name": "newOwner",
          "type": "address"
        }
      ],
      "name": "changeOwner",
      "outputs": [],
      "stateMutability": "nonpayable",
      "type": "function"
    },
    {
      "inputs": [
        {
          "internalType": "enum Library.PaymentPlans",
          "name": "newPaymentPlan",
          "type": "uint8"
        }
      ],
      "name": "changePaymentPlan",
      "outputs": [],
      "stateMutability": "nonpayable",
      "type": "function"
    },
    {
      "inputs": [
        {
          "internalType": "uint256",
          "name": "newLifeTime",
          "type": "uint256"
        }
      ],
      "name": "changeOffersLifeTime",
      "outputs": [],
      "stateMutability": "nonpayable",
      "type": "function"
    },
    {
      "inputs": [
        {
          "internalType": "uint256",
          "name": "newAmount",
          "type": "uint256"
        },
        {
          "internalType": "uint256",
          "name": "newDecimals",
          "type": "uint256"
        }
      ],
      "name": "changeOwnerTransferFees",
      "outputs": [],
      "stateMutability": "nonpayable",
      "type": "function"
    },
    {
      "inputs": [
        {
          "internalType": "uint256",
          "name": "tokenId",
          "type": "uint256"
        },
        {
          "internalType": "address",
          "name": "receiver",
          "type": "address"
        },
        {
          "internalType": "uint256",
          "name": "price",
          "type": "uint256"
        }
      ],
      "name": "mintToken",
      "outputs": [],
      "stateMutability": "payable",
      "type": "function"
    },
    {
      "inputs": [
        {
          "internalType": "uint256",
          "name": "tokenId",
          "type": "uint256"
        },
        {
          "internalType": "uint256",
          "name": "price",
          "type": "uint256"
        }
      ],
      "name": "setTokenPrice",
      "outputs": [],
      "stateMutability": "nonpayable",
      "type": "function"
    },
    {
      "inputs": [
        {
          "internalType": "uint256",
          "name": "tokenId",
          "type": "uint256"
        }
      ],
      "name": "acceptOffer",
      "outputs": [],
      "stateMutability": "nonpayable",
      "type": "function"
    },
    {
      "inputs": [
        {
          "internalType": "uint256",
          "name": "tokenId",
          "type": "uint256"
        }
      ],
      "name": "rejectOffer",
      "outputs": [],
      "stateMutability": "nonpayable",
      "type": "function"
    },
    {
      "inputs": [
        {
          "internalType": "uint256",
          "name": "tokenId",
          "type": "uint256"
        },
        {
          "internalType": "address",
          "name": "bidder",
          "type": "address"
        }
      ],
      "name": "submitOffer",
      "outputs": [],
      "stateMutability": "payable",
      "type": "function"
    },
    {
      "inputs": [
        {
          "internalType": "uint256",
          "name": "tokenId",
          "type": "uint256"
        }
      ],
      "name": "withdrawOffer",
      "outputs": [],
      "stateMutability": "nonpayable",
      "type": "function"
    },
    {
      "inputs": [],
      "name": "withdraw",
      "outputs": [],
      "stateMutability": "nonpayable",
      "type": "function"
    },
    {
      "inputs": [],
      "name": "retrieveIssuer",
      "outputs": [
        {
          "components": [
            {
              "internalType": "address",
              "name": "_owner",
              "type": "address"
            },
            {
              "internalType": "string",
              "name": "_name",
              "type": "string"
            },
            {
              "internalType": "string",
              "name": "_symbol",
              "type": "string"
            },
            {
              "internalType": "uint256",
              "name": "_feeAmount",
              "type": "uint256"
            },
            {
              "internalType": "uint256",
              "name": "_feeDecimals",
              "type": "uint256"
            },
            {
              "internalType": "enum Library.PaymentPlans",
              "name": "_paymentPlan",
              "type": "uint8"
            }
          ],
          "internalType": "struct ItemsLibrary._issuerStruct",
          "name": "",
          "type": "tuple"
        },
        {
          "internalType": "uint256",
          "name": "",
          "type": "uint256"
        }
      ],
      "stateMutability": "view",
      "type": "function"
    },
    {
      "inputs": [
        {
          "internalType": "uint256",
          "name": "tokenId",
          "type": "uint256"
        }
      ],
      "name": "retrieveToken",
      "outputs": [
        {
          "components": [
            {
              "internalType": "enum Library.PaymentPlans",
              "name": "_paymentPlan",
              "type": "uint8"
            },
            {
              "internalType": "uint256",
              "name": "_price",
              "type": "uint256"
            }
          ],
          "internalType": "struct INFTMarket._tokenStruct",
          "name": "",
          "type": "tuple"
        },
        {
          "internalType": "address",
          "name": "",
          "type": "address"
        }
      ],
      "stateMutability": "view",
      "type": "function"
    },
    {
      "inputs": [
        {
          "internalType": "uint256",
          "name": "tokenId",
          "type": "uint256"
        }
      ],
      "name": "retrieveOffer",
      "outputs": [
        {
          "components": [
            {
              "internalType": "uint256",
              "name": "_offer",
              "type": "uint256"
            },
            {
              "internalType": "address",
              "name": "_sender",
              "type": "address"
            },
            {
              "internalType": "address",
              "name": "_bidder",
              "type": "address"
            },
            {
              "internalType": "uint256",
              "name": "_deadline",
              "type": "uint256"
            }
          ],
          "internalType": "struct INFTMarket._offerStruct",
          "name": "",
          "type": "tuple"
        }
      ],
      "stateMutability": "view",
      "type": "function"
    }
  ],
  "bytecode": "0x608060405234801561001057600080fd5b506134f1806100206000396000f3fe6080604052600436106101525760003560e01c806301ffc9a71461015757806306fdde031461018c578063081812fc146101ae578063095ea7b3146101e65780630d63cc8b1461020857806323b872dd146102285780633ccfd60b1461024857806342842e0e1461025d5780635542f6801461027d5780635b362e84146102ab5780636352211e146102cf57806370a08231146102ef5780637811a5bf1461031d5780638610f0451461033057806388b10c751461035057806393f82e161461037057806395d89b41146103905780639d16764f146103a5578063a22cb465146103c5578063a6f9dae1146103e5578063aa91855014610405578063b88d4fde14610425578063c815729d14610445578063c87b56dd14610465578063ca25f9e414610485578063cf0ba575146104a8578063e0ccfe8814610575578063e985e9c514610588578063eb685c47146105a8575b600080fd5b34801561016357600080fd5b50610177610172366004612cdc565b6105c8565b60405190151581526020015b60405180910390f35b34801561019857600080fd5b506101a161061a565b6040516101839190612e91565b3480156101ba57600080fd5b506101ce6101c9366004612d37565b6106ac565b6040516001600160a01b039091168152602001610183565b3480156101f257600080fd5b50610206610201366004612b80565b610739565b005b34801561021457600080fd5b506102066102233660046129cd565b61084a565b34801561023457600080fd5b50610206610243366004612a8d565b6109ad565b34801561025457600080fd5b506102066109df565b34801561026957600080fd5b50610206610278366004612a8d565b6109ec565b34801561028957600080fd5b5061029d610298366004612d37565b610a07565b60405161018392919061317d565b3480156102b757600080fd5b506000546201000090046001600160a01b03166101ce565b3480156102db57600080fd5b506101ce6102ea366004612d37565b610a80565b3480156102fb57600080fd5b5061030f61030a366004612977565b610af7565b604051908152602001610183565b61020661032b366004612d8e565b610b7e565b34801561033c57600080fd5b5061020661034b366004612d37565b61100b565b34801561035c57600080fd5b5061020661036b366004612d37565b6110f8565b34801561037c57600080fd5b5061020661038b366004612d16565b611189565b34801561039c57600080fd5b506101a16111e3565b3480156103b157600080fd5b506102066103c0366004612d37565b6111f2565b3480156103d157600080fd5b506102066103e0366004612b4d565b611224565b3480156103f157600080fd5b50610206610400366004612977565b611233565b34801561041157600080fd5b50610206610420366004612db5565b611282565b34801561043157600080fd5b50610206610440366004612ace565b61132a565b34801561045157600080fd5b50610206610460366004612d37565b61135c565b34801561047157600080fd5b506101a1610480366004612d37565b6115fe565b34801561049157600080fd5b5061049a6116d6565b6040516101839291906130f5565b3480156104b457600080fd5b506105346104c3366004612d37565b6040805160808082018352600080835260208084018290528385018290526060938401829052948152609c8552839020835191820184528054825260018101546001600160a01b03908116958301959095526002810154909416928101929092526003909201549181019190915290565b60408051825181526020808401516001600160a01b039081169183019190915283830151169181019190915260609182015191810191909152608001610183565b610206610583366004612d69565b611757565b34801561059457600080fd5b506101776105a3366004612994565b6118ab565b3480156105b457600080fd5b506102066105c3366004612db5565b6118d9565b60006001600160e01b031982166380ac58cd60e01b14806105f957506001600160e01b03198216635b5e139f60e01b145b8061061457506301ffc9a760e01b6001600160e01b03198316145b92915050565b60606065805461062990613395565b80601f016020809104026020016040519081016040528092919081815260200182805461065590613395565b80156106a25780601f10610677576101008083540402835291602001916106a2565b820191906000526020600020905b81548152906001019060200180831161068557829003601f168201915b5050505050905090565b60006106b782611915565b61071d5760405162461bcd60e51b815260206004820152602c60248201527f4552433732313a20617070726f76656420717565727920666f72206e6f6e657860448201526b34b9ba32b73a103a37b5b2b760a11b60648201526084015b60405180910390fd5b506000908152606960205260409020546001600160a01b031690565b600061074482610a80565b9050806001600160a01b0316836001600160a01b031614156107b25760405162461bcd60e51b815260206004820152602160248201527f4552433732313a20617070726f76616c20746f2063757272656e74206f776e656044820152603960f91b6064820152608401610714565b336001600160a01b03821614806107ce57506107ce81336118ab565b61083b5760405162461bcd60e51b815260206004820152603860248201527f4552433732313a20617070726f76652063616c6c6572206973206e6f74206f776044820152771b995c881b9bdc88185c1c1c9bdd995908199bdc88185b1b60421b6064820152608401610714565b6108458383611932565b505050565b600054610100900460ff166108655760005460ff1615610869565b303b155b6108855760405162461bcd60e51b815260040161071490612f71565b600054610100900460ff161580156108a7576000805461ffff19166101011790555b60405163bdbff48760e01b815260048101859052602481018490528490849073__Library_______________________________9063bdbff4879060440160006040518083038186803b1580156108fd57600080fd5b505af4158015610911573d6000803e3d6000fd5b5050505061091e8b6119a0565b6109288989611a34565b609780546001600160a01b0319166001600160a01b038c1617905560ff841660018111156109585761095861342b565b6097805460ff60a01b1916600160a01b83600181111561097a5761097a61342b565b0217905550505060988590556099849055609a83905580156109a2576000805461ff00191690555b505050505050505050565b6109b8335b82611a75565b6109d45760405162461bcd60e51b81526004016107149061300c565b610845838383611b3f565b6109ea336001611ccd565b565b6108458383836040518060200160405280600081525061132a565b60408051808201909152600080825260208201526000828152609b60205260408120610a3284610a80565b6040805180820190915282548390829060ff166001811115610a5657610a5661342b565b6001811115610a6757610a6761342b565b8152602001600182015481525050915091509150915091565b6000818152606760205260408120546001600160a01b0316806106145760405162461bcd60e51b815260206004820152602960248201527f4552433732313a206f776e657220717565727920666f72206e6f6e657869737460448201526832b73a103a37b5b2b760b91b6064820152608401610714565b60006001600160a01b038216610b625760405162461bcd60e51b815260206004820152602a60248201527f4552433732313a2062616c616e636520717565727920666f7220746865207a65604482015269726f206164647265737360b01b6064820152608401610714565b506001600160a01b031660009081526068602052604090205490565b60975433906001600160a01b03168114610baa5760405162461bcd60e51b815260040161071490612ea4565b6000609754600160a01b900460ff166001811115610bca57610bca61342b565b1415610fb65760008060029054906101000a90046001600160a01b03166001600160a01b031663e220ad956040518163ffffffff1660e01b815260040160006040518083038186803b158015610c1f57600080fd5b505afa158015610c33573d6000803e3d6000fd5b505050506040513d6000823e601f3d908101601f19168201604052610c5b9190810190612bac565b600281518110610c6d57610c6d613441565b60200260200101516001600160a01b031663b049473f6040518163ffffffff1660e01b815260040160006040518083038186803b158015610cad57600080fd5b505afa158015610cc1573d6000803e3d6000fd5b505050506040513d6000823e601f3d908101601f19168201604052610ce99190810190612c51565b9050600081600281518110610d0057610d00613441565b6020026020010151905060008260036008811115610d2057610d2061342b565b81518110610d3057610d30613441565b602002602001015190508082610d46919061321c565b341015610d8f5760405162461bcd60e51b815260206004820152601760248201527609ad2dce8d2dcce408ccacae640dcdee840cadcdeeaced604b1b6044820152606401610714565b73__ItemsLibrary__________________________632ac0cb2383600060029054906101000a90046001600160a01b03166001600160a01b031663e220ad956040518163ffffffff1660e01b815260040160006040518083038186803b158015610df857600080fd5b505afa158015610e0c573d6000803e3d6000fd5b505050506040513d6000823e601f3d908101601f19168201604052610e349190810190612bac565b600281518110610e4657610e46613441565b60200260200101516040518363ffffffff1660e01b8152600401610e6b9291906131b2565b60006040518083038186803b158015610e8357600080fd5b505af4158015610e97573d6000803e3d6000fd5b5050505073__ItemsLibrary__________________________632ac0cb238334610ec19190613352565b600060029054906101000a90046001600160a01b03166001600160a01b031663e220ad956040518163ffffffff1660e01b815260040160006040518083038186803b158015610f0f57600080fd5b505afa158015610f23573d6000803e3d6000fd5b505050506040513d6000823e601f3d908101601f19168201604052610f4b9190810190612bac565b600581518110610f5d57610f5d613441565b60200260200101516040518363ffffffff1660e01b8152600401610f829291906131b2565b60006040518083038186803b158015610f9a57600080fd5b505af4158015610fae573d6000803e3d6000fd5b505050505050505b610fc08385611e05565b6000848152609b6020526040902060018082018490556097548254600160a01b90910460ff16929160ff199091169083818111156110005761100061342b565b021790555050505050565b80600080828152609c6020526040902060030154421161103d5760405162461bcd60e51b815260040161071490612f3a565b6000838152609c60205260409020600101546001600160a01b031633146110bc5760405162461bcd60e51b815260206004820152602d60248201527f4f6e6c7920746865206f726967696e616c2073656e6465722063616e2077697460448201526c1a191c985dc81d1a1948189a59609a1b6064820152608401610714565b6000838152609c60205260409020600181015490546110e4916001600160a01b031690611e1f565b6110ed83611ea7565b610845336001611ccd565b80611102336109b2565b61111e5760405162461bcd60e51b815260040161071490612fbf565b8160016000828152609c60205260409020600301544211156111525760405162461bcd60e51b81526004016107149061305d565b6000848152609c602052604090206001810154905461117a916001600160a01b031690611e1f565b61118384611ea7565b50505050565b60975433906001600160a01b031681146111b55760405162461bcd60e51b815260040161071490612ea4565b6097805483919060ff60a01b1916600160a01b8360018111156111da576111da61342b565b02179055505050565b60606066805461062990613395565b60975433906001600160a01b0316811461121e5760405162461bcd60e51b815260040161071490612ea4565b50609855565b61122f338383611ede565b5050565b60975433906001600160a01b0316811461125f5760405162461bcd60e51b815260040161071490612ea4565b50609780546001600160a01b0319166001600160a01b0392909216919091179055565b60975433906001600160a01b031681146112ae5760405162461bcd60e51b815260040161071490612ea4565b60405163bdbff48760e01b815260048101849052602481018390528390839073__Library_______________________________9063bdbff4879060440160006040518083038186803b15801561130457600080fd5b505af4158015611318573d6000803e3d6000fd5b505050609995909555505050609a5550565b6113343383611a75565b6113505760405162461bcd60e51b81526004016107149061300c565b61118384848484611fa9565b80611366336109b2565b6113825760405162461bcd60e51b815260040161071490612fbf565b8160016000828152609c60205260409020600301544211156113b65760405162461bcd60e51b81526004016107149061305d565b6000806000806113c588611fdc565b9350935093509350600082848684600a6113df919061328b565b6113ea906064613333565b6113f49190613352565b6113fe9190613352565b6114089190613352565b905060006114158a610a80565b60008b8152609c6020908152604080832060020154815192830190915291815291925061144f9183916001600160a01b0316908d90611fa9565b60008a8152609c60205260409020546114678b611ea7565b611518600060029054906101000a90046001600160a01b03166001600160a01b031663e220ad956040518163ffffffff1660e01b815260040160006040518083038186803b1580156114b857600080fd5b505afa1580156114cc573d6000803e3d6000fd5b505050506040513d6000823e601f3d908101601f191682016040526114f49190810190612bac565b60028151811061150657611506613441565b60200260200101518288876000612280565b6115c9600060029054906101000a90046001600160a01b03166001600160a01b031663e220ad956040518163ffffffff1660e01b815260040160006040518083038186803b15801561156957600080fd5b505afa15801561157d573d6000803e3d6000fd5b505050506040513d6000823e601f3d908101601f191682016040526115a59190810190612bac565b6005815181106115b7576115b7613441565b60200260200101518287876000612280565b6097546115e3906001600160a01b03168289876001612280565b6115f1828285876001612280565b5050505050505050505050565b606061160982611915565b61166d5760405162461bcd60e51b815260206004820152602f60248201527f4552433732314d657461646174613a2055524920717565727920666f72206e6f60448201526e3732bc34b9ba32b73a103a37b5b2b760891b6064820152608401610714565b600061168460408051602081019091526000815290565b905060008151116116a457604051806020016040528060008152506116cf565b806116ae846123e7565b6040516020016116bf929190612e25565b6040516020818303038152906040525b9392505050565b6116de612818565b6040805160c081019091526097546001600160a01b031681526000906020810161170661061a565b81526020016117136111e3565b81526020016099548152602001609a548152602001609760149054906101000a900460ff1660018111156117495761174961342b565b815250609854915091509091565b81600080828152609c602052604090206003015442116117895760405162461bcd60e51b815260040161071490612f3a565b6000848152609b6020526040902060010154849034908110156117fa5760405162461bcd60e51b8152602060048201526024808201527f546865206f666665722069732062656c6f7720746865206d696e696d756d20706044820152637269636560e01b6064820152608401610714565b6000868152609c60205260409020600101546001600160a01b031615611842576000868152609c6020526040902060018101549054611842916001600160a01b031690611e1f565b6000868152609c60205260409020348155600181018054336001600160a01b031991821617909155600290910180549091166001600160a01b03871617905560985461188e904261321c565b6000968752609c6020526040909620600301959095555050505050565b6001600160a01b039182166000908152606a6020908152604080832093909416825291909152205460ff1690565b816118e3336109b2565b6118ff5760405162461bcd60e51b815260040161071490612fbf565b506000918252609b602052604090912060010155565b6000908152606760205260409020546001600160a01b0316151590565b600081815260696020526040902080546001600160a01b0319166001600160a01b038416908117909155819061196782610a80565b6001600160a01b03167f8c5be1e5ebec7d5bd14f71427d1e84f3dd0314c0f7b2291e5b200ac8c7c3b92560405160405180910390a45050565b600054610100900460ff166119bb5760005460ff16156119bf565b303b155b6119db5760405162461bcd60e51b815260040161071490612f71565b600054610100900460ff161580156119fd576000805461ffff19166101011790555b6000805462010000600160b01b031916620100006001600160a01b03851602179055801561122f576000805461ff00191690555050565b600054610100900460ff16611a5b5760405162461bcd60e51b815260040161071490613094565b611a636124e4565b611a6b6124e4565b61122f828261250b565b6000611a8082611915565b611ae15760405162461bcd60e51b815260206004820152602c60248201527f4552433732313a206f70657261746f7220717565727920666f72206e6f6e657860448201526b34b9ba32b73a103a37b5b2b760a11b6064820152608401610714565b6000611aec83610a80565b9050806001600160a01b0316846001600160a01b03161480611b275750836001600160a01b0316611b1c846106ac565b6001600160a01b0316145b80611b375750611b3781856118ab565b949350505050565b826001600160a01b0316611b5282610a80565b6001600160a01b031614611bba5760405162461bcd60e51b815260206004820152602960248201527f4552433732313a207472616e73666572206f6620746f6b656e2074686174206960448201526839903737ba1037bbb760b91b6064820152608401610714565b6001600160a01b038216611c1c5760405162461bcd60e51b8152602060048201526024808201527f4552433732313a207472616e7366657220746f20746865207a65726f206164646044820152637265737360e01b6064820152608401610714565b611c27600082611932565b6001600160a01b0383166000908152606860205260408120805460019290611c50908490613352565b90915550506001600160a01b0382166000908152606860205260408120805460019290611c7e90849061321c565b909155505060008181526067602052604080822080546001600160a01b0319166001600160a01b03868116918217909255915184939187169160008051602061349c83398151915291a4505050565b6001600160a01b0382166000908152609d602052604080822090516326162dc360e01b8152600481019190915273__ItemsLibrary__________________________906326162dc39060240160206040518083038186803b158015611d3157600080fd5b505af4158015611d45573d6000803e3d6000fd5b505050506040513d601f19601f82011682018060405250810190611d699190612d50565b6001600160a01b0384166000818152609d6020526040908190209051637e9f902d60e11b81526004810191909152602481018390526044810191909152831515606482015290915073__ItemsLibrary__________________________9063fd3f205a9060840160006040518083038186803b158015611de857600080fd5b505af4158015611dfc573d6000803e3d6000fd5b50505050505050565b61122f828260405180602001604052806000815250612559565b6001600160a01b0382166000908152609d6020526040908190209051633833532760e01b815273__ItemsLibrary__________________________91633833532791611e73919085906001906004016130df565b60006040518083038186803b158015611e8b57600080fd5b505af4158015611e9f573d6000803e3d6000fd5b505050505050565b6000908152609c602052604081208181556001810180546001600160a01b0319908116909155600282018054909116905560030155565b816001600160a01b0316836001600160a01b03161415611f3c5760405162461bcd60e51b815260206004820152601960248201527822a9219b99189d1030b8383937bb32903a379031b0b63632b960391b6044820152606401610714565b6001600160a01b038381166000818152606a6020908152604080832094871680845294825291829020805460ff191686151590811790915591519182527f17307eab39ab6107e8899845ad3d59bd9653f200f220920489ca2b5937696c31910160405180910390a3505050565b611fb4848484611b3f565b611fc08484848461258c565b6111835760405162461bcd60e51b815260040161071490612ee8565b609954609a546000838152609b602052604081205490928392839283929190839081908190819060ff1660018111156120175761201761342b565b600114156121e35760008060029054906101000a90046001600160a01b03166001600160a01b031663e220ad956040518163ffffffff1660e01b815260040160006040518083038186803b15801561206e57600080fd5b505afa158015612082573d6000803e3d6000fd5b505050506040513d6000823e601f3d908101601f191682016040526120aa9190810190612bac565b6002815181106120bc576120bc613441565b60200260200101516001600160a01b031663b049473f6040518163ffffffff1660e01b815260040160006040518083038186803b1580156120fc57600080fd5b505afa158015612110573d6000803e3d6000fd5b505050506040513d6000823e601f3d908101601f191682016040526121389190810190612c51565b90508060048151811061214d5761214d613441565b60200260200101519450806005600881111561216b5761216b61342b565b8151811061217b5761217b613441565b6020026020010151935080600660088111156121995761219961342b565b815181106121a9576121a9613441565b6020026020010151925080600760088111156121c7576121c761342b565b815181106121d7576121d7613441565b60200260200101519150505b6000612208604051806060016040528088815260200186815260200184815250612699565b90506122148682613352565b61221f90600a61328b565b6122299088613333565b96506122358482613352565b61224090600a61328b565b61224a9086613333565b94506122568282613352565b61226190600a61328b565b61226b9084613333565b969c949b509599509497509195505050505050565b600061228c8486613333565b9050600061229b84600a61328b565b6122a6906064613333565b905060006122b48284613234565b905060006122c28383613333565b6122cc9085613352565b6001600160a01b038a166000908152609d6020526040908190209051633833532760e01b815291925073__ItemsLibrary__________________________916338335327916123229186906001906004016130df565b60006040518083038186803b15801561233a57600080fd5b505af415801561234e573d6000803e3d6000fd5b5050506001600160a01b038a166000908152609d6020526040908190209051633833532760e01b815273__ItemsLibrary__________________________92506338335327916123a491859088906004016130df565b60006040518083038186803b1580156123bc57600080fd5b505af41580156123d0573d6000803e3d6000fd5b50505085151590506109a2576109a2896001611ccd565b60608161240b5750506040805180820190915260018152600360fc1b602082015290565b8160005b8115612435578061241f816133d0565b915061242e9050600a83613234565b915061240f565b6000816001600160401b0381111561244f5761244f613457565b6040519080825280601f01601f191660200182016040528015612479576020820181803683370190505b5090505b8415611b375761248e600183613352565b915061249b600a866133eb565b6124a690603061321c565b60f81b8183815181106124bb576124bb613441565b60200101906001600160f81b031916908160001a9053506124dd600a86613234565b945061247d565b600054610100900460ff166109ea5760405162461bcd60e51b815260040161071490613094565b600054610100900460ff166125325760405162461bcd60e51b815260040161071490613094565b8151612545906065906020850190612867565b508051610845906066906020840190612867565b61256383836126f8565b612570600084848461258c565b6108455760405162461bcd60e51b815260040161071490612ee8565b60006001600160a01b0384163b1561268e57604051630a85bd0160e11b81526001600160a01b0385169063150b7a02906125d0903390899088908890600401612e54565b602060405180830381600087803b1580156125ea57600080fd5b505af192505050801561261a575060408051601f3d908101601f1916820190925261261791810190612cf9565b60015b612674573d808015612648576040519150601f19603f3d011682016040523d82523d6000602084013e61264d565b606091505b50805161266c5760405162461bcd60e51b815260040161071490612ee8565b805181602001fd5b6001600160e01b031916630a85bd0160e11b149050611b37565b506001949350505050565b600080805b60038110156126f1578381600381106126b9576126b9613441565b60200201518210156126df578381600381106126d7576126d7613441565b602002015191505b806126e9816133d0565b91505061269e565b5092915050565b6001600160a01b03821661274e5760405162461bcd60e51b815260206004820181905260248201527f4552433732313a206d696e7420746f20746865207a65726f20616464726573736044820152606401610714565b61275781611915565b156127a35760405162461bcd60e51b815260206004820152601c60248201527b115490cdcc8c4e881d1bdad95b88185b1c9958591e481b5a5b9d195960221b6044820152606401610714565b6001600160a01b03821660009081526068602052604081208054600192906127cc90849061321c565b909155505060008181526067602052604080822080546001600160a01b0319166001600160a01b038616908117909155905183929060008051602061349c833981519152908290a45050565b6040518060c0016040528060006001600160a01b0316815260200160608152602001606081526020016000815260200160008152602001600060018111156128625761286261342b565b905290565b82805461287390613395565b90600052602060002090601f01602090048101928261289557600085556128db565b82601f106128ae57805160ff19168380011785556128db565b828001600101855582156128db579182015b828111156128db5782518255916020019190600101906128c0565b506128e79291506128eb565b5090565b5b808211156128e757600081556001016128ec565b60006001600160401b0383111561291957612919613457565b61292c601f8401601f19166020016131c9565b905082815283838301111561294057600080fd5b828260208301376000602084830101529392505050565b600082601f83011261296857600080fd5b6116cf83833560208501612900565b60006020828403121561298957600080fd5b81356116cf8161346d565b600080604083850312156129a757600080fd5b82356129b28161346d565b915060208301356129c28161346d565b809150509250929050565b600080600080600080600080610100898b0312156129ea57600080fd5b88356129f58161346d565b97506020890135612a058161346d565b965060408901356001600160401b0380821115612a2157600080fd5b612a2d8c838d01612957565b975060608b0135915080821115612a4357600080fd5b50612a508b828c01612957565b9550506080890135935060a0890135925060c0890135915060e089013560ff81168114612a7c57600080fd5b809150509295985092959890939650565b600080600060608486031215612aa257600080fd5b8335612aad8161346d565b92506020840135612abd8161346d565b929592945050506040919091013590565b60008060008060808587031215612ae457600080fd5b8435612aef8161346d565b93506020850135612aff8161346d565b92506040850135915060608501356001600160401b03811115612b2157600080fd5b8501601f81018713612b3257600080fd5b612b4187823560208401612900565b91505092959194509250565b60008060408385031215612b6057600080fd5b8235612b6b8161346d565b9150602083013580151581146129c257600080fd5b60008060408385031215612b9357600080fd5b8235612b9e8161346d565b946020939093013593505050565b60006020808385031215612bbf57600080fd5b82516001600160401b03811115612bd557600080fd5b8301601f81018513612be657600080fd5b8051612bf9612bf4826131f9565b6131c9565b80828252848201915084840188868560051b8701011115612c1957600080fd5b600094505b83851015612c45578051612c318161346d565b835260019490940193918501918501612c1e565b50979650505050505050565b60006020808385031215612c6457600080fd5b82516001600160401b03811115612c7a57600080fd5b8301601f81018513612c8b57600080fd5b8051612c99612bf4826131f9565b80828252848201915084840188868560051b8701011115612cb957600080fd5b600094505b83851015612c45578051835260019490940193918501918501612cbe565b600060208284031215612cee57600080fd5b81356116cf81613485565b600060208284031215612d0b57600080fd5b81516116cf81613485565b600060208284031215612d2857600080fd5b8135600281106116cf57600080fd5b600060208284031215612d4957600080fd5b5035919050565b600060208284031215612d6257600080fd5b5051919050565b60008060408385031215612d7c57600080fd5b8235915060208301356129c28161346d565b600080600060608486031215612da357600080fd5b833592506020840135612abd8161346d565b60008060408385031215612dc857600080fd5b50508035926020909101359150565b60008151808452612def816020860160208601613369565b601f01601f19169290920160200192915050565b60028110612e2157634e487b7160e01b600052602160045260246000fd5b9052565b60008351612e37818460208801613369565b835190830190612e4b818360208801613369565b01949350505050565b6001600160a01b0385811682528416602082015260408101839052608060608201819052600090612e8790830184612dd7565b9695505050505050565b6020815260006116cf6020830184612dd7565b60208082526024908201527f4f6e6c7920746865204f776e657220697320616c6c6f77656420746f20646f206040820152631d1a185d60e21b606082015260800190565b60208082526032908201527f4552433732313a207472616e7366657220746f206e6f6e20455243373231526560408201527131b2b4bb32b91034b6b83632b6b2b73a32b960711b606082015260800190565b6020808252601d908201527f546865726520697320616e206f6666657220696e2070726f6772657373000000604082015260600190565b6020808252602e908201527f496e697469616c697a61626c653a20636f6e747261637420697320616c72656160408201526d191e481a5b9a5d1a585b1a5e995960921b606082015260800190565b6020808252602d908201527f4f6e6c79206f776e6572206f7220617070726f7665642063616e206368616e6760408201526c6520746f6b656e20707269636560981b606082015260800190565b60208082526031908201527f4552433732313a207472616e736665722063616c6c6572206973206e6f74206f6040820152701ddb995c881b9bdc88185c1c1c9bdd9959607a1b606082015260800190565b6020808252601d908201527f5468657265206973206e6f206f6666657220696e2070726f6772657373000000604082015260600190565b6020808252602b908201527f496e697469616c697a61626c653a20636f6e7472616374206973206e6f74206960408201526a6e697469616c697a696e6760a81b606082015260800190565b9283526020830191909152604082015260600190565b604080825283516001600160a01b031690820152602083015160c06060830152600090613126610100840182612dd7565b90506040850151603f198483030160808501526131438282612dd7565b915050606085015160a0840152608085015160c084015260a085015161316c60e0850182612e03565b506020929092019290925292915050565b6000606082019050613190828551612e03565b602093840151938201939093526001600160a01b039190911660409091015290565b9182526001600160a01b0316602082015260400190565b604051601f8201601f191681016001600160401b03811182821017156131f1576131f1613457565b604052919050565b60006001600160401b0382111561321257613212613457565b5060051b60200190565b6000821982111561322f5761322f6133ff565b500190565b60008261324357613243613415565b500490565b600181815b80851115613283578160001904821115613269576132696133ff565b8085161561327657918102915b93841c939080029061324d565b509250929050565b60006116cf83836000826132a157506001610614565b816132ae57506000610614565b81600181146132c457600281146132ce576132ea565b6001915050610614565b60ff8411156132df576132df6133ff565b50506001821b610614565b5060208310610133831016604e8410600b841016171561330d575081810a610614565b6133178383613248565b806000190482111561332b5761332b6133ff565b029392505050565b600081600019048311821515161561334d5761334d6133ff565b500290565b600082821015613364576133646133ff565b500390565b60005b8381101561338457818101518382015260200161336c565b838111156111835750506000910152565b600181811c908216806133a957607f821691505b602082108114156133ca57634e487b7160e01b600052602260045260246000fd5b50919050565b60006000198214156133e4576133e46133ff565b5060010190565b6000826133fa576133fa613415565b500690565b634e487b7160e01b600052601160045260246000fd5b634e487b7160e01b600052601260045260246000fd5b634e487b7160e01b600052602160045260246000fd5b634e487b7160e01b600052603260045260246000fd5b634e487b7160e01b600052604160045260246000fd5b6001600160a01b038116811461348257600080fd5b50565b6001600160e01b03198116811461348257600080fdfeddf252ad1be2c89b69c2b068fc378daa952ba7f163c4a11628f55a4df523b3efa26469706673582212208c6885fbc019d8522f2cf236ac56ae437cc4709a7007cd732ef501c89bdbf10e64736f6c63430008070033",
  "immutableReferences": {},
  "source": "// SPDX-License-Identifier: GPL-3.0\r\n\r\npragma solidity 0.8.7;\r\n\r\n/**\r\n Certis Token is an ERC20 Token that grants its holder the right to:\r\n   - Vote on all the systems propositions (changing system configuraiton etc...)\r\n   - Receive Dividends for all the payments forwarded to the Treasury contract\r\n\r\nBefore every token transfer we contact the token gouvernance Base contracts so that the can update the tokens used for voting if needed\r\n\r\n */\r\n\r\nimport \"@openzeppelin/contracts-upgradeable/token/ERC721/ERC721Upgradeable.sol\";\r\nimport \"@openzeppelin/contracts-upgradeable/proxy/utils/Initializable.sol\";\r\nimport \"../Base/ManagedBaseContract.sol\";\r\nimport \"../Libraries/Library.sol\";\r\nimport \"../Libraries/ItemsLibrary.sol\";\r\nimport \"../Interfaces/ITreasury.sol\";\r\nimport \"../Interfaces/INFTMarket.sol\";\r\n\r\n\r\n contract NFTMarket is  INFTMarket, Initializable, ManagedBaseContract, ERC721Upgradeable {\r\n    using Library for *;\r\n\r\n  // EVENTS /////////////////////////////////////////\r\n  \r\n\r\n  // DATA /////////////////////////////////////////\r\n  address _owner;\r\n  Library.PaymentPlans _paymentPlan;\r\n  uint256 _offersLifeTime;\r\n  uint256 _ownerTransferFeeAmount;\r\n  uint256 _ownerTransferFeeDecimals;\r\n\r\n  mapping(uint256 => _tokenStruct) private _tokenInfo;\r\n  mapping(uint256 => _offerStruct) private _tokenOffer;\r\n\r\n  mapping(address => ItemsLibrary._BalanceStruct) private _balanceOfAccount;\r\n\r\n\r\n  // MODIFIERS /////////////////////////////////////////\r\n  modifier isTheOwner(address addr){\r\n      require(_owner == addr, \"Only the Owner is allowed to do that\");\r\n      _;\r\n  }\r\n\r\n  modifier isTokenOwnerOrApproved(uint256 tokenId){\r\n      require(_isApprovedOrOwner(_msgSender(), tokenId), \"Only owner or approved can change token price\");\r\n      _;\r\n  }\r\n\r\n  modifier OfferInProgress(uint256 tokenId, bool YesOrNo){\r\n      if(YesOrNo) require(block.timestamp <= _tokenOffer[tokenId]._deadline, \"There is no offer in progress\");\r\n      else require(block.timestamp > _tokenOffer[tokenId]._deadline, \"There is an offer in progress\");\r\n      _;\r\n  }\r\n\r\n  modifier priceOK(uint256 tokenId, uint256 offer){\r\n      require(offer >= _tokenInfo[tokenId]._price, \"The offer is below the minimum price\");\r\n      _;\r\n  }\r\n\r\n  modifier validFees(uint256 fee, uint256 decimals){\r\n    Library.validFees(fee, decimals);\r\n    _;\r\n  }\r\n\r\n  \r\n\r\n  // CONSTRUCTOR /////////////////////////////////////////\r\n  function NFTMarket_init(address managerContractAddress, address owner, string memory name, string memory symbol, uint256 offersLifeTime, uint256 ownerTransferFeeAmount, uint256 ownerTransferFeeDecimals, uint8 paymentPlan) public initializer \r\n    validFees(ownerTransferFeeAmount, ownerTransferFeeDecimals)\r\n  {\r\n      super.ManagedBaseContract_init(managerContractAddress); \r\n      super.__ERC721_init(name, symbol); \r\n\r\n      _owner = owner;\r\n      _paymentPlan = Library.PaymentPlans(paymentPlan);\r\n      _offersLifeTime = offersLifeTime;\r\n      _ownerTransferFeeAmount = ownerTransferFeeAmount;\r\n      _ownerTransferFeeDecimals = ownerTransferFeeDecimals;\r\n  }\r\n\r\n  // FUNCTIONALITY /////////////////////////////////////////\r\n  function changeOwner(address newOwner) external override\r\n    isTheOwner(msg.sender)\r\n  {\r\n      _owner = newOwner;\r\n  }\r\n\r\n  function changePaymentPlan(Library.PaymentPlans newPaymentPlan) external override\r\n    isTheOwner(msg.sender)\r\n  {\r\n      _paymentPlan = newPaymentPlan;\r\n  }\r\n\r\n  function changeOffersLifeTime(uint256 newLifeTime) external override\r\n    isTheOwner(msg.sender)\r\n  {\r\n      _offersLifeTime = newLifeTime;\r\n  }\r\n\r\n  function changeOwnerTransferFees(uint256 newAmount, uint256 newDecimals) external override\r\n    isTheOwner(msg.sender)\r\n    validFees(newAmount, newDecimals)\r\n  {\r\n      _ownerTransferFeeAmount = newAmount;\r\n      _ownerTransferFeeDecimals = newDecimals;\r\n  }\r\n\r\n  function mintToken(uint256 tokenId, address receiver, uint256 price) external payable override\r\n    isTheOwner(msg.sender)\r\n  {\r\n      if(_paymentPlan == Library.PaymentPlans.Minting)\r\n      {\r\n        uint[] memory Prices = ITreasury(_managerContract.retrieveTransparentProxies()[uint256(Library.TransparentProxies.Treasury)]).retrieveSettings();\r\n        uint256 MintingFee = Prices[uint256(Library.Prices.MintingFee)];\r\n        uint256 AdminMintingFee = Prices[uint256(Library.Prices.AdminMintingFee)];\r\n        require(msg.value >= MintingFee + AdminMintingFee, \"Minting Fees not enough\");\r\n\r\n        ItemsLibrary.TransferEtherTo(MintingFee, _managerContract.retrieveTransparentProxies()[uint256(Library.TransparentProxies.Treasury)]);\r\n        ItemsLibrary.TransferEtherTo(msg.value - MintingFee, _managerContract.retrieveTransparentProxies()[uint256(Library.TransparentProxies.AdminPiggyBank)]);\r\n      }\r\n      _safeMint(receiver, tokenId);\r\n      _tokenInfo[tokenId]._price = price;\r\n      _tokenInfo[tokenId]._paymentPlan = _paymentPlan;\r\n  }\r\n\r\n  function setTokenPrice(uint256 tokenId, uint256 price) external override\r\n    isTokenOwnerOrApproved(tokenId)\r\n  {\r\n      _tokenInfo[tokenId]._price = price;\r\n  }\r\n\r\n  function acceptOffer(uint256 tokenId) external override\r\n    isTokenOwnerOrApproved(tokenId)\r\n    OfferInProgress(tokenId, true)\r\n  {\r\n    (uint256 OwnerTransferFeeAmount, uint256 TransferFeeAmount, uint256 AdminTransferFeeAmount, uint256 commonDecimals) = getFees(tokenId);\r\n\r\n\r\n    uint256 percentageForTokenOwner = (100 * 10**commonDecimals) - OwnerTransferFeeAmount - TransferFeeAmount - AdminTransferFeeAmount;\r\n    require(percentageForTokenOwner >= 0, \"Fees exceed 100 percent\");\r\n\r\n    address FormerOwner = ownerOf(tokenId);\r\n\r\n    _safeTransfer(FormerOwner, _tokenOffer[tokenId]._bidder, tokenId, \"\");\r\n    uint256 offer = _tokenOffer[tokenId]._offer;\r\n    removeOffer(tokenId);\r\n\r\n    Pay(_managerContract.retrieveTransparentProxies()[uint256(Library.TransparentProxies.Treasury)], offer, TransferFeeAmount, commonDecimals, false);\r\n    Pay(_managerContract.retrieveTransparentProxies()[uint256(Library.TransparentProxies.AdminPiggyBank)], offer, AdminTransferFeeAmount, commonDecimals, false);\r\n    Pay(_owner, offer, OwnerTransferFeeAmount, commonDecimals, true);\r\n    Pay(FormerOwner, offer, percentageForTokenOwner, commonDecimals, true);\r\n  }\r\n\r\n  function getFees(uint256 tokenId) internal view returns(uint256, uint256, uint256, uint256)\r\n  {\r\n    uint256 OwnerTransferFeeAmount = _ownerTransferFeeAmount;\r\n    uint256 OwnerTransferFeeDecimals = _ownerTransferFeeDecimals;\r\n    uint256 TransferFeeAmount = 0;\r\n    uint256 TransferFeeDecimals = 0;\r\n    uint256 AdminTransferFeeAmount = 0;\r\n    uint256 AdminTransferFeeDecimals = 0;\r\n\r\n    if(Library.PaymentPlans.TransferFee == _tokenInfo[tokenId]._paymentPlan){\r\n        uint[] memory Prices = ITreasury(_managerContract.retrieveTransparentProxies()[uint256(Library.TransparentProxies.Treasury)]).retrieveSettings();\r\n        TransferFeeAmount = Prices[uint256(Library.Prices.TransferFeeAmount)];\r\n        TransferFeeDecimals = Prices[uint256(Library.Prices.TransferFeeDecimals)];\r\n        AdminTransferFeeAmount = Prices[uint256(Library.Prices.AdminTransferFeeAmount)];\r\n        AdminTransferFeeDecimals = Prices[uint256(Library.Prices.AdminTransferFeeDecimals)];\r\n    }\r\n\r\n    uint256 commonDecimals = getLargest([OwnerTransferFeeDecimals, TransferFeeDecimals, AdminTransferFeeDecimals]); \r\n    OwnerTransferFeeAmount = OwnerTransferFeeAmount * 10**(commonDecimals - OwnerTransferFeeDecimals);\r\n    TransferFeeAmount = TransferFeeAmount * 10**(commonDecimals - TransferFeeDecimals);\r\n    AdminTransferFeeAmount = AdminTransferFeeAmount * 10**(commonDecimals - AdminTransferFeeDecimals);\r\n\r\n    return(OwnerTransferFeeAmount, TransferFeeAmount, AdminTransferFeeAmount, commonDecimals);\r\n  }\r\n    \r\n  function rejectOffer(uint256 tokenId) external override\r\n    isTokenOwnerOrApproved(tokenId)\r\n    OfferInProgress(tokenId, true)\r\n  {\r\n    assignToRejectedSender(_tokenOffer[tokenId]._sender, _tokenOffer[tokenId]._offer);\r\n    removeOffer(tokenId);\r\n  }\r\n\r\n  function removeOffer(uint256 tokenId) internal\r\n  {\r\n    delete(_tokenOffer[tokenId]);\r\n  }\r\n\r\n  function submitOffer(uint256 tokenId, address bidder) external payable override\r\n    OfferInProgress(tokenId, false)\r\n    priceOK(tokenId, msg.value)\r\n  {\r\n      if(address(0) != _tokenOffer[tokenId]._sender) assignToRejectedSender(_tokenOffer[tokenId]._sender, _tokenOffer[tokenId]._offer);\r\n      _tokenOffer[tokenId]._offer = msg.value;\r\n      _tokenOffer[tokenId]._sender = msg.sender;\r\n      _tokenOffer[tokenId]._bidder = bidder;\r\n      _tokenOffer[tokenId]._deadline = block.timestamp + _offersLifeTime;\r\n  }\r\n    \r\n  function withdrawOffer(uint256 tokenId) external override\r\n    OfferInProgress(tokenId, false)\r\n  {\r\n    require(msg.sender == _tokenOffer[tokenId]._sender, \"Only the original sender can withdraw the bid\");\r\n    assignToRejectedSender(_tokenOffer[tokenId]._sender, _tokenOffer[tokenId]._offer);\r\n    removeOffer(tokenId);\r\n    internalWithdraw(msg.sender, true);\r\n  }\r\n\r\n  function withdraw() external override\r\n  {\r\n    internalWithdraw(msg.sender, true);\r\n  }\r\n\r\n  function assignToRejectedSender(address sender, uint256 offer) internal\r\n  {\r\n      ItemsLibrary.addBalance(_balanceOfAccount[sender], offer, 1);\r\n  }\r\n\r\n  function Pay(address to, uint256 amount, uint256 percentage, uint256 decimals, bool AssignOrSend) internal\r\n  {\r\n      uint256 numerator = amount * percentage;\r\n      uint256 denominator = 100 * 10**decimals;\r\n\r\n      uint256 quotient = numerator / denominator;\r\n      uint256 remainder = numerator - (quotient * denominator);\r\n\r\n      ItemsLibrary.addBalance(_balanceOfAccount[to], quotient, 1);\r\n      ItemsLibrary.addBalance(_balanceOfAccount[to], remainder, denominator);\r\n\r\n      if(false == AssignOrSend)\r\n      {\r\n        internalWithdraw(to, true);\r\n      }\r\n  }\r\n\r\n  function internalWithdraw(address addr, bool send) internal\r\n  {\r\n    uint256 amount = ItemsLibrary.checkFullBalance(_balanceOfAccount[addr]);\r\n    ItemsLibrary.InternalWithdraw(_balanceOfAccount[addr], amount, addr, send);\r\n  }\r\n\r\n  function retrieveIssuer() external override view returns (ItemsLibrary._issuerStruct memory, uint256)\r\n  {\r\n    return(ItemsLibrary._issuerStruct(_owner, name(), symbol(), _ownerTransferFeeAmount, _ownerTransferFeeDecimals, _paymentPlan), _offersLifeTime);\r\n  }\r\n\r\n  function retrieveToken(uint256 tokenId) external override view returns (_tokenStruct memory, address)\r\n  {\r\n    return(_tokenInfo[tokenId], ownerOf(tokenId));\r\n  }\r\n\r\n  function retrieveOffer(uint256 tokenId) external override view returns (_offerStruct memory)\r\n  {\r\n      return(_tokenOffer[tokenId]);\r\n  }\r\n\r\n  function getLargest(uint256[3] memory nums) internal pure returns(uint256)\r\n  {\r\n    uint256 largest = 0;\r\n\r\n    for(uint i=0; i < nums.length; i++)\r\n    {\r\n        if(largest < nums[i])largest = nums[i];\r\n    }\r\n\r\n    return largest;\r\n  }\r\n\r\n }",
  "sourcePath": "C:\\Users\\d-aam\\GitHub\\Originals\\contracts\\MainContracts\\NFTMarket.sol",
  "compiler": {
    "name": "solc",
    "version": "0.8.7+commit.e28d00a7.Emscripten.clang"
  },
  "schemaVersion": "3.4.3",
  "updatedAt": "2022-01-26T10:09:21.735Z",
  "devdoc": {
    "kind": "dev",
    "methods": {
      "approve(address,uint256)": {
        "details": "See {IERC721-approve}."
      },
      "balanceOf(address)": {
        "details": "See {IERC721-balanceOf}."
      },
      "getApproved(uint256)": {
        "details": "See {IERC721-getApproved}."
      },
      "isApprovedForAll(address,address)": {
        "details": "See {IERC721-isApprovedForAll}."
      },
      "name()": {
        "details": "See {IERC721Metadata-name}."
      },
      "ownerOf(uint256)": {
        "details": "See {IERC721-ownerOf}."
      },
      "safeTransferFrom(address,address,uint256)": {
        "details": "See {IERC721-safeTransferFrom}."
      },
      "safeTransferFrom(address,address,uint256,bytes)": {
        "details": "See {IERC721-safeTransferFrom}."
      },
      "setApprovalForAll(address,bool)": {
        "details": "See {IERC721-setApprovalForAll}."
      },
      "supportsInterface(bytes4)": {
        "details": "See {IERC165-supportsInterface}."
      },
      "symbol()": {
        "details": "See {IERC721Metadata-symbol}."
      },
      "tokenURI(uint256)": {
        "details": "See {IERC721Metadata-tokenURI}."
      },
      "transferFrom(address,address,uint256)": {
        "details": "See {IERC721-transferFrom}."
      }
    },
    "version": 1
  },
  "userdoc": {
    "kind": "user",
    "methods": {},
    "version": 1
  }
}