{
  "contractName": "NFTMarket",
  "abi": [
    {
      "anonymous": false,
      "inputs": [
        {
          "indexed": true,
          "internalType": "address",
          "name": "owner",
          "type": "address"
        },
        {
          "indexed": true,
          "internalType": "address",
          "name": "approved",
          "type": "address"
        },
        {
          "indexed": true,
          "internalType": "uint256",
          "name": "tokenId",
          "type": "uint256"
        }
      ],
      "name": "Approval",
      "type": "event"
    },
    {
      "anonymous": false,
      "inputs": [
        {
          "indexed": true,
          "internalType": "address",
          "name": "owner",
          "type": "address"
        },
        {
          "indexed": true,
          "internalType": "address",
          "name": "operator",
          "type": "address"
        },
        {
          "indexed": false,
          "internalType": "bool",
          "name": "approved",
          "type": "bool"
        }
      ],
      "name": "ApprovalForAll",
      "type": "event"
    },
    {
      "anonymous": false,
      "inputs": [
        {
          "indexed": true,
          "internalType": "address",
          "name": "from",
          "type": "address"
        },
        {
          "indexed": true,
          "internalType": "address",
          "name": "to",
          "type": "address"
        },
        {
          "indexed": true,
          "internalType": "uint256",
          "name": "tokenId",
          "type": "uint256"
        }
      ],
      "name": "Transfer",
      "type": "event"
    },
    {
      "anonymous": false,
      "inputs": [
        {
          "indexed": true,
          "internalType": "uint256",
          "name": "tokenId",
          "type": "uint256"
        },
        {
          "indexed": true,
          "internalType": "address",
          "name": "formerOwner",
          "type": "address"
        },
        {
          "indexed": true,
          "internalType": "address",
          "name": "newOwner",
          "type": "address"
        },
        {
          "indexed": false,
          "internalType": "uint256",
          "name": "offer",
          "type": "uint256"
        }
      ],
      "name": "_AcceptOffer",
      "type": "event"
    },
    {
      "anonymous": false,
      "inputs": [
        {
          "indexed": true,
          "internalType": "uint256",
          "name": "tokenId",
          "type": "uint256"
        },
        {
          "indexed": false,
          "internalType": "address",
          "name": "receiver",
          "type": "address"
        },
        {
          "indexed": false,
          "internalType": "uint256",
          "name": "price",
          "type": "uint256"
        },
        {
          "indexed": false,
          "internalType": "enum Library.PaymentPlans",
          "name": "plan",
          "type": "uint8"
        },
        {
          "indexed": false,
          "internalType": "uint256",
          "name": "MintingFee",
          "type": "uint256"
        },
        {
          "indexed": false,
          "internalType": "uint256",
          "name": "AdminMintingFee",
          "type": "uint256"
        }
      ],
      "name": "_MintToken",
      "type": "event"
    },
    {
      "anonymous": false,
      "inputs": [
        {
          "indexed": true,
          "internalType": "uint256",
          "name": "formerLifeTime",
          "type": "uint256"
        },
        {
          "indexed": false,
          "internalType": "uint256",
          "name": "newLifeTime",
          "type": "uint256"
        }
      ],
      "name": "_NewOffersLifeTime",
      "type": "event"
    },
    {
      "anonymous": false,
      "inputs": [
        {
          "indexed": true,
          "internalType": "address",
          "name": "formerOwner",
          "type": "address"
        },
        {
          "indexed": false,
          "internalType": "address",
          "name": "newOwner",
          "type": "address"
        }
      ],
      "name": "_NewOwner",
      "type": "event"
    },
    {
      "anonymous": false,
      "inputs": [
        {
          "indexed": true,
          "internalType": "uint256",
          "name": "formerAmount",
          "type": "uint256"
        },
        {
          "indexed": true,
          "internalType": "uint256",
          "name": "formerDecimals",
          "type": "uint256"
        },
        {
          "indexed": false,
          "internalType": "uint256",
          "name": "newAmount",
          "type": "uint256"
        },
        {
          "indexed": false,
          "internalType": "uint256",
          "name": "newDecimals",
          "type": "uint256"
        }
      ],
      "name": "_NewOwnerFees",
      "type": "event"
    },
    {
      "anonymous": false,
      "inputs": [
        {
          "indexed": false,
          "internalType": "enum Library.PaymentPlans",
          "name": "formerPlan",
          "type": "uint8"
        },
        {
          "indexed": false,
          "internalType": "enum Library.PaymentPlans",
          "name": "newPlan",
          "type": "uint8"
        }
      ],
      "name": "_NewPaymentPlan",
      "type": "event"
    },
    {
      "anonymous": false,
      "inputs": [
        {
          "indexed": true,
          "internalType": "uint256",
          "name": "tokenId",
          "type": "uint256"
        }
      ],
      "name": "_RejectOffer",
      "type": "event"
    },
    {
      "anonymous": false,
      "inputs": [
        {
          "indexed": true,
          "internalType": "uint256",
          "name": "tokenId",
          "type": "uint256"
        },
        {
          "indexed": true,
          "internalType": "uint256",
          "name": "formerPrice",
          "type": "uint256"
        },
        {
          "indexed": false,
          "internalType": "uint256",
          "name": "newPrice",
          "type": "uint256"
        }
      ],
      "name": "_SetTokenPrice",
      "type": "event"
    },
    {
      "anonymous": false,
      "inputs": [
        {
          "indexed": true,
          "internalType": "uint256",
          "name": "tokenId",
          "type": "uint256"
        },
        {
          "indexed": true,
          "internalType": "address",
          "name": "sender",
          "type": "address"
        },
        {
          "indexed": true,
          "internalType": "address",
          "name": "bidder",
          "type": "address"
        },
        {
          "indexed": false,
          "internalType": "uint256",
          "name": "offer",
          "type": "uint256"
        },
        {
          "indexed": false,
          "internalType": "bool",
          "name": "FromCredit",
          "type": "bool"
        }
      ],
      "name": "_SubmitOffer",
      "type": "event"
    },
    {
      "anonymous": false,
      "inputs": [
        {
          "indexed": true,
          "internalType": "uint256",
          "name": "tokenId",
          "type": "uint256"
        }
      ],
      "name": "_WithdrawOffer",
      "type": "event"
    },
    {
      "inputs": [
        {
          "internalType": "address",
          "name": "to",
          "type": "address"
        },
        {
          "internalType": "uint256",
          "name": "tokenId",
          "type": "uint256"
        }
      ],
      "name": "approve",
      "outputs": [],
      "stateMutability": "nonpayable",
      "type": "function"
    },
    {
      "inputs": [
        {
          "internalType": "address",
          "name": "owner",
          "type": "address"
        }
      ],
      "name": "balanceOf",
      "outputs": [
        {
          "internalType": "uint256",
          "name": "",
          "type": "uint256"
        }
      ],
      "stateMutability": "view",
      "type": "function"
    },
    {
      "inputs": [
        {
          "internalType": "uint256",
          "name": "tokenId",
          "type": "uint256"
        }
      ],
      "name": "getApproved",
      "outputs": [
        {
          "internalType": "address",
          "name": "",
          "type": "address"
        }
      ],
      "stateMutability": "view",
      "type": "function"
    },
    {
      "inputs": [
        {
          "internalType": "address",
          "name": "owner",
          "type": "address"
        },
        {
          "internalType": "address",
          "name": "operator",
          "type": "address"
        }
      ],
      "name": "isApprovedForAll",
      "outputs": [
        {
          "internalType": "bool",
          "name": "",
          "type": "bool"
        }
      ],
      "stateMutability": "view",
      "type": "function"
    },
    {
      "inputs": [],
      "name": "name",
      "outputs": [
        {
          "internalType": "string",
          "name": "",
          "type": "string"
        }
      ],
      "stateMutability": "view",
      "type": "function"
    },
    {
      "inputs": [
        {
          "internalType": "uint256",
          "name": "tokenId",
          "type": "uint256"
        }
      ],
      "name": "ownerOf",
      "outputs": [
        {
          "internalType": "address",
          "name": "",
          "type": "address"
        }
      ],
      "stateMutability": "view",
      "type": "function"
    },
    {
      "inputs": [],
      "name": "retrieveManagerContract",
      "outputs": [
        {
          "internalType": "address",
          "name": "",
          "type": "address"
        }
      ],
      "stateMutability": "view",
      "type": "function"
    },
    {
      "inputs": [
        {
          "internalType": "address",
          "name": "from",
          "type": "address"
        },
        {
          "internalType": "address",
          "name": "to",
          "type": "address"
        },
        {
          "internalType": "uint256",
          "name": "tokenId",
          "type": "uint256"
        }
      ],
      "name": "safeTransferFrom",
      "outputs": [],
      "stateMutability": "nonpayable",
      "type": "function"
    },
    {
      "inputs": [
        {
          "internalType": "address",
          "name": "from",
          "type": "address"
        },
        {
          "internalType": "address",
          "name": "to",
          "type": "address"
        },
        {
          "internalType": "uint256",
          "name": "tokenId",
          "type": "uint256"
        },
        {
          "internalType": "bytes",
          "name": "_data",
          "type": "bytes"
        }
      ],
      "name": "safeTransferFrom",
      "outputs": [],
      "stateMutability": "nonpayable",
      "type": "function"
    },
    {
      "inputs": [
        {
          "internalType": "address",
          "name": "operator",
          "type": "address"
        },
        {
          "internalType": "bool",
          "name": "approved",
          "type": "bool"
        }
      ],
      "name": "setApprovalForAll",
      "outputs": [],
      "stateMutability": "nonpayable",
      "type": "function"
    },
    {
      "inputs": [
        {
          "internalType": "bytes4",
          "name": "interfaceId",
          "type": "bytes4"
        }
      ],
      "name": "supportsInterface",
      "outputs": [
        {
          "internalType": "bool",
          "name": "",
          "type": "bool"
        }
      ],
      "stateMutability": "view",
      "type": "function"
    },
    {
      "inputs": [],
      "name": "symbol",
      "outputs": [
        {
          "internalType": "string",
          "name": "",
          "type": "string"
        }
      ],
      "stateMutability": "view",
      "type": "function"
    },
    {
      "inputs": [
        {
          "internalType": "uint256",
          "name": "tokenId",
          "type": "uint256"
        }
      ],
      "name": "tokenURI",
      "outputs": [
        {
          "internalType": "string",
          "name": "",
          "type": "string"
        }
      ],
      "stateMutability": "view",
      "type": "function"
    },
    {
      "inputs": [
        {
          "internalType": "address",
          "name": "from",
          "type": "address"
        },
        {
          "internalType": "address",
          "name": "to",
          "type": "address"
        },
        {
          "internalType": "uint256",
          "name": "tokenId",
          "type": "uint256"
        }
      ],
      "name": "transferFrom",
      "outputs": [],
      "stateMutability": "nonpayable",
      "type": "function"
    },
    {
      "inputs": [
        {
          "internalType": "address",
          "name": "managerContractAddress",
          "type": "address"
        },
        {
          "internalType": "address",
          "name": "owner",
          "type": "address"
        },
        {
          "internalType": "string",
          "name": "name",
          "type": "string"
        },
        {
          "internalType": "string",
          "name": "symbol",
          "type": "string"
        },
        {
          "internalType": "uint256",
          "name": "offersLifeTime",
          "type": "uint256"
        },
        {
          "internalType": "uint256",
          "name": "ownerTransferFeeAmount",
          "type": "uint256"
        },
        {
          "internalType": "uint256",
          "name": "ownerTransferFeeDecimals",
          "type": "uint256"
        },
        {
          "internalType": "uint256",
          "name": "issuerID",
          "type": "uint256"
        },
        {
          "internalType": "uint8",
          "name": "paymentPlan",
          "type": "uint8"
        }
      ],
      "name": "NFTMarket_init",
      "outputs": [],
      "stateMutability": "nonpayable",
      "type": "function"
    },
    {
      "inputs": [
        {
          "internalType": "address",
          "name": "newOwner",
          "type": "address"
        }
      ],
      "name": "changeOwner",
      "outputs": [],
      "stateMutability": "nonpayable",
      "type": "function"
    },
    {
      "inputs": [
        {
          "internalType": "enum Library.PaymentPlans",
          "name": "newPaymentPlan",
          "type": "uint8"
        }
      ],
      "name": "changePaymentPlan",
      "outputs": [],
      "stateMutability": "nonpayable",
      "type": "function"
    },
    {
      "inputs": [
        {
          "internalType": "uint256",
          "name": "newLifeTime",
          "type": "uint256"
        }
      ],
      "name": "changeOffersLifeTime",
      "outputs": [],
      "stateMutability": "nonpayable",
      "type": "function"
    },
    {
      "inputs": [
        {
          "internalType": "uint256",
          "name": "newAmount",
          "type": "uint256"
        },
        {
          "internalType": "uint256",
          "name": "newDecimals",
          "type": "uint256"
        }
      ],
      "name": "changeOwnerTransferFees",
      "outputs": [],
      "stateMutability": "nonpayable",
      "type": "function"
    },
    {
      "inputs": [
        {
          "internalType": "uint256",
          "name": "tokenId",
          "type": "uint256"
        },
        {
          "internalType": "address",
          "name": "receiver",
          "type": "address"
        },
        {
          "internalType": "uint256",
          "name": "price",
          "type": "uint256"
        }
      ],
      "name": "mintToken",
      "outputs": [],
      "stateMutability": "nonpayable",
      "type": "function"
    },
    {
      "inputs": [
        {
          "internalType": "uint256",
          "name": "tokenId",
          "type": "uint256"
        },
        {
          "internalType": "uint256",
          "name": "price",
          "type": "uint256"
        }
      ],
      "name": "setTokenPrice",
      "outputs": [],
      "stateMutability": "nonpayable",
      "type": "function"
    },
    {
      "inputs": [
        {
          "internalType": "uint256",
          "name": "tokenId",
          "type": "uint256"
        }
      ],
      "name": "acceptOffer",
      "outputs": [],
      "stateMutability": "nonpayable",
      "type": "function"
    },
    {
      "inputs": [
        {
          "internalType": "uint256",
          "name": "tokenId",
          "type": "uint256"
        }
      ],
      "name": "rejectOffer",
      "outputs": [],
      "stateMutability": "nonpayable",
      "type": "function"
    },
    {
      "inputs": [
        {
          "internalType": "uint256",
          "name": "tokenId",
          "type": "uint256"
        },
        {
          "internalType": "address",
          "name": "bidder",
          "type": "address"
        },
        {
          "internalType": "uint256",
          "name": "offer",
          "type": "uint256"
        },
        {
          "internalType": "bool",
          "name": "FromCredit",
          "type": "bool"
        }
      ],
      "name": "submitOffer",
      "outputs": [],
      "stateMutability": "nonpayable",
      "type": "function"
    },
    {
      "inputs": [
        {
          "internalType": "uint256",
          "name": "tokenId",
          "type": "uint256"
        }
      ],
      "name": "withdrawOffer",
      "outputs": [],
      "stateMutability": "nonpayable",
      "type": "function"
    },
    {
      "inputs": [],
      "name": "retrieveIssuer",
      "outputs": [
        {
          "components": [
            {
              "internalType": "address",
              "name": "_owner",
              "type": "address"
            },
            {
              "internalType": "string",
              "name": "_name",
              "type": "string"
            },
            {
              "internalType": "string",
              "name": "_symbol",
              "type": "string"
            },
            {
              "internalType": "uint256",
              "name": "_feeAmount",
              "type": "uint256"
            },
            {
              "internalType": "uint256",
              "name": "_feeDecimals",
              "type": "uint256"
            },
            {
              "internalType": "enum Library.PaymentPlans",
              "name": "_paymentPlan",
              "type": "uint8"
            }
          ],
          "internalType": "struct ItemsLibrary._issuerStruct",
          "name": "",
          "type": "tuple"
        },
        {
          "internalType": "uint256",
          "name": "",
          "type": "uint256"
        }
      ],
      "stateMutability": "view",
      "type": "function"
    },
    {
      "inputs": [
        {
          "internalType": "uint256",
          "name": "tokenId",
          "type": "uint256"
        }
      ],
      "name": "retrieveToken",
      "outputs": [
        {
          "components": [
            {
              "internalType": "enum Library.PaymentPlans",
              "name": "_paymentPlan",
              "type": "uint8"
            },
            {
              "internalType": "uint256",
              "name": "_price",
              "type": "uint256"
            }
          ],
          "internalType": "struct INFTMarket._tokenStruct",
          "name": "",
          "type": "tuple"
        },
        {
          "internalType": "address",
          "name": "",
          "type": "address"
        }
      ],
      "stateMutability": "view",
      "type": "function"
    },
    {
      "inputs": [
        {
          "internalType": "uint256",
          "name": "tokenId",
          "type": "uint256"
        }
      ],
      "name": "retrieveOffer",
      "outputs": [
        {
          "components": [
            {
              "internalType": "uint256",
              "name": "_offer",
              "type": "uint256"
            },
            {
              "internalType": "address",
              "name": "_sender",
              "type": "address"
            },
            {
              "internalType": "address",
              "name": "_bidder",
              "type": "address"
            },
            {
              "internalType": "uint256",
              "name": "_deadline",
              "type": "uint256"
            }
          ],
          "internalType": "struct INFTMarket._offerStruct",
          "name": "",
          "type": "tuple"
        }
      ],
      "stateMutability": "view",
      "type": "function"
    }
  ],
  "bytecode": "0x608060405234801561001057600080fd5b5061451c806100206000396000f3fe608060405234801561001057600080fd5b50600436106101545760003560e01c806301ffc9a71461015957806306fdde0314610181578063081812fc14610196578063095ea7b3146101b657806323b872dd146101cb57806342842e0e146101de5780635542f680146101f15780635b362e84146102125780636352211e1461022957806370a082311461023c5780637811a5bf1461025d5780638610f0451461027057806388b10c751461028357806393f82e161461029657806395d89b41146102a957806398a7541d146102b15780639d16764f146102c4578063a22cb465146102d7578063a6f9dae1146102ea578063aa918550146102fd578063b88d4fde14610310578063c815729d14610323578063c87b56dd14610336578063ca25f9e414610349578063cc3ff7281461035f578063cf0ba57514610372578063e985e9c514610432578063eb685c4714610445575b600080fd5b61016c610167366004613aa5565b610458565b60405190151581526020015b60405180910390f35b6101896104aa565b6040516101789190613e04565b6101a96101a4366004613b76565b61053c565b6040516101789190613cd8565b6101c96101c4366004613935565b6105c9565b005b6101c96101d9366004613840565b6106da565b6101c96101ec366004613840565b61070c565b6102046101ff366004613b76565b610727565b6040516101789291906140da565b6000546201000090046001600160a01b03166101a9565b6101a9610237366004613b76565b6107a0565b61024f61024a36600461372a565b610817565b604051908152602001610178565b6101c961026b366004613b8f565b61089e565b6101c961027e366004613b76565b610ddb565b6101c9610291366004613b76565b610ece565b6101c96102a4366004613b55565b610f6b565b61018961100d565b6101c96102bf366004613780565b61101c565b6101c96102d2366004613b76565b611182565b6101c96102e5366004613900565b6111ea565b6101c96102f836600461372a565b6111f9565b6101c961030b366004613bfe565b61128f565b6101c961031e366004613881565b611373565b6101c9610331366004613b76565b6113ab565b610189610344366004613b76565b611af1565b610351611bc9565b604051610178929190614052565b6101c961036d366004613bb6565b611c4a565b6103f1610380366004613b76565b6040805160808082018352600080835260208084018290528385018290526060938401829052948152609d8552839020835191820184528054825260018101546001600160a01b03908116958301959095526002810154909416928101929092526003909201549181019190915290565b60408051825181526020808401516001600160a01b039081169183019190915283830151169181019190915260609182015191810191909152608001610178565b61016c610440366004613747565b612348565b6101c9610453366004613bfe565b612376565b60006001600160e01b031982166380ac58cd60e01b148061048957506001600160e01b03198216635b5e139f60e01b145b806104a457506301ffc9a760e01b6001600160e01b03198316145b92915050565b6060606580546104b9906143c0565b80601f01602080910402602001604051908101604052809291908181526020018280546104e5906143c0565b80156105325780601f1061050757610100808354040283529160200191610532565b820191906000526020600020905b81548152906001019060200180831161051557829003601f168201915b5050505050905090565b6000610547826123fa565b6105ad5760405162461bcd60e51b815260206004820152602c60248201527f4552433732313a20617070726f76656420717565727920666f72206e6f6e657860448201526b34b9ba32b73a103a37b5b2b760a11b60648201526084015b60405180910390fd5b506000908152606960205260409020546001600160a01b031690565b60006105d4826107a0565b9050806001600160a01b0316836001600160a01b031614156106425760405162461bcd60e51b815260206004820152602160248201527f4552433732313a20617070726f76616c20746f2063757272656e74206f776e656044820152603960f91b60648201526084016105a4565b336001600160a01b038216148061065e575061065e8133612348565b6106cb5760405162461bcd60e51b815260206004820152603860248201527f4552433732313a20617070726f76652063616c6c6572206973206e6f74206f776044820152771b995c881b9bdc88185c1c1c9bdd995908199bdc88185b1b60421b60648201526084016105a4565b6106d58383612417565b505050565b6106e5335b82612485565b6107015760405162461bcd60e51b81526004016105a490613f7f565b6106d583838361254f565b6106d583838360405180602001604052806000815250611373565b60408051808201909152600080825260208201526000828152609c60205260408120610752846107a0565b6040805180820190915282548390829060ff16600181111561077657610776614456565b600181111561078757610787614456565b8152602001600182015481525050915091509150915091565b6000818152606760205260408120546001600160a01b0316806104a45760405162461bcd60e51b815260206004820152602960248201527f4552433732313a206f776e657220717565727920666f72206e6f6e657869737460448201526832b73a103a37b5b2b760b91b60648201526084016105a4565b60006001600160a01b0382166108825760405162461bcd60e51b815260206004820152602a60248201527f4552433732313a2062616c616e636520717565727920666f7220746865207a65604482015269726f206164647265737360b01b60648201526084016105a4565b506001600160a01b031660009081526068602052604090205490565b60975433906001600160a01b031681146108ca5760405162461bcd60e51b81526004016105a490613e17565b60008080609754600160a01b900460ff1660018111156108ec576108ec614456565b1415610d365760008060029054906101000a90046001600160a01b03166001600160a01b031663e220ad956040518163ffffffff1660e01b815260040160006040518083038186803b15801561094157600080fd5b505afa158015610955573d6000803e3d6000fd5b505050506040513d6000823e601f3d908101601f1916820160405261097d9190810190613961565b60028151811061098f5761098f61446c565b60200260200101516001600160a01b031663b049473f6040518163ffffffff1660e01b815260040160006040518083038186803b1580156109cf57600080fd5b505afa1580156109e3573d6000803e3d6000fd5b505050506040513d6000823e601f3d908101601f19168201604052610a0b9190810190613a01565b905080600281518110610a2057610a2061446c565b602002602001015192508060036008811115610a3e57610a3e614456565b81518110610a4e57610a4e61446c565b6020026020010151915060008060029054906101000a90046001600160a01b03166001600160a01b031663e220ad956040518163ffffffff1660e01b815260040160006040518083038186803b158015610aa757600080fd5b505afa158015610abb573d6000803e3d6000fd5b505050506040513d6000823e601f3d908101601f19168201604052610ae39190810190613961565b600681518110610af557610af561446c565b60200260200101519050806001600160a01b031663f815611533600060029054906101000a90046001600160a01b03166001600160a01b031663e220ad956040518163ffffffff1660e01b815260040160006040518083038186803b158015610b5d57600080fd5b505afa158015610b71573d6000803e3d6000fd5b505050506040513d6000823e601f3d908101601f19168201604052610b999190810190613961565b600281518110610bab57610bab61446c565b602002602001015187609b54604051806020016040528060008152506040518663ffffffff1660e01b8152600401610be7959493929190613d29565b600060405180830381600087803b158015610c0157600080fd5b505af1158015610c15573d6000803e3d6000fd5b50505050806001600160a01b031663f815611533600060029054906101000a90046001600160a01b03166001600160a01b031663e220ad956040518163ffffffff1660e01b815260040160006040518083038186803b158015610c7757600080fd5b505afa158015610c8b573d6000803e3d6000fd5b505050506040513d6000823e601f3d908101601f19168201604052610cb39190810190613961565b600581518110610cc557610cc561446c565b602002602001015186609b54604051806020016040528060008152506040518663ffffffff1660e01b8152600401610d01959493929190613d29565b600060405180830381600087803b158015610d1b57600080fd5b505af1158015610d2f573d6000803e3d6000fd5b5050505050505b610d4085876126dd565b6000868152609c6020526040902060018082018690556097548254600160a01b90910460ff16929160ff19909116908381811115610d8057610d80614456565b021790555060975460405187917f242baeff65c6a414799795196406344b40c33e2f112a0f415ef41cc7bbd960e691610dcb9189918991600160a01b900460ff169088908890613d6e565b60405180910390a2505050505050565b80600080828152609d60205260409020600301544211610e0d5760405162461bcd60e51b81526004016105a490613ead565b6000838152609d60205260409020600101546001600160a01b03163314610e8c5760405162461bcd60e51b815260206004820152602d60248201527f4f6e6c7920746865206f726967696e616c2073656e6465722063616e2077697460448201526c1a191c985dc81d1a1948189a59609a1b60648201526084016105a4565b610e95836126f7565b610e9e83612902565b60405183907f94b71a540d883ff6ff22bd47377cfb303fb9e624812d909e0f04198e606b37df90600090a2505050565b80610ed8336106df565b610ef45760405162461bcd60e51b81526004016105a490613f32565b8160016000828152609d6020526040902060030154421115610f285760405162461bcd60e51b81526004016105a490613fd0565b610f31846126f7565b610f3a84612902565b60405184907f8066a8132ff25ec62d01ed52cd55ddbae09c3c3e07e29d7c3de2ab2f44312aa390600090a250505050565b60975433906001600160a01b03168114610f975760405162461bcd60e51b81526004016105a490613e17565b7f0f6280276bfde6f31b6ca64ae1d1b7443f954a37caad3b1504f361841ec93e39609760149054906101000a900460ff1683604051610fd7929190613de9565b60405180910390a16097805483919060ff60a01b1916600160a01b83600181111561100457611004614456565b02179055505050565b6060606680546104b9906143c0565b600054610100900460ff166110375760005460ff161561103b565b303b155b6110575760405162461bcd60e51b81526004016105a490613ee4565b600054610100900460ff16158015611079576000805461ffff19166101011790555b848473__Library_______________________________63bdbff48783836040518363ffffffff1660e01b81526004016110b4929190614139565b60006040518083038186803b1580156110cc57600080fd5b505af41580156110e0573d6000803e3d6000fd5b505050506110ed8c612939565b6110f78a8a6129cd565b609780546001600160a01b0319166001600160a01b038d1617905560ff8416600181111561112757611127614456565b6097805460ff60a01b1916600160a01b83600181111561114957611149614456565b0217905550505060988690556099859055609a849055609b8390558015611176576000805461ff00191690555b50505050505050505050565b60975433906001600160a01b031681146111ae5760405162461bcd60e51b81526004016105a490613e17565b6098546040518381527ff3c2669e9a3f991cccc770ce527bedc7455f04ceb7e85ab4a76010664264a5a89060200160405180910390a250609855565b6111f5338383612a0e565b5050565b60975433906001600160a01b031681146112255760405162461bcd60e51b81526004016105a490613e17565b6097546040516001600160a01b03909116907f8ed2cc08e61acbfdbcf3b71ad64556a3bf3968c3eb0f63e668fa50743e2db37c90611264908590613cd8565b60405180910390a250609780546001600160a01b0319166001600160a01b0392909216919091179055565b60975433906001600160a01b031681146112bb5760405162461bcd60e51b81526004016105a490613e17565b828273__Library_______________________________63bdbff48783836040518363ffffffff1660e01b81526004016112f6929190614139565b60006040518083038186803b15801561130e57600080fd5b505af4158015611322573d6000803e3d6000fd5b50505050609a546099547f66b7f276cd6890c8ca84d869084baa18448ac900272b64d7ba639478f0afbcd8878760405161135d929190614139565b60405180910390a3505050609991909155609a55565b61137d3383612485565b6113995760405162461bcd60e51b81526004016105a490613f7f565b6113a584848484612ad9565b50505050565b806113b5336106df565b6113d15760405162461bcd60e51b81526004016105a490613f32565b8160016000828152609d60205260409020600301544211156114055760405162461bcd60e51b81526004016105a490613fd0565b6000848152609d60205260409020600201546001600160a01b0316611429856107a0565b6001600160a01b0316857fa598be7ff8ec838cdd72553d46ff4674ec76cf208fcc326c63ff80b03f491da8609d60008981526020019081526020016000206000015460405161147a91815260200190565b60405180910390a460008060008061149188612b0c565b935093509350935060008284866114a89190614247565b6114b29190614247565b60405163bdbff48760e01b815290915073__Library_______________________________9063bdbff487906114ee9084908690600401614139565b60006040518083038186803b15801561150657600080fd5b505af415801561151a573d6000803e3d6000fd5b5050505060008183600261152e9190614247565b61153990600a6142b6565b611543919061437d565b90506115846115518b6107a0565b60008c8152609d602090815260408083206002015481519283019091529181526001600160a01b03909116908d90612ad9565b61176a8a6040518060800160405280600060029054906101000a90046001600160a01b03166001600160a01b031663e220ad956040518163ffffffff1660e01b815260040160006040518083038186803b1580156115e157600080fd5b505afa1580156115f5573d6000803e3d6000fd5b505050506040513d6000823e601f3d908101601f1916820160405261161d9190810190613961565b60028151811061162f5761162f61446c565b60200260200101516001600160a01b03166001600160a01b03168152602001600060029054906101000a90046001600160a01b03166001600160a01b031663e220ad956040518163ffffffff1660e01b815260040160006040518083038186803b15801561169c57600080fd5b505afa1580156116b0573d6000803e3d6000fd5b505050506040513d6000823e601f3d908101601f191682016040526116d89190810190613961565b6005815181106116ea576116ea61446c565b6020908102919091018101516001600160a01b03908116835260975416908201526040016117178e6107a0565b6001600160a01b03166001600160a01b031681525060405180608001604052808981526020018881526020018a815260200185815250609d60008f81526020019081526020016000206000015487612db0565b6117738a612902565b600060029054906101000a90046001600160a01b03166001600160a01b031663e220ad956040518163ffffffff1660e01b815260040160006040518083038186803b1580156117c157600080fd5b505afa1580156117d5573d6000803e3d6000fd5b505050506040513d6000823e601f3d908101601f191682016040526117fd9190810190613961565b60018151811061180f5761180f61446c565b60200260200101516001600160a01b031663ab3fa2a5609b54600060029054906101000a90046001600160a01b03166001600160a01b031663e220ad956040518163ffffffff1660e01b815260040160006040518083038186803b15801561187657600080fd5b505afa15801561188a573d6000803e3d6000fd5b505050506040513d6000823e601f3d908101601f191682016040526118b29190810190613961565b6002815181106118c4576118c461446c565b6020026020010151604051806020016040528060008152506040518463ffffffff1660e01b81526004016118fa9392919061410f565b600060405180830381600087803b15801561191457600080fd5b505af1158015611928573d6000803e3d6000fd5b50505050600060029054906101000a90046001600160a01b03166001600160a01b031663e220ad956040518163ffffffff1660e01b815260040160006040518083038186803b15801561197a57600080fd5b505afa15801561198e573d6000803e3d6000fd5b505050506040513d6000823e601f3d908101601f191682016040526119b69190810190613961565b6001815181106119c8576119c861446c565b60200260200101516001600160a01b031663ab3fa2a5609b54600060029054906101000a90046001600160a01b03166001600160a01b031663e220ad956040518163ffffffff1660e01b815260040160006040518083038186803b158015611a2f57600080fd5b505afa158015611a43573d6000803e3d6000fd5b505050506040513d6000823e601f3d908101601f19168201604052611a6b9190810190613961565b600581518110611a7d57611a7d61446c565b6020026020010151604051806020016040528060008152506040518463ffffffff1660e01b8152600401611ab39392919061410f565b600060405180830381600087803b158015611acd57600080fd5b505af1158015611ae1573d6000803e3d6000fd5b5050505050505050505050505050565b6060611afc826123fa565b611b605760405162461bcd60e51b815260206004820152602f60248201527f4552433732314d657461646174613a2055524920717565727920666f72206e6f60448201526e3732bc34b9ba32b73a103a37b5b2b760891b60648201526084016105a4565b6000611b7760408051602081019091526000815290565b90506000815111611b975760405180602001604052806000815250611bc2565b80611ba18461312b565b604051602001611bb2929190613ca9565b6040516020818303038152906040525b9392505050565b611bd16135be565b6040805160c081019091526097546001600160a01b0316815260009060208101611bf96104aa565b8152602001611c0661100d565b81526020016099548152602001609a548152602001609760149054906101000a900460ff166001811115611c3c57611c3c614456565b815250609854915091509091565b83600080828152609d60205260409020600301544211611c7c5760405162461bcd60e51b81526004016105a490613ead565b6000868152609c602052604090206001015486908590811015611ced5760405162461bcd60e51b8152602060048201526024808201527f546865206f666665722069732062656c6f7720746865206d696e696d756d20706044820152637269636560e01b60648201526084016105a4565b6000888152609d60205260409020600101546001600160a01b031615611d1657611d16886126f7565b8415611e3957600060029054906101000a90046001600160a01b03166001600160a01b031663e220ad956040518163ffffffff1660e01b815260040160006040518083038186803b158015611d6a57600080fd5b505afa158015611d7e573d6000803e3d6000fd5b505050506040513d6000823e601f3d908101601f19168201604052611da69190810190613961565b600181518110611db857611db861446c565b6020908102919091010151609b5460405161c54160eb1b81526004810191909152602481018a9052336044820152606481018890526001600160a01b039091169063062a080090608401600060405180830381600087803b158015611e1c57600080fd5b505af1158015611e30573d6000803e3d6000fd5b50505050612289565b60408051600380825260808201909252600091602082016060803683375050604051631635719760e31b81526001600482015291925073__UintLibrary___________________________9163b1ab8cb8915060240160206040518083038186803b158015611ea757600080fd5b505af4158015611ebb573d6000803e3d6000fd5b505050506040513d601f19601f82011682018060405250810190611edf9190613a8c565b81600081518110611ef257611ef261446c565b6020908102919091010152609b54604051631635719760e31b8152600481019190915273__UintLibrary___________________________9063b1ab8cb89060240160206040518083038186803b158015611f4c57600080fd5b505af4158015611f60573d6000803e3d6000fd5b505050506040513d601f19601f82011682018060405250810190611f849190613a8c565b81600181518110611f9757611f9761446c565b6020908102919091010152604051631635719760e31b8152600481018a905273__UintLibrary___________________________9063b1ab8cb89060240160206040518083038186803b158015611fed57600080fd5b505af4158015612001573d6000803e3d6000fd5b505050506040513d601f19601f820116820180604052508101906120259190613a8c565b816002815181106120385761203861446c565b6020908102919091010152604051632431a7cf60e01b815260009073__Library_______________________________90632431a7cf9061207d908590600401613da5565b60006040518083038186803b15801561209557600080fd5b505af41580156120a9573d6000803e3d6000fd5b505050506040513d6000823e601f3d908101601f191682016040526120d19190810190613adf565b905060008060029054906101000a90046001600160a01b03166001600160a01b031663e220ad956040518163ffffffff1660e01b815260040160006040518083038186803b15801561212257600080fd5b505afa158015612136573d6000803e3d6000fd5b505050506040513d6000823e601f3d908101601f1916820160405261215e9190810190613961565b6006815181106121705761217061446c565b60200260200101519050806001600160a01b031663f815611533600060029054906101000a90046001600160a01b03166001600160a01b031663e220ad956040518163ffffffff1660e01b815260040160006040518083038186803b1580156121d857600080fd5b505afa1580156121ec573d6000803e3d6000fd5b505050506040513d6000823e601f3d908101601f191682016040526122149190810190613961565b6001815181106122265761222661446c565b60200260200101518c609b54876040518663ffffffff1660e01b8152600401612253959493929190613d29565b600060405180830381600087803b15801561226d57600080fd5b505af1158015612281573d6000803e3d6000fd5b505050505050505b6000888152609d60205260409020868155600181018054336001600160a01b031991821617909155600290910180549091166001600160a01b0389161790556098546122d59042614247565b6000898152609d60205260409081902060030191909155516001600160a01b0388169033908a907f65d99335dbbbc33be5c7b3099e49c47fa71f59e1465ae77bca56cb8c951161c590612336908b908b909182521515602082015260400190565b60405180910390a45050505050505050565b6001600160a01b039182166000908152606a6020908152604080832093909416825291909152205460ff1690565b81612380336106df565b61239c5760405162461bcd60e51b81526004016105a490613f32565b6000838152609c602090815260409182902060010154915184815285917f1528b9626bd426537e5cbaba09815d2442ce61aae462b89d81f515065e2d971e910160405180910390a3506000918252609c602052604090912060010155565b6000908152606760205260409020546001600160a01b0316151590565b600081815260696020526040902080546001600160a01b0319166001600160a01b038416908117909155819061244c826107a0565b6001600160a01b03167f8c5be1e5ebec7d5bd14f71427d1e84f3dd0314c0f7b2291e5b200ac8c7c3b92560405160405180910390a45050565b6000612490826123fa565b6124f15760405162461bcd60e51b815260206004820152602c60248201527f4552433732313a206f70657261746f7220717565727920666f72206e6f6e657860448201526b34b9ba32b73a103a37b5b2b760a11b60648201526084016105a4565b60006124fc836107a0565b9050806001600160a01b0316846001600160a01b031614806125375750836001600160a01b031661252c8461053c565b6001600160a01b0316145b8061254757506125478185612348565b949350505050565b826001600160a01b0316612562826107a0565b6001600160a01b0316146125ca5760405162461bcd60e51b815260206004820152602960248201527f4552433732313a207472616e73666572206f6620746f6b656e2074686174206960448201526839903737ba1037bbb760b91b60648201526084016105a4565b6001600160a01b03821661262c5760405162461bcd60e51b8152602060048201526024808201527f4552433732313a207472616e7366657220746f20746865207a65726f206164646044820152637265737360e01b60648201526084016105a4565b612637600082612417565b6001600160a01b038316600090815260686020526040812080546001929061266090849061437d565b90915550506001600160a01b038216600090815260686020526040812080546001929061268e908490614247565b909155505060008181526067602052604080822080546001600160a01b0319166001600160a01b0386811691821790925591518493918716916000805160206144c783398151915291a4505050565b6111f5828260405180602001604052806000815250613228565b60408051600180825281830190925260009160208083019080368337505060408051600180825281830190925292935060009291506020808301908036833750506040805160018082528183019092529293506000929150602080830190803683375050506000858152609d602052604081206001015485519293506001600160a01b03169185919061278c5761278c61446c565b6001600160a01b039092166020928302919091018201526000858152609d90915260408120548351909184916127c4576127c461446c565b6020026020010181815250506001816000815181106127e5576127e561446c565b602002602001018181525050600060029054906101000a90046001600160a01b03166001600160a01b031663e220ad956040518163ffffffff1660e01b815260040160006040518083038186803b15801561283f57600080fd5b505afa158015612853573d6000803e3d6000fd5b505050506040513d6000823e601f3d908101601f1916820160405261287b9190810190613961565b60018151811061288d5761288d61446c565b60200260200101516001600160a01b03166391c0734b609b54868686866040518663ffffffff1660e01b81526004016128ca959493929190614147565b600060405180830381600087803b1580156128e457600080fd5b505af11580156128f8573d6000803e3d6000fd5b5050505050505050565b6000908152609d602052604081208181556001810180546001600160a01b0319908116909155600282018054909116905560030155565b600054610100900460ff166129545760005460ff1615612958565b303b155b6129745760405162461bcd60e51b81526004016105a490613ee4565b600054610100900460ff16158015612996576000805461ffff19166101011790555b6000805462010000600160b01b031916620100006001600160a01b0385160217905580156111f5576000805461ff00191690555050565b600054610100900460ff166129f45760405162461bcd60e51b81526004016105a490614007565b6129fc61325b565b612a0461325b565b6111f58282613284565b816001600160a01b0316836001600160a01b03161415612a6c5760405162461bcd60e51b815260206004820152601960248201527822a9219b99189d1030b8383937bb32903a379031b0b63632b960391b60448201526064016105a4565b6001600160a01b038381166000818152606a6020908152604080832094871680845294825291829020805460ff191686151590811790915591519182527f17307eab39ab6107e8899845ad3d59bd9653f200f220920489ca2b5937696c31910160405180910390a3505050565b612ae484848461254f565b612af0848484846132d2565b6113a55760405162461bcd60e51b81526004016105a490613e5b565b609954609a546000838152609c602052604081205490928392839283929190839081908190819060ff166001811115612b4757612b47614456565b60011415612d135760008060029054906101000a90046001600160a01b03166001600160a01b031663e220ad956040518163ffffffff1660e01b815260040160006040518083038186803b158015612b9e57600080fd5b505afa158015612bb2573d6000803e3d6000fd5b505050506040513d6000823e601f3d908101601f19168201604052612bda9190810190613961565b600281518110612bec57612bec61446c565b60200260200101516001600160a01b031663b049473f6040518163ffffffff1660e01b815260040160006040518083038186803b158015612c2c57600080fd5b505afa158015612c40573d6000803e3d6000fd5b505050506040513d6000823e601f3d908101601f19168201604052612c689190810190613a01565b905080600481518110612c7d57612c7d61446c565b602002602001015194508060056008811115612c9b57612c9b614456565b81518110612cab57612cab61446c565b602002602001015193508060066008811115612cc957612cc9614456565b81518110612cd957612cd961446c565b602002602001015192508060076008811115612cf757612cf7614456565b81518110612d0757612d0761446c565b60200260200101519150505b6000612d386040518060600160405280888152602001868152602001848152506133df565b9050612d44868261437d565b612d4f90600a6142b6565b612d59908861435e565b9650612d65848261437d565b612d7090600a6142b6565b612d7a908661435e565b9450612d86828261437d565b612d9190600a6142b6565b612d9b908461435e565b969c949b509599509497509195505050505050565b6000612dbe6004600261435e565b6001600160401b03811115612dd557612dd5614482565b604051908082528060200260200182016040528015612dfe578160200160208202803683370190505b5090506000612e0f6004600261435e565b6001600160401b03811115612e2657612e26614482565b604051908082528060200260200182016040528015612e4f578160200160208202803683370190505b5090506000612e606004600261435e565b6001600160401b03811115612e7757612e77614482565b604051908082528060200260200182016040528015612ea0578160200160208202803683370190505b50905060008060008060005b600481101561301157612ed68a8c8360048110612ecb57612ecb61446c565b60200201518b61343e565b919650945092508b8160048110612eef57612eef61446c565b6020020151888381518110612f0657612f0661446c565b60200260200101906001600160a01b031690816001600160a01b03168152505084878381518110612f3957612f3961446c565b602090810291909101015260018683612f51816143fb565b945081518110612f6357612f6361446c565b6020026020010181815250508b8160048110612f8157612f8161446c565b6020020151888381518110612f9857612f9861446c565b60200260200101906001600160a01b031690816001600160a01b03168152505083878381518110612fcb57612fcb61446c565b6020908102919091010152828683612fe2816143fb565b945081518110612ff457612ff461446c565b602090810291909101015280613009816143fb565b915050612eac565b50600060029054906101000a90046001600160a01b03166001600160a01b031663e220ad956040518163ffffffff1660e01b815260040160006040518083038186803b15801561306057600080fd5b505afa158015613074573d6000803e3d6000fd5b505050506040513d6000823e601f3d908101601f1916820160405261309c9190810190613961565b6001815181106130ae576130ae61446c565b60200260200101516001600160a01b03166391c0734b609b548e8a8a8a6040518663ffffffff1660e01b81526004016130eb959493929190614147565b600060405180830381600087803b15801561310557600080fd5b505af1158015613119573d6000803e3d6000fd5b50505050505050505050505050505050565b60608161314f5750506040805180820190915260018152600360fc1b602082015290565b8160005b81156131795780613163816143fb565b91506131729050600a8361425f565b9150613153565b6000816001600160401b0381111561319357613193614482565b6040519080825280601f01601f1916602001820160405280156131bd576020820181803683370190505b5090505b8415612547576131d260018361437d565b91506131df600a86614416565b6131ea906030614247565b60f81b8183815181106131ff576131ff61446c565b60200101906001600160f81b031916908160001a905350613221600a8661425f565b94506131c1565b613232838361349e565b61323f60008484846132d2565b6106d55760405162461bcd60e51b81526004016105a490613e5b565b600054610100900460ff166132825760405162461bcd60e51b81526004016105a490614007565b565b600054610100900460ff166132ab5760405162461bcd60e51b81526004016105a490614007565b81516132be90606590602085019061360d565b5080516106d590606690602084019061360d565b60006001600160a01b0384163b156133d457604051630a85bd0160e11b81526001600160a01b0385169063150b7a0290613316903390899088908890600401613cec565b602060405180830381600087803b15801561333057600080fd5b505af1925050508015613360575060408051601f3d908101601f1916820190925261335d91810190613ac2565b60015b6133ba573d80801561338e576040519150601f19603f3d011682016040523d82523d6000602084013e613393565b606091505b5080516133b25760405162461bcd60e51b81526004016105a490613e5b565b805181602001fd5b6001600160e01b031916630a85bd0160e11b149050612547565b506001949350505050565b600080805b6003811015613437578381600381106133ff576133ff61446c565b60200201518210156134255783816003811061341d5761341d61446c565b602002015191505b8061342f816143fb565b9150506133e4565b5092915050565b600080808061344d868861435e565b9050600061345c86600a6142b6565b61346790606461435e565b90506000613475828461425f565b90506000613483838361435e565b61348d908561437d565b919a91995091975095505050505050565b6001600160a01b0382166134f45760405162461bcd60e51b815260206004820181905260248201527f4552433732313a206d696e7420746f20746865207a65726f206164647265737360448201526064016105a4565b6134fd816123fa565b156135495760405162461bcd60e51b815260206004820152601c60248201527b115490cdcc8c4e881d1bdad95b88185b1c9958591e481b5a5b9d195960221b60448201526064016105a4565b6001600160a01b0382166000908152606860205260408120805460019290613572908490614247565b909155505060008181526067602052604080822080546001600160a01b0319166001600160a01b03861690811790915590518392906000805160206144c7833981519152908290a45050565b6040518060c0016040528060006001600160a01b03168152602001606081526020016060815260200160008152602001600081526020016000600181111561360857613608614456565b905290565b828054613619906143c0565b90600052602060002090601f01602090048101928261363b5760008555613681565b82601f1061365457805160ff1916838001178555613681565b82800160010185558215613681579182015b82811115613681578251825591602001919060010190613666565b5061368d929150613691565b5090565b5b8082111561368d5760008155600101613692565b60006136b96136b484614220565b6141cd565b90508281528383830111156136cd57600080fd5b828260208301376000602084830101529392505050565b803580151581146136f457600080fd5b919050565b600082601f83011261370a57600080fd5b611bc2838335602085016136a6565b803560ff811681146136f457600080fd5b60006020828403121561373c57600080fd5b8135611bc281614498565b6000806040838503121561375a57600080fd5b823561376581614498565b9150602083013561377581614498565b809150509250929050565b60008060008060008060008060006101208a8c03121561379f57600080fd5b89356137aa81614498565b985060208a01356137ba81614498565b975060408a01356001600160401b03808211156137d657600080fd5b6137e28d838e016136f9565b985060608c01359150808211156137f857600080fd5b506138058c828d016136f9565b96505060808a0135945060a08a0135935060c08a0135925060e08a013591506138316101008b01613719565b90509295985092959850929598565b60008060006060848603121561385557600080fd5b833561386081614498565b9250602084013561387081614498565b929592945050506040919091013590565b6000806000806080858703121561389757600080fd5b84356138a281614498565b935060208501356138b281614498565b92506040850135915060608501356001600160401b038111156138d457600080fd5b8501601f810187136138e557600080fd5b6138f4878235602084016136a6565b91505092959194509250565b6000806040838503121561391357600080fd5b823561391e81614498565b915061392c602084016136e4565b90509250929050565b6000806040838503121561394857600080fd5b823561395381614498565b946020939093013593505050565b6000602080838503121561397457600080fd5b82516001600160401b0381111561398a57600080fd5b8301601f8101851361399b57600080fd5b80516139a96136b4826141fd565b80828252848201915084840188868560051b87010111156139c957600080fd5b600094505b838510156139f55780516139e181614498565b8352600194909401939185019185016139ce565b50979650505050505050565b60006020808385031215613a1457600080fd5b82516001600160401b03811115613a2a57600080fd5b8301601f81018513613a3b57600080fd5b8051613a496136b4826141fd565b80828252848201915084840188868560051b8701011115613a6957600080fd5b600094505b838510156139f5578051835260019490940193918501918501613a6e565b600060208284031215613a9e57600080fd5b5051919050565b600060208284031215613ab757600080fd5b8135611bc2816144b0565b600060208284031215613ad457600080fd5b8151611bc2816144b0565b600060208284031215613af157600080fd5b81516001600160401b03811115613b0757600080fd5b8201601f81018413613b1857600080fd5b8051613b266136b482614220565b818152856020838501011115613b3b57600080fd5b613b4c826020830160208601614394565b95945050505050565b600060208284031215613b6757600080fd5b813560028110611bc257600080fd5b600060208284031215613b8857600080fd5b5035919050565b600080600060608486031215613ba457600080fd5b83359250602084013561387081614498565b60008060008060808587031215613bcc57600080fd5b843593506020850135613bde81614498565b925060408501359150613bf3606086016136e4565b905092959194509250565b60008060408385031215613c1157600080fd5b50508035926020909101359150565b600081518084526020808501945080840160005b83811015613c5057815187529582019590820190600101613c34565b509495945050505050565b60008151808452613c73816020860160208601614394565b601f01601f19169290920160200192915050565b60028110613ca557634e487b7160e01b600052602160045260246000fd5b9052565b60008351613cbb818460208801614394565b835190830190613ccf818360208801614394565b01949350505050565b6001600160a01b0391909116815260200190565b6001600160a01b0385811682528416602082015260408101839052608060608201819052600090613d1f90830184613c5b565b9695505050505050565b6001600160a01b03868116825285166020820152604081018490526060810183905260a060808201819052600090613d6390830184613c5b565b979650505050505050565b6001600160a01b03861681526020810185905260a08101613d926040830186613c87565b6060820193909352608001529392505050565b6020808252825182820181905260009190848201906040850190845b81811015613ddd57835183529284019291840191600101613dc1565b50909695505050505050565b60408101613df78285613c87565b611bc26020830184613c87565b602081526000611bc26020830184613c5b565b60208082526024908201527f4f6e6c7920746865204f776e657220697320616c6c6f77656420746f20646f206040820152631d1a185d60e21b606082015260800190565b60208082526032908201527f4552433732313a207472616e7366657220746f206e6f6e20455243373231526560408201527131b2b4bb32b91034b6b83632b6b2b73a32b960711b606082015260800190565b6020808252601d908201527f546865726520697320616e206f6666657220696e2070726f6772657373000000604082015260600190565b6020808252602e908201527f496e697469616c697a61626c653a20636f6e747261637420697320616c72656160408201526d191e481a5b9a5d1a585b1a5e995960921b606082015260800190565b6020808252602d908201527f4f6e6c79206f776e6572206f7220617070726f7665642063616e206368616e6760408201526c6520746f6b656e20707269636560981b606082015260800190565b60208082526031908201527f4552433732313a207472616e736665722063616c6c6572206973206e6f74206f6040820152701ddb995c881b9bdc88185c1c1c9bdd9959607a1b606082015260800190565b6020808252601d908201527f5468657265206973206e6f206f6666657220696e2070726f6772657373000000604082015260600190565b6020808252602b908201527f496e697469616c697a61626c653a20636f6e7472616374206973206e6f74206960408201526a6e697469616c697a696e6760a81b606082015260800190565b604080825283516001600160a01b031690820152602083015160c06060830152600090614083610100840182613c5b565b90506040850151603f198483030160808501526140a08282613c5b565b915050606085015160a0840152608085015160c084015260a08501516140c960e0850182613c87565b506020929092019290925292915050565b60006060820190506140ed828551613c87565b602093840151938201939093526001600160a01b039190911660409091015290565b8381526001600160a01b0383166020820152606060408201819052600090613b4c90830184613c5b565b918252602082015260400190565b600060a082018783526020878185015260a0604085015281875180845260c086019150828901935060005b818110156141975784516001600160a01b031683529383019391830191600101614172565b505084810360608601526141ab8188613c20565b9250505082810360808401526141c18185613c20565b98975050505050505050565b604051601f8201601f191681016001600160401b03811182821017156141f5576141f5614482565b604052919050565b60006001600160401b0382111561421657614216614482565b5060051b60200190565b60006001600160401b0382111561423957614239614482565b50601f01601f191660200190565b6000821982111561425a5761425a61442a565b500190565b60008261426e5761426e614440565b500490565b600181815b808511156142ae5781600019048211156142945761429461442a565b808516156142a157918102915b93841c9390800290614278565b509250929050565b6000611bc283836000826142cc575060016104a4565b816142d9575060006104a4565b81600181146142ef57600281146142f957614315565b60019150506104a4565b60ff84111561430a5761430a61442a565b50506001821b6104a4565b5060208310610133831016604e8410600b8410161715614338575081810a6104a4565b6143428383614273565b80600019048211156143565761435661442a565b029392505050565b60008160001904831182151516156143785761437861442a565b500290565b60008282101561438f5761438f61442a565b500390565b60005b838110156143af578181015183820152602001614397565b838111156113a55750506000910152565b600181811c908216806143d457607f821691505b602082108114156143f557634e487b7160e01b600052602260045260246000fd5b50919050565b600060001982141561440f5761440f61442a565b5060010190565b60008261442557614425614440565b500690565b634e487b7160e01b600052601160045260246000fd5b634e487b7160e01b600052601260045260246000fd5b634e487b7160e01b600052602160045260246000fd5b634e487b7160e01b600052603260045260246000fd5b634e487b7160e01b600052604160045260246000fd5b6001600160a01b03811681146144ad57600080fd5b50565b6001600160e01b0319811681146144ad57600080fdfeddf252ad1be2c89b69c2b068fc378daa952ba7f163c4a11628f55a4df523b3efa2646970667358221220d5ee54b948331cedaaf3eb26658c6f10b1983bef3af8d5b1207fcecdce3d14fd64736f6c63430008070033",
  "immutableReferences": {},
  "source": "// SPDX-License-Identifier: GPL-3.0\r\n\r\npragma solidity 0.8.7;\r\n\r\n/**\r\n Certis Token is an ERC20 Token that grants its holder the right to:\r\n   - Vote on all the systems propositions (changing system configuraiton etc...)\r\n   - Receive Dividends for all the payments forwarded to the Treasury contract\r\n\r\nBefore every token transfer we contact the token gouvernance Base contracts so that the can update the tokens used for voting if needed\r\n\r\n */\r\n\r\nimport \"@openzeppelin/contracts-upgradeable/token/ERC721/ERC721Upgradeable.sol\";\r\nimport \"@openzeppelin/contracts-upgradeable/proxy/utils/Initializable.sol\";\r\nimport \"../Base/ManagedBaseContract.sol\";\r\nimport \"../Libraries/Library.sol\";\r\nimport \"../Libraries/UintLibrary.sol\";\r\nimport \"../Libraries/ItemsLibrary.sol\";\r\nimport \"../Interfaces/ITreasury.sol\";\r\nimport \"../Interfaces/IPool.sol\";\r\nimport \"../Interfaces/INFTMarket.sol\";\r\nimport \"../Interfaces/IPayments.sol\";\r\n\r\n contract NFTMarket is  INFTMarket, Initializable, ManagedBaseContract, ERC721Upgradeable {\r\n    using Library for *;\r\n    using UintLibrary for *;\r\n    using ItemsLibrary for *;\r\n\r\n\r\n  // EVENTS /////////////////////////////////////////\r\n  event _NewOwner(address indexed formerOwner, address newOwner);\r\n  event _NewPaymentPlan(Library.PaymentPlans formerPlan, Library.PaymentPlans newPlan);\r\n  event _NewOffersLifeTime(uint256 indexed formerLifeTime, uint256 newLifeTime);\r\n  event _NewOwnerFees(uint256 indexed formerAmount, uint256 indexed formerDecimals, uint256 newAmount, uint256 newDecimals);\r\n\r\n  event _MintToken(uint256 indexed tokenId, address receiver, uint256 price, Library.PaymentPlans plan, uint256 MintingFee, uint256 AdminMintingFee);\r\n  event _SetTokenPrice(uint256 indexed tokenId, uint256 indexed formerPrice, uint256 newPrice);\r\n  event _SubmitOffer(uint256 indexed tokenId, address indexed sender, address indexed bidder, uint256 offer, bool FromCredit);\r\n  event _AcceptOffer(uint256 indexed tokenId, address indexed formerOwner, address indexed newOwner, uint256 offer);\r\n  event _RejectOffer(uint256 indexed tokenId);\r\n  event _WithdrawOffer(uint256 indexed tokenId);\r\n  \r\n\r\n  // DATA /////////////////////////////////////////\r\n  address _owner;\r\n  Library.PaymentPlans _paymentPlan;\r\n  uint256 _offersLifeTime;\r\n  uint256 _ownerTransferFeeAmount;\r\n  uint256 _ownerTransferFeeDecimals;\r\n  uint256 _issuerID;\r\n\r\n  mapping(uint256 => _tokenStruct) private _tokenInfo;\r\n  mapping(uint256 => _offerStruct) private _tokenOffer;\r\n\r\n\r\n  // MODIFIERS /////////////////////////////////////////\r\n  modifier isTheOwner(address addr){\r\n      require(_owner == addr, \"Only the Owner is allowed to do that\");\r\n      _;\r\n  }\r\n\r\n  modifier isTokenOwnerOrApproved(uint256 tokenId){\r\n      require(_isApprovedOrOwner(_msgSender(), tokenId), \"Only owner or approved can change token price\");\r\n      _;\r\n  }\r\n\r\n  modifier OfferInProgress(uint256 tokenId, bool YesOrNo){\r\n      if(YesOrNo) require(block.timestamp <= _tokenOffer[tokenId]._deadline, \"There is no offer in progress\");\r\n      else require(block.timestamp > _tokenOffer[tokenId]._deadline, \"There is an offer in progress\");\r\n      _;\r\n  }\r\n\r\n  modifier priceOK(uint256 tokenId, uint256 offer){\r\n      require(offer >= _tokenInfo[tokenId]._price, \"The offer is below the minimum price\");\r\n      _;\r\n  }\r\n\r\n  modifier validFees(uint256 fee, uint256 decimals){\r\n    Library.validFees(fee, decimals);\r\n    _;\r\n  }\r\n\r\n  // CONSTRUCTOR /////////////////////////////////////////\r\n  function NFTMarket_init(address managerContractAddress, address owner, string memory name, string memory symbol, uint256 offersLifeTime, uint256 ownerTransferFeeAmount, uint256 ownerTransferFeeDecimals, uint256 issuerID, uint8 paymentPlan) public initializer \r\n    validFees(ownerTransferFeeAmount, ownerTransferFeeDecimals)\r\n  {\r\n      super.ManagedBaseContract_init(managerContractAddress); \r\n      super.__ERC721_init(name, symbol); \r\n\r\n      _owner = owner;\r\n      _paymentPlan = Library.PaymentPlans(paymentPlan);\r\n      _offersLifeTime = offersLifeTime;\r\n      _ownerTransferFeeAmount = ownerTransferFeeAmount;\r\n      _ownerTransferFeeDecimals = ownerTransferFeeDecimals;\r\n      _issuerID = issuerID;\r\n  }\r\n\r\n  // FUNCTIONALITY /////////////////////////////////////////\r\n  function changeOwner(address newOwner) external override\r\n    isTheOwner(msg.sender)\r\n  {\r\n      emit _NewOwner(_owner, newOwner);\r\n      _owner = newOwner;\r\n  }\r\n\r\n  function changePaymentPlan(Library.PaymentPlans newPaymentPlan) external override\r\n    isTheOwner(msg.sender)\r\n  {\r\n      emit _NewPaymentPlan(_paymentPlan, newPaymentPlan);\r\n      _paymentPlan = newPaymentPlan;\r\n  }\r\n\r\n  function changeOffersLifeTime(uint256 newLifeTime) external override\r\n    isTheOwner(msg.sender)\r\n  {\r\n      emit _NewOffersLifeTime(_offersLifeTime, newLifeTime);\r\n      _offersLifeTime = newLifeTime;\r\n  }\r\n\r\n  function changeOwnerTransferFees(uint256 newAmount, uint256 newDecimals) external override\r\n    isTheOwner(msg.sender)\r\n    validFees(newAmount, newDecimals)\r\n  {\r\n      emit _NewOwnerFees(_ownerTransferFeeAmount, _ownerTransferFeeDecimals, newAmount, newDecimals);\r\n      _ownerTransferFeeAmount = newAmount;\r\n      _ownerTransferFeeDecimals = newDecimals;\r\n  }\r\n\r\n  function mintToken(uint256 tokenId, address receiver, uint256 price) external override\r\n    isTheOwner(msg.sender)\r\n  {\r\n      uint256 MintingFee = 0;\r\n      uint256 AdminMintingFee = 0;\r\n\r\n      if(_paymentPlan == Library.PaymentPlans.Minting)\r\n      {\r\n        uint[] memory Prices = ITreasury(_managerContract.retrieveTransparentProxies()[uint256(Library.TransparentProxies.Treasury)]).retrieveSettings();\r\n        MintingFee = Prices[uint256(Library.Prices.MintingFee)];\r\n        AdminMintingFee = Prices[uint256(Library.Prices.AdminMintingFee)];\r\n\r\n        IPayments payments = IPayments(_managerContract.retrieveTransparentProxies()[uint256(Library.TransparentProxies.Payments)]);\r\n        payments.TransferFrom(msg.sender, _managerContract.retrieveTransparentProxies()[uint256(Library.TransparentProxies.Treasury)], MintingFee, _issuerID, bytes(\"\"));\r\n        payments.TransferFrom(msg.sender, _managerContract.retrieveTransparentProxies()[uint256(Library.TransparentProxies.AdminPiggyBank)], AdminMintingFee, _issuerID, bytes(\"\"));\r\n      }\r\n      _safeMint(receiver, tokenId);\r\n      _tokenInfo[tokenId]._price = price;\r\n      _tokenInfo[tokenId]._paymentPlan = _paymentPlan;\r\n\r\n      emit _MintToken(tokenId, receiver, price, _paymentPlan, MintingFee, AdminMintingFee);\r\n  }\r\n\r\n  function setTokenPrice(uint256 tokenId, uint256 price) external override\r\n    isTokenOwnerOrApproved(tokenId)\r\n  {\r\n      emit _SetTokenPrice(tokenId, _tokenInfo[tokenId]._price, price);\r\n      _tokenInfo[tokenId]._price = price;\r\n  }\r\n\r\n  function acceptOffer(uint256 tokenId) external override\r\n    isTokenOwnerOrApproved(tokenId)\r\n    OfferInProgress(tokenId, true)\r\n  {\r\n    emit _AcceptOffer(tokenId, ownerOf(tokenId),  _tokenOffer[tokenId]._bidder,  _tokenOffer[tokenId]._offer);\r\n\r\n    (uint256 OwnerTransferFeeAmount, uint256 TransferFeeAmount, uint256 AdminTransferFeeAmount, uint256 commonDecimals) = getFees(tokenId);\r\n\r\n    uint256 TotalFees = OwnerTransferFeeAmount + TransferFeeAmount + AdminTransferFeeAmount;\r\n    Library.validFees(TotalFees, commonDecimals);\r\n\r\n    uint256 percentageForTokenOwner = 10**(commonDecimals + 2) - TotalFees;\r\n\r\n    _safeTransfer(ownerOf(tokenId), _tokenOffer[tokenId]._bidder, tokenId, \"\");\r\n\r\n    AllocatePercents(tokenId,\r\n      [_managerContract.retrieveTransparentProxies()[uint256(Library.TransparentProxies.Treasury)], _managerContract.retrieveTransparentProxies()[uint256(Library.TransparentProxies.AdminPiggyBank)], _owner, ownerOf(tokenId)],\r\n      [TransferFeeAmount, AdminTransferFeeAmount, OwnerTransferFeeAmount, percentageForTokenOwner],\r\n      _tokenOffer[tokenId]._offer,\r\n      commonDecimals);\r\n\r\n    removeOffer(tokenId);\r\n\r\n    IPool(_managerContract.retrieveTransparentProxies()[uint256(Library.TransparentProxies.PublicPool)]).withdrawAllFor(_issuerID,\r\n      _managerContract.retrieveTransparentProxies()[uint256(Library.TransparentProxies.Treasury)],\r\n      bytes(\"\"));\r\n    IPool(_managerContract.retrieveTransparentProxies()[uint256(Library.TransparentProxies.PublicPool)]).withdrawAllFor(_issuerID,\r\n      _managerContract.retrieveTransparentProxies()[uint256(Library.TransparentProxies.AdminPiggyBank)],\r\n      bytes(\"\"));\r\n  }\r\n\r\n  function getFees(uint256 tokenId) internal view returns(uint256, uint256, uint256, uint256)\r\n  {\r\n    uint256 OwnerTransferFeeAmount = _ownerTransferFeeAmount;\r\n    uint256 OwnerTransferFeeDecimals = _ownerTransferFeeDecimals;\r\n    uint256 TransferFeeAmount = 0;\r\n    uint256 TransferFeeDecimals = 0;\r\n    uint256 AdminTransferFeeAmount = 0;\r\n    uint256 AdminTransferFeeDecimals = 0;\r\n\r\n    if(Library.PaymentPlans.TransferFee == _tokenInfo[tokenId]._paymentPlan){\r\n        uint[] memory Prices = ITreasury(_managerContract.retrieveTransparentProxies()[uint256(Library.TransparentProxies.Treasury)]).retrieveSettings();\r\n        TransferFeeAmount = Prices[uint256(Library.Prices.TransferFeeAmount)];\r\n        TransferFeeDecimals = Prices[uint256(Library.Prices.TransferFeeDecimals)];\r\n        AdminTransferFeeAmount = Prices[uint256(Library.Prices.AdminTransferFeeAmount)];\r\n        AdminTransferFeeDecimals = Prices[uint256(Library.Prices.AdminTransferFeeDecimals)];\r\n    }\r\n\r\n    uint256 commonDecimals = getLargest([OwnerTransferFeeDecimals, TransferFeeDecimals, AdminTransferFeeDecimals]); \r\n    OwnerTransferFeeAmount = OwnerTransferFeeAmount * 10**(commonDecimals - OwnerTransferFeeDecimals);\r\n    TransferFeeAmount = TransferFeeAmount * 10**(commonDecimals - TransferFeeDecimals);\r\n    AdminTransferFeeAmount = AdminTransferFeeAmount * 10**(commonDecimals - AdminTransferFeeDecimals);\r\n\r\n    return(OwnerTransferFeeAmount, TransferFeeAmount, AdminTransferFeeAmount, commonDecimals);\r\n  }\r\n    \r\n  function rejectOffer(uint256 tokenId) external override\r\n    isTokenOwnerOrApproved(tokenId)\r\n    OfferInProgress(tokenId, true)\r\n  {\r\n    assignToRejectedSender(tokenId);\r\n    removeOffer(tokenId);\r\n    emit _RejectOffer(tokenId);\r\n  }\r\n\r\n  function removeOffer(uint256 tokenId) internal\r\n  {\r\n    delete(_tokenOffer[tokenId]);\r\n  }\r\n\r\n  function submitOffer(uint256 tokenId, address bidder, uint256 offer, bool FromCredit) external override\r\n    OfferInProgress(tokenId, false)\r\n    priceOK(tokenId, offer)\r\n  {\r\n    if(address(0) != _tokenOffer[tokenId]._sender) assignToRejectedSender(tokenId);\r\n\r\n    if(FromCredit)\r\n      IPool(_managerContract.retrieveTransparentProxies()[uint256(Library.TransparentProxies.PublicPool)]).reuseCredit(_issuerID, tokenId,  msg.sender, offer);\r\n    \r\n    else{\r\n      bytes32[] memory dataArray = new bytes32[](3);\r\n      dataArray[0] = UintLibrary.UintToBytes32(uint256(Library.PublicPoolPaymentTypes.TransferUnassignedCredit));\r\n      dataArray[1] = UintLibrary.UintToBytes32(_issuerID);\r\n      dataArray[2] = UintLibrary.UintToBytes32(tokenId);\r\n      bytes memory data = Library.Bytes32ArrayToBytes(dataArray);\r\n\r\n      IPayments payments = IPayments(_managerContract.retrieveTransparentProxies()[uint256(Library.TransparentProxies.Payments)]);\r\n      payments.TransferFrom(msg.sender, _managerContract.retrieveTransparentProxies()[uint256(Library.TransparentProxies.PublicPool)], offer, _issuerID, data);\r\n    }\r\n\r\n    _tokenOffer[tokenId]._offer = offer;\r\n    _tokenOffer[tokenId]._sender = msg.sender;\r\n    _tokenOffer[tokenId]._bidder = bidder;\r\n    _tokenOffer[tokenId]._deadline = block.timestamp + _offersLifeTime;\r\n\r\n    emit _SubmitOffer(tokenId, msg.sender, bidder, offer, FromCredit);\r\n  }\r\n    \r\n  function withdrawOffer(uint256 tokenId) external override\r\n    OfferInProgress(tokenId, false)\r\n  {\r\n    require(msg.sender == _tokenOffer[tokenId]._sender, \"Only the original sender can withdraw the bid\");\r\n    assignToRejectedSender(tokenId);\r\n    removeOffer(tokenId);\r\n    emit _WithdrawOffer(tokenId);\r\n  }\r\n\r\n  function assignToRejectedSender(uint tokenId) internal\r\n  {\r\n    address[] memory addrs = new address[](1);\r\n    uint256[] memory amounts = new uint256[](1);\r\n    uint256[] memory factors = new uint256[](1);\r\n    addrs[0] = _tokenOffer[tokenId]._sender;\r\n    amounts[0] = _tokenOffer[tokenId]._offer;\r\n    factors[0] = 1;\r\n    IPool(_managerContract.retrieveTransparentProxies()[uint256(Library.TransparentProxies.PublicPool)]).addCredit(_issuerID, tokenId, addrs, amounts, factors);\r\n  }\r\n\r\n  function AllocatePercents(uint256 tokenId, address[4] memory destinations, uint256[4] memory percentages, uint256 offer, uint256 commonDecimals) internal\r\n  {\r\n    address[] memory addrs = new address[](2 * destinations.length);\r\n    uint256[] memory amounts = new uint256[](2 * destinations.length);\r\n    uint256[] memory factors = new uint256[](2 * destinations.length);\r\n    uint quotient = 0;\r\n    uint remainder = 0;\r\n    uint denominator = 0;\r\n    uint pos = 0;\r\n\r\n\r\n    for(uint i=0; i < destinations.length; i++){\r\n      (quotient, remainder, denominator) = CalculatePercents(offer, percentages[i], commonDecimals);\r\n      addrs[pos] = destinations[i];\r\n      amounts[pos] = quotient;\r\n      factors[pos++] = 1;\r\n      addrs[pos] = destinations[i];\r\n      amounts[pos] = remainder;\r\n      factors[pos++] = denominator;\r\n    }\r\n\r\n    IPool(_managerContract.retrieveTransparentProxies()[uint256(Library.TransparentProxies.PublicPool)]).addCredit(_issuerID, \r\n      tokenId, \r\n      addrs, \r\n      amounts, \r\n      factors);\r\n  }\r\n\r\n  function CalculatePercents(uint256 amount, uint256 percentage, uint256 decimals) internal pure returns(uint256, uint256, uint256)\r\n  {\r\n      uint256 numerator = amount * percentage;\r\n      uint256 denominator = 100 * 10**decimals;\r\n\r\n      uint256 quotient = numerator / denominator;\r\n      uint256 remainder = numerator - (quotient * denominator);\r\n\r\n      return(quotient, remainder, denominator);\r\n  }\r\n\r\n  function retrieveIssuer() external override view returns (ItemsLibrary._issuerStruct memory, uint256)\r\n  {\r\n    return(ItemsLibrary._issuerStruct(_owner, name(), symbol(), _ownerTransferFeeAmount, _ownerTransferFeeDecimals, _paymentPlan), _offersLifeTime);\r\n  }\r\n\r\n  function retrieveToken(uint256 tokenId) external override view returns (_tokenStruct memory, address)\r\n  {\r\n    return(_tokenInfo[tokenId], ownerOf(tokenId));\r\n  }\r\n\r\n  function retrieveOffer(uint256 tokenId) external override view returns (_offerStruct memory)\r\n  {\r\n      return(_tokenOffer[tokenId]);\r\n  }\r\n\r\n  function getLargest(uint256[3] memory nums) internal pure returns(uint256)\r\n  {\r\n    uint256 largest = 0;\r\n\r\n    for(uint i=0; i < nums.length; i++)\r\n    {\r\n        if(largest < nums[i])largest = nums[i];\r\n    }\r\n\r\n    return largest;\r\n  }\r\n\r\n }",
  "sourcePath": "C:\\Users\\d-aam\\GitHub\\Originals\\contracts\\MainContracts\\NFTMarket.sol",
  "compiler": {
    "name": "solc",
    "version": "0.8.7+commit.e28d00a7.Emscripten.clang"
  },
  "schemaVersion": "3.4.3",
  "updatedAt": "2022-02-17T11:53:35.830Z",
  "devdoc": {
    "kind": "dev",
    "methods": {
      "approve(address,uint256)": {
        "details": "See {IERC721-approve}."
      },
      "balanceOf(address)": {
        "details": "See {IERC721-balanceOf}."
      },
      "getApproved(uint256)": {
        "details": "See {IERC721-getApproved}."
      },
      "isApprovedForAll(address,address)": {
        "details": "See {IERC721-isApprovedForAll}."
      },
      "name()": {
        "details": "See {IERC721Metadata-name}."
      },
      "ownerOf(uint256)": {
        "details": "See {IERC721-ownerOf}."
      },
      "safeTransferFrom(address,address,uint256)": {
        "details": "See {IERC721-safeTransferFrom}."
      },
      "safeTransferFrom(address,address,uint256,bytes)": {
        "details": "See {IERC721-safeTransferFrom}."
      },
      "setApprovalForAll(address,bool)": {
        "details": "See {IERC721-setApprovalForAll}."
      },
      "supportsInterface(bytes4)": {
        "details": "See {IERC165-supportsInterface}."
      },
      "symbol()": {
        "details": "See {IERC721Metadata-symbol}."
      },
      "tokenURI(uint256)": {
        "details": "See {IERC721Metadata-tokenURI}."
      },
      "transferFrom(address,address,uint256)": {
        "details": "See {IERC721-transferFrom}."
      }
    },
    "version": 1
  },
  "userdoc": {
    "kind": "user",
    "methods": {},
    "version": 1
  }
}