{
  "contractName": "NFTMarket",
  "abi": [
    {
      "anonymous": false,
      "inputs": [
        {
          "indexed": true,
          "internalType": "address",
          "name": "owner",
          "type": "address"
        },
        {
          "indexed": true,
          "internalType": "address",
          "name": "approved",
          "type": "address"
        },
        {
          "indexed": true,
          "internalType": "uint256",
          "name": "tokenId",
          "type": "uint256"
        }
      ],
      "name": "Approval",
      "type": "event"
    },
    {
      "anonymous": false,
      "inputs": [
        {
          "indexed": true,
          "internalType": "address",
          "name": "owner",
          "type": "address"
        },
        {
          "indexed": true,
          "internalType": "address",
          "name": "operator",
          "type": "address"
        },
        {
          "indexed": false,
          "internalType": "bool",
          "name": "approved",
          "type": "bool"
        }
      ],
      "name": "ApprovalForAll",
      "type": "event"
    },
    {
      "anonymous": false,
      "inputs": [
        {
          "indexed": true,
          "internalType": "address",
          "name": "from",
          "type": "address"
        },
        {
          "indexed": true,
          "internalType": "address",
          "name": "to",
          "type": "address"
        },
        {
          "indexed": true,
          "internalType": "uint256",
          "name": "tokenId",
          "type": "uint256"
        }
      ],
      "name": "Transfer",
      "type": "event"
    },
    {
      "anonymous": false,
      "inputs": [
        {
          "indexed": true,
          "internalType": "uint256",
          "name": "tokenId",
          "type": "uint256"
        },
        {
          "indexed": true,
          "internalType": "address",
          "name": "formerOwner",
          "type": "address"
        },
        {
          "indexed": true,
          "internalType": "address",
          "name": "newOwner",
          "type": "address"
        },
        {
          "indexed": false,
          "internalType": "uint256",
          "name": "offer",
          "type": "uint256"
        }
      ],
      "name": "_AcceptOffer",
      "type": "event"
    },
    {
      "anonymous": false,
      "inputs": [
        {
          "indexed": true,
          "internalType": "uint256",
          "name": "tokenId",
          "type": "uint256"
        },
        {
          "indexed": false,
          "internalType": "address",
          "name": "receiver",
          "type": "address"
        },
        {
          "indexed": false,
          "internalType": "uint256",
          "name": "price",
          "type": "uint256"
        },
        {
          "indexed": false,
          "internalType": "enum Library.PaymentPlans",
          "name": "plan",
          "type": "uint8"
        },
        {
          "indexed": false,
          "internalType": "uint256",
          "name": "MintingFee",
          "type": "uint256"
        },
        {
          "indexed": false,
          "internalType": "uint256",
          "name": "AdminMintingFee",
          "type": "uint256"
        }
      ],
      "name": "_MintToken",
      "type": "event"
    },
    {
      "anonymous": false,
      "inputs": [
        {
          "indexed": true,
          "internalType": "uint256",
          "name": "formerLifeTime",
          "type": "uint256"
        },
        {
          "indexed": false,
          "internalType": "uint256",
          "name": "newLifeTime",
          "type": "uint256"
        }
      ],
      "name": "_NewOffersLifeTime",
      "type": "event"
    },
    {
      "anonymous": false,
      "inputs": [
        {
          "indexed": true,
          "internalType": "address",
          "name": "formerOwner",
          "type": "address"
        },
        {
          "indexed": false,
          "internalType": "address",
          "name": "newOwner",
          "type": "address"
        }
      ],
      "name": "_NewOwner",
      "type": "event"
    },
    {
      "anonymous": false,
      "inputs": [
        {
          "indexed": true,
          "internalType": "uint256",
          "name": "formerAmount",
          "type": "uint256"
        },
        {
          "indexed": true,
          "internalType": "uint256",
          "name": "formerDecimals",
          "type": "uint256"
        },
        {
          "indexed": false,
          "internalType": "uint256",
          "name": "newAmount",
          "type": "uint256"
        },
        {
          "indexed": false,
          "internalType": "uint256",
          "name": "newDecimals",
          "type": "uint256"
        }
      ],
      "name": "_NewOwnerFees",
      "type": "event"
    },
    {
      "anonymous": false,
      "inputs": [
        {
          "indexed": false,
          "internalType": "enum Library.PaymentPlans",
          "name": "formerPlan",
          "type": "uint8"
        },
        {
          "indexed": false,
          "internalType": "enum Library.PaymentPlans",
          "name": "newPlan",
          "type": "uint8"
        }
      ],
      "name": "_NewPaymentPlan",
      "type": "event"
    },
    {
      "anonymous": false,
      "inputs": [
        {
          "indexed": true,
          "internalType": "uint256",
          "name": "tokenId",
          "type": "uint256"
        }
      ],
      "name": "_RejectOffer",
      "type": "event"
    },
    {
      "anonymous": false,
      "inputs": [
        {
          "indexed": true,
          "internalType": "uint256",
          "name": "tokenId",
          "type": "uint256"
        },
        {
          "indexed": true,
          "internalType": "uint256",
          "name": "formerPrice",
          "type": "uint256"
        },
        {
          "indexed": false,
          "internalType": "uint256",
          "name": "newPrice",
          "type": "uint256"
        }
      ],
      "name": "_SetTokenPrice",
      "type": "event"
    },
    {
      "anonymous": false,
      "inputs": [
        {
          "indexed": true,
          "internalType": "uint256",
          "name": "tokenId",
          "type": "uint256"
        },
        {
          "indexed": true,
          "internalType": "address",
          "name": "sender",
          "type": "address"
        },
        {
          "indexed": true,
          "internalType": "address",
          "name": "bidder",
          "type": "address"
        },
        {
          "indexed": false,
          "internalType": "uint256",
          "name": "offer",
          "type": "uint256"
        },
        {
          "indexed": false,
          "internalType": "bool",
          "name": "FromCredit",
          "type": "bool"
        }
      ],
      "name": "_SubmitOffer",
      "type": "event"
    },
    {
      "anonymous": false,
      "inputs": [
        {
          "indexed": true,
          "internalType": "uint256",
          "name": "tokenId",
          "type": "uint256"
        }
      ],
      "name": "_WithdrawOffer",
      "type": "event"
    },
    {
      "inputs": [
        {
          "internalType": "address",
          "name": "to",
          "type": "address"
        },
        {
          "internalType": "uint256",
          "name": "tokenId",
          "type": "uint256"
        }
      ],
      "name": "approve",
      "outputs": [],
      "stateMutability": "nonpayable",
      "type": "function"
    },
    {
      "inputs": [
        {
          "internalType": "address",
          "name": "owner",
          "type": "address"
        }
      ],
      "name": "balanceOf",
      "outputs": [
        {
          "internalType": "uint256",
          "name": "",
          "type": "uint256"
        }
      ],
      "stateMutability": "view",
      "type": "function",
      "constant": true
    },
    {
      "inputs": [
        {
          "internalType": "uint256",
          "name": "tokenId",
          "type": "uint256"
        }
      ],
      "name": "getApproved",
      "outputs": [
        {
          "internalType": "address",
          "name": "",
          "type": "address"
        }
      ],
      "stateMutability": "view",
      "type": "function",
      "constant": true
    },
    {
      "inputs": [
        {
          "internalType": "address",
          "name": "owner",
          "type": "address"
        },
        {
          "internalType": "address",
          "name": "operator",
          "type": "address"
        }
      ],
      "name": "isApprovedForAll",
      "outputs": [
        {
          "internalType": "bool",
          "name": "",
          "type": "bool"
        }
      ],
      "stateMutability": "view",
      "type": "function",
      "constant": true
    },
    {
      "inputs": [],
      "name": "name",
      "outputs": [
        {
          "internalType": "string",
          "name": "",
          "type": "string"
        }
      ],
      "stateMutability": "view",
      "type": "function",
      "constant": true
    },
    {
      "inputs": [
        {
          "internalType": "uint256",
          "name": "tokenId",
          "type": "uint256"
        }
      ],
      "name": "ownerOf",
      "outputs": [
        {
          "internalType": "address",
          "name": "",
          "type": "address"
        }
      ],
      "stateMutability": "view",
      "type": "function",
      "constant": true
    },
    {
      "inputs": [],
      "name": "retrieveManagerContract",
      "outputs": [
        {
          "internalType": "address",
          "name": "",
          "type": "address"
        }
      ],
      "stateMutability": "view",
      "type": "function",
      "constant": true
    },
    {
      "inputs": [
        {
          "internalType": "address",
          "name": "from",
          "type": "address"
        },
        {
          "internalType": "address",
          "name": "to",
          "type": "address"
        },
        {
          "internalType": "uint256",
          "name": "tokenId",
          "type": "uint256"
        }
      ],
      "name": "safeTransferFrom",
      "outputs": [],
      "stateMutability": "nonpayable",
      "type": "function"
    },
    {
      "inputs": [
        {
          "internalType": "address",
          "name": "from",
          "type": "address"
        },
        {
          "internalType": "address",
          "name": "to",
          "type": "address"
        },
        {
          "internalType": "uint256",
          "name": "tokenId",
          "type": "uint256"
        },
        {
          "internalType": "bytes",
          "name": "_data",
          "type": "bytes"
        }
      ],
      "name": "safeTransferFrom",
      "outputs": [],
      "stateMutability": "nonpayable",
      "type": "function"
    },
    {
      "inputs": [
        {
          "internalType": "address",
          "name": "operator",
          "type": "address"
        },
        {
          "internalType": "bool",
          "name": "approved",
          "type": "bool"
        }
      ],
      "name": "setApprovalForAll",
      "outputs": [],
      "stateMutability": "nonpayable",
      "type": "function"
    },
    {
      "inputs": [
        {
          "internalType": "bytes4",
          "name": "interfaceId",
          "type": "bytes4"
        }
      ],
      "name": "supportsInterface",
      "outputs": [
        {
          "internalType": "bool",
          "name": "",
          "type": "bool"
        }
      ],
      "stateMutability": "view",
      "type": "function",
      "constant": true
    },
    {
      "inputs": [],
      "name": "symbol",
      "outputs": [
        {
          "internalType": "string",
          "name": "",
          "type": "string"
        }
      ],
      "stateMutability": "view",
      "type": "function",
      "constant": true
    },
    {
      "inputs": [
        {
          "internalType": "uint256",
          "name": "tokenId",
          "type": "uint256"
        }
      ],
      "name": "tokenURI",
      "outputs": [
        {
          "internalType": "string",
          "name": "",
          "type": "string"
        }
      ],
      "stateMutability": "view",
      "type": "function",
      "constant": true
    },
    {
      "inputs": [
        {
          "internalType": "address",
          "name": "from",
          "type": "address"
        },
        {
          "internalType": "address",
          "name": "to",
          "type": "address"
        },
        {
          "internalType": "uint256",
          "name": "tokenId",
          "type": "uint256"
        }
      ],
      "name": "transferFrom",
      "outputs": [],
      "stateMutability": "nonpayable",
      "type": "function"
    },
    {
      "inputs": [
        {
          "internalType": "address",
          "name": "managerContractAddress",
          "type": "address"
        },
        {
          "internalType": "address",
          "name": "owner",
          "type": "address"
        },
        {
          "internalType": "string",
          "name": "name",
          "type": "string"
        },
        {
          "internalType": "string",
          "name": "symbol",
          "type": "string"
        },
        {
          "internalType": "uint256",
          "name": "offersLifeTime",
          "type": "uint256"
        },
        {
          "internalType": "uint256",
          "name": "ownerTransferFeeAmount",
          "type": "uint256"
        },
        {
          "internalType": "uint256",
          "name": "ownerTransferFeeDecimals",
          "type": "uint256"
        },
        {
          "internalType": "uint256",
          "name": "issuerID",
          "type": "uint256"
        },
        {
          "internalType": "uint8",
          "name": "paymentPlan",
          "type": "uint8"
        }
      ],
      "name": "NFTMarket_init",
      "outputs": [],
      "stateMutability": "nonpayable",
      "type": "function"
    },
    {
      "inputs": [
        {
          "internalType": "address",
          "name": "newOwner",
          "type": "address"
        }
      ],
      "name": "changeOwner",
      "outputs": [],
      "stateMutability": "nonpayable",
      "type": "function"
    },
    {
      "inputs": [
        {
          "internalType": "enum Library.PaymentPlans",
          "name": "newPaymentPlan",
          "type": "uint8"
        }
      ],
      "name": "changePaymentPlan",
      "outputs": [],
      "stateMutability": "nonpayable",
      "type": "function"
    },
    {
      "inputs": [
        {
          "internalType": "uint256",
          "name": "newLifeTime",
          "type": "uint256"
        }
      ],
      "name": "changeOffersLifeTime",
      "outputs": [],
      "stateMutability": "nonpayable",
      "type": "function"
    },
    {
      "inputs": [
        {
          "internalType": "uint256",
          "name": "newAmount",
          "type": "uint256"
        },
        {
          "internalType": "uint256",
          "name": "newDecimals",
          "type": "uint256"
        }
      ],
      "name": "changeOwnerTransferFees",
      "outputs": [],
      "stateMutability": "nonpayable",
      "type": "function"
    },
    {
      "inputs": [
        {
          "internalType": "uint256",
          "name": "tokenId",
          "type": "uint256"
        },
        {
          "internalType": "address",
          "name": "receiver",
          "type": "address"
        },
        {
          "internalType": "uint256",
          "name": "price",
          "type": "uint256"
        }
      ],
      "name": "mintToken",
      "outputs": [],
      "stateMutability": "payable",
      "type": "function",
      "payable": true
    },
    {
      "inputs": [
        {
          "internalType": "uint256",
          "name": "tokenId",
          "type": "uint256"
        },
        {
          "internalType": "uint256",
          "name": "price",
          "type": "uint256"
        }
      ],
      "name": "setTokenPrice",
      "outputs": [],
      "stateMutability": "nonpayable",
      "type": "function"
    },
    {
      "inputs": [
        {
          "internalType": "uint256",
          "name": "tokenId",
          "type": "uint256"
        }
      ],
      "name": "acceptOffer",
      "outputs": [],
      "stateMutability": "nonpayable",
      "type": "function"
    },
    {
      "inputs": [
        {
          "internalType": "uint256",
          "name": "tokenId",
          "type": "uint256"
        }
      ],
      "name": "rejectOffer",
      "outputs": [],
      "stateMutability": "nonpayable",
      "type": "function"
    },
    {
      "inputs": [
        {
          "internalType": "uint256",
          "name": "tokenId",
          "type": "uint256"
        },
        {
          "internalType": "address",
          "name": "bidder",
          "type": "address"
        },
        {
          "internalType": "uint256",
          "name": "offer",
          "type": "uint256"
        },
        {
          "internalType": "bool",
          "name": "FromCredit",
          "type": "bool"
        }
      ],
      "name": "submitOffer",
      "outputs": [],
      "stateMutability": "payable",
      "type": "function",
      "payable": true
    },
    {
      "inputs": [
        {
          "internalType": "uint256",
          "name": "tokenId",
          "type": "uint256"
        }
      ],
      "name": "withdrawOffer",
      "outputs": [],
      "stateMutability": "nonpayable",
      "type": "function"
    },
    {
      "inputs": [],
      "name": "retrieveIssuer",
      "outputs": [
        {
          "components": [
            {
              "internalType": "address",
              "name": "_owner",
              "type": "address"
            },
            {
              "internalType": "string",
              "name": "_name",
              "type": "string"
            },
            {
              "internalType": "string",
              "name": "_symbol",
              "type": "string"
            },
            {
              "internalType": "uint256",
              "name": "_feeAmount",
              "type": "uint256"
            },
            {
              "internalType": "uint256",
              "name": "_feeDecimals",
              "type": "uint256"
            },
            {
              "internalType": "enum Library.PaymentPlans",
              "name": "_paymentPlan",
              "type": "uint8"
            }
          ],
          "internalType": "struct ItemsLibrary._issuerStruct",
          "name": "",
          "type": "tuple"
        },
        {
          "internalType": "uint256",
          "name": "",
          "type": "uint256"
        }
      ],
      "stateMutability": "view",
      "type": "function",
      "constant": true
    },
    {
      "inputs": [
        {
          "internalType": "uint256",
          "name": "tokenId",
          "type": "uint256"
        }
      ],
      "name": "retrieveToken",
      "outputs": [
        {
          "components": [
            {
              "internalType": "enum Library.PaymentPlans",
              "name": "_paymentPlan",
              "type": "uint8"
            },
            {
              "internalType": "uint256",
              "name": "_price",
              "type": "uint256"
            }
          ],
          "internalType": "struct INFTMarket._tokenStruct",
          "name": "",
          "type": "tuple"
        },
        {
          "internalType": "address",
          "name": "",
          "type": "address"
        }
      ],
      "stateMutability": "view",
      "type": "function",
      "constant": true
    },
    {
      "inputs": [
        {
          "internalType": "uint256",
          "name": "tokenId",
          "type": "uint256"
        }
      ],
      "name": "retrieveOffer",
      "outputs": [
        {
          "components": [
            {
              "internalType": "uint256",
              "name": "_offer",
              "type": "uint256"
            },
            {
              "internalType": "address",
              "name": "_sender",
              "type": "address"
            },
            {
              "internalType": "address",
              "name": "_bidder",
              "type": "address"
            },
            {
              "internalType": "uint256",
              "name": "_deadline",
              "type": "uint256"
            }
          ],
          "internalType": "struct INFTMarket._offerStruct",
          "name": "",
          "type": "tuple"
        }
      ],
      "stateMutability": "view",
      "type": "function",
      "constant": true
    }
  ],
  "bytecode": "0x608060405234801561001057600080fd5b506143df806100206000396000f3fe6080604052600436106101475760003560e01c806301ffc9a71461014c57806306fdde0314610181578063081812fc146101a3578063095ea7b3146101d057806323b872dd146101f257806342842e0e146102125780635542f680146102325780635b362e84146102605780636352211e1461028457806370a08231146102a45780637811a5bf146102d25780638610f045146102e557806388b10c751461030557806393f82e161461032557806395d89b411461034557806398a7541d1461035a5780639d16764f1461037a578063a22cb4651461039a578063a6f9dae1146103ba578063aa918550146103da578063b88d4fde146103fa578063c815729d1461041a578063c87b56dd1461043a578063ca25f9e41461045a578063cc3ff7281461047d578063cf0ba57514610490578063e985e9c51461055d578063eb685c471461057d575b600080fd5b34801561015857600080fd5b5061016c610167366004613aa1565b61059d565b60405190151581526020015b60405180910390f35b34801561018d57600080fd5b506101966105ef565b6040516101789190613d01565b3480156101af57600080fd5b506101c36101be366004613afc565b610681565b6040516101789190613c5e565b3480156101dc57600080fd5b506101f06101eb366004613945565b61070e565b005b3480156101fe57600080fd5b506101f061020d366004613850565b61081f565b34801561021e57600080fd5b506101f061022d366004613850565b610851565b34801561023e57600080fd5b5061025261024d366004613afc565b61086c565b604051610178929190613fd7565b34801561026c57600080fd5b506000546201000090046001600160a01b03166101c3565b34801561029057600080fd5b506101c361029f366004613afc565b6108e5565b3480156102b057600080fd5b506102c46102bf36600461373a565b61095c565b604051908152602001610178565b6101f06102e0366004613b15565b6109e3565b3480156102f157600080fd5b506101f0610300366004613afc565b610ebc565b34801561031157600080fd5b506101f0610320366004613afc565b610faf565b34801561033157600080fd5b506101f0610340366004613adb565b61104c565b34801561035157600080fd5b506101966110ee565b34801561036657600080fd5b506101f0610375366004613790565b6110fd565b34801561038657600080fd5b506101f0610395366004613afc565b611263565b3480156103a657600080fd5b506101f06103b5366004613910565b6112cb565b3480156103c657600080fd5b506101f06103d536600461373a565b6112da565b3480156103e657600080fd5b506101f06103f5366004613b84565b611370565b34801561040657600080fd5b506101f0610415366004613891565b611454565b34801561042657600080fd5b506101f0610435366004613afc565b61148c565b34801561044657600080fd5b50610196610455366004613afc565b611bb0565b34801561046657600080fd5b5061046f611c88565b604051610178929190613f4f565b6101f061048b366004613b3c565b611d09565b34801561049c57600080fd5b5061051c6104ab366004613afc565b6040805160808082018352600080835260208084018290528385018290526060938401829052948152609d8552839020835191820184528054825260018101546001600160a01b03908116958301959095526002810154909416928101929092526003909201549181019190915290565b60408051825181526020808401516001600160a01b039081169183019190915283830151169181019190915260609182015191810191909152608001610178565b34801561056957600080fd5b5061016c610578366004613757565b61233f565b34801561058957600080fd5b506101f0610598366004613b84565b61236d565b60006001600160e01b031982166380ac58cd60e01b14806105ce57506001600160e01b03198216635b5e139f60e01b145b806105e957506301ffc9a760e01b6001600160e01b03198316145b92915050565b6060606580546105fe90614283565b80601f016020809104026020016040519081016040528092919081815260200182805461062a90614283565b80156106775780601f1061064c57610100808354040283529160200191610677565b820191906000526020600020905b81548152906001019060200180831161065a57829003601f168201915b5050505050905090565b600061068c826123f1565b6106f25760405162461bcd60e51b815260206004820152602c60248201527f4552433732313a20617070726f76656420717565727920666f72206e6f6e657860448201526b34b9ba32b73a103a37b5b2b760a11b60648201526084015b60405180910390fd5b506000908152606960205260409020546001600160a01b031690565b6000610719826108e5565b9050806001600160a01b0316836001600160a01b031614156107875760405162461bcd60e51b815260206004820152602160248201527f4552433732313a20617070726f76616c20746f2063757272656e74206f776e656044820152603960f91b60648201526084016106e9565b336001600160a01b03821614806107a357506107a3813361233f565b6108105760405162461bcd60e51b815260206004820152603860248201527f4552433732313a20617070726f76652063616c6c6572206973206e6f74206f776044820152771b995c881b9bdc88185c1c1c9bdd995908199bdc88185b1b60421b60648201526084016106e9565b61081a838361240e565b505050565b61082a335b8261247c565b6108465760405162461bcd60e51b81526004016106e990613e7c565b61081a838383612546565b61081a83838360405180602001604052806000815250611454565b60408051808201909152600080825260208201526000828152609c60205260408120610897846108e5565b6040805180820190915282548390829060ff1660018111156108bb576108bb614319565b60018111156108cc576108cc614319565b8152602001600182015481525050915091509150915091565b6000818152606760205260408120546001600160a01b0316806105e95760405162461bcd60e51b815260206004820152602960248201527f4552433732313a206f776e657220717565727920666f72206e6f6e657869737460448201526832b73a103a37b5b2b760b91b60648201526084016106e9565b60006001600160a01b0382166109c75760405162461bcd60e51b815260206004820152602a60248201527f4552433732313a2062616c616e636520717565727920666f7220746865207a65604482015269726f206164647265737360b01b60648201526084016106e9565b506001600160a01b031660009081526068602052604090205490565b60975433906001600160a01b03168114610a0f5760405162461bcd60e51b81526004016106e990613d14565b60008080609754600160a01b900460ff166001811115610a3157610a31614319565b1415610e175760008060029054906101000a90046001600160a01b03166001600160a01b031663e220ad956040518163ffffffff1660e01b815260040160006040518083038186803b158015610a8657600080fd5b505afa158015610a9a573d6000803e3d6000fd5b505050506040513d6000823e601f3d908101601f19168201604052610ac29190810190613971565b600281518110610ad457610ad461432f565b60200260200101516001600160a01b031663b049473f6040518163ffffffff1660e01b815260040160006040518083038186803b158015610b1457600080fd5b505afa158015610b28573d6000803e3d6000fd5b505050506040513d6000823e601f3d908101601f19168201604052610b509190810190613a16565b905080600281518110610b6557610b6561432f565b602002602001015192508060036008811115610b8357610b83614319565b81518110610b9357610b9361432f565b602002602001015191508183610ba9919061410a565b341015610bf25760405162461bcd60e51b815260206004820152601760248201527609ad2dce8d2dcce408ccacae640dcdee840cadcdeeaced604b1b60448201526064016106e9565b73__ItemsLibrary__________________________632ac0cb2384600060029054906101000a90046001600160a01b03166001600160a01b031663e220ad956040518163ffffffff1660e01b815260040160006040518083038186803b158015610c5b57600080fd5b505afa158015610c6f573d6000803e3d6000fd5b505050506040513d6000823e601f3d908101601f19168201604052610c979190810190613971565b600281518110610ca957610ca961432f565b60200260200101516040518363ffffffff1660e01b8152600401610cce92919061400c565b60006040518083038186803b158015610ce657600080fd5b505af4158015610cfa573d6000803e3d6000fd5b5050505073__ItemsLibrary__________________________632ac0cb238434610d249190614240565b600060029054906101000a90046001600160a01b03166001600160a01b031663e220ad956040518163ffffffff1660e01b815260040160006040518083038186803b158015610d7257600080fd5b505afa158015610d86573d6000803e3d6000fd5b505050506040513d6000823e601f3d908101601f19168201604052610dae9190810190613971565b600581518110610dc057610dc061432f565b60200260200101516040518363ffffffff1660e01b8152600401610de592919061400c565b60006040518083038186803b158015610dfd57600080fd5b505af4158015610e11573d6000803e3d6000fd5b50505050505b610e2185876126d4565b6000868152609c6020526040902060018082018690556097548254600160a01b90910460ff16929160ff19909116908381811115610e6157610e61614319565b021790555060975460405187917f242baeff65c6a414799795196406344b40c33e2f112a0f415ef41cc7bbd960e691610eac9189918991600160a01b900460ff169088908890613caf565b60405180910390a2505050505050565b80600080828152609d60205260409020600301544211610eee5760405162461bcd60e51b81526004016106e990613daa565b6000838152609d60205260409020600101546001600160a01b03163314610f6d5760405162461bcd60e51b815260206004820152602d60248201527f4f6e6c7920746865206f726967696e616c2073656e6465722063616e2077697460448201526c1a191c985dc81d1a1948189a59609a1b60648201526084016106e9565b610f76836126ee565b610f7f836128f9565b60405183907f94b71a540d883ff6ff22bd47377cfb303fb9e624812d909e0f04198e606b37df90600090a2505050565b80610fb933610824565b610fd55760405162461bcd60e51b81526004016106e990613e2f565b8160016000828152609d60205260409020600301544211156110095760405162461bcd60e51b81526004016106e990613ecd565b611012846126ee565b61101b846128f9565b60405184907f8066a8132ff25ec62d01ed52cd55ddbae09c3c3e07e29d7c3de2ab2f44312aa390600090a250505050565b60975433906001600160a01b031681146110785760405162461bcd60e51b81526004016106e990613d14565b7f0f6280276bfde6f31b6ca64ae1d1b7443f954a37caad3b1504f361841ec93e39609760149054906101000a900460ff16836040516110b8929190613ce6565b60405180910390a16097805483919060ff60a01b1916600160a01b8360018111156110e5576110e5614319565b02179055505050565b6060606680546105fe90614283565b600054610100900460ff166111185760005460ff161561111c565b303b155b6111385760405162461bcd60e51b81526004016106e990613de1565b600054610100900460ff1615801561115a576000805461ffff19166101011790555b848473__Library_______________________________63bdbff48783836040518363ffffffff1660e01b8152600401611195929190614023565b60006040518083038186803b1580156111ad57600080fd5b505af41580156111c1573d6000803e3d6000fd5b505050506111ce8c612930565b6111d88a8a6129c4565b609780546001600160a01b0319166001600160a01b038d1617905560ff8416600181111561120857611208614319565b6097805460ff60a01b1916600160a01b83600181111561122a5761122a614319565b0217905550505060988690556099859055609a849055609b8390558015611257576000805461ff00191690555b50505050505050505050565b60975433906001600160a01b0316811461128f5760405162461bcd60e51b81526004016106e990613d14565b6098546040518381527ff3c2669e9a3f991cccc770ce527bedc7455f04ceb7e85ab4a76010664264a5a89060200160405180910390a250609855565b6112d6338383612a05565b5050565b60975433906001600160a01b031681146113065760405162461bcd60e51b81526004016106e990613d14565b6097546040516001600160a01b03909116907f8ed2cc08e61acbfdbcf3b71ad64556a3bf3968c3eb0f63e668fa50743e2db37c90611345908590613c5e565b60405180910390a250609780546001600160a01b0319166001600160a01b0392909216919091179055565b60975433906001600160a01b0316811461139c5760405162461bcd60e51b81526004016106e990613d14565b828273__Library_______________________________63bdbff48783836040518363ffffffff1660e01b81526004016113d7929190614023565b60006040518083038186803b1580156113ef57600080fd5b505af4158015611403573d6000803e3d6000fd5b50505050609a546099547f66b7f276cd6890c8ca84d869084baa18448ac900272b64d7ba639478f0afbcd8878760405161143e929190614023565b60405180910390a3505050609991909155609a55565b61145e338361247c565b61147a5760405162461bcd60e51b81526004016106e990613e7c565b61148684848484612ad0565b50505050565b8061149633610824565b6114b25760405162461bcd60e51b81526004016106e990613e2f565b8160016000828152609d60205260409020600301544211156114e65760405162461bcd60e51b81526004016106e990613ecd565b6000848152609d60205260409020600201546001600160a01b031661150a856108e5565b6001600160a01b0316857fa598be7ff8ec838cdd72553d46ff4674ec76cf208fcc326c63ff80b03f491da8609d60008981526020019081526020016000206000015460405161155b91815260200190565b60405180910390a460008060008061157288612b03565b93509350935093506000828486611589919061410a565b611593919061410a565b60405163bdbff48760e01b815290915073__Library_______________________________9063bdbff487906115cf9084908690600401614023565b60006040518083038186803b1580156115e757600080fd5b505af41580156115fb573d6000803e3d6000fd5b5050505060008183600261160f919061410a565b61161a90600a614179565b6116249190614240565b90506116656116328b6108e5565b60008c8152609d602090815260408083206002015481519283019091529181526001600160a01b03909116908d90612ad0565b61184b8a6040518060800160405280600060029054906101000a90046001600160a01b03166001600160a01b031663e220ad956040518163ffffffff1660e01b815260040160006040518083038186803b1580156116c257600080fd5b505afa1580156116d6573d6000803e3d6000fd5b505050506040513d6000823e601f3d908101601f191682016040526116fe9190810190613971565b6002815181106117105761171061432f565b60200260200101516001600160a01b03166001600160a01b03168152602001600060029054906101000a90046001600160a01b03166001600160a01b031663e220ad956040518163ffffffff1660e01b815260040160006040518083038186803b15801561177d57600080fd5b505afa158015611791573d6000803e3d6000fd5b505050506040513d6000823e601f3d908101601f191682016040526117b99190810190613971565b6005815181106117cb576117cb61432f565b6020908102919091018101516001600160a01b03908116835260975416908201526040016117f88e6108e5565b6001600160a01b03166001600160a01b031681525060405180608001604052808981526020018881526020018a815260200185815250609d60008f81526020019081526020016000206000015487612da7565b6118548a6128f9565b600060029054906101000a90046001600160a01b03166001600160a01b031663e220ad956040518163ffffffff1660e01b815260040160006040518083038186803b1580156118a257600080fd5b505afa1580156118b6573d6000803e3d6000fd5b505050506040513d6000823e601f3d908101601f191682016040526118de9190810190613971565b6001815181106118f0576118f061432f565b60200260200101516001600160a01b031663eec42872609b54600060029054906101000a90046001600160a01b03166001600160a01b031663e220ad956040518163ffffffff1660e01b815260040160006040518083038186803b15801561195757600080fd5b505afa15801561196b573d6000803e3d6000fd5b505050506040513d6000823e601f3d908101601f191682016040526119939190810190613971565b6002815181106119a5576119a561432f565b60200260200101516040518363ffffffff1660e01b81526004016119ca92919061400c565b600060405180830381600087803b1580156119e457600080fd5b505af11580156119f8573d6000803e3d6000fd5b50505050600060029054906101000a90046001600160a01b03166001600160a01b031663e220ad956040518163ffffffff1660e01b815260040160006040518083038186803b158015611a4a57600080fd5b505afa158015611a5e573d6000803e3d6000fd5b505050506040513d6000823e601f3d908101601f19168201604052611a869190810190613971565b600181518110611a9857611a9861432f565b60200260200101516001600160a01b031663eec42872609b54600060029054906101000a90046001600160a01b03166001600160a01b031663e220ad956040518163ffffffff1660e01b815260040160006040518083038186803b158015611aff57600080fd5b505afa158015611b13573d6000803e3d6000fd5b505050506040513d6000823e601f3d908101601f19168201604052611b3b9190810190613971565b600581518110611b4d57611b4d61432f565b60200260200101516040518363ffffffff1660e01b8152600401611b7292919061400c565b600060405180830381600087803b158015611b8c57600080fd5b505af1158015611ba0573d6000803e3d6000fd5b5050505050505050505050505050565b6060611bbb826123f1565b611c1f5760405162461bcd60e51b815260206004820152602f60248201527f4552433732314d657461646174613a2055524920717565727920666f72206e6f60448201526e3732bc34b9ba32b73a103a37b5b2b760891b60648201526084016106e9565b6000611c3660408051602081019091526000815290565b90506000815111611c565760405180602001604052806000815250611c81565b80611c6084613122565b604051602001611c71929190613c2f565b6040516020818303038152906040525b9392505050565b611c906135b5565b6040805160c081019091526097546001600160a01b0316815260009060208101611cb86105ef565b8152602001611cc56110ee565b81526020016099548152602001609a548152602001609760149054906101000a900460ff166001811115611cfb57611cfb614319565b815250609854915091509091565b83600080828152609d60205260409020600301544211611d3b5760405162461bcd60e51b81526004016106e990613daa565b6000868152609c602052604090206001015486908590811015611dac5760405162461bcd60e51b8152602060048201526024808201527f546865206f666665722069732062656c6f7720746865206d696e696d756d20706044820152637269636560e01b60648201526084016106e9565b6000888152609d60205260409020600101546001600160a01b031615611dd557611dd5886126ee565b348515612002578015611ee557600060029054906101000a90046001600160a01b03166001600160a01b031663e220ad956040518163ffffffff1660e01b815260040160006040518083038186803b158015611e3057600080fd5b505afa158015611e44573d6000803e3d6000fd5b505050506040513d6000823e601f3d908101601f19168201604052611e6c9190810190613971565b600181518110611e7e57611e7e61432f565b60200260200101516001600160a01b031663edb492c882336040518363ffffffff1660e01b8152600401611eb29190613c5e565b6000604051808303818588803b158015611ecb57600080fd5b505af1158015611edf573d6000803e3d6000fd5b50505050505b600060029054906101000a90046001600160a01b03166001600160a01b031663e220ad956040518163ffffffff1660e01b815260040160006040518083038186803b158015611f3357600080fd5b505afa158015611f47573d6000803e3d6000fd5b505050506040513d6000823e601f3d908101601f19168201604052611f6f9190810190613971565b600181518110611f8157611f8161432f565b6020908102919091010151609b5460405161c54160eb1b81526004810191909152602481018b9052336044820152606481018990526001600160a01b039091169063062a080090608401600060405180830381600087803b158015611fe557600080fd5b505af1158015611ff9573d6000803e3d6000fd5b5050505061227f565b868110156120635760405162461bcd60e51b815260206004820152602860248201527f4e6f7420656e6f7567682076616c75652073656e7420746f206d61746368207460448201526734329037b33332b960c11b60648201526084016106e9565b600060029054906101000a90046001600160a01b03166001600160a01b031663e220ad956040518163ffffffff1660e01b815260040160006040518083038186803b1580156120b157600080fd5b505afa1580156120c5573d6000803e3d6000fd5b505050506040513d6000823e601f3d908101601f191682016040526120ed9190810190613971565b6001815181106120ff576120ff61432f565b60200260200101516001600160a01b0316637b76e09e88609b548c6040518463ffffffff1660e01b8152600401612137929190614023565b6000604051808303818588803b15801561215057600080fd5b505af1158015612164573d6000803e3d6000fd5b50505050508681111561227f57600060029054906101000a90046001600160a01b03166001600160a01b031663e220ad956040518163ffffffff1660e01b815260040160006040518083038186803b1580156121bf57600080fd5b505afa1580156121d3573d6000803e3d6000fd5b505050506040513d6000823e601f3d908101601f191682016040526121fb9190810190613971565b60018151811061220d5761220d61432f565b60200260200101516001600160a01b031663edb492c8888361222f9190614240565b336040518363ffffffff1660e01b815260040161224c9190613c5e565b6000604051808303818588803b15801561226557600080fd5b505af1158015612279573d6000803e3d6000fd5b50505050505b6000898152609d60205260409020878155600181018054336001600160a01b031991821617909155600290910180549091166001600160a01b038a161790556098546122cb904261410a565b60008a8152609d60205260409081902060030191909155516001600160a01b0389169033908b907f65d99335dbbbc33be5c7b3099e49c47fa71f59e1465ae77bca56cb8c951161c59061232c908c908c909182521515602082015260400190565b60405180910390a4505050505050505050565b6001600160a01b039182166000908152606a6020908152604080832093909416825291909152205460ff1690565b8161237733610824565b6123935760405162461bcd60e51b81526004016106e990613e2f565b6000838152609c602090815260409182902060010154915184815285917f1528b9626bd426537e5cbaba09815d2442ce61aae462b89d81f515065e2d971e910160405180910390a3506000918252609c602052604090912060010155565b6000908152606760205260409020546001600160a01b0316151590565b600081815260696020526040902080546001600160a01b0319166001600160a01b0384169081179091558190612443826108e5565b6001600160a01b03167f8c5be1e5ebec7d5bd14f71427d1e84f3dd0314c0f7b2291e5b200ac8c7c3b92560405160405180910390a45050565b6000612487826123f1565b6124e85760405162461bcd60e51b815260206004820152602c60248201527f4552433732313a206f70657261746f7220717565727920666f72206e6f6e657860448201526b34b9ba32b73a103a37b5b2b760a11b60648201526084016106e9565b60006124f3836108e5565b9050806001600160a01b0316846001600160a01b0316148061252e5750836001600160a01b031661252384610681565b6001600160a01b0316145b8061253e575061253e818561233f565b949350505050565b826001600160a01b0316612559826108e5565b6001600160a01b0316146125c15760405162461bcd60e51b815260206004820152602960248201527f4552433732313a207472616e73666572206f6620746f6b656e2074686174206960448201526839903737ba1037bbb760b91b60648201526084016106e9565b6001600160a01b0382166126235760405162461bcd60e51b8152602060048201526024808201527f4552433732313a207472616e7366657220746f20746865207a65726f206164646044820152637265737360e01b60648201526084016106e9565b61262e60008261240e565b6001600160a01b0383166000908152606860205260408120805460019290612657908490614240565b90915550506001600160a01b038216600090815260686020526040812080546001929061268590849061410a565b909155505060008181526067602052604080822080546001600160a01b0319166001600160a01b03868116918217909255915184939187169160008051602061438a83398151915291a4505050565b6112d682826040518060200160405280600081525061321f565b60408051600180825281830190925260009160208083019080368337505060408051600180825281830190925292935060009291506020808301908036833750506040805160018082528183019092529293506000929150602080830190803683375050506000858152609d602052604081206001015485519293506001600160a01b0316918591906127835761278361432f565b6001600160a01b039092166020928302919091018201526000858152609d90915260408120548351909184916127bb576127bb61432f565b6020026020010181815250506001816000815181106127dc576127dc61432f565b602002602001018181525050600060029054906101000a90046001600160a01b03166001600160a01b031663e220ad956040518163ffffffff1660e01b815260040160006040518083038186803b15801561283657600080fd5b505afa15801561284a573d6000803e3d6000fd5b505050506040513d6000823e601f3d908101601f191682016040526128729190810190613971565b6001815181106128845761288461432f565b60200260200101516001600160a01b03166391c0734b609b54868686866040518663ffffffff1660e01b81526004016128c1959493929190614031565b600060405180830381600087803b1580156128db57600080fd5b505af11580156128ef573d6000803e3d6000fd5b5050505050505050565b6000908152609d602052604081208181556001810180546001600160a01b0319908116909155600282018054909116905560030155565b600054610100900460ff1661294b5760005460ff161561294f565b303b155b61296b5760405162461bcd60e51b81526004016106e990613de1565b600054610100900460ff1615801561298d576000805461ffff19166101011790555b6000805462010000600160b01b031916620100006001600160a01b0385160217905580156112d6576000805461ff00191690555050565b600054610100900460ff166129eb5760405162461bcd60e51b81526004016106e990613f04565b6129f3613252565b6129fb613252565b6112d6828261327b565b816001600160a01b0316836001600160a01b03161415612a635760405162461bcd60e51b815260206004820152601960248201527822a9219b99189d1030b8383937bb32903a379031b0b63632b960391b60448201526064016106e9565b6001600160a01b038381166000818152606a6020908152604080832094871680845294825291829020805460ff191686151590811790915591519182527f17307eab39ab6107e8899845ad3d59bd9653f200f220920489ca2b5937696c31910160405180910390a3505050565b612adb848484612546565b612ae7848484846132c9565b6114865760405162461bcd60e51b81526004016106e990613d58565b609954609a546000838152609c602052604081205490928392839283929190839081908190819060ff166001811115612b3e57612b3e614319565b60011415612d0a5760008060029054906101000a90046001600160a01b03166001600160a01b031663e220ad956040518163ffffffff1660e01b815260040160006040518083038186803b158015612b9557600080fd5b505afa158015612ba9573d6000803e3d6000fd5b505050506040513d6000823e601f3d908101601f19168201604052612bd19190810190613971565b600281518110612be357612be361432f565b60200260200101516001600160a01b031663b049473f6040518163ffffffff1660e01b815260040160006040518083038186803b158015612c2357600080fd5b505afa158015612c37573d6000803e3d6000fd5b505050506040513d6000823e601f3d908101601f19168201604052612c5f9190810190613a16565b905080600481518110612c7457612c7461432f565b602002602001015194508060056008811115612c9257612c92614319565b81518110612ca257612ca261432f565b602002602001015193508060066008811115612cc057612cc0614319565b81518110612cd057612cd061432f565b602002602001015192508060076008811115612cee57612cee614319565b81518110612cfe57612cfe61432f565b60200260200101519150505b6000612d2f6040518060600160405280888152602001868152602001848152506133d6565b9050612d3b8682614240565b612d4690600a614179565b612d509088614221565b9650612d5c8482614240565b612d6790600a614179565b612d719086614221565b9450612d7d8282614240565b612d8890600a614179565b612d929084614221565b969c949b509599509497509195505050505050565b6000612db560046002614221565b6001600160401b03811115612dcc57612dcc614345565b604051908082528060200260200182016040528015612df5578160200160208202803683370190505b5090506000612e0660046002614221565b6001600160401b03811115612e1d57612e1d614345565b604051908082528060200260200182016040528015612e46578160200160208202803683370190505b5090506000612e5760046002614221565b6001600160401b03811115612e6e57612e6e614345565b604051908082528060200260200182016040528015612e97578160200160208202803683370190505b50905060008060008060005b600481101561300857612ecd8a8c8360048110612ec257612ec261432f565b60200201518b613435565b919650945092508b8160048110612ee657612ee661432f565b6020020151888381518110612efd57612efd61432f565b60200260200101906001600160a01b031690816001600160a01b03168152505084878381518110612f3057612f3061432f565b602090810291909101015260018683612f48816142be565b945081518110612f5a57612f5a61432f565b6020026020010181815250508b8160048110612f7857612f7861432f565b6020020151888381518110612f8f57612f8f61432f565b60200260200101906001600160a01b031690816001600160a01b03168152505083878381518110612fc257612fc261432f565b6020908102919091010152828683612fd9816142be565b945081518110612feb57612feb61432f565b602090810291909101015280613000816142be565b915050612ea3565b50600060029054906101000a90046001600160a01b03166001600160a01b031663e220ad956040518163ffffffff1660e01b815260040160006040518083038186803b15801561305757600080fd5b505afa15801561306b573d6000803e3d6000fd5b505050506040513d6000823e601f3d908101601f191682016040526130939190810190613971565b6001815181106130a5576130a561432f565b60200260200101516001600160a01b03166391c0734b609b548e8a8a8a6040518663ffffffff1660e01b81526004016130e2959493929190614031565b600060405180830381600087803b1580156130fc57600080fd5b505af1158015613110573d6000803e3d6000fd5b50505050505050505050505050505050565b6060816131465750506040805180820190915260018152600360fc1b602082015290565b8160005b8115613170578061315a816142be565b91506131699050600a83614122565b915061314a565b6000816001600160401b0381111561318a5761318a614345565b6040519080825280601f01601f1916602001820160405280156131b4576020820181803683370190505b5090505b841561253e576131c9600183614240565b91506131d6600a866142d9565b6131e190603061410a565b60f81b8183815181106131f6576131f661432f565b60200101906001600160f81b031916908160001a905350613218600a86614122565b94506131b8565b6132298383613495565b61323660008484846132c9565b61081a5760405162461bcd60e51b81526004016106e990613d58565b600054610100900460ff166132795760405162461bcd60e51b81526004016106e990613f04565b565b600054610100900460ff166132a25760405162461bcd60e51b81526004016106e990613f04565b81516132b5906065906020850190613604565b50805161081a906066906020840190613604565b60006001600160a01b0384163b156133cb57604051630a85bd0160e11b81526001600160a01b0385169063150b7a029061330d903390899088908890600401613c72565b602060405180830381600087803b15801561332757600080fd5b505af1925050508015613357575060408051601f3d908101601f1916820190925261335491810190613abe565b60015b6133b1573d808015613385576040519150601f19603f3d011682016040523d82523d6000602084013e61338a565b606091505b5080516133a95760405162461bcd60e51b81526004016106e990613d58565b805181602001fd5b6001600160e01b031916630a85bd0160e11b14905061253e565b506001949350505050565b600080805b600381101561342e578381600381106133f6576133f661432f565b602002015182101561341c578381600381106134145761341461432f565b602002015191505b80613426816142be565b9150506133db565b5092915050565b60008080806134448688614221565b9050600061345386600a614179565b61345e906064614221565b9050600061346c8284614122565b9050600061347a8383614221565b6134849085614240565b919a91995091975095505050505050565b6001600160a01b0382166134eb5760405162461bcd60e51b815260206004820181905260248201527f4552433732313a206d696e7420746f20746865207a65726f206164647265737360448201526064016106e9565b6134f4816123f1565b156135405760405162461bcd60e51b815260206004820152601c60248201527b115490cdcc8c4e881d1bdad95b88185b1c9958591e481b5a5b9d195960221b60448201526064016106e9565b6001600160a01b038216600090815260686020526040812080546001929061356990849061410a565b909155505060008181526067602052604080822080546001600160a01b0319166001600160a01b038616908117909155905183929060008051602061438a833981519152908290a45050565b6040518060c0016040528060006001600160a01b0316815260200160608152602001606081526020016000815260200160008152602001600060018111156135ff576135ff614319565b905290565b82805461361090614283565b90600052602060002090601f0160209004810192826136325760008555613678565b82601f1061364b57805160ff1916838001178555613678565b82800160010185558215613678579182015b8281111561367857825182559160200191906001019061365d565b50613684929150613688565b5090565b5b808211156136845760008155600101613689565b60006001600160401b038311156136b6576136b6614345565b6136c9601f8401601f19166020016140b7565b90508281528383830111156136dd57600080fd5b828260208301376000602084830101529392505050565b8035801515811461370457600080fd5b919050565b600082601f83011261371a57600080fd5b611c818383356020850161369d565b803560ff8116811461370457600080fd5b60006020828403121561374c57600080fd5b8135611c818161435b565b6000806040838503121561376a57600080fd5b82356137758161435b565b915060208301356137858161435b565b809150509250929050565b60008060008060008060008060006101208a8c0312156137af57600080fd5b89356137ba8161435b565b985060208a01356137ca8161435b565b975060408a01356001600160401b03808211156137e657600080fd5b6137f28d838e01613709565b985060608c013591508082111561380857600080fd5b506138158c828d01613709565b96505060808a0135945060a08a0135935060c08a0135925060e08a013591506138416101008b01613729565b90509295985092959850929598565b60008060006060848603121561386557600080fd5b83356138708161435b565b925060208401356138808161435b565b929592945050506040919091013590565b600080600080608085870312156138a757600080fd5b84356138b28161435b565b935060208501356138c28161435b565b92506040850135915060608501356001600160401b038111156138e457600080fd5b8501601f810187136138f557600080fd5b6139048782356020840161369d565b91505092959194509250565b6000806040838503121561392357600080fd5b823561392e8161435b565b915061393c602084016136f4565b90509250929050565b6000806040838503121561395857600080fd5b82356139638161435b565b946020939093013593505050565b6000602080838503121561398457600080fd5b82516001600160401b0381111561399a57600080fd5b8301601f810185136139ab57600080fd5b80516139be6139b9826140e7565b6140b7565b80828252848201915084840188868560051b87010111156139de57600080fd5b600094505b83851015613a0a5780516139f68161435b565b8352600194909401939185019185016139e3565b50979650505050505050565b60006020808385031215613a2957600080fd5b82516001600160401b03811115613a3f57600080fd5b8301601f81018513613a5057600080fd5b8051613a5e6139b9826140e7565b80828252848201915084840188868560051b8701011115613a7e57600080fd5b600094505b83851015613a0a578051835260019490940193918501918501613a83565b600060208284031215613ab357600080fd5b8135611c8181614373565b600060208284031215613ad057600080fd5b8151611c8181614373565b600060208284031215613aed57600080fd5b813560028110611c8157600080fd5b600060208284031215613b0e57600080fd5b5035919050565b600080600060608486031215613b2a57600080fd5b8335925060208401356138808161435b565b60008060008060808587031215613b5257600080fd5b843593506020850135613b648161435b565b925060408501359150613b79606086016136f4565b905092959194509250565b60008060408385031215613b9757600080fd5b50508035926020909101359150565b600081518084526020808501945080840160005b83811015613bd657815187529582019590820190600101613bba565b509495945050505050565b60008151808452613bf9816020860160208601614257565b601f01601f19169290920160200192915050565b60028110613c2b57634e487b7160e01b600052602160045260246000fd5b9052565b60008351613c41818460208801614257565b835190830190613c55818360208801614257565b01949350505050565b6001600160a01b0391909116815260200190565b6001600160a01b0385811682528416602082015260408101839052608060608201819052600090613ca590830184613be1565b9695505050505050565b6001600160a01b03861681526020810185905260a08101613cd36040830186613c0d565b6060820193909352608001529392505050565b60408101613cf48285613c0d565b611c816020830184613c0d565b602081526000611c816020830184613be1565b60208082526024908201527f4f6e6c7920746865204f776e657220697320616c6c6f77656420746f20646f206040820152631d1a185d60e21b606082015260800190565b60208082526032908201527f4552433732313a207472616e7366657220746f206e6f6e20455243373231526560408201527131b2b4bb32b91034b6b83632b6b2b73a32b960711b606082015260800190565b6020808252601d908201527f546865726520697320616e206f6666657220696e2070726f6772657373000000604082015260600190565b6020808252602e908201527f496e697469616c697a61626c653a20636f6e747261637420697320616c72656160408201526d191e481a5b9a5d1a585b1a5e995960921b606082015260800190565b6020808252602d908201527f4f6e6c79206f776e6572206f7220617070726f7665642063616e206368616e6760408201526c6520746f6b656e20707269636560981b606082015260800190565b60208082526031908201527f4552433732313a207472616e736665722063616c6c6572206973206e6f74206f6040820152701ddb995c881b9bdc88185c1c1c9bdd9959607a1b606082015260800190565b6020808252601d908201527f5468657265206973206e6f206f6666657220696e2070726f6772657373000000604082015260600190565b6020808252602b908201527f496e697469616c697a61626c653a20636f6e7472616374206973206e6f74206960408201526a6e697469616c697a696e6760a81b606082015260800190565b604080825283516001600160a01b031690820152602083015160c06060830152600090613f80610100840182613be1565b90506040850151603f19848303016080850152613f9d8282613be1565b915050606085015160a0840152608085015160c084015260a0850151613fc660e0850182613c0d565b506020929092019290925292915050565b6000606082019050613fea828551613c0d565b602093840151938201939093526001600160a01b039190911660409091015290565b9182526001600160a01b0316602082015260400190565b918252602082015260400190565b600060a082018783526020878185015260a0604085015281875180845260c086019150828901935060005b818110156140815784516001600160a01b03168352938301939183019160010161405c565b505084810360608601526140958188613ba6565b9250505082810360808401526140ab8185613ba6565b98975050505050505050565b604051601f8201601f191681016001600160401b03811182821017156140df576140df614345565b604052919050565b60006001600160401b0382111561410057614100614345565b5060051b60200190565b6000821982111561411d5761411d6142ed565b500190565b60008261413157614131614303565b500490565b600181815b80851115614171578160001904821115614157576141576142ed565b8085161561416457918102915b93841c939080029061413b565b509250929050565b6000611c81838360008261418f575060016105e9565b8161419c575060006105e9565b81600181146141b257600281146141bc576141d8565b60019150506105e9565b60ff8411156141cd576141cd6142ed565b50506001821b6105e9565b5060208310610133831016604e8410600b84101617156141fb575081810a6105e9565b6142058383614136565b8060001904821115614219576142196142ed565b029392505050565b600081600019048311821515161561423b5761423b6142ed565b500290565b600082821015614252576142526142ed565b500390565b60005b8381101561427257818101518382015260200161425a565b838111156114865750506000910152565b600181811c9082168061429757607f821691505b602082108114156142b857634e487b7160e01b600052602260045260246000fd5b50919050565b60006000198214156142d2576142d26142ed565b5060010190565b6000826142e8576142e8614303565b500690565b634e487b7160e01b600052601160045260246000fd5b634e487b7160e01b600052601260045260246000fd5b634e487b7160e01b600052602160045260246000fd5b634e487b7160e01b600052603260045260246000fd5b634e487b7160e01b600052604160045260246000fd5b6001600160a01b038116811461437057600080fd5b50565b6001600160e01b03198116811461437057600080fdfeddf252ad1be2c89b69c2b068fc378daa952ba7f163c4a11628f55a4df523b3efa264697066735822122075d3e8a56d0abdd622770064c44292bba35f7b9ddd75827a73375a93607cfef464736f6c63430008070033",
  "immutableReferences": {},
  "source": "// SPDX-License-Identifier: GPL-3.0\r\n\r\npragma solidity 0.8.7;\r\n\r\n/**\r\n Certis Token is an ERC20 Token that grants its holder the right to:\r\n   - Vote on all the systems propositions (changing system configuraiton etc...)\r\n   - Receive Dividends for all the payments forwarded to the Treasury contract\r\n\r\nBefore every token transfer we contact the token gouvernance Base contracts so that the can update the tokens used for voting if needed\r\n\r\n */\r\n\r\nimport \"@openzeppelin/contracts-upgradeable/token/ERC721/ERC721Upgradeable.sol\";\r\nimport \"@openzeppelin/contracts-upgradeable/proxy/utils/Initializable.sol\";\r\nimport \"../Base/ManagedBaseContract.sol\";\r\nimport \"../Libraries/Library.sol\";\r\nimport \"../Libraries/ItemsLibrary.sol\";\r\nimport \"../Interfaces/ITreasury.sol\";\r\nimport \"../Interfaces/IPool.sol\";\r\nimport \"../Interfaces/INFTMarket.sol\";\r\n\r\n\r\n contract NFTMarket is  INFTMarket, Initializable, ManagedBaseContract, ERC721Upgradeable {\r\n    using Library for *;\r\n\r\n  // EVENTS /////////////////////////////////////////\r\n  event _NewOwner(address indexed formerOwner, address newOwner);\r\n  event _NewPaymentPlan(Library.PaymentPlans formerPlan, Library.PaymentPlans newPlan);\r\n  event _NewOffersLifeTime(uint256 indexed formerLifeTime, uint256 newLifeTime);\r\n  event _NewOwnerFees(uint256 indexed formerAmount, uint256 indexed formerDecimals, uint256 newAmount, uint256 newDecimals);\r\n\r\n  event _MintToken(uint256 indexed tokenId, address receiver, uint256 price, Library.PaymentPlans plan, uint256 MintingFee, uint256 AdminMintingFee);\r\n  event _SetTokenPrice(uint256 indexed tokenId, uint256 indexed formerPrice, uint256 newPrice);\r\n  event _SubmitOffer(uint256 indexed tokenId, address indexed sender, address indexed bidder, uint256 offer, bool FromCredit);\r\n  event _AcceptOffer(uint256 indexed tokenId, address indexed formerOwner, address indexed newOwner, uint256 offer);\r\n  event _RejectOffer(uint256 indexed tokenId);\r\n  event _WithdrawOffer(uint256 indexed tokenId);\r\n  \r\n\r\n  // DATA /////////////////////////////////////////\r\n  address _owner;\r\n  Library.PaymentPlans _paymentPlan;\r\n  uint256 _offersLifeTime;\r\n  uint256 _ownerTransferFeeAmount;\r\n  uint256 _ownerTransferFeeDecimals;\r\n  uint256 _issuerID;\r\n\r\n  mapping(uint256 => _tokenStruct) private _tokenInfo;\r\n  mapping(uint256 => _offerStruct) private _tokenOffer;\r\n\r\n\r\n  // MODIFIERS /////////////////////////////////////////\r\n  modifier isTheOwner(address addr){\r\n      require(_owner == addr, \"Only the Owner is allowed to do that\");\r\n      _;\r\n  }\r\n\r\n  modifier isTokenOwnerOrApproved(uint256 tokenId){\r\n      require(_isApprovedOrOwner(_msgSender(), tokenId), \"Only owner or approved can change token price\");\r\n      _;\r\n  }\r\n\r\n  modifier OfferInProgress(uint256 tokenId, bool YesOrNo){\r\n      if(YesOrNo) require(block.timestamp <= _tokenOffer[tokenId]._deadline, \"There is no offer in progress\");\r\n      else require(block.timestamp > _tokenOffer[tokenId]._deadline, \"There is an offer in progress\");\r\n      _;\r\n  }\r\n\r\n  modifier priceOK(uint256 tokenId, uint256 offer){\r\n      require(offer >= _tokenInfo[tokenId]._price, \"The offer is below the minimum price\");\r\n      _;\r\n  }\r\n\r\n  modifier validFees(uint256 fee, uint256 decimals){\r\n    Library.validFees(fee, decimals);\r\n    _;\r\n  }\r\n\r\n  // CONSTRUCTOR /////////////////////////////////////////\r\n  function NFTMarket_init(address managerContractAddress, address owner, string memory name, string memory symbol, uint256 offersLifeTime, uint256 ownerTransferFeeAmount, uint256 ownerTransferFeeDecimals, uint256 issuerID, uint8 paymentPlan) public initializer \r\n    validFees(ownerTransferFeeAmount, ownerTransferFeeDecimals)\r\n  {\r\n      super.ManagedBaseContract_init(managerContractAddress); \r\n      super.__ERC721_init(name, symbol); \r\n\r\n      _owner = owner;\r\n      _paymentPlan = Library.PaymentPlans(paymentPlan);\r\n      _offersLifeTime = offersLifeTime;\r\n      _ownerTransferFeeAmount = ownerTransferFeeAmount;\r\n      _ownerTransferFeeDecimals = ownerTransferFeeDecimals;\r\n      _issuerID = issuerID;\r\n  }\r\n\r\n  // FUNCTIONALITY /////////////////////////////////////////\r\n  function changeOwner(address newOwner) external override\r\n    isTheOwner(msg.sender)\r\n  {\r\n      emit _NewOwner(_owner, newOwner);\r\n      _owner = newOwner;\r\n  }\r\n\r\n  function changePaymentPlan(Library.PaymentPlans newPaymentPlan) external override\r\n    isTheOwner(msg.sender)\r\n  {\r\n      emit _NewPaymentPlan(_paymentPlan, newPaymentPlan);\r\n      _paymentPlan = newPaymentPlan;\r\n  }\r\n\r\n  function changeOffersLifeTime(uint256 newLifeTime) external override\r\n    isTheOwner(msg.sender)\r\n  {\r\n      emit _NewOffersLifeTime(_offersLifeTime, newLifeTime);\r\n      _offersLifeTime = newLifeTime;\r\n  }\r\n\r\n  function changeOwnerTransferFees(uint256 newAmount, uint256 newDecimals) external override\r\n    isTheOwner(msg.sender)\r\n    validFees(newAmount, newDecimals)\r\n  {\r\n      emit _NewOwnerFees(_ownerTransferFeeAmount, _ownerTransferFeeDecimals, newAmount, newDecimals);\r\n      _ownerTransferFeeAmount = newAmount;\r\n      _ownerTransferFeeDecimals = newDecimals;\r\n  }\r\n\r\n  function mintToken(uint256 tokenId, address receiver, uint256 price) external payable override\r\n    isTheOwner(msg.sender)\r\n  {\r\n      uint256 MintingFee = 0;\r\n      uint256 AdminMintingFee = 0;\r\n\r\n      if(_paymentPlan == Library.PaymentPlans.Minting)\r\n      {\r\n        uint[] memory Prices = ITreasury(_managerContract.retrieveTransparentProxies()[uint256(Library.TransparentProxies.Treasury)]).retrieveSettings();\r\n        MintingFee = Prices[uint256(Library.Prices.MintingFee)];\r\n        AdminMintingFee = Prices[uint256(Library.Prices.AdminMintingFee)];\r\n        require(msg.value >= MintingFee + AdminMintingFee, \"Minting Fees not enough\");\r\n\r\n        ItemsLibrary.TransferEtherTo(MintingFee, _managerContract.retrieveTransparentProxies()[uint256(Library.TransparentProxies.Treasury)]);\r\n        ItemsLibrary.TransferEtherTo(msg.value - MintingFee, _managerContract.retrieveTransparentProxies()[uint256(Library.TransparentProxies.AdminPiggyBank)]);\r\n      }\r\n      _safeMint(receiver, tokenId);\r\n      _tokenInfo[tokenId]._price = price;\r\n      _tokenInfo[tokenId]._paymentPlan = _paymentPlan;\r\n\r\n      emit _MintToken(tokenId, receiver, price, _paymentPlan, MintingFee, AdminMintingFee);\r\n  }\r\n\r\n  function setTokenPrice(uint256 tokenId, uint256 price) external override\r\n    isTokenOwnerOrApproved(tokenId)\r\n  {\r\n      emit _SetTokenPrice(tokenId, _tokenInfo[tokenId]._price, price);\r\n      _tokenInfo[tokenId]._price = price;\r\n  }\r\n\r\n  function acceptOffer(uint256 tokenId) external override\r\n    isTokenOwnerOrApproved(tokenId)\r\n    OfferInProgress(tokenId, true)\r\n  {\r\n    emit _AcceptOffer(tokenId, ownerOf(tokenId),  _tokenOffer[tokenId]._bidder,  _tokenOffer[tokenId]._offer);\r\n\r\n    (uint256 OwnerTransferFeeAmount, uint256 TransferFeeAmount, uint256 AdminTransferFeeAmount, uint256 commonDecimals) = getFees(tokenId);\r\n\r\n    uint256 TotalFees = OwnerTransferFeeAmount + TransferFeeAmount + AdminTransferFeeAmount;\r\n    Library.validFees(TotalFees, commonDecimals);\r\n\r\n    uint256 percentageForTokenOwner = 10**(commonDecimals + 2) - TotalFees;\r\n\r\n    _safeTransfer(ownerOf(tokenId), _tokenOffer[tokenId]._bidder, tokenId, \"\");\r\n\r\n    AllocatePercents(tokenId,\r\n      [_managerContract.retrieveTransparentProxies()[uint256(Library.TransparentProxies.Treasury)], _managerContract.retrieveTransparentProxies()[uint256(Library.TransparentProxies.AdminPiggyBank)], _owner, ownerOf(tokenId)],\r\n      [TransferFeeAmount, AdminTransferFeeAmount, OwnerTransferFeeAmount, percentageForTokenOwner],\r\n      _tokenOffer[tokenId]._offer,\r\n      commonDecimals);\r\n\r\n    removeOffer(tokenId);\r\n\r\n    IPool(_managerContract.retrieveTransparentProxies()[uint256(Library.TransparentProxies.PublicPool)]).withdrawAllFor(_issuerID,\r\n      _managerContract.retrieveTransparentProxies()[uint256(Library.TransparentProxies.Treasury)]);\r\n    IPool(_managerContract.retrieveTransparentProxies()[uint256(Library.TransparentProxies.PublicPool)]).withdrawAllFor(_issuerID,\r\n      _managerContract.retrieveTransparentProxies()[uint256(Library.TransparentProxies.AdminPiggyBank)]);\r\n  }\r\n\r\n  function getFees(uint256 tokenId) internal view returns(uint256, uint256, uint256, uint256)\r\n  {\r\n    uint256 OwnerTransferFeeAmount = _ownerTransferFeeAmount;\r\n    uint256 OwnerTransferFeeDecimals = _ownerTransferFeeDecimals;\r\n    uint256 TransferFeeAmount = 0;\r\n    uint256 TransferFeeDecimals = 0;\r\n    uint256 AdminTransferFeeAmount = 0;\r\n    uint256 AdminTransferFeeDecimals = 0;\r\n\r\n    if(Library.PaymentPlans.TransferFee == _tokenInfo[tokenId]._paymentPlan){\r\n        uint[] memory Prices = ITreasury(_managerContract.retrieveTransparentProxies()[uint256(Library.TransparentProxies.Treasury)]).retrieveSettings();\r\n        TransferFeeAmount = Prices[uint256(Library.Prices.TransferFeeAmount)];\r\n        TransferFeeDecimals = Prices[uint256(Library.Prices.TransferFeeDecimals)];\r\n        AdminTransferFeeAmount = Prices[uint256(Library.Prices.AdminTransferFeeAmount)];\r\n        AdminTransferFeeDecimals = Prices[uint256(Library.Prices.AdminTransferFeeDecimals)];\r\n    }\r\n\r\n    uint256 commonDecimals = getLargest([OwnerTransferFeeDecimals, TransferFeeDecimals, AdminTransferFeeDecimals]); \r\n    OwnerTransferFeeAmount = OwnerTransferFeeAmount * 10**(commonDecimals - OwnerTransferFeeDecimals);\r\n    TransferFeeAmount = TransferFeeAmount * 10**(commonDecimals - TransferFeeDecimals);\r\n    AdminTransferFeeAmount = AdminTransferFeeAmount * 10**(commonDecimals - AdminTransferFeeDecimals);\r\n\r\n    return(OwnerTransferFeeAmount, TransferFeeAmount, AdminTransferFeeAmount, commonDecimals);\r\n  }\r\n    \r\n  function rejectOffer(uint256 tokenId) external override\r\n    isTokenOwnerOrApproved(tokenId)\r\n    OfferInProgress(tokenId, true)\r\n  {\r\n    assignToRejectedSender(tokenId);\r\n    removeOffer(tokenId);\r\n    emit _RejectOffer(tokenId);\r\n  }\r\n\r\n  function removeOffer(uint256 tokenId) internal\r\n  {\r\n    delete(_tokenOffer[tokenId]);\r\n  }\r\n\r\n  function submitOffer(uint256 tokenId, address bidder, uint256 offer, bool FromCredit) external payable override\r\n    OfferInProgress(tokenId, false)\r\n    priceOK(tokenId, offer)\r\n  {\r\n    if(address(0) != _tokenOffer[tokenId]._sender) assignToRejectedSender(tokenId);\r\n\r\n    uint256 receivedValue = msg.value;\r\n    if(FromCredit){\r\n      if(receivedValue > 0) IPool(_managerContract.retrieveTransparentProxies()[uint256(Library.TransparentProxies.PublicPool)]).sendCredit{value:receivedValue}(msg.sender);\r\n      IPool(_managerContract.retrieveTransparentProxies()[uint256(Library.TransparentProxies.PublicPool)]).reuseCredit(_issuerID, tokenId,  msg.sender, offer);\r\n    }\r\n    else{\r\n      require(receivedValue >= offer, \"Not enough value sent to match the offer\");\r\n      IPool(_managerContract.retrieveTransparentProxies()[uint256(Library.TransparentProxies.PublicPool)]).transferUnassignedCredit{value: offer}(_issuerID, tokenId);\r\n      if(receivedValue > offer) IPool(_managerContract.retrieveTransparentProxies()[uint256(Library.TransparentProxies.PublicPool)]).sendCredit{value: (receivedValue - offer)}(msg.sender);\r\n    }\r\n\r\n    _tokenOffer[tokenId]._offer = offer;\r\n    _tokenOffer[tokenId]._sender = msg.sender;\r\n    _tokenOffer[tokenId]._bidder = bidder;\r\n    _tokenOffer[tokenId]._deadline = block.timestamp + _offersLifeTime;\r\n\r\n    emit _SubmitOffer(tokenId, msg.sender, bidder, offer, FromCredit);\r\n  }\r\n    \r\n  function withdrawOffer(uint256 tokenId) external override\r\n    OfferInProgress(tokenId, false)\r\n  {\r\n    require(msg.sender == _tokenOffer[tokenId]._sender, \"Only the original sender can withdraw the bid\");\r\n    assignToRejectedSender(tokenId);\r\n    removeOffer(tokenId);\r\n    emit _WithdrawOffer(tokenId);\r\n  }\r\n\r\n  function assignToRejectedSender(uint tokenId) internal\r\n  {\r\n    address[] memory addrs = new address[](1);\r\n    uint256[] memory amounts = new uint256[](1);\r\n    uint256[] memory factors = new uint256[](1);\r\n    addrs[0] = _tokenOffer[tokenId]._sender;\r\n    amounts[0] = _tokenOffer[tokenId]._offer;\r\n    factors[0] = 1;\r\n    IPool(_managerContract.retrieveTransparentProxies()[uint256(Library.TransparentProxies.PublicPool)]).addCredit(_issuerID, tokenId, addrs, amounts, factors);\r\n  }\r\n\r\n  function AllocatePercents(uint256 tokenId, address[4] memory destinations, uint256[4] memory percentages, uint256 offer, uint256 commonDecimals) internal\r\n  {\r\n    address[] memory addrs = new address[](2 * destinations.length);\r\n    uint256[] memory amounts = new uint256[](2 * destinations.length);\r\n    uint256[] memory factors = new uint256[](2 * destinations.length);\r\n    uint quotient = 0;\r\n    uint remainder = 0;\r\n    uint denominator = 0;\r\n    uint pos = 0;\r\n\r\n\r\n    for(uint i=0; i < destinations.length; i++){\r\n      (quotient, remainder, denominator) = CalculatePercents(offer, percentages[i], commonDecimals);\r\n      addrs[pos] = destinations[i];\r\n      amounts[pos] = quotient;\r\n      factors[pos++] = 1;\r\n      addrs[pos] = destinations[i];\r\n      amounts[pos] = remainder;\r\n      factors[pos++] = denominator;\r\n    }\r\n\r\n    IPool(_managerContract.retrieveTransparentProxies()[uint256(Library.TransparentProxies.PublicPool)]).addCredit(_issuerID, \r\n      tokenId, \r\n      addrs, \r\n      amounts, \r\n      factors);\r\n  }\r\n\r\n  function CalculatePercents(uint256 amount, uint256 percentage, uint256 decimals) internal pure returns(uint256, uint256, uint256)\r\n  {\r\n      uint256 numerator = amount * percentage;\r\n      uint256 denominator = 100 * 10**decimals;\r\n\r\n      uint256 quotient = numerator / denominator;\r\n      uint256 remainder = numerator - (quotient * denominator);\r\n\r\n      return(quotient, remainder, denominator);\r\n  }\r\n\r\n  function retrieveIssuer() external override view returns (ItemsLibrary._issuerStruct memory, uint256)\r\n  {\r\n    return(ItemsLibrary._issuerStruct(_owner, name(), symbol(), _ownerTransferFeeAmount, _ownerTransferFeeDecimals, _paymentPlan), _offersLifeTime);\r\n  }\r\n\r\n  function retrieveToken(uint256 tokenId) external override view returns (_tokenStruct memory, address)\r\n  {\r\n    return(_tokenInfo[tokenId], ownerOf(tokenId));\r\n  }\r\n\r\n  function retrieveOffer(uint256 tokenId) external override view returns (_offerStruct memory)\r\n  {\r\n      return(_tokenOffer[tokenId]);\r\n  }\r\n\r\n  function getLargest(uint256[3] memory nums) internal pure returns(uint256)\r\n  {\r\n    uint256 largest = 0;\r\n\r\n    for(uint i=0; i < nums.length; i++)\r\n    {\r\n        if(largest < nums[i])largest = nums[i];\r\n    }\r\n\r\n    return largest;\r\n  }\r\n\r\n }",
  "sourcePath": "C:\\Users\\d-aam\\GitHub\\Originals\\contracts\\MainContracts\\NFTMarket.sol",
  "compiler": {
    "name": "solc",
    "version": "0.8.7+commit.e28d00a7.Emscripten.clang"
  },
  "schemaVersion": "3.4.3",
  "updatedAt": "2022-02-07T15:18:49.124Z",
  "networkType": "ethereum",
  "devdoc": {
    "kind": "dev",
    "methods": {
      "approve(address,uint256)": {
        "details": "See {IERC721-approve}."
      },
      "balanceOf(address)": {
        "details": "See {IERC721-balanceOf}."
      },
      "getApproved(uint256)": {
        "details": "See {IERC721-getApproved}."
      },
      "isApprovedForAll(address,address)": {
        "details": "See {IERC721-isApprovedForAll}."
      },
      "name()": {
        "details": "See {IERC721Metadata-name}."
      },
      "ownerOf(uint256)": {
        "details": "See {IERC721-ownerOf}."
      },
      "safeTransferFrom(address,address,uint256)": {
        "details": "See {IERC721-safeTransferFrom}."
      },
      "safeTransferFrom(address,address,uint256,bytes)": {
        "details": "See {IERC721-safeTransferFrom}."
      },
      "setApprovalForAll(address,bool)": {
        "details": "See {IERC721-setApprovalForAll}."
      },
      "supportsInterface(bytes4)": {
        "details": "See {IERC165-supportsInterface}."
      },
      "symbol()": {
        "details": "See {IERC721Metadata-symbol}."
      },
      "tokenURI(uint256)": {
        "details": "See {IERC721Metadata-tokenURI}."
      },
      "transferFrom(address,address,uint256)": {
        "details": "See {IERC721-transferFrom}."
      }
    },
    "version": 1
  },
  "userdoc": {
    "kind": "user",
    "methods": {},
    "version": 1
  }
}