{
  "contractName": "NFTMarket",
  "abi": [
    {
      "anonymous": false,
      "inputs": [
        {
          "indexed": true,
          "internalType": "address",
          "name": "owner",
          "type": "address"
        },
        {
          "indexed": true,
          "internalType": "address",
          "name": "approved",
          "type": "address"
        },
        {
          "indexed": true,
          "internalType": "uint256",
          "name": "tokenId",
          "type": "uint256"
        }
      ],
      "name": "Approval",
      "type": "event"
    },
    {
      "anonymous": false,
      "inputs": [
        {
          "indexed": true,
          "internalType": "address",
          "name": "owner",
          "type": "address"
        },
        {
          "indexed": true,
          "internalType": "address",
          "name": "operator",
          "type": "address"
        },
        {
          "indexed": false,
          "internalType": "bool",
          "name": "approved",
          "type": "bool"
        }
      ],
      "name": "ApprovalForAll",
      "type": "event"
    },
    {
      "anonymous": false,
      "inputs": [
        {
          "indexed": true,
          "internalType": "address",
          "name": "from",
          "type": "address"
        },
        {
          "indexed": true,
          "internalType": "address",
          "name": "to",
          "type": "address"
        },
        {
          "indexed": true,
          "internalType": "uint256",
          "name": "tokenId",
          "type": "uint256"
        }
      ],
      "name": "Transfer",
      "type": "event"
    },
    {
      "anonymous": false,
      "inputs": [
        {
          "indexed": true,
          "internalType": "uint256",
          "name": "tokenId",
          "type": "uint256"
        },
        {
          "indexed": true,
          "internalType": "address",
          "name": "formerOwner",
          "type": "address"
        },
        {
          "indexed": true,
          "internalType": "address",
          "name": "newOwner",
          "type": "address"
        },
        {
          "indexed": false,
          "internalType": "uint256",
          "name": "offer",
          "type": "uint256"
        },
        {
          "indexed": false,
          "internalType": "uint256",
          "name": "paymentTokenID",
          "type": "uint256"
        }
      ],
      "name": "_AcceptOffer",
      "type": "event"
    },
    {
      "anonymous": false,
      "inputs": [
        {
          "indexed": true,
          "internalType": "uint256",
          "name": "tokenId",
          "type": "uint256"
        },
        {
          "indexed": false,
          "internalType": "address",
          "name": "receiver",
          "type": "address"
        },
        {
          "indexed": false,
          "internalType": "uint256[]",
          "name": "prices",
          "type": "uint256[]"
        },
        {
          "indexed": false,
          "internalType": "enum Library.PaymentPlans",
          "name": "plan",
          "type": "uint8"
        },
        {
          "indexed": false,
          "internalType": "uint256",
          "name": "MintingFee",
          "type": "uint256"
        },
        {
          "indexed": false,
          "internalType": "uint256",
          "name": "AdminMintingFee",
          "type": "uint256"
        }
      ],
      "name": "_MintToken",
      "type": "event"
    },
    {
      "anonymous": false,
      "inputs": [
        {
          "indexed": true,
          "internalType": "uint256",
          "name": "formerLifeTime",
          "type": "uint256"
        },
        {
          "indexed": false,
          "internalType": "uint256",
          "name": "newLifeTime",
          "type": "uint256"
        }
      ],
      "name": "_NewOffersLifeTime",
      "type": "event"
    },
    {
      "anonymous": false,
      "inputs": [
        {
          "indexed": true,
          "internalType": "address",
          "name": "formerOwner",
          "type": "address"
        },
        {
          "indexed": false,
          "internalType": "address",
          "name": "newOwner",
          "type": "address"
        }
      ],
      "name": "_NewOwner",
      "type": "event"
    },
    {
      "anonymous": false,
      "inputs": [
        {
          "indexed": true,
          "internalType": "uint256",
          "name": "formerAmount",
          "type": "uint256"
        },
        {
          "indexed": true,
          "internalType": "uint256",
          "name": "formerDecimals",
          "type": "uint256"
        },
        {
          "indexed": false,
          "internalType": "uint256",
          "name": "newAmount",
          "type": "uint256"
        },
        {
          "indexed": false,
          "internalType": "uint256",
          "name": "newDecimals",
          "type": "uint256"
        }
      ],
      "name": "_NewOwnerFees",
      "type": "event"
    },
    {
      "anonymous": false,
      "inputs": [
        {
          "indexed": false,
          "internalType": "enum Library.PaymentPlans",
          "name": "formerPlan",
          "type": "uint8"
        },
        {
          "indexed": false,
          "internalType": "enum Library.PaymentPlans",
          "name": "newPlan",
          "type": "uint8"
        }
      ],
      "name": "_NewPaymentPlan",
      "type": "event"
    },
    {
      "anonymous": false,
      "inputs": [
        {
          "indexed": true,
          "internalType": "uint256",
          "name": "tokenId",
          "type": "uint256"
        }
      ],
      "name": "_RejectOffer",
      "type": "event"
    },
    {
      "anonymous": false,
      "inputs": [
        {
          "indexed": true,
          "internalType": "uint256",
          "name": "tokenId",
          "type": "uint256"
        },
        {
          "indexed": false,
          "internalType": "uint256[]",
          "name": "formerPrices",
          "type": "uint256[]"
        },
        {
          "indexed": false,
          "internalType": "uint256[]",
          "name": "newPrices",
          "type": "uint256[]"
        }
      ],
      "name": "_SetTokenPrice",
      "type": "event"
    },
    {
      "anonymous": false,
      "inputs": [
        {
          "indexed": true,
          "internalType": "uint256",
          "name": "tokenId",
          "type": "uint256"
        },
        {
          "indexed": true,
          "internalType": "address",
          "name": "sender",
          "type": "address"
        },
        {
          "indexed": true,
          "internalType": "address",
          "name": "bidder",
          "type": "address"
        },
        {
          "indexed": false,
          "internalType": "uint256",
          "name": "offer",
          "type": "uint256"
        },
        {
          "indexed": false,
          "internalType": "bool",
          "name": "FromCredit",
          "type": "bool"
        },
        {
          "indexed": false,
          "internalType": "uint256",
          "name": "paymentTokenID",
          "type": "uint256"
        }
      ],
      "name": "_SubmitOffer",
      "type": "event"
    },
    {
      "anonymous": false,
      "inputs": [
        {
          "indexed": true,
          "internalType": "uint256",
          "name": "tokenId",
          "type": "uint256"
        }
      ],
      "name": "_WithdrawOffer",
      "type": "event"
    },
    {
      "inputs": [
        {
          "internalType": "address",
          "name": "to",
          "type": "address"
        },
        {
          "internalType": "uint256",
          "name": "tokenId",
          "type": "uint256"
        }
      ],
      "name": "approve",
      "outputs": [],
      "stateMutability": "nonpayable",
      "type": "function"
    },
    {
      "inputs": [
        {
          "internalType": "address",
          "name": "owner",
          "type": "address"
        }
      ],
      "name": "balanceOf",
      "outputs": [
        {
          "internalType": "uint256",
          "name": "",
          "type": "uint256"
        }
      ],
      "stateMutability": "view",
      "type": "function"
    },
    {
      "inputs": [
        {
          "internalType": "uint256",
          "name": "tokenId",
          "type": "uint256"
        }
      ],
      "name": "getApproved",
      "outputs": [
        {
          "internalType": "address",
          "name": "",
          "type": "address"
        }
      ],
      "stateMutability": "view",
      "type": "function"
    },
    {
      "inputs": [
        {
          "internalType": "address",
          "name": "owner",
          "type": "address"
        },
        {
          "internalType": "address",
          "name": "operator",
          "type": "address"
        }
      ],
      "name": "isApprovedForAll",
      "outputs": [
        {
          "internalType": "bool",
          "name": "",
          "type": "bool"
        }
      ],
      "stateMutability": "view",
      "type": "function"
    },
    {
      "inputs": [],
      "name": "name",
      "outputs": [
        {
          "internalType": "string",
          "name": "",
          "type": "string"
        }
      ],
      "stateMutability": "view",
      "type": "function"
    },
    {
      "inputs": [
        {
          "internalType": "uint256",
          "name": "tokenId",
          "type": "uint256"
        }
      ],
      "name": "ownerOf",
      "outputs": [
        {
          "internalType": "address",
          "name": "",
          "type": "address"
        }
      ],
      "stateMutability": "view",
      "type": "function"
    },
    {
      "inputs": [],
      "name": "retrieveManagerContract",
      "outputs": [
        {
          "internalType": "address",
          "name": "",
          "type": "address"
        }
      ],
      "stateMutability": "view",
      "type": "function"
    },
    {
      "inputs": [
        {
          "internalType": "address",
          "name": "from",
          "type": "address"
        },
        {
          "internalType": "address",
          "name": "to",
          "type": "address"
        },
        {
          "internalType": "uint256",
          "name": "tokenId",
          "type": "uint256"
        }
      ],
      "name": "safeTransferFrom",
      "outputs": [],
      "stateMutability": "nonpayable",
      "type": "function"
    },
    {
      "inputs": [
        {
          "internalType": "address",
          "name": "from",
          "type": "address"
        },
        {
          "internalType": "address",
          "name": "to",
          "type": "address"
        },
        {
          "internalType": "uint256",
          "name": "tokenId",
          "type": "uint256"
        },
        {
          "internalType": "bytes",
          "name": "_data",
          "type": "bytes"
        }
      ],
      "name": "safeTransferFrom",
      "outputs": [],
      "stateMutability": "nonpayable",
      "type": "function"
    },
    {
      "inputs": [
        {
          "internalType": "address",
          "name": "operator",
          "type": "address"
        },
        {
          "internalType": "bool",
          "name": "approved",
          "type": "bool"
        }
      ],
      "name": "setApprovalForAll",
      "outputs": [],
      "stateMutability": "nonpayable",
      "type": "function"
    },
    {
      "inputs": [
        {
          "internalType": "bytes4",
          "name": "interfaceId",
          "type": "bytes4"
        }
      ],
      "name": "supportsInterface",
      "outputs": [
        {
          "internalType": "bool",
          "name": "",
          "type": "bool"
        }
      ],
      "stateMutability": "view",
      "type": "function"
    },
    {
      "inputs": [],
      "name": "symbol",
      "outputs": [
        {
          "internalType": "string",
          "name": "",
          "type": "string"
        }
      ],
      "stateMutability": "view",
      "type": "function"
    },
    {
      "inputs": [
        {
          "internalType": "uint256",
          "name": "tokenId",
          "type": "uint256"
        }
      ],
      "name": "tokenURI",
      "outputs": [
        {
          "internalType": "string",
          "name": "",
          "type": "string"
        }
      ],
      "stateMutability": "view",
      "type": "function"
    },
    {
      "inputs": [
        {
          "internalType": "address",
          "name": "from",
          "type": "address"
        },
        {
          "internalType": "address",
          "name": "to",
          "type": "address"
        },
        {
          "internalType": "uint256",
          "name": "tokenId",
          "type": "uint256"
        }
      ],
      "name": "transferFrom",
      "outputs": [],
      "stateMutability": "nonpayable",
      "type": "function"
    },
    {
      "inputs": [
        {
          "internalType": "address",
          "name": "managerContractAddress",
          "type": "address"
        },
        {
          "internalType": "address",
          "name": "owner",
          "type": "address"
        },
        {
          "internalType": "string",
          "name": "name",
          "type": "string"
        },
        {
          "internalType": "string",
          "name": "symbol",
          "type": "string"
        },
        {
          "internalType": "uint256",
          "name": "offersLifeTime",
          "type": "uint256"
        },
        {
          "internalType": "uint256",
          "name": "ownerTransferFeeAmount",
          "type": "uint256"
        },
        {
          "internalType": "uint256",
          "name": "ownerTransferFeeDecimals",
          "type": "uint256"
        },
        {
          "internalType": "uint256",
          "name": "issuerID",
          "type": "uint256"
        },
        {
          "internalType": "uint8",
          "name": "paymentPlan",
          "type": "uint8"
        }
      ],
      "name": "NFTMarket_init",
      "outputs": [],
      "stateMutability": "nonpayable",
      "type": "function"
    },
    {
      "inputs": [
        {
          "internalType": "address",
          "name": "newOwner",
          "type": "address"
        }
      ],
      "name": "changeOwner",
      "outputs": [],
      "stateMutability": "nonpayable",
      "type": "function"
    },
    {
      "inputs": [
        {
          "internalType": "enum Library.PaymentPlans",
          "name": "newPaymentPlan",
          "type": "uint8"
        }
      ],
      "name": "changePaymentPlan",
      "outputs": [],
      "stateMutability": "nonpayable",
      "type": "function"
    },
    {
      "inputs": [
        {
          "internalType": "uint256",
          "name": "newLifeTime",
          "type": "uint256"
        }
      ],
      "name": "changeOffersLifeTime",
      "outputs": [],
      "stateMutability": "nonpayable",
      "type": "function"
    },
    {
      "inputs": [
        {
          "internalType": "uint256",
          "name": "newAmount",
          "type": "uint256"
        },
        {
          "internalType": "uint256",
          "name": "newDecimals",
          "type": "uint256"
        }
      ],
      "name": "changeOwnerTransferFees",
      "outputs": [],
      "stateMutability": "nonpayable",
      "type": "function"
    },
    {
      "inputs": [
        {
          "internalType": "uint256",
          "name": "tokenId",
          "type": "uint256"
        },
        {
          "internalType": "address",
          "name": "receiver",
          "type": "address"
        },
        {
          "internalType": "uint256[]",
          "name": "prices",
          "type": "uint256[]"
        },
        {
          "internalType": "bool",
          "name": "FromCredit",
          "type": "bool"
        },
        {
          "internalType": "uint256",
          "name": "paymentTokenID",
          "type": "uint256"
        }
      ],
      "name": "mintToken",
      "outputs": [],
      "stateMutability": "nonpayable",
      "type": "function"
    },
    {
      "inputs": [
        {
          "internalType": "uint256",
          "name": "tokenId",
          "type": "uint256"
        },
        {
          "internalType": "uint256[]",
          "name": "prices",
          "type": "uint256[]"
        }
      ],
      "name": "setTokenPrice",
      "outputs": [],
      "stateMutability": "nonpayable",
      "type": "function"
    },
    {
      "inputs": [
        {
          "internalType": "uint256",
          "name": "tokenId",
          "type": "uint256"
        }
      ],
      "name": "acceptOffer",
      "outputs": [],
      "stateMutability": "nonpayable",
      "type": "function"
    },
    {
      "inputs": [
        {
          "internalType": "uint256",
          "name": "tokenId",
          "type": "uint256"
        }
      ],
      "name": "rejectOffer",
      "outputs": [],
      "stateMutability": "nonpayable",
      "type": "function"
    },
    {
      "inputs": [
        {
          "internalType": "uint256",
          "name": "tokenId",
          "type": "uint256"
        },
        {
          "internalType": "address",
          "name": "bidder",
          "type": "address"
        },
        {
          "internalType": "uint256",
          "name": "offer",
          "type": "uint256"
        },
        {
          "internalType": "bool",
          "name": "FromCredit",
          "type": "bool"
        },
        {
          "internalType": "uint256",
          "name": "paymentTokenID",
          "type": "uint256"
        }
      ],
      "name": "submitOffer",
      "outputs": [],
      "stateMutability": "nonpayable",
      "type": "function"
    },
    {
      "inputs": [
        {
          "internalType": "uint256",
          "name": "tokenId",
          "type": "uint256"
        }
      ],
      "name": "withdrawOffer",
      "outputs": [],
      "stateMutability": "nonpayable",
      "type": "function"
    },
    {
      "inputs": [],
      "name": "retrieveIssuer",
      "outputs": [
        {
          "components": [
            {
              "internalType": "address",
              "name": "_owner",
              "type": "address"
            },
            {
              "internalType": "string",
              "name": "_name",
              "type": "string"
            },
            {
              "internalType": "string",
              "name": "_symbol",
              "type": "string"
            },
            {
              "internalType": "uint256",
              "name": "_feeAmount",
              "type": "uint256"
            },
            {
              "internalType": "uint256",
              "name": "_feeDecimals",
              "type": "uint256"
            },
            {
              "internalType": "enum Library.PaymentPlans",
              "name": "_paymentPlan",
              "type": "uint8"
            }
          ],
          "internalType": "struct ItemsLibrary._issuerStruct",
          "name": "",
          "type": "tuple"
        },
        {
          "internalType": "uint256",
          "name": "",
          "type": "uint256"
        }
      ],
      "stateMutability": "view",
      "type": "function"
    },
    {
      "inputs": [
        {
          "internalType": "uint256",
          "name": "tokenId",
          "type": "uint256"
        }
      ],
      "name": "retrieveToken",
      "outputs": [
        {
          "components": [
            {
              "internalType": "enum Library.PaymentPlans",
              "name": "_paymentPlan",
              "type": "uint8"
            },
            {
              "internalType": "uint256[]",
              "name": "_prices",
              "type": "uint256[]"
            }
          ],
          "internalType": "struct INFTMarket._tokenStruct",
          "name": "",
          "type": "tuple"
        },
        {
          "internalType": "address",
          "name": "",
          "type": "address"
        }
      ],
      "stateMutability": "view",
      "type": "function"
    },
    {
      "inputs": [
        {
          "internalType": "uint256",
          "name": "tokenId",
          "type": "uint256"
        }
      ],
      "name": "retrieveOffer",
      "outputs": [
        {
          "components": [
            {
              "internalType": "uint256",
              "name": "_offer",
              "type": "uint256"
            },
            {
              "internalType": "uint256",
              "name": "_paymentTokenID",
              "type": "uint256"
            },
            {
              "internalType": "address",
              "name": "_sender",
              "type": "address"
            },
            {
              "internalType": "address",
              "name": "_bidder",
              "type": "address"
            },
            {
              "internalType": "uint256",
              "name": "_deadline",
              "type": "uint256"
            }
          ],
          "internalType": "struct INFTMarket._offerStruct",
          "name": "",
          "type": "tuple"
        }
      ],
      "stateMutability": "view",
      "type": "function"
    }
  ],
  "bytecode": "0x608060405234801561001057600080fd5b50614cae806100206000396000f3fe608060405234801561001057600080fd5b50600436106101545760003560e01c806301ffc9a71461015957806306fdde0314610181578063081812fc14610196578063095ea7b3146101b657806323b872dd146101cb57806342842e0e146101de57806346aeda50146101f15780635542f680146102045780635b362e84146102255780636352211e1461023c5780636dfe83461461024f57806370a08231146102625780638610f0451461028357806388b10c751461029657806393f82e16146102a957806395d89b41146102bc57806398a7541d146102c45780639d16764f146102d7578063a22cb465146102ea578063a6f9dae1146102fd578063aa91855014610310578063af48907a14610323578063b88d4fde14610336578063c815729d14610349578063c87b56dd1461035c578063ca25f9e41461036f578063cf0ba57514610385578063e985e9c5146103e6575b600080fd5b61016c610167366004614103565b6103f9565b60405190151581526020015b60405180910390f35b61018961044b565b6040516101789190614555565b6101a96101a43660046141d4565b6104dd565b60405161017891906143bd565b6101c96101c4366004613f0d565b61056a565b005b6101c96101d9366004613e18565b61067b565b6101c96101ec366004613e18565b6106ad565b6101c96101ff36600461425e565b6106c8565b6102176102123660046141d4565b610df9565b60405161017892919061482b565b6000546201000090046001600160a01b03166101a9565b6101a961024a3660046141d4565b610ec1565b6101c961025d36600461429d565b610f38565b610275610270366004613d02565b610fd8565b604051908152602001610178565b6101c96102913660046141d4565b61105f565b6101c96102a43660046141d4565b611152565b6101c96102b73660046141b3565b6111ef565b610189611291565b6101c96102d2366004613d58565b6112a0565b6101c96102e53660046141d4565b611406565b6101c96102f8366004613ed8565b61146e565b6101c961030b366004613d02565b61147d565b6101c961031e3660046142e3565b611513565b6101c96103313660046141ed565b6115f7565b6101c9610344366004613e59565b611ef2565b6101c96103573660046141d4565b611f24565b61018961036a3660046141d4565b612694565b61037761276c565b6040516101789291906147a3565b6103986103933660046141d4565b6127ed565b604051610178919081518152602080830151908201526040808301516001600160a01b0390811691830191909152606080840151909116908201526080918201519181019190915260a00190565b61016c6103f4366004613d1f565b61288e565b60006001600160e01b031982166380ac58cd60e01b148061042a57506001600160e01b03198216635b5e139f60e01b145b8061044557506301ffc9a760e01b6001600160e01b03198316145b92915050565b60606065805461045a90614b52565b80601f016020809104026020016040519081016040528092919081815260200182805461048690614b52565b80156104d35780601f106104a8576101008083540402835291602001916104d3565b820191906000526020600020905b8154815290600101906020018083116104b657829003601f168201915b5050505050905090565b60006104e8826128bc565b61054e5760405162461bcd60e51b815260206004820152602c60248201527f4552433732313a20617070726f76656420717565727920666f72206e6f6e657860448201526b34b9ba32b73a103a37b5b2b760a11b60648201526084015b60405180910390fd5b506000908152606960205260409020546001600160a01b031690565b600061057582610ec1565b9050806001600160a01b0316836001600160a01b031614156105e35760405162461bcd60e51b815260206004820152602160248201527f4552433732313a20617070726f76616c20746f2063757272656e74206f776e656044820152603960f91b6064820152608401610545565b336001600160a01b03821614806105ff57506105ff813361288e565b61066c5760405162461bcd60e51b815260206004820152603860248201527f4552433732313a20617070726f76652063616c6c6572206973206e6f74206f776044820152771b995c881b9bdc88185c1c1c9bdd995908199bdc88185b1b60421b6064820152608401610545565b61067683836128d9565b505050565b610686335b82612947565b6106a25760405162461bcd60e51b8152600401610545906146d0565b610676838383612a11565b61067683838360405180602001604052806000815250611ef2565b84600080828152609d602052604090206004015442116106fa5760405162461bcd60e51b8152600401610545906145fe565b868584609c6000848152602001908152602001600020600101818154811061072457610724614bfe565b906000526020600020015482101561078a5760405162461bcd60e51b8152602060048201526024808201527f546865206f666665722069732062656c6f7720746865206d696e696d756d20706044820152637269636560e01b6064820152608401610545565b60008a8152609d60205260409020600201546001600160a01b0316156107b3576107b38a612b9f565b86156108df57600060029054906101000a90046001600160a01b03166001600160a01b031663e220ad956040518163ffffffff1660e01b815260040160006040518083038186803b15801561080757600080fd5b505afa15801561081b573d6000803e3d6000fd5b505050506040513d6000823e601f3d908101601f191682016040526108439190810190613f39565b60018151811061085557610855614bfe565b6020908102919091010151609b5460405163a67a1e3760e01b81526004810191909152602481018c9052336044820152606481018a9052608481018890526001600160a01b039091169063a67a1e379060a401600060405180830381600087803b1580156108c257600080fd5b505af11580156108d6573d6000803e3d6000fd5b50505050610d31565b60408051600380825260808201909252600091602082016060803683375050604051631635719760e31b81526001600482015291925073__UintLibrary___________________________9163b1ab8cb8915060240160206040518083038186803b15801561094d57600080fd5b505af4158015610961573d6000803e3d6000fd5b505050506040513d601f19601f8201168201806040525081019061098591906140ea565b8160008151811061099857610998614bfe565b6020908102919091010152609b54604051631635719760e31b8152600481019190915273__UintLibrary___________________________9063b1ab8cb89060240160206040518083038186803b1580156109f257600080fd5b505af4158015610a06573d6000803e3d6000fd5b505050506040513d601f19601f82011682018060405250810190610a2a91906140ea565b81600181518110610a3d57610a3d614bfe565b6020908102919091010152604051631635719760e31b8152600481018c905273__UintLibrary___________________________9063b1ab8cb89060240160206040518083038186803b158015610a9357600080fd5b505af4158015610aa7573d6000803e3d6000fd5b505050506040513d601f19601f82011682018060405250810190610acb91906140ea565b81600281518110610ade57610ade614bfe565b6020908102919091010152604051632431a7cf60e01b815260009073__Library_______________________________90632431a7cf90610b239085906004016144a1565b60006040518083038186803b158015610b3b57600080fd5b505af4158015610b4f573d6000803e3d6000fd5b505050506040513d6000823e601f3d908101601f19168201604052610b77919081019061413d565b905060008060029054906101000a90046001600160a01b03166001600160a01b031663e220ad956040518163ffffffff1660e01b815260040160006040518083038186803b158015610bc857600080fd5b505afa158015610bdc573d6000803e3d6000fd5b505050506040513d6000823e601f3d908101601f19168201604052610c049190810190613f39565b600681518110610c1657610c16614bfe565b60200260200101519050806001600160a01b0316632c2ec26833600060029054906101000a90046001600160a01b03166001600160a01b031663e220ad956040518163ffffffff1660e01b815260040160006040518083038186803b158015610c7e57600080fd5b505afa158015610c92573d6000803e3d6000fd5b505050506040513d6000823e601f3d908101601f19168201604052610cba9190810190613f39565b600181518110610ccc57610ccc614bfe565b60200260200101518e609b54878f6040518763ffffffff1660e01b8152600401610cfb9695949392919061440e565b600060405180830381600087803b158015610d1557600080fd5b505af1158015610d29573d6000803e3d6000fd5b505050505050505b60008a8152609d6020526040902088815560018101879055600281018054336001600160a01b031991821617909155600390910180549091166001600160a01b038b16179055609854610d8490426149d9565b60008b8152609d60209081526040918290206004019290925580518a81528915159281019290925281018790526001600160a01b038a169033908c907fb177ff4fc6c3e39d255057b0b848553134c794582cc33ad181bf9ce5ba6a420d9060600160405180910390a450505050505050505050565b6040805180820190915260008152606060208201526000828152609c60205260408120610e2584610ec1565b6040805180820190915282548390829060ff166001811115610e4957610e49614be8565b6001811115610e5a57610e5a614be8565b815260200160018201805480602002602001604051908101604052809291908181526020018280548015610ead57602002820191906000526020600020905b815481526020019060010190808311610e99575b505050505081525050915091509150915091565b6000818152606760205260408120546001600160a01b0316806104455760405162461bcd60e51b815260206004820152602960248201527f4552433732313a206f776e657220717565727920666f72206e6f6e657869737460448201526832b73a103a37b5b2b760b91b6064820152608401610545565b81610f4233610680565b610f5e5760405162461bcd60e51b815260040161054590614683565b827f23c808a384b08b07c6dec68cc81c9add771fa6043e5e089e62a712f5333b11e9609c600086815260200190815260200160002060010184604051610fa59291906144e5565b60405180910390a26000838152609c602090815260409091208351610fd292600190920191850190613aef565b50505050565b60006001600160a01b0382166110435760405162461bcd60e51b815260206004820152602a60248201527f4552433732313a2062616c616e636520717565727920666f7220746865207a65604482015269726f206164647265737360b01b6064820152608401610545565b506001600160a01b031660009081526068602052604090205490565b80600080828152609d602052604090206004015442116110915760405162461bcd60e51b8152600401610545906145fe565b6000838152609d60205260409020600201546001600160a01b031633146111105760405162461bcd60e51b815260206004820152602d60248201527f4f6e6c7920746865206f726967696e616c2073656e6465722063616e2077697460448201526c1a191c985dc81d1a1948189a59609a1b6064820152608401610545565b61111983612b9f565b61112283612daa565b60405183907f94b71a540d883ff6ff22bd47377cfb303fb9e624812d909e0f04198e606b37df90600090a2505050565b8061115c33610680565b6111785760405162461bcd60e51b815260040161054590614683565b8160016000828152609d60205260409020600401544211156111ac5760405162461bcd60e51b815260040161054590614721565b6111b584612b9f565b6111be84612daa565b60405184907f8066a8132ff25ec62d01ed52cd55ddbae09c3c3e07e29d7c3de2ab2f44312aa390600090a250505050565b60975433906001600160a01b0316811461121b5760405162461bcd60e51b815260040161054590614568565b7f0f6280276bfde6f31b6ca64ae1d1b7443f954a37caad3b1504f361841ec93e39609760149054906101000a900460ff168360405161125b92919061453a565b60405180910390a16097805483919060ff60a01b1916600160a01b83600181111561128857611288614be8565b02179055505050565b60606066805461045a90614b52565b600054610100900460ff166112bb5760005460ff16156112bf565b303b155b6112db5760405162461bcd60e51b815260040161054590614635565b600054610100900460ff161580156112fd576000805461ffff19166101011790555b848473__Library_______________________________63bdbff48783836040518363ffffffff1660e01b81526004016113389291906148cb565b60006040518083038186803b15801561135057600080fd5b505af4158015611364573d6000803e3d6000fd5b505050506113718c612de8565b61137b8a8a612e7c565b609780546001600160a01b0319166001600160a01b038d1617905560ff841660018111156113ab576113ab614be8565b6097805460ff60a01b1916600160a01b8360018111156113cd576113cd614be8565b0217905550505060988690556099859055609a849055609b83905580156113fa576000805461ff00191690555b50505050505050505050565b60975433906001600160a01b031681146114325760405162461bcd60e51b815260040161054590614568565b6098546040518381527ff3c2669e9a3f991cccc770ce527bedc7455f04ceb7e85ab4a76010664264a5a89060200160405180910390a250609855565b611479338383612ebd565b5050565b60975433906001600160a01b031681146114a95760405162461bcd60e51b815260040161054590614568565b6097546040516001600160a01b03909116907f8ed2cc08e61acbfdbcf3b71ad64556a3bf3968c3eb0f63e668fa50743e2db37c906114e89085906143bd565b60405180910390a250609780546001600160a01b0319166001600160a01b0392909216919091179055565b60975433906001600160a01b0316811461153f5760405162461bcd60e51b815260040161054590614568565b828273__Library_______________________________63bdbff48783836040518363ffffffff1660e01b815260040161157a9291906148cb565b60006040518083038186803b15801561159257600080fd5b505af41580156115a6573d6000803e3d6000fd5b50505050609a546099547f66b7f276cd6890c8ca84d869084baa18448ac900272b64d7ba639478f0afbcd887876040516115e19291906148cb565b60405180910390a3505050609991909155609a55565b60975433906001600160a01b031681146116235760405162461bcd60e51b815260040161054590614568565b60008080609754600160a01b900460ff16600181111561164557611645614be8565b1415611e2f5760008060029054906101000a90046001600160a01b03166001600160a01b031663e220ad956040518163ffffffff1660e01b815260040160006040518083038186803b15801561169a57600080fd5b505afa1580156116ae573d6000803e3d6000fd5b505050506040513d6000823e601f3d908101601f191682016040526116d69190810190613f39565b6002815181106116e8576116e8614bfe565b60200260200101516001600160a01b031663b049473f6040518163ffffffff1660e01b815260040160006040518083038186803b15801561172857600080fd5b505afa15801561173c573d6000803e3d6000fd5b505050506040513d6000823e601f3d908101601f191682016040526117649190810190613fd9565b90508060028151811061177957611779614bfe565b602002602001015160008151811061179357611793614bfe565b6020026020010151925080600360088111156117b1576117b1614be8565b815181106117c1576117c1614bfe565b60200260200101516000815181106117db576117db614bfe565b602002602001015191508515611b4c57600060029054906101000a90046001600160a01b03166001600160a01b031663e220ad956040518163ffffffff1660e01b815260040160006040518083038186803b15801561183957600080fd5b505afa15801561184d573d6000803e3d6000fd5b505050506040513d6000823e601f3d908101601f191682016040526118759190810190613f39565b60018151811061188757611887614bfe565b60200260200101516001600160a01b03166304226b88609b543386600060029054906101000a90046001600160a01b03166001600160a01b031663e220ad956040518163ffffffff1660e01b815260040160006040518083038186803b1580156118f057600080fd5b505afa158015611904573d6000803e3d6000fd5b505050506040513d6000823e601f3d908101601f1916820160405261192c9190810190613f39565b60028151811061193e5761193e614bfe565b60200260200101518a6040518663ffffffff1660e01b8152600401611967959493929190614870565b600060405180830381600087803b15801561198157600080fd5b505af1158015611995573d6000803e3d6000fd5b50505050600060029054906101000a90046001600160a01b03166001600160a01b031663e220ad956040518163ffffffff1660e01b815260040160006040518083038186803b1580156119e757600080fd5b505afa1580156119fb573d6000803e3d6000fd5b505050506040513d6000823e601f3d908101601f19168201604052611a239190810190613f39565b600181518110611a3557611a35614bfe565b60200260200101516001600160a01b03166304226b88609b543385600060029054906101000a90046001600160a01b03166001600160a01b031663e220ad956040518163ffffffff1660e01b815260040160006040518083038186803b158015611a9e57600080fd5b505afa158015611ab2573d6000803e3d6000fd5b505050506040513d6000823e601f3d908101601f19168201604052611ada9190810190613f39565b600581518110611aec57611aec614bfe565b60200260200101518a6040518663ffffffff1660e01b8152600401611b15959493929190614870565b600060405180830381600087803b158015611b2f57600080fd5b505af1158015611b43573d6000803e3d6000fd5b50505050611e2d565b60008060029054906101000a90046001600160a01b03166001600160a01b031663e220ad956040518163ffffffff1660e01b815260040160006040518083038186803b158015611b9b57600080fd5b505afa158015611baf573d6000803e3d6000fd5b505050506040513d6000823e601f3d908101601f19168201604052611bd79190810190613f39565b600681518110611be957611be9614bfe565b60200260200101519050806001600160a01b0316632c2ec26833600060029054906101000a90046001600160a01b03166001600160a01b031663e220ad956040518163ffffffff1660e01b815260040160006040518083038186803b158015611c5157600080fd5b505afa158015611c65573d6000803e3d6000fd5b505050506040513d6000823e601f3d908101601f19168201604052611c8d9190810190613f39565b600281518110611c9f57611c9f614bfe565b602002602001015187609b54604051806020016040528060008152508c6040518763ffffffff1660e01b8152600401611cdd9695949392919061440e565b600060405180830381600087803b158015611cf757600080fd5b505af1158015611d0b573d6000803e3d6000fd5b50505050806001600160a01b0316632c2ec26833600060029054906101000a90046001600160a01b03166001600160a01b031663e220ad956040518163ffffffff1660e01b815260040160006040518083038186803b158015611d6d57600080fd5b505afa158015611d81573d6000803e3d6000fd5b505050506040513d6000823e601f3d908101601f19168201604052611da99190810190613f39565b600581518110611dbb57611dbb614bfe565b602002602001015186609b54604051806020016040528060008152508c6040518763ffffffff1660e01b8152600401611df99695949392919061440e565b600060405180830381600087803b158015611e1357600080fd5b505af1158015611e27573d6000803e3d6000fd5b50505050505b505b611e398789612f88565b6000888152609c602090815260409091208751611e5e92600190920191890190613aef565b506097546000898152609c602052604090208054600160a01b90920460ff169160ff191660018381811115611e9557611e95614be8565b021790555060975460405189917f23696c9835867c8684a30cb187014c8532259cbdf78f056d8fbf0c5085bbd29a91611ee0918b918b91600160a01b900460ff16908890889061445b565b60405180910390a25050505050505050565b611efc3383612947565b611f185760405162461bcd60e51b8152600401610545906146d0565b610fd284848484612fa2565b80611f2e33610680565b611f4a5760405162461bcd60e51b815260040161054590614683565b8160016000828152609d6020526040902060040154421115611f7e5760405162461bcd60e51b815260040161054590614721565b6000848152609d60205260409020600301546001600160a01b0316611fa285610ec1565b6000868152609d602052604090819020805460019091015491516001600160a01b03939093169288927f93613c8ef079eb86315ad3a9e0cdf8e9dd142d6bfe0f2dc7e448da0608fdecaf92611ff9929091906148cb565b60405180910390a460008060008061201088612fd5565b9350935093509350600082848661202791906149d9565b61203191906149d9565b60405163bdbff48760e01b815290915073__Library_______________________________9063bdbff4879061206d90849086906004016148cb565b60006040518083038186803b15801561208557600080fd5b505af4158015612099573d6000803e3d6000fd5b505050506000818360026120ad91906149d9565b6120b890600a614a48565b6120c29190614b0f565b90506121036120d08b610ec1565b60008c8152609d602090815260408083206003015481519283019091529181526001600160a01b03909116908d90612fa2565b6122e98a6040518060800160405280600060029054906101000a90046001600160a01b03166001600160a01b031663e220ad956040518163ffffffff1660e01b815260040160006040518083038186803b15801561216057600080fd5b505afa158015612174573d6000803e3d6000fd5b505050506040513d6000823e601f3d908101601f1916820160405261219c9190810190613f39565b6002815181106121ae576121ae614bfe565b60200260200101516001600160a01b03166001600160a01b03168152602001600060029054906101000a90046001600160a01b03166001600160a01b031663e220ad956040518163ffffffff1660e01b815260040160006040518083038186803b15801561221b57600080fd5b505afa15801561222f573d6000803e3d6000fd5b505050506040513d6000823e601f3d908101601f191682016040526122579190810190613f39565b60058151811061226957612269614bfe565b6020908102919091018101516001600160a01b03908116835260975416908201526040016122968e610ec1565b6001600160a01b03166001600160a01b031681525060405180608001604052808981526020018881526020018a815260200185815250609d60008f815260200190815260200160002060000154876132e1565b6122f28a612daa565b600060029054906101000a90046001600160a01b03166001600160a01b031663e220ad956040518163ffffffff1660e01b815260040160006040518083038186803b15801561234057600080fd5b505afa158015612354573d6000803e3d6000fd5b505050506040513d6000823e601f3d908101601f1916820160405261237c9190810190613f39565b60018151811061238e5761238e614bfe565b60200260200101516001600160a01b031663a37b58d5609b54600060029054906101000a90046001600160a01b03166001600160a01b031663e220ad956040518163ffffffff1660e01b815260040160006040518083038186803b1580156123f557600080fd5b505afa158015612409573d6000803e3d6000fd5b505050506040513d6000823e601f3d908101601f191682016040526124319190810190613f39565b60028151811061244357612443614bfe565b60209081029190910181015160008f8152609d835260408082206001015481519485018252918452516001600160e01b031960e087901b16815261248b94939060040161489e565b600060405180830381600087803b1580156124a557600080fd5b505af11580156124b9573d6000803e3d6000fd5b50505050600060029054906101000a90046001600160a01b03166001600160a01b031663e220ad956040518163ffffffff1660e01b815260040160006040518083038186803b15801561250b57600080fd5b505afa15801561251f573d6000803e3d6000fd5b505050506040513d6000823e601f3d908101601f191682016040526125479190810190613f39565b60018151811061255957612559614bfe565b60200260200101516001600160a01b031663a37b58d5609b54600060029054906101000a90046001600160a01b03166001600160a01b031663e220ad956040518163ffffffff1660e01b815260040160006040518083038186803b1580156125c057600080fd5b505afa1580156125d4573d6000803e3d6000fd5b505050506040513d6000823e601f3d908101601f191682016040526125fc9190810190613f39565b60058151811061260e5761260e614bfe565b60209081029190910181015160008f8152609d835260408082206001015481519485018252918452516001600160e01b031960e087901b16815261265694939060040161489e565b600060405180830381600087803b15801561267057600080fd5b505af1158015612684573d6000803e3d6000fd5b5050505050505050505050505050565b606061269f826128bc565b6127035760405162461bcd60e51b815260206004820152602f60248201527f4552433732314d657461646174613a2055524920717565727920666f72206e6f60448201526e3732bc34b9ba32b73a103a37b5b2b760891b6064820152608401610545565b600061271a60408051602081019091526000815290565b9050600081511161273a5760405180602001604052806000815250612765565b806127448461365c565b60405160200161275592919061438e565b6040516020818303038152906040525b9392505050565b612774613b3a565b6040805160c081019091526097546001600160a01b031681526000906020810161279c61044b565b81526020016127a9611291565b81526020016099548152602001609a548152602001609760149054906101000a900460ff1660018111156127df576127df614be8565b815250609854915091509091565b6128316040518060a00160405280600081526020016000815260200160006001600160a01b0316815260200160006001600160a01b03168152602001600081525090565b506000908152609d6020908152604091829020825160a0810184528154815260018201549281019290925260028101546001600160a01b039081169383019390935260038101549092166060820152600490910154608082015290565b6001600160a01b039182166000908152606a6020908152604080832093909416825291909152205460ff1690565b6000908152606760205260409020546001600160a01b0316151590565b600081815260696020526040902080546001600160a01b0319166001600160a01b038416908117909155819061290e82610ec1565b6001600160a01b03167f8c5be1e5ebec7d5bd14f71427d1e84f3dd0314c0f7b2291e5b200ac8c7c3b92560405160405180910390a45050565b6000612952826128bc565b6129b35760405162461bcd60e51b815260206004820152602c60248201527f4552433732313a206f70657261746f7220717565727920666f72206e6f6e657860448201526b34b9ba32b73a103a37b5b2b760a11b6064820152608401610545565b60006129be83610ec1565b9050806001600160a01b0316846001600160a01b031614806129f95750836001600160a01b03166129ee846104dd565b6001600160a01b0316145b80612a095750612a09818561288e565b949350505050565b826001600160a01b0316612a2482610ec1565b6001600160a01b031614612a8c5760405162461bcd60e51b815260206004820152602960248201527f4552433732313a207472616e73666572206f6620746f6b656e2074686174206960448201526839903737ba1037bbb760b91b6064820152608401610545565b6001600160a01b038216612aee5760405162461bcd60e51b8152602060048201526024808201527f4552433732313a207472616e7366657220746f20746865207a65726f206164646044820152637265737360e01b6064820152608401610545565b612af96000826128d9565b6001600160a01b0383166000908152606860205260408120805460019290612b22908490614b0f565b90915550506001600160a01b0382166000908152606860205260408120805460019290612b509084906149d9565b909155505060008181526067602052604080822080546001600160a01b0319166001600160a01b038681169182179092559151849391871691600080516020614c5983398151915291a4505050565b60408051600180825281830190925260009160208083019080368337505060408051600180825281830190925292935060009291506020808301908036833750506040805160018082528183019092529293506000929150602080830190803683375050506000858152609d602052604081206002015485519293506001600160a01b031691859190612c3457612c34614bfe565b6001600160a01b039092166020928302919091018201526000858152609d9091526040812054835190918491612c6c57612c6c614bfe565b602002602001018181525050600181600081518110612c8d57612c8d614bfe565b602002602001018181525050600060029054906101000a90046001600160a01b03166001600160a01b031663e220ad956040518163ffffffff1660e01b815260040160006040518083038186803b158015612ce757600080fd5b505afa158015612cfb573d6000803e3d6000fd5b505050506040513d6000823e601f3d908101601f19168201604052612d239190810190613f39565b600181518110612d3557612d35614bfe565b60200260200101516001600160a01b03166391c0734b609b54868686866040518663ffffffff1660e01b8152600401612d729594939291906148d9565b600060405180830381600087803b158015612d8c57600080fd5b505af1158015612da0573d6000803e3d6000fd5b5050505050505050565b6000908152609d60205260408120818155600181018290556002810180546001600160a01b0319908116909155600382018054909116905560040155565b600054610100900460ff16612e035760005460ff1615612e07565b303b155b612e235760405162461bcd60e51b815260040161054590614635565b600054610100900460ff16158015612e45576000805461ffff19166101011790555b6000805462010000600160b01b031916620100006001600160a01b038516021790558015611479576000805461ff00191690555050565b600054610100900460ff16612ea35760405162461bcd60e51b815260040161054590614758565b612eab613759565b612eb3613759565b6114798282613782565b816001600160a01b0316836001600160a01b03161415612f1b5760405162461bcd60e51b815260206004820152601960248201527822a9219b99189d1030b8383937bb32903a379031b0b63632b960391b6044820152606401610545565b6001600160a01b038381166000818152606a6020908152604080832094871680845294825291829020805460ff191686151590811790915591519182527f17307eab39ab6107e8899845ad3d59bd9653f200f220920489ca2b5937696c31910160405180910390a3505050565b6114798282604051806020016040528060008152506137d0565b612fad848484612a11565b612fb984848484613803565b610fd25760405162461bcd60e51b8152600401610545906145ac565b609954609a546000838152609c602052604081205490928392839283929190839081908190819060ff16600181111561301057613010614be8565b600114156132445760008060029054906101000a90046001600160a01b03166001600160a01b031663e220ad956040518163ffffffff1660e01b815260040160006040518083038186803b15801561306757600080fd5b505afa15801561307b573d6000803e3d6000fd5b505050506040513d6000823e601f3d908101601f191682016040526130a39190810190613f39565b6002815181106130b5576130b5614bfe565b60200260200101516001600160a01b031663b049473f6040518163ffffffff1660e01b815260040160006040518083038186803b1580156130f557600080fd5b505afa158015613109573d6000803e3d6000fd5b505050506040513d6000823e601f3d908101601f191682016040526131319190810190613fd9565b90508060048151811061314657613146614bfe565b602002602001015160008151811061316057613160614bfe565b60200260200101519450806005600881111561317e5761317e614be8565b8151811061318e5761318e614bfe565b60200260200101516000815181106131a8576131a8614bfe565b6020026020010151935080600660088111156131c6576131c6614be8565b815181106131d6576131d6614bfe565b60200260200101516000815181106131f0576131f0614bfe565b60200260200101519250806007600881111561320e5761320e614be8565b8151811061321e5761321e614bfe565b602002602001015160008151811061323857613238614bfe565b60200260200101519150505b6000613269604051806060016040528088815260200186815260200184815250613910565b90506132758682614b0f565b61328090600a614a48565b61328a9088614af0565b96506132968482614b0f565b6132a190600a614a48565b6132ab9086614af0565b94506132b78282614b0f565b6132c290600a614a48565b6132cc9084614af0565b969c949b509599509497509195505050505050565b60006132ef60046002614af0565b6001600160401b0381111561330657613306614c14565b60405190808252806020026020018201604052801561332f578160200160208202803683370190505b509050600061334060046002614af0565b6001600160401b0381111561335757613357614c14565b604051908082528060200260200182016040528015613380578160200160208202803683370190505b509050600061339160046002614af0565b6001600160401b038111156133a8576133a8614c14565b6040519080825280602002602001820160405280156133d1578160200160208202803683370190505b50905060008060008060005b6004811015613542576134078a8c83600481106133fc576133fc614bfe565b60200201518b61396f565b919650945092508b816004811061342057613420614bfe565b602002015188838151811061343757613437614bfe565b60200260200101906001600160a01b031690816001600160a01b0316815250508487838151811061346a5761346a614bfe565b60209081029190910101526001868361348281614b8d565b94508151811061349457613494614bfe565b6020026020010181815250508b81600481106134b2576134b2614bfe565b60200201518883815181106134c9576134c9614bfe565b60200260200101906001600160a01b031690816001600160a01b031681525050838783815181106134fc576134fc614bfe565b602090810291909101015282868361351381614b8d565b94508151811061352557613525614bfe565b60209081029190910101528061353a81614b8d565b9150506133dd565b50600060029054906101000a90046001600160a01b03166001600160a01b031663e220ad956040518163ffffffff1660e01b815260040160006040518083038186803b15801561359157600080fd5b505afa1580156135a5573d6000803e3d6000fd5b505050506040513d6000823e601f3d908101601f191682016040526135cd9190810190613f39565b6001815181106135df576135df614bfe565b60200260200101516001600160a01b03166391c0734b609b548e8a8a8a6040518663ffffffff1660e01b815260040161361c9594939291906148d9565b600060405180830381600087803b15801561363657600080fd5b505af115801561364a573d6000803e3d6000fd5b50505050505050505050505050505050565b6060816136805750506040805180820190915260018152600360fc1b602082015290565b8160005b81156136aa578061369481614b8d565b91506136a39050600a836149f1565b9150613684565b6000816001600160401b038111156136c4576136c4614c14565b6040519080825280601f01601f1916602001820160405280156136ee576020820181803683370190505b5090505b8415612a0957613703600183614b0f565b9150613710600a86614ba8565b61371b9060306149d9565b60f81b81838151811061373057613730614bfe565b60200101906001600160f81b031916908160001a905350613752600a866149f1565b94506136f2565b600054610100900460ff166137805760405162461bcd60e51b815260040161054590614758565b565b600054610100900460ff166137a95760405162461bcd60e51b815260040161054590614758565b81516137bc906065906020850190613b89565b508051610676906066906020840190613b89565b6137da83836139cf565b6137e76000848484613803565b6106765760405162461bcd60e51b8152600401610545906145ac565b60006001600160a01b0384163b1561390557604051630a85bd0160e11b81526001600160a01b0385169063150b7a02906138479033908990889088906004016143d1565b602060405180830381600087803b15801561386157600080fd5b505af1925050508015613891575060408051601f3d908101601f1916820190925261388e91810190614120565b60015b6138eb573d8080156138bf576040519150601f19603f3d011682016040523d82523d6000602084013e6138c4565b606091505b5080516138e35760405162461bcd60e51b8152600401610545906145ac565b805181602001fd5b6001600160e01b031916630a85bd0160e11b149050612a09565b506001949350505050565b600080805b60038110156139685783816003811061393057613930614bfe565b60200201518210156139565783816003811061394e5761394e614bfe565b602002015191505b8061396081614b8d565b915050613915565b5092915050565b600080808061397e8688614af0565b9050600061398d86600a614a48565b613998906064614af0565b905060006139a682846149f1565b905060006139b48383614af0565b6139be9085614b0f565b919a91995091975095505050505050565b6001600160a01b038216613a255760405162461bcd60e51b815260206004820181905260248201527f4552433732313a206d696e7420746f20746865207a65726f20616464726573736044820152606401610545565b613a2e816128bc565b15613a7a5760405162461bcd60e51b815260206004820152601c60248201527b115490cdcc8c4e881d1bdad95b88185b1c9958591e481b5a5b9d195960221b6044820152606401610545565b6001600160a01b0382166000908152606860205260408120805460019290613aa39084906149d9565b909155505060008181526067602052604080822080546001600160a01b0319166001600160a01b0386169081179091559051839290600080516020614c59833981519152908290a45050565b828054828255906000526020600020908101928215613b2a579160200282015b82811115613b2a578251825591602001919060010190613b0f565b50613b36929150613bfc565b5090565b6040518060c0016040528060006001600160a01b031681526020016060815260200160608152602001600081526020016000815260200160006001811115613b8457613b84614be8565b905290565b828054613b9590614b52565b90600052602060002090601f016020900481019282613bb75760008555613b2a565b82601f10613bd057805160ff1916838001178555613b2a565b82800160010185558215613b2a5791820182811115613b2a578251825591602001919060010190613b0f565b5b80821115613b365760008155600101613bfd565b6000613c24613c1f846149b2565b61495f565b9050828152838383011115613c3857600080fd5b828260208301376000602084830101529392505050565b600082601f830112613c6057600080fd5b81356020613c70613c1f8361498f565b80838252828201915082860187848660051b8901011115613c9057600080fd5b60005b85811015613caf57813584529284019290840190600101613c93565b5090979650505050505050565b80358015158114613ccc57600080fd5b919050565b600082601f830112613ce257600080fd5b61276583833560208501613c11565b803560ff81168114613ccc57600080fd5b600060208284031215613d1457600080fd5b813561276581614c2a565b60008060408385031215613d3257600080fd5b8235613d3d81614c2a565b91506020830135613d4d81614c2a565b809150509250929050565b60008060008060008060008060006101208a8c031215613d7757600080fd5b8935613d8281614c2a565b985060208a0135613d9281614c2a565b975060408a01356001600160401b0380821115613dae57600080fd5b613dba8d838e01613cd1565b985060608c0135915080821115613dd057600080fd5b50613ddd8c828d01613cd1565b96505060808a0135945060a08a0135935060c08a0135925060e08a01359150613e096101008b01613cf1565b90509295985092959850929598565b600080600060608486031215613e2d57600080fd5b8335613e3881614c2a565b92506020840135613e4881614c2a565b929592945050506040919091013590565b60008060008060808587031215613e6f57600080fd5b8435613e7a81614c2a565b93506020850135613e8a81614c2a565b92506040850135915060608501356001600160401b03811115613eac57600080fd5b8501601f81018713613ebd57600080fd5b613ecc87823560208401613c11565b91505092959194509250565b60008060408385031215613eeb57600080fd5b8235613ef681614c2a565b9150613f0460208401613cbc565b90509250929050565b60008060408385031215613f2057600080fd5b8235613f2b81614c2a565b946020939093013593505050565b60006020808385031215613f4c57600080fd5b82516001600160401b03811115613f6257600080fd5b8301601f81018513613f7357600080fd5b8051613f81613c1f8261498f565b80828252848201915084840188868560051b8701011115613fa157600080fd5b600094505b83851015613fcd578051613fb981614c2a565b835260019490940193918501918501613fa6565b50979650505050505050565b60006020808385031215613fec57600080fd5b82516001600160401b038082111561400357600080fd5b818501915085601f83011261401757600080fd5b8151614025613c1f8261498f565b80828252858201915085850189878560051b880101111561404557600080fd5b60005b848110156140db5781518681111561405f57600080fd5b8701603f81018c1361407057600080fd5b88810151614080613c1f8261498f565b808282528b82019150604084018f60408560051b87010111156140a257600080fd5b600094505b838510156140c5578051835260019490940193918c01918c016140a7565b5087525050509287019290870190600101614048565b50909998505050505050505050565b6000602082840312156140fc57600080fd5b5051919050565b60006020828403121561411557600080fd5b813561276581614c42565b60006020828403121561413257600080fd5b815161276581614c42565b60006020828403121561414f57600080fd5b81516001600160401b0381111561416557600080fd5b8201601f8101841361417657600080fd5b8051614184613c1f826149b2565b81815285602083850101111561419957600080fd5b6141aa826020830160208601614b26565b95945050505050565b6000602082840312156141c557600080fd5b81356002811061276557600080fd5b6000602082840312156141e657600080fd5b5035919050565b600080600080600060a0868803121561420557600080fd5b85359450602086013561421781614c2a565b935060408601356001600160401b0381111561423257600080fd5b61423e88828901613c4f565b93505061424d60608701613cbc565b949793965091946080013592915050565b600080600080600060a0868803121561427657600080fd5b85359450602086013561428881614c2a565b93506040860135925061424d60608701613cbc565b600080604083850312156142b057600080fd5b8235915060208301356001600160401b038111156142cd57600080fd5b6142d985828601613c4f565b9150509250929050565b600080604083850312156142f657600080fd5b50508035926020909101359150565b600081518084526020808501945080840160005b8381101561433557815187529582019590820190600101614319565b509495945050505050565b60008151808452614358816020860160208601614b26565b601f01601f19169290920160200192915050565b6002811061438a57634e487b7160e01b600052602160045260246000fd5b9052565b600083516143a0818460208801614b26565b8351908301906143b4818360208801614b26565b01949350505050565b6001600160a01b0391909116815260200190565b6001600160a01b038581168252841660208201526040810183905260806060820181905260009061440490830184614340565b9695505050505050565b6001600160a01b03878116825286166020820152604081018590526060810184905260c06080820181905260009061444890830185614340565b90508260a0830152979650505050505050565b6001600160a01b038616815260a06020820181905260009061447f90830187614305565b905061448e604083018661436c565b6060820193909352608001529392505050565b6020808252825182820181905260009190848201906040850190845b818110156144d9578351835292840192918401916001016144bd565b50909695505050505050565b6000604082016040835280855480835260608501915086600052602092508260002060005b828110156145265781548452928401926001918201910161450a565b505050838103828501526144048186614305565b60408101614548828561436c565b612765602083018461436c565b6020815260006127656020830184614340565b60208082526024908201527f4f6e6c7920746865204f776e657220697320616c6c6f77656420746f20646f206040820152631d1a185d60e21b606082015260800190565b60208082526032908201527f4552433732313a207472616e7366657220746f206e6f6e20455243373231526560408201527131b2b4bb32b91034b6b83632b6b2b73a32b960711b606082015260800190565b6020808252601d908201527f546865726520697320616e206f6666657220696e2070726f6772657373000000604082015260600190565b6020808252602e908201527f496e697469616c697a61626c653a20636f6e747261637420697320616c72656160408201526d191e481a5b9a5d1a585b1a5e995960921b606082015260800190565b6020808252602d908201527f4f6e6c79206f776e6572206f7220617070726f7665642063616e206368616e6760408201526c6520746f6b656e20707269636560981b606082015260800190565b60208082526031908201527f4552433732313a207472616e736665722063616c6c6572206973206e6f74206f6040820152701ddb995c881b9bdc88185c1c1c9bdd9959607a1b606082015260800190565b6020808252601d908201527f5468657265206973206e6f206f6666657220696e2070726f6772657373000000604082015260600190565b6020808252602b908201527f496e697469616c697a61626c653a20636f6e7472616374206973206e6f74206960408201526a6e697469616c697a696e6760a81b606082015260800190565b604080825283516001600160a01b031690820152602083015160c060608301526000906147d4610100840182614340565b90506040850151603f198483030160808501526147f18282614340565b915050606085015160a0840152608085015160c084015260a085015161481a60e085018261436c565b506020929092019290925292915050565b6040815261483d60408201845161436c565b60006020840151604060608401526148586080840182614305565b91505060018060a01b03831660208301529392505050565b9485526001600160a01b03938416602086015260408501929092529091166060830152608082015260a00190565b84815260018060a01b03841660208201528260408201526080606082015260006144046080830184614340565b918252602082015260400190565b600060a082018783526020878185015260a0604085015281875180845260c086019150828901935060005b818110156149295784516001600160a01b031683529383019391830191600101614904565b5050848103606086015261493d8188614305565b9250505082810360808401526149538185614305565b98975050505050505050565b604051601f8201601f191681016001600160401b038111828210171561498757614987614c14565b604052919050565b60006001600160401b038211156149a8576149a8614c14565b5060051b60200190565b60006001600160401b038211156149cb576149cb614c14565b50601f01601f191660200190565b600082198211156149ec576149ec614bbc565b500190565b600082614a0057614a00614bd2565b500490565b600181815b80851115614a40578160001904821115614a2657614a26614bbc565b80851615614a3357918102915b93841c9390800290614a0a565b509250929050565b60006127658383600082614a5e57506001610445565b81614a6b57506000610445565b8160018114614a815760028114614a8b57614aa7565b6001915050610445565b60ff841115614a9c57614a9c614bbc565b50506001821b610445565b5060208310610133831016604e8410600b8410161715614aca575081810a610445565b614ad48383614a05565b8060001904821115614ae857614ae8614bbc565b029392505050565b6000816000190483118215151615614b0a57614b0a614bbc565b500290565b600082821015614b2157614b21614bbc565b500390565b60005b83811015614b41578181015183820152602001614b29565b83811115610fd25750506000910152565b600181811c90821680614b6657607f821691505b60208210811415614b8757634e487b7160e01b600052602260045260246000fd5b50919050565b6000600019821415614ba157614ba1614bbc565b5060010190565b600082614bb757614bb7614bd2565b500690565b634e487b7160e01b600052601160045260246000fd5b634e487b7160e01b600052601260045260246000fd5b634e487b7160e01b600052602160045260246000fd5b634e487b7160e01b600052603260045260246000fd5b634e487b7160e01b600052604160045260246000fd5b6001600160a01b0381168114614c3f57600080fd5b50565b6001600160e01b031981168114614c3f57600080fdfeddf252ad1be2c89b69c2b068fc378daa952ba7f163c4a11628f55a4df523b3efa2646970667358221220095eaae3ecfb6430ebea9ef40dcd998c0c954dfa3bb00a87eb077c94a066ee6d64736f6c63430008070033",
  "immutableReferences": {},
  "source": "// SPDX-License-Identifier: GPL-3.0\r\n\r\npragma solidity 0.8.7;\r\n\r\n/**\r\n Certis Token is an ERC20 Token that grants its holder the right to:\r\n   - Vote on all the systems propositions (changing system configuraiton etc...)\r\n   - Receive Dividends for all the payments forwarded to the Treasury contract\r\n\r\nBefore every token transfer we contact the token gouvernance Base contracts so that the can update the tokens used for voting if needed\r\n\r\n */\r\n\r\nimport \"@openzeppelin/contracts-upgradeable/token/ERC721/ERC721Upgradeable.sol\";\r\nimport \"@openzeppelin/contracts-upgradeable/proxy/utils/Initializable.sol\";\r\nimport \"../Base/ManagedBaseContract.sol\";\r\nimport \"../Libraries/Library.sol\";\r\nimport \"../Libraries/UintLibrary.sol\";\r\nimport \"../Libraries/ItemsLibrary.sol\";\r\nimport \"../Interfaces/ITreasury.sol\";\r\nimport \"../Interfaces/IPool.sol\";\r\nimport \"../Interfaces/INFTMarket.sol\";\r\nimport \"../Interfaces/IPayments.sol\";\r\n\r\n contract NFTMarket is  INFTMarket, Initializable, ManagedBaseContract, ERC721Upgradeable {\r\n    using Library for *;\r\n    using UintLibrary for *;\r\n    using ItemsLibrary for *;\r\n\r\n\r\n  // EVENTS /////////////////////////////////////////\r\n  event _NewOwner(address indexed formerOwner, address newOwner);\r\n  event _NewPaymentPlan(Library.PaymentPlans formerPlan, Library.PaymentPlans newPlan);\r\n  event _NewOffersLifeTime(uint256 indexed formerLifeTime, uint256 newLifeTime);\r\n  event _NewOwnerFees(uint256 indexed formerAmount, uint256 indexed formerDecimals, uint256 newAmount, uint256 newDecimals);\r\n\r\n  event _MintToken(uint256 indexed tokenId, address receiver, uint256[] prices, Library.PaymentPlans plan, uint256 MintingFee, uint256 AdminMintingFee);\r\n  event _SetTokenPrice(uint256 indexed tokenId, uint256[] formerPrices, uint256[] newPrices);\r\n  event _SubmitOffer(uint256 indexed tokenId, address indexed sender, address indexed bidder, uint256 offer, bool FromCredit, uint256 paymentTokenID);\r\n  event _AcceptOffer(uint256 indexed tokenId, address indexed formerOwner, address indexed newOwner, uint256 offer, uint256 paymentTokenID);\r\n  event _RejectOffer(uint256 indexed tokenId);\r\n  event _WithdrawOffer(uint256 indexed tokenId);\r\n  \r\n\r\n  // DATA /////////////////////////////////////////\r\n  address _owner;\r\n  Library.PaymentPlans _paymentPlan;\r\n  uint256 _offersLifeTime;\r\n  uint256 _ownerTransferFeeAmount;\r\n  uint256 _ownerTransferFeeDecimals;\r\n  uint256 _issuerID;\r\n\r\n  mapping(uint256 => _tokenStruct) private _tokenInfo;\r\n  mapping(uint256 => _offerStruct) private _tokenOffer;\r\n\r\n\r\n  // MODIFIERS /////////////////////////////////////////\r\n  modifier isTheOwner(address addr){\r\n      require(_owner == addr, \"Only the Owner is allowed to do that\");\r\n      _;\r\n  }\r\n\r\n  modifier isTokenOwnerOrApproved(uint256 tokenId){\r\n      require(_isApprovedOrOwner(_msgSender(), tokenId), \"Only owner or approved can change token price\");\r\n      _;\r\n  }\r\n\r\n  modifier OfferInProgress(uint256 tokenId, bool YesOrNo){\r\n      if(YesOrNo) require(block.timestamp <= _tokenOffer[tokenId]._deadline, \"There is no offer in progress\");\r\n      else require(block.timestamp > _tokenOffer[tokenId]._deadline, \"There is an offer in progress\");\r\n      _;\r\n  }\r\n\r\n  modifier priceOK(uint256 tokenId, uint256 offer, uint256 paymentTokenID){\r\n      require(offer >= _tokenInfo[tokenId]._prices[paymentTokenID], \"The offer is below the minimum price\");\r\n      _;\r\n  }\r\n\r\n  modifier validFees(uint256 fee, uint256 decimals){\r\n    Library.validFees(fee, decimals);\r\n    _;\r\n  }\r\n\r\n  // CONSTRUCTOR /////////////////////////////////////////\r\n  function NFTMarket_init(address managerContractAddress, address owner, string memory name, string memory symbol, uint256 offersLifeTime, uint256 ownerTransferFeeAmount, uint256 ownerTransferFeeDecimals, uint256 issuerID, uint8 paymentPlan) public initializer \r\n    validFees(ownerTransferFeeAmount, ownerTransferFeeDecimals)\r\n  {\r\n      super.ManagedBaseContract_init(managerContractAddress); \r\n      super.__ERC721_init(name, symbol); \r\n\r\n      _owner = owner;\r\n      _paymentPlan = Library.PaymentPlans(paymentPlan);\r\n      _offersLifeTime = offersLifeTime;\r\n      _ownerTransferFeeAmount = ownerTransferFeeAmount;\r\n      _ownerTransferFeeDecimals = ownerTransferFeeDecimals;\r\n      _issuerID = issuerID;\r\n  }\r\n\r\n  // FUNCTIONALITY /////////////////////////////////////////\r\n  function changeOwner(address newOwner) external override\r\n    isTheOwner(msg.sender)\r\n  {\r\n      emit _NewOwner(_owner, newOwner);\r\n      _owner = newOwner;\r\n  }\r\n\r\n  function changePaymentPlan(Library.PaymentPlans newPaymentPlan) external override\r\n    isTheOwner(msg.sender)\r\n  {\r\n      emit _NewPaymentPlan(_paymentPlan, newPaymentPlan);\r\n      _paymentPlan = newPaymentPlan;\r\n  }\r\n\r\n  function changeOffersLifeTime(uint256 newLifeTime) external override\r\n    isTheOwner(msg.sender)\r\n  {\r\n      emit _NewOffersLifeTime(_offersLifeTime, newLifeTime);\r\n      _offersLifeTime = newLifeTime;\r\n  }\r\n\r\n  function changeOwnerTransferFees(uint256 newAmount, uint256 newDecimals) external override\r\n    isTheOwner(msg.sender)\r\n    validFees(newAmount, newDecimals)\r\n  {\r\n      emit _NewOwnerFees(_ownerTransferFeeAmount, _ownerTransferFeeDecimals, newAmount, newDecimals);\r\n      _ownerTransferFeeAmount = newAmount;\r\n      _ownerTransferFeeDecimals = newDecimals;\r\n  }\r\n\r\n  function mintToken(uint256 tokenId, address receiver, uint256[] memory prices, bool FromCredit, uint256 paymentTokenID) external override\r\n    isTheOwner(msg.sender)\r\n  {\r\n      uint256 MintingFee = 0;\r\n      uint256 AdminMintingFee = 0;\r\n\r\n      if(_paymentPlan == Library.PaymentPlans.Minting)\r\n      {\r\n        uint[][] memory Prices = ITreasury(_managerContract.retrieveTransparentProxies()[uint256(Library.TransparentProxies.Treasury)]).retrieveSettings();\r\n        MintingFee = Prices[uint256(Library.Prices.MintingFee)][0];\r\n        AdminMintingFee = Prices[uint256(Library.Prices.AdminMintingFee)][0];\r\n\r\n        if(FromCredit){\r\n          IPool(_managerContract.retrieveTransparentProxies()[uint256(Library.TransparentProxies.PublicPool)]).spendCredit(_issuerID, msg.sender, MintingFee, _managerContract.retrieveTransparentProxies()[uint256(Library.TransparentProxies.Treasury)], paymentTokenID);\r\n          IPool(_managerContract.retrieveTransparentProxies()[uint256(Library.TransparentProxies.PublicPool)]).spendCredit(_issuerID, msg.sender, AdminMintingFee, _managerContract.retrieveTransparentProxies()[uint256(Library.TransparentProxies.AdminPiggyBank)], paymentTokenID);\r\n        } \r\n        else{\r\n          IPayments payments = IPayments(_managerContract.retrieveTransparentProxies()[uint256(Library.TransparentProxies.Payments)]);\r\n          payments.TransferFrom(msg.sender, _managerContract.retrieveTransparentProxies()[uint256(Library.TransparentProxies.Treasury)], MintingFee, _issuerID, bytes(\"\"), paymentTokenID);\r\n          payments.TransferFrom(msg.sender, _managerContract.retrieveTransparentProxies()[uint256(Library.TransparentProxies.AdminPiggyBank)], AdminMintingFee, _issuerID, bytes(\"\"), paymentTokenID);\r\n        }\r\n      }\r\n\r\n      _safeMint(receiver, tokenId);\r\n      _tokenInfo[tokenId]._prices = prices;\r\n      _tokenInfo[tokenId]._paymentPlan = _paymentPlan;\r\n\r\n      emit _MintToken(tokenId, receiver, prices, _paymentPlan, MintingFee, AdminMintingFee);\r\n  }\r\n\r\n  function setTokenPrice(uint256 tokenId, uint256[] memory prices) external override\r\n    isTokenOwnerOrApproved(tokenId)\r\n  {\r\n      emit _SetTokenPrice(tokenId, _tokenInfo[tokenId]._prices, prices);\r\n      _tokenInfo[tokenId]._prices = prices;\r\n  }\r\n\r\n  function acceptOffer(uint256 tokenId) external override\r\n    isTokenOwnerOrApproved(tokenId)\r\n    OfferInProgress(tokenId, true)\r\n  {\r\n    emit _AcceptOffer(tokenId, ownerOf(tokenId), _tokenOffer[tokenId]._bidder, _tokenOffer[tokenId]._offer, _tokenOffer[tokenId]._paymentTokenID);\r\n\r\n    (uint256 OwnerTransferFeeAmount, uint256 TransferFeeAmount, uint256 AdminTransferFeeAmount, uint256 commonDecimals) = getFees(tokenId);\r\n\r\n    uint256 TotalFees = OwnerTransferFeeAmount + TransferFeeAmount + AdminTransferFeeAmount;\r\n    Library.validFees(TotalFees, commonDecimals);\r\n\r\n    uint256 percentageForTokenOwner = 10**(commonDecimals + 2) - TotalFees;\r\n\r\n    _safeTransfer(ownerOf(tokenId), _tokenOffer[tokenId]._bidder, tokenId, \"\");\r\n\r\n    AllocatePercents(tokenId,\r\n      [_managerContract.retrieveTransparentProxies()[uint256(Library.TransparentProxies.Treasury)], _managerContract.retrieveTransparentProxies()[uint256(Library.TransparentProxies.AdminPiggyBank)], _owner, ownerOf(tokenId)],\r\n      [TransferFeeAmount, AdminTransferFeeAmount, OwnerTransferFeeAmount, percentageForTokenOwner],\r\n      _tokenOffer[tokenId]._offer,\r\n      commonDecimals);\r\n\r\n    removeOffer(tokenId);\r\n\r\n    IPool(_managerContract.retrieveTransparentProxies()[uint256(Library.TransparentProxies.PublicPool)]).withdrawAllFor(_issuerID,\r\n      _managerContract.retrieveTransparentProxies()[uint256(Library.TransparentProxies.Treasury)],\r\n      _tokenOffer[tokenId]._paymentTokenID,\r\n      bytes(\"\"));\r\n    IPool(_managerContract.retrieveTransparentProxies()[uint256(Library.TransparentProxies.PublicPool)]).withdrawAllFor(_issuerID,\r\n      _managerContract.retrieveTransparentProxies()[uint256(Library.TransparentProxies.AdminPiggyBank)],\r\n      _tokenOffer[tokenId]._paymentTokenID,\r\n      bytes(\"\"));\r\n  }\r\n\r\n  function getFees(uint256 tokenId) internal view returns(uint256, uint256, uint256, uint256)\r\n  {\r\n    uint256 OwnerTransferFeeAmount = _ownerTransferFeeAmount;\r\n    uint256 OwnerTransferFeeDecimals = _ownerTransferFeeDecimals;\r\n    uint256 TransferFeeAmount = 0;\r\n    uint256 TransferFeeDecimals = 0;\r\n    uint256 AdminTransferFeeAmount = 0;\r\n    uint256 AdminTransferFeeDecimals = 0;\r\n\r\n    if(Library.PaymentPlans.TransferFee == _tokenInfo[tokenId]._paymentPlan){\r\n        uint[][] memory Prices = ITreasury(_managerContract.retrieveTransparentProxies()[uint256(Library.TransparentProxies.Treasury)]).retrieveSettings();\r\n        TransferFeeAmount = Prices[uint256(Library.Prices.TransferFeeAmount)][0];\r\n        TransferFeeDecimals = Prices[uint256(Library.Prices.TransferFeeDecimals)][0];\r\n        AdminTransferFeeAmount = Prices[uint256(Library.Prices.AdminTransferFeeAmount)][0];\r\n        AdminTransferFeeDecimals = Prices[uint256(Library.Prices.AdminTransferFeeDecimals)][0];\r\n    }\r\n\r\n    uint256 commonDecimals = getLargest([OwnerTransferFeeDecimals, TransferFeeDecimals, AdminTransferFeeDecimals]); \r\n    OwnerTransferFeeAmount = OwnerTransferFeeAmount * 10**(commonDecimals - OwnerTransferFeeDecimals);\r\n    TransferFeeAmount = TransferFeeAmount * 10**(commonDecimals - TransferFeeDecimals);\r\n    AdminTransferFeeAmount = AdminTransferFeeAmount * 10**(commonDecimals - AdminTransferFeeDecimals);\r\n\r\n    return(OwnerTransferFeeAmount, TransferFeeAmount, AdminTransferFeeAmount, commonDecimals);\r\n  }\r\n    \r\n  function rejectOffer(uint256 tokenId) external override\r\n    isTokenOwnerOrApproved(tokenId)\r\n    OfferInProgress(tokenId, true)\r\n  {\r\n    assignToRejectedSender(tokenId);\r\n    removeOffer(tokenId);\r\n    emit _RejectOffer(tokenId);\r\n  }\r\n\r\n  function removeOffer(uint256 tokenId) internal\r\n  {\r\n    delete(_tokenOffer[tokenId]);\r\n  }\r\n\r\n  function submitOffer(uint256 tokenId, address bidder, uint256 offer, bool FromCredit, uint256 paymentTokenID) external override\r\n    OfferInProgress(tokenId, false)\r\n    priceOK(tokenId, offer, paymentTokenID)\r\n  {\r\n    if(address(0) != _tokenOffer[tokenId]._sender) assignToRejectedSender(tokenId);\r\n\r\n    if(FromCredit)\r\n      IPool(_managerContract.retrieveTransparentProxies()[uint256(Library.TransparentProxies.PublicPool)]).reuseCredit(_issuerID, tokenId,  msg.sender, offer, paymentTokenID);\r\n    \r\n    else{\r\n      bytes32[] memory dataArray = new bytes32[](3);\r\n      dataArray[0] = UintLibrary.UintToBytes32(uint256(Library.PublicPoolPaymentTypes.TransferUnassignedCredit));\r\n      dataArray[1] = UintLibrary.UintToBytes32(_issuerID);\r\n      dataArray[2] = UintLibrary.UintToBytes32(tokenId);\r\n      bytes memory data = Library.Bytes32ArrayToBytes(dataArray);\r\n\r\n      IPayments payments = IPayments(_managerContract.retrieveTransparentProxies()[uint256(Library.TransparentProxies.Payments)]);\r\n      payments.TransferFrom(msg.sender, _managerContract.retrieveTransparentProxies()[uint256(Library.TransparentProxies.PublicPool)], offer, _issuerID, data, paymentTokenID);\r\n    }\r\n\r\n    _tokenOffer[tokenId]._offer = offer;\r\n    _tokenOffer[tokenId]._paymentTokenID = paymentTokenID;\r\n    _tokenOffer[tokenId]._sender = msg.sender;\r\n    _tokenOffer[tokenId]._bidder = bidder;\r\n    _tokenOffer[tokenId]._deadline = block.timestamp + _offersLifeTime;\r\n\r\n    emit _SubmitOffer(tokenId, msg.sender, bidder, offer, FromCredit, paymentTokenID);\r\n  }\r\n    \r\n  function withdrawOffer(uint256 tokenId) external override\r\n    OfferInProgress(tokenId, false)\r\n  {\r\n    require(msg.sender == _tokenOffer[tokenId]._sender, \"Only the original sender can withdraw the bid\");\r\n    assignToRejectedSender(tokenId);\r\n    removeOffer(tokenId);\r\n    emit _WithdrawOffer(tokenId);\r\n  }\r\n\r\n  function assignToRejectedSender(uint tokenId) internal\r\n  {\r\n    address[] memory addrs = new address[](1);\r\n    uint256[] memory amounts = new uint256[](1);\r\n    uint256[] memory factors = new uint256[](1);\r\n    addrs[0] = _tokenOffer[tokenId]._sender;\r\n    amounts[0] = _tokenOffer[tokenId]._offer;\r\n    factors[0] = 1;\r\n    IPool(_managerContract.retrieveTransparentProxies()[uint256(Library.TransparentProxies.PublicPool)]).addCredit(_issuerID, tokenId, addrs, amounts, factors);\r\n  }\r\n\r\n  function AllocatePercents(uint256 tokenId, address[4] memory destinations, uint256[4] memory percentages, uint256 offer, uint256 commonDecimals) internal\r\n  {\r\n    address[] memory addrs = new address[](2 * destinations.length);\r\n    uint256[] memory amounts = new uint256[](2 * destinations.length);\r\n    uint256[] memory factors = new uint256[](2 * destinations.length);\r\n    uint quotient = 0;\r\n    uint remainder = 0;\r\n    uint denominator = 0;\r\n    uint pos = 0;\r\n\r\n\r\n    for(uint i=0; i < destinations.length; i++){\r\n      (quotient, remainder, denominator) = CalculatePercents(offer, percentages[i], commonDecimals);\r\n      addrs[pos] = destinations[i];\r\n      amounts[pos] = quotient;\r\n      factors[pos++] = 1;\r\n      addrs[pos] = destinations[i];\r\n      amounts[pos] = remainder;\r\n      factors[pos++] = denominator;\r\n    }\r\n\r\n    IPool(_managerContract.retrieveTransparentProxies()[uint256(Library.TransparentProxies.PublicPool)]).addCredit(_issuerID, \r\n      tokenId, \r\n      addrs, \r\n      amounts, \r\n      factors);\r\n  }\r\n\r\n  function CalculatePercents(uint256 amount, uint256 percentage, uint256 decimals) internal pure returns(uint256, uint256, uint256)\r\n  {\r\n      uint256 numerator = amount * percentage;\r\n      uint256 denominator = 100 * 10**decimals;\r\n\r\n      uint256 quotient = numerator / denominator;\r\n      uint256 remainder = numerator - (quotient * denominator);\r\n\r\n      return(quotient, remainder, denominator);\r\n  }\r\n\r\n  function retrieveIssuer() external override view returns (ItemsLibrary._issuerStruct memory, uint256)\r\n  {\r\n    return(ItemsLibrary._issuerStruct(_owner, name(), symbol(), _ownerTransferFeeAmount, _ownerTransferFeeDecimals, _paymentPlan), _offersLifeTime);\r\n  }\r\n\r\n  function retrieveToken(uint256 tokenId) external override view returns (_tokenStruct memory, address)\r\n  {\r\n    return(_tokenInfo[tokenId], ownerOf(tokenId));\r\n  }\r\n\r\n  function retrieveOffer(uint256 tokenId) external override view returns (_offerStruct memory)\r\n  {\r\n      return(_tokenOffer[tokenId]);\r\n  }\r\n\r\n  function getLargest(uint256[3] memory nums) internal pure returns(uint256)\r\n  {\r\n    uint256 largest = 0;\r\n\r\n    for(uint i=0; i < nums.length; i++)\r\n    {\r\n        if(largest < nums[i])largest = nums[i];\r\n    }\r\n\r\n    return largest;\r\n  }\r\n\r\n }",
  "sourcePath": "C:\\Users\\d-aam\\GitHub\\Originals\\contracts\\MainContracts\\NFTMarket.sol",
  "compiler": {
    "name": "solc",
    "version": "0.8.7+commit.e28d00a7.Emscripten.clang"
  },
  "schemaVersion": "3.4.3",
  "updatedAt": "2022-02-25T10:47:25.840Z",
  "devdoc": {
    "kind": "dev",
    "methods": {
      "approve(address,uint256)": {
        "details": "See {IERC721-approve}."
      },
      "balanceOf(address)": {
        "details": "See {IERC721-balanceOf}."
      },
      "getApproved(uint256)": {
        "details": "See {IERC721-getApproved}."
      },
      "isApprovedForAll(address,address)": {
        "details": "See {IERC721-isApprovedForAll}."
      },
      "name()": {
        "details": "See {IERC721Metadata-name}."
      },
      "ownerOf(uint256)": {
        "details": "See {IERC721-ownerOf}."
      },
      "safeTransferFrom(address,address,uint256)": {
        "details": "See {IERC721-safeTransferFrom}."
      },
      "safeTransferFrom(address,address,uint256,bytes)": {
        "details": "See {IERC721-safeTransferFrom}."
      },
      "setApprovalForAll(address,bool)": {
        "details": "See {IERC721-setApprovalForAll}."
      },
      "supportsInterface(bytes4)": {
        "details": "See {IERC165-supportsInterface}."
      },
      "symbol()": {
        "details": "See {IERC721Metadata-symbol}."
      },
      "tokenURI(uint256)": {
        "details": "See {IERC721Metadata-tokenURI}."
      },
      "transferFrom(address,address,uint256)": {
        "details": "See {IERC721-transferFrom}."
      }
    },
    "version": 1
  },
  "userdoc": {
    "kind": "user",
    "methods": {},
    "version": 1
  }
}