{
  "contractName": "NFTMarket",
  "abi": [
    {
      "anonymous": false,
      "inputs": [
        {
          "indexed": true,
          "internalType": "address",
          "name": "owner",
          "type": "address"
        },
        {
          "indexed": true,
          "internalType": "address",
          "name": "approved",
          "type": "address"
        },
        {
          "indexed": true,
          "internalType": "uint256",
          "name": "tokenId",
          "type": "uint256"
        }
      ],
      "name": "Approval",
      "type": "event"
    },
    {
      "anonymous": false,
      "inputs": [
        {
          "indexed": true,
          "internalType": "address",
          "name": "owner",
          "type": "address"
        },
        {
          "indexed": true,
          "internalType": "address",
          "name": "operator",
          "type": "address"
        },
        {
          "indexed": false,
          "internalType": "bool",
          "name": "approved",
          "type": "bool"
        }
      ],
      "name": "ApprovalForAll",
      "type": "event"
    },
    {
      "anonymous": false,
      "inputs": [
        {
          "indexed": true,
          "internalType": "address",
          "name": "from",
          "type": "address"
        },
        {
          "indexed": true,
          "internalType": "address",
          "name": "to",
          "type": "address"
        },
        {
          "indexed": true,
          "internalType": "uint256",
          "name": "tokenId",
          "type": "uint256"
        }
      ],
      "name": "Transfer",
      "type": "event"
    },
    {
      "anonymous": false,
      "inputs": [
        {
          "indexed": true,
          "internalType": "uint256",
          "name": "tokenId",
          "type": "uint256"
        },
        {
          "indexed": true,
          "internalType": "address",
          "name": "formerOwner",
          "type": "address"
        },
        {
          "indexed": true,
          "internalType": "address",
          "name": "newOwner",
          "type": "address"
        },
        {
          "indexed": false,
          "internalType": "uint256",
          "name": "offer",
          "type": "uint256"
        }
      ],
      "name": "_AcceptOffer",
      "type": "event"
    },
    {
      "anonymous": false,
      "inputs": [
        {
          "indexed": true,
          "internalType": "uint256",
          "name": "tokenId",
          "type": "uint256"
        },
        {
          "indexed": false,
          "internalType": "address",
          "name": "receiver",
          "type": "address"
        },
        {
          "indexed": false,
          "internalType": "uint256",
          "name": "price",
          "type": "uint256"
        },
        {
          "indexed": false,
          "internalType": "enum Library.PaymentPlans",
          "name": "plan",
          "type": "uint8"
        },
        {
          "indexed": false,
          "internalType": "uint256",
          "name": "MintingFee",
          "type": "uint256"
        },
        {
          "indexed": false,
          "internalType": "uint256",
          "name": "AdminMintingFee",
          "type": "uint256"
        }
      ],
      "name": "_MintToken",
      "type": "event"
    },
    {
      "anonymous": false,
      "inputs": [
        {
          "indexed": true,
          "internalType": "uint256",
          "name": "formerLifeTime",
          "type": "uint256"
        },
        {
          "indexed": false,
          "internalType": "uint256",
          "name": "newLifeTime",
          "type": "uint256"
        }
      ],
      "name": "_NewOffersLifeTime",
      "type": "event"
    },
    {
      "anonymous": false,
      "inputs": [
        {
          "indexed": true,
          "internalType": "address",
          "name": "formerOwner",
          "type": "address"
        },
        {
          "indexed": false,
          "internalType": "address",
          "name": "newOwner",
          "type": "address"
        }
      ],
      "name": "_NewOwner",
      "type": "event"
    },
    {
      "anonymous": false,
      "inputs": [
        {
          "indexed": true,
          "internalType": "uint256",
          "name": "formerAmount",
          "type": "uint256"
        },
        {
          "indexed": true,
          "internalType": "uint256",
          "name": "formerDecimals",
          "type": "uint256"
        },
        {
          "indexed": false,
          "internalType": "uint256",
          "name": "newAmount",
          "type": "uint256"
        },
        {
          "indexed": false,
          "internalType": "uint256",
          "name": "newDecimals",
          "type": "uint256"
        }
      ],
      "name": "_NewOwnerFees",
      "type": "event"
    },
    {
      "anonymous": false,
      "inputs": [
        {
          "indexed": false,
          "internalType": "enum Library.PaymentPlans",
          "name": "formerPlan",
          "type": "uint8"
        },
        {
          "indexed": false,
          "internalType": "enum Library.PaymentPlans",
          "name": "newPlan",
          "type": "uint8"
        }
      ],
      "name": "_NewPaymentPlan",
      "type": "event"
    },
    {
      "anonymous": false,
      "inputs": [
        {
          "indexed": true,
          "internalType": "uint256",
          "name": "tokenId",
          "type": "uint256"
        }
      ],
      "name": "_RejectOffer",
      "type": "event"
    },
    {
      "anonymous": false,
      "inputs": [
        {
          "indexed": true,
          "internalType": "uint256",
          "name": "tokenId",
          "type": "uint256"
        },
        {
          "indexed": true,
          "internalType": "uint256",
          "name": "formerPrice",
          "type": "uint256"
        },
        {
          "indexed": false,
          "internalType": "uint256",
          "name": "newPrice",
          "type": "uint256"
        }
      ],
      "name": "_SetTokenPrice",
      "type": "event"
    },
    {
      "anonymous": false,
      "inputs": [
        {
          "indexed": true,
          "internalType": "uint256",
          "name": "tokenId",
          "type": "uint256"
        },
        {
          "indexed": true,
          "internalType": "address",
          "name": "sender",
          "type": "address"
        },
        {
          "indexed": true,
          "internalType": "address",
          "name": "bidder",
          "type": "address"
        },
        {
          "indexed": false,
          "internalType": "uint256",
          "name": "offer",
          "type": "uint256"
        },
        {
          "indexed": false,
          "internalType": "bool",
          "name": "FromCredit",
          "type": "bool"
        }
      ],
      "name": "_SubmitOffer",
      "type": "event"
    },
    {
      "anonymous": false,
      "inputs": [
        {
          "indexed": true,
          "internalType": "uint256",
          "name": "tokenId",
          "type": "uint256"
        }
      ],
      "name": "_WithdrawOffer",
      "type": "event"
    },
    {
      "inputs": [
        {
          "internalType": "address",
          "name": "to",
          "type": "address"
        },
        {
          "internalType": "uint256",
          "name": "tokenId",
          "type": "uint256"
        }
      ],
      "name": "approve",
      "outputs": [],
      "stateMutability": "nonpayable",
      "type": "function"
    },
    {
      "inputs": [
        {
          "internalType": "address",
          "name": "owner",
          "type": "address"
        }
      ],
      "name": "balanceOf",
      "outputs": [
        {
          "internalType": "uint256",
          "name": "",
          "type": "uint256"
        }
      ],
      "stateMutability": "view",
      "type": "function"
    },
    {
      "inputs": [
        {
          "internalType": "uint256",
          "name": "tokenId",
          "type": "uint256"
        }
      ],
      "name": "getApproved",
      "outputs": [
        {
          "internalType": "address",
          "name": "",
          "type": "address"
        }
      ],
      "stateMutability": "view",
      "type": "function"
    },
    {
      "inputs": [
        {
          "internalType": "address",
          "name": "owner",
          "type": "address"
        },
        {
          "internalType": "address",
          "name": "operator",
          "type": "address"
        }
      ],
      "name": "isApprovedForAll",
      "outputs": [
        {
          "internalType": "bool",
          "name": "",
          "type": "bool"
        }
      ],
      "stateMutability": "view",
      "type": "function"
    },
    {
      "inputs": [],
      "name": "name",
      "outputs": [
        {
          "internalType": "string",
          "name": "",
          "type": "string"
        }
      ],
      "stateMutability": "view",
      "type": "function"
    },
    {
      "inputs": [
        {
          "internalType": "uint256",
          "name": "tokenId",
          "type": "uint256"
        }
      ],
      "name": "ownerOf",
      "outputs": [
        {
          "internalType": "address",
          "name": "",
          "type": "address"
        }
      ],
      "stateMutability": "view",
      "type": "function"
    },
    {
      "inputs": [],
      "name": "retrieveManagerContract",
      "outputs": [
        {
          "internalType": "address",
          "name": "",
          "type": "address"
        }
      ],
      "stateMutability": "view",
      "type": "function"
    },
    {
      "inputs": [
        {
          "internalType": "address",
          "name": "from",
          "type": "address"
        },
        {
          "internalType": "address",
          "name": "to",
          "type": "address"
        },
        {
          "internalType": "uint256",
          "name": "tokenId",
          "type": "uint256"
        }
      ],
      "name": "safeTransferFrom",
      "outputs": [],
      "stateMutability": "nonpayable",
      "type": "function"
    },
    {
      "inputs": [
        {
          "internalType": "address",
          "name": "from",
          "type": "address"
        },
        {
          "internalType": "address",
          "name": "to",
          "type": "address"
        },
        {
          "internalType": "uint256",
          "name": "tokenId",
          "type": "uint256"
        },
        {
          "internalType": "bytes",
          "name": "_data",
          "type": "bytes"
        }
      ],
      "name": "safeTransferFrom",
      "outputs": [],
      "stateMutability": "nonpayable",
      "type": "function"
    },
    {
      "inputs": [
        {
          "internalType": "address",
          "name": "operator",
          "type": "address"
        },
        {
          "internalType": "bool",
          "name": "approved",
          "type": "bool"
        }
      ],
      "name": "setApprovalForAll",
      "outputs": [],
      "stateMutability": "nonpayable",
      "type": "function"
    },
    {
      "inputs": [
        {
          "internalType": "bytes4",
          "name": "interfaceId",
          "type": "bytes4"
        }
      ],
      "name": "supportsInterface",
      "outputs": [
        {
          "internalType": "bool",
          "name": "",
          "type": "bool"
        }
      ],
      "stateMutability": "view",
      "type": "function"
    },
    {
      "inputs": [],
      "name": "symbol",
      "outputs": [
        {
          "internalType": "string",
          "name": "",
          "type": "string"
        }
      ],
      "stateMutability": "view",
      "type": "function"
    },
    {
      "inputs": [
        {
          "internalType": "uint256",
          "name": "tokenId",
          "type": "uint256"
        }
      ],
      "name": "tokenURI",
      "outputs": [
        {
          "internalType": "string",
          "name": "",
          "type": "string"
        }
      ],
      "stateMutability": "view",
      "type": "function"
    },
    {
      "inputs": [
        {
          "internalType": "address",
          "name": "from",
          "type": "address"
        },
        {
          "internalType": "address",
          "name": "to",
          "type": "address"
        },
        {
          "internalType": "uint256",
          "name": "tokenId",
          "type": "uint256"
        }
      ],
      "name": "transferFrom",
      "outputs": [],
      "stateMutability": "nonpayable",
      "type": "function"
    },
    {
      "inputs": [
        {
          "internalType": "address",
          "name": "managerContractAddress",
          "type": "address"
        },
        {
          "internalType": "address",
          "name": "owner",
          "type": "address"
        },
        {
          "internalType": "string",
          "name": "name",
          "type": "string"
        },
        {
          "internalType": "string",
          "name": "symbol",
          "type": "string"
        },
        {
          "internalType": "uint256",
          "name": "offersLifeTime",
          "type": "uint256"
        },
        {
          "internalType": "uint256",
          "name": "ownerTransferFeeAmount",
          "type": "uint256"
        },
        {
          "internalType": "uint256",
          "name": "ownerTransferFeeDecimals",
          "type": "uint256"
        },
        {
          "internalType": "uint256",
          "name": "issuerID",
          "type": "uint256"
        },
        {
          "internalType": "uint8",
          "name": "paymentPlan",
          "type": "uint8"
        }
      ],
      "name": "NFTMarket_init",
      "outputs": [],
      "stateMutability": "nonpayable",
      "type": "function"
    },
    {
      "inputs": [
        {
          "internalType": "address",
          "name": "newOwner",
          "type": "address"
        }
      ],
      "name": "changeOwner",
      "outputs": [],
      "stateMutability": "nonpayable",
      "type": "function"
    },
    {
      "inputs": [
        {
          "internalType": "enum Library.PaymentPlans",
          "name": "newPaymentPlan",
          "type": "uint8"
        }
      ],
      "name": "changePaymentPlan",
      "outputs": [],
      "stateMutability": "nonpayable",
      "type": "function"
    },
    {
      "inputs": [
        {
          "internalType": "uint256",
          "name": "newLifeTime",
          "type": "uint256"
        }
      ],
      "name": "changeOffersLifeTime",
      "outputs": [],
      "stateMutability": "nonpayable",
      "type": "function"
    },
    {
      "inputs": [
        {
          "internalType": "uint256",
          "name": "newAmount",
          "type": "uint256"
        },
        {
          "internalType": "uint256",
          "name": "newDecimals",
          "type": "uint256"
        }
      ],
      "name": "changeOwnerTransferFees",
      "outputs": [],
      "stateMutability": "nonpayable",
      "type": "function"
    },
    {
      "inputs": [
        {
          "internalType": "uint256",
          "name": "tokenId",
          "type": "uint256"
        },
        {
          "internalType": "address",
          "name": "receiver",
          "type": "address"
        },
        {
          "internalType": "uint256",
          "name": "price",
          "type": "uint256"
        },
        {
          "internalType": "bool",
          "name": "FromCredit",
          "type": "bool"
        }
      ],
      "name": "mintToken",
      "outputs": [],
      "stateMutability": "nonpayable",
      "type": "function"
    },
    {
      "inputs": [
        {
          "internalType": "uint256",
          "name": "tokenId",
          "type": "uint256"
        },
        {
          "internalType": "uint256",
          "name": "price",
          "type": "uint256"
        }
      ],
      "name": "setTokenPrice",
      "outputs": [],
      "stateMutability": "nonpayable",
      "type": "function"
    },
    {
      "inputs": [
        {
          "internalType": "uint256",
          "name": "tokenId",
          "type": "uint256"
        }
      ],
      "name": "acceptOffer",
      "outputs": [],
      "stateMutability": "nonpayable",
      "type": "function"
    },
    {
      "inputs": [
        {
          "internalType": "uint256",
          "name": "tokenId",
          "type": "uint256"
        }
      ],
      "name": "rejectOffer",
      "outputs": [],
      "stateMutability": "nonpayable",
      "type": "function"
    },
    {
      "inputs": [
        {
          "internalType": "uint256",
          "name": "tokenId",
          "type": "uint256"
        },
        {
          "internalType": "address",
          "name": "bidder",
          "type": "address"
        },
        {
          "internalType": "uint256",
          "name": "offer",
          "type": "uint256"
        },
        {
          "internalType": "bool",
          "name": "FromCredit",
          "type": "bool"
        }
      ],
      "name": "submitOffer",
      "outputs": [],
      "stateMutability": "nonpayable",
      "type": "function"
    },
    {
      "inputs": [
        {
          "internalType": "uint256",
          "name": "tokenId",
          "type": "uint256"
        }
      ],
      "name": "withdrawOffer",
      "outputs": [],
      "stateMutability": "nonpayable",
      "type": "function"
    },
    {
      "inputs": [],
      "name": "retrieveIssuer",
      "outputs": [
        {
          "components": [
            {
              "internalType": "address",
              "name": "_owner",
              "type": "address"
            },
            {
              "internalType": "string",
              "name": "_name",
              "type": "string"
            },
            {
              "internalType": "string",
              "name": "_symbol",
              "type": "string"
            },
            {
              "internalType": "uint256",
              "name": "_feeAmount",
              "type": "uint256"
            },
            {
              "internalType": "uint256",
              "name": "_feeDecimals",
              "type": "uint256"
            },
            {
              "internalType": "enum Library.PaymentPlans",
              "name": "_paymentPlan",
              "type": "uint8"
            }
          ],
          "internalType": "struct ItemsLibrary._issuerStruct",
          "name": "",
          "type": "tuple"
        },
        {
          "internalType": "uint256",
          "name": "",
          "type": "uint256"
        }
      ],
      "stateMutability": "view",
      "type": "function"
    },
    {
      "inputs": [
        {
          "internalType": "uint256",
          "name": "tokenId",
          "type": "uint256"
        }
      ],
      "name": "retrieveToken",
      "outputs": [
        {
          "components": [
            {
              "internalType": "enum Library.PaymentPlans",
              "name": "_paymentPlan",
              "type": "uint8"
            },
            {
              "internalType": "uint256",
              "name": "_price",
              "type": "uint256"
            }
          ],
          "internalType": "struct INFTMarket._tokenStruct",
          "name": "",
          "type": "tuple"
        },
        {
          "internalType": "address",
          "name": "",
          "type": "address"
        }
      ],
      "stateMutability": "view",
      "type": "function"
    },
    {
      "inputs": [
        {
          "internalType": "uint256",
          "name": "tokenId",
          "type": "uint256"
        }
      ],
      "name": "retrieveOffer",
      "outputs": [
        {
          "components": [
            {
              "internalType": "uint256",
              "name": "_offer",
              "type": "uint256"
            },
            {
              "internalType": "address",
              "name": "_sender",
              "type": "address"
            },
            {
              "internalType": "address",
              "name": "_bidder",
              "type": "address"
            },
            {
              "internalType": "uint256",
              "name": "_deadline",
              "type": "uint256"
            }
          ],
          "internalType": "struct INFTMarket._offerStruct",
          "name": "",
          "type": "tuple"
        }
      ],
      "stateMutability": "view",
      "type": "function"
    }
  ],
  "bytecode": "0x608060405234801561001057600080fd5b506149d3806100206000396000f3fe608060405234801561001057600080fd5b50600436106101545760003560e01c806301ffc9a71461015957806306fdde0314610181578063081812fc14610196578063095ea7b3146101b657806323b872dd146101cb57806342842e0e146101de5780635542f680146101f15780635b362e84146102125780636352211e14610229578063709f3a4d1461023c57806370a082311461024f5780638610f0451461027057806388b10c751461028357806393f82e161461029657806395d89b41146102a957806398a7541d146102b15780639d16764f146102c4578063a22cb465146102d7578063a6f9dae1146102ea578063aa918550146102fd578063b88d4fde14610310578063c815729d14610323578063c87b56dd14610336578063ca25f9e414610349578063cc3ff7281461035f578063cf0ba57514610372578063e985e9c514610432578063eb685c4714610445575b600080fd5b61016c610167366004613f4a565b610458565b60405190151581526020015b60405180910390f35b6101896104aa565b604051610178919061428a565b6101a96101a436600461401b565b61053c565b6040516101789190614156565b6101c96101c4366004613d54565b6105c9565b005b6101c96101d9366004613c5f565b6106da565b6101c96101ec366004613c5f565b61070c565b6102046101ff36600461401b565b610727565b604051610178929190614560565b6000546201000090046001600160a01b03166101a9565b6101a961023736600461401b565b6107a0565b6101c961024a366004614034565b610817565b61026261025d366004613b49565b6110f9565b604051908152602001610178565b6101c961027e36600461401b565b611180565b6101c961029136600461401b565b611273565b6101c96102a4366004613ffa565b611310565b6101896113b2565b6101c96102bf366004613b9f565b6113c1565b6101c96102d236600461401b565b611527565b6101c96102e5366004613d1f565b61158f565b6101c96102f8366004613b49565b61159e565b6101c961030b36600461407c565b611634565b6101c961031e366004613ca0565b611718565b6101c961033136600461401b565b611750565b61018961034436600461401b565b611e9c565b610351611f74565b6040516101789291906144d8565b6101c961036d366004614034565b611ff5565b6103f161038036600461401b565b6040805160808082018352600080835260208084018290528385018290526060938401829052948152609d8552839020835191820184528054825260018101546001600160a01b03908116958301959095526002810154909416928101929092526003909201549181019190915290565b60408051825181526020808401516001600160a01b039081169183019190915283830151169181019190915260609182015191810191909152608001610178565b61016c610440366004613b66565b6126ff565b6101c961045336600461407c565b61272d565b60006001600160e01b031982166380ac58cd60e01b148061048957506001600160e01b03198216635b5e139f60e01b145b806104a457506301ffc9a760e01b6001600160e01b03198316145b92915050565b6060606580546104b990614877565b80601f01602080910402602001604051908101604052809291908181526020018280546104e590614877565b80156105325780601f1061050757610100808354040283529160200191610532565b820191906000526020600020905b81548152906001019060200180831161051557829003601f168201915b5050505050905090565b6000610547826127b1565b6105ad5760405162461bcd60e51b815260206004820152602c60248201527f4552433732313a20617070726f76656420717565727920666f72206e6f6e657860448201526b34b9ba32b73a103a37b5b2b760a11b60648201526084015b60405180910390fd5b506000908152606960205260409020546001600160a01b031690565b60006105d4826107a0565b9050806001600160a01b0316836001600160a01b031614156106425760405162461bcd60e51b815260206004820152602160248201527f4552433732313a20617070726f76616c20746f2063757272656e74206f776e656044820152603960f91b60648201526084016105a4565b336001600160a01b038216148061065e575061065e81336126ff565b6106cb5760405162461bcd60e51b815260206004820152603860248201527f4552433732313a20617070726f76652063616c6c6572206973206e6f74206f776044820152771b995c881b9bdc88185c1c1c9bdd995908199bdc88185b1b60421b60648201526084016105a4565b6106d583836127ce565b505050565b6106e5335b8261283c565b6107015760405162461bcd60e51b81526004016105a490614405565b6106d5838383612906565b6106d583838360405180602001604052806000815250611718565b60408051808201909152600080825260208201526000828152609c60205260408120610752846107a0565b6040805180820190915282548390829060ff1660018111156107765761077661490d565b60018111156107875761078761490d565b8152602001600182015481525050915091509150915091565b6000818152606760205260408120546001600160a01b0316806104a45760405162461bcd60e51b815260206004820152602960248201527f4552433732313a206f776e657220717565727920666f72206e6f6e657869737460448201526832b73a103a37b5b2b760b91b60648201526084016105a4565b60975433906001600160a01b031681146108435760405162461bcd60e51b81526004016105a49061429d565b60008080609754600160a01b900460ff1660018111156108655761086561490d565b14156110535760008060029054906101000a90046001600160a01b03166001600160a01b031663e220ad956040518163ffffffff1660e01b815260040160006040518083038186803b1580156108ba57600080fd5b505afa1580156108ce573d6000803e3d6000fd5b505050506040513d6000823e601f3d908101601f191682016040526108f69190810190613d80565b60028151811061090857610908614923565b60200260200101516001600160a01b031663b049473f6040518163ffffffff1660e01b815260040160006040518083038186803b15801561094857600080fd5b505afa15801561095c573d6000803e3d6000fd5b505050506040513d6000823e601f3d908101601f191682016040526109849190810190613e20565b90508060028151811061099957610999614923565b60200260200101516000815181106109b3576109b3614923565b6020026020010151925080600360088111156109d1576109d161490d565b815181106109e1576109e1614923565b60200260200101516000815181106109fb576109fb614923565b602002602001015191508415610d6e57600060029054906101000a90046001600160a01b03166001600160a01b031663e220ad956040518163ffffffff1660e01b815260040160006040518083038186803b158015610a5957600080fd5b505afa158015610a6d573d6000803e3d6000fd5b505050506040513d6000823e601f3d908101601f19168201604052610a959190810190613d80565b600181518110610aa757610aa7614923565b60200260200101516001600160a01b03166304226b88609b543386600060029054906101000a90046001600160a01b03166001600160a01b031663e220ad956040518163ffffffff1660e01b815260040160006040518083038186803b158015610b1057600080fd5b505afa158015610b24573d6000803e3d6000fd5b505050506040513d6000823e601f3d908101601f19168201604052610b4c9190810190613d80565b600281518110610b5e57610b5e614923565b602002602001015160006040518663ffffffff1660e01b8152600401610b889594939291906145c2565b600060405180830381600087803b158015610ba257600080fd5b505af1158015610bb6573d6000803e3d6000fd5b50505050600060029054906101000a90046001600160a01b03166001600160a01b031663e220ad956040518163ffffffff1660e01b815260040160006040518083038186803b158015610c0857600080fd5b505afa158015610c1c573d6000803e3d6000fd5b505050506040513d6000823e601f3d908101601f19168201604052610c449190810190613d80565b600181518110610c5657610c56614923565b60200260200101516001600160a01b03166304226b88609b543385600060029054906101000a90046001600160a01b03166001600160a01b031663e220ad956040518163ffffffff1660e01b815260040160006040518083038186803b158015610cbf57600080fd5b505afa158015610cd3573d6000803e3d6000fd5b505050506040513d6000823e601f3d908101601f19168201604052610cfb9190810190613d80565b600581518110610d0d57610d0d614923565b602002602001015160006040518663ffffffff1660e01b8152600401610d379594939291906145c2565b600060405180830381600087803b158015610d5157600080fd5b505af1158015610d65573d6000803e3d6000fd5b50505050611051565b60008060029054906101000a90046001600160a01b03166001600160a01b031663e220ad956040518163ffffffff1660e01b815260040160006040518083038186803b158015610dbd57600080fd5b505afa158015610dd1573d6000803e3d6000fd5b505050506040513d6000823e601f3d908101601f19168201604052610df99190810190613d80565b600681518110610e0b57610e0b614923565b60200260200101519050806001600160a01b0316632c2ec26833600060029054906101000a90046001600160a01b03166001600160a01b031663e220ad956040518163ffffffff1660e01b815260040160006040518083038186803b158015610e7357600080fd5b505afa158015610e87573d6000803e3d6000fd5b505050506040513d6000823e601f3d908101601f19168201604052610eaf9190810190613d80565b600281518110610ec157610ec1614923565b602002602001015187609b546040518060200160405280600081525060006040518763ffffffff1660e01b8152600401610f00969594939291906141a7565b600060405180830381600087803b158015610f1a57600080fd5b505af1158015610f2e573d6000803e3d6000fd5b50505050806001600160a01b0316632c2ec26833600060029054906101000a90046001600160a01b03166001600160a01b031663e220ad956040518163ffffffff1660e01b815260040160006040518083038186803b158015610f9057600080fd5b505afa158015610fa4573d6000803e3d6000fd5b505050506040513d6000823e601f3d908101601f19168201604052610fcc9190810190613d80565b600581518110610fde57610fde614923565b602002602001015186609b546040518060200160405280600081525060006040518763ffffffff1660e01b815260040161101d969594939291906141a7565b600060405180830381600087803b15801561103757600080fd5b505af115801561104b573d6000803e3d6000fd5b50505050505b505b61105d8688612a94565b6000878152609c6020526040902060018082018790556097548254600160a01b90910460ff16929160ff1990911690838181111561109d5761109d61490d565b021790555060975460405188917f242baeff65c6a414799795196406344b40c33e2f112a0f415ef41cc7bbd960e6916110e8918a918a91600160a01b900460ff1690889088906141f4565b60405180910390a250505050505050565b60006001600160a01b0382166111645760405162461bcd60e51b815260206004820152602a60248201527f4552433732313a2062616c616e636520717565727920666f7220746865207a65604482015269726f206164647265737360b01b60648201526084016105a4565b506001600160a01b031660009081526068602052604090205490565b80600080828152609d602052604090206003015442116111b25760405162461bcd60e51b81526004016105a490614333565b6000838152609d60205260409020600101546001600160a01b031633146112315760405162461bcd60e51b815260206004820152602d60248201527f4f6e6c7920746865206f726967696e616c2073656e6465722063616e2077697460448201526c1a191c985dc81d1a1948189a59609a1b60648201526084016105a4565b61123a83612aae565b61124383612cb9565b60405183907f94b71a540d883ff6ff22bd47377cfb303fb9e624812d909e0f04198e606b37df90600090a2505050565b8061127d336106df565b6112995760405162461bcd60e51b81526004016105a4906143b8565b8160016000828152609d60205260409020600301544211156112cd5760405162461bcd60e51b81526004016105a490614456565b6112d684612aae565b6112df84612cb9565b60405184907f8066a8132ff25ec62d01ed52cd55ddbae09c3c3e07e29d7c3de2ab2f44312aa390600090a250505050565b60975433906001600160a01b0316811461133c5760405162461bcd60e51b81526004016105a49061429d565b7f0f6280276bfde6f31b6ca64ae1d1b7443f954a37caad3b1504f361841ec93e39609760149054906101000a900460ff168360405161137c92919061426f565b60405180910390a16097805483919060ff60a01b1916600160a01b8360018111156113a9576113a961490d565b02179055505050565b6060606680546104b990614877565b600054610100900460ff166113dc5760005460ff16156113e0565b303b155b6113fc5760405162461bcd60e51b81526004016105a49061436a565b600054610100900460ff1615801561141e576000805461ffff19166101011790555b848473__Library_______________________________63bdbff48783836040518363ffffffff1660e01b81526004016114599291906145f0565b60006040518083038186803b15801561147157600080fd5b505af4158015611485573d6000803e3d6000fd5b505050506114928c612cf0565b61149c8a8a612d84565b609780546001600160a01b0319166001600160a01b038d1617905560ff841660018111156114cc576114cc61490d565b6097805460ff60a01b1916600160a01b8360018111156114ee576114ee61490d565b0217905550505060988690556099859055609a849055609b839055801561151b576000805461ff00191690555b50505050505050505050565b60975433906001600160a01b031681146115535760405162461bcd60e51b81526004016105a49061429d565b6098546040518381527ff3c2669e9a3f991cccc770ce527bedc7455f04ceb7e85ab4a76010664264a5a89060200160405180910390a250609855565b61159a338383612dc5565b5050565b60975433906001600160a01b031681146115ca5760405162461bcd60e51b81526004016105a49061429d565b6097546040516001600160a01b03909116907f8ed2cc08e61acbfdbcf3b71ad64556a3bf3968c3eb0f63e668fa50743e2db37c90611609908590614156565b60405180910390a250609780546001600160a01b0319166001600160a01b0392909216919091179055565b60975433906001600160a01b031681146116605760405162461bcd60e51b81526004016105a49061429d565b828273__Library_______________________________63bdbff48783836040518363ffffffff1660e01b815260040161169b9291906145f0565b60006040518083038186803b1580156116b357600080fd5b505af41580156116c7573d6000803e3d6000fd5b50505050609a546099547f66b7f276cd6890c8ca84d869084baa18448ac900272b64d7ba639478f0afbcd887876040516117029291906145f0565b60405180910390a3505050609991909155609a55565b611722338361283c565b61173e5760405162461bcd60e51b81526004016105a490614405565b61174a84848484612e90565b50505050565b8061175a336106df565b6117765760405162461bcd60e51b81526004016105a4906143b8565b8160016000828152609d60205260409020600301544211156117aa5760405162461bcd60e51b81526004016105a490614456565b6000848152609d60205260409020600201546001600160a01b03166117ce856107a0565b6001600160a01b0316857fa598be7ff8ec838cdd72553d46ff4674ec76cf208fcc326c63ff80b03f491da8609d60008981526020019081526020016000206000015460405161181f91815260200190565b60405180910390a460008060008061183688612ec3565b9350935093509350600082848661184d91906146fe565b61185791906146fe565b60405163bdbff48760e01b815290915073__Library_______________________________9063bdbff4879061189390849086906004016145f0565b60006040518083038186803b1580156118ab57600080fd5b505af41580156118bf573d6000803e3d6000fd5b505050506000818360026118d391906146fe565b6118de90600a61476d565b6118e89190614834565b90506119296118f68b6107a0565b60008c8152609d602090815260408083206002015481519283019091529181526001600160a01b03909116908d90612e90565b611b0f8a6040518060800160405280600060029054906101000a90046001600160a01b03166001600160a01b031663e220ad956040518163ffffffff1660e01b815260040160006040518083038186803b15801561198657600080fd5b505afa15801561199a573d6000803e3d6000fd5b505050506040513d6000823e601f3d908101601f191682016040526119c29190810190613d80565b6002815181106119d4576119d4614923565b60200260200101516001600160a01b03166001600160a01b03168152602001600060029054906101000a90046001600160a01b03166001600160a01b031663e220ad956040518163ffffffff1660e01b815260040160006040518083038186803b158015611a4157600080fd5b505afa158015611a55573d6000803e3d6000fd5b505050506040513d6000823e601f3d908101601f19168201604052611a7d9190810190613d80565b600581518110611a8f57611a8f614923565b6020908102919091018101516001600160a01b0390811683526097541690820152604001611abc8e6107a0565b6001600160a01b03166001600160a01b031681525060405180608001604052808981526020018881526020018a815260200185815250609d60008f815260200190815260200160002060000154876131cf565b611b188a612cb9565b600060029054906101000a90046001600160a01b03166001600160a01b031663e220ad956040518163ffffffff1660e01b815260040160006040518083038186803b158015611b6657600080fd5b505afa158015611b7a573d6000803e3d6000fd5b505050506040513d6000823e601f3d908101601f19168201604052611ba29190810190613d80565b600181518110611bb457611bb4614923565b60200260200101516001600160a01b031663a37b58d5609b54600060029054906101000a90046001600160a01b03166001600160a01b031663e220ad956040518163ffffffff1660e01b815260040160006040518083038186803b158015611c1b57600080fd5b505afa158015611c2f573d6000803e3d6000fd5b505050506040513d6000823e601f3d908101601f19168201604052611c579190810190613d80565b600281518110611c6957611c69614923565b60200260200101516000604051806020016040528060008152506040518563ffffffff1660e01b8152600401611ca29493929190614595565b600060405180830381600087803b158015611cbc57600080fd5b505af1158015611cd0573d6000803e3d6000fd5b50505050600060029054906101000a90046001600160a01b03166001600160a01b031663e220ad956040518163ffffffff1660e01b815260040160006040518083038186803b158015611d2257600080fd5b505afa158015611d36573d6000803e3d6000fd5b505050506040513d6000823e601f3d908101601f19168201604052611d5e9190810190613d80565b600181518110611d7057611d70614923565b60200260200101516001600160a01b031663a37b58d5609b54600060029054906101000a90046001600160a01b03166001600160a01b031663e220ad956040518163ffffffff1660e01b815260040160006040518083038186803b158015611dd757600080fd5b505afa158015611deb573d6000803e3d6000fd5b505050506040513d6000823e601f3d908101601f19168201604052611e139190810190613d80565b600581518110611e2557611e25614923565b60200260200101516000604051806020016040528060008152506040518563ffffffff1660e01b8152600401611e5e9493929190614595565b600060405180830381600087803b158015611e7857600080fd5b505af1158015611e8c573d6000803e3d6000fd5b5050505050505050505050505050565b6060611ea7826127b1565b611f0b5760405162461bcd60e51b815260206004820152602f60248201527f4552433732314d657461646174613a2055524920717565727920666f72206e6f60448201526e3732bc34b9ba32b73a103a37b5b2b760891b60648201526084016105a4565b6000611f2260408051602081019091526000815290565b90506000815111611f425760405180602001604052806000815250611f6d565b80611f4c8461354a565b604051602001611f5d929190614127565b6040516020818303038152906040525b9392505050565b611f7c6139dd565b6040805160c081019091526097546001600160a01b0316815260009060208101611fa46104aa565b8152602001611fb16113b2565b81526020016099548152602001609a548152602001609760149054906101000a900460ff166001811115611fe757611fe761490d565b815250609854915091509091565b83600080828152609d602052604090206003015442116120275760405162461bcd60e51b81526004016105a490614333565b6000868152609c6020526040902060010154869085908110156120985760405162461bcd60e51b8152602060048201526024808201527f546865206f666665722069732062656c6f7720746865206d696e696d756d20706044820152637269636560e01b60648201526084016105a4565b6000888152609d60205260409020600101546001600160a01b0316156120c1576120c188612aae565b84156121ed57600060029054906101000a90046001600160a01b03166001600160a01b031663e220ad956040518163ffffffff1660e01b815260040160006040518083038186803b15801561211557600080fd5b505afa158015612129573d6000803e3d6000fd5b505050506040513d6000823e601f3d908101601f191682016040526121519190810190613d80565b60018151811061216357612163614923565b6020908102919091010151609b5460405163a67a1e3760e01b81526004810191909152602481018a905233604482015260648101889052600060848201526001600160a01b039091169063a67a1e379060a401600060405180830381600087803b1580156121d057600080fd5b505af11580156121e4573d6000803e3d6000fd5b50505050612640565b60408051600380825260808201909252600091602082016060803683375050604051631635719760e31b81526001600482015291925073__UintLibrary___________________________9163b1ab8cb8915060240160206040518083038186803b15801561225b57600080fd5b505af415801561226f573d6000803e3d6000fd5b505050506040513d601f19601f820116820180604052508101906122939190613f31565b816000815181106122a6576122a6614923565b6020908102919091010152609b54604051631635719760e31b8152600481019190915273__UintLibrary___________________________9063b1ab8cb89060240160206040518083038186803b15801561230057600080fd5b505af4158015612314573d6000803e3d6000fd5b505050506040513d601f19601f820116820180604052508101906123389190613f31565b8160018151811061234b5761234b614923565b6020908102919091010152604051631635719760e31b8152600481018a905273__UintLibrary___________________________9063b1ab8cb89060240160206040518083038186803b1580156123a157600080fd5b505af41580156123b5573d6000803e3d6000fd5b505050506040513d601f19601f820116820180604052508101906123d99190613f31565b816002815181106123ec576123ec614923565b6020908102919091010152604051632431a7cf60e01b815260009073__Library_______________________________90632431a7cf9061243190859060040161422b565b60006040518083038186803b15801561244957600080fd5b505af415801561245d573d6000803e3d6000fd5b505050506040513d6000823e601f3d908101601f191682016040526124859190810190613f84565b905060008060029054906101000a90046001600160a01b03166001600160a01b031663e220ad956040518163ffffffff1660e01b815260040160006040518083038186803b1580156124d657600080fd5b505afa1580156124ea573d6000803e3d6000fd5b505050506040513d6000823e601f3d908101601f191682016040526125129190810190613d80565b60068151811061252457612524614923565b60200260200101519050806001600160a01b0316632c2ec26833600060029054906101000a90046001600160a01b03166001600160a01b031663e220ad956040518163ffffffff1660e01b815260040160006040518083038186803b15801561258c57600080fd5b505afa1580156125a0573d6000803e3d6000fd5b505050506040513d6000823e601f3d908101601f191682016040526125c89190810190613d80565b6001815181106125da576125da614923565b60200260200101518c609b548760006040518763ffffffff1660e01b815260040161260a969594939291906141a7565b600060405180830381600087803b15801561262457600080fd5b505af1158015612638573d6000803e3d6000fd5b505050505050505b6000888152609d60205260409020868155600181018054336001600160a01b031991821617909155600290910180549091166001600160a01b03891617905560985461268c90426146fe565b6000898152609d60205260409081902060030191909155516001600160a01b0388169033908a907f65d99335dbbbc33be5c7b3099e49c47fa71f59e1465ae77bca56cb8c951161c5906126ed908b908b909182521515602082015260400190565b60405180910390a45050505050505050565b6001600160a01b039182166000908152606a6020908152604080832093909416825291909152205460ff1690565b81612737336106df565b6127535760405162461bcd60e51b81526004016105a4906143b8565b6000838152609c602090815260409182902060010154915184815285917f1528b9626bd426537e5cbaba09815d2442ce61aae462b89d81f515065e2d971e910160405180910390a3506000918252609c602052604090912060010155565b6000908152606760205260409020546001600160a01b0316151590565b600081815260696020526040902080546001600160a01b0319166001600160a01b0384169081179091558190612803826107a0565b6001600160a01b03167f8c5be1e5ebec7d5bd14f71427d1e84f3dd0314c0f7b2291e5b200ac8c7c3b92560405160405180910390a45050565b6000612847826127b1565b6128a85760405162461bcd60e51b815260206004820152602c60248201527f4552433732313a206f70657261746f7220717565727920666f72206e6f6e657860448201526b34b9ba32b73a103a37b5b2b760a11b60648201526084016105a4565b60006128b3836107a0565b9050806001600160a01b0316846001600160a01b031614806128ee5750836001600160a01b03166128e38461053c565b6001600160a01b0316145b806128fe57506128fe81856126ff565b949350505050565b826001600160a01b0316612919826107a0565b6001600160a01b0316146129815760405162461bcd60e51b815260206004820152602960248201527f4552433732313a207472616e73666572206f6620746f6b656e2074686174206960448201526839903737ba1037bbb760b91b60648201526084016105a4565b6001600160a01b0382166129e35760405162461bcd60e51b8152602060048201526024808201527f4552433732313a207472616e7366657220746f20746865207a65726f206164646044820152637265737360e01b60648201526084016105a4565b6129ee6000826127ce565b6001600160a01b0383166000908152606860205260408120805460019290612a17908490614834565b90915550506001600160a01b0382166000908152606860205260408120805460019290612a459084906146fe565b909155505060008181526067602052604080822080546001600160a01b0319166001600160a01b03868116918217909255915184939187169160008051602061497e83398151915291a4505050565b61159a828260405180602001604052806000815250613647565b60408051600180825281830190925260009160208083019080368337505060408051600180825281830190925292935060009291506020808301908036833750506040805160018082528183019092529293506000929150602080830190803683375050506000858152609d602052604081206001015485519293506001600160a01b031691859190612b4357612b43614923565b6001600160a01b039092166020928302919091018201526000858152609d9091526040812054835190918491612b7b57612b7b614923565b602002602001018181525050600181600081518110612b9c57612b9c614923565b602002602001018181525050600060029054906101000a90046001600160a01b03166001600160a01b031663e220ad956040518163ffffffff1660e01b815260040160006040518083038186803b158015612bf657600080fd5b505afa158015612c0a573d6000803e3d6000fd5b505050506040513d6000823e601f3d908101601f19168201604052612c329190810190613d80565b600181518110612c4457612c44614923565b60200260200101516001600160a01b03166391c0734b609b54868686866040518663ffffffff1660e01b8152600401612c819594939291906145fe565b600060405180830381600087803b158015612c9b57600080fd5b505af1158015612caf573d6000803e3d6000fd5b5050505050505050565b6000908152609d602052604081208181556001810180546001600160a01b0319908116909155600282018054909116905560030155565b600054610100900460ff16612d0b5760005460ff1615612d0f565b303b155b612d2b5760405162461bcd60e51b81526004016105a49061436a565b600054610100900460ff16158015612d4d576000805461ffff19166101011790555b6000805462010000600160b01b031916620100006001600160a01b03851602179055801561159a576000805461ff00191690555050565b600054610100900460ff16612dab5760405162461bcd60e51b81526004016105a49061448d565b612db361367a565b612dbb61367a565b61159a82826136a3565b816001600160a01b0316836001600160a01b03161415612e235760405162461bcd60e51b815260206004820152601960248201527822a9219b99189d1030b8383937bb32903a379031b0b63632b960391b60448201526064016105a4565b6001600160a01b038381166000818152606a6020908152604080832094871680845294825291829020805460ff191686151590811790915591519182527f17307eab39ab6107e8899845ad3d59bd9653f200f220920489ca2b5937696c31910160405180910390a3505050565b612e9b848484612906565b612ea7848484846136f1565b61174a5760405162461bcd60e51b81526004016105a4906142e1565b609954609a546000838152609c602052604081205490928392839283929190839081908190819060ff166001811115612efe57612efe61490d565b600114156131325760008060029054906101000a90046001600160a01b03166001600160a01b031663e220ad956040518163ffffffff1660e01b815260040160006040518083038186803b158015612f5557600080fd5b505afa158015612f69573d6000803e3d6000fd5b505050506040513d6000823e601f3d908101601f19168201604052612f919190810190613d80565b600281518110612fa357612fa3614923565b60200260200101516001600160a01b031663b049473f6040518163ffffffff1660e01b815260040160006040518083038186803b158015612fe357600080fd5b505afa158015612ff7573d6000803e3d6000fd5b505050506040513d6000823e601f3d908101601f1916820160405261301f9190810190613e20565b90508060048151811061303457613034614923565b602002602001015160008151811061304e5761304e614923565b60200260200101519450806005600881111561306c5761306c61490d565b8151811061307c5761307c614923565b602002602001015160008151811061309657613096614923565b6020026020010151935080600660088111156130b4576130b461490d565b815181106130c4576130c4614923565b60200260200101516000815181106130de576130de614923565b6020026020010151925080600760088111156130fc576130fc61490d565b8151811061310c5761310c614923565b602002602001015160008151811061312657613126614923565b60200260200101519150505b60006131576040518060600160405280888152602001868152602001848152506137fe565b90506131638682614834565b61316e90600a61476d565b6131789088614815565b96506131848482614834565b61318f90600a61476d565b6131999086614815565b94506131a58282614834565b6131b090600a61476d565b6131ba9084614815565b969c949b509599509497509195505050505050565b60006131dd60046002614815565b6001600160401b038111156131f4576131f4614939565b60405190808252806020026020018201604052801561321d578160200160208202803683370190505b509050600061322e60046002614815565b6001600160401b0381111561324557613245614939565b60405190808252806020026020018201604052801561326e578160200160208202803683370190505b509050600061327f60046002614815565b6001600160401b0381111561329657613296614939565b6040519080825280602002602001820160405280156132bf578160200160208202803683370190505b50905060008060008060005b6004811015613430576132f58a8c83600481106132ea576132ea614923565b60200201518b61385d565b919650945092508b816004811061330e5761330e614923565b602002015188838151811061332557613325614923565b60200260200101906001600160a01b031690816001600160a01b0316815250508487838151811061335857613358614923565b602090810291909101015260018683613370816148b2565b94508151811061338257613382614923565b6020026020010181815250508b81600481106133a0576133a0614923565b60200201518883815181106133b7576133b7614923565b60200260200101906001600160a01b031690816001600160a01b031681525050838783815181106133ea576133ea614923565b6020908102919091010152828683613401816148b2565b94508151811061341357613413614923565b602090810291909101015280613428816148b2565b9150506132cb565b50600060029054906101000a90046001600160a01b03166001600160a01b031663e220ad956040518163ffffffff1660e01b815260040160006040518083038186803b15801561347f57600080fd5b505afa158015613493573d6000803e3d6000fd5b505050506040513d6000823e601f3d908101601f191682016040526134bb9190810190613d80565b6001815181106134cd576134cd614923565b60200260200101516001600160a01b03166391c0734b609b548e8a8a8a6040518663ffffffff1660e01b815260040161350a9594939291906145fe565b600060405180830381600087803b15801561352457600080fd5b505af1158015613538573d6000803e3d6000fd5b50505050505050505050505050505050565b60608161356e5750506040805180820190915260018152600360fc1b602082015290565b8160005b81156135985780613582816148b2565b91506135919050600a83614716565b9150613572565b6000816001600160401b038111156135b2576135b2614939565b6040519080825280601f01601f1916602001820160405280156135dc576020820181803683370190505b5090505b84156128fe576135f1600183614834565b91506135fe600a866148cd565b6136099060306146fe565b60f81b81838151811061361e5761361e614923565b60200101906001600160f81b031916908160001a905350613640600a86614716565b94506135e0565b61365183836138bd565b61365e60008484846136f1565b6106d55760405162461bcd60e51b81526004016105a4906142e1565b600054610100900460ff166136a15760405162461bcd60e51b81526004016105a49061448d565b565b600054610100900460ff166136ca5760405162461bcd60e51b81526004016105a49061448d565b81516136dd906065906020850190613a2c565b5080516106d5906066906020840190613a2c565b60006001600160a01b0384163b156137f357604051630a85bd0160e11b81526001600160a01b0385169063150b7a029061373590339089908890889060040161416a565b602060405180830381600087803b15801561374f57600080fd5b505af192505050801561377f575060408051601f3d908101601f1916820190925261377c91810190613f67565b60015b6137d9573d8080156137ad576040519150601f19603f3d011682016040523d82523d6000602084013e6137b2565b606091505b5080516137d15760405162461bcd60e51b81526004016105a4906142e1565b805181602001fd5b6001600160e01b031916630a85bd0160e11b1490506128fe565b506001949350505050565b600080805b60038110156138565783816003811061381e5761381e614923565b60200201518210156138445783816003811061383c5761383c614923565b602002015191505b8061384e816148b2565b915050613803565b5092915050565b600080808061386c8688614815565b9050600061387b86600a61476d565b613886906064614815565b905060006138948284614716565b905060006138a28383614815565b6138ac9085614834565b919a91995091975095505050505050565b6001600160a01b0382166139135760405162461bcd60e51b815260206004820181905260248201527f4552433732313a206d696e7420746f20746865207a65726f206164647265737360448201526064016105a4565b61391c816127b1565b156139685760405162461bcd60e51b815260206004820152601c60248201527b115490cdcc8c4e881d1bdad95b88185b1c9958591e481b5a5b9d195960221b60448201526064016105a4565b6001600160a01b03821660009081526068602052604081208054600192906139919084906146fe565b909155505060008181526067602052604080822080546001600160a01b0319166001600160a01b038616908117909155905183929060008051602061497e833981519152908290a45050565b6040518060c0016040528060006001600160a01b031681526020016060815260200160608152602001600081526020016000815260200160006001811115613a2757613a2761490d565b905290565b828054613a3890614877565b90600052602060002090601f016020900481019282613a5a5760008555613aa0565b82601f10613a7357805160ff1916838001178555613aa0565b82800160010185558215613aa0579182015b82811115613aa0578251825591602001919060010190613a85565b50613aac929150613ab0565b5090565b5b80821115613aac5760008155600101613ab1565b6000613ad8613ad3846146d7565b614684565b9050828152838383011115613aec57600080fd5b828260208301376000602084830101529392505050565b80358015158114613b1357600080fd5b919050565b600082601f830112613b2957600080fd5b611f6d83833560208501613ac5565b803560ff81168114613b1357600080fd5b600060208284031215613b5b57600080fd5b8135611f6d8161494f565b60008060408385031215613b7957600080fd5b8235613b848161494f565b91506020830135613b948161494f565b809150509250929050565b60008060008060008060008060006101208a8c031215613bbe57600080fd5b8935613bc98161494f565b985060208a0135613bd98161494f565b975060408a01356001600160401b0380821115613bf557600080fd5b613c018d838e01613b18565b985060608c0135915080821115613c1757600080fd5b50613c248c828d01613b18565b96505060808a0135945060a08a0135935060c08a0135925060e08a01359150613c506101008b01613b38565b90509295985092959850929598565b600080600060608486031215613c7457600080fd5b8335613c7f8161494f565b92506020840135613c8f8161494f565b929592945050506040919091013590565b60008060008060808587031215613cb657600080fd5b8435613cc18161494f565b93506020850135613cd18161494f565b92506040850135915060608501356001600160401b03811115613cf357600080fd5b8501601f81018713613d0457600080fd5b613d1387823560208401613ac5565b91505092959194509250565b60008060408385031215613d3257600080fd5b8235613d3d8161494f565b9150613d4b60208401613b03565b90509250929050565b60008060408385031215613d6757600080fd5b8235613d728161494f565b946020939093013593505050565b60006020808385031215613d9357600080fd5b82516001600160401b03811115613da957600080fd5b8301601f81018513613dba57600080fd5b8051613dc8613ad3826146b4565b80828252848201915084840188868560051b8701011115613de857600080fd5b600094505b83851015613e14578051613e008161494f565b835260019490940193918501918501613ded565b50979650505050505050565b60006020808385031215613e3357600080fd5b82516001600160401b0380821115613e4a57600080fd5b818501915085601f830112613e5e57600080fd5b8151613e6c613ad3826146b4565b80828252858201915085850189878560051b8801011115613e8c57600080fd5b60005b84811015613f2257815186811115613ea657600080fd5b8701603f81018c13613eb757600080fd5b88810151613ec7613ad3826146b4565b808282528b82019150604084018f60408560051b8701011115613ee957600080fd5b600094505b83851015613f0c578051835260019490940193918c01918c01613eee565b5087525050509287019290870190600101613e8f565b50909998505050505050505050565b600060208284031215613f4357600080fd5b5051919050565b600060208284031215613f5c57600080fd5b8135611f6d81614967565b600060208284031215613f7957600080fd5b8151611f6d81614967565b600060208284031215613f9657600080fd5b81516001600160401b03811115613fac57600080fd5b8201601f81018413613fbd57600080fd5b8051613fcb613ad3826146d7565b818152856020838501011115613fe057600080fd5b613ff182602083016020860161484b565b95945050505050565b60006020828403121561400c57600080fd5b813560028110611f6d57600080fd5b60006020828403121561402d57600080fd5b5035919050565b6000806000806080858703121561404a57600080fd5b84359350602085013561405c8161494f565b92506040850135915061407160608601613b03565b905092959194509250565b6000806040838503121561408f57600080fd5b50508035926020909101359150565b600081518084526020808501945080840160005b838110156140ce578151875295820195908201906001016140b2565b509495945050505050565b600081518084526140f181602086016020860161484b565b601f01601f19169290920160200192915050565b6002811061412357634e487b7160e01b600052602160045260246000fd5b9052565b6000835161413981846020880161484b565b83519083019061414d81836020880161484b565b01949350505050565b6001600160a01b0391909116815260200190565b6001600160a01b038581168252841660208201526040810183905260806060820181905260009061419d908301846140d9565b9695505050505050565b6001600160a01b03878116825286166020820152604081018590526060810184905260c0608082018190526000906141e1908301856140d9565b90508260a0830152979650505050505050565b6001600160a01b03861681526020810185905260a081016142186040830186614105565b6060820193909352608001529392505050565b6020808252825182820181905260009190848201906040850190845b8181101561426357835183529284019291840191600101614247565b50909695505050505050565b6040810161427d8285614105565b611f6d6020830184614105565b602081526000611f6d60208301846140d9565b60208082526024908201527f4f6e6c7920746865204f776e657220697320616c6c6f77656420746f20646f206040820152631d1a185d60e21b606082015260800190565b60208082526032908201527f4552433732313a207472616e7366657220746f206e6f6e20455243373231526560408201527131b2b4bb32b91034b6b83632b6b2b73a32b960711b606082015260800190565b6020808252601d908201527f546865726520697320616e206f6666657220696e2070726f6772657373000000604082015260600190565b6020808252602e908201527f496e697469616c697a61626c653a20636f6e747261637420697320616c72656160408201526d191e481a5b9a5d1a585b1a5e995960921b606082015260800190565b6020808252602d908201527f4f6e6c79206f776e6572206f7220617070726f7665642063616e206368616e6760408201526c6520746f6b656e20707269636560981b606082015260800190565b60208082526031908201527f4552433732313a207472616e736665722063616c6c6572206973206e6f74206f6040820152701ddb995c881b9bdc88185c1c1c9bdd9959607a1b606082015260800190565b6020808252601d908201527f5468657265206973206e6f206f6666657220696e2070726f6772657373000000604082015260600190565b6020808252602b908201527f496e697469616c697a61626c653a20636f6e7472616374206973206e6f74206960408201526a6e697469616c697a696e6760a81b606082015260800190565b604080825283516001600160a01b031690820152602083015160c060608301526000906145096101008401826140d9565b90506040850151603f1984830301608085015261452682826140d9565b915050606085015160a0840152608085015160c084015260a085015161454f60e0850182614105565b506020929092019290925292915050565b6000606082019050614573828551614105565b602093840151938201939093526001600160a01b039190911660409091015290565b84815260018060a01b038416602082015282604082015260806060820152600061419d60808301846140d9565b9485526001600160a01b03938416602086015260408501929092529091166060830152608082015260a00190565b918252602082015260400190565b600060a082018783526020878185015260a0604085015281875180845260c086019150828901935060005b8181101561464e5784516001600160a01b031683529383019391830191600101614629565b50508481036060860152614662818861409e565b925050508281036080840152614678818561409e565b98975050505050505050565b604051601f8201601f191681016001600160401b03811182821017156146ac576146ac614939565b604052919050565b60006001600160401b038211156146cd576146cd614939565b5060051b60200190565b60006001600160401b038211156146f0576146f0614939565b50601f01601f191660200190565b60008219821115614711576147116148e1565b500190565b600082614725576147256148f7565b500490565b600181815b8085111561476557816000190482111561474b5761474b6148e1565b8085161561475857918102915b93841c939080029061472f565b509250929050565b6000611f6d8383600082614783575060016104a4565b81614790575060006104a4565b81600181146147a657600281146147b0576147cc565b60019150506104a4565b60ff8411156147c1576147c16148e1565b50506001821b6104a4565b5060208310610133831016604e8410600b84101617156147ef575081810a6104a4565b6147f9838361472a565b806000190482111561480d5761480d6148e1565b029392505050565b600081600019048311821515161561482f5761482f6148e1565b500290565b600082821015614846576148466148e1565b500390565b60005b8381101561486657818101518382015260200161484e565b8381111561174a5750506000910152565b600181811c9082168061488b57607f821691505b602082108114156148ac57634e487b7160e01b600052602260045260246000fd5b50919050565b60006000198214156148c6576148c66148e1565b5060010190565b6000826148dc576148dc6148f7565b500690565b634e487b7160e01b600052601160045260246000fd5b634e487b7160e01b600052601260045260246000fd5b634e487b7160e01b600052602160045260246000fd5b634e487b7160e01b600052603260045260246000fd5b634e487b7160e01b600052604160045260246000fd5b6001600160a01b038116811461496457600080fd5b50565b6001600160e01b03198116811461496457600080fdfeddf252ad1be2c89b69c2b068fc378daa952ba7f163c4a11628f55a4df523b3efa26469706673582212208df5599a9c287a30f19ae2c444bc3a8079f8393d61ac18d1ee45f823f2858eff64736f6c63430008070033",
  "immutableReferences": {},
  "source": "// SPDX-License-Identifier: GPL-3.0\r\n\r\npragma solidity 0.8.7;\r\n\r\n/**\r\n Certis Token is an ERC20 Token that grants its holder the right to:\r\n   - Vote on all the systems propositions (changing system configuraiton etc...)\r\n   - Receive Dividends for all the payments forwarded to the Treasury contract\r\n\r\nBefore every token transfer we contact the token gouvernance Base contracts so that the can update the tokens used for voting if needed\r\n\r\n */\r\n\r\nimport \"@openzeppelin/contracts-upgradeable/token/ERC721/ERC721Upgradeable.sol\";\r\nimport \"@openzeppelin/contracts-upgradeable/proxy/utils/Initializable.sol\";\r\nimport \"../Base/ManagedBaseContract.sol\";\r\nimport \"../Libraries/Library.sol\";\r\nimport \"../Libraries/UintLibrary.sol\";\r\nimport \"../Libraries/ItemsLibrary.sol\";\r\nimport \"../Interfaces/ITreasury.sol\";\r\nimport \"../Interfaces/IPool.sol\";\r\nimport \"../Interfaces/INFTMarket.sol\";\r\nimport \"../Interfaces/IPayments.sol\";\r\n\r\n contract NFTMarket is  INFTMarket, Initializable, ManagedBaseContract, ERC721Upgradeable {\r\n    using Library for *;\r\n    using UintLibrary for *;\r\n    using ItemsLibrary for *;\r\n\r\n\r\n  // EVENTS /////////////////////////////////////////\r\n  event _NewOwner(address indexed formerOwner, address newOwner);\r\n  event _NewPaymentPlan(Library.PaymentPlans formerPlan, Library.PaymentPlans newPlan);\r\n  event _NewOffersLifeTime(uint256 indexed formerLifeTime, uint256 newLifeTime);\r\n  event _NewOwnerFees(uint256 indexed formerAmount, uint256 indexed formerDecimals, uint256 newAmount, uint256 newDecimals);\r\n\r\n  event _MintToken(uint256 indexed tokenId, address receiver, uint256 price, Library.PaymentPlans plan, uint256 MintingFee, uint256 AdminMintingFee);\r\n  event _SetTokenPrice(uint256 indexed tokenId, uint256 indexed formerPrice, uint256 newPrice);\r\n  event _SubmitOffer(uint256 indexed tokenId, address indexed sender, address indexed bidder, uint256 offer, bool FromCredit);\r\n  event _AcceptOffer(uint256 indexed tokenId, address indexed formerOwner, address indexed newOwner, uint256 offer);\r\n  event _RejectOffer(uint256 indexed tokenId);\r\n  event _WithdrawOffer(uint256 indexed tokenId);\r\n  \r\n\r\n  // DATA /////////////////////////////////////////\r\n  address _owner;\r\n  Library.PaymentPlans _paymentPlan;\r\n  uint256 _offersLifeTime;\r\n  uint256 _ownerTransferFeeAmount;\r\n  uint256 _ownerTransferFeeDecimals;\r\n  uint256 _issuerID;\r\n\r\n  mapping(uint256 => _tokenStruct) private _tokenInfo;\r\n  mapping(uint256 => _offerStruct) private _tokenOffer;\r\n\r\n\r\n  // MODIFIERS /////////////////////////////////////////\r\n  modifier isTheOwner(address addr){\r\n      require(_owner == addr, \"Only the Owner is allowed to do that\");\r\n      _;\r\n  }\r\n\r\n  modifier isTokenOwnerOrApproved(uint256 tokenId){\r\n      require(_isApprovedOrOwner(_msgSender(), tokenId), \"Only owner or approved can change token price\");\r\n      _;\r\n  }\r\n\r\n  modifier OfferInProgress(uint256 tokenId, bool YesOrNo){\r\n      if(YesOrNo) require(block.timestamp <= _tokenOffer[tokenId]._deadline, \"There is no offer in progress\");\r\n      else require(block.timestamp > _tokenOffer[tokenId]._deadline, \"There is an offer in progress\");\r\n      _;\r\n  }\r\n\r\n  modifier priceOK(uint256 tokenId, uint256 offer){\r\n      require(offer >= _tokenInfo[tokenId]._price, \"The offer is below the minimum price\");\r\n      _;\r\n  }\r\n\r\n  modifier validFees(uint256 fee, uint256 decimals){\r\n    Library.validFees(fee, decimals);\r\n    _;\r\n  }\r\n\r\n  // CONSTRUCTOR /////////////////////////////////////////\r\n  function NFTMarket_init(address managerContractAddress, address owner, string memory name, string memory symbol, uint256 offersLifeTime, uint256 ownerTransferFeeAmount, uint256 ownerTransferFeeDecimals, uint256 issuerID, uint8 paymentPlan) public initializer \r\n    validFees(ownerTransferFeeAmount, ownerTransferFeeDecimals)\r\n  {\r\n      super.ManagedBaseContract_init(managerContractAddress); \r\n      super.__ERC721_init(name, symbol); \r\n\r\n      _owner = owner;\r\n      _paymentPlan = Library.PaymentPlans(paymentPlan);\r\n      _offersLifeTime = offersLifeTime;\r\n      _ownerTransferFeeAmount = ownerTransferFeeAmount;\r\n      _ownerTransferFeeDecimals = ownerTransferFeeDecimals;\r\n      _issuerID = issuerID;\r\n  }\r\n\r\n  // FUNCTIONALITY /////////////////////////////////////////\r\n  function changeOwner(address newOwner) external override\r\n    isTheOwner(msg.sender)\r\n  {\r\n      emit _NewOwner(_owner, newOwner);\r\n      _owner = newOwner;\r\n  }\r\n\r\n  function changePaymentPlan(Library.PaymentPlans newPaymentPlan) external override\r\n    isTheOwner(msg.sender)\r\n  {\r\n      emit _NewPaymentPlan(_paymentPlan, newPaymentPlan);\r\n      _paymentPlan = newPaymentPlan;\r\n  }\r\n\r\n  function changeOffersLifeTime(uint256 newLifeTime) external override\r\n    isTheOwner(msg.sender)\r\n  {\r\n      emit _NewOffersLifeTime(_offersLifeTime, newLifeTime);\r\n      _offersLifeTime = newLifeTime;\r\n  }\r\n\r\n  function changeOwnerTransferFees(uint256 newAmount, uint256 newDecimals) external override\r\n    isTheOwner(msg.sender)\r\n    validFees(newAmount, newDecimals)\r\n  {\r\n      emit _NewOwnerFees(_ownerTransferFeeAmount, _ownerTransferFeeDecimals, newAmount, newDecimals);\r\n      _ownerTransferFeeAmount = newAmount;\r\n      _ownerTransferFeeDecimals = newDecimals;\r\n  }\r\n\r\n  function mintToken(uint256 tokenId, address receiver, uint256 price, bool FromCredit) external override\r\n    isTheOwner(msg.sender)\r\n  {\r\n      uint256 MintingFee = 0;\r\n      uint256 AdminMintingFee = 0;\r\n\r\n      if(_paymentPlan == Library.PaymentPlans.Minting)\r\n      {\r\n        uint[][] memory Prices = ITreasury(_managerContract.retrieveTransparentProxies()[uint256(Library.TransparentProxies.Treasury)]).retrieveSettings();\r\n        MintingFee = Prices[uint256(Library.Prices.MintingFee)][0];\r\n        AdminMintingFee = Prices[uint256(Library.Prices.AdminMintingFee)][0];\r\n\r\n        if(FromCredit){\r\n          IPool(_managerContract.retrieveTransparentProxies()[uint256(Library.TransparentProxies.PublicPool)]).spendCredit(_issuerID, msg.sender, MintingFee, _managerContract.retrieveTransparentProxies()[uint256(Library.TransparentProxies.Treasury)], 0);\r\n          IPool(_managerContract.retrieveTransparentProxies()[uint256(Library.TransparentProxies.PublicPool)]).spendCredit(_issuerID, msg.sender, AdminMintingFee, _managerContract.retrieveTransparentProxies()[uint256(Library.TransparentProxies.AdminPiggyBank)], 0);\r\n        } \r\n        else{\r\n          IPayments payments = IPayments(_managerContract.retrieveTransparentProxies()[uint256(Library.TransparentProxies.Payments)]);\r\n          payments.TransferFrom(msg.sender, _managerContract.retrieveTransparentProxies()[uint256(Library.TransparentProxies.Treasury)], MintingFee, _issuerID, bytes(\"\"), 0);\r\n          payments.TransferFrom(msg.sender, _managerContract.retrieveTransparentProxies()[uint256(Library.TransparentProxies.AdminPiggyBank)], AdminMintingFee, _issuerID, bytes(\"\"), 0);\r\n        }\r\n      }\r\n\r\n      _safeMint(receiver, tokenId);\r\n      _tokenInfo[tokenId]._price = price;\r\n      _tokenInfo[tokenId]._paymentPlan = _paymentPlan;\r\n\r\n      emit _MintToken(tokenId, receiver, price, _paymentPlan, MintingFee, AdminMintingFee);\r\n  }\r\n\r\n  function setTokenPrice(uint256 tokenId, uint256 price) external override\r\n    isTokenOwnerOrApproved(tokenId)\r\n  {\r\n      emit _SetTokenPrice(tokenId, _tokenInfo[tokenId]._price, price);\r\n      _tokenInfo[tokenId]._price = price;\r\n  }\r\n\r\n  function acceptOffer(uint256 tokenId) external override\r\n    isTokenOwnerOrApproved(tokenId)\r\n    OfferInProgress(tokenId, true)\r\n  {\r\n    emit _AcceptOffer(tokenId, ownerOf(tokenId), _tokenOffer[tokenId]._bidder, _tokenOffer[tokenId]._offer);\r\n\r\n    (uint256 OwnerTransferFeeAmount, uint256 TransferFeeAmount, uint256 AdminTransferFeeAmount, uint256 commonDecimals) = getFees(tokenId);\r\n\r\n    uint256 TotalFees = OwnerTransferFeeAmount + TransferFeeAmount + AdminTransferFeeAmount;\r\n    Library.validFees(TotalFees, commonDecimals);\r\n\r\n    uint256 percentageForTokenOwner = 10**(commonDecimals + 2) - TotalFees;\r\n\r\n    _safeTransfer(ownerOf(tokenId), _tokenOffer[tokenId]._bidder, tokenId, \"\");\r\n\r\n    AllocatePercents(tokenId,\r\n      [_managerContract.retrieveTransparentProxies()[uint256(Library.TransparentProxies.Treasury)], _managerContract.retrieveTransparentProxies()[uint256(Library.TransparentProxies.AdminPiggyBank)], _owner, ownerOf(tokenId)],\r\n      [TransferFeeAmount, AdminTransferFeeAmount, OwnerTransferFeeAmount, percentageForTokenOwner],\r\n      _tokenOffer[tokenId]._offer,\r\n      commonDecimals);\r\n\r\n    removeOffer(tokenId);\r\n\r\n    IPool(_managerContract.retrieveTransparentProxies()[uint256(Library.TransparentProxies.PublicPool)]).withdrawAllFor(_issuerID,\r\n      _managerContract.retrieveTransparentProxies()[uint256(Library.TransparentProxies.Treasury)],\r\n      0,\r\n      bytes(\"\"));\r\n    IPool(_managerContract.retrieveTransparentProxies()[uint256(Library.TransparentProxies.PublicPool)]).withdrawAllFor(_issuerID,\r\n      _managerContract.retrieveTransparentProxies()[uint256(Library.TransparentProxies.AdminPiggyBank)],\r\n      0,\r\n      bytes(\"\"));\r\n  }\r\n\r\n  function getFees(uint256 tokenId) internal view returns(uint256, uint256, uint256, uint256)\r\n  {\r\n    uint256 OwnerTransferFeeAmount = _ownerTransferFeeAmount;\r\n    uint256 OwnerTransferFeeDecimals = _ownerTransferFeeDecimals;\r\n    uint256 TransferFeeAmount = 0;\r\n    uint256 TransferFeeDecimals = 0;\r\n    uint256 AdminTransferFeeAmount = 0;\r\n    uint256 AdminTransferFeeDecimals = 0;\r\n\r\n    if(Library.PaymentPlans.TransferFee == _tokenInfo[tokenId]._paymentPlan){\r\n        uint[][] memory Prices = ITreasury(_managerContract.retrieveTransparentProxies()[uint256(Library.TransparentProxies.Treasury)]).retrieveSettings();\r\n        TransferFeeAmount = Prices[uint256(Library.Prices.TransferFeeAmount)][0];\r\n        TransferFeeDecimals = Prices[uint256(Library.Prices.TransferFeeDecimals)][0];\r\n        AdminTransferFeeAmount = Prices[uint256(Library.Prices.AdminTransferFeeAmount)][0];\r\n        AdminTransferFeeDecimals = Prices[uint256(Library.Prices.AdminTransferFeeDecimals)][0];\r\n    }\r\n\r\n    uint256 commonDecimals = getLargest([OwnerTransferFeeDecimals, TransferFeeDecimals, AdminTransferFeeDecimals]); \r\n    OwnerTransferFeeAmount = OwnerTransferFeeAmount * 10**(commonDecimals - OwnerTransferFeeDecimals);\r\n    TransferFeeAmount = TransferFeeAmount * 10**(commonDecimals - TransferFeeDecimals);\r\n    AdminTransferFeeAmount = AdminTransferFeeAmount * 10**(commonDecimals - AdminTransferFeeDecimals);\r\n\r\n    return(OwnerTransferFeeAmount, TransferFeeAmount, AdminTransferFeeAmount, commonDecimals);\r\n  }\r\n    \r\n  function rejectOffer(uint256 tokenId) external override\r\n    isTokenOwnerOrApproved(tokenId)\r\n    OfferInProgress(tokenId, true)\r\n  {\r\n    assignToRejectedSender(tokenId);\r\n    removeOffer(tokenId);\r\n    emit _RejectOffer(tokenId);\r\n  }\r\n\r\n  function removeOffer(uint256 tokenId) internal\r\n  {\r\n    delete(_tokenOffer[tokenId]);\r\n  }\r\n\r\n  function submitOffer(uint256 tokenId, address bidder, uint256 offer, bool FromCredit) external override\r\n    OfferInProgress(tokenId, false)\r\n    priceOK(tokenId, offer)\r\n  {\r\n    if(address(0) != _tokenOffer[tokenId]._sender) assignToRejectedSender(tokenId);\r\n\r\n    if(FromCredit)\r\n      IPool(_managerContract.retrieveTransparentProxies()[uint256(Library.TransparentProxies.PublicPool)]).reuseCredit(_issuerID, tokenId,  msg.sender, offer, 0);\r\n    \r\n    else{\r\n      bytes32[] memory dataArray = new bytes32[](3);\r\n      dataArray[0] = UintLibrary.UintToBytes32(uint256(Library.PublicPoolPaymentTypes.TransferUnassignedCredit));\r\n      dataArray[1] = UintLibrary.UintToBytes32(_issuerID);\r\n      dataArray[2] = UintLibrary.UintToBytes32(tokenId);\r\n      bytes memory data = Library.Bytes32ArrayToBytes(dataArray);\r\n\r\n      IPayments payments = IPayments(_managerContract.retrieveTransparentProxies()[uint256(Library.TransparentProxies.Payments)]);\r\n      payments.TransferFrom(msg.sender, _managerContract.retrieveTransparentProxies()[uint256(Library.TransparentProxies.PublicPool)], offer, _issuerID, data, 0);\r\n    }\r\n\r\n    _tokenOffer[tokenId]._offer = offer;\r\n    _tokenOffer[tokenId]._sender = msg.sender;\r\n    _tokenOffer[tokenId]._bidder = bidder;\r\n    _tokenOffer[tokenId]._deadline = block.timestamp + _offersLifeTime;\r\n\r\n    emit _SubmitOffer(tokenId, msg.sender, bidder, offer, FromCredit);\r\n  }\r\n    \r\n  function withdrawOffer(uint256 tokenId) external override\r\n    OfferInProgress(tokenId, false)\r\n  {\r\n    require(msg.sender == _tokenOffer[tokenId]._sender, \"Only the original sender can withdraw the bid\");\r\n    assignToRejectedSender(tokenId);\r\n    removeOffer(tokenId);\r\n    emit _WithdrawOffer(tokenId);\r\n  }\r\n\r\n  function assignToRejectedSender(uint tokenId) internal\r\n  {\r\n    address[] memory addrs = new address[](1);\r\n    uint256[] memory amounts = new uint256[](1);\r\n    uint256[] memory factors = new uint256[](1);\r\n    addrs[0] = _tokenOffer[tokenId]._sender;\r\n    amounts[0] = _tokenOffer[tokenId]._offer;\r\n    factors[0] = 1;\r\n    IPool(_managerContract.retrieveTransparentProxies()[uint256(Library.TransparentProxies.PublicPool)]).addCredit(_issuerID, tokenId, addrs, amounts, factors);\r\n  }\r\n\r\n  function AllocatePercents(uint256 tokenId, address[4] memory destinations, uint256[4] memory percentages, uint256 offer, uint256 commonDecimals) internal\r\n  {\r\n    address[] memory addrs = new address[](2 * destinations.length);\r\n    uint256[] memory amounts = new uint256[](2 * destinations.length);\r\n    uint256[] memory factors = new uint256[](2 * destinations.length);\r\n    uint quotient = 0;\r\n    uint remainder = 0;\r\n    uint denominator = 0;\r\n    uint pos = 0;\r\n\r\n\r\n    for(uint i=0; i < destinations.length; i++){\r\n      (quotient, remainder, denominator) = CalculatePercents(offer, percentages[i], commonDecimals);\r\n      addrs[pos] = destinations[i];\r\n      amounts[pos] = quotient;\r\n      factors[pos++] = 1;\r\n      addrs[pos] = destinations[i];\r\n      amounts[pos] = remainder;\r\n      factors[pos++] = denominator;\r\n    }\r\n\r\n    IPool(_managerContract.retrieveTransparentProxies()[uint256(Library.TransparentProxies.PublicPool)]).addCredit(_issuerID, \r\n      tokenId, \r\n      addrs, \r\n      amounts, \r\n      factors);\r\n  }\r\n\r\n  function CalculatePercents(uint256 amount, uint256 percentage, uint256 decimals) internal pure returns(uint256, uint256, uint256)\r\n  {\r\n      uint256 numerator = amount * percentage;\r\n      uint256 denominator = 100 * 10**decimals;\r\n\r\n      uint256 quotient = numerator / denominator;\r\n      uint256 remainder = numerator - (quotient * denominator);\r\n\r\n      return(quotient, remainder, denominator);\r\n  }\r\n\r\n  function retrieveIssuer() external override view returns (ItemsLibrary._issuerStruct memory, uint256)\r\n  {\r\n    return(ItemsLibrary._issuerStruct(_owner, name(), symbol(), _ownerTransferFeeAmount, _ownerTransferFeeDecimals, _paymentPlan), _offersLifeTime);\r\n  }\r\n\r\n  function retrieveToken(uint256 tokenId) external override view returns (_tokenStruct memory, address)\r\n  {\r\n    return(_tokenInfo[tokenId], ownerOf(tokenId));\r\n  }\r\n\r\n  function retrieveOffer(uint256 tokenId) external override view returns (_offerStruct memory)\r\n  {\r\n      return(_tokenOffer[tokenId]);\r\n  }\r\n\r\n  function getLargest(uint256[3] memory nums) internal pure returns(uint256)\r\n  {\r\n    uint256 largest = 0;\r\n\r\n    for(uint i=0; i < nums.length; i++)\r\n    {\r\n        if(largest < nums[i])largest = nums[i];\r\n    }\r\n\r\n    return largest;\r\n  }\r\n\r\n }",
  "sourcePath": "C:\\Users\\d-aam\\GitHub\\Originals\\contracts\\MainContracts\\NFTMarket.sol",
  "compiler": {
    "name": "solc",
    "version": "0.8.7+commit.e28d00a7.Emscripten.clang"
  },
  "schemaVersion": "3.4.3",
  "updatedAt": "2022-02-25T10:22:10.708Z",
  "devdoc": {
    "kind": "dev",
    "methods": {
      "approve(address,uint256)": {
        "details": "See {IERC721-approve}."
      },
      "balanceOf(address)": {
        "details": "See {IERC721-balanceOf}."
      },
      "getApproved(uint256)": {
        "details": "See {IERC721-getApproved}."
      },
      "isApprovedForAll(address,address)": {
        "details": "See {IERC721-isApprovedForAll}."
      },
      "name()": {
        "details": "See {IERC721Metadata-name}."
      },
      "ownerOf(uint256)": {
        "details": "See {IERC721-ownerOf}."
      },
      "safeTransferFrom(address,address,uint256)": {
        "details": "See {IERC721-safeTransferFrom}."
      },
      "safeTransferFrom(address,address,uint256,bytes)": {
        "details": "See {IERC721-safeTransferFrom}."
      },
      "setApprovalForAll(address,bool)": {
        "details": "See {IERC721-setApprovalForAll}."
      },
      "supportsInterface(bytes4)": {
        "details": "See {IERC165-supportsInterface}."
      },
      "symbol()": {
        "details": "See {IERC721Metadata-symbol}."
      },
      "tokenURI(uint256)": {
        "details": "See {IERC721Metadata-tokenURI}."
      },
      "transferFrom(address,address,uint256)": {
        "details": "See {IERC721-transferFrom}."
      }
    },
    "version": 1
  },
  "userdoc": {
    "kind": "user",
    "methods": {},
    "version": 1
  }
}