{
  "contractName": "OriginalsToken",
  "abi": [
    {
      "anonymous": false,
      "inputs": [
        {
          "indexed": true,
          "internalType": "address",
          "name": "owner",
          "type": "address"
        },
        {
          "indexed": true,
          "internalType": "address",
          "name": "spender",
          "type": "address"
        },
        {
          "indexed": false,
          "internalType": "uint256",
          "name": "value",
          "type": "uint256"
        }
      ],
      "name": "Approval",
      "type": "event"
    },
    {
      "anonymous": false,
      "inputs": [
        {
          "indexed": true,
          "internalType": "address",
          "name": "from",
          "type": "address"
        },
        {
          "indexed": true,
          "internalType": "address",
          "name": "to",
          "type": "address"
        },
        {
          "indexed": false,
          "internalType": "uint256",
          "name": "value",
          "type": "uint256"
        }
      ],
      "name": "Transfer",
      "type": "event"
    },
    {
      "inputs": [
        {
          "internalType": "address",
          "name": "owner",
          "type": "address"
        },
        {
          "internalType": "address",
          "name": "spender",
          "type": "address"
        }
      ],
      "name": "allowance",
      "outputs": [
        {
          "internalType": "uint256",
          "name": "",
          "type": "uint256"
        }
      ],
      "stateMutability": "view",
      "type": "function"
    },
    {
      "inputs": [
        {
          "internalType": "address",
          "name": "spender",
          "type": "address"
        },
        {
          "internalType": "uint256",
          "name": "amount",
          "type": "uint256"
        }
      ],
      "name": "approve",
      "outputs": [
        {
          "internalType": "bool",
          "name": "",
          "type": "bool"
        }
      ],
      "stateMutability": "nonpayable",
      "type": "function"
    },
    {
      "inputs": [
        {
          "internalType": "address",
          "name": "account",
          "type": "address"
        }
      ],
      "name": "balanceOf",
      "outputs": [
        {
          "internalType": "uint256",
          "name": "",
          "type": "uint256"
        }
      ],
      "stateMutability": "view",
      "type": "function"
    },
    {
      "inputs": [
        {
          "internalType": "address",
          "name": "spender",
          "type": "address"
        },
        {
          "internalType": "uint256",
          "name": "subtractedValue",
          "type": "uint256"
        }
      ],
      "name": "decreaseAllowance",
      "outputs": [
        {
          "internalType": "bool",
          "name": "",
          "type": "bool"
        }
      ],
      "stateMutability": "nonpayable",
      "type": "function"
    },
    {
      "inputs": [
        {
          "internalType": "address",
          "name": "spender",
          "type": "address"
        },
        {
          "internalType": "uint256",
          "name": "addedValue",
          "type": "uint256"
        }
      ],
      "name": "increaseAllowance",
      "outputs": [
        {
          "internalType": "bool",
          "name": "",
          "type": "bool"
        }
      ],
      "stateMutability": "nonpayable",
      "type": "function"
    },
    {
      "inputs": [],
      "name": "name",
      "outputs": [
        {
          "internalType": "string",
          "name": "",
          "type": "string"
        }
      ],
      "stateMutability": "view",
      "type": "function"
    },
    {
      "inputs": [],
      "name": "retrieveManagerContract",
      "outputs": [
        {
          "internalType": "address",
          "name": "",
          "type": "address"
        }
      ],
      "stateMutability": "view",
      "type": "function"
    },
    {
      "inputs": [],
      "name": "symbol",
      "outputs": [
        {
          "internalType": "string",
          "name": "",
          "type": "string"
        }
      ],
      "stateMutability": "view",
      "type": "function"
    },
    {
      "inputs": [],
      "name": "totalSupply",
      "outputs": [
        {
          "internalType": "uint256",
          "name": "",
          "type": "uint256"
        }
      ],
      "stateMutability": "view",
      "type": "function"
    },
    {
      "inputs": [
        {
          "internalType": "address",
          "name": "recipient",
          "type": "address"
        },
        {
          "internalType": "uint256",
          "name": "amount",
          "type": "uint256"
        }
      ],
      "name": "transfer",
      "outputs": [
        {
          "internalType": "bool",
          "name": "",
          "type": "bool"
        }
      ],
      "stateMutability": "nonpayable",
      "type": "function"
    },
    {
      "inputs": [
        {
          "internalType": "address",
          "name": "sender",
          "type": "address"
        },
        {
          "internalType": "address",
          "name": "recipient",
          "type": "address"
        },
        {
          "internalType": "uint256",
          "name": "amount",
          "type": "uint256"
        }
      ],
      "name": "transferFrom",
      "outputs": [
        {
          "internalType": "bool",
          "name": "",
          "type": "bool"
        }
      ],
      "stateMutability": "nonpayable",
      "type": "function"
    },
    {
      "inputs": [
        {
          "internalType": "string",
          "name": "name",
          "type": "string"
        },
        {
          "internalType": "string",
          "name": "symbol",
          "type": "string"
        },
        {
          "internalType": "uint256",
          "name": "MaxSupply",
          "type": "uint256"
        },
        {
          "internalType": "address",
          "name": "managerContractAddress",
          "type": "address"
        },
        {
          "internalType": "uint8",
          "name": "decimalsValue",
          "type": "uint8"
        },
        {
          "internalType": "address",
          "name": "initialOwner",
          "type": "address"
        }
      ],
      "name": "OriginalsToken_init",
      "outputs": [],
      "stateMutability": "nonpayable",
      "type": "function"
    },
    {
      "inputs": [],
      "name": "decimals",
      "outputs": [
        {
          "internalType": "uint8",
          "name": "",
          "type": "uint8"
        }
      ],
      "stateMutability": "view",
      "type": "function"
    }
  ],
  "bytecode": "0x608060405234801561001057600080fd5b5061230e806100206000396000f3fe608060405234801561001057600080fd5b50600436106100cf5760003560e01c8063395093511161008c57806395d89b411161006657806395d89b4114610228578063a457c2d714610246578063a9059cbb14610276578063dd62ed3e146102a6576100cf565b806339509351146101aa5780635b362e84146101da57806370a08231146101f8576100cf565b806302033cab146100d457806306fdde03146100f0578063095ea7b31461010e57806318160ddd1461013e57806323b872dd1461015c578063313ce5671461018c575b600080fd5b6100ee60048036038101906100e991906117ec565b6102d6565b005b6100f86103f8565b6040516101059190611af1565b60405180910390f35b61012860048036038101906101239190611736565b61048a565b6040516101359190611ad6565b60405180910390f35b6101466104a8565b6040516101539190611c53565b60405180910390f35b610176600480360381019061017191906116e3565b6104b2565b6040516101839190611ad6565b60405180910390f35b6101946105aa565b6040516101a19190611c6e565b60405180910390f35b6101c460048036038101906101bf9190611736565b6105c1565b6040516101d19190611ad6565b60405180910390f35b6101e261066d565b6040516101ef9190611a84565b60405180910390f35b610212600480360381019061020d9190611676565b610696565b60405161021f9190611c53565b60405180910390f35b6102306106df565b60405161023d9190611af1565b60405180910390f35b610260600480360381019061025b9190611736565b610771565b60405161026d9190611ad6565b60405180910390f35b610290600480360381019061028b9190611736565b61085c565b60405161029d9190611ad6565b60405180910390f35b6102c060048036038101906102bb91906116a3565b61087a565b6040516102cd9190611c53565b60405180910390f35b600060019054906101000a900460ff166102fe5760008054906101000a900460ff1615610307565b610306610901565b5b610346576040517f08c379a000000000000000000000000000000000000000000000000000000000815260040161033d90611b73565b60405180910390fd5b60008060019054906101000a900460ff161590508015610396576001600060016101000a81548160ff02191690831515021790555060016000806101000a81548160ff0219169083151502179055505b61039f84610912565b6103a98787610a38565b82606560006101000a81548160ff021916908360ff1602179055506103ce8286610a9d565b80156103ef5760008060016101000a81548160ff0219169083151502179055505b50505050505050565b60606036805461040790611e14565b80601f016020809104026020016040519081016040528092919081815260200182805461043390611e14565b80156104805780601f1061045557610100808354040283529160200191610480565b820191906000526020600020905b81548152906001019060200180831161046357829003601f168201915b5050505050905090565b600061049e610497610bfe565b8484610c06565b6001905092915050565b6000603554905090565b60006104bf848484610dd1565b6000603460008673ffffffffffffffffffffffffffffffffffffffff1673ffffffffffffffffffffffffffffffffffffffff168152602001908152602001600020600061050a610bfe565b73ffffffffffffffffffffffffffffffffffffffff1673ffffffffffffffffffffffffffffffffffffffff1681526020019081526020016000205490508281101561058a576040517f08c379a000000000000000000000000000000000000000000000000000000000815260040161058190611b93565b60405180910390fd5b61059e85610596610bfe565b858403610c06565b60019150509392505050565b6000606560009054906101000a900460ff16905090565b60006106636105ce610bfe565b8484603460006105dc610bfe565b73ffffffffffffffffffffffffffffffffffffffff1673ffffffffffffffffffffffffffffffffffffffff16815260200190815260200160002060008873ffffffffffffffffffffffffffffffffffffffff1673ffffffffffffffffffffffffffffffffffffffff1681526020019081526020016000205461065e9190611d27565b610c06565b6001905092915050565b60008060029054906101000a900473ffffffffffffffffffffffffffffffffffffffff16905090565b6000603360008373ffffffffffffffffffffffffffffffffffffffff1673ffffffffffffffffffffffffffffffffffffffff168152602001908152602001600020549050919050565b6060603780546106ee90611e14565b80601f016020809104026020016040519081016040528092919081815260200182805461071a90611e14565b80156107675780601f1061073c57610100808354040283529160200191610767565b820191906000526020600020905b81548152906001019060200180831161074a57829003601f168201915b5050505050905090565b60008060346000610780610bfe565b73ffffffffffffffffffffffffffffffffffffffff1673ffffffffffffffffffffffffffffffffffffffff16815260200190815260200160002060008573ffffffffffffffffffffffffffffffffffffffff1673ffffffffffffffffffffffffffffffffffffffff1681526020019081526020016000205490508281101561083d576040517f08c379a000000000000000000000000000000000000000000000000000000000815260040161083490611c13565b60405180910390fd5b610851610848610bfe565b85858403610c06565b600191505092915050565b6000610870610869610bfe565b8484610dd1565b6001905092915050565b6000603460008473ffffffffffffffffffffffffffffffffffffffff1673ffffffffffffffffffffffffffffffffffffffff16815260200190815260200160002060008373ffffffffffffffffffffffffffffffffffffffff1673ffffffffffffffffffffffffffffffffffffffff16815260200190815260200160002054905092915050565b600061090c30611055565b15905090565b600060019054906101000a900460ff1661093a5760008054906101000a900460ff1615610943565b610942610901565b5b610982576040517f08c379a000000000000000000000000000000000000000000000000000000000815260040161097990611b73565b60405180910390fd5b60008060019054906101000a900460ff1615905080156109d2576001600060016101000a81548160ff02191690831515021790555060016000806101000a81548160ff0219169083151502179055505b81600060026101000a81548173ffffffffffffffffffffffffffffffffffffffff021916908373ffffffffffffffffffffffffffffffffffffffff1602179055508015610a345760008060016101000a81548160ff0219169083151502179055505b5050565b600060019054906101000a900460ff16610a87576040517f08c379a0000000000000000000000000000000000000000000000000000000008152600401610a7e90611bf3565b60405180910390fd5b610a8f611068565b610a9982826110b9565b5050565b600073ffffffffffffffffffffffffffffffffffffffff168273ffffffffffffffffffffffffffffffffffffffff161415610b0d576040517f08c379a0000000000000000000000000000000000000000000000000000000008152600401610b0490611c33565b60405180910390fd5b610b196000838361113a565b8060356000828254610b2b9190611d27565b9250508190555080603360008473ffffffffffffffffffffffffffffffffffffffff1673ffffffffffffffffffffffffffffffffffffffff1681526020019081526020016000206000828254610b819190611d27565b925050819055508173ffffffffffffffffffffffffffffffffffffffff16600073ffffffffffffffffffffffffffffffffffffffff167fddf252ad1be2c89b69c2b068fc378daa952ba7f163c4a11628f55a4df523b3ef83604051610be69190611c53565b60405180910390a3610bfa60008383611457565b5050565b600033905090565b600073ffffffffffffffffffffffffffffffffffffffff168373ffffffffffffffffffffffffffffffffffffffff161415610c76576040517f08c379a0000000000000000000000000000000000000000000000000000000008152600401610c6d90611bd3565b60405180910390fd5b600073ffffffffffffffffffffffffffffffffffffffff168273ffffffffffffffffffffffffffffffffffffffff161415610ce6576040517f08c379a0000000000000000000000000000000000000000000000000000000008152600401610cdd90611b33565b60405180910390fd5b80603460008573ffffffffffffffffffffffffffffffffffffffff1673ffffffffffffffffffffffffffffffffffffffff16815260200190815260200160002060008473ffffffffffffffffffffffffffffffffffffffff1673ffffffffffffffffffffffffffffffffffffffff168152602001908152602001600020819055508173ffffffffffffffffffffffffffffffffffffffff168373ffffffffffffffffffffffffffffffffffffffff167f8c5be1e5ebec7d5bd14f71427d1e84f3dd0314c0f7b2291e5b200ac8c7c3b92583604051610dc49190611c53565b60405180910390a3505050565b600073ffffffffffffffffffffffffffffffffffffffff168373ffffffffffffffffffffffffffffffffffffffff161415610e41576040517f08c379a0000000000000000000000000000000000000000000000000000000008152600401610e3890611bb3565b60405180910390fd5b600073ffffffffffffffffffffffffffffffffffffffff168273ffffffffffffffffffffffffffffffffffffffff161415610eb1576040517f08c379a0000000000000000000000000000000000000000000000000000000008152600401610ea890611b13565b60405180910390fd5b610ebc83838361113a565b6000603360008573ffffffffffffffffffffffffffffffffffffffff1673ffffffffffffffffffffffffffffffffffffffff16815260200190815260200160002054905081811015610f43576040517f08c379a0000000000000000000000000000000000000000000000000000000008152600401610f3a90611b53565b60405180910390fd5b818103603360008673ffffffffffffffffffffffffffffffffffffffff1673ffffffffffffffffffffffffffffffffffffffff1681526020019081526020016000208190555081603360008573ffffffffffffffffffffffffffffffffffffffff1673ffffffffffffffffffffffffffffffffffffffff1681526020019081526020016000206000828254610fd89190611d27565b925050819055508273ffffffffffffffffffffffffffffffffffffffff168473ffffffffffffffffffffffffffffffffffffffff167fddf252ad1be2c89b69c2b068fc378daa952ba7f163c4a11628f55a4df523b3ef8460405161103c9190611c53565b60405180910390a361104f848484611457565b50505050565b600080823b905060008111915050919050565b600060019054906101000a900460ff166110b7576040517f08c379a00000000000000000000000000000000000000000000000000000000081526004016110ae90611bf3565b60405180910390fd5b565b600060019054906101000a900460ff16611108576040517f08c379a00000000000000000000000000000000000000000000000000000000081526004016110ff90611bf3565b60405180910390fd5b816036908051906020019061111e92919061145c565b50806037908051906020019061113592919061145c565b505050565b600060029054906101000a900473ffffffffffffffffffffffffffffffffffffffff1673ffffffffffffffffffffffffffffffffffffffff1663392e53cd6040518163ffffffff1660e01b815260040160206040518083038186803b1580156111a257600080fd5b505afa1580156111b6573d6000803e3d6000fd5b505050506040513d601f19601f820116820180604052508101906111da91906117bf565b156114525760008060029054906101000a900473ffffffffffffffffffffffffffffffffffffffff1673ffffffffffffffffffffffffffffffffffffffff1663e220ad956040518163ffffffff1660e01b815260040160006040518083038186803b15801561124857600080fd5b505afa15801561125c573d6000803e3d6000fd5b505050506040513d6000823e3d601f19601f820116820180604052508101906112859190611776565b9050806002600681111561129c5761129b611ea6565b5b815181106112ad576112ac611f04565b5b602002602001015173ffffffffffffffffffffffffffffffffffffffff16633c7df55d8585856040518463ffffffff1660e01b81526004016112f193929190611a9f565b600060405180830381600087803b15801561130b57600080fd5b505af115801561131f573d6000803e3d6000fd5b50505050806004600681111561133857611337611ea6565b5b8151811061134957611348611f04565b5b602002602001015173ffffffffffffffffffffffffffffffffffffffff16633c7df55d8585856040518463ffffffff1660e01b815260040161138d93929190611a9f565b600060405180830381600087803b1580156113a757600080fd5b505af11580156113bb573d6000803e3d6000fd5b50505050600060029054906101000a900473ffffffffffffffffffffffffffffffffffffffff1673ffffffffffffffffffffffffffffffffffffffff16633c7df55d8585856040518463ffffffff1660e01b815260040161141e93929190611a9f565b600060405180830381600087803b15801561143857600080fd5b505af115801561144c573d6000803e3d6000fd5b50505050505b505050565b505050565b82805461146890611e14565b90600052602060002090601f01602090048101928261148a57600085556114d1565b82601f106114a357805160ff19168380011785556114d1565b828001600101855582156114d1579182015b828111156114d05782518255916020019190600101906114b5565b5b5090506114de91906114e2565b5090565b5b808211156114fb5760008160009055506001016114e3565b5090565b600061151261150d84611cae565b611c89565b9050808382526020820190508285602086028201111561153557611534611f67565b5b60005b85811015611565578161154b88826115c6565b845260208401935060208301925050600181019050611538565b5050509392505050565b600061158261157d84611cda565b611c89565b90508281526020810184848401111561159e5761159d611f6c565b5b6115a9848285611dd2565b509392505050565b6000813590506115c08161227c565b92915050565b6000815190506115d58161227c565b92915050565b600082601f8301126115f0576115ef611f62565b5b81516116008482602086016114ff565b91505092915050565b60008151905061161881612293565b92915050565b600082601f83011261163357611632611f62565b5b813561164384826020860161156f565b91505092915050565b60008135905061165b816122aa565b92915050565b600081359050611670816122c1565b92915050565b60006020828403121561168c5761168b611f76565b5b600061169a848285016115b1565b91505092915050565b600080604083850312156116ba576116b9611f76565b5b60006116c8858286016115b1565b92505060206116d9858286016115b1565b9150509250929050565b6000806000606084860312156116fc576116fb611f76565b5b600061170a868287016115b1565b935050602061171b868287016115b1565b925050604061172c8682870161164c565b9150509250925092565b6000806040838503121561174d5761174c611f76565b5b600061175b858286016115b1565b925050602061176c8582860161164c565b9150509250929050565b60006020828403121561178c5761178b611f76565b5b600082015167ffffffffffffffff8111156117aa576117a9611f71565b5b6117b6848285016115db565b91505092915050565b6000602082840312156117d5576117d4611f76565b5b60006117e384828501611609565b91505092915050565b60008060008060008060c0878903121561180957611808611f76565b5b600087013567ffffffffffffffff81111561182757611826611f71565b5b61183389828a0161161e565b965050602087013567ffffffffffffffff81111561185457611853611f71565b5b61186089828a0161161e565b955050604061187189828a0161164c565b945050606061188289828a016115b1565b935050608061189389828a01611661565b92505060a06118a489828a016115b1565b9150509295509295509295565b6118ba81611d7d565b82525050565b6118c981611d8f565b82525050565b60006118da82611d0b565b6118e48185611d16565b93506118f4818560208601611de1565b6118fd81611f7b565b840191505092915050565b6000611915602383611d16565b915061192082611f8c565b604082019050919050565b6000611938602283611d16565b915061194382611fdb565b604082019050919050565b600061195b602683611d16565b91506119668261202a565b604082019050919050565b600061197e602e83611d16565b915061198982612079565b604082019050919050565b60006119a1602883611d16565b91506119ac826120c8565b604082019050919050565b60006119c4602583611d16565b91506119cf82612117565b604082019050919050565b60006119e7602483611d16565b91506119f282612166565b604082019050919050565b6000611a0a602b83611d16565b9150611a15826121b5565b604082019050919050565b6000611a2d602583611d16565b9150611a3882612204565b604082019050919050565b6000611a50601f83611d16565b9150611a5b82612253565b602082019050919050565b611a6f81611dbb565b82525050565b611a7e81611dc5565b82525050565b6000602082019050611a9960008301846118b1565b92915050565b6000606082019050611ab460008301866118b1565b611ac160208301856118b1565b611ace6040830184611a66565b949350505050565b6000602082019050611aeb60008301846118c0565b92915050565b60006020820190508181036000830152611b0b81846118cf565b905092915050565b60006020820190508181036000830152611b2c81611908565b9050919050565b60006020820190508181036000830152611b4c8161192b565b9050919050565b60006020820190508181036000830152611b6c8161194e565b9050919050565b60006020820190508181036000830152611b8c81611971565b9050919050565b60006020820190508181036000830152611bac81611994565b9050919050565b60006020820190508181036000830152611bcc816119b7565b9050919050565b60006020820190508181036000830152611bec816119da565b9050919050565b60006020820190508181036000830152611c0c816119fd565b9050919050565b60006020820190508181036000830152611c2c81611a20565b9050919050565b60006020820190508181036000830152611c4c81611a43565b9050919050565b6000602082019050611c686000830184611a66565b92915050565b6000602082019050611c836000830184611a75565b92915050565b6000611c93611ca4565b9050611c9f8282611e46565b919050565b6000604051905090565b600067ffffffffffffffff821115611cc957611cc8611f33565b5b602082029050602081019050919050565b600067ffffffffffffffff821115611cf557611cf4611f33565b5b611cfe82611f7b565b9050602081019050919050565b600081519050919050565b600082825260208201905092915050565b6000611d3282611dbb565b9150611d3d83611dbb565b9250827fffffffffffffffffffffffffffffffffffffffffffffffffffffffffffffffff03821115611d7257611d71611e77565b5b828201905092915050565b6000611d8882611d9b565b9050919050565b60008115159050919050565b600073ffffffffffffffffffffffffffffffffffffffff82169050919050565b6000819050919050565b600060ff82169050919050565b82818337600083830152505050565b60005b83811015611dff578082015181840152602081019050611de4565b83811115611e0e576000848401525b50505050565b60006002820490506001821680611e2c57607f821691505b60208210811415611e4057611e3f611ed5565b5b50919050565b611e4f82611f7b565b810181811067ffffffffffffffff82111715611e6e57611e6d611f33565b5b80604052505050565b7f4e487b7100000000000000000000000000000000000000000000000000000000600052601160045260246000fd5b7f4e487b7100000000000000000000000000000000000000000000000000000000600052602160045260246000fd5b7f4e487b7100000000000000000000000000000000000000000000000000000000600052602260045260246000fd5b7f4e487b7100000000000000000000000000000000000000000000000000000000600052603260045260246000fd5b7f4e487b7100000000000000000000000000000000000000000000000000000000600052604160045260246000fd5b600080fd5b600080fd5b600080fd5b600080fd5b600080fd5b6000601f19601f8301169050919050565b7f45524332303a207472616e7366657220746f20746865207a65726f206164647260008201527f6573730000000000000000000000000000000000000000000000000000000000602082015250565b7f45524332303a20617070726f766520746f20746865207a65726f20616464726560008201527f7373000000000000000000000000000000000000000000000000000000000000602082015250565b7f45524332303a207472616e7366657220616d6f756e742065786365656473206260008201527f616c616e63650000000000000000000000000000000000000000000000000000602082015250565b7f496e697469616c697a61626c653a20636f6e747261637420697320616c72656160008201527f647920696e697469616c697a6564000000000000000000000000000000000000602082015250565b7f45524332303a207472616e7366657220616d6f756e742065786365656473206160008201527f6c6c6f77616e6365000000000000000000000000000000000000000000000000602082015250565b7f45524332303a207472616e736665722066726f6d20746865207a65726f20616460008201527f6472657373000000000000000000000000000000000000000000000000000000602082015250565b7f45524332303a20617070726f76652066726f6d20746865207a65726f2061646460008201527f7265737300000000000000000000000000000000000000000000000000000000602082015250565b7f496e697469616c697a61626c653a20636f6e7472616374206973206e6f74206960008201527f6e697469616c697a696e67000000000000000000000000000000000000000000602082015250565b7f45524332303a2064656372656173656420616c6c6f77616e63652062656c6f7760008201527f207a65726f000000000000000000000000000000000000000000000000000000602082015250565b7f45524332303a206d696e7420746f20746865207a65726f206164647265737300600082015250565b61228581611d7d565b811461229057600080fd5b50565b61229c81611d8f565b81146122a757600080fd5b50565b6122b381611dbb565b81146122be57600080fd5b50565b6122ca81611dc5565b81146122d557600080fd5b5056fea2646970667358221220264e77629f09be159d7118db0dea1ccd7a41e9f1c367585e24fa75145fd14d4164736f6c63430008070033",
  "immutableReferences": {},
  "source": "// SPDX-License-Identifier: GPL-3.0\r\n\r\npragma solidity 0.8.7;\r\n\r\n/**\r\n Certis Token is an ERC20 Token that grants its holder the right to:\r\n   - Vote on all the systems propositions (changing system configuraiton etc...)\r\n   - Receive Dividends for all the payments forwarded to the Treasury contract\r\n\r\nBefore every token transfer we contact the token gouvernance Base contracts so that the can update the tokens used for voting if needed\r\n\r\n */\r\n\r\nimport \"@openzeppelin/contracts-upgradeable/token/ERC20/ERC20Upgradeable.sol\";\r\nimport \"@openzeppelin/contracts-upgradeable/proxy/utils/Initializable.sol\";\r\nimport \"../Libraries/AddressLibrary.sol\";\r\nimport \"../Interfaces/ITokenEventSubscriber.sol\";\r\nimport \"../Base/ManagedBaseContract.sol\";\r\n\r\n contract OriginalsToken is  Initializable, ManagedBaseContract, ERC20Upgradeable {\r\n    using AddressLibrary for *;\r\n\r\n    // DATA /////////////////////////////////////////\r\n    // decimals\r\n    uint8 private _decimals;\r\n\r\n    // CONSTRUCTOR /////////////////////////////////////////\r\n    function OriginalsToken_init(string memory name, string memory symbol, uint256 MaxSupply, address managerContractAddress, uint8 decimalsValue, address initialOwner) public initializer {\r\n        super.ManagedBaseContract_init(managerContractAddress);\r\n        super.__ERC20_init(name, symbol);\r\n    \r\n        _decimals = decimalsValue;\r\n        _mint(initialOwner, MaxSupply);\r\n    }\r\n\r\n    // FUNCTIONALITY /////////////////////////////////////////\r\n    function decimals() public view override returns (uint8) \r\n    {\r\n        return _decimals;\r\n    }\r\n\r\n    function _beforeTokenTransfer(address from, address to, uint256 amount) internal override \r\n    {\r\n        if(_managerContract.isInitialized()){\r\n            address[] memory Proxies = _managerContract.retrieveTransparentProxies();\r\n            \r\n            ITokenEventSubscriber(Proxies[uint256(Library.TransparentProxies.Treasury)]).onTokenBalanceChanged(from, to, amount); // Treasury\r\n            ITokenEventSubscriber(Proxies[uint256(Library.TransparentProxies.PropSettings)]).onTokenBalanceChanged(from, to, amount); // Proposition Settings\r\n            ITokenEventSubscriber(address(_managerContract)).onTokenBalanceChanged(from, to, amount); // Certificate Pool Manager\r\n        }\r\n    }\r\n\r\n }",
  "sourcePath": "C:\\Users\\d-aam\\GitHub\\Originals\\contracts\\MainContracts\\OriginalsToken.sol",
  "compiler": {
    "name": "solc",
    "version": "0.8.7+commit.e28d00a7.Emscripten.clang"
  },
  "schemaVersion": "3.4.3",
  "updatedAt": "2022-01-24T12:38:14.705Z",
  "devdoc": {
    "kind": "dev",
    "methods": {
      "allowance(address,address)": {
        "details": "See {IERC20-allowance}."
      },
      "approve(address,uint256)": {
        "details": "See {IERC20-approve}. Requirements: - `spender` cannot be the zero address."
      },
      "balanceOf(address)": {
        "details": "See {IERC20-balanceOf}."
      },
      "decimals()": {
        "details": "Returns the number of decimals used to get its user representation. For example, if `decimals` equals `2`, a balance of `505` tokens should be displayed to a user as `5.05` (`505 / 10 ** 2`). Tokens usually opt for a value of 18, imitating the relationship between Ether and Wei. This is the value {ERC20} uses, unless this function is overridden; NOTE: This information is only used for _display_ purposes: it in no way affects any of the arithmetic of the contract, including {IERC20-balanceOf} and {IERC20-transfer}."
      },
      "decreaseAllowance(address,uint256)": {
        "details": "Atomically decreases the allowance granted to `spender` by the caller. This is an alternative to {approve} that can be used as a mitigation for problems described in {IERC20-approve}. Emits an {Approval} event indicating the updated allowance. Requirements: - `spender` cannot be the zero address. - `spender` must have allowance for the caller of at least `subtractedValue`."
      },
      "increaseAllowance(address,uint256)": {
        "details": "Atomically increases the allowance granted to `spender` by the caller. This is an alternative to {approve} that can be used as a mitigation for problems described in {IERC20-approve}. Emits an {Approval} event indicating the updated allowance. Requirements: - `spender` cannot be the zero address."
      },
      "name()": {
        "details": "Returns the name of the token."
      },
      "symbol()": {
        "details": "Returns the symbol of the token, usually a shorter version of the name."
      },
      "totalSupply()": {
        "details": "See {IERC20-totalSupply}."
      },
      "transfer(address,uint256)": {
        "details": "See {IERC20-transfer}. Requirements: - `recipient` cannot be the zero address. - the caller must have a balance of at least `amount`."
      },
      "transferFrom(address,address,uint256)": {
        "details": "See {IERC20-transferFrom}. Emits an {Approval} event indicating the updated allowance. This is not required by the EIP. See the note at the beginning of {ERC20}. Requirements: - `sender` and `recipient` cannot be the zero address. - `sender` must have a balance of at least `amount`. - the caller must have allowance for ``sender``'s tokens of at least `amount`."
      }
    },
    "version": 1
  },
  "userdoc": {
    "kind": "user",
    "methods": {},
    "version": 1
  }
}