{
  "contractName": "OriginalsToken",
  "abi": [
    {
      "anonymous": false,
      "inputs": [
        {
          "indexed": true,
          "internalType": "address",
          "name": "owner",
          "type": "address"
        },
        {
          "indexed": true,
          "internalType": "address",
          "name": "spender",
          "type": "address"
        },
        {
          "indexed": false,
          "internalType": "uint256",
          "name": "value",
          "type": "uint256"
        }
      ],
      "name": "Approval",
      "type": "event"
    },
    {
      "anonymous": false,
      "inputs": [
        {
          "indexed": true,
          "internalType": "address",
          "name": "from",
          "type": "address"
        },
        {
          "indexed": true,
          "internalType": "address",
          "name": "to",
          "type": "address"
        },
        {
          "indexed": false,
          "internalType": "uint256",
          "name": "value",
          "type": "uint256"
        }
      ],
      "name": "Transfer",
      "type": "event"
    },
    {
      "inputs": [
        {
          "internalType": "address",
          "name": "owner",
          "type": "address"
        },
        {
          "internalType": "address",
          "name": "spender",
          "type": "address"
        }
      ],
      "name": "allowance",
      "outputs": [
        {
          "internalType": "uint256",
          "name": "",
          "type": "uint256"
        }
      ],
      "stateMutability": "view",
      "type": "function"
    },
    {
      "inputs": [
        {
          "internalType": "address",
          "name": "spender",
          "type": "address"
        },
        {
          "internalType": "uint256",
          "name": "amount",
          "type": "uint256"
        }
      ],
      "name": "approve",
      "outputs": [
        {
          "internalType": "bool",
          "name": "",
          "type": "bool"
        }
      ],
      "stateMutability": "nonpayable",
      "type": "function"
    },
    {
      "inputs": [
        {
          "internalType": "address",
          "name": "account",
          "type": "address"
        }
      ],
      "name": "balanceOf",
      "outputs": [
        {
          "internalType": "uint256",
          "name": "",
          "type": "uint256"
        }
      ],
      "stateMutability": "view",
      "type": "function"
    },
    {
      "inputs": [
        {
          "internalType": "address",
          "name": "spender",
          "type": "address"
        },
        {
          "internalType": "uint256",
          "name": "subtractedValue",
          "type": "uint256"
        }
      ],
      "name": "decreaseAllowance",
      "outputs": [
        {
          "internalType": "bool",
          "name": "",
          "type": "bool"
        }
      ],
      "stateMutability": "nonpayable",
      "type": "function"
    },
    {
      "inputs": [
        {
          "internalType": "address",
          "name": "spender",
          "type": "address"
        },
        {
          "internalType": "uint256",
          "name": "addedValue",
          "type": "uint256"
        }
      ],
      "name": "increaseAllowance",
      "outputs": [
        {
          "internalType": "bool",
          "name": "",
          "type": "bool"
        }
      ],
      "stateMutability": "nonpayable",
      "type": "function"
    },
    {
      "inputs": [],
      "name": "name",
      "outputs": [
        {
          "internalType": "string",
          "name": "",
          "type": "string"
        }
      ],
      "stateMutability": "view",
      "type": "function"
    },
    {
      "inputs": [],
      "name": "retrieveManagerContract",
      "outputs": [
        {
          "internalType": "address",
          "name": "",
          "type": "address"
        }
      ],
      "stateMutability": "view",
      "type": "function"
    },
    {
      "inputs": [],
      "name": "symbol",
      "outputs": [
        {
          "internalType": "string",
          "name": "",
          "type": "string"
        }
      ],
      "stateMutability": "view",
      "type": "function"
    },
    {
      "inputs": [],
      "name": "totalSupply",
      "outputs": [
        {
          "internalType": "uint256",
          "name": "",
          "type": "uint256"
        }
      ],
      "stateMutability": "view",
      "type": "function"
    },
    {
      "inputs": [
        {
          "internalType": "address",
          "name": "recipient",
          "type": "address"
        },
        {
          "internalType": "uint256",
          "name": "amount",
          "type": "uint256"
        }
      ],
      "name": "transfer",
      "outputs": [
        {
          "internalType": "bool",
          "name": "",
          "type": "bool"
        }
      ],
      "stateMutability": "nonpayable",
      "type": "function"
    },
    {
      "inputs": [
        {
          "internalType": "address",
          "name": "sender",
          "type": "address"
        },
        {
          "internalType": "address",
          "name": "recipient",
          "type": "address"
        },
        {
          "internalType": "uint256",
          "name": "amount",
          "type": "uint256"
        }
      ],
      "name": "transferFrom",
      "outputs": [
        {
          "internalType": "bool",
          "name": "",
          "type": "bool"
        }
      ],
      "stateMutability": "nonpayable",
      "type": "function"
    },
    {
      "inputs": [
        {
          "internalType": "string",
          "name": "name",
          "type": "string"
        },
        {
          "internalType": "string",
          "name": "symbol",
          "type": "string"
        },
        {
          "internalType": "uint256",
          "name": "MaxSupply",
          "type": "uint256"
        },
        {
          "internalType": "address",
          "name": "managerContractAddress",
          "type": "address"
        },
        {
          "internalType": "uint8",
          "name": "decimalsValue",
          "type": "uint8"
        },
        {
          "internalType": "address",
          "name": "initialOwner",
          "type": "address"
        }
      ],
      "name": "OriginalsToken_init",
      "outputs": [],
      "stateMutability": "nonpayable",
      "type": "function"
    },
    {
      "inputs": [],
      "name": "decimals",
      "outputs": [
        {
          "internalType": "uint8",
          "name": "",
          "type": "uint8"
        }
      ],
      "stateMutability": "view",
      "type": "function"
    }
  ],
  "bytecode": "0x608060405234801561001057600080fd5b5061122d806100206000396000f3fe608060405234801561001057600080fd5b50600436106100af5760003560e01c806302033cab146100b457806306fdde03146100c9578063095ea7b3146100e757806318160ddd1461010a57806323b872dd1461011c578063313ce5671461012f57806339509351146101445780635b362e841461015757806370a082311461018157806395d89b41146101aa578063a457c2d7146101b2578063a9059cbb146101c5578063dd62ed3e146101d8575b600080fd5b6100c76100c2366004610f45565b610211565b005b6100d16102be565b6040516100de9190611014565b60405180910390f35b6100fa6100f5366004610e3f565b610350565b60405190151581526020016100de565b6035545b6040519081526020016100de565b6100fa61012a366004610dfe565b610366565b60655460405160ff90911681526020016100de565b6100fa610152366004610e3f565b610410565b6000546201000090046001600160a01b03166040516001600160a01b0390911681526020016100de565b61010e61018f366004610da1565b6001600160a01b031660009081526033602052604090205490565b6100d161044c565b6100fa6101c0366004610e3f565b61045b565b6100fa6101d3366004610e3f565b6104f4565b61010e6101e6366004610dc5565b6001600160a01b03918216600090815260346020908152604080832093909416825291909152205490565b600054610100900460ff1661022c5760005460ff1615610230565b303b155b6102555760405162461bcd60e51b815260040161024c90611069565b60405180910390fd5b600054610100900460ff16158015610277576000805461ffff19166101011790555b61028084610501565b61028a8787610596565b6065805460ff191660ff85161790556102a382866105cf565b80156102b5576000805461ff00191690555b50505050505050565b6060603680546102cd90611158565b80601f01602080910402602001604051908101604052809291908181526020018280546102f990611158565b80156103465780601f1061031b57610100808354040283529160200191610346565b820191906000526020600020905b81548152906001019060200180831161032957829003601f168201915b5050505050905090565b600061035d3384846106a8565b50600192915050565b60006103738484846107cc565b6001600160a01b0384166000908152603460209081526040808320338452909152902054828110156103f85760405162461bcd60e51b815260206004820152602860248201527f45524332303a207472616e7366657220616d6f756e74206578636565647320616044820152676c6c6f77616e636560c01b606482015260840161024c565b61040585338584036106a8565b506001949350505050565b3360008181526034602090815260408083206001600160a01b0387168452909152812054909161035d918590610447908690611132565b6106a8565b6060603780546102cd90611158565b3360009081526034602090815260408083206001600160a01b0386168452909152812054828110156104dd5760405162461bcd60e51b815260206004820152602560248201527f45524332303a2064656372656173656420616c6c6f77616e63652062656c6f77604482015264207a65726f60d81b606482015260840161024c565b6104ea33858584036106a8565b5060019392505050565b600061035d3384846107cc565b600054610100900460ff1661051c5760005460ff1615610520565b303b155b61053c5760405162461bcd60e51b815260040161024c90611069565b600054610100900460ff1615801561055e576000805461ffff19166101011790555b6000805462010000600160b01b031916620100006001600160a01b038516021790558015610592576000805461ff00191690555b5050565b600054610100900460ff166105bd5760405162461bcd60e51b815260040161024c906110b7565b6105c5610994565b61059282826109bd565b6001600160a01b0382166106255760405162461bcd60e51b815260206004820152601f60248201527f45524332303a206d696e7420746f20746865207a65726f206164647265737300604482015260640161024c565b61063160008383610a10565b80603560008282546106439190611132565b90915550506001600160a01b03821660009081526033602052604081208054839290610670908490611132565b90915550506040518181526001600160a01b038316906000906000805160206111d88339815191529060200160405180910390a35050565b6001600160a01b03831661070a5760405162461bcd60e51b8152602060048201526024808201527f45524332303a20617070726f76652066726f6d20746865207a65726f206164646044820152637265737360e01b606482015260840161024c565b6001600160a01b03821661076b5760405162461bcd60e51b815260206004820152602260248201527f45524332303a20617070726f766520746f20746865207a65726f206164647265604482015261737360f01b606482015260840161024c565b6001600160a01b0383811660008181526034602090815260408083209487168084529482529182902085905590518481527f8c5be1e5ebec7d5bd14f71427d1e84f3dd0314c0f7b2291e5b200ac8c7c3b925910160405180910390a3505050565b6001600160a01b0383166108305760405162461bcd60e51b815260206004820152602560248201527f45524332303a207472616e736665722066726f6d20746865207a65726f206164604482015264647265737360d81b606482015260840161024c565b6001600160a01b0382166108925760405162461bcd60e51b815260206004820152602360248201527f45524332303a207472616e7366657220746f20746865207a65726f206164647260448201526265737360e81b606482015260840161024c565b61089d838383610a10565b6001600160a01b038316600090815260336020526040902054818110156109155760405162461bcd60e51b815260206004820152602660248201527f45524332303a207472616e7366657220616d6f756e7420657863656564732062604482015265616c616e636560d01b606482015260840161024c565b6001600160a01b0380851660009081526033602052604080822085850390559185168152908120805484929061094c908490611132565b92505081905550826001600160a01b0316846001600160a01b03166000805160206111d88339815191528460405161098691815260200190565b60405180910390a350505050565b600054610100900460ff166109bb5760405162461bcd60e51b815260040161024c906110b7565b565b600054610100900460ff166109e45760405162461bcd60e51b815260040161024c906110b7565b81516109f7906036906020850190610c99565b508051610a0b906037906020840190610c99565b505050565b600060029054906101000a90046001600160a01b03166001600160a01b031663392e53cd6040518163ffffffff1660e01b815260040160206040518083038186803b158015610a5e57600080fd5b505afa158015610a72573d6000803e3d6000fd5b505050506040513d601f19601f82011682018060405250810190610a969190610f23565b15610a0b5760008060029054906101000a90046001600160a01b03166001600160a01b031663e220ad956040518163ffffffff1660e01b815260040160006040518083038186803b158015610aea57600080fd5b505afa158015610afe573d6000803e3d6000fd5b505050506040513d6000823e601f3d908101601f19168201604052610b269190810190610e6b565b905080600281518110610b3b57610b3b611193565b60200260200101516001600160a01b0316633c7df55d8585856040518463ffffffff1660e01b8152600401610b7293929190610ff0565b600060405180830381600087803b158015610b8c57600080fd5b505af1158015610ba0573d6000803e3d6000fd5b5083925060049150610baf9050565b81518110610bbf57610bbf611193565b60200260200101516001600160a01b0316633c7df55d8585856040518463ffffffff1660e01b8152600401610bf693929190610ff0565b600060405180830381600087803b158015610c1057600080fd5b505af1158015610c24573d6000803e3d6000fd5b5050600054604051633c7df55d60e01b8152620100009091046001600160a01b03169250633c7df55d9150610c6190879087908790600401610ff0565b600060405180830381600087803b158015610c7b57600080fd5b505af1158015610c8f573d6000803e3d6000fd5b5050505050505050565b828054610ca590611158565b90600052602060002090601f016020900481019282610cc75760008555610d0d565b82601f10610ce057805160ff1916838001178555610d0d565b82800160010185558215610d0d579182015b82811115610d0d578251825591602001919060010190610cf2565b50610d19929150610d1d565b5090565b5b80821115610d195760008155600101610d1e565b600082601f830112610d4357600080fd5b81356001600160401b03811115610d5c57610d5c6111a9565b610d6f601f8201601f1916602001611102565b818152846020838601011115610d8457600080fd5b816020850160208301376000918101602001919091529392505050565b600060208284031215610db357600080fd5b8135610dbe816111bf565b9392505050565b60008060408385031215610dd857600080fd5b8235610de3816111bf565b91506020830135610df3816111bf565b809150509250929050565b600080600060608486031215610e1357600080fd5b8335610e1e816111bf565b92506020840135610e2e816111bf565b929592945050506040919091013590565b60008060408385031215610e5257600080fd5b8235610e5d816111bf565b946020939093013593505050565b60006020808385031215610e7e57600080fd5b82516001600160401b0380821115610e9557600080fd5b818501915085601f830112610ea957600080fd5b815181811115610ebb57610ebb6111a9565b8060051b9150610ecc848301611102565b8181528481019084860184860187018a1015610ee757600080fd5b600095505b83861015610f165780519450610f01856111bf565b84835260019590950194918601918601610eec565b5098975050505050505050565b600060208284031215610f3557600080fd5b81518015158114610dbe57600080fd5b60008060008060008060c08789031215610f5e57600080fd5b86356001600160401b0380821115610f7557600080fd5b610f818a838b01610d32565b97506020890135915080821115610f9757600080fd5b50610fa489828a01610d32565b955050604087013593506060870135610fbc816111bf565b9250608087013560ff81168114610fd257600080fd5b915060a0870135610fe2816111bf565b809150509295509295509295565b6001600160a01b039384168152919092166020820152604081019190915260600190565b600060208083528351808285015260005b8181101561104157858101830151858201604001528201611025565b81811115611053576000604083870101525b50601f01601f1916929092016040019392505050565b6020808252602e908201527f496e697469616c697a61626c653a20636f6e747261637420697320616c72656160408201526d191e481a5b9a5d1a585b1a5e995960921b606082015260800190565b6020808252602b908201527f496e697469616c697a61626c653a20636f6e7472616374206973206e6f74206960408201526a6e697469616c697a696e6760a81b606082015260800190565b604051601f8201601f191681016001600160401b038111828210171561112a5761112a6111a9565b604052919050565b6000821982111561115357634e487b7160e01b600052601160045260246000fd5b500190565b600181811c9082168061116c57607f821691505b6020821081141561118d57634e487b7160e01b600052602260045260246000fd5b50919050565b634e487b7160e01b600052603260045260246000fd5b634e487b7160e01b600052604160045260246000fd5b6001600160a01b03811681146111d457600080fd5b5056feddf252ad1be2c89b69c2b068fc378daa952ba7f163c4a11628f55a4df523b3efa2646970667358221220223af99cb2bd23234042fadf076fb4db8cd011dec2fd7a99bac107468de1762364736f6c63430008070033",
  "immutableReferences": {},
  "source": "// SPDX-License-Identifier: GPL-3.0\r\n\r\npragma solidity 0.8.7;\r\n\r\n/**\r\n Certis Token is an ERC20 Token that grants its holder the right to:\r\n   - Vote on all the systems propositions (changing system configuraiton etc...)\r\n   - Receive Dividends for all the payments forwarded to the Treasury contract\r\n\r\nBefore every token transfer we contact the token gouvernance Base contracts so that the can update the tokens used for voting if needed\r\n\r\n */\r\n\r\nimport \"@openzeppelin/contracts-upgradeable/token/ERC20/ERC20Upgradeable.sol\";\r\nimport \"@openzeppelin/contracts-upgradeable/proxy/utils/Initializable.sol\";\r\nimport \"../Libraries/AddressLibrary.sol\";\r\nimport \"../Interfaces/ITokenEventSubscriber.sol\";\r\nimport \"../Base/ManagedBaseContract.sol\";\r\n\r\n contract OriginalsToken is  Initializable, ManagedBaseContract, ERC20Upgradeable {\r\n    using AddressLibrary for *;\r\n\r\n    // DATA /////////////////////////////////////////\r\n    // decimals\r\n    uint8 private _decimals;\r\n\r\n    // CONSTRUCTOR /////////////////////////////////////////\r\n    function OriginalsToken_init(string memory name, string memory symbol, uint256 MaxSupply, address managerContractAddress, uint8 decimalsValue, address initialOwner) public initializer {\r\n        super.ManagedBaseContract_init(managerContractAddress);\r\n        super.__ERC20_init(name, symbol);\r\n    \r\n        _decimals = decimalsValue;\r\n        _mint(initialOwner, MaxSupply);\r\n    }\r\n\r\n    // FUNCTIONALITY /////////////////////////////////////////\r\n    function decimals() public view override returns (uint8) \r\n    {\r\n        return _decimals;\r\n    }\r\n\r\n    function _beforeTokenTransfer(address from, address to, uint256 amount) internal override \r\n    {\r\n        if(_managerContract.isInitialized()){\r\n            address[] memory Proxies = _managerContract.retrieveTransparentProxies();\r\n            \r\n            ITokenEventSubscriber(Proxies[uint256(Library.TransparentProxies.Treasury)]).onTokenBalanceChanged(from, to, amount); // Treasury\r\n            ITokenEventSubscriber(Proxies[uint256(Library.TransparentProxies.PropSettings)]).onTokenBalanceChanged(from, to, amount); // Proposition Settings\r\n            ITokenEventSubscriber(address(_managerContract)).onTokenBalanceChanged(from, to, amount); // Certificate Pool Manager\r\n        }\r\n    }\r\n\r\n }",
  "sourcePath": "C:\\Users\\d-aam\\GitHub\\Originals\\contracts\\MainContracts\\OriginalsToken.sol",
  "compiler": {
    "name": "solc",
    "version": "0.8.7+commit.e28d00a7.Emscripten.clang"
  },
  "schemaVersion": "3.4.3",
  "updatedAt": "2022-01-25T15:06:11.988Z",
  "devdoc": {
    "kind": "dev",
    "methods": {
      "allowance(address,address)": {
        "details": "See {IERC20-allowance}."
      },
      "approve(address,uint256)": {
        "details": "See {IERC20-approve}. Requirements: - `spender` cannot be the zero address."
      },
      "balanceOf(address)": {
        "details": "See {IERC20-balanceOf}."
      },
      "decimals()": {
        "details": "Returns the number of decimals used to get its user representation. For example, if `decimals` equals `2`, a balance of `505` tokens should be displayed to a user as `5.05` (`505 / 10 ** 2`). Tokens usually opt for a value of 18, imitating the relationship between Ether and Wei. This is the value {ERC20} uses, unless this function is overridden; NOTE: This information is only used for _display_ purposes: it in no way affects any of the arithmetic of the contract, including {IERC20-balanceOf} and {IERC20-transfer}."
      },
      "decreaseAllowance(address,uint256)": {
        "details": "Atomically decreases the allowance granted to `spender` by the caller. This is an alternative to {approve} that can be used as a mitigation for problems described in {IERC20-approve}. Emits an {Approval} event indicating the updated allowance. Requirements: - `spender` cannot be the zero address. - `spender` must have allowance for the caller of at least `subtractedValue`."
      },
      "increaseAllowance(address,uint256)": {
        "details": "Atomically increases the allowance granted to `spender` by the caller. This is an alternative to {approve} that can be used as a mitigation for problems described in {IERC20-approve}. Emits an {Approval} event indicating the updated allowance. Requirements: - `spender` cannot be the zero address."
      },
      "name()": {
        "details": "Returns the name of the token."
      },
      "symbol()": {
        "details": "Returns the symbol of the token, usually a shorter version of the name."
      },
      "totalSupply()": {
        "details": "See {IERC20-totalSupply}."
      },
      "transfer(address,uint256)": {
        "details": "See {IERC20-transfer}. Requirements: - `recipient` cannot be the zero address. - the caller must have a balance of at least `amount`."
      },
      "transferFrom(address,address,uint256)": {
        "details": "See {IERC20-transferFrom}. Emits an {Approval} event indicating the updated allowance. This is not required by the EIP. See the note at the beginning of {ERC20}. Requirements: - `sender` and `recipient` cannot be the zero address. - `sender` must have a balance of at least `amount`. - the caller must have allowance for ``sender``'s tokens of at least `amount`."
      }
    },
    "version": 1
  },
  "userdoc": {
    "kind": "user",
    "methods": {},
    "version": 1
  }
}