{
  "contractName": "Payments",
  "abi": [
    {
      "anonymous": false,
      "inputs": [
        {
          "indexed": false,
          "internalType": "uint256",
          "name": "Id",
          "type": "uint256"
        },
        {
          "indexed": true,
          "internalType": "address",
          "name": "Proposer",
          "type": "address"
        },
        {
          "indexed": false,
          "internalType": "uint256",
          "name": "Deadline",
          "type": "uint256"
        },
        {
          "indexed": false,
          "internalType": "uint256",
          "name": "Threshold",
          "type": "uint256"
        }
      ],
      "name": "_AddedProposition",
      "type": "event"
    },
    {
      "anonymous": false,
      "inputs": [
        {
          "indexed": false,
          "internalType": "uint256",
          "name": "Id",
          "type": "uint256"
        },
        {
          "indexed": true,
          "internalType": "address",
          "name": "Proposer",
          "type": "address"
        }
      ],
      "name": "_CancelledProposition",
      "type": "event"
    },
    {
      "anonymous": false,
      "inputs": [
        {
          "indexed": false,
          "internalType": "address",
          "name": "TokenAddress",
          "type": "address"
        }
      ],
      "name": "_NewAddress",
      "type": "event"
    },
    {
      "anonymous": false,
      "inputs": [
        {
          "indexed": false,
          "internalType": "uint256",
          "name": "Id",
          "type": "uint256"
        },
        {
          "indexed": true,
          "internalType": "address",
          "name": "Proposer",
          "type": "address"
        },
        {
          "indexed": false,
          "internalType": "uint256",
          "name": "VotesFor",
          "type": "uint256"
        },
        {
          "indexed": false,
          "internalType": "uint256",
          "name": "VotesAgainst",
          "type": "uint256"
        }
      ],
      "name": "_PropositionApproved",
      "type": "event"
    },
    {
      "anonymous": false,
      "inputs": [
        {
          "indexed": false,
          "internalType": "uint256",
          "name": "Id",
          "type": "uint256"
        },
        {
          "indexed": true,
          "internalType": "address",
          "name": "Proposer",
          "type": "address"
        },
        {
          "indexed": false,
          "internalType": "uint256",
          "name": "VotesFor",
          "type": "uint256"
        },
        {
          "indexed": false,
          "internalType": "uint256",
          "name": "VotesAgainst",
          "type": "uint256"
        }
      ],
      "name": "_PropositionRejected",
      "type": "event"
    },
    {
      "anonymous": false,
      "inputs": [
        {
          "indexed": false,
          "internalType": "uint256",
          "name": "Id",
          "type": "uint256"
        },
        {
          "indexed": true,
          "internalType": "address",
          "name": "Voter",
          "type": "address"
        },
        {
          "indexed": false,
          "internalType": "bool",
          "name": "Vote",
          "type": "bool"
        },
        {
          "indexed": false,
          "internalType": "uint256",
          "name": "AmountTokens",
          "type": "uint256"
        }
      ],
      "name": "_PropositionVote",
      "type": "event"
    },
    {
      "anonymous": false,
      "inputs": [
        {
          "indexed": true,
          "internalType": "uint256",
          "name": "Id",
          "type": "uint256"
        },
        {
          "indexed": false,
          "internalType": "address",
          "name": "From",
          "type": "address"
        },
        {
          "indexed": false,
          "internalType": "address",
          "name": "To",
          "type": "address"
        },
        {
          "indexed": false,
          "internalType": "uint256",
          "name": "Amount",
          "type": "uint256"
        }
      ],
      "name": "_UsedTokensTransfered",
      "type": "event"
    },
    {
      "inputs": [
        {
          "internalType": "address",
          "name": "chairPerson",
          "type": "address"
        },
        {
          "internalType": "address",
          "name": "managerContractAddress",
          "type": "address"
        }
      ],
      "name": "StdPropositionBaseContract_init",
      "outputs": [],
      "stateMutability": "nonpayable",
      "type": "function"
    },
    {
      "inputs": [],
      "name": "cancelProposition",
      "outputs": [],
      "stateMutability": "nonpayable",
      "type": "function"
    },
    {
      "inputs": [
        {
          "internalType": "address",
          "name": "from",
          "type": "address"
        },
        {
          "internalType": "address",
          "name": "to",
          "type": "address"
        },
        {
          "internalType": "uint256",
          "name": "amount",
          "type": "uint256"
        }
      ],
      "name": "onTokenBalanceChanged",
      "outputs": [],
      "stateMutability": "nonpayable",
      "type": "function"
    },
    {
      "inputs": [],
      "name": "retrieveChairPerson",
      "outputs": [
        {
          "internalType": "address",
          "name": "",
          "type": "address"
        }
      ],
      "stateMutability": "view",
      "type": "function",
      "constant": true
    },
    {
      "inputs": [],
      "name": "retrieveManagerContract",
      "outputs": [
        {
          "internalType": "address",
          "name": "",
          "type": "address"
        }
      ],
      "stateMutability": "view",
      "type": "function",
      "constant": true
    },
    {
      "inputs": [],
      "name": "retrieveNextPropId",
      "outputs": [
        {
          "internalType": "uint256",
          "name": "",
          "type": "uint256"
        }
      ],
      "stateMutability": "view",
      "type": "function",
      "constant": true
    },
    {
      "inputs": [],
      "name": "retrieveProposition",
      "outputs": [
        {
          "internalType": "bytes[]",
          "name": "",
          "type": "bytes[]"
        }
      ],
      "stateMutability": "view",
      "type": "function",
      "constant": true
    },
    {
      "inputs": [],
      "name": "retrievePropositionStatus",
      "outputs": [
        {
          "internalType": "address",
          "name": "",
          "type": "address"
        },
        {
          "internalType": "uint256",
          "name": "",
          "type": "uint256"
        },
        {
          "internalType": "uint256",
          "name": "",
          "type": "uint256"
        },
        {
          "internalType": "uint256",
          "name": "",
          "type": "uint256"
        },
        {
          "internalType": "uint256",
          "name": "",
          "type": "uint256"
        }
      ],
      "stateMutability": "view",
      "type": "function",
      "constant": true
    },
    {
      "inputs": [
        {
          "internalType": "uint256",
          "name": "PropId",
          "type": "uint256"
        },
        {
          "internalType": "address",
          "name": "voter",
          "type": "address"
        }
      ],
      "name": "retrieveVotesForVoter",
      "outputs": [
        {
          "internalType": "uint256",
          "name": "",
          "type": "uint256"
        }
      ],
      "stateMutability": "view",
      "type": "function",
      "constant": true
    },
    {
      "inputs": [
        {
          "internalType": "bytes[]",
          "name": "NewValues",
          "type": "bytes[]"
        }
      ],
      "name": "sendProposition",
      "outputs": [],
      "stateMutability": "nonpayable",
      "type": "function"
    },
    {
      "inputs": [
        {
          "internalType": "bool",
          "name": "vote",
          "type": "bool"
        }
      ],
      "name": "voteProposition",
      "outputs": [],
      "stateMutability": "nonpayable",
      "type": "function"
    },
    {
      "inputs": [
        {
          "internalType": "address",
          "name": "managerContractAddress",
          "type": "address"
        },
        {
          "internalType": "address",
          "name": "chairPerson",
          "type": "address"
        },
        {
          "internalType": "address",
          "name": "tokenAddress",
          "type": "address"
        }
      ],
      "name": "Payments_init",
      "outputs": [],
      "stateMutability": "nonpayable",
      "type": "function"
    },
    {
      "inputs": [
        {
          "internalType": "address",
          "name": "sender",
          "type": "address"
        },
        {
          "internalType": "address",
          "name": "recipient",
          "type": "address"
        },
        {
          "internalType": "uint256",
          "name": "amount",
          "type": "uint256"
        },
        {
          "internalType": "uint256",
          "name": "MarketId",
          "type": "uint256"
        },
        {
          "internalType": "bytes",
          "name": "data",
          "type": "bytes"
        }
      ],
      "name": "TransferFrom",
      "outputs": [],
      "stateMutability": "nonpayable",
      "type": "function"
    },
    {
      "inputs": [
        {
          "internalType": "address",
          "name": "account",
          "type": "address"
        }
      ],
      "name": "BalanceOf",
      "outputs": [
        {
          "internalType": "uint256",
          "name": "",
          "type": "uint256"
        }
      ],
      "stateMutability": "view",
      "type": "function",
      "constant": true
    },
    {
      "inputs": [],
      "name": "retrieveSettings",
      "outputs": [
        {
          "internalType": "address",
          "name": "",
          "type": "address"
        }
      ],
      "stateMutability": "view",
      "type": "function",
      "constant": true
    }
  ],
  "bytecode": "0x608060405234801561001057600080fd5b506124a7806100206000396000f3fe608060405234801561001057600080fd5b50600436106100c55760003560e01c806304cc67a9146100ca578063255de497146100e15780633c7df55d146100f65780634044adb21461010957806355457ee91461011c5780635b362e8414610124578063840f6d171461014457806391f9167114610185578063a93316f514610198578063b049473f146101ad578063b1fd2359146101be578063d9967889146101d1578063db85bc4d146101e4578063e15aa3a6146101f5578063f815611514610208575b600080fd5b6008545b6040519081526020015b60405180910390f35b6100f46100ef366004611d5c565b61021b565b005b6100f4610104366004611da7565b6102ac565b6100ce610117366004612097565b6103c4565b6100f46103ee565b6000546201000090046001600160a01b03165b6040516100d89190612137565b600354600454600554600654600754604080516001600160a01b0390961686526020860194909452928401919091526060830152608082015260a0016100d8565b6100f4610193366004612044565b6104c8565b6101a06104d5565b6040516100d891906121b9565b600b546001600160a01b0316610137565b6100f46101cc366004611d23565b6105ae565b6100ce6101df366004611ce9565b61062c565b6001546001600160a01b0316610137565b6100f4610203366004611f8d565b6106ad565b6100f4610216366004611de8565b610727565b600054610100900460ff166102365760005460ff161561023a565b303b155b61025f5760405162461bcd60e51b8152600401610256906122d6565b60405180910390fd5b600054610100900460ff16158015610281576000805461ffff19166101011790555b61028b83856105ae565b61029482610bfa565b80156102a6576000805461ff00191690555b50505050565b3373__Library_______________________________6337ea306382600060029054906101000a90046001600160a01b03166001600160a01b031663e220ad956040518163ffffffff1660e01b815260040160006040518083038186803b15801561031657600080fd5b505afa15801561032a573d6000803e3d6000fd5b505050506040513d6000823e601f3d908101601f191682016040526103529190810190611e5d565b60038151811061036457610364612422565b60200260200101516040518363ffffffff1660e01b815260040161038992919061214b565b60006040518083038186803b1580156103a157600080fd5b505af41580156103b5573d6000803e3d6000fd5b505050506102a6848484610c1c565b60008281526009602090815260408083206001600160a01b03851684529091529020545b92915050565b60016103f981610c39565b6003546040516337ea306360e01b8152339173__Library_______________________________916337ea30639161043f9185916001600160a01b03169060040161214b565b60006040518083038186803b15801561045757600080fd5b505af415801561046b573d6000803e3d6000fd5b50505050610477610cbd565b61047f610cc7565b6003546002546040519081526001600160a01b03909116907f1fe8aec10c0a50fa765076161e08c1f961ced69594ff45cf7d559f593afe14799060200160405180910390a25050565b6104d23382610cf2565b50565b6060600a805480602002602001604051908101604052809291908181526020016000905b828210156105a5578382906000526020600020018054610518906123bc565b80601f0160208091040260200160405190810160405280929190818152602001828054610544906123bc565b80156105915780601f1061056657610100808354040283529160200191610591565b820191906000526020600020905b81548152906001019060200180831161057457829003601f168201915b5050505050815260200190600101906104f9565b50505050905090565b600054610100900460ff166105c95760005460ff16156105cd565b303b155b6105e95760405162461bcd60e51b8152600401610256906122d6565b600054610100900460ff1615801561060b576000805461ffff19166101011790555b6106158383610e0a565b8015610627576000805461ff00191690555b505050565b600b546040516370a0823160e01b81526000916001600160a01b0316906370a082319061065d908590600401612137565b60206040518083038186803b15801561067557600080fd5b505afa158015610689573d6000803e3d6000fd5b505050506040513d601f19601f820116820180604052508101906103e8919061207e565b6106b681610ea6565b6106be61102b565b60005b815181101561072357600a8282815181106106de576106de612422565b602090810291909101810151825460018101845560009384529282902081516107109491909101929190910190611b6c565b508061071b816123f1565b9150506106c1565b5050565b3382600060029054906101000a90046001600160a01b03166001600160a01b031663e220ad956040518163ffffffff1660e01b815260040160006040518083038186803b15801561077757600080fd5b505afa15801561078b573d6000803e3d6000fd5b505050506040513d6000823e601f3d908101601f191682016040526107b39190810190611e5d565b6001815181106107c5576107c5612422565b60200260200101516001600160a01b0316826001600160a01b031614806108a05750600060029054906101000a90046001600160a01b03166001600160a01b031663e220ad956040518163ffffffff1660e01b815260040160006040518083038186803b15801561083557600080fd5b505afa158015610849573d6000803e3d6000fd5b505050506040513d6000823e601f3d908101601f191682016040526108719190810190611e5d565b60028151811061088357610883612422565b60200260200101516001600160a01b0316826001600160a01b0316145b8061095f5750600060029054906101000a90046001600160a01b03166001600160a01b031663e220ad956040518163ffffffff1660e01b815260040160006040518083038186803b1580156108f457600080fd5b505afa158015610908573d6000803e3d6000fd5b505050506040513d6000823e601f3d908101601f191682016040526109309190810190611e5d565b60058151811061094257610942612422565b60200260200101516001600160a01b0316826001600160a01b0316145b8061096f575061096f828261137a565b6109d15760405162461bcd60e51b815260206004820152602d60248201527f4974206973206e6f742066726f6d206f6e65206f66207468652063657274696660448201526c69656420636f6e74726163747360981b6064820152608401610256565b600b54604051636eb1769f60e11b815286916001600160a01b03169063dd62ed3e90610a03908b90309060040161214b565b60206040518083038186803b158015610a1b57600080fd5b505afa158015610a2f573d6000803e3d6000fd5b505050506040513d601f19601f82011682018060405250810190610a53919061207e565b1015610ab65760405162461bcd60e51b815260206004820152602c60248201527f436f6e747261637420646f6573206e6f74206861766520656e6f75676820617060448201526b70726f7665642066756e647360a01b6064820152608401610256565b600b546040516323b872dd60e01b81526000916001600160a01b0316906323b872dd90610aeb908b908b908b90600401612165565b602060405180830381600087803b158015610b0557600080fd5b505af1158015610b19573d6000803e3d6000fd5b505050506040513d601f19601f82011682018060405250810190610b3d9190612061565b9050600181151514610b8e5760405162461bcd60e51b815260206004820152601a6024820152795472616e736665722046726f6d20646964206e6f7420776f726b60301b6044820152606401610256565b604051630bc0a8fb60e21b81526001600160a01b03881690632f02a3ec90610bbe908b908a908990600401612189565b600060405180830381600087803b158015610bd857600080fd5b505af1158015610bec573d6000803e3d6000fd5b505050505050505050505050565b600b80546001600160a01b0319166001600160a01b0392909216919091179055565b610c246114cb565b15156001141561062757610627838383611505565b8015610c8057610c476114cb565b15156001146104d25760405162461bcd60e51b8152602060048201526005602482015264454332352d60d81b6044820152606401610256565b610c886114cb565b156104d25760405162461bcd60e51b8152602060048201526005602482015264454332342d60d81b6044820152606401610256565b610cc5611666565b565b60006002819055600380546001600160a01b0319169055600481905560058190556006819055600755565b6001610cfd81610c39565b60025483906000610d0e8383611672565b905060008111610d485760405162461bcd60e51b8152602060048201526005602482015264454332332d60d81b6044820152606401610256565b6000610d5987600260000154611672565b90508515610d81578060026004016000828254610d76919061238d565b90915550610d9c9050565b8060026005016000828254610d96919061238d565b90915550505b600254610daa9088836116af565b60025460408051918252871515602083015281018290526001600160a01b038816907f50f654d58981575c05e369cb129aeacb01e1b036af429380242cfc5d1a4b743f9060600160405180910390a2610e016116eb565b50505050505050565b600054610100900460ff16610e255760005460ff1615610e29565b303b155b610e455760405162461bcd60e51b8152600401610256906122d6565b600054610100900460ff16158015610e67576000805461ffff19166101011790555b610e70826117bf565b600180546001600160a01b0319166001600160a01b03851617905560006008558015610627576000805461ff0019169055505050565b73__AddressLibrary________________________63f4ce9ae873__Library_______________________________63caa8f58984600081518110610eed57610eed612422565b60200260200101516040518263ffffffff1660e01b8152600401610f11919061221b565b60006040518083038186803b158015610f2957600080fd5b505af4158015610f3d573d6000803e3d6000fd5b505050506040513d6000823e601f3d908101601f19168201604052610f659190810190611f02565b600081518110610f7757610f77612422565b60200260200101516040518263ffffffff1660e01b8152600401610f9d91815260200190565b60206040518083038186803b158015610fb557600080fd5b505af4158015610fc9573d6000803e3d6000fd5b505050506040513d601f19601f82011682018060405250810190610fed9190611d06565b6001600160a01b0381166107235760405162461bcd60e51b8152602060048201526005602482015264454332312d60d81b6044820152606401610256565b600061103681610c39565b60015433906000906001600160a01b03168214156110565750600161118c565b600061106183611853565b905060008060029054906101000a90046001600160a01b03166001600160a01b031663e220ad956040518163ffffffff1660e01b815260040160006040518083038186803b1580156110b257600080fd5b505afa1580156110c6573d6000803e3d6000fd5b505050506040513d6000823e601f3d908101601f191682016040526110ee9190810190611e5d565b60048151811061110057611100612422565b60200260200101516001600160a01b031663b049473f6040518163ffffffff1660e01b815260040160606040518083038186803b15801561114057600080fd5b505afa158015611154573d6000803e3d6000fd5b505050506040513d601f19601f8201168201806040525081019061117891906120bc565b925050508082111561118957600192505b50505b6001811515146111c65760405162461bcd60e51b8152602060048201526005602482015264454332322d60d81b6044820152606401610256565b600080600060029054906101000a90046001600160a01b03166001600160a01b031663e220ad956040518163ffffffff1660e01b815260040160006040518083038186803b15801561121757600080fd5b505afa15801561122b573d6000803e3d6000fd5b505050506040513d6000823e601f3d908101601f191682016040526112539190810190611e5d565b60048151811061126557611265612422565b60200260200101516001600160a01b031663b049473f6040518163ffffffff1660e01b815260040160606040518083038186803b1580156112a557600080fd5b505afa1580156112b9573d6000803e3d6000fd5b505050506040513d601f19601f820116820180604052508101906112dd91906120bc565b50600380546001600160a01b0319163317905590925090506112ff824261238d565b600455600581905560088054600281905590600061131c836123f1565b90915550506003546002546004546005546040516001600160a01b03909416937f472501d19bf75639b2e316cd36f8568b0c3ab943b82a87de3c086c98c1929df99361136b9390929091612324565b60405180910390a25050505050565b600081611389575060006103e8565b60008060029054906101000a90046001600160a01b03166001600160a01b031663e220ad956040518163ffffffff1660e01b815260040160006040518083038186803b1580156113d857600080fd5b505afa1580156113ec573d6000803e3d6000fd5b505050506040513d6000823e601f3d908101601f191682016040526114149190810190611e5d565b60018151811061142657611426612422565b60200260200101519050806001600160a01b03166303231e5d846040518263ffffffff1660e01b815260040161145e91815260200190565b60206040518083038186803b15801561147657600080fd5b505afa15801561148a573d6000803e3d6000fd5b505050506040513d601f19601f820116820180604052508101906114ae9190611d06565b6001600160a01b0316846001600160a01b03161491505092915050565b6004546000904210156114de5750600190565b6003546001600160a01b0316156114ff576114f7610cbd565b6114ff610cc7565b50600090565b6001600160a01b03831615801590611541575060025460009081526009602090815260408083206001600160a01b038716845290915290205415155b156106275760025460009081526009602090815260408083206001600160a01b0387168452909152902054819081111561159d575060025460009081526009602090815260408083206001600160a01b03871684529091529020545b60025460009081526009602090815260408083206001600160a01b0388168452909152812080548392906115d29084906123a5565b90915550506001600160a01b038316156116215760025460009081526009602090815260408083206001600160a01b03871684529091528120805483929061161b90849061238d565b90915550505b6002546040517f65fbd5e5dd32bea4aeca85bd0be0abf0e489d655dee888a7510d43b06dda2dba9061165890879087908690612165565b60405180910390a250505050565b610cc5600a6000611bf0565b60008181526009602090815260408083206001600160a01b038616845290915281205461169e84611853565b6116a891906123a5565b9392505050565b60008381526009602090815260408083206001600160a01b0386168452909152812080548392906116e190849061238d565b9091555050505050565b6005546006541061175a576116fe611923565b611706610cc7565b6003546002546006546007546040516001600160a01b03909416937f23ca0034cf5aad32571b4a492e9598ea8a490e1643a60970e3cdc6933b55e49f936117509390929091612324565b60405180910390a2565b60055460075410610cc55761176d610cbd565b611775610cc7565b6003546002546006546007546040516001600160a01b03909416937fa58eb6daa3c62c3f883973c4035e5bd3e81aa627c8379de068a7de42df122be2936117509390929091612324565b600054610100900460ff166117da5760005460ff16156117de565b303b155b6117fa5760405162461bcd60e51b8152600401610256906122d6565b600054610100900460ff1615801561181c576000805461ffff19166101011790555b6000805462010000600160b01b031916620100006001600160a01b038516021790558015610723576000805461ff00191690555050565b60008060029054906101000a90046001600160a01b03166001600160a01b031663e220ad956040518163ffffffff1660e01b815260040160006040518083038186803b1580156118a257600080fd5b505afa1580156118b6573d6000803e3d6000fd5b505050506040513d6000823e601f3d908101601f191682016040526118de9190810190611e5d565b6003815181106118f0576118f0612422565b60200260200101516001600160a01b03166370a08231836040518263ffffffff1660e01b815260040161065d9190612137565b610cbd6000611930611a1d565b9050600073__AddressLibrary________________________63f4ce9ae88360008151811061196157611961612422565b60200260200101516040518263ffffffff1660e01b815260040161198791815260200190565b60206040518083038186803b15801561199f57600080fd5b505af41580156119b3573d6000803e3d6000fd5b505050506040513d601f19601f820116820180604052508101906119d79190611d06565b90506119e281610bfa565b7f9975e4b1d49f76f8d43fbe1c1e9865fcdd07aa824519a42a28842df898b10ae681604051611a119190612137565b60405180910390a15050565b600a546060906000906001600160401b03811115611a3d57611a3d612438565b604051908082528060200260200182016040528015611a66578160200160208202803683370190505b50905060005b600a54811015611b665773__Library_______________________________63caa8f589600a8381548110611aa357611aa3612422565b906000526020600020016040518263ffffffff1660e01b8152600401611ac9919061222e565b60006040518083038186803b158015611ae157600080fd5b505af4158015611af5573d6000803e3d6000fd5b505050506040513d6000823e601f3d908101601f19168201604052611b1d9190810190611f02565b600081518110611b2f57611b2f612422565b6020026020010151828281518110611b4957611b49612422565b602090810291909101015280611b5e816123f1565b915050611a6c565b50919050565b828054611b78906123bc565b90600052602060002090601f016020900481019282611b9a5760008555611be0565b82601f10611bb357805160ff1916838001178555611be0565b82800160010185558215611be0579182015b82811115611be0578251825591602001919060010190611bc5565b50611bec929150611c0e565b5090565b50805460008255906000526020600020908101906104d29190611c23565b5b80821115611bec5760008155600101611c0f565b80821115611bec576000611c378282611c40565b50600101611c23565b508054611c4c906123bc565b6000825580601f10611c5c575050565b601f0160209004906000526020600020908101906104d29190611c0e565b600082601f830112611c8b57600080fd5b81356001600160401b03811115611ca457611ca4612438565b611cb7601f8201601f191660200161233a565b818152846020838601011115611ccc57600080fd5b816020850160208301376000918101602001919091529392505050565b600060208284031215611cfb57600080fd5b81356116a88161244e565b600060208284031215611d1857600080fd5b81516116a88161244e565b60008060408385031215611d3657600080fd5b8235611d418161244e565b91506020830135611d518161244e565b809150509250929050565b600080600060608486031215611d7157600080fd5b8335611d7c8161244e565b92506020840135611d8c8161244e565b91506040840135611d9c8161244e565b809150509250925092565b600080600060608486031215611dbc57600080fd5b8335611dc78161244e565b92506020840135611dd78161244e565b929592945050506040919091013590565b600080600080600060a08688031215611e0057600080fd5b8535611e0b8161244e565b94506020860135611e1b8161244e565b9350604086013592506060860135915060808601356001600160401b03811115611e4457600080fd5b611e5088828901611c7a565b9150509295509295909350565b60006020808385031215611e7057600080fd5b82516001600160401b03811115611e8657600080fd5b8301601f81018513611e9757600080fd5b8051611eaa611ea58261236a565b61233a565b80828252848201915084840188868560051b8701011115611eca57600080fd5b600094505b83851015611ef6578051611ee28161244e565b835260019490940193918501918501611ecf565b50979650505050505050565b60006020808385031215611f1557600080fd5b82516001600160401b03811115611f2b57600080fd5b8301601f81018513611f3c57600080fd5b8051611f4a611ea58261236a565b80828252848201915084840188868560051b8701011115611f6a57600080fd5b600094505b83851015611ef6578051835260019490940193918501918501611f6f565b60006020808385031215611fa057600080fd5b82356001600160401b0380821115611fb757600080fd5b818501915085601f830112611fcb57600080fd5b8135611fd9611ea58261236a565b80828252858201915085850189878560051b8801011115611ff957600080fd5b6000805b8581101561203457823587811115612013578283fd5b6120218d8b838c0101611c7a565b8652509388019391880191600101611ffd565b50919a9950505050505050505050565b60006020828403121561205657600080fd5b81356116a881612463565b60006020828403121561207357600080fd5b81516116a881612463565b60006020828403121561209057600080fd5b5051919050565b600080604083850312156120aa57600080fd5b823591506020830135611d518161244e565b6000806000606084860312156120d157600080fd5b8351925060208401519150604084015190509250925092565b6000815180845260005b81811015612110576020818501810151868301820152016120f4565b81811115612122576000602083870101525b50601f01601f19169290920160200192915050565b6001600160a01b0391909116815260200190565b6001600160a01b0392831681529116602082015260400190565b6001600160a01b039384168152919092166020820152604081019190915260600190565b60018060a01b03841681528260208201526060604082015260006121b060608301846120ea565b95945050505050565b6000602080830181845280855180835260408601915060408160051b870101925083870160005b8281101561220e57603f198886030184526121fc8583516120ea565b945092850192908501906001016121e0565b5092979650505050505050565b6020815260006116a860208301846120ea565b600060208083526000845481600182811c91508083168061225057607f831692505b85831081141561226e57634e487b7160e01b85526022600452602485fd5b87860183815260200181801561228b576001811461229c576122c7565b60ff198616825287820196506122c7565b60008b81526020902060005b868110156122c1578154848201529085019089016122a8565b83019750505b50949998505050505050505050565b6020808252602e908201527f496e697469616c697a61626c653a20636f6e747261637420697320616c72656160408201526d191e481a5b9a5d1a585b1a5e995960921b606082015260800190565b9283526020830191909152604082015260600190565b604051601f8201601f191681016001600160401b038111828210171561236257612362612438565b604052919050565b60006001600160401b0382111561238357612383612438565b5060051b60200190565b600082198211156123a0576123a061240c565b500190565b6000828210156123b7576123b761240c565b500390565b600181811c908216806123d057607f821691505b60208210811415611b6657634e487b7160e01b600052602260045260246000fd5b60006000198214156124055761240561240c565b5060010190565b634e487b7160e01b600052601160045260246000fd5b634e487b7160e01b600052603260045260246000fd5b634e487b7160e01b600052604160045260246000fd5b6001600160a01b03811681146104d257600080fd5b80151581146104d257600080fdfea26469706673582212200d05d52799de032c4628f59a3cabcb412176ee51410512af08aa1b230282400864736f6c63430008070033",
  "immutableReferences": {},
  "source": "// SPDX-License-Identifier: GPL-3.0\r\n\r\npragma solidity 0.8.7;\r\n\r\n/**\r\n * @title Storage\r\n * @dev Store & retrieve value in a variable\r\n */\r\n\r\nimport \"../Interfaces/IPayments.sol\";\r\nimport \"../Interfaces/IPool.sol\";\r\nimport \"../Interfaces/ICreditor.sol\";\r\nimport \"@openzeppelin/contracts/token/ERC20/IERC20.sol\";\r\nimport \"../Libraries/UintLibrary.sol\";\r\nimport \"../Base/StdPropositionBaseContract.sol\";\r\n\r\n\r\ncontract Payments is IPayments, StdPropositionBaseContract{\r\n    using UintLibrary for *;\r\n\r\n    // EVENTS /////////////////////////////////////////\r\n    event _NewAddress(address TokenAddress);\r\n\r\n    // DATA /////////////////////////////////////////\r\n    IERC20 internal _TokenContract;\r\n\r\n    // MODIFIERS /////////////////////////////////////////\r\n    modifier isAddressOK(address addr)\r\n    {\r\n        require(address(0) != addr, \"EC21-\");\r\n        _;\r\n    }\r\n\r\n    modifier isFromCertifiedContract(address addr, uint256 id)\r\n    {\r\n        require(\r\n            addr == _managerContract.retrieveTransparentProxies()[uint256(Library.TransparentProxies.PublicPool)] || \r\n            addr == _managerContract.retrieveTransparentProxies()[uint256(Library.TransparentProxies.Treasury)] || \r\n            addr == _managerContract.retrieveTransparentProxies()[uint256(Library.TransparentProxies.AdminPiggyBank)] || \r\n            isNFTMarket(addr, id) \r\n        , \"It is not from one of the certified contracts\");\r\n        _;\r\n    }\r\n\r\n    function isNFTMarket(address addr, uint256 id) internal view returns(bool)\r\n    {\r\n        if(0 == id) return false;\r\n        IPool PublicPool = IPool(_managerContract.retrieveTransparentProxies()[uint256(Library.TransparentProxies.PublicPool)]);\r\n        return (addr == PublicPool.retrieveNFTMarketForIssuer(id));\r\n    }\r\n   \r\n    // CONSTRUCTOR /////////////////////////////////////////\r\n    function Payments_init(address managerContractAddress, address chairPerson, address tokenAddress) public initializer \r\n    {\r\n        super.StdPropositionBaseContract_init(chairPerson, managerContractAddress);\r\n        InternalupdateSettings(tokenAddress);\r\n    }\r\n\r\n    // GOVERNANCE /////////////////////////////////////////\r\n    function checkProposition(bytes[] memory NewValues) internal override \r\n        isAddressOK(AddressLibrary.Bytes32ToAddress(Library.BytestoBytes32(NewValues[0])[0]))\r\n    {}\r\n\r\n    function UpdateAll() internal override\r\n    {\r\n        bytes32[] memory ProposedNewValues = PropositionsToBytes32();\r\n        address NewAddress = AddressLibrary.Bytes32ToAddress(ProposedNewValues[0]);\r\n        InternalupdateSettings(NewAddress);\r\n        emit _NewAddress(NewAddress);\r\n    }\r\n\r\n    function InternalupdateSettings(address tokenAddress) internal\r\n    {\r\n        _TokenContract = IERC20(tokenAddress);\r\n    }\r\n\r\n    // FUNCTIONALITY /////////////////////////////////////////\r\n    function TransferFrom(address sender, address recipient, uint256 amount, uint256 MarketId, bytes memory data) external override\r\n        isFromCertifiedContract(msg.sender, MarketId)\r\n    {\r\n        require(_TokenContract.allowance(sender, address(this)) >= amount, \"Contract does not have enough approved funds\");\r\n        bool success = _TokenContract.transferFrom(sender, recipient, amount);\r\n        require(true == success, \"Transfer From did not work\");\r\n        ICreditor(recipient).CreditReceived(sender, amount, data);\r\n    }\r\n\r\n    function BalanceOf(address account) external override view returns(uint256)\r\n    {\r\n        return(_TokenContract.balanceOf(account));\r\n    }\r\n\r\n    function retrieveSettings() external override view returns(address)\r\n    {\r\n        return(address(_TokenContract));\r\n    }\r\n\r\n}",
  "sourcePath": "C:\\Users\\d-aam\\GitHub\\Originals\\contracts\\MainContracts\\Payments.sol",
  "compiler": {
    "name": "solc",
    "version": "0.8.7+commit.e28d00a7.Emscripten.clang"
  },
  "schemaVersion": "3.4.3",
  "updatedAt": "2022-02-22T13:10:39.979Z",
  "networkType": "ethereum",
  "devdoc": {
    "kind": "dev",
    "methods": {},
    "version": 1
  },
  "userdoc": {
    "kind": "user",
    "methods": {},
    "version": 1
  }
}