{
  "contractName": "Payments",
  "abi": [
    {
      "anonymous": false,
      "inputs": [
        {
          "indexed": false,
          "internalType": "uint256",
          "name": "Id",
          "type": "uint256"
        },
        {
          "indexed": true,
          "internalType": "address",
          "name": "Proposer",
          "type": "address"
        },
        {
          "indexed": false,
          "internalType": "uint256",
          "name": "Deadline",
          "type": "uint256"
        },
        {
          "indexed": false,
          "internalType": "uint256",
          "name": "Threshold",
          "type": "uint256"
        }
      ],
      "name": "_AddedProposition",
      "type": "event"
    },
    {
      "anonymous": false,
      "inputs": [
        {
          "indexed": false,
          "internalType": "uint256",
          "name": "Id",
          "type": "uint256"
        },
        {
          "indexed": true,
          "internalType": "address",
          "name": "Proposer",
          "type": "address"
        }
      ],
      "name": "_CancelledProposition",
      "type": "event"
    },
    {
      "anonymous": false,
      "inputs": [
        {
          "indexed": false,
          "internalType": "address[]",
          "name": "TokenAddresses",
          "type": "address[]"
        }
      ],
      "name": "_NewAddresses",
      "type": "event"
    },
    {
      "anonymous": false,
      "inputs": [
        {
          "indexed": false,
          "internalType": "uint256",
          "name": "Id",
          "type": "uint256"
        },
        {
          "indexed": true,
          "internalType": "address",
          "name": "Proposer",
          "type": "address"
        },
        {
          "indexed": false,
          "internalType": "uint256",
          "name": "VotesFor",
          "type": "uint256"
        },
        {
          "indexed": false,
          "internalType": "uint256",
          "name": "VotesAgainst",
          "type": "uint256"
        }
      ],
      "name": "_PropositionApproved",
      "type": "event"
    },
    {
      "anonymous": false,
      "inputs": [
        {
          "indexed": false,
          "internalType": "uint256",
          "name": "Id",
          "type": "uint256"
        },
        {
          "indexed": true,
          "internalType": "address",
          "name": "Proposer",
          "type": "address"
        },
        {
          "indexed": false,
          "internalType": "uint256",
          "name": "VotesFor",
          "type": "uint256"
        },
        {
          "indexed": false,
          "internalType": "uint256",
          "name": "VotesAgainst",
          "type": "uint256"
        }
      ],
      "name": "_PropositionRejected",
      "type": "event"
    },
    {
      "anonymous": false,
      "inputs": [
        {
          "indexed": false,
          "internalType": "uint256",
          "name": "Id",
          "type": "uint256"
        },
        {
          "indexed": true,
          "internalType": "address",
          "name": "Voter",
          "type": "address"
        },
        {
          "indexed": false,
          "internalType": "bool",
          "name": "Vote",
          "type": "bool"
        },
        {
          "indexed": false,
          "internalType": "uint256",
          "name": "AmountTokens",
          "type": "uint256"
        }
      ],
      "name": "_PropositionVote",
      "type": "event"
    },
    {
      "anonymous": false,
      "inputs": [
        {
          "indexed": true,
          "internalType": "uint256",
          "name": "Id",
          "type": "uint256"
        },
        {
          "indexed": false,
          "internalType": "address",
          "name": "From",
          "type": "address"
        },
        {
          "indexed": false,
          "internalType": "address",
          "name": "To",
          "type": "address"
        },
        {
          "indexed": false,
          "internalType": "uint256",
          "name": "Amount",
          "type": "uint256"
        }
      ],
      "name": "_UsedTokensTransfered",
      "type": "event"
    },
    {
      "inputs": [
        {
          "internalType": "address",
          "name": "chairPerson",
          "type": "address"
        },
        {
          "internalType": "address",
          "name": "managerContractAddress",
          "type": "address"
        }
      ],
      "name": "StdPropositionBaseContract_init",
      "outputs": [],
      "stateMutability": "nonpayable",
      "type": "function"
    },
    {
      "inputs": [],
      "name": "cancelProposition",
      "outputs": [],
      "stateMutability": "nonpayable",
      "type": "function"
    },
    {
      "inputs": [
        {
          "internalType": "address",
          "name": "from",
          "type": "address"
        },
        {
          "internalType": "address",
          "name": "to",
          "type": "address"
        },
        {
          "internalType": "uint256",
          "name": "amount",
          "type": "uint256"
        }
      ],
      "name": "onTokenBalanceChanged",
      "outputs": [],
      "stateMutability": "nonpayable",
      "type": "function"
    },
    {
      "inputs": [],
      "name": "retrieveChairPerson",
      "outputs": [
        {
          "internalType": "address",
          "name": "",
          "type": "address"
        }
      ],
      "stateMutability": "view",
      "type": "function"
    },
    {
      "inputs": [],
      "name": "retrieveManagerContract",
      "outputs": [
        {
          "internalType": "address",
          "name": "",
          "type": "address"
        }
      ],
      "stateMutability": "view",
      "type": "function"
    },
    {
      "inputs": [],
      "name": "retrieveNextPropId",
      "outputs": [
        {
          "internalType": "uint256",
          "name": "",
          "type": "uint256"
        }
      ],
      "stateMutability": "view",
      "type": "function"
    },
    {
      "inputs": [],
      "name": "retrieveProposition",
      "outputs": [
        {
          "internalType": "bytes[]",
          "name": "",
          "type": "bytes[]"
        }
      ],
      "stateMutability": "view",
      "type": "function"
    },
    {
      "inputs": [],
      "name": "retrievePropositionStatus",
      "outputs": [
        {
          "internalType": "address",
          "name": "",
          "type": "address"
        },
        {
          "internalType": "uint256",
          "name": "",
          "type": "uint256"
        },
        {
          "internalType": "uint256",
          "name": "",
          "type": "uint256"
        },
        {
          "internalType": "uint256",
          "name": "",
          "type": "uint256"
        },
        {
          "internalType": "uint256",
          "name": "",
          "type": "uint256"
        }
      ],
      "stateMutability": "view",
      "type": "function"
    },
    {
      "inputs": [
        {
          "internalType": "uint256",
          "name": "PropId",
          "type": "uint256"
        },
        {
          "internalType": "address",
          "name": "voter",
          "type": "address"
        }
      ],
      "name": "retrieveVotesForVoter",
      "outputs": [
        {
          "internalType": "uint256",
          "name": "",
          "type": "uint256"
        }
      ],
      "stateMutability": "view",
      "type": "function"
    },
    {
      "inputs": [
        {
          "internalType": "bytes[]",
          "name": "NewValues",
          "type": "bytes[]"
        }
      ],
      "name": "sendProposition",
      "outputs": [],
      "stateMutability": "nonpayable",
      "type": "function"
    },
    {
      "inputs": [
        {
          "internalType": "bool",
          "name": "vote",
          "type": "bool"
        }
      ],
      "name": "voteProposition",
      "outputs": [],
      "stateMutability": "nonpayable",
      "type": "function"
    },
    {
      "inputs": [
        {
          "internalType": "address",
          "name": "managerContractAddress",
          "type": "address"
        },
        {
          "internalType": "address",
          "name": "chairPerson",
          "type": "address"
        },
        {
          "internalType": "address[]",
          "name": "tokenAddresses",
          "type": "address[]"
        }
      ],
      "name": "Payments_init",
      "outputs": [],
      "stateMutability": "nonpayable",
      "type": "function"
    },
    {
      "inputs": [
        {
          "internalType": "address",
          "name": "sender",
          "type": "address"
        },
        {
          "internalType": "address",
          "name": "recipient",
          "type": "address"
        },
        {
          "internalType": "uint256",
          "name": "amount",
          "type": "uint256"
        },
        {
          "internalType": "uint256",
          "name": "MarketId",
          "type": "uint256"
        },
        {
          "internalType": "bytes",
          "name": "data",
          "type": "bytes"
        },
        {
          "internalType": "uint256",
          "name": "tokenId",
          "type": "uint256"
        }
      ],
      "name": "TransferFrom",
      "outputs": [],
      "stateMutability": "nonpayable",
      "type": "function"
    },
    {
      "inputs": [
        {
          "internalType": "address",
          "name": "account",
          "type": "address"
        },
        {
          "internalType": "uint256",
          "name": "tokenId",
          "type": "uint256"
        }
      ],
      "name": "BalanceOf",
      "outputs": [
        {
          "internalType": "uint256",
          "name": "",
          "type": "uint256"
        }
      ],
      "stateMutability": "view",
      "type": "function"
    },
    {
      "inputs": [],
      "name": "retrieveSettings",
      "outputs": [
        {
          "components": [
            {
              "internalType": "contract IERC20",
              "name": "TokenContract",
              "type": "address"
            },
            {
              "internalType": "bool",
              "name": "active",
              "type": "bool"
            }
          ],
          "internalType": "struct Library.PaymentTokenStruct[]",
          "name": "",
          "type": "tuple[]"
        }
      ],
      "stateMutability": "view",
      "type": "function"
    }
  ],
  "bytecode": "0x608060405234801561001057600080fd5b50612d7e806100206000396000f3fe608060405234801561001057600080fd5b50600436106100c55760003560e01c806304cc67a9146100ca5780632c2ec268146100e15780633c7df55d146100f65780634044adb21461010957806353fa2f1a1461011c57806355457ee91461012f5780635b362e8414610137578063840f6d171461015757806391f91671146101985780639ede86fa146101ab578063a93316f5146101be578063b049473f146101d3578063b1fd2359146101e8578063db85bc4d146101fb578063e15aa3a61461020c575b600080fd5b6008545b6040519081526020015b60405180910390f35b6100f46100ef3660046125e2565b61021f565b005b6100f46101043660046125a1565b610854565b6100ce6101173660046128c0565b610972565b6100ce61012a36600461265f565b61099c565b6100f4610a85565b6000546201000090046001600160a01b03165b6040516100d89190612960565b600354600454600554600654600754604080516001600160a01b0390961686526020860194909452928401919091526060830152608082015260a0016100d8565b6100f46101a636600461286d565b610b5f565b6100f46101b93660046124d5565b610b6c565b6101c6610bf3565b6040516100d89190612a36565b6101db610ccc565b6040516100d89190612a98565b6100f46101f636600461249c565b610d3b565b6001546001600160a01b031661014a565b6100f461021a3660046127b6565b610db9565b3383600060029054906101000a90046001600160a01b03166001600160a01b031663e220ad956040518163ffffffff1660e01b815260040160006040518083038186803b15801561026f57600080fd5b505afa158015610283573d6000803e3d6000fd5b505050506040513d6000823e601f3d908101601f191682016040526102ab919081019061268b565b6001815181106102bd576102bd612cf9565b60200260200101516001600160a01b0316826001600160a01b031614806103985750600060029054906101000a90046001600160a01b03166001600160a01b031663e220ad956040518163ffffffff1660e01b815260040160006040518083038186803b15801561032d57600080fd5b505afa158015610341573d6000803e3d6000fd5b505050506040513d6000823e601f3d908101601f19168201604052610369919081019061268b565b60028151811061037b5761037b612cf9565b60200260200101516001600160a01b0316826001600160a01b0316145b806104575750600060029054906101000a90046001600160a01b03166001600160a01b031663e220ad956040518163ffffffff1660e01b815260040160006040518083038186803b1580156103ec57600080fd5b505afa158015610400573d6000803e3d6000fd5b505050506040513d6000823e601f3d908101601f19168201604052610428919081019061268b565b60058151811061043a5761043a612cf9565b60200260200101516001600160a01b0316826001600160a01b0316145b8061046757506104678282610e33565b6104ce5760405162461bcd60e51b815260206004820152602d60248201527f4974206973206e6f742066726f6d206f6e65206f66207468652063657274696660448201526c69656420636f6e74726163747360981b60648201526084015b60405180910390fd5b600b548390811080156105075750600b81815481106104ef576104ef612cf9565b6000918252602090912001546001600160a01b031615155b6105755760405162461bcd60e51b815260206004820152603960248201527f7468697320746f6b656e20496420646f6573206e6f742068617665206120636f60448201527872726573706f6e64696e6720546f6b656e206164647265737360381b60648201526084016104c5565b600b818154811061058857610588612cf9565b600091825260209091200154600160a01b900460ff1615156001146105ed5760405162461bcd60e51b815260206004820152601b60248201527a7468697320746f6b656e204964206973206e6f742061637469766560281b60448201526064016104c5565b86600b858154811061060157610601612cf9565b600091825260209091200154604051636eb1769f60e11b81526001600160a01b039091169063dd62ed3e9061063c908d903090600401612974565b60206040518083038186803b15801561065457600080fd5b505afa158015610668573d6000803e3d6000fd5b505050506040513d601f19601f8201168201806040525081019061068c91906128a7565b10156106ef5760405162461bcd60e51b815260206004820152602c60248201527f436f6e747261637420646f6573206e6f74206861766520656e6f75676820617060448201526b70726f7665642066756e647360a01b60648201526084016104c5565b6000600b858154811061070457610704612cf9565b6000918252602090912001546040516323b872dd60e01b81526001600160a01b03909116906323b872dd90610741908d908d908d9060040161298e565b602060405180830381600087803b15801561075b57600080fd5b505af115801561076f573d6000803e3d6000fd5b505050506040513d601f19601f82011682018060405250810190610793919061288a565b90506001811515146107e45760405162461bcd60e51b815260206004820152601a6024820152795472616e736665722046726f6d20646964206e6f7420776f726b60301b60448201526064016104c5565b604051638266251f60e01b81526001600160a01b038a1690638266251f90610816908d908c908a908c906004016129b2565b600060405180830381600087803b15801561083057600080fd5b505af1158015610844573d6000803e3d6000fd5b5050505050505050505050505050565b3373__Library_______________________________6337ea306382600060029054906101000a90046001600160a01b03166001600160a01b031663e220ad956040518163ffffffff1660e01b815260040160006040518083038186803b1580156108be57600080fd5b505afa1580156108d2573d6000803e3d6000fd5b505050506040513d6000823e601f3d908101601f191682016040526108fa919081019061268b565b60038151811061090c5761090c612cf9565b60200260200101516040518363ffffffff1660e01b8152600401610931929190612974565b60006040518083038186803b15801561094957600080fd5b505af415801561095d573d6000803e3d6000fd5b5050505061096c848484610f84565b50505050565b60008281526009602090815260408083206001600160a01b03851684529091529020545b92915050565b600b54600090821015806109d55750600b82815481106109be576109be612cf9565b6000918252602090912001546001600160a01b0316155b156109e257506000610996565b600b82815481106109f5576109f5612cf9565b6000918252602090912001546040516370a0823160e01b81526001600160a01b03909116906370a0823190610a2e908690600401612960565b60206040518083038186803b158015610a4657600080fd5b505afa158015610a5a573d6000803e3d6000fd5b505050506040513d601f19601f82011682018060405250810190610a7e91906128a7565b9392505050565b6001610a9081610fa1565b6003546040516337ea306360e01b8152339173__Library_______________________________916337ea306391610ad69185916001600160a01b031690600401612974565b60006040518083038186803b158015610aee57600080fd5b505af4158015610b02573d6000803e3d6000fd5b50505050610b0e611025565b610b1661102f565b6003546002546040519081526001600160a01b03909116907f1fe8aec10c0a50fa765076161e08c1f961ced69594ff45cf7d559f593afe14799060200160405180910390a25050565b610b69338261105a565b50565b600054610100900460ff16610b875760005460ff1615610b8b565b303b155b610ba75760405162461bcd60e51b81526004016104c590612bad565b600054610100900460ff16158015610bc9576000805461ffff19166101011790555b610bd38385610d3b565b610bdc82611172565b801561096c576000805461ff001916905550505050565b6060600a805480602002602001604051908101604052809291908181526020016000905b82821015610cc3578382906000526020600020018054610c3690612c93565b80601f0160208091040260200160405190810160405280929190818152602001828054610c6290612c93565b8015610caf5780601f10610c8457610100808354040283529160200191610caf565b820191906000526020600020905b815481529060010190602001808311610c9257829003601f168201915b505050505081526020019060010190610c17565b50505050905090565b6060600b805480602002602001604051908101604052809291908181526020016000905b82821015610cc357600084815260209081902060408051808201909152908401546001600160a01b0381168252600160a01b900460ff16151581830152825260019092019101610cf0565b600054610100900460ff16610d565760005460ff1615610d5a565b303b155b610d765760405162461bcd60e51b81526004016104c590612bad565b600054610100900460ff16158015610d98576000805461ffff19166101011790555b610da283836113b9565b8015610db4576000805461ff00191690555b505050565b610dc281611455565b610dca61183e565b60005b8151811015610e2f57600a828281518110610dea57610dea612cf9565b60209081029190910181015182546001810184556000938452928290208151610e1c9491909101929190910190612302565b5080610e2781612cc8565b915050610dcd565b5050565b600081610e4257506000610996565b60008060029054906101000a90046001600160a01b03166001600160a01b031663e220ad956040518163ffffffff1660e01b815260040160006040518083038186803b158015610e9157600080fd5b505afa158015610ea5573d6000803e3d6000fd5b505050506040513d6000823e601f3d908101601f19168201604052610ecd919081019061268b565b600181518110610edf57610edf612cf9565b60200260200101519050806001600160a01b03166303231e5d846040518263ffffffff1660e01b8152600401610f1791815260200190565b60206040518083038186803b158015610f2f57600080fd5b505afa158015610f43573d6000803e3d6000fd5b505050506040513d601f19601f82011682018060405250810190610f67919061247f565b6001600160a01b0316846001600160a01b03161491505092915050565b610f8c611b8d565b151560011415610db457610db4838383611bc7565b8015610fe857610faf611b8d565b1515600114610b695760405162461bcd60e51b8152602060048201526005602482015264454332352d60d81b60448201526064016104c5565b610ff0611b8d565b15610b695760405162461bcd60e51b8152602060048201526005602482015264454332342d60d81b60448201526064016104c5565b61102d611d28565b565b60006002819055600380546001600160a01b0319169055600481905560058190556006819055600755565b600161106581610fa1565b600254839060006110768383611d34565b9050600081116110b05760405162461bcd60e51b8152602060048201526005602482015264454332332d60d81b60448201526064016104c5565b60006110c187600260000154611d34565b905085156110e95780600260040160008282546110de9190612c64565b909155506111049050565b80600260050160008282546110fe9190612c64565b90915550505b600254611112908883611d6a565b60025460408051918252871515602083015281018290526001600160a01b038816907f50f654d58981575c05e369cb129aeacb01e1b036af429380242cfc5d1a4b743f9060600160405180910390a2611169611da6565b50505050505050565b60005b600b548110156112ff578151811080156111bb575081818151811061119c5761119c612cf9565b60200260200101516001600160a01b031660006001600160a01b031614155b15611284578181815181106111d2576111d2612cf9565b6020026020010151600b82815481106111ed576111ed612cf9565b600091825260209091200180546001600160a01b0319166001600160a01b0392909216919091179055600b80548290811061122a5761122a612cf9565b600091825260209091200154600160a01b900460ff1661127f576001600b828154811061125957611259612cf9565b60009182526020909120018054911515600160a01b0260ff60a01b199092169190911790555b6112ed565b600b818154811061129757611297612cf9565b600091825260209091200154600160a01b900460ff16156112ed576000600b82815481106112c7576112c7612cf9565b60009182526020909120018054911515600160a01b0260ff60a01b199092169190911790555b806112f781612cc8565b915050611175565b50600b545b8151811015610e2f576000604051806040016040528084848151811061132c5761132c612cf9565b6020908102919091018101516001600160a01b0390811683526001928201839052600b8054938401815560005283517f0175b7a638427703f0dbe7bb9bbf987a2551717b34e79f33b5b1008d1fa01db9909301805494909201511515600160a01b026001600160a81b031990941692169190911791909117905550806113b181612cc8565b915050611304565b600054610100900460ff166113d45760005460ff16156113d8565b303b155b6113f45760405162461bcd60e51b81526004016104c590612bad565b600054610100900460ff16158015611416576000805461ffff19166101011790555b61141f82611e7a565b600180546001600160a01b0319166001600160a01b03851617905560006008558015610db4576000805461ff0019169055505050565b8060008151116114bb5760405162461bcd60e51b815260206004820152602b60248201527f4174206c65617374206f6e6520746f6b656e2061646472657373206d7573742060448201526a1899481c1c9bdd9a59195960aa1b60648201526084016104c5565b600b548151111561168c57600b545b8151811015610db45773__AddressLibrary________________________63f4ce9ae873__Library_______________________________63caa8f58985858151811061151957611519612cf9565b60200260200101516040518263ffffffff1660e01b815260040161153d9190612af2565b60006040518083038186803b15801561155557600080fd5b505af4158015611569573d6000803e3d6000fd5b505050506040513d6000823e601f3d908101601f19168201604052611591919081019061272b565b6000815181106115a3576115a3612cf9565b60200260200101516040518263ffffffff1660e01b81526004016115c991815260200190565b60206040518083038186803b1580156115e157600080fd5b505af41580156115f5573d6000803e3d6000fd5b505050506040513d601f19601f82011682018060405250810190611619919061247f565b6001600160a01b031661167a5760405162461bcd60e51b815260206004820152602360248201527f4e657720546f6b656e206164647265737365732063616e6e6f7420626520656d60448201526270747960e81b60648201526084016104c5565b8061168481612cc8565b9150506114ca565b6000805b82518110156118085773__AddressLibrary________________________63f4ce9ae873__Library_______________________________63caa8f5898685815181106116df576116df612cf9565b60200260200101516040518263ffffffff1660e01b81526004016117039190612af2565b60006040518083038186803b15801561171b57600080fd5b505af415801561172f573d6000803e3d6000fd5b505050506040513d6000823e601f3d908101601f19168201604052611757919081019061272b565b60008151811061176957611769612cf9565b60200260200101516040518263ffffffff1660e01b815260040161178f91815260200190565b60206040518083038186803b1580156117a757600080fd5b505af41580156117bb573d6000803e3d6000fd5b505050506040513d601f19601f820116820180604052508101906117df919061247f565b6001600160a01b0316156117f65760019150611808565b8061180081612cc8565b915050611690565b5080610db45760405162461bcd60e51b8152602060048201526005602482015264454332312d60d81b60448201526064016104c5565b600061184981610fa1565b60015433906000906001600160a01b03168214156118695750600161199f565b600061187483611f0e565b905060008060029054906101000a90046001600160a01b03166001600160a01b031663e220ad956040518163ffffffff1660e01b815260040160006040518083038186803b1580156118c557600080fd5b505afa1580156118d9573d6000803e3d6000fd5b505050506040513d6000823e601f3d908101601f19168201604052611901919081019061268b565b60048151811061191357611913612cf9565b60200260200101516001600160a01b031663b049473f6040518163ffffffff1660e01b815260040160606040518083038186803b15801561195357600080fd5b505afa158015611967573d6000803e3d6000fd5b505050506040513d601f19601f8201168201806040525081019061198b91906128e5565b925050508082111561199c57600192505b50505b6001811515146119d95760405162461bcd60e51b8152602060048201526005602482015264454332322d60d81b60448201526064016104c5565b600080600060029054906101000a90046001600160a01b03166001600160a01b031663e220ad956040518163ffffffff1660e01b815260040160006040518083038186803b158015611a2a57600080fd5b505afa158015611a3e573d6000803e3d6000fd5b505050506040513d6000823e601f3d908101601f19168201604052611a66919081019061268b565b600481518110611a7857611a78612cf9565b60200260200101516001600160a01b031663b049473f6040518163ffffffff1660e01b815260040160606040518083038186803b158015611ab857600080fd5b505afa158015611acc573d6000803e3d6000fd5b505050506040513d601f19601f82011682018060405250810190611af091906128e5565b50600380546001600160a01b031916331790559092509050611b128242612c64565b6004556005819055600880546002819055906000611b2f83612cc8565b90915550506003546002546004546005546040516001600160a01b03909416937f472501d19bf75639b2e316cd36f8568b0c3ab943b82a87de3c086c98c1929df993611b7e9390929091612bfb565b60405180910390a25050505050565b600454600090421015611ba05750600190565b6003546001600160a01b031615611bc157611bb9611025565b611bc161102f565b50600090565b6001600160a01b03831615801590611c03575060025460009081526009602090815260408083206001600160a01b038716845290915290205415155b15610db45760025460009081526009602090815260408083206001600160a01b03871684529091529020548190811115611c5f575060025460009081526009602090815260408083206001600160a01b03871684529091529020545b60025460009081526009602090815260408083206001600160a01b038816845290915281208054839290611c94908490612c7c565b90915550506001600160a01b03831615611ce35760025460009081526009602090815260408083206001600160a01b038716845290915281208054839290611cdd908490612c64565b90915550505b6002546040517f65fbd5e5dd32bea4aeca85bd0be0abf0e489d655dee888a7510d43b06dda2dba90611d1a9087908790869061298e565b60405180910390a250505050565b61102d600a6000612386565b60008181526009602090815260408083206001600160a01b0386168452909152812054611d6084611f0e565b610a7e9190612c7c565b60008381526009602090815260408083206001600160a01b038616845290915281208054839290611d9c908490612c64565b9091555050505050565b60055460065410611e1557611db961202e565b611dc161102f565b6003546002546006546007546040516001600160a01b03909416937f23ca0034cf5aad32571b4a492e9598ea8a490e1643a60970e3cdc6933b55e49f93611e0b9390929091612bfb565b60405180910390a2565b6005546007541061102d57611e28611025565b611e3061102f565b6003546002546006546007546040516001600160a01b03909416937fa58eb6daa3c62c3f883973c4035e5bd3e81aa627c8379de068a7de42df122be293611e0b9390929091612bfb565b600054610100900460ff16611e955760005460ff1615611e99565b303b155b611eb55760405162461bcd60e51b81526004016104c590612bad565b600054610100900460ff16158015611ed7576000805461ffff19166101011790555b6000805462010000600160b01b031916620100006001600160a01b038516021790558015610e2f576000805461ff00191690555050565b60008060029054906101000a90046001600160a01b03166001600160a01b031663e220ad956040518163ffffffff1660e01b815260040160006040518083038186803b158015611f5d57600080fd5b505afa158015611f71573d6000803e3d6000fd5b505050506040513d6000823e601f3d908101601f19168201604052611f99919081019061268b565b600381518110611fab57611fab612cf9565b60200260200101516001600160a01b03166370a08231836040518263ffffffff1660e01b8152600401611fde9190612960565b60206040518083038186803b158015611ff657600080fd5b505afa15801561200a573d6000803e3d6000fd5b505050506040513d601f19601f8201168201806040525081019061099691906128a7565b611025600061203b6121b3565b9050600081516001600160401b0381111561205857612058612d0f565b604051908082528060200260200182016040528015612081578160200160208202803683370190505b50905060005b815181101561216e5773__AddressLibrary________________________63f4ce9ae88483815181106120bc576120bc612cf9565b60200260200101516040518263ffffffff1660e01b81526004016120e291815260200190565b60206040518083038186803b1580156120fa57600080fd5b505af415801561210e573d6000803e3d6000fd5b505050506040513d601f19601f82011682018060405250810190612132919061247f565b82828151811061214457612144612cf9565b6001600160a01b03909216602092830291909101909101528061216681612cc8565b915050612087565b5061217881611172565b7f6d747f3c6d7ce12f81ce29f949ce2050ce7af0aea03bb6206b6089fa23dec582816040516121a791906129e9565b60405180910390a15050565b600a546060906000906001600160401b038111156121d3576121d3612d0f565b6040519080825280602002602001820160405280156121fc578160200160208202803683370190505b50905060005b600a548110156122fc5773__Library_______________________________63caa8f589600a838154811061223957612239612cf9565b906000526020600020016040518263ffffffff1660e01b815260040161225f9190612b05565b60006040518083038186803b15801561227757600080fd5b505af415801561228b573d6000803e3d6000fd5b505050506040513d6000823e601f3d908101601f191682016040526122b3919081019061272b565b6000815181106122c5576122c5612cf9565b60200260200101518282815181106122df576122df612cf9565b6020908102919091010152806122f481612cc8565b915050612202565b50919050565b82805461230e90612c93565b90600052602060002090601f0160209004810192826123305760008555612376565b82601f1061234957805160ff1916838001178555612376565b82800160010185558215612376579182015b8281111561237657825182559160200191906001019061235b565b506123829291506123a4565b5090565b5080546000825590600052602060002090810190610b6991906123b9565b5b8082111561238257600081556001016123a5565b808211156123825760006123cd82826123d6565b506001016123b9565b5080546123e290612c93565b6000825580601f106123f2575050565b601f016020900490600052602060002090810190610b6991906123a4565b600082601f83011261242157600080fd5b81356001600160401b0381111561243a5761243a612d0f565b61244d601f8201601f1916602001612c11565b81815284602083860101111561246257600080fd5b816020850160208301376000918101602001919091529392505050565b60006020828403121561249157600080fd5b8151610a7e81612d25565b600080604083850312156124af57600080fd5b82356124ba81612d25565b915060208301356124ca81612d25565b809150509250929050565b6000806000606084860312156124ea57600080fd5b83356124f581612d25565b925060208481013561250681612d25565b925060408501356001600160401b0381111561252157600080fd5b8501601f8101871361253257600080fd5b803561254561254082612c41565b612c11565b8082825284820191508484018a868560051b870101111561256557600080fd5b600094505b8385101561259157803561257d81612d25565b83526001949094019391850191850161256a565b5080955050505050509250925092565b6000806000606084860312156125b657600080fd5b83356125c181612d25565b925060208401356125d181612d25565b929592945050506040919091013590565b60008060008060008060c087890312156125fb57600080fd5b863561260681612d25565b9550602087013561261681612d25565b9450604087013593506060870135925060808701356001600160401b0381111561263f57600080fd5b61264b89828a01612410565b92505060a087013590509295509295509295565b6000806040838503121561267257600080fd5b823561267d81612d25565b946020939093013593505050565b6000602080838503121561269e57600080fd5b82516001600160401b038111156126b457600080fd5b8301601f810185136126c557600080fd5b80516126d361254082612c41565b80828252848201915084840188868560051b87010111156126f357600080fd5b600094505b8385101561271f57805161270b81612d25565b8352600194909401939185019185016126f8565b50979650505050505050565b6000602080838503121561273e57600080fd5b82516001600160401b0381111561275457600080fd5b8301601f8101851361276557600080fd5b805161277361254082612c41565b80828252848201915084840188868560051b870101111561279357600080fd5b600094505b8385101561271f578051835260019490940193918501918501612798565b600060208083850312156127c957600080fd5b82356001600160401b03808211156127e057600080fd5b818501915085601f8301126127f457600080fd5b813561280261254082612c41565b80828252858201915085850189878560051b880101111561282257600080fd5b6000805b8581101561285d5782358781111561283c578283fd5b61284a8d8b838c0101612410565b8652509388019391880191600101612826565b50919a9950505050505050505050565b60006020828403121561287f57600080fd5b8135610a7e81612d3a565b60006020828403121561289c57600080fd5b8151610a7e81612d3a565b6000602082840312156128b957600080fd5b5051919050565b600080604083850312156128d357600080fd5b8235915060208301356124ca81612d25565b6000806000606084860312156128fa57600080fd5b8351925060208401519150604084015190509250925092565b6000815180845260005b818110156129395760208185018101518683018201520161291d565b8181111561294b576000602083870101525b50601f01601f19169290920160200192915050565b6001600160a01b0391909116815260200190565b6001600160a01b0392831681529116602082015260400190565b6001600160a01b039384168152919092166020820152604081019190915260600190565b60018060a01b03851681528360208201528260408201526080606082015260006129df6080830184612913565b9695505050505050565b6020808252825182820181905260009190848201906040850190845b81811015612a2a5783516001600160a01b031683529284019291840191600101612a05565b50909695505050505050565b6000602080830181845280855180835260408601915060408160051b870101925083870160005b82811015612a8b57603f19888603018452612a79858351612913565b94509285019290850190600101612a5d565b5092979650505050505050565b602080825282518282018190526000919060409081850190868401855b82811015612ae557815180516001600160a01b031685528601511515868501529284019290850190600101612ab5565b5091979650505050505050565b602081526000610a7e6020830184612913565b600060208083526000845481600182811c915080831680612b2757607f831692505b858310811415612b4557634e487b7160e01b85526022600452602485fd5b878601838152602001818015612b625760018114612b7357612b9e565b60ff19861682528782019650612b9e565b60008b81526020902060005b86811015612b9857815484820152908501908901612b7f565b83019750505b50949998505050505050505050565b6020808252602e908201527f496e697469616c697a61626c653a20636f6e747261637420697320616c72656160408201526d191e481a5b9a5d1a585b1a5e995960921b606082015260800190565b9283526020830191909152604082015260600190565b604051601f8201601f191681016001600160401b0381118282101715612c3957612c39612d0f565b604052919050565b60006001600160401b03821115612c5a57612c5a612d0f565b5060051b60200190565b60008219821115612c7757612c77612ce3565b500190565b600082821015612c8e57612c8e612ce3565b500390565b600181811c90821680612ca757607f821691505b602082108114156122fc57634e487b7160e01b600052602260045260246000fd5b6000600019821415612cdc57612cdc612ce3565b5060010190565b634e487b7160e01b600052601160045260246000fd5b634e487b7160e01b600052603260045260246000fd5b634e487b7160e01b600052604160045260246000fd5b6001600160a01b0381168114610b6957600080fd5b8015158114610b6957600080fdfea2646970667358221220c02c04f305f4f05cbd33f29a959d4c6544c78e5a2edbb631da152935e11755d664736f6c63430008070033",
  "immutableReferences": {},
  "source": "// SPDX-License-Identifier: GPL-3.0\r\n\r\npragma solidity 0.8.7;\r\n\r\n/**\r\n * @title Storage\r\n * @dev Store & retrieve value in a variable\r\n */\r\n\r\nimport \"../Interfaces/IPayments.sol\";\r\nimport \"../Interfaces/IPool.sol\";\r\nimport \"../Interfaces/ICreditor.sol\";\r\nimport \"@openzeppelin/contracts/token/ERC20/IERC20.sol\";\r\nimport \"../Libraries/UintLibrary.sol\";\r\nimport \"../Base/StdPropositionBaseContract.sol\";\r\n\r\n\r\ncontract Payments is IPayments, StdPropositionBaseContract{\r\n    using UintLibrary for *;\r\n    using Library for *;\r\n\r\n    // EVENTS /////////////////////////////////////////\r\n    event _NewAddresses(address[] TokenAddresses);\r\n\r\n    // DATA /////////////////////////////////////////\r\n    Library.PaymentTokenStruct[] _Tokens;\r\n\r\n    // MODIFIERS /////////////////////////////////////////\r\n    modifier areAddressesOK(bytes[] memory NewValues)\r\n    {\r\n        require(NewValues.length > 0, \"At least one token address must be provided\");\r\n\r\n        if(NewValues.length > _Tokens.length){\r\n            for(uint256 i=_Tokens.length; i < NewValues.length; i++){\r\n                require(address(0) != AddressLibrary.Bytes32ToAddress(Library.BytestoBytes32(NewValues[i])[0]), \"New Token addresses cannot be empty\");\r\n            }\r\n        }\r\n        else{\r\n            bool AtLeastOneActiveToken = false;\r\n            for(uint256 i=0; i < NewValues.length; i++){\r\n                if(address(0) != AddressLibrary.Bytes32ToAddress(Library.BytestoBytes32(NewValues[i])[0])) {\r\n                    AtLeastOneActiveToken = true;\r\n                    break;\r\n                }\r\n            }\r\n            require(AtLeastOneActiveToken, \"EC21-\");\r\n        }\r\n        _;\r\n    }\r\n\r\n    modifier isFromCertifiedContract(address addr, uint256 id)\r\n    {\r\n        require(\r\n            addr == _managerContract.retrieveTransparentProxies()[uint256(Library.TransparentProxies.PublicPool)] || \r\n            addr == _managerContract.retrieveTransparentProxies()[uint256(Library.TransparentProxies.Treasury)] || \r\n            addr == _managerContract.retrieveTransparentProxies()[uint256(Library.TransparentProxies.AdminPiggyBank)] || \r\n            isNFTMarket(addr, id) \r\n        , \"It is not from one of the certified contracts\");\r\n        _;\r\n    }\r\n\r\n    function isNFTMarket(address addr, uint256 id) internal view returns(bool)\r\n    {\r\n        if(0 == id) return false;\r\n        IPool PublicPool = IPool(_managerContract.retrieveTransparentProxies()[uint256(Library.TransparentProxies.PublicPool)]);\r\n        return (addr == PublicPool.retrieveNFTMarketForIssuer(id));\r\n    }\r\n\r\n    modifier isTokenIdOK(uint256 tokenId)\r\n    {\r\n        require(tokenId < _Tokens.length && \r\n            address(0) != address(_Tokens[tokenId].TokenContract), \"this token Id does not have a corresponding Token address\");\r\n        require(true == _Tokens[tokenId].active, \"this token Id is not active\");\r\n        _;\r\n    }\r\n   \r\n    // CONSTRUCTOR /////////////////////////////////////////\r\n    function Payments_init(address managerContractAddress, address chairPerson, address[] memory tokenAddresses) public initializer \r\n    {\r\n        super.StdPropositionBaseContract_init(chairPerson, managerContractAddress);\r\n        InternalupdateSettings(tokenAddresses);\r\n    }\r\n\r\n    // GOVERNANCE /////////////////////////////////////////\r\n    function checkProposition(bytes[] memory NewValues) internal override \r\n        areAddressesOK(NewValues)\r\n    {}\r\n\r\n    function UpdateAll() internal override\r\n    {\r\n        bytes32[] memory ProposedNewValues = PropositionsToBytes32();\r\n        address[] memory NewAddresses = new address[](ProposedNewValues.length);\r\n        for(uint256 i=0; i < NewAddresses.length; i++){\r\n            NewAddresses[i] = AddressLibrary.Bytes32ToAddress(ProposedNewValues[i]);\r\n        }\r\n\r\n        InternalupdateSettings(NewAddresses);\r\n        emit _NewAddresses(NewAddresses);\r\n    }\r\n\r\n    function InternalupdateSettings(address[] memory tokenAddresses) internal\r\n    {\r\n        for(uint256 i=0; i < _Tokens.length; i++){\r\n            if(i < tokenAddresses.length && address(0) != tokenAddresses[i]) {\r\n                _Tokens[i].TokenContract = IERC20(tokenAddresses[i]);\r\n                if(!_Tokens[i].active)_Tokens[i].active = true;\r\n            }\r\n            else{\r\n                if(_Tokens[i].active)_Tokens[i].active = false;\r\n            }\r\n        }\r\n\r\n        for(uint256 k=_Tokens.length; k < tokenAddresses.length; k++){\r\n            Library.PaymentTokenStruct memory newToken = Library.PaymentTokenStruct(IERC20(tokenAddresses[k]), true);\r\n            _Tokens.push(newToken);\r\n        }\r\n    }\r\n\r\n    // FUNCTIONALITY /////////////////////////////////////////\r\n    function TransferFrom(address sender, address recipient, uint256 amount, uint256 MarketId, bytes memory data, uint256 tokenId) external override\r\n        isFromCertifiedContract(msg.sender, MarketId)\r\n        isTokenIdOK(tokenId)\r\n    {\r\n        require(_Tokens[tokenId].TokenContract.allowance(sender, address(this)) >= amount, \"Contract does not have enough approved funds\");\r\n        bool success = _Tokens[tokenId].TokenContract.transferFrom(sender, recipient, amount);\r\n        require(true == success, \"Transfer From did not work\");\r\n        ICreditor(recipient).CreditReceived(sender, amount, tokenId, data);\r\n    }\r\n\r\n    function BalanceOf(address account, uint256 tokenId) external override view returns(uint256)\r\n    {\r\n        if(tokenId >= _Tokens.length || address(0) == address(_Tokens[tokenId].TokenContract)) return 0;\r\n        return(_Tokens[tokenId].TokenContract.balanceOf(account));\r\n    }\r\n\r\n    function retrieveSettings() external override view returns(Library.PaymentTokenStruct[] memory)\r\n    {\r\n        return(_Tokens);\r\n    }\r\n\r\n}",
  "sourcePath": "C:\\Users\\d-aam\\GitHub\\Originals\\contracts\\MainContracts\\Payments.sol",
  "compiler": {
    "name": "solc",
    "version": "0.8.7+commit.e28d00a7.Emscripten.clang"
  },
  "schemaVersion": "3.4.3",
  "updatedAt": "2022-02-25T10:30:31.518Z",
  "devdoc": {
    "kind": "dev",
    "methods": {},
    "version": 1
  },
  "userdoc": {
    "kind": "user",
    "methods": {},
    "version": 1
  }
}