{
  "contractName": "Payments",
  "abi": [
    {
      "anonymous": false,
      "inputs": [
        {
          "indexed": false,
          "internalType": "uint256",
          "name": "Id",
          "type": "uint256"
        },
        {
          "indexed": true,
          "internalType": "address",
          "name": "Proposer",
          "type": "address"
        },
        {
          "indexed": false,
          "internalType": "uint256",
          "name": "Deadline",
          "type": "uint256"
        },
        {
          "indexed": false,
          "internalType": "uint256",
          "name": "Threshold",
          "type": "uint256"
        }
      ],
      "name": "_AddedProposition",
      "type": "event"
    },
    {
      "anonymous": false,
      "inputs": [
        {
          "indexed": false,
          "internalType": "uint256",
          "name": "Id",
          "type": "uint256"
        },
        {
          "indexed": true,
          "internalType": "address",
          "name": "Proposer",
          "type": "address"
        }
      ],
      "name": "_CancelledProposition",
      "type": "event"
    },
    {
      "anonymous": false,
      "inputs": [
        {
          "indexed": false,
          "internalType": "address",
          "name": "TokenAddress",
          "type": "address"
        }
      ],
      "name": "_NewAddress",
      "type": "event"
    },
    {
      "anonymous": false,
      "inputs": [
        {
          "indexed": false,
          "internalType": "uint256",
          "name": "Id",
          "type": "uint256"
        },
        {
          "indexed": true,
          "internalType": "address",
          "name": "Proposer",
          "type": "address"
        },
        {
          "indexed": false,
          "internalType": "uint256",
          "name": "VotesFor",
          "type": "uint256"
        },
        {
          "indexed": false,
          "internalType": "uint256",
          "name": "VotesAgainst",
          "type": "uint256"
        }
      ],
      "name": "_PropositionApproved",
      "type": "event"
    },
    {
      "anonymous": false,
      "inputs": [
        {
          "indexed": false,
          "internalType": "uint256",
          "name": "Id",
          "type": "uint256"
        },
        {
          "indexed": true,
          "internalType": "address",
          "name": "Proposer",
          "type": "address"
        },
        {
          "indexed": false,
          "internalType": "uint256",
          "name": "VotesFor",
          "type": "uint256"
        },
        {
          "indexed": false,
          "internalType": "uint256",
          "name": "VotesAgainst",
          "type": "uint256"
        }
      ],
      "name": "_PropositionRejected",
      "type": "event"
    },
    {
      "anonymous": false,
      "inputs": [
        {
          "indexed": false,
          "internalType": "uint256",
          "name": "Id",
          "type": "uint256"
        },
        {
          "indexed": true,
          "internalType": "address",
          "name": "Voter",
          "type": "address"
        },
        {
          "indexed": false,
          "internalType": "bool",
          "name": "Vote",
          "type": "bool"
        },
        {
          "indexed": false,
          "internalType": "uint256",
          "name": "AmountTokens",
          "type": "uint256"
        }
      ],
      "name": "_PropositionVote",
      "type": "event"
    },
    {
      "anonymous": false,
      "inputs": [
        {
          "indexed": true,
          "internalType": "uint256",
          "name": "Id",
          "type": "uint256"
        },
        {
          "indexed": false,
          "internalType": "address",
          "name": "From",
          "type": "address"
        },
        {
          "indexed": false,
          "internalType": "address",
          "name": "To",
          "type": "address"
        },
        {
          "indexed": false,
          "internalType": "uint256",
          "name": "Amount",
          "type": "uint256"
        }
      ],
      "name": "_UsedTokensTransfered",
      "type": "event"
    },
    {
      "inputs": [
        {
          "internalType": "address",
          "name": "chairPerson",
          "type": "address"
        },
        {
          "internalType": "address",
          "name": "managerContractAddress",
          "type": "address"
        }
      ],
      "name": "StdPropositionBaseContract_init",
      "outputs": [],
      "stateMutability": "nonpayable",
      "type": "function"
    },
    {
      "inputs": [],
      "name": "cancelProposition",
      "outputs": [],
      "stateMutability": "nonpayable",
      "type": "function"
    },
    {
      "inputs": [
        {
          "internalType": "address",
          "name": "from",
          "type": "address"
        },
        {
          "internalType": "address",
          "name": "to",
          "type": "address"
        },
        {
          "internalType": "uint256",
          "name": "amount",
          "type": "uint256"
        }
      ],
      "name": "onTokenBalanceChanged",
      "outputs": [],
      "stateMutability": "nonpayable",
      "type": "function"
    },
    {
      "inputs": [],
      "name": "retrieveChairPerson",
      "outputs": [
        {
          "internalType": "address",
          "name": "",
          "type": "address"
        }
      ],
      "stateMutability": "view",
      "type": "function",
      "constant": true
    },
    {
      "inputs": [],
      "name": "retrieveManagerContract",
      "outputs": [
        {
          "internalType": "address",
          "name": "",
          "type": "address"
        }
      ],
      "stateMutability": "view",
      "type": "function",
      "constant": true
    },
    {
      "inputs": [],
      "name": "retrieveNextPropId",
      "outputs": [
        {
          "internalType": "uint256",
          "name": "",
          "type": "uint256"
        }
      ],
      "stateMutability": "view",
      "type": "function",
      "constant": true
    },
    {
      "inputs": [],
      "name": "retrieveProposition",
      "outputs": [
        {
          "internalType": "bytes[]",
          "name": "",
          "type": "bytes[]"
        }
      ],
      "stateMutability": "view",
      "type": "function",
      "constant": true
    },
    {
      "inputs": [],
      "name": "retrievePropositionStatus",
      "outputs": [
        {
          "internalType": "address",
          "name": "",
          "type": "address"
        },
        {
          "internalType": "uint256",
          "name": "",
          "type": "uint256"
        },
        {
          "internalType": "uint256",
          "name": "",
          "type": "uint256"
        },
        {
          "internalType": "uint256",
          "name": "",
          "type": "uint256"
        },
        {
          "internalType": "uint256",
          "name": "",
          "type": "uint256"
        }
      ],
      "stateMutability": "view",
      "type": "function",
      "constant": true
    },
    {
      "inputs": [
        {
          "internalType": "uint256",
          "name": "PropId",
          "type": "uint256"
        },
        {
          "internalType": "address",
          "name": "voter",
          "type": "address"
        }
      ],
      "name": "retrieveVotesForVoter",
      "outputs": [
        {
          "internalType": "uint256",
          "name": "",
          "type": "uint256"
        }
      ],
      "stateMutability": "view",
      "type": "function",
      "constant": true
    },
    {
      "inputs": [
        {
          "internalType": "bytes[]",
          "name": "NewValues",
          "type": "bytes[]"
        }
      ],
      "name": "sendProposition",
      "outputs": [],
      "stateMutability": "nonpayable",
      "type": "function"
    },
    {
      "inputs": [
        {
          "internalType": "bool",
          "name": "vote",
          "type": "bool"
        }
      ],
      "name": "voteProposition",
      "outputs": [],
      "stateMutability": "nonpayable",
      "type": "function"
    },
    {
      "inputs": [
        {
          "internalType": "address",
          "name": "managerContractAddress",
          "type": "address"
        },
        {
          "internalType": "address",
          "name": "chairPerson",
          "type": "address"
        },
        {
          "internalType": "address",
          "name": "tokenAddress",
          "type": "address"
        }
      ],
      "name": "Payments_init",
      "outputs": [],
      "stateMutability": "nonpayable",
      "type": "function"
    },
    {
      "inputs": [
        {
          "internalType": "address",
          "name": "sender",
          "type": "address"
        },
        {
          "internalType": "address",
          "name": "recipient",
          "type": "address"
        },
        {
          "internalType": "uint256",
          "name": "amount",
          "type": "uint256"
        },
        {
          "internalType": "uint256",
          "name": "MarketId",
          "type": "uint256"
        },
        {
          "internalType": "bytes",
          "name": "data",
          "type": "bytes"
        }
      ],
      "name": "TransferFunds",
      "outputs": [],
      "stateMutability": "nonpayable",
      "type": "function"
    },
    {
      "inputs": [
        {
          "internalType": "address",
          "name": "account",
          "type": "address"
        }
      ],
      "name": "BalanceOf",
      "outputs": [
        {
          "internalType": "uint256",
          "name": "",
          "type": "uint256"
        }
      ],
      "stateMutability": "view",
      "type": "function",
      "constant": true
    },
    {
      "inputs": [],
      "name": "retrieveSettings",
      "outputs": [
        {
          "internalType": "address",
          "name": "",
          "type": "address"
        }
      ],
      "stateMutability": "view",
      "type": "function",
      "constant": true
    }
  ],
  "bytecode": "0x608060405234801561001057600080fd5b506123b4806100206000396000f3fe608060405234801561001057600080fd5b50600436106100c55760003560e01c806304cc67a9146100ca578063255de497146100e15780633c7df55d146100f65780634044adb21461010957806355457ee91461013f5780635b362e8414610147578063840f6d171461016757806391f91671146101a8578063a93316f5146101bb578063b049473f146101d0578063b1fd2359146101e1578063d9967889146101f4578063db85bc4d14610207578063e15aa3a614610218578063e2ebbabe1461022b575b600080fd5b6008545b6040519081526020015b60405180910390f35b6100f46100ef366004611c69565b61023e565b005b6100f4610104366004611cb4565b6102cf565b6100ce610117366004611fa4565b60009182526009602090815260408084206001600160a01b0393909316845291905290205490565b6100f46103e7565b6000546201000090046001600160a01b03165b6040516100d89190612044565b600354600454600554600654600754604080516001600160a01b0390961686526020860194909452928401919091526060830152608082015260a0016100d8565b6100f46101b6366004611f51565b6104c1565b6101c36104ce565b6040516100d891906120c6565b600b546001600160a01b031661015a565b6100f46101ef366004611c30565b6105a7565b6100ce610202366004611bf6565b610625565b6001546001600160a01b031661015a565b6100f4610226366004611e9a565b6106ac565b6100f4610239366004611cf5565b610726565b600054610100900460ff166102595760005460ff161561025d565b303b155b6102825760405162461bcd60e51b8152600401610279906121e3565b60405180910390fd5b600054610100900460ff161580156102a4576000805461ffff19166101011790555b6102ae83856105a7565b6102b782610b14565b80156102c9576000805461ff00191690555b50505050565b3373__Library_______________________________6337ea306382600060029054906101000a90046001600160a01b03166001600160a01b031663e220ad956040518163ffffffff1660e01b815260040160006040518083038186803b15801561033957600080fd5b505afa15801561034d573d6000803e3d6000fd5b505050506040513d6000823e601f3d908101601f191682016040526103759190810190611d6a565b6003815181106103875761038761232f565b60200260200101516040518363ffffffff1660e01b81526004016103ac929190612058565b60006040518083038186803b1580156103c457600080fd5b505af41580156103d8573d6000803e3d6000fd5b505050506102c9848484610b36565b60016103f281610b53565b6003546040516337ea306360e01b8152339173__Library_______________________________916337ea3063916104389185916001600160a01b031690600401612058565b60006040518083038186803b15801561045057600080fd5b505af4158015610464573d6000803e3d6000fd5b50505050610470610bd7565b610478610be1565b6003546002546040519081526001600160a01b03909116907f1fe8aec10c0a50fa765076161e08c1f961ced69594ff45cf7d559f593afe14799060200160405180910390a25050565b6104cb3382610c0c565b50565b6060600a805480602002602001604051908101604052809291908181526020016000905b8282101561059e578382906000526020600020018054610511906122c9565b80601f016020809104026020016040519081016040528092919081815260200182805461053d906122c9565b801561058a5780601f1061055f5761010080835404028352916020019161058a565b820191906000526020600020905b81548152906001019060200180831161056d57829003601f168201915b5050505050815260200190600101906104f2565b50505050905090565b600054610100900460ff166105c25760005460ff16156105c6565b303b155b6105e25760405162461bcd60e51b8152600401610279906121e3565b600054610100900460ff16158015610604576000805461ffff19166101011790555b61060e8383610d24565b8015610620576000805461ff00191690555b505050565b600b546040516370a0823160e01b81526000916001600160a01b0316906370a0823190610656908590600401612044565b60206040518083038186803b15801561066e57600080fd5b505afa158015610682573d6000803e3d6000fd5b505050506040513d601f19601f820116820180604052508101906106a69190611f8b565b92915050565b6106b581610dc0565b6106bd610f45565b60005b815181101561072257600a8282815181106106dd576106dd61232f565b6020908102919091018101518254600181018455600093845292829020815161070f9491909101929190910190611a79565b508061071a816122fe565b9150506106c0565b5050565b3382600060029054906101000a90046001600160a01b03166001600160a01b031663e220ad956040518163ffffffff1660e01b815260040160006040518083038186803b15801561077657600080fd5b505afa15801561078a573d6000803e3d6000fd5b505050506040513d6000823e601f3d908101601f191682016040526107b29190810190611d6a565b6001815181106107c4576107c461232f565b60200260200101516001600160a01b0316826001600160a01b0316148061089f5750600060029054906101000a90046001600160a01b03166001600160a01b031663e220ad956040518163ffffffff1660e01b815260040160006040518083038186803b15801561083457600080fd5b505afa158015610848573d6000803e3d6000fd5b505050506040513d6000823e601f3d908101601f191682016040526108709190810190611d6a565b6002815181106108825761088261232f565b60200260200101516001600160a01b0316826001600160a01b0316145b8061095e5750600060029054906101000a90046001600160a01b03166001600160a01b031663e220ad956040518163ffffffff1660e01b815260040160006040518083038186803b1580156108f357600080fd5b505afa158015610907573d6000803e3d6000fd5b505050506040513d6000823e601f3d908101601f1916820160405261092f9190810190611d6a565b6005815181106109415761094161232f565b60200260200101516001600160a01b0316826001600160a01b0316145b8061096e575061096e8282611294565b6109d05760405162461bcd60e51b815260206004820152602d60248201527f4974206973206e6f742066726f6d206f6e65206f66207468652063657274696660448201526c69656420636f6e74726163747360981b6064820152608401610279565b600b546040516323b872dd60e01b81526000916001600160a01b0316906323b872dd90610a05908b908b908b90600401612072565b602060405180830381600087803b158015610a1f57600080fd5b505af1158015610a33573d6000803e3d6000fd5b505050506040513d601f19601f82011682018060405250810190610a579190611f6e565b9050600181151514610aa85760405162461bcd60e51b815260206004820152601a6024820152795472616e736665722046726f6d20646964206e6f7420776f726b60301b6044820152606401610279565b604051630bc0a8fb60e21b81526001600160a01b03881690632f02a3ec90610ad8908b908a908990600401612096565b600060405180830381600087803b158015610af257600080fd5b505af1158015610b06573d6000803e3d6000fd5b505050505050505050505050565b600b80546001600160a01b0319166001600160a01b0392909216919091179055565b610b3e6113d8565b15156001141561062057610620838383611412565b8015610b9a57610b616113d8565b15156001146104cb5760405162461bcd60e51b8152602060048201526005602482015264454332352d60d81b6044820152606401610279565b610ba26113d8565b156104cb5760405162461bcd60e51b8152602060048201526005602482015264454332342d60d81b6044820152606401610279565b610bdf611573565b565b60006002819055600380546001600160a01b0319169055600481905560058190556006819055600755565b6001610c1781610b53565b60025483906000610c28838361157f565b905060008111610c625760405162461bcd60e51b8152602060048201526005602482015264454332332d60d81b6044820152606401610279565b6000610c738760026000015461157f565b90508515610c9b578060026004016000828254610c90919061229a565b90915550610cb69050565b8060026005016000828254610cb0919061229a565b90915550505b600254610cc49088836115bc565b60025460408051918252871515602083015281018290526001600160a01b038816907f50f654d58981575c05e369cb129aeacb01e1b036af429380242cfc5d1a4b743f9060600160405180910390a2610d1b6115f8565b50505050505050565b600054610100900460ff16610d3f5760005460ff1615610d43565b303b155b610d5f5760405162461bcd60e51b8152600401610279906121e3565b600054610100900460ff16158015610d81576000805461ffff19166101011790555b610d8a826116cc565b600180546001600160a01b0319166001600160a01b03851617905560006008558015610620576000805461ff0019169055505050565b73__AddressLibrary________________________63f4ce9ae873__Library_______________________________63caa8f58984600081518110610e0757610e0761232f565b60200260200101516040518263ffffffff1660e01b8152600401610e2b9190612128565b60006040518083038186803b158015610e4357600080fd5b505af4158015610e57573d6000803e3d6000fd5b505050506040513d6000823e601f3d908101601f19168201604052610e7f9190810190611e0f565b600081518110610e9157610e9161232f565b60200260200101516040518263ffffffff1660e01b8152600401610eb791815260200190565b60206040518083038186803b158015610ecf57600080fd5b505af4158015610ee3573d6000803e3d6000fd5b505050506040513d601f19601f82011682018060405250810190610f079190611c13565b6001600160a01b0381166107225760405162461bcd60e51b8152602060048201526005602482015264454332312d60d81b6044820152606401610279565b6000610f5081610b53565b60015433906000906001600160a01b0316821415610f70575060016110a6565b6000610f7b83611760565b905060008060029054906101000a90046001600160a01b03166001600160a01b031663e220ad956040518163ffffffff1660e01b815260040160006040518083038186803b158015610fcc57600080fd5b505afa158015610fe0573d6000803e3d6000fd5b505050506040513d6000823e601f3d908101601f191682016040526110089190810190611d6a565b60048151811061101a5761101a61232f565b60200260200101516001600160a01b031663b049473f6040518163ffffffff1660e01b815260040160606040518083038186803b15801561105a57600080fd5b505afa15801561106e573d6000803e3d6000fd5b505050506040513d601f19601f820116820180604052508101906110929190611fc9565b92505050808211156110a357600192505b50505b6001811515146110e05760405162461bcd60e51b8152602060048201526005602482015264454332322d60d81b6044820152606401610279565b600080600060029054906101000a90046001600160a01b03166001600160a01b031663e220ad956040518163ffffffff1660e01b815260040160006040518083038186803b15801561113157600080fd5b505afa158015611145573d6000803e3d6000fd5b505050506040513d6000823e601f3d908101601f1916820160405261116d9190810190611d6a565b60048151811061117f5761117f61232f565b60200260200101516001600160a01b031663b049473f6040518163ffffffff1660e01b815260040160606040518083038186803b1580156111bf57600080fd5b505afa1580156111d3573d6000803e3d6000fd5b505050506040513d601f19601f820116820180604052508101906111f79190611fc9565b50600380546001600160a01b031916331790559092509050611219824261229a565b6004556005819055600880546002819055906000611236836122fe565b90915550506003546002546004546005546040516001600160a01b03909416937f472501d19bf75639b2e316cd36f8568b0c3ab943b82a87de3c086c98c1929df9936112859390929091612231565b60405180910390a25050505050565b600080600060029054906101000a90046001600160a01b03166001600160a01b031663e220ad956040518163ffffffff1660e01b815260040160006040518083038186803b1580156112e557600080fd5b505afa1580156112f9573d6000803e3d6000fd5b505050506040513d6000823e601f3d908101601f191682016040526113219190810190611d6a565b6001815181106113335761133361232f565b60200260200101519050806001600160a01b03166303231e5d846040518263ffffffff1660e01b815260040161136b91815260200190565b60206040518083038186803b15801561138357600080fd5b505afa158015611397573d6000803e3d6000fd5b505050506040513d601f19601f820116820180604052508101906113bb9190611c13565b6001600160a01b0316846001600160a01b03161491505092915050565b6004546000904210156113eb5750600190565b6003546001600160a01b03161561140c57611404610bd7565b61140c610be1565b50600090565b6001600160a01b0383161580159061144e575060025460009081526009602090815260408083206001600160a01b038716845290915290205415155b156106205760025460009081526009602090815260408083206001600160a01b038716845290915290205481908111156114aa575060025460009081526009602090815260408083206001600160a01b03871684529091529020545b60025460009081526009602090815260408083206001600160a01b0388168452909152812080548392906114df9084906122b2565b90915550506001600160a01b0383161561152e5760025460009081526009602090815260408083206001600160a01b03871684529091528120805483929061152890849061229a565b90915550505b6002546040517f65fbd5e5dd32bea4aeca85bd0be0abf0e489d655dee888a7510d43b06dda2dba9061156590879087908690612072565b60405180910390a250505050565b610bdf600a6000611afd565b60008181526009602090815260408083206001600160a01b03861684529091528120546115ab84611760565b6115b591906122b2565b9392505050565b60008381526009602090815260408083206001600160a01b0386168452909152812080548392906115ee90849061229a565b9091555050505050565b600554600654106116675761160b611830565b611613610be1565b6003546002546006546007546040516001600160a01b03909416937f23ca0034cf5aad32571b4a492e9598ea8a490e1643a60970e3cdc6933b55e49f9361165d9390929091612231565b60405180910390a2565b60055460075410610bdf5761167a610bd7565b611682610be1565b6003546002546006546007546040516001600160a01b03909416937fa58eb6daa3c62c3f883973c4035e5bd3e81aa627c8379de068a7de42df122be29361165d9390929091612231565b600054610100900460ff166116e75760005460ff16156116eb565b303b155b6117075760405162461bcd60e51b8152600401610279906121e3565b600054610100900460ff16158015611729576000805461ffff19166101011790555b6000805462010000600160b01b031916620100006001600160a01b038516021790558015610722576000805461ff00191690555050565b60008060029054906101000a90046001600160a01b03166001600160a01b031663e220ad956040518163ffffffff1660e01b815260040160006040518083038186803b1580156117af57600080fd5b505afa1580156117c3573d6000803e3d6000fd5b505050506040513d6000823e601f3d908101601f191682016040526117eb9190810190611d6a565b6003815181106117fd576117fd61232f565b60200260200101516001600160a01b03166370a08231836040518263ffffffff1660e01b81526004016106569190612044565b610bd7600061183d61192a565b9050600073__AddressLibrary________________________63f4ce9ae88360008151811061186e5761186e61232f565b60200260200101516040518263ffffffff1660e01b815260040161189491815260200190565b60206040518083038186803b1580156118ac57600080fd5b505af41580156118c0573d6000803e3d6000fd5b505050506040513d601f19601f820116820180604052508101906118e49190611c13565b90506118ef81610b14565b7f9975e4b1d49f76f8d43fbe1c1e9865fcdd07aa824519a42a28842df898b10ae68160405161191e9190612044565b60405180910390a15050565b600a546060906000906001600160401b0381111561194a5761194a612345565b604051908082528060200260200182016040528015611973578160200160208202803683370190505b50905060005b600a54811015611a735773__Library_______________________________63caa8f589600a83815481106119b0576119b061232f565b906000526020600020016040518263ffffffff1660e01b81526004016119d6919061213b565b60006040518083038186803b1580156119ee57600080fd5b505af4158015611a02573d6000803e3d6000fd5b505050506040513d6000823e601f3d908101601f19168201604052611a2a9190810190611e0f565b600081518110611a3c57611a3c61232f565b6020026020010151828281518110611a5657611a5661232f565b602090810291909101015280611a6b816122fe565b915050611979565b50919050565b828054611a85906122c9565b90600052602060002090601f016020900481019282611aa75760008555611aed565b82601f10611ac057805160ff1916838001178555611aed565b82800160010185558215611aed579182015b82811115611aed578251825591602001919060010190611ad2565b50611af9929150611b1b565b5090565b50805460008255906000526020600020908101906104cb9190611b30565b5b80821115611af95760008155600101611b1c565b80821115611af9576000611b448282611b4d565b50600101611b30565b508054611b59906122c9565b6000825580601f10611b69575050565b601f0160209004906000526020600020908101906104cb9190611b1b565b600082601f830112611b9857600080fd5b81356001600160401b03811115611bb157611bb1612345565b611bc4601f8201601f1916602001612247565b818152846020838601011115611bd957600080fd5b816020850160208301376000918101602001919091529392505050565b600060208284031215611c0857600080fd5b81356115b58161235b565b600060208284031215611c2557600080fd5b81516115b58161235b565b60008060408385031215611c4357600080fd5b8235611c4e8161235b565b91506020830135611c5e8161235b565b809150509250929050565b600080600060608486031215611c7e57600080fd5b8335611c898161235b565b92506020840135611c998161235b565b91506040840135611ca98161235b565b809150509250925092565b600080600060608486031215611cc957600080fd5b8335611cd48161235b565b92506020840135611ce48161235b565b929592945050506040919091013590565b600080600080600060a08688031215611d0d57600080fd5b8535611d188161235b565b94506020860135611d288161235b565b9350604086013592506060860135915060808601356001600160401b03811115611d5157600080fd5b611d5d88828901611b87565b9150509295509295909350565b60006020808385031215611d7d57600080fd5b82516001600160401b03811115611d9357600080fd5b8301601f81018513611da457600080fd5b8051611db7611db282612277565b612247565b80828252848201915084840188868560051b8701011115611dd757600080fd5b600094505b83851015611e03578051611def8161235b565b835260019490940193918501918501611ddc565b50979650505050505050565b60006020808385031215611e2257600080fd5b82516001600160401b03811115611e3857600080fd5b8301601f81018513611e4957600080fd5b8051611e57611db282612277565b80828252848201915084840188868560051b8701011115611e7757600080fd5b600094505b83851015611e03578051835260019490940193918501918501611e7c565b60006020808385031215611ead57600080fd5b82356001600160401b0380821115611ec457600080fd5b818501915085601f830112611ed857600080fd5b8135611ee6611db282612277565b80828252858201915085850189878560051b8801011115611f0657600080fd5b6000805b85811015611f4157823587811115611f20578283fd5b611f2e8d8b838c0101611b87565b8652509388019391880191600101611f0a565b50919a9950505050505050505050565b600060208284031215611f6357600080fd5b81356115b581612370565b600060208284031215611f8057600080fd5b81516115b581612370565b600060208284031215611f9d57600080fd5b5051919050565b60008060408385031215611fb757600080fd5b823591506020830135611c5e8161235b565b600080600060608486031215611fde57600080fd5b8351925060208401519150604084015190509250925092565b6000815180845260005b8181101561201d57602081850181015186830182015201612001565b8181111561202f576000602083870101525b50601f01601f19169290920160200192915050565b6001600160a01b0391909116815260200190565b6001600160a01b0392831681529116602082015260400190565b6001600160a01b039384168152919092166020820152604081019190915260600190565b60018060a01b03841681528260208201526060604082015260006120bd6060830184611ff7565b95945050505050565b6000602080830181845280855180835260408601915060408160051b870101925083870160005b8281101561211b57603f19888603018452612109858351611ff7565b945092850192908501906001016120ed565b5092979650505050505050565b6020815260006115b56020830184611ff7565b600060208083526000845481600182811c91508083168061215d57607f831692505b85831081141561217b57634e487b7160e01b85526022600452602485fd5b87860183815260200181801561219857600181146121a9576121d4565b60ff198616825287820196506121d4565b60008b81526020902060005b868110156121ce578154848201529085019089016121b5565b83019750505b50949998505050505050505050565b6020808252602e908201527f496e697469616c697a61626c653a20636f6e747261637420697320616c72656160408201526d191e481a5b9a5d1a585b1a5e995960921b606082015260800190565b9283526020830191909152604082015260600190565b604051601f8201601f191681016001600160401b038111828210171561226f5761226f612345565b604052919050565b60006001600160401b0382111561229057612290612345565b5060051b60200190565b600082198211156122ad576122ad612319565b500190565b6000828210156122c4576122c4612319565b500390565b600181811c908216806122dd57607f821691505b60208210811415611a7357634e487b7160e01b600052602260045260246000fd5b600060001982141561231257612312612319565b5060010190565b634e487b7160e01b600052601160045260246000fd5b634e487b7160e01b600052603260045260246000fd5b634e487b7160e01b600052604160045260246000fd5b6001600160a01b03811681146104cb57600080fd5b80151581146104cb57600080fdfea2646970667358221220217094dc9070fb5cdf7d3aeebe731967c0e78ca41257433a109c9af6be1170a964736f6c63430008070033",
  "immutableReferences": {},
  "source": "// SPDX-License-Identifier: GPL-3.0\r\n\r\npragma solidity 0.8.7;\r\n\r\n/**\r\n * @title Storage\r\n * @dev Store & retrieve value in a variable\r\n */\r\n\r\nimport \"../Interfaces/IPayments.sol\";\r\nimport \"../Interfaces/IPool.sol\";\r\nimport \"../Interfaces/ICreditor.sol\";\r\nimport \"@openzeppelin/contracts/token/ERC20/IERC20.sol\";\r\nimport \"../Libraries/UintLibrary.sol\";\r\nimport \"../Base/StdPropositionBaseContract.sol\";\r\n\r\n\r\ncontract Payments is IPayments, StdPropositionBaseContract{\r\n    using UintLibrary for *;\r\n\r\n    // EVENTS /////////////////////////////////////////\r\n    event _NewAddress(address TokenAddress);\r\n\r\n    // DATA /////////////////////////////////////////\r\n    IERC20 internal _TokenContract;\r\n\r\n    // MODIFIERS /////////////////////////////////////////\r\n    modifier isAddressOK(address addr)\r\n    {\r\n        require(address(0) != addr, \"EC21-\");\r\n        _;\r\n    }\r\n\r\n    modifier isFromCertifiedContract(address addr, uint256 id)\r\n    {\r\n        require(\r\n            addr == _managerContract.retrieveTransparentProxies()[uint256(Library.TransparentProxies.PublicPool)] || \r\n            addr == _managerContract.retrieveTransparentProxies()[uint256(Library.TransparentProxies.Treasury)] || \r\n            addr == _managerContract.retrieveTransparentProxies()[uint256(Library.TransparentProxies.AdminPiggyBank)] || \r\n            isNFTMarket(addr, id) \r\n        , \"It is not from one of the certified contracts\");\r\n        _;\r\n    }\r\n\r\n    function isNFTMarket(address addr, uint256 id) internal view returns(bool)\r\n    {\r\n        IPool PublicPool = IPool(_managerContract.retrieveTransparentProxies()[uint256(Library.TransparentProxies.PublicPool)]);\r\n        return (addr == PublicPool.retrieveNFTMarketForIssuer(id));\r\n    }\r\n   \r\n    // CONSTRUCTOR /////////////////////////////////////////\r\n    function Payments_init(address managerContractAddress, address chairPerson, address tokenAddress) public initializer \r\n    {\r\n        super.StdPropositionBaseContract_init(chairPerson, managerContractAddress);\r\n        InternalupdateSettings(tokenAddress);\r\n    }\r\n\r\n    // GOVERNANCE /////////////////////////////////////////\r\n    function checkProposition(bytes[] memory NewValues) internal override \r\n        isAddressOK(AddressLibrary.Bytes32ToAddress(Library.BytestoBytes32(NewValues[0])[0]))\r\n    {}\r\n\r\n    function UpdateAll() internal override\r\n    {\r\n        bytes32[] memory ProposedNewValues = PropositionsToBytes32();\r\n        address NewAddress = AddressLibrary.Bytes32ToAddress(ProposedNewValues[0]);\r\n        InternalupdateSettings(NewAddress);\r\n        emit _NewAddress(NewAddress);\r\n    }\r\n\r\n    function InternalupdateSettings(address tokenAddress) internal\r\n    {\r\n        _TokenContract = IERC20(tokenAddress);\r\n    }\r\n\r\n    // FUNCTIONALITY /////////////////////////////////////////\r\n    function TransferFunds(address sender, address recipient, uint256 amount, uint256 MarketId, bytes memory data) external override\r\n        isFromCertifiedContract(msg.sender, MarketId)\r\n    {\r\n        bool success = _TokenContract.transferFrom(sender, recipient, amount);\r\n        require(true == success, \"Transfer From did not work\");\r\n        ICreditor(recipient).CreditReceived(sender, amount, data);\r\n    }\r\n\r\n    function BalanceOf(address account) external override view returns(uint256)\r\n    {\r\n        return(_TokenContract.balanceOf(account));\r\n    }\r\n\r\n    function retrieveSettings() external override view returns(address)\r\n    {\r\n        return(address(_TokenContract));\r\n    }\r\n\r\n}",
  "sourcePath": "C:\\Users\\d-aam\\GitHub\\Originals\\contracts\\MainContracts\\Payments.sol",
  "compiler": {
    "name": "solc",
    "version": "0.8.7+commit.e28d00a7.Emscripten.clang"
  },
  "schemaVersion": "3.4.3",
  "updatedAt": "2022-02-16T09:10:26.265Z",
  "networkType": "ethereum",
  "devdoc": {
    "kind": "dev",
    "methods": {},
    "version": 1
  },
  "userdoc": {
    "kind": "user",
    "methods": {},
    "version": 1
  }
}