{
  "contractName": "Payments",
  "abi": [
    {
      "anonymous": false,
      "inputs": [
        {
          "indexed": false,
          "internalType": "uint256",
          "name": "Id",
          "type": "uint256"
        },
        {
          "indexed": true,
          "internalType": "address",
          "name": "Proposer",
          "type": "address"
        },
        {
          "indexed": false,
          "internalType": "uint256",
          "name": "Deadline",
          "type": "uint256"
        },
        {
          "indexed": false,
          "internalType": "uint256",
          "name": "Threshold",
          "type": "uint256"
        }
      ],
      "name": "_AddedProposition",
      "type": "event"
    },
    {
      "anonymous": false,
      "inputs": [
        {
          "indexed": false,
          "internalType": "uint256",
          "name": "Id",
          "type": "uint256"
        },
        {
          "indexed": true,
          "internalType": "address",
          "name": "Proposer",
          "type": "address"
        }
      ],
      "name": "_CancelledProposition",
      "type": "event"
    },
    {
      "anonymous": false,
      "inputs": [
        {
          "indexed": false,
          "internalType": "address[]",
          "name": "TokenAddresses",
          "type": "address[]"
        }
      ],
      "name": "_NewAddresses",
      "type": "event"
    },
    {
      "anonymous": false,
      "inputs": [
        {
          "indexed": false,
          "internalType": "uint256",
          "name": "Id",
          "type": "uint256"
        },
        {
          "indexed": true,
          "internalType": "address",
          "name": "Proposer",
          "type": "address"
        },
        {
          "indexed": false,
          "internalType": "uint256",
          "name": "VotesFor",
          "type": "uint256"
        },
        {
          "indexed": false,
          "internalType": "uint256",
          "name": "VotesAgainst",
          "type": "uint256"
        }
      ],
      "name": "_PropositionApproved",
      "type": "event"
    },
    {
      "anonymous": false,
      "inputs": [
        {
          "indexed": false,
          "internalType": "uint256",
          "name": "Id",
          "type": "uint256"
        },
        {
          "indexed": true,
          "internalType": "address",
          "name": "Proposer",
          "type": "address"
        },
        {
          "indexed": false,
          "internalType": "uint256",
          "name": "VotesFor",
          "type": "uint256"
        },
        {
          "indexed": false,
          "internalType": "uint256",
          "name": "VotesAgainst",
          "type": "uint256"
        }
      ],
      "name": "_PropositionRejected",
      "type": "event"
    },
    {
      "anonymous": false,
      "inputs": [
        {
          "indexed": false,
          "internalType": "uint256",
          "name": "Id",
          "type": "uint256"
        },
        {
          "indexed": true,
          "internalType": "address",
          "name": "Voter",
          "type": "address"
        },
        {
          "indexed": false,
          "internalType": "bool",
          "name": "Vote",
          "type": "bool"
        },
        {
          "indexed": false,
          "internalType": "uint256",
          "name": "AmountTokens",
          "type": "uint256"
        }
      ],
      "name": "_PropositionVote",
      "type": "event"
    },
    {
      "anonymous": false,
      "inputs": [
        {
          "indexed": true,
          "internalType": "uint256",
          "name": "Id",
          "type": "uint256"
        },
        {
          "indexed": false,
          "internalType": "address",
          "name": "From",
          "type": "address"
        },
        {
          "indexed": false,
          "internalType": "address",
          "name": "To",
          "type": "address"
        },
        {
          "indexed": false,
          "internalType": "uint256",
          "name": "Amount",
          "type": "uint256"
        }
      ],
      "name": "_UsedTokensTransfered",
      "type": "event"
    },
    {
      "inputs": [
        {
          "internalType": "address",
          "name": "chairPerson",
          "type": "address"
        },
        {
          "internalType": "address",
          "name": "managerContractAddress",
          "type": "address"
        }
      ],
      "name": "StdPropositionBaseContract_init",
      "outputs": [],
      "stateMutability": "nonpayable",
      "type": "function"
    },
    {
      "inputs": [],
      "name": "cancelProposition",
      "outputs": [],
      "stateMutability": "nonpayable",
      "type": "function"
    },
    {
      "inputs": [
        {
          "internalType": "address",
          "name": "from",
          "type": "address"
        },
        {
          "internalType": "address",
          "name": "to",
          "type": "address"
        },
        {
          "internalType": "uint256",
          "name": "amount",
          "type": "uint256"
        }
      ],
      "name": "onTokenBalanceChanged",
      "outputs": [],
      "stateMutability": "nonpayable",
      "type": "function"
    },
    {
      "inputs": [],
      "name": "retrieveChairPerson",
      "outputs": [
        {
          "internalType": "address",
          "name": "",
          "type": "address"
        }
      ],
      "stateMutability": "view",
      "type": "function"
    },
    {
      "inputs": [],
      "name": "retrieveManagerContract",
      "outputs": [
        {
          "internalType": "address",
          "name": "",
          "type": "address"
        }
      ],
      "stateMutability": "view",
      "type": "function"
    },
    {
      "inputs": [],
      "name": "retrieveNextPropId",
      "outputs": [
        {
          "internalType": "uint256",
          "name": "",
          "type": "uint256"
        }
      ],
      "stateMutability": "view",
      "type": "function"
    },
    {
      "inputs": [],
      "name": "retrieveProposition",
      "outputs": [
        {
          "internalType": "bytes[]",
          "name": "",
          "type": "bytes[]"
        }
      ],
      "stateMutability": "view",
      "type": "function"
    },
    {
      "inputs": [],
      "name": "retrievePropositionStatus",
      "outputs": [
        {
          "internalType": "address",
          "name": "",
          "type": "address"
        },
        {
          "internalType": "uint256",
          "name": "",
          "type": "uint256"
        },
        {
          "internalType": "uint256",
          "name": "",
          "type": "uint256"
        },
        {
          "internalType": "uint256",
          "name": "",
          "type": "uint256"
        },
        {
          "internalType": "uint256",
          "name": "",
          "type": "uint256"
        }
      ],
      "stateMutability": "view",
      "type": "function"
    },
    {
      "inputs": [
        {
          "internalType": "uint256",
          "name": "PropId",
          "type": "uint256"
        },
        {
          "internalType": "address",
          "name": "voter",
          "type": "address"
        }
      ],
      "name": "retrieveVotesForVoter",
      "outputs": [
        {
          "internalType": "uint256",
          "name": "",
          "type": "uint256"
        }
      ],
      "stateMutability": "view",
      "type": "function"
    },
    {
      "inputs": [
        {
          "internalType": "bytes[]",
          "name": "NewValues",
          "type": "bytes[]"
        }
      ],
      "name": "sendProposition",
      "outputs": [],
      "stateMutability": "nonpayable",
      "type": "function"
    },
    {
      "inputs": [
        {
          "internalType": "bool",
          "name": "vote",
          "type": "bool"
        }
      ],
      "name": "voteProposition",
      "outputs": [],
      "stateMutability": "nonpayable",
      "type": "function"
    },
    {
      "inputs": [
        {
          "internalType": "address",
          "name": "managerContractAddress",
          "type": "address"
        },
        {
          "internalType": "address",
          "name": "chairPerson",
          "type": "address"
        },
        {
          "internalType": "address[]",
          "name": "tokenAddresses",
          "type": "address[]"
        }
      ],
      "name": "Payments_init",
      "outputs": [],
      "stateMutability": "nonpayable",
      "type": "function"
    },
    {
      "inputs": [
        {
          "internalType": "address",
          "name": "sender",
          "type": "address"
        },
        {
          "internalType": "address",
          "name": "recipient",
          "type": "address"
        },
        {
          "internalType": "uint256",
          "name": "amount",
          "type": "uint256"
        },
        {
          "internalType": "uint256",
          "name": "MarketId",
          "type": "uint256"
        },
        {
          "internalType": "bytes",
          "name": "data",
          "type": "bytes"
        },
        {
          "internalType": "uint256",
          "name": "tokenId",
          "type": "uint256"
        }
      ],
      "name": "TransferFrom",
      "outputs": [],
      "stateMutability": "nonpayable",
      "type": "function"
    },
    {
      "inputs": [
        {
          "internalType": "address",
          "name": "account",
          "type": "address"
        },
        {
          "internalType": "uint256",
          "name": "tokenId",
          "type": "uint256"
        }
      ],
      "name": "BalanceOf",
      "outputs": [
        {
          "internalType": "uint256",
          "name": "",
          "type": "uint256"
        }
      ],
      "stateMutability": "view",
      "type": "function"
    },
    {
      "inputs": [],
      "name": "retrieveSettings",
      "outputs": [
        {
          "components": [
            {
              "internalType": "contract IERC20",
              "name": "TokenContract",
              "type": "address"
            },
            {
              "internalType": "bool",
              "name": "active",
              "type": "bool"
            }
          ],
          "internalType": "struct Library.PaymentTokenStruct[]",
          "name": "",
          "type": "tuple[]"
        }
      ],
      "stateMutability": "view",
      "type": "function"
    }
  ],
  "bytecode": "0x608060405234801561001057600080fd5b50612d73806100206000396000f3fe608060405234801561001057600080fd5b50600436106100c55760003560e01c806304cc67a9146100ca5780632c2ec268146100e15780633c7df55d146100f65780634044adb21461010957806353fa2f1a1461011c57806355457ee91461012f5780635b362e8414610137578063840f6d171461015757806391f91671146101985780639ede86fa146101ab578063a93316f5146101be578063b049473f146101d3578063b1fd2359146101e8578063db85bc4d146101fb578063e15aa3a61461020c575b600080fd5b6008545b6040519081526020015b60405180910390f35b6100f46100ef3660046125de565b61021f565b005b6100f461010436600461259d565b610852565b6100ce6101173660046128bc565b610970565b6100ce61012a36600461265b565b61099a565b6100f4610a83565b6000546201000090046001600160a01b03165b6040516100d8919061295c565b600354600454600554600654600754604080516001600160a01b0390961686526020860194909452928401919091526060830152608082015260a0016100d8565b6100f46101a6366004612869565b610b5d565b6100f46101b93660046124d1565b610b6a565b6101c6610bf1565b6040516100d89190612a2b565b6101db610cca565b6040516100d89190612a8d565b6100f46101f6366004612498565b610d39565b6001546001600160a01b031661014a565b6100f461021a3660046127b2565b610db7565b3383600060029054906101000a90046001600160a01b03166001600160a01b031663e220ad956040518163ffffffff1660e01b815260040160006040518083038186803b15801561026f57600080fd5b505afa158015610283573d6000803e3d6000fd5b505050506040513d6000823e601f3d908101601f191682016040526102ab9190810190612687565b6001815181106102bd576102bd612cee565b60200260200101516001600160a01b0316826001600160a01b031614806103985750600060029054906101000a90046001600160a01b03166001600160a01b031663e220ad956040518163ffffffff1660e01b815260040160006040518083038186803b15801561032d57600080fd5b505afa158015610341573d6000803e3d6000fd5b505050506040513d6000823e601f3d908101601f191682016040526103699190810190612687565b60028151811061037b5761037b612cee565b60200260200101516001600160a01b0316826001600160a01b0316145b806104575750600060029054906101000a90046001600160a01b03166001600160a01b031663e220ad956040518163ffffffff1660e01b815260040160006040518083038186803b1580156103ec57600080fd5b505afa158015610400573d6000803e3d6000fd5b505050506040513d6000823e601f3d908101601f191682016040526104289190810190612687565b60058151811061043a5761043a612cee565b60200260200101516001600160a01b0316826001600160a01b0316145b8061046757506104678282610e31565b6104ce5760405162461bcd60e51b815260206004820152602d60248201527f4974206973206e6f742066726f6d206f6e65206f66207468652063657274696660448201526c69656420636f6e74726163747360981b60648201526084015b60405180910390fd5b600b548390811080156105075750600b81815481106104ef576104ef612cee565b6000918252602090912001546001600160a01b031615155b6105755760405162461bcd60e51b815260206004820152603960248201527f7468697320746f6b656e20496420646f6573206e6f742068617665206120636f60448201527872726573706f6e64696e6720546f6b656e206164647265737360381b60648201526084016104c5565b600b818154811061058857610588612cee565b600091825260209091200154600160a01b900460ff1615156001146105ed5760405162461bcd60e51b815260206004820152601b60248201527a7468697320746f6b656e204964206973206e6f742061637469766560281b60448201526064016104c5565b86600b858154811061060157610601612cee565b600091825260209091200154604051636eb1769f60e11b81526001600160a01b039091169063dd62ed3e9061063c908d903090600401612970565b60206040518083038186803b15801561065457600080fd5b505afa158015610668573d6000803e3d6000fd5b505050506040513d601f19601f8201168201806040525081019061068c91906128a3565b10156106ef5760405162461bcd60e51b815260206004820152602c60248201527f436f6e747261637420646f6573206e6f74206861766520656e6f75676820617060448201526b70726f7665642066756e647360a01b60648201526084016104c5565b6000600b858154811061070457610704612cee565b6000918252602090912001546040516323b872dd60e01b81526001600160a01b03909116906323b872dd90610741908d908d908d9060040161298a565b602060405180830381600087803b15801561075b57600080fd5b505af115801561076f573d6000803e3d6000fd5b505050506040513d601f19601f820116820180604052508101906107939190612886565b90506001811515146107e45760405162461bcd60e51b815260206004820152601a6024820152795472616e736665722046726f6d20646964206e6f7420776f726b60301b60448201526064016104c5565b604051630bc0a8fb60e21b81526001600160a01b038a1690632f02a3ec90610814908d908c908b906004016129ae565b600060405180830381600087803b15801561082e57600080fd5b505af1158015610842573d6000803e3d6000fd5b5050505050505050505050505050565b3373__Library_______________________________6337ea306382600060029054906101000a90046001600160a01b03166001600160a01b031663e220ad956040518163ffffffff1660e01b815260040160006040518083038186803b1580156108bc57600080fd5b505afa1580156108d0573d6000803e3d6000fd5b505050506040513d6000823e601f3d908101601f191682016040526108f89190810190612687565b60038151811061090a5761090a612cee565b60200260200101516040518363ffffffff1660e01b815260040161092f929190612970565b60006040518083038186803b15801561094757600080fd5b505af415801561095b573d6000803e3d6000fd5b5050505061096a848484610f82565b50505050565b60008281526009602090815260408083206001600160a01b03851684529091529020545b92915050565b600b54600090821015806109d35750600b82815481106109bc576109bc612cee565b6000918252602090912001546001600160a01b0316155b156109e057506000610994565b600b82815481106109f3576109f3612cee565b6000918252602090912001546040516370a0823160e01b81526001600160a01b03909116906370a0823190610a2c90869060040161295c565b60206040518083038186803b158015610a4457600080fd5b505afa158015610a58573d6000803e3d6000fd5b505050506040513d601f19601f82011682018060405250810190610a7c91906128a3565b9392505050565b6001610a8e81610f9f565b6003546040516337ea306360e01b8152339173__Library_______________________________916337ea306391610ad49185916001600160a01b031690600401612970565b60006040518083038186803b158015610aec57600080fd5b505af4158015610b00573d6000803e3d6000fd5b50505050610b0c611023565b610b1461102d565b6003546002546040519081526001600160a01b03909116907f1fe8aec10c0a50fa765076161e08c1f961ced69594ff45cf7d559f593afe14799060200160405180910390a25050565b610b673382611058565b50565b600054610100900460ff16610b855760005460ff1615610b89565b303b155b610ba55760405162461bcd60e51b81526004016104c590612ba2565b600054610100900460ff16158015610bc7576000805461ffff19166101011790555b610bd18385610d39565b610bda82611170565b801561096a576000805461ff001916905550505050565b6060600a805480602002602001604051908101604052809291908181526020016000905b82821015610cc1578382906000526020600020018054610c3490612c88565b80601f0160208091040260200160405190810160405280929190818152602001828054610c6090612c88565b8015610cad5780601f10610c8257610100808354040283529160200191610cad565b820191906000526020600020905b815481529060010190602001808311610c9057829003601f168201915b505050505081526020019060010190610c15565b50505050905090565b6060600b805480602002602001604051908101604052809291908181526020016000905b82821015610cc157600084815260209081902060408051808201909152908401546001600160a01b0381168252600160a01b900460ff16151581830152825260019092019101610cee565b600054610100900460ff16610d545760005460ff1615610d58565b303b155b610d745760405162461bcd60e51b81526004016104c590612ba2565b600054610100900460ff16158015610d96576000805461ffff19166101011790555b610da083836113b5565b8015610db2576000805461ff00191690555b505050565b610dc081611451565b610dc861183a565b60005b8151811015610e2d57600a828281518110610de857610de8612cee565b60209081029190910181015182546001810184556000938452928290208151610e1a94919091019291909101906122fe565b5080610e2581612cbd565b915050610dcb565b5050565b600081610e4057506000610994565b60008060029054906101000a90046001600160a01b03166001600160a01b031663e220ad956040518163ffffffff1660e01b815260040160006040518083038186803b158015610e8f57600080fd5b505afa158015610ea3573d6000803e3d6000fd5b505050506040513d6000823e601f3d908101601f19168201604052610ecb9190810190612687565b600181518110610edd57610edd612cee565b60200260200101519050806001600160a01b03166303231e5d846040518263ffffffff1660e01b8152600401610f1591815260200190565b60206040518083038186803b158015610f2d57600080fd5b505afa158015610f41573d6000803e3d6000fd5b505050506040513d601f19601f82011682018060405250810190610f65919061247b565b6001600160a01b0316846001600160a01b03161491505092915050565b610f8a611b89565b151560011415610db257610db2838383611bc3565b8015610fe657610fad611b89565b1515600114610b675760405162461bcd60e51b8152602060048201526005602482015264454332352d60d81b60448201526064016104c5565b610fee611b89565b15610b675760405162461bcd60e51b8152602060048201526005602482015264454332342d60d81b60448201526064016104c5565b61102b611d24565b565b60006002819055600380546001600160a01b0319169055600481905560058190556006819055600755565b600161106381610f9f565b600254839060006110748383611d30565b9050600081116110ae5760405162461bcd60e51b8152602060048201526005602482015264454332332d60d81b60448201526064016104c5565b60006110bf87600260000154611d30565b905085156110e75780600260040160008282546110dc9190612c59565b909155506111029050565b80600260050160008282546110fc9190612c59565b90915550505b600254611110908883611d66565b60025460408051918252871515602083015281018290526001600160a01b038816907f50f654d58981575c05e369cb129aeacb01e1b036af429380242cfc5d1a4b743f9060600160405180910390a2611167611da2565b50505050505050565b60005b600b548110156112fd578151811080156111b9575081818151811061119a5761119a612cee565b60200260200101516001600160a01b031660006001600160a01b031614155b15611282578181815181106111d0576111d0612cee565b6020026020010151600b82815481106111eb576111eb612cee565b600091825260209091200180546001600160a01b0319166001600160a01b0392909216919091179055600b80548290811061122857611228612cee565b600091825260209091200154600160a01b900460ff1661127d576001600b828154811061125757611257612cee565b60009182526020909120018054911515600160a01b0260ff60a01b199092169190911790555b6112eb565b600b818154811061129557611295612cee565b600091825260209091200154600160a01b900460ff16156112eb576000600b82815481106112c5576112c5612cee565b60009182526020909120018054911515600160a01b0260ff60a01b199092169190911790555b806112f581612cbd565b915050611173565b50600b545b8151811015610e2d5781818151811061131d5761131d612cee565b6020026020010151600b828154811061133857611338612cee565b9060005260206000200160000160006101000a8154816001600160a01b0302191690836001600160a01b031602179055506001600b828154811061137e5761137e612cee565b60009182526020909120018054911515600160a01b0260ff60a01b19909216919091179055806113ad81612cbd565b915050611302565b600054610100900460ff166113d05760005460ff16156113d4565b303b155b6113f05760405162461bcd60e51b81526004016104c590612ba2565b600054610100900460ff16158015611412576000805461ffff19166101011790555b61141b82611e76565b600180546001600160a01b0319166001600160a01b03851617905560006008558015610db2576000805461ff0019169055505050565b8060008151116114b75760405162461bcd60e51b815260206004820152602b60248201527f4174206c65617374206f6e6520746f6b656e2061646472657373206d7573742060448201526a1899481c1c9bdd9a59195960aa1b60648201526084016104c5565b600b548151111561168857600b545b8151811015610db25773__AddressLibrary________________________63f4ce9ae873__Library_______________________________63caa8f58985858151811061151557611515612cee565b60200260200101516040518263ffffffff1660e01b81526004016115399190612ae7565b60006040518083038186803b15801561155157600080fd5b505af4158015611565573d6000803e3d6000fd5b505050506040513d6000823e601f3d908101601f1916820160405261158d9190810190612727565b60008151811061159f5761159f612cee565b60200260200101516040518263ffffffff1660e01b81526004016115c591815260200190565b60206040518083038186803b1580156115dd57600080fd5b505af41580156115f1573d6000803e3d6000fd5b505050506040513d601f19601f82011682018060405250810190611615919061247b565b6001600160a01b03166116765760405162461bcd60e51b815260206004820152602360248201527f4e657720546f6b656e206164647265737365732063616e6e6f7420626520656d60448201526270747960e81b60648201526084016104c5565b8061168081612cbd565b9150506114c6565b6000805b82518110156118045773__AddressLibrary________________________63f4ce9ae873__Library_______________________________63caa8f5898685815181106116db576116db612cee565b60200260200101516040518263ffffffff1660e01b81526004016116ff9190612ae7565b60006040518083038186803b15801561171757600080fd5b505af415801561172b573d6000803e3d6000fd5b505050506040513d6000823e601f3d908101601f191682016040526117539190810190612727565b60008151811061176557611765612cee565b60200260200101516040518263ffffffff1660e01b815260040161178b91815260200190565b60206040518083038186803b1580156117a357600080fd5b505af41580156117b7573d6000803e3d6000fd5b505050506040513d601f19601f820116820180604052508101906117db919061247b565b6001600160a01b0316156117f25760019150611804565b806117fc81612cbd565b91505061168c565b5080610db25760405162461bcd60e51b8152602060048201526005602482015264454332312d60d81b60448201526064016104c5565b600061184581610f9f565b60015433906000906001600160a01b03168214156118655750600161199b565b600061187083611f0a565b905060008060029054906101000a90046001600160a01b03166001600160a01b031663e220ad956040518163ffffffff1660e01b815260040160006040518083038186803b1580156118c157600080fd5b505afa1580156118d5573d6000803e3d6000fd5b505050506040513d6000823e601f3d908101601f191682016040526118fd9190810190612687565b60048151811061190f5761190f612cee565b60200260200101516001600160a01b031663b049473f6040518163ffffffff1660e01b815260040160606040518083038186803b15801561194f57600080fd5b505afa158015611963573d6000803e3d6000fd5b505050506040513d601f19601f8201168201806040525081019061198791906128e1565b925050508082111561199857600192505b50505b6001811515146119d55760405162461bcd60e51b8152602060048201526005602482015264454332322d60d81b60448201526064016104c5565b600080600060029054906101000a90046001600160a01b03166001600160a01b031663e220ad956040518163ffffffff1660e01b815260040160006040518083038186803b158015611a2657600080fd5b505afa158015611a3a573d6000803e3d6000fd5b505050506040513d6000823e601f3d908101601f19168201604052611a629190810190612687565b600481518110611a7457611a74612cee565b60200260200101516001600160a01b031663b049473f6040518163ffffffff1660e01b815260040160606040518083038186803b158015611ab457600080fd5b505afa158015611ac8573d6000803e3d6000fd5b505050506040513d601f19601f82011682018060405250810190611aec91906128e1565b50600380546001600160a01b031916331790559092509050611b0e8242612c59565b6004556005819055600880546002819055906000611b2b83612cbd565b90915550506003546002546004546005546040516001600160a01b03909416937f472501d19bf75639b2e316cd36f8568b0c3ab943b82a87de3c086c98c1929df993611b7a9390929091612bf0565b60405180910390a25050505050565b600454600090421015611b9c5750600190565b6003546001600160a01b031615611bbd57611bb5611023565b611bbd61102d565b50600090565b6001600160a01b03831615801590611bff575060025460009081526009602090815260408083206001600160a01b038716845290915290205415155b15610db25760025460009081526009602090815260408083206001600160a01b03871684529091529020548190811115611c5b575060025460009081526009602090815260408083206001600160a01b03871684529091529020545b60025460009081526009602090815260408083206001600160a01b038816845290915281208054839290611c90908490612c71565b90915550506001600160a01b03831615611cdf5760025460009081526009602090815260408083206001600160a01b038716845290915281208054839290611cd9908490612c59565b90915550505b6002546040517f65fbd5e5dd32bea4aeca85bd0be0abf0e489d655dee888a7510d43b06dda2dba90611d169087908790869061298a565b60405180910390a250505050565b61102b600a6000612382565b60008181526009602090815260408083206001600160a01b0386168452909152812054611d5c84611f0a565b610a7c9190612c71565b60008381526009602090815260408083206001600160a01b038616845290915281208054839290611d98908490612c59565b9091555050505050565b60055460065410611e1157611db561202a565b611dbd61102d565b6003546002546006546007546040516001600160a01b03909416937f23ca0034cf5aad32571b4a492e9598ea8a490e1643a60970e3cdc6933b55e49f93611e079390929091612bf0565b60405180910390a2565b6005546007541061102b57611e24611023565b611e2c61102d565b6003546002546006546007546040516001600160a01b03909416937fa58eb6daa3c62c3f883973c4035e5bd3e81aa627c8379de068a7de42df122be293611e079390929091612bf0565b600054610100900460ff16611e915760005460ff1615611e95565b303b155b611eb15760405162461bcd60e51b81526004016104c590612ba2565b600054610100900460ff16158015611ed3576000805461ffff19166101011790555b6000805462010000600160b01b031916620100006001600160a01b038516021790558015610e2d576000805461ff00191690555050565b60008060029054906101000a90046001600160a01b03166001600160a01b031663e220ad956040518163ffffffff1660e01b815260040160006040518083038186803b158015611f5957600080fd5b505afa158015611f6d573d6000803e3d6000fd5b505050506040513d6000823e601f3d908101601f19168201604052611f959190810190612687565b600381518110611fa757611fa7612cee565b60200260200101516001600160a01b03166370a08231836040518263ffffffff1660e01b8152600401611fda919061295c565b60206040518083038186803b158015611ff257600080fd5b505afa158015612006573d6000803e3d6000fd5b505050506040513d601f19601f8201168201806040525081019061099491906128a3565b61102360006120376121af565b9050600081516001600160401b0381111561205457612054612d04565b60405190808252806020026020018201604052801561207d578160200160208202803683370190505b50905060005b815181101561216a5773__AddressLibrary________________________63f4ce9ae88483815181106120b8576120b8612cee565b60200260200101516040518263ffffffff1660e01b81526004016120de91815260200190565b60206040518083038186803b1580156120f657600080fd5b505af415801561210a573d6000803e3d6000fd5b505050506040513d601f19601f8201168201806040525081019061212e919061247b565b82828151811061214057612140612cee565b6001600160a01b03909216602092830291909101909101528061216281612cbd565b915050612083565b5061217481611170565b7f6d747f3c6d7ce12f81ce29f949ce2050ce7af0aea03bb6206b6089fa23dec582816040516121a391906129de565b60405180910390a15050565b600a546060906000906001600160401b038111156121cf576121cf612d04565b6040519080825280602002602001820160405280156121f8578160200160208202803683370190505b50905060005b600a548110156122f85773__Library_______________________________63caa8f589600a838154811061223557612235612cee565b906000526020600020016040518263ffffffff1660e01b815260040161225b9190612afa565b60006040518083038186803b15801561227357600080fd5b505af4158015612287573d6000803e3d6000fd5b505050506040513d6000823e601f3d908101601f191682016040526122af9190810190612727565b6000815181106122c1576122c1612cee565b60200260200101518282815181106122db576122db612cee565b6020908102919091010152806122f081612cbd565b9150506121fe565b50919050565b82805461230a90612c88565b90600052602060002090601f01602090048101928261232c5760008555612372565b82601f1061234557805160ff1916838001178555612372565b82800160010185558215612372579182015b82811115612372578251825591602001919060010190612357565b5061237e9291506123a0565b5090565b5080546000825590600052602060002090810190610b6791906123b5565b5b8082111561237e57600081556001016123a1565b8082111561237e5760006123c982826123d2565b506001016123b5565b5080546123de90612c88565b6000825580601f106123ee575050565b601f016020900490600052602060002090810190610b6791906123a0565b600082601f83011261241d57600080fd5b81356001600160401b0381111561243657612436612d04565b612449601f8201601f1916602001612c06565b81815284602083860101111561245e57600080fd5b816020850160208301376000918101602001919091529392505050565b60006020828403121561248d57600080fd5b8151610a7c81612d1a565b600080604083850312156124ab57600080fd5b82356124b681612d1a565b915060208301356124c681612d1a565b809150509250929050565b6000806000606084860312156124e657600080fd5b83356124f181612d1a565b925060208481013561250281612d1a565b925060408501356001600160401b0381111561251d57600080fd5b8501601f8101871361252e57600080fd5b803561254161253c82612c36565b612c06565b8082825284820191508484018a868560051b870101111561256157600080fd5b600094505b8385101561258d57803561257981612d1a565b835260019490940193918501918501612566565b5080955050505050509250925092565b6000806000606084860312156125b257600080fd5b83356125bd81612d1a565b925060208401356125cd81612d1a565b929592945050506040919091013590565b60008060008060008060c087890312156125f757600080fd5b863561260281612d1a565b9550602087013561261281612d1a565b9450604087013593506060870135925060808701356001600160401b0381111561263b57600080fd5b61264789828a0161240c565b92505060a087013590509295509295509295565b6000806040838503121561266e57600080fd5b823561267981612d1a565b946020939093013593505050565b6000602080838503121561269a57600080fd5b82516001600160401b038111156126b057600080fd5b8301601f810185136126c157600080fd5b80516126cf61253c82612c36565b80828252848201915084840188868560051b87010111156126ef57600080fd5b600094505b8385101561271b57805161270781612d1a565b8352600194909401939185019185016126f4565b50979650505050505050565b6000602080838503121561273a57600080fd5b82516001600160401b0381111561275057600080fd5b8301601f8101851361276157600080fd5b805161276f61253c82612c36565b80828252848201915084840188868560051b870101111561278f57600080fd5b600094505b8385101561271b578051835260019490940193918501918501612794565b600060208083850312156127c557600080fd5b82356001600160401b03808211156127dc57600080fd5b818501915085601f8301126127f057600080fd5b81356127fe61253c82612c36565b80828252858201915085850189878560051b880101111561281e57600080fd5b6000805b8581101561285957823587811115612838578283fd5b6128468d8b838c010161240c565b8652509388019391880191600101612822565b50919a9950505050505050505050565b60006020828403121561287b57600080fd5b8135610a7c81612d2f565b60006020828403121561289857600080fd5b8151610a7c81612d2f565b6000602082840312156128b557600080fd5b5051919050565b600080604083850312156128cf57600080fd5b8235915060208301356124c681612d1a565b6000806000606084860312156128f657600080fd5b8351925060208401519150604084015190509250925092565b6000815180845260005b8181101561293557602081850181015186830182015201612919565b81811115612947576000602083870101525b50601f01601f19169290920160200192915050565b6001600160a01b0391909116815260200190565b6001600160a01b0392831681529116602082015260400190565b6001600160a01b039384168152919092166020820152604081019190915260600190565b60018060a01b03841681528260208201526060604082015260006129d5606083018461290f565b95945050505050565b6020808252825182820181905260009190848201906040850190845b81811015612a1f5783516001600160a01b0316835292840192918401916001016129fa565b50909695505050505050565b6000602080830181845280855180835260408601915060408160051b870101925083870160005b82811015612a8057603f19888603018452612a6e85835161290f565b94509285019290850190600101612a52565b5092979650505050505050565b602080825282518282018190526000919060409081850190868401855b82811015612ada57815180516001600160a01b031685528601511515868501529284019290850190600101612aaa565b5091979650505050505050565b602081526000610a7c602083018461290f565b600060208083526000845481600182811c915080831680612b1c57607f831692505b858310811415612b3a57634e487b7160e01b85526022600452602485fd5b878601838152602001818015612b575760018114612b6857612b93565b60ff19861682528782019650612b93565b60008b81526020902060005b86811015612b8d57815484820152908501908901612b74565b83019750505b50949998505050505050505050565b6020808252602e908201527f496e697469616c697a61626c653a20636f6e747261637420697320616c72656160408201526d191e481a5b9a5d1a585b1a5e995960921b606082015260800190565b9283526020830191909152604082015260600190565b604051601f8201601f191681016001600160401b0381118282101715612c2e57612c2e612d04565b604052919050565b60006001600160401b03821115612c4f57612c4f612d04565b5060051b60200190565b60008219821115612c6c57612c6c612cd8565b500190565b600082821015612c8357612c83612cd8565b500390565b600181811c90821680612c9c57607f821691505b602082108114156122f857634e487b7160e01b600052602260045260246000fd5b6000600019821415612cd157612cd1612cd8565b5060010190565b634e487b7160e01b600052601160045260246000fd5b634e487b7160e01b600052603260045260246000fd5b634e487b7160e01b600052604160045260246000fd5b6001600160a01b0381168114610b6757600080fd5b8015158114610b6757600080fdfea26469706673582212204833f618a0ed444ed1ee84936cc79542d56064a850bda89577184928942c935764736f6c63430008070033",
  "immutableReferences": {},
  "source": "// SPDX-License-Identifier: GPL-3.0\r\n\r\npragma solidity 0.8.7;\r\n\r\n/**\r\n * @title Storage\r\n * @dev Store & retrieve value in a variable\r\n */\r\n\r\nimport \"../Interfaces/IPayments.sol\";\r\nimport \"../Interfaces/IPool.sol\";\r\nimport \"../Interfaces/ICreditor.sol\";\r\nimport \"@openzeppelin/contracts/token/ERC20/IERC20.sol\";\r\nimport \"../Libraries/UintLibrary.sol\";\r\nimport \"../Base/StdPropositionBaseContract.sol\";\r\n\r\n\r\ncontract Payments is IPayments, StdPropositionBaseContract{\r\n    using UintLibrary for *;\r\n    using Library for *;\r\n\r\n    // EVENTS /////////////////////////////////////////\r\n    event _NewAddresses(address[] TokenAddresses);\r\n\r\n    // DATA /////////////////////////////////////////\r\n    Library.PaymentTokenStruct[] _Tokens;\r\n\r\n    // MODIFIERS /////////////////////////////////////////\r\n    modifier areAddressesOK(bytes[] memory NewValues)\r\n    {\r\n        require(NewValues.length > 0, \"At least one token address must be provided\");\r\n\r\n        if(NewValues.length > _Tokens.length){\r\n            for(uint256 i=_Tokens.length; i < NewValues.length; i++){\r\n                require(address(0) != AddressLibrary.Bytes32ToAddress(Library.BytestoBytes32(NewValues[i])[0]), \"New Token addresses cannot be empty\");\r\n            }\r\n        }\r\n        else{\r\n            bool AtLeastOneActiveToken = false;\r\n            for(uint256 i=0; i < NewValues.length; i++){\r\n                if(address(0) != AddressLibrary.Bytes32ToAddress(Library.BytestoBytes32(NewValues[i])[0])) {\r\n                    AtLeastOneActiveToken = true;\r\n                    break;\r\n                }\r\n            }\r\n            require(AtLeastOneActiveToken, \"EC21-\");\r\n        }\r\n        _;\r\n    }\r\n\r\n    modifier isFromCertifiedContract(address addr, uint256 id)\r\n    {\r\n        require(\r\n            addr == _managerContract.retrieveTransparentProxies()[uint256(Library.TransparentProxies.PublicPool)] || \r\n            addr == _managerContract.retrieveTransparentProxies()[uint256(Library.TransparentProxies.Treasury)] || \r\n            addr == _managerContract.retrieveTransparentProxies()[uint256(Library.TransparentProxies.AdminPiggyBank)] || \r\n            isNFTMarket(addr, id) \r\n        , \"It is not from one of the certified contracts\");\r\n        _;\r\n    }\r\n\r\n    function isNFTMarket(address addr, uint256 id) internal view returns(bool)\r\n    {\r\n        if(0 == id) return false;\r\n        IPool PublicPool = IPool(_managerContract.retrieveTransparentProxies()[uint256(Library.TransparentProxies.PublicPool)]);\r\n        return (addr == PublicPool.retrieveNFTMarketForIssuer(id));\r\n    }\r\n\r\n    modifier isTokenIdOK(uint256 tokenId)\r\n    {\r\n        require(tokenId < _Tokens.length && \r\n            address(0) != address(_Tokens[tokenId].TokenContract), \"this token Id does not have a corresponding Token address\");\r\n        require(true == _Tokens[tokenId].active, \"this token Id is not active\");\r\n        _;\r\n    }\r\n   \r\n    // CONSTRUCTOR /////////////////////////////////////////\r\n    function Payments_init(address managerContractAddress, address chairPerson, address[] memory tokenAddresses) public initializer \r\n    {\r\n        super.StdPropositionBaseContract_init(chairPerson, managerContractAddress);\r\n        InternalupdateSettings(tokenAddresses);\r\n    }\r\n\r\n    // GOVERNANCE /////////////////////////////////////////\r\n    function checkProposition(bytes[] memory NewValues) internal override \r\n        areAddressesOK(NewValues)\r\n    {}\r\n\r\n    function UpdateAll() internal override\r\n    {\r\n        bytes32[] memory ProposedNewValues = PropositionsToBytes32();\r\n        address[] memory NewAddresses = new address[](ProposedNewValues.length);\r\n        for(uint256 i=0; i < NewAddresses.length; i++){\r\n            NewAddresses[i] = AddressLibrary.Bytes32ToAddress(ProposedNewValues[i]);\r\n        }\r\n\r\n        InternalupdateSettings(NewAddresses);\r\n        emit _NewAddresses(NewAddresses);\r\n    }\r\n\r\n    function InternalupdateSettings(address[] memory tokenAddresses) internal\r\n    {\r\n        for(uint256 i=0; i < _Tokens.length; i++){\r\n            if(i < tokenAddresses.length && address(0) != tokenAddresses[i]) {\r\n                _Tokens[i].TokenContract = IERC20(tokenAddresses[i]);\r\n                if(!_Tokens[i].active)_Tokens[i].active = true;\r\n            }\r\n            else{\r\n                if(_Tokens[i].active)_Tokens[i].active = false;\r\n            }\r\n        }\r\n\r\n        for(uint256 k=_Tokens.length; k < tokenAddresses.length; k++){\r\n            _Tokens[k].TokenContract = IERC20(tokenAddresses[k]);\r\n            _Tokens[k].active = true;\r\n        }\r\n    }\r\n\r\n    // FUNCTIONALITY /////////////////////////////////////////\r\n    function TransferFrom(address sender, address recipient, uint256 amount, uint256 MarketId, bytes memory data, uint256 tokenId) external override\r\n        isFromCertifiedContract(msg.sender, MarketId)\r\n        isTokenIdOK(tokenId)\r\n    {\r\n        require(_Tokens[tokenId].TokenContract.allowance(sender, address(this)) >= amount, \"Contract does not have enough approved funds\");\r\n        bool success = _Tokens[tokenId].TokenContract.transferFrom(sender, recipient, amount);\r\n        require(true == success, \"Transfer From did not work\");\r\n        ICreditor(recipient).CreditReceived(sender, amount, data);\r\n    }\r\n\r\n    function BalanceOf(address account, uint256 tokenId) external override view returns(uint256)\r\n    {\r\n        if(tokenId >= _Tokens.length || address(0) == address(_Tokens[tokenId].TokenContract)) return 0;\r\n        return(_Tokens[tokenId].TokenContract.balanceOf(account));\r\n    }\r\n\r\n    function retrieveSettings() external override view returns(Library.PaymentTokenStruct[] memory)\r\n    {\r\n        return(_Tokens);\r\n    }\r\n\r\n}",
  "sourcePath": "C:\\Users\\d-aam\\GitHub\\Originals\\contracts\\MainContracts\\Payments.sol",
  "compiler": {
    "name": "solc",
    "version": "0.8.7+commit.e28d00a7.Emscripten.clang"
  },
  "schemaVersion": "3.4.3",
  "updatedAt": "2022-02-24T14:33:05.602Z",
  "devdoc": {
    "kind": "dev",
    "methods": {},
    "version": 1
  },
  "userdoc": {
    "kind": "user",
    "methods": {},
    "version": 1
  }
}