{
  "contractName": "Payment",
  "abi": [
    {
      "anonymous": false,
      "inputs": [
        {
          "indexed": false,
          "internalType": "uint256",
          "name": "Id",
          "type": "uint256"
        },
        {
          "indexed": true,
          "internalType": "address",
          "name": "Proposer",
          "type": "address"
        },
        {
          "indexed": false,
          "internalType": "uint256",
          "name": "Deadline",
          "type": "uint256"
        },
        {
          "indexed": false,
          "internalType": "uint256",
          "name": "Threshold",
          "type": "uint256"
        }
      ],
      "name": "_AddedProposition",
      "type": "event"
    },
    {
      "anonymous": false,
      "inputs": [
        {
          "indexed": false,
          "internalType": "uint256",
          "name": "Id",
          "type": "uint256"
        },
        {
          "indexed": true,
          "internalType": "address",
          "name": "Proposer",
          "type": "address"
        }
      ],
      "name": "_CancelledProposition",
      "type": "event"
    },
    {
      "anonymous": false,
      "inputs": [
        {
          "indexed": false,
          "internalType": "address",
          "name": "TokenAddress",
          "type": "address"
        }
      ],
      "name": "_NewAddress",
      "type": "event"
    },
    {
      "anonymous": false,
      "inputs": [
        {
          "indexed": false,
          "internalType": "uint256",
          "name": "Id",
          "type": "uint256"
        },
        {
          "indexed": true,
          "internalType": "address",
          "name": "Proposer",
          "type": "address"
        },
        {
          "indexed": false,
          "internalType": "uint256",
          "name": "VotesFor",
          "type": "uint256"
        },
        {
          "indexed": false,
          "internalType": "uint256",
          "name": "VotesAgainst",
          "type": "uint256"
        }
      ],
      "name": "_PropositionApproved",
      "type": "event"
    },
    {
      "anonymous": false,
      "inputs": [
        {
          "indexed": false,
          "internalType": "uint256",
          "name": "Id",
          "type": "uint256"
        },
        {
          "indexed": true,
          "internalType": "address",
          "name": "Proposer",
          "type": "address"
        },
        {
          "indexed": false,
          "internalType": "uint256",
          "name": "VotesFor",
          "type": "uint256"
        },
        {
          "indexed": false,
          "internalType": "uint256",
          "name": "VotesAgainst",
          "type": "uint256"
        }
      ],
      "name": "_PropositionRejected",
      "type": "event"
    },
    {
      "anonymous": false,
      "inputs": [
        {
          "indexed": false,
          "internalType": "uint256",
          "name": "Id",
          "type": "uint256"
        },
        {
          "indexed": true,
          "internalType": "address",
          "name": "Voter",
          "type": "address"
        },
        {
          "indexed": false,
          "internalType": "bool",
          "name": "Vote",
          "type": "bool"
        },
        {
          "indexed": false,
          "internalType": "uint256",
          "name": "AmountTokens",
          "type": "uint256"
        }
      ],
      "name": "_PropositionVote",
      "type": "event"
    },
    {
      "anonymous": false,
      "inputs": [
        {
          "indexed": true,
          "internalType": "uint256",
          "name": "Id",
          "type": "uint256"
        },
        {
          "indexed": false,
          "internalType": "address",
          "name": "From",
          "type": "address"
        },
        {
          "indexed": false,
          "internalType": "address",
          "name": "To",
          "type": "address"
        },
        {
          "indexed": false,
          "internalType": "uint256",
          "name": "Amount",
          "type": "uint256"
        }
      ],
      "name": "_UsedTokensTransfered",
      "type": "event"
    },
    {
      "inputs": [
        {
          "internalType": "address",
          "name": "chairPerson",
          "type": "address"
        },
        {
          "internalType": "address",
          "name": "managerContractAddress",
          "type": "address"
        }
      ],
      "name": "StdPropositionBaseContract_init",
      "outputs": [],
      "stateMutability": "nonpayable",
      "type": "function"
    },
    {
      "inputs": [],
      "name": "cancelProposition",
      "outputs": [],
      "stateMutability": "nonpayable",
      "type": "function"
    },
    {
      "inputs": [
        {
          "internalType": "address",
          "name": "from",
          "type": "address"
        },
        {
          "internalType": "address",
          "name": "to",
          "type": "address"
        },
        {
          "internalType": "uint256",
          "name": "amount",
          "type": "uint256"
        }
      ],
      "name": "onTokenBalanceChanged",
      "outputs": [],
      "stateMutability": "nonpayable",
      "type": "function"
    },
    {
      "inputs": [],
      "name": "retrieveChairPerson",
      "outputs": [
        {
          "internalType": "address",
          "name": "",
          "type": "address"
        }
      ],
      "stateMutability": "view",
      "type": "function"
    },
    {
      "inputs": [],
      "name": "retrieveManagerContract",
      "outputs": [
        {
          "internalType": "address",
          "name": "",
          "type": "address"
        }
      ],
      "stateMutability": "view",
      "type": "function"
    },
    {
      "inputs": [],
      "name": "retrieveNextPropId",
      "outputs": [
        {
          "internalType": "uint256",
          "name": "",
          "type": "uint256"
        }
      ],
      "stateMutability": "view",
      "type": "function"
    },
    {
      "inputs": [],
      "name": "retrieveProposition",
      "outputs": [
        {
          "internalType": "bytes[]",
          "name": "",
          "type": "bytes[]"
        }
      ],
      "stateMutability": "view",
      "type": "function"
    },
    {
      "inputs": [],
      "name": "retrievePropositionStatus",
      "outputs": [
        {
          "internalType": "address",
          "name": "",
          "type": "address"
        },
        {
          "internalType": "uint256",
          "name": "",
          "type": "uint256"
        },
        {
          "internalType": "uint256",
          "name": "",
          "type": "uint256"
        },
        {
          "internalType": "uint256",
          "name": "",
          "type": "uint256"
        },
        {
          "internalType": "uint256",
          "name": "",
          "type": "uint256"
        }
      ],
      "stateMutability": "view",
      "type": "function"
    },
    {
      "inputs": [
        {
          "internalType": "uint256",
          "name": "PropId",
          "type": "uint256"
        },
        {
          "internalType": "address",
          "name": "voter",
          "type": "address"
        }
      ],
      "name": "retrieveVotesForVoter",
      "outputs": [
        {
          "internalType": "uint256",
          "name": "",
          "type": "uint256"
        }
      ],
      "stateMutability": "view",
      "type": "function"
    },
    {
      "inputs": [
        {
          "internalType": "bytes[]",
          "name": "NewValues",
          "type": "bytes[]"
        }
      ],
      "name": "sendProposition",
      "outputs": [],
      "stateMutability": "nonpayable",
      "type": "function"
    },
    {
      "inputs": [
        {
          "internalType": "bool",
          "name": "vote",
          "type": "bool"
        }
      ],
      "name": "voteProposition",
      "outputs": [],
      "stateMutability": "nonpayable",
      "type": "function"
    },
    {
      "inputs": [
        {
          "internalType": "address",
          "name": "managerContractAddress",
          "type": "address"
        },
        {
          "internalType": "address",
          "name": "chairPerson",
          "type": "address"
        },
        {
          "internalType": "address",
          "name": "tokenAddress",
          "type": "address"
        }
      ],
      "name": "Payment_init",
      "outputs": [],
      "stateMutability": "nonpayable",
      "type": "function"
    },
    {
      "inputs": [
        {
          "internalType": "address",
          "name": "sender",
          "type": "address"
        },
        {
          "internalType": "address",
          "name": "recipient",
          "type": "address"
        },
        {
          "internalType": "uint256",
          "name": "amount",
          "type": "uint256"
        },
        {
          "internalType": "uint256",
          "name": "id",
          "type": "uint256"
        }
      ],
      "name": "TransferFundsFrom",
      "outputs": [],
      "stateMutability": "nonpayable",
      "type": "function"
    },
    {
      "inputs": [
        {
          "internalType": "address",
          "name": "account",
          "type": "address"
        }
      ],
      "name": "getBalanceFor",
      "outputs": [
        {
          "internalType": "uint256",
          "name": "",
          "type": "uint256"
        }
      ],
      "stateMutability": "view",
      "type": "function"
    },
    {
      "inputs": [],
      "name": "retrieveSettings",
      "outputs": [
        {
          "internalType": "address",
          "name": "",
          "type": "address"
        }
      ],
      "stateMutability": "view",
      "type": "function"
    }
  ],
  "bytecode": "0x608060405234801561001057600080fd5b5061228e806100206000396000f3fe608060405234801561001057600080fd5b50600436106100c55760003560e01c806304cc67a9146100ca5780633b11be98146100e15780633c7df55d146100f65780634044adb21461010957806355457ee91461013f57806359c589a1146101475780635b362e841461015a5780635ebe279b1461017a578063840f6d171461018d57806391f91671146101ce578063a93316f5146101e1578063b049473f146101f6578063b1fd235914610207578063db85bc4d1461021a578063e15aa3a61461022b575b600080fd5b6008545b6040519081526020015b60405180910390f35b6100f46100ef366004611b30565b61023e565b005b6100f4610104366004611b7b565b6102cf565b6100ce610117366004611e8f565b60009182526009602090815260408084206001600160a01b0393909316845291905290205490565b6100f46103e7565b6100ce610155366004611abd565b6104c1565b6000546201000090046001600160a01b03165b6040516100d89190611f2f565b6100f4610188366004611bbc565b610548565b600354600454600554600654600754604080516001600160a01b0390961686526020860194909452928401919091526060830152608082015260a0016100d8565b6100f46101dc366004611e3c565b61088d565b6101e961089a565b6040516100d89190611f81565b600b546001600160a01b031661016d565b6100f4610215366004611af7565b610973565b6001546001600160a01b031661016d565b6100f4610239366004611d32565b6109f1565b600054610100900460ff166102595760005460ff161561025d565b303b155b6102825760405162461bcd60e51b8152600401610279906120bd565b60405180910390fd5b600054610100900460ff161580156102a4576000805461ffff19166101011790555b6102ae8385610973565b6102b782610a6b565b80156102c9576000805461ff00191690555b50505050565b3373__Library_______________________________6337ea306382600060029054906101000a90046001600160a01b03166001600160a01b031663e220ad956040518163ffffffff1660e01b815260040160006040518083038186803b15801561033957600080fd5b505afa15801561034d573d6000803e3d6000fd5b505050506040513d6000823e601f3d908101601f191682016040526103759190810190611c02565b60038151811061038757610387612209565b60200260200101516040518363ffffffff1660e01b81526004016103ac929190611f43565b60006040518083038186803b1580156103c457600080fd5b505af41580156103d8573d6000803e3d6000fd5b505050506102c9848484610a8d565b60016103f281610aaa565b6003546040516337ea306360e01b8152339173__Library_______________________________916337ea3063916104389185916001600160a01b031690600401611f43565b60006040518083038186803b15801561045057600080fd5b505af4158015610464573d6000803e3d6000fd5b50505050610470610b2e565b610478610b38565b6003546002546040519081526001600160a01b03909116907f1fe8aec10c0a50fa765076161e08c1f961ced69594ff45cf7d559f593afe14799060200160405180910390a25050565b600b546040516370a0823160e01b81526000916001600160a01b0316906370a08231906104f2908590600401611f2f565b60206040518083038186803b15801561050a57600080fd5b505afa15801561051e573d6000803e3d6000fd5b505050506040513d601f19601f820116820180604052508101906105429190611e76565b92915050565b3381600060029054906101000a90046001600160a01b03166001600160a01b031663e220ad956040518163ffffffff1660e01b815260040160006040518083038186803b15801561059857600080fd5b505afa1580156105ac573d6000803e3d6000fd5b505050506040513d6000823e601f3d908101601f191682016040526105d49190810190611c02565b6001815181106105e6576105e6612209565b60200260200101516001600160a01b0316826001600160a01b031614806106c15750600060029054906101000a90046001600160a01b03166001600160a01b031663e220ad956040518163ffffffff1660e01b815260040160006040518083038186803b15801561065657600080fd5b505afa15801561066a573d6000803e3d6000fd5b505050506040513d6000823e601f3d908101601f191682016040526106929190810190611c02565b6002815181106106a4576106a4612209565b60200260200101516001600160a01b0316826001600160a01b0316145b806107805750600060029054906101000a90046001600160a01b03166001600160a01b031663e220ad956040518163ffffffff1660e01b815260040160006040518083038186803b15801561071557600080fd5b505afa158015610729573d6000803e3d6000fd5b505050506040513d6000823e601f3d908101601f191682016040526107519190810190611c02565b60058151811061076357610763612209565b60200260200101516001600160a01b0316826001600160a01b0316145b8061079057506107908282610b63565b6107ac5760405162461bcd60e51b81526004016102799061209e565b600b546040516323b872dd60e01b81526000916001600160a01b0316906323b872dd906107e1908a908a908a90600401611f5d565b602060405180830381600087803b1580156107fb57600080fd5b505af115801561080f573d6000803e3d6000fd5b505050506040513d601f19601f820116820180604052508101906108339190611e59565b90506001811515146108845760405162461bcd60e51b815260206004820152601a6024820152795472616e736665722046726f6d20646964206e6f7420776f726b60301b6044820152606401610279565b50505050505050565b6108973382610ca7565b50565b6060600a805480602002602001604051908101604052809291908181526020016000905b8282101561096a5783829060005260206000200180546108dd906121a3565b80601f0160208091040260200160405190810160405280929190818152602001828054610909906121a3565b80156109565780601f1061092b57610100808354040283529160200191610956565b820191906000526020600020905b81548152906001019060200180831161093957829003601f168201915b5050505050815260200190600101906108be565b50505050905090565b600054610100900460ff1661098e5760005460ff1615610992565b303b155b6109ae5760405162461bcd60e51b8152600401610279906120bd565b600054610100900460ff161580156109d0576000805461ffff19166101011790555b6109da8383610db6565b80156109ec576000805461ff00191690555b505050565b6109fa81610e52565b610a02610fbf565b60005b8151811015610a6757600a828281518110610a2257610a22612209565b60209081029190910181015182546001810184556000938452928290208151610a5494919091019291909101906119af565b5080610a5f816121d8565b915050610a05565b5050565b600b80546001600160a01b0319166001600160a01b0392909216919091179055565b610a9561130e565b1515600114156109ec576109ec838383611348565b8015610af157610ab861130e565b15156001146108975760405162461bcd60e51b8152602060048201526005602482015264454332352d60d81b6044820152606401610279565b610af961130e565b156108975760405162461bcd60e51b8152602060048201526005602482015264454332342d60d81b6044820152606401610279565b610b366114a9565b565b60006002819055600380546001600160a01b0319169055600481905560058190556006819055600755565b600080600060029054906101000a90046001600160a01b03166001600160a01b031663e220ad956040518163ffffffff1660e01b815260040160006040518083038186803b158015610bb457600080fd5b505afa158015610bc8573d6000803e3d6000fd5b505050506040513d6000823e601f3d908101601f19168201604052610bf09190810190611c02565b600181518110610c0257610c02612209565b60200260200101519050806001600160a01b03166303231e5d846040518263ffffffff1660e01b8152600401610c3a91815260200190565b60206040518083038186803b158015610c5257600080fd5b505afa158015610c66573d6000803e3d6000fd5b505050506040513d601f19601f82011682018060405250810190610c8a9190611ada565b6001600160a01b0316846001600160a01b03161491505092915050565b6001610cb281610aaa565b60025483906000610cc383836114b5565b905060008111610cfd5760405162461bcd60e51b8152602060048201526005602482015264454332332d60d81b6044820152606401610279565b6000610d0e876002600001546114b5565b90508515610d36578060026004016000828254610d2b9190612174565b90915550610d519050565b8060026005016000828254610d4b9190612174565b90915550505b600254610d5f9088836114f2565b60025460408051918252871515602083015281018290526001600160a01b038816907f50f654d58981575c05e369cb129aeacb01e1b036af429380242cfc5d1a4b743f9060600160405180910390a261088461152e565b600054610100900460ff16610dd15760005460ff1615610dd5565b303b155b610df15760405162461bcd60e51b8152600401610279906120bd565b600054610100900460ff16158015610e13576000805461ffff19166101011790555b610e1c82611602565b600180546001600160a01b0319166001600160a01b038516179055600060085580156109ec576000805461ff0019169055505050565b73__AddressLibrary________________________63f4ce9ae873__Library_______________________________63caa8f58984600081518110610e9957610e99612209565b60200260200101516040518263ffffffff1660e01b8152600401610ebd9190611fe3565b60006040518083038186803b158015610ed557600080fd5b505af4158015610ee9573d6000803e3d6000fd5b505050506040513d6000823e601f3d908101601f19168201604052610f119190810190611ca7565b600081518110610f2357610f23612209565b60200260200101516040518263ffffffff1660e01b8152600401610f4991815260200190565b60206040518083038186803b158015610f6157600080fd5b505af4158015610f75573d6000803e3d6000fd5b505050506040513d601f19601f82011682018060405250810190610f999190611ada565b6001600160a01b038116610a675760405162461bcd60e51b81526004016102799061209e565b6000610fca81610aaa565b60015433906000906001600160a01b0316821415610fea57506001611120565b6000610ff583611696565b905060008060029054906101000a90046001600160a01b03166001600160a01b031663e220ad956040518163ffffffff1660e01b815260040160006040518083038186803b15801561104657600080fd5b505afa15801561105a573d6000803e3d6000fd5b505050506040513d6000823e601f3d908101601f191682016040526110829190810190611c02565b60048151811061109457611094612209565b60200260200101516001600160a01b031663b049473f6040518163ffffffff1660e01b815260040160606040518083038186803b1580156110d457600080fd5b505afa1580156110e8573d6000803e3d6000fd5b505050506040513d601f19601f8201168201806040525081019061110c9190611eb4565b925050508082111561111d57600192505b50505b60018115151461115a5760405162461bcd60e51b8152602060048201526005602482015264454332322d60d81b6044820152606401610279565b600080600060029054906101000a90046001600160a01b03166001600160a01b031663e220ad956040518163ffffffff1660e01b815260040160006040518083038186803b1580156111ab57600080fd5b505afa1580156111bf573d6000803e3d6000fd5b505050506040513d6000823e601f3d908101601f191682016040526111e79190810190611c02565b6004815181106111f9576111f9612209565b60200260200101516001600160a01b031663b049473f6040518163ffffffff1660e01b815260040160606040518083038186803b15801561123957600080fd5b505afa15801561124d573d6000803e3d6000fd5b505050506040513d601f19601f820116820180604052508101906112719190611eb4565b50600380546001600160a01b0319163317905590925090506112938242612174565b60045560058190556008805460028190559060006112b0836121d8565b90915550506003546002546004546005546040516001600160a01b03909416937f472501d19bf75639b2e316cd36f8568b0c3ab943b82a87de3c086c98c1929df9936112ff939092909161210b565b60405180910390a25050505050565b6004546000904210156113215750600190565b6003546001600160a01b0316156113425761133a610b2e565b611342610b38565b50600090565b6001600160a01b03831615801590611384575060025460009081526009602090815260408083206001600160a01b038716845290915290205415155b156109ec5760025460009081526009602090815260408083206001600160a01b038716845290915290205481908111156113e0575060025460009081526009602090815260408083206001600160a01b03871684529091529020545b60025460009081526009602090815260408083206001600160a01b03881684529091528120805483929061141590849061218c565b90915550506001600160a01b038316156114645760025460009081526009602090815260408083206001600160a01b03871684529091528120805483929061145e908490612174565b90915550505b6002546040517f65fbd5e5dd32bea4aeca85bd0be0abf0e489d655dee888a7510d43b06dda2dba9061149b90879087908690611f5d565b60405180910390a250505050565b610b36600a6000611a33565b60008181526009602090815260408083206001600160a01b03861684529091528120546114e184611696565b6114eb919061218c565b9392505050565b60008381526009602090815260408083206001600160a01b038616845290915281208054839290611524908490612174565b9091555050505050565b6005546006541061159d57611541611766565b611549610b38565b6003546002546006546007546040516001600160a01b03909416937f23ca0034cf5aad32571b4a492e9598ea8a490e1643a60970e3cdc6933b55e49f93611593939092909161210b565b60405180910390a2565b60055460075410610b36576115b0610b2e565b6115b8610b38565b6003546002546006546007546040516001600160a01b03909416937fa58eb6daa3c62c3f883973c4035e5bd3e81aa627c8379de068a7de42df122be293611593939092909161210b565b600054610100900460ff1661161d5760005460ff1615611621565b303b155b61163d5760405162461bcd60e51b8152600401610279906120bd565b600054610100900460ff1615801561165f576000805461ffff19166101011790555b6000805462010000600160b01b031916620100006001600160a01b038516021790558015610a67576000805461ff00191690555050565b60008060029054906101000a90046001600160a01b03166001600160a01b031663e220ad956040518163ffffffff1660e01b815260040160006040518083038186803b1580156116e557600080fd5b505afa1580156116f9573d6000803e3d6000fd5b505050506040513d6000823e601f3d908101601f191682016040526117219190810190611c02565b60038151811061173357611733612209565b60200260200101516001600160a01b03166370a08231836040518263ffffffff1660e01b81526004016104f29190611f2f565b610b2e6000611773611860565b9050600073__AddressLibrary________________________63f4ce9ae8836000815181106117a4576117a4612209565b60200260200101516040518263ffffffff1660e01b81526004016117ca91815260200190565b60206040518083038186803b1580156117e257600080fd5b505af41580156117f6573d6000803e3d6000fd5b505050506040513d601f19601f8201168201806040525081019061181a9190611ada565b905061182581610a6b565b7f9975e4b1d49f76f8d43fbe1c1e9865fcdd07aa824519a42a28842df898b10ae6816040516118549190611f2f565b60405180910390a15050565b600a546060906000906001600160401b038111156118805761188061221f565b6040519080825280602002602001820160405280156118a9578160200160208202803683370190505b50905060005b600a548110156119a95773__Library_______________________________63caa8f589600a83815481106118e6576118e6612209565b906000526020600020016040518263ffffffff1660e01b815260040161190c9190611ff6565b60006040518083038186803b15801561192457600080fd5b505af4158015611938573d6000803e3d6000fd5b505050506040513d6000823e601f3d908101601f191682016040526119609190810190611ca7565b60008151811061197257611972612209565b602002602001015182828151811061198c5761198c612209565b6020908102919091010152806119a1816121d8565b9150506118af565b50919050565b8280546119bb906121a3565b90600052602060002090601f0160209004810192826119dd5760008555611a23565b82601f106119f657805160ff1916838001178555611a23565b82800160010185558215611a23579182015b82811115611a23578251825591602001919060010190611a08565b50611a2f929150611a51565b5090565b50805460008255906000526020600020908101906108979190611a66565b5b80821115611a2f5760008155600101611a52565b80821115611a2f576000611a7a8282611a83565b50600101611a66565b508054611a8f906121a3565b6000825580601f10611a9f575050565b601f0160209004906000526020600020908101906108979190611a51565b600060208284031215611acf57600080fd5b81356114eb81612235565b600060208284031215611aec57600080fd5b81516114eb81612235565b60008060408385031215611b0a57600080fd5b8235611b1581612235565b91506020830135611b2581612235565b809150509250929050565b600080600060608486031215611b4557600080fd5b8335611b5081612235565b92506020840135611b6081612235565b91506040840135611b7081612235565b809150509250925092565b600080600060608486031215611b9057600080fd5b8335611b9b81612235565b92506020840135611bab81612235565b929592945050506040919091013590565b60008060008060808587031215611bd257600080fd5b8435611bdd81612235565b93506020850135611bed81612235565b93969395505050506040820135916060013590565b60006020808385031215611c1557600080fd5b82516001600160401b03811115611c2b57600080fd5b8301601f81018513611c3c57600080fd5b8051611c4f611c4a82612151565b612121565b80828252848201915084840188868560051b8701011115611c6f57600080fd5b600094505b83851015611c9b578051611c8781612235565b835260019490940193918501918501611c74565b50979650505050505050565b60006020808385031215611cba57600080fd5b82516001600160401b03811115611cd057600080fd5b8301601f81018513611ce157600080fd5b8051611cef611c4a82612151565b80828252848201915084840188868560051b8701011115611d0f57600080fd5b600094505b83851015611c9b578051835260019490940193918501918501611d14565b60006020808385031215611d4557600080fd5b82356001600160401b0380821115611d5c57600080fd5b8185019150601f8681840112611d7157600080fd5b8235611d7f611c4a82612151565b8082825286820191508686018a888560051b8901011115611d9f57600080fd5b60005b84811015611e2c57813587811115611db957600080fd5b8801603f81018d13611dca57600080fd5b89810135604089821115611de057611de061221f565b611df1828a01601f19168d01612121565b8281528f82848601011115611e0557600080fd5b828285018e83013760009281018d0192909252508552509288019290880190600101611da2565b50909a9950505050505050505050565b600060208284031215611e4e57600080fd5b81356114eb8161224a565b600060208284031215611e6b57600080fd5b81516114eb8161224a565b600060208284031215611e8857600080fd5b5051919050565b60008060408385031215611ea257600080fd5b823591506020830135611b2581612235565b600080600060608486031215611ec957600080fd5b8351925060208401519150604084015190509250925092565b6000815180845260005b81811015611f0857602081850181015186830182015201611eec565b81811115611f1a576000602083870101525b50601f01601f19169290920160200192915050565b6001600160a01b0391909116815260200190565b6001600160a01b0392831681529116602082015260400190565b6001600160a01b039384168152919092166020820152604081019190915260600190565b6000602080830181845280855180835260408601915060408160051b870101925083870160005b82811015611fd657603f19888603018452611fc4858351611ee2565b94509285019290850190600101611fa8565b5092979650505050505050565b6020815260006114eb6020830184611ee2565b600060208083526000845481600182811c91508083168061201857607f831692505b85831081141561203657634e487b7160e01b85526022600452602485fd5b87860183815260200181801561205357600181146120645761208f565b60ff1986168252878201965061208f565b60008b81526020902060005b8681101561208957815484820152908501908901612070565b83019750505b50949998505050505050505050565b602080825260059082015264454332312d60d81b604082015260600190565b6020808252602e908201527f496e697469616c697a61626c653a20636f6e747261637420697320616c72656160408201526d191e481a5b9a5d1a585b1a5e995960921b606082015260800190565b9283526020830191909152604082015260600190565b604051601f8201601f191681016001600160401b03811182821017156121495761214961221f565b604052919050565b60006001600160401b0382111561216a5761216a61221f565b5060051b60200190565b60008219821115612187576121876121f3565b500190565b60008282101561219e5761219e6121f3565b500390565b600181811c908216806121b757607f821691505b602082108114156119a957634e487b7160e01b600052602260045260246000fd5b60006000198214156121ec576121ec6121f3565b5060010190565b634e487b7160e01b600052601160045260246000fd5b634e487b7160e01b600052603260045260246000fd5b634e487b7160e01b600052604160045260246000fd5b6001600160a01b038116811461089757600080fd5b801515811461089757600080fdfea2646970667358221220942d5a6d19061303781ab83ee540abcd9a50841ed47a7eaf513ad9d10a3e8b5f64736f6c63430008070033",
  "immutableReferences": {},
  "source": "// SPDX-License-Identifier: GPL-3.0\r\n\r\npragma solidity 0.8.7;\r\n\r\n/**\r\n * @title Storage\r\n * @dev Store & retrieve value in a variable\r\n */\r\n\r\nimport \"../Interfaces/IPayments.sol\";\r\nimport \"../Interfaces/IPool.sol\";\r\nimport \"@openzeppelin/contracts/token/ERC20/IERC20.sol\";\r\nimport \"../Libraries/UintLibrary.sol\";\r\nimport \"../Base/StdPropositionBaseContract.sol\";\r\n\r\n\r\ncontract Payment is IPayments, StdPropositionBaseContract{\r\n    using UintLibrary for *;\r\n\r\n    // EVENTS /////////////////////////////////////////\r\n    event _NewAddress(address TokenAddress);\r\n\r\n    // DATA /////////////////////////////////////////\r\n    IERC20 internal _TokenContract;\r\n\r\n    // MODIFIERS /////////////////////////////////////////\r\n    modifier isAddressOK(address addr)\r\n    {\r\n        require(address(0) != addr, \"EC21-\");\r\n        _;\r\n    }\r\n\r\n    modifier isFromCertifiedContract(address addr, uint256 id)\r\n    {\r\n        require(\r\n            addr == _managerContract.retrieveTransparentProxies()[uint256(Library.TransparentProxies.PublicPool)] || \r\n            addr == _managerContract.retrieveTransparentProxies()[uint256(Library.TransparentProxies.Treasury)] || \r\n            addr == _managerContract.retrieveTransparentProxies()[uint256(Library.TransparentProxies.AdminPiggyBank)] || \r\n            isNFTMarket(addr, id) \r\n        , \"EC21-\");\r\n        _;\r\n    }\r\n\r\n    function isNFTMarket(address addr, uint256 id) internal view returns(bool)\r\n    {\r\n        IPool PublicPool = IPool( _managerContract.retrieveTransparentProxies()[uint256(Library.TransparentProxies.PublicPool)]);\r\n        return (addr == PublicPool.retrieveNFTMarketForIssuer(id));\r\n    }\r\n   \r\n    // CONSTRUCTOR /////////////////////////////////////////\r\n    function Payment_init(address managerContractAddress, address chairPerson, address tokenAddress) public initializer \r\n    {\r\n        super.StdPropositionBaseContract_init(chairPerson, managerContractAddress);\r\n        InternalupdateSettings(tokenAddress);\r\n    }\r\n\r\n    // GOVERNANCE /////////////////////////////////////////\r\n    function checkProposition(bytes[] memory NewValues) internal override \r\n        isAddressOK(AddressLibrary.Bytes32ToAddress(Library.BytestoBytes32(NewValues[0])[0]))\r\n    {}\r\n\r\n    function UpdateAll() internal override\r\n    {\r\n        bytes32[] memory ProposedNewValues = PropositionsToBytes32();\r\n        address NewAddress = AddressLibrary.Bytes32ToAddress(ProposedNewValues[0]);\r\n        InternalupdateSettings(NewAddress);\r\n        emit _NewAddress(NewAddress);\r\n    }\r\n\r\n    function InternalupdateSettings(address tokenAddress) internal\r\n    {\r\n        _TokenContract = IERC20(tokenAddress);\r\n    }\r\n\r\n    // FUNCTIONALITY /////////////////////////////////////////\r\n    function TransferFundsFrom(address sender, address recipient, uint256 amount, uint256 id) external override\r\n        isFromCertifiedContract(msg.sender, id)\r\n    {\r\n        bool success = _TokenContract.transferFrom(sender, recipient, amount);\r\n        require(true == success, \"Transfer From did not work\");\r\n    }\r\n\r\n    function getBalanceFor(address account) external override view returns(uint256)\r\n    {\r\n        return(_TokenContract.balanceOf(account));\r\n    }\r\n\r\n\r\n    function retrieveSettings() external override view returns(address)\r\n    {\r\n        return(address(_TokenContract));\r\n    }\r\n\r\n}",
  "sourcePath": "C:\\Users\\d-aam\\GitHub\\Originals\\contracts\\MainContracts\\Payments.sol",
  "compiler": {
    "name": "solc",
    "version": "0.8.7+commit.e28d00a7.Emscripten.clang"
  },
  "schemaVersion": "3.4.3",
  "updatedAt": "2022-02-15T08:49:47.402Z",
  "devdoc": {
    "kind": "dev",
    "methods": {},
    "version": 1
  },
  "userdoc": {
    "kind": "user",
    "methods": {},
    "version": 1
  }
}