{
  "contractName": "Payments",
  "abi": [
    {
      "anonymous": false,
      "inputs": [
        {
          "indexed": false,
          "internalType": "uint256",
          "name": "Id",
          "type": "uint256"
        },
        {
          "indexed": true,
          "internalType": "address",
          "name": "Proposer",
          "type": "address"
        },
        {
          "indexed": false,
          "internalType": "uint256",
          "name": "Deadline",
          "type": "uint256"
        },
        {
          "indexed": false,
          "internalType": "uint256",
          "name": "Threshold",
          "type": "uint256"
        }
      ],
      "name": "_AddedProposition",
      "type": "event"
    },
    {
      "anonymous": false,
      "inputs": [
        {
          "indexed": false,
          "internalType": "uint256",
          "name": "Id",
          "type": "uint256"
        },
        {
          "indexed": true,
          "internalType": "address",
          "name": "Proposer",
          "type": "address"
        }
      ],
      "name": "_CancelledProposition",
      "type": "event"
    },
    {
      "anonymous": false,
      "inputs": [
        {
          "indexed": false,
          "internalType": "address",
          "name": "TokenAddress",
          "type": "address"
        }
      ],
      "name": "_NewAddress",
      "type": "event"
    },
    {
      "anonymous": false,
      "inputs": [
        {
          "indexed": false,
          "internalType": "uint256",
          "name": "Id",
          "type": "uint256"
        },
        {
          "indexed": true,
          "internalType": "address",
          "name": "Proposer",
          "type": "address"
        },
        {
          "indexed": false,
          "internalType": "uint256",
          "name": "VotesFor",
          "type": "uint256"
        },
        {
          "indexed": false,
          "internalType": "uint256",
          "name": "VotesAgainst",
          "type": "uint256"
        }
      ],
      "name": "_PropositionApproved",
      "type": "event"
    },
    {
      "anonymous": false,
      "inputs": [
        {
          "indexed": false,
          "internalType": "uint256",
          "name": "Id",
          "type": "uint256"
        },
        {
          "indexed": true,
          "internalType": "address",
          "name": "Proposer",
          "type": "address"
        },
        {
          "indexed": false,
          "internalType": "uint256",
          "name": "VotesFor",
          "type": "uint256"
        },
        {
          "indexed": false,
          "internalType": "uint256",
          "name": "VotesAgainst",
          "type": "uint256"
        }
      ],
      "name": "_PropositionRejected",
      "type": "event"
    },
    {
      "anonymous": false,
      "inputs": [
        {
          "indexed": false,
          "internalType": "uint256",
          "name": "Id",
          "type": "uint256"
        },
        {
          "indexed": true,
          "internalType": "address",
          "name": "Voter",
          "type": "address"
        },
        {
          "indexed": false,
          "internalType": "bool",
          "name": "Vote",
          "type": "bool"
        },
        {
          "indexed": false,
          "internalType": "uint256",
          "name": "AmountTokens",
          "type": "uint256"
        }
      ],
      "name": "_PropositionVote",
      "type": "event"
    },
    {
      "anonymous": false,
      "inputs": [
        {
          "indexed": true,
          "internalType": "uint256",
          "name": "Id",
          "type": "uint256"
        },
        {
          "indexed": false,
          "internalType": "address",
          "name": "From",
          "type": "address"
        },
        {
          "indexed": false,
          "internalType": "address",
          "name": "To",
          "type": "address"
        },
        {
          "indexed": false,
          "internalType": "uint256",
          "name": "Amount",
          "type": "uint256"
        }
      ],
      "name": "_UsedTokensTransfered",
      "type": "event"
    },
    {
      "inputs": [
        {
          "internalType": "address",
          "name": "chairPerson",
          "type": "address"
        },
        {
          "internalType": "address",
          "name": "managerContractAddress",
          "type": "address"
        }
      ],
      "name": "StdPropositionBaseContract_init",
      "outputs": [],
      "stateMutability": "nonpayable",
      "type": "function"
    },
    {
      "inputs": [],
      "name": "cancelProposition",
      "outputs": [],
      "stateMutability": "nonpayable",
      "type": "function"
    },
    {
      "inputs": [
        {
          "internalType": "address",
          "name": "from",
          "type": "address"
        },
        {
          "internalType": "address",
          "name": "to",
          "type": "address"
        },
        {
          "internalType": "uint256",
          "name": "amount",
          "type": "uint256"
        }
      ],
      "name": "onTokenBalanceChanged",
      "outputs": [],
      "stateMutability": "nonpayable",
      "type": "function"
    },
    {
      "inputs": [],
      "name": "retrieveChairPerson",
      "outputs": [
        {
          "internalType": "address",
          "name": "",
          "type": "address"
        }
      ],
      "stateMutability": "view",
      "type": "function"
    },
    {
      "inputs": [],
      "name": "retrieveManagerContract",
      "outputs": [
        {
          "internalType": "address",
          "name": "",
          "type": "address"
        }
      ],
      "stateMutability": "view",
      "type": "function"
    },
    {
      "inputs": [],
      "name": "retrieveNextPropId",
      "outputs": [
        {
          "internalType": "uint256",
          "name": "",
          "type": "uint256"
        }
      ],
      "stateMutability": "view",
      "type": "function"
    },
    {
      "inputs": [],
      "name": "retrieveProposition",
      "outputs": [
        {
          "internalType": "bytes[]",
          "name": "",
          "type": "bytes[]"
        }
      ],
      "stateMutability": "view",
      "type": "function"
    },
    {
      "inputs": [],
      "name": "retrievePropositionStatus",
      "outputs": [
        {
          "internalType": "address",
          "name": "",
          "type": "address"
        },
        {
          "internalType": "uint256",
          "name": "",
          "type": "uint256"
        },
        {
          "internalType": "uint256",
          "name": "",
          "type": "uint256"
        },
        {
          "internalType": "uint256",
          "name": "",
          "type": "uint256"
        },
        {
          "internalType": "uint256",
          "name": "",
          "type": "uint256"
        }
      ],
      "stateMutability": "view",
      "type": "function"
    },
    {
      "inputs": [
        {
          "internalType": "uint256",
          "name": "PropId",
          "type": "uint256"
        },
        {
          "internalType": "address",
          "name": "voter",
          "type": "address"
        }
      ],
      "name": "retrieveVotesForVoter",
      "outputs": [
        {
          "internalType": "uint256",
          "name": "",
          "type": "uint256"
        }
      ],
      "stateMutability": "view",
      "type": "function"
    },
    {
      "inputs": [
        {
          "internalType": "bytes[]",
          "name": "NewValues",
          "type": "bytes[]"
        }
      ],
      "name": "sendProposition",
      "outputs": [],
      "stateMutability": "nonpayable",
      "type": "function"
    },
    {
      "inputs": [
        {
          "internalType": "bool",
          "name": "vote",
          "type": "bool"
        }
      ],
      "name": "voteProposition",
      "outputs": [],
      "stateMutability": "nonpayable",
      "type": "function"
    },
    {
      "inputs": [
        {
          "internalType": "address",
          "name": "managerContractAddress",
          "type": "address"
        },
        {
          "internalType": "address",
          "name": "chairPerson",
          "type": "address"
        },
        {
          "internalType": "address",
          "name": "tokenAddress",
          "type": "address"
        }
      ],
      "name": "Payments_init",
      "outputs": [],
      "stateMutability": "nonpayable",
      "type": "function"
    },
    {
      "inputs": [
        {
          "internalType": "address",
          "name": "sender",
          "type": "address"
        },
        {
          "internalType": "address",
          "name": "recipient",
          "type": "address"
        },
        {
          "internalType": "uint256",
          "name": "amount",
          "type": "uint256"
        },
        {
          "internalType": "uint256",
          "name": "MarketId",
          "type": "uint256"
        },
        {
          "internalType": "bytes",
          "name": "data",
          "type": "bytes"
        }
      ],
      "name": "TransferFrom",
      "outputs": [],
      "stateMutability": "nonpayable",
      "type": "function"
    },
    {
      "inputs": [
        {
          "internalType": "address",
          "name": "recipient",
          "type": "address"
        },
        {
          "internalType": "uint256",
          "name": "amount",
          "type": "uint256"
        },
        {
          "internalType": "uint256",
          "name": "MarketId",
          "type": "uint256"
        },
        {
          "internalType": "bytes",
          "name": "data",
          "type": "bytes"
        }
      ],
      "name": "Transfer",
      "outputs": [],
      "stateMutability": "nonpayable",
      "type": "function"
    },
    {
      "inputs": [
        {
          "internalType": "address",
          "name": "account",
          "type": "address"
        }
      ],
      "name": "BalanceOf",
      "outputs": [
        {
          "internalType": "uint256",
          "name": "",
          "type": "uint256"
        }
      ],
      "stateMutability": "view",
      "type": "function"
    },
    {
      "inputs": [],
      "name": "retrieveSettings",
      "outputs": [
        {
          "internalType": "address",
          "name": "",
          "type": "address"
        }
      ],
      "stateMutability": "view",
      "type": "function"
    }
  ],
  "bytecode": "0x608060405234801561001057600080fd5b5061299c806100206000396000f3fe608060405234801561001057600080fd5b50600436106100d05760003560e01c806304cc67a9146100d5578063255de497146100ec5780633c7df55d146101015780634044adb21461011457806355457ee91461014a578063585bf7fb146101525780635b362e8414610165578063840f6d171461018557806391f91671146101c6578063a93316f5146101d9578063b049473f146101ee578063b1fd2359146101ff578063d996788914610212578063db85bc4d14610225578063e15aa3a614610236578063f815611514610249575b600080fd5b6008545b6040519081526020015b60405180910390f35b6100ff6100fa3660046121a2565b61025c565b005b6100ff61010f3660046121ed565b6102ed565b6100d961012236600461253f565b60009182526009602090815260408084206001600160a01b0393909316845291905290205490565b6100ff610405565b6100ff6101603660046122a3565b6104df565b6000546201000090046001600160a01b03165b6040516100e391906125df565b600354600454600554600654600754604080516001600160a01b0390961686526020860194909452928401919091526060830152608082015260a0016100e3565b6100ff6101d43660046124ec565b61095b565b6101e1610968565b6040516100e39190612661565b600b546001600160a01b0316610178565b6100ff61020d366004612169565b610a41565b6100d961022036600461212f565b610abf565b6001546001600160a01b0316610178565b6100ff610244366004612435565b610b46565b6100ff61025736600461222e565b610bc0565b600054610100900460ff166102775760005460ff161561027b565b303b155b6102a05760405162461bcd60e51b81526004016102979061277e565b60405180910390fd5b600054610100900460ff161580156102c2576000805461ffff19166101011790555b6102cc8385610a41565b6102d58261104d565b80156102e7576000805461ff00191690555b50505050565b3373__Library_______________________________6337ea306382600060029054906101000a90046001600160a01b03166001600160a01b031663e220ad956040518163ffffffff1660e01b815260040160006040518083038186803b15801561035757600080fd5b505afa15801561036b573d6000803e3d6000fd5b505050506040513d6000823e601f3d908101601f191682016040526103939190810190612305565b6003815181106103a5576103a5612917565b60200260200101516040518363ffffffff1660e01b81526004016103ca9291906125f3565b60006040518083038186803b1580156103e257600080fd5b505af41580156103f6573d6000803e3d6000fd5b505050506102e784848461106f565b60016104108161108c565b6003546040516337ea306360e01b8152339173__Library_______________________________916337ea3063916104569185916001600160a01b0316906004016125f3565b60006040518083038186803b15801561046e57600080fd5b505af4158015610482573d6000803e3d6000fd5b5050505061048e611110565b61049661111a565b6003546002546040519081526001600160a01b03909116907f1fe8aec10c0a50fa765076161e08c1f961ced69594ff45cf7d559f593afe14799060200160405180910390a25050565b3382600060029054906101000a90046001600160a01b03166001600160a01b031663e220ad956040518163ffffffff1660e01b815260040160006040518083038186803b15801561052f57600080fd5b505afa158015610543573d6000803e3d6000fd5b505050506040513d6000823e601f3d908101601f1916820160405261056b9190810190612305565b60018151811061057d5761057d612917565b60200260200101516001600160a01b0316826001600160a01b031614806106585750600060029054906101000a90046001600160a01b03166001600160a01b031663e220ad956040518163ffffffff1660e01b815260040160006040518083038186803b1580156105ed57600080fd5b505afa158015610601573d6000803e3d6000fd5b505050506040513d6000823e601f3d908101601f191682016040526106299190810190612305565b60028151811061063b5761063b612917565b60200260200101516001600160a01b0316826001600160a01b0316145b806107175750600060029054906101000a90046001600160a01b03166001600160a01b031663e220ad956040518163ffffffff1660e01b815260040160006040518083038186803b1580156106ac57600080fd5b505afa1580156106c0573d6000803e3d6000fd5b505050506040513d6000823e601f3d908101601f191682016040526106e89190810190612305565b6005815181106106fa576106fa612917565b60200260200101516001600160a01b0316826001600160a01b0316145b8061072757506107278282611145565b6107435760405162461bcd60e51b8152600401610297906127cc565b600b546040516370a0823160e01b815286916001600160a01b0316906370a08231906107739030906004016125df565b60206040518083038186803b15801561078b57600080fd5b505afa15801561079f573d6000803e3d6000fd5b505050506040513d601f19601f820116820180604052508101906107c39190612526565b101561081d5760405162461bcd60e51b815260206004820152602360248201527f436f6e747261637420646f6573206e6f74206861766520656e6f7567682066756044820152626e647360e81b6064820152608401610297565b600b5460405163a9059cbb60e01b81526001600160a01b03888116600483015260248201889052600092169063a9059cbb90604401602060405180830381600087803b15801561086c57600080fd5b505af1158015610880573d6000803e3d6000fd5b505050506040513d601f19601f820116820180604052508101906108a49190612509565b90506001811515146108f05760405162461bcd60e51b81526020600482015260156024820152745472616e7366657220646964206e6f7420776f726b60581b6044820152606401610297565b604051630bc0a8fb60e21b81526001600160a01b03881690632f02a3ec906109209030908a908990600401612631565b600060405180830381600087803b15801561093a57600080fd5b505af115801561094e573d6000803e3d6000fd5b5050505050505050505050565b6109653382611289565b50565b6060600a805480602002602001604051908101604052809291908181526020016000905b82821015610a385783829060005260206000200180546109ab906128b1565b80601f01602080910402602001604051908101604052809291908181526020018280546109d7906128b1565b8015610a245780601f106109f957610100808354040283529160200191610a24565b820191906000526020600020905b815481529060010190602001808311610a0757829003601f168201915b50505050508152602001906001019061098c565b50505050905090565b600054610100900460ff16610a5c5760005460ff1615610a60565b303b155b610a7c5760405162461bcd60e51b81526004016102979061277e565b600054610100900460ff16158015610a9e576000805461ffff19166101011790555b610aa883836113a1565b8015610aba576000805461ff00191690555b505050565b600b546040516370a0823160e01b81526000916001600160a01b0316906370a0823190610af09085906004016125df565b60206040518083038186803b158015610b0857600080fd5b505afa158015610b1c573d6000803e3d6000fd5b505050506040513d601f19601f82011682018060405250810190610b409190612526565b92915050565b610b4f8161143d565b610b576115c2565b60005b8151811015610bbc57600a828281518110610b7757610b77612917565b60209081029190910181015182546001810184556000938452928290208151610ba99491909101929190910190611fb2565b5080610bb4816128e6565b915050610b5a565b5050565b3382600060029054906101000a90046001600160a01b03166001600160a01b031663e220ad956040518163ffffffff1660e01b815260040160006040518083038186803b158015610c1057600080fd5b505afa158015610c24573d6000803e3d6000fd5b505050506040513d6000823e601f3d908101601f19168201604052610c4c9190810190612305565b600181518110610c5e57610c5e612917565b60200260200101516001600160a01b0316826001600160a01b03161480610d395750600060029054906101000a90046001600160a01b03166001600160a01b031663e220ad956040518163ffffffff1660e01b815260040160006040518083038186803b158015610cce57600080fd5b505afa158015610ce2573d6000803e3d6000fd5b505050506040513d6000823e601f3d908101601f19168201604052610d0a9190810190612305565b600281518110610d1c57610d1c612917565b60200260200101516001600160a01b0316826001600160a01b0316145b80610df85750600060029054906101000a90046001600160a01b03166001600160a01b031663e220ad956040518163ffffffff1660e01b815260040160006040518083038186803b158015610d8d57600080fd5b505afa158015610da1573d6000803e3d6000fd5b505050506040513d6000823e601f3d908101601f19168201604052610dc99190810190612305565b600581518110610ddb57610ddb612917565b60200260200101516001600160a01b0316826001600160a01b0316145b80610e085750610e088282611145565b610e245760405162461bcd60e51b8152600401610297906127cc565b600b54604051636eb1769f60e11b815286916001600160a01b03169063dd62ed3e90610e56908b9030906004016125f3565b60206040518083038186803b158015610e6e57600080fd5b505afa158015610e82573d6000803e3d6000fd5b505050506040513d601f19601f82011682018060405250810190610ea69190612526565b1015610f095760405162461bcd60e51b815260206004820152602c60248201527f436f6e747261637420646f6573206e6f74206861766520656e6f75676820617060448201526b70726f7665642066756e647360a01b6064820152608401610297565b600b546040516323b872dd60e01b81526000916001600160a01b0316906323b872dd90610f3e908b908b908b9060040161260d565b602060405180830381600087803b158015610f5857600080fd5b505af1158015610f6c573d6000803e3d6000fd5b505050506040513d601f19601f82011682018060405250810190610f909190612509565b9050600181151514610fe15760405162461bcd60e51b815260206004820152601a6024820152795472616e736665722046726f6d20646964206e6f7420776f726b60301b6044820152606401610297565b604051630bc0a8fb60e21b81526001600160a01b03881690632f02a3ec90611011908b908a908990600401612631565b600060405180830381600087803b15801561102b57600080fd5b505af115801561103f573d6000803e3d6000fd5b505050505050505050505050565b600b80546001600160a01b0319166001600160a01b0392909216919091179055565b611077611911565b151560011415610aba57610aba83838361194b565b80156110d35761109a611911565b15156001146109655760405162461bcd60e51b8152602060048201526005602482015264454332352d60d81b6044820152606401610297565b6110db611911565b156109655760405162461bcd60e51b8152602060048201526005602482015264454332342d60d81b6044820152606401610297565b611118611aac565b565b60006002819055600380546001600160a01b0319169055600481905560058190556006819055600755565b600080600060029054906101000a90046001600160a01b03166001600160a01b031663e220ad956040518163ffffffff1660e01b815260040160006040518083038186803b15801561119657600080fd5b505afa1580156111aa573d6000803e3d6000fd5b505050506040513d6000823e601f3d908101601f191682016040526111d29190810190612305565b6001815181106111e4576111e4612917565b60200260200101519050806001600160a01b03166303231e5d846040518263ffffffff1660e01b815260040161121c91815260200190565b60206040518083038186803b15801561123457600080fd5b505afa158015611248573d6000803e3d6000fd5b505050506040513d601f19601f8201168201806040525081019061126c919061214c565b6001600160a01b0316846001600160a01b03161491505092915050565b60016112948161108c565b600254839060006112a58383611ab8565b9050600081116112df5760405162461bcd60e51b8152602060048201526005602482015264454332332d60d81b6044820152606401610297565b60006112f087600260000154611ab8565b9050851561131857806002600401600082825461130d9190612882565b909155506113339050565b806002600501600082825461132d9190612882565b90915550505b600254611341908883611af5565b60025460408051918252871515602083015281018290526001600160a01b038816907f50f654d58981575c05e369cb129aeacb01e1b036af429380242cfc5d1a4b743f9060600160405180910390a2611398611b31565b50505050505050565b600054610100900460ff166113bc5760005460ff16156113c0565b303b155b6113dc5760405162461bcd60e51b81526004016102979061277e565b600054610100900460ff161580156113fe576000805461ffff19166101011790555b61140782611c05565b600180546001600160a01b0319166001600160a01b03851617905560006008558015610aba576000805461ff0019169055505050565b73__AddressLibrary________________________63f4ce9ae873__Library_______________________________63caa8f5898460008151811061148457611484612917565b60200260200101516040518263ffffffff1660e01b81526004016114a891906126c3565b60006040518083038186803b1580156114c057600080fd5b505af41580156114d4573d6000803e3d6000fd5b505050506040513d6000823e601f3d908101601f191682016040526114fc91908101906123aa565b60008151811061150e5761150e612917565b60200260200101516040518263ffffffff1660e01b815260040161153491815260200190565b60206040518083038186803b15801561154c57600080fd5b505af4158015611560573d6000803e3d6000fd5b505050506040513d601f19601f82011682018060405250810190611584919061214c565b6001600160a01b038116610bbc5760405162461bcd60e51b8152602060048201526005602482015264454332312d60d81b6044820152606401610297565b60006115cd8161108c565b60015433906000906001600160a01b03168214156115ed57506001611723565b60006115f883611c99565b905060008060029054906101000a90046001600160a01b03166001600160a01b031663e220ad956040518163ffffffff1660e01b815260040160006040518083038186803b15801561164957600080fd5b505afa15801561165d573d6000803e3d6000fd5b505050506040513d6000823e601f3d908101601f191682016040526116859190810190612305565b60048151811061169757611697612917565b60200260200101516001600160a01b031663b049473f6040518163ffffffff1660e01b815260040160606040518083038186803b1580156116d757600080fd5b505afa1580156116eb573d6000803e3d6000fd5b505050506040513d601f19601f8201168201806040525081019061170f9190612564565b925050508082111561172057600192505b50505b60018115151461175d5760405162461bcd60e51b8152602060048201526005602482015264454332322d60d81b6044820152606401610297565b600080600060029054906101000a90046001600160a01b03166001600160a01b031663e220ad956040518163ffffffff1660e01b815260040160006040518083038186803b1580156117ae57600080fd5b505afa1580156117c2573d6000803e3d6000fd5b505050506040513d6000823e601f3d908101601f191682016040526117ea9190810190612305565b6004815181106117fc576117fc612917565b60200260200101516001600160a01b031663b049473f6040518163ffffffff1660e01b815260040160606040518083038186803b15801561183c57600080fd5b505afa158015611850573d6000803e3d6000fd5b505050506040513d601f19601f820116820180604052508101906118749190612564565b50600380546001600160a01b0319163317905590925090506118968242612882565b60045560058190556008805460028190559060006118b3836128e6565b90915550506003546002546004546005546040516001600160a01b03909416937f472501d19bf75639b2e316cd36f8568b0c3ab943b82a87de3c086c98c1929df9936119029390929091612819565b60405180910390a25050505050565b6004546000904210156119245750600190565b6003546001600160a01b0316156119455761193d611110565b61194561111a565b50600090565b6001600160a01b03831615801590611987575060025460009081526009602090815260408083206001600160a01b038716845290915290205415155b15610aba5760025460009081526009602090815260408083206001600160a01b038716845290915290205481908111156119e3575060025460009081526009602090815260408083206001600160a01b03871684529091529020545b60025460009081526009602090815260408083206001600160a01b038816845290915281208054839290611a1890849061289a565b90915550506001600160a01b03831615611a675760025460009081526009602090815260408083206001600160a01b038716845290915281208054839290611a61908490612882565b90915550505b6002546040517f65fbd5e5dd32bea4aeca85bd0be0abf0e489d655dee888a7510d43b06dda2dba90611a9e9087908790869061260d565b60405180910390a250505050565b611118600a6000612036565b60008181526009602090815260408083206001600160a01b0386168452909152812054611ae484611c99565b611aee919061289a565b9392505050565b60008381526009602090815260408083206001600160a01b038616845290915281208054839290611b27908490612882565b9091555050505050565b60055460065410611ba057611b44611d69565b611b4c61111a565b6003546002546006546007546040516001600160a01b03909416937f23ca0034cf5aad32571b4a492e9598ea8a490e1643a60970e3cdc6933b55e49f93611b969390929091612819565b60405180910390a2565b6005546007541061111857611bb3611110565b611bbb61111a565b6003546002546006546007546040516001600160a01b03909416937fa58eb6daa3c62c3f883973c4035e5bd3e81aa627c8379de068a7de42df122be293611b969390929091612819565b600054610100900460ff16611c205760005460ff1615611c24565b303b155b611c405760405162461bcd60e51b81526004016102979061277e565b600054610100900460ff16158015611c62576000805461ffff19166101011790555b6000805462010000600160b01b031916620100006001600160a01b038516021790558015610bbc576000805461ff00191690555050565b60008060029054906101000a90046001600160a01b03166001600160a01b031663e220ad956040518163ffffffff1660e01b815260040160006040518083038186803b158015611ce857600080fd5b505afa158015611cfc573d6000803e3d6000fd5b505050506040513d6000823e601f3d908101601f19168201604052611d249190810190612305565b600381518110611d3657611d36612917565b60200260200101516001600160a01b03166370a08231836040518263ffffffff1660e01b8152600401610af091906125df565b6111106000611d76611e63565b9050600073__AddressLibrary________________________63f4ce9ae883600081518110611da757611da7612917565b60200260200101516040518263ffffffff1660e01b8152600401611dcd91815260200190565b60206040518083038186803b158015611de557600080fd5b505af4158015611df9573d6000803e3d6000fd5b505050506040513d601f19601f82011682018060405250810190611e1d919061214c565b9050611e288161104d565b7f9975e4b1d49f76f8d43fbe1c1e9865fcdd07aa824519a42a28842df898b10ae681604051611e5791906125df565b60405180910390a15050565b600a546060906000906001600160401b03811115611e8357611e8361292d565b604051908082528060200260200182016040528015611eac578160200160208202803683370190505b50905060005b600a54811015611fac5773__Library_______________________________63caa8f589600a8381548110611ee957611ee9612917565b906000526020600020016040518263ffffffff1660e01b8152600401611f0f91906126d6565b60006040518083038186803b158015611f2757600080fd5b505af4158015611f3b573d6000803e3d6000fd5b505050506040513d6000823e601f3d908101601f19168201604052611f6391908101906123aa565b600081518110611f7557611f75612917565b6020026020010151828281518110611f8f57611f8f612917565b602090810291909101015280611fa4816128e6565b915050611eb2565b50919050565b828054611fbe906128b1565b90600052602060002090601f016020900481019282611fe05760008555612026565b82601f10611ff957805160ff1916838001178555612026565b82800160010185558215612026579182015b8281111561202657825182559160200191906001019061200b565b50612032929150612054565b5090565b50805460008255906000526020600020908101906109659190612069565b5b808211156120325760008155600101612055565b8082111561203257600061207d8282612086565b50600101612069565b508054612092906128b1565b6000825580601f106120a2575050565b601f0160209004906000526020600020908101906109659190612054565b600082601f8301126120d157600080fd5b81356001600160401b038111156120ea576120ea61292d565b6120fd601f8201601f191660200161282f565b81815284602083860101111561211257600080fd5b816020850160208301376000918101602001919091529392505050565b60006020828403121561214157600080fd5b8135611aee81612943565b60006020828403121561215e57600080fd5b8151611aee81612943565b6000806040838503121561217c57600080fd5b823561218781612943565b9150602083013561219781612943565b809150509250929050565b6000806000606084860312156121b757600080fd5b83356121c281612943565b925060208401356121d281612943565b915060408401356121e281612943565b809150509250925092565b60008060006060848603121561220257600080fd5b833561220d81612943565b9250602084013561221d81612943565b929592945050506040919091013590565b600080600080600060a0868803121561224657600080fd5b853561225181612943565b9450602086013561226181612943565b9350604086013592506060860135915060808601356001600160401b0381111561228a57600080fd5b612296888289016120c0565b9150509295509295909350565b600080600080608085870312156122b957600080fd5b84356122c481612943565b9350602085013592506040850135915060608501356001600160401b038111156122ed57600080fd5b6122f9878288016120c0565b91505092959194509250565b6000602080838503121561231857600080fd5b82516001600160401b0381111561232e57600080fd5b8301601f8101851361233f57600080fd5b805161235261234d8261285f565b61282f565b80828252848201915084840188868560051b870101111561237257600080fd5b600094505b8385101561239e57805161238a81612943565b835260019490940193918501918501612377565b50979650505050505050565b600060208083850312156123bd57600080fd5b82516001600160401b038111156123d357600080fd5b8301601f810185136123e457600080fd5b80516123f261234d8261285f565b80828252848201915084840188868560051b870101111561241257600080fd5b600094505b8385101561239e578051835260019490940193918501918501612417565b6000602080838503121561244857600080fd5b82356001600160401b038082111561245f57600080fd5b818501915085601f83011261247357600080fd5b813561248161234d8261285f565b80828252858201915085850189878560051b88010111156124a157600080fd5b6000805b858110156124dc578235878111156124bb578283fd5b6124c98d8b838c01016120c0565b86525093880193918801916001016124a5565b50919a9950505050505050505050565b6000602082840312156124fe57600080fd5b8135611aee81612958565b60006020828403121561251b57600080fd5b8151611aee81612958565b60006020828403121561253857600080fd5b5051919050565b6000806040838503121561255257600080fd5b82359150602083013561219781612943565b60008060006060848603121561257957600080fd5b8351925060208401519150604084015190509250925092565b6000815180845260005b818110156125b85760208185018101518683018201520161259c565b818111156125ca576000602083870101525b50601f01601f19169290920160200192915050565b6001600160a01b0391909116815260200190565b6001600160a01b0392831681529116602082015260400190565b6001600160a01b039384168152919092166020820152604081019190915260600190565b60018060a01b03841681528260208201526060604082015260006126586060830184612592565b95945050505050565b6000602080830181845280855180835260408601915060408160051b870101925083870160005b828110156126b657603f198886030184526126a4858351612592565b94509285019290850190600101612688565b5092979650505050505050565b602081526000611aee6020830184612592565b600060208083526000845481600182811c9150808316806126f857607f831692505b85831081141561271657634e487b7160e01b85526022600452602485fd5b87860183815260200181801561273357600181146127445761276f565b60ff1986168252878201965061276f565b60008b81526020902060005b8681101561276957815484820152908501908901612750565b83019750505b50949998505050505050505050565b6020808252602e908201527f496e697469616c697a61626c653a20636f6e747261637420697320616c72656160408201526d191e481a5b9a5d1a585b1a5e995960921b606082015260800190565b6020808252602d908201527f4974206973206e6f742066726f6d206f6e65206f66207468652063657274696660408201526c69656420636f6e74726163747360981b606082015260800190565b9283526020830191909152604082015260600190565b604051601f8201601f191681016001600160401b03811182821017156128575761285761292d565b604052919050565b60006001600160401b038211156128785761287861292d565b5060051b60200190565b6000821982111561289557612895612901565b500190565b6000828210156128ac576128ac612901565b500390565b600181811c908216806128c557607f821691505b60208210811415611fac57634e487b7160e01b600052602260045260246000fd5b60006000198214156128fa576128fa612901565b5060010190565b634e487b7160e01b600052601160045260246000fd5b634e487b7160e01b600052603260045260246000fd5b634e487b7160e01b600052604160045260246000fd5b6001600160a01b038116811461096557600080fd5b801515811461096557600080fdfea26469706673582212201062769d04eca88692b333747de9e449ef2cb6fd9eee24743628e227595eac7664736f6c63430008070033",
  "immutableReferences": {},
  "source": "// SPDX-License-Identifier: GPL-3.0\r\n\r\npragma solidity 0.8.7;\r\n\r\n/**\r\n * @title Storage\r\n * @dev Store & retrieve value in a variable\r\n */\r\n\r\nimport \"../Interfaces/IPayments.sol\";\r\nimport \"../Interfaces/IPool.sol\";\r\nimport \"../Interfaces/ICreditor.sol\";\r\nimport \"@openzeppelin/contracts/token/ERC20/IERC20.sol\";\r\nimport \"../Libraries/UintLibrary.sol\";\r\nimport \"../Base/StdPropositionBaseContract.sol\";\r\n\r\n\r\ncontract Payments is IPayments, StdPropositionBaseContract{\r\n    using UintLibrary for *;\r\n\r\n    // EVENTS /////////////////////////////////////////\r\n    event _NewAddress(address TokenAddress);\r\n\r\n    // DATA /////////////////////////////////////////\r\n    IERC20 internal _TokenContract;\r\n\r\n    // MODIFIERS /////////////////////////////////////////\r\n    modifier isAddressOK(address addr)\r\n    {\r\n        require(address(0) != addr, \"EC21-\");\r\n        _;\r\n    }\r\n\r\n    modifier isFromCertifiedContract(address addr, uint256 id)\r\n    {\r\n        require(\r\n            addr == _managerContract.retrieveTransparentProxies()[uint256(Library.TransparentProxies.PublicPool)] || \r\n            addr == _managerContract.retrieveTransparentProxies()[uint256(Library.TransparentProxies.Treasury)] || \r\n            addr == _managerContract.retrieveTransparentProxies()[uint256(Library.TransparentProxies.AdminPiggyBank)] || \r\n            isNFTMarket(addr, id) \r\n        , \"It is not from one of the certified contracts\");\r\n        _;\r\n    }\r\n\r\n    function isNFTMarket(address addr, uint256 id) internal view returns(bool)\r\n    {\r\n        IPool PublicPool = IPool(_managerContract.retrieveTransparentProxies()[uint256(Library.TransparentProxies.PublicPool)]);\r\n        return (addr == PublicPool.retrieveNFTMarketForIssuer(id));\r\n    }\r\n   \r\n    // CONSTRUCTOR /////////////////////////////////////////\r\n    function Payments_init(address managerContractAddress, address chairPerson, address tokenAddress) public initializer \r\n    {\r\n        super.StdPropositionBaseContract_init(chairPerson, managerContractAddress);\r\n        InternalupdateSettings(tokenAddress);\r\n    }\r\n\r\n    // GOVERNANCE /////////////////////////////////////////\r\n    function checkProposition(bytes[] memory NewValues) internal override \r\n        isAddressOK(AddressLibrary.Bytes32ToAddress(Library.BytestoBytes32(NewValues[0])[0]))\r\n    {}\r\n\r\n    function UpdateAll() internal override\r\n    {\r\n        bytes32[] memory ProposedNewValues = PropositionsToBytes32();\r\n        address NewAddress = AddressLibrary.Bytes32ToAddress(ProposedNewValues[0]);\r\n        InternalupdateSettings(NewAddress);\r\n        emit _NewAddress(NewAddress);\r\n    }\r\n\r\n    function InternalupdateSettings(address tokenAddress) internal\r\n    {\r\n        _TokenContract = IERC20(tokenAddress);\r\n    }\r\n\r\n    // FUNCTIONALITY /////////////////////////////////////////\r\n    function TransferFrom(address sender, address recipient, uint256 amount, uint256 MarketId, bytes memory data) external override\r\n        isFromCertifiedContract(msg.sender, MarketId)\r\n    {\r\n        require(_TokenContract.allowance(sender, address(this)) >= amount, \"Contract does not have enough approved funds\");\r\n        bool success = _TokenContract.transferFrom(sender, recipient, amount);\r\n        require(true == success, \"Transfer From did not work\");\r\n        ICreditor(recipient).CreditReceived(sender, amount, data);\r\n    }\r\n\r\n    function Transfer(address recipient, uint256 amount, uint256 MarketId, bytes memory data) external override\r\n        isFromCertifiedContract(msg.sender, MarketId)\r\n    {\r\n        require(_TokenContract.balanceOf(address(this)) >= amount, \"Contract does not have enough funds\");\r\n        bool success = _TokenContract.transfer(recipient, amount);\r\n        require(true == success, \"Transfer did not work\");\r\n        ICreditor(recipient).CreditReceived(address(this), amount, data);\r\n    }\r\n\r\n    function BalanceOf(address account) external override view returns(uint256)\r\n    {\r\n        return(_TokenContract.balanceOf(account));\r\n    }\r\n\r\n    function retrieveSettings() external override view returns(address)\r\n    {\r\n        return(address(_TokenContract));\r\n    }\r\n\r\n}",
  "sourcePath": "C:\\Users\\d-aam\\GitHub\\Originals\\contracts\\MainContracts\\Payments.sol",
  "compiler": {
    "name": "solc",
    "version": "0.8.7+commit.e28d00a7.Emscripten.clang"
  },
  "schemaVersion": "3.4.3",
  "updatedAt": "2022-02-17T07:59:37.705Z",
  "devdoc": {
    "kind": "dev",
    "methods": {},
    "version": 1
  },
  "userdoc": {
    "kind": "user",
    "methods": {},
    "version": 1
  }
}