{
  "contractName": "PropositionSettings",
  "abi": [
    {
      "anonymous": false,
      "inputs": [
        {
          "indexed": false,
          "internalType": "uint256",
          "name": "Id",
          "type": "uint256"
        },
        {
          "indexed": true,
          "internalType": "address",
          "name": "Proposer",
          "type": "address"
        },
        {
          "indexed": false,
          "internalType": "uint256",
          "name": "Deadline",
          "type": "uint256"
        },
        {
          "indexed": false,
          "internalType": "uint256",
          "name": "Threshold",
          "type": "uint256"
        }
      ],
      "name": "_AddedProposition",
      "type": "event"
    },
    {
      "anonymous": false,
      "inputs": [
        {
          "indexed": false,
          "internalType": "uint256",
          "name": "Id",
          "type": "uint256"
        },
        {
          "indexed": true,
          "internalType": "address",
          "name": "Proposer",
          "type": "address"
        }
      ],
      "name": "_CancelledProposition",
      "type": "event"
    },
    {
      "anonymous": false,
      "inputs": [
        {
          "indexed": false,
          "internalType": "uint256",
          "name": "LifeTime",
          "type": "uint256"
        },
        {
          "indexed": false,
          "internalType": "uint256",
          "name": "Threshold",
          "type": "uint256"
        },
        {
          "indexed": false,
          "internalType": "uint256",
          "name": "minToPropose",
          "type": "uint256"
        }
      ],
      "name": "_NewSettings",
      "type": "event"
    },
    {
      "anonymous": false,
      "inputs": [
        {
          "indexed": false,
          "internalType": "uint256",
          "name": "Id",
          "type": "uint256"
        },
        {
          "indexed": true,
          "internalType": "address",
          "name": "Proposer",
          "type": "address"
        },
        {
          "indexed": false,
          "internalType": "uint256",
          "name": "VotesFor",
          "type": "uint256"
        },
        {
          "indexed": false,
          "internalType": "uint256",
          "name": "VotesAgainst",
          "type": "uint256"
        }
      ],
      "name": "_PropositionApproved",
      "type": "event"
    },
    {
      "anonymous": false,
      "inputs": [
        {
          "indexed": false,
          "internalType": "uint256",
          "name": "Id",
          "type": "uint256"
        },
        {
          "indexed": true,
          "internalType": "address",
          "name": "Proposer",
          "type": "address"
        },
        {
          "indexed": false,
          "internalType": "uint256",
          "name": "VotesFor",
          "type": "uint256"
        },
        {
          "indexed": false,
          "internalType": "uint256",
          "name": "VotesAgainst",
          "type": "uint256"
        }
      ],
      "name": "_PropositionRejected",
      "type": "event"
    },
    {
      "anonymous": false,
      "inputs": [
        {
          "indexed": false,
          "internalType": "uint256",
          "name": "Id",
          "type": "uint256"
        },
        {
          "indexed": true,
          "internalType": "address",
          "name": "Voter",
          "type": "address"
        },
        {
          "indexed": false,
          "internalType": "bool",
          "name": "Vote",
          "type": "bool"
        },
        {
          "indexed": false,
          "internalType": "uint256",
          "name": "AmountTokens",
          "type": "uint256"
        }
      ],
      "name": "_PropositionVote",
      "type": "event"
    },
    {
      "anonymous": false,
      "inputs": [
        {
          "indexed": true,
          "internalType": "uint256",
          "name": "Id",
          "type": "uint256"
        },
        {
          "indexed": false,
          "internalType": "address",
          "name": "From",
          "type": "address"
        },
        {
          "indexed": false,
          "internalType": "address",
          "name": "To",
          "type": "address"
        },
        {
          "indexed": false,
          "internalType": "uint256",
          "name": "Amount",
          "type": "uint256"
        }
      ],
      "name": "_UsedTokensTransfered",
      "type": "event"
    },
    {
      "inputs": [
        {
          "internalType": "address",
          "name": "chairPerson",
          "type": "address"
        },
        {
          "internalType": "address",
          "name": "managerContractAddress",
          "type": "address"
        }
      ],
      "name": "StdPropositionBaseContract_init",
      "outputs": [],
      "stateMutability": "nonpayable",
      "type": "function"
    },
    {
      "inputs": [],
      "name": "cancelProposition",
      "outputs": [],
      "stateMutability": "nonpayable",
      "type": "function"
    },
    {
      "inputs": [
        {
          "internalType": "address",
          "name": "from",
          "type": "address"
        },
        {
          "internalType": "address",
          "name": "to",
          "type": "address"
        },
        {
          "internalType": "uint256",
          "name": "amount",
          "type": "uint256"
        }
      ],
      "name": "onTokenBalanceChanged",
      "outputs": [],
      "stateMutability": "nonpayable",
      "type": "function"
    },
    {
      "inputs": [],
      "name": "retrieveChairPerson",
      "outputs": [
        {
          "internalType": "address",
          "name": "",
          "type": "address"
        }
      ],
      "stateMutability": "view",
      "type": "function"
    },
    {
      "inputs": [],
      "name": "retrieveManagerContract",
      "outputs": [
        {
          "internalType": "address",
          "name": "",
          "type": "address"
        }
      ],
      "stateMutability": "view",
      "type": "function"
    },
    {
      "inputs": [],
      "name": "retrieveNextPropId",
      "outputs": [
        {
          "internalType": "uint256",
          "name": "",
          "type": "uint256"
        }
      ],
      "stateMutability": "view",
      "type": "function"
    },
    {
      "inputs": [],
      "name": "retrieveProposition",
      "outputs": [
        {
          "internalType": "bytes[]",
          "name": "",
          "type": "bytes[]"
        }
      ],
      "stateMutability": "view",
      "type": "function"
    },
    {
      "inputs": [],
      "name": "retrievePropositionStatus",
      "outputs": [
        {
          "internalType": "address",
          "name": "",
          "type": "address"
        },
        {
          "internalType": "uint256",
          "name": "",
          "type": "uint256"
        },
        {
          "internalType": "uint256",
          "name": "",
          "type": "uint256"
        },
        {
          "internalType": "uint256",
          "name": "",
          "type": "uint256"
        },
        {
          "internalType": "uint256",
          "name": "",
          "type": "uint256"
        }
      ],
      "stateMutability": "view",
      "type": "function"
    },
    {
      "inputs": [
        {
          "internalType": "uint256",
          "name": "PropId",
          "type": "uint256"
        },
        {
          "internalType": "address",
          "name": "voter",
          "type": "address"
        }
      ],
      "name": "retrieveVotesForVoter",
      "outputs": [
        {
          "internalType": "uint256",
          "name": "",
          "type": "uint256"
        }
      ],
      "stateMutability": "view",
      "type": "function"
    },
    {
      "inputs": [
        {
          "internalType": "bytes[]",
          "name": "NewValues",
          "type": "bytes[]"
        }
      ],
      "name": "sendProposition",
      "outputs": [],
      "stateMutability": "nonpayable",
      "type": "function"
    },
    {
      "inputs": [
        {
          "internalType": "bool",
          "name": "vote",
          "type": "bool"
        }
      ],
      "name": "voteProposition",
      "outputs": [],
      "stateMutability": "nonpayable",
      "type": "function"
    },
    {
      "inputs": [
        {
          "internalType": "address",
          "name": "managerContractAddress",
          "type": "address"
        },
        {
          "internalType": "address",
          "name": "chairPerson",
          "type": "address"
        },
        {
          "internalType": "uint256",
          "name": "PropositionLifeTime",
          "type": "uint256"
        },
        {
          "internalType": "uint256",
          "name": "PropositionThreshold",
          "type": "uint256"
        },
        {
          "internalType": "uint256",
          "name": "minToPropose",
          "type": "uint256"
        }
      ],
      "name": "PropositionSettings_init",
      "outputs": [],
      "stateMutability": "nonpayable",
      "type": "function"
    },
    {
      "inputs": [],
      "name": "retrieveSettings",
      "outputs": [
        {
          "internalType": "uint256",
          "name": "",
          "type": "uint256"
        },
        {
          "internalType": "uint256",
          "name": "",
          "type": "uint256"
        },
        {
          "internalType": "uint256",
          "name": "",
          "type": "uint256"
        }
      ],
      "stateMutability": "view",
      "type": "function"
    }
  ],
  "bytecode": "0x608060405234801561001057600080fd5b506120de806100206000396000f3fe608060405234801561001057600080fd5b50600436106100af5760003560e01c806304cc67a9146100b45780633c7df55d146100cb5780634044adb2146100e0578063460c2b901461011657806355457ee9146101295780635b362e8414610131578063840f6d171461015157806391f9167114610192578063a93316f5146101a5578063b049473f146101ba578063b1fd2359146101d2578063db85bc4d146101e5578063e15aa3a6146101f6575b600080fd5b6008545b6040519081526020015b60405180910390f35b6100de6100d9366004611a0a565b610209565b005b6100b86100ee366004611d11565b60009182526009602090815260408084206001600160a01b0393909316845291905290205490565b6100de610124366004611a4b565b610327565b6100de6103cf565b6000546201000090046001600160a01b03165b6040516100c29190611db1565b600354600454600554600654600754604080516001600160a01b0390961686526020860194909452928401919091526060830152608082015260a0016100c2565b6100de6101a0366004611cd6565b6104a9565b6101ad6104b6565b6040516100c29190611ddf565b600b54600c54600d546040516100c293929190611f69565b6100de6101e03660046119d1565b61058f565b6001546001600160a01b0316610144565b6100de610204366004611bcc565b61060d565b3373__Library_______________________________6337ea306382600060029054906101000a90046001600160a01b03166001600160a01b031663e220ad956040518163ffffffff1660e01b815260040160006040518083038186803b15801561027357600080fd5b505afa158015610287573d6000803e3d6000fd5b505050506040513d6000823e601f3d908101601f191682016040526102af9190810190611a9c565b6003815181106102c1576102c1612067565b60200260200101516040518363ffffffff1660e01b81526004016102e6929190611dc5565b60006040518083038186803b1580156102fe57600080fd5b505af4158015610312573d6000803e3d6000fd5b50505050610321848484610687565b50505050565b600054610100900460ff166103425760005460ff1615610346565b303b155b61036b5760405162461bcd60e51b815260040161036290611f1b565b60405180910390fd5b600054610100900460ff1615801561038d576000805461ffff19166101011790555b610397858761058f565b6103a183836106a4565b6103b5848484600b92909255600c55600d55565b80156103c7576000805461ff00191690555b505050505050565b60016103da816106f2565b6003546040516337ea306360e01b8152339173__Library_______________________________916337ea3063916104209185916001600160a01b031690600401611dc5565b60006040518083038186803b15801561043857600080fd5b505af415801561044c573d6000803e3d6000fd5b50505050610458610776565b610460610780565b6003546002546040519081526001600160a01b03909116907f1fe8aec10c0a50fa765076161e08c1f961ced69594ff45cf7d559f593afe14799060200160405180910390a25050565b6104b333826107ab565b50565b6060600a805480602002602001604051908101604052809291908181526020016000905b828210156105865783829060005260206000200180546104f990612001565b80601f016020809104026020016040519081016040528092919081815260200182805461052590612001565b80156105725780601f1061054757610100808354040283529160200191610572565b820191906000526020600020905b81548152906001019060200180831161055557829003601f168201915b5050505050815260200190600101906104da565b50505050905090565b600054610100900460ff166105aa5760005460ff16156105ae565b303b155b6105ca5760405162461bcd60e51b815260040161036290611f1b565b600054610100900460ff161580156105ec576000805461ffff19166101011790555b6105f683836108c3565b8015610608576000805461ff00191690555b505050565b6106168161095f565b61061e610bf5565b60005b815181101561068357600a82828151811061063e5761063e612067565b6020908102919091018101518254600181018455600093845292829020815161067094919091019291909101906118c3565b508061067b81612036565b915050610621565b5050565b61068f610f44565b15156001141561060857610608838383610f7e565b816106ad6110ee565b10156106cb5760405162461bcd60e51b815260040161036290611efc565b806106d46110ee565b10156106835760405162461bcd60e51b815260040161036290611efc565b801561073957610700610f44565b15156001146104b35760405162461bcd60e51b8152602060048201526005602482015264454332352d60d81b6044820152606401610362565b610741610f44565b156104b35760405162461bcd60e51b8152602060048201526005602482015264454332342d60d81b6044820152606401610362565b61077e611208565b565b60006002819055600380546001600160a01b0319169055600481905560058190556006819055600755565b60016107b6816106f2565b600254839060006107c78383611214565b9050600081116108015760405162461bcd60e51b8152602060048201526005602482015264454332332d60d81b6044820152606401610362565b600061081287600260000154611214565b9050851561083a57806002600401600082825461082f9190611fd2565b909155506108559050565b806002600501600082825461084f9190611fd2565b90915550505b600254610863908883611251565b60025460408051918252871515602083015281018290526001600160a01b038816907f50f654d58981575c05e369cb129aeacb01e1b036af429380242cfc5d1a4b743f9060600160405180910390a26108ba61128d565b50505050505050565b600054610100900460ff166108de5760005460ff16156108e2565b303b155b6108fe5760405162461bcd60e51b815260040161036290611f1b565b600054610100900460ff16158015610920576000805461ffff19166101011790555b61092982611361565b600180546001600160a01b0319166001600160a01b03851617905560006008558015610608576000805461ff0019169055505050565b6104b373__UintLibrary___________________________630bd4715e73__Library_______________________________63caa8f589856001815181106109a9576109a9612067565b60200260200101516040518263ffffffff1660e01b81526004016109cd9190611e41565b60006040518083038186803b1580156109e557600080fd5b505af41580156109f9573d6000803e3d6000fd5b505050506040513d6000823e601f3d908101601f19168201604052610a219190810190611b41565b600081518110610a3357610a33612067565b60200260200101516040518263ffffffff1660e01b8152600401610a5991815260200190565b60206040518083038186803b158015610a7157600080fd5b505af4158015610a85573d6000803e3d6000fd5b505050506040513d601f19601f82011682018060405250810190610aa99190611cf8565b73__UintLibrary___________________________630bd4715e73__Library_______________________________63caa8f58986600281518110610af057610af0612067565b60200260200101516040518263ffffffff1660e01b8152600401610b149190611e41565b60006040518083038186803b158015610b2c57600080fd5b505af4158015610b40573d6000803e3d6000fd5b505050506040513d6000823e601f3d908101601f19168201604052610b689190810190611b41565b600081518110610b7a57610b7a612067565b60200260200101516040518263ffffffff1660e01b8152600401610ba091815260200190565b60206040518083038186803b158015610bb857600080fd5b505af4158015610bcc573d6000803e3d6000fd5b505050506040513d601f19601f82011682018060405250810190610bf09190611cf8565b6106a4565b6000610c00816106f2565b60015433906000906001600160a01b0316821415610c2057506001610d56565b6000610c2b836113f5565b905060008060029054906101000a90046001600160a01b03166001600160a01b031663e220ad956040518163ffffffff1660e01b815260040160006040518083038186803b158015610c7c57600080fd5b505afa158015610c90573d6000803e3d6000fd5b505050506040513d6000823e601f3d908101601f19168201604052610cb89190810190611a9c565b600481518110610cca57610cca612067565b60200260200101516001600160a01b031663b049473f6040518163ffffffff1660e01b815260040160606040518083038186803b158015610d0a57600080fd5b505afa158015610d1e573d6000803e3d6000fd5b505050506040513d601f19601f82011682018060405250810190610d429190611d36565b9250505080821115610d5357600192505b50505b600181151514610d905760405162461bcd60e51b8152602060048201526005602482015264454332322d60d81b6044820152606401610362565b600080600060029054906101000a90046001600160a01b03166001600160a01b031663e220ad956040518163ffffffff1660e01b815260040160006040518083038186803b158015610de157600080fd5b505afa158015610df5573d6000803e3d6000fd5b505050506040513d6000823e601f3d908101601f19168201604052610e1d9190810190611a9c565b600481518110610e2f57610e2f612067565b60200260200101516001600160a01b031663b049473f6040518163ffffffff1660e01b815260040160606040518083038186803b158015610e6f57600080fd5b505afa158015610e83573d6000803e3d6000fd5b505050506040513d601f19601f82011682018060405250810190610ea79190611d36565b50600380546001600160a01b031916331790559092509050610ec98242611fd2565b6004556005819055600880546002819055906000610ee683612036565b90915550506003546002546004546005546040516001600160a01b03909416937f472501d19bf75639b2e316cd36f8568b0c3ab943b82a87de3c086c98c1929df993610f359390929091611f69565b60405180910390a25050505050565b600454600090421015610f575750600190565b6003546001600160a01b031615610f7857610f70610776565b610f78610780565b50600090565b6001600160a01b03831615801590610fba575060025460009081526009602090815260408083206001600160a01b038716845290915290205415155b156106085760025460009081526009602090815260408083206001600160a01b03871684529091529020548190811115611016575060025460009081526009602090815260408083206001600160a01b03871684529091529020545b60025460009081526009602090815260408083206001600160a01b03881684529091528120805483929061104b908490611fea565b90915550506001600160a01b0383161561109a5760025460009081526009602090815260408083206001600160a01b038716845290915281208054839290611094908490611fd2565b90915550505b600254604080516001600160a01b038088168252861660208201529081018390527f65fbd5e5dd32bea4aeca85bd0be0abf0e489d655dee888a7510d43b06dda2dba9060600160405180910390a250505050565b60008060029054906101000a90046001600160a01b03166001600160a01b031663e220ad956040518163ffffffff1660e01b815260040160006040518083038186803b15801561113d57600080fd5b505afa158015611151573d6000803e3d6000fd5b505050506040513d6000823e601f3d908101601f191682016040526111799190810190611a9c565b60038151811061118b5761118b612067565b60200260200101516001600160a01b03166318160ddd6040518163ffffffff1660e01b815260040160206040518083038186803b1580156111cb57600080fd5b505afa1580156111df573d6000803e3d6000fd5b505050506040513d601f19601f820116820180604052508101906112039190611cf8565b905090565b61077e600a6000611947565b60008181526009602090815260408083206001600160a01b0386168452909152812054611240846113f5565b61124a9190611fea565b9392505050565b60008381526009602090815260408083206001600160a01b038616845290915281208054839290611283908490611fd2565b9091555050505050565b600554600654106112fc576112a061151b565b6112a8610780565b6003546002546006546007546040516001600160a01b03909416937f23ca0034cf5aad32571b4a492e9598ea8a490e1643a60970e3cdc6933b55e49f936112f29390929091611f69565b60405180910390a2565b6005546007541061077e5761130f610776565b611317610780565b6003546002546006546007546040516001600160a01b03909416937fa58eb6daa3c62c3f883973c4035e5bd3e81aa627c8379de068a7de42df122be2936112f29390929091611f69565b600054610100900460ff1661137c5760005460ff1615611380565b303b155b61139c5760405162461bcd60e51b815260040161036290611f1b565b600054610100900460ff161580156113be576000805461ffff19166101011790555b6000805462010000600160b01b031916620100006001600160a01b038516021790558015610683576000805461ff00191690555050565b60008060029054906101000a90046001600160a01b03166001600160a01b031663e220ad956040518163ffffffff1660e01b815260040160006040518083038186803b15801561144457600080fd5b505afa158015611458573d6000803e3d6000fd5b505050506040513d6000823e601f3d908101601f191682016040526114809190810190611a9c565b60038151811061149257611492612067565b60200260200101516001600160a01b03166370a08231836040518263ffffffff1660e01b81526004016114c59190611db1565b60206040518083038186803b1580156114dd57600080fd5b505afa1580156114f1573d6000803e3d6000fd5b505050506040513d601f19601f820116820180604052508101906115159190611cf8565b92915050565b6107766000611528611774565b9050600073__UintLibrary___________________________630bd4715e8360008151811061155957611559612067565b60200260200101516040518263ffffffff1660e01b815260040161157f91815260200190565b60206040518083038186803b15801561159757600080fd5b505af41580156115ab573d6000803e3d6000fd5b505050506040513d601f19601f820116820180604052508101906115cf9190611cf8565b9050600073__UintLibrary___________________________630bd4715e8460018151811061160057611600612067565b60200260200101516040518263ffffffff1660e01b815260040161162691815260200190565b60206040518083038186803b15801561163e57600080fd5b505af4158015611652573d6000803e3d6000fd5b505050506040513d601f19601f820116820180604052508101906116769190611cf8565b9050600073__UintLibrary___________________________630bd4715e856002815181106116a7576116a7612067565b60200260200101516040518263ffffffff1660e01b81526004016116cd91815260200190565b60206040518083038186803b1580156116e557600080fd5b505af41580156116f9573d6000803e3d6000fd5b505050506040513d601f19601f8201168201806040525081019061171d9190611cf8565b9050611733838383600b92909255600c55600d55565b7f5f142d19236803d18232d4e49383b84c9ce931aa90200b80fb6b2c22ef1c0b1d83838360405161176693929190611f69565b60405180910390a150505050565b600a546060906000906001600160401b038111156117945761179461207d565b6040519080825280602002602001820160405280156117bd578160200160208202803683370190505b50905060005b600a548110156118bd5773__Library_______________________________63caa8f589600a83815481106117fa576117fa612067565b906000526020600020016040518263ffffffff1660e01b81526004016118209190611e54565b60006040518083038186803b15801561183857600080fd5b505af415801561184c573d6000803e3d6000fd5b505050506040513d6000823e601f3d908101601f191682016040526118749190810190611b41565b60008151811061188657611886612067565b60200260200101518282815181106118a0576118a0612067565b6020908102919091010152806118b581612036565b9150506117c3565b50919050565b8280546118cf90612001565b90600052602060002090601f0160209004810192826118f15760008555611937565b82601f1061190a57805160ff1916838001178555611937565b82800160010185558215611937579182015b8281111561193757825182559160200191906001019061191c565b50611943929150611965565b5090565b50805460008255906000526020600020908101906104b3919061197a565b5b808211156119435760008155600101611966565b8082111561194357600061198e8282611997565b5060010161197a565b5080546119a390612001565b6000825580601f106119b3575050565b601f0160209004906000526020600020908101906104b39190611965565b600080604083850312156119e457600080fd5b82356119ef81612093565b915060208301356119ff81612093565b809150509250929050565b600080600060608486031215611a1f57600080fd5b8335611a2a81612093565b92506020840135611a3a81612093565b929592945050506040919091013590565b600080600080600060a08688031215611a6357600080fd5b8535611a6e81612093565b94506020860135611a7e81612093565b94979496505050506040830135926060810135926080909101359150565b60006020808385031215611aaf57600080fd5b82516001600160401b03811115611ac557600080fd5b8301601f81018513611ad657600080fd5b8051611ae9611ae482611faf565b611f7f565b80828252848201915084840188868560051b8701011115611b0957600080fd5b600094505b83851015611b35578051611b2181612093565b835260019490940193918501918501611b0e565b50979650505050505050565b60006020808385031215611b5457600080fd5b82516001600160401b03811115611b6a57600080fd5b8301601f81018513611b7b57600080fd5b8051611b89611ae482611faf565b80828252848201915084840188868560051b8701011115611ba957600080fd5b600094505b83851015611b35578051835260019490940193918501918501611bae565b60006020808385031215611bdf57600080fd5b82356001600160401b0380821115611bf657600080fd5b8185019150601f8681840112611c0b57600080fd5b8235611c19611ae482611faf565b8082825286820191508686018a888560051b8901011115611c3957600080fd5b60005b84811015611cc657813587811115611c5357600080fd5b8801603f81018d13611c6457600080fd5b89810135604089821115611c7a57611c7a61207d565b611c8b828a01601f19168d01611f7f565b8281528f82848601011115611c9f57600080fd5b828285018e83013760009281018d0192909252508552509288019290880190600101611c3c565b50909a9950505050505050505050565b600060208284031215611ce857600080fd5b8135801515811461124a57600080fd5b600060208284031215611d0a57600080fd5b5051919050565b60008060408385031215611d2457600080fd5b8235915060208301356119ff81612093565b600080600060608486031215611d4b57600080fd5b8351925060208401519150604084015190509250925092565b6000815180845260005b81811015611d8a57602081850181015186830182015201611d6e565b81811115611d9c576000602083870101525b50601f01601f19169290920160200192915050565b6001600160a01b0391909116815260200190565b6001600160a01b0392831681529116602082015260400190565b6000602080830181845280855180835260408601915060408160051b870101925083870160005b82811015611e3457603f19888603018452611e22858351611d64565b94509285019290850190600101611e06565b5092979650505050505050565b60208152600061124a6020830184611d64565b600060208083526000845481600182811c915080831680611e7657607f831692505b858310811415611e9457634e487b7160e01b85526022600452602485fd5b878601838152602001818015611eb15760018114611ec257611eed565b60ff19861682528782019650611eed565b60008b81526020902060005b86811015611ee757815484820152908501908901611ece565b83019750505b50949998505050505050505050565b602080825260059082015264454332312d60d81b604082015260600190565b6020808252602e908201527f496e697469616c697a61626c653a20636f6e747261637420697320616c72656160408201526d191e481a5b9a5d1a585b1a5e995960921b606082015260800190565b9283526020830191909152604082015260600190565b604051601f8201601f191681016001600160401b0381118282101715611fa757611fa761207d565b604052919050565b60006001600160401b03821115611fc857611fc861207d565b5060051b60200190565b60008219821115611fe557611fe5612051565b500190565b600082821015611ffc57611ffc612051565b500390565b600181811c9082168061201557607f821691505b602082108114156118bd57634e487b7160e01b600052602260045260246000fd5b600060001982141561204a5761204a612051565b5060010190565b634e487b7160e01b600052601160045260246000fd5b634e487b7160e01b600052603260045260246000fd5b634e487b7160e01b600052604160045260246000fd5b6001600160a01b03811681146104b357600080fdfea264697066735822122087710e3fd91f6282821ff3ab9ce275c115a10bbfba1379bedcd61eed973d7f4e64736f6c63430008070033",
  "immutableReferences": {},
  "source": "// SPDX-License-Identifier: GPL-3.0\r\n\r\npragma solidity 0.8.7;\r\n\r\n/**\r\n  Events : \r\n    - New Settings Added : list of settings\r\n */\r\n\r\nimport \"../Interfaces/IPropositionSettings.sol\";\r\nimport \"../Libraries/UintLibrary.sol\";\r\nimport \"../Base/StdPropositionBaseContract.sol\";\r\n\r\ncontract PropositionSettings is IPropositionSettings, StdPropositionBaseContract{\r\n    using UintLibrary for *;\r\n\r\n    // EVENTS /////////////////////////////////////////\r\n    event _NewSettings(uint256 LifeTime, uint256 Threshold, uint256 minToPropose);\r\n\r\n    // DATA /////////////////////////////////////////\r\n    uint256 internal _LifeTime;\r\n    uint256 internal _Threshold;\r\n    uint256 internal _minToPropose;\r\n\r\n    // MODIFIERS /////////////////////////////////////////\r\n    function areSettingsOKFunc(uint256 PropositionThreshold, uint256 minToPropose) internal view{\r\n        require(totalSupply() >= PropositionThreshold, \"EC21-\");\r\n        require(totalSupply() >= minToPropose, \"EC21-\");\r\n    }\r\n    \r\n    // CONSTRUCTOR /////////////////////////////////////////\r\n    function PropositionSettings_init(address managerContractAddress, address chairPerson, uint256 PropositionLifeTime, uint256 PropositionThreshold, uint256 minToPropose) public initializer \r\n    {\r\n        super.StdPropositionBaseContract_init(chairPerson, managerContractAddress);\r\n        areSettingsOKFunc(PropositionThreshold, minToPropose);\r\n        InternalupdateSettings(PropositionLifeTime, PropositionThreshold, minToPropose);\r\n    }\r\n\r\n    // GOVERNANCE /////////////////////////////////////////\r\n    function checkProposition(bytes[] memory NewValues) internal override view \r\n    {\r\n        areSettingsOKFunc(UintLibrary.Bytes32ToUint(Library.BytestoBytes32(NewValues[1])[0]), UintLibrary.Bytes32ToUint(Library.BytestoBytes32(NewValues[2])[0]));\r\n    }\r\n\r\n    function UpdateAll() internal override\r\n    {\r\n        bytes32[] memory ProposedNewValues = PropositionsToBytes32();\r\n\r\n        uint256 PropositionLifeTime = UintLibrary.Bytes32ToUint(ProposedNewValues[0]);\r\n        uint256 PropositionThreshold = UintLibrary.Bytes32ToUint(ProposedNewValues[1]);\r\n        uint256 minToPropose = UintLibrary.Bytes32ToUint(ProposedNewValues[2]);\r\n\r\n        InternalupdateSettings(PropositionLifeTime, PropositionThreshold, minToPropose);\r\n\r\n        emit _NewSettings(PropositionLifeTime, PropositionThreshold, minToPropose);\r\n    }\r\n\r\n    function InternalupdateSettings(uint256 PropLifeTime, uint256 PropThreshold, uint256 minToProp) internal\r\n    {\r\n        _LifeTime = PropLifeTime;\r\n        _Threshold = PropThreshold;\r\n        _minToPropose = minToProp;\r\n    }\r\n\r\n    // FUNCTIONALITY /////////////////////////////////////////\r\n    function retrieveSettings() external override view returns(uint256, uint256, uint256)\r\n    {\r\n        return(_LifeTime, _Threshold, _minToPropose);\r\n    }\r\n\r\n\r\n}",
  "sourcePath": "C:\\Users\\d-aam\\GitHub\\Originals\\contracts\\MainContracts\\PropositionSettings.sol",
  "compiler": {
    "name": "solc",
    "version": "0.8.7+commit.e28d00a7.Emscripten.clang"
  },
  "schemaVersion": "3.4.3",
  "updatedAt": "2022-01-25T13:35:48.541Z",
  "devdoc": {
    "kind": "dev",
    "methods": {},
    "version": 1
  },
  "userdoc": {
    "kind": "user",
    "methods": {},
    "version": 1
  }
}