{
  "contractName": "PropositionSettings",
  "abi": [
    {
      "anonymous": false,
      "inputs": [
        {
          "indexed": false,
          "internalType": "uint256",
          "name": "Id",
          "type": "uint256"
        },
        {
          "indexed": true,
          "internalType": "address",
          "name": "Proposer",
          "type": "address"
        },
        {
          "indexed": false,
          "internalType": "uint256",
          "name": "Deadline",
          "type": "uint256"
        },
        {
          "indexed": false,
          "internalType": "uint256",
          "name": "Threshold",
          "type": "uint256"
        }
      ],
      "name": "_AddedProposition",
      "type": "event"
    },
    {
      "anonymous": false,
      "inputs": [
        {
          "indexed": false,
          "internalType": "uint256",
          "name": "Id",
          "type": "uint256"
        },
        {
          "indexed": true,
          "internalType": "address",
          "name": "Proposer",
          "type": "address"
        }
      ],
      "name": "_CancelledProposition",
      "type": "event"
    },
    {
      "anonymous": false,
      "inputs": [
        {
          "indexed": false,
          "internalType": "uint256",
          "name": "LifeTime",
          "type": "uint256"
        },
        {
          "indexed": false,
          "internalType": "uint256",
          "name": "Threshold",
          "type": "uint256"
        },
        {
          "indexed": false,
          "internalType": "uint256",
          "name": "minToPropose",
          "type": "uint256"
        }
      ],
      "name": "_NewSettings",
      "type": "event"
    },
    {
      "anonymous": false,
      "inputs": [
        {
          "indexed": false,
          "internalType": "uint256",
          "name": "Id",
          "type": "uint256"
        },
        {
          "indexed": true,
          "internalType": "address",
          "name": "Proposer",
          "type": "address"
        },
        {
          "indexed": false,
          "internalType": "uint256",
          "name": "VotesFor",
          "type": "uint256"
        },
        {
          "indexed": false,
          "internalType": "uint256",
          "name": "VotesAgainst",
          "type": "uint256"
        }
      ],
      "name": "_PropositionApproved",
      "type": "event"
    },
    {
      "anonymous": false,
      "inputs": [
        {
          "indexed": false,
          "internalType": "uint256",
          "name": "Id",
          "type": "uint256"
        },
        {
          "indexed": true,
          "internalType": "address",
          "name": "Proposer",
          "type": "address"
        },
        {
          "indexed": false,
          "internalType": "uint256",
          "name": "VotesFor",
          "type": "uint256"
        },
        {
          "indexed": false,
          "internalType": "uint256",
          "name": "VotesAgainst",
          "type": "uint256"
        }
      ],
      "name": "_PropositionRejected",
      "type": "event"
    },
    {
      "anonymous": false,
      "inputs": [
        {
          "indexed": false,
          "internalType": "uint256",
          "name": "Id",
          "type": "uint256"
        },
        {
          "indexed": true,
          "internalType": "address",
          "name": "Voter",
          "type": "address"
        },
        {
          "indexed": false,
          "internalType": "bool",
          "name": "Vote",
          "type": "bool"
        },
        {
          "indexed": false,
          "internalType": "uint256",
          "name": "AmountTokens",
          "type": "uint256"
        }
      ],
      "name": "_PropositionVote",
      "type": "event"
    },
    {
      "anonymous": false,
      "inputs": [
        {
          "indexed": true,
          "internalType": "uint256",
          "name": "Id",
          "type": "uint256"
        },
        {
          "indexed": false,
          "internalType": "address",
          "name": "From",
          "type": "address"
        },
        {
          "indexed": false,
          "internalType": "address",
          "name": "To",
          "type": "address"
        },
        {
          "indexed": false,
          "internalType": "uint256",
          "name": "Amount",
          "type": "uint256"
        }
      ],
      "name": "_UsedTokensTransfered",
      "type": "event"
    },
    {
      "inputs": [
        {
          "internalType": "address",
          "name": "chairPerson",
          "type": "address"
        },
        {
          "internalType": "address",
          "name": "managerContractAddress",
          "type": "address"
        },
        {
          "internalType": "string",
          "name": "contractName",
          "type": "string"
        },
        {
          "internalType": "string",
          "name": "contractVersion",
          "type": "string"
        }
      ],
      "name": "StdPropositionBaseContract_init",
      "outputs": [],
      "stateMutability": "nonpayable",
      "type": "function"
    },
    {
      "inputs": [],
      "name": "cancelProposition",
      "outputs": [],
      "stateMutability": "nonpayable",
      "type": "function"
    },
    {
      "inputs": [
        {
          "internalType": "address",
          "name": "from",
          "type": "address"
        },
        {
          "internalType": "address",
          "name": "to",
          "type": "address"
        },
        {
          "internalType": "uint256",
          "name": "amount",
          "type": "uint256"
        }
      ],
      "name": "onTokenBalanceChanged",
      "outputs": [],
      "stateMutability": "nonpayable",
      "type": "function"
    },
    {
      "inputs": [],
      "name": "retrieveChairPerson",
      "outputs": [
        {
          "internalType": "address",
          "name": "",
          "type": "address"
        }
      ],
      "stateMutability": "view",
      "type": "function"
    },
    {
      "inputs": [],
      "name": "retrieveManagerContract",
      "outputs": [
        {
          "internalType": "address",
          "name": "",
          "type": "address"
        }
      ],
      "stateMutability": "view",
      "type": "function"
    },
    {
      "inputs": [],
      "name": "retrieveNextPropId",
      "outputs": [
        {
          "internalType": "uint256",
          "name": "",
          "type": "uint256"
        }
      ],
      "stateMutability": "view",
      "type": "function"
    },
    {
      "inputs": [],
      "name": "retrieveProposition",
      "outputs": [
        {
          "internalType": "bytes[]",
          "name": "",
          "type": "bytes[]"
        }
      ],
      "stateMutability": "view",
      "type": "function"
    },
    {
      "inputs": [],
      "name": "retrievePropositionStatus",
      "outputs": [
        {
          "internalType": "address",
          "name": "",
          "type": "address"
        },
        {
          "internalType": "uint256",
          "name": "",
          "type": "uint256"
        },
        {
          "internalType": "uint256",
          "name": "",
          "type": "uint256"
        },
        {
          "internalType": "uint256",
          "name": "",
          "type": "uint256"
        },
        {
          "internalType": "uint256",
          "name": "",
          "type": "uint256"
        }
      ],
      "stateMutability": "view",
      "type": "function"
    },
    {
      "inputs": [
        {
          "internalType": "uint256",
          "name": "PropId",
          "type": "uint256"
        },
        {
          "internalType": "address",
          "name": "voter",
          "type": "address"
        }
      ],
      "name": "retrieveVotesForVoter",
      "outputs": [
        {
          "internalType": "uint256",
          "name": "",
          "type": "uint256"
        }
      ],
      "stateMutability": "view",
      "type": "function"
    },
    {
      "inputs": [
        {
          "internalType": "bytes[]",
          "name": "NewValues",
          "type": "bytes[]"
        }
      ],
      "name": "sendProposition",
      "outputs": [],
      "stateMutability": "nonpayable",
      "type": "function"
    },
    {
      "inputs": [
        {
          "internalType": "bool",
          "name": "vote",
          "type": "bool"
        }
      ],
      "name": "voteProposition",
      "outputs": [],
      "stateMutability": "nonpayable",
      "type": "function"
    },
    {
      "inputs": [
        {
          "internalType": "address",
          "name": "managerContractAddress",
          "type": "address"
        },
        {
          "internalType": "address",
          "name": "chairPerson",
          "type": "address"
        },
        {
          "internalType": "uint256",
          "name": "PropositionLifeTime",
          "type": "uint256"
        },
        {
          "internalType": "uint256",
          "name": "PropositionThreshold",
          "type": "uint256"
        },
        {
          "internalType": "uint256",
          "name": "minToPropose",
          "type": "uint256"
        },
        {
          "internalType": "string",
          "name": "contractName",
          "type": "string"
        },
        {
          "internalType": "string",
          "name": "contractVersion",
          "type": "string"
        }
      ],
      "name": "PropositionSettings_init",
      "outputs": [],
      "stateMutability": "nonpayable",
      "type": "function"
    },
    {
      "inputs": [],
      "name": "retrieveSettings",
      "outputs": [
        {
          "internalType": "uint256",
          "name": "",
          "type": "uint256"
        },
        {
          "internalType": "uint256",
          "name": "",
          "type": "uint256"
        },
        {
          "internalType": "uint256",
          "name": "",
          "type": "uint256"
        }
      ],
      "stateMutability": "view",
      "type": "function"
    }
  ],
  "bytecode": "0x608060405234801561001057600080fd5b5061357e806100206000396000f3fe608060405234801561001057600080fd5b50600436106100cf5760003560e01c8063840f6d171161008c578063b049473f11610066578063b049473f146101de578063db85bc4d146101fe578063dd93098f1461021c578063e15aa3a614610238576100cf565b8063840f6d171461018257806391f91671146101a4578063a93316f5146101c0576100cf565b806304cc67a9146100d45780630f13bbc9146100f25780633c7df55d1461010e5780634044adb21461012a57806355457ee91461015a5780635b362e8414610164575b600080fd5b6100dc610254565b6040516100e99190612ed1565b60405180910390f35b61010c60048036038101906101079190612696565b61025e565b005b61012860048036038101906101239190612735565b610352565b005b610144600480360381019061013f9190612997565b61049e565b6040516101519190612ed1565b60405180910390f35b6101626104f9565b005b61016c61061f565b6040516101799190612cc2565b60405180910390f35b61018a610648565b60405161019b959493929190612d3d565b60405180910390f35b6101be60048036038101906101b9919061293d565b61069e565b005b6101c86106ab565b6040516101d59190612d90565b60405180910390f35b6101e6610784565b6040516101f593929190612f23565b60405180910390f35b61020661079d565b6040516102139190612cc2565b60405180910390f35b61023660048036038101906102319190612788565b6107c7565b005b610252600480360381019061024d91906128f4565b6108d3565b005b6000600854905090565b600060019054906101000a900460ff166102865760008054906101000a900460ff161561028f565b61028e61095d565b5b6102ce576040517f08c379a00000000000000000000000000000000000000000000000000000000081526004016102c590612e71565b60405180910390fd5b60008060019054906101000a900460ff16159050801561031e576001600060016101000a81548160ff02191690831515021790555060016000806101000a81548160ff0219169083151502179055505b61032a8585858561096e565b801561034b5760008060016101000a81548160ff0219169083151502179055505b5050505050565b3373__Library_______________________________6337ea306382600060029054906101000a900473ffffffffffffffffffffffffffffffffffffffff1673ffffffffffffffffffffffffffffffffffffffff1663e220ad956040518163ffffffff1660e01b815260040160006040518083038186803b1580156103d657600080fd5b505afa1580156103ea573d6000803e3d6000fd5b505050506040513d6000823e3d601f19601f820116820180604052508101906104139190612862565b60036005811115610427576104266132ea565b5b8151811061043857610437613348565b5b60200260200101516040518363ffffffff1660e01b815260040161045d929190612cdd565b60006040518083038186803b15801561047557600080fd5b505af4158015610489573d6000803e3d6000fd5b50505050610498848484610aa8565b50505050565b60006009600084815260200190815260200160002060008373ffffffffffffffffffffffffffffffffffffffff1673ffffffffffffffffffffffffffffffffffffffff16815260200190815260200160002054905092915050565b600161050481610acd565b3373__Library_______________________________6337ea306382600260010160009054906101000a900473ffffffffffffffffffffffffffffffffffffffff166040518363ffffffff1660e01b8152600401610563929190612cdd565b60006040518083038186803b15801561057b57600080fd5b505af415801561058f573d6000803e3d6000fd5b5050505061059b610b78565b6105a3610b82565b600260010160009054906101000a900473ffffffffffffffffffffffffffffffffffffffff1673ffffffffffffffffffffffffffffffffffffffff167f1fe8aec10c0a50fa765076161e08c1f961ced69594ff45cf7d559f593afe14796002600001546040516106139190612ed1565b60405180910390a25050565b60008060029054906101000a900473ffffffffffffffffffffffffffffffffffffffff16905090565b6000806000806000600260010160009054906101000a900473ffffffffffffffffffffffffffffffffffffffff166002800154600260030154600260040154600260050154945094509450945094509091929394565b6106a83382610bd8565b50565b6060600a805480602002602001604051908101604052809291908181526020016000905b8282101561077b5783829060005260206000200180546106ee9061320f565b80601f016020809104026020016040519081016040528092919081815260200182805461071a9061320f565b80156107675780601f1061073c57610100808354040283529160200191610767565b820191906000526020600020905b81548152906001019060200180831161074a57829003601f168201915b5050505050815260200190600101906106cf565b50505050905090565b6000806000600b54600c54600d54925092509250909192565b6000600160009054906101000a900473ffffffffffffffffffffffffffffffffffffffff16905090565b600060019054906101000a900460ff166107ef5760008054906101000a900460ff16156107f8565b6107f761095d565b5b610837576040517f08c379a000000000000000000000000000000000000000000000000000000000815260040161082e90612e71565b60405180910390fd5b60008060019054906101000a900460ff161590508015610887576001600060016101000a81548160ff02191690831515021790555060016000806101000a81548160ff0219169083151502179055505b6108938789858561025e565b61089d8585610d0a565b6108a8868686610da2565b80156108c95760008060016101000a81548160ff0219169083151502179055505b5050505050505050565b6108dc81610dbc565b6108e4611057565b60005b815181101561095957600a82828151811061090557610904613348565b5b6020026020010151908060018154018082558091505060019003906000526020600020016000909190919091509080519060200190610945929190612218565b50808061095190613272565b9150506108e7565b5050565b6000610968306114e5565b15905090565b600060019054906101000a900460ff166109965760008054906101000a900460ff161561099f565b61099e61095d565b5b6109de576040517f08c379a00000000000000000000000000000000000000000000000000000000081526004016109d590612e71565b60405180910390fd5b60008060019054906101000a900460ff161590508015610a2e576001600060016101000a81548160ff02191690831515021790555060016000806101000a81548160ff0219169083151502179055505b610a37846114f8565b84600160006101000a81548173ffffffffffffffffffffffffffffffffffffffff021916908373ffffffffffffffffffffffffffffffffffffffff16021790555060006008819055508015610aa15760008060016101000a81548160ff0219169083151502179055505b5050505050565b610ab061161e565b1515600115151415610ac857610ac78383836116a7565b5b505050565b8015610b2657610adb61161e565b15156001151514610b21576040517f08c379a0000000000000000000000000000000000000000000000000000000008152600401610b1890612e91565b60405180910390fd5b610b75565b610b2e61161e565b15156000151514610b74576040517f08c379a0000000000000000000000000000000000000000000000000000000008152600401610b6b90612e31565b60405180910390fd5b5b50565b610b8061194e565b565b60026000808201600090556001820160006101000a81549073ffffffffffffffffffffffffffffffffffffffff021916905560028201600090556003820160009055600482016000905560058201600090555050565b6001610be381610acd565b826002600001546000610bf6838361195e565b905060008111610c3b576040517f08c379a0000000000000000000000000000000000000000000000000000000008152600401610c3290612e51565b60405180910390fd5b6000610c4c8760026000015461195e565b90508515610c75578060026004016000828254610c6991906130f1565b92505081905550610c92565b8060026005016000828254610c8a91906130f1565b925050819055505b610ca260026000015488836119cc565b8673ffffffffffffffffffffffffffffffffffffffff167f50f654d58981575c05e369cb129aeacb01e1b036af429380242cfc5d1a4b743f6002600001548884604051610cf193929190612eec565b60405180910390a2610d01611a38565b50505050505050565b81610d13611b8f565b1015610d54576040517f08c379a0000000000000000000000000000000000000000000000000000000008152600401610d4b90612e11565b60405180910390fd5b80610d5d611b8f565b1015610d9e576040517f08c379a0000000000000000000000000000000000000000000000000000000008152600401610d9590612e11565b60405180910390fd5b5050565b82600b8190555081600c8190555080600d81905550505050565b61105473__UintLibrary___________________________630bd4715e73__Library_______________________________63caa8f58985600181518110610e0757610e06613348565b5b60200260200101516040518263ffffffff1660e01b8152600401610e2b9190612dcd565b60006040518083038186803b158015610e4357600080fd5b505af4158015610e57573d6000803e3d6000fd5b505050506040513d6000823e3d601f19601f82011682018060405250810190610e8091906128ab565b600081518110610e9357610e92613348565b5b60200260200101516040518263ffffffff1660e01b8152600401610eb79190612db2565b60206040518083038186803b158015610ecf57600080fd5b505af4158015610ee3573d6000803e3d6000fd5b505050506040513d601f19601f82011682018060405250810190610f07919061296a565b73__UintLibrary___________________________630bd4715e73__Library_______________________________63caa8f58986600281518110610f4f57610f4e613348565b5b60200260200101516040518263ffffffff1660e01b8152600401610f739190612dcd565b60006040518083038186803b158015610f8b57600080fd5b505af4158015610f9f573d6000803e3d6000fd5b505050506040513d6000823e3d601f19601f82011682018060405250810190610fc891906128ab565b600081518110610fdb57610fda613348565b5b60200260200101516040518263ffffffff1660e01b8152600401610fff9190612db2565b60206040518083038186803b15801561101757600080fd5b505af415801561102b573d6000803e3d6000fd5b505050506040513d601f19601f8201168201806040525081019061104f919061296a565b610d0a565b50565b600061106281610acd565b336000600160009054906101000a900473ffffffffffffffffffffffffffffffffffffffff1673ffffffffffffffffffffffffffffffffffffffff168273ffffffffffffffffffffffffffffffffffffffff1614156110c45760019050611235565b60006110cf83611ce4565b905060008060029054906101000a900473ffffffffffffffffffffffffffffffffffffffff1673ffffffffffffffffffffffffffffffffffffffff1663e220ad956040518163ffffffff1660e01b815260040160006040518083038186803b15801561113a57600080fd5b505afa15801561114e573d6000803e3d6000fd5b505050506040513d6000823e3d601f19601f820116820180604052508101906111779190612862565b6004600581111561118b5761118a6132ea565b5b8151811061119c5761119b613348565b5b602002602001015173ffffffffffffffffffffffffffffffffffffffff1663b049473f6040518163ffffffff1660e01b815260040160606040518083038186803b1580156111e957600080fd5b505afa1580156111fd573d6000803e3d6000fd5b505050506040513d601f19601f8201168201806040525081019061122191906129d7565b925050508082111561123257600192505b50505b801515600115151461127c576040517f08c379a000000000000000000000000000000000000000000000000000000000815260040161127390612eb1565b60405180910390fd5b600080600060029054906101000a900473ffffffffffffffffffffffffffffffffffffffff1673ffffffffffffffffffffffffffffffffffffffff1663e220ad956040518163ffffffff1660e01b815260040160006040518083038186803b1580156112e757600080fd5b505afa1580156112fb573d6000803e3d6000fd5b505050506040513d6000823e3d601f19601f820116820180604052508101906113249190612862565b60046005811115611338576113376132ea565b5b8151811061134957611348613348565b5b602002602001015173ffffffffffffffffffffffffffffffffffffffff1663b049473f6040518163ffffffff1660e01b815260040160606040518083038186803b15801561139657600080fd5b505afa1580156113aa573d6000803e3d6000fd5b505050506040513d601f19601f820116820180604052508101906113ce91906129d7565b509150915033600260010160006101000a81548173ffffffffffffffffffffffffffffffffffffffff021916908373ffffffffffffffffffffffffffffffffffffffff160217905550814261142391906130f1565b6002800181905550806002600301819055506008546002600001819055506008600081548092919061145490613272565b9190505550600260010160009054906101000a900473ffffffffffffffffffffffffffffffffffffffff1673ffffffffffffffffffffffffffffffffffffffff167f472501d19bf75639b2e316cd36f8568b0c3ab943b82a87de3c086c98c1929df960026000015460028001546002600301546040516114d693929190612f23565b60405180910390a25050505050565b600080823b905060008111915050919050565b600060019054906101000a900460ff166115205760008054906101000a900460ff1615611529565b61152861095d565b5b611568576040517f08c379a000000000000000000000000000000000000000000000000000000000815260040161155f90612e71565b60405180910390fd5b60008060019054906101000a900460ff1615905080156115b8576001600060016101000a81548160ff02191690831515021790555060016000806101000a81548160ff0219169083151502179055505b81600060026101000a81548173ffffffffffffffffffffffffffffffffffffffff021916908373ffffffffffffffffffffffffffffffffffffffff160217905550801561161a5760008060016101000a81548160ff0219169083151502179055505b5050565b6000600280015442101561163557600190506116a4565b600260010160009054906101000a900473ffffffffffffffffffffffffffffffffffffffff1673ffffffffffffffffffffffffffffffffffffffff16600073ffffffffffffffffffffffffffffffffffffffff161461169f57611696611e46565b61169e610b82565b5b600090505b90565b8273ffffffffffffffffffffffffffffffffffffffff16600073ffffffffffffffffffffffffffffffffffffffff16141580156117395750600060096000600260000154815260200190815260200160002060008573ffffffffffffffffffffffffffffffffffffffff1673ffffffffffffffffffffffffffffffffffffffff16815260200190815260200160002054115b1561194957600081905060096000600260000154815260200190815260200160002060008573ffffffffffffffffffffffffffffffffffffffff1673ffffffffffffffffffffffffffffffffffffffff168152602001908152602001600020548211156117f95760096000600260000154815260200190815260200160002060008573ffffffffffffffffffffffffffffffffffffffff1673ffffffffffffffffffffffffffffffffffffffff1681526020019081526020016000205490505b8060096000600260000154815260200190815260200160002060008673ffffffffffffffffffffffffffffffffffffffff1673ffffffffffffffffffffffffffffffffffffffff168152602001908152602001600020600082825461185e9190613147565b925050819055508273ffffffffffffffffffffffffffffffffffffffff16600073ffffffffffffffffffffffffffffffffffffffff1614611906578060096000600260000154815260200190815260200160002060008573ffffffffffffffffffffffffffffffffffffffff1673ffffffffffffffffffffffffffffffffffffffff16815260200190815260200160002060008282546118fe91906130f1565b925050819055505b6002600001547f65fbd5e5dd32bea4aeca85bd0be0abf0e489d655dee888a7510d43b06dda2dba85858460405161193f93929190612d06565b60405180910390a2505b505050565b600a600061195c919061229e565b565b60006009600083815260200190815260200160002060008473ffffffffffffffffffffffffffffffffffffffff1673ffffffffffffffffffffffffffffffffffffffff168152602001908152602001600020546119ba84611ce4565b6119c49190613147565b905092915050565b806009600085815260200190815260200160002060008473ffffffffffffffffffffffffffffffffffffffff1673ffffffffffffffffffffffffffffffffffffffff1681526020019081526020016000206000828254611a2c91906130f1565b92505081905550505050565b60026003015460026004015410611ae457611a51611e50565b611a59610b82565b600260010160009054906101000a900473ffffffffffffffffffffffffffffffffffffffff1673ffffffffffffffffffffffffffffffffffffffff167f23ca0034cf5aad32571b4a492e9598ea8a490e1643a60970e3cdc6933b55e49f600260000154600260040154600260050154604051611ad793929190612f23565b60405180910390a2611b8d565b60026003015460026005015410611b8c57611afd611e62565b611b05610b82565b600260010160009054906101000a900473ffffffffffffffffffffffffffffffffffffffff1673ffffffffffffffffffffffffffffffffffffffff167fa58eb6daa3c62c3f883973c4035e5bd3e81aa627c8379de068a7de42df122be2600260000154600260040154600260050154604051611b8393929190612f23565b60405180910390a25b5b565b60008060029054906101000a900473ffffffffffffffffffffffffffffffffffffffff1673ffffffffffffffffffffffffffffffffffffffff1663e220ad956040518163ffffffff1660e01b815260040160006040518083038186803b158015611bf857600080fd5b505afa158015611c0c573d6000803e3d6000fd5b505050506040513d6000823e3d601f19601f82011682018060405250810190611c359190612862565b60036005811115611c4957611c486132ea565b5b81518110611c5a57611c59613348565b5b602002602001015173ffffffffffffffffffffffffffffffffffffffff166318160ddd6040518163ffffffff1660e01b815260040160206040518083038186803b158015611ca757600080fd5b505afa158015611cbb573d6000803e3d6000fd5b505050506040513d601f19601f82011682018060405250810190611cdf919061296a565b905090565b60008060029054906101000a900473ffffffffffffffffffffffffffffffffffffffff1673ffffffffffffffffffffffffffffffffffffffff1663e220ad956040518163ffffffff1660e01b815260040160006040518083038186803b158015611d4d57600080fd5b505afa158015611d61573d6000803e3d6000fd5b505050506040513d6000823e3d601f19601f82011682018060405250810190611d8a9190612862565b60036005811115611d9e57611d9d6132ea565b5b81518110611daf57611dae613348565b5b602002602001015173ffffffffffffffffffffffffffffffffffffffff166370a08231836040518263ffffffff1660e01b8152600401611def9190612cc2565b60206040518083038186803b158015611e0757600080fd5b505afa158015611e1b573d6000803e3d6000fd5b505050506040513d601f19601f82011682018060405250810190611e3f919061296a565b9050919050565b611e4e61194e565b565b611e58611e6c565b611e6061194e565b565b611e6a61194e565b565b6000611e766120b6565b9050600073__UintLibrary___________________________630bd4715e83600081518110611ea857611ea7613348565b5b60200260200101516040518263ffffffff1660e01b8152600401611ecc9190612db2565b60206040518083038186803b158015611ee457600080fd5b505af4158015611ef8573d6000803e3d6000fd5b505050506040513d601f19601f82011682018060405250810190611f1c919061296a565b9050600073__UintLibrary___________________________630bd4715e84600181518110611f4e57611f4d613348565b5b60200260200101516040518263ffffffff1660e01b8152600401611f729190612db2565b60206040518083038186803b158015611f8a57600080fd5b505af4158015611f9e573d6000803e3d6000fd5b505050506040513d601f19601f82011682018060405250810190611fc2919061296a565b9050600073__UintLibrary___________________________630bd4715e85600281518110611ff457611ff3613348565b5b60200260200101516040518263ffffffff1660e01b81526004016120189190612db2565b60206040518083038186803b15801561203057600080fd5b505af4158015612044573d6000803e3d6000fd5b505050506040513d601f19601f82011682018060405250810190612068919061296a565b9050612075838383610da2565b7f5f142d19236803d18232d4e49383b84c9ce931aa90200b80fb6b2c22ef1c0b1d8383836040516120a893929190612f23565b60405180910390a150505050565b60606000600a8054905067ffffffffffffffff8111156120d9576120d8613377565b5b6040519080825280602002602001820160405280156121075781602001602082028036833780820191505090505b50905060005b600a805490508110156122105773__Library_______________________________63caa8f589600a838154811061214857612147613348565b5b906000526020600020016040518263ffffffff1660e01b815260040161216e9190612def565b60006040518083038186803b15801561218657600080fd5b505af415801561219a573d6000803e3d6000fd5b505050506040513d6000823e3d601f19601f820116820180604052508101906121c391906128ab565b6000815181106121d6576121d5613348565b5b60200260200101518282815181106121f1576121f0613348565b5b602002602001018181525050808061220890613272565b91505061210d565b508091505090565b8280546122249061320f565b90600052602060002090601f016020900481019282612246576000855561228d565b82601f1061225f57805160ff191683800117855561228d565b8280016001018555821561228d579182015b8281111561228c578251825591602001919060010190612271565b5b50905061229a91906122bf565b5090565b50805460008255906000526020600020908101906122bc91906122dc565b50565b5b808211156122d85760008160009055506001016122c0565b5090565b5b808211156122fc57600081816122f39190612300565b506001016122dd565b5090565b50805461230c9061320f565b6000825580601f1061231e575061233d565b601f01602090049060005260206000209081019061233c91906122bf565b5b50565b600061235361234e84612f7f565b612f5a565b90508083825260208201905082856020860282011115612376576123756133ab565b5b60005b858110156123a6578161238c8882612547565b845260208401935060208301925050600181019050612379565b5050509392505050565b60006123c36123be84612fab565b612f5a565b905080838252602082019050828560208602820111156123e6576123e56133ab565b5b60005b8581101561241657816123fc88826125fb565b8452602084019350602083019250506001810190506123e9565b5050509392505050565b600061243361242e84612fd7565b612f5a565b90508083825260208201905082856020860282011115612456576124556133ab565b5b60005b858110156124a457813567ffffffffffffffff81111561247c5761247b6133a6565b5b8086016124898982612610565b85526020850194506020840193505050600181019050612459565b5050509392505050565b60006124c16124bc84613003565b612f5a565b9050828152602081018484840111156124dd576124dc6133b0565b5b6124e88482856131cd565b509392505050565b60006125036124fe84613034565b612f5a565b90508281526020810184848401111561251f5761251e6133b0565b5b61252a8482856131cd565b509392505050565b600081359050612541816134ec565b92915050565b600081519050612556816134ec565b92915050565b600082601f830112612571576125706133a6565b5b8151612581848260208601612340565b91505092915050565b600082601f83011261259f5761259e6133a6565b5b81516125af8482602086016123b0565b91505092915050565b600082601f8301126125cd576125cc6133a6565b5b81356125dd848260208601612420565b91505092915050565b6000813590506125f581613503565b92915050565b60008151905061260a8161351a565b92915050565b600082601f830112612625576126246133a6565b5b81356126358482602086016124ae565b91505092915050565b600082601f830112612653576126526133a6565b5b81356126638482602086016124f0565b91505092915050565b60008135905061267b81613531565b92915050565b60008151905061269081613531565b92915050565b600080600080608085870312156126b0576126af6133ba565b5b60006126be87828801612532565b94505060206126cf87828801612532565b935050604085013567ffffffffffffffff8111156126f0576126ef6133b5565b5b6126fc8782880161263e565b925050606085013567ffffffffffffffff81111561271d5761271c6133b5565b5b6127298782880161263e565b91505092959194509250565b60008060006060848603121561274e5761274d6133ba565b5b600061275c86828701612532565b935050602061276d86828701612532565b925050604061277e8682870161266c565b9150509250925092565b600080600080600080600060e0888a0312156127a7576127a66133ba565b5b60006127b58a828b01612532565b97505060206127c68a828b01612532565b96505060406127d78a828b0161266c565b95505060606127e88a828b0161266c565b94505060806127f98a828b0161266c565b93505060a088013567ffffffffffffffff81111561281a576128196133b5565b5b6128268a828b0161263e565b92505060c088013567ffffffffffffffff811115612847576128466133b5565b5b6128538a828b0161263e565b91505092959891949750929550565b600060208284031215612878576128776133ba565b5b600082015167ffffffffffffffff811115612896576128956133b5565b5b6128a28482850161255c565b91505092915050565b6000602082840312156128c1576128c06133ba565b5b600082015167ffffffffffffffff8111156128df576128de6133b5565b5b6128eb8482850161258a565b91505092915050565b60006020828403121561290a576129096133ba565b5b600082013567ffffffffffffffff811115612928576129276133b5565b5b612934848285016125b8565b91505092915050565b600060208284031215612953576129526133ba565b5b6000612961848285016125e6565b91505092915050565b6000602082840312156129805761297f6133ba565b5b600061298e84828501612681565b91505092915050565b600080604083850312156129ae576129ad6133ba565b5b60006129bc8582860161266c565b92505060206129cd85828601612532565b9150509250929050565b6000806000606084860312156129f0576129ef6133ba565b5b60006129fe86828701612681565b9350506020612a0f86828701612681565b9250506040612a2086828701612681565b9150509250925092565b6000612a368383612aef565b905092915050565b612a478161317b565b82525050565b612a568161317b565b82525050565b6000612a678261308a565b612a7181856130ad565b935083602082028501612a8385613065565b8060005b85811015612abf5784840389528151612aa08582612a2a565b9450612aab836130a0565b925060208a01995050600181019050612a87565b50829750879550505050505092915050565b612ada8161318d565b82525050565b612ae981613199565b82525050565b6000612afa82613095565b612b0481856130be565b9350612b148185602086016131dc565b612b1d816133bf565b840191505092915050565b6000612b3382613095565b612b3d81856130cf565b9350612b4d8185602086016131dc565b612b56816133bf565b840191505092915050565b60008154612b6e8161320f565b612b7881866130cf565b94506001821660008114612b935760018114612ba557612bd8565b60ff1983168652602086019350612bd8565b612bae85613075565b60005b83811015612bd057815481890152600182019150602081019050612bb1565b808801955050505b50505092915050565b6000612bee6005836130e0565b9150612bf9826133d0565b602082019050919050565b6000612c116005836130e0565b9150612c1c826133f9565b602082019050919050565b6000612c346005836130e0565b9150612c3f82613422565b602082019050919050565b6000612c57602e836130e0565b9150612c628261344b565b604082019050919050565b6000612c7a6005836130e0565b9150612c858261349a565b602082019050919050565b6000612c9d6005836130e0565b9150612ca8826134c3565b602082019050919050565b612cbc816131c3565b82525050565b6000602082019050612cd76000830184612a3e565b92915050565b6000604082019050612cf26000830185612a4d565b612cff6020830184612a4d565b9392505050565b6000606082019050612d1b6000830186612a3e565b612d286020830185612a3e565b612d356040830184612cb3565b949350505050565b600060a082019050612d526000830188612a3e565b612d5f6020830187612cb3565b612d6c6040830186612cb3565b612d796060830185612cb3565b612d866080830184612cb3565b9695505050505050565b60006020820190508181036000830152612daa8184612a5c565b905092915050565b6000602082019050612dc76000830184612ae0565b92915050565b60006020820190508181036000830152612de78184612b28565b905092915050565b60006020820190508181036000830152612e098184612b61565b905092915050565b60006020820190508181036000830152612e2a81612be1565b9050919050565b60006020820190508181036000830152612e4a81612c04565b9050919050565b60006020820190508181036000830152612e6a81612c27565b9050919050565b60006020820190508181036000830152612e8a81612c4a565b9050919050565b60006020820190508181036000830152612eaa81612c6d565b9050919050565b60006020820190508181036000830152612eca81612c90565b9050919050565b6000602082019050612ee66000830184612cb3565b92915050565b6000606082019050612f016000830186612cb3565b612f0e6020830185612ad1565b612f1b6040830184612cb3565b949350505050565b6000606082019050612f386000830186612cb3565b612f456020830185612cb3565b612f526040830184612cb3565b949350505050565b6000612f64612f75565b9050612f708282613241565b919050565b6000604051905090565b600067ffffffffffffffff821115612f9a57612f99613377565b5b602082029050602081019050919050565b600067ffffffffffffffff821115612fc657612fc5613377565b5b602082029050602081019050919050565b600067ffffffffffffffff821115612ff257612ff1613377565b5b602082029050602081019050919050565b600067ffffffffffffffff82111561301e5761301d613377565b5b613027826133bf565b9050602081019050919050565b600067ffffffffffffffff82111561304f5761304e613377565b5b613058826133bf565b9050602081019050919050565b6000819050602082019050919050565b60008190508160005260206000209050919050565b600081519050919050565b600081519050919050565b6000602082019050919050565b600082825260208201905092915050565b600082825260208201905092915050565b600082825260208201905092915050565b600082825260208201905092915050565b60006130fc826131c3565b9150613107836131c3565b9250827fffffffffffffffffffffffffffffffffffffffffffffffffffffffffffffffff0382111561313c5761313b6132bb565b5b828201905092915050565b6000613152826131c3565b915061315d836131c3565b9250828210156131705761316f6132bb565b5b828203905092915050565b6000613186826131a3565b9050919050565b60008115159050919050565b6000819050919050565b600073ffffffffffffffffffffffffffffffffffffffff82169050919050565b6000819050919050565b82818337600083830152505050565b60005b838110156131fa5780820151818401526020810190506131df565b83811115613209576000848401525b50505050565b6000600282049050600182168061322757607f821691505b6020821081141561323b5761323a613319565b5b50919050565b61324a826133bf565b810181811067ffffffffffffffff8211171561326957613268613377565b5b80604052505050565b600061327d826131c3565b91507fffffffffffffffffffffffffffffffffffffffffffffffffffffffffffffffff8214156132b0576132af6132bb565b5b600182019050919050565b7f4e487b7100000000000000000000000000000000000000000000000000000000600052601160045260246000fd5b7f4e487b7100000000000000000000000000000000000000000000000000000000600052602160045260246000fd5b7f4e487b7100000000000000000000000000000000000000000000000000000000600052602260045260246000fd5b7f4e487b7100000000000000000000000000000000000000000000000000000000600052603260045260246000fd5b7f4e487b7100000000000000000000000000000000000000000000000000000000600052604160045260246000fd5b600080fd5b600080fd5b600080fd5b600080fd5b600080fd5b6000601f19601f8301169050919050565b7f454332312d000000000000000000000000000000000000000000000000000000600082015250565b7f454332342d000000000000000000000000000000000000000000000000000000600082015250565b7f454332332d000000000000000000000000000000000000000000000000000000600082015250565b7f496e697469616c697a61626c653a20636f6e747261637420697320616c72656160008201527f647920696e697469616c697a6564000000000000000000000000000000000000602082015250565b7f454332352d000000000000000000000000000000000000000000000000000000600082015250565b7f454332322d000000000000000000000000000000000000000000000000000000600082015250565b6134f58161317b565b811461350057600080fd5b50565b61350c8161318d565b811461351757600080fd5b50565b61352381613199565b811461352e57600080fd5b50565b61353a816131c3565b811461354557600080fd5b5056fea2646970667358221220daeb2787637926a0a4fc7f2e90e59873b11572653bf2cb2248491b611588319864736f6c63430008070033",
  "immutableReferences": {},
  "source": "// SPDX-License-Identifier: GPL-3.0\r\n\r\npragma solidity 0.8.7;\r\n\r\n/**\r\n  Events : \r\n    - New Settings Added : list of settings\r\n */\r\n\r\nimport \"../Interfaces/IPropositionSettings.sol\";\r\nimport \"../Libraries/UintLibrary.sol\";\r\nimport \"../Base/StdPropositionBaseContract.sol\";\r\n\r\ncontract PropositionSettings is IPropositionSettings, StdPropositionBaseContract{\r\n    using UintLibrary for *;\r\n\r\n    // EVENTS /////////////////////////////////////////\r\n    event _NewSettings(uint256 LifeTime, uint256 Threshold, uint256 minToPropose);\r\n\r\n    // DATA /////////////////////////////////////////\r\n    uint256 internal _LifeTime;\r\n    uint256 internal _Threshold;\r\n    uint256 internal _minToPropose;\r\n\r\n    // MODIFIERS /////////////////////////////////////////\r\n    function areSettingsOKFunc(uint256 PropositionThreshold, uint256 minToPropose) internal view{\r\n        require(totalSupply() >= PropositionThreshold, \"EC21-\");\r\n        require(totalSupply() >= minToPropose, \"EC21-\");\r\n    }\r\n    \r\n    // CONSTRUCTOR /////////////////////////////////////////\r\n    function PropositionSettings_init(address managerContractAddress, address chairPerson, uint256 PropositionLifeTime, uint256 PropositionThreshold, uint256 minToPropose, string memory contractName, string memory contractVersion) public initializer \r\n    {\r\n        super.StdPropositionBaseContract_init(chairPerson, managerContractAddress, contractName, contractVersion);\r\n        areSettingsOKFunc(PropositionThreshold, minToPropose);\r\n        InternalupdateSettings(PropositionLifeTime, PropositionThreshold, minToPropose);\r\n    }\r\n\r\n    // GOVERNANCE /////////////////////////////////////////\r\n    function checkProposition(bytes[] memory NewValues) internal override view \r\n    {\r\n        areSettingsOKFunc(UintLibrary.Bytes32ToUint(Library.BytestoBytes32(NewValues[1])[0]), UintLibrary.Bytes32ToUint(Library.BytestoBytes32(NewValues[2])[0]));\r\n    }\r\n\r\n    function UpdateAll() internal override\r\n    {\r\n        bytes32[] memory ProposedNewValues = PropositionsToBytes32();\r\n\r\n        uint256 PropositionLifeTime = UintLibrary.Bytes32ToUint(ProposedNewValues[0]);\r\n        uint256 PropositionThreshold = UintLibrary.Bytes32ToUint(ProposedNewValues[1]);\r\n        uint256 minToPropose = UintLibrary.Bytes32ToUint(ProposedNewValues[2]);\r\n\r\n        InternalupdateSettings(PropositionLifeTime, PropositionThreshold, minToPropose);\r\n\r\n        emit _NewSettings(PropositionLifeTime, PropositionThreshold, minToPropose);\r\n    }\r\n\r\n    function InternalupdateSettings(uint256 PropLifeTime, uint256 PropThreshold, uint256 minToProp) internal\r\n    {\r\n        _LifeTime = PropLifeTime;\r\n        _Threshold = PropThreshold;\r\n        _minToPropose = minToProp;\r\n    }\r\n\r\n    // FUNCTIONALITY /////////////////////////////////////////\r\n    function retrieveSettings() external override view returns(uint256, uint256, uint256)\r\n    {\r\n        return(_LifeTime, _Threshold, _minToPropose);\r\n    }\r\n\r\n\r\n}",
  "sourcePath": "C:\\Users\\d-aam\\GitHub\\Originals\\contracts\\MainContracts\\PropositionSettings.sol",
  "compiler": {
    "name": "solc",
    "version": "0.8.7+commit.e28d00a7.Emscripten.clang"
  },
  "schemaVersion": "3.4.3",
  "updatedAt": "2022-01-24T11:09:42.786Z",
  "devdoc": {
    "kind": "dev",
    "methods": {},
    "version": 1
  },
  "userdoc": {
    "kind": "user",
    "methods": {},
    "version": 1
  }
}