{
  "contractName": "PublicPool",
  "abi": [
    {
      "anonymous": false,
      "inputs": [
        {
          "indexed": false,
          "internalType": "address",
          "name": "owner",
          "type": "address"
        }
      ],
      "name": "_AddOwnerRejection",
      "type": "event"
    },
    {
      "anonymous": false,
      "inputs": [
        {
          "indexed": false,
          "internalType": "address",
          "name": "owner",
          "type": "address"
        }
      ],
      "name": "_AddOwnerValidation",
      "type": "event"
    },
    {
      "anonymous": false,
      "inputs": [
        {
          "indexed": true,
          "internalType": "uint256",
          "name": "NFTMarketId",
          "type": "uint256"
        },
        {
          "indexed": true,
          "internalType": "uint256",
          "name": "tokenID",
          "type": "uint256"
        },
        {
          "indexed": true,
          "internalType": "address",
          "name": "receiver",
          "type": "address"
        },
        {
          "indexed": false,
          "internalType": "uint256",
          "name": "amount",
          "type": "uint256"
        },
        {
          "indexed": false,
          "internalType": "uint256",
          "name": "factor",
          "type": "uint256"
        }
      ],
      "name": "_CreditAssigned",
      "type": "event"
    },
    {
      "anonymous": false,
      "inputs": [
        {
          "indexed": true,
          "internalType": "address",
          "name": "receiver",
          "type": "address"
        },
        {
          "indexed": false,
          "internalType": "uint256",
          "name": "amount",
          "type": "uint256"
        },
        {
          "indexed": true,
          "internalType": "address",
          "name": "sender",
          "type": "address"
        }
      ],
      "name": "_CreditReceived",
      "type": "event"
    },
    {
      "anonymous": false,
      "inputs": [
        {
          "indexed": true,
          "internalType": "uint256",
          "name": "NFTMarketId",
          "type": "uint256"
        },
        {
          "indexed": true,
          "internalType": "uint256",
          "name": "tokenID",
          "type": "uint256"
        },
        {
          "indexed": true,
          "internalType": "address",
          "name": "creditor",
          "type": "address"
        },
        {
          "indexed": false,
          "internalType": "uint256",
          "name": "amount",
          "type": "uint256"
        }
      ],
      "name": "_CreditReused",
      "type": "event"
    },
    {
      "anonymous": false,
      "inputs": [
        {
          "indexed": true,
          "internalType": "uint256",
          "name": "NFTMarketId",
          "type": "uint256"
        },
        {
          "indexed": true,
          "internalType": "uint256",
          "name": "tokenID",
          "type": "uint256"
        },
        {
          "indexed": false,
          "internalType": "uint256",
          "name": "amount",
          "type": "uint256"
        }
      ],
      "name": "_CreditUnAssignedReceived",
      "type": "event"
    },
    {
      "anonymous": false,
      "inputs": [
        {
          "indexed": true,
          "internalType": "address",
          "name": "withdrawer",
          "type": "address"
        },
        {
          "indexed": false,
          "internalType": "uint256",
          "name": "amount",
          "type": "uint256"
        }
      ],
      "name": "_CreditWithdrawn",
      "type": "event"
    },
    {
      "anonymous": false,
      "inputs": [
        {
          "indexed": true,
          "internalType": "address",
          "name": "withdrawer",
          "type": "address"
        },
        {
          "indexed": false,
          "internalType": "uint256",
          "name": "amount",
          "type": "uint256"
        },
        {
          "indexed": true,
          "internalType": "address",
          "name": "sender",
          "type": "address"
        }
      ],
      "name": "_CreditWithdrawnFor",
      "type": "event"
    },
    {
      "anonymous": false,
      "inputs": [
        {
          "indexed": true,
          "internalType": "uint256",
          "name": "id",
          "type": "uint256"
        }
      ],
      "name": "_IssuerRejection",
      "type": "event"
    },
    {
      "anonymous": false,
      "inputs": [
        {
          "indexed": true,
          "internalType": "uint256",
          "name": "id",
          "type": "uint256"
        },
        {
          "indexed": false,
          "internalType": "address",
          "name": "NFTMarket",
          "type": "address"
        }
      ],
      "name": "_IssuerValidation",
      "type": "event"
    },
    {
      "anonymous": false,
      "inputs": [
        {
          "indexed": false,
          "internalType": "uint256",
          "name": "minOwner",
          "type": "uint256"
        }
      ],
      "name": "_MinOwnerRejection",
      "type": "event"
    },
    {
      "anonymous": false,
      "inputs": [
        {
          "indexed": false,
          "internalType": "uint256",
          "name": "minOwner",
          "type": "uint256"
        }
      ],
      "name": "_MinOwnerValidation",
      "type": "event"
    },
    {
      "anonymous": false,
      "inputs": [
        {
          "indexed": true,
          "internalType": "uint256",
          "name": "id",
          "type": "uint256"
        },
        {
          "indexed": false,
          "internalType": "address",
          "name": "owner",
          "type": "address"
        },
        {
          "indexed": false,
          "internalType": "string",
          "name": "name",
          "type": "string"
        },
        {
          "indexed": false,
          "internalType": "string",
          "name": "symbol",
          "type": "string"
        }
      ],
      "name": "_NewIssuerRequest",
      "type": "event"
    },
    {
      "anonymous": false,
      "inputs": [
        {
          "indexed": false,
          "internalType": "address",
          "name": "owner",
          "type": "address"
        }
      ],
      "name": "_RemoveOwnerRejection",
      "type": "event"
    },
    {
      "anonymous": false,
      "inputs": [
        {
          "indexed": false,
          "internalType": "address",
          "name": "owner",
          "type": "address"
        }
      ],
      "name": "_RemoveOwnerValidation",
      "type": "event"
    },
    {
      "anonymous": false,
      "inputs": [
        {
          "indexed": true,
          "internalType": "uint256",
          "name": "id",
          "type": "uint256"
        },
        {
          "indexed": false,
          "internalType": "address",
          "name": "voter",
          "type": "address"
        },
        {
          "indexed": false,
          "internalType": "bool",
          "name": "vote",
          "type": "bool"
        }
      ],
      "name": "_VoteForIssuer",
      "type": "event"
    },
    {
      "anonymous": false,
      "inputs": [
        {
          "indexed": false,
          "internalType": "uint256",
          "name": "minOwner",
          "type": "uint256"
        },
        {
          "indexed": false,
          "internalType": "address",
          "name": "voter",
          "type": "address"
        },
        {
          "indexed": false,
          "internalType": "bool",
          "name": "vote",
          "type": "bool"
        }
      ],
      "name": "_VoteForMinOwner",
      "type": "event"
    },
    {
      "anonymous": false,
      "inputs": [
        {
          "indexed": false,
          "internalType": "address",
          "name": "owner",
          "type": "address"
        },
        {
          "indexed": false,
          "internalType": "address",
          "name": "voter",
          "type": "address"
        },
        {
          "indexed": false,
          "internalType": "bool",
          "name": "vote",
          "type": "bool"
        }
      ],
      "name": "_VoteForOwner",
      "type": "event"
    },
    {
      "inputs": [
        {
          "internalType": "address",
          "name": "sender",
          "type": "address"
        },
        {
          "internalType": "uint256",
          "name": "amount",
          "type": "uint256"
        },
        {
          "internalType": "bytes",
          "name": "data",
          "type": "bytes"
        }
      ],
      "name": "CreditReceived",
      "outputs": [],
      "stateMutability": "nonpayable",
      "type": "function"
    },
    {
      "inputs": [
        {
          "internalType": "address[]",
          "name": "owners",
          "type": "address[]"
        },
        {
          "internalType": "uint256",
          "name": "minOwners",
          "type": "uint256"
        }
      ],
      "name": "MultiSigContract_init",
      "outputs": [],
      "stateMutability": "nonpayable",
      "type": "function"
    },
    {
      "inputs": [
        {
          "internalType": "address",
          "name": "owner",
          "type": "address"
        }
      ],
      "name": "addOwner",
      "outputs": [],
      "stateMutability": "nonpayable",
      "type": "function"
    },
    {
      "inputs": [
        {
          "internalType": "uint256",
          "name": "newMinOwners",
          "type": "uint256"
        }
      ],
      "name": "changeMinOwners",
      "outputs": [],
      "stateMutability": "nonpayable",
      "type": "function"
    },
    {
      "inputs": [],
      "name": "rejectMinOwners",
      "outputs": [],
      "stateMutability": "nonpayable",
      "type": "function"
    },
    {
      "inputs": [
        {
          "internalType": "address",
          "name": "owner",
          "type": "address"
        }
      ],
      "name": "rejectOwner",
      "outputs": [],
      "stateMutability": "nonpayable",
      "type": "function"
    },
    {
      "inputs": [
        {
          "internalType": "address",
          "name": "owner",
          "type": "address"
        }
      ],
      "name": "removeOwner",
      "outputs": [],
      "stateMutability": "nonpayable",
      "type": "function"
    },
    {
      "inputs": [],
      "name": "retrieveAllOwners",
      "outputs": [
        {
          "internalType": "address[]",
          "name": "",
          "type": "address[]"
        }
      ],
      "stateMutability": "view",
      "type": "function",
      "constant": true
    },
    {
      "inputs": [],
      "name": "retrieveManagerContract",
      "outputs": [
        {
          "internalType": "address",
          "name": "",
          "type": "address"
        }
      ],
      "stateMutability": "view",
      "type": "function",
      "constant": true
    },
    {
      "inputs": [],
      "name": "retrieveMinOwners",
      "outputs": [
        {
          "internalType": "uint256",
          "name": "",
          "type": "uint256"
        }
      ],
      "stateMutability": "view",
      "type": "function",
      "constant": true
    },
    {
      "inputs": [],
      "name": "retrievePendingMinOwners",
      "outputs": [
        {
          "internalType": "uint256",
          "name": "",
          "type": "uint256"
        }
      ],
      "stateMutability": "view",
      "type": "function",
      "constant": true
    },
    {
      "inputs": [],
      "name": "retrievePendingMinOwnersStatus",
      "outputs": [
        {
          "internalType": "uint256",
          "name": "",
          "type": "uint256"
        },
        {
          "internalType": "uint256",
          "name": "",
          "type": "uint256"
        },
        {
          "internalType": "address[]",
          "name": "",
          "type": "address[]"
        }
      ],
      "stateMutability": "view",
      "type": "function",
      "constant": true
    },
    {
      "inputs": [
        {
          "internalType": "bool",
          "name": "addedORremove",
          "type": "bool"
        }
      ],
      "name": "retrievePendingOwners",
      "outputs": [
        {
          "internalType": "address[]",
          "name": "",
          "type": "address[]"
        }
      ],
      "stateMutability": "view",
      "type": "function",
      "constant": true
    },
    {
      "inputs": [],
      "name": "validateMinOwners",
      "outputs": [],
      "stateMutability": "nonpayable",
      "type": "function"
    },
    {
      "inputs": [
        {
          "internalType": "address",
          "name": "owner",
          "type": "address"
        }
      ],
      "name": "validateOwner",
      "outputs": [],
      "stateMutability": "nonpayable",
      "type": "function"
    },
    {
      "inputs": [
        {
          "internalType": "address[]",
          "name": "owners",
          "type": "address[]"
        },
        {
          "internalType": "uint256",
          "name": "minOwners",
          "type": "uint256"
        },
        {
          "internalType": "address",
          "name": "managerContractAddress",
          "type": "address"
        }
      ],
      "name": "PublicPool_init",
      "outputs": [],
      "stateMutability": "nonpayable",
      "type": "function"
    },
    {
      "inputs": [
        {
          "components": [
            {
              "internalType": "address",
              "name": "_owner",
              "type": "address"
            },
            {
              "internalType": "string",
              "name": "_name",
              "type": "string"
            },
            {
              "internalType": "string",
              "name": "_symbol",
              "type": "string"
            },
            {
              "internalType": "uint256",
              "name": "_feeAmount",
              "type": "uint256"
            },
            {
              "internalType": "uint256",
              "name": "_feeDecimals",
              "type": "uint256"
            },
            {
              "internalType": "enum Library.PaymentPlans",
              "name": "_paymentPlan",
              "type": "uint8"
            }
          ],
          "internalType": "struct ItemsLibrary._issuerStruct",
          "name": "requestedIssuer",
          "type": "tuple"
        }
      ],
      "name": "requestIssuer",
      "outputs": [],
      "stateMutability": "nonpayable",
      "type": "function"
    },
    {
      "inputs": [
        {
          "internalType": "uint256",
          "name": "id",
          "type": "uint256"
        }
      ],
      "name": "validateIssuer",
      "outputs": [],
      "stateMutability": "nonpayable",
      "type": "function"
    },
    {
      "inputs": [
        {
          "internalType": "uint256",
          "name": "id",
          "type": "uint256"
        }
      ],
      "name": "rejectIssuer",
      "outputs": [],
      "stateMutability": "nonpayable",
      "type": "function"
    },
    {
      "inputs": [],
      "name": "retrieveIssuers",
      "outputs": [
        {
          "internalType": "uint256[]",
          "name": "",
          "type": "uint256[]"
        }
      ],
      "stateMutability": "view",
      "type": "function",
      "constant": true
    },
    {
      "inputs": [
        {
          "internalType": "uint256",
          "name": "id",
          "type": "uint256"
        }
      ],
      "name": "retrieveNFTMarketForIssuer",
      "outputs": [
        {
          "internalType": "address",
          "name": "",
          "type": "address"
        }
      ],
      "stateMutability": "view",
      "type": "function",
      "constant": true
    },
    {
      "inputs": [],
      "name": "retrievePendingIssuers",
      "outputs": [
        {
          "internalType": "uint256[]",
          "name": "",
          "type": "uint256[]"
        }
      ],
      "stateMutability": "view",
      "type": "function",
      "constant": true
    },
    {
      "inputs": [
        {
          "internalType": "uint256",
          "name": "id",
          "type": "uint256"
        }
      ],
      "name": "retrievePendingIssuer",
      "outputs": [
        {
          "components": [
            {
              "components": [
                {
                  "internalType": "address",
                  "name": "_owner",
                  "type": "address"
                },
                {
                  "internalType": "string",
                  "name": "_name",
                  "type": "string"
                },
                {
                  "internalType": "string",
                  "name": "_symbol",
                  "type": "string"
                },
                {
                  "internalType": "uint256",
                  "name": "_feeAmount",
                  "type": "uint256"
                },
                {
                  "internalType": "uint256",
                  "name": "_feeDecimals",
                  "type": "uint256"
                },
                {
                  "internalType": "enum Library.PaymentPlans",
                  "name": "_paymentPlan",
                  "type": "uint8"
                }
              ],
              "internalType": "struct ItemsLibrary._issuerStruct",
              "name": "_issuer",
              "type": "tuple"
            },
            {
              "internalType": "uint256",
              "name": "_pendingId",
              "type": "uint256"
            },
            {
              "internalType": "uint256",
              "name": "_validations",
              "type": "uint256"
            },
            {
              "internalType": "uint256",
              "name": "_rejections",
              "type": "uint256"
            },
            {
              "internalType": "address[]",
              "name": "_voters",
              "type": "address[]"
            }
          ],
          "internalType": "struct IPool._pendingIssuerStruct",
          "name": "",
          "type": "tuple"
        }
      ],
      "stateMutability": "view",
      "type": "function",
      "constant": true
    },
    {
      "inputs": [
        {
          "internalType": "address",
          "name": "addr",
          "type": "address"
        },
        {
          "internalType": "uint256",
          "name": "amount",
          "type": "uint256"
        }
      ],
      "name": "sendCredit",
      "outputs": [],
      "stateMutability": "nonpayable",
      "type": "function"
    },
    {
      "inputs": [
        {
          "internalType": "uint256",
          "name": "NFTMarketId",
          "type": "uint256"
        },
        {
          "internalType": "uint256",
          "name": "tokenID",
          "type": "uint256"
        },
        {
          "internalType": "address[]",
          "name": "addrs",
          "type": "address[]"
        },
        {
          "internalType": "uint256[]",
          "name": "amounts",
          "type": "uint256[]"
        },
        {
          "internalType": "uint256[]",
          "name": "factors",
          "type": "uint256[]"
        }
      ],
      "name": "addCredit",
      "outputs": [],
      "stateMutability": "nonpayable",
      "type": "function"
    },
    {
      "inputs": [
        {
          "internalType": "uint256",
          "name": "NFTMarketId",
          "type": "uint256"
        },
        {
          "internalType": "uint256",
          "name": "tokenID",
          "type": "uint256"
        },
        {
          "internalType": "address",
          "name": "addr",
          "type": "address"
        },
        {
          "internalType": "uint256",
          "name": "amount",
          "type": "uint256"
        }
      ],
      "name": "reuseCredit",
      "outputs": [],
      "stateMutability": "nonpayable",
      "type": "function"
    },
    {
      "inputs": [
        {
          "internalType": "uint256",
          "name": "amount",
          "type": "uint256"
        }
      ],
      "name": "withdraw",
      "outputs": [],
      "stateMutability": "nonpayable",
      "type": "function"
    },
    {
      "inputs": [],
      "name": "withdrawAll",
      "outputs": [],
      "stateMutability": "nonpayable",
      "type": "function"
    },
    {
      "inputs": [
        {
          "internalType": "uint256",
          "name": "NFTMarketId",
          "type": "uint256"
        },
        {
          "internalType": "address",
          "name": "addr",
          "type": "address"
        },
        {
          "internalType": "bytes",
          "name": "data",
          "type": "bytes"
        }
      ],
      "name": "withdrawAllFor",
      "outputs": [],
      "stateMutability": "nonpayable",
      "type": "function"
    },
    {
      "inputs": [
        {
          "internalType": "address",
          "name": "addr",
          "type": "address"
        }
      ],
      "name": "retrieveCredit",
      "outputs": [
        {
          "internalType": "uint256",
          "name": "",
          "type": "uint256"
        }
      ],
      "stateMutability": "view",
      "type": "function",
      "constant": true
    }
  ],
  "bytecode": "0x608060405234801561001057600080fd5b50615821806100206000396000f3fe60806040523480156200001157600080fd5b50600436106200018a5760003560e01c806303231e5d146200018f578063062a080014620001d3578063094a0ed214620001ec5780630bee185e1462000212578063173825d91462000229578063280931e714620002405780632be816c614620002575780632e1a7d4d146200026e5780632edbe7fc14620002855780632f02a3ec146200029857806330ade92214620002af57806334f2920714620002b9578063430c37cb14620002d0578063501781e814620002e7578063538b6aad14620002fe5780635888ebb314620003175780635b362e84146200033257806365b973e514620003445780636b299604146200034d5780637065cb48146200037357806376f8f90f146200038a578063853828b614620003a157806391c0734b14620003ab578063a93d5ed614620003c2578063ab3fa2a514620003cc578063c3079ae714620003e3578063c66433ea14620003ed578063ce33d58a1462000404578063d0e13918146200041b578063f3882e3a1462000425575b600080fd5b620001bb620001a03660046200461a565b6000908152600b60205260409020546001600160a01b031690565b604051620001ca9190620047e6565b60405180910390f35b620001ea620001e43660046200467a565b6200043c565b005b62000203620001fd3660046200461a565b6200067f565b604051620001ca919062004b1d565b620001ea6200022336600462004330565b620008cd565b620001ea6200023a366004620041b1565b62000a3f565b620001ea620002513660046200461a565b62000a82565b620001ea6200026836600462004545565b62000a92565b620001ea6200027f3660046200461a565b620010cf565b6006545b604051908152602001620001ca565b620001ea620002a936600462004227565b620010ee565b620001ea620012e1565b620001ea620002ca3660046200461a565b620012ef565b620001ea620002e136600462004378565b620012fc565b620001ea620002f8366004620041f8565b6200138e565b62000308620016be565b604051620001ca91906200499c565b6200032162001718565b604051620001ca9392919062004c08565b600a546001600160a01b0316620001bb565b60055462000289565b620003646200035e3660046200446c565b6200178e565b604051620001ca919062004987565b620001ea62000384366004620041b1565b62001857565b620001ea6200039b366004620041b1565b62001873565b620001ea620018cb565b620001ea620003bc366004620046bc565b62001983565b6200036462001c28565b620001ea620003dd36600462004634565b62001c8d565b620001ea62001d55565b620001ea620003fe3660046200461a565b62001d61565b620001ea62000415366004620041b1565b62001db8565b6200030862001dc5565b6200028962000436366004620041b1565b62001e1d565b83336200044a828262001ec3565b858562000458828262001f46565b73__ItemsLibrary__________________________63a86af8fc600f6000896001600160a01b03166001600160a01b0316815260200190815260200160002087600080600a60009054906101000a90046001600160a01b03166001600160a01b031663e220ad956040518163ffffffff1660e01b815260040160006040518083038186803b158015620004ea57600080fd5b505afa158015620004ff573d6000803e3d6000fd5b505050506040513d6000823e601f3d908101601f1916820160405262000529919081019062004285565b6006815181106200053e576200053e62004e07565b60200260200101516001600160a01b031663b049473f6040518163ffffffff1660e01b815260040160206040518083038186803b1580156200057f57600080fd5b505afa15801562000594573d6000803e3d6000fd5b505050506040513d601f19601f82011682018060405250810190620005ba9190620041d8565b6000604051806020016040528060008152506040518863ffffffff1660e01b8152600401620005f0979695949392919062004aaf565b60006040518083038186803b1580156200060957600080fd5b505af41580156200061e573d6000803e3d6000fd5b505050506200062f88888762001fc5565b856001600160a01b031687897fcc2a96ca4f9d89cc3dbd73baa3b6e6d19a2502464e6b9a28e0a9b9b11808bb34886040516200066d91815260200190565b60405180910390a45050505050505050565b6200068962003eca565b6000828152600d6020526040908190208151610160810190925280546001600160a01b031660a08301908152600182018054849291849160c085019190620006d19062004d80565b80601f0160208091040260200160405190810160405280929190818152602001828054620006ff9062004d80565b8015620007505780601f10620007245761010080835404028352916020019162000750565b820191906000526020600020905b8154815290600101906020018083116200073257829003601f168201915b505050505081526020016002820180546200076b9062004d80565b80601f0160208091040260200160405190810160405280929190818152602001828054620007999062004d80565b8015620007ea5780601f10620007be57610100808354040283529160200191620007ea565b820191906000526020600020905b815481529060010190602001808311620007cc57829003601f168201915b50505091835250506003820154602082015260048201546040820152600582015460609091019060ff16600181111562000828576200082862004df1565b60018111156200083c576200083c62004df1565b81525050815260200160068201548152602001600782015481526020016008820154815260200160098201805480602002602001604051908101604052809291908181526020018280548015620008bd57602002820191906000526020600020905b81546001600160a01b031681526001909101906020018083116200089e575b5050505050815250509050919050565b600054610100900460ff16620008ea5760005460ff1615620008ee565b303b155b620009165760405162461bcd60e51b81526004016200090d9062004a16565b60405180910390fd5b600054610100900460ff1615801562000939576000805461ffff19166101011790555b81835162000948828262001fe1565b60018462000957828262001fe1565b600586905560005b875181101562000a225760018060000160008a848151811062000986576200098662004e07565b6020908102919091018101516001600160a01b03168252810191909152604001600020805460ff19169115159190911790558751600290899083908110620009d257620009d262004e07565b60209081029190910181015182546001810184556000938452919092200180546001600160a01b0319166001600160a01b039092169190911790558062000a198162004dbd565b9150506200095f565b5050505050801562000a3a576000805461ff00191690555b505050565b80600162000a4e828262002004565b60055460025462000a629060019062004d37565b62000a6e828262001fe1565b62000a7b8560046200205d565b5050505050565b62000a8f816001620020f1565b50565b805181906001600160a01b031662000af95760405162461bcd60e51b8152602060048201526024808201527f4e4654204d61726b6574206f776e65722063616e6e6f742062652061646472656044820152630737320360e41b60648201526084016200090d565b6060810151608082015160405163bdbff48760e01b815273__Library_______________________________9263bdbff4879262000b3a9260040162004bfa565b60006040518083038186803b15801562000b5357600080fd5b505af415801562000b68573d6000803e3d6000fd5b5050505080602001515160001062000bb35760405162461bcd60e51b815260206004820152600d60248201526c4e616d6520697320656d70747960981b60448201526064016200090d565b80604001515160001062000bfc5760405162461bcd60e51b815260206004820152600f60248201526e53796d626f6c20697320656d70747960881b60448201526064016200090d565b600a546040805163e220ad9560e01b815290516000926001600160a01b03169163e220ad959160048083019286929190829003018186803b15801562000c4157600080fd5b505afa15801562000c56573d6000803e3d6000fd5b505050506040513d6000823e601f3d908101601f1916820160405262000c80919081019062004285565b60028151811062000c955762000c9562004e07565b60200260200101516001600160a01b031663b049473f6040518163ffffffff1660e01b815260040160006040518083038186803b15801562000cd657600080fd5b505afa15801562000ceb573d6000803e3d6000fd5b505050506040513d6000823e601f3d908101601f1916820160405262000d159190810190620043d8565b9050600081818151811062000d2e5762000d2e62004e07565b602002602001015190506000826001600881111562000d515762000d5162004df1565b8151811062000d645762000d6462004e07565b602002602001015190506000600a60009054906101000a90046001600160a01b03166001600160a01b031663e220ad956040518163ffffffff1660e01b815260040160006040518083038186803b15801562000dbf57600080fd5b505afa15801562000dd4573d6000803e3d6000fd5b505050506040513d6000823e601f3d908101601f1916820160405262000dfe919081019062004285565b60068151811062000e135762000e1362004e07565b60200260200101519050806001600160a01b031663f815611533600a60009054906101000a90046001600160a01b03166001600160a01b031663e220ad956040518163ffffffff1660e01b815260040160006040518083038186803b15801562000e7c57600080fd5b505afa15801562000e91573d6000803e3d6000fd5b505050506040513d6000823e601f3d908101601f1916820160405262000ebb919081019062004285565b60028151811062000ed05762000ed062004e07565b6020026020010151866000604051806020016040528060008152506040518663ffffffff1660e01b815260040162000f0d95949392919062004870565b600060405180830381600087803b15801562000f2857600080fd5b505af115801562000f3d573d6000803e3d6000fd5b50505050806001600160a01b031663f815611533600a60009054906101000a90046001600160a01b03166001600160a01b031663e220ad956040518163ffffffff1660e01b815260040160006040518083038186803b15801562000fa057600080fd5b505afa15801562000fb5573d6000803e3d6000fd5b505050506040513d6000823e601f3d908101601f1916820160405262000fdf919081019062004285565b60058151811062000ff45762000ff462004e07565b6020026020010151856000604051806020016040528060008152506040518663ffffffff1660e01b81526004016200103195949392919062004870565b600060405180830381600087803b1580156200104c57600080fd5b505af115801562001061573d6000803e3d6000fd5b5050505060208681015180519101206200107c818862002555565b807f88d341cdb636e2cf41b99330be584ef11888487c9b2aef53410ed90fb2c487ad886000015189602001518a60400151604051620010be9392919062004943565b60405180910390a250505050505050565b62000a8f338260008060405180602001604052806000815250620026ff565b600a546040805163e220ad9560e01b8152905133926001600160a01b03169163e220ad95916004808301926000929190829003018186803b1580156200113357600080fd5b505afa15801562001148573d6000803e3d6000fd5b505050506040513d6000823e601f3d908101601f1916820160405262001172919081019062004285565b60018151811062001187576200118762004e07565b60200260200101516001600160a01b0316816001600160a01b031614806200126a5750600a60009054906101000a90046001600160a01b03166001600160a01b031663e220ad956040518163ffffffff1660e01b815260040160006040518083038186803b158015620011f957600080fd5b505afa1580156200120e573d6000803e3d6000fd5b505050506040513d6000823e601f3d908101601f1916820160405262001238919081019062004285565b6006815181106200124d576200124d62004e07565b60200260200101516001600160a01b0316816001600160a01b0316145b620012ce5760405162461bcd60e51b815260206004820152602d60248201527f4974206973206e6f742066726f6d206f6e65206f66207468652063657274696660448201526c69656420636f6e74726163747360981b60648201526084016200090d565b620012db8484846200294c565b50505050565b620012ed600162002d71565b565b62000a8f816000620020f1565b600054610100900460ff16620013195760005460ff16156200131d565b303b155b6200133c5760405162461bcd60e51b81526004016200090d9062004a16565b600054610100900460ff161580156200135f576000805461ffff19166101011790555b6200136b8484620008cd565b620013768262002ecf565b8015620012db576000805461ff001916905550505050565b60408051600380825260808201909252600091602082016060803683375050604051631635719760e31b81526000600482015291925073__UintLibrary___________________________9163b1ab8cb8915060240160206040518083038186803b158015620013fd57600080fd5b505af415801562001412573d6000803e3d6000fd5b505050506040513d601f19601f82011682018060405250810190620014389190620044ac565b816000815181106200144e576200144e62004e07565b602090810291909101015260405163bc215e8560e01b815273__AddressLibrary________________________9063bc215e859062001492908690600401620047e6565b60206040518083038186803b158015620014ab57600080fd5b505af4158015620014c0573d6000803e3d6000fd5b505050506040513d601f19601f82011682018060405250810190620014e69190620044ac565b81600181518110620014fc57620014fc62004e07565b6020908102919091010152604051632431a7cf60e01b815260009073__Library_______________________________90632431a7cf90620015439085906004016200499c565b60006040518083038186803b1580156200155c57600080fd5b505af415801562001571573d6000803e3d6000fd5b505050506040513d6000823e601f3d908101601f191682016040526200159b9190810190620044c6565b90506000600a60009054906101000a90046001600160a01b03166001600160a01b031663e220ad956040518163ffffffff1660e01b815260040160006040518083038186803b158015620015ee57600080fd5b505afa15801562001603573d6000803e3d6000fd5b505050506040513d6000823e601f3d908101601f191682016040526200162d919081019062004285565b60068151811062001642576200164262004e07565b60200260200101519050806001600160a01b031663f81561153330876000876040518663ffffffff1660e01b81526004016200168395949392919062004870565b600060405180830381600087803b1580156200169e57600080fd5b505af1158015620016b3573d6000803e3d6000fd5b505050505050505050565b6060600e8054806020026020016040519081016040528092919081815260200182805480156200170e57602002820191906000526020600020905b815481526020019060010190808311620016f9575b5050505050905090565b60008060606007546008546009808054806020026020016040519081016040528092919081815260200182805480156200177c57602002820191906000526020600020905b81546001600160a01b031681526001909101906020018083116200175d575b50505050509050925092509250909192565b60608115620017f8576003805460408051602080840282018101909252828152929190830182828015620017ec57602002820191906000526020600020905b81546001600160a01b03168152600190910190602001808311620017cd575b50505050509050919050565b6004805460408051602080840282018101909252828152929190830182828015620017ec576020028201919060005260206000209081546001600160a01b03168152600190910190602001808311620017cd5750505050509050919050565b80600062001866828262002004565b62000a3a8360036200205d565b6200187e8162002f53565b151560011415620018be576002546200189a9060019062004d37565b6005541115620018be5760405162461bcd60e51b81526004016200090d90620049f7565b62000a8f81600162002fd8565b336000908152600f602052604080822090516326162dc360e01b8152600481019190915273__ItemsLibrary__________________________906326162dc39060240160206040518083038186803b1580156200192757600080fd5b505af41580156200193c573d6000803e3d6000fd5b505050506040513d601f19601f82011682018060405250810190620019629190620044ac565b905062000a8f338260008060405180602001604052806000815250620026ff565b873362001991828262001ec3565b60008a81526010602090815260408083208c84528252918290205482518883028181018401909452888152909290918991899182919085019084908082843760009201919091525050604080516020808a0282810182019093528982529093508992508891829185019084908082843760009201919091525062001a1d92508591508490508362003481565b89861462001a3f5760405162461bcd60e51b81526004016200090d9062004a64565b60005b8a81101562001bfc5773__ItemsLibrary__________________________6338335327600f60008f8f8681811062001a7e5762001a7e62004e07565b905060200201602081019062001a959190620041b1565b6001600160a01b03166001600160a01b031681526020019081526020016000208c8c8581811062001aca5762001aca62004e07565b905060200201358b8b8681811062001ae65762001ae662004e07565b905060200201356040518463ffffffff1660e01b815260040162001b0d9392919062004b07565b60006040518083038186803b15801562001b2657600080fd5b505af415801562001b3b573d6000803e3d6000fd5b505050508b8b8281811062001b545762001b5462004e07565b905060200201602081019062001b6b9190620041b1565b6001600160a01b03168d8f7f1f0966cb4dbc8738200b37503c6989e77e4e56383816b0632219dbc8c241b8b78d8d8681811062001bac5762001bac62004e07565b905060200201358c8c8781811062001bc85762001bc862004e07565b9050602002013560405162001bdf92919062004bfa565b60405180910390a48062001bf38162004dbd565b91505062001a42565b50505060009a8b525050601060209081526040808b20998b529890525050509385209490945550505050565b6060600180018054806020026020016040519081016040528092919081815260200182805480156200170e57602002820191906000526020600020905b81546001600160a01b0316815260019091019060200180831162001c65575050505050905090565b823362001c9b828262001ec3565b6001600160a01b0384166000908152600f602052604080822090516326162dc360e01b8152600481019190915273__ItemsLibrary__________________________906326162dc39060240160206040518083038186803b15801562001d0057600080fd5b505af415801562001d15573d6000803e3d6000fd5b505050506040513d601f19601f8201168201806040525081019062001d3b9190620044ac565b905062001d4d858233600188620026ff565b505050505050565b620012ed600062002d71565b33600162001d70828262002004565b600062001d7d8162003634565b600254849062001d8e828262001fe1565b60018662001d9d828262001fe1565b600688905562001dae600162002d71565b5050505050505050565b62000a8f81600062002fd8565b6060600c8054806020026020016040519081016040528092919081815260200182805480156200170e5760200282019190600052602060002090815481526020019060010190808311620016f9575050505050905090565b6001600160a01b0381166000908152600f602052604080822090516326162dc360e01b8152600481019190915273__ItemsLibrary__________________________906326162dc39060240160206040518083038186803b15801562001e8257600080fd5b505af415801562001e97573d6000803e3d6000fd5b505050506040513d601f19601f8201168201806040525081019062001ebd9190620044ac565b92915050565b6000828152600b60205260409020546001600160a01b0382811691161462001f425760405162461bcd60e51b815260206004820152602b60248201527f546865204d61726b657420496420616e64204164647265737320646f206e6f7460448201526a0818dbdc9c995cdc1bdb9960aa1b60648201526084016200090d565b5050565b60008281526010602090815260408083208484529091529020541562001f425760405162461bcd60e51b815260206004820152602d60248201527f556e61737369676e65642063726564697420666f72207468697320746f6b656e60448201526c206973206e6f7420656d70747960981b60648201526084016200090d565b6000928352601060209081526040808520938552929052912055565b8082111562001f425760405162461bcd60e51b81526004016200090d90620049f7565b6001600160a01b03821660009081526001602052604090205460ff1615158115151462001f425760405162461bcd60e51b81526004016200090d906020808252600490820152634543392d60e01b604082015260600190565b3360016200206c828262002004565b8360006200207b8282620036ae565b84546001808201875560008781526020812090920180546001600160a01b0319166001600160a01b038a161790558654620020b7919062004d37565b6001600160a01b0388166000908152600160208190526040909120600201829055909150620020e890889062002fd8565b50505050505050565b33600162002100828262002004565b6000848152600d602090815260409182902060090180548351818402810184019094528084523393928301828280156200216457602002820191906000526020600020905b81546001600160a01b0316815260019091019060200180831162002145575b505050505062002175828262003707565b6000868152600d602052604090205486906001600160a01b0316620021dd5760405162461bcd60e51b815260206004820152601d60248201527f5468697320697373756572206964206973206e6f742070656e64696e6700000060448201526064016200090d565b60408051338152871515602082015288917f5a1a88bd27a0cf1c470b27b132493e61efc1eaf3d1b57db0ab7f73182345d047910160405180910390a26000878152600d602090815260408220600901805460018101825590835291200180546001600160a01b031916331790558515620024d7576000878152600d60205260408120600701805491620022708362004dbd565b90915550506005546000888152600d602052604090206007015410620024d157600c805460018181019092557fdf6966c971051c3d54ec59162606531493a51404a002842f56009d7e5cf4a8c7018890556000888152600d6020526040902080549101805462002445926001600160a01b03169190620022f09062004d80565b80601f01602080910402602001604051908101604052809291908181526020018280546200231e9062004d80565b80156200236f5780601f1062002343576101008083540402835291602001916200236f565b820191906000526020600020905b8154815290600101906020018083116200235157829003601f168201915b50505060008c8152600d60205260409020600201805490925062002394915062004d80565b80601f0160208091040260200160405190810160405280929190818152602001828054620023c29062004d80565b8015620024135780601f10620023e75761010080835404028352916020019162002413565b820191906000526020600020905b815481529060010190602001808311620023f557829003601f168201915b50505060008d8152600d60205260409020600381015460048201546005909201549093509091508d9060ff16620037ce565b6000888152600b6020526040902080546001600160a01b0319166001600160a01b03929092169190911790556200247c8762003a86565b6000878152600b60205260409081902054905188917f2cedba2f59ec9c6a70e350caabb40ea15150e2bd297a517df51c1fbdbeacad3991620024c8916001600160a01b031690620047e6565b60405180910390a25b620020e8565b6000878152600d60205260408120600801805491620024f68362004dbd565b90915550506005546000888152600d602052604090206008015410620020e857620025218762003a86565b60405187907f403eabfde87045e1433576679912c142f6e51573d2635748e5331c62fbcfecc190600090a250505050505050565b6000828152600d60205260409020546001600160a01b03161580156200259057506000828152600b60205260409020546001600160a01b0316155b620025ee5760405162461bcd60e51b815260206004820152602760248201527f5468697320497373756572204e616d652068617320616c72656164792062656560448201526637103a30b5b2b760c91b60648201526084016200090d565b80516000838152600d6020908152604090912080546001600160a01b0319166001600160a01b03909316929092178255808301518051620026389360010192919091019062003f01565b506040808201516000848152600d602090815292902081516200266693600290920192919091019062003f01565b5060608101516000838152600d6020526040902060038101919091556080820151600482015560a08201516005909101805460ff191660018381811115620026b257620026b262004df1565b021790555050600e80546000838152600d60205260408120600601829055600182018355919091527fbb7b4a454dc3493923482f07822329ed19e8244eff582cc204f8554c3620c3fd0155565b6001600160a01b038086166000908152600f6020526040808220600a54825163e220ad9560e01b8152925173__ItemsLibrary__________________________9563a86af8fc9593948b948d9460019493169263e220ad95926004808201939291829003018186803b1580156200277557600080fd5b505afa1580156200278a573d6000803e3d6000fd5b505050506040513d6000823e601f3d908101601f19168201604052620027b4919081019062004285565b600681518110620027c957620027c962004e07565b60200260200101516001600160a01b031663b049473f6040518163ffffffff1660e01b815260040160206040518083038186803b1580156200280a57600080fd5b505afa1580156200281f573d6000803e3d6000fd5b505050506040513d601f19601f82011682018060405250810190620028459190620041d8565b88886040518863ffffffff1660e01b81526004016200286b979695949392919062004aaf565b60006040518083038186803b1580156200288457600080fd5b505af415801562002899573d6000803e3d6000fd5b505050506001600160a01b038316156200290157826001600160a01b0316856001600160a01b03167f3a7f8bf3f0d95026e8cd9a7d4ab518248a380c6e63e2611c19c360d4ed07469a86604051620028f391815260200190565b60405180910390a362000a7b565b846001600160a01b03167f2ea7968b99b8c24c37e3919ac458cdbab6b3d63ff9e271eddd29661aae4f7691856040516200293d91815260200190565b60405180910390a25050505050565b60405163caa8f58960e01b815260009073__Library_______________________________9063caa8f5899062002988908590600401620049e2565b60006040518083038186803b158015620029a157600080fd5b505af4158015620029b6573d6000803e3d6000fd5b505050506040513d6000823e601f3d908101601f19168201604052620029e09190810190620043d8565b9050600081600081518110620029fa57620029fa62004e07565b602002602001015160001c600181111562002a195762002a1962004df1565b905080600181111562002a305762002a3062004df1565b62002bc157600073__AddressLibrary________________________63f4ce9ae88460018151811062002a675762002a6762004e07565b60200260200101516040518263ffffffff1660e01b815260040162002a8e91815260200190565b60206040518083038186803b15801562002aa757600080fd5b505af415801562002abc573d6000803e3d6000fd5b505050506040513d601f19601f8201168201806040525081019062002ae29190620041d8565b6001600160a01b0381166000908152600f6020526040908190209051633833532760e01b815291925073__ItemsLibrary__________________________9163383353279162002b3a91899060019060040162004b07565b60006040518083038186803b15801562002b5357600080fd5b505af415801562002b68573d6000803e3d6000fd5b50505050856001600160a01b0316816001600160a01b03167f2db0422b7b00320178055968e2ebe34d54d66b98f662782bec28aaddcf8697e98760405162002bb291815260200190565b60405180910390a35062000a7b565b600073__UintLibrary___________________________630bd4715e8460018151811062002bf35762002bf362004e07565b60200260200101516040518263ffffffff1660e01b815260040162002c1a91815260200190565b60206040518083038186803b15801562002c3357600080fd5b505af415801562002c48573d6000803e3d6000fd5b505050506040513d601f19601f8201168201806040525081019062002c6e9190620044ac565b9050600073__UintLibrary___________________________630bd4715e8560028151811062002ca25762002ca262004e07565b60200260200101516040518263ffffffff1660e01b815260040162002cc991815260200190565b60206040518083038186803b15801562002ce257600080fd5b505af415801562002cf7573d6000803e3d6000fd5b505050506040513d601f19601f8201168201806040525081019062002d1d9190620044ac565b905062002d2c82828862001fc5565b80827f11d40ce091479b07ca14dc778720652f2760dc3237903b19ab5698a7cf478bcb8860405162002d6091815260200190565b60405180910390a350505050505050565b33600162002d80828262002004565b600162002d8d8162003634565b33600980548060200260200160405190810160405280929190818152602001828054801562002de657602002820191906000526020600020905b81546001600160a01b0316815260019091019060200180831162002dc7575b505050505062002df7828262003707565b851562002e1f5760016007600082825462002e13919062004cd7565b9091555062002e3a9050565b60016008600082825462002e34919062004cd7565b90915550505b600980546001810182556000919091527f6e1540171b6c0c960b71a7020d9f60077f6af931a8bbf590da0223dacf75c7af018054336001600160a01b031990911681179091556006546040805191825260208201929092528715158183015290517fb335599a2dd1eaaedeb810215d45e667a6c5ac7bcfd03c29e597db8bf0cddcc69181900360600190a162001d4d62003bd6565b600054610100900460ff1662002eec5760005460ff161562002ef0565b303b155b62002f0f5760405162461bcd60e51b81526004016200090d9062004a16565b600054610100900460ff1615801562002f32576000805461ffff19166101011790555b62002f3d8262003c7c565b801562001f42576000805461ff00191690555050565b6004546001600160a01b03821660009081526001602052604081206002015490911162002f8257506000919050565b6001600160a01b03821660009081526001602052604090206002015460048054909190811062002fb65762002fb662004e07565b6000918252602090912001546001600160a01b03928316921691909114919050565b33600162002fe7828262002004565b83600162002ff68282620036ae565b6001600160a01b03861660009081526001602090815260409182902060050180548351818402810184019094528084523393928301828280156200306457602002820191906000526020600020905b81546001600160a01b0316815260019091019060200180831162003045575b505050505062003075828262003707565b604080516001600160a01b038a1681523360208201528815158183015290517fc6f241efc3de3ce31d0e682102cc781f0605f0f90d72addfea699e4aea85dd799181900360600190a16001600160a01b038816600090815260016020818152604083206005018054928301815583529091200180546001600160a01b03191633179055861562003391576001600160a01b0388166000908152600160205260408120600301805491620031288362004dbd565b90915550506005546001600160a01b038916600090815260016020526040902060030154106200338b5760046200315f8962003d10565b1562003238575060028054600180820183557f405787fa12a823e0f2b7631cc41b3ba8828b3321ca811111fa75cd3aa3bb5ace90910180546001600160a01b0319166001600160a01b038c169081179091556000908152602082905260409020805460ff1916821790559054600391620031d99162004d37565b6001600160a01b038a166000908152600160208190526040918290200191909155517f45bbe5ceeddcb6d0b4045349efc87a3fde966578e3970cda6f53bfc76efaf9f7906200322a908b90620047e6565b60405180910390a16200337d565b6001600160a01b03891660009081526001602081905260409182902001549051633c39c19f60e11b815273__AddressLibrary________________________90637873833e906200329190849060029060040162004bfa565b60006040518083038186803b158015620032aa57600080fd5b505af4158015620032bf573d6000803e3d6000fd5b50506002548310159150620033199050578060016000016000600180018481548110620032f057620032f062004e07565b60009182526020808320909101546001600160a01b031683528201929092526040019020600101555b6001600160a01b038a166000908152600160208190526040808320805460ff1916815590910191909155517f82bcab3b042f3e2143a9d33d07fa130afdf763f17a45679670f0e39f12064ca89062003373908c90620047e6565b60405180910390a1505b62003389898262003d73565b505b62001dae565b6001600160a01b0388166000908152600160205260408120600401805491620033ba8362004dbd565b90915550506005546001600160a01b0389166000908152600160205260409020600401541062001dae576004620033f18962003d10565b156200343b57506040516003907f622a69297177c029df8c1ba7f4d2d59881089b571ae96800e634aff50d67492e906200342d908b90620047e6565b60405180910390a162003475565b7f547e31c58b802b63bc89f1109a132a291b0527c9196c97759829aeaecd3c2d39896040516200346c9190620047e6565b60405180910390a15b620016b3898262003d73565b8051825114620034a55760405162461bcd60e51b81526004016200090d9062004a64565b604051633c952fb360e21b815260009073__UintLibrary___________________________9063f254becc90620034e19085906004016200499c565b60206040518083038186803b158015620034fa57600080fd5b505af41580156200350f573d6000803e3d6000fd5b505050506040513d601f19601f82011682018060405250810190620035359190620044ac565b90506000805b8351811015620035bb578381815181106200355a576200355a62004e07565b60200260200101518386838151811062003578576200357862004e07565b60200260200101516200358c919062004d15565b62003598919062004cf2565b620035a4908362004cd7565b915080620035b28162004dbd565b9150506200353b565b5080620035c9838762004d15565b1462000a7b5760405162461bcd60e51b815260206004820152603360248201527f74686520746f74616c20616d6f756e74206973206e6f7420657175616c20746f604482015272207468652063616c63756c61746564206f6e6560681b60648201526084016200090d565b8015620036745760065462000a8f5760405162461bcd60e51b8152602060048201526005602482015264454333312d60d81b60448201526064016200090d565b6006541562000a8f5760405162461bcd60e51b8152602060048201526005602482015264454333302d60d81b60448201526064016200090d565b620036b98262003d10565b80620036cb5750620036cb8262002f53565b15158115151462001f425760405162461bcd60e51b8152602060048201526005602482015264454331302d60d81b60448201526064016200090d565b60405163f7cf62d760e01b815273__AddressLibrary________________________9063f7cf62d790620037429085908590600401620048b7565b60206040518083038186803b1580156200375b57600080fd5b505af415801562003770573d6000803e3d6000fd5b505050506040513d601f19601f820116820180604052508101906200379691906200448c565b1562001f425760405162461bcd60e51b81526004016200090d906020808252600490820152634543352d60e01b604082015260600190565b600080600a60009054906101000a90046001600160a01b03166001600160a01b031663efd621de6040518163ffffffff1660e01b815260040160006040518083038186803b1580156200382057600080fd5b505afa15801562003835573d6000803e3d6000fd5b505050506040513d6000823e601f3d908101601f191682016040526200385f919081019062004285565b60008151811062003874576200387462004e07565b602002602001015190506000600a60009054906101000a90046001600160a01b03166001600160a01b031663e220ad956040518163ffffffff1660e01b815260040160006040518083038186803b158015620038cf57600080fd5b505afa158015620038e4573d6000803e3d6000fd5b505050506040513d6000823e601f3d908101601f191682016040526200390e919081019062004285565b60028151811062003923576200392362004e07565b60200260200101516001600160a01b031663b049473f6040518163ffffffff1660e01b815260040160006040518083038186803b1580156200396457600080fd5b505afa15801562003979573d6000803e3d6000fd5b505050506040513d6000823e601f3d908101601f19168201604052620039a39190810190620043d8565b600881518110620039b857620039b862004e07565b6020908102919091010151600a549091506000906001600160a01b03168b8b8b858c8c8c8c6001811115620039f157620039f162004df1565b60405160240162003a0b99989796959493929190620047fa565b60408051601f198184030181529181526020820180516001600160e01b03166398a7541d60e01b179052519091506000908490839062003a4b9062003f90565b62003a5892919062004915565b604051809103906000f08015801562003a75573d6000803e3d6000fd5b509c9b505050505050505050505050565b6000818152600d60205260409081902060060154905163cffd93cd60e01b815273__UintLibrary___________________________9063cffd93cd9062003ad5908490600e9060040162004bfa565b60006040518083038186803b15801562003aee57600080fd5b505af415801562003b03573d6000803e3d6000fd5b5050505080600e80549050111562003b515780600d6000600e848154811062003b305762003b3062004e07565b90600052602060002001548152602001908152602001600020600601819055505b6000828152600d6020526040812080546001600160a01b03191681559062003b7d600183018262003f9e565b62003b8d60028301600062003f9e565b50600060038201819055600482018190556005909101805460ff19169055828152600d60205260408120600781018290556008810182905562001f429160099091019062003fdd565b62003be660075460055462003e8e565b1562003c325760065460058190556040519081527f09cfdf09b84b5390e2f9e64a6b66bdfd4e3b7a611dfdd07cde2f5289ecdaace7906020015b60405180910390a1620012ed62003eab565b62003c4260085460055462003e8e565b15620012ed577f6005dc34d50a3e2ea64571b58119d8a81074b8e2db57a77c28e664641733308f60065460405162003c2091815260200190565b600054610100900460ff1662003c995760005460ff161562003c9d565b303b155b62003cbc5760405162461bcd60e51b81526004016200090d9062004a16565b600054610100900460ff1615801562003cdf576000805461ffff19166101011790555b600a80546001600160a01b0319166001600160a01b038416179055801562001f42576000805461ff00191690555050565b6003546001600160a01b03821660009081526001602052604081206002015490911162003d3f57506000919050565b6001600160a01b03821660009081526001602052604090206002015460038054909190811062002fb65762002fb662004e07565b6001600160a01b03821660009081526001602052604090819020600201549051633c39c19f60e11b815273__AddressLibrary________________________90637873833e9062003dcb908490869060040162004bfa565b60006040518083038186803b15801562003de457600080fd5b505af415801562003df9573d6000803e3d6000fd5b50505050808280549050111562003e5057806001600001600084848154811062003e275762003e2762004e07565b60009182526020808320909101546001600160a01b031683528201929092526040019020600201555b6001600160a01b038316600090815260016020526040812060028101829055600381018290556004810182905562000a3a9160059091019062003fdd565b60008183101562003ea25750600062001ebd565b50600192915050565b6000600681905560078190556008819055620012ed9060099062003fdd565b6040518060a0016040528062003edf62003ffd565b8152602001600081526020016000815260200160008152602001606081525090565b82805462003f0f9062004d80565b90600052602060002090601f01602090048101928262003f33576000855562003f7e565b82601f1062003f4e57805160ff191683800117855562003f7e565b8280016001018555821562003f7e579182015b8281111562003f7e57825182559160200191906001019062003f61565b5062003f8c9291506200404f565b5090565b6109938062004e5983390190565b50805462003fac9062004d80565b6000825580601f1062003fbd575050565b601f01602090049060005260206000209081019062000a8f91906200404f565b508054600082559060005260206000209081019062000a8f91906200404f565b6040518060c0016040528060006001600160a01b0316815260200160608152602001606081526020016000815260200160008152602001600060018111156200404a576200404a62004df1565b905290565b5b8082111562003f8c576000815560010162004050565b8035620040738162004e33565b919050565b60008083601f8401126200408b57600080fd5b5081356001600160401b03811115620040a357600080fd5b6020830191508360208260051b8501011115620040bf57600080fd5b9250929050565b600082601f830112620040d857600080fd5b81356020620040f1620040eb8362004c87565b62004c54565b80838252828201915082860187848660051b89010111156200411257600080fd5b60005b858110156200413e5781356200412b8162004e33565b8452928401929084019060010162004115565b5090979650505050505050565b600082601f8301126200415d57600080fd5b81356200416e620040eb8262004cad565b8181528460208386010111156200418457600080fd5b816020850160208301376000918101602001919091529392505050565b8035600281106200407357600080fd5b600060208284031215620041c457600080fd5b8135620041d18162004e33565b9392505050565b600060208284031215620041eb57600080fd5b8151620041d18162004e33565b600080604083850312156200420c57600080fd5b8235620042198162004e33565b946020939093013593505050565b6000806000606084860312156200423d57600080fd5b83356200424a8162004e33565b92506020840135915060408401356001600160401b038111156200426d57600080fd5b6200427b868287016200414b565b9150509250925092565b600060208083850312156200429957600080fd5b82516001600160401b03811115620042b057600080fd5b8301601f81018513620042c257600080fd5b8051620042d3620040eb8262004c87565b80828252848201915084840188868560051b8701011115620042f457600080fd5b600094505b83851015620043245780516200430f8162004e33565b835260019490940193918501918501620042f9565b50979650505050505050565b600080604083850312156200434457600080fd5b82356001600160401b038111156200435b57600080fd5b6200436985828601620040c6565b95602094909401359450505050565b6000806000606084860312156200438e57600080fd5b83356001600160401b03811115620043a557600080fd5b620043b386828701620040c6565b935050602084013591506040840135620043cd8162004e33565b809150509250925092565b60006020808385031215620043ec57600080fd5b82516001600160401b038111156200440357600080fd5b8301601f810185136200441557600080fd5b805162004426620040eb8262004c87565b80828252848201915084840188868560051b87010111156200444757600080fd5b600094505b83851015620043245780518352600194909401939185019185016200444c565b6000602082840312156200447f57600080fd5b8135620041d18162004e49565b6000602082840312156200449f57600080fd5b8151620041d18162004e49565b600060208284031215620044bf57600080fd5b5051919050565b600060208284031215620044d957600080fd5b81516001600160401b03811115620044f057600080fd5b8201601f810184136200450257600080fd5b805162004513620040eb8262004cad565b8181528560208385010111156200452957600080fd5b6200453c82602083016020860162004d51565b95945050505050565b6000602082840312156200455857600080fd5b81356001600160401b03808211156200457057600080fd5b9083019060c082860312156200458557600080fd5b6200458f62004c29565b6200459a8362004066565b8152602083013582811115620045af57600080fd5b620045bd878286016200414b565b602083015250604083013582811115620045d657600080fd5b620045e4878286016200414b565b60408301525060608301356060820152608083013560808201526200460c60a08401620041a1565b60a082015295945050505050565b6000602082840312156200462d57600080fd5b5035919050565b6000806000606084860312156200464a57600080fd5b8335925060208401356200465e8162004e33565b915060408401356001600160401b038111156200426d57600080fd5b600080600080608085870312156200469157600080fd5b84359350602085013592506040850135620046ac8162004e33565b9396929550929360600135925050565b60008060008060008060008060a0898b031215620046d957600080fd5b883597506020890135965060408901356001600160401b0380821115620046ff57600080fd5b6200470d8c838d0162004078565b909850965060608b01359150808211156200472757600080fd5b620047358c838d0162004078565b909650945060808b01359150808211156200474f57600080fd5b506200475e8b828c0162004078565b999c989b5096995094979396929594505050565b600081518084526020808501945080840160005b83811015620047ad5781516001600160a01b03168752958201959082019060010162004786565b509495945050505050565b60008151808452620047d281602086016020860162004d51565b601f01601f19169290920160200192915050565b6001600160a01b0391909116815260200190565b6001600160a01b038a811682528916602082015261012060408201819052600090620048298382018b620047b8565b905082810360608401526200483f818a620047b8565b6080840198909852505060a081019490945260c084019290925260e083015260ff1661010090910152949350505050565b6001600160a01b03868116825285166020820152604081018490526060810183905260a060808201819052600090620048ac90830184620047b8565b979650505050505050565b6001600160a01b038381168252604060208084018290528451918401829052600092858201929091906060860190855b8181101562004907578551851683529483019491830191600101620048e7565b509098975050505050505050565b6001600160a01b03831681526040602082018190526000906200493b90830184620047b8565b949350505050565b6001600160a01b03841681526060602082018190526000906200496990830185620047b8565b82810360408401526200497d8185620047b8565b9695505050505050565b602081526000620041d1602083018462004772565b6020808252825182820181905260009190848201906040850190845b81811015620049d657835183529284019291840191600101620049b8565b50909695505050505050565b602081526000620041d16020830184620047b8565b602080825260059082015264454331392d60d81b604082015260600190565b6020808252602e908201527f496e697469616c697a61626c653a20636f6e747261637420697320616c72656160408201526d191e481a5b9a5d1a585b1a5e995960921b606082015260800190565b6020808252602b908201527f50726f76696465642061727261797320646f206e6f742068617665207468652060408201526a0e6c2daca40d8cadccee8d60ab1b606082015260800190565b878152602081018790526001600160a01b03868116604083015285151560608301528416608082015282151560a082015260e060c0820181905260009062004afa90830184620047b8565b9998505050505050505050565b9283526020830191909152604082015260600190565b602081526000825160a0602084015260018060a01b0381511660c0840152602081015160c060e085015262004b57610180850182620047b8565b9050604082015160bf198583030161010086015262004b778282620047b8565b9150506060820151610120850152608082015161014085015260a082015191506002821062004bb657634e487b7160e01b600052602160045260246000fd5b8161016085015260208501516040850152604085015160608501526060850151608085015260808501519150601f198482030160a08501526200453c818362004772565b918252602082015260400190565b8381528260208201526060604082015260006200453c606083018462004772565b60405160c081016001600160401b038111828210171562004c4e5762004c4e62004e1d565b60405290565b604051601f8201601f191681016001600160401b038111828210171562004c7f5762004c7f62004e1d565b604052919050565b60006001600160401b0382111562004ca35762004ca362004e1d565b5060051b60200190565b60006001600160401b0382111562004cc95762004cc962004e1d565b50601f01601f191660200190565b6000821982111562004ced5762004ced62004ddb565b500190565b60008262004d1057634e487b7160e01b600052601260045260246000fd5b500490565b600081600019048311821515161562004d325762004d3262004ddb565b500290565b60008282101562004d4c5762004d4c62004ddb565b500390565b60005b8381101562004d6e57818101518382015260200162004d54565b83811115620012db5750506000910152565b600181811c9082168062004d9557607f821691505b6020821081141562004db757634e487b7160e01b600052602260045260246000fd5b50919050565b600060001982141562004dd45762004dd462004ddb565b5060010190565b634e487b7160e01b600052601160045260246000fd5b634e487b7160e01b600052602160045260246000fd5b634e487b7160e01b600052603260045260246000fd5b634e487b7160e01b600052604160045260246000fd5b6001600160a01b038116811462000a8f57600080fd5b801515811462000a8f57600080fdfe608060405260405161099338038061099383398101604081905261002291610470565b61004d60017fa3f0ad74e5423aebfd80d3ef4346578335a9a72aeaee59ff6cb3582b35133d5161057f565b60008051602061094c83398151915214610069576100696105d0565b6100758282600061007c565b50506105fc565b61008583610156565b6040516001600160a01b038416907f1cf3b03a6cf19fa2baba4df148e9dcabedea7f8a5c07840e207e5c089be95d3e90600090a26000825111806100c65750805b156101515761014f836001600160a01b0316635c60da1b6040518163ffffffff1660e01b815260040160206040518083038186803b15801561010757600080fd5b505afa15801561011b573d6000803e3d6000fd5b505050506040513d601f19601f8201168201806040525081019061013f9190610455565b836102f660201b6100291760201c565b505b505050565b6101698161032260201b6100551760201c565b6101c85760405162461bcd60e51b815260206004820152602560248201527f455243313936373a206e657720626561636f6e206973206e6f74206120636f6e6044820152641d1c9858dd60da1b60648201526084015b60405180910390fd5b61024b816001600160a01b0316635c60da1b6040518163ffffffff1660e01b815260040160206040518083038186803b15801561020457600080fd5b505afa158015610218573d6000803e3d6000fd5b505050506040513d601f19601f8201168201806040525081019061023c9190610455565b61032260201b6100551760201c565b6102b05760405162461bcd60e51b815260206004820152603060248201527f455243313936373a20626561636f6e20696d706c656d656e746174696f6e206960448201526f1cc81b9bdd08184818dbdb9d1c9858dd60821b60648201526084016101bf565b806102d560008051602061094c83398151915260001b61032860201b61005b1760201c565b80546001600160a01b0319166001600160a01b039290921691909117905550565b606061031b838360405180606001604052806027815260200161096c6027913961032b565b9392505050565b3b151590565b90565b6060833b61038a5760405162461bcd60e51b815260206004820152602660248201527f416464726573733a2064656c65676174652063616c6c20746f206e6f6e2d636f6044820152651b9d1c9858dd60d21b60648201526084016101bf565b600080856001600160a01b0316856040516103a59190610530565b600060405180830381855af49150503d80600081146103e0576040519150601f19603f3d011682016040523d82523d6000602084013e6103e5565b606091505b5090925090506103f6828286610400565b9695505050505050565b6060831561040f57508161031b565b82511561041f5782518084602001fd5b8160405162461bcd60e51b81526004016101bf919061054c565b80516001600160a01b038116811461045057600080fd5b919050565b60006020828403121561046757600080fd5b61031b82610439565b6000806040838503121561048357600080fd5b61048c83610439565b60208401519092506001600160401b03808211156104a957600080fd5b818501915085601f8301126104bd57600080fd5b8151818111156104cf576104cf6105e6565b604051601f8201601f19908116603f011681019083821181831017156104f7576104f76105e6565b8160405282815288602084870101111561051057600080fd5b6105218360208301602088016105a4565b80955050505050509250929050565b600082516105428184602087016105a4565b9190910192915050565b602081526000825180602084015261056b8160408501602087016105a4565b601f01601f19169190910160400192915050565b60008282101561059f57634e487b7160e01b600052601160045260246000fd5b500390565b60005b838110156105bf5781810151838201526020016105a7565b8381111561014f5750506000910152565b634e487b7160e01b600052600160045260246000fd5b634e487b7160e01b600052604160045260246000fd5b6103418061060b6000396000f3fe60806040523661001357610011610017565b005b6100115b61002761002261005e565b610106565b565b606061004e83836040518060600160405280602781526020016102e56027913961012a565b9392505050565b3b151590565b90565b60006100917fa3f0ad74e5423aebfd80d3ef4346578335a9a72aeaee59ff6cb3582b35133d50546001600160a01b031690565b6001600160a01b0316635c60da1b6040518163ffffffff1660e01b815260040160206040518083038186803b1580156100c957600080fd5b505afa1580156100dd573d6000803e3d6000fd5b505050506040513d601f19601f82011682018060405250810190610101919061023c565b905090565b3660008037600080366000845af43d6000803e808015610125573d6000f35b3d6000fd5b6060833b61018e5760405162461bcd60e51b815260206004820152602660248201527f416464726573733a2064656c65676174652063616c6c20746f206e6f6e2d636f6044820152651b9d1c9858dd60d21b60648201526084015b60405180910390fd5b600080856001600160a01b0316856040516101a99190610265565b600060405180830381855af49150503d80600081146101e4576040519150601f19603f3d011682016040523d82523d6000602084013e6101e9565b606091505b50915091506101f9828286610203565b9695505050505050565b6060831561021257508161004e565b8251156102225782518084602001fd5b8160405162461bcd60e51b81526004016101859190610281565b60006020828403121561024e57600080fd5b81516001600160a01b038116811461004e57600080fd5b600082516102778184602087016102b4565b9190910192915050565b60208152600082518060208401526102a08160408501602087016102b4565b601f01601f19169190910160400192915050565b60005b838110156102cf5781810151838201526020016102b7565b838111156102de576000848401525b5050505056fe416464726573733a206c6f772d6c6576656c2064656c65676174652063616c6c206661696c6564a2646970667358221220148d20618ce0e4acd0b179dccf12503163fb589ddd8df806d6d9c09a8f4adc1064736f6c63430008070033a3f0ad74e5423aebfd80d3ef4346578335a9a72aeaee59ff6cb3582b35133d50416464726573733a206c6f772d6c6576656c2064656c65676174652063616c6c206661696c6564a2646970667358221220627647cc50be0de4a0fd232d8eee9abdca9cc69293773d58b91908153fccd1f464736f6c63430008070033",
  "immutableReferences": {},
  "source": "// SPDX-License-Identifier: GPL-3.0\r\n\r\npragma solidity 0.8.7;\r\n\r\n/**\r\n Certis Token is an ERC20 Token that grants its holder the right to:\r\n   - Vote on all the systems propositions (changing system configuraiton etc...)\r\n   - Receive Dividends for all the payments forwarded to the Treasury contract\r\n\r\nBefore every token transfer we contact the token gouvernance Base contracts so that the can update the tokens used for voting if needed\r\n\r\n */\r\n\r\nimport \"@openzeppelin/contracts-upgradeable/proxy/utils/Initializable.sol\";\r\nimport \"../Interfaces/IPool.sol\";\r\nimport \"../Interfaces/ITreasury.sol\";\r\nimport \"../Base/MultiSigContract.sol\";\r\nimport \"../Libraries/ItemsLibrary.sol\";\r\nimport \"../Libraries/UintLibrary.sol\";\r\nimport \"../Libraries/Library.sol\";\r\nimport \"../Libraries/AddressLibrary.sol\";\r\nimport \"@openzeppelin/contracts/proxy/beacon/BeaconProxy.sol\";\r\nimport \"../Base/CreditorBaseContract.sol\";\r\nimport \"../Interfaces/IPayments.sol\";\r\n\r\n\r\n contract PublicPool is  Initializable, MultiSigContract, CreditorBaseContract, IPool {\r\n  using ItemsLibrary for *;\r\n  using UintLibrary for *;\r\n  using Library for *;\r\n  using AddressLibrary for *;\r\n\r\n\r\n  // EVENTS /////////////////////////////////////////\r\n  event _NewIssuerRequest(uint256 indexed id, address owner, string name, string symbol);\r\n  event _VoteForIssuer(uint256 indexed id, address voter, bool vote);\r\n  event _IssuerValidation(uint256 indexed id, address NFTMarket);\r\n  event _IssuerRejection(uint256 indexed id);\r\n\r\n  event _CreditReceived(address indexed receiver, uint256 amount, address indexed sender);\r\n  event _CreditUnAssignedReceived(uint256 indexed NFTMarketId, uint256 indexed tokenID, uint256 amount);\r\n  event _CreditAssigned(uint256 indexed NFTMarketId, uint256 indexed tokenID, address indexed receiver, uint256 amount, uint256 factor);\r\n  event _CreditReused(uint256 indexed NFTMarketId, uint256 indexed tokenID, address indexed creditor, uint256 amount);\r\n  event _CreditWithdrawn(address indexed withdrawer, uint256 amount);\r\n  event _CreditWithdrawnFor(address indexed withdrawer, uint256 amount, address indexed sender);\r\n\r\n\r\n  // DATA /////////////////////////////////////////\r\n  mapping(uint256 => address) private _issuers;\r\n  uint256[] private _listOfIssuers;\r\n\r\n  mapping(uint256 => _pendingIssuerStruct) private _pendingIssuers;\r\n  uint256[] private _listOfPendingIssuers;\r\n\r\n  mapping(address => ItemsLibrary._BalanceStruct) private _creditOfAccount;\r\n  mapping(uint256 => mapping(uint256 => uint256)) private _unassignedCreditForMarket;\r\n\r\n\r\n\r\n  // MODIFIERS /////////////////////////////////////////\r\n  modifier IssuerPending(uint256 id){\r\n      require(address(0) != _pendingIssuers[id]._issuer._owner, \"This issuer id is not pending\");\r\n      _;\r\n  }\r\n\r\n  modifier validIssuerRequest(ItemsLibrary._issuerStruct memory requestedIssuer){\r\n    require(address(0) != requestedIssuer._owner, \"NFT Market owner cannot be address 0\");\r\n    Library.validFees(requestedIssuer._feeAmount, requestedIssuer._feeDecimals);\r\n    require(0 < bytes(requestedIssuer._name).length, \"Name is empty\");\r\n    require(0 < bytes(requestedIssuer._symbol).length, \"Symbol is empty\");\r\n     _;\r\n  }\r\n\r\n  modifier isNFTMarket(uint256 MarketId, address MarketAddress){\r\n      isNFTMarketFunc(MarketId, MarketAddress);\r\n      _;\r\n  }\r\n\r\n  function isNFTMarketFunc(uint256 MarketId, address MarketAddress) internal view{\r\n    require(MarketAddress == _issuers[MarketId], \"The Market Id and Address do not correspond\");\r\n  }\r\n\r\n  modifier isTokenUnassignedCreditEmpty(uint256 NFTMarketId, uint256 tokenID){\r\n    isTokenUnassignedCreditEmptyFunc(NFTMarketId, tokenID);\r\n    _;\r\n  }\r\n\r\n  function isTokenUnassignedCreditEmptyFunc(uint256 NFTMarketId, uint256 tokenID) internal view{\r\n    require(0 == _unassignedCreditForMarket[NFTMarketId][tokenID], \"Unassigned credit for this token is not empty\");\r\n  }\r\n\r\n  modifier checkTotal(uint256 total, uint256[] memory amounts, uint256[] memory factors){\r\n    checkTotalFunc(total, amounts, factors);\r\n    _;\r\n  }\r\n\r\n  function checkTotalFunc(uint256 total, uint256[] memory amounts, uint256[] memory factors) internal pure{\r\n    require(amounts.length == factors.length, \"Provided arrays do not have the same length\");\r\n    uint256 CommonDividend = UintLibrary.ProductOfFactors(factors);\r\n    uint256 calculatedTotal = 0;\r\n    for(uint256 i=0; i < factors.length; i++){\r\n        calculatedTotal += amounts[i] * CommonDividend / factors[i];\r\n    }\r\n    require((total * CommonDividend) == calculatedTotal, \"the total amount is not equal to the calculated one\");\r\n  }\r\n\r\n  // CONSTRUCTOR /////////////////////////////////////////\r\n  function PublicPool_init(address[] memory owners,  uint256 minOwners, address managerContractAddress) public initializer {\r\n      super.MultiSigContract_init(owners, minOwners); \r\n      super.CreditorBaseContract_init(managerContractAddress); \r\n  }\r\n\r\n  // FUNCTIONALITY /////////////////////////////////////////\r\n  function onCreditReceived(address sender, uint256 amount, bytes memory data) internal override\r\n  {\r\n    bytes32[] memory receivedData = Library.BytestoBytes32(data);\r\n    Library.PublicPoolPaymentTypes paymentType = Library.PublicPoolPaymentTypes(uint256(receivedData[0]));\r\n\r\n    if(Library.PublicPoolPaymentTypes.SendCredit == paymentType){\r\n      address account = AddressLibrary.Bytes32ToAddress(receivedData[1]);\r\n      ItemsLibrary.addBalance(_creditOfAccount[account], amount, 1);\r\n      emit _CreditReceived(account, amount, sender);\r\n    }\r\n\r\n    else{\r\n      uint256 NFTMarketId = UintLibrary.Bytes32ToUint(receivedData[1]);\r\n      uint256 tokenID = UintLibrary.Bytes32ToUint(receivedData[2]);\r\n      internalTransferUnassignedCredit(NFTMarketId, tokenID, amount);\r\n      emit _CreditUnAssignedReceived(NFTMarketId, tokenID, amount);\r\n    }\r\n     \r\n  }\r\n\r\n  function requestIssuer(ItemsLibrary._issuerStruct memory requestedIssuer) external override\r\n    validIssuerRequest(requestedIssuer)\r\n  {\r\n\r\n    uint[] memory Prices = ITreasury(_managerContract.retrieveTransparentProxies()[uint256(Library.TransparentProxies.Treasury)]).retrieveSettings();\r\n    uint256 NewIssuerFee = Prices[uint256(Library.Prices.NewIssuerFee)];\r\n    uint256 AdminNewIssuerFee = Prices[uint256(Library.Prices.AdminNewIssuerFee)];\r\n\r\n    IPayments payments = IPayments(_managerContract.retrieveTransparentProxies()[uint256(Library.TransparentProxies.Payments)]);\r\n    payments.TransferFrom(msg.sender, _managerContract.retrieveTransparentProxies()[uint256(Library.TransparentProxies.Treasury)], NewIssuerFee, 0, bytes(\"\"));\r\n    payments.TransferFrom(msg.sender, _managerContract.retrieveTransparentProxies()[uint256(Library.TransparentProxies.AdminPiggyBank)], AdminNewIssuerFee, 0, bytes(\"\"));\r\n\r\n    uint256 IssuerID = getIssuerIdFromName(requestedIssuer._name);\r\n\r\n    addPendingIssuer(IssuerID, requestedIssuer);\r\n\r\n    emit _NewIssuerRequest(IssuerID, requestedIssuer._owner, requestedIssuer._name, requestedIssuer._symbol);\r\n  }\r\n\r\n  function addPendingIssuer(uint256 IssuerID, ItemsLibrary._issuerStruct memory requestedIssuer) internal\r\n  {\r\n\r\n    require(address(0) == _pendingIssuers[IssuerID]._issuer._owner && address(0) == _issuers[IssuerID], \"This Issuer Name has already been taken\");\r\n\r\n    _pendingIssuers[IssuerID]._issuer._owner = requestedIssuer._owner;\r\n    _pendingIssuers[IssuerID]._issuer._name = requestedIssuer._name;\r\n    _pendingIssuers[IssuerID]._issuer._symbol = requestedIssuer._symbol;\r\n    _pendingIssuers[IssuerID]._issuer._feeAmount = requestedIssuer._feeAmount;\r\n    _pendingIssuers[IssuerID]._issuer._feeDecimals = requestedIssuer._feeDecimals;\r\n    _pendingIssuers[IssuerID]._issuer._paymentPlan = requestedIssuer._paymentPlan;\r\n    _pendingIssuers[IssuerID]._pendingId = _listOfPendingIssuers.length;\r\n    _listOfPendingIssuers.push(IssuerID);\r\n  }\r\n\r\n  function getIssuerIdFromName(string memory name) internal pure returns(uint256)\r\n  {\r\n    return uint256(keccak256(bytes(name)));\r\n  }\r\n\r\n  function validateIssuer(uint256 id) external override\r\n  {\r\n    voteForIssuer(id, true);\r\n  }\r\n\r\n  function rejectIssuer(uint id) external override\r\n  {\r\n    voteForIssuer(id, false);\r\n  }\r\n\r\n  function voteForIssuer(uint id, bool vote) internal\r\n    isAnOwner(msg.sender, true)\r\n    HasNotAlreadyVoted(msg.sender, _pendingIssuers[id]._voters)\r\n    IssuerPending(id)\r\n  {\r\n    emit _VoteForIssuer(id, msg.sender, vote);\r\n\r\n    _pendingIssuers[id]._voters.push(msg.sender);\r\n        \r\n    if(vote){\r\n        _pendingIssuers[id]._validations++;\r\n\r\n        if(_pendingIssuers[id]._validations >= _minOwners){\r\n            _listOfIssuers.push(id);\r\n            _issuers[id] = GenerateNewNFTMarket(_pendingIssuers[id]._issuer._owner, _pendingIssuers[id]._issuer._name, _pendingIssuers[id]._issuer._symbol, _pendingIssuers[id]._issuer._feeAmount, _pendingIssuers[id]._issuer._feeDecimals, id, _pendingIssuers[id]._issuer._paymentPlan);\r\n            deletingPendingIssuer(id);\r\n            emit _IssuerValidation(id, _issuers[id]);\r\n        }\r\n    }\r\n    else{\r\n        _pendingIssuers[id]._rejections++;\r\n\r\n        if(_pendingIssuers[id]._rejections >= _minOwners){\r\n            deletingPendingIssuer(id);\r\n            emit _IssuerRejection(id);\r\n        }\r\n    }\r\n  }\r\n\r\n  function deletingPendingIssuer(uint256 id) internal\r\n  {\r\n    uint pos = _pendingIssuers[id]._pendingId;\r\n    UintLibrary.UintArrayRemoveResize(pos, _listOfPendingIssuers);\r\n    if(_listOfPendingIssuers.length > pos) _pendingIssuers[_listOfPendingIssuers[pos]]._pendingId = pos;\r\n\r\n    delete(_pendingIssuers[id]._issuer);\r\n    delete(_pendingIssuers[id]._validations);\r\n    delete(_pendingIssuers[id]._rejections);\r\n    delete(_pendingIssuers[id]._voters);\r\n  }\r\n\r\n  function GenerateNewNFTMarket(address owner, string memory name, string memory symbol, uint256 feeAmount, uint256 feeDecimals, uint256 id, Library.PaymentPlans paymentPlan) internal returns(address)\r\n  {\r\n    address beaconAddress = _managerContract.retrieveBeacons()[uint256(Library.Beacons.NFT)];\r\n    uint256 OffersLifeTime = ITreasury(_managerContract.retrieveTransparentProxies()[uint256(Library.TransparentProxies.Treasury)]).retrieveSettings()[uint256(Library.Prices.OffersLifeTime)];\r\n    bytes memory data = abi.encodeWithSignature(\"NFTMarket_init(address,address,string,string,uint256,uint256,uint256,uint256,uint8)\", address(_managerContract), owner, name, symbol, OffersLifeTime, feeAmount, feeDecimals, id, uint8(paymentPlan));\r\n\r\n    BeaconProxy beaconProxy = new BeaconProxy(beaconAddress, data);\r\n\r\n    return address(beaconProxy);\r\n  }\r\n\r\n  function retrieveIssuers() external override view returns (uint[] memory)\r\n  {\r\n    return _listOfIssuers;\r\n  }\r\n\r\n  function retrieveNFTMarketForIssuer(uint id) external override view returns (address)\r\n  {\r\n    return _issuers[id];\r\n  }\r\n\r\n  function retrievePendingIssuers() external override view returns (uint[] memory)\r\n  {\r\n    return _listOfPendingIssuers;\r\n  }\r\n\r\n  function retrievePendingIssuer(uint id) external override view returns (_pendingIssuerStruct memory)\r\n  {\r\n    return _pendingIssuers[id];\r\n  }\r\n\r\n  // Credit Functionality\r\n\r\n  function sendCredit(address addr, uint256 amount) external override\r\n  {\r\n    bytes32[] memory dataArray = new bytes32[](3);\r\n    dataArray[0] = UintLibrary.UintToBytes32(uint256(Library.PublicPoolPaymentTypes.SendCredit));\r\n    dataArray[1] = AddressLibrary.AddressToBytes32(addr);\r\n    bytes memory data = Library.Bytes32ArrayToBytes(dataArray);\r\n\r\n    IPayments payments = IPayments(_managerContract.retrieveTransparentProxies()[uint256(Library.TransparentProxies.Payments)]);\r\n    payments.TransferFrom(msg.sender, address(this), amount, 0, data);\r\n  }\r\n\r\n  function addCredit(uint256 NFTMarketId, uint256 tokenID, address[] calldata addrs, uint256[] calldata amounts, uint256[] calldata factors) external override\r\n    isNFTMarket(NFTMarketId, msg.sender)\r\n    checkTotal(_unassignedCreditForMarket[NFTMarketId][tokenID], amounts, factors)\r\n  {\r\n    require(addrs.length == factors.length, \"Provided arrays do not have the same length\");\r\n    for(uint i=0; i < addrs.length; i++){\r\n      ItemsLibrary.addBalance(_creditOfAccount[addrs[i]], amounts[i], factors[i]);\r\n      emit _CreditAssigned(NFTMarketId, tokenID, addrs[i], amounts[i], factors[i]);\r\n    }\r\n    delete(_unassignedCreditForMarket[NFTMarketId][tokenID]);\r\n  }\r\n\r\n  function reuseCredit(uint256 NFTMarketId, uint256 tokenID, address addr, uint256 amount) external override\r\n    isNFTMarket(NFTMarketId, msg.sender)\r\n    isTokenUnassignedCreditEmpty(NFTMarketId, tokenID)\r\n  {\r\n    ItemsLibrary.InternalWithdraw(\r\n      _creditOfAccount[addr], \r\n      amount, \r\n      address(0), \r\n      false, \r\n      IPayments(_managerContract.retrieveTransparentProxies()[uint256(Library.TransparentProxies.Payments)]).retrieveSettings(),\r\n      false,\r\n      bytes(\"\")\r\n    );\r\n    internalTransferUnassignedCredit(NFTMarketId, tokenID, amount);\r\n    emit _CreditReused(NFTMarketId, tokenID, addr, amount);\r\n  }\r\n\r\n  function withdraw(uint amount) external override\r\n  {\r\n    internalWithdraw(msg.sender, amount, address(0), false, bytes(\"\"));\r\n  }\r\n  \r\n  function withdrawAll() external override\r\n  {\r\n    uint amount = ItemsLibrary.checkFullBalance(_creditOfAccount[msg.sender]);\r\n    internalWithdraw(msg.sender, amount, address(0), false, bytes(\"\"));\r\n  }\r\n  \r\n  function withdrawAllFor(uint256 NFTMarketId, address addr, bytes memory data) external override\r\n    isNFTMarket(NFTMarketId, msg.sender)\r\n  {\r\n    uint amount = ItemsLibrary.checkFullBalance(_creditOfAccount[addr]);\r\n    internalWithdraw(addr, amount, msg.sender, true, data);\r\n  }\r\n\r\n  function internalTransferUnassignedCredit(uint256 NFTMarketId, uint256 tokenID, uint256 amount) internal\r\n  {\r\n      _unassignedCreditForMarket[NFTMarketId][tokenID] = amount;\r\n  }\r\n\r\n  function internalWithdraw(address addr, uint amount, address sender, bool sendData, bytes memory data) internal\r\n  {\r\n    ItemsLibrary.InternalWithdraw(\r\n      _creditOfAccount[addr], \r\n      amount, \r\n      addr, \r\n      true, \r\n      IPayments(_managerContract.retrieveTransparentProxies()[uint256(Library.TransparentProxies.Payments)]).retrieveSettings(),\r\n      sendData,\r\n      data\r\n    );\r\n    if(address(0) != sender) emit _CreditWithdrawnFor(addr, amount, sender);\r\n    else emit _CreditWithdrawn(addr, amount);\r\n  }\r\n\r\n  function retrieveCredit(address addr) external override view returns (uint256)\r\n  {\r\n    return ItemsLibrary.checkFullBalance(_creditOfAccount[addr]);\r\n  }\r\n\r\n\r\n\r\n }",
  "sourcePath": "C:\\Users\\d-aam\\GitHub\\Originals\\contracts\\MainContracts\\PublicPool.sol",
  "compiler": {
    "name": "solc",
    "version": "0.8.7+commit.e28d00a7.Emscripten.clang"
  },
  "schemaVersion": "3.4.3",
  "updatedAt": "2022-02-22T13:10:39.896Z",
  "networkType": "ethereum",
  "devdoc": {
    "kind": "dev",
    "methods": {},
    "version": 1
  },
  "userdoc": {
    "kind": "user",
    "methods": {},
    "version": 1
  }
}