{
  "contractName": "PublicPool",
  "abi": [
    {
      "anonymous": false,
      "inputs": [
        {
          "indexed": false,
          "internalType": "address",
          "name": "owner",
          "type": "address"
        }
      ],
      "name": "_AddOwnerRejection",
      "type": "event"
    },
    {
      "anonymous": false,
      "inputs": [
        {
          "indexed": false,
          "internalType": "address",
          "name": "owner",
          "type": "address"
        }
      ],
      "name": "_AddOwnerValidation",
      "type": "event"
    },
    {
      "anonymous": false,
      "inputs": [
        {
          "indexed": true,
          "internalType": "uint256",
          "name": "id",
          "type": "uint256"
        }
      ],
      "name": "_IssuerRejection",
      "type": "event"
    },
    {
      "anonymous": false,
      "inputs": [
        {
          "indexed": true,
          "internalType": "uint256",
          "name": "id",
          "type": "uint256"
        },
        {
          "indexed": false,
          "internalType": "address",
          "name": "NFTMarket",
          "type": "address"
        }
      ],
      "name": "_IssuerValidation",
      "type": "event"
    },
    {
      "anonymous": false,
      "inputs": [
        {
          "indexed": false,
          "internalType": "uint256",
          "name": "minOwner",
          "type": "uint256"
        }
      ],
      "name": "_MinOwnerRejection",
      "type": "event"
    },
    {
      "anonymous": false,
      "inputs": [
        {
          "indexed": false,
          "internalType": "uint256",
          "name": "minOwner",
          "type": "uint256"
        }
      ],
      "name": "_MinOwnerValidation",
      "type": "event"
    },
    {
      "anonymous": false,
      "inputs": [
        {
          "indexed": true,
          "internalType": "uint256",
          "name": "id",
          "type": "uint256"
        },
        {
          "indexed": false,
          "internalType": "address",
          "name": "owner",
          "type": "address"
        },
        {
          "indexed": false,
          "internalType": "string",
          "name": "name",
          "type": "string"
        },
        {
          "indexed": false,
          "internalType": "string",
          "name": "symbol",
          "type": "string"
        }
      ],
      "name": "_NewIssuerRequest",
      "type": "event"
    },
    {
      "anonymous": false,
      "inputs": [
        {
          "indexed": false,
          "internalType": "address",
          "name": "owner",
          "type": "address"
        }
      ],
      "name": "_RemoveOwnerRejection",
      "type": "event"
    },
    {
      "anonymous": false,
      "inputs": [
        {
          "indexed": false,
          "internalType": "address",
          "name": "owner",
          "type": "address"
        }
      ],
      "name": "_RemoveOwnerValidation",
      "type": "event"
    },
    {
      "anonymous": false,
      "inputs": [
        {
          "indexed": true,
          "internalType": "uint256",
          "name": "id",
          "type": "uint256"
        },
        {
          "indexed": false,
          "internalType": "address",
          "name": "voter",
          "type": "address"
        },
        {
          "indexed": false,
          "internalType": "bool",
          "name": "vote",
          "type": "bool"
        }
      ],
      "name": "_VoteForIssuer",
      "type": "event"
    },
    {
      "anonymous": false,
      "inputs": [
        {
          "indexed": false,
          "internalType": "uint256",
          "name": "minOwner",
          "type": "uint256"
        },
        {
          "indexed": false,
          "internalType": "address",
          "name": "voter",
          "type": "address"
        },
        {
          "indexed": false,
          "internalType": "bool",
          "name": "vote",
          "type": "bool"
        }
      ],
      "name": "_VoteForMinOwner",
      "type": "event"
    },
    {
      "anonymous": false,
      "inputs": [
        {
          "indexed": false,
          "internalType": "address",
          "name": "owner",
          "type": "address"
        },
        {
          "indexed": false,
          "internalType": "address",
          "name": "voter",
          "type": "address"
        },
        {
          "indexed": false,
          "internalType": "bool",
          "name": "vote",
          "type": "bool"
        }
      ],
      "name": "_VoteForOwner",
      "type": "event"
    },
    {
      "inputs": [
        {
          "internalType": "address[]",
          "name": "owners",
          "type": "address[]"
        },
        {
          "internalType": "uint256",
          "name": "minOwners",
          "type": "uint256"
        }
      ],
      "name": "MultiSigContract_init",
      "outputs": [],
      "stateMutability": "nonpayable",
      "type": "function"
    },
    {
      "inputs": [
        {
          "internalType": "address",
          "name": "owner",
          "type": "address"
        }
      ],
      "name": "addOwner",
      "outputs": [],
      "stateMutability": "nonpayable",
      "type": "function"
    },
    {
      "inputs": [
        {
          "internalType": "uint256",
          "name": "newMinOwners",
          "type": "uint256"
        }
      ],
      "name": "changeMinOwners",
      "outputs": [],
      "stateMutability": "nonpayable",
      "type": "function"
    },
    {
      "inputs": [],
      "name": "rejectMinOwners",
      "outputs": [],
      "stateMutability": "nonpayable",
      "type": "function"
    },
    {
      "inputs": [
        {
          "internalType": "address",
          "name": "owner",
          "type": "address"
        }
      ],
      "name": "rejectOwner",
      "outputs": [],
      "stateMutability": "nonpayable",
      "type": "function"
    },
    {
      "inputs": [
        {
          "internalType": "address",
          "name": "owner",
          "type": "address"
        }
      ],
      "name": "removeOwner",
      "outputs": [],
      "stateMutability": "nonpayable",
      "type": "function"
    },
    {
      "inputs": [],
      "name": "retrieveAllOwners",
      "outputs": [
        {
          "internalType": "address[]",
          "name": "",
          "type": "address[]"
        }
      ],
      "stateMutability": "view",
      "type": "function"
    },
    {
      "inputs": [],
      "name": "retrieveManagerContract",
      "outputs": [
        {
          "internalType": "address",
          "name": "",
          "type": "address"
        }
      ],
      "stateMutability": "view",
      "type": "function"
    },
    {
      "inputs": [],
      "name": "retrieveMinOwners",
      "outputs": [
        {
          "internalType": "uint256",
          "name": "",
          "type": "uint256"
        }
      ],
      "stateMutability": "view",
      "type": "function"
    },
    {
      "inputs": [],
      "name": "retrievePendingMinOwners",
      "outputs": [
        {
          "internalType": "uint256",
          "name": "",
          "type": "uint256"
        }
      ],
      "stateMutability": "view",
      "type": "function"
    },
    {
      "inputs": [],
      "name": "retrievePendingMinOwnersStatus",
      "outputs": [
        {
          "internalType": "uint256",
          "name": "",
          "type": "uint256"
        },
        {
          "internalType": "uint256",
          "name": "",
          "type": "uint256"
        },
        {
          "internalType": "address[]",
          "name": "",
          "type": "address[]"
        }
      ],
      "stateMutability": "view",
      "type": "function"
    },
    {
      "inputs": [
        {
          "internalType": "bool",
          "name": "addedORremove",
          "type": "bool"
        }
      ],
      "name": "retrievePendingOwners",
      "outputs": [
        {
          "internalType": "address[]",
          "name": "",
          "type": "address[]"
        }
      ],
      "stateMutability": "view",
      "type": "function"
    },
    {
      "inputs": [],
      "name": "validateMinOwners",
      "outputs": [],
      "stateMutability": "nonpayable",
      "type": "function"
    },
    {
      "inputs": [
        {
          "internalType": "address",
          "name": "owner",
          "type": "address"
        }
      ],
      "name": "validateOwner",
      "outputs": [],
      "stateMutability": "nonpayable",
      "type": "function"
    },
    {
      "inputs": [
        {
          "internalType": "address[]",
          "name": "owners",
          "type": "address[]"
        },
        {
          "internalType": "uint256",
          "name": "minOwners",
          "type": "uint256"
        },
        {
          "internalType": "address",
          "name": "managerContractAddress",
          "type": "address"
        }
      ],
      "name": "PublicPool_init",
      "outputs": [],
      "stateMutability": "nonpayable",
      "type": "function"
    },
    {
      "inputs": [
        {
          "internalType": "address",
          "name": "owner",
          "type": "address"
        },
        {
          "internalType": "string",
          "name": "name",
          "type": "string"
        },
        {
          "internalType": "string",
          "name": "symbol",
          "type": "string"
        },
        {
          "internalType": "uint256",
          "name": "feeAmount",
          "type": "uint256"
        },
        {
          "internalType": "uint256",
          "name": "feeDecimals",
          "type": "uint256"
        },
        {
          "internalType": "enum Library.PaymentPlans",
          "name": "paymentPlan",
          "type": "uint8"
        }
      ],
      "name": "requestIssuer",
      "outputs": [
        {
          "internalType": "uint256",
          "name": "",
          "type": "uint256"
        }
      ],
      "stateMutability": "payable",
      "type": "function"
    },
    {
      "inputs": [
        {
          "internalType": "uint256",
          "name": "id",
          "type": "uint256"
        }
      ],
      "name": "validateIssuer",
      "outputs": [],
      "stateMutability": "nonpayable",
      "type": "function"
    },
    {
      "inputs": [
        {
          "internalType": "uint256",
          "name": "id",
          "type": "uint256"
        }
      ],
      "name": "rejectIssuer",
      "outputs": [],
      "stateMutability": "nonpayable",
      "type": "function"
    },
    {
      "inputs": [],
      "name": "retrieveIssuers",
      "outputs": [
        {
          "internalType": "uint256[]",
          "name": "",
          "type": "uint256[]"
        }
      ],
      "stateMutability": "view",
      "type": "function"
    },
    {
      "inputs": [
        {
          "internalType": "uint256",
          "name": "id",
          "type": "uint256"
        }
      ],
      "name": "retrieveNFTMarketForIssuer",
      "outputs": [
        {
          "internalType": "address",
          "name": "",
          "type": "address"
        }
      ],
      "stateMutability": "view",
      "type": "function"
    },
    {
      "inputs": [],
      "name": "retrievePendingIssuers",
      "outputs": [
        {
          "internalType": "uint256[]",
          "name": "",
          "type": "uint256[]"
        }
      ],
      "stateMutability": "view",
      "type": "function"
    },
    {
      "inputs": [
        {
          "internalType": "uint256",
          "name": "id",
          "type": "uint256"
        }
      ],
      "name": "retrievePendingIssuer",
      "outputs": [
        {
          "components": [
            {
              "components": [
                {
                  "internalType": "address",
                  "name": "_owner",
                  "type": "address"
                },
                {
                  "internalType": "string",
                  "name": "_name",
                  "type": "string"
                },
                {
                  "internalType": "string",
                  "name": "_symbol",
                  "type": "string"
                },
                {
                  "internalType": "uint256",
                  "name": "_feeAmount",
                  "type": "uint256"
                },
                {
                  "internalType": "uint256",
                  "name": "_feeDecimals",
                  "type": "uint256"
                },
                {
                  "internalType": "enum Library.PaymentPlans",
                  "name": "_paymentPlan",
                  "type": "uint8"
                }
              ],
              "internalType": "struct ItemsLibrary._issuerStruct",
              "name": "_issuer",
              "type": "tuple"
            },
            {
              "internalType": "uint256",
              "name": "_pendingId",
              "type": "uint256"
            },
            {
              "internalType": "uint256",
              "name": "_validations",
              "type": "uint256"
            },
            {
              "internalType": "uint256",
              "name": "_rejections",
              "type": "uint256"
            },
            {
              "internalType": "address[]",
              "name": "_voters",
              "type": "address[]"
            }
          ],
          "internalType": "struct IPool._pendingIssuerStruct",
          "name": "",
          "type": "tuple"
        }
      ],
      "stateMutability": "view",
      "type": "function"
    },
    {
      "inputs": [
        {
          "internalType": "address",
          "name": "addr",
          "type": "address"
        }
      ],
      "name": "sendCredit",
      "outputs": [],
      "stateMutability": "payable",
      "type": "function"
    },
    {
      "inputs": [
        {
          "internalType": "uint256",
          "name": "NFTMarketId",
          "type": "uint256"
        },
        {
          "internalType": "uint256",
          "name": "tokenID",
          "type": "uint256"
        }
      ],
      "name": "transferUnassignedCredit",
      "outputs": [],
      "stateMutability": "payable",
      "type": "function"
    },
    {
      "inputs": [
        {
          "internalType": "uint256",
          "name": "NFTMarketId",
          "type": "uint256"
        },
        {
          "internalType": "uint256",
          "name": "tokenID",
          "type": "uint256"
        },
        {
          "internalType": "address[]",
          "name": "addrs",
          "type": "address[]"
        },
        {
          "internalType": "uint256[]",
          "name": "amounts",
          "type": "uint256[]"
        },
        {
          "internalType": "uint256[]",
          "name": "factors",
          "type": "uint256[]"
        }
      ],
      "name": "addCredit",
      "outputs": [],
      "stateMutability": "nonpayable",
      "type": "function"
    },
    {
      "inputs": [
        {
          "internalType": "uint256",
          "name": "NFTMarketId",
          "type": "uint256"
        },
        {
          "internalType": "uint256",
          "name": "tokenID",
          "type": "uint256"
        },
        {
          "internalType": "address",
          "name": "addr",
          "type": "address"
        },
        {
          "internalType": "uint256",
          "name": "amount",
          "type": "uint256"
        }
      ],
      "name": "reuseCredit",
      "outputs": [],
      "stateMutability": "nonpayable",
      "type": "function"
    },
    {
      "inputs": [
        {
          "internalType": "uint256",
          "name": "amount",
          "type": "uint256"
        }
      ],
      "name": "withdraw",
      "outputs": [],
      "stateMutability": "nonpayable",
      "type": "function"
    },
    {
      "inputs": [],
      "name": "withdrawAll",
      "outputs": [],
      "stateMutability": "nonpayable",
      "type": "function"
    },
    {
      "inputs": [
        {
          "internalType": "uint256",
          "name": "NFTMarketId",
          "type": "uint256"
        },
        {
          "internalType": "address",
          "name": "addr",
          "type": "address"
        }
      ],
      "name": "withdrawAllFor",
      "outputs": [],
      "stateMutability": "nonpayable",
      "type": "function"
    },
    {
      "inputs": [
        {
          "internalType": "address",
          "name": "addr",
          "type": "address"
        }
      ],
      "name": "retrieveCredit",
      "outputs": [
        {
          "internalType": "uint256",
          "name": "",
          "type": "uint256"
        }
      ],
      "stateMutability": "view",
      "type": "function"
    }
  ],
  "bytecode": "0x608060405234801561001057600080fd5b5061476e806100206000396000f3fe6080604052600436106200017c5760003560e01c806303231e5d1462000181578063062a080014620001d3578063094a0ed214620001fa5780630bee185e146200022e578063173825d91462000253578063280931e714620002785780632e1a7d4d146200029d5780632edbe7fc14620002c257806330ade92214620002e357806334f2920714620002fb578063430c37cb1462000320578063538b6aad14620003455780635888ebb3146200036c5780635b362e84146200039557806365b973e514620003b55780636b29960414620003cc5780637065cb48146200040057806376f8f90f14620004255780637b76e09e146200044a578063853828b6146200046157806391c0734b1462000479578063a93d5ed6146200049e578063c3079ae714620004b6578063c50afbcd14620004ce578063c66433ea14620004e5578063ce33d58a146200050a578063d0e13918146200052f578063edb492c81462000547578063eec42872146200055e578063f3882e3a1462000583575b600080fd5b3480156200018e57600080fd5b50620001bb620001a03660046200360d565b6000908152600b60205260409020546001600160a01b031690565b604051620001ca919062003825565b60405180910390f35b348015620001e057600080fd5b50620001f8620001f236600462003697565b620005a8565b005b3480156200020757600080fd5b506200021f620002193660046200360d565b62000687565b604051620001ca919062003ace565b3480156200023b57600080fd5b50620001f86200024d36600462003491565b620008d5565b3480156200026057600080fd5b50620001f86200027236600462003315565b62000a47565b3480156200028557600080fd5b50620001f8620002973660046200360d565b62000a8a565b348015620002aa57600080fd5b50620001f8620002bc3660046200360d565b62000a9a565b348015620002cf57600080fd5b506006545b604051908152602001620001ca565b348015620002f057600080fd5b50620001f862000aa6565b3480156200030857600080fd5b50620001f86200031a3660046200360d565b62000ab4565b3480156200032d57600080fd5b50620001f86200033f366004620034d9565b62000ac1565b3480156200035257600080fd5b506200035d62000b59565b604051620001ca919062003994565b3480156200037957600080fd5b506200038462000bb3565b604051620001ca9392919062003bd9565b348015620003a257600080fd5b50600a546001600160a01b0316620001bb565b348015620003c257600080fd5b50600554620002d4565b348015620003d957600080fd5b50620003f1620003eb366004620035cd565b62000c29565b604051620001ca91906200397f565b3480156200040d57600080fd5b50620001f86200041f36600462003315565b62000cf2565b3480156200043257600080fd5b50620001f86200044436600462003315565b62000d0e565b620001f86200045b36600462003674565b62000d66565b3480156200046e57600080fd5b50620001f862000dba565b3480156200048657600080fd5b50620001f862000498366004620036d9565b62000e5f565b348015620004ab57600080fd5b50620003f16200105d565b348015620004c357600080fd5b50620001f8620010c2565b620002d4620004df3660046200333c565b620010ce565b348015620004f257600080fd5b50620001f8620005043660046200360d565b6200176e565b3480156200051757600080fd5b50620001f86200052936600462003315565b620017c5565b3480156200053c57600080fd5b506200035d620017d2565b620001f86200055836600462003315565b6200182a565b3480156200056b57600080fd5b50620001f86200057d36600462003641565b620018ae565b3480156200059057600080fd5b50620002d4620005a236600462003315565b6200196a565b8333620005b6828262001a10565b8585620005c4828262001a93565b6001600160a01b0386166000908152601060205260408082209051637e9f902d60e11b815273__ItemsLibrary__________________________9263fd3f205a92620006199290918a91819060040162003a92565b60006040518083038186803b1580156200063257600080fd5b505af415801562000647573d6000803e3d6000fd5b50505060008981526011602090815260408083208b8452909152812080548893509091906200067890849062003c53565b90915550505050505050505050565b6200069162003030565b6000828152600d6020526040908190208151610160810190925280546001600160a01b031660a08301908152600182018054849291849160c085019190620006d99062003ccd565b80601f0160208091040260200160405190810160405280929190818152602001828054620007079062003ccd565b8015620007585780601f106200072c5761010080835404028352916020019162000758565b820191906000526020600020905b8154815290600101906020018083116200073a57829003601f168201915b50505050508152602001600282018054620007739062003ccd565b80601f0160208091040260200160405190810160405280929190818152602001828054620007a19062003ccd565b8015620007f25780601f10620007c657610100808354040283529160200191620007f2565b820191906000526020600020905b815481529060010190602001808311620007d457829003601f168201915b50505091835250506003820154602082015260048201546040820152600582015460609091019060ff16600181111562000830576200083062003d3e565b600181111562000844576200084462003d3e565b81525050815260200160068201548152602001600782015481526020016008820154815260200160098201805480602002602001604051908101604052809291908181526020018280548015620008c557602002820191906000526020600020905b81546001600160a01b03168152600190910190602001808311620008a6575b5050505050815250509050919050565b600054610100900460ff16620008f25760005460ff1615620008f6565b303b155b6200091e5760405162461bcd60e51b81526004016200091590620039f9565b60405180910390fd5b600054610100900460ff1615801562000941576000805461ffff19166101011790555b81835162000950828262001b12565b6001846200095f828262001b12565b600586905560005b875181101562000a2a5760018060000160008a84815181106200098e576200098e62003d54565b6020908102919091018101516001600160a01b03168252810191909152604001600020805460ff19169115159190911790558751600290899083908110620009da57620009da62003d54565b60209081029190910181015182546001810184556000938452919092200180546001600160a01b0319166001600160a01b039092169190911790558062000a218162003d0a565b91505062000967565b5050505050801562000a42576000805461ff00191690555b505050565b80600162000a56828262001b35565b60055460025462000a6a9060019062003cb3565b62000a76828262001b12565b62000a8385600462001b8f565b5050505050565b62000a9781600162001c23565b50565b62000a97338262002010565b62000ab260016200209e565b565b62000a9781600062001c23565b600054610100900460ff1662000ade5760005460ff161562000ae2565b303b155b62000b015760405162461bcd60e51b81526004016200091590620039f9565b600054610100900460ff1615801562000b24576000805461ffff19166101011790555b62000b308484620008d5565b62000b3b82620021b3565b6000600f55801562000b53576000805461ff00191690555b50505050565b6060600e80548060200260200160405190810160405280929190818152602001828054801562000ba957602002820191906000526020600020905b81548152602001906001019080831162000b94575b5050505050905090565b600080606060075460085460098080548060200260200160405190810160405280929190818152602001828054801562000c1757602002820191906000526020600020905b81546001600160a01b0316815260019091019060200180831162000bf8575b50505050509050925092509250909192565b6060811562000c9357600380546040805160208084028201810190925282815292919083018282801562000c8757602002820191906000526020600020905b81546001600160a01b0316815260019091019060200180831162000c68575b50505050509050919050565b600480546040805160208084028201810190925282815292919083018282801562000c87576020028201919060005260206000209081546001600160a01b0316815260019091019060200180831162000c685750505050509050919050565b80600062000d01828262001b35565b62000a4283600362001b8f565b62000d198162002247565b15156001141562000d595760025462000d359060019062003cb3565b600554111562000d595760405162461bcd60e51b81526004016200091590620039da565b62000a978160016200229d565b813362000d74828262001a10565b838362000d82828262001a93565b60008681526011602090815260408083208884529091528120805434929062000dad90849062003c53565b9091555050505050505050565b3360009081526010602052604080822090516326162dc360e01b8152600481019190915273__ItemsLibrary__________________________906326162dc39060240160206040518083038186803b15801562000e1657600080fd5b505af415801562000e2b573d6000803e3d6000fd5b505050506040513d601f19601f8201168201806040525081019062000e51919062003627565b905062000a97338262002010565b873362000e6d828262001a10565b60008a81526011602090815260408083208c84528252918290205482518883028181018401909452888152909290918991899182919085019084908082843760009201919091525050604080516020808a0282810182019093528982529093508992508891829185019084908082843760009201919091525062000ef992508591508490508362002751565b89861462000f1b5760405162461bcd60e51b8152600401620009159062003a47565b60005b8a811015620010315773__ItemsLibrary__________________________6338335327601060008f8f8681811062000f5a5762000f5a62003d54565b905060200201602081019062000f71919062003315565b6001600160a01b03166001600160a01b031681526020019081526020016000208c8c8581811062000fa65762000fa662003d54565b905060200201358b8b8681811062000fc25762000fc262003d54565b905060200201356040518463ffffffff1660e01b815260040162000fe99392919062003ab8565b60006040518083038186803b1580156200100257600080fd5b505af415801562001017573d6000803e3d6000fd5b505050508080620010289062003d0a565b91505062000f1e565b50505060009a8b525050601160209081526040808b20998b529890525050509385209490945550505050565b60606001800180548060200260200160405190810160405280929190818152602001828054801562000ba957602002820191906000526020600020905b81546001600160a01b031681526001909101906020018083116200109a575050505050905090565b62000ab260006200209e565b6000866001600160a01b038116620011355760405162461bcd60e51b8152602060048201526024808201527f4e4654204d61726b6574206f776e65722063616e6e6f742062652061646472656044820152630737320360e41b606482015260840162000915565b848473__Library_______________________________63bdbff48783836040518363ffffffff1660e01b81526004016200117292919062003bcb565b60006040518083038186803b1580156200118b57600080fd5b505af4158015620011a0573d6000803e3d6000fd5b505050506000600a60009054906101000a90046001600160a01b03166001600160a01b031663e220ad956040518163ffffffff1660e01b815260040160006040518083038186803b158015620011f557600080fd5b505afa1580156200120a573d6000803e3d6000fd5b505050506040513d6000823e601f3d908101601f19168201604052620012349190810190620033e6565b60028151811062001249576200124962003d54565b60200260200101516001600160a01b031663b049473f6040518163ffffffff1660e01b815260040160006040518083038186803b1580156200128a57600080fd5b505afa1580156200129f573d6000803e3d6000fd5b505050506040513d6000823e601f3d908101601f19168201604052620012c9919081019062003539565b90506000818181518110620012e257620012e262003d54565b602002602001015190506000826001600881111562001305576200130562003d3e565b8151811062001318576200131862003d54565b60200260200101519050808262001330919062003c53565b3410156200137e5760405162461bcd60e51b815260206004820152601a60248201527909ccaee4092e6e6eacae4408ccacae640dcdee840cadcdeeaced60331b604482015260640162000915565b73__ItemsLibrary__________________________632ac0cb2383600a60009054906101000a90046001600160a01b03166001600160a01b031663e220ad956040518163ffffffff1660e01b815260040160006040518083038186803b158015620013e857600080fd5b505afa158015620013fd573d6000803e3d6000fd5b505050506040513d6000823e601f3d908101601f19168201604052620014279190810190620033e6565b6002815181106200143c576200143c62003d54565b60200260200101516040518363ffffffff1660e01b81526004016200146392919062003bb4565b60006040518083038186803b1580156200147c57600080fd5b505af415801562001491573d6000803e3d6000fd5b5050505073__ItemsLibrary__________________________632ac0cb238334620014bd919062003cb3565b600a60009054906101000a90046001600160a01b03166001600160a01b031663e220ad956040518163ffffffff1660e01b815260040160006040518083038186803b1580156200150c57600080fd5b505afa15801562001521573d6000803e3d6000fd5b505050506040513d6000823e601f3d908101601f191682016040526200154b9190810190620033e6565b60058151811062001560576200156062003d54565b60200260200101516040518363ffffffff1660e01b81526004016200158792919062003bb4565b60006040518083038186803b158015620015a057600080fd5b505af4158015620015b5573d6000803e3d6000fd5b505050508c600d6000600f54815260200190815260200160002060000160000160006101000a8154816001600160a01b0302191690836001600160a01b031602179055508b600d6000600f54815260200190815260200160002060000160010190805190602001906200162a92919062003067565b50600f546000908152600d602090815260409091208c5162001655926002909201918e019062003067565b50600f80546000908152600d60205260408082206003018d9055825482528082206004018c90559154815220600501805489919060ff191660018381811115620016a357620016a362003d3e565b0217905550600e80549050600d6000600f54815260200190815260200160002060060181905550600e600f549080600181540180825580915050600190039060005260206000200160009091909190915055600f547f88d341cdb636e2cf41b99330be584ef11888487c9b2aef53410ed90fb2c487ad8e8e8e6040516200172d939291906200393b565b60405180910390a2600f8054906000620017478362003d0a565b91905055506001600f546200175d919062003cb3565b9d9c50505050505050505050505050565b3360016200177d828262001b35565b60006200178a81620028f9565b60025484906200179b828262001b12565b600186620017aa828262001b12565b6006889055620017bb60016200209e565b5050505050505050565b62000a978160006200229d565b6060600c80548060200260200160405190810160405280929190818152602001828054801562000ba9576020028201919060005260206000209081548152602001906001019080831162000b94575050505050905090565b6001600160a01b038116600090815260106020526040908190209051633833532760e01b815273__ItemsLibrary__________________________91633833532791620018809190349060019060040162003ab8565b60006040518083038186803b1580156200189957600080fd5b505af415801562000a83573d6000803e3d6000fd5b8133620018bc828262001a10565b6001600160a01b03831660009081526010602052604080822090516326162dc360e01b8152600481019190915273__ItemsLibrary__________________________906326162dc39060240160206040518083038186803b1580156200192157600080fd5b505af415801562001936573d6000803e3d6000fd5b505050506040513d601f19601f820116820180604052508101906200195c919062003627565b905062000a83848262002010565b6001600160a01b03811660009081526010602052604080822090516326162dc360e01b8152600481019190915273__ItemsLibrary__________________________906326162dc39060240160206040518083038186803b158015620019cf57600080fd5b505af4158015620019e4573d6000803e3d6000fd5b505050506040513d601f19601f8201168201806040525081019062001a0a919062003627565b92915050565b6000828152600b60205260409020546001600160a01b0382811691161462001a8f5760405162461bcd60e51b815260206004820152602b60248201527f546865204d61726b657420496420616e64204164647265737320646f206e6f7460448201526a0818dbdc9c995cdc1bdb9960aa1b606482015260840162000915565b5050565b60008281526011602090815260408083208484529091529020541562001a8f5760405162461bcd60e51b815260206004820152602d60248201527f556e61737369676e65642063726564697420666f72207468697320746f6b656e60448201526c206973206e6f7420656d70747960981b606482015260840162000915565b8082111562001a8f5760405162461bcd60e51b81526004016200091590620039da565b6001600160a01b03821660009081526001602052604090205460ff165b15158115151462001a8f5760405162461bcd60e51b815260040162000915906020808252600490820152634543392d60e01b604082015260600190565b33600162001b9e828262001b35565b83600062001bad828262002973565b84546001808201875560008781526020812090920180546001600160a01b0319166001600160a01b038a16179055865462001be9919062003cb3565b6001600160a01b038816600090815260016020819052604090912060020182905590915062001c1a9088906200229d565b50505050505050565b33600162001c32828262001b35565b6000848152600d602052604090205484906001600160a01b031662001c9a5760405162461bcd60e51b815260206004820152601d60248201527f5468697320697373756572206964206973206e6f742070656e64696e67000000604482015260640162000915565b60408051338152851515602082015286917f5a1a88bd27a0cf1c470b27b132493e61efc1eaf3d1b57db0ab7f73182345d047910160405180910390a26000858152600d602090815260408220600901805460018101825590835291200180546001600160a01b03191633179055831562001f94576000858152600d6020526040812060070180549162001d2d8362003d0a565b90915550506005546000868152600d60205260409020600701541062001f8e57600c805460018181019092557fdf6966c971051c3d54ec59162606531493a51404a002842f56009d7e5cf4a8c7018690556000868152600d6020526040902080549101805462001f02926001600160a01b0316919062001dad9062003ccd565b80601f016020809104026020016040519081016040528092919081815260200182805462001ddb9062003ccd565b801562001e2c5780601f1062001e005761010080835404028352916020019162001e2c565b820191906000526020600020905b81548152906001019060200180831162001e0e57829003601f168201915b50505060008a8152600d60205260409020600201805490925062001e51915062003ccd565b80601f016020809104026020016040519081016040528092919081815260200182805462001e7f9062003ccd565b801562001ed05780601f1062001ea45761010080835404028352916020019162001ed0565b820191906000526020600020905b81548152906001019060200180831162001eb257829003601f168201915b50505060008b8152600d60205260409020600381015460048201546005909201549093509091508b9060ff1662002990565b6000868152600b6020526040902080546001600160a01b0319166001600160a01b039290921691909117905562001f398562002c48565b6000858152600b60205260409081902054905186917f2cedba2f59ec9c6a70e350caabb40ea15150e2bd297a517df51c1fbdbeacad399162001f85916001600160a01b03169062003825565b60405180910390a25b62000a83565b6000858152600d6020526040812060080180549162001fb38362003d0a565b90915550506005546000868152600d60205260409020600801541062000a835762001fde8562002c48565b60405185907f403eabfde87045e1433576679912c142f6e51573d2635748e5331c62fbcfecc190600090a25050505050565b6001600160a01b038216600090815260106020526040908190209051637e9f902d60e11b815273__ItemsLibrary__________________________9163fd3f205a916200206891908590879060019060040162003a92565b60006040518083038186803b1580156200208157600080fd5b505af415801562002096573d6000803e3d6000fd5b505050505050565b336001620020ad828262001b35565b6001620020ba81620028f9565b3360098054806020026020016040519081016040528092919081815260200182805480156200211357602002820191906000526020600020905b81546001600160a01b03168152600190910190602001808311620020f4575b505050505062002124828262002d98565b85156200214c5760016007600082825462002140919062003c53565b90915550620021679050565b60016008600082825462002161919062003c53565b90915550505b600980546001810182556000919091527f6e1540171b6c0c960b71a7020d9f60077f6af931a8bbf590da0223dacf75c7af0180546001600160a01b031916331790556200209662002e5f565b600054610100900460ff16620021d05760005460ff1615620021d4565b303b155b620021f35760405162461bcd60e51b81526004016200091590620039f9565b600054610100900460ff1615801562002216576000805461ffff19166101011790555b600a80546001600160a01b0319166001600160a01b038416179055801562001a8f576000805461ff00191690555050565b6001600160a01b0381166000908152600160205260408120600201546004805490919081106200227b576200227b62003d54565b6000918252602090912001546001600160a01b03928316921691909114919050565b336001620022ac828262001b35565b836001620022bb828262002973565b6001600160a01b03861660009081526001602090815260409182902060050180548351818402810184019094528084523393928301828280156200232957602002820191906000526020600020905b81546001600160a01b031681526001909101906020018083116200230a575b50505050506200233a828262002d98565b604080516001600160a01b038a1681523360208201528815158183015290517fc6f241efc3de3ce31d0e682102cc781f0605f0f90d72addfea699e4aea85dd799181900360600190a16001600160a01b038816600090815260016020818152604083206005018054928301815583529091200180546001600160a01b03191633179055861562002656576001600160a01b0388166000908152600160205260408120600301805491620023ed8362003d0a565b90915550506005546001600160a01b0389166000908152600160205260409020600301541062002650576004620024248962002ea5565b15620024fd575060028054600180820183557f405787fa12a823e0f2b7631cc41b3ba8828b3321ca811111fa75cd3aa3bb5ace90910180546001600160a01b0319166001600160a01b038c169081179091556000908152602082905260409020805460ff19168217905590546003916200249e9162003cb3565b6001600160a01b038a166000908152600160208190526040918290200191909155517f45bbe5ceeddcb6d0b4045349efc87a3fde966578e3970cda6f53bfc76efaf9f790620024ef908b9062003825565b60405180910390a162002642565b6001600160a01b03891660009081526001602081905260409182902001549051633c39c19f60e11b815273__AddressLibrary________________________90637873833e906200255690849060029060040162003bcb565b60006040518083038186803b1580156200256f57600080fd5b505af415801562002584573d6000803e3d6000fd5b50506002548310159150620025de9050578060016000016000600180018481548110620025b557620025b562003d54565b60009182526020808320909101546001600160a01b031683528201929092526040019020600101555b6001600160a01b038a166000908152600160208190526040808320805460ff1916815590910191909155517f82bcab3b042f3e2143a9d33d07fa130afdf763f17a45679670f0e39f12064ca89062002638908c9062003825565b60405180910390a1505b6200264e898262002ed9565b505b620017bb565b6001600160a01b03881660009081526001602052604081206004018054916200267f8362003d0a565b90915550506005546001600160a01b03891660009081526001602052604090206004015410620017bb576004620026b68962002ea5565b156200270057506040516003907f622a69297177c029df8c1ba7f4d2d59881089b571ae96800e634aff50d67492e90620026f2908b9062003825565b60405180910390a16200273a565b7f547e31c58b802b63bc89f1109a132a291b0527c9196c97759829aeaecd3c2d398960405162002731919062003825565b60405180910390a15b62002746898262002ed9565b505050505050505050565b8051825114620027755760405162461bcd60e51b8152600401620009159062003a47565b604051633c952fb360e21b815260009073__UintLibrary___________________________9063f254becc90620027b190859060040162003994565b60206040518083038186803b158015620027ca57600080fd5b505af4158015620027df573d6000803e3d6000fd5b505050506040513d601f19601f8201168201806040525081019062002805919062003627565b90506000805b83518110156200288b578381815181106200282a576200282a62003d54565b60200260200101518386838151811062002848576200284862003d54565b60200260200101516200285c919062003c91565b62002868919062003c6e565b62002874908362003c53565b915080620028828162003d0a565b9150506200280b565b5080851462000a835760405162461bcd60e51b815260206004820152603360248201527f74686520746f74616c20616d6f756e74206973206e6f7420657175616c20746f604482015272207468652063616c63756c61746564206f6e6560681b606482015260840162000915565b8015620029395760065462000a975760405162461bcd60e51b8152602060048201526005602482015264454333312d60d81b604482015260640162000915565b6006541562000a975760405162461bcd60e51b8152602060048201526005602482015264454333302d60d81b604482015260640162000915565b6200297e8262002ea5565b8062001b52575062001b528262002247565b600080600a60009054906101000a90046001600160a01b03166001600160a01b031663efd621de6040518163ffffffff1660e01b815260040160006040518083038186803b158015620029e257600080fd5b505afa158015620029f7573d6000803e3d6000fd5b505050506040513d6000823e601f3d908101601f1916820160405262002a219190810190620033e6565b60008151811062002a365762002a3662003d54565b602002602001015190506000600a60009054906101000a90046001600160a01b03166001600160a01b031663e220ad956040518163ffffffff1660e01b815260040160006040518083038186803b15801562002a9157600080fd5b505afa15801562002aa6573d6000803e3d6000fd5b505050506040513d6000823e601f3d908101601f1916820160405262002ad09190810190620033e6565b60028151811062002ae55762002ae562003d54565b60200260200101516001600160a01b031663b049473f6040518163ffffffff1660e01b815260040160006040518083038186803b15801562002b2657600080fd5b505afa15801562002b3b573d6000803e3d6000fd5b505050506040513d6000823e601f3d908101601f1916820160405262002b65919081019062003539565b60088151811062002b7a5762002b7a62003d54565b6020908102919091010151600a549091506000906001600160a01b03168b8b8b858c8c8c8c600181111562002bb35762002bb362003d3e565b60405160240162002bcd9998979695949392919062003839565b60408051601f198184030181529181526020820180516001600160e01b03166398a7541d60e01b179052519091506000908490839062002c0d90620030f6565b62002c1a9291906200390d565b604051809103906000f08015801562002c37573d6000803e3d6000fd5b509c9b505050505050505050505050565b6000818152600d60205260409081902060060154905163cffd93cd60e01b815273__UintLibrary___________________________9063cffd93cd9062002c97908490600e9060040162003bcb565b60006040518083038186803b15801562002cb057600080fd5b505af415801562002cc5573d6000803e3d6000fd5b5050505080600e80549050111562002d135780600d6000600e848154811062002cf25762002cf262003d54565b90600052602060002001548152602001908152602001600020600601819055505b6000828152600d6020526040812080546001600160a01b03191681559062002d3f600183018262003104565b62002d4f60028301600062003104565b50600060038201819055600482018190556005909101805460ff19169055828152600d60205260408120600781018290556008810182905562001a8f9160099091019062003143565b60405163f7cf62d760e01b815273__AddressLibrary________________________9063f7cf62d79062002dd39085908590600401620038af565b60206040518083038186803b15801562002dec57600080fd5b505af415801562002e01573d6000803e3d6000fd5b505050506040513d601f19601f8201168201806040525081019062002e279190620035ed565b1562001a8f5760405162461bcd60e51b815260040162000915906020808252600490820152634543352d60e01b604082015260600190565b62002e6f60075460055462002ff4565b1562002e855760065460055562000ab262003011565b62002e9560085460055462002ff4565b1562000ab25762000ab262003011565b6001600160a01b0381166000908152600160205260408120600201546003805490919081106200227b576200227b62003d54565b6001600160a01b03821660009081526001602052604090819020600201549051633c39c19f60e11b815273__AddressLibrary________________________90637873833e9062002f31908490869060040162003bcb565b60006040518083038186803b15801562002f4a57600080fd5b505af415801562002f5f573d6000803e3d6000fd5b50505050808280549050111562002fb657806001600001600084848154811062002f8d5762002f8d62003d54565b60009182526020808320909101546001600160a01b031683528201929092526040019020600201555b6001600160a01b038316600090815260016020526040812060028101829055600381018290556004810182905562000a429160059091019062003143565b600081831015620030085750600062001a0a565b50600192915050565b600060068190556007819055600881905562000ab29060099062003143565b6040518060a001604052806200304562003163565b8152602001600081526020016000815260200160008152602001606081525090565b828054620030759062003ccd565b90600052602060002090601f016020900481019282620030995760008555620030e4565b82601f10620030b457805160ff1916838001178555620030e4565b82800160010185558215620030e4579182015b82811115620030e4578251825591602001919060010190620030c7565b50620030f2929150620031b5565b5090565b6109938062003da683390190565b508054620031129062003ccd565b6000825580601f1062003123575050565b601f01602090049060005260206000209081019062000a979190620031b5565b508054600082559060005260206000209081019062000a979190620031b5565b6040518060c0016040528060006001600160a01b031681526020016060815260200160608152602001600081526020016000815260200160006001811115620031b057620031b062003d3e565b905290565b5b80821115620030f25760008155600101620031b6565b60008083601f840112620031df57600080fd5b5081356001600160401b03811115620031f757600080fd5b6020830191508360208260051b85010111156200321357600080fd5b9250929050565b600082601f8301126200322c57600080fd5b81356020620032456200323f8362003c2d565b62003bfa565b80838252828201915082860187848660051b89010111156200326657600080fd5b60005b85811015620032925781356200327f8162003d80565b8452928401929084019060010162003269565b5090979650505050505050565b600082601f830112620032b157600080fd5b81356001600160401b03811115620032cd57620032cd62003d6a565b620032e2601f8201601f191660200162003bfa565b818152846020838601011115620032f857600080fd5b816020850160208301376000918101602001919091529392505050565b6000602082840312156200332857600080fd5b8135620033358162003d80565b9392505050565b60008060008060008060c087890312156200335657600080fd5b8635620033638162003d80565b955060208701356001600160401b03808211156200338057600080fd5b6200338e8a838b016200329f565b96506040890135915080821115620033a557600080fd5b50620033b489828a016200329f565b945050606087013592506080870135915060a087013560028110620033d857600080fd5b809150509295509295509295565b60006020808385031215620033fa57600080fd5b82516001600160401b038111156200341157600080fd5b8301601f810185136200342357600080fd5b8051620034346200323f8262003c2d565b80828252848201915084840188868560051b87010111156200345557600080fd5b600094505b8385101562003485578051620034708162003d80565b8352600194909401939185019185016200345a565b50979650505050505050565b60008060408385031215620034a557600080fd5b82356001600160401b03811115620034bc57600080fd5b620034ca858286016200321a565b95602094909401359450505050565b600080600060608486031215620034ef57600080fd5b83356001600160401b038111156200350657600080fd5b62003514868287016200321a565b9350506020840135915060408401356200352e8162003d80565b809150509250925092565b600060208083850312156200354d57600080fd5b82516001600160401b038111156200356457600080fd5b8301601f810185136200357657600080fd5b8051620035876200323f8262003c2d565b80828252848201915084840188868560051b8701011115620035a857600080fd5b600094505b8385101562003485578051835260019490940193918501918501620035ad565b600060208284031215620035e057600080fd5b8135620033358162003d96565b6000602082840312156200360057600080fd5b8151620033358162003d96565b6000602082840312156200362057600080fd5b5035919050565b6000602082840312156200363a57600080fd5b5051919050565b600080604083850312156200365557600080fd5b823591506020830135620036698162003d80565b809150509250929050565b600080604083850312156200368857600080fd5b50508035926020909101359150565b60008060008060808587031215620036ae57600080fd5b84359350602085013592506040850135620036c98162003d80565b9396929550929360600135925050565b60008060008060008060008060a0898b031215620036f657600080fd5b883597506020890135965060408901356001600160401b03808211156200371c57600080fd5b6200372a8c838d01620031cc565b909850965060608b01359150808211156200374457600080fd5b620037528c838d01620031cc565b909650945060808b01359150808211156200376c57600080fd5b506200377b8b828c01620031cc565b999c989b5096995094979396929594505050565b600081518084526020808501945080840160005b83811015620037ca5781516001600160a01b031687529582019590820190600101620037a3565b509495945050505050565b6000815180845260005b81811015620037fd57602081850181015186830182015201620037df565b8181111562003810576000602083870101525b50601f01601f19169290920160200192915050565b6001600160a01b0391909116815260200190565b6001600160a01b038a811682528916602082015261012060408201819052600090620038688382018b620037d5565b905082810360608401526200387e818a620037d5565b6080840198909852505060a081019490945260c084019290925260e083015260ff1661010090910152949350505050565b6001600160a01b038381168252604060208084018290528451918401829052600092858201929091906060860190855b81811015620038ff578551851683529483019491830191600101620038df565b509098975050505050505050565b6001600160a01b03831681526040602082018190526000906200393390830184620037d5565b949350505050565b6001600160a01b03841681526060602082018190526000906200396190830185620037d5565b8281036040840152620039758185620037d5565b9695505050505050565b6020815260006200333560208301846200378f565b6020808252825182820181905260009190848201906040850190845b81811015620039ce57835183529284019291840191600101620039b0565b50909695505050505050565b602080825260059082015264454331392d60d81b604082015260600190565b6020808252602e908201527f496e697469616c697a61626c653a20636f6e747261637420697320616c72656160408201526d191e481a5b9a5d1a585b1a5e995960921b606082015260800190565b6020808252602b908201527f50726f76696465642061727261797320646f206e6f742068617665207468652060408201526a0e6c2daca40d8cadccee8d60ab1b606082015260800190565b93845260208401929092526001600160a01b031660408301521515606082015260800190565b9283526020830191909152604082015260600190565b602081526000825160a0602084015260018060a01b0381511660c0840152602081015160c060e085015262003b08610180850182620037d5565b9050604082015160bf198583030161010086015262003b288282620037d5565b9150506060820151610120850152608082015161014085015260a082015191506002821062003b6757634e487b7160e01b600052602160045260246000fd5b8161016085015260208501516040850152604085015160608501526060850151608085015260808501519150601f198482030160a085015262003bab81836200378f565b95945050505050565b9182526001600160a01b0316602082015260400190565b918252602082015260400190565b83815282602082015260606040820152600062003bab60608301846200378f565b604051601f8201601f191681016001600160401b038111828210171562003c255762003c2562003d6a565b604052919050565b60006001600160401b0382111562003c495762003c4962003d6a565b5060051b60200190565b6000821982111562003c695762003c6962003d28565b500190565b60008262003c8c57634e487b7160e01b600052601260045260246000fd5b500490565b600081600019048311821515161562003cae5762003cae62003d28565b500290565b60008282101562003cc85762003cc862003d28565b500390565b600181811c9082168062003ce257607f821691505b6020821081141562003d0457634e487b7160e01b600052602260045260246000fd5b50919050565b600060001982141562003d215762003d2162003d28565b5060010190565b634e487b7160e01b600052601160045260246000fd5b634e487b7160e01b600052602160045260246000fd5b634e487b7160e01b600052603260045260246000fd5b634e487b7160e01b600052604160045260246000fd5b6001600160a01b038116811462000a9757600080fd5b801515811462000a9757600080fdfe608060405260405161099338038061099383398101604081905261002291610470565b61004d60017fa3f0ad74e5423aebfd80d3ef4346578335a9a72aeaee59ff6cb3582b35133d5161057f565b60008051602061094c83398151915214610069576100696105d0565b6100758282600061007c565b50506105fc565b61008583610156565b6040516001600160a01b038416907f1cf3b03a6cf19fa2baba4df148e9dcabedea7f8a5c07840e207e5c089be95d3e90600090a26000825111806100c65750805b156101515761014f836001600160a01b0316635c60da1b6040518163ffffffff1660e01b815260040160206040518083038186803b15801561010757600080fd5b505afa15801561011b573d6000803e3d6000fd5b505050506040513d601f19601f8201168201806040525081019061013f9190610455565b836102f660201b6100291760201c565b505b505050565b6101698161032260201b6100551760201c565b6101c85760405162461bcd60e51b815260206004820152602560248201527f455243313936373a206e657720626561636f6e206973206e6f74206120636f6e6044820152641d1c9858dd60da1b60648201526084015b60405180910390fd5b61024b816001600160a01b0316635c60da1b6040518163ffffffff1660e01b815260040160206040518083038186803b15801561020457600080fd5b505afa158015610218573d6000803e3d6000fd5b505050506040513d601f19601f8201168201806040525081019061023c9190610455565b61032260201b6100551760201c565b6102b05760405162461bcd60e51b815260206004820152603060248201527f455243313936373a20626561636f6e20696d706c656d656e746174696f6e206960448201526f1cc81b9bdd08184818dbdb9d1c9858dd60821b60648201526084016101bf565b806102d560008051602061094c83398151915260001b61032860201b61005b1760201c565b80546001600160a01b0319166001600160a01b039290921691909117905550565b606061031b838360405180606001604052806027815260200161096c6027913961032b565b9392505050565b3b151590565b90565b6060833b61038a5760405162461bcd60e51b815260206004820152602660248201527f416464726573733a2064656c65676174652063616c6c20746f206e6f6e2d636f6044820152651b9d1c9858dd60d21b60648201526084016101bf565b600080856001600160a01b0316856040516103a59190610530565b600060405180830381855af49150503d80600081146103e0576040519150601f19603f3d011682016040523d82523d6000602084013e6103e5565b606091505b5090925090506103f6828286610400565b9695505050505050565b6060831561040f57508161031b565b82511561041f5782518084602001fd5b8160405162461bcd60e51b81526004016101bf919061054c565b80516001600160a01b038116811461045057600080fd5b919050565b60006020828403121561046757600080fd5b61031b82610439565b6000806040838503121561048357600080fd5b61048c83610439565b60208401519092506001600160401b03808211156104a957600080fd5b818501915085601f8301126104bd57600080fd5b8151818111156104cf576104cf6105e6565b604051601f8201601f19908116603f011681019083821181831017156104f7576104f76105e6565b8160405282815288602084870101111561051057600080fd5b6105218360208301602088016105a4565b80955050505050509250929050565b600082516105428184602087016105a4565b9190910192915050565b602081526000825180602084015261056b8160408501602087016105a4565b601f01601f19169190910160400192915050565b60008282101561059f57634e487b7160e01b600052601160045260246000fd5b500390565b60005b838110156105bf5781810151838201526020016105a7565b8381111561014f5750506000910152565b634e487b7160e01b600052600160045260246000fd5b634e487b7160e01b600052604160045260246000fd5b6103418061060b6000396000f3fe60806040523661001357610011610017565b005b6100115b61002761002261005e565b610106565b565b606061004e83836040518060600160405280602781526020016102e56027913961012a565b9392505050565b3b151590565b90565b60006100917fa3f0ad74e5423aebfd80d3ef4346578335a9a72aeaee59ff6cb3582b35133d50546001600160a01b031690565b6001600160a01b0316635c60da1b6040518163ffffffff1660e01b815260040160206040518083038186803b1580156100c957600080fd5b505afa1580156100dd573d6000803e3d6000fd5b505050506040513d601f19601f82011682018060405250810190610101919061023c565b905090565b3660008037600080366000845af43d6000803e808015610125573d6000f35b3d6000fd5b6060833b61018e5760405162461bcd60e51b815260206004820152602660248201527f416464726573733a2064656c65676174652063616c6c20746f206e6f6e2d636f6044820152651b9d1c9858dd60d21b60648201526084015b60405180910390fd5b600080856001600160a01b0316856040516101a99190610265565b600060405180830381855af49150503d80600081146101e4576040519150601f19603f3d011682016040523d82523d6000602084013e6101e9565b606091505b50915091506101f9828286610203565b9695505050505050565b6060831561021257508161004e565b8251156102225782518084602001fd5b8160405162461bcd60e51b81526004016101859190610281565b60006020828403121561024e57600080fd5b81516001600160a01b038116811461004e57600080fd5b600082516102778184602087016102b4565b9190910192915050565b60208152600082518060208401526102a08160408501602087016102b4565b601f01601f19169190910160400192915050565b60005b838110156102cf5781810151838201526020016102b7565b838111156102de576000848401525b5050505056fe416464726573733a206c6f772d6c6576656c2064656c65676174652063616c6c206661696c6564a2646970667358221220148d20618ce0e4acd0b179dccf12503163fb589ddd8df806d6d9c09a8f4adc1064736f6c63430008070033a3f0ad74e5423aebfd80d3ef4346578335a9a72aeaee59ff6cb3582b35133d50416464726573733a206c6f772d6c6576656c2064656c65676174652063616c6c206661696c6564a2646970667358221220893f7044c1640360ceb9469ad49457cb26e57abc709639c8fb9e699b7d3f8cd664736f6c63430008070033",
  "immutableReferences": {},
  "source": "// SPDX-License-Identifier: GPL-3.0\r\n\r\npragma solidity 0.8.7;\r\n\r\n/**\r\n Certis Token is an ERC20 Token that grants its holder the right to:\r\n   - Vote on all the systems propositions (changing system configuraiton etc...)\r\n   - Receive Dividends for all the payments forwarded to the Treasury contract\r\n\r\nBefore every token transfer we contact the token gouvernance Base contracts so that the can update the tokens used for voting if needed\r\n\r\n */\r\n\r\nimport \"@openzeppelin/contracts-upgradeable/proxy/utils/Initializable.sol\";\r\nimport \"../Interfaces/IPool.sol\";\r\nimport \"../Interfaces/ITreasury.sol\";\r\nimport \"../Base/ManagedBaseContract.sol\";\r\nimport \"../Base/MultiSigContract.sol\";\r\nimport \"../Libraries/ItemsLibrary.sol\";\r\nimport \"../Libraries/UintLibrary.sol\";\r\nimport \"@openzeppelin/contracts/proxy/beacon/BeaconProxy.sol\";\r\n\r\n\r\n\r\n contract PublicPool is  Initializable, MultiSigContract, ManagedBaseContract, IPool {\r\n  using ItemsLibrary for *;\r\n  using UintLibrary for *;\r\n\r\n  // EVENTS /////////////////////////////////////////\r\n  event _NewIssuerRequest(uint256 indexed id, address owner, string name, string symbol);\r\n\r\n  event _VoteForIssuer(uint256 indexed id, address voter, bool vote);\r\n  event _IssuerValidation(uint256 indexed id, address NFTMarket);\r\n  event _IssuerRejection(uint256 indexed id);\r\n\r\n  // DATA /////////////////////////////////////////\r\n  mapping(uint256 => address) private _issuers;\r\n  uint256[] private _listOfIssuers;\r\n\r\n  mapping(uint256 => _pendingIssuerStruct) private _pendingIssuers;\r\n  uint256[] private _listOfPendingIssuers;\r\n\r\n  uint256 private nextIssuerId;\r\n\r\n  mapping(address => ItemsLibrary._BalanceStruct) private _creditOfAccount;\r\n  mapping(uint256 => mapping(uint256 => uint256)) private _unassignedCreditForMarket;\r\n\r\n\r\n\r\n  // MODIFIERS /////////////////////////////////////////\r\n  modifier validOwner(address owner){\r\n      require(address(0) != owner, \"NFT Market owner cannot be address 0\");\r\n      _;\r\n  }\r\n\r\n  modifier IssuerPending(uint256 id){\r\n      require(address(0) != _pendingIssuers[id]._issuer._owner, \"This issuer id is not pending\");\r\n      _;\r\n  }\r\n\r\n  modifier validFees(uint256 fee, uint256 decimals){\r\n      Library.validFees(fee, decimals);\r\n      _;\r\n  }\r\n\r\n  modifier isNFTMarket(uint256 MarketId, address MarketAddress){\r\n      isNFTMarketFunc(MarketId, MarketAddress);\r\n      _;\r\n  }\r\n\r\n  function isNFTMarketFunc(uint256 MarketId, address MarketAddress) internal view{\r\n    require(MarketAddress == _issuers[MarketId], \"The Market Id and Address do not correspond\");\r\n  }\r\n\r\n  modifier isTokenUnassignedCreditEmpty(uint256 NFTMarketId, uint256 tokenID){\r\n    isTokenUnassignedCreditEmptyFunc(NFTMarketId, tokenID);\r\n    _;\r\n  }\r\n\r\n  function isTokenUnassignedCreditEmptyFunc(uint256 NFTMarketId, uint256 tokenID) internal view{\r\n    require(0 == _unassignedCreditForMarket[NFTMarketId][tokenID], \"Unassigned credit for this token is not empty\");\r\n  }\r\n\r\n  modifier checkTotal(uint256 total, uint256[] memory amounts, uint256[] memory factors){\r\n    checkTotalFunc(total, amounts, factors);\r\n    _;\r\n  }\r\n\r\n  function checkTotalFunc(uint256 total, uint256[] memory amounts, uint256[] memory factors) internal pure{\r\n    require(amounts.length == factors.length, \"Provided arrays do not have the same length\");\r\n    uint256 CommonDividend = UintLibrary.ProductOfFactors(factors);\r\n    uint256 calculatedTotal = 0;\r\n    for(uint256 i=0; i < factors.length; i++){\r\n        calculatedTotal += amounts[i] * CommonDividend / factors[i];\r\n    }\r\n    require(total == calculatedTotal, \"the total amount is not equal to the calculated one\");\r\n  }\r\n\r\n  // CONSTRUCTOR /////////////////////////////////////////\r\n  function PublicPool_init(address[] memory owners,  uint256 minOwners, address managerContractAddress) public initializer {\r\n      super.MultiSigContract_init(owners, minOwners); \r\n      super.ManagedBaseContract_init(managerContractAddress); \r\n\r\n      nextIssuerId = 0;\r\n  }\r\n\r\n  // FUNCTIONALITY /////////////////////////////////////////\r\n  function requestIssuer(address owner, string memory name, string memory symbol, uint256 feeAmount, uint256 feeDecimals, Library.PaymentPlans paymentPlan) external override payable\r\n    validOwner(owner)\r\n    validFees(feeAmount, feeDecimals)\r\n  returns (uint256)\r\n  {\r\n\r\n    uint[] memory Prices = ITreasury(_managerContract.retrieveTransparentProxies()[uint256(Library.TransparentProxies.Treasury)]).retrieveSettings();\r\n    uint256 NewIssuerFee = Prices[uint256(Library.Prices.NewIssuerFee)];\r\n    uint256 AdminNewIssuerFee = Prices[uint256(Library.Prices.AdminNewIssuerFee)];\r\n    require(msg.value >= NewIssuerFee + AdminNewIssuerFee, \"New Issuer Fees not enough\");\r\n\r\n    ItemsLibrary.TransferEtherTo(NewIssuerFee, _managerContract.retrieveTransparentProxies()[uint256(Library.TransparentProxies.Treasury)]);\r\n    ItemsLibrary.TransferEtherTo(msg.value - NewIssuerFee, _managerContract.retrieveTransparentProxies()[uint256(Library.TransparentProxies.AdminPiggyBank)]);\r\n\r\n    _pendingIssuers[nextIssuerId]._issuer._owner = owner;\r\n    _pendingIssuers[nextIssuerId]._issuer._name = name;\r\n    _pendingIssuers[nextIssuerId]._issuer._symbol = symbol;\r\n    _pendingIssuers[nextIssuerId]._issuer._feeAmount = feeAmount;\r\n    _pendingIssuers[nextIssuerId]._issuer._feeDecimals = feeDecimals;\r\n    _pendingIssuers[nextIssuerId]._issuer._paymentPlan = paymentPlan;\r\n    _pendingIssuers[nextIssuerId]._pendingId = _listOfPendingIssuers.length;\r\n    _listOfPendingIssuers.push(nextIssuerId);\r\n\r\n    emit _NewIssuerRequest(nextIssuerId, owner, name, symbol);\r\n\r\n    nextIssuerId++;\r\n    return(nextIssuerId - 1);\r\n  }\r\n\r\n  function validateIssuer(uint256 id) external override\r\n  {\r\n    voteForIssuer(id, true);\r\n  }\r\n\r\n  function rejectIssuer(uint id) external override\r\n  {\r\n    voteForIssuer(id, false);\r\n  }\r\n\r\n  function voteForIssuer(uint id, bool vote) internal\r\n    isAnOwner(msg.sender, true)\r\n    IssuerPending(id)\r\n  {\r\n    emit _VoteForIssuer(id, msg.sender, vote);\r\n\r\n    _pendingIssuers[id]._voters.push(msg.sender);\r\n        \r\n    if(vote){\r\n        _pendingIssuers[id]._validations++;\r\n\r\n        if(_pendingIssuers[id]._validations >= _minOwners){\r\n            _listOfIssuers.push(id);\r\n            _issuers[id] = GenerateNewNFTMarket(_pendingIssuers[id]._issuer._owner, _pendingIssuers[id]._issuer._name, _pendingIssuers[id]._issuer._symbol, _pendingIssuers[id]._issuer._feeAmount, _pendingIssuers[id]._issuer._feeDecimals, id, _pendingIssuers[id]._issuer._paymentPlan);\r\n            deletingPendingIssuer(id);\r\n            emit _IssuerValidation(id, _issuers[id]);\r\n        }\r\n    }\r\n    else{\r\n        _pendingIssuers[id]._rejections++;\r\n\r\n        if(_pendingIssuers[id]._rejections >= _minOwners){\r\n            deletingPendingIssuer(id);\r\n            emit _IssuerRejection(id);\r\n        }\r\n    }\r\n  }\r\n\r\n  function deletingPendingIssuer(uint256 id) internal\r\n  {\r\n    uint pos = _pendingIssuers[id]._pendingId;\r\n    UintLibrary.UintArrayRemoveResize(pos, _listOfPendingIssuers);\r\n    if(_listOfPendingIssuers.length > pos) _pendingIssuers[_listOfPendingIssuers[pos]]._pendingId = pos;\r\n\r\n    delete(_pendingIssuers[id]._issuer);\r\n    delete(_pendingIssuers[id]._validations);\r\n    delete(_pendingIssuers[id]._rejections);\r\n    delete(_pendingIssuers[id]._voters);\r\n  }\r\n\r\n  function GenerateNewNFTMarket(address owner, string memory name, string memory symbol, uint256 feeAmount, uint256 feeDecimals, uint256 id, Library.PaymentPlans paymentPlan) internal returns(address)\r\n  {\r\n    address beaconAddress = _managerContract.retrieveBeacons()[uint256(Library.Beacons.NFT)];\r\n    uint256 OffersLifeTime = ITreasury(_managerContract.retrieveTransparentProxies()[uint256(Library.TransparentProxies.Treasury)]).retrieveSettings()[uint256(Library.Prices.OffersLifeTime)];\r\n    bytes memory data = abi.encodeWithSignature(\"NFTMarket_init(address,address,string,string,uint256,uint256,uint256,uint256,uint8)\", address(_managerContract), owner, name, symbol, OffersLifeTime, feeAmount, feeDecimals, id, uint8(paymentPlan));\r\n\r\n    BeaconProxy beaconProxy = new BeaconProxy(beaconAddress, data);\r\n\r\n    return address(beaconProxy);\r\n  }\r\n\r\n  function retrieveIssuers() external override view returns (uint[] memory)\r\n  {\r\n    return _listOfIssuers;\r\n  }\r\n\r\n  function retrieveNFTMarketForIssuer(uint id) external override view returns (address)\r\n  {\r\n    return _issuers[id];\r\n  }\r\n\r\n  function retrievePendingIssuers() external override view returns (uint[] memory)\r\n  {\r\n    return _listOfPendingIssuers;\r\n  }\r\n\r\n  function retrievePendingIssuer(uint id) external override view returns (_pendingIssuerStruct memory)\r\n  {\r\n    return _pendingIssuers[id];\r\n  }\r\n\r\n  function sendCredit(address addr) external override payable\r\n  {\r\n    ItemsLibrary.addBalance(_creditOfAccount[addr], msg.value, 1);\r\n  }\r\n\r\n  function transferUnassignedCredit(uint256 NFTMarketId, uint256 tokenID) external override payable\r\n    isNFTMarket(NFTMarketId, msg.sender)\r\n    isTokenUnassignedCreditEmpty(NFTMarketId, tokenID)\r\n  {\r\n    _unassignedCreditForMarket[NFTMarketId][tokenID] += msg.value;\r\n  }\r\n\r\n  function addCredit(uint256 NFTMarketId, uint256 tokenID, address[] calldata addrs, uint256[] calldata amounts, uint256[] calldata factors) external override\r\n    isNFTMarket(NFTMarketId, msg.sender)\r\n    checkTotal(_unassignedCreditForMarket[NFTMarketId][tokenID], amounts, factors)\r\n  {\r\n    require(addrs.length == factors.length, \"Provided arrays do not have the same length\");\r\n    for(uint i=0; i < addrs.length; i++){\r\n      ItemsLibrary.addBalance(_creditOfAccount[addrs[i]], amounts[i], factors[i]);\r\n    }\r\n    delete(_unassignedCreditForMarket[NFTMarketId][tokenID]);\r\n  }\r\n\r\n  function reuseCredit(uint256 NFTMarketId, uint256 tokenID, address addr, uint256 amount) external override\r\n    isNFTMarket(NFTMarketId, msg.sender)\r\n    isTokenUnassignedCreditEmpty(NFTMarketId, tokenID)\r\n  {\r\n    ItemsLibrary.InternalWithdraw(_creditOfAccount[addr], amount, address(0), false);\r\n    _unassignedCreditForMarket[NFTMarketId][tokenID] += amount;\r\n  }\r\n\r\n  function withdraw(uint amount) external override\r\n  {\r\n    internalWithdraw(msg.sender, amount);\r\n  }\r\n  \r\n  function withdrawAll() external override\r\n  {\r\n    uint amount = ItemsLibrary.checkFullBalance(_creditOfAccount[msg.sender]);\r\n    internalWithdraw(msg.sender, amount);\r\n  }\r\n  \r\n  function withdrawAllFor(uint256 NFTMarketId, address addr) external override\r\n    isNFTMarket(NFTMarketId, msg.sender)\r\n  {\r\n    uint amount = ItemsLibrary.checkFullBalance(_creditOfAccount[addr]);\r\n    internalWithdraw(addr, amount);\r\n  }\r\n\r\n  function internalWithdraw(address addr, uint amount) internal\r\n  {\r\n    ItemsLibrary.InternalWithdraw(_creditOfAccount[addr], amount, addr, true);\r\n  }\r\n\r\n  function retrieveCredit(address addr) external override view returns (uint256)\r\n  {\r\n    return ItemsLibrary.checkFullBalance(_creditOfAccount[addr]);\r\n  }\r\n\r\n\r\n\r\n }",
  "sourcePath": "C:\\Users\\d-aam\\GitHub\\Originals\\contracts\\MainContracts\\PublicPool.sol",
  "compiler": {
    "name": "solc",
    "version": "0.8.7+commit.e28d00a7.Emscripten.clang"
  },
  "schemaVersion": "3.4.3",
  "updatedAt": "2022-02-01T07:39:10.505Z",
  "devdoc": {
    "kind": "dev",
    "methods": {},
    "version": 1
  },
  "userdoc": {
    "kind": "user",
    "methods": {},
    "version": 1
  }
}