{
  "contractName": "PublicPool",
  "abi": [
    {
      "anonymous": false,
      "inputs": [
        {
          "indexed": false,
          "internalType": "address",
          "name": "owner",
          "type": "address"
        }
      ],
      "name": "_AddOwnerRejection",
      "type": "event"
    },
    {
      "anonymous": false,
      "inputs": [
        {
          "indexed": false,
          "internalType": "address",
          "name": "owner",
          "type": "address"
        }
      ],
      "name": "_AddOwnerValidation",
      "type": "event"
    },
    {
      "anonymous": false,
      "inputs": [
        {
          "indexed": true,
          "internalType": "uint256",
          "name": "NFTMarketId",
          "type": "uint256"
        },
        {
          "indexed": true,
          "internalType": "uint256",
          "name": "tokenID",
          "type": "uint256"
        },
        {
          "indexed": true,
          "internalType": "address",
          "name": "receiver",
          "type": "address"
        },
        {
          "indexed": false,
          "internalType": "uint256",
          "name": "amount",
          "type": "uint256"
        },
        {
          "indexed": false,
          "internalType": "uint256",
          "name": "factor",
          "type": "uint256"
        }
      ],
      "name": "_CreditAssigned",
      "type": "event"
    },
    {
      "anonymous": false,
      "inputs": [
        {
          "indexed": true,
          "internalType": "address",
          "name": "receiver",
          "type": "address"
        },
        {
          "indexed": false,
          "internalType": "uint256",
          "name": "amount",
          "type": "uint256"
        },
        {
          "indexed": true,
          "internalType": "address",
          "name": "sender",
          "type": "address"
        }
      ],
      "name": "_CreditReceived",
      "type": "event"
    },
    {
      "anonymous": false,
      "inputs": [
        {
          "indexed": true,
          "internalType": "uint256",
          "name": "NFTMarketId",
          "type": "uint256"
        },
        {
          "indexed": true,
          "internalType": "uint256",
          "name": "tokenID",
          "type": "uint256"
        },
        {
          "indexed": true,
          "internalType": "address",
          "name": "creditor",
          "type": "address"
        },
        {
          "indexed": false,
          "internalType": "uint256",
          "name": "amount",
          "type": "uint256"
        }
      ],
      "name": "_CreditReused",
      "type": "event"
    },
    {
      "anonymous": false,
      "inputs": [
        {
          "indexed": true,
          "internalType": "uint256",
          "name": "NFTMarketId",
          "type": "uint256"
        },
        {
          "indexed": true,
          "internalType": "address",
          "name": "from",
          "type": "address"
        },
        {
          "indexed": false,
          "internalType": "uint256",
          "name": "amount",
          "type": "uint256"
        },
        {
          "indexed": true,
          "internalType": "address",
          "name": "to",
          "type": "address"
        }
      ],
      "name": "_CreditSpent",
      "type": "event"
    },
    {
      "anonymous": false,
      "inputs": [
        {
          "indexed": true,
          "internalType": "uint256",
          "name": "NFTMarketId",
          "type": "uint256"
        },
        {
          "indexed": true,
          "internalType": "uint256",
          "name": "tokenID",
          "type": "uint256"
        },
        {
          "indexed": false,
          "internalType": "uint256",
          "name": "amount",
          "type": "uint256"
        }
      ],
      "name": "_CreditUnAssignedReceived",
      "type": "event"
    },
    {
      "anonymous": false,
      "inputs": [
        {
          "indexed": true,
          "internalType": "address",
          "name": "withdrawer",
          "type": "address"
        },
        {
          "indexed": false,
          "internalType": "uint256",
          "name": "amount",
          "type": "uint256"
        }
      ],
      "name": "_CreditWithdrawn",
      "type": "event"
    },
    {
      "anonymous": false,
      "inputs": [
        {
          "indexed": true,
          "internalType": "address",
          "name": "withdrawer",
          "type": "address"
        },
        {
          "indexed": false,
          "internalType": "uint256",
          "name": "amount",
          "type": "uint256"
        },
        {
          "indexed": true,
          "internalType": "address",
          "name": "sender",
          "type": "address"
        }
      ],
      "name": "_CreditWithdrawnFor",
      "type": "event"
    },
    {
      "anonymous": false,
      "inputs": [
        {
          "indexed": true,
          "internalType": "uint256",
          "name": "id",
          "type": "uint256"
        }
      ],
      "name": "_IssuerRejection",
      "type": "event"
    },
    {
      "anonymous": false,
      "inputs": [
        {
          "indexed": true,
          "internalType": "uint256",
          "name": "id",
          "type": "uint256"
        },
        {
          "indexed": false,
          "internalType": "address",
          "name": "NFTMarket",
          "type": "address"
        }
      ],
      "name": "_IssuerValidation",
      "type": "event"
    },
    {
      "anonymous": false,
      "inputs": [
        {
          "indexed": false,
          "internalType": "uint256",
          "name": "minOwner",
          "type": "uint256"
        }
      ],
      "name": "_MinOwnerRejection",
      "type": "event"
    },
    {
      "anonymous": false,
      "inputs": [
        {
          "indexed": false,
          "internalType": "uint256",
          "name": "minOwner",
          "type": "uint256"
        }
      ],
      "name": "_MinOwnerValidation",
      "type": "event"
    },
    {
      "anonymous": false,
      "inputs": [
        {
          "indexed": true,
          "internalType": "uint256",
          "name": "id",
          "type": "uint256"
        },
        {
          "indexed": false,
          "internalType": "address",
          "name": "owner",
          "type": "address"
        },
        {
          "indexed": false,
          "internalType": "string",
          "name": "name",
          "type": "string"
        },
        {
          "indexed": false,
          "internalType": "string",
          "name": "symbol",
          "type": "string"
        }
      ],
      "name": "_NewIssuerRequest",
      "type": "event"
    },
    {
      "anonymous": false,
      "inputs": [
        {
          "indexed": false,
          "internalType": "address",
          "name": "owner",
          "type": "address"
        }
      ],
      "name": "_RemoveOwnerRejection",
      "type": "event"
    },
    {
      "anonymous": false,
      "inputs": [
        {
          "indexed": false,
          "internalType": "address",
          "name": "owner",
          "type": "address"
        }
      ],
      "name": "_RemoveOwnerValidation",
      "type": "event"
    },
    {
      "anonymous": false,
      "inputs": [
        {
          "indexed": true,
          "internalType": "uint256",
          "name": "id",
          "type": "uint256"
        },
        {
          "indexed": false,
          "internalType": "address",
          "name": "voter",
          "type": "address"
        },
        {
          "indexed": false,
          "internalType": "bool",
          "name": "vote",
          "type": "bool"
        }
      ],
      "name": "_VoteForIssuer",
      "type": "event"
    },
    {
      "anonymous": false,
      "inputs": [
        {
          "indexed": false,
          "internalType": "uint256",
          "name": "minOwner",
          "type": "uint256"
        },
        {
          "indexed": false,
          "internalType": "address",
          "name": "voter",
          "type": "address"
        },
        {
          "indexed": false,
          "internalType": "bool",
          "name": "vote",
          "type": "bool"
        }
      ],
      "name": "_VoteForMinOwner",
      "type": "event"
    },
    {
      "anonymous": false,
      "inputs": [
        {
          "indexed": false,
          "internalType": "address",
          "name": "owner",
          "type": "address"
        },
        {
          "indexed": false,
          "internalType": "address",
          "name": "voter",
          "type": "address"
        },
        {
          "indexed": false,
          "internalType": "bool",
          "name": "vote",
          "type": "bool"
        }
      ],
      "name": "_VoteForOwner",
      "type": "event"
    },
    {
      "inputs": [
        {
          "internalType": "address",
          "name": "sender",
          "type": "address"
        },
        {
          "internalType": "uint256",
          "name": "amount",
          "type": "uint256"
        },
        {
          "internalType": "bytes",
          "name": "data",
          "type": "bytes"
        }
      ],
      "name": "CreditReceived",
      "outputs": [],
      "stateMutability": "nonpayable",
      "type": "function"
    },
    {
      "inputs": [
        {
          "internalType": "address[]",
          "name": "owners",
          "type": "address[]"
        },
        {
          "internalType": "uint256",
          "name": "minOwners",
          "type": "uint256"
        }
      ],
      "name": "MultiSigContract_init",
      "outputs": [],
      "stateMutability": "nonpayable",
      "type": "function"
    },
    {
      "inputs": [
        {
          "internalType": "address",
          "name": "owner",
          "type": "address"
        }
      ],
      "name": "addOwner",
      "outputs": [],
      "stateMutability": "nonpayable",
      "type": "function"
    },
    {
      "inputs": [
        {
          "internalType": "uint256",
          "name": "newMinOwners",
          "type": "uint256"
        }
      ],
      "name": "changeMinOwners",
      "outputs": [],
      "stateMutability": "nonpayable",
      "type": "function"
    },
    {
      "inputs": [],
      "name": "rejectMinOwners",
      "outputs": [],
      "stateMutability": "nonpayable",
      "type": "function"
    },
    {
      "inputs": [
        {
          "internalType": "address",
          "name": "owner",
          "type": "address"
        }
      ],
      "name": "rejectOwner",
      "outputs": [],
      "stateMutability": "nonpayable",
      "type": "function"
    },
    {
      "inputs": [
        {
          "internalType": "address",
          "name": "owner",
          "type": "address"
        }
      ],
      "name": "removeOwner",
      "outputs": [],
      "stateMutability": "nonpayable",
      "type": "function"
    },
    {
      "inputs": [],
      "name": "retrieveAllOwners",
      "outputs": [
        {
          "internalType": "address[]",
          "name": "",
          "type": "address[]"
        }
      ],
      "stateMutability": "view",
      "type": "function"
    },
    {
      "inputs": [],
      "name": "retrieveManagerContract",
      "outputs": [
        {
          "internalType": "address",
          "name": "",
          "type": "address"
        }
      ],
      "stateMutability": "view",
      "type": "function"
    },
    {
      "inputs": [],
      "name": "retrieveMinOwners",
      "outputs": [
        {
          "internalType": "uint256",
          "name": "",
          "type": "uint256"
        }
      ],
      "stateMutability": "view",
      "type": "function"
    },
    {
      "inputs": [],
      "name": "retrievePendingMinOwners",
      "outputs": [
        {
          "internalType": "uint256",
          "name": "",
          "type": "uint256"
        }
      ],
      "stateMutability": "view",
      "type": "function"
    },
    {
      "inputs": [],
      "name": "retrievePendingMinOwnersStatus",
      "outputs": [
        {
          "internalType": "uint256",
          "name": "",
          "type": "uint256"
        },
        {
          "internalType": "uint256",
          "name": "",
          "type": "uint256"
        },
        {
          "internalType": "address[]",
          "name": "",
          "type": "address[]"
        }
      ],
      "stateMutability": "view",
      "type": "function"
    },
    {
      "inputs": [
        {
          "internalType": "bool",
          "name": "addedORremove",
          "type": "bool"
        }
      ],
      "name": "retrievePendingOwners",
      "outputs": [
        {
          "internalType": "address[]",
          "name": "",
          "type": "address[]"
        }
      ],
      "stateMutability": "view",
      "type": "function"
    },
    {
      "inputs": [],
      "name": "validateMinOwners",
      "outputs": [],
      "stateMutability": "nonpayable",
      "type": "function"
    },
    {
      "inputs": [
        {
          "internalType": "address",
          "name": "owner",
          "type": "address"
        }
      ],
      "name": "validateOwner",
      "outputs": [],
      "stateMutability": "nonpayable",
      "type": "function"
    },
    {
      "inputs": [
        {
          "internalType": "address[]",
          "name": "owners",
          "type": "address[]"
        },
        {
          "internalType": "uint256",
          "name": "minOwners",
          "type": "uint256"
        },
        {
          "internalType": "address",
          "name": "managerContractAddress",
          "type": "address"
        }
      ],
      "name": "PublicPool_init",
      "outputs": [],
      "stateMutability": "nonpayable",
      "type": "function"
    },
    {
      "inputs": [
        {
          "components": [
            {
              "internalType": "address",
              "name": "_owner",
              "type": "address"
            },
            {
              "internalType": "string",
              "name": "_name",
              "type": "string"
            },
            {
              "internalType": "string",
              "name": "_symbol",
              "type": "string"
            },
            {
              "internalType": "uint256",
              "name": "_feeAmount",
              "type": "uint256"
            },
            {
              "internalType": "uint256",
              "name": "_feeDecimals",
              "type": "uint256"
            },
            {
              "internalType": "enum Library.PaymentPlans",
              "name": "_paymentPlan",
              "type": "uint8"
            }
          ],
          "internalType": "struct ItemsLibrary._issuerStruct",
          "name": "requestedIssuer",
          "type": "tuple"
        },
        {
          "internalType": "bool",
          "name": "FromCredit",
          "type": "bool"
        }
      ],
      "name": "requestIssuer",
      "outputs": [],
      "stateMutability": "nonpayable",
      "type": "function"
    },
    {
      "inputs": [
        {
          "internalType": "uint256",
          "name": "id",
          "type": "uint256"
        }
      ],
      "name": "validateIssuer",
      "outputs": [],
      "stateMutability": "nonpayable",
      "type": "function"
    },
    {
      "inputs": [
        {
          "internalType": "uint256",
          "name": "id",
          "type": "uint256"
        }
      ],
      "name": "rejectIssuer",
      "outputs": [],
      "stateMutability": "nonpayable",
      "type": "function"
    },
    {
      "inputs": [],
      "name": "retrieveIssuers",
      "outputs": [
        {
          "internalType": "uint256[]",
          "name": "",
          "type": "uint256[]"
        }
      ],
      "stateMutability": "view",
      "type": "function"
    },
    {
      "inputs": [
        {
          "internalType": "uint256",
          "name": "id",
          "type": "uint256"
        }
      ],
      "name": "retrieveNFTMarketForIssuer",
      "outputs": [
        {
          "internalType": "address",
          "name": "",
          "type": "address"
        }
      ],
      "stateMutability": "view",
      "type": "function"
    },
    {
      "inputs": [],
      "name": "retrievePendingIssuers",
      "outputs": [
        {
          "internalType": "uint256[]",
          "name": "",
          "type": "uint256[]"
        }
      ],
      "stateMutability": "view",
      "type": "function"
    },
    {
      "inputs": [
        {
          "internalType": "uint256",
          "name": "id",
          "type": "uint256"
        }
      ],
      "name": "retrievePendingIssuer",
      "outputs": [
        {
          "components": [
            {
              "components": [
                {
                  "internalType": "address",
                  "name": "_owner",
                  "type": "address"
                },
                {
                  "internalType": "string",
                  "name": "_name",
                  "type": "string"
                },
                {
                  "internalType": "string",
                  "name": "_symbol",
                  "type": "string"
                },
                {
                  "internalType": "uint256",
                  "name": "_feeAmount",
                  "type": "uint256"
                },
                {
                  "internalType": "uint256",
                  "name": "_feeDecimals",
                  "type": "uint256"
                },
                {
                  "internalType": "enum Library.PaymentPlans",
                  "name": "_paymentPlan",
                  "type": "uint8"
                }
              ],
              "internalType": "struct ItemsLibrary._issuerStruct",
              "name": "_issuer",
              "type": "tuple"
            },
            {
              "internalType": "uint256",
              "name": "_pendingId",
              "type": "uint256"
            },
            {
              "internalType": "uint256",
              "name": "_validations",
              "type": "uint256"
            },
            {
              "internalType": "uint256",
              "name": "_rejections",
              "type": "uint256"
            },
            {
              "internalType": "address[]",
              "name": "_voters",
              "type": "address[]"
            }
          ],
          "internalType": "struct IPool._pendingIssuerStruct",
          "name": "",
          "type": "tuple"
        }
      ],
      "stateMutability": "view",
      "type": "function"
    },
    {
      "inputs": [
        {
          "internalType": "address",
          "name": "addr",
          "type": "address"
        },
        {
          "internalType": "uint256",
          "name": "amount",
          "type": "uint256"
        }
      ],
      "name": "sendCredit",
      "outputs": [],
      "stateMutability": "nonpayable",
      "type": "function"
    },
    {
      "inputs": [
        {
          "internalType": "uint256",
          "name": "NFTMarketId",
          "type": "uint256"
        },
        {
          "internalType": "uint256",
          "name": "tokenID",
          "type": "uint256"
        },
        {
          "internalType": "address[]",
          "name": "addrs",
          "type": "address[]"
        },
        {
          "internalType": "uint256[]",
          "name": "amounts",
          "type": "uint256[]"
        },
        {
          "internalType": "uint256[]",
          "name": "factors",
          "type": "uint256[]"
        }
      ],
      "name": "addCredit",
      "outputs": [],
      "stateMutability": "nonpayable",
      "type": "function"
    },
    {
      "inputs": [
        {
          "internalType": "uint256",
          "name": "NFTMarketId",
          "type": "uint256"
        },
        {
          "internalType": "uint256",
          "name": "tokenID",
          "type": "uint256"
        },
        {
          "internalType": "address",
          "name": "addr",
          "type": "address"
        },
        {
          "internalType": "uint256",
          "name": "amount",
          "type": "uint256"
        }
      ],
      "name": "reuseCredit",
      "outputs": [],
      "stateMutability": "nonpayable",
      "type": "function"
    },
    {
      "inputs": [
        {
          "internalType": "uint256",
          "name": "NFTMarketId",
          "type": "uint256"
        },
        {
          "internalType": "address",
          "name": "from",
          "type": "address"
        },
        {
          "internalType": "uint256",
          "name": "amount",
          "type": "uint256"
        },
        {
          "internalType": "address",
          "name": "to",
          "type": "address"
        }
      ],
      "name": "spendCredit",
      "outputs": [],
      "stateMutability": "nonpayable",
      "type": "function"
    },
    {
      "inputs": [
        {
          "internalType": "uint256",
          "name": "amount",
          "type": "uint256"
        }
      ],
      "name": "withdraw",
      "outputs": [],
      "stateMutability": "nonpayable",
      "type": "function"
    },
    {
      "inputs": [],
      "name": "withdrawAll",
      "outputs": [],
      "stateMutability": "nonpayable",
      "type": "function"
    },
    {
      "inputs": [
        {
          "internalType": "uint256",
          "name": "NFTMarketId",
          "type": "uint256"
        },
        {
          "internalType": "address",
          "name": "addr",
          "type": "address"
        },
        {
          "internalType": "bytes",
          "name": "data",
          "type": "bytes"
        }
      ],
      "name": "withdrawAllFor",
      "outputs": [],
      "stateMutability": "nonpayable",
      "type": "function"
    },
    {
      "inputs": [
        {
          "internalType": "address",
          "name": "addr",
          "type": "address"
        }
      ],
      "name": "retrieveCredit",
      "outputs": [
        {
          "internalType": "uint256",
          "name": "",
          "type": "uint256"
        }
      ],
      "stateMutability": "view",
      "type": "function"
    }
  ],
  "bytecode": "0x608060405234801561001057600080fd5b50615c3e80620000216000396000f3fe60806040523480156200001157600080fd5b5060043610620001965760003560e01c806303231e5d146200019b578063062a080014620001df578063094a0ed214620001f85780630bee185e146200021e578063173825d91462000235578063280931e7146200024c5780632e1a7d4d14620002635780632edbe7fc146200027a5780632f02a3ec146200028d57806330ade92214620002a457806334f2920714620002ae578063430c37cb14620002c5578063501781e814620002dc578063538b6aad14620002f35780635888ebb3146200030c57806358c1599414620003275780635b362e84146200033e57806365b973e514620003505780636b29960414620003595780637065cb48146200037f57806376f8f90f1462000396578063853828b614620003ad57806391c0734b14620003b7578063a93d5ed614620003ce578063ab3fa2a514620003d8578063c3079ae714620003ef578063c66433ea14620003f9578063ce33d58a1462000410578063d0e139181462000427578063f3882e3a1462000431578063f4968d241462000448575b600080fd5b620001c7620001ac366004620049e8565b6000908152600b60205260409020546001600160a01b031690565b604051620001d6919062004c03565b60405180910390f35b620001f6620001f036600462004a97565b6200045f565b005b6200020f62000209366004620049e8565b620006a2565b604051620001d6919062004f3a565b620001f66200022f366004620046ea565b620008f0565b620001f6620002463660046200456b565b62000a62565b620001f66200025d366004620049e8565b62000aa5565b620001f662000274366004620049e8565b62000ab5565b6006545b604051908152602001620001d6565b620001f66200029e366004620045e1565b62000ad4565b620001f662000cc7565b620001f6620002bf366004620049e8565b62000cd5565b620001f6620002d636600462004732565b62000ce2565b620001f6620002ed366004620045b2565b62000d74565b620002fd620010a4565b604051620001d6919062004db9565b62000316620010fe565b604051620001d69392919062005025565b620001f66200033836600462004a48565b62001174565b600a546001600160a01b0316620001c7565b6005546200027e565b620003706200036a36600462004826565b62001198565b604051620001d6919062004da4565b620001f6620003903660046200456b565b62001261565b620001f6620003a73660046200456b565b6200127d565b620001f6620012d5565b620001f6620003c836600462004ad9565b6200138d565b6200037062001632565b620001f6620003e936600462004a02565b62001697565b620001f662001757565b620001f66200040a366004620049e8565b62001763565b620001f6620004213660046200456b565b620017ba565b620002fd620017c7565b6200027e620004423660046200456b565b6200181f565b620001f662000459366004620048ff565b620018c5565b83336200046d82826200205d565b85856200047b8282620020e0565b73__ItemsLibrary__________________________63a86af8fc600f6000896001600160a01b03166001600160a01b0316815260200190815260200160002087600080600a60009054906101000a90046001600160a01b03166001600160a01b031663e220ad956040518163ffffffff1660e01b815260040160006040518083038186803b1580156200050d57600080fd5b505afa15801562000522573d6000803e3d6000fd5b505050506040513d6000823e601f3d908101601f191682016040526200054c91908101906200463f565b60068151811062000561576200056162005224565b60200260200101516001600160a01b031663b049473f6040518163ffffffff1660e01b815260040160206040518083038186803b158015620005a257600080fd5b505afa158015620005b7573d6000803e3d6000fd5b505050506040513d601f19601f82011682018060405250810190620005dd919062004592565b6000604051806020016040528060008152506040518863ffffffff1660e01b815260040162000613979695949392919062004ecc565b60006040518083038186803b1580156200062c57600080fd5b505af415801562000641573d6000803e3d6000fd5b50505050620006528888876200215f565b856001600160a01b031687897fcc2a96ca4f9d89cc3dbd73baa3b6e6d19a2502464e6b9a28e0a9b9b11808bb34886040516200069091815260200190565b60405180910390a45050505050505050565b620006ac62004277565b6000828152600d6020526040908190208151610160810190925280546001600160a01b031660a08301908152600182018054849291849160c085019190620006f4906200519d565b80601f016020809104026020016040519081016040528092919081815260200182805462000722906200519d565b8015620007735780601f10620007475761010080835404028352916020019162000773565b820191906000526020600020905b8154815290600101906020018083116200075557829003601f168201915b505050505081526020016002820180546200078e906200519d565b80601f0160208091040260200160405190810160405280929190818152602001828054620007bc906200519d565b80156200080d5780601f10620007e1576101008083540402835291602001916200080d565b820191906000526020600020905b815481529060010190602001808311620007ef57829003601f168201915b50505091835250506003820154602082015260048201546040820152600582015460609091019060ff1660018111156200084b576200084b6200520e565b60018111156200085f576200085f6200520e565b81525050815260200160068201548152602001600782015481526020016008820154815260200160098201805480602002602001604051908101604052809291908181526020018280548015620008e057602002820191906000526020600020905b81546001600160a01b03168152600190910190602001808311620008c1575b5050505050815250509050919050565b600054610100900460ff166200090d5760005460ff161562000911565b303b155b620009395760405162461bcd60e51b8152600401620009309062004e33565b60405180910390fd5b600054610100900460ff161580156200095c576000805461ffff19166101011790555b8183516200096b82826200217b565b6001846200097a82826200217b565b600586905560005b875181101562000a455760018060000160008a8481518110620009a957620009a962005224565b6020908102919091018101516001600160a01b03168252810191909152604001600020805460ff19169115159190911790558751600290899083908110620009f557620009f562005224565b60209081029190910181015182546001810184556000938452919092200180546001600160a01b0319166001600160a01b039092169190911790558062000a3c81620051da565b91505062000982565b5050505050801562000a5d576000805461ff00191690555b505050565b80600162000a7182826200219e565b60055460025462000a859060019062005154565b62000a9182826200217b565b62000a9e856004620021f7565b5050505050565b62000ab28160016200228b565b50565b62000ab2338260008060405180602001604052806000815250620026ef565b600a546040805163e220ad9560e01b8152905133926001600160a01b03169163e220ad95916004808301926000929190829003018186803b15801562000b1957600080fd5b505afa15801562000b2e573d6000803e3d6000fd5b505050506040513d6000823e601f3d908101601f1916820160405262000b5891908101906200463f565b60018151811062000b6d5762000b6d62005224565b60200260200101516001600160a01b0316816001600160a01b0316148062000c505750600a60009054906101000a90046001600160a01b03166001600160a01b031663e220ad956040518163ffffffff1660e01b815260040160006040518083038186803b15801562000bdf57600080fd5b505afa15801562000bf4573d6000803e3d6000fd5b505050506040513d6000823e601f3d908101601f1916820160405262000c1e91908101906200463f565b60068151811062000c335762000c3362005224565b60200260200101516001600160a01b0316816001600160a01b0316145b62000cb45760405162461bcd60e51b815260206004820152602d60248201527f4974206973206e6f742066726f6d206f6e65206f66207468652063657274696660448201526c69656420636f6e74726163747360981b606482015260840162000930565b62000cc18484846200293c565b50505050565b62000cd3600162002d61565b565b62000ab28160006200228b565b600054610100900460ff1662000cff5760005460ff161562000d03565b303b155b62000d225760405162461bcd60e51b8152600401620009309062004e33565b600054610100900460ff1615801562000d45576000805461ffff19166101011790555b62000d518484620008f0565b62000d5c8262002ebf565b801562000cc1576000805461ff001916905550505050565b60408051600380825260808201909252600091602082016060803683375050604051631635719760e31b81526000600482015291925073__UintLibrary___________________________9163b1ab8cb8915060240160206040518083038186803b15801562000de357600080fd5b505af415801562000df8573d6000803e3d6000fd5b505050506040513d601f19601f8201168201806040525081019062000e1e919062004866565b8160008151811062000e345762000e3462005224565b602090810291909101015260405163bc215e8560e01b815273__AddressLibrary________________________9063bc215e859062000e7890869060040162004c03565b60206040518083038186803b15801562000e9157600080fd5b505af415801562000ea6573d6000803e3d6000fd5b505050506040513d601f19601f8201168201806040525081019062000ecc919062004866565b8160018151811062000ee25762000ee262005224565b6020908102919091010152604051632431a7cf60e01b815260009073__Library_______________________________90632431a7cf9062000f2990859060040162004db9565b60006040518083038186803b15801562000f4257600080fd5b505af415801562000f57573d6000803e3d6000fd5b505050506040513d6000823e601f3d908101601f1916820160405262000f81919081019062004880565b90506000600a60009054906101000a90046001600160a01b03166001600160a01b031663e220ad956040518163ffffffff1660e01b815260040160006040518083038186803b15801562000fd457600080fd5b505afa15801562000fe9573d6000803e3d6000fd5b505050506040513d6000823e601f3d908101601f191682016040526200101391908101906200463f565b60068151811062001028576200102862005224565b60200260200101519050806001600160a01b031663f81561153330876000876040518663ffffffff1660e01b81526004016200106995949392919062004c8d565b600060405180830381600087803b1580156200108457600080fd5b505af115801562001099573d6000803e3d6000fd5b505050505050505050565b6060600e805480602002602001604051908101604052809291908181526020018280548015620010f457602002820191906000526020600020905b815481526020019060010190808311620010df575b5050505050905090565b60008060606007546008546009808054806020026020016040519081016040528092919081815260200182805480156200116257602002820191906000526020600020905b81546001600160a01b0316815260019091019060200180831162001143575b50505050509050925092509250909192565b83336200118282826200205d565b620011908686868662002f43565b505050505050565b6060811562001202576003805460408051602080840282018101909252828152929190830182828015620011f657602002820191906000526020600020905b81546001600160a01b03168152600190910190602001808311620011d7575b50505050509050919050565b6004805460408051602080840282018101909252828152929190830182828015620011f6576020028201919060005260206000209081546001600160a01b03168152600190910190602001808311620011d75750505050509050919050565b8060006200127082826200219e565b62000a5d836003620021f7565b620012888162003156565b151560011415620012c857600254620012a49060019062005154565b6005541115620012c85760405162461bcd60e51b8152600401620009309062004e14565b62000ab2816001620031db565b336000908152600f602052604080822090516326162dc360e01b8152600481019190915273__ItemsLibrary__________________________906326162dc39060240160206040518083038186803b1580156200133157600080fd5b505af415801562001346573d6000803e3d6000fd5b505050506040513d601f19601f820116820180604052508101906200136c919062004866565b905062000ab2338260008060405180602001604052806000815250620026ef565b87336200139b82826200205d565b60008a81526010602090815260408083208c84528252918290205482518883028181018401909452888152909290918991899182919085019084908082843760009201919091525050604080516020808a028281018201909352898252909350899250889182918501908490808284376000920191909152506200142792508591508490508362003684565b898614620014495760405162461bcd60e51b8152600401620009309062004e81565b60005b8a811015620016065773__ItemsLibrary__________________________6338335327600f60008f8f8681811062001488576200148862005224565b90506020020160208101906200149f91906200456b565b6001600160a01b03166001600160a01b031681526020019081526020016000208c8c85818110620014d457620014d462005224565b905060200201358b8b86818110620014f057620014f062005224565b905060200201356040518463ffffffff1660e01b8152600401620015179392919062004f24565b60006040518083038186803b1580156200153057600080fd5b505af415801562001545573d6000803e3d6000fd5b505050508b8b828181106200155e576200155e62005224565b90506020020160208101906200157591906200456b565b6001600160a01b03168d8f7f1f0966cb4dbc8738200b37503c6989e77e4e56383816b0632219dbc8c241b8b78d8d86818110620015b657620015b662005224565b905060200201358c8c87818110620015d257620015d262005224565b90506020020135604051620015e992919062005017565b60405180910390a480620015fd81620051da565b9150506200144c565b50505060009a8b525050601060209081526040808b20998b529890525050509385209490945550505050565b606060018001805480602002602001604051908101604052809291908181526020018280548015620010f457602002820191906000526020600020905b81546001600160a01b031681526001909101906020018083116200166f575050505050905090565b8233620016a582826200205d565b6001600160a01b0384166000908152600f602052604080822090516326162dc360e01b8152600481019190915273__ItemsLibrary__________________________906326162dc39060240160206040518083038186803b1580156200170a57600080fd5b505af41580156200171f573d6000803e3d6000fd5b505050506040513d601f19601f8201168201806040525081019062001745919062004866565b905062001190858233600188620026ef565b62000cd3600062002d61565b3360016200177282826200219e565b60006200177f8162003837565b60025484906200179082826200217b565b6001866200179f82826200217b565b6006889055620017b0600162002d61565b5050505050505050565b62000ab2816000620031db565b6060600c805480602002602001604051908101604052809291908181526020018280548015620010f45760200282019190600052602060002090815481526020019060010190808311620010df575050505050905090565b6001600160a01b0381166000908152600f602052604080822090516326162dc360e01b8152600481019190915273__ItemsLibrary__________________________906326162dc39060240160206040518083038186803b1580156200188457600080fd5b505af415801562001899573d6000803e3d6000fd5b505050506040513d601f19601f82011682018060405250810190620018bf919062004866565b92915050565b815182906001600160a01b03166200192c5760405162461bcd60e51b8152602060048201526024808201527f4e4654204d61726b6574206f776e65722063616e6e6f742062652061646472656044820152630737320360e41b606482015260840162000930565b6060810151608082015160405163bdbff48760e01b815273__Library_______________________________9263bdbff487926200196d9260040162005017565b60006040518083038186803b1580156200198657600080fd5b505af41580156200199b573d6000803e3d6000fd5b50505050806020015151600010620019e65760405162461bcd60e51b815260206004820152600d60248201526c4e616d6520697320656d70747960981b604482015260640162000930565b80604001515160001062001a2f5760405162461bcd60e51b815260206004820152600f60248201526e53796d626f6c20697320656d70747960881b604482015260640162000930565b600a546040805163e220ad9560e01b815290516000926001600160a01b03169163e220ad959160048083019286929190829003018186803b15801562001a7457600080fd5b505afa15801562001a89573d6000803e3d6000fd5b505050506040513d6000823e601f3d908101601f1916820160405262001ab391908101906200463f565b60028151811062001ac85762001ac862005224565b60200260200101516001600160a01b031663b049473f6040518163ffffffff1660e01b815260040160006040518083038186803b15801562001b0957600080fd5b505afa15801562001b1e573d6000803e3d6000fd5b505050506040513d6000823e601f3d908101601f1916820160405262001b48919081019062004792565b9050600081818151811062001b615762001b6162005224565b602002602001015190506000826001600881111562001b845762001b846200520e565b8151811062001b975762001b9762005224565b60200260200101519050841562001d065762001c6260003384600a60009054906101000a90046001600160a01b03166001600160a01b031663e220ad956040518163ffffffff1660e01b815260040160006040518083038186803b15801562001bff57600080fd5b505afa15801562001c14573d6000803e3d6000fd5b505050506040513d6000823e601f3d908101601f1916820160405262001c3e91908101906200463f565b60025b8151811062001c545762001c5462005224565b602002602001015162002f43565b62001d0060003383600a60009054906101000a90046001600160a01b03166001600160a01b031663e220ad956040518163ffffffff1660e01b815260040160006040518083038186803b15801562001cb957600080fd5b505afa15801562001cce573d6000803e3d6000fd5b505050506040513d6000823e601f3d908101601f1916820160405262001cf891908101906200463f565b600562001c41565b62001ff3565b600a546040805163e220ad9560e01b815290516000926001600160a01b03169163e220ad959160048083019286929190829003018186803b15801562001d4b57600080fd5b505afa15801562001d60573d6000803e3d6000fd5b505050506040513d6000823e601f3d908101601f1916820160405262001d8a91908101906200463f565b60068151811062001d9f5762001d9f62005224565b60200260200101519050806001600160a01b031663f815611533600a60009054906101000a90046001600160a01b03166001600160a01b031663e220ad956040518163ffffffff1660e01b815260040160006040518083038186803b15801562001e0857600080fd5b505afa15801562001e1d573d6000803e3d6000fd5b505050506040513d6000823e601f3d908101601f1916820160405262001e4791908101906200463f565b60028151811062001e5c5762001e5c62005224565b6020026020010151866000604051806020016040528060008152506040518663ffffffff1660e01b815260040162001e9995949392919062004c8d565b600060405180830381600087803b15801562001eb457600080fd5b505af115801562001ec9573d6000803e3d6000fd5b50505050806001600160a01b031663f815611533600a60009054906101000a90046001600160a01b03166001600160a01b031663e220ad956040518163ffffffff1660e01b815260040160006040518083038186803b15801562001f2c57600080fd5b505afa15801562001f41573d6000803e3d6000fd5b505050506040513d6000823e601f3d908101601f1916820160405262001f6b91908101906200463f565b60058151811062001f805762001f8062005224565b6020026020010151856000604051806020016040528060008152506040518663ffffffff1660e01b815260040162001fbd95949392919062004c8d565b600060405180830381600087803b15801562001fd857600080fd5b505af115801562001fed573d6000803e3d6000fd5b50505050505b60208087015180519101206200200a8188620038b1565b807f88d341cdb636e2cf41b99330be584ef11888487c9b2aef53410ed90fb2c487ad886000015189602001518a604001516040516200204c9392919062004d60565b60405180910390a250505050505050565b6000828152600b60205260409020546001600160a01b03828116911614620020dc5760405162461bcd60e51b815260206004820152602b60248201527f546865204d61726b657420496420616e64204164647265737320646f206e6f7460448201526a0818dbdc9c995cdc1bdb9960aa1b606482015260840162000930565b5050565b600082815260106020908152604080832084845290915290205415620020dc5760405162461bcd60e51b815260206004820152602d60248201527f556e61737369676e65642063726564697420666f72207468697320746f6b656e60448201526c206973206e6f7420656d70747960981b606482015260840162000930565b6000928352601060209081526040808520938552929052912055565b80821115620020dc5760405162461bcd60e51b8152600401620009309062004e14565b6001600160a01b03821660009081526001602052604090205460ff16151581151514620020dc5760405162461bcd60e51b815260040162000930906020808252600490820152634543392d60e01b604082015260600190565b3360016200220682826200219e565b83600062002215828262003a5b565b84546001808201875560008781526020812090920180546001600160a01b0319166001600160a01b038a16179055865462002251919062005154565b6001600160a01b038816600090815260016020819052604090912060020182905590915062002282908890620031db565b50505050505050565b3360016200229a82826200219e565b6000848152600d60209081526040918290206009018054835181840281018401909452808452339392830182828015620022fe57602002820191906000526020600020905b81546001600160a01b03168152600190910190602001808311620022df575b50505050506200230f828262003ab4565b6000868152600d602052604090205486906001600160a01b0316620023775760405162461bcd60e51b815260206004820152601d60248201527f5468697320697373756572206964206973206e6f742070656e64696e67000000604482015260640162000930565b60408051338152871515602082015288917f5a1a88bd27a0cf1c470b27b132493e61efc1eaf3d1b57db0ab7f73182345d047910160405180910390a26000878152600d602090815260408220600901805460018101825590835291200180546001600160a01b03191633179055851562002671576000878152600d602052604081206007018054916200240a83620051da565b90915550506005546000888152600d6020526040902060070154106200266b57600c805460018181019092557fdf6966c971051c3d54ec59162606531493a51404a002842f56009d7e5cf4a8c7018890556000888152600d60205260409020805491018054620025df926001600160a01b031691906200248a906200519d565b80601f0160208091040260200160405190810160405280929190818152602001828054620024b8906200519d565b8015620025095780601f10620024dd5761010080835404028352916020019162002509565b820191906000526020600020905b815481529060010190602001808311620024eb57829003601f168201915b50505060008c8152600d6020526040902060020180549092506200252e91506200519d565b80601f01602080910402602001604051908101604052809291908181526020018280546200255c906200519d565b8015620025ad5780601f106200258157610100808354040283529160200191620025ad565b820191906000526020600020905b8154815290600101906020018083116200258f57829003601f168201915b50505060008d8152600d60205260409020600381015460048201546005909201549093509091508d9060ff1662003b7b565b6000888152600b6020526040902080546001600160a01b0319166001600160a01b0392909216919091179055620026168762003e33565b6000878152600b60205260409081902054905188917f2cedba2f59ec9c6a70e350caabb40ea15150e2bd297a517df51c1fbdbeacad399162002662916001600160a01b03169062004c03565b60405180910390a25b62002282565b6000878152600d602052604081206008018054916200269083620051da565b90915550506005546000888152600d6020526040902060080154106200228257620026bb8762003e33565b60405187907f403eabfde87045e1433576679912c142f6e51573d2635748e5331c62fbcfecc190600090a250505050505050565b6001600160a01b038086166000908152600f6020526040808220600a54825163e220ad9560e01b8152925173__ItemsLibrary__________________________9563a86af8fc9593948b948d9460019493169263e220ad95926004808201939291829003018186803b1580156200276557600080fd5b505afa1580156200277a573d6000803e3d6000fd5b505050506040513d6000823e601f3d908101601f19168201604052620027a491908101906200463f565b600681518110620027b957620027b962005224565b60200260200101516001600160a01b031663b049473f6040518163ffffffff1660e01b815260040160206040518083038186803b158015620027fa57600080fd5b505afa1580156200280f573d6000803e3d6000fd5b505050506040513d601f19601f8201168201806040525081019062002835919062004592565b88886040518863ffffffff1660e01b81526004016200285b979695949392919062004ecc565b60006040518083038186803b1580156200287457600080fd5b505af415801562002889573d6000803e3d6000fd5b505050506001600160a01b03831615620028f157826001600160a01b0316856001600160a01b03167f3a7f8bf3f0d95026e8cd9a7d4ab518248a380c6e63e2611c19c360d4ed07469a86604051620028e391815260200190565b60405180910390a362000a9e565b846001600160a01b03167f2ea7968b99b8c24c37e3919ac458cdbab6b3d63ff9e271eddd29661aae4f7691856040516200292d91815260200190565b60405180910390a25050505050565b60405163caa8f58960e01b815260009073__Library_______________________________9063caa8f589906200297890859060040162004dff565b60006040518083038186803b1580156200299157600080fd5b505af4158015620029a6573d6000803e3d6000fd5b505050506040513d6000823e601f3d908101601f19168201604052620029d0919081019062004792565b9050600081600081518110620029ea57620029ea62005224565b602002602001015160001c600181111562002a095762002a096200520e565b905080600181111562002a205762002a206200520e565b62002bb157600073__AddressLibrary________________________63f4ce9ae88460018151811062002a575762002a5762005224565b60200260200101516040518263ffffffff1660e01b815260040162002a7e91815260200190565b60206040518083038186803b15801562002a9757600080fd5b505af415801562002aac573d6000803e3d6000fd5b505050506040513d601f19601f8201168201806040525081019062002ad2919062004592565b6001600160a01b0381166000908152600f6020526040908190209051633833532760e01b815291925073__ItemsLibrary__________________________9163383353279162002b2a91899060019060040162004f24565b60006040518083038186803b15801562002b4357600080fd5b505af415801562002b58573d6000803e3d6000fd5b50505050856001600160a01b0316816001600160a01b03167f2db0422b7b00320178055968e2ebe34d54d66b98f662782bec28aaddcf8697e98760405162002ba291815260200190565b60405180910390a35062000a9e565b600073__UintLibrary___________________________630bd4715e8460018151811062002be35762002be362005224565b60200260200101516040518263ffffffff1660e01b815260040162002c0a91815260200190565b60206040518083038186803b15801562002c2357600080fd5b505af415801562002c38573d6000803e3d6000fd5b505050506040513d601f19601f8201168201806040525081019062002c5e919062004866565b9050600073__UintLibrary___________________________630bd4715e8560028151811062002c925762002c9262005224565b60200260200101516040518263ffffffff1660e01b815260040162002cb991815260200190565b60206040518083038186803b15801562002cd257600080fd5b505af415801562002ce7573d6000803e3d6000fd5b505050506040513d601f19601f8201168201806040525081019062002d0d919062004866565b905062002d1c8282886200215f565b80827f11d40ce091479b07ca14dc778720652f2760dc3237903b19ab5698a7cf478bcb8860405162002d5091815260200190565b60405180910390a350505050505050565b33600162002d7082826200219e565b600162002d7d8162003837565b33600980548060200260200160405190810160405280929190818152602001828054801562002dd657602002820191906000526020600020905b81546001600160a01b0316815260019091019060200180831162002db7575b505050505062002de7828262003ab4565b851562002e0f5760016007600082825462002e039190620050f4565b9091555062002e2a9050565b60016008600082825462002e249190620050f4565b90915550505b600980546001810182556000919091527f6e1540171b6c0c960b71a7020d9f60077f6af931a8bbf590da0223dacf75c7af018054336001600160a01b031990911681179091556006546040805191825260208201929092528715158183015290517fb335599a2dd1eaaedeb810215d45e667a6c5ac7bcfd03c29e597db8bf0cddcc69181900360600190a16200119062003f83565b600054610100900460ff1662002edc5760005460ff161562002ee0565b303b155b62002eff5760405162461bcd60e51b8152600401620009309062004e33565b600054610100900460ff1615801562002f22576000805461ffff19166101011790555b62002f2d8262004029565b8015620020dc576000805461ff00191690555050565b604080516020808201835260008083526001600160a01b038088168252600f909252838120600a54855163e220ad9560e01b81529551949573__ItemsLibrary__________________________9563a86af8fc9593948a948a9460019491169263e220ad9592600480840193919291829003018186803b15801562002fc757600080fd5b505afa15801562002fdc573d6000803e3d6000fd5b505050506040513d6000823e601f3d908101601f191682016040526200300691908101906200463f565b6006815181106200301b576200301b62005224565b60200260200101516001600160a01b031663b049473f6040518163ffffffff1660e01b815260040160206040518083038186803b1580156200305c57600080fd5b505afa15801562003071573d6000803e3d6000fd5b505050506040513d601f19601f8201168201806040525081019062003097919062004592565b604080516020810182526000815290516001600160e01b031960e089901b168152620030ce96959493929160019160040162004ecc565b60006040518083038186803b158015620030e757600080fd5b505af4158015620030fc573d6000803e3d6000fd5b50505050816001600160a01b0316846001600160a01b0316867fc3552ae9eaa5c3eca3c6179f33194d5bf1df2e81eddf6139d511846be0d4c985866040516200314791815260200190565b60405180910390a45050505050565b6004546001600160a01b0382166000908152600160205260408120600201549091116200318557506000919050565b6001600160a01b038216600090815260016020526040902060020154600480549091908110620031b957620031b962005224565b6000918252602090912001546001600160a01b03928316921691909114919050565b336001620031ea82826200219e565b836001620031f9828262003a5b565b6001600160a01b03861660009081526001602090815260409182902060050180548351818402810184019094528084523393928301828280156200326757602002820191906000526020600020905b81546001600160a01b0316815260019091019060200180831162003248575b505050505062003278828262003ab4565b604080516001600160a01b038a1681523360208201528815158183015290517fc6f241efc3de3ce31d0e682102cc781f0605f0f90d72addfea699e4aea85dd799181900360600190a16001600160a01b038816600090815260016020818152604083206005018054928301815583529091200180546001600160a01b03191633179055861562003594576001600160a01b03881660009081526001602052604081206003018054916200332b83620051da565b90915550506005546001600160a01b038916600090815260016020526040902060030154106200358e5760046200336289620040bd565b156200343b575060028054600180820183557f405787fa12a823e0f2b7631cc41b3ba8828b3321ca811111fa75cd3aa3bb5ace90910180546001600160a01b0319166001600160a01b038c169081179091556000908152602082905260409020805460ff1916821790559054600391620033dc9162005154565b6001600160a01b038a166000908152600160208190526040918290200191909155517f45bbe5ceeddcb6d0b4045349efc87a3fde966578e3970cda6f53bfc76efaf9f7906200342d908b9062004c03565b60405180910390a162003580565b6001600160a01b03891660009081526001602081905260409182902001549051633c39c19f60e11b815273__AddressLibrary________________________90637873833e906200349490849060029060040162005017565b60006040518083038186803b158015620034ad57600080fd5b505af4158015620034c2573d6000803e3d6000fd5b505060025483101591506200351c9050578060016000016000600180018481548110620034f357620034f362005224565b60009182526020808320909101546001600160a01b031683528201929092526040019020600101555b6001600160a01b038a166000908152600160208190526040808320805460ff1916815590910191909155517f82bcab3b042f3e2143a9d33d07fa130afdf763f17a45679670f0e39f12064ca89062003576908c9062004c03565b60405180910390a1505b6200358c898262004120565b505b620017b0565b6001600160a01b0388166000908152600160205260408120600401805491620035bd83620051da565b90915550506005546001600160a01b03891660009081526001602052604090206004015410620017b0576004620035f489620040bd565b156200363e57506040516003907f622a69297177c029df8c1ba7f4d2d59881089b571ae96800e634aff50d67492e9062003630908b9062004c03565b60405180910390a162003678565b7f547e31c58b802b63bc89f1109a132a291b0527c9196c97759829aeaecd3c2d39896040516200366f919062004c03565b60405180910390a15b62001099898262004120565b8051825114620036a85760405162461bcd60e51b8152600401620009309062004e81565b604051633c952fb360e21b815260009073__UintLibrary___________________________9063f254becc90620036e490859060040162004db9565b60206040518083038186803b158015620036fd57600080fd5b505af415801562003712573d6000803e3d6000fd5b505050506040513d601f19601f8201168201806040525081019062003738919062004866565b90506000805b8351811015620037be578381815181106200375d576200375d62005224565b6020026020010151838683815181106200377b576200377b62005224565b60200260200101516200378f919062005132565b6200379b91906200510f565b620037a79083620050f4565b915080620037b581620051da565b9150506200373e565b5080620037cc838762005132565b1462000a9e5760405162461bcd60e51b815260206004820152603360248201527f74686520746f74616c20616d6f756e74206973206e6f7420657175616c20746f604482015272207468652063616c63756c61746564206f6e6560681b606482015260840162000930565b8015620038775760065462000ab25760405162461bcd60e51b8152602060048201526005602482015264454333312d60d81b604482015260640162000930565b6006541562000ab25760405162461bcd60e51b8152602060048201526005602482015264454333302d60d81b604482015260640162000930565b6000828152600d60205260409020546001600160a01b0316158015620038ec57506000828152600b60205260409020546001600160a01b0316155b6200394a5760405162461bcd60e51b815260206004820152602760248201527f5468697320497373756572204e616d652068617320616c72656164792062656560448201526637103a30b5b2b760c91b606482015260840162000930565b80516000838152600d6020908152604090912080546001600160a01b0319166001600160a01b039093169290921782558083015180516200399493600101929190910190620042ae565b506040808201516000848152600d60209081529290208151620039c2936002909201929190910190620042ae565b5060608101516000838152600d6020526040902060038101919091556080820151600482015560a08201516005909101805460ff19166001838181111562003a0e5762003a0e6200520e565b021790555050600e80546000838152600d60205260408120600601829055600182018355919091527fbb7b4a454dc3493923482f07822329ed19e8244eff582cc204f8554c3620c3fd0155565b62003a6682620040bd565b8062003a78575062003a788262003156565b151581151514620020dc5760405162461bcd60e51b8152602060048201526005602482015264454331302d60d81b604482015260640162000930565b60405163f7cf62d760e01b815273__AddressLibrary________________________9063f7cf62d79062003aef908590859060040162004cd4565b60206040518083038186803b15801562003b0857600080fd5b505af415801562003b1d573d6000803e3d6000fd5b505050506040513d601f19601f8201168201806040525081019062003b43919062004846565b15620020dc5760405162461bcd60e51b815260040162000930906020808252600490820152634543352d60e01b604082015260600190565b600080600a60009054906101000a90046001600160a01b03166001600160a01b031663efd621de6040518163ffffffff1660e01b815260040160006040518083038186803b15801562003bcd57600080fd5b505afa15801562003be2573d6000803e3d6000fd5b505050506040513d6000823e601f3d908101601f1916820160405262003c0c91908101906200463f565b60008151811062003c215762003c2162005224565b602002602001015190506000600a60009054906101000a90046001600160a01b03166001600160a01b031663e220ad956040518163ffffffff1660e01b815260040160006040518083038186803b15801562003c7c57600080fd5b505afa15801562003c91573d6000803e3d6000fd5b505050506040513d6000823e601f3d908101601f1916820160405262003cbb91908101906200463f565b60028151811062003cd05762003cd062005224565b60200260200101516001600160a01b031663b049473f6040518163ffffffff1660e01b815260040160006040518083038186803b15801562003d1157600080fd5b505afa15801562003d26573d6000803e3d6000fd5b505050506040513d6000823e601f3d908101601f1916820160405262003d50919081019062004792565b60088151811062003d655762003d6562005224565b6020908102919091010151600a549091506000906001600160a01b03168b8b8b858c8c8c8c600181111562003d9e5762003d9e6200520e565b60405160240162003db89998979695949392919062004c17565b60408051601f198184030181529181526020820180516001600160e01b03166398a7541d60e01b179052519091506000908490839062003df8906200433d565b62003e0592919062004d32565b604051809103906000f08015801562003e22573d6000803e3d6000fd5b509c9b505050505050505050505050565b6000818152600d60205260409081902060060154905163cffd93cd60e01b815273__UintLibrary___________________________9063cffd93cd9062003e82908490600e9060040162005017565b60006040518083038186803b15801562003e9b57600080fd5b505af415801562003eb0573d6000803e3d6000fd5b5050505080600e80549050111562003efe5780600d6000600e848154811062003edd5762003edd62005224565b90600052602060002001548152602001908152602001600020600601819055505b6000828152600d6020526040812080546001600160a01b03191681559062003f2a60018301826200434b565b62003f3a6002830160006200434b565b50600060038201819055600482018190556005909101805460ff19169055828152600d602052604081206007810182905560088101829055620020dc916009909101906200438a565b62003f936007546005546200423b565b1562003fdf5760065460058190556040519081527f09cfdf09b84b5390e2f9e64a6b66bdfd4e3b7a611dfdd07cde2f5289ecdaace7906020015b60405180910390a162000cd362004258565b62003fef6008546005546200423b565b1562000cd3577f6005dc34d50a3e2ea64571b58119d8a81074b8e2db57a77c28e664641733308f60065460405162003fcd91815260200190565b600054610100900460ff16620040465760005460ff16156200404a565b303b155b620040695760405162461bcd60e51b8152600401620009309062004e33565b600054610100900460ff161580156200408c576000805461ffff19166101011790555b600a80546001600160a01b0319166001600160a01b0384161790558015620020dc576000805461ff00191690555050565b6003546001600160a01b038216600090815260016020526040812060020154909111620040ec57506000919050565b6001600160a01b038216600090815260016020526040902060020154600380549091908110620031b957620031b962005224565b6001600160a01b03821660009081526001602052604090819020600201549051633c39c19f60e11b815273__AddressLibrary________________________90637873833e9062004178908490869060040162005017565b60006040518083038186803b1580156200419157600080fd5b505af4158015620041a6573d6000803e3d6000fd5b505050508082805490501115620041fd578060016000016000848481548110620041d457620041d462005224565b60009182526020808320909101546001600160a01b031683528201929092526040019020600201555b6001600160a01b038316600090815260016020526040812060028101829055600381018290556004810182905562000a5d916005909101906200438a565b6000818310156200424f57506000620018bf565b50600192915050565b600060068190556007819055600881905562000cd3906009906200438a565b6040518060a001604052806200428c620043aa565b8152602001600081526020016000815260200160008152602001606081525090565b828054620042bc906200519d565b90600052602060002090601f016020900481019282620042e057600085556200432b565b82601f10620042fb57805160ff19168380011785556200432b565b828001600101855582156200432b579182015b828111156200432b5782518255916020019190600101906200430e565b5062004339929150620043fc565b5090565b610993806200527683390190565b50805462004359906200519d565b6000825580601f106200436a575050565b601f01602090049060005260206000209081019062000ab29190620043fc565b508054600082559060005260206000209081019062000ab29190620043fc565b6040518060c0016040528060006001600160a01b031681526020016060815260200160608152602001600081526020016000815260200160006001811115620043f757620043f76200520e565b905290565b5b80821115620043395760008155600101620043fd565b8035620044208162005250565b919050565b60008083601f8401126200443857600080fd5b5081356001600160401b038111156200445057600080fd5b6020830191508360208260051b85010111156200446c57600080fd5b9250929050565b600082601f8301126200448557600080fd5b813560206200449e6200449883620050a4565b62005071565b80838252828201915082860187848660051b8901011115620044bf57600080fd5b60005b85811015620044eb578135620044d88162005250565b84529284019290840190600101620044c2565b5090979650505050505050565b8035620044208162005266565b600082601f8301126200451757600080fd5b8135620045286200449882620050ca565b8181528460208386010111156200453e57600080fd5b816020850160208301376000918101602001919091529392505050565b8035600281106200442057600080fd5b6000602082840312156200457e57600080fd5b81356200458b8162005250565b9392505050565b600060208284031215620045a557600080fd5b81516200458b8162005250565b60008060408385031215620045c657600080fd5b8235620045d38162005250565b946020939093013593505050565b600080600060608486031215620045f757600080fd5b8335620046048162005250565b92506020840135915060408401356001600160401b038111156200462757600080fd5b620046358682870162004505565b9150509250925092565b600060208083850312156200465357600080fd5b82516001600160401b038111156200466a57600080fd5b8301601f810185136200467c57600080fd5b80516200468d6200449882620050a4565b80828252848201915084840188868560051b8701011115620046ae57600080fd5b600094505b83851015620046de578051620046c98162005250565b835260019490940193918501918501620046b3565b50979650505050505050565b60008060408385031215620046fe57600080fd5b82356001600160401b038111156200471557600080fd5b620047238582860162004473565b95602094909401359450505050565b6000806000606084860312156200474857600080fd5b83356001600160401b038111156200475f57600080fd5b6200476d8682870162004473565b935050602084013591506040840135620047878162005250565b809150509250925092565b60006020808385031215620047a657600080fd5b82516001600160401b03811115620047bd57600080fd5b8301601f81018513620047cf57600080fd5b8051620047e06200449882620050a4565b80828252848201915084840188868560051b87010111156200480157600080fd5b600094505b83851015620046de57805183526001949094019391850191850162004806565b6000602082840312156200483957600080fd5b81356200458b8162005266565b6000602082840312156200485957600080fd5b81516200458b8162005266565b6000602082840312156200487957600080fd5b5051919050565b6000602082840312156200489357600080fd5b81516001600160401b03811115620048aa57600080fd5b8201601f81018413620048bc57600080fd5b8051620048cd6200449882620050ca565b818152856020838501011115620048e357600080fd5b620048f68260208301602086016200516e565b95945050505050565b600080604083850312156200491357600080fd5b82356001600160401b03808211156200492b57600080fd5b9084019060c082870312156200494057600080fd5b6200494a62005046565b620049558362004413565b81526020830135828111156200496a57600080fd5b620049788882860162004505565b6020830152506040830135828111156200499157600080fd5b6200499f8882860162004505565b6040830152506060830135606082015260808301356080820152620049c760a084016200455b565b60a08201529350620049df91505060208401620044f8565b90509250929050565b600060208284031215620049fb57600080fd5b5035919050565b60008060006060848603121562004a1857600080fd5b83359250602084013562004a2c8162005250565b915060408401356001600160401b038111156200462757600080fd5b6000806000806080858703121562004a5f57600080fd5b84359350602085013562004a738162005250565b925060408501359150606085013562004a8c8162005250565b939692955090935050565b6000806000806080858703121562004aae57600080fd5b8435935060208501359250604085013562004ac98162005250565b9396929550929360600135925050565b60008060008060008060008060a0898b03121562004af657600080fd5b883597506020890135965060408901356001600160401b038082111562004b1c57600080fd5b62004b2a8c838d0162004425565b909850965060608b013591508082111562004b4457600080fd5b62004b528c838d0162004425565b909650945060808b013591508082111562004b6c57600080fd5b5062004b7b8b828c0162004425565b999c989b5096995094979396929594505050565b600081518084526020808501945080840160005b8381101562004bca5781516001600160a01b03168752958201959082019060010162004ba3565b509495945050505050565b6000815180845262004bef8160208601602086016200516e565b601f01601f19169290920160200192915050565b6001600160a01b0391909116815260200190565b6001600160a01b038a81168252891660208201526101206040820181905260009062004c468382018b62004bd5565b9050828103606084015262004c5c818a62004bd5565b6080840198909852505060a081019490945260c084019290925260e083015260ff1661010090910152949350505050565b6001600160a01b03868116825285166020820152604081018490526060810183905260a06080820181905260009062004cc99083018462004bd5565b979650505050505050565b6001600160a01b038381168252604060208084018290528451918401829052600092858201929091906060860190855b8181101562004d2457855185168352948301949183019160010162004d04565b509098975050505050505050565b6001600160a01b038316815260406020820181905260009062004d589083018462004bd5565b949350505050565b6001600160a01b038416815260606020820181905260009062004d869083018562004bd5565b828103604084015262004d9a818562004bd5565b9695505050505050565b6020815260006200458b602083018462004b8f565b6020808252825182820181905260009190848201906040850190845b8181101562004df35783518352928401929184019160010162004dd5565b50909695505050505050565b6020815260006200458b602083018462004bd5565b602080825260059082015264454331392d60d81b604082015260600190565b6020808252602e908201527f496e697469616c697a61626c653a20636f6e747261637420697320616c72656160408201526d191e481a5b9a5d1a585b1a5e995960921b606082015260800190565b6020808252602b908201527f50726f76696465642061727261797320646f206e6f742068617665207468652060408201526a0e6c2daca40d8cadccee8d60ab1b606082015260800190565b878152602081018790526001600160a01b03868116604083015285151560608301528416608082015282151560a082015260e060c0820181905260009062004f179083018462004bd5565b9998505050505050505050565b9283526020830191909152604082015260600190565b602081526000825160a0602084015260018060a01b0381511660c0840152602081015160c060e085015262004f7461018085018262004bd5565b9050604082015160bf198583030161010086015262004f94828262004bd5565b9150506060820151610120850152608082015161014085015260a082015191506002821062004fd357634e487b7160e01b600052602160045260246000fd5b8161016085015260208501516040850152604085015160608501526060850151608085015260808501519150601f198482030160a0850152620048f6818362004b8f565b918252602082015260400190565b838152826020820152606060408201526000620048f6606083018462004b8f565b60405160c081016001600160401b03811182821017156200506b576200506b6200523a565b60405290565b604051601f8201601f191681016001600160401b03811182821017156200509c576200509c6200523a565b604052919050565b60006001600160401b03821115620050c057620050c06200523a565b5060051b60200190565b60006001600160401b03821115620050e657620050e66200523a565b50601f01601f191660200190565b600082198211156200510a576200510a620051f8565b500190565b6000826200512d57634e487b7160e01b600052601260045260246000fd5b500490565b60008160001904831182151516156200514f576200514f620051f8565b500290565b600082821015620051695762005169620051f8565b500390565b60005b838110156200518b57818101518382015260200162005171565b8381111562000cc15750506000910152565b600181811c90821680620051b257607f821691505b60208210811415620051d457634e487b7160e01b600052602260045260246000fd5b50919050565b6000600019821415620051f157620051f1620051f8565b5060010190565b634e487b7160e01b600052601160045260246000fd5b634e487b7160e01b600052602160045260246000fd5b634e487b7160e01b600052603260045260246000fd5b634e487b7160e01b600052604160045260246000fd5b6001600160a01b038116811462000ab257600080fd5b801515811462000ab257600080fdfe608060405260405161099338038061099383398101604081905261002291610470565b61004d60017fa3f0ad74e5423aebfd80d3ef4346578335a9a72aeaee59ff6cb3582b35133d5161057f565b60008051602061094c83398151915214610069576100696105d0565b6100758282600061007c565b50506105fc565b61008583610156565b6040516001600160a01b038416907f1cf3b03a6cf19fa2baba4df148e9dcabedea7f8a5c07840e207e5c089be95d3e90600090a26000825111806100c65750805b156101515761014f836001600160a01b0316635c60da1b6040518163ffffffff1660e01b815260040160206040518083038186803b15801561010757600080fd5b505afa15801561011b573d6000803e3d6000fd5b505050506040513d601f19601f8201168201806040525081019061013f9190610455565b836102f660201b6100291760201c565b505b505050565b6101698161032260201b6100551760201c565b6101c85760405162461bcd60e51b815260206004820152602560248201527f455243313936373a206e657720626561636f6e206973206e6f74206120636f6e6044820152641d1c9858dd60da1b60648201526084015b60405180910390fd5b61024b816001600160a01b0316635c60da1b6040518163ffffffff1660e01b815260040160206040518083038186803b15801561020457600080fd5b505afa158015610218573d6000803e3d6000fd5b505050506040513d601f19601f8201168201806040525081019061023c9190610455565b61032260201b6100551760201c565b6102b05760405162461bcd60e51b815260206004820152603060248201527f455243313936373a20626561636f6e20696d706c656d656e746174696f6e206960448201526f1cc81b9bdd08184818dbdb9d1c9858dd60821b60648201526084016101bf565b806102d560008051602061094c83398151915260001b61032860201b61005b1760201c565b80546001600160a01b0319166001600160a01b039290921691909117905550565b606061031b838360405180606001604052806027815260200161096c6027913961032b565b9392505050565b3b151590565b90565b6060833b61038a5760405162461bcd60e51b815260206004820152602660248201527f416464726573733a2064656c65676174652063616c6c20746f206e6f6e2d636f6044820152651b9d1c9858dd60d21b60648201526084016101bf565b600080856001600160a01b0316856040516103a59190610530565b600060405180830381855af49150503d80600081146103e0576040519150601f19603f3d011682016040523d82523d6000602084013e6103e5565b606091505b5090925090506103f6828286610400565b9695505050505050565b6060831561040f57508161031b565b82511561041f5782518084602001fd5b8160405162461bcd60e51b81526004016101bf919061054c565b80516001600160a01b038116811461045057600080fd5b919050565b60006020828403121561046757600080fd5b61031b82610439565b6000806040838503121561048357600080fd5b61048c83610439565b60208401519092506001600160401b03808211156104a957600080fd5b818501915085601f8301126104bd57600080fd5b8151818111156104cf576104cf6105e6565b604051601f8201601f19908116603f011681019083821181831017156104f7576104f76105e6565b8160405282815288602084870101111561051057600080fd5b6105218360208301602088016105a4565b80955050505050509250929050565b600082516105428184602087016105a4565b9190910192915050565b602081526000825180602084015261056b8160408501602087016105a4565b601f01601f19169190910160400192915050565b60008282101561059f57634e487b7160e01b600052601160045260246000fd5b500390565b60005b838110156105bf5781810151838201526020016105a7565b8381111561014f5750506000910152565b634e487b7160e01b600052600160045260246000fd5b634e487b7160e01b600052604160045260246000fd5b6103418061060b6000396000f3fe60806040523661001357610011610017565b005b6100115b61002761002261005e565b610106565b565b606061004e83836040518060600160405280602781526020016102e56027913961012a565b9392505050565b3b151590565b90565b60006100917fa3f0ad74e5423aebfd80d3ef4346578335a9a72aeaee59ff6cb3582b35133d50546001600160a01b031690565b6001600160a01b0316635c60da1b6040518163ffffffff1660e01b815260040160206040518083038186803b1580156100c957600080fd5b505afa1580156100dd573d6000803e3d6000fd5b505050506040513d601f19601f82011682018060405250810190610101919061023c565b905090565b3660008037600080366000845af43d6000803e808015610125573d6000f35b3d6000fd5b6060833b61018e5760405162461bcd60e51b815260206004820152602660248201527f416464726573733a2064656c65676174652063616c6c20746f206e6f6e2d636f6044820152651b9d1c9858dd60d21b60648201526084015b60405180910390fd5b600080856001600160a01b0316856040516101a99190610265565b600060405180830381855af49150503d80600081146101e4576040519150601f19603f3d011682016040523d82523d6000602084013e6101e9565b606091505b50915091506101f9828286610203565b9695505050505050565b6060831561021257508161004e565b8251156102225782518084602001fd5b8160405162461bcd60e51b81526004016101859190610281565b60006020828403121561024e57600080fd5b81516001600160a01b038116811461004e57600080fd5b600082516102778184602087016102b4565b9190910192915050565b60208152600082518060208401526102a08160408501602087016102b4565b601f01601f19169190910160400192915050565b60005b838110156102cf5781810151838201526020016102b7565b838111156102de576000848401525b5050505056fe416464726573733a206c6f772d6c6576656c2064656c65676174652063616c6c206661696c6564a2646970667358221220148d20618ce0e4acd0b179dccf12503163fb589ddd8df806d6d9c09a8f4adc1064736f6c63430008070033a3f0ad74e5423aebfd80d3ef4346578335a9a72aeaee59ff6cb3582b35133d50416464726573733a206c6f772d6c6576656c2064656c65676174652063616c6c206661696c6564a2646970667358221220d4dce35f75c5ef9026bfa60276271aad439bf4be74e24c630a1141f4acd6166b64736f6c63430008070033",
  "immutableReferences": {},
  "source": "// SPDX-License-Identifier: GPL-3.0\r\n\r\npragma solidity 0.8.7;\r\n\r\n/**\r\n Certis Token is an ERC20 Token that grants its holder the right to:\r\n   - Vote on all the systems propositions (changing system configuraiton etc...)\r\n   - Receive Dividends for all the payments forwarded to the Treasury contract\r\n\r\nBefore every token transfer we contact the token gouvernance Base contracts so that the can update the tokens used for voting if needed\r\n\r\n */\r\n\r\nimport \"@openzeppelin/contracts-upgradeable/proxy/utils/Initializable.sol\";\r\nimport \"../Interfaces/IPool.sol\";\r\nimport \"../Interfaces/ITreasury.sol\";\r\nimport \"../Base/MultiSigContract.sol\";\r\nimport \"../Libraries/ItemsLibrary.sol\";\r\nimport \"../Libraries/UintLibrary.sol\";\r\nimport \"../Libraries/Library.sol\";\r\nimport \"../Libraries/AddressLibrary.sol\";\r\nimport \"@openzeppelin/contracts/proxy/beacon/BeaconProxy.sol\";\r\nimport \"../Base/CreditorBaseContract.sol\";\r\nimport \"../Interfaces/IPayments.sol\";\r\n\r\n contract PublicPool is  Initializable, MultiSigContract, CreditorBaseContract, IPool {\r\n  using ItemsLibrary for *;\r\n  using UintLibrary for *;\r\n  using Library for *;\r\n  using AddressLibrary for *;\r\n\r\n\r\n  // EVENTS /////////////////////////////////////////\r\n  event _NewIssuerRequest(uint256 indexed id, address owner, string name, string symbol);\r\n  event _VoteForIssuer(uint256 indexed id, address voter, bool vote);\r\n  event _IssuerValidation(uint256 indexed id, address NFTMarket);\r\n  event _IssuerRejection(uint256 indexed id);\r\n\r\n  event _CreditReceived(address indexed receiver, uint256 amount, address indexed sender);\r\n  event _CreditUnAssignedReceived(uint256 indexed NFTMarketId, uint256 indexed tokenID, uint256 amount);\r\n  event _CreditAssigned(uint256 indexed NFTMarketId, uint256 indexed tokenID, address indexed receiver, uint256 amount, uint256 factor);\r\n  event _CreditReused(uint256 indexed NFTMarketId, uint256 indexed tokenID, address indexed creditor, uint256 amount);\r\n  event _CreditSpent(uint256 indexed NFTMarketId, address indexed from, uint256 amount, address indexed to);\r\n  event _CreditWithdrawn(address indexed withdrawer, uint256 amount);\r\n  event _CreditWithdrawnFor(address indexed withdrawer, uint256 amount, address indexed sender);\r\n\r\n\r\n  // DATA /////////////////////////////////////////\r\n  mapping(uint256 => address) private _issuers;\r\n  uint256[] private _listOfIssuers;\r\n\r\n  mapping(uint256 => _pendingIssuerStruct) private _pendingIssuers;\r\n  uint256[] private _listOfPendingIssuers;\r\n\r\n  mapping(address => ItemsLibrary._BalanceStruct) private _creditOfAccount;\r\n  mapping(uint256 => mapping(uint256 => uint256)) private _unassignedCreditForMarket;\r\n\r\n\r\n\r\n  // MODIFIERS /////////////////////////////////////////\r\n  modifier IssuerPending(uint256 id){\r\n      require(address(0) != _pendingIssuers[id]._issuer._owner, \"This issuer id is not pending\");\r\n      _;\r\n  }\r\n\r\n  modifier validIssuerRequest(ItemsLibrary._issuerStruct memory requestedIssuer){\r\n    require(address(0) != requestedIssuer._owner, \"NFT Market owner cannot be address 0\");\r\n    Library.validFees(requestedIssuer._feeAmount, requestedIssuer._feeDecimals);\r\n    require(0 < bytes(requestedIssuer._name).length, \"Name is empty\");\r\n    require(0 < bytes(requestedIssuer._symbol).length, \"Symbol is empty\");\r\n     _;\r\n  }\r\n\r\n  modifier isNFTMarket(uint256 MarketId, address MarketAddress){\r\n      isNFTMarketFunc(MarketId, MarketAddress);\r\n      _;\r\n  }\r\n\r\n  function isNFTMarketFunc(uint256 MarketId, address MarketAddress) internal view{\r\n    require(MarketAddress == _issuers[MarketId], \"The Market Id and Address do not correspond\");\r\n  }\r\n\r\n  modifier isTokenUnassignedCreditEmpty(uint256 NFTMarketId, uint256 tokenID){\r\n    isTokenUnassignedCreditEmptyFunc(NFTMarketId, tokenID);\r\n    _;\r\n  }\r\n\r\n  function isTokenUnassignedCreditEmptyFunc(uint256 NFTMarketId, uint256 tokenID) internal view{\r\n    require(0 == _unassignedCreditForMarket[NFTMarketId][tokenID], \"Unassigned credit for this token is not empty\");\r\n  }\r\n\r\n  modifier checkTotal(uint256 total, uint256[] memory amounts, uint256[] memory factors){\r\n    checkTotalFunc(total, amounts, factors);\r\n    _;\r\n  }\r\n\r\n  function checkTotalFunc(uint256 total, uint256[] memory amounts, uint256[] memory factors) internal pure{\r\n    require(amounts.length == factors.length, \"Provided arrays do not have the same length\");\r\n    uint256 CommonDividend = UintLibrary.ProductOfFactors(factors);\r\n    uint256 calculatedTotal = 0;\r\n    for(uint256 i=0; i < factors.length; i++){\r\n        calculatedTotal += amounts[i] * CommonDividend / factors[i];\r\n    }\r\n    require((total * CommonDividend) == calculatedTotal, \"the total amount is not equal to the calculated one\");\r\n  }\r\n\r\n  // CONSTRUCTOR /////////////////////////////////////////\r\n  function PublicPool_init(address[] memory owners,  uint256 minOwners, address managerContractAddress) public initializer {\r\n      super.MultiSigContract_init(owners, minOwners); \r\n      super.CreditorBaseContract_init(managerContractAddress); \r\n  }\r\n\r\n  // FUNCTIONALITY /////////////////////////////////////////\r\n  function onCreditReceived(address sender, uint256 amount, bytes memory data) internal override\r\n  {\r\n    bytes32[] memory receivedData = Library.BytestoBytes32(data);\r\n    Library.PublicPoolPaymentTypes paymentType = Library.PublicPoolPaymentTypes(uint256(receivedData[0]));\r\n\r\n    if(Library.PublicPoolPaymentTypes.SendCredit == paymentType){\r\n      address account = AddressLibrary.Bytes32ToAddress(receivedData[1]);\r\n      ItemsLibrary.addBalance(_creditOfAccount[account], amount, 1);\r\n      emit _CreditReceived(account, amount, sender);\r\n    }\r\n\r\n    else{\r\n      uint256 NFTMarketId = UintLibrary.Bytes32ToUint(receivedData[1]);\r\n      uint256 tokenID = UintLibrary.Bytes32ToUint(receivedData[2]);\r\n      internalTransferUnassignedCredit(NFTMarketId, tokenID, amount);\r\n      emit _CreditUnAssignedReceived(NFTMarketId, tokenID, amount);\r\n    }\r\n     \r\n  }\r\n\r\n  function requestIssuer(ItemsLibrary._issuerStruct memory requestedIssuer, bool FromCredit) external override\r\n    validIssuerRequest(requestedIssuer)\r\n  {\r\n\r\n    uint[] memory Prices = ITreasury(_managerContract.retrieveTransparentProxies()[uint256(Library.TransparentProxies.Treasury)]).retrieveSettings();\r\n    uint256 NewIssuerFee = Prices[uint256(Library.Prices.NewIssuerFee)];\r\n    uint256 AdminNewIssuerFee = Prices[uint256(Library.Prices.AdminNewIssuerFee)];\r\n\r\n    if(FromCredit){\r\n      internalSpendCredit(0, msg.sender, NewIssuerFee,  _managerContract.retrieveTransparentProxies()[uint256(Library.TransparentProxies.Treasury)]);\r\n      internalSpendCredit(0, msg.sender, AdminNewIssuerFee,  _managerContract.retrieveTransparentProxies()[uint256(Library.TransparentProxies.AdminPiggyBank)]);\r\n    }\r\n    else{\r\n      IPayments payments = IPayments(_managerContract.retrieveTransparentProxies()[uint256(Library.TransparentProxies.Payments)]);\r\n      payments.TransferFrom(msg.sender, _managerContract.retrieveTransparentProxies()[uint256(Library.TransparentProxies.Treasury)], NewIssuerFee, 0, bytes(\"\"));\r\n      payments.TransferFrom(msg.sender, _managerContract.retrieveTransparentProxies()[uint256(Library.TransparentProxies.AdminPiggyBank)], AdminNewIssuerFee, 0, bytes(\"\"));\r\n    }\r\n\r\n    uint256 IssuerID = getIssuerIdFromName(requestedIssuer._name);\r\n\r\n    addPendingIssuer(IssuerID, requestedIssuer);\r\n\r\n    emit _NewIssuerRequest(IssuerID, requestedIssuer._owner, requestedIssuer._name, requestedIssuer._symbol);\r\n  }\r\n\r\n  function addPendingIssuer(uint256 IssuerID, ItemsLibrary._issuerStruct memory requestedIssuer) internal\r\n  {\r\n\r\n    require(address(0) == _pendingIssuers[IssuerID]._issuer._owner && address(0) == _issuers[IssuerID], \"This Issuer Name has already been taken\");\r\n\r\n    _pendingIssuers[IssuerID]._issuer._owner = requestedIssuer._owner;\r\n    _pendingIssuers[IssuerID]._issuer._name = requestedIssuer._name;\r\n    _pendingIssuers[IssuerID]._issuer._symbol = requestedIssuer._symbol;\r\n    _pendingIssuers[IssuerID]._issuer._feeAmount = requestedIssuer._feeAmount;\r\n    _pendingIssuers[IssuerID]._issuer._feeDecimals = requestedIssuer._feeDecimals;\r\n    _pendingIssuers[IssuerID]._issuer._paymentPlan = requestedIssuer._paymentPlan;\r\n    _pendingIssuers[IssuerID]._pendingId = _listOfPendingIssuers.length;\r\n    _listOfPendingIssuers.push(IssuerID);\r\n  }\r\n\r\n  function getIssuerIdFromName(string memory name) internal pure returns(uint256)\r\n  {\r\n    return uint256(keccak256(bytes(name)));\r\n  }\r\n\r\n  function validateIssuer(uint256 id) external override\r\n  {\r\n    voteForIssuer(id, true);\r\n  }\r\n\r\n  function rejectIssuer(uint id) external override\r\n  {\r\n    voteForIssuer(id, false);\r\n  }\r\n\r\n  function voteForIssuer(uint id, bool vote) internal\r\n    isAnOwner(msg.sender, true)\r\n    HasNotAlreadyVoted(msg.sender, _pendingIssuers[id]._voters)\r\n    IssuerPending(id)\r\n  {\r\n    emit _VoteForIssuer(id, msg.sender, vote);\r\n\r\n    _pendingIssuers[id]._voters.push(msg.sender);\r\n        \r\n    if(vote){\r\n        _pendingIssuers[id]._validations++;\r\n\r\n        if(_pendingIssuers[id]._validations >= _minOwners){\r\n            _listOfIssuers.push(id);\r\n            _issuers[id] = GenerateNewNFTMarket(_pendingIssuers[id]._issuer._owner, _pendingIssuers[id]._issuer._name, _pendingIssuers[id]._issuer._symbol, _pendingIssuers[id]._issuer._feeAmount, _pendingIssuers[id]._issuer._feeDecimals, id, _pendingIssuers[id]._issuer._paymentPlan);\r\n            deletingPendingIssuer(id);\r\n            emit _IssuerValidation(id, _issuers[id]);\r\n        }\r\n    }\r\n    else{\r\n        _pendingIssuers[id]._rejections++;\r\n\r\n        if(_pendingIssuers[id]._rejections >= _minOwners){\r\n            deletingPendingIssuer(id);\r\n            emit _IssuerRejection(id);\r\n        }\r\n    }\r\n  }\r\n\r\n  function deletingPendingIssuer(uint256 id) internal\r\n  {\r\n    uint pos = _pendingIssuers[id]._pendingId;\r\n    UintLibrary.UintArrayRemoveResize(pos, _listOfPendingIssuers);\r\n    if(_listOfPendingIssuers.length > pos) _pendingIssuers[_listOfPendingIssuers[pos]]._pendingId = pos;\r\n\r\n    delete(_pendingIssuers[id]._issuer);\r\n    delete(_pendingIssuers[id]._validations);\r\n    delete(_pendingIssuers[id]._rejections);\r\n    delete(_pendingIssuers[id]._voters);\r\n  }\r\n\r\n  function GenerateNewNFTMarket(address owner, string memory name, string memory symbol, uint256 feeAmount, uint256 feeDecimals, uint256 id, Library.PaymentPlans paymentPlan) internal returns(address)\r\n  {\r\n    address beaconAddress = _managerContract.retrieveBeacons()[uint256(Library.Beacons.NFT)];\r\n    uint256 OffersLifeTime = ITreasury(_managerContract.retrieveTransparentProxies()[uint256(Library.TransparentProxies.Treasury)]).retrieveSettings()[uint256(Library.Prices.OffersLifeTime)];\r\n    bytes memory data = abi.encodeWithSignature(\"NFTMarket_init(address,address,string,string,uint256,uint256,uint256,uint256,uint8)\", address(_managerContract), owner, name, symbol, OffersLifeTime, feeAmount, feeDecimals, id, uint8(paymentPlan));\r\n\r\n    BeaconProxy beaconProxy = new BeaconProxy(beaconAddress, data);\r\n\r\n    return address(beaconProxy);\r\n  }\r\n\r\n  function retrieveIssuers() external override view returns (uint[] memory)\r\n  {\r\n    return _listOfIssuers;\r\n  }\r\n\r\n  function retrieveNFTMarketForIssuer(uint id) external override view returns (address)\r\n  {\r\n    return _issuers[id];\r\n  }\r\n\r\n  function retrievePendingIssuers() external override view returns (uint[] memory)\r\n  {\r\n    return _listOfPendingIssuers;\r\n  }\r\n\r\n  function retrievePendingIssuer(uint id) external override view returns (_pendingIssuerStruct memory)\r\n  {\r\n    return _pendingIssuers[id];\r\n  }\r\n\r\n  // Credit Functionality\r\n\r\n  function sendCredit(address addr, uint256 amount) external override\r\n  {\r\n    bytes32[] memory dataArray = new bytes32[](3);\r\n    dataArray[0] = UintLibrary.UintToBytes32(uint256(Library.PublicPoolPaymentTypes.SendCredit));\r\n    dataArray[1] = AddressLibrary.AddressToBytes32(addr);\r\n    bytes memory data = Library.Bytes32ArrayToBytes(dataArray);\r\n\r\n    IPayments payments = IPayments(_managerContract.retrieveTransparentProxies()[uint256(Library.TransparentProxies.Payments)]);\r\n    payments.TransferFrom(msg.sender, address(this), amount, 0, data);\r\n  }\r\n\r\n  function addCredit(uint256 NFTMarketId, uint256 tokenID, address[] calldata addrs, uint256[] calldata amounts, uint256[] calldata factors) external override\r\n    isNFTMarket(NFTMarketId, msg.sender)\r\n    checkTotal(_unassignedCreditForMarket[NFTMarketId][tokenID], amounts, factors)\r\n  {\r\n    require(addrs.length == factors.length, \"Provided arrays do not have the same length\");\r\n    for(uint i=0; i < addrs.length; i++){\r\n      ItemsLibrary.addBalance(_creditOfAccount[addrs[i]], amounts[i], factors[i]);\r\n      emit _CreditAssigned(NFTMarketId, tokenID, addrs[i], amounts[i], factors[i]);\r\n    }\r\n    delete(_unassignedCreditForMarket[NFTMarketId][tokenID]);\r\n  }\r\n\r\n  function reuseCredit(uint256 NFTMarketId, uint256 tokenID, address addr, uint256 amount) external override\r\n    isNFTMarket(NFTMarketId, msg.sender)\r\n    isTokenUnassignedCreditEmpty(NFTMarketId, tokenID)\r\n  {\r\n    ItemsLibrary.InternalWithdraw(\r\n      _creditOfAccount[addr], \r\n      amount, \r\n      address(0), \r\n      false, \r\n      IPayments(_managerContract.retrieveTransparentProxies()[uint256(Library.TransparentProxies.Payments)]).retrieveSettings(),\r\n      false,\r\n      bytes(\"\")\r\n    );\r\n    internalTransferUnassignedCredit(NFTMarketId, tokenID, amount);\r\n    emit _CreditReused(NFTMarketId, tokenID, addr, amount);\r\n  }\r\n\r\n  function spendCredit(uint256 NFTMarketId, address from, uint256 amount, address to) external override\r\n    isNFTMarket(NFTMarketId, msg.sender)\r\n  {\r\n    internalSpendCredit(NFTMarketId, from, amount, to);\r\n  }\r\n\r\n  function internalSpendCredit(uint256 NFTMarketId, address from, uint256 amount, address to) internal \r\n  {\r\n    bytes memory emptyData = bytes(\"\");\r\n    ItemsLibrary.InternalWithdraw(  \r\n      _creditOfAccount[from], \r\n      amount, \r\n      to, \r\n      true, \r\n      IPayments(_managerContract.retrieveTransparentProxies()[uint256(Library.TransparentProxies.Payments)]).retrieveSettings(),\r\n      true,\r\n      bytes(\"\")\r\n    );\r\n    emit _CreditSpent(NFTMarketId, from, amount, to);\r\n  }\r\n\r\n  function withdraw(uint amount) external override\r\n  {\r\n    internalWithdraw(msg.sender, amount, address(0), false, bytes(\"\"));\r\n  }\r\n  \r\n  function withdrawAll() external override\r\n  {\r\n    uint amount = ItemsLibrary.checkFullBalance(_creditOfAccount[msg.sender]);\r\n    internalWithdraw(msg.sender, amount, address(0), false, bytes(\"\"));\r\n  }\r\n  \r\n  function withdrawAllFor(uint256 NFTMarketId, address addr, bytes memory data) external override\r\n    isNFTMarket(NFTMarketId, msg.sender)\r\n  {\r\n    uint amount = ItemsLibrary.checkFullBalance(_creditOfAccount[addr]);\r\n    internalWithdraw(addr, amount, msg.sender, true, data);\r\n  }\r\n\r\n  function internalTransferUnassignedCredit(uint256 NFTMarketId, uint256 tokenID, uint256 amount) internal\r\n  {\r\n      _unassignedCreditForMarket[NFTMarketId][tokenID] = amount;\r\n  }\r\n\r\n  function internalWithdraw(address addr, uint amount, address sender, bool sendData, bytes memory data) internal\r\n  {\r\n    ItemsLibrary.InternalWithdraw(\r\n      _creditOfAccount[addr], \r\n      amount, \r\n      addr, \r\n      true, \r\n      IPayments(_managerContract.retrieveTransparentProxies()[uint256(Library.TransparentProxies.Payments)]).retrieveSettings(),\r\n      sendData,\r\n      data\r\n    );\r\n    if(address(0) != sender) emit _CreditWithdrawnFor(addr, amount, sender);\r\n    else emit _CreditWithdrawn(addr, amount);\r\n  }\r\n\r\n  function retrieveCredit(address addr) external override view returns (uint256)\r\n  {\r\n    return ItemsLibrary.checkFullBalance(_creditOfAccount[addr]);\r\n  }\r\n\r\n\r\n\r\n }",
  "sourcePath": "C:\\Users\\d-aam\\GitHub\\Originals\\contracts\\MainContracts\\PublicPool.sol",
  "compiler": {
    "name": "solc",
    "version": "0.8.7+commit.e28d00a7.Emscripten.clang"
  },
  "schemaVersion": "3.4.3",
  "updatedAt": "2022-02-23T15:28:10.411Z",
  "devdoc": {
    "kind": "dev",
    "methods": {},
    "version": 1
  },
  "userdoc": {
    "kind": "user",
    "methods": {},
    "version": 1
  }
}