{
  "contractName": "PublicPool",
  "abi": [
    {
      "anonymous": false,
      "inputs": [
        {
          "indexed": false,
          "internalType": "address",
          "name": "owner",
          "type": "address"
        }
      ],
      "name": "_AddOwnerRejection",
      "type": "event"
    },
    {
      "anonymous": false,
      "inputs": [
        {
          "indexed": false,
          "internalType": "address",
          "name": "owner",
          "type": "address"
        }
      ],
      "name": "_AddOwnerValidation",
      "type": "event"
    },
    {
      "anonymous": false,
      "inputs": [
        {
          "indexed": true,
          "internalType": "uint256",
          "name": "NFTMarketId",
          "type": "uint256"
        },
        {
          "indexed": true,
          "internalType": "uint256",
          "name": "tokenID",
          "type": "uint256"
        },
        {
          "indexed": true,
          "internalType": "address",
          "name": "receiver",
          "type": "address"
        },
        {
          "indexed": false,
          "internalType": "uint256",
          "name": "amount",
          "type": "uint256"
        },
        {
          "indexed": false,
          "internalType": "uint256",
          "name": "factor",
          "type": "uint256"
        },
        {
          "indexed": false,
          "internalType": "uint256",
          "name": "paymentTokenID",
          "type": "uint256"
        }
      ],
      "name": "_CreditAssigned",
      "type": "event"
    },
    {
      "anonymous": false,
      "inputs": [
        {
          "indexed": true,
          "internalType": "address",
          "name": "receiver",
          "type": "address"
        },
        {
          "indexed": false,
          "internalType": "uint256",
          "name": "amount",
          "type": "uint256"
        },
        {
          "indexed": true,
          "internalType": "address",
          "name": "sender",
          "type": "address"
        },
        {
          "indexed": false,
          "internalType": "uint256",
          "name": "paymentTokenID",
          "type": "uint256"
        }
      ],
      "name": "_CreditReceived",
      "type": "event"
    },
    {
      "anonymous": false,
      "inputs": [
        {
          "indexed": true,
          "internalType": "uint256",
          "name": "NFTMarketId",
          "type": "uint256"
        },
        {
          "indexed": true,
          "internalType": "uint256",
          "name": "tokenID",
          "type": "uint256"
        },
        {
          "indexed": true,
          "internalType": "address",
          "name": "creditor",
          "type": "address"
        },
        {
          "indexed": false,
          "internalType": "uint256",
          "name": "amount",
          "type": "uint256"
        },
        {
          "indexed": false,
          "internalType": "uint256",
          "name": "paymentTokenID",
          "type": "uint256"
        }
      ],
      "name": "_CreditReused",
      "type": "event"
    },
    {
      "anonymous": false,
      "inputs": [
        {
          "indexed": true,
          "internalType": "uint256",
          "name": "NFTMarketId",
          "type": "uint256"
        },
        {
          "indexed": true,
          "internalType": "address",
          "name": "from",
          "type": "address"
        },
        {
          "indexed": false,
          "internalType": "uint256",
          "name": "amount",
          "type": "uint256"
        },
        {
          "indexed": true,
          "internalType": "address",
          "name": "to",
          "type": "address"
        },
        {
          "indexed": false,
          "internalType": "uint256",
          "name": "paymentTokenID",
          "type": "uint256"
        }
      ],
      "name": "_CreditSpent",
      "type": "event"
    },
    {
      "anonymous": false,
      "inputs": [
        {
          "indexed": true,
          "internalType": "uint256",
          "name": "NFTMarketId",
          "type": "uint256"
        },
        {
          "indexed": true,
          "internalType": "uint256",
          "name": "tokenID",
          "type": "uint256"
        },
        {
          "indexed": false,
          "internalType": "uint256",
          "name": "amount",
          "type": "uint256"
        },
        {
          "indexed": false,
          "internalType": "uint256",
          "name": "paymentTokenID",
          "type": "uint256"
        }
      ],
      "name": "_CreditUnAssignedReceived",
      "type": "event"
    },
    {
      "anonymous": false,
      "inputs": [
        {
          "indexed": true,
          "internalType": "address",
          "name": "withdrawer",
          "type": "address"
        },
        {
          "indexed": false,
          "internalType": "uint256",
          "name": "amount",
          "type": "uint256"
        },
        {
          "indexed": false,
          "internalType": "uint256",
          "name": "paymentTokenID",
          "type": "uint256"
        }
      ],
      "name": "_CreditWithdrawn",
      "type": "event"
    },
    {
      "anonymous": false,
      "inputs": [
        {
          "indexed": true,
          "internalType": "address",
          "name": "withdrawer",
          "type": "address"
        },
        {
          "indexed": false,
          "internalType": "uint256",
          "name": "amount",
          "type": "uint256"
        },
        {
          "indexed": true,
          "internalType": "address",
          "name": "sender",
          "type": "address"
        },
        {
          "indexed": false,
          "internalType": "uint256",
          "name": "paymentTokenID",
          "type": "uint256"
        }
      ],
      "name": "_CreditWithdrawnFor",
      "type": "event"
    },
    {
      "anonymous": false,
      "inputs": [
        {
          "indexed": true,
          "internalType": "uint256",
          "name": "id",
          "type": "uint256"
        }
      ],
      "name": "_IssuerRejection",
      "type": "event"
    },
    {
      "anonymous": false,
      "inputs": [
        {
          "indexed": true,
          "internalType": "uint256",
          "name": "id",
          "type": "uint256"
        },
        {
          "indexed": false,
          "internalType": "address",
          "name": "NFTMarket",
          "type": "address"
        }
      ],
      "name": "_IssuerValidation",
      "type": "event"
    },
    {
      "anonymous": false,
      "inputs": [
        {
          "indexed": false,
          "internalType": "uint256",
          "name": "minOwner",
          "type": "uint256"
        }
      ],
      "name": "_MinOwnerRejection",
      "type": "event"
    },
    {
      "anonymous": false,
      "inputs": [
        {
          "indexed": false,
          "internalType": "uint256",
          "name": "minOwner",
          "type": "uint256"
        }
      ],
      "name": "_MinOwnerValidation",
      "type": "event"
    },
    {
      "anonymous": false,
      "inputs": [
        {
          "indexed": true,
          "internalType": "uint256",
          "name": "id",
          "type": "uint256"
        },
        {
          "indexed": false,
          "internalType": "address",
          "name": "owner",
          "type": "address"
        },
        {
          "indexed": false,
          "internalType": "string",
          "name": "name",
          "type": "string"
        },
        {
          "indexed": false,
          "internalType": "string",
          "name": "symbol",
          "type": "string"
        },
        {
          "indexed": false,
          "internalType": "uint256",
          "name": "paymentTokenID",
          "type": "uint256"
        }
      ],
      "name": "_NewIssuerRequest",
      "type": "event"
    },
    {
      "anonymous": false,
      "inputs": [
        {
          "indexed": false,
          "internalType": "address",
          "name": "owner",
          "type": "address"
        }
      ],
      "name": "_RemoveOwnerRejection",
      "type": "event"
    },
    {
      "anonymous": false,
      "inputs": [
        {
          "indexed": false,
          "internalType": "address",
          "name": "owner",
          "type": "address"
        }
      ],
      "name": "_RemoveOwnerValidation",
      "type": "event"
    },
    {
      "anonymous": false,
      "inputs": [
        {
          "indexed": true,
          "internalType": "uint256",
          "name": "id",
          "type": "uint256"
        },
        {
          "indexed": false,
          "internalType": "address",
          "name": "voter",
          "type": "address"
        },
        {
          "indexed": false,
          "internalType": "bool",
          "name": "vote",
          "type": "bool"
        }
      ],
      "name": "_VoteForIssuer",
      "type": "event"
    },
    {
      "anonymous": false,
      "inputs": [
        {
          "indexed": false,
          "internalType": "uint256",
          "name": "minOwner",
          "type": "uint256"
        },
        {
          "indexed": false,
          "internalType": "address",
          "name": "voter",
          "type": "address"
        },
        {
          "indexed": false,
          "internalType": "bool",
          "name": "vote",
          "type": "bool"
        }
      ],
      "name": "_VoteForMinOwner",
      "type": "event"
    },
    {
      "anonymous": false,
      "inputs": [
        {
          "indexed": false,
          "internalType": "address",
          "name": "owner",
          "type": "address"
        },
        {
          "indexed": false,
          "internalType": "address",
          "name": "voter",
          "type": "address"
        },
        {
          "indexed": false,
          "internalType": "bool",
          "name": "vote",
          "type": "bool"
        }
      ],
      "name": "_VoteForOwner",
      "type": "event"
    },
    {
      "inputs": [
        {
          "internalType": "address",
          "name": "sender",
          "type": "address"
        },
        {
          "internalType": "uint256",
          "name": "amount",
          "type": "uint256"
        },
        {
          "internalType": "uint256",
          "name": "paymentTokenID",
          "type": "uint256"
        },
        {
          "internalType": "bytes",
          "name": "data",
          "type": "bytes"
        }
      ],
      "name": "CreditReceived",
      "outputs": [],
      "stateMutability": "nonpayable",
      "type": "function"
    },
    {
      "inputs": [
        {
          "internalType": "address[]",
          "name": "owners",
          "type": "address[]"
        },
        {
          "internalType": "uint256",
          "name": "minOwners",
          "type": "uint256"
        }
      ],
      "name": "MultiSigContract_init",
      "outputs": [],
      "stateMutability": "nonpayable",
      "type": "function"
    },
    {
      "inputs": [
        {
          "internalType": "address",
          "name": "owner",
          "type": "address"
        }
      ],
      "name": "addOwner",
      "outputs": [],
      "stateMutability": "nonpayable",
      "type": "function"
    },
    {
      "inputs": [
        {
          "internalType": "uint256",
          "name": "newMinOwners",
          "type": "uint256"
        }
      ],
      "name": "changeMinOwners",
      "outputs": [],
      "stateMutability": "nonpayable",
      "type": "function"
    },
    {
      "inputs": [],
      "name": "rejectMinOwners",
      "outputs": [],
      "stateMutability": "nonpayable",
      "type": "function"
    },
    {
      "inputs": [
        {
          "internalType": "address",
          "name": "owner",
          "type": "address"
        }
      ],
      "name": "rejectOwner",
      "outputs": [],
      "stateMutability": "nonpayable",
      "type": "function"
    },
    {
      "inputs": [
        {
          "internalType": "address",
          "name": "owner",
          "type": "address"
        }
      ],
      "name": "removeOwner",
      "outputs": [],
      "stateMutability": "nonpayable",
      "type": "function"
    },
    {
      "inputs": [],
      "name": "retrieveAllOwners",
      "outputs": [
        {
          "internalType": "address[]",
          "name": "",
          "type": "address[]"
        }
      ],
      "stateMutability": "view",
      "type": "function"
    },
    {
      "inputs": [],
      "name": "retrieveManagerContract",
      "outputs": [
        {
          "internalType": "address",
          "name": "",
          "type": "address"
        }
      ],
      "stateMutability": "view",
      "type": "function"
    },
    {
      "inputs": [],
      "name": "retrieveMinOwners",
      "outputs": [
        {
          "internalType": "uint256",
          "name": "",
          "type": "uint256"
        }
      ],
      "stateMutability": "view",
      "type": "function"
    },
    {
      "inputs": [],
      "name": "retrievePendingMinOwners",
      "outputs": [
        {
          "internalType": "uint256",
          "name": "",
          "type": "uint256"
        }
      ],
      "stateMutability": "view",
      "type": "function"
    },
    {
      "inputs": [],
      "name": "retrievePendingMinOwnersStatus",
      "outputs": [
        {
          "internalType": "uint256",
          "name": "",
          "type": "uint256"
        },
        {
          "internalType": "uint256",
          "name": "",
          "type": "uint256"
        },
        {
          "internalType": "address[]",
          "name": "",
          "type": "address[]"
        }
      ],
      "stateMutability": "view",
      "type": "function"
    },
    {
      "inputs": [
        {
          "internalType": "bool",
          "name": "addedORremove",
          "type": "bool"
        }
      ],
      "name": "retrievePendingOwners",
      "outputs": [
        {
          "internalType": "address[]",
          "name": "",
          "type": "address[]"
        }
      ],
      "stateMutability": "view",
      "type": "function"
    },
    {
      "inputs": [],
      "name": "validateMinOwners",
      "outputs": [],
      "stateMutability": "nonpayable",
      "type": "function"
    },
    {
      "inputs": [
        {
          "internalType": "address",
          "name": "owner",
          "type": "address"
        }
      ],
      "name": "validateOwner",
      "outputs": [],
      "stateMutability": "nonpayable",
      "type": "function"
    },
    {
      "inputs": [
        {
          "internalType": "address[]",
          "name": "owners",
          "type": "address[]"
        },
        {
          "internalType": "uint256",
          "name": "minOwners",
          "type": "uint256"
        },
        {
          "internalType": "address",
          "name": "managerContractAddress",
          "type": "address"
        }
      ],
      "name": "PublicPool_init",
      "outputs": [],
      "stateMutability": "nonpayable",
      "type": "function"
    },
    {
      "inputs": [
        {
          "components": [
            {
              "internalType": "address",
              "name": "_owner",
              "type": "address"
            },
            {
              "internalType": "string",
              "name": "_name",
              "type": "string"
            },
            {
              "internalType": "string",
              "name": "_symbol",
              "type": "string"
            },
            {
              "internalType": "uint256",
              "name": "_feeAmount",
              "type": "uint256"
            },
            {
              "internalType": "uint256",
              "name": "_feeDecimals",
              "type": "uint256"
            },
            {
              "internalType": "enum Library.PaymentPlans",
              "name": "_paymentPlan",
              "type": "uint8"
            }
          ],
          "internalType": "struct ItemsLibrary._issuerStruct",
          "name": "requestedIssuer",
          "type": "tuple"
        },
        {
          "internalType": "bool",
          "name": "FromCredit",
          "type": "bool"
        },
        {
          "internalType": "uint256",
          "name": "paymentTokenID",
          "type": "uint256"
        }
      ],
      "name": "requestIssuer",
      "outputs": [],
      "stateMutability": "nonpayable",
      "type": "function"
    },
    {
      "inputs": [
        {
          "internalType": "uint256",
          "name": "id",
          "type": "uint256"
        }
      ],
      "name": "validateIssuer",
      "outputs": [],
      "stateMutability": "nonpayable",
      "type": "function"
    },
    {
      "inputs": [
        {
          "internalType": "uint256",
          "name": "id",
          "type": "uint256"
        }
      ],
      "name": "rejectIssuer",
      "outputs": [],
      "stateMutability": "nonpayable",
      "type": "function"
    },
    {
      "inputs": [],
      "name": "retrieveIssuers",
      "outputs": [
        {
          "internalType": "uint256[]",
          "name": "",
          "type": "uint256[]"
        }
      ],
      "stateMutability": "view",
      "type": "function"
    },
    {
      "inputs": [
        {
          "internalType": "uint256",
          "name": "id",
          "type": "uint256"
        }
      ],
      "name": "retrieveNFTMarketForIssuer",
      "outputs": [
        {
          "internalType": "address",
          "name": "",
          "type": "address"
        }
      ],
      "stateMutability": "view",
      "type": "function"
    },
    {
      "inputs": [],
      "name": "retrievePendingIssuers",
      "outputs": [
        {
          "internalType": "uint256[]",
          "name": "",
          "type": "uint256[]"
        }
      ],
      "stateMutability": "view",
      "type": "function"
    },
    {
      "inputs": [
        {
          "internalType": "uint256",
          "name": "id",
          "type": "uint256"
        }
      ],
      "name": "retrievePendingIssuer",
      "outputs": [
        {
          "components": [
            {
              "components": [
                {
                  "internalType": "address",
                  "name": "_owner",
                  "type": "address"
                },
                {
                  "internalType": "string",
                  "name": "_name",
                  "type": "string"
                },
                {
                  "internalType": "string",
                  "name": "_symbol",
                  "type": "string"
                },
                {
                  "internalType": "uint256",
                  "name": "_feeAmount",
                  "type": "uint256"
                },
                {
                  "internalType": "uint256",
                  "name": "_feeDecimals",
                  "type": "uint256"
                },
                {
                  "internalType": "enum Library.PaymentPlans",
                  "name": "_paymentPlan",
                  "type": "uint8"
                }
              ],
              "internalType": "struct ItemsLibrary._issuerStruct",
              "name": "_issuer",
              "type": "tuple"
            },
            {
              "internalType": "uint256",
              "name": "_pendingId",
              "type": "uint256"
            },
            {
              "internalType": "uint256",
              "name": "_validations",
              "type": "uint256"
            },
            {
              "internalType": "uint256",
              "name": "_rejections",
              "type": "uint256"
            },
            {
              "internalType": "address[]",
              "name": "_voters",
              "type": "address[]"
            }
          ],
          "internalType": "struct IPool._pendingIssuerStruct",
          "name": "",
          "type": "tuple"
        }
      ],
      "stateMutability": "view",
      "type": "function"
    },
    {
      "inputs": [
        {
          "internalType": "address",
          "name": "addr",
          "type": "address"
        },
        {
          "internalType": "uint256",
          "name": "amount",
          "type": "uint256"
        },
        {
          "internalType": "uint256",
          "name": "paymentTokenID",
          "type": "uint256"
        }
      ],
      "name": "sendCredit",
      "outputs": [],
      "stateMutability": "nonpayable",
      "type": "function"
    },
    {
      "inputs": [
        {
          "internalType": "uint256",
          "name": "NFTMarketId",
          "type": "uint256"
        },
        {
          "internalType": "uint256",
          "name": "tokenID",
          "type": "uint256"
        },
        {
          "internalType": "address[]",
          "name": "addrs",
          "type": "address[]"
        },
        {
          "internalType": "uint256[]",
          "name": "amounts",
          "type": "uint256[]"
        },
        {
          "internalType": "uint256[]",
          "name": "factors",
          "type": "uint256[]"
        }
      ],
      "name": "addCredit",
      "outputs": [],
      "stateMutability": "nonpayable",
      "type": "function"
    },
    {
      "inputs": [
        {
          "internalType": "uint256",
          "name": "NFTMarketId",
          "type": "uint256"
        },
        {
          "internalType": "uint256",
          "name": "tokenID",
          "type": "uint256"
        },
        {
          "internalType": "address",
          "name": "addr",
          "type": "address"
        },
        {
          "internalType": "uint256",
          "name": "amount",
          "type": "uint256"
        },
        {
          "internalType": "uint256",
          "name": "paymentTokenID",
          "type": "uint256"
        }
      ],
      "name": "reuseCredit",
      "outputs": [],
      "stateMutability": "nonpayable",
      "type": "function"
    },
    {
      "inputs": [
        {
          "internalType": "uint256",
          "name": "NFTMarketId",
          "type": "uint256"
        },
        {
          "internalType": "address",
          "name": "from",
          "type": "address"
        },
        {
          "internalType": "uint256",
          "name": "amount",
          "type": "uint256"
        },
        {
          "internalType": "address",
          "name": "to",
          "type": "address"
        },
        {
          "internalType": "uint256",
          "name": "paymentTokenID",
          "type": "uint256"
        }
      ],
      "name": "spendCredit",
      "outputs": [],
      "stateMutability": "nonpayable",
      "type": "function"
    },
    {
      "inputs": [
        {
          "internalType": "uint256",
          "name": "amount",
          "type": "uint256"
        },
        {
          "internalType": "uint256",
          "name": "paymentTokenID",
          "type": "uint256"
        }
      ],
      "name": "withdraw",
      "outputs": [],
      "stateMutability": "nonpayable",
      "type": "function"
    },
    {
      "inputs": [
        {
          "internalType": "uint256",
          "name": "paymentTokenID",
          "type": "uint256"
        }
      ],
      "name": "withdrawAll",
      "outputs": [],
      "stateMutability": "nonpayable",
      "type": "function"
    },
    {
      "inputs": [
        {
          "internalType": "uint256",
          "name": "NFTMarketId",
          "type": "uint256"
        },
        {
          "internalType": "address",
          "name": "addr",
          "type": "address"
        },
        {
          "internalType": "uint256",
          "name": "paymentTokenID",
          "type": "uint256"
        },
        {
          "internalType": "bytes",
          "name": "data",
          "type": "bytes"
        }
      ],
      "name": "withdrawAllFor",
      "outputs": [],
      "stateMutability": "nonpayable",
      "type": "function"
    },
    {
      "inputs": [
        {
          "internalType": "address",
          "name": "addr",
          "type": "address"
        },
        {
          "internalType": "uint256",
          "name": "paymentTokenID",
          "type": "uint256"
        }
      ],
      "name": "retrieveCredit",
      "outputs": [
        {
          "internalType": "uint256",
          "name": "",
          "type": "uint256"
        }
      ],
      "stateMutability": "view",
      "type": "function"
    }
  ],
  "bytecode": "0x608060405234801561001057600080fd5b5061606380620000216000396000f3fe60806040523480156200001157600080fd5b5060043610620001965760003560e01c806303231e5d146200019b57806304226b8814620001df578063094a0ed214620001f85780630bee185e146200021e578063173825d91462000235578063280931e7146200024c5780632edbe7fc146200026357806330ade922146200027657806334f292071462000280578063430c37cb1462000297578063441a3e7014620002ae57806352f615df14620002c5578063538b6aad14620002dc5780635888ebb314620002f55780635b362e84146200031057806365b973e514620003225780636b299604146200032b5780637065cb48146200035157806376f8f90f14620003685780638266251f146200037f57806391c0734b1462000396578063958e2d3114620003ad57806395bf0f3b14620003c4578063a0b8ab2b14620003db578063a37b58d514620003f2578063a67a1e371462000409578063a93d5ed61462000420578063c3079ae7146200042a578063c66433ea1462000434578063ce33d58a146200044b578063d0e139181462000462575b600080fd5b620001c7620001ac36600462004d9f565b6000908152600b60205260409020546001600160a01b031690565b604051620001d6919062004ff7565b60405180910390f35b620001f6620001f036600462004db9565b6200046c565b005b6200020f6200020936600462004d9f565b62000492565b604051620001d691906200533a565b620001f66200022f36600462004899565b620006e0565b620001f662000246366004620046d8565b62000852565b620001f66200025d36600462004d9f565b62000895565b6006545b604051908152602001620001d6565b620001f6620008a5565b620001f66200029136600462004d9f565b620008b3565b620001f6620002a8366004620048e1565b620008c0565b620001f6620002bf36600462004e5e565b62000953565b62000267620002d63660046200471f565b62000977565b620002e662000a2a565b604051620001d69190620051af565b620002ff62000a84565b604051620001d69392919062005425565b600a546001600160a01b0316620001c7565b60055462000267565b620003426200033c36600462004bd4565b62000afa565b604051620001d691906200519a565b620001f662000362366004620046d8565b62000bc3565b620001f662000379366004620046d8565b62000bdf565b620001f66200039036600462004786565b62000c37565b620001f6620003a736600462004ecd565b62000e25565b620001f6620003be36600462004d9f565b62000f24565b620001f6620003d53660046200474e565b62000fe7565b620001f6620003ec36600462004cad565b6200131a565b620001f66200040336600462004e10565b62001af6565b620001f66200041a36600462004e81565b62001bc1565b6200034262001e1c565b620001f662001e81565b620001f66200044536600462004d9f565b62001e8d565b620001f66200045c366004620046d8565b62001ee4565b620002e662001ef1565b84336200047a828262001f49565b62000489878787878762001fc8565b50505050505050565b6200049c620043e4565b6000828152600d6020526040908190208151610160810190925280546001600160a01b031660a08301908152600182018054849291849160c085019190620004e490620055c2565b80601f01602080910402602001604051908101604052809291908181526020018280546200051290620055c2565b8015620005635780601f10620005375761010080835404028352916020019162000563565b820191906000526020600020905b8154815290600101906020018083116200054557829003601f168201915b505050505081526020016002820180546200057e90620055c2565b80601f0160208091040260200160405190810160405280929190818152602001828054620005ac90620055c2565b8015620005fd5780601f10620005d157610100808354040283529160200191620005fd565b820191906000526020600020905b815481529060010190602001808311620005df57829003601f168201915b50505091835250506003820154602082015260048201546040820152600582015460609091019060ff1660018111156200063b576200063b62005633565b60018111156200064f576200064f62005633565b81525050815260200160068201548152602001600782015481526020016008820154815260200160098201805480602002602001604051908101604052809291908181526020018280548015620006d057602002820191906000526020600020905b81546001600160a01b03168152600190910190602001808311620006b1575b5050505050815250509050919050565b600054610100900460ff16620006fd5760005460ff161562000701565b303b155b620007295760405162461bcd60e51b8152600401620007209062005229565b60405180910390fd5b600054610100900460ff161580156200074c576000805461ffff19166101011790555b8183516200075b828262002209565b6001846200076a828262002209565b600586905560005b8751811015620008355760018060000160008a848151811062000799576200079962005649565b6020908102919091018101516001600160a01b03168252810191909152604001600020805460ff19169115159190911790558751600290899083908110620007e557620007e562005649565b60209081029190910181015182546001810184556000938452919092200180546001600160a01b0319166001600160a01b03909216919091179055806200082c81620055ff565b91505062000772565b505050505080156200084d576000805461ff00191690555b505050565b8060016200086182826200222c565b600554600254620008759060019062005579565b62000881828262002209565b6200088e85600462002285565b5050505050565b620008a281600162002310565b50565b620008b1600162002774565b565b620008a281600062002310565b600054610100900460ff16620008dd5760005460ff1615620008e1565b303b155b620009005760405162461bcd60e51b8152600401620007209062005229565b600054610100900460ff1615801562000923576000805461ffff19166101011790555b6200092f8484620006e0565b6200093a82620028da565b80156200094d576000805461ff00191690555b50505050565b62000973338360008060405180602001604052806000815250866200295e565b5050565b6000818152600f602090815260408083206001600160a01b038616845290915280822090516326162dc360e01b8152600481019190915273__ItemsLibrary__________________________906326162dc39060240160206040518083038186803b158015620009e657600080fd5b505af4158015620009fb573d6000803e3d6000fd5b505050506040513d601f19601f8201168201806040525081019062000a21919062004c14565b90505b92915050565b6060600e80548060200260200160405190810160405280929190818152602001828054801562000a7a57602002820191906000526020600020905b81548152602001906001019080831162000a65575b5050505050905090565b600080606060075460085460098080548060200260200160405190810160405280929190818152602001828054801562000ae857602002820191906000526020600020905b81546001600160a01b0316815260019091019060200180831162000ac9575b50505050509050925092509250909192565b6060811562000b6457600380546040805160208084028201810190925282815292919083018282801562000b5857602002820191906000526020600020905b81546001600160a01b0316815260019091019060200180831162000b39575b50505050509050919050565b600480546040805160208084028201810190925282815292919083018282801562000b58576020028201919060005260206000209081546001600160a01b0316815260019091019060200180831162000b395750505050509050919050565b80600062000bd282826200222c565b6200084d83600362002285565b62000bea8162002bdc565b15156001141562000c2a5760025462000c069060019062005579565b600554111562000c2a5760405162461bcd60e51b815260040162000720906200520a565b620008a281600162002c61565b600a546040805163e220ad9560e01b8152905133926001600160a01b03169163e220ad95916004808301926000929190829003018186803b15801562000c7c57600080fd5b505afa15801562000c91573d6000803e3d6000fd5b505050506040513d6000823e601f3d908101601f1916820160405262000cbb9190810190620047ee565b60018151811062000cd05762000cd062005649565b60200260200101516001600160a01b0316816001600160a01b0316148062000db35750600a60009054906101000a90046001600160a01b03166001600160a01b031663e220ad956040518163ffffffff1660e01b815260040160006040518083038186803b15801562000d4257600080fd5b505afa15801562000d57573d6000803e3d6000fd5b505050506040513d6000823e601f3d908101601f1916820160405262000d819190810190620047ee565b60068151811062000d965762000d9662005649565b60200260200101516001600160a01b0316816001600160a01b0316145b62000e175760405162461bcd60e51b815260206004820152602d60248201527f4974206973206e6f742066726f6d206f6e65206f66207468652063657274696660448201526c69656420636f6e74726163747360981b606482015260840162000720565b6200088e8585858562003115565b873362000e33828262001f49565b60008a81526010602090815260408083208c84528252918290205482518883028181018401909452888152909290918991899182919085019084908082843760009201919091525050604080516020808a0282810182019093528982529093508992508891829185019084908082843760009201919091525062000ebf92508591508490508362003548565b89861462000ee15760405162461bcd60e51b8152600401620007209062005277565b62000ef38d8d8d8d8d8d8d8d620036fb565b5050506000998a525050601060209081526040808a20988a5297905250505092842084815560010193909355505050565b6000818152600f6020908152604080832033845290915280822090516326162dc360e01b8152600481019190915273__ItemsLibrary__________________________906326162dc39060240160206040518083038186803b15801562000f8a57600080fd5b505af415801562000f9f573d6000803e3d6000fd5b505050506040513d601f19601f8201168201806040525081019062000fc5919062004c14565b905062000973338260008060405180602001604052806000815250876200295e565b60408051600380825260808201909252600091602082016060803683375050604051631635719760e31b81526000600482015291925073__UintLibrary___________________________9163b1ab8cb8915060240160206040518083038186803b1580156200105657600080fd5b505af41580156200106b573d6000803e3d6000fd5b505050506040513d601f19601f8201168201806040525081019062001091919062004c14565b81600081518110620010a757620010a762005649565b602090810291909101015260405163bc215e8560e01b815273__AddressLibrary________________________9063bc215e8590620010eb90879060040162004ff7565b60206040518083038186803b1580156200110457600080fd5b505af415801562001119573d6000803e3d6000fd5b505050506040513d601f19601f820116820180604052508101906200113f919062004c14565b8160018151811062001155576200115562005649565b6020908102919091010152604051632431a7cf60e01b815260009073__Library_______________________________90632431a7cf906200119c908590600401620051af565b60006040518083038186803b158015620011b557600080fd5b505af4158015620011ca573d6000803e3d6000fd5b505050506040513d6000823e601f3d908101601f19168201604052620011f4919081019062004c2e565b90506000600a60009054906101000a90046001600160a01b03166001600160a01b031663e220ad956040518163ffffffff1660e01b815260040160006040518083038186803b1580156200124757600080fd5b505afa1580156200125c573d6000803e3d6000fd5b505050506040513d6000823e601f3d908101601f19168201604052620012869190810190620047ee565b6006815181106200129b576200129b62005649565b60200260200101519050806001600160a01b0316632c2ec2683330886000878a6040518763ffffffff1660e01b8152600401620012de9695949392919062005081565b600060405180830381600087803b158015620012f957600080fd5b505af11580156200130e573d6000803e3d6000fd5b50505050505050505050565b825183906001600160a01b0316620013815760405162461bcd60e51b8152602060048201526024808201527f4e4654204d61726b6574206f776e65722063616e6e6f742062652061646472656044820152630737320360e41b606482015260840162000720565b6060810151608082015160405163bdbff48760e01b815273__Library_______________________________9263bdbff48792620013c29260040162005417565b60006040518083038186803b158015620013db57600080fd5b505af4158015620013f0573d6000803e3d6000fd5b505050508060200151516000106200143b5760405162461bcd60e51b815260206004820152600d60248201526c4e616d6520697320656d70747960981b604482015260640162000720565b806040015151600010620014845760405162461bcd60e51b815260206004820152600f60248201526e53796d626f6c20697320656d70747960881b604482015260640162000720565b600a546040805163e220ad9560e01b815290516000926001600160a01b03169163e220ad959160048083019286929190829003018186803b158015620014c957600080fd5b505afa158015620014de573d6000803e3d6000fd5b505050506040513d6000823e601f3d908101601f19168201604052620015089190810190620047ee565b6002815181106200151d576200151d62005649565b60200260200101516001600160a01b031663b049473f6040518163ffffffff1660e01b815260040160006040518083038186803b1580156200155e57600080fd5b505afa15801562001573573d6000803e3d6000fd5b505050506040513d6000823e601f3d908101601f191682016040526200159d919081019062004941565b90506000818181518110620015b657620015b662005649565b6020026020010151600081518110620015d357620015d362005649565b6020026020010151905060008260016008811115620015f657620015f662005633565b8151811062001609576200160962005649565b602002602001015160008151811062001626576200162662005649565b6020026020010151905085156200179657620016f260003384600a60009054906101000a90046001600160a01b03166001600160a01b031663e220ad956040518163ffffffff1660e01b815260040160006040518083038186803b1580156200168e57600080fd5b505afa158015620016a3573d6000803e3d6000fd5b505050506040513d6000823e601f3d908101601f19168201604052620016cd9190810190620047ee565b60025b81518110620016e357620016e362005649565b60200260200101518962001fc8565b6200179060003383600a60009054906101000a90046001600160a01b03166001600160a01b031663e220ad956040518163ffffffff1660e01b815260040160006040518083038186803b1580156200174957600080fd5b505afa1580156200175e573d6000803e3d6000fd5b505050506040513d6000823e601f3d908101601f19168201604052620017889190810190620047ee565b6005620016d0565b62001a89565b600a546040805163e220ad9560e01b815290516000926001600160a01b03169163e220ad959160048083019286929190829003018186803b158015620017db57600080fd5b505afa158015620017f0573d6000803e3d6000fd5b505050506040513d6000823e601f3d908101601f191682016040526200181a9190810190620047ee565b6006815181106200182f576200182f62005649565b60200260200101519050806001600160a01b0316632c2ec26833600a60009054906101000a90046001600160a01b03166001600160a01b031663e220ad956040518163ffffffff1660e01b815260040160006040518083038186803b1580156200189857600080fd5b505afa158015620018ad573d6000803e3d6000fd5b505050506040513d6000823e601f3d908101601f19168201604052620018d79190810190620047ee565b600281518110620018ec57620018ec62005649565b60200260200101518660006040518060200160405280600081525060006040518763ffffffff1660e01b81526004016200192c9695949392919062005081565b600060405180830381600087803b1580156200194757600080fd5b505af11580156200195c573d6000803e3d6000fd5b50505050806001600160a01b0316632c2ec26833600a60009054906101000a90046001600160a01b03166001600160a01b031663e220ad956040518163ffffffff1660e01b815260040160006040518083038186803b158015620019bf57600080fd5b505afa158015620019d4573d6000803e3d6000fd5b505050506040513d6000823e601f3d908101601f19168201604052620019fe9190810190620047ee565b60058151811062001a135762001a1362005649565b60200260200101518560006040518060200160405280600081525060006040518763ffffffff1660e01b815260040162001a539695949392919062005081565b600060405180830381600087803b15801562001a6e57600080fd5b505af115801562001a83573d6000803e3d6000fd5b50505050505b602080880151805191012062001aa08189620038e2565b807fe0b7763e1d87de4309ae9dd735f118335b71f29ef21401f0dd14d9a3e3384f9c89600001518a602001518b604001518a60405162001ae494939291906200514e565b60405180910390a25050505050505050565b833362001b04828262001f49565b6000848152600f602090815260408083206001600160a01b038916845290915280822090516326162dc360e01b8152600481019190915273__ItemsLibrary__________________________906326162dc39060240160206040518083038186803b15801562001b7357600080fd5b505af415801562001b88573d6000803e3d6000fd5b505050506040513d601f19601f8201168201806040525081019062001bae919062004c14565b9050620004898682336001888a6200295e565b843362001bcf828262001f49565b868662001bdd828262003a8c565b6000858152600f602090815260408083206001600160a01b03808c1685529252808320600a54825163e220ad9560e01b8152925173__ItemsLibrary__________________________956318b84a219593948d949193849392169163e220ad95916004808201928692909190829003018186803b15801562001c5e57600080fd5b505afa15801562001c73573d6000803e3d6000fd5b505050506040513d6000823e601f3d908101601f1916820160405262001c9d9190810190620047ee565b60068151811062001cb25762001cb262005649565b60200260200101516001600160a01b031663b049473f6040518163ffffffff1660e01b815260040160006040518083038186803b15801562001cf357600080fd5b505afa15801562001d08573d6000803e3d6000fd5b505050506040513d6000823e601f3d908101601f1916820160405262001d32919081019062004af7565b8b8151811062001d465762001d4662005649565b6020026020010151600001516000604051806020016040528060008152508d6040518963ffffffff1660e01b815260040162001d8a989796959493929190620052c2565b60006040518083038186803b15801562001da357600080fd5b505af415801562001db8573d6000803e3d6000fd5b5050505062001dca8989888862003b0b565b866001600160a01b0316888a7f65003d30d3f109914e8927ab1b578875696ebb2ed8d9aadf25781a202393495d898960405162001e0992919062005417565b60405180910390a4505050505050505050565b60606001800180548060200260200160405190810160405280929190818152602001828054801562000a7a57602002820191906000526020600020905b81546001600160a01b0316815260019091019060200180831162001e59575050505050905090565b620008b1600062002774565b33600162001e9c82826200222c565b600062001ea98162003b31565b600254849062001eba828262002209565b60018662001ec9828262002209565b600688905562001eda600162002774565b5050505050505050565b620008a281600062002c61565b6060600c80548060200260200160405190810160405280929190818152602001828054801562000a7a576020028201919060005260206000209081548152602001906001019080831162000a65575050505050905090565b6000828152600b60205260409020546001600160a01b03828116911614620009735760405162461bcd60e51b815260206004820152602b60248201527f546865204d61726b657420496420616e64204164647265737320646f206e6f7460448201526a0818dbdc9c995cdc1bdb9960aa1b606482015260840162000720565b60408051602080820183526000808352848152600f82528381206001600160a01b03808a1683529252838120600a54855163e220ad9560e01b81529551949573__ItemsLibrary__________________________956318b84a219593948b948b9460019491169263e220ad9592600480840193919291829003018186803b1580156200205357600080fd5b505afa15801562002068573d6000803e3d6000fd5b505050506040513d6000823e601f3d908101601f19168201604052620020929190810190620047ee565b600681518110620020a757620020a762005649565b60200260200101516001600160a01b031663b049473f6040518163ffffffff1660e01b815260040160006040518083038186803b158015620020e857600080fd5b505afa158015620020fd573d6000803e3d6000fd5b505050506040513d6000823e601f3d908101601f1916820160405262002127919081019062004af7565b88815181106200213b576200213b62005649565b6020026020010151600001516001604051806020016040528060008152508a6040518963ffffffff1660e01b81526004016200217f989796959493929190620052c2565b60006040518083038186803b1580156200219857600080fd5b505af4158015620021ad573d6000803e3d6000fd5b50505050826001600160a01b0316856001600160a01b0316877f8e46218308a26b6095e80237a5b26d04fcd218ac6e8e4b197cfe3b57305dc6fb8786604051620021f992919062005417565b60405180910390a4505050505050565b80821115620009735760405162461bcd60e51b815260040162000720906200520a565b6001600160a01b03821660009081526001602052604090205460ff16151581151514620009735760405162461bcd60e51b815260040162000720906020808252600490820152634543392d60e01b604082015260600190565b3360016200229482826200222c565b836000620022a3828262003bab565b84546001808201875560008781526020812090920180546001600160a01b0319166001600160a01b038a161790558654620022df919062005579565b6001600160a01b03881660009081526001602081905260409091206002018290559091506200048990889062002c61565b3360016200231f82826200222c565b6000848152600d602090815260409182902060090180548351818402810184019094528084523393928301828280156200238357602002820191906000526020600020905b81546001600160a01b0316815260019091019060200180831162002364575b505050505062002394828262003c04565b6000868152600d602052604090205486906001600160a01b0316620023fc5760405162461bcd60e51b815260206004820152601d60248201527f5468697320697373756572206964206973206e6f742070656e64696e67000000604482015260640162000720565b60408051338152871515602082015288917f5a1a88bd27a0cf1c470b27b132493e61efc1eaf3d1b57db0ab7f73182345d047910160405180910390a26000878152600d602090815260408220600901805460018101825590835291200180546001600160a01b031916331790558515620026f6576000878152600d602052604081206007018054916200248f83620055ff565b90915550506005546000888152600d602052604090206007015410620026f057600c805460018181019092557fdf6966c971051c3d54ec59162606531493a51404a002842f56009d7e5cf4a8c7018890556000888152600d6020526040902080549101805462002664926001600160a01b031691906200250f90620055c2565b80601f01602080910402602001604051908101604052809291908181526020018280546200253d90620055c2565b80156200258e5780601f1062002562576101008083540402835291602001916200258e565b820191906000526020600020905b8154815290600101906020018083116200257057829003601f168201915b50505060008c8152600d602052604090206002018054909250620025b39150620055c2565b80601f0160208091040260200160405190810160405280929190818152602001828054620025e190620055c2565b8015620026325780601f10620026065761010080835404028352916020019162002632565b820191906000526020600020905b8154815290600101906020018083116200261457829003601f168201915b50505060008d8152600d60205260409020600381015460048201546005909201549093509091508d9060ff1662003ccb565b6000888152600b6020526040902080546001600160a01b0319166001600160a01b03929092169190911790556200269b8762003fa0565b6000878152600b60205260409081902054905188917f2cedba2f59ec9c6a70e350caabb40ea15150e2bd297a517df51c1fbdbeacad3991620026e7916001600160a01b03169062004ff7565b60405180910390a25b62000489565b6000878152600d602052604081206008018054916200271583620055ff565b90915550506005546000888152600d6020526040902060080154106200048957620027408762003fa0565b60405187907f403eabfde87045e1433576679912c142f6e51573d2635748e5331c62fbcfecc190600090a250505050505050565b3360016200278382826200222c565b6001620027908162003b31565b336009805480602002602001604051908101604052809291908181526020018280548015620027e957602002820191906000526020600020905b81546001600160a01b03168152600190910190602001808311620027ca575b5050505050620027fa828262003c04565b8515620028225760016007600082825462002816919062005519565b909155506200283d9050565b60016008600082825462002837919062005519565b90915550505b600980546001810182556000919091527f6e1540171b6c0c960b71a7020d9f60077f6af931a8bbf590da0223dacf75c7af018054336001600160a01b031990911681179091556006546040805191825260208201929092528715158183015290517fb335599a2dd1eaaedeb810215d45e667a6c5ac7bcfd03c29e597db8bf0cddcc69181900360600190a1620028d2620040f0565b505050505050565b600054610100900460ff16620028f75760005460ff1615620028fb565b303b155b6200291a5760405162461bcd60e51b8152600401620007209062005229565b600054610100900460ff161580156200293d576000805461ffff19166101011790555b620029488262004196565b801562000973576000805461ff00191690555050565b6000818152600f602090815260408083206001600160a01b03808b1685529252808320600a54825163e220ad9560e01b8152925173__ItemsLibrary__________________________956318b84a219593948c948e9460019491169263e220ad959260048082019391829003018186803b158015620029dc57600080fd5b505afa158015620029f1573d6000803e3d6000fd5b505050506040513d6000823e601f3d908101601f1916820160405262002a1b9190810190620047ee565b60068151811062002a305762002a3062005649565b60200260200101516001600160a01b031663b049473f6040518163ffffffff1660e01b815260040160006040518083038186803b15801562002a7157600080fd5b505afa15801562002a86573d6000803e3d6000fd5b505050506040513d6000823e601f3d908101601f1916820160405262002ab0919081019062004af7565b878151811062002ac45762002ac462005649565b6020026020010151600001518989896040518963ffffffff1660e01b815260040162002af8989796959493929190620052c2565b60006040518083038186803b15801562002b1157600080fd5b505af415801562002b26573d6000803e3d6000fd5b505050506001600160a01b0384161562002b8f57836001600160a01b0316866001600160a01b03167f66f38d03b2ef5d35bd0055daacdada5779c32d8f8379404be96ebb5d044e0954878460405162002b8192919062005417565b60405180910390a3620028d2565b856001600160a01b03167f35474681258bb96da53df6137ee08756497e570dab2b550ccc53c5784069ddf4868360405162002bcc92919062005417565b60405180910390a2505050505050565b6004546001600160a01b03821660009081526001602052604081206002015490911162002c0b57506000919050565b6001600160a01b03821660009081526001602052604090206002015460048054909190811062002c3f5762002c3f62005649565b6000918252602090912001546001600160a01b03928316921691909114919050565b33600162002c7082826200222c565b83600162002c7f828262003bab565b6001600160a01b038616600090815260016020908152604091829020600501805483518184028101840190945280845233939283018282801562002ced57602002820191906000526020600020905b81546001600160a01b0316815260019091019060200180831162002cce575b505050505062002cfe828262003c04565b604080516001600160a01b038a1681523360208201528815158183015290517fc6f241efc3de3ce31d0e682102cc781f0605f0f90d72addfea699e4aea85dd799181900360600190a16001600160a01b038816600090815260016020818152604083206005018054928301815583529091200180546001600160a01b0319163317905586156200301a576001600160a01b038816600090815260016020526040812060030180549162002db183620055ff565b90915550506005546001600160a01b038916600090815260016020526040902060030154106200301457600462002de8896200422a565b1562002ec1575060028054600180820183557f405787fa12a823e0f2b7631cc41b3ba8828b3321ca811111fa75cd3aa3bb5ace90910180546001600160a01b0319166001600160a01b038c169081179091556000908152602082905260409020805460ff191682179055905460039162002e629162005579565b6001600160a01b038a166000908152600160208190526040918290200191909155517f45bbe5ceeddcb6d0b4045349efc87a3fde966578e3970cda6f53bfc76efaf9f79062002eb3908b9062004ff7565b60405180910390a162003006565b6001600160a01b03891660009081526001602081905260409182902001549051633c39c19f60e11b815273__AddressLibrary________________________90637873833e9062002f1a90849060029060040162005417565b60006040518083038186803b15801562002f3357600080fd5b505af415801562002f48573d6000803e3d6000fd5b5050600254831015915062002fa2905057806001600001600060018001848154811062002f795762002f7962005649565b60009182526020808320909101546001600160a01b031683528201929092526040019020600101555b6001600160a01b038a166000908152600160208190526040808320805460ff1916815590910191909155517f82bcab3b042f3e2143a9d33d07fa130afdf763f17a45679670f0e39f12064ca89062002ffc908c9062004ff7565b60405180910390a1505b6200301289826200428d565b505b62001eda565b6001600160a01b03881660009081526001602052604081206004018054916200304383620055ff565b90915550506005546001600160a01b0389166000908152600160205260409020600401541062001eda5760046200307a896200422a565b15620030c457506040516003907f622a69297177c029df8c1ba7f4d2d59881089b571ae96800e634aff50d67492e90620030b6908b9062004ff7565b60405180910390a1620030fe565b7f547e31c58b802b63bc89f1109a132a291b0527c9196c97759829aeaecd3c2d3989604051620030f5919062004ff7565b60405180910390a15b6200310a89826200428d565b505050505050505050565b60405163caa8f58960e01b815260009073__Library_______________________________9063caa8f5899062003151908590600401620051f5565b60006040518083038186803b1580156200316a57600080fd5b505af41580156200317f573d6000803e3d6000fd5b505050506040513d6000823e601f3d908101601f19168201604052620031a9919081019062004a63565b9050600081600081518110620031c357620031c362005649565b602002602001015160001c6001811115620031e257620031e262005633565b9050806001811115620031f957620031f962005633565b6200339557600073__AddressLibrary________________________63f4ce9ae88460018151811062003230576200323062005649565b60200260200101516040518263ffffffff1660e01b81526004016200325791815260200190565b60206040518083038186803b1580156200327057600080fd5b505af415801562003285573d6000803e3d6000fd5b505050506040513d601f19601f82011682018060405250810190620032ab9190620046ff565b6000868152600f602090815260408083206001600160a01b0385168452909152908190209051633833532760e01b815291925073__ItemsLibrary__________________________916338335327916200330d918a9060019060040162005324565b60006040518083038186803b1580156200332657600080fd5b505af41580156200333b573d6000803e3d6000fd5b50505050866001600160a01b0316816001600160a01b03167fac995865659dcf606a8b72619cec439c948be22b1fadce49ed394e003bb594b188886040516200338692919062005417565b60405180910390a350620028d2565b600073__UintLibrary___________________________630bd4715e84600181518110620033c757620033c762005649565b60200260200101516040518263ffffffff1660e01b8152600401620033ee91815260200190565b60206040518083038186803b1580156200340757600080fd5b505af41580156200341c573d6000803e3d6000fd5b505050506040513d601f19601f8201168201806040525081019062003442919062004c14565b9050600073__UintLibrary___________________________630bd4715e8560028151811062003476576200347662005649565b60200260200101516040518263ffffffff1660e01b81526004016200349d91815260200190565b60206040518083038186803b158015620034b657600080fd5b505af4158015620034cb573d6000803e3d6000fd5b505050506040513d601f19601f82011682018060405250810190620034f1919062004c14565b9050620035018282898962003b0b565b80827ff9e629b7f363892b1e150085e7eb5a4b2335f91eb27586b3b563759c250b6d4c89896040516200353692919062005417565b60405180910390a35050505050505050565b80518251146200356c5760405162461bcd60e51b8152600401620007209062005277565b604051633c952fb360e21b815260009073__UintLibrary___________________________9063f254becc90620035a8908590600401620051af565b60206040518083038186803b158015620035c157600080fd5b505af4158015620035d6573d6000803e3d6000fd5b505050506040513d601f19601f82011682018060405250810190620035fc919062004c14565b90506000805b8351811015620036825783818151811062003621576200362162005649565b6020026020010151838683815181106200363f576200363f62005649565b602002602001015162003653919062005557565b6200365f919062005534565b6200366b908362005519565b9150806200367981620055ff565b91505062003602565b508062003690838762005557565b146200088e5760405162461bcd60e51b815260206004820152603360248201527f74686520746f74616c20616d6f756e74206973206e6f7420657175616c20746f604482015272207468652063616c63756c61746564206f6e6560681b606482015260840162000720565b60008881526010602090815260408083208a8452909152812060010154905b868110156200130e576000828152600f6020526040812073__ItemsLibrary__________________________91633833532791908b8b8681811062003763576200376362005649565b90506020020160208101906200377a9190620046d8565b6001600160a01b03166001600160a01b03168152602001908152602001600020888885818110620037af57620037af62005649565b90506020020135878786818110620037cb57620037cb62005649565b905060200201356040518463ffffffff1660e01b8152600401620037f29392919062005324565b60006040518083038186803b1580156200380b57600080fd5b505af415801562003820573d6000803e3d6000fd5b5050505087878281811062003839576200383962005649565b9050602002016020810190620038509190620046d8565b6001600160a01b0316898b7e85dd5c7e25f320179845bd109bec815645a273f03d337f3a46ea43da6ca0c089898681811062003890576200389062005649565b90506020020135888887818110620038ac57620038ac62005649565b9050602002013587604051620038c59392919062005324565b60405180910390a480620038d981620055ff565b9150506200371a565b6000828152600d60205260409020546001600160a01b03161580156200391d57506000828152600b60205260409020546001600160a01b0316155b6200397b5760405162461bcd60e51b815260206004820152602760248201527f5468697320497373756572204e616d652068617320616c72656164792062656560448201526637103a30b5b2b760c91b606482015260840162000720565b80516000838152600d6020908152604090912080546001600160a01b0319166001600160a01b03909316929092178255808301518051620039c5936001019291909101906200441b565b506040808201516000848152600d60209081529290208151620039f39360029092019291909101906200441b565b5060608101516000838152600d6020526040902060038101919091556080820151600482015560a08201516005909101805460ff19166001838181111562003a3f5762003a3f62005633565b021790555050600e80546000838152600d60205260408120600601829055600182018355919091527fbb7b4a454dc3493923482f07822329ed19e8244eff582cc204f8554c3620c3fd0155565b600082815260106020908152604080832084845290915290205415620009735760405162461bcd60e51b815260206004820152602d60248201527f556e61737369676e65642063726564697420666f72207468697320746f6b656e60448201526c206973206e6f7420656d70747960981b606482015260840162000720565b600093845260106020908152604080862094865293905291909220918255600190910155565b801562003b7157600654620008a25760405162461bcd60e51b8152602060048201526005602482015264454333312d60d81b604482015260640162000720565b60065415620008a25760405162461bcd60e51b8152602060048201526005602482015264454333302d60d81b604482015260640162000720565b62003bb6826200422a565b8062003bc8575062003bc88262002bdc565b151581151514620009735760405162461bcd60e51b8152602060048201526005602482015264454331302d60d81b604482015260640162000720565b60405163f7cf62d760e01b815273__AddressLibrary________________________9063f7cf62d79062003c3f9085908590600401620050d0565b60206040518083038186803b15801562003c5857600080fd5b505af415801562003c6d573d6000803e3d6000fd5b505050506040513d601f19601f8201168201806040525081019062003c93919062004bf4565b15620009735760405162461bcd60e51b815260040162000720906020808252600490820152634543352d60e01b604082015260600190565b600080600a60009054906101000a90046001600160a01b03166001600160a01b031663efd621de6040518163ffffffff1660e01b815260040160006040518083038186803b15801562003d1d57600080fd5b505afa15801562003d32573d6000803e3d6000fd5b505050506040513d6000823e601f3d908101601f1916820160405262003d5c9190810190620047ee565b60008151811062003d715762003d7162005649565b602002602001015190506000600a60009054906101000a90046001600160a01b03166001600160a01b031663e220ad956040518163ffffffff1660e01b815260040160006040518083038186803b15801562003dcc57600080fd5b505afa15801562003de1573d6000803e3d6000fd5b505050506040513d6000823e601f3d908101601f1916820160405262003e0b9190810190620047ee565b60028151811062003e205762003e2062005649565b60200260200101516001600160a01b031663b049473f6040518163ffffffff1660e01b815260040160006040518083038186803b15801562003e6157600080fd5b505afa15801562003e76573d6000803e3d6000fd5b505050506040513d6000823e601f3d908101601f1916820160405262003ea0919081019062004941565b60088151811062003eb55762003eb562005649565b602002602001015160008151811062003ed25762003ed262005649565b6020908102919091010151600a549091506000906001600160a01b03168b8b8b858c8c8c8c600181111562003f0b5762003f0b62005633565b60405160240162003f25999897969594939291906200500b565b60408051601f198184030181529181526020820180516001600160e01b03166398a7541d60e01b179052519091506000908490839062003f6590620044aa565b62003f7292919062005120565b604051809103906000f08015801562003f8f573d6000803e3d6000fd5b509c9b505050505050505050505050565b6000818152600d60205260409081902060060154905163cffd93cd60e01b815273__UintLibrary___________________________9063cffd93cd9062003fef908490600e9060040162005417565b60006040518083038186803b1580156200400857600080fd5b505af41580156200401d573d6000803e3d6000fd5b5050505080600e8054905011156200406b5780600d6000600e84815481106200404a576200404a62005649565b90600052602060002001548152602001908152602001600020600601819055505b6000828152600d6020526040812080546001600160a01b031916815590620040976001830182620044b8565b620040a7600283016000620044b8565b50600060038201819055600482018190556005909101805460ff19169055828152600d6020526040812060078101829055600881018290556200097391600990910190620044f7565b62004100600754600554620043a8565b156200414c5760065460058190556040519081527f09cfdf09b84b5390e2f9e64a6b66bdfd4e3b7a611dfdd07cde2f5289ecdaace7906020015b60405180910390a1620008b1620043c5565b6200415c600854600554620043a8565b15620008b1577f6005dc34d50a3e2ea64571b58119d8a81074b8e2db57a77c28e664641733308f6006546040516200413a91815260200190565b600054610100900460ff16620041b35760005460ff1615620041b7565b303b155b620041d65760405162461bcd60e51b8152600401620007209062005229565b600054610100900460ff16158015620041f9576000805461ffff19166101011790555b600a80546001600160a01b0319166001600160a01b038416179055801562000973576000805461ff00191690555050565b6003546001600160a01b0382166000908152600160205260408120600201549091116200425957506000919050565b6001600160a01b03821660009081526001602052604090206002015460038054909190811062002c3f5762002c3f62005649565b6001600160a01b03821660009081526001602052604090819020600201549051633c39c19f60e11b815273__AddressLibrary________________________90637873833e90620042e5908490869060040162005417565b60006040518083038186803b158015620042fe57600080fd5b505af415801562004313573d6000803e3d6000fd5b5050505080828054905011156200436a57806001600001600084848154811062004341576200434162005649565b60009182526020808320909101546001600160a01b031683528201929092526040019020600201555b6001600160a01b03831660009081526001602052604081206002810182905560038101829055600481018290556200084d91600590910190620044f7565b600081831015620043bc5750600062000a24565b50600192915050565b6000600681905560078190556008819055620008b190600990620044f7565b6040518060a00160405280620043f962004517565b8152602001600081526020016000815260200160008152602001606081525090565b8280546200442990620055c2565b90600052602060002090601f0160209004810192826200444d576000855562004498565b82601f106200446857805160ff191683800117855562004498565b8280016001018555821562004498579182015b82811115620044985782518255916020019190600101906200447b565b50620044a692915062004569565b5090565b610993806200569b83390190565b508054620044c690620055c2565b6000825580601f10620044d7575050565b601f016020900490600052602060002090810190620008a2919062004569565b5080546000825590600052602060002090810190620008a2919062004569565b6040518060c0016040528060006001600160a01b03168152602001606081526020016060815260200160008152602001600081526020016000600181111562004564576200456462005633565b905290565b5b80821115620044a657600081556001016200456a565b80356200458d8162005675565b919050565b60008083601f840112620045a557600080fd5b5081356001600160401b03811115620045bd57600080fd5b6020830191508360208260051b8501011115620045d957600080fd5b9250929050565b600082601f830112620045f257600080fd5b813560206200460b6200460583620054c9565b62005496565b80838252828201915082860187848660051b89010111156200462c57600080fd5b60005b8581101562004658578135620046458162005675565b845292840192908401906001016200462f565b5090979650505050505050565b80356200458d816200568b565b600082601f8301126200468457600080fd5b8135620046956200460582620054ef565b818152846020838601011115620046ab57600080fd5b816020850160208301376000918101602001919091529392505050565b8035600281106200458d57600080fd5b600060208284031215620046eb57600080fd5b8135620046f88162005675565b9392505050565b6000602082840312156200471257600080fd5b8151620046f88162005675565b600080604083850312156200473357600080fd5b8235620047408162005675565b946020939093013593505050565b6000806000606084860312156200476457600080fd5b8335620047718162005675565b95602085013595506040909401359392505050565b600080600080608085870312156200479d57600080fd5b8435620047aa8162005675565b9350602085013592506040850135915060608501356001600160401b03811115620047d457600080fd5b620047e28782880162004672565b91505092959194509250565b600060208083850312156200480257600080fd5b82516001600160401b038111156200481957600080fd5b8301601f810185136200482b57600080fd5b80516200483c6200460582620054c9565b80828252848201915084840188868560051b87010111156200485d57600080fd5b600094505b838510156200488d578051620048788162005675565b83526001949094019391850191850162004862565b50979650505050505050565b60008060408385031215620048ad57600080fd5b82356001600160401b03811115620048c457600080fd5b620048d285828601620045e0565b95602094909401359450505050565b600080600060608486031215620048f757600080fd5b83356001600160401b038111156200490e57600080fd5b6200491c86828701620045e0565b935050602084013591506040840135620049368162005675565b809150509250925092565b600060208083850312156200495557600080fd5b82516001600160401b03808211156200496d57600080fd5b818501915085601f8301126200498257600080fd5b8151620049936200460582620054c9565b80828252858201915085850189878560051b8801011115620049b457600080fd5b60005b8481101562004a5457815186811115620049d057600080fd5b8701603f81018c13620049e257600080fd5b88810151620049f56200460582620054c9565b808282528b82019150604084018f60408560051b870101111562004a1857600080fd5b600094505b8385101562004a3d578051835260019490940193918c01918c0162004a1d565b5087525050509287019290870190600101620049b7565b50909998505050505050505050565b6000602080838503121562004a7757600080fd5b82516001600160401b0381111562004a8e57600080fd5b8301601f8101851362004aa057600080fd5b805162004ab16200460582620054c9565b80828252848201915084840188868560051b870101111562004ad257600080fd5b600094505b838510156200488d57805183526001949094019391850191850162004ad7565b6000602080838503121562004b0b57600080fd5b82516001600160401b0381111562004b2257600080fd5b8301601f8101851362004b3457600080fd5b805162004b456200460582620054c9565b80828252848201915084840188868560061b870101111562004b6657600080fd5b60009450845b8481101562004bc657604080838c03121562004b86578687fd5b62004b9062005446565b835162004b9d8162005675565b81528389015162004bae816200568b565b818a0152855293870193919091019060010162004b6c565b509098975050505050505050565b60006020828403121562004be757600080fd5b8135620046f8816200568b565b60006020828403121562004c0757600080fd5b8151620046f8816200568b565b60006020828403121562004c2757600080fd5b5051919050565b60006020828403121562004c4157600080fd5b81516001600160401b0381111562004c5857600080fd5b8201601f8101841362004c6a57600080fd5b805162004c7b6200460582620054ef565b81815285602083850101111562004c9157600080fd5b62004ca482602083016020860162005593565b95945050505050565b60008060006060848603121562004cc357600080fd5b83356001600160401b038082111562004cdb57600080fd5b9085019060c0828803121562004cf057600080fd5b62004cfa62005471565b62004d058362004580565b815260208301358281111562004d1a57600080fd5b62004d288982860162004672565b60208301525060408301358281111562004d4157600080fd5b62004d4f8982860162004672565b604083015250606083013560608201526080830135608082015262004d7760a08401620046c8565b60a0820152945062004d8f9150506020850162004665565b9150604084013590509250925092565b60006020828403121562004db257600080fd5b5035919050565b600080600080600060a0868803121562004dd257600080fd5b85359450602086013562004de68162005675565b935060408601359250606086013562004dff8162005675565b949793965091946080013592915050565b6000806000806080858703121562004e2757600080fd5b84359350602085013562004e3b8162005675565b92506040850135915060608501356001600160401b03811115620047d457600080fd5b6000806040838503121562004e7257600080fd5b50508035926020909101359150565b600080600080600060a0868803121562004e9a57600080fd5b8535945060208601359350604086013562004eb58162005675565b94979396509394606081013594506080013592915050565b60008060008060008060008060a0898b03121562004eea57600080fd5b883597506020890135965060408901356001600160401b038082111562004f1057600080fd5b62004f1e8c838d0162004592565b909850965060608b013591508082111562004f3857600080fd5b62004f468c838d0162004592565b909650945060808b013591508082111562004f6057600080fd5b5062004f6f8b828c0162004592565b999c989b5096995094979396929594505050565b600081518084526020808501945080840160005b8381101562004fbe5781516001600160a01b03168752958201959082019060010162004f97565b509495945050505050565b6000815180845262004fe381602086016020860162005593565b601f01601f19169290920160200192915050565b6001600160a01b0391909116815260200190565b6001600160a01b038a8116825289166020820152610120604082018190526000906200503a8382018b62004fc9565b9050828103606084015262005050818a62004fc9565b6080840198909852505060a081019490945260c084019290925260e083015260ff1661010090910152949350505050565b6001600160a01b03878116825286166020820152604081018590526060810184905260c060808201819052600090620050bd9083018562004fc9565b90508260a0830152979650505050505050565b6001600160a01b038381168252604060208084018290528451918401829052600092858201929091906060860190855b8181101562004bc657855185168352948301949183019160010162005100565b6001600160a01b0383168152604060208201819052600090620051469083018462004fc9565b949350505050565b6001600160a01b0385168152608060208201819052600090620051749083018662004fc9565b828103604084015262005188818662004fc9565b91505082606083015295945050505050565b60208152600062000a21602083018462004f83565b6020808252825182820181905260009190848201906040850190845b81811015620051e957835183529284019291840191600101620051cb565b50909695505050505050565b60208152600062000a21602083018462004fc9565b602080825260059082015264454331392d60d81b604082015260600190565b6020808252602e908201527f496e697469616c697a61626c653a20636f6e747261637420697320616c72656160408201526d191e481a5b9a5d1a585b1a5e995960921b606082015260800190565b6020808252602b908201527f50726f76696465642061727261797320646f206e6f742068617665207468652060408201526a0e6c2daca40d8cadccee8d60ab1b606082015260800190565b888152602081018890526001600160a01b03878116604083015286151560608301528516608082015283151560a082015261010060c082018190526000906200530e8382018662004fc9565b9150508260e08301529998505050505050505050565b9283526020830191909152604082015260600190565b602081526000825160a0602084015260018060a01b0381511660c0840152602081015160c060e08501526200537461018085018262004fc9565b9050604082015160bf198583030161010086015262005394828262004fc9565b9150506060820151610120850152608082015161014085015260a0820151915060028210620053d357634e487b7160e01b600052602160045260246000fd5b8161016085015260208501516040850152604085015160608501526060850151608085015260808501519150601f198482030160a085015262004ca4818362004f83565b918252602082015260400190565b83815282602082015260606040820152600062004ca4606083018462004f83565b604080519081016001600160401b03811182821017156200546b576200546b6200565f565b60405290565b60405160c081016001600160401b03811182821017156200546b576200546b6200565f565b604051601f8201601f191681016001600160401b0381118282101715620054c157620054c16200565f565b604052919050565b60006001600160401b03821115620054e557620054e56200565f565b5060051b60200190565b60006001600160401b038211156200550b576200550b6200565f565b50601f01601f191660200190565b600082198211156200552f576200552f6200561d565b500190565b6000826200555257634e487b7160e01b600052601260045260246000fd5b500490565b60008160001904831182151516156200557457620055746200561d565b500290565b6000828210156200558e576200558e6200561d565b500390565b60005b83811015620055b057818101518382015260200162005596565b838111156200094d5750506000910152565b600181811c90821680620055d757607f821691505b60208210811415620055f957634e487b7160e01b600052602260045260246000fd5b50919050565b60006000198214156200561657620056166200561d565b5060010190565b634e487b7160e01b600052601160045260246000fd5b634e487b7160e01b600052602160045260246000fd5b634e487b7160e01b600052603260045260246000fd5b634e487b7160e01b600052604160045260246000fd5b6001600160a01b0381168114620008a257600080fd5b8015158114620008a257600080fdfe608060405260405161099338038061099383398101604081905261002291610470565b61004d60017fa3f0ad74e5423aebfd80d3ef4346578335a9a72aeaee59ff6cb3582b35133d5161057f565b60008051602061094c83398151915214610069576100696105d0565b6100758282600061007c565b50506105fc565b61008583610156565b6040516001600160a01b038416907f1cf3b03a6cf19fa2baba4df148e9dcabedea7f8a5c07840e207e5c089be95d3e90600090a26000825111806100c65750805b156101515761014f836001600160a01b0316635c60da1b6040518163ffffffff1660e01b815260040160206040518083038186803b15801561010757600080fd5b505afa15801561011b573d6000803e3d6000fd5b505050506040513d601f19601f8201168201806040525081019061013f9190610455565b836102f660201b6100291760201c565b505b505050565b6101698161032260201b6100551760201c565b6101c85760405162461bcd60e51b815260206004820152602560248201527f455243313936373a206e657720626561636f6e206973206e6f74206120636f6e6044820152641d1c9858dd60da1b60648201526084015b60405180910390fd5b61024b816001600160a01b0316635c60da1b6040518163ffffffff1660e01b815260040160206040518083038186803b15801561020457600080fd5b505afa158015610218573d6000803e3d6000fd5b505050506040513d601f19601f8201168201806040525081019061023c9190610455565b61032260201b6100551760201c565b6102b05760405162461bcd60e51b815260206004820152603060248201527f455243313936373a20626561636f6e20696d706c656d656e746174696f6e206960448201526f1cc81b9bdd08184818dbdb9d1c9858dd60821b60648201526084016101bf565b806102d560008051602061094c83398151915260001b61032860201b61005b1760201c565b80546001600160a01b0319166001600160a01b039290921691909117905550565b606061031b838360405180606001604052806027815260200161096c6027913961032b565b9392505050565b3b151590565b90565b6060833b61038a5760405162461bcd60e51b815260206004820152602660248201527f416464726573733a2064656c65676174652063616c6c20746f206e6f6e2d636f6044820152651b9d1c9858dd60d21b60648201526084016101bf565b600080856001600160a01b0316856040516103a59190610530565b600060405180830381855af49150503d80600081146103e0576040519150601f19603f3d011682016040523d82523d6000602084013e6103e5565b606091505b5090925090506103f6828286610400565b9695505050505050565b6060831561040f57508161031b565b82511561041f5782518084602001fd5b8160405162461bcd60e51b81526004016101bf919061054c565b80516001600160a01b038116811461045057600080fd5b919050565b60006020828403121561046757600080fd5b61031b82610439565b6000806040838503121561048357600080fd5b61048c83610439565b60208401519092506001600160401b03808211156104a957600080fd5b818501915085601f8301126104bd57600080fd5b8151818111156104cf576104cf6105e6565b604051601f8201601f19908116603f011681019083821181831017156104f7576104f76105e6565b8160405282815288602084870101111561051057600080fd5b6105218360208301602088016105a4565b80955050505050509250929050565b600082516105428184602087016105a4565b9190910192915050565b602081526000825180602084015261056b8160408501602087016105a4565b601f01601f19169190910160400192915050565b60008282101561059f57634e487b7160e01b600052601160045260246000fd5b500390565b60005b838110156105bf5781810151838201526020016105a7565b8381111561014f5750506000910152565b634e487b7160e01b600052600160045260246000fd5b634e487b7160e01b600052604160045260246000fd5b6103418061060b6000396000f3fe60806040523661001357610011610017565b005b6100115b61002761002261005e565b610106565b565b606061004e83836040518060600160405280602781526020016102e56027913961012a565b9392505050565b3b151590565b90565b60006100917fa3f0ad74e5423aebfd80d3ef4346578335a9a72aeaee59ff6cb3582b35133d50546001600160a01b031690565b6001600160a01b0316635c60da1b6040518163ffffffff1660e01b815260040160206040518083038186803b1580156100c957600080fd5b505afa1580156100dd573d6000803e3d6000fd5b505050506040513d601f19601f82011682018060405250810190610101919061023c565b905090565b3660008037600080366000845af43d6000803e808015610125573d6000f35b3d6000fd5b6060833b61018e5760405162461bcd60e51b815260206004820152602660248201527f416464726573733a2064656c65676174652063616c6c20746f206e6f6e2d636f6044820152651b9d1c9858dd60d21b60648201526084015b60405180910390fd5b600080856001600160a01b0316856040516101a99190610265565b600060405180830381855af49150503d80600081146101e4576040519150601f19603f3d011682016040523d82523d6000602084013e6101e9565b606091505b50915091506101f9828286610203565b9695505050505050565b6060831561021257508161004e565b8251156102225782518084602001fd5b8160405162461bcd60e51b81526004016101859190610281565b60006020828403121561024e57600080fd5b81516001600160a01b038116811461004e57600080fd5b600082516102778184602087016102b4565b9190910192915050565b60208152600082518060208401526102a08160408501602087016102b4565b601f01601f19169190910160400192915050565b60005b838110156102cf5781810151838201526020016102b7565b838111156102de576000848401525b5050505056fe416464726573733a206c6f772d6c6576656c2064656c65676174652063616c6c206661696c6564a2646970667358221220148d20618ce0e4acd0b179dccf12503163fb589ddd8df806d6d9c09a8f4adc1064736f6c63430008070033a3f0ad74e5423aebfd80d3ef4346578335a9a72aeaee59ff6cb3582b35133d50416464726573733a206c6f772d6c6576656c2064656c65676174652063616c6c206661696c6564a2646970667358221220583be9bca1f00faffb15a48f3175e5015a74c94b1a1e5ece8fa328f502617aa664736f6c63430008070033",
  "immutableReferences": {},
  "source": "// SPDX-License-Identifier: GPL-3.0\r\n\r\npragma solidity 0.8.7;\r\n\r\n/**\r\n Certis Token is an ERC20 Token that grants its holder the right to:\r\n   - Vote on all the systems propositions (changing system configuraiton etc...)\r\n   - Receive Dividends for all the payments forwarded to the Treasury contract\r\n\r\nBefore every token transfer we contact the token gouvernance Base contracts so that the can update the tokens used for voting if needed\r\n\r\n */\r\n\r\nimport \"@openzeppelin/contracts-upgradeable/proxy/utils/Initializable.sol\";\r\nimport \"../Interfaces/IPool.sol\";\r\nimport \"../Interfaces/ITreasury.sol\";\r\nimport \"../Base/MultiSigContract.sol\";\r\nimport \"../Libraries/ItemsLibrary.sol\";\r\nimport \"../Libraries/UintLibrary.sol\";\r\nimport \"../Libraries/Library.sol\";\r\nimport \"../Libraries/AddressLibrary.sol\";\r\nimport \"@openzeppelin/contracts/proxy/beacon/BeaconProxy.sol\";\r\nimport \"../Base/CreditorBaseContract.sol\";\r\nimport \"../Interfaces/IPayments.sol\";\r\n\r\n contract PublicPool is  Initializable, MultiSigContract, CreditorBaseContract, IPool {\r\n  using ItemsLibrary for *;\r\n  using UintLibrary for *;\r\n  using Library for *;\r\n  using AddressLibrary for *;\r\n\r\n\r\n  // EVENTS /////////////////////////////////////////\r\n  event _NewIssuerRequest(uint256 indexed id, address owner, string name, string symbol, uint256 paymentTokenID);\r\n  event _VoteForIssuer(uint256 indexed id, address voter, bool vote);\r\n  event _IssuerValidation(uint256 indexed id, address NFTMarket);\r\n  event _IssuerRejection(uint256 indexed id);\r\n\r\n  event _CreditReceived(address indexed receiver, uint256 amount, address indexed sender, uint256 paymentTokenID);\r\n  event _CreditUnAssignedReceived(uint256 indexed NFTMarketId, uint256 indexed tokenID, uint256 amount, uint256 paymentTokenID);\r\n  event _CreditAssigned(uint256 indexed NFTMarketId, uint256 indexed tokenID, address indexed receiver, uint256 amount, uint256 factor, uint256 paymentTokenID);\r\n  event _CreditReused(uint256 indexed NFTMarketId, uint256 indexed tokenID, address indexed creditor, uint256 amount, uint256 paymentTokenID);\r\n  event _CreditSpent(uint256 indexed NFTMarketId, address indexed from, uint256 amount, address indexed to, uint256 paymentTokenID);\r\n  event _CreditWithdrawn(address indexed withdrawer, uint256 amount, uint256 paymentTokenID);\r\n  event _CreditWithdrawnFor(address indexed withdrawer, uint256 amount, address indexed sender, uint256 paymentTokenID);\r\n\r\n\r\n  // DATA /////////////////////////////////////////\r\n  struct _unassignedCreditStruct{\r\n    uint256 _credit;\r\n    uint256 _paymentTokenID;\r\n  }\r\n\r\n  mapping(uint256 => address) private _issuers;\r\n  uint256[] private _listOfIssuers;\r\n\r\n  mapping(uint256 => _pendingIssuerStruct) private _pendingIssuers;\r\n  uint256[] private _listOfPendingIssuers;\r\n\r\n  mapping(uint256 => mapping(address => ItemsLibrary._BalanceStruct)) private _creditOfAccount;\r\n  mapping(uint256 => mapping(uint256 => _unassignedCreditStruct)) private _unassignedCreditForMarket;\r\n\r\n\r\n\r\n  // MODIFIERS /////////////////////////////////////////\r\n  modifier IssuerPending(uint256 id){\r\n      require(address(0) != _pendingIssuers[id]._issuer._owner, \"This issuer id is not pending\");\r\n      _;\r\n  }\r\n\r\n  modifier validIssuerRequest(ItemsLibrary._issuerStruct memory requestedIssuer){\r\n    require(address(0) != requestedIssuer._owner, \"NFT Market owner cannot be address 0\");\r\n    Library.validFees(requestedIssuer._feeAmount, requestedIssuer._feeDecimals);\r\n    require(0 < bytes(requestedIssuer._name).length, \"Name is empty\");\r\n    require(0 < bytes(requestedIssuer._symbol).length, \"Symbol is empty\");\r\n     _;\r\n  }\r\n\r\n  modifier isNFTMarket(uint256 MarketId, address MarketAddress){\r\n      isNFTMarketFunc(MarketId, MarketAddress);\r\n      _;\r\n  }\r\n\r\n  function isNFTMarketFunc(uint256 MarketId, address MarketAddress) internal view{\r\n    require(MarketAddress == _issuers[MarketId], \"The Market Id and Address do not correspond\");\r\n  }\r\n\r\n  modifier isTokenUnassignedCreditEmpty(uint256 NFTMarketId, uint256 tokenID){\r\n    isTokenUnassignedCreditEmptyFunc(NFTMarketId, tokenID);\r\n    _;\r\n  }\r\n\r\n  function isTokenUnassignedCreditEmptyFunc(uint256 NFTMarketId, uint256 tokenID) internal view{\r\n    require(0 == _unassignedCreditForMarket[NFTMarketId][tokenID]._credit, \"Unassigned credit for this token is not empty\");\r\n  }\r\n\r\n  modifier checkTotal(uint256 total, uint256[] memory amounts, uint256[] memory factors){\r\n    checkTotalFunc(total, amounts, factors);\r\n    _;\r\n  }\r\n\r\n  function checkTotalFunc(uint256 total, uint256[] memory amounts, uint256[] memory factors) internal pure{\r\n    require(amounts.length == factors.length, \"Provided arrays do not have the same length\");\r\n    uint256 CommonDividend = UintLibrary.ProductOfFactors(factors);\r\n    uint256 calculatedTotal = 0;\r\n    for(uint256 i=0; i < factors.length; i++){\r\n        calculatedTotal += amounts[i] * CommonDividend / factors[i];\r\n    }\r\n    require((total * CommonDividend) == calculatedTotal, \"the total amount is not equal to the calculated one\");\r\n  }\r\n\r\n  // CONSTRUCTOR /////////////////////////////////////////\r\n  function PublicPool_init(address[] memory owners,  uint256 minOwners, address managerContractAddress) public initializer {\r\n      super.MultiSigContract_init(owners, minOwners); \r\n      super.CreditorBaseContract_init(managerContractAddress); \r\n  }\r\n\r\n  // FUNCTIONALITY /////////////////////////////////////////\r\n  function onCreditReceived(address sender, uint256 amount, uint256 paymentTokenID, bytes memory data) internal override\r\n  {\r\n    bytes32[] memory receivedData = Library.BytestoBytes32(data);\r\n    Library.PublicPoolPaymentTypes paymentType = Library.PublicPoolPaymentTypes(uint256(receivedData[0]));\r\n\r\n    if(Library.PublicPoolPaymentTypes.SendCredit == paymentType){\r\n      address account = AddressLibrary.Bytes32ToAddress(receivedData[1]);\r\n      ItemsLibrary.addBalance(_creditOfAccount[paymentTokenID][account], amount, 1);\r\n      emit _CreditReceived(account, amount, sender, paymentTokenID);\r\n    }\r\n\r\n    else{\r\n      uint256 NFTMarketId = UintLibrary.Bytes32ToUint(receivedData[1]);\r\n      uint256 tokenID = UintLibrary.Bytes32ToUint(receivedData[2]);\r\n      internalTransferUnassignedCredit(NFTMarketId, tokenID, amount, paymentTokenID);\r\n      emit _CreditUnAssignedReceived(NFTMarketId, tokenID, amount, paymentTokenID);\r\n    }\r\n     \r\n  }\r\n\r\n  function requestIssuer(ItemsLibrary._issuerStruct memory requestedIssuer, bool FromCredit, uint256 paymentTokenID) external override\r\n    validIssuerRequest(requestedIssuer)\r\n  {\r\n\r\n    uint[][] memory Prices = ITreasury(_managerContract.retrieveTransparentProxies()[uint256(Library.TransparentProxies.Treasury)]).retrieveSettings();\r\n    uint256 NewIssuerFee = Prices[uint256(Library.Prices.NewIssuerFee)][0];\r\n    uint256 AdminNewIssuerFee = Prices[uint256(Library.Prices.AdminNewIssuerFee)][0];\r\n\r\n    if(FromCredit){\r\n      internalSpendCredit(0, msg.sender, NewIssuerFee,  _managerContract.retrieveTransparentProxies()[uint256(Library.TransparentProxies.Treasury)], paymentTokenID);\r\n      internalSpendCredit(0, msg.sender, AdminNewIssuerFee,  _managerContract.retrieveTransparentProxies()[uint256(Library.TransparentProxies.AdminPiggyBank)], paymentTokenID);\r\n    }\r\n    else{\r\n      IPayments payments = IPayments(_managerContract.retrieveTransparentProxies()[uint256(Library.TransparentProxies.Payments)]);\r\n      payments.TransferFrom(msg.sender, _managerContract.retrieveTransparentProxies()[uint256(Library.TransparentProxies.Treasury)], NewIssuerFee, 0, bytes(\"\"), 0);\r\n      payments.TransferFrom(msg.sender, _managerContract.retrieveTransparentProxies()[uint256(Library.TransparentProxies.AdminPiggyBank)], AdminNewIssuerFee, 0, bytes(\"\"), 0);\r\n    }\r\n\r\n    uint256 IssuerID = getIssuerIdFromName(requestedIssuer._name);\r\n\r\n    addPendingIssuer(IssuerID, requestedIssuer);\r\n\r\n    emit _NewIssuerRequest(IssuerID, requestedIssuer._owner, requestedIssuer._name, requestedIssuer._symbol, paymentTokenID);\r\n  }\r\n\r\n  function addPendingIssuer(uint256 IssuerID, ItemsLibrary._issuerStruct memory requestedIssuer) internal\r\n  {\r\n\r\n    require(address(0) == _pendingIssuers[IssuerID]._issuer._owner && address(0) == _issuers[IssuerID], \"This Issuer Name has already been taken\");\r\n\r\n    _pendingIssuers[IssuerID]._issuer._owner = requestedIssuer._owner;\r\n    _pendingIssuers[IssuerID]._issuer._name = requestedIssuer._name;\r\n    _pendingIssuers[IssuerID]._issuer._symbol = requestedIssuer._symbol;\r\n    _pendingIssuers[IssuerID]._issuer._feeAmount = requestedIssuer._feeAmount;\r\n    _pendingIssuers[IssuerID]._issuer._feeDecimals = requestedIssuer._feeDecimals;\r\n    _pendingIssuers[IssuerID]._issuer._paymentPlan = requestedIssuer._paymentPlan;\r\n    _pendingIssuers[IssuerID]._pendingId = _listOfPendingIssuers.length;\r\n    _listOfPendingIssuers.push(IssuerID);\r\n  }\r\n\r\n  function getIssuerIdFromName(string memory name) internal pure returns(uint256)\r\n  {\r\n    return uint256(keccak256(bytes(name)));\r\n  }\r\n\r\n  function validateIssuer(uint256 id) external override\r\n  {\r\n    voteForIssuer(id, true);\r\n  }\r\n\r\n  function rejectIssuer(uint id) external override\r\n  {\r\n    voteForIssuer(id, false);\r\n  }\r\n\r\n  function voteForIssuer(uint id, bool vote) internal\r\n    isAnOwner(msg.sender, true)\r\n    HasNotAlreadyVoted(msg.sender, _pendingIssuers[id]._voters)\r\n    IssuerPending(id)\r\n  {\r\n    emit _VoteForIssuer(id, msg.sender, vote);\r\n\r\n    _pendingIssuers[id]._voters.push(msg.sender);\r\n        \r\n    if(vote){\r\n        _pendingIssuers[id]._validations++;\r\n\r\n        if(_pendingIssuers[id]._validations >= _minOwners){\r\n            _listOfIssuers.push(id);\r\n            _issuers[id] = GenerateNewNFTMarket(_pendingIssuers[id]._issuer._owner, _pendingIssuers[id]._issuer._name, _pendingIssuers[id]._issuer._symbol, _pendingIssuers[id]._issuer._feeAmount, _pendingIssuers[id]._issuer._feeDecimals, id, _pendingIssuers[id]._issuer._paymentPlan);\r\n            deletingPendingIssuer(id);\r\n            emit _IssuerValidation(id, _issuers[id]);\r\n        }\r\n    }\r\n    else{\r\n        _pendingIssuers[id]._rejections++;\r\n\r\n        if(_pendingIssuers[id]._rejections >= _minOwners){\r\n            deletingPendingIssuer(id);\r\n            emit _IssuerRejection(id);\r\n        }\r\n    }\r\n  }\r\n\r\n  function deletingPendingIssuer(uint256 id) internal\r\n  {\r\n    uint pos = _pendingIssuers[id]._pendingId;\r\n    UintLibrary.UintArrayRemoveResize(pos, _listOfPendingIssuers);\r\n    if(_listOfPendingIssuers.length > pos) _pendingIssuers[_listOfPendingIssuers[pos]]._pendingId = pos;\r\n\r\n    delete(_pendingIssuers[id]._issuer);\r\n    delete(_pendingIssuers[id]._validations);\r\n    delete(_pendingIssuers[id]._rejections);\r\n    delete(_pendingIssuers[id]._voters);\r\n  }\r\n\r\n  function GenerateNewNFTMarket(address owner, string memory name, string memory symbol, uint256 feeAmount, uint256 feeDecimals, uint256 id, Library.PaymentPlans paymentPlan) internal returns(address)\r\n  {\r\n    address beaconAddress = _managerContract.retrieveBeacons()[uint256(Library.Beacons.NFT)];\r\n    uint256 OffersLifeTime = ITreasury(_managerContract.retrieveTransparentProxies()[uint256(Library.TransparentProxies.Treasury)]).retrieveSettings()[uint256(Library.Prices.OffersLifeTime)][0];\r\n    bytes memory data = abi.encodeWithSignature(\"NFTMarket_init(address,address,string,string,uint256,uint256,uint256,uint256,uint8)\", address(_managerContract), owner, name, symbol, OffersLifeTime, feeAmount, feeDecimals, id, uint8(paymentPlan));\r\n\r\n    BeaconProxy beaconProxy = new BeaconProxy(beaconAddress, data);\r\n\r\n    return address(beaconProxy);\r\n  }\r\n\r\n  function retrieveIssuers() external override view returns (uint[] memory)\r\n  {\r\n    return _listOfIssuers;\r\n  }\r\n\r\n  function retrieveNFTMarketForIssuer(uint id) external override view returns (address)\r\n  {\r\n    return _issuers[id];\r\n  }\r\n\r\n  function retrievePendingIssuers() external override view returns (uint[] memory)\r\n  {\r\n    return _listOfPendingIssuers;\r\n  }\r\n\r\n  function retrievePendingIssuer(uint id) external override view returns (_pendingIssuerStruct memory)\r\n  {\r\n    return _pendingIssuers[id];\r\n  }\r\n\r\n  // Credit Functionality\r\n\r\n  function sendCredit(address addr, uint256 amount, uint256 paymentTokenID) external override\r\n  {\r\n    bytes32[] memory dataArray = new bytes32[](3);\r\n    dataArray[0] = UintLibrary.UintToBytes32(uint256(Library.PublicPoolPaymentTypes.SendCredit));\r\n    dataArray[1] = AddressLibrary.AddressToBytes32(addr);\r\n    bytes memory data = Library.Bytes32ArrayToBytes(dataArray);\r\n\r\n    IPayments payments = IPayments(_managerContract.retrieveTransparentProxies()[uint256(Library.TransparentProxies.Payments)]);\r\n    payments.TransferFrom(msg.sender, address(this), amount, 0, data, paymentTokenID);\r\n  }\r\n\r\n  function addCredit(uint256 NFTMarketId, uint256 tokenID, address[] calldata addrs, uint256[] calldata amounts, uint256[] calldata factors) external override\r\n    isNFTMarket(NFTMarketId, msg.sender)\r\n    checkTotal(_unassignedCreditForMarket[NFTMarketId][tokenID]._credit, amounts, factors)\r\n  {\r\n    require(addrs.length == factors.length, \"Provided arrays do not have the same length\");\r\n    addCreditinternal(NFTMarketId, tokenID, addrs, amounts, factors);\r\n    delete(_unassignedCreditForMarket[NFTMarketId][tokenID]);\r\n  }\r\n\r\n  function addCreditinternal(uint256 NFTMarketId, uint256 tokenID, address[] calldata addrs, uint256[] calldata amounts, uint256[] calldata factors) internal \r\n  {\r\n    uint256 paymentTokenID = _unassignedCreditForMarket[NFTMarketId][tokenID]._paymentTokenID;\r\n    for(uint i=0; i < addrs.length; i++){\r\n      ItemsLibrary.addBalance(_creditOfAccount[paymentTokenID][addrs[i]], amounts[i], factors[i]);\r\n      emit _CreditAssigned(NFTMarketId, tokenID, addrs[i], amounts[i], factors[i], paymentTokenID);\r\n    }\r\n  }\r\n\r\n  function reuseCredit(uint256 NFTMarketId, uint256 tokenID, address addr, uint256 amount, uint256 paymentTokenID) external override\r\n    isNFTMarket(NFTMarketId, msg.sender)\r\n    isTokenUnassignedCreditEmpty(NFTMarketId, tokenID)\r\n  {\r\n    ItemsLibrary.InternalWithdraw(\r\n      _creditOfAccount[paymentTokenID][addr], \r\n      amount, \r\n      address(0), \r\n      false, \r\n      address(IPayments(_managerContract.retrieveTransparentProxies()[uint256(Library.TransparentProxies.Payments)]).retrieveSettings()[paymentTokenID].TokenContract),\r\n      false,\r\n      bytes(\"\"),\r\n      paymentTokenID\r\n    );\r\n    internalTransferUnassignedCredit(NFTMarketId, tokenID, amount, paymentTokenID);\r\n    emit _CreditReused(NFTMarketId, tokenID, addr, amount, paymentTokenID);\r\n  }\r\n\r\n  function spendCredit(uint256 NFTMarketId, address from, uint256 amount, address to, uint256 paymentTokenID) external override\r\n    isNFTMarket(NFTMarketId, msg.sender)\r\n  {\r\n    internalSpendCredit(NFTMarketId, from, amount, to, paymentTokenID);\r\n  }\r\n\r\n  function internalSpendCredit(uint256 NFTMarketId, address from, uint256 amount, address to, uint256 paymentTokenID) internal \r\n  {\r\n    bytes memory emptyData = bytes(\"\");\r\n    ItemsLibrary.InternalWithdraw(  \r\n      _creditOfAccount[paymentTokenID][from], \r\n      amount, \r\n      to, \r\n      true, \r\n      address(IPayments(_managerContract.retrieveTransparentProxies()[uint256(Library.TransparentProxies.Payments)]).retrieveSettings()[paymentTokenID].TokenContract),\r\n      true,\r\n      bytes(\"\"),\r\n      paymentTokenID\r\n    );\r\n    emit _CreditSpent(NFTMarketId, from, amount, to, paymentTokenID);\r\n  }\r\n\r\n  function withdraw(uint amount, uint256 paymentTokenID) external override\r\n  {\r\n    internalWithdraw(msg.sender, amount, address(0), false, bytes(\"\"), paymentTokenID);\r\n  }\r\n  \r\n  function withdrawAll(uint256 paymentTokenID) external override\r\n  {\r\n    uint amount = ItemsLibrary.checkFullBalance(_creditOfAccount[paymentTokenID][msg.sender]);\r\n    internalWithdraw(msg.sender, amount, address(0), false, bytes(\"\"), paymentTokenID);\r\n  }\r\n  \r\n  function withdrawAllFor(uint256 NFTMarketId, address addr, uint256 paymentTokenID, bytes memory data) external override\r\n    isNFTMarket(NFTMarketId, msg.sender)\r\n  {\r\n    uint amount = ItemsLibrary.checkFullBalance(_creditOfAccount[paymentTokenID][addr]);\r\n    internalWithdraw(addr, amount, msg.sender, true, data, paymentTokenID);\r\n  }\r\n\r\n  function internalTransferUnassignedCredit(uint256 NFTMarketId, uint256 tokenID, uint256 amount, uint256 paymentTokenID) internal\r\n  {\r\n      _unassignedCreditForMarket[NFTMarketId][tokenID]._credit = amount;\r\n      _unassignedCreditForMarket[NFTMarketId][tokenID]._paymentTokenID = paymentTokenID;\r\n  }\r\n\r\n  function internalWithdraw(address addr, uint amount, address sender, bool sendData, bytes memory data, uint256 paymentTokenID) internal\r\n  {\r\n    ItemsLibrary.InternalWithdraw(\r\n      _creditOfAccount[paymentTokenID][addr], \r\n      amount, \r\n      addr, \r\n      true, \r\n      address(IPayments(_managerContract.retrieveTransparentProxies()[uint256(Library.TransparentProxies.Payments)]).retrieveSettings()[paymentTokenID].TokenContract),\r\n      sendData,\r\n      data,\r\n      paymentTokenID\r\n    );\r\n    if(address(0) != sender) emit _CreditWithdrawnFor(addr, amount, sender, paymentTokenID);\r\n    else emit _CreditWithdrawn(addr, amount, paymentTokenID);\r\n  }\r\n\r\n  function retrieveCredit(address addr, uint256 paymentTokenID) external override view returns (uint256)\r\n  {\r\n    return ItemsLibrary.checkFullBalance(_creditOfAccount[paymentTokenID][addr]);\r\n  }\r\n\r\n\r\n\r\n }",
  "sourcePath": "C:\\Users\\d-aam\\GitHub\\Originals\\contracts\\MainContracts\\PublicPool.sol",
  "compiler": {
    "name": "solc",
    "version": "0.8.7+commit.e28d00a7.Emscripten.clang"
  },
  "schemaVersion": "3.4.3",
  "updatedAt": "2022-02-25T10:47:25.905Z",
  "devdoc": {
    "kind": "dev",
    "methods": {},
    "version": 1
  },
  "userdoc": {
    "kind": "user",
    "methods": {},
    "version": 1
  }
}