{
  "contractName": "PublicPool",
  "abi": [
    {
      "anonymous": false,
      "inputs": [
        {
          "indexed": false,
          "internalType": "address",
          "name": "owner",
          "type": "address"
        }
      ],
      "name": "_AddOwnerRejection",
      "type": "event"
    },
    {
      "anonymous": false,
      "inputs": [
        {
          "indexed": false,
          "internalType": "address",
          "name": "owner",
          "type": "address"
        }
      ],
      "name": "_AddOwnerValidation",
      "type": "event"
    },
    {
      "anonymous": false,
      "inputs": [
        {
          "indexed": true,
          "internalType": "uint256",
          "name": "NFTMarketId",
          "type": "uint256"
        },
        {
          "indexed": true,
          "internalType": "uint256",
          "name": "tokenID",
          "type": "uint256"
        },
        {
          "indexed": true,
          "internalType": "address",
          "name": "receiver",
          "type": "address"
        },
        {
          "indexed": false,
          "internalType": "uint256",
          "name": "amount",
          "type": "uint256"
        },
        {
          "indexed": false,
          "internalType": "uint256",
          "name": "factor",
          "type": "uint256"
        }
      ],
      "name": "_CreditAssigned",
      "type": "event"
    },
    {
      "anonymous": false,
      "inputs": [
        {
          "indexed": true,
          "internalType": "address",
          "name": "receiver",
          "type": "address"
        },
        {
          "indexed": false,
          "internalType": "uint256",
          "name": "amount",
          "type": "uint256"
        },
        {
          "indexed": true,
          "internalType": "address",
          "name": "sender",
          "type": "address"
        }
      ],
      "name": "_CreditReceived",
      "type": "event"
    },
    {
      "anonymous": false,
      "inputs": [
        {
          "indexed": true,
          "internalType": "uint256",
          "name": "NFTMarketId",
          "type": "uint256"
        },
        {
          "indexed": true,
          "internalType": "uint256",
          "name": "tokenID",
          "type": "uint256"
        },
        {
          "indexed": true,
          "internalType": "address",
          "name": "creditor",
          "type": "address"
        },
        {
          "indexed": false,
          "internalType": "uint256",
          "name": "amount",
          "type": "uint256"
        }
      ],
      "name": "_CreditReused",
      "type": "event"
    },
    {
      "anonymous": false,
      "inputs": [
        {
          "indexed": true,
          "internalType": "uint256",
          "name": "NFTMarketId",
          "type": "uint256"
        },
        {
          "indexed": true,
          "internalType": "uint256",
          "name": "tokenID",
          "type": "uint256"
        },
        {
          "indexed": false,
          "internalType": "uint256",
          "name": "amount",
          "type": "uint256"
        }
      ],
      "name": "_CreditUnAssignedReceived",
      "type": "event"
    },
    {
      "anonymous": false,
      "inputs": [
        {
          "indexed": true,
          "internalType": "address",
          "name": "withdrawer",
          "type": "address"
        },
        {
          "indexed": false,
          "internalType": "uint256",
          "name": "amount",
          "type": "uint256"
        }
      ],
      "name": "_CreditWithdrawn",
      "type": "event"
    },
    {
      "anonymous": false,
      "inputs": [
        {
          "indexed": true,
          "internalType": "address",
          "name": "withdrawer",
          "type": "address"
        },
        {
          "indexed": false,
          "internalType": "uint256",
          "name": "amount",
          "type": "uint256"
        },
        {
          "indexed": true,
          "internalType": "address",
          "name": "sender",
          "type": "address"
        }
      ],
      "name": "_CreditWithdrawnFor",
      "type": "event"
    },
    {
      "anonymous": false,
      "inputs": [
        {
          "indexed": true,
          "internalType": "uint256",
          "name": "id",
          "type": "uint256"
        }
      ],
      "name": "_IssuerRejection",
      "type": "event"
    },
    {
      "anonymous": false,
      "inputs": [
        {
          "indexed": true,
          "internalType": "uint256",
          "name": "id",
          "type": "uint256"
        },
        {
          "indexed": false,
          "internalType": "address",
          "name": "NFTMarket",
          "type": "address"
        }
      ],
      "name": "_IssuerValidation",
      "type": "event"
    },
    {
      "anonymous": false,
      "inputs": [
        {
          "indexed": false,
          "internalType": "uint256",
          "name": "minOwner",
          "type": "uint256"
        }
      ],
      "name": "_MinOwnerRejection",
      "type": "event"
    },
    {
      "anonymous": false,
      "inputs": [
        {
          "indexed": false,
          "internalType": "uint256",
          "name": "minOwner",
          "type": "uint256"
        }
      ],
      "name": "_MinOwnerValidation",
      "type": "event"
    },
    {
      "anonymous": false,
      "inputs": [
        {
          "indexed": true,
          "internalType": "uint256",
          "name": "id",
          "type": "uint256"
        },
        {
          "indexed": false,
          "internalType": "address",
          "name": "owner",
          "type": "address"
        },
        {
          "indexed": false,
          "internalType": "string",
          "name": "name",
          "type": "string"
        },
        {
          "indexed": false,
          "internalType": "string",
          "name": "symbol",
          "type": "string"
        }
      ],
      "name": "_NewIssuerRequest",
      "type": "event"
    },
    {
      "anonymous": false,
      "inputs": [
        {
          "indexed": false,
          "internalType": "address",
          "name": "owner",
          "type": "address"
        }
      ],
      "name": "_RemoveOwnerRejection",
      "type": "event"
    },
    {
      "anonymous": false,
      "inputs": [
        {
          "indexed": false,
          "internalType": "address",
          "name": "owner",
          "type": "address"
        }
      ],
      "name": "_RemoveOwnerValidation",
      "type": "event"
    },
    {
      "anonymous": false,
      "inputs": [
        {
          "indexed": true,
          "internalType": "uint256",
          "name": "id",
          "type": "uint256"
        },
        {
          "indexed": false,
          "internalType": "address",
          "name": "voter",
          "type": "address"
        },
        {
          "indexed": false,
          "internalType": "bool",
          "name": "vote",
          "type": "bool"
        }
      ],
      "name": "_VoteForIssuer",
      "type": "event"
    },
    {
      "anonymous": false,
      "inputs": [
        {
          "indexed": false,
          "internalType": "uint256",
          "name": "minOwner",
          "type": "uint256"
        },
        {
          "indexed": false,
          "internalType": "address",
          "name": "voter",
          "type": "address"
        },
        {
          "indexed": false,
          "internalType": "bool",
          "name": "vote",
          "type": "bool"
        }
      ],
      "name": "_VoteForMinOwner",
      "type": "event"
    },
    {
      "anonymous": false,
      "inputs": [
        {
          "indexed": false,
          "internalType": "address",
          "name": "owner",
          "type": "address"
        },
        {
          "indexed": false,
          "internalType": "address",
          "name": "voter",
          "type": "address"
        },
        {
          "indexed": false,
          "internalType": "bool",
          "name": "vote",
          "type": "bool"
        }
      ],
      "name": "_VoteForOwner",
      "type": "event"
    },
    {
      "inputs": [
        {
          "internalType": "address",
          "name": "sender",
          "type": "address"
        },
        {
          "internalType": "uint256",
          "name": "amount",
          "type": "uint256"
        },
        {
          "internalType": "bytes",
          "name": "data",
          "type": "bytes"
        }
      ],
      "name": "CreditReceived",
      "outputs": [],
      "stateMutability": "nonpayable",
      "type": "function"
    },
    {
      "inputs": [
        {
          "internalType": "address[]",
          "name": "owners",
          "type": "address[]"
        },
        {
          "internalType": "uint256",
          "name": "minOwners",
          "type": "uint256"
        }
      ],
      "name": "MultiSigContract_init",
      "outputs": [],
      "stateMutability": "nonpayable",
      "type": "function"
    },
    {
      "inputs": [
        {
          "internalType": "address",
          "name": "owner",
          "type": "address"
        }
      ],
      "name": "addOwner",
      "outputs": [],
      "stateMutability": "nonpayable",
      "type": "function"
    },
    {
      "inputs": [
        {
          "internalType": "uint256",
          "name": "newMinOwners",
          "type": "uint256"
        }
      ],
      "name": "changeMinOwners",
      "outputs": [],
      "stateMutability": "nonpayable",
      "type": "function"
    },
    {
      "inputs": [],
      "name": "rejectMinOwners",
      "outputs": [],
      "stateMutability": "nonpayable",
      "type": "function"
    },
    {
      "inputs": [
        {
          "internalType": "address",
          "name": "owner",
          "type": "address"
        }
      ],
      "name": "rejectOwner",
      "outputs": [],
      "stateMutability": "nonpayable",
      "type": "function"
    },
    {
      "inputs": [
        {
          "internalType": "address",
          "name": "owner",
          "type": "address"
        }
      ],
      "name": "removeOwner",
      "outputs": [],
      "stateMutability": "nonpayable",
      "type": "function"
    },
    {
      "inputs": [],
      "name": "retrieveAllOwners",
      "outputs": [
        {
          "internalType": "address[]",
          "name": "",
          "type": "address[]"
        }
      ],
      "stateMutability": "view",
      "type": "function"
    },
    {
      "inputs": [],
      "name": "retrieveManagerContract",
      "outputs": [
        {
          "internalType": "address",
          "name": "",
          "type": "address"
        }
      ],
      "stateMutability": "view",
      "type": "function"
    },
    {
      "inputs": [],
      "name": "retrieveMinOwners",
      "outputs": [
        {
          "internalType": "uint256",
          "name": "",
          "type": "uint256"
        }
      ],
      "stateMutability": "view",
      "type": "function"
    },
    {
      "inputs": [],
      "name": "retrievePendingMinOwners",
      "outputs": [
        {
          "internalType": "uint256",
          "name": "",
          "type": "uint256"
        }
      ],
      "stateMutability": "view",
      "type": "function"
    },
    {
      "inputs": [],
      "name": "retrievePendingMinOwnersStatus",
      "outputs": [
        {
          "internalType": "uint256",
          "name": "",
          "type": "uint256"
        },
        {
          "internalType": "uint256",
          "name": "",
          "type": "uint256"
        },
        {
          "internalType": "address[]",
          "name": "",
          "type": "address[]"
        }
      ],
      "stateMutability": "view",
      "type": "function"
    },
    {
      "inputs": [
        {
          "internalType": "bool",
          "name": "addedORremove",
          "type": "bool"
        }
      ],
      "name": "retrievePendingOwners",
      "outputs": [
        {
          "internalType": "address[]",
          "name": "",
          "type": "address[]"
        }
      ],
      "stateMutability": "view",
      "type": "function"
    },
    {
      "inputs": [],
      "name": "validateMinOwners",
      "outputs": [],
      "stateMutability": "nonpayable",
      "type": "function"
    },
    {
      "inputs": [
        {
          "internalType": "address",
          "name": "owner",
          "type": "address"
        }
      ],
      "name": "validateOwner",
      "outputs": [],
      "stateMutability": "nonpayable",
      "type": "function"
    },
    {
      "inputs": [
        {
          "internalType": "address[]",
          "name": "owners",
          "type": "address[]"
        },
        {
          "internalType": "uint256",
          "name": "minOwners",
          "type": "uint256"
        },
        {
          "internalType": "address",
          "name": "managerContractAddress",
          "type": "address"
        }
      ],
      "name": "PublicPool_init",
      "outputs": [],
      "stateMutability": "nonpayable",
      "type": "function"
    },
    {
      "inputs": [
        {
          "components": [
            {
              "internalType": "address",
              "name": "_owner",
              "type": "address"
            },
            {
              "internalType": "string",
              "name": "_name",
              "type": "string"
            },
            {
              "internalType": "string",
              "name": "_symbol",
              "type": "string"
            },
            {
              "internalType": "uint256",
              "name": "_feeAmount",
              "type": "uint256"
            },
            {
              "internalType": "uint256",
              "name": "_feeDecimals",
              "type": "uint256"
            },
            {
              "internalType": "enum Library.PaymentPlans",
              "name": "_paymentPlan",
              "type": "uint8"
            }
          ],
          "internalType": "struct ItemsLibrary._issuerStruct",
          "name": "requestedIssuer",
          "type": "tuple"
        }
      ],
      "name": "requestIssuer",
      "outputs": [],
      "stateMutability": "nonpayable",
      "type": "function"
    },
    {
      "inputs": [
        {
          "internalType": "uint256",
          "name": "id",
          "type": "uint256"
        }
      ],
      "name": "validateIssuer",
      "outputs": [],
      "stateMutability": "nonpayable",
      "type": "function"
    },
    {
      "inputs": [
        {
          "internalType": "uint256",
          "name": "id",
          "type": "uint256"
        }
      ],
      "name": "rejectIssuer",
      "outputs": [],
      "stateMutability": "nonpayable",
      "type": "function"
    },
    {
      "inputs": [],
      "name": "retrieveIssuers",
      "outputs": [
        {
          "internalType": "uint256[]",
          "name": "",
          "type": "uint256[]"
        }
      ],
      "stateMutability": "view",
      "type": "function"
    },
    {
      "inputs": [
        {
          "internalType": "uint256",
          "name": "id",
          "type": "uint256"
        }
      ],
      "name": "retrieveNFTMarketForIssuer",
      "outputs": [
        {
          "internalType": "address",
          "name": "",
          "type": "address"
        }
      ],
      "stateMutability": "view",
      "type": "function"
    },
    {
      "inputs": [],
      "name": "retrievePendingIssuers",
      "outputs": [
        {
          "internalType": "uint256[]",
          "name": "",
          "type": "uint256[]"
        }
      ],
      "stateMutability": "view",
      "type": "function"
    },
    {
      "inputs": [
        {
          "internalType": "uint256",
          "name": "id",
          "type": "uint256"
        }
      ],
      "name": "retrievePendingIssuer",
      "outputs": [
        {
          "components": [
            {
              "components": [
                {
                  "internalType": "address",
                  "name": "_owner",
                  "type": "address"
                },
                {
                  "internalType": "string",
                  "name": "_name",
                  "type": "string"
                },
                {
                  "internalType": "string",
                  "name": "_symbol",
                  "type": "string"
                },
                {
                  "internalType": "uint256",
                  "name": "_feeAmount",
                  "type": "uint256"
                },
                {
                  "internalType": "uint256",
                  "name": "_feeDecimals",
                  "type": "uint256"
                },
                {
                  "internalType": "enum Library.PaymentPlans",
                  "name": "_paymentPlan",
                  "type": "uint8"
                }
              ],
              "internalType": "struct ItemsLibrary._issuerStruct",
              "name": "_issuer",
              "type": "tuple"
            },
            {
              "internalType": "uint256",
              "name": "_pendingId",
              "type": "uint256"
            },
            {
              "internalType": "uint256",
              "name": "_validations",
              "type": "uint256"
            },
            {
              "internalType": "uint256",
              "name": "_rejections",
              "type": "uint256"
            },
            {
              "internalType": "address[]",
              "name": "_voters",
              "type": "address[]"
            }
          ],
          "internalType": "struct IPool._pendingIssuerStruct",
          "name": "",
          "type": "tuple"
        }
      ],
      "stateMutability": "view",
      "type": "function"
    },
    {
      "inputs": [
        {
          "internalType": "address",
          "name": "addr",
          "type": "address"
        },
        {
          "internalType": "uint256",
          "name": "amount",
          "type": "uint256"
        }
      ],
      "name": "sendCredit",
      "outputs": [],
      "stateMutability": "nonpayable",
      "type": "function"
    },
    {
      "inputs": [
        {
          "internalType": "uint256",
          "name": "NFTMarketId",
          "type": "uint256"
        },
        {
          "internalType": "uint256",
          "name": "tokenID",
          "type": "uint256"
        },
        {
          "internalType": "address[]",
          "name": "addrs",
          "type": "address[]"
        },
        {
          "internalType": "uint256[]",
          "name": "amounts",
          "type": "uint256[]"
        },
        {
          "internalType": "uint256[]",
          "name": "factors",
          "type": "uint256[]"
        }
      ],
      "name": "addCredit",
      "outputs": [],
      "stateMutability": "nonpayable",
      "type": "function"
    },
    {
      "inputs": [
        {
          "internalType": "uint256",
          "name": "NFTMarketId",
          "type": "uint256"
        },
        {
          "internalType": "uint256",
          "name": "tokenID",
          "type": "uint256"
        },
        {
          "internalType": "address",
          "name": "addr",
          "type": "address"
        },
        {
          "internalType": "uint256",
          "name": "amount",
          "type": "uint256"
        }
      ],
      "name": "reuseCredit",
      "outputs": [],
      "stateMutability": "nonpayable",
      "type": "function"
    },
    {
      "inputs": [
        {
          "internalType": "uint256",
          "name": "amount",
          "type": "uint256"
        }
      ],
      "name": "withdraw",
      "outputs": [],
      "stateMutability": "nonpayable",
      "type": "function"
    },
    {
      "inputs": [],
      "name": "withdrawAll",
      "outputs": [],
      "stateMutability": "nonpayable",
      "type": "function"
    },
    {
      "inputs": [
        {
          "internalType": "uint256",
          "name": "NFTMarketId",
          "type": "uint256"
        },
        {
          "internalType": "address",
          "name": "addr",
          "type": "address"
        },
        {
          "internalType": "bytes",
          "name": "data",
          "type": "bytes"
        }
      ],
      "name": "withdrawAllFor",
      "outputs": [],
      "stateMutability": "nonpayable",
      "type": "function"
    },
    {
      "inputs": [
        {
          "internalType": "address",
          "name": "addr",
          "type": "address"
        }
      ],
      "name": "retrieveCredit",
      "outputs": [
        {
          "internalType": "uint256",
          "name": "",
          "type": "uint256"
        }
      ],
      "stateMutability": "view",
      "type": "function"
    }
  ],
  "bytecode": "0x608060405234801561001057600080fd5b5061576d806100206000396000f3fe60806040523480156200001157600080fd5b50600436106200018a5760003560e01c806303231e5d146200018f578063062a080014620001d3578063094a0ed214620001ec5780630bee185e1462000212578063173825d91462000229578063280931e714620002405780632be816c614620002575780632e1a7d4d146200026e5780632edbe7fc14620002855780632f02a3ec146200029857806330ade92214620002af57806334f2920714620002b9578063430c37cb14620002d0578063501781e814620002e7578063538b6aad14620002fe5780635888ebb314620003175780635b362e84146200033257806365b973e514620003445780636b299604146200034d5780637065cb48146200037357806376f8f90f146200038a578063853828b614620003a157806391c0734b14620003ab578063a93d5ed614620003c2578063ab3fa2a514620003cc578063c3079ae714620003e3578063c66433ea14620003ed578063ce33d58a1462000404578063d0e13918146200041b578063f3882e3a1462000425575b600080fd5b620001bb620001a036600462004566565b6000908152600b60205260409020546001600160a01b031690565b604051620001ca919062004732565b60405180910390f35b620001ea620001e4366004620045c6565b6200043c565b005b62000203620001fd36600462004566565b6200067f565b604051620001ca919062004a69565b620001ea620002233660046200427c565b620008cd565b620001ea6200023a366004620040fd565b62000a3f565b620001ea6200025136600462004566565b62000a82565b620001ea6200026836600462004491565b62000a92565b620001ea6200027f36600462004566565b620010cf565b6006545b604051908152602001620001ca565b620001ea620002a936600462004173565b620010ee565b620001ea6200122d565b620001ea620002ca36600462004566565b6200123b565b620001ea620002e1366004620042c4565b62001248565b620001ea620002f836600462004144565b620012da565b620003086200160a565b604051620001ca9190620048e8565b6200032162001664565b604051620001ca9392919062004b54565b600a546001600160a01b0316620001bb565b60055462000289565b620003646200035e366004620043b8565b620016da565b604051620001ca9190620048d3565b620001ea62000384366004620040fd565b620017a3565b620001ea6200039b366004620040fd565b620017bf565b620001ea62001817565b620001ea620003bc36600462004608565b620018cf565b6200036462001b74565b620001ea620003dd36600462004580565b62001bd9565b620001ea62001ca1565b620001ea620003fe36600462004566565b62001cad565b620001ea62000415366004620040fd565b62001d04565b6200030862001d11565b6200028962000436366004620040fd565b62001d69565b83336200044a828262001e0f565b858562000458828262001e92565b73__ItemsLibrary__________________________63a86af8fc600f6000896001600160a01b03166001600160a01b0316815260200190815260200160002087600080600a60009054906101000a90046001600160a01b03166001600160a01b031663e220ad956040518163ffffffff1660e01b815260040160006040518083038186803b158015620004ea57600080fd5b505afa158015620004ff573d6000803e3d6000fd5b505050506040513d6000823e601f3d908101601f19168201604052620005299190810190620041d1565b6006815181106200053e576200053e62004d53565b60200260200101516001600160a01b031663b049473f6040518163ffffffff1660e01b815260040160206040518083038186803b1580156200057f57600080fd5b505afa15801562000594573d6000803e3d6000fd5b505050506040513d601f19601f82011682018060405250810190620005ba919062004124565b6000604051806020016040528060008152506040518863ffffffff1660e01b8152600401620005f09796959493929190620049fb565b60006040518083038186803b1580156200060957600080fd5b505af41580156200061e573d6000803e3d6000fd5b505050506200062f88888762001f11565b856001600160a01b031687897fcc2a96ca4f9d89cc3dbd73baa3b6e6d19a2502464e6b9a28e0a9b9b11808bb34886040516200066d91815260200190565b60405180910390a45050505050505050565b6200068962003e16565b6000828152600d6020526040908190208151610160810190925280546001600160a01b031660a08301908152600182018054849291849160c085019190620006d19062004ccc565b80601f0160208091040260200160405190810160405280929190818152602001828054620006ff9062004ccc565b8015620007505780601f10620007245761010080835404028352916020019162000750565b820191906000526020600020905b8154815290600101906020018083116200073257829003601f168201915b505050505081526020016002820180546200076b9062004ccc565b80601f0160208091040260200160405190810160405280929190818152602001828054620007999062004ccc565b8015620007ea5780601f10620007be57610100808354040283529160200191620007ea565b820191906000526020600020905b815481529060010190602001808311620007cc57829003601f168201915b50505091835250506003820154602082015260048201546040820152600582015460609091019060ff16600181111562000828576200082862004d3d565b60018111156200083c576200083c62004d3d565b81525050815260200160068201548152602001600782015481526020016008820154815260200160098201805480602002602001604051908101604052809291908181526020018280548015620008bd57602002820191906000526020600020905b81546001600160a01b031681526001909101906020018083116200089e575b5050505050815250509050919050565b600054610100900460ff16620008ea5760005460ff1615620008ee565b303b155b620009165760405162461bcd60e51b81526004016200090d9062004962565b60405180910390fd5b600054610100900460ff1615801562000939576000805461ffff19166101011790555b81835162000948828262001f2d565b60018462000957828262001f2d565b600586905560005b875181101562000a225760018060000160008a848151811062000986576200098662004d53565b6020908102919091018101516001600160a01b03168252810191909152604001600020805460ff19169115159190911790558751600290899083908110620009d257620009d262004d53565b60209081029190910181015182546001810184556000938452919092200180546001600160a01b0319166001600160a01b039092169190911790558062000a198162004d09565b9150506200095f565b5050505050801562000a3a576000805461ff00191690555b505050565b80600162000a4e828262001f50565b60055460025462000a629060019062004c83565b62000a6e828262001f2d565b62000a7b85600462001fa9565b5050505050565b62000a8f8160016200203d565b50565b805181906001600160a01b031662000af95760405162461bcd60e51b8152602060048201526024808201527f4e4654204d61726b6574206f776e65722063616e6e6f742062652061646472656044820152630737320360e41b60648201526084016200090d565b6060810151608082015160405163bdbff48760e01b815273__Library_______________________________9263bdbff4879262000b3a9260040162004b46565b60006040518083038186803b15801562000b5357600080fd5b505af415801562000b68573d6000803e3d6000fd5b5050505080602001515160001062000bb35760405162461bcd60e51b815260206004820152600d60248201526c4e616d6520697320656d70747960981b60448201526064016200090d565b80604001515160001062000bfc5760405162461bcd60e51b815260206004820152600f60248201526e53796d626f6c20697320656d70747960881b60448201526064016200090d565b600a546040805163e220ad9560e01b815290516000926001600160a01b03169163e220ad959160048083019286929190829003018186803b15801562000c4157600080fd5b505afa15801562000c56573d6000803e3d6000fd5b505050506040513d6000823e601f3d908101601f1916820160405262000c809190810190620041d1565b60028151811062000c955762000c9562004d53565b60200260200101516001600160a01b031663b049473f6040518163ffffffff1660e01b815260040160006040518083038186803b15801562000cd657600080fd5b505afa15801562000ceb573d6000803e3d6000fd5b505050506040513d6000823e601f3d908101601f1916820160405262000d15919081019062004324565b9050600081818151811062000d2e5762000d2e62004d53565b602002602001015190506000826001600881111562000d515762000d5162004d3d565b8151811062000d645762000d6462004d53565b602002602001015190506000600a60009054906101000a90046001600160a01b03166001600160a01b031663e220ad956040518163ffffffff1660e01b815260040160006040518083038186803b15801562000dbf57600080fd5b505afa15801562000dd4573d6000803e3d6000fd5b505050506040513d6000823e601f3d908101601f1916820160405262000dfe9190810190620041d1565b60068151811062000e135762000e1362004d53565b60200260200101519050806001600160a01b031663f815611533600a60009054906101000a90046001600160a01b03166001600160a01b031663e220ad956040518163ffffffff1660e01b815260040160006040518083038186803b15801562000e7c57600080fd5b505afa15801562000e91573d6000803e3d6000fd5b505050506040513d6000823e601f3d908101601f1916820160405262000ebb9190810190620041d1565b60028151811062000ed05762000ed062004d53565b6020026020010151866000604051806020016040528060008152506040518663ffffffff1660e01b815260040162000f0d959493929190620047bc565b600060405180830381600087803b15801562000f2857600080fd5b505af115801562000f3d573d6000803e3d6000fd5b50505050806001600160a01b031663f815611533600a60009054906101000a90046001600160a01b03166001600160a01b031663e220ad956040518163ffffffff1660e01b815260040160006040518083038186803b15801562000fa057600080fd5b505afa15801562000fb5573d6000803e3d6000fd5b505050506040513d6000823e601f3d908101601f1916820160405262000fdf9190810190620041d1565b60058151811062000ff45762000ff462004d53565b6020026020010151856000604051806020016040528060008152506040518663ffffffff1660e01b815260040162001031959493929190620047bc565b600060405180830381600087803b1580156200104c57600080fd5b505af115801562001061573d6000803e3d6000fd5b5050505060208681015180519101206200107c8188620024a1565b807f88d341cdb636e2cf41b99330be584ef11888487c9b2aef53410ed90fb2c487ad886000015189602001518a60400151604051620010be939291906200488f565b60405180910390a250505050505050565b62000a8f3382600080604051806020016040528060008152506200264b565b3373__Library_______________________________6337ea306382600a60009054906101000a90046001600160a01b03166001600160a01b031663e220ad956040518163ffffffff1660e01b815260040160006040518083038186803b1580156200115957600080fd5b505afa1580156200116e573d6000803e3d6000fd5b505050506040513d6000823e601f3d908101601f19168201604052620011989190810190620041d1565b600681518110620011ad57620011ad62004d53565b60200260200101516040518363ffffffff1660e01b8152600401620011e89291906001600160a01b0392831681529116602082015260400190565b60006040518083038186803b1580156200120157600080fd5b505af415801562001216573d6000803e3d6000fd5b505050506200122784848462002898565b50505050565b62001239600162002cbd565b565b62000a8f8160006200203d565b600054610100900460ff16620012655760005460ff161562001269565b303b155b620012885760405162461bcd60e51b81526004016200090d9062004962565b600054610100900460ff16158015620012ab576000805461ffff19166101011790555b620012b78484620008cd565b620012c28262002e1b565b801562001227576000805461ff001916905550505050565b60408051600380825260808201909252600091602082016060803683375050604051631635719760e31b81526000600482015291925073__UintLibrary___________________________9163b1ab8cb8915060240160206040518083038186803b1580156200134957600080fd5b505af41580156200135e573d6000803e3d6000fd5b505050506040513d601f19601f82011682018060405250810190620013849190620043f8565b816000815181106200139a576200139a62004d53565b602090810291909101015260405163bc215e8560e01b815273__AddressLibrary________________________9063bc215e8590620013de90869060040162004732565b60206040518083038186803b158015620013f757600080fd5b505af41580156200140c573d6000803e3d6000fd5b505050506040513d601f19601f82011682018060405250810190620014329190620043f8565b8160018151811062001448576200144862004d53565b6020908102919091010152604051632431a7cf60e01b815260009073__Library_______________________________90632431a7cf906200148f908590600401620048e8565b60006040518083038186803b158015620014a857600080fd5b505af4158015620014bd573d6000803e3d6000fd5b505050506040513d6000823e601f3d908101601f19168201604052620014e7919081019062004412565b90506000600a60009054906101000a90046001600160a01b03166001600160a01b031663e220ad956040518163ffffffff1660e01b815260040160006040518083038186803b1580156200153a57600080fd5b505afa1580156200154f573d6000803e3d6000fd5b505050506040513d6000823e601f3d908101601f19168201604052620015799190810190620041d1565b6006815181106200158e576200158e62004d53565b60200260200101519050806001600160a01b031663f81561153330876000876040518663ffffffff1660e01b8152600401620015cf959493929190620047bc565b600060405180830381600087803b158015620015ea57600080fd5b505af1158015620015ff573d6000803e3d6000fd5b505050505050505050565b6060600e8054806020026020016040519081016040528092919081815260200182805480156200165a57602002820191906000526020600020905b81548152602001906001019080831162001645575b5050505050905090565b6000806060600754600854600980805480602002602001604051908101604052809291908181526020018280548015620016c857602002820191906000526020600020905b81546001600160a01b03168152600190910190602001808311620016a9575b50505050509050925092509250909192565b60608115620017445760038054604080516020808402820181019092528281529291908301828280156200173857602002820191906000526020600020905b81546001600160a01b0316815260019091019060200180831162001719575b50505050509050919050565b600480546040805160208084028201810190925282815292919083018282801562001738576020028201919060005260206000209081546001600160a01b03168152600190910190602001808311620017195750505050509050919050565b806000620017b2828262001f50565b62000a3a83600362001fa9565b620017ca8162002e9f565b1515600114156200180a57600254620017e69060019062004c83565b60055411156200180a5760405162461bcd60e51b81526004016200090d9062004943565b62000a8f81600162002f24565b336000908152600f602052604080822090516326162dc360e01b8152600481019190915273__ItemsLibrary__________________________906326162dc39060240160206040518083038186803b1580156200187357600080fd5b505af415801562001888573d6000803e3d6000fd5b505050506040513d601f19601f82011682018060405250810190620018ae9190620043f8565b905062000a8f3382600080604051806020016040528060008152506200264b565b8733620018dd828262001e0f565b60008a81526010602090815260408083208c84528252918290205482518883028181018401909452888152909290918991899182919085019084908082843760009201919091525050604080516020808a0282810182019093528982529093508992508891829185019084908082843760009201919091525062001969925085915084905083620033cd565b8986146200198b5760405162461bcd60e51b81526004016200090d90620049b0565b60005b8a81101562001b485773__ItemsLibrary__________________________6338335327600f60008f8f86818110620019ca57620019ca62004d53565b9050602002016020810190620019e19190620040fd565b6001600160a01b03166001600160a01b031681526020019081526020016000208c8c8581811062001a165762001a1662004d53565b905060200201358b8b8681811062001a325762001a3262004d53565b905060200201356040518463ffffffff1660e01b815260040162001a599392919062004a53565b60006040518083038186803b15801562001a7257600080fd5b505af415801562001a87573d6000803e3d6000fd5b505050508b8b8281811062001aa05762001aa062004d53565b905060200201602081019062001ab79190620040fd565b6001600160a01b03168d8f7f1f0966cb4dbc8738200b37503c6989e77e4e56383816b0632219dbc8c241b8b78d8d8681811062001af85762001af862004d53565b905060200201358c8c8781811062001b145762001b1462004d53565b9050602002013560405162001b2b92919062004b46565b60405180910390a48062001b3f8162004d09565b9150506200198e565b50505060009a8b525050601060209081526040808b20998b529890525050509385209490945550505050565b6060600180018054806020026020016040519081016040528092919081815260200182805480156200165a57602002820191906000526020600020905b81546001600160a01b0316815260019091019060200180831162001bb1575050505050905090565b823362001be7828262001e0f565b6001600160a01b0384166000908152600f602052604080822090516326162dc360e01b8152600481019190915273__ItemsLibrary__________________________906326162dc39060240160206040518083038186803b15801562001c4c57600080fd5b505af415801562001c61573d6000803e3d6000fd5b505050506040513d601f19601f8201168201806040525081019062001c879190620043f8565b905062001c998582336001886200264b565b505050505050565b62001239600062002cbd565b33600162001cbc828262001f50565b600062001cc98162003580565b600254849062001cda828262001f2d565b60018662001ce9828262001f2d565b600688905562001cfa600162002cbd565b5050505050505050565b62000a8f81600062002f24565b6060600c8054806020026020016040519081016040528092919081815260200182805480156200165a576020028201919060005260206000209081548152602001906001019080831162001645575050505050905090565b6001600160a01b0381166000908152600f602052604080822090516326162dc360e01b8152600481019190915273__ItemsLibrary__________________________906326162dc39060240160206040518083038186803b15801562001dce57600080fd5b505af415801562001de3573d6000803e3d6000fd5b505050506040513d601f19601f8201168201806040525081019062001e099190620043f8565b92915050565b6000828152600b60205260409020546001600160a01b0382811691161462001e8e5760405162461bcd60e51b815260206004820152602b60248201527f546865204d61726b657420496420616e64204164647265737320646f206e6f7460448201526a0818dbdc9c995cdc1bdb9960aa1b60648201526084016200090d565b5050565b60008281526010602090815260408083208484529091529020541562001e8e5760405162461bcd60e51b815260206004820152602d60248201527f556e61737369676e65642063726564697420666f72207468697320746f6b656e60448201526c206973206e6f7420656d70747960981b60648201526084016200090d565b6000928352601060209081526040808520938552929052912055565b8082111562001e8e5760405162461bcd60e51b81526004016200090d9062004943565b6001600160a01b03821660009081526001602052604090205460ff1615158115151462001e8e5760405162461bcd60e51b81526004016200090d906020808252600490820152634543392d60e01b604082015260600190565b33600162001fb8828262001f50565b83600062001fc78282620035fa565b84546001808201875560008781526020812090920180546001600160a01b0319166001600160a01b038a16179055865462002003919062004c83565b6001600160a01b03881660009081526001602081905260409091206002018290559091506200203490889062002f24565b50505050505050565b3360016200204c828262001f50565b6000848152600d60209081526040918290206009018054835181840281018401909452808452339392830182828015620020b057602002820191906000526020600020905b81546001600160a01b0316815260019091019060200180831162002091575b5050505050620020c1828262003653565b6000868152600d602052604090205486906001600160a01b0316620021295760405162461bcd60e51b815260206004820152601d60248201527f5468697320697373756572206964206973206e6f742070656e64696e6700000060448201526064016200090d565b60408051338152871515602082015288917f5a1a88bd27a0cf1c470b27b132493e61efc1eaf3d1b57db0ab7f73182345d047910160405180910390a26000878152600d602090815260408220600901805460018101825590835291200180546001600160a01b03191633179055851562002423576000878152600d60205260408120600701805491620021bc8362004d09565b90915550506005546000888152600d6020526040902060070154106200241d57600c805460018181019092557fdf6966c971051c3d54ec59162606531493a51404a002842f56009d7e5cf4a8c7018890556000888152600d6020526040902080549101805462002391926001600160a01b031691906200223c9062004ccc565b80601f01602080910402602001604051908101604052809291908181526020018280546200226a9062004ccc565b8015620022bb5780601f106200228f57610100808354040283529160200191620022bb565b820191906000526020600020905b8154815290600101906020018083116200229d57829003601f168201915b50505060008c8152600d602052604090206002018054909250620022e0915062004ccc565b80601f01602080910402602001604051908101604052809291908181526020018280546200230e9062004ccc565b80156200235f5780601f1062002333576101008083540402835291602001916200235f565b820191906000526020600020905b8154815290600101906020018083116200234157829003601f168201915b50505060008d8152600d60205260409020600381015460048201546005909201549093509091508d9060ff166200371a565b6000888152600b6020526040902080546001600160a01b0319166001600160a01b0392909216919091179055620023c887620039d2565b6000878152600b60205260409081902054905188917f2cedba2f59ec9c6a70e350caabb40ea15150e2bd297a517df51c1fbdbeacad399162002414916001600160a01b03169062004732565b60405180910390a25b62002034565b6000878152600d60205260408120600801805491620024428362004d09565b90915550506005546000888152600d60205260409020600801541062002034576200246d87620039d2565b60405187907f403eabfde87045e1433576679912c142f6e51573d2635748e5331c62fbcfecc190600090a250505050505050565b6000828152600d60205260409020546001600160a01b0316158015620024dc57506000828152600b60205260409020546001600160a01b0316155b6200253a5760405162461bcd60e51b815260206004820152602760248201527f5468697320497373756572204e616d652068617320616c72656164792062656560448201526637103a30b5b2b760c91b60648201526084016200090d565b80516000838152600d6020908152604090912080546001600160a01b0319166001600160a01b03909316929092178255808301518051620025849360010192919091019062003e4d565b506040808201516000848152600d60209081529290208151620025b293600290920192919091019062003e4d565b5060608101516000838152600d6020526040902060038101919091556080820151600482015560a08201516005909101805460ff191660018381811115620025fe57620025fe62004d3d565b021790555050600e80546000838152600d60205260408120600601829055600182018355919091527fbb7b4a454dc3493923482f07822329ed19e8244eff582cc204f8554c3620c3fd0155565b6001600160a01b038086166000908152600f6020526040808220600a54825163e220ad9560e01b8152925173__ItemsLibrary__________________________9563a86af8fc9593948b948d9460019493169263e220ad95926004808201939291829003018186803b158015620026c157600080fd5b505afa158015620026d6573d6000803e3d6000fd5b505050506040513d6000823e601f3d908101601f19168201604052620027009190810190620041d1565b60068151811062002715576200271562004d53565b60200260200101516001600160a01b031663b049473f6040518163ffffffff1660e01b815260040160206040518083038186803b1580156200275657600080fd5b505afa1580156200276b573d6000803e3d6000fd5b505050506040513d601f19601f8201168201806040525081019062002791919062004124565b88886040518863ffffffff1660e01b8152600401620027b79796959493929190620049fb565b60006040518083038186803b158015620027d057600080fd5b505af4158015620027e5573d6000803e3d6000fd5b505050506001600160a01b038316156200284d57826001600160a01b0316856001600160a01b03167f3a7f8bf3f0d95026e8cd9a7d4ab518248a380c6e63e2611c19c360d4ed07469a866040516200283f91815260200190565b60405180910390a362000a7b565b846001600160a01b03167f2ea7968b99b8c24c37e3919ac458cdbab6b3d63ff9e271eddd29661aae4f7691856040516200288991815260200190565b60405180910390a25050505050565b60405163caa8f58960e01b815260009073__Library_______________________________9063caa8f58990620028d49085906004016200492e565b60006040518083038186803b158015620028ed57600080fd5b505af415801562002902573d6000803e3d6000fd5b505050506040513d6000823e601f3d908101601f191682016040526200292c919081019062004324565b905060008160008151811062002946576200294662004d53565b602002602001015160001c600181111562002965576200296562004d3d565b90508060018111156200297c576200297c62004d3d565b62002b0d57600073__AddressLibrary________________________63f4ce9ae884600181518110620029b357620029b362004d53565b60200260200101516040518263ffffffff1660e01b8152600401620029da91815260200190565b60206040518083038186803b158015620029f357600080fd5b505af415801562002a08573d6000803e3d6000fd5b505050506040513d601f19601f8201168201806040525081019062002a2e919062004124565b6001600160a01b0381166000908152600f6020526040908190209051633833532760e01b815291925073__ItemsLibrary__________________________9163383353279162002a8691899060019060040162004a53565b60006040518083038186803b15801562002a9f57600080fd5b505af415801562002ab4573d6000803e3d6000fd5b50505050856001600160a01b0316816001600160a01b03167f2db0422b7b00320178055968e2ebe34d54d66b98f662782bec28aaddcf8697e98760405162002afe91815260200190565b60405180910390a35062000a7b565b600073__UintLibrary___________________________630bd4715e8460018151811062002b3f5762002b3f62004d53565b60200260200101516040518263ffffffff1660e01b815260040162002b6691815260200190565b60206040518083038186803b15801562002b7f57600080fd5b505af415801562002b94573d6000803e3d6000fd5b505050506040513d601f19601f8201168201806040525081019062002bba9190620043f8565b9050600073__UintLibrary___________________________630bd4715e8560028151811062002bee5762002bee62004d53565b60200260200101516040518263ffffffff1660e01b815260040162002c1591815260200190565b60206040518083038186803b15801562002c2e57600080fd5b505af415801562002c43573d6000803e3d6000fd5b505050506040513d601f19601f8201168201806040525081019062002c699190620043f8565b905062002c7882828862001f11565b80827f11d40ce091479b07ca14dc778720652f2760dc3237903b19ab5698a7cf478bcb8860405162002cac91815260200190565b60405180910390a350505050505050565b33600162002ccc828262001f50565b600162002cd98162003580565b33600980548060200260200160405190810160405280929190818152602001828054801562002d3257602002820191906000526020600020905b81546001600160a01b0316815260019091019060200180831162002d13575b505050505062002d43828262003653565b851562002d6b5760016007600082825462002d5f919062004c23565b9091555062002d869050565b60016008600082825462002d80919062004c23565b90915550505b600980546001810182556000919091527f6e1540171b6c0c960b71a7020d9f60077f6af931a8bbf590da0223dacf75c7af018054336001600160a01b031990911681179091556006546040805191825260208201929092528715158183015290517fb335599a2dd1eaaedeb810215d45e667a6c5ac7bcfd03c29e597db8bf0cddcc69181900360600190a162001c9962003b22565b600054610100900460ff1662002e385760005460ff161562002e3c565b303b155b62002e5b5760405162461bcd60e51b81526004016200090d9062004962565b600054610100900460ff1615801562002e7e576000805461ffff19166101011790555b62002e898262003bc8565b801562001e8e576000805461ff00191690555050565b6004546001600160a01b03821660009081526001602052604081206002015490911162002ece57506000919050565b6001600160a01b03821660009081526001602052604090206002015460048054909190811062002f025762002f0262004d53565b6000918252602090912001546001600160a01b03928316921691909114919050565b33600162002f33828262001f50565b83600162002f428282620035fa565b6001600160a01b038616600090815260016020908152604091829020600501805483518184028101840190945280845233939283018282801562002fb057602002820191906000526020600020905b81546001600160a01b0316815260019091019060200180831162002f91575b505050505062002fc1828262003653565b604080516001600160a01b038a1681523360208201528815158183015290517fc6f241efc3de3ce31d0e682102cc781f0605f0f90d72addfea699e4aea85dd799181900360600190a16001600160a01b038816600090815260016020818152604083206005018054928301815583529091200180546001600160a01b031916331790558615620032dd576001600160a01b0388166000908152600160205260408120600301805491620030748362004d09565b90915550506005546001600160a01b03891660009081526001602052604090206003015410620032d7576004620030ab8962003c5c565b1562003184575060028054600180820183557f405787fa12a823e0f2b7631cc41b3ba8828b3321ca811111fa75cd3aa3bb5ace90910180546001600160a01b0319166001600160a01b038c169081179091556000908152602082905260409020805460ff1916821790559054600391620031259162004c83565b6001600160a01b038a166000908152600160208190526040918290200191909155517f45bbe5ceeddcb6d0b4045349efc87a3fde966578e3970cda6f53bfc76efaf9f79062003176908b9062004732565b60405180910390a1620032c9565b6001600160a01b03891660009081526001602081905260409182902001549051633c39c19f60e11b815273__AddressLibrary________________________90637873833e90620031dd90849060029060040162004b46565b60006040518083038186803b158015620031f657600080fd5b505af41580156200320b573d6000803e3d6000fd5b505060025483101591506200326590505780600160000160006001800184815481106200323c576200323c62004d53565b60009182526020808320909101546001600160a01b031683528201929092526040019020600101555b6001600160a01b038a166000908152600160208190526040808320805460ff1916815590910191909155517f82bcab3b042f3e2143a9d33d07fa130afdf763f17a45679670f0e39f12064ca890620032bf908c9062004732565b60405180910390a1505b620032d5898262003cbf565b505b62001cfa565b6001600160a01b0388166000908152600160205260408120600401805491620033068362004d09565b90915550506005546001600160a01b0389166000908152600160205260409020600401541062001cfa5760046200333d8962003c5c565b156200338757506040516003907f622a69297177c029df8c1ba7f4d2d59881089b571ae96800e634aff50d67492e9062003379908b9062004732565b60405180910390a1620033c1565b7f547e31c58b802b63bc89f1109a132a291b0527c9196c97759829aeaecd3c2d3989604051620033b8919062004732565b60405180910390a15b620015ff898262003cbf565b8051825114620033f15760405162461bcd60e51b81526004016200090d90620049b0565b604051633c952fb360e21b815260009073__UintLibrary___________________________9063f254becc906200342d908590600401620048e8565b60206040518083038186803b1580156200344657600080fd5b505af41580156200345b573d6000803e3d6000fd5b505050506040513d601f19601f82011682018060405250810190620034819190620043f8565b90506000805b83518110156200350757838181518110620034a657620034a662004d53565b602002602001015183868381518110620034c457620034c462004d53565b6020026020010151620034d8919062004c61565b620034e4919062004c3e565b620034f0908362004c23565b915080620034fe8162004d09565b91505062003487565b508062003515838762004c61565b1462000a7b5760405162461bcd60e51b815260206004820152603360248201527f74686520746f74616c20616d6f756e74206973206e6f7420657175616c20746f604482015272207468652063616c63756c61746564206f6e6560681b60648201526084016200090d565b8015620035c05760065462000a8f5760405162461bcd60e51b8152602060048201526005602482015264454333312d60d81b60448201526064016200090d565b6006541562000a8f5760405162461bcd60e51b8152602060048201526005602482015264454333302d60d81b60448201526064016200090d565b620036058262003c5c565b80620036175750620036178262002e9f565b15158115151462001e8e5760405162461bcd60e51b8152602060048201526005602482015264454331302d60d81b60448201526064016200090d565b60405163f7cf62d760e01b815273__AddressLibrary________________________9063f7cf62d7906200368e908590859060040162004803565b60206040518083038186803b158015620036a757600080fd5b505af4158015620036bc573d6000803e3d6000fd5b505050506040513d601f19601f82011682018060405250810190620036e29190620043d8565b1562001e8e5760405162461bcd60e51b81526004016200090d906020808252600490820152634543352d60e01b604082015260600190565b600080600a60009054906101000a90046001600160a01b03166001600160a01b031663efd621de6040518163ffffffff1660e01b815260040160006040518083038186803b1580156200376c57600080fd5b505afa15801562003781573d6000803e3d6000fd5b505050506040513d6000823e601f3d908101601f19168201604052620037ab9190810190620041d1565b600081518110620037c057620037c062004d53565b602002602001015190506000600a60009054906101000a90046001600160a01b03166001600160a01b031663e220ad956040518163ffffffff1660e01b815260040160006040518083038186803b1580156200381b57600080fd5b505afa15801562003830573d6000803e3d6000fd5b505050506040513d6000823e601f3d908101601f191682016040526200385a9190810190620041d1565b6002815181106200386f576200386f62004d53565b60200260200101516001600160a01b031663b049473f6040518163ffffffff1660e01b815260040160006040518083038186803b158015620038b057600080fd5b505afa158015620038c5573d6000803e3d6000fd5b505050506040513d6000823e601f3d908101601f19168201604052620038ef919081019062004324565b60088151811062003904576200390462004d53565b6020908102919091010151600a549091506000906001600160a01b03168b8b8b858c8c8c8c60018111156200393d576200393d62004d3d565b604051602401620039579998979695949392919062004746565b60408051601f198184030181529181526020820180516001600160e01b03166398a7541d60e01b1790525190915060009084908390620039979062003edc565b620039a492919062004861565b604051809103906000f080158015620039c1573d6000803e3d6000fd5b509c9b505050505050505050505050565b6000818152600d60205260409081902060060154905163cffd93cd60e01b815273__UintLibrary___________________________9063cffd93cd9062003a21908490600e9060040162004b46565b60006040518083038186803b15801562003a3a57600080fd5b505af415801562003a4f573d6000803e3d6000fd5b5050505080600e80549050111562003a9d5780600d6000600e848154811062003a7c5762003a7c62004d53565b90600052602060002001548152602001908152602001600020600601819055505b6000828152600d6020526040812080546001600160a01b03191681559062003ac9600183018262003eea565b62003ad960028301600062003eea565b50600060038201819055600482018190556005909101805460ff19169055828152600d60205260408120600781018290556008810182905562001e8e9160099091019062003f29565b62003b3260075460055462003dda565b1562003b7e5760065460058190556040519081527f09cfdf09b84b5390e2f9e64a6b66bdfd4e3b7a611dfdd07cde2f5289ecdaace7906020015b60405180910390a16200123962003df7565b62003b8e60085460055462003dda565b1562001239577f6005dc34d50a3e2ea64571b58119d8a81074b8e2db57a77c28e664641733308f60065460405162003b6c91815260200190565b600054610100900460ff1662003be55760005460ff161562003be9565b303b155b62003c085760405162461bcd60e51b81526004016200090d9062004962565b600054610100900460ff1615801562003c2b576000805461ffff19166101011790555b600a80546001600160a01b0319166001600160a01b038416179055801562001e8e576000805461ff00191690555050565b6003546001600160a01b03821660009081526001602052604081206002015490911162003c8b57506000919050565b6001600160a01b03821660009081526001602052604090206002015460038054909190811062002f025762002f0262004d53565b6001600160a01b03821660009081526001602052604090819020600201549051633c39c19f60e11b815273__AddressLibrary________________________90637873833e9062003d17908490869060040162004b46565b60006040518083038186803b15801562003d3057600080fd5b505af415801562003d45573d6000803e3d6000fd5b50505050808280549050111562003d9c57806001600001600084848154811062003d735762003d7362004d53565b60009182526020808320909101546001600160a01b031683528201929092526040019020600201555b6001600160a01b038316600090815260016020526040812060028101829055600381018290556004810182905562000a3a9160059091019062003f29565b60008183101562003dee5750600062001e09565b50600192915050565b6000600681905560078190556008819055620012399060099062003f29565b6040518060a0016040528062003e2b62003f49565b8152602001600081526020016000815260200160008152602001606081525090565b82805462003e5b9062004ccc565b90600052602060002090601f01602090048101928262003e7f576000855562003eca565b82601f1062003e9a57805160ff191683800117855562003eca565b8280016001018555821562003eca579182015b8281111562003eca57825182559160200191906001019062003ead565b5062003ed892915062003f9b565b5090565b6109938062004da583390190565b50805462003ef89062004ccc565b6000825580601f1062003f09575050565b601f01602090049060005260206000209081019062000a8f919062003f9b565b508054600082559060005260206000209081019062000a8f919062003f9b565b6040518060c0016040528060006001600160a01b03168152602001606081526020016060815260200160008152602001600081526020016000600181111562003f965762003f9662004d3d565b905290565b5b8082111562003ed8576000815560010162003f9c565b803562003fbf8162004d7f565b919050565b60008083601f84011262003fd757600080fd5b5081356001600160401b0381111562003fef57600080fd5b6020830191508360208260051b85010111156200400b57600080fd5b9250929050565b600082601f8301126200402457600080fd5b813560206200403d620040378362004bd3565b62004ba0565b80838252828201915082860187848660051b89010111156200405e57600080fd5b60005b858110156200408a578135620040778162004d7f565b8452928401929084019060010162004061565b5090979650505050505050565b600082601f830112620040a957600080fd5b8135620040ba620040378262004bf9565b818152846020838601011115620040d057600080fd5b816020850160208301376000918101602001919091529392505050565b80356002811062003fbf57600080fd5b6000602082840312156200411057600080fd5b81356200411d8162004d7f565b9392505050565b6000602082840312156200413757600080fd5b81516200411d8162004d7f565b600080604083850312156200415857600080fd5b8235620041658162004d7f565b946020939093013593505050565b6000806000606084860312156200418957600080fd5b8335620041968162004d7f565b92506020840135915060408401356001600160401b03811115620041b957600080fd5b620041c78682870162004097565b9150509250925092565b60006020808385031215620041e557600080fd5b82516001600160401b03811115620041fc57600080fd5b8301601f810185136200420e57600080fd5b80516200421f620040378262004bd3565b80828252848201915084840188868560051b87010111156200424057600080fd5b600094505b83851015620042705780516200425b8162004d7f565b83526001949094019391850191850162004245565b50979650505050505050565b600080604083850312156200429057600080fd5b82356001600160401b03811115620042a757600080fd5b620042b58582860162004012565b95602094909401359450505050565b600080600060608486031215620042da57600080fd5b83356001600160401b03811115620042f157600080fd5b620042ff8682870162004012565b935050602084013591506040840135620043198162004d7f565b809150509250925092565b600060208083850312156200433857600080fd5b82516001600160401b038111156200434f57600080fd5b8301601f810185136200436157600080fd5b805162004372620040378262004bd3565b80828252848201915084840188868560051b87010111156200439357600080fd5b600094505b838510156200427057805183526001949094019391850191850162004398565b600060208284031215620043cb57600080fd5b81356200411d8162004d95565b600060208284031215620043eb57600080fd5b81516200411d8162004d95565b6000602082840312156200440b57600080fd5b5051919050565b6000602082840312156200442557600080fd5b81516001600160401b038111156200443c57600080fd5b8201601f810184136200444e57600080fd5b80516200445f620040378262004bf9565b8181528560208385010111156200447557600080fd5b6200448882602083016020860162004c9d565b95945050505050565b600060208284031215620044a457600080fd5b81356001600160401b0380821115620044bc57600080fd5b9083019060c08286031215620044d157600080fd5b620044db62004b75565b620044e68362003fb2565b8152602083013582811115620044fb57600080fd5b620045098782860162004097565b6020830152506040830135828111156200452257600080fd5b620045308782860162004097565b60408301525060608301356060820152608083013560808201526200455860a08401620040ed565b60a082015295945050505050565b6000602082840312156200457957600080fd5b5035919050565b6000806000606084860312156200459657600080fd5b833592506020840135620045aa8162004d7f565b915060408401356001600160401b03811115620041b957600080fd5b60008060008060808587031215620045dd57600080fd5b84359350602085013592506040850135620045f88162004d7f565b9396929550929360600135925050565b60008060008060008060008060a0898b0312156200462557600080fd5b883597506020890135965060408901356001600160401b03808211156200464b57600080fd5b620046598c838d0162003fc4565b909850965060608b01359150808211156200467357600080fd5b620046818c838d0162003fc4565b909650945060808b01359150808211156200469b57600080fd5b50620046aa8b828c0162003fc4565b999c989b5096995094979396929594505050565b600081518084526020808501945080840160005b83811015620046f95781516001600160a01b031687529582019590820190600101620046d2565b509495945050505050565b600081518084526200471e81602086016020860162004c9d565b601f01601f19169290920160200192915050565b6001600160a01b0391909116815260200190565b6001600160a01b038a811682528916602082015261012060408201819052600090620047758382018b62004704565b905082810360608401526200478b818a62004704565b6080840198909852505060a081019490945260c084019290925260e083015260ff1661010090910152949350505050565b6001600160a01b03868116825285166020820152604081018490526060810183905260a060808201819052600090620047f89083018462004704565b979650505050505050565b6001600160a01b038381168252604060208084018290528451918401829052600092858201929091906060860190855b818110156200485357855185168352948301949183019160010162004833565b509098975050505050505050565b6001600160a01b0383168152604060208201819052600090620048879083018462004704565b949350505050565b6001600160a01b0384168152606060208201819052600090620048b59083018562004704565b8281036040840152620048c9818562004704565b9695505050505050565b6020815260006200411d6020830184620046be565b6020808252825182820181905260009190848201906040850190845b81811015620049225783518352928401929184019160010162004904565b50909695505050505050565b6020815260006200411d602083018462004704565b602080825260059082015264454331392d60d81b604082015260600190565b6020808252602e908201527f496e697469616c697a61626c653a20636f6e747261637420697320616c72656160408201526d191e481a5b9a5d1a585b1a5e995960921b606082015260800190565b6020808252602b908201527f50726f76696465642061727261797320646f206e6f742068617665207468652060408201526a0e6c2daca40d8cadccee8d60ab1b606082015260800190565b878152602081018790526001600160a01b03868116604083015285151560608301528416608082015282151560a082015260e060c0820181905260009062004a469083018462004704565b9998505050505050505050565b9283526020830191909152604082015260600190565b602081526000825160a0602084015260018060a01b0381511660c0840152602081015160c060e085015262004aa361018085018262004704565b9050604082015160bf198583030161010086015262004ac3828262004704565b9150506060820151610120850152608082015161014085015260a082015191506002821062004b0257634e487b7160e01b600052602160045260246000fd5b8161016085015260208501516040850152604085015160608501526060850151608085015260808501519150601f198482030160a0850152620044888183620046be565b918252602082015260400190565b838152826020820152606060408201526000620044886060830184620046be565b60405160c081016001600160401b038111828210171562004b9a5762004b9a62004d69565b60405290565b604051601f8201601f191681016001600160401b038111828210171562004bcb5762004bcb62004d69565b604052919050565b60006001600160401b0382111562004bef5762004bef62004d69565b5060051b60200190565b60006001600160401b0382111562004c155762004c1562004d69565b50601f01601f191660200190565b6000821982111562004c395762004c3962004d27565b500190565b60008262004c5c57634e487b7160e01b600052601260045260246000fd5b500490565b600081600019048311821515161562004c7e5762004c7e62004d27565b500290565b60008282101562004c985762004c9862004d27565b500390565b60005b8381101562004cba57818101518382015260200162004ca0565b83811115620012275750506000910152565b600181811c9082168062004ce157607f821691505b6020821081141562004d0357634e487b7160e01b600052602260045260246000fd5b50919050565b600060001982141562004d205762004d2062004d27565b5060010190565b634e487b7160e01b600052601160045260246000fd5b634e487b7160e01b600052602160045260246000fd5b634e487b7160e01b600052603260045260246000fd5b634e487b7160e01b600052604160045260246000fd5b6001600160a01b038116811462000a8f57600080fd5b801515811462000a8f57600080fdfe608060405260405161099338038061099383398101604081905261002291610470565b61004d60017fa3f0ad74e5423aebfd80d3ef4346578335a9a72aeaee59ff6cb3582b35133d5161057f565b60008051602061094c83398151915214610069576100696105d0565b6100758282600061007c565b50506105fc565b61008583610156565b6040516001600160a01b038416907f1cf3b03a6cf19fa2baba4df148e9dcabedea7f8a5c07840e207e5c089be95d3e90600090a26000825111806100c65750805b156101515761014f836001600160a01b0316635c60da1b6040518163ffffffff1660e01b815260040160206040518083038186803b15801561010757600080fd5b505afa15801561011b573d6000803e3d6000fd5b505050506040513d601f19601f8201168201806040525081019061013f9190610455565b836102f660201b6100291760201c565b505b505050565b6101698161032260201b6100551760201c565b6101c85760405162461bcd60e51b815260206004820152602560248201527f455243313936373a206e657720626561636f6e206973206e6f74206120636f6e6044820152641d1c9858dd60da1b60648201526084015b60405180910390fd5b61024b816001600160a01b0316635c60da1b6040518163ffffffff1660e01b815260040160206040518083038186803b15801561020457600080fd5b505afa158015610218573d6000803e3d6000fd5b505050506040513d601f19601f8201168201806040525081019061023c9190610455565b61032260201b6100551760201c565b6102b05760405162461bcd60e51b815260206004820152603060248201527f455243313936373a20626561636f6e20696d706c656d656e746174696f6e206960448201526f1cc81b9bdd08184818dbdb9d1c9858dd60821b60648201526084016101bf565b806102d560008051602061094c83398151915260001b61032860201b61005b1760201c565b80546001600160a01b0319166001600160a01b039290921691909117905550565b606061031b838360405180606001604052806027815260200161096c6027913961032b565b9392505050565b3b151590565b90565b6060833b61038a5760405162461bcd60e51b815260206004820152602660248201527f416464726573733a2064656c65676174652063616c6c20746f206e6f6e2d636f6044820152651b9d1c9858dd60d21b60648201526084016101bf565b600080856001600160a01b0316856040516103a59190610530565b600060405180830381855af49150503d80600081146103e0576040519150601f19603f3d011682016040523d82523d6000602084013e6103e5565b606091505b5090925090506103f6828286610400565b9695505050505050565b6060831561040f57508161031b565b82511561041f5782518084602001fd5b8160405162461bcd60e51b81526004016101bf919061054c565b80516001600160a01b038116811461045057600080fd5b919050565b60006020828403121561046757600080fd5b61031b82610439565b6000806040838503121561048357600080fd5b61048c83610439565b60208401519092506001600160401b03808211156104a957600080fd5b818501915085601f8301126104bd57600080fd5b8151818111156104cf576104cf6105e6565b604051601f8201601f19908116603f011681019083821181831017156104f7576104f76105e6565b8160405282815288602084870101111561051057600080fd5b6105218360208301602088016105a4565b80955050505050509250929050565b600082516105428184602087016105a4565b9190910192915050565b602081526000825180602084015261056b8160408501602087016105a4565b601f01601f19169190910160400192915050565b60008282101561059f57634e487b7160e01b600052601160045260246000fd5b500390565b60005b838110156105bf5781810151838201526020016105a7565b8381111561014f5750506000910152565b634e487b7160e01b600052600160045260246000fd5b634e487b7160e01b600052604160045260246000fd5b6103418061060b6000396000f3fe60806040523661001357610011610017565b005b6100115b61002761002261005e565b610106565b565b606061004e83836040518060600160405280602781526020016102e56027913961012a565b9392505050565b3b151590565b90565b60006100917fa3f0ad74e5423aebfd80d3ef4346578335a9a72aeaee59ff6cb3582b35133d50546001600160a01b031690565b6001600160a01b0316635c60da1b6040518163ffffffff1660e01b815260040160206040518083038186803b1580156100c957600080fd5b505afa1580156100dd573d6000803e3d6000fd5b505050506040513d601f19601f82011682018060405250810190610101919061023c565b905090565b3660008037600080366000845af43d6000803e808015610125573d6000f35b3d6000fd5b6060833b61018e5760405162461bcd60e51b815260206004820152602660248201527f416464726573733a2064656c65676174652063616c6c20746f206e6f6e2d636f6044820152651b9d1c9858dd60d21b60648201526084015b60405180910390fd5b600080856001600160a01b0316856040516101a99190610265565b600060405180830381855af49150503d80600081146101e4576040519150601f19603f3d011682016040523d82523d6000602084013e6101e9565b606091505b50915091506101f9828286610203565b9695505050505050565b6060831561021257508161004e565b8251156102225782518084602001fd5b8160405162461bcd60e51b81526004016101859190610281565b60006020828403121561024e57600080fd5b81516001600160a01b038116811461004e57600080fd5b600082516102778184602087016102b4565b9190910192915050565b60208152600082518060208401526102a08160408501602087016102b4565b601f01601f19169190910160400192915050565b60005b838110156102cf5781810151838201526020016102b7565b838111156102de576000848401525b5050505056fe416464726573733a206c6f772d6c6576656c2064656c65676174652063616c6c206661696c6564a2646970667358221220148d20618ce0e4acd0b179dccf12503163fb589ddd8df806d6d9c09a8f4adc1064736f6c63430008070033a3f0ad74e5423aebfd80d3ef4346578335a9a72aeaee59ff6cb3582b35133d50416464726573733a206c6f772d6c6576656c2064656c65676174652063616c6c206661696c6564a2646970667358221220ecfd3a1c9cda25cb95b8991767a4fae8f326a0a1e6c1e391c71cca154005194264736f6c63430008070033",
  "immutableReferences": {},
  "source": "// SPDX-License-Identifier: GPL-3.0\r\n\r\npragma solidity 0.8.7;\r\n\r\n/**\r\n Certis Token is an ERC20 Token that grants its holder the right to:\r\n   - Vote on all the systems propositions (changing system configuraiton etc...)\r\n   - Receive Dividends for all the payments forwarded to the Treasury contract\r\n\r\nBefore every token transfer we contact the token gouvernance Base contracts so that the can update the tokens used for voting if needed\r\n\r\n */\r\n\r\nimport \"@openzeppelin/contracts-upgradeable/proxy/utils/Initializable.sol\";\r\nimport \"../Interfaces/IPool.sol\";\r\nimport \"../Interfaces/ITreasury.sol\";\r\nimport \"../Base/MultiSigContract.sol\";\r\nimport \"../Libraries/ItemsLibrary.sol\";\r\nimport \"../Libraries/UintLibrary.sol\";\r\nimport \"../Libraries/Library.sol\";\r\nimport \"../Libraries/AddressLibrary.sol\";\r\nimport \"@openzeppelin/contracts/proxy/beacon/BeaconProxy.sol\";\r\nimport \"../Base/CreditorBaseContract.sol\";\r\nimport \"../Interfaces/IPayments.sol\";\r\n\r\n\r\n contract PublicPool is  Initializable, MultiSigContract, CreditorBaseContract, IPool {\r\n  using ItemsLibrary for *;\r\n  using UintLibrary for *;\r\n  using Library for *;\r\n  using AddressLibrary for *;\r\n\r\n\r\n  // EVENTS /////////////////////////////////////////\r\n  event _NewIssuerRequest(uint256 indexed id, address owner, string name, string symbol);\r\n  event _VoteForIssuer(uint256 indexed id, address voter, bool vote);\r\n  event _IssuerValidation(uint256 indexed id, address NFTMarket);\r\n  event _IssuerRejection(uint256 indexed id);\r\n\r\n  event _CreditReceived(address indexed receiver, uint256 amount, address indexed sender);\r\n  event _CreditUnAssignedReceived(uint256 indexed NFTMarketId, uint256 indexed tokenID, uint256 amount);\r\n  event _CreditAssigned(uint256 indexed NFTMarketId, uint256 indexed tokenID, address indexed receiver, uint256 amount, uint256 factor);\r\n  event _CreditReused(uint256 indexed NFTMarketId, uint256 indexed tokenID, address indexed creditor, uint256 amount);\r\n  event _CreditWithdrawn(address indexed withdrawer, uint256 amount);\r\n  event _CreditWithdrawnFor(address indexed withdrawer, uint256 amount, address indexed sender);\r\n\r\n\r\n  // DATA /////////////////////////////////////////\r\n  mapping(uint256 => address) private _issuers;\r\n  uint256[] private _listOfIssuers;\r\n\r\n  mapping(uint256 => _pendingIssuerStruct) private _pendingIssuers;\r\n  uint256[] private _listOfPendingIssuers;\r\n\r\n  mapping(address => ItemsLibrary._BalanceStruct) private _creditOfAccount;\r\n  mapping(uint256 => mapping(uint256 => uint256)) private _unassignedCreditForMarket;\r\n\r\n\r\n\r\n  // MODIFIERS /////////////////////////////////////////\r\n  modifier IssuerPending(uint256 id){\r\n      require(address(0) != _pendingIssuers[id]._issuer._owner, \"This issuer id is not pending\");\r\n      _;\r\n  }\r\n\r\n  modifier validIssuerRequest(ItemsLibrary._issuerStruct memory requestedIssuer){\r\n    require(address(0) != requestedIssuer._owner, \"NFT Market owner cannot be address 0\");\r\n    Library.validFees(requestedIssuer._feeAmount, requestedIssuer._feeDecimals);\r\n    require(0 < bytes(requestedIssuer._name).length, \"Name is empty\");\r\n    require(0 < bytes(requestedIssuer._symbol).length, \"Symbol is empty\");\r\n     _;\r\n  }\r\n\r\n  modifier isNFTMarket(uint256 MarketId, address MarketAddress){\r\n      isNFTMarketFunc(MarketId, MarketAddress);\r\n      _;\r\n  }\r\n\r\n  function isNFTMarketFunc(uint256 MarketId, address MarketAddress) internal view{\r\n    require(MarketAddress == _issuers[MarketId], \"The Market Id and Address do not correspond\");\r\n  }\r\n\r\n  modifier isTokenUnassignedCreditEmpty(uint256 NFTMarketId, uint256 tokenID){\r\n    isTokenUnassignedCreditEmptyFunc(NFTMarketId, tokenID);\r\n    _;\r\n  }\r\n\r\n  function isTokenUnassignedCreditEmptyFunc(uint256 NFTMarketId, uint256 tokenID) internal view{\r\n    require(0 == _unassignedCreditForMarket[NFTMarketId][tokenID], \"Unassigned credit for this token is not empty\");\r\n  }\r\n\r\n  modifier checkTotal(uint256 total, uint256[] memory amounts, uint256[] memory factors){\r\n    checkTotalFunc(total, amounts, factors);\r\n    _;\r\n  }\r\n\r\n  function checkTotalFunc(uint256 total, uint256[] memory amounts, uint256[] memory factors) internal pure{\r\n    require(amounts.length == factors.length, \"Provided arrays do not have the same length\");\r\n    uint256 CommonDividend = UintLibrary.ProductOfFactors(factors);\r\n    uint256 calculatedTotal = 0;\r\n    for(uint256 i=0; i < factors.length; i++){\r\n        calculatedTotal += amounts[i] * CommonDividend / factors[i];\r\n    }\r\n    require((total * CommonDividend) == calculatedTotal, \"the total amount is not equal to the calculated one\");\r\n  }\r\n\r\n  // CONSTRUCTOR /////////////////////////////////////////\r\n  function PublicPool_init(address[] memory owners,  uint256 minOwners, address managerContractAddress) public initializer {\r\n      super.MultiSigContract_init(owners, minOwners); \r\n      super.CreditorBaseContract_init(managerContractAddress); \r\n  }\r\n\r\n  // FUNCTIONALITY /////////////////////////////////////////\r\n  function onCreditReceived(address sender, uint256 amount, bytes memory data) internal override\r\n  {\r\n    bytes32[] memory receivedData = Library.BytestoBytes32(data);\r\n    Library.PublicPoolPaymentTypes paymentType = Library.PublicPoolPaymentTypes(uint256(receivedData[0]));\r\n\r\n    if(Library.PublicPoolPaymentTypes.SendCredit == paymentType){\r\n      address account = AddressLibrary.Bytes32ToAddress(receivedData[1]);\r\n      ItemsLibrary.addBalance(_creditOfAccount[account], amount, 1);\r\n      emit _CreditReceived(account, amount, sender);\r\n    }\r\n\r\n    else{\r\n      uint256 NFTMarketId = UintLibrary.Bytes32ToUint(receivedData[1]);\r\n      uint256 tokenID = UintLibrary.Bytes32ToUint(receivedData[2]);\r\n      internalTransferUnassignedCredit(NFTMarketId, tokenID, amount);\r\n      emit _CreditUnAssignedReceived(NFTMarketId, tokenID, amount);\r\n    }\r\n     \r\n  }\r\n\r\n  function requestIssuer(ItemsLibrary._issuerStruct memory requestedIssuer) external override\r\n    validIssuerRequest(requestedIssuer)\r\n  {\r\n\r\n    uint[] memory Prices = ITreasury(_managerContract.retrieveTransparentProxies()[uint256(Library.TransparentProxies.Treasury)]).retrieveSettings();\r\n    uint256 NewIssuerFee = Prices[uint256(Library.Prices.NewIssuerFee)];\r\n    uint256 AdminNewIssuerFee = Prices[uint256(Library.Prices.AdminNewIssuerFee)];\r\n\r\n    IPayments payments = IPayments(_managerContract.retrieveTransparentProxies()[uint256(Library.TransparentProxies.Payments)]);\r\n    payments.TransferFrom(msg.sender, _managerContract.retrieveTransparentProxies()[uint256(Library.TransparentProxies.Treasury)], NewIssuerFee, 0, bytes(\"\"));\r\n    payments.TransferFrom(msg.sender, _managerContract.retrieveTransparentProxies()[uint256(Library.TransparentProxies.AdminPiggyBank)], AdminNewIssuerFee, 0, bytes(\"\"));\r\n\r\n    uint256 IssuerID = getIssuerIdFromName(requestedIssuer._name);\r\n\r\n    addPendingIssuer(IssuerID, requestedIssuer);\r\n\r\n    emit _NewIssuerRequest(IssuerID, requestedIssuer._owner, requestedIssuer._name, requestedIssuer._symbol);\r\n  }\r\n\r\n  function addPendingIssuer(uint256 IssuerID, ItemsLibrary._issuerStruct memory requestedIssuer) internal\r\n  {\r\n\r\n    require(address(0) == _pendingIssuers[IssuerID]._issuer._owner && address(0) == _issuers[IssuerID], \"This Issuer Name has already been taken\");\r\n\r\n    _pendingIssuers[IssuerID]._issuer._owner = requestedIssuer._owner;\r\n    _pendingIssuers[IssuerID]._issuer._name = requestedIssuer._name;\r\n    _pendingIssuers[IssuerID]._issuer._symbol = requestedIssuer._symbol;\r\n    _pendingIssuers[IssuerID]._issuer._feeAmount = requestedIssuer._feeAmount;\r\n    _pendingIssuers[IssuerID]._issuer._feeDecimals = requestedIssuer._feeDecimals;\r\n    _pendingIssuers[IssuerID]._issuer._paymentPlan = requestedIssuer._paymentPlan;\r\n    _pendingIssuers[IssuerID]._pendingId = _listOfPendingIssuers.length;\r\n    _listOfPendingIssuers.push(IssuerID);\r\n  }\r\n\r\n  function getIssuerIdFromName(string memory name) internal pure returns(uint256)\r\n  {\r\n    return uint256(keccak256(bytes(name)));\r\n  }\r\n\r\n  function validateIssuer(uint256 id) external override\r\n  {\r\n    voteForIssuer(id, true);\r\n  }\r\n\r\n  function rejectIssuer(uint id) external override\r\n  {\r\n    voteForIssuer(id, false);\r\n  }\r\n\r\n  function voteForIssuer(uint id, bool vote) internal\r\n    isAnOwner(msg.sender, true)\r\n    HasNotAlreadyVoted(msg.sender, _pendingIssuers[id]._voters)\r\n    IssuerPending(id)\r\n  {\r\n    emit _VoteForIssuer(id, msg.sender, vote);\r\n\r\n    _pendingIssuers[id]._voters.push(msg.sender);\r\n        \r\n    if(vote){\r\n        _pendingIssuers[id]._validations++;\r\n\r\n        if(_pendingIssuers[id]._validations >= _minOwners){\r\n            _listOfIssuers.push(id);\r\n            _issuers[id] = GenerateNewNFTMarket(_pendingIssuers[id]._issuer._owner, _pendingIssuers[id]._issuer._name, _pendingIssuers[id]._issuer._symbol, _pendingIssuers[id]._issuer._feeAmount, _pendingIssuers[id]._issuer._feeDecimals, id, _pendingIssuers[id]._issuer._paymentPlan);\r\n            deletingPendingIssuer(id);\r\n            emit _IssuerValidation(id, _issuers[id]);\r\n        }\r\n    }\r\n    else{\r\n        _pendingIssuers[id]._rejections++;\r\n\r\n        if(_pendingIssuers[id]._rejections >= _minOwners){\r\n            deletingPendingIssuer(id);\r\n            emit _IssuerRejection(id);\r\n        }\r\n    }\r\n  }\r\n\r\n  function deletingPendingIssuer(uint256 id) internal\r\n  {\r\n    uint pos = _pendingIssuers[id]._pendingId;\r\n    UintLibrary.UintArrayRemoveResize(pos, _listOfPendingIssuers);\r\n    if(_listOfPendingIssuers.length > pos) _pendingIssuers[_listOfPendingIssuers[pos]]._pendingId = pos;\r\n\r\n    delete(_pendingIssuers[id]._issuer);\r\n    delete(_pendingIssuers[id]._validations);\r\n    delete(_pendingIssuers[id]._rejections);\r\n    delete(_pendingIssuers[id]._voters);\r\n  }\r\n\r\n  function GenerateNewNFTMarket(address owner, string memory name, string memory symbol, uint256 feeAmount, uint256 feeDecimals, uint256 id, Library.PaymentPlans paymentPlan) internal returns(address)\r\n  {\r\n    address beaconAddress = _managerContract.retrieveBeacons()[uint256(Library.Beacons.NFT)];\r\n    uint256 OffersLifeTime = ITreasury(_managerContract.retrieveTransparentProxies()[uint256(Library.TransparentProxies.Treasury)]).retrieveSettings()[uint256(Library.Prices.OffersLifeTime)];\r\n    bytes memory data = abi.encodeWithSignature(\"NFTMarket_init(address,address,string,string,uint256,uint256,uint256,uint256,uint8)\", address(_managerContract), owner, name, symbol, OffersLifeTime, feeAmount, feeDecimals, id, uint8(paymentPlan));\r\n\r\n    BeaconProxy beaconProxy = new BeaconProxy(beaconAddress, data);\r\n\r\n    return address(beaconProxy);\r\n  }\r\n\r\n  function retrieveIssuers() external override view returns (uint[] memory)\r\n  {\r\n    return _listOfIssuers;\r\n  }\r\n\r\n  function retrieveNFTMarketForIssuer(uint id) external override view returns (address)\r\n  {\r\n    return _issuers[id];\r\n  }\r\n\r\n  function retrievePendingIssuers() external override view returns (uint[] memory)\r\n  {\r\n    return _listOfPendingIssuers;\r\n  }\r\n\r\n  function retrievePendingIssuer(uint id) external override view returns (_pendingIssuerStruct memory)\r\n  {\r\n    return _pendingIssuers[id];\r\n  }\r\n\r\n  // Credit Functionality\r\n\r\n  function sendCredit(address addr, uint256 amount) external override\r\n  {\r\n    bytes32[] memory dataArray = new bytes32[](3);\r\n    dataArray[0] = UintLibrary.UintToBytes32(uint256(Library.PublicPoolPaymentTypes.SendCredit));\r\n    dataArray[1] = AddressLibrary.AddressToBytes32(addr);\r\n    bytes memory data = Library.Bytes32ArrayToBytes(dataArray);\r\n\r\n    IPayments payments = IPayments(_managerContract.retrieveTransparentProxies()[uint256(Library.TransparentProxies.Payments)]);\r\n    payments.TransferFrom(msg.sender, address(this), amount, 0, data);\r\n  }\r\n\r\n  function addCredit(uint256 NFTMarketId, uint256 tokenID, address[] calldata addrs, uint256[] calldata amounts, uint256[] calldata factors) external override\r\n    isNFTMarket(NFTMarketId, msg.sender)\r\n    checkTotal(_unassignedCreditForMarket[NFTMarketId][tokenID], amounts, factors)\r\n  {\r\n    require(addrs.length == factors.length, \"Provided arrays do not have the same length\");\r\n    for(uint i=0; i < addrs.length; i++){\r\n      ItemsLibrary.addBalance(_creditOfAccount[addrs[i]], amounts[i], factors[i]);\r\n      emit _CreditAssigned(NFTMarketId, tokenID, addrs[i], amounts[i], factors[i]);\r\n    }\r\n    delete(_unassignedCreditForMarket[NFTMarketId][tokenID]);\r\n  }\r\n\r\n  function reuseCredit(uint256 NFTMarketId, uint256 tokenID, address addr, uint256 amount) external override\r\n    isNFTMarket(NFTMarketId, msg.sender)\r\n    isTokenUnassignedCreditEmpty(NFTMarketId, tokenID)\r\n  {\r\n    ItemsLibrary.InternalWithdraw(\r\n      _creditOfAccount[addr], \r\n      amount, \r\n      address(0), \r\n      false, \r\n      IPayments(_managerContract.retrieveTransparentProxies()[uint256(Library.TransparentProxies.Payments)]).retrieveSettings(),\r\n      false,\r\n      bytes(\"\")\r\n    );\r\n    internalTransferUnassignedCredit(NFTMarketId, tokenID, amount);\r\n    emit _CreditReused(NFTMarketId, tokenID, addr, amount);\r\n  }\r\n\r\n  function withdraw(uint amount) external override\r\n  {\r\n    internalWithdraw(msg.sender, amount, address(0), false, bytes(\"\"));\r\n  }\r\n  \r\n  function withdrawAll() external override\r\n  {\r\n    uint amount = ItemsLibrary.checkFullBalance(_creditOfAccount[msg.sender]);\r\n    internalWithdraw(msg.sender, amount, address(0), false, bytes(\"\"));\r\n  }\r\n  \r\n  function withdrawAllFor(uint256 NFTMarketId, address addr, bytes memory data) external override\r\n    isNFTMarket(NFTMarketId, msg.sender)\r\n  {\r\n    uint amount = ItemsLibrary.checkFullBalance(_creditOfAccount[addr]);\r\n    internalWithdraw(addr, amount, msg.sender, true, data);\r\n  }\r\n\r\n  function internalTransferUnassignedCredit(uint256 NFTMarketId, uint256 tokenID, uint256 amount) internal\r\n  {\r\n      _unassignedCreditForMarket[NFTMarketId][tokenID] = amount;\r\n  }\r\n\r\n  function internalWithdraw(address addr, uint amount, address sender, bool sendData, bytes memory data) internal\r\n  {\r\n    ItemsLibrary.InternalWithdraw(\r\n      _creditOfAccount[addr], \r\n      amount, \r\n      addr, \r\n      true, \r\n      IPayments(_managerContract.retrieveTransparentProxies()[uint256(Library.TransparentProxies.Payments)]).retrieveSettings(),\r\n      sendData,\r\n      data\r\n    );\r\n    if(address(0) != sender) emit _CreditWithdrawnFor(addr, amount, sender);\r\n    else emit _CreditWithdrawn(addr, amount);\r\n  }\r\n\r\n  function retrieveCredit(address addr) external override view returns (uint256)\r\n  {\r\n    return ItemsLibrary.checkFullBalance(_creditOfAccount[addr]);\r\n  }\r\n\r\n\r\n\r\n }",
  "sourcePath": "C:\\Users\\d-aam\\GitHub\\Originals\\contracts\\MainContracts\\PublicPool.sol",
  "compiler": {
    "name": "solc",
    "version": "0.8.7+commit.e28d00a7.Emscripten.clang"
  },
  "schemaVersion": "3.4.3",
  "updatedAt": "2022-02-17T11:53:35.883Z",
  "devdoc": {
    "kind": "dev",
    "methods": {},
    "version": 1
  },
  "userdoc": {
    "kind": "user",
    "methods": {},
    "version": 1
  }
}