{
  "contractName": "PublicPool",
  "abi": [
    {
      "anonymous": false,
      "inputs": [
        {
          "indexed": false,
          "internalType": "address",
          "name": "owner",
          "type": "address"
        }
      ],
      "name": "_AddOwnerRejection",
      "type": "event"
    },
    {
      "anonymous": false,
      "inputs": [
        {
          "indexed": false,
          "internalType": "address",
          "name": "owner",
          "type": "address"
        }
      ],
      "name": "_AddOwnerValidation",
      "type": "event"
    },
    {
      "anonymous": false,
      "inputs": [
        {
          "indexed": true,
          "internalType": "uint256",
          "name": "id",
          "type": "uint256"
        }
      ],
      "name": "_IssuerRejection",
      "type": "event"
    },
    {
      "anonymous": false,
      "inputs": [
        {
          "indexed": true,
          "internalType": "uint256",
          "name": "id",
          "type": "uint256"
        },
        {
          "indexed": false,
          "internalType": "address",
          "name": "NFTMarket",
          "type": "address"
        }
      ],
      "name": "_IssuerValidation",
      "type": "event"
    },
    {
      "anonymous": false,
      "inputs": [
        {
          "indexed": false,
          "internalType": "uint256",
          "name": "minOwner",
          "type": "uint256"
        }
      ],
      "name": "_MinOwnerRejection",
      "type": "event"
    },
    {
      "anonymous": false,
      "inputs": [
        {
          "indexed": false,
          "internalType": "uint256",
          "name": "minOwner",
          "type": "uint256"
        }
      ],
      "name": "_MinOwnerValidation",
      "type": "event"
    },
    {
      "anonymous": false,
      "inputs": [
        {
          "indexed": true,
          "internalType": "uint256",
          "name": "id",
          "type": "uint256"
        },
        {
          "indexed": false,
          "internalType": "address",
          "name": "owner",
          "type": "address"
        },
        {
          "indexed": false,
          "internalType": "string",
          "name": "name",
          "type": "string"
        },
        {
          "indexed": false,
          "internalType": "string",
          "name": "symbol",
          "type": "string"
        }
      ],
      "name": "_NewIssuerRequest",
      "type": "event"
    },
    {
      "anonymous": false,
      "inputs": [
        {
          "indexed": false,
          "internalType": "address",
          "name": "owner",
          "type": "address"
        }
      ],
      "name": "_RemoveOwnerRejection",
      "type": "event"
    },
    {
      "anonymous": false,
      "inputs": [
        {
          "indexed": false,
          "internalType": "address",
          "name": "owner",
          "type": "address"
        }
      ],
      "name": "_RemoveOwnerValidation",
      "type": "event"
    },
    {
      "anonymous": false,
      "inputs": [
        {
          "indexed": true,
          "internalType": "uint256",
          "name": "id",
          "type": "uint256"
        },
        {
          "indexed": false,
          "internalType": "address",
          "name": "voter",
          "type": "address"
        },
        {
          "indexed": false,
          "internalType": "bool",
          "name": "vote",
          "type": "bool"
        }
      ],
      "name": "_VoteForIssuer",
      "type": "event"
    },
    {
      "anonymous": false,
      "inputs": [
        {
          "indexed": false,
          "internalType": "uint256",
          "name": "minOwner",
          "type": "uint256"
        },
        {
          "indexed": false,
          "internalType": "address",
          "name": "voter",
          "type": "address"
        },
        {
          "indexed": false,
          "internalType": "bool",
          "name": "vote",
          "type": "bool"
        }
      ],
      "name": "_VoteForMinOwner",
      "type": "event"
    },
    {
      "anonymous": false,
      "inputs": [
        {
          "indexed": false,
          "internalType": "address",
          "name": "owner",
          "type": "address"
        },
        {
          "indexed": false,
          "internalType": "address",
          "name": "voter",
          "type": "address"
        },
        {
          "indexed": false,
          "internalType": "bool",
          "name": "vote",
          "type": "bool"
        }
      ],
      "name": "_VoteForOwner",
      "type": "event"
    },
    {
      "inputs": [
        {
          "internalType": "address[]",
          "name": "owners",
          "type": "address[]"
        },
        {
          "internalType": "uint256",
          "name": "minOwners",
          "type": "uint256"
        }
      ],
      "name": "MultiSigContract_init",
      "outputs": [],
      "stateMutability": "nonpayable",
      "type": "function"
    },
    {
      "inputs": [
        {
          "internalType": "address",
          "name": "owner",
          "type": "address"
        }
      ],
      "name": "addOwner",
      "outputs": [],
      "stateMutability": "nonpayable",
      "type": "function"
    },
    {
      "inputs": [
        {
          "internalType": "uint256",
          "name": "newMinOwners",
          "type": "uint256"
        }
      ],
      "name": "changeMinOwners",
      "outputs": [],
      "stateMutability": "nonpayable",
      "type": "function"
    },
    {
      "inputs": [],
      "name": "rejectMinOwners",
      "outputs": [],
      "stateMutability": "nonpayable",
      "type": "function"
    },
    {
      "inputs": [
        {
          "internalType": "address",
          "name": "owner",
          "type": "address"
        }
      ],
      "name": "rejectOwner",
      "outputs": [],
      "stateMutability": "nonpayable",
      "type": "function"
    },
    {
      "inputs": [
        {
          "internalType": "address",
          "name": "owner",
          "type": "address"
        }
      ],
      "name": "removeOwner",
      "outputs": [],
      "stateMutability": "nonpayable",
      "type": "function"
    },
    {
      "inputs": [],
      "name": "retrieveAllOwners",
      "outputs": [
        {
          "internalType": "address[]",
          "name": "",
          "type": "address[]"
        }
      ],
      "stateMutability": "view",
      "type": "function"
    },
    {
      "inputs": [],
      "name": "retrieveManagerContract",
      "outputs": [
        {
          "internalType": "address",
          "name": "",
          "type": "address"
        }
      ],
      "stateMutability": "view",
      "type": "function"
    },
    {
      "inputs": [],
      "name": "retrieveMinOwners",
      "outputs": [
        {
          "internalType": "uint256",
          "name": "",
          "type": "uint256"
        }
      ],
      "stateMutability": "view",
      "type": "function"
    },
    {
      "inputs": [],
      "name": "retrievePendingMinOwners",
      "outputs": [
        {
          "internalType": "uint256",
          "name": "",
          "type": "uint256"
        }
      ],
      "stateMutability": "view",
      "type": "function"
    },
    {
      "inputs": [],
      "name": "retrievePendingMinOwnersStatus",
      "outputs": [
        {
          "internalType": "uint256",
          "name": "",
          "type": "uint256"
        },
        {
          "internalType": "uint256",
          "name": "",
          "type": "uint256"
        },
        {
          "internalType": "address[]",
          "name": "",
          "type": "address[]"
        }
      ],
      "stateMutability": "view",
      "type": "function"
    },
    {
      "inputs": [
        {
          "internalType": "bool",
          "name": "addedORremove",
          "type": "bool"
        }
      ],
      "name": "retrievePendingOwners",
      "outputs": [
        {
          "internalType": "address[]",
          "name": "",
          "type": "address[]"
        }
      ],
      "stateMutability": "view",
      "type": "function"
    },
    {
      "inputs": [],
      "name": "validateMinOwners",
      "outputs": [],
      "stateMutability": "nonpayable",
      "type": "function"
    },
    {
      "inputs": [
        {
          "internalType": "address",
          "name": "owner",
          "type": "address"
        }
      ],
      "name": "validateOwner",
      "outputs": [],
      "stateMutability": "nonpayable",
      "type": "function"
    },
    {
      "inputs": [
        {
          "internalType": "address[]",
          "name": "owners",
          "type": "address[]"
        },
        {
          "internalType": "uint256",
          "name": "minOwners",
          "type": "uint256"
        },
        {
          "internalType": "address",
          "name": "managerContractAddress",
          "type": "address"
        }
      ],
      "name": "PublicPool_init",
      "outputs": [],
      "stateMutability": "nonpayable",
      "type": "function"
    },
    {
      "inputs": [
        {
          "internalType": "address",
          "name": "owner",
          "type": "address"
        },
        {
          "internalType": "string",
          "name": "name",
          "type": "string"
        },
        {
          "internalType": "string",
          "name": "symbol",
          "type": "string"
        },
        {
          "internalType": "uint256",
          "name": "feeAmount",
          "type": "uint256"
        },
        {
          "internalType": "uint256",
          "name": "feeDecimals",
          "type": "uint256"
        },
        {
          "internalType": "enum Library.PaymentPlans",
          "name": "paymentPlan",
          "type": "uint8"
        }
      ],
      "name": "requestIssuer",
      "outputs": [
        {
          "internalType": "uint256",
          "name": "",
          "type": "uint256"
        }
      ],
      "stateMutability": "payable",
      "type": "function"
    },
    {
      "inputs": [
        {
          "internalType": "uint256",
          "name": "id",
          "type": "uint256"
        }
      ],
      "name": "validateIssuer",
      "outputs": [],
      "stateMutability": "nonpayable",
      "type": "function"
    },
    {
      "inputs": [
        {
          "internalType": "uint256",
          "name": "id",
          "type": "uint256"
        }
      ],
      "name": "rejectIssuer",
      "outputs": [],
      "stateMutability": "nonpayable",
      "type": "function"
    },
    {
      "inputs": [],
      "name": "retrieveIssuers",
      "outputs": [
        {
          "internalType": "uint256[]",
          "name": "",
          "type": "uint256[]"
        }
      ],
      "stateMutability": "view",
      "type": "function"
    },
    {
      "inputs": [
        {
          "internalType": "uint256",
          "name": "id",
          "type": "uint256"
        }
      ],
      "name": "retrieveNFTMarketForIssuer",
      "outputs": [
        {
          "internalType": "address",
          "name": "",
          "type": "address"
        }
      ],
      "stateMutability": "view",
      "type": "function"
    },
    {
      "inputs": [],
      "name": "retrievePendingIssuers",
      "outputs": [
        {
          "internalType": "uint256[]",
          "name": "",
          "type": "uint256[]"
        }
      ],
      "stateMutability": "view",
      "type": "function"
    },
    {
      "inputs": [
        {
          "internalType": "uint256",
          "name": "id",
          "type": "uint256"
        }
      ],
      "name": "retrievePendingIssuer",
      "outputs": [
        {
          "components": [
            {
              "components": [
                {
                  "internalType": "address",
                  "name": "_owner",
                  "type": "address"
                },
                {
                  "internalType": "string",
                  "name": "_name",
                  "type": "string"
                },
                {
                  "internalType": "string",
                  "name": "_symbol",
                  "type": "string"
                },
                {
                  "internalType": "uint256",
                  "name": "_feeAmount",
                  "type": "uint256"
                },
                {
                  "internalType": "uint256",
                  "name": "_feeDecimals",
                  "type": "uint256"
                },
                {
                  "internalType": "enum Library.PaymentPlans",
                  "name": "_paymentPlan",
                  "type": "uint8"
                }
              ],
              "internalType": "struct ItemsLibrary._issuerStruct",
              "name": "_issuer",
              "type": "tuple"
            },
            {
              "internalType": "uint256",
              "name": "_pendingId",
              "type": "uint256"
            },
            {
              "internalType": "uint256",
              "name": "_validations",
              "type": "uint256"
            },
            {
              "internalType": "uint256",
              "name": "_rejections",
              "type": "uint256"
            },
            {
              "internalType": "address[]",
              "name": "_voters",
              "type": "address[]"
            }
          ],
          "internalType": "struct IPool._pendingIssuerStruct",
          "name": "",
          "type": "tuple"
        }
      ],
      "stateMutability": "view",
      "type": "function"
    }
  ],
  "bytecode": "0x608060405234801561001057600080fd5b50613a9a806100206000396000f3fe6080604052600436106200011c5760003560e01c806303231e5d1462000121578063094a0ed214620001735780630bee185e14620001a7578063173825d914620001ce578063280931e714620001f35780632edbe7fc146200021857806330ade922146200023957806334f292071462000251578063430c37cb1462000276578063538b6aad146200029b5780635888ebb314620002c25780635b362e8414620002eb57806365b973e5146200030b5780636b29960414620003225780637065cb48146200035657806376f8f90f146200037b578063a93d5ed614620003a0578063c3079ae714620003b8578063c50afbcd14620003d0578063c66433ea14620003e7578063ce33d58a146200040c578063d0e139181462000431575b600080fd5b3480156200012e57600080fd5b506200015b6200014036600462002b6d565b6000908152600b60205260409020546001600160a01b031690565b6040516200016a919062002c1d565b60405180910390f35b3480156200018057600080fd5b50620001986200019236600462002b6d565b62000449565b6040516200016a919062002e3f565b348015620001b457600080fd5b50620001cc620001c6366004620029f1565b62000697565b005b348015620001db57600080fd5b50620001cc620001ed36600462002875565b62000809565b3480156200020057600080fd5b50620001cc6200021236600462002b6d565b6200084c565b3480156200022557600080fd5b506006545b6040519081526020016200016a565b3480156200024657600080fd5b50620001cc6200085c565b3480156200025e57600080fd5b50620001cc6200027036600462002b6d565b6200086a565b3480156200028357600080fd5b50620001cc6200029536600462002a39565b62000877565b348015620002a857600080fd5b50620002b36200090f565b6040516200016a919062002d8c565b348015620002cf57600080fd5b50620002da62000969565b6040516200016a9392919062002f4a565b348015620002f857600080fd5b50600a546001600160a01b03166200015b565b3480156200031857600080fd5b506005546200022a565b3480156200032f57600080fd5b50620003476200034136600462002b2d565b620009df565b6040516200016a919062002d77565b3480156200036357600080fd5b50620001cc6200037536600462002875565b62000aa8565b3480156200038857600080fd5b50620001cc6200039a36600462002875565b62000ac4565b348015620003ad57600080fd5b506200034762000b1c565b348015620003c557600080fd5b50620001cc62000b81565b6200022a620003e13660046200289c565b62000b8d565b348015620003f457600080fd5b50620001cc6200040636600462002b6d565b6200122d565b3480156200041957600080fd5b50620001cc6200042b36600462002875565b62001284565b3480156200043e57600080fd5b50620002b362001291565b62000453620025de565b6000828152600d6020526040908190208151610160810190925280546001600160a01b031660a08301908152600182018054849291849160c0850191906200049b9062002ff9565b80601f0160208091040260200160405190810160405280929190818152602001828054620004c99062002ff9565b80156200051a5780601f10620004ee576101008083540402835291602001916200051a565b820191906000526020600020905b815481529060010190602001808311620004fc57829003601f168201915b50505050508152602001600282018054620005359062002ff9565b80601f0160208091040260200160405190810160405280929190818152602001828054620005639062002ff9565b8015620005b45780601f106200058857610100808354040283529160200191620005b4565b820191906000526020600020905b8154815290600101906020018083116200059657829003601f168201915b50505091835250506003820154602082015260048201546040820152600582015460609091019060ff166001811115620005f257620005f26200306a565b60018111156200060657620006066200306a565b815250508152602001600682015481526020016007820154815260200160088201548152602001600982018054806020026020016040519081016040528092919081815260200182805480156200068757602002820191906000526020600020905b81546001600160a01b0316815260019091019060200180831162000668575b5050505050815250509050919050565b600054610100900460ff16620006b45760005460ff1615620006b8565b303b155b620006e05760405162461bcd60e51b8152600401620006d79062002df1565b60405180910390fd5b600054610100900460ff1615801562000703576000805461ffff19166101011790555b818351620007128282620012e9565b600184620007218282620012e9565b600586905560005b8751811015620007ec5760018060000160008a848151811062000750576200075062003080565b6020908102919091018101516001600160a01b03168252810191909152604001600020805460ff191691151591909117905587516002908990839081106200079c576200079c62003080565b60209081029190910181015182546001810184556000938452919092200180546001600160a01b0319166001600160a01b0390921691909117905580620007e38162003036565b91505062000729565b5050505050801562000804576000805461ff00191690555b505050565b80600162000818828262001310565b6005546002546200082c9060019062002fdf565b620008388282620012e9565b620008458560046200136a565b5050505050565b62000859816001620013fe565b50565b620008686001620017eb565b565b62000859816000620013fe565b600054610100900460ff16620008945760005460ff161562000898565b303b155b620008b75760405162461bcd60e51b8152600401620006d79062002df1565b600054610100900460ff16158015620008da576000805461ffff19166101011790555b620008e6848462000697565b620008f18262001908565b6000600f55801562000909576000805461ff00191690555b50505050565b6060600e8054806020026020016040519081016040528092919081815260200182805480156200095f57602002820191906000526020600020905b8154815260200190600101908083116200094a575b5050505050905090565b6000806060600754600854600980805480602002602001604051908101604052809291908181526020018280548015620009cd57602002820191906000526020600020905b81546001600160a01b03168152600190910190602001808311620009ae575b50505050509050925092509250909192565b6060811562000a4957600380546040805160208084028201810190925282815292919083018282801562000a3d57602002820191906000526020600020905b81546001600160a01b0316815260019091019060200180831162000a1e575b50505050509050919050565b600480546040805160208084028201810190925282815292919083018282801562000a3d576020028201919060005260206000209081546001600160a01b0316815260019091019060200180831162000a1e5750505050509050919050565b80600062000ab7828262001310565b620008048360036200136a565b62000acf816200199c565b15156001141562000b0f5760025462000aeb9060019062002fdf565b600554111562000b0f5760405162461bcd60e51b8152600401620006d79062002dd2565b62000859816001620019f2565b6060600180018054806020026020016040519081016040528092919081815260200182805480156200095f57602002820191906000526020600020905b81546001600160a01b0316815260019091019060200180831162000b59575050505050905090565b620008686000620017eb565b6000866001600160a01b03811662000bf45760405162461bcd60e51b8152602060048201526024808201527f4e4654204d61726b6574206f776e65722063616e6e6f742062652061646472656044820152630737320360e41b6064820152608401620006d7565b848473__Library_______________________________63bdbff48783836040518363ffffffff1660e01b815260040162000c3192919062002f3c565b60006040518083038186803b15801562000c4a57600080fd5b505af415801562000c5f573d6000803e3d6000fd5b505050506000600a60009054906101000a90046001600160a01b03166001600160a01b031663e220ad956040518163ffffffff1660e01b815260040160006040518083038186803b15801562000cb457600080fd5b505afa15801562000cc9573d6000803e3d6000fd5b505050506040513d6000823e601f3d908101601f1916820160405262000cf3919081019062002946565b60028151811062000d085762000d0862003080565b60200260200101516001600160a01b031663b049473f6040518163ffffffff1660e01b815260040160006040518083038186803b15801562000d4957600080fd5b505afa15801562000d5e573d6000803e3d6000fd5b505050506040513d6000823e601f3d908101601f1916820160405262000d88919081019062002a99565b9050600081818151811062000da15762000da162003080565b602002602001015190506000826001600881111562000dc45762000dc46200306a565b8151811062000dd75762000dd762003080565b60200260200101519050808262000def919062002fc4565b34101562000e3d5760405162461bcd60e51b815260206004820152601a60248201527909ccaee4092e6e6eacae4408ccacae640dcdee840cadcdeeaced60331b6044820152606401620006d7565b73__ItemsLibrary__________________________632ac0cb2383600a60009054906101000a90046001600160a01b03166001600160a01b031663e220ad956040518163ffffffff1660e01b815260040160006040518083038186803b15801562000ea757600080fd5b505afa15801562000ebc573d6000803e3d6000fd5b505050506040513d6000823e601f3d908101601f1916820160405262000ee6919081019062002946565b60028151811062000efb5762000efb62003080565b60200260200101516040518363ffffffff1660e01b815260040162000f2292919062002f25565b60006040518083038186803b15801562000f3b57600080fd5b505af415801562000f50573d6000803e3d6000fd5b5050505073__ItemsLibrary__________________________632ac0cb23833462000f7c919062002fdf565b600a60009054906101000a90046001600160a01b03166001600160a01b031663e220ad956040518163ffffffff1660e01b815260040160006040518083038186803b15801562000fcb57600080fd5b505afa15801562000fe0573d6000803e3d6000fd5b505050506040513d6000823e601f3d908101601f191682016040526200100a919081019062002946565b6005815181106200101f576200101f62003080565b60200260200101516040518363ffffffff1660e01b81526004016200104692919062002f25565b60006040518083038186803b1580156200105f57600080fd5b505af415801562001074573d6000803e3d6000fd5b505050508c600d6000600f54815260200190815260200160002060000160000160006101000a8154816001600160a01b0302191690836001600160a01b031602179055508b600d6000600f5481526020019081526020016000206000016001019080519060200190620010e992919062002615565b50600f546000908152600d602090815260409091208c5162001114926002909201918e019062002615565b50600f80546000908152600d60205260408082206003018d9055825482528082206004018c90559154815220600501805489919060ff1916600183818111156200116257620011626200306a565b0217905550600e80549050600d6000600f54815260200190815260200160002060060181905550600e600f549080600181540180825580915050600190039060005260206000200160009091909190915055600f547f88d341cdb636e2cf41b99330be584ef11888487c9b2aef53410ed90fb2c487ad8e8e8e604051620011ec9392919062002d33565b60405180910390a2600f8054906000620012068362003036565b91905055506001600f546200121c919062002fdf565b9d9c50505050505050505050505050565b3360016200123c828262001310565b6000620012498162001ea6565b60025484906200125a8282620012e9565b600186620012698282620012e9565b60068890556200127a6001620017eb565b5050505050505050565b62000859816000620019f2565b6060600c8054806020026020016040519081016040528092919081815260200182805480156200095f57602002820191906000526020600020908154815260200190600101908083116200094a575050505050905090565b808211156200130c5760405162461bcd60e51b8152600401620006d79062002dd2565b5050565b6001600160a01b03821660009081526001602052604090205460ff165b1515811515146200130c5760405162461bcd60e51b8152600401620006d7906020808252600490820152634543392d60e01b604082015260600190565b33600162001379828262001310565b83600062001388828262001f20565b84546001808201875560008781526020812090920180546001600160a01b0319166001600160a01b038a161790558654620013c4919062002fdf565b6001600160a01b0388166000908152600160208190526040909120600201829055909150620013f5908890620019f2565b50505050505050565b3360016200140d828262001310565b6000848152600d602052604090205484906001600160a01b0316620014755760405162461bcd60e51b815260206004820152601d60248201527f5468697320697373756572206964206973206e6f742070656e64696e670000006044820152606401620006d7565b60408051338152851515602082015286917f5a1a88bd27a0cf1c470b27b132493e61efc1eaf3d1b57db0ab7f73182345d047910160405180910390a26000858152600d602090815260408220600901805460018101825590835291200180546001600160a01b0319163317905583156200176f576000858152600d60205260408120600701805491620015088362003036565b90915550506005546000868152600d6020526040902060070154106200176957600c805460018181019092557fdf6966c971051c3d54ec59162606531493a51404a002842f56009d7e5cf4a8c7018690556000868152600d60205260409020805491018054620016dd926001600160a01b03169190620015889062002ff9565b80601f0160208091040260200160405190810160405280929190818152602001828054620015b69062002ff9565b8015620016075780601f10620015db5761010080835404028352916020019162001607565b820191906000526020600020905b815481529060010190602001808311620015e957829003601f168201915b50505060008a8152600d6020526040902060020180549092506200162c915062002ff9565b80601f01602080910402602001604051908101604052809291908181526020018280546200165a9062002ff9565b8015620016ab5780601f106200167f57610100808354040283529160200191620016ab565b820191906000526020600020905b8154815290600101906020018083116200168d57829003601f168201915b50505060008b8152600d60205260409020600381015460048201546005909201549093509091508b9060ff1662001f3d565b6000868152600b6020526040902080546001600160a01b0319166001600160a01b03929092169190911790556200171485620021f5565b6000858152600b60205260409081902054905186917f2cedba2f59ec9c6a70e350caabb40ea15150e2bd297a517df51c1fbdbeacad399162001760916001600160a01b03169062002c1d565b60405180910390a25b62000845565b6000858152600d602052604081206008018054916200178e8362003036565b90915550506005546000868152600d6020526040902060080154106200084557620017b985620021f5565b60405185907f403eabfde87045e1433576679912c142f6e51573d2635748e5331c62fbcfecc190600090a25050505050565b336001620017fa828262001310565b6001620018078162001ea6565b3360098054806020026020016040519081016040528092919081815260200182805480156200186057602002820191906000526020600020905b81546001600160a01b0316815260019091019060200180831162001841575b505050505062001871828262002345565b851562001899576001600760008282546200188d919062002fc4565b90915550620018b49050565b600160086000828254620018ae919062002fc4565b90915550505b600980546001810182556000919091527f6e1540171b6c0c960b71a7020d9f60077f6af931a8bbf590da0223dacf75c7af0180546001600160a01b03191633179055620019006200240c565b505050505050565b600054610100900460ff16620019255760005460ff161562001929565b303b155b620019485760405162461bcd60e51b8152600401620006d79062002df1565b600054610100900460ff161580156200196b576000805461ffff19166101011790555b600a80546001600160a01b0319166001600160a01b03841617905580156200130c576000805461ff00191690555050565b6001600160a01b038116600090815260016020526040812060020154600480549091908110620019d057620019d062003080565b6000918252602090912001546001600160a01b03928316921691909114919050565b33600162001a01828262001310565b83600162001a10828262001f20565b6001600160a01b038616600090815260016020908152604091829020600501805483518184028101840190945280845233939283018282801562001a7e57602002820191906000526020600020905b81546001600160a01b0316815260019091019060200180831162001a5f575b505050505062001a8f828262002345565b604080516001600160a01b038a1681523360208201528815158183015290517fc6f241efc3de3ce31d0e682102cc781f0605f0f90d72addfea699e4aea85dd799181900360600190a16001600160a01b038816600090815260016020818152604083206005018054928301815583529091200180546001600160a01b03191633179055861562001dab576001600160a01b038816600090815260016020526040812060030180549162001b428362003036565b90915550506005546001600160a01b0389166000908152600160205260409020600301541062001da557600462001b798962002452565b1562001c52575060028054600180820183557f405787fa12a823e0f2b7631cc41b3ba8828b3321ca811111fa75cd3aa3bb5ace90910180546001600160a01b0319166001600160a01b038c169081179091556000908152602082905260409020805460ff191682179055905460039162001bf39162002fdf565b6001600160a01b038a166000908152600160208190526040918290200191909155517f45bbe5ceeddcb6d0b4045349efc87a3fde966578e3970cda6f53bfc76efaf9f79062001c44908b9062002c1d565b60405180910390a162001d97565b6001600160a01b03891660009081526001602081905260409182902001549051633c39c19f60e11b815273__AddressLibrary________________________90637873833e9062001cab90849060029060040162002f3c565b60006040518083038186803b15801562001cc457600080fd5b505af415801562001cd9573d6000803e3d6000fd5b5050600254831015915062001d33905057806001600001600060018001848154811062001d0a5762001d0a62003080565b60009182526020808320909101546001600160a01b031683528201929092526040019020600101555b6001600160a01b038a166000908152600160208190526040808320805460ff1916815590910191909155517f82bcab3b042f3e2143a9d33d07fa130afdf763f17a45679670f0e39f12064ca89062001d8d908c9062002c1d565b60405180910390a1505b62001da3898262002486565b505b6200127a565b6001600160a01b038816600090815260016020526040812060040180549162001dd48362003036565b90915550506005546001600160a01b038916600090815260016020526040902060040154106200127a57600462001e0b8962002452565b1562001e5557506040516003907f622a69297177c029df8c1ba7f4d2d59881089b571ae96800e634aff50d67492e9062001e47908b9062002c1d565b60405180910390a162001e8f565b7f547e31c58b802b63bc89f1109a132a291b0527c9196c97759829aeaecd3c2d398960405162001e86919062002c1d565b60405180910390a15b62001e9b898262002486565b505050505050505050565b801562001ee657600654620008595760405162461bcd60e51b8152602060048201526005602482015264454333312d60d81b6044820152606401620006d7565b60065415620008595760405162461bcd60e51b8152602060048201526005602482015264454333302d60d81b6044820152606401620006d7565b62001f2b8262002452565b806200132d57506200132d826200199c565b600080600a60009054906101000a90046001600160a01b03166001600160a01b031663efd621de6040518163ffffffff1660e01b815260040160006040518083038186803b15801562001f8f57600080fd5b505afa15801562001fa4573d6000803e3d6000fd5b505050506040513d6000823e601f3d908101601f1916820160405262001fce919081019062002946565b60008151811062001fe35762001fe362003080565b602002602001015190506000600a60009054906101000a90046001600160a01b03166001600160a01b031663e220ad956040518163ffffffff1660e01b815260040160006040518083038186803b1580156200203e57600080fd5b505afa15801562002053573d6000803e3d6000fd5b505050506040513d6000823e601f3d908101601f191682016040526200207d919081019062002946565b60028151811062002092576200209262003080565b60200260200101516001600160a01b031663b049473f6040518163ffffffff1660e01b815260040160006040518083038186803b158015620020d357600080fd5b505afa158015620020e8573d6000803e3d6000fd5b505050506040513d6000823e601f3d908101601f1916820160405262002112919081019062002a99565b60088151811062002127576200212762003080565b6020908102919091010151600a549091506000906001600160a01b03168b8b8b858c8c8c8c60018111156200216057620021606200306a565b6040516024016200217a9998979695949392919062002c31565b60408051601f198184030181529181526020820180516001600160e01b03166398a7541d60e01b1790525190915060009084908390620021ba90620026a4565b620021c792919062002d05565b604051809103906000f080158015620021e4573d6000803e3d6000fd5b509c9b505050505050505050505050565b6000818152600d60205260409081902060060154905163cffd93cd60e01b815273__UintLibrary___________________________9063cffd93cd9062002244908490600e9060040162002f3c565b60006040518083038186803b1580156200225d57600080fd5b505af415801562002272573d6000803e3d6000fd5b5050505080600e805490501115620022c05780600d6000600e84815481106200229f576200229f62003080565b90600052602060002001548152602001908152602001600020600601819055505b6000828152600d6020526040812080546001600160a01b031916815590620022ec6001830182620026b2565b620022fc600283016000620026b2565b50600060038201819055600482018190556005909101805460ff19169055828152600d6020526040812060078101829055600881018290556200130c91600990910190620026f1565b60405163f7cf62d760e01b815273__AddressLibrary________________________9063f7cf62d79062002380908590859060040162002ca7565b60206040518083038186803b1580156200239957600080fd5b505af4158015620023ae573d6000803e3d6000fd5b505050506040513d601f19601f82011682018060405250810190620023d4919062002b4d565b156200130c5760405162461bcd60e51b8152600401620006d7906020808252600490820152634543352d60e01b604082015260600190565b6200241c600754600554620025a1565b15620024325760065460055562000868620025bf565b62002442600854600554620025a1565b15620008685762000868620025bf565b6001600160a01b038116600090815260016020526040812060020154600380549091908110620019d057620019d062003080565b6001600160a01b03821660009081526001602052604090819020600201549051633c39c19f60e11b815273__AddressLibrary________________________90637873833e90620024de908490869060040162002f3c565b60006040518083038186803b158015620024f757600080fd5b505af41580156200250c573d6000803e3d6000fd5b505050508082805490501115620025635780600160000160008484815481106200253a576200253a62003080565b60009182526020808320909101546001600160a01b031683528201929092526040019020600201555b6001600160a01b03831660009081526001602052604081206002810182905560038101829055600481018290556200080491600590910190620026f1565b600081831015620025b557506000620025b9565b5060015b92915050565b60006006819055600781905560088190556200086890600990620026f1565b6040518060a00160405280620025f362002711565b8152602001600081526020016000815260200160008152602001606081525090565b828054620026239062002ff9565b90600052602060002090601f01602090048101928262002647576000855562002692565b82601f106200266257805160ff191683800117855562002692565b8280016001018555821562002692579182015b828111156200269257825182559160200191906001019062002675565b50620026a092915062002763565b5090565b61099380620030d283390190565b508054620026c09062002ff9565b6000825580601f10620026d1575050565b601f01602090049060005260206000209081019062000859919062002763565b508054600082559060005260206000209081019062000859919062002763565b6040518060c0016040528060006001600160a01b0316815260200160608152602001606081526020016000815260200160008152602001600060018111156200275e576200275e6200306a565b905290565b5b80821115620026a0576000815560010162002764565b600082601f8301126200278c57600080fd5b81356020620027a56200279f8362002f9e565b62002f6b565b80838252828201915082860187848660051b8901011115620027c657600080fd5b60005b85811015620027f2578135620027df81620030ac565b84529284019290840190600101620027c9565b5090979650505050505050565b600082601f8301126200281157600080fd5b81356001600160401b038111156200282d576200282d62003096565b62002842601f8201601f191660200162002f6b565b8181528460208386010111156200285857600080fd5b816020850160208301376000918101602001919091529392505050565b6000602082840312156200288857600080fd5b81356200289581620030ac565b9392505050565b60008060008060008060c08789031215620028b657600080fd5b8635620028c381620030ac565b955060208701356001600160401b0380821115620028e057600080fd5b620028ee8a838b01620027ff565b965060408901359150808211156200290557600080fd5b506200291489828a01620027ff565b945050606087013592506080870135915060a0870135600281106200293857600080fd5b809150509295509295509295565b600060208083850312156200295a57600080fd5b82516001600160401b038111156200297157600080fd5b8301601f810185136200298357600080fd5b8051620029946200279f8262002f9e565b80828252848201915084840188868560051b8701011115620029b557600080fd5b600094505b83851015620029e5578051620029d081620030ac565b835260019490940193918501918501620029ba565b50979650505050505050565b6000806040838503121562002a0557600080fd5b82356001600160401b0381111562002a1c57600080fd5b62002a2a858286016200277a565b95602094909401359450505050565b60008060006060848603121562002a4f57600080fd5b83356001600160401b0381111562002a6657600080fd5b62002a74868287016200277a565b93505060208401359150604084013562002a8e81620030ac565b809150509250925092565b6000602080838503121562002aad57600080fd5b82516001600160401b0381111562002ac457600080fd5b8301601f8101851362002ad657600080fd5b805162002ae76200279f8262002f9e565b80828252848201915084840188868560051b870101111562002b0857600080fd5b600094505b83851015620029e557805183526001949094019391850191850162002b0d565b60006020828403121562002b4057600080fd5b81356200289581620030c2565b60006020828403121562002b6057600080fd5b81516200289581620030c2565b60006020828403121562002b8057600080fd5b5035919050565b600081518084526020808501945080840160005b8381101562002bc25781516001600160a01b03168752958201959082019060010162002b9b565b509495945050505050565b6000815180845260005b8181101562002bf55760208185018101518683018201520162002bd7565b8181111562002c08576000602083870101525b50601f01601f19169290920160200192915050565b6001600160a01b0391909116815260200190565b6001600160a01b038a81168252891660208201526101206040820181905260009062002c608382018b62002bcd565b9050828103606084015262002c76818a62002bcd565b6080840198909852505060a081019490945260c084019290925260e083015260ff1661010090910152949350505050565b6001600160a01b038381168252604060208084018290528451918401829052600092858201929091906060860190855b8181101562002cf757855185168352948301949183019160010162002cd7565b509098975050505050505050565b6001600160a01b038316815260406020820181905260009062002d2b9083018462002bcd565b949350505050565b6001600160a01b038416815260606020820181905260009062002d599083018562002bcd565b828103604084015262002d6d818562002bcd565b9695505050505050565b60208152600062002895602083018462002b87565b6020808252825182820181905260009190848201906040850190845b8181101562002dc65783518352928401929184019160010162002da8565b50909695505050505050565b602080825260059082015264454331392d60d81b604082015260600190565b6020808252602e908201527f496e697469616c697a61626c653a20636f6e747261637420697320616c72656160408201526d191e481a5b9a5d1a585b1a5e995960921b606082015260800190565b602081526000825160a0602084015260018060a01b0381511660c0840152602081015160c060e085015262002e7961018085018262002bcd565b9050604082015160bf198583030161010086015262002e99828262002bcd565b9150506060820151610120850152608082015161014085015260a082015191506002821062002ed857634e487b7160e01b600052602160045260246000fd5b8161016085015260208501516040850152604085015160608501526060850151608085015260808501519150601f198482030160a085015262002f1c818362002b87565b95945050505050565b9182526001600160a01b0316602082015260400190565b918252602082015260400190565b83815282602082015260606040820152600062002f1c606083018462002b87565b604051601f8201601f191681016001600160401b038111828210171562002f965762002f9662003096565b604052919050565b60006001600160401b0382111562002fba5762002fba62003096565b5060051b60200190565b6000821982111562002fda5762002fda62003054565b500190565b60008282101562002ff45762002ff462003054565b500390565b600181811c908216806200300e57607f821691505b602082108114156200303057634e487b7160e01b600052602260045260246000fd5b50919050565b60006000198214156200304d576200304d62003054565b5060010190565b634e487b7160e01b600052601160045260246000fd5b634e487b7160e01b600052602160045260246000fd5b634e487b7160e01b600052603260045260246000fd5b634e487b7160e01b600052604160045260246000fd5b6001600160a01b03811681146200085957600080fd5b80151581146200085957600080fdfe608060405260405161099338038061099383398101604081905261002291610470565b61004d60017fa3f0ad74e5423aebfd80d3ef4346578335a9a72aeaee59ff6cb3582b35133d5161057f565b60008051602061094c83398151915214610069576100696105d0565b6100758282600061007c565b50506105fc565b61008583610156565b6040516001600160a01b038416907f1cf3b03a6cf19fa2baba4df148e9dcabedea7f8a5c07840e207e5c089be95d3e90600090a26000825111806100c65750805b156101515761014f836001600160a01b0316635c60da1b6040518163ffffffff1660e01b815260040160206040518083038186803b15801561010757600080fd5b505afa15801561011b573d6000803e3d6000fd5b505050506040513d601f19601f8201168201806040525081019061013f9190610455565b836102f660201b6100291760201c565b505b505050565b6101698161032260201b6100551760201c565b6101c85760405162461bcd60e51b815260206004820152602560248201527f455243313936373a206e657720626561636f6e206973206e6f74206120636f6e6044820152641d1c9858dd60da1b60648201526084015b60405180910390fd5b61024b816001600160a01b0316635c60da1b6040518163ffffffff1660e01b815260040160206040518083038186803b15801561020457600080fd5b505afa158015610218573d6000803e3d6000fd5b505050506040513d601f19601f8201168201806040525081019061023c9190610455565b61032260201b6100551760201c565b6102b05760405162461bcd60e51b815260206004820152603060248201527f455243313936373a20626561636f6e20696d706c656d656e746174696f6e206960448201526f1cc81b9bdd08184818dbdb9d1c9858dd60821b60648201526084016101bf565b806102d560008051602061094c83398151915260001b61032860201b61005b1760201c565b80546001600160a01b0319166001600160a01b039290921691909117905550565b606061031b838360405180606001604052806027815260200161096c6027913961032b565b9392505050565b3b151590565b90565b6060833b61038a5760405162461bcd60e51b815260206004820152602660248201527f416464726573733a2064656c65676174652063616c6c20746f206e6f6e2d636f6044820152651b9d1c9858dd60d21b60648201526084016101bf565b600080856001600160a01b0316856040516103a59190610530565b600060405180830381855af49150503d80600081146103e0576040519150601f19603f3d011682016040523d82523d6000602084013e6103e5565b606091505b5090925090506103f6828286610400565b9695505050505050565b6060831561040f57508161031b565b82511561041f5782518084602001fd5b8160405162461bcd60e51b81526004016101bf919061054c565b80516001600160a01b038116811461045057600080fd5b919050565b60006020828403121561046757600080fd5b61031b82610439565b6000806040838503121561048357600080fd5b61048c83610439565b60208401519092506001600160401b03808211156104a957600080fd5b818501915085601f8301126104bd57600080fd5b8151818111156104cf576104cf6105e6565b604051601f8201601f19908116603f011681019083821181831017156104f7576104f76105e6565b8160405282815288602084870101111561051057600080fd5b6105218360208301602088016105a4565b80955050505050509250929050565b600082516105428184602087016105a4565b9190910192915050565b602081526000825180602084015261056b8160408501602087016105a4565b601f01601f19169190910160400192915050565b60008282101561059f57634e487b7160e01b600052601160045260246000fd5b500390565b60005b838110156105bf5781810151838201526020016105a7565b8381111561014f5750506000910152565b634e487b7160e01b600052600160045260246000fd5b634e487b7160e01b600052604160045260246000fd5b6103418061060b6000396000f3fe60806040523661001357610011610017565b005b6100115b61002761002261005e565b610106565b565b606061004e83836040518060600160405280602781526020016102e56027913961012a565b9392505050565b3b151590565b90565b60006100917fa3f0ad74e5423aebfd80d3ef4346578335a9a72aeaee59ff6cb3582b35133d50546001600160a01b031690565b6001600160a01b0316635c60da1b6040518163ffffffff1660e01b815260040160206040518083038186803b1580156100c957600080fd5b505afa1580156100dd573d6000803e3d6000fd5b505050506040513d601f19601f82011682018060405250810190610101919061023c565b905090565b3660008037600080366000845af43d6000803e808015610125573d6000f35b3d6000fd5b6060833b61018e5760405162461bcd60e51b815260206004820152602660248201527f416464726573733a2064656c65676174652063616c6c20746f206e6f6e2d636f6044820152651b9d1c9858dd60d21b60648201526084015b60405180910390fd5b600080856001600160a01b0316856040516101a99190610265565b600060405180830381855af49150503d80600081146101e4576040519150601f19603f3d011682016040523d82523d6000602084013e6101e9565b606091505b50915091506101f9828286610203565b9695505050505050565b6060831561021257508161004e565b8251156102225782518084602001fd5b8160405162461bcd60e51b81526004016101859190610281565b60006020828403121561024e57600080fd5b81516001600160a01b038116811461004e57600080fd5b600082516102778184602087016102b4565b9190910192915050565b60208152600082518060208401526102a08160408501602087016102b4565b601f01601f19169190910160400192915050565b60005b838110156102cf5781810151838201526020016102b7565b838111156102de576000848401525b5050505056fe416464726573733a206c6f772d6c6576656c2064656c65676174652063616c6c206661696c6564a2646970667358221220148d20618ce0e4acd0b179dccf12503163fb589ddd8df806d6d9c09a8f4adc1064736f6c63430008070033a3f0ad74e5423aebfd80d3ef4346578335a9a72aeaee59ff6cb3582b35133d50416464726573733a206c6f772d6c6576656c2064656c65676174652063616c6c206661696c6564a2646970667358221220d55ccb6e1266188078c3fa8af6f5dd226e994cca56cdeb84762f9d99fddcf38464736f6c63430008070033",
  "immutableReferences": {},
  "source": "// SPDX-License-Identifier: GPL-3.0\r\n\r\npragma solidity 0.8.7;\r\n\r\n/**\r\n Certis Token is an ERC20 Token that grants its holder the right to:\r\n   - Vote on all the systems propositions (changing system configuraiton etc...)\r\n   - Receive Dividends for all the payments forwarded to the Treasury contract\r\n\r\nBefore every token transfer we contact the token gouvernance Base contracts so that the can update the tokens used for voting if needed\r\n\r\n */\r\n\r\nimport \"@openzeppelin/contracts-upgradeable/proxy/utils/Initializable.sol\";\r\nimport \"../Interfaces/IPool.sol\";\r\nimport \"../Interfaces/ITreasury.sol\";\r\nimport \"../Base/ManagedBaseContract.sol\";\r\nimport \"../Base/MultiSigContract.sol\";\r\nimport \"../Libraries/ItemsLibrary.sol\";\r\nimport \"../Libraries/UintLibrary.sol\";\r\nimport \"@openzeppelin/contracts/proxy/beacon/BeaconProxy.sol\";\r\n\r\n\r\n\r\n contract PublicPool is  Initializable, MultiSigContract, ManagedBaseContract, IPool {\r\n  using ItemsLibrary for *;\r\n  using UintLibrary for *;\r\n\r\n  // EVENTS /////////////////////////////////////////\r\n  event _NewIssuerRequest(uint256 indexed id, address owner, string name, string symbol);\r\n\r\n  event _VoteForIssuer(uint256 indexed id, address voter, bool vote);\r\n  event _IssuerValidation(uint256 indexed id, address NFTMarket);\r\n  event _IssuerRejection(uint256 indexed id);\r\n\r\n  // DATA /////////////////////////////////////////\r\n  mapping(uint256 => address) _issuers;\r\n  uint256[] _listOfIssuers;\r\n\r\n  mapping(uint256 => _pendingIssuerStruct) _pendingIssuers;\r\n  uint256[] _listOfPendingIssuers;\r\n\r\n  uint256 nextIssuerId;\r\n\r\n  mapping(address => ItemsLibrary._BalanceStruct) private _balanceOfAccount;\r\n\r\n\r\n  // MODIFIERS /////////////////////////////////////////\r\n  modifier validOwner(address owner){\r\n      require(address(0) != owner, \"NFT Market owner cannot be address 0\");\r\n      _;\r\n  }\r\n\r\n  modifier IssuerPending(uint256 id){\r\n      require(address(0) != _pendingIssuers[id]._issuer._owner, \"This issuer id is not pending\");\r\n      _;\r\n  }\r\n\r\n  modifier validFees(uint256 fee, uint256 decimals){\r\n      Library.validFees(fee, decimals);\r\n      _;\r\n  }\r\n\r\n  // CONSTRUCTOR /////////////////////////////////////////\r\n  function PublicPool_init(address[] memory owners,  uint256 minOwners, address managerContractAddress) public initializer {\r\n      super.MultiSigContract_init(owners, minOwners); \r\n      super.ManagedBaseContract_init(managerContractAddress); \r\n\r\n      nextIssuerId = 0;\r\n  }\r\n\r\n  // FUNCTIONALITY /////////////////////////////////////////\r\n  function requestIssuer(address owner, string memory name, string memory symbol, uint256 feeAmount, uint256 feeDecimals, Library.PaymentPlans paymentPlan) external override payable\r\n    validOwner(owner)\r\n    validFees(feeAmount, feeDecimals)\r\n  returns (uint256)\r\n  {\r\n\r\n    uint[] memory Prices = ITreasury(_managerContract.retrieveTransparentProxies()[uint256(Library.TransparentProxies.Treasury)]).retrieveSettings();\r\n    uint256 NewIssuerFee = Prices[uint256(Library.Prices.NewIssuerFee)];\r\n    uint256 AdminNewIssuerFee = Prices[uint256(Library.Prices.AdminNewIssuerFee)];\r\n    require(msg.value >= NewIssuerFee + AdminNewIssuerFee, \"New Issuer Fees not enough\");\r\n\r\n    ItemsLibrary.TransferEtherTo(NewIssuerFee, _managerContract.retrieveTransparentProxies()[uint256(Library.TransparentProxies.Treasury)]);\r\n    ItemsLibrary.TransferEtherTo(msg.value - NewIssuerFee, _managerContract.retrieveTransparentProxies()[uint256(Library.TransparentProxies.AdminPiggyBank)]);\r\n\r\n    _pendingIssuers[nextIssuerId]._issuer._owner = owner;\r\n    _pendingIssuers[nextIssuerId]._issuer._name = name;\r\n    _pendingIssuers[nextIssuerId]._issuer._symbol = symbol;\r\n    _pendingIssuers[nextIssuerId]._issuer._feeAmount = feeAmount;\r\n    _pendingIssuers[nextIssuerId]._issuer._feeDecimals = feeDecimals;\r\n    _pendingIssuers[nextIssuerId]._issuer._paymentPlan = paymentPlan;\r\n    _pendingIssuers[nextIssuerId]._pendingId = _listOfPendingIssuers.length;\r\n    _listOfPendingIssuers.push(nextIssuerId);\r\n\r\n    emit _NewIssuerRequest(nextIssuerId, owner, name, symbol);\r\n\r\n    nextIssuerId++;\r\n    return(nextIssuerId - 1);\r\n  }\r\n\r\n  function validateIssuer(uint256 id) external override\r\n  {\r\n    voteForIssuer(id, true);\r\n  }\r\n\r\n  function rejectIssuer(uint id) external override\r\n  {\r\n    voteForIssuer(id, false);\r\n  }\r\n\r\n  function voteForIssuer(uint id, bool vote) internal\r\n    isAnOwner(msg.sender, true)\r\n    IssuerPending(id)\r\n  {\r\n    emit _VoteForIssuer(id, msg.sender, vote);\r\n\r\n    _pendingIssuers[id]._voters.push(msg.sender);\r\n        \r\n    if(vote){\r\n        _pendingIssuers[id]._validations++;\r\n\r\n        if(_pendingIssuers[id]._validations >= _minOwners){\r\n            _listOfIssuers.push(id);\r\n            _issuers[id] = GenerateNewNFTMarket(_pendingIssuers[id]._issuer._owner, _pendingIssuers[id]._issuer._name, _pendingIssuers[id]._issuer._symbol, _pendingIssuers[id]._issuer._feeAmount, _pendingIssuers[id]._issuer._feeDecimals, id, _pendingIssuers[id]._issuer._paymentPlan);\r\n            deletingPendingIssuer(id);\r\n            emit _IssuerValidation(id, _issuers[id]);\r\n        }\r\n    }\r\n    else{\r\n        _pendingIssuers[id]._rejections++;\r\n\r\n        if(_pendingIssuers[id]._rejections >= _minOwners){\r\n            deletingPendingIssuer(id);\r\n            emit _IssuerRejection(id);\r\n        }\r\n    }\r\n  }\r\n\r\n  function deletingPendingIssuer(uint256 id) internal\r\n  {\r\n    uint pos = _pendingIssuers[id]._pendingId;\r\n    UintLibrary.UintArrayRemoveResize(pos, _listOfPendingIssuers);\r\n    if(_listOfPendingIssuers.length > pos) _pendingIssuers[_listOfPendingIssuers[pos]]._pendingId = pos;\r\n\r\n    delete(_pendingIssuers[id]._issuer);\r\n    delete(_pendingIssuers[id]._validations);\r\n    delete(_pendingIssuers[id]._rejections);\r\n    delete(_pendingIssuers[id]._voters);\r\n  }\r\n\r\n  function GenerateNewNFTMarket(address owner, string memory name, string memory symbol, uint256 feeAmount, uint256 feeDecimals, uint256 id, Library.PaymentPlans paymentPlan) internal returns(address)\r\n  {\r\n    address beaconAddress = _managerContract.retrieveBeacons()[uint256(Library.Beacons.NFT)];\r\n    uint256 OffersLifeTime = ITreasury(_managerContract.retrieveTransparentProxies()[uint256(Library.TransparentProxies.Treasury)]).retrieveSettings()[uint256(Library.Prices.OffersLifeTime)];\r\n    bytes memory data = abi.encodeWithSignature(\"NFTMarket_init(address,address,string,string,uint256,uint256,uint256,uint256,uint8)\", address(_managerContract), owner, name, symbol, OffersLifeTime, feeAmount, feeDecimals, id, uint8(paymentPlan));\r\n\r\n    BeaconProxy beaconProxy = new BeaconProxy(beaconAddress, data);\r\n\r\n    return address(beaconProxy);\r\n  }\r\n\r\n  function retrieveIssuers() external override view returns (uint[] memory)\r\n  {\r\n    return _listOfIssuers;\r\n  }\r\n\r\n  function retrieveNFTMarketForIssuer(uint id) external override view returns (address)\r\n  {\r\n    return _issuers[id];\r\n  }\r\n\r\n  function retrievePendingIssuers() external override view returns (uint[] memory)\r\n  {\r\n    return _listOfPendingIssuers;\r\n  }\r\n\r\n  function retrievePendingIssuer(uint id) external override view returns (_pendingIssuerStruct memory)\r\n  {\r\n    return _pendingIssuers[id];\r\n  }\r\n\r\n\r\n\r\n }",
  "sourcePath": "C:\\Users\\d-aam\\GitHub\\Originals\\contracts\\MainContracts\\PublicPool.sol",
  "compiler": {
    "name": "solc",
    "version": "0.8.7+commit.e28d00a7.Emscripten.clang"
  },
  "schemaVersion": "3.4.3",
  "updatedAt": "2022-01-27T08:30:34.659Z",
  "devdoc": {
    "kind": "dev",
    "methods": {},
    "version": 1
  },
  "userdoc": {
    "kind": "user",
    "methods": {},
    "version": 1
  }
}