{
  "contractName": "PublicPool",
  "abi": [
    {
      "anonymous": false,
      "inputs": [
        {
          "indexed": true,
          "internalType": "address",
          "name": "owner",
          "type": "address"
        },
        {
          "indexed": false,
          "internalType": "string",
          "name": "name",
          "type": "string"
        },
        {
          "indexed": false,
          "internalType": "string",
          "name": "symbol",
          "type": "string"
        }
      ],
      "name": "_NewRequest",
      "type": "event"
    },
    {
      "inputs": [
        {
          "internalType": "address[]",
          "name": "owners",
          "type": "address[]"
        },
        {
          "internalType": "uint256",
          "name": "minOwners",
          "type": "uint256"
        }
      ],
      "name": "MultiSigContract_init",
      "outputs": [],
      "stateMutability": "nonpayable",
      "type": "function"
    },
    {
      "inputs": [
        {
          "internalType": "address",
          "name": "owner",
          "type": "address"
        }
      ],
      "name": "addOwner",
      "outputs": [],
      "stateMutability": "nonpayable",
      "type": "function"
    },
    {
      "inputs": [
        {
          "internalType": "uint256",
          "name": "newMinOwners",
          "type": "uint256"
        }
      ],
      "name": "changeMinOwners",
      "outputs": [],
      "stateMutability": "nonpayable",
      "type": "function"
    },
    {
      "inputs": [
        {
          "internalType": "address",
          "name": "addr",
          "type": "address"
        }
      ],
      "name": "isOwnerPendingToAdded",
      "outputs": [
        {
          "internalType": "bool",
          "name": "",
          "type": "bool"
        }
      ],
      "stateMutability": "view",
      "type": "function"
    },
    {
      "inputs": [
        {
          "internalType": "address",
          "name": "addr",
          "type": "address"
        }
      ],
      "name": "isOwnerPendingToRemoved",
      "outputs": [
        {
          "internalType": "bool",
          "name": "",
          "type": "bool"
        }
      ],
      "stateMutability": "view",
      "type": "function"
    },
    {
      "inputs": [],
      "name": "rejectMinOwners",
      "outputs": [],
      "stateMutability": "nonpayable",
      "type": "function"
    },
    {
      "inputs": [
        {
          "internalType": "address",
          "name": "owner",
          "type": "address"
        }
      ],
      "name": "rejectOwner",
      "outputs": [],
      "stateMutability": "nonpayable",
      "type": "function"
    },
    {
      "inputs": [
        {
          "internalType": "address",
          "name": "owner",
          "type": "address"
        }
      ],
      "name": "removeOwner",
      "outputs": [],
      "stateMutability": "nonpayable",
      "type": "function"
    },
    {
      "inputs": [],
      "name": "retrieveAllOwners",
      "outputs": [
        {
          "internalType": "address[]",
          "name": "",
          "type": "address[]"
        }
      ],
      "stateMutability": "view",
      "type": "function"
    },
    {
      "inputs": [],
      "name": "retrieveManagerContract",
      "outputs": [
        {
          "internalType": "address",
          "name": "",
          "type": "address"
        }
      ],
      "stateMutability": "view",
      "type": "function"
    },
    {
      "inputs": [],
      "name": "retrieveMinOwners",
      "outputs": [
        {
          "internalType": "uint256",
          "name": "",
          "type": "uint256"
        }
      ],
      "stateMutability": "view",
      "type": "function"
    },
    {
      "inputs": [],
      "name": "retrievePendingMinOwners",
      "outputs": [
        {
          "internalType": "uint256",
          "name": "",
          "type": "uint256"
        }
      ],
      "stateMutability": "view",
      "type": "function"
    },
    {
      "inputs": [],
      "name": "retrievePendingMinOwnersStatus",
      "outputs": [
        {
          "internalType": "uint256",
          "name": "",
          "type": "uint256"
        },
        {
          "internalType": "uint256",
          "name": "",
          "type": "uint256"
        },
        {
          "internalType": "address[]",
          "name": "",
          "type": "address[]"
        }
      ],
      "stateMutability": "view",
      "type": "function"
    },
    {
      "inputs": [
        {
          "internalType": "bool",
          "name": "addedORremove",
          "type": "bool"
        }
      ],
      "name": "retrievePendingOwners",
      "outputs": [
        {
          "internalType": "address[]",
          "name": "",
          "type": "address[]"
        }
      ],
      "stateMutability": "view",
      "type": "function"
    },
    {
      "inputs": [],
      "name": "validateMinOwners",
      "outputs": [],
      "stateMutability": "nonpayable",
      "type": "function"
    },
    {
      "inputs": [
        {
          "internalType": "address",
          "name": "owner",
          "type": "address"
        }
      ],
      "name": "validateOwner",
      "outputs": [],
      "stateMutability": "nonpayable",
      "type": "function"
    },
    {
      "inputs": [
        {
          "internalType": "address[]",
          "name": "owners",
          "type": "address[]"
        },
        {
          "internalType": "uint256",
          "name": "minOwners",
          "type": "uint256"
        },
        {
          "internalType": "address",
          "name": "managerContractAddress",
          "type": "address"
        }
      ],
      "name": "PublicPool_init",
      "outputs": [],
      "stateMutability": "nonpayable",
      "type": "function"
    },
    {
      "inputs": [
        {
          "internalType": "address",
          "name": "owner",
          "type": "address"
        },
        {
          "internalType": "string",
          "name": "name",
          "type": "string"
        },
        {
          "internalType": "string",
          "name": "symbol",
          "type": "string"
        },
        {
          "internalType": "enum Library.PaymentPlans",
          "name": "paymentPlan",
          "type": "uint8"
        }
      ],
      "name": "requestIssuer",
      "outputs": [
        {
          "internalType": "uint256",
          "name": "",
          "type": "uint256"
        }
      ],
      "stateMutability": "payable",
      "type": "function"
    },
    {
      "inputs": [
        {
          "internalType": "uint256",
          "name": "id",
          "type": "uint256"
        }
      ],
      "name": "validateIssuer",
      "outputs": [],
      "stateMutability": "nonpayable",
      "type": "function"
    },
    {
      "inputs": [
        {
          "internalType": "uint256",
          "name": "id",
          "type": "uint256"
        }
      ],
      "name": "rejectIssuer",
      "outputs": [],
      "stateMutability": "nonpayable",
      "type": "function"
    },
    {
      "inputs": [],
      "name": "retrieveIssuers",
      "outputs": [
        {
          "internalType": "uint256[]",
          "name": "",
          "type": "uint256[]"
        }
      ],
      "stateMutability": "view",
      "type": "function"
    },
    {
      "inputs": [
        {
          "internalType": "uint256",
          "name": "id",
          "type": "uint256"
        }
      ],
      "name": "retrieveNFTMarketForIssuer",
      "outputs": [
        {
          "internalType": "address",
          "name": "",
          "type": "address"
        }
      ],
      "stateMutability": "view",
      "type": "function"
    },
    {
      "inputs": [],
      "name": "retrievePendingIssuers",
      "outputs": [
        {
          "internalType": "uint256[]",
          "name": "",
          "type": "uint256[]"
        }
      ],
      "stateMutability": "view",
      "type": "function"
    },
    {
      "inputs": [
        {
          "internalType": "uint256",
          "name": "id",
          "type": "uint256"
        }
      ],
      "name": "retrievePendingIssuer",
      "outputs": [
        {
          "components": [
            {
              "components": [
                {
                  "internalType": "address",
                  "name": "owner",
                  "type": "address"
                },
                {
                  "internalType": "string",
                  "name": "name",
                  "type": "string"
                },
                {
                  "internalType": "string",
                  "name": "symbol",
                  "type": "string"
                },
                {
                  "internalType": "enum Library.PaymentPlans",
                  "name": "paymentPlan",
                  "type": "uint8"
                }
              ],
              "internalType": "struct ItemsLibrary._issuerStruct",
              "name": "issuer",
              "type": "tuple"
            },
            {
              "internalType": "address[]",
              "name": "_Validations",
              "type": "address[]"
            },
            {
              "internalType": "address[]",
              "name": "_Rejections",
              "type": "address[]"
            }
          ],
          "internalType": "struct ItemsLibrary._pendingIssuerStruct",
          "name": "",
          "type": "tuple"
        }
      ],
      "stateMutability": "view",
      "type": "function"
    }
  ],
  "bytecode": "0x608060405234801561001057600080fd5b50612ee2806100206000396000f3fe60806040526004361061014b5760003560e01c80635b362e84116100b65780639fc444091161006f5780639fc4440914610490578063a93d5ed6146104c0578063c3079ae7146104eb578063c66433ea14610502578063ce33d58a1461052b578063d0e13918146105545761014b565b80635b362e841461036e57806365b973e5146103995780636b299604146103c45780637065cb481461040157806376f8f90f1461042a5780639190a520146104535761014b565b80632edbe7fc116101085780632edbe7fc1461028257806330ade922146102ad57806334f29207146102c4578063430c37cb146102ed578063538b6aad146103165780635888ebb3146103415761014b565b806303231e5d14610150578063094a0ed21461018d5780630bee185e146101ca578063173825d9146101f357806322cd30c31461021c578063280931e714610259575b600080fd5b34801561015c57600080fd5b5061017760048036038101906101729190612208565b61057f565b6040516101849190612664565b60405180910390f35b34801561019957600080fd5b506101b460048036038101906101af9190612208565b610586565b6040516101c191906127ce565b60405180910390f35b3480156101d657600080fd5b506101f160048036038101906101ec91906120e3565b610593565b005b3480156101ff57600080fd5b5061021a60048036038101906102159190612017565b6107b4565b005b34801561022857600080fd5b50610243600480360381019061023e9190612017565b6107f7565b60405161025091906126f3565b60405180910390f35b34801561026557600080fd5b50610280600480360381019061027b9190612208565b6108b5565b005b34801561028e57600080fd5b506102976108b8565b6040516102a491906127f0565b60405180910390f35b3480156102b957600080fd5b506102c26108c2565b005b3480156102d057600080fd5b506102eb60048036038101906102e69190612208565b6108ce565b005b3480156102f957600080fd5b50610314600480360381019061030f919061213f565b6108d1565b005b34801561032257600080fd5b5061032b6109cb565b60405161033891906126d1565b60405180910390f35b34801561034d57600080fd5b506103566109d0565b60405161036593929190612886565b60405180910390f35b34801561037a57600080fd5b50610383610a70565b6040516103909190612664565b60405180910390f35b3480156103a557600080fd5b506103ae610a9a565b6040516103bb91906127f0565b60405180910390f35b3480156103d057600080fd5b506103eb60048036038101906103e691906121ae565b610aa4565b6040516103f891906126af565b60405180910390f35b34801561040d57600080fd5b5061042860048036038101906104239190612017565b610bcf565b005b34801561043657600080fd5b50610451600480360381019061044c9190612017565b610bef565b005b34801561045f57600080fd5b5061047a60048036038101906104759190612017565b610c6b565b60405161048791906126f3565b60405180910390f35b6104aa60048036038101906104a59190612044565b610d29565b6040516104b791906127f0565b60405180910390f35b3480156104cc57600080fd5b506104d5610d33565b6040516104e291906126af565b60405180910390f35b3480156104f757600080fd5b50610500610dc3565b005b34801561050e57600080fd5b5061052960048036038101906105249190612208565b610dcf565b005b34801561053757600080fd5b50610552600480360381019061054d9190612017565b610e22565b005b34801561056057600080fd5b50610569610e30565b60405161057691906126d1565b60405180910390f35b6000919050565b61058e611deb565b919050565b600060019054906101000a900460ff166105bb5760008054906101000a900460ff16156105c4565b6105c3610e35565b5b610603576040517f08c379a00000000000000000000000000000000000000000000000000000000081526004016105fa9061274e565b60405180910390fd5b60008060019054906101000a900460ff161590508015610653576001600060016101000a81548160ff02191690831515021790555060016000806101000a81548160ff0219169083151502179055505b8183516106608282610e46565b60018461066d8282610e46565b8560058190555060005b87518110156107895760018060000160008a848151811061069b5761069a612c7f565b5b602002602001015173ffffffffffffffffffffffffffffffffffffffff1673ffffffffffffffffffffffffffffffffffffffff16815260200190815260200160002060000160006101000a81548160ff0219169083151502179055506001800188828151811061070e5761070d612c7f565b5b60200260200101519080600181540180825580915050600190039060005260206000200160009091909190916101000a81548173ffffffffffffffffffffffffffffffffffffffff021916908373ffffffffffffffffffffffffffffffffffffffff160217905550808061078190612bd8565b915050610677565b505050505080156107af5760008060016101000a81548160ff0219169083151502179055505b505050565b8060016107c18282610e8d565b600554600180600101805490506107d89190612a8a565b6107e28282610e46565b6107f0856001600301610edf565b5050505050565b60006001600301600160000160008473ffffffffffffffffffffffffffffffffffffffff1673ffffffffffffffffffffffffffffffffffffffff168152602001908152602001600020600201548154811061085557610854612c7f565b5b9060005260206000200160009054906101000a900473ffffffffffffffffffffffffffffffffffffffff1673ffffffffffffffffffffffffffffffffffffffff168273ffffffffffffffffffffffffffffffffffffffff16149050919050565b50565b6000600654905090565b6108cc6001610fce565b565b50565b600060019054906101000a900460ff166108f95760008054906101000a900460ff1615610902565b610901610e35565b5b610941576040517f08c379a00000000000000000000000000000000000000000000000000000000081526004016109389061274e565b60405180910390fd5b60008060019054906101000a900460ff161590508015610991576001600060016101000a81548160ff02191690831515021790555060016000806101000a81548160ff0219169083151502179055505b61099b8484610593565b6109a4826110aa565b80156109c55760008060016101000a81548160ff0219169083151502179055505b50505050565b606090565b6000806060600754600854600980805480602002602001604051908101604052809291908181526020018280548015610a5e57602002820191906000526020600020905b8160009054906101000a900473ffffffffffffffffffffffffffffffffffffffff1673ffffffffffffffffffffffffffffffffffffffff1681526020019060010190808311610a14575b50505050509050925092509250909192565b6000600a60009054906101000a900473ffffffffffffffffffffffffffffffffffffffff16905090565b6000600554905090565b60608115610b3d576001600201805480602002602001604051908101604052809291908181526020018280548015610b3157602002820191906000526020600020905b8160009054906101000a900473ffffffffffffffffffffffffffffffffffffffff1673ffffffffffffffffffffffffffffffffffffffff1681526020019060010190808311610ae7575b50505050509050610bca565b6001600301805480602002602001604051908101604052809291908181526020018280548015610bc257602002820191906000526020600020905b8160009054906101000a900473ffffffffffffffffffffffffffffffffffffffff1673ffffffffffffffffffffffffffffffffffffffff1681526020019060010190808311610b78575b505050505090505b919050565b806000610bdc8282610e8d565b610bea836001600201610edf565b505050565b610bf8816107f7565b1515600115151415610c5d5760018060010180549050610c189190612a8a565b6005541115610c5c576040517f08c379a0000000000000000000000000000000000000000000000000000000008152600401610c539061270e565b60405180910390fd5b5b610c688160016111d0565b50565b60006001600201600160000160008473ffffffffffffffffffffffffffffffffffffffff1673ffffffffffffffffffffffffffffffffffffffff1681526020019081526020016000206002015481548110610cc957610cc8612c7f565b5b9060005260206000200160009054906101000a900473ffffffffffffffffffffffffffffffffffffffff1673ffffffffffffffffffffffffffffffffffffffff168273ffffffffffffffffffffffffffffffffffffffff16149050919050565b6000949350505050565b606060018001805480602002602001604051908101604052809291908181526020018280548015610db957602002820191906000526020600020905b8160009054906101000a900473ffffffffffffffffffffffffffffffffffffffff1673ffffffffffffffffffffffffffffffffffffffff1681526020019060010190808311610d6f575b5050505050905090565b610dcd6000610fce565b565b336001610ddc8282610e8d565b6000610de781611771565b836001800180549050610dfa8282610e46565b600186610e078282610e46565b87600681905550610e186001610fce565b5050505050505050565b610e2d8160006111d0565b50565b606090565b6000610e403061180b565b15905090565b80821115610e89576040517f08c379a0000000000000000000000000000000000000000000000000000000008152600401610e809061270e565b60405180910390fd5b5050565b610e968261181e565b151581151514610edb576040517f08c379a0000000000000000000000000000000000000000000000000000000008152600401610ed29061278e565b60405180910390fd5b5050565b336001610eec8282610e8d565b836000610ef9828261187a565b84869080600181540180825580915050600190039060005260206000200160009091909190916101000a81548173ffffffffffffffffffffffffffffffffffffffff021916908373ffffffffffffffffffffffffffffffffffffffff160217905550600060018680549050610f6e9190612a8a565b905080600160000160008973ffffffffffffffffffffffffffffffffffffffff1673ffffffffffffffffffffffffffffffffffffffff16815260200190815260200160002060020181905550610fc58760016111d0565b50505050505050565b336001610fdb8282610e8d565b6001610fe681611771565b3360006001610ff68383836118dc565b861561101b5760016007600082825461100f9190612a34565b92505081905550611036565b60016008600082825461102e9190612a34565b925050819055505b6009339080600181540180825580915050600190039060005260206000200160009091909190916101000a81548173ffffffffffffffffffffffffffffffffffffffff021916908373ffffffffffffffffffffffffffffffffffffffff1602179055506110a1611a05565b50505050505050565b600060019054906101000a900460ff166110d25760008054906101000a900460ff16156110db565b6110da610e35565b5b61111a576040517f08c379a00000000000000000000000000000000000000000000000000000000081526004016111119061274e565b60405180910390fd5b60008060019054906101000a900460ff16159050801561116a576001600060016101000a81548160ff02191690831515021790555060016000806101000a81548160ff0219169083151502179055505b81600a60006101000a81548173ffffffffffffffffffffffffffffffffffffffff021916908373ffffffffffffffffffffffffffffffffffffffff16021790555080156111cc5760008060016101000a81548160ff0219169083151502179055505b5050565b3360016111dd8282610e8d565b8360016111ea828261187a565b338660006111f98383836118dc565b600160000160008a73ffffffffffffffffffffffffffffffffffffffff1673ffffffffffffffffffffffffffffffffffffffff168152602001908152602001600020600501339080600181540180825580915050600190039060005260206000200160009091909190916101000a81548173ffffffffffffffffffffffffffffffffffffffff021916908373ffffffffffffffffffffffffffffffffffffffff160217905550871561169157600160000160008a73ffffffffffffffffffffffffffffffffffffffff1673ffffffffffffffffffffffffffffffffffffffff16815260200190815260200160002060030160008154809291906112fb90612bd8565b9190505550600554600160000160008b73ffffffffffffffffffffffffffffffffffffffff1673ffffffffffffffffffffffffffffffffffffffff168152602001908152602001600020600301541061168c576000600160030190506113608a610c6b565b156114905760016002019050600180018a9080600181540180825580915050600190039060005260206000200160009091909190916101000a81548173ffffffffffffffffffffffffffffffffffffffff021916908373ffffffffffffffffffffffffffffffffffffffff16021790555060018060000160008c73ffffffffffffffffffffffffffffffffffffffff1673ffffffffffffffffffffffffffffffffffffffff16815260200190815260200160002060000160006101000a81548160ff021916908315150217905550600180600101805490506114429190612a8a565b600160000160008c73ffffffffffffffffffffffffffffffffffffffff1673ffffffffffffffffffffffffffffffffffffffff16815260200190815260200160002060010181905550611680565b6000600160000160008c73ffffffffffffffffffffffffffffffffffffffff1673ffffffffffffffffffffffffffffffffffffffff16815260200190815260200160002060010154905073__AddressLibrary________________________637873833e82600180016040518363ffffffff1660e01b815260040161151692919061280b565b60006040518083038186803b15801561152e57600080fd5b505af4158015611542573d6000803e3d6000fd5b5050505080600180018054905011156115e057806001600001600060018001848154811061157357611572612c7f565b5b9060005260206000200160009054906101000a900473ffffffffffffffffffffffffffffffffffffffff1673ffffffffffffffffffffffffffffffffffffffff1673ffffffffffffffffffffffffffffffffffffffff168152602001908152602001600020600101819055505b600160000160008c73ffffffffffffffffffffffffffffffffffffffff1673ffffffffffffffffffffffffffffffffffffffff16815260200190815260200160002060000160006101000a81549060ff0219169055600160000160008c73ffffffffffffffffffffffffffffffffffffffff1673ffffffffffffffffffffffffffffffffffffffff16815260200190815260200160002060010160009055505b61168a8a82611b4b565b505b611766565b600160000160008a73ffffffffffffffffffffffffffffffffffffffff1673ffffffffffffffffffffffffffffffffffffffff16815260200190815260200160002060040160008154809291906116e790612bd8565b9190505550600554600160000160008b73ffffffffffffffffffffffffffffffffffffffff1673ffffffffffffffffffffffffffffffffffffffff16815260200190815260200160002060040154106117655760006001600301905061174c8a610c6b565b1561175957600160020190505b6117638a82611b4b565b505b5b505050505050505050565b80156117c257600654600014156117bd576040517f08c379a00000000000000000000000000000000000000000000000000000000081526004016117b49061272e565b60405180910390fd5b611808565b600654600014611807576040517f08c379a00000000000000000000000000000000000000000000000000000000081526004016117fe9061276e565b60405180910390fd5b5b50565b600080823b905060008111915050919050565b6000600160000160008373ffffffffffffffffffffffffffffffffffffffff1673ffffffffffffffffffffffffffffffffffffffff16815260200190815260200160002060000160009054906101000a900460ff169050919050565b61188382610c6b565b806118935750611892826107f7565b5b1515811515146118d8576040517f08c379a00000000000000000000000000000000000000000000000000000000081526004016118cf9061278e565b60405180910390fd5b5050565b6000600160000160008473ffffffffffffffffffffffffffffffffffffffff1673ffffffffffffffffffffffffffffffffffffffff1681526020019081526020016000206005019050811561193057600990505b73__AddressLibrary________________________63f7cf62d785836040518363ffffffff1660e01b815260040161196992919061267f565b60206040518083038186803b15801561198157600080fd5b505af4158015611995573d6000803e3d6000fd5b505050506040513d601f19601f820116820180604052508101906119b991906121db565b151560001515146119ff576040517f08c379a00000000000000000000000000000000000000000000000000000000081526004016119f6906127ae565b60405180910390fd5b50505050565b73__ItemsLibrary__________________________63f6001d7d6007546005546040518363ffffffff1660e01b8152600401611a4292919061285d565b60206040518083038186803b158015611a5a57600080fd5b505af4158015611a6e573d6000803e3d6000fd5b505050506040513d601f19601f82011682018060405250810190611a9291906121db565b15611aad57600654600581905550611aa8611dc3565b611b49565b73__ItemsLibrary__________________________63f6001d7d6008546005546040518363ffffffff1660e01b8152600401611aea92919061285d565b60206040518083038186803b158015611b0257600080fd5b505af4158015611b16573d6000803e3d6000fd5b505050506040513d601f19601f82011682018060405250810190611b3a91906121db565b15611b4857611b47611dc3565b5b5b565b6000600160000160008473ffffffffffffffffffffffffffffffffffffffff1673ffffffffffffffffffffffffffffffffffffffff16815260200190815260200160002060020154905073__AddressLibrary________________________637873833e82846040518363ffffffff1660e01b8152600401611bce929190612834565b60006040518083038186803b158015611be657600080fd5b505af4158015611bfa573d6000803e3d6000fd5b505050508082805490501115611c92578060016000016000848481548110611c2557611c24612c7f565b5b9060005260206000200160009054906101000a900473ffffffffffffffffffffffffffffffffffffffff1673ffffffffffffffffffffffffffffffffffffffff1673ffffffffffffffffffffffffffffffffffffffff168152602001908152602001600020600201819055505b600160000160008473ffffffffffffffffffffffffffffffffffffffff1673ffffffffffffffffffffffffffffffffffffffff16815260200190815260200160002060020160009055600160000160008473ffffffffffffffffffffffffffffffffffffffff1673ffffffffffffffffffffffffffffffffffffffff16815260200190815260200160002060030160009055600160000160008473ffffffffffffffffffffffffffffffffffffffff1673ffffffffffffffffffffffffffffffffffffffff16815260200190815260200160002060040160009055600160000160008473ffffffffffffffffffffffffffffffffffffffff1673ffffffffffffffffffffffffffffffffffffffff1681526020019081526020016000206005016000611dbe9190611e12565b505050565b60006006819055506000600781905550600060088190555060096000611de99190611e12565b565b6040518060600160405280611dfe611e33565b815260200160608152602001606081525090565b5080546000825590600052602060002090810190611e309190611e83565b50565b6040518060800160405280600073ffffffffffffffffffffffffffffffffffffffff168152602001606081526020016060815260200160006001811115611e7d57611e7c612c50565b5b81525090565b5b80821115611e9c576000816000905550600101611e84565b5090565b6000611eb3611eae846128e9565b6128c4565b90508083825260208201905082856020860282011115611ed657611ed5612cf5565b5b60005b85811015611f065781611eec8882611f52565b845260208401935060208301925050600181019050611ed9565b5050509392505050565b6000611f23611f1e84612915565b6128c4565b905082815260208101848484011115611f3f57611f3e612cfa565b5b611f4a848285612b4b565b509392505050565b600081359050611f6181612e57565b92915050565b600082601f830112611f7c57611f7b612cf0565b5b8135611f8c848260208601611ea0565b91505092915050565b600081359050611fa481612e6e565b92915050565b600081519050611fb981612e6e565b92915050565b600081359050611fce81612e85565b92915050565b600082601f830112611fe957611fe8612cf0565b5b8135611ff9848260208601611f10565b91505092915050565b60008135905061201181612e95565b92915050565b60006020828403121561202d5761202c612d04565b5b600061203b84828501611f52565b91505092915050565b6000806000806080858703121561205e5761205d612d04565b5b600061206c87828801611f52565b945050602085013567ffffffffffffffff81111561208d5761208c612cff565b5b61209987828801611fd4565b935050604085013567ffffffffffffffff8111156120ba576120b9612cff565b5b6120c687828801611fd4565b92505060606120d787828801611fbf565b91505092959194509250565b600080604083850312156120fa576120f9612d04565b5b600083013567ffffffffffffffff81111561211857612117612cff565b5b61212485828601611f67565b925050602061213585828601612002565b9150509250929050565b60008060006060848603121561215857612157612d04565b5b600084013567ffffffffffffffff81111561217657612175612cff565b5b61218286828701611f67565b935050602061219386828701612002565b92505060406121a486828701611f52565b9150509250925092565b6000602082840312156121c4576121c3612d04565b5b60006121d284828501611f95565b91505092915050565b6000602082840312156121f1576121f0612d04565b5b60006121ff84828501611faa565b91505092915050565b60006020828403121561221e5761221d612d04565b5b600061222c84828501612002565b91505092915050565b6000612241838361227d565b60208301905092915050565b600061225983836122aa565b60208301905092915050565b60006122718383612637565b60208301905092915050565b61228681612ade565b82525050565b61229581612ade565b82525050565b6122a481612ade565b82525050565b6122b381612ade565b82525050565b60006122c48261297b565b6122ce81856129ce565b93506122d983612946565b8060005b8381101561230a5781516122f18882612235565b97506122fc836129a7565b9250506001810190506122dd565b5085935050505092915050565b60006123228261297b565b61232c81856129df565b935061233783612946565b8060005b8381101561236857815161234f8882612235565b975061235a836129a7565b92505060018101905061233b565b5085935050505092915050565b600061238082612986565b61238a81856129f0565b935061239583612956565b8060005b838110156123cd576123aa82612cdd565b6123b4888261224d565b97506123bf836129b4565b925050600181019050612399565b5085935050505092915050565b8082525050565b8082525050565b60006123f382612991565b6123fd8185612a01565b93506124088361296b565b8060005b838110156124395781516124208882612265565b975061242b836129c1565b92505060018101905061240c565b5085935050505092915050565b61244f81612af0565b82525050565b61245e81612b39565b82525050565b600061246f8261299c565b6124798185612a12565b9350612489818560208601612b5a565b61249281612d09565b840191505092915050565b60006124aa600583612a23565b91506124b582612d27565b602082019050919050565b60006124cd600583612a23565b91506124d882612d50565b602082019050919050565b60006124f0602e83612a23565b91506124fb82612d79565b604082019050919050565b6000612513600583612a23565b915061251e82612dc8565b602082019050919050565b6000612536600483612a23565b915061254182612df1565b602082019050919050565b6000612559600483612a23565b915061256482612e1a565b602082019050919050565b6000608083016000830151612587600086018261227d565b506020830151848203602086015261259f8282612464565b915050604083015184820360408601526125b98282612464565b91505060608301516125ce6060860182612455565b508091505092915050565b600060608301600083015184820360008601526125f6828261256f565b9150506020830151848203602086015261261082826122b9565b9150506040830151848203604086015261262a82826122b9565b9150508091505092915050565b61264081612b2f565b82525050565b61264f81612b2f565b82525050565b61265e81612b2f565b82525050565b6000602082019050612679600083018461228c565b92915050565b6000604082019050612694600083018561229b565b81810360208301526126a68184612375565b90509392505050565b600060208201905081810360008301526126c98184612317565b905092915050565b600060208201905081810360008301526126eb81846123e8565b905092915050565b60006020820190506127086000830184612446565b92915050565b600060208201905081810360008301526127278161249d565b9050919050565b60006020820190508181036000830152612747816124c0565b9050919050565b60006020820190508181036000830152612767816124e3565b9050919050565b6000602082019050818103600083015261278781612506565b9050919050565b600060208201905081810360008301526127a781612529565b9050919050565b600060208201905081810360008301526127c78161254c565b9050919050565b600060208201905081810360008301526127e881846125d9565b905092915050565b60006020820190506128056000830184612646565b92915050565b60006040820190506128206000830185612655565b61282d60208301846123e1565b9392505050565b60006040820190506128496000830185612655565b61285660208301846123da565b9392505050565b60006040820190506128726000830185612655565b61287f6020830184612655565b9392505050565b600060608201905061289b6000830186612646565b6128a86020830185612646565b81810360408301526128ba8184612317565b9050949350505050565b60006128ce6128df565b90506128da8282612ba7565b919050565b6000604051905090565b600067ffffffffffffffff82111561290457612903612cae565b5b602082029050602081019050919050565b600067ffffffffffffffff8211156129305761292f612cae565b5b61293982612d09565b9050602081019050919050565b6000819050602082019050919050565b60008190508160005260206000209050919050565b6000819050602082019050919050565b600081519050919050565b600081549050919050565b600081519050919050565b600081519050919050565b6000602082019050919050565b6000600182019050919050565b6000602082019050919050565b600082825260208201905092915050565b600082825260208201905092915050565b600082825260208201905092915050565b600082825260208201905092915050565b600082825260208201905092915050565b600082825260208201905092915050565b6000612a3f82612b2f565b9150612a4a83612b2f565b9250827fffffffffffffffffffffffffffffffffffffffffffffffffffffffffffffffff03821115612a7f57612a7e612c21565b5b828201905092915050565b6000612a9582612b2f565b9150612aa083612b2f565b925082821015612ab357612ab2612c21565b5b828203905092915050565b600073ffffffffffffffffffffffffffffffffffffffff82169050919050565b6000612ae982612b0f565b9050919050565b60008115159050919050565b6000819050612b0a82612e43565b919050565b600073ffffffffffffffffffffffffffffffffffffffff82169050919050565b6000819050919050565b6000612b4482612afc565b9050919050565b82818337600083830152505050565b60005b83811015612b78578082015181840152602081019050612b5d565b83811115612b87576000848401525b50505050565b6000612ba0612b9b83612d1a565b612abe565b9050919050565b612bb082612d09565b810181811067ffffffffffffffff82111715612bcf57612bce612cae565b5b80604052505050565b6000612be382612b2f565b91507fffffffffffffffffffffffffffffffffffffffffffffffffffffffffffffffff821415612c1657612c15612c21565b5b600182019050919050565b7f4e487b7100000000000000000000000000000000000000000000000000000000600052601160045260246000fd5b7f4e487b7100000000000000000000000000000000000000000000000000000000600052602160045260246000fd5b7f4e487b7100000000000000000000000000000000000000000000000000000000600052603260045260246000fd5b7f4e487b7100000000000000000000000000000000000000000000000000000000600052604160045260246000fd5b6000612ce98254612b8d565b9050919050565b600080fd5b600080fd5b600080fd5b600080fd5b600080fd5b6000601f19601f8301169050919050565b60008160001c9050919050565b7f454331392d000000000000000000000000000000000000000000000000000000600082015250565b7f454333312d000000000000000000000000000000000000000000000000000000600082015250565b7f496e697469616c697a61626c653a20636f6e747261637420697320616c72656160008201527f647920696e697469616c697a6564000000000000000000000000000000000000602082015250565b7f454333302d000000000000000000000000000000000000000000000000000000600082015250565b7f4543392d00000000000000000000000000000000000000000000000000000000600082015250565b7f4543352d00000000000000000000000000000000000000000000000000000000600082015250565b60028110612e5457612e53612c50565b5b50565b612e6081612ade565b8114612e6b57600080fd5b50565b612e7781612af0565b8114612e8257600080fd5b50565b60028110612e9257600080fd5b50565b612e9e81612b2f565b8114612ea957600080fd5b5056fea2646970667358221220f96893a99c7ebb68346764006b395537c51cb0e46b3bc835d21a526c35cab3de64736f6c63430008070033",
  "immutableReferences": {},
  "source": "// SPDX-License-Identifier: GPL-3.0\r\n\r\npragma solidity 0.8.7;\r\n\r\n/**\r\n Certis Token is an ERC20 Token that grants its holder the right to:\r\n   - Vote on all the systems propositions (changing system configuraiton etc...)\r\n   - Receive Dividends for all the payments forwarded to the Treasury contract\r\n\r\nBefore every token transfer we contact the token gouvernance Base contracts so that the can update the tokens used for voting if needed\r\n\r\n */\r\n\r\nimport \"@openzeppelin/contracts-upgradeable/proxy/utils/Initializable.sol\";\r\nimport \"../Interfaces/IPool.sol\";\r\nimport \"../Base/ManagedBaseContract.sol\";\r\nimport \"../Base/MultiSigContract.sol\";\r\n\r\n\r\n contract PublicPool is  Initializable, MultiSigContract, ManagedBaseContract, IPool {\r\n\r\n  // EVENTS /////////////////////////////////////////\r\n    event _NewRequest(address indexed owner, string name, string symbol);\r\n\r\n  // DATA /////////////////////////////////////////\r\n\r\n  // MODIFIERS /////////////////////////////////////////\r\n \r\n\r\n  // CONSTRUCTOR /////////////////////////////////////////\r\n  function PublicPool_init(address[] memory owners,  uint256 minOwners, address managerContractAddress) public initializer {\r\n      super.MultiSigContract_init(owners, minOwners); \r\n      super.ManagedBaseContract_init(managerContractAddress); \r\n  }\r\n\r\n  // FUNCTIONALITY /////////////////////////////////////////\r\n  function requestIssuer(address owner, string memory name, string memory symbol, Library.PaymentPlans paymentPlan) external override payable returns (uint)\r\n  {\r\n    return 0;\r\n  }\r\n\r\n  function validateIssuer(uint id) external override\r\n  {\r\n  }\r\n\r\n  function rejectIssuer(uint id) external override\r\n  {\r\n  }\r\n\r\n  function retrieveIssuers() external override view returns (uint[] memory)\r\n  {\r\n    \r\n  }\r\n\r\n  function retrieveNFTMarketForIssuer(uint id) external override view returns (address)\r\n  {\r\n    return address(0);\r\n  }\r\n\r\n  function retrievePendingIssuers() external override view returns (uint[] memory)\r\n  {\r\n\r\n  }\r\n\r\n  function retrievePendingIssuer(uint id) external override view returns (ItemsLibrary._pendingIssuerStruct memory)\r\n  {\r\n\r\n  }\r\n\r\n\r\n\r\n }",
  "sourcePath": "C:\\Users\\d-aam\\GitHub\\Originals\\contracts\\MainContracts\\PublicPool.sol",
  "compiler": {
    "name": "solc",
    "version": "0.8.7+commit.e28d00a7.Emscripten.clang"
  },
  "schemaVersion": "3.4.3",
  "updatedAt": "2022-01-24T11:09:42.797Z",
  "devdoc": {
    "kind": "dev",
    "methods": {},
    "version": 1
  },
  "userdoc": {
    "kind": "user",
    "methods": {},
    "version": 1
  }
}