{
  "contractName": "PublicPool",
  "abi": [
    {
      "anonymous": false,
      "inputs": [
        {
          "indexed": false,
          "internalType": "address",
          "name": "owner",
          "type": "address"
        }
      ],
      "name": "_AddOwnerRejection",
      "type": "event"
    },
    {
      "anonymous": false,
      "inputs": [
        {
          "indexed": false,
          "internalType": "address",
          "name": "owner",
          "type": "address"
        }
      ],
      "name": "_AddOwnerValidation",
      "type": "event"
    },
    {
      "anonymous": false,
      "inputs": [
        {
          "indexed": true,
          "internalType": "uint256",
          "name": "NFTMarketId",
          "type": "uint256"
        },
        {
          "indexed": true,
          "internalType": "uint256",
          "name": "tokenID",
          "type": "uint256"
        },
        {
          "indexed": true,
          "internalType": "address",
          "name": "receiver",
          "type": "address"
        },
        {
          "indexed": false,
          "internalType": "uint256",
          "name": "amount",
          "type": "uint256"
        },
        {
          "indexed": false,
          "internalType": "uint256",
          "name": "factor",
          "type": "uint256"
        },
        {
          "indexed": false,
          "internalType": "uint256",
          "name": "paymentTokenID",
          "type": "uint256"
        }
      ],
      "name": "_CreditAssigned",
      "type": "event"
    },
    {
      "anonymous": false,
      "inputs": [
        {
          "indexed": true,
          "internalType": "address",
          "name": "receiver",
          "type": "address"
        },
        {
          "indexed": false,
          "internalType": "uint256",
          "name": "amount",
          "type": "uint256"
        },
        {
          "indexed": true,
          "internalType": "address",
          "name": "sender",
          "type": "address"
        },
        {
          "indexed": false,
          "internalType": "uint256",
          "name": "paymentTokenID",
          "type": "uint256"
        }
      ],
      "name": "_CreditReceived",
      "type": "event"
    },
    {
      "anonymous": false,
      "inputs": [
        {
          "indexed": true,
          "internalType": "uint256",
          "name": "NFTMarketId",
          "type": "uint256"
        },
        {
          "indexed": true,
          "internalType": "uint256",
          "name": "tokenID",
          "type": "uint256"
        },
        {
          "indexed": true,
          "internalType": "address",
          "name": "creditor",
          "type": "address"
        },
        {
          "indexed": false,
          "internalType": "uint256",
          "name": "amount",
          "type": "uint256"
        },
        {
          "indexed": false,
          "internalType": "uint256",
          "name": "paymentTokenID",
          "type": "uint256"
        }
      ],
      "name": "_CreditReused",
      "type": "event"
    },
    {
      "anonymous": false,
      "inputs": [
        {
          "indexed": true,
          "internalType": "uint256",
          "name": "NFTMarketId",
          "type": "uint256"
        },
        {
          "indexed": true,
          "internalType": "address",
          "name": "from",
          "type": "address"
        },
        {
          "indexed": false,
          "internalType": "uint256",
          "name": "amount",
          "type": "uint256"
        },
        {
          "indexed": true,
          "internalType": "address",
          "name": "to",
          "type": "address"
        },
        {
          "indexed": false,
          "internalType": "uint256",
          "name": "paymentTokenID",
          "type": "uint256"
        }
      ],
      "name": "_CreditSpent",
      "type": "event"
    },
    {
      "anonymous": false,
      "inputs": [
        {
          "indexed": true,
          "internalType": "uint256",
          "name": "NFTMarketId",
          "type": "uint256"
        },
        {
          "indexed": true,
          "internalType": "uint256",
          "name": "tokenID",
          "type": "uint256"
        },
        {
          "indexed": false,
          "internalType": "uint256",
          "name": "amount",
          "type": "uint256"
        },
        {
          "indexed": false,
          "internalType": "uint256",
          "name": "paymentTokenID",
          "type": "uint256"
        }
      ],
      "name": "_CreditUnAssignedReceived",
      "type": "event"
    },
    {
      "anonymous": false,
      "inputs": [
        {
          "indexed": true,
          "internalType": "address",
          "name": "withdrawer",
          "type": "address"
        },
        {
          "indexed": false,
          "internalType": "uint256",
          "name": "amount",
          "type": "uint256"
        },
        {
          "indexed": false,
          "internalType": "uint256",
          "name": "paymentTokenID",
          "type": "uint256"
        }
      ],
      "name": "_CreditWithdrawn",
      "type": "event"
    },
    {
      "anonymous": false,
      "inputs": [
        {
          "indexed": true,
          "internalType": "address",
          "name": "withdrawer",
          "type": "address"
        },
        {
          "indexed": false,
          "internalType": "uint256",
          "name": "amount",
          "type": "uint256"
        },
        {
          "indexed": true,
          "internalType": "address",
          "name": "sender",
          "type": "address"
        },
        {
          "indexed": false,
          "internalType": "uint256",
          "name": "paymentTokenID",
          "type": "uint256"
        }
      ],
      "name": "_CreditWithdrawnFor",
      "type": "event"
    },
    {
      "anonymous": false,
      "inputs": [
        {
          "indexed": true,
          "internalType": "uint256",
          "name": "id",
          "type": "uint256"
        }
      ],
      "name": "_IssuerRejection",
      "type": "event"
    },
    {
      "anonymous": false,
      "inputs": [
        {
          "indexed": true,
          "internalType": "uint256",
          "name": "id",
          "type": "uint256"
        },
        {
          "indexed": false,
          "internalType": "address",
          "name": "NFTMarket",
          "type": "address"
        }
      ],
      "name": "_IssuerValidation",
      "type": "event"
    },
    {
      "anonymous": false,
      "inputs": [
        {
          "indexed": false,
          "internalType": "uint256",
          "name": "minOwner",
          "type": "uint256"
        }
      ],
      "name": "_MinOwnerRejection",
      "type": "event"
    },
    {
      "anonymous": false,
      "inputs": [
        {
          "indexed": false,
          "internalType": "uint256",
          "name": "minOwner",
          "type": "uint256"
        }
      ],
      "name": "_MinOwnerValidation",
      "type": "event"
    },
    {
      "anonymous": false,
      "inputs": [
        {
          "indexed": true,
          "internalType": "uint256",
          "name": "id",
          "type": "uint256"
        },
        {
          "indexed": false,
          "internalType": "address",
          "name": "owner",
          "type": "address"
        },
        {
          "indexed": false,
          "internalType": "string",
          "name": "name",
          "type": "string"
        },
        {
          "indexed": false,
          "internalType": "string",
          "name": "symbol",
          "type": "string"
        },
        {
          "indexed": false,
          "internalType": "uint256",
          "name": "paymentTokenID",
          "type": "uint256"
        }
      ],
      "name": "_NewIssuerRequest",
      "type": "event"
    },
    {
      "anonymous": false,
      "inputs": [
        {
          "indexed": false,
          "internalType": "address",
          "name": "owner",
          "type": "address"
        }
      ],
      "name": "_RemoveOwnerRejection",
      "type": "event"
    },
    {
      "anonymous": false,
      "inputs": [
        {
          "indexed": false,
          "internalType": "address",
          "name": "owner",
          "type": "address"
        }
      ],
      "name": "_RemoveOwnerValidation",
      "type": "event"
    },
    {
      "anonymous": false,
      "inputs": [
        {
          "indexed": true,
          "internalType": "uint256",
          "name": "id",
          "type": "uint256"
        },
        {
          "indexed": false,
          "internalType": "address",
          "name": "voter",
          "type": "address"
        },
        {
          "indexed": false,
          "internalType": "bool",
          "name": "vote",
          "type": "bool"
        }
      ],
      "name": "_VoteForIssuer",
      "type": "event"
    },
    {
      "anonymous": false,
      "inputs": [
        {
          "indexed": false,
          "internalType": "uint256",
          "name": "minOwner",
          "type": "uint256"
        },
        {
          "indexed": false,
          "internalType": "address",
          "name": "voter",
          "type": "address"
        },
        {
          "indexed": false,
          "internalType": "bool",
          "name": "vote",
          "type": "bool"
        }
      ],
      "name": "_VoteForMinOwner",
      "type": "event"
    },
    {
      "anonymous": false,
      "inputs": [
        {
          "indexed": false,
          "internalType": "address",
          "name": "owner",
          "type": "address"
        },
        {
          "indexed": false,
          "internalType": "address",
          "name": "voter",
          "type": "address"
        },
        {
          "indexed": false,
          "internalType": "bool",
          "name": "vote",
          "type": "bool"
        }
      ],
      "name": "_VoteForOwner",
      "type": "event"
    },
    {
      "inputs": [
        {
          "internalType": "address",
          "name": "sender",
          "type": "address"
        },
        {
          "internalType": "uint256",
          "name": "amount",
          "type": "uint256"
        },
        {
          "internalType": "uint256",
          "name": "paymentTokenID",
          "type": "uint256"
        },
        {
          "internalType": "bytes",
          "name": "data",
          "type": "bytes"
        }
      ],
      "name": "CreditReceived",
      "outputs": [],
      "stateMutability": "nonpayable",
      "type": "function"
    },
    {
      "inputs": [
        {
          "internalType": "address[]",
          "name": "owners",
          "type": "address[]"
        },
        {
          "internalType": "uint256",
          "name": "minOwners",
          "type": "uint256"
        }
      ],
      "name": "MultiSigContract_init",
      "outputs": [],
      "stateMutability": "nonpayable",
      "type": "function"
    },
    {
      "inputs": [
        {
          "internalType": "address",
          "name": "owner",
          "type": "address"
        }
      ],
      "name": "addOwner",
      "outputs": [],
      "stateMutability": "nonpayable",
      "type": "function"
    },
    {
      "inputs": [
        {
          "internalType": "uint256",
          "name": "newMinOwners",
          "type": "uint256"
        }
      ],
      "name": "changeMinOwners",
      "outputs": [],
      "stateMutability": "nonpayable",
      "type": "function"
    },
    {
      "inputs": [],
      "name": "rejectMinOwners",
      "outputs": [],
      "stateMutability": "nonpayable",
      "type": "function"
    },
    {
      "inputs": [
        {
          "internalType": "address",
          "name": "owner",
          "type": "address"
        }
      ],
      "name": "rejectOwner",
      "outputs": [],
      "stateMutability": "nonpayable",
      "type": "function"
    },
    {
      "inputs": [
        {
          "internalType": "address",
          "name": "owner",
          "type": "address"
        }
      ],
      "name": "removeOwner",
      "outputs": [],
      "stateMutability": "nonpayable",
      "type": "function"
    },
    {
      "inputs": [],
      "name": "retrieveAllOwners",
      "outputs": [
        {
          "internalType": "address[]",
          "name": "",
          "type": "address[]"
        }
      ],
      "stateMutability": "view",
      "type": "function"
    },
    {
      "inputs": [],
      "name": "retrieveManagerContract",
      "outputs": [
        {
          "internalType": "address",
          "name": "",
          "type": "address"
        }
      ],
      "stateMutability": "view",
      "type": "function"
    },
    {
      "inputs": [],
      "name": "retrieveMinOwners",
      "outputs": [
        {
          "internalType": "uint256",
          "name": "",
          "type": "uint256"
        }
      ],
      "stateMutability": "view",
      "type": "function"
    },
    {
      "inputs": [],
      "name": "retrievePendingMinOwners",
      "outputs": [
        {
          "internalType": "uint256",
          "name": "",
          "type": "uint256"
        }
      ],
      "stateMutability": "view",
      "type": "function"
    },
    {
      "inputs": [],
      "name": "retrievePendingMinOwnersStatus",
      "outputs": [
        {
          "internalType": "uint256",
          "name": "",
          "type": "uint256"
        },
        {
          "internalType": "uint256",
          "name": "",
          "type": "uint256"
        },
        {
          "internalType": "address[]",
          "name": "",
          "type": "address[]"
        }
      ],
      "stateMutability": "view",
      "type": "function"
    },
    {
      "inputs": [
        {
          "internalType": "bool",
          "name": "addedORremove",
          "type": "bool"
        }
      ],
      "name": "retrievePendingOwners",
      "outputs": [
        {
          "internalType": "address[]",
          "name": "",
          "type": "address[]"
        }
      ],
      "stateMutability": "view",
      "type": "function"
    },
    {
      "inputs": [],
      "name": "validateMinOwners",
      "outputs": [],
      "stateMutability": "nonpayable",
      "type": "function"
    },
    {
      "inputs": [
        {
          "internalType": "address",
          "name": "owner",
          "type": "address"
        }
      ],
      "name": "validateOwner",
      "outputs": [],
      "stateMutability": "nonpayable",
      "type": "function"
    },
    {
      "inputs": [
        {
          "internalType": "address[]",
          "name": "owners",
          "type": "address[]"
        },
        {
          "internalType": "uint256",
          "name": "minOwners",
          "type": "uint256"
        },
        {
          "internalType": "address",
          "name": "managerContractAddress",
          "type": "address"
        }
      ],
      "name": "PublicPool_init",
      "outputs": [],
      "stateMutability": "nonpayable",
      "type": "function"
    },
    {
      "inputs": [
        {
          "components": [
            {
              "internalType": "address",
              "name": "_owner",
              "type": "address"
            },
            {
              "internalType": "string",
              "name": "_name",
              "type": "string"
            },
            {
              "internalType": "string",
              "name": "_symbol",
              "type": "string"
            },
            {
              "internalType": "uint256",
              "name": "_feeAmount",
              "type": "uint256"
            },
            {
              "internalType": "uint256",
              "name": "_feeDecimals",
              "type": "uint256"
            },
            {
              "internalType": "enum Library.PaymentPlans",
              "name": "_paymentPlan",
              "type": "uint8"
            }
          ],
          "internalType": "struct ItemsLibrary._issuerStruct",
          "name": "requestedIssuer",
          "type": "tuple"
        },
        {
          "internalType": "bool",
          "name": "FromCredit",
          "type": "bool"
        },
        {
          "internalType": "uint256",
          "name": "paymentTokenID",
          "type": "uint256"
        }
      ],
      "name": "requestIssuer",
      "outputs": [],
      "stateMutability": "nonpayable",
      "type": "function"
    },
    {
      "inputs": [
        {
          "internalType": "uint256",
          "name": "id",
          "type": "uint256"
        }
      ],
      "name": "validateIssuer",
      "outputs": [],
      "stateMutability": "nonpayable",
      "type": "function"
    },
    {
      "inputs": [
        {
          "internalType": "uint256",
          "name": "id",
          "type": "uint256"
        }
      ],
      "name": "rejectIssuer",
      "outputs": [],
      "stateMutability": "nonpayable",
      "type": "function"
    },
    {
      "inputs": [],
      "name": "retrieveIssuers",
      "outputs": [
        {
          "internalType": "uint256[]",
          "name": "",
          "type": "uint256[]"
        }
      ],
      "stateMutability": "view",
      "type": "function"
    },
    {
      "inputs": [
        {
          "internalType": "uint256",
          "name": "id",
          "type": "uint256"
        }
      ],
      "name": "retrieveNFTMarketForIssuer",
      "outputs": [
        {
          "internalType": "address",
          "name": "",
          "type": "address"
        }
      ],
      "stateMutability": "view",
      "type": "function"
    },
    {
      "inputs": [],
      "name": "retrievePendingIssuers",
      "outputs": [
        {
          "internalType": "uint256[]",
          "name": "",
          "type": "uint256[]"
        }
      ],
      "stateMutability": "view",
      "type": "function"
    },
    {
      "inputs": [
        {
          "internalType": "uint256",
          "name": "id",
          "type": "uint256"
        }
      ],
      "name": "retrievePendingIssuer",
      "outputs": [
        {
          "components": [
            {
              "components": [
                {
                  "internalType": "address",
                  "name": "_owner",
                  "type": "address"
                },
                {
                  "internalType": "string",
                  "name": "_name",
                  "type": "string"
                },
                {
                  "internalType": "string",
                  "name": "_symbol",
                  "type": "string"
                },
                {
                  "internalType": "uint256",
                  "name": "_feeAmount",
                  "type": "uint256"
                },
                {
                  "internalType": "uint256",
                  "name": "_feeDecimals",
                  "type": "uint256"
                },
                {
                  "internalType": "enum Library.PaymentPlans",
                  "name": "_paymentPlan",
                  "type": "uint8"
                }
              ],
              "internalType": "struct ItemsLibrary._issuerStruct",
              "name": "_issuer",
              "type": "tuple"
            },
            {
              "internalType": "uint256",
              "name": "_pendingId",
              "type": "uint256"
            },
            {
              "internalType": "uint256",
              "name": "_validations",
              "type": "uint256"
            },
            {
              "internalType": "uint256",
              "name": "_rejections",
              "type": "uint256"
            },
            {
              "internalType": "address[]",
              "name": "_voters",
              "type": "address[]"
            }
          ],
          "internalType": "struct IPool._pendingIssuerStruct",
          "name": "",
          "type": "tuple"
        }
      ],
      "stateMutability": "view",
      "type": "function"
    },
    {
      "inputs": [
        {
          "internalType": "address",
          "name": "addr",
          "type": "address"
        },
        {
          "internalType": "uint256",
          "name": "amount",
          "type": "uint256"
        },
        {
          "internalType": "uint256",
          "name": "paymentTokenID",
          "type": "uint256"
        }
      ],
      "name": "sendCredit",
      "outputs": [],
      "stateMutability": "nonpayable",
      "type": "function"
    },
    {
      "inputs": [
        {
          "internalType": "uint256",
          "name": "NFTMarketId",
          "type": "uint256"
        },
        {
          "internalType": "uint256",
          "name": "tokenID",
          "type": "uint256"
        },
        {
          "internalType": "address[]",
          "name": "addrs",
          "type": "address[]"
        },
        {
          "internalType": "uint256[]",
          "name": "amounts",
          "type": "uint256[]"
        },
        {
          "internalType": "uint256[]",
          "name": "factors",
          "type": "uint256[]"
        }
      ],
      "name": "addCredit",
      "outputs": [],
      "stateMutability": "nonpayable",
      "type": "function"
    },
    {
      "inputs": [
        {
          "internalType": "uint256",
          "name": "NFTMarketId",
          "type": "uint256"
        },
        {
          "internalType": "uint256",
          "name": "tokenID",
          "type": "uint256"
        },
        {
          "internalType": "address",
          "name": "addr",
          "type": "address"
        },
        {
          "internalType": "uint256",
          "name": "amount",
          "type": "uint256"
        },
        {
          "internalType": "uint256",
          "name": "paymentTokenID",
          "type": "uint256"
        }
      ],
      "name": "reuseCredit",
      "outputs": [],
      "stateMutability": "nonpayable",
      "type": "function"
    },
    {
      "inputs": [
        {
          "internalType": "uint256",
          "name": "NFTMarketId",
          "type": "uint256"
        },
        {
          "internalType": "address",
          "name": "from",
          "type": "address"
        },
        {
          "internalType": "uint256",
          "name": "amount",
          "type": "uint256"
        },
        {
          "internalType": "address",
          "name": "to",
          "type": "address"
        },
        {
          "internalType": "uint256",
          "name": "paymentTokenID",
          "type": "uint256"
        }
      ],
      "name": "spendCredit",
      "outputs": [],
      "stateMutability": "nonpayable",
      "type": "function"
    },
    {
      "inputs": [
        {
          "internalType": "uint256",
          "name": "amount",
          "type": "uint256"
        },
        {
          "internalType": "uint256",
          "name": "paymentTokenID",
          "type": "uint256"
        }
      ],
      "name": "withdraw",
      "outputs": [],
      "stateMutability": "nonpayable",
      "type": "function"
    },
    {
      "inputs": [
        {
          "internalType": "uint256",
          "name": "paymentTokenID",
          "type": "uint256"
        }
      ],
      "name": "withdrawAll",
      "outputs": [],
      "stateMutability": "nonpayable",
      "type": "function"
    },
    {
      "inputs": [
        {
          "internalType": "uint256",
          "name": "NFTMarketId",
          "type": "uint256"
        },
        {
          "internalType": "address",
          "name": "addr",
          "type": "address"
        },
        {
          "internalType": "uint256",
          "name": "paymentTokenID",
          "type": "uint256"
        },
        {
          "internalType": "bytes",
          "name": "data",
          "type": "bytes"
        }
      ],
      "name": "withdrawAllFor",
      "outputs": [],
      "stateMutability": "nonpayable",
      "type": "function"
    },
    {
      "inputs": [
        {
          "internalType": "address",
          "name": "addr",
          "type": "address"
        },
        {
          "internalType": "uint256",
          "name": "paymentTokenID",
          "type": "uint256"
        }
      ],
      "name": "retrieveCredit",
      "outputs": [
        {
          "internalType": "uint256",
          "name": "",
          "type": "uint256"
        }
      ],
      "stateMutability": "view",
      "type": "function"
    }
  ],
  "bytecode": "0x608060405234801561001057600080fd5b50615f8680620000216000396000f3fe60806040523480156200001157600080fd5b5060043610620001965760003560e01c806303231e5d146200019b57806304226b8814620001df578063094a0ed214620001f85780630bee185e146200021e578063173825d91462000235578063280931e7146200024c5780632edbe7fc146200026357806330ade922146200027657806334f292071462000280578063430c37cb1462000297578063441a3e7014620002ae57806352f615df14620002c5578063538b6aad14620002dc5780635888ebb314620002f55780635b362e84146200031057806365b973e514620003225780636b299604146200032b5780637065cb48146200035157806376f8f90f14620003685780638266251f146200037f57806391c0734b1462000396578063958e2d3114620003ad57806395bf0f3b14620003c4578063a0b8ab2b14620003db578063a37b58d514620003f2578063a67a1e371462000409578063a93d5ed61462000420578063c3079ae7146200042a578063c66433ea1462000434578063ce33d58a146200044b578063d0e139181462000462575b600080fd5b620001c7620001ac36600462004ca2565b6000908152600b60205260409020546001600160a01b031690565b604051620001d6919062004efa565b60405180910390f35b620001f6620001f036600462004cbc565b6200046c565b005b6200020f6200020936600462004ca2565b6200049f565b604051620001d691906200523d565b620001f66200022f366004620047ad565b620006ed565b620001f662000246366004620045ec565b6200085f565b620001f66200025d36600462004ca2565b620008a2565b6006545b604051908152602001620001d6565b620001f6620008b2565b620001f66200029136600462004ca2565b620008c0565b620001f6620002a8366004620047f5565b620008cd565b620001f6620002bf36600462004d61565b62000960565b62000267620002d636600462004633565b620009ba565b620002e662000a6d565b604051620001d69190620050b2565b620002ff62000ac7565b604051620001d69392919062005328565b600a546001600160a01b0316620001c7565b60055462000267565b620003426200033c36600462004ad7565b62000b3d565b604051620001d691906200509d565b620001f662000362366004620045ec565b62000c06565b620001f662000379366004620045ec565b62000c22565b620001f6620003903660046200469a565b62000c7a565b620001f6620003a736600462004dd0565b62000e68565b620001f6620003be36600462004ca2565b62000f67565b620001f6620003d536600462004662565b62001058565b620001f6620003ec36600462004bb0565b62001398565b620001f66200040336600462004d13565b62001b94565b620001f66200041a36600462004d84565b62001cb9565b6200034262001d65565b620001f662001dca565b620001f66200044536600462004ca2565b62001dd6565b620001f66200045c366004620045ec565b62001e23565b620002e662001e30565b84336200047a828262001e88565b82620004868162001f0b565b620004958888888888620020fd565b5050505050505050565b620004a962004291565b6000828152600d6020526040908190208151610160810190925280546001600160a01b031660a08301908152600182018054849291849160c085019190620004f190620054c5565b80601f01602080910402602001604051908101604052809291908181526020018280546200051f90620054c5565b8015620005705780601f10620005445761010080835404028352916020019162000570565b820191906000526020600020905b8154815290600101906020018083116200055257829003601f168201915b505050505081526020016002820180546200058b90620054c5565b80601f0160208091040260200160405190810160405280929190818152602001828054620005b990620054c5565b80156200060a5780601f10620005de576101008083540402835291602001916200060a565b820191906000526020600020905b815481529060010190602001808311620005ec57829003601f168201915b50505091835250506003820154602082015260048201546040820152600582015460609091019060ff16600181111562000648576200064862005536565b60018111156200065c576200065c62005536565b81525050815260200160068201548152602001600782015481526020016008820154815260200160098201805480602002602001604051908101604052809291908181526020018280548015620006dd57602002820191906000526020600020905b81546001600160a01b03168152600190910190602001808311620006be575b5050505050815250509050919050565b600054610100900460ff166200070a5760005460ff16156200070e565b303b155b620007365760405162461bcd60e51b81526004016200072d906200512c565b60405180910390fd5b600054610100900460ff1615801562000759576000805461ffff19166101011790555b81835162000768828262002176565b60018462000777828262002176565b600586905560005b8751811015620008425760018060000160008a8481518110620007a657620007a66200554c565b6020908102919091018101516001600160a01b03168252810191909152604001600020805460ff19169115159190911790558751600290899083908110620007f257620007f26200554c565b60209081029190910181015182546001810184556000938452919092200180546001600160a01b0319166001600160a01b0390921691909117905580620008398162005502565b9150506200077f565b505050505080156200085a576000805461ff00191690555b505050565b8060016200086e828262002199565b60055460025462000882906001906200547c565b6200088e828262002176565b6200089b856004620021f2565b5050505050565b620008af81600162002286565b50565b620008be6001620026ea565b565b620008af81600062002286565b600054610100900460ff16620008ea5760005460ff1615620008ee565b303b155b6200090d5760405162461bcd60e51b81526004016200072d906200512c565b600054610100900460ff1615801562000930576000805461ffff19166101011790555b6200093c8484620006ed565b620009478262002850565b80156200095a576000805461ff00191690555b50505050565b62000982338333600060405180602001604052806000815250866001620028d4565b336001600160a01b031660008051602062005f318339815191528383604051620009ae9291906200531a565b60405180910390a25050565b6000818152600f602090815260408083206001600160a01b038616845290915280822090516326162dc360e01b8152600481019190915273__ItemsLibrary__________________________906326162dc39060240160206040518083038186803b15801562000a2957600080fd5b505af415801562000a3e573d6000803e3d6000fd5b505050506040513d601f19601f8201168201806040525081019062000a64919062004b17565b90505b92915050565b6060600e80548060200260200160405190810160405280929190818152602001828054801562000abd57602002820191906000526020600020905b81548152602001906001019080831162000aa8575b5050505050905090565b600080606060075460085460098080548060200260200160405190810160405280929190818152602001828054801562000b2b57602002820191906000526020600020905b81546001600160a01b0316815260019091019060200180831162000b0c575b50505050509050925092509250909192565b6060811562000ba757600380546040805160208084028201810190925282815292919083018282801562000b9b57602002820191906000526020600020905b81546001600160a01b0316815260019091019060200180831162000b7c575b50505050509050919050565b600480546040805160208084028201810190925282815292919083018282801562000b9b576020028201919060005260206000209081546001600160a01b0316815260019091019060200180831162000b7c5750505050509050919050565b80600062000c15828262002199565b6200085a836003620021f2565b62000c2d8162002a9b565b15156001141562000c6d5760025462000c49906001906200547c565b600554111562000c6d5760405162461bcd60e51b81526004016200072d906200510d565b620008af81600162002b20565b600a546040805163e220ad9560e01b8152905133926001600160a01b03169163e220ad95916004808301926000929190829003018186803b15801562000cbf57600080fd5b505afa15801562000cd4573d6000803e3d6000fd5b505050506040513d6000823e601f3d908101601f1916820160405262000cfe919081019062004702565b60018151811062000d135762000d136200554c565b60200260200101516001600160a01b0316816001600160a01b0316148062000df65750600a60009054906101000a90046001600160a01b03166001600160a01b031663e220ad956040518163ffffffff1660e01b815260040160006040518083038186803b15801562000d8557600080fd5b505afa15801562000d9a573d6000803e3d6000fd5b505050506040513d6000823e601f3d908101601f1916820160405262000dc4919081019062004702565b60068151811062000dd95762000dd96200554c565b60200260200101516001600160a01b0316816001600160a01b0316145b62000e5a5760405162461bcd60e51b815260206004820152602d60248201527f4974206973206e6f742066726f6d206f6e65206f66207468652063657274696660448201526c69656420636f6e74726163747360981b60648201526084016200072d565b6200089b8585858562002fd4565b873362000e76828262001e88565b60008a81526010602090815260408083208c84528252918290205482518883028181018401909452888152909290918991899182919085019084908082843760009201919091525050604080516020808a0282810182019093528982529093508992508891829185019084908082843760009201919091525062000f0292508591508490508362003407565b89861462000f245760405162461bcd60e51b81526004016200072d906200517a565b62000f368d8d8d8d8d8d8d8d620035ba565b5050506000998a525050601060209081526040808a20988a5297905250505092842084815560010193909355505050565b6000818152600f6020908152604080832033845290915280822090516326162dc360e01b8152600481019190915273__ItemsLibrary__________________________906326162dc39060240160206040518083038186803b15801562000fcd57600080fd5b505af415801562000fe2573d6000803e3d6000fd5b505050506040513d601f19601f8201168201806040525081019062001008919062004b17565b90506200102c338233600060405180602001604052806000815250876001620028d4565b336001600160a01b031660008051602062005f318339815191528284604051620009ae9291906200531a565b80620010648162001f0b565b60408051600380825260808201909252600091602082016060803683375050604051631635719760e31b81526000600482015291925073__UintLibrary___________________________9163b1ab8cb8915060240160206040518083038186803b158015620010d357600080fd5b505af4158015620010e8573d6000803e3d6000fd5b505050506040513d601f19601f820116820180604052508101906200110e919062004b17565b816000815181106200112457620011246200554c565b602090810291909101015260405163bc215e8560e01b815273__AddressLibrary________________________9063bc215e85906200116890889060040162004efa565b60206040518083038186803b1580156200118157600080fd5b505af415801562001196573d6000803e3d6000fd5b505050506040513d601f19601f82011682018060405250810190620011bc919062004b17565b81600181518110620011d257620011d26200554c565b6020908102919091010152604051632431a7cf60e01b815260009073__Library_______________________________90632431a7cf9062001219908590600401620050b2565b60006040518083038186803b1580156200123257600080fd5b505af415801562001247573d6000803e3d6000fd5b505050506040513d6000823e601f3d908101601f1916820160405262001271919081019062004b31565b90506000600a60009054906101000a90046001600160a01b03166001600160a01b031663e220ad956040518163ffffffff1660e01b815260040160006040518083038186803b158015620012c457600080fd5b505afa158015620012d9573d6000803e3d6000fd5b505050506040513d6000823e601f3d908101601f1916820160405262001303919081019062004702565b6006815181106200131857620013186200554c565b60200260200101519050806001600160a01b0316632c2ec2683330896000878b6040518763ffffffff1660e01b81526004016200135b9695949392919062004f84565b600060405180830381600087803b1580156200137657600080fd5b505af11580156200138b573d6000803e3d6000fd5b5050505050505050505050565b825183906001600160a01b0316620013ff5760405162461bcd60e51b8152602060048201526024808201527f4e4654204d61726b6574206f776e65722063616e6e6f742062652061646472656044820152630737320360e41b60648201526084016200072d565b6060810151608082015160405163bdbff48760e01b815273__Library_______________________________9263bdbff4879262001440926004016200531a565b60006040518083038186803b1580156200145957600080fd5b505af41580156200146e573d6000803e3d6000fd5b50505050806020015151600010620014b95760405162461bcd60e51b815260206004820152600d60248201526c4e616d6520697320656d70747960981b60448201526064016200072d565b806040015151600010620015025760405162461bcd60e51b815260206004820152600f60248201526e53796d626f6c20697320656d70747960881b60448201526064016200072d565b816200150e8162001f0b565b600a546040805163e220ad9560e01b815290516000926001600160a01b03169163e220ad959160048083019286929190829003018186803b1580156200155357600080fd5b505afa15801562001568573d6000803e3d6000fd5b505050506040513d6000823e601f3d908101601f1916820160405262001592919081019062004702565b600281518110620015a757620015a76200554c565b60200260200101516001600160a01b031663b049473f6040518163ffffffff1660e01b815260040160006040518083038186803b158015620015e857600080fd5b505afa158015620015fd573d6000803e3d6000fd5b505050506040513d6000823e601f3d908101601f1916820160405262001627919081019062004855565b5050905060008185815181106200164257620016426200554c565b60200260200101516000600381111562001660576200166062005536565b815181106200167357620016736200554c565b6020026020010151905060008286815181106200169457620016946200554c565b602002602001015160016003811115620016b257620016b262005536565b81518110620016c557620016c56200554c565b60200260200101519050861562001835576200179160003384600a60009054906101000a90046001600160a01b03166001600160a01b031663e220ad956040518163ffffffff1660e01b815260040160006040518083038186803b1580156200172d57600080fd5b505afa15801562001742573d6000803e3d6000fd5b505050506040513d6000823e601f3d908101601f191682016040526200176c919081019062004702565b60025b815181106200178257620017826200554c565b60200260200101518a620020fd565b6200182f60003383600a60009054906101000a90046001600160a01b03166001600160a01b031663e220ad956040518163ffffffff1660e01b815260040160006040518083038186803b158015620017e857600080fd5b505afa158015620017fd573d6000803e3d6000fd5b505050506040513d6000823e601f3d908101601f1916820160405262001827919081019062004702565b60056200176f565b62001b26565b600a546040805163e220ad9560e01b815290516000926001600160a01b03169163e220ad959160048083019286929190829003018186803b1580156200187a57600080fd5b505afa1580156200188f573d6000803e3d6000fd5b505050506040513d6000823e601f3d908101601f19168201604052620018b9919081019062004702565b600681518110620018ce57620018ce6200554c565b60200260200101519050806001600160a01b0316632c2ec26833600a60009054906101000a90046001600160a01b03166001600160a01b031663e220ad956040518163ffffffff1660e01b815260040160006040518083038186803b1580156200193757600080fd5b505afa1580156200194c573d6000803e3d6000fd5b505050506040513d6000823e601f3d908101601f1916820160405262001976919081019062004702565b6002815181106200198b576200198b6200554c565b6020026020010151866000604051806020016040528060008152508d6040518763ffffffff1660e01b8152600401620019ca9695949392919062004f84565b600060405180830381600087803b158015620019e557600080fd5b505af1158015620019fa573d6000803e3d6000fd5b50505050806001600160a01b0316632c2ec26833600a60009054906101000a90046001600160a01b03166001600160a01b031663e220ad956040518163ffffffff1660e01b815260040160006040518083038186803b15801562001a5d57600080fd5b505afa15801562001a72573d6000803e3d6000fd5b505050506040513d6000823e601f3d908101601f1916820160405262001a9c919081019062004702565b60058151811062001ab15762001ab16200554c565b6020026020010151856000604051806020016040528060008152508d6040518763ffffffff1660e01b815260040162001af09695949392919062004f84565b600060405180830381600087803b15801562001b0b57600080fd5b505af115801562001b20573d6000803e3d6000fd5b50505050505b602080890151805191012062001b3d818a620037ad565b807fe0b7763e1d87de4309ae9dd735f118335b71f29ef21401f0dd14d9a3e3384f9c8a600001518b602001518c604001518b60405162001b81949392919062005051565b60405180910390a2505050505050505050565b833362001ba2828262001e88565b6000848152600f602090815260408083206001600160a01b038916845290915280822090516326162dc360e01b8152600481019190915273__ItemsLibrary__________________________906326162dc39060240160206040518083038186803b15801562001c1157600080fd5b505af415801562001c26573d6000803e3d6000fd5b505050506040513d601f19601f8201168201806040525081019062001c4c919062004b17565b905062001c618682886001888a6001620028d4565b336001600160a01b0316866001600160a01b03167f66f38d03b2ef5d35bd0055daacdada5779c32d8f8379404be96ebb5d044e0954838860405162001ca89291906200531a565b60405180910390a350505050505050565b843362001cc7828262001e88565b868662001cd5828262003957565b8462001ce18162001f0b565b62001d046000888a6000604051806020016040528060008152508b6000620028d4565b62001d128a8a8989620039d6565b876001600160a01b0316898b7f65003d30d3f109914e8927ab1b578875696ebb2ed8d9aadf25781a202393495d8a8a60405162001d519291906200531a565b60405180910390a450505050505050505050565b60606001800180548060200260200160405190810160405280929190818152602001828054801562000abd57602002820191906000526020600020905b81546001600160a01b0316815260019091019060200180831162001da2575050505050905090565b620008be6000620026ea565b33600162001de5828262002199565b600062001df281620039fc565b600254849062001e03828262002176565b60018662001e12828262002176565b6006889055620004956001620026ea565b620008af81600062002b20565b6060600c80548060200260200160405190810160405280929190818152602001828054801562000abd576020028201919060005260206000209081548152602001906001019080831162000aa8575050505050905090565b6000828152600b60205260409020546001600160a01b0382811691161462001f075760405162461bcd60e51b815260206004820152602b60248201527f546865204d61726b657420496420616e64204164647265737320646f206e6f7460448201526a0818dbdc9c995cdc1bdb9960aa1b60648201526084016200072d565b5050565b600a546040805163e220ad9560e01b815290516000926001600160a01b03169163e220ad959160048083019286929190829003018186803b15801562001f5057600080fd5b505afa15801562001f65573d6000803e3d6000fd5b505050506040513d6000823e601f3d908101601f1916820160405262001f8f919081019062004702565b60068151811062001fa45762001fa46200554c565b602002602001015190506000816001600160a01b031663b049473f6040518163ffffffff1660e01b815260040160006040518083038186803b15801562001fea57600080fd5b505afa15801562001fff573d6000803e3d6000fd5b505050506040513d6000823e601f3d908101601f19168201604052620020299190810190620049fa565b9050805183106200207d5760405162461bcd60e51b815260206004820152601f60248201527f54686973207061796d656e7420746f6b656e206973206e6f742076616c69640060448201526064016200072d565b8083815181106200209257620020926200554c565b602002602001015160200151151560011515146200085a5760405162461bcd60e51b815260206004820152602160248201527f54686973207061796d656e7420746f6b656e206973206e6f7420656e61626c656044820152601960fa1b60648201526084016200072d565b6200211f828486600160405180602001604052806000815250866001620028d4565b816001600160a01b0316846001600160a01b0316867f8e46218308a26b6095e80237a5b26d04fcd218ac6e8e4b197cfe3b57305dc6fb8685604051620021679291906200531a565b60405180910390a45050505050565b8082111562001f075760405162461bcd60e51b81526004016200072d906200510d565b6001600160a01b03821660009081526001602052604090205460ff1615158115151462001f075760405162461bcd60e51b81526004016200072d906020808252600490820152634543392d60e01b604082015260600190565b33600162002201828262002199565b83600062002210828262003a76565b84546001808201875560008781526020812090920180546001600160a01b0319166001600160a01b038a1617905586546200224c91906200547c565b6001600160a01b03881660009081526001602081905260409091206002018290559091506200227d90889062002b20565b50505050505050565b33600162002295828262002199565b6000848152600d60209081526040918290206009018054835181840281018401909452808452339392830182828015620022f957602002820191906000526020600020905b81546001600160a01b03168152600190910190602001808311620022da575b50505050506200230a828262003acf565b6000868152600d602052604090205486906001600160a01b0316620023725760405162461bcd60e51b815260206004820152601d60248201527f5468697320697373756572206964206973206e6f742070656e64696e6700000060448201526064016200072d565b60408051338152871515602082015288917f5a1a88bd27a0cf1c470b27b132493e61efc1eaf3d1b57db0ab7f73182345d047910160405180910390a26000878152600d602090815260408220600901805460018101825590835291200180546001600160a01b0319163317905585156200266c576000878152600d60205260408120600701805491620024058362005502565b90915550506005546000888152600d6020526040902060070154106200266657600c805460018181019092557fdf6966c971051c3d54ec59162606531493a51404a002842f56009d7e5cf4a8c7018890556000888152600d60205260409020805491018054620025da926001600160a01b031691906200248590620054c5565b80601f0160208091040260200160405190810160405280929190818152602001828054620024b390620054c5565b8015620025045780601f10620024d85761010080835404028352916020019162002504565b820191906000526020600020905b815481529060010190602001808311620024e657829003601f168201915b50505060008c8152600d602052604090206002018054909250620025299150620054c5565b80601f01602080910402602001604051908101604052809291908181526020018280546200255790620054c5565b8015620025a85780601f106200257c57610100808354040283529160200191620025a8565b820191906000526020600020905b8154815290600101906020018083116200258a57829003601f168201915b50505060008d8152600d60205260409020600381015460048201546005909201549093509091508d9060ff1662003b96565b6000888152600b6020526040902080546001600160a01b0319166001600160a01b0392909216919091179055620026118762003e4d565b6000878152600b60205260409081902054905188917f2cedba2f59ec9c6a70e350caabb40ea15150e2bd297a517df51c1fbdbeacad39916200265d916001600160a01b03169062004efa565b60405180910390a25b6200227d565b6000878152600d602052604081206008018054916200268b8362005502565b90915550506005546000888152600d6020526040902060080154106200227d57620026b68762003e4d565b60405187907f403eabfde87045e1433576679912c142f6e51573d2635748e5331c62fbcfecc190600090a250505050505050565b336001620026f9828262002199565b60016200270681620039fc565b3360098054806020026020016040519081016040528092919081815260200182805480156200275f57602002820191906000526020600020905b81546001600160a01b0316815260019091019060200180831162002740575b505050505062002770828262003acf565b851562002798576001600760008282546200278c91906200541c565b90915550620027b39050565b600160086000828254620027ad91906200541c565b90915550505b600980546001810182556000919091527f6e1540171b6c0c960b71a7020d9f60077f6af931a8bbf590da0223dacf75c7af018054336001600160a01b031990911681179091556006546040805191825260208201929092528715158183015290517fb335599a2dd1eaaedeb810215d45e667a6c5ac7bcfd03c29e597db8bf0cddcc69181900360600190a16200284862003f9d565b505050505050565b600054610100900460ff166200286d5760005460ff161562002871565b303b155b620028905760405162461bcd60e51b81526004016200072d906200512c565b600054610100900460ff16158015620028b3576000805461ffff19166101011790555b620028be8262004043565b801562001f07576000805461ff00191690555050565b6000828152600f602090815260408083206001600160a01b03808a1685529252808320600a54825163e220ad9560e01b8152925173__ItemsLibrary__________________________956318b84a219593948d948f948a9491169263e220ad959260048082019391829003018186803b1580156200295157600080fd5b505afa15801562002966573d6000803e3d6000fd5b505050506040513d6000823e601f3d908101601f1916820160405262002990919081019062004702565b600681518110620029a557620029a56200554c565b60200260200101516001600160a01b031663b049473f6040518163ffffffff1660e01b815260040160006040518083038186803b158015620029e657600080fd5b505afa158015620029fb573d6000803e3d6000fd5b505050506040513d6000823e601f3d908101601f1916820160405262002a259190810190620049fa565b888151811062002a395762002a396200554c565b6020026020010151600001518a8a8a6040518963ffffffff1660e01b815260040162002a6d989796959493929190620051c5565b60006040518083038186803b15801562002a8657600080fd5b505af41580156200138b573d6000803e3d6000fd5b6004546001600160a01b03821660009081526001602052604081206002015490911162002aca57506000919050565b6001600160a01b03821660009081526001602052604090206002015460048054909190811062002afe5762002afe6200554c565b6000918252602090912001546001600160a01b03928316921691909114919050565b33600162002b2f828262002199565b83600162002b3e828262003a76565b6001600160a01b038616600090815260016020908152604091829020600501805483518184028101840190945280845233939283018282801562002bac57602002820191906000526020600020905b81546001600160a01b0316815260019091019060200180831162002b8d575b505050505062002bbd828262003acf565b604080516001600160a01b038a1681523360208201528815158183015290517fc6f241efc3de3ce31d0e682102cc781f0605f0f90d72addfea699e4aea85dd799181900360600190a16001600160a01b038816600090815260016020818152604083206005018054928301815583529091200180546001600160a01b03191633179055861562002ed9576001600160a01b038816600090815260016020526040812060030180549162002c708362005502565b90915550506005546001600160a01b0389166000908152600160205260409020600301541062002ed357600462002ca789620040d7565b1562002d80575060028054600180820183557f405787fa12a823e0f2b7631cc41b3ba8828b3321ca811111fa75cd3aa3bb5ace90910180546001600160a01b0319166001600160a01b038c169081179091556000908152602082905260409020805460ff191682179055905460039162002d21916200547c565b6001600160a01b038a166000908152600160208190526040918290200191909155517f45bbe5ceeddcb6d0b4045349efc87a3fde966578e3970cda6f53bfc76efaf9f79062002d72908b9062004efa565b60405180910390a162002ec5565b6001600160a01b03891660009081526001602081905260409182902001549051633c39c19f60e11b815273__AddressLibrary________________________90637873833e9062002dd99084906002906004016200531a565b60006040518083038186803b15801562002df257600080fd5b505af415801562002e07573d6000803e3d6000fd5b5050600254831015915062002e61905057806001600001600060018001848154811062002e385762002e386200554c565b60009182526020808320909101546001600160a01b031683528201929092526040019020600101555b6001600160a01b038a166000908152600160208190526040808320805460ff1916815590910191909155517f82bcab3b042f3e2143a9d33d07fa130afdf763f17a45679670f0e39f12064ca89062002ebb908c9062004efa565b60405180910390a1505b62002ed189826200413a565b505b62000495565b6001600160a01b038816600090815260016020526040812060040180549162002f028362005502565b90915550506005546001600160a01b038916600090815260016020526040902060040154106200049557600462002f3989620040d7565b1562002f8357506040516003907f622a69297177c029df8c1ba7f4d2d59881089b571ae96800e634aff50d67492e9062002f75908b9062004efa565b60405180910390a162002fbd565b7f547e31c58b802b63bc89f1109a132a291b0527c9196c97759829aeaecd3c2d398960405162002fb4919062004efa565b60405180910390a15b62002fc989826200413a565b505050505050505050565b60405163caa8f58960e01b815260009073__Library_______________________________9063caa8f5899062003010908590600401620050f8565b60006040518083038186803b1580156200302957600080fd5b505af41580156200303e573d6000803e3d6000fd5b505050506040513d6000823e601f3d908101601f1916820160405262003068919081019062004966565b90506000816000815181106200308257620030826200554c565b602002602001015160001c6001811115620030a157620030a162005536565b9050806001811115620030b857620030b862005536565b6200325457600073__AddressLibrary________________________63f4ce9ae884600181518110620030ef57620030ef6200554c565b60200260200101516040518263ffffffff1660e01b81526004016200311691815260200190565b60206040518083038186803b1580156200312f57600080fd5b505af415801562003144573d6000803e3d6000fd5b505050506040513d601f19601f820116820180604052508101906200316a919062004613565b6000868152600f602090815260408083206001600160a01b0385168452909152908190209051633833532760e01b815291925073__ItemsLibrary__________________________91633833532791620031cc918a9060019060040162005227565b60006040518083038186803b158015620031e557600080fd5b505af4158015620031fa573d6000803e3d6000fd5b50505050866001600160a01b0316816001600160a01b03167fac995865659dcf606a8b72619cec439c948be22b1fadce49ed394e003bb594b18888604051620032459291906200531a565b60405180910390a35062002848565b600073__UintLibrary___________________________630bd4715e846001815181106200328657620032866200554c565b60200260200101516040518263ffffffff1660e01b8152600401620032ad91815260200190565b60206040518083038186803b158015620032c657600080fd5b505af4158015620032db573d6000803e3d6000fd5b505050506040513d601f19601f8201168201806040525081019062003301919062004b17565b9050600073__UintLibrary___________________________630bd4715e856002815181106200333557620033356200554c565b60200260200101516040518263ffffffff1660e01b81526004016200335c91815260200190565b60206040518083038186803b1580156200337557600080fd5b505af41580156200338a573d6000803e3d6000fd5b505050506040513d601f19601f82011682018060405250810190620033b0919062004b17565b9050620033c082828989620039d6565b80827ff9e629b7f363892b1e150085e7eb5a4b2335f91eb27586b3b563759c250b6d4c8989604051620033f59291906200531a565b60405180910390a35050505050505050565b80518251146200342b5760405162461bcd60e51b81526004016200072d906200517a565b604051633c952fb360e21b815260009073__UintLibrary___________________________9063f254becc9062003467908590600401620050b2565b60206040518083038186803b1580156200348057600080fd5b505af415801562003495573d6000803e3d6000fd5b505050506040513d601f19601f82011682018060405250810190620034bb919062004b17565b90506000805b83518110156200354157838181518110620034e057620034e06200554c565b602002602001015183868381518110620034fe57620034fe6200554c565b60200260200101516200351291906200545a565b6200351e919062005437565b6200352a90836200541c565b915080620035388162005502565b915050620034c1565b50806200354f83876200545a565b146200089b5760405162461bcd60e51b815260206004820152603360248201527f74686520746f74616c20616d6f756e74206973206e6f7420657175616c20746f604482015272207468652063616c63756c61746564206f6e6560681b60648201526084016200072d565b60008881526010602090815260408083208a8452909152812060010154905b86811015620037a1576000828152600f6020526040812073__ItemsLibrary__________________________91633833532791908b8b868181106200362257620036226200554c565b9050602002016020810190620036399190620045ec565b6001600160a01b03166001600160a01b031681526020019081526020016000208888858181106200366e576200366e6200554c565b905060200201358787868181106200368a576200368a6200554c565b905060200201356040518463ffffffff1660e01b8152600401620036b19392919062005227565b60006040518083038186803b158015620036ca57600080fd5b505af4158015620036df573d6000803e3d6000fd5b50505050878782818110620036f857620036f86200554c565b90506020020160208101906200370f9190620045ec565b6001600160a01b0316898b7e85dd5c7e25f320179845bd109bec815645a273f03d337f3a46ea43da6ca0c08989868181106200374f576200374f6200554c565b905060200201358888878181106200376b576200376b6200554c565b9050602002013587604051620037849392919062005227565b60405180910390a480620037988162005502565b915050620035d9565b50505050505050505050565b6000828152600d60205260409020546001600160a01b0316158015620037e857506000828152600b60205260409020546001600160a01b0316155b620038465760405162461bcd60e51b815260206004820152602760248201527f5468697320497373756572204e616d652068617320616c72656164792062656560448201526637103a30b5b2b760c91b60648201526084016200072d565b80516000838152600d6020908152604090912080546001600160a01b0319166001600160a01b039093169290921782558083015180516200389093600101929190910190620042c8565b506040808201516000848152600d60209081529290208151620038be936002909201929190910190620042c8565b5060608101516000838152600d6020526040902060038101919091556080820151600482015560a08201516005909101805460ff1916600183818111156200390a576200390a62005536565b021790555050600e80546000838152600d60205260408120600601829055600182018355919091527fbb7b4a454dc3493923482f07822329ed19e8244eff582cc204f8554c3620c3fd0155565b60008281526010602090815260408083208484529091529020541562001f075760405162461bcd60e51b815260206004820152602d60248201527f556e61737369676e65642063726564697420666f72207468697320746f6b656e60448201526c206973206e6f7420656d70747960981b60648201526084016200072d565b600093845260106020908152604080862094865293905291909220918255600190910155565b801562003a3c57600654620008af5760405162461bcd60e51b8152602060048201526005602482015264454333312d60d81b60448201526064016200072d565b60065415620008af5760405162461bcd60e51b8152602060048201526005602482015264454333302d60d81b60448201526064016200072d565b62003a8182620040d7565b8062003a93575062003a938262002a9b565b15158115151462001f075760405162461bcd60e51b8152602060048201526005602482015264454331302d60d81b60448201526064016200072d565b60405163f7cf62d760e01b815273__AddressLibrary________________________9063f7cf62d79062003b0a908590859060040162004fd3565b60206040518083038186803b15801562003b2357600080fd5b505af415801562003b38573d6000803e3d6000fd5b505050506040513d601f19601f8201168201806040525081019062003b5e919062004af7565b1562001f075760405162461bcd60e51b81526004016200072d906020808252600490820152634543352d60e01b604082015260600190565b600080600a60009054906101000a90046001600160a01b03166001600160a01b031663efd621de6040518163ffffffff1660e01b815260040160006040518083038186803b15801562003be857600080fd5b505afa15801562003bfd573d6000803e3d6000fd5b505050506040513d6000823e601f3d908101601f1916820160405262003c27919081019062004702565b60008151811062003c3c5762003c3c6200554c565b602002602001015190506000600a60009054906101000a90046001600160a01b03166001600160a01b031663e220ad956040518163ffffffff1660e01b815260040160006040518083038186803b15801562003c9757600080fd5b505afa15801562003cac573d6000803e3d6000fd5b505050506040513d6000823e601f3d908101601f1916820160405262003cd6919081019062004702565b60028151811062003ceb5762003ceb6200554c565b60200260200101516001600160a01b031663b049473f6040518163ffffffff1660e01b815260040160006040518083038186803b15801562003d2c57600080fd5b505afa15801562003d41573d6000803e3d6000fd5b505050506040513d6000823e601f3d908101601f1916820160405262003d6b919081019062004855565b600a54909350600092506001600160a01b031690508b8b8b85858151811062003d985762003d986200554c565b60200260200101518c8c8c8c600181111562003db85762003db862005536565b60405160240162003dd29998979695949392919062004f0e565b60408051601f198184030181529181526020820180516001600160e01b03166398a7541d60e01b179052519091506000908490839062003e129062004357565b62003e1f92919062005023565b604051809103906000f08015801562003e3c573d6000803e3d6000fd5b509c9b505050505050505050505050565b6000818152600d60205260409081902060060154905163cffd93cd60e01b815273__UintLibrary___________________________9063cffd93cd9062003e9c908490600e906004016200531a565b60006040518083038186803b15801562003eb557600080fd5b505af415801562003eca573d6000803e3d6000fd5b5050505080600e80549050111562003f185780600d6000600e848154811062003ef75762003ef76200554c565b90600052602060002001548152602001908152602001600020600601819055505b6000828152600d6020526040812080546001600160a01b03191681559062003f44600183018262004365565b62003f5460028301600062004365565b50600060038201819055600482018190556005909101805460ff19169055828152600d60205260408120600781018290556008810182905562001f0791600990910190620043a4565b62003fad60075460055462004255565b1562003ff95760065460058190556040519081527f09cfdf09b84b5390e2f9e64a6b66bdfd4e3b7a611dfdd07cde2f5289ecdaace7906020015b60405180910390a1620008be62004272565b6200400960085460055462004255565b15620008be577f6005dc34d50a3e2ea64571b58119d8a81074b8e2db57a77c28e664641733308f60065460405162003fe791815260200190565b600054610100900460ff16620040605760005460ff161562004064565b303b155b620040835760405162461bcd60e51b81526004016200072d906200512c565b600054610100900460ff16158015620040a6576000805461ffff19166101011790555b600a80546001600160a01b0319166001600160a01b038416179055801562001f07576000805461ff00191690555050565b6003546001600160a01b0382166000908152600160205260408120600201549091116200410657506000919050565b6001600160a01b03821660009081526001602052604090206002015460038054909190811062002afe5762002afe6200554c565b6001600160a01b03821660009081526001602052604090819020600201549051633c39c19f60e11b815273__AddressLibrary________________________90637873833e906200419290849086906004016200531a565b60006040518083038186803b158015620041ab57600080fd5b505af4158015620041c0573d6000803e3d6000fd5b50505050808280549050111562004217578060016000016000848481548110620041ee57620041ee6200554c565b60009182526020808320909101546001600160a01b031683528201929092526040019020600201555b6001600160a01b03831660009081526001602052604081206002810182905560038101829055600481018290556200085a91600590910190620043a4565b600081831015620042695750600062000a67565b50600192915050565b6000600681905560078190556008819055620008be90600990620043a4565b6040518060a00160405280620042a6620043c4565b8152602001600081526020016000815260200160008152602001606081525090565b828054620042d690620054c5565b90600052602060002090601f016020900481019282620042fa576000855562004345565b82601f106200431557805160ff191683800117855562004345565b8280016001018555821562004345579182015b828111156200434557825182559160200191906001019062004328565b506200435392915062004416565b5090565b610993806200559e83390190565b5080546200437390620054c5565b6000825580601f1062004384575050565b601f016020900490600052602060002090810190620008af919062004416565b5080546000825590600052602060002090810190620008af919062004416565b6040518060c0016040528060006001600160a01b03168152602001606081526020016060815260200160008152602001600081526020016000600181111562004411576200441162005536565b905290565b5b8082111562004353576000815560010162004417565b80356200443a8162005578565b919050565b60008083601f8401126200445257600080fd5b5081356001600160401b038111156200446a57600080fd5b6020830191508360208260051b85010111156200448657600080fd5b9250929050565b600082601f8301126200449f57600080fd5b81356020620044b8620044b283620053cc565b62005399565b80838252828201915082860187848660051b8901011115620044d957600080fd5b60005b8581101562004505578135620044f28162005578565b84529284019290840190600101620044dc565b5090979650505050505050565b600082601f8301126200452457600080fd5b8151602062004537620044b283620053cc565b80838252828201915082860187848660051b89010111156200455857600080fd5b60005b8581101562004505578151845292840192908401906001016200455b565b80356200443a816200558e565b600082601f8301126200459857600080fd5b8135620045a9620044b282620053f2565b818152846020838601011115620045bf57600080fd5b816020850160208301376000918101602001919091529392505050565b8035600281106200443a57600080fd5b600060208284031215620045ff57600080fd5b81356200460c8162005578565b9392505050565b6000602082840312156200462657600080fd5b81516200460c8162005578565b600080604083850312156200464757600080fd5b8235620046548162005578565b946020939093013593505050565b6000806000606084860312156200467857600080fd5b8335620046858162005578565b95602085013595506040909401359392505050565b60008060008060808587031215620046b157600080fd5b8435620046be8162005578565b9350602085013592506040850135915060608501356001600160401b03811115620046e857600080fd5b620046f68782880162004586565b91505092959194509250565b600060208083850312156200471657600080fd5b82516001600160401b038111156200472d57600080fd5b8301601f810185136200473f57600080fd5b805162004750620044b282620053cc565b80828252848201915084840188868560051b87010111156200477157600080fd5b600094505b83851015620047a15780516200478c8162005578565b83526001949094019391850191850162004776565b50979650505050505050565b60008060408385031215620047c157600080fd5b82356001600160401b03811115620047d857600080fd5b620047e6858286016200448d565b95602094909401359450505050565b6000806000606084860312156200480b57600080fd5b83356001600160401b038111156200482257600080fd5b62004830868287016200448d565b9350506020840135915060408401356200484a8162005578565b809150509250925092565b6000806000606084860312156200486b57600080fd5b83516001600160401b03808211156200488357600080fd5b818601915086601f8301126200489857600080fd5b81516020620048ab620044b283620053cc565b8083825282820191508286018b848660051b8901011115620048cc57600080fd5b60005b858110156200490c57815187811115620048e857600080fd5b620048f88e87838c010162004512565b8552509284019290840190600101620048cf565b5050918901519197509093505050808211156200492857600080fd5b620049368783880162004512565b935060408601519150808211156200494d57600080fd5b506200495c8682870162004512565b9150509250925092565b600060208083850312156200497a57600080fd5b82516001600160401b038111156200499157600080fd5b8301601f81018513620049a357600080fd5b8051620049b4620044b282620053cc565b80828252848201915084840188868560051b8701011115620049d557600080fd5b600094505b83851015620047a1578051835260019490940193918501918501620049da565b6000602080838503121562004a0e57600080fd5b82516001600160401b0381111562004a2557600080fd5b8301601f8101851362004a3757600080fd5b805162004a48620044b282620053cc565b80828252848201915084840188868560061b870101111562004a6957600080fd5b60009450845b8481101562004ac957604080838c03121562004a89578687fd5b62004a9362005349565b835162004aa08162005578565b81528389015162004ab1816200558e565b818a0152855293870193919091019060010162004a6f565b509098975050505050505050565b60006020828403121562004aea57600080fd5b81356200460c816200558e565b60006020828403121562004b0a57600080fd5b81516200460c816200558e565b60006020828403121562004b2a57600080fd5b5051919050565b60006020828403121562004b4457600080fd5b81516001600160401b0381111562004b5b57600080fd5b8201601f8101841362004b6d57600080fd5b805162004b7e620044b282620053f2565b81815285602083850101111562004b9457600080fd5b62004ba782602083016020860162005496565b95945050505050565b60008060006060848603121562004bc657600080fd5b83356001600160401b038082111562004bde57600080fd5b9085019060c0828803121562004bf357600080fd5b62004bfd62005374565b62004c08836200442d565b815260208301358281111562004c1d57600080fd5b62004c2b8982860162004586565b60208301525060408301358281111562004c4457600080fd5b62004c528982860162004586565b604083015250606083013560608201526080830135608082015262004c7a60a08401620045dc565b60a0820152945062004c929150506020850162004579565b9150604084013590509250925092565b60006020828403121562004cb557600080fd5b5035919050565b600080600080600060a0868803121562004cd557600080fd5b85359450602086013562004ce98162005578565b935060408601359250606086013562004d028162005578565b949793965091946080013592915050565b6000806000806080858703121562004d2a57600080fd5b84359350602085013562004d3e8162005578565b92506040850135915060608501356001600160401b03811115620046e857600080fd5b6000806040838503121562004d7557600080fd5b50508035926020909101359150565b600080600080600060a0868803121562004d9d57600080fd5b8535945060208601359350604086013562004db88162005578565b94979396509394606081013594506080013592915050565b60008060008060008060008060a0898b03121562004ded57600080fd5b883597506020890135965060408901356001600160401b038082111562004e1357600080fd5b62004e218c838d016200443f565b909850965060608b013591508082111562004e3b57600080fd5b62004e498c838d016200443f565b909650945060808b013591508082111562004e6357600080fd5b5062004e728b828c016200443f565b999c989b5096995094979396929594505050565b600081518084526020808501945080840160005b8381101562004ec15781516001600160a01b03168752958201959082019060010162004e9a565b509495945050505050565b6000815180845262004ee681602086016020860162005496565b601f01601f19169290920160200192915050565b6001600160a01b0391909116815260200190565b6001600160a01b038a81168252891660208201526101206040820181905260009062004f3d8382018b62004ecc565b9050828103606084015262004f53818a62004ecc565b6080840198909852505060a081019490945260c084019290925260e083015260ff1661010090910152949350505050565b6001600160a01b03878116825286166020820152604081018590526060810184905260c06080820181905260009062004fc09083018562004ecc565b90508260a0830152979650505050505050565b6001600160a01b038381168252604060208084018290528451918401829052600092858201929091906060860190855b8181101562004ac957855185168352948301949183019160010162005003565b6001600160a01b0383168152604060208201819052600090620050499083018462004ecc565b949350505050565b6001600160a01b0385168152608060208201819052600090620050779083018662004ecc565b82810360408401526200508b818662004ecc565b91505082606083015295945050505050565b60208152600062000a64602083018462004e86565b6020808252825182820181905260009190848201906040850190845b81811015620050ec57835183529284019291840191600101620050ce565b50909695505050505050565b60208152600062000a64602083018462004ecc565b602080825260059082015264454331392d60d81b604082015260600190565b6020808252602e908201527f496e697469616c697a61626c653a20636f6e747261637420697320616c72656160408201526d191e481a5b9a5d1a585b1a5e995960921b606082015260800190565b6020808252602b908201527f50726f76696465642061727261797320646f206e6f742068617665207468652060408201526a0e6c2daca40d8cadccee8d60ab1b606082015260800190565b888152602081018890526001600160a01b03878116604083015286151560608301528516608082015283151560a082015261010060c08201819052600090620052118382018662004ecc565b9150508260e08301529998505050505050505050565b9283526020830191909152604082015260600190565b602081526000825160a0602084015260018060a01b0381511660c0840152602081015160c060e08501526200527761018085018262004ecc565b9050604082015160bf198583030161010086015262005297828262004ecc565b9150506060820151610120850152608082015161014085015260a0820151915060028210620052d657634e487b7160e01b600052602160045260246000fd5b8161016085015260208501516040850152604085015160608501526060850151608085015260808501519150601f198482030160a085015262004ba7818362004e86565b918252602082015260400190565b83815282602082015260606040820152600062004ba7606083018462004e86565b604080519081016001600160401b03811182821017156200536e576200536e62005562565b60405290565b60405160c081016001600160401b03811182821017156200536e576200536e62005562565b604051601f8201601f191681016001600160401b0381118282101715620053c457620053c462005562565b604052919050565b60006001600160401b03821115620053e857620053e862005562565b5060051b60200190565b60006001600160401b038211156200540e576200540e62005562565b50601f01601f191660200190565b6000821982111562005432576200543262005520565b500190565b6000826200545557634e487b7160e01b600052601260045260246000fd5b500490565b600081600019048311821515161562005477576200547762005520565b500290565b60008282101562005491576200549162005520565b500390565b60005b83811015620054b357818101518382015260200162005499565b838111156200095a5750506000910152565b600181811c90821680620054da57607f821691505b60208210811415620054fc57634e487b7160e01b600052602260045260246000fd5b50919050565b600060001982141562005519576200551962005520565b5060010190565b634e487b7160e01b600052601160045260246000fd5b634e487b7160e01b600052602160045260246000fd5b634e487b7160e01b600052603260045260246000fd5b634e487b7160e01b600052604160045260246000fd5b6001600160a01b0381168114620008af57600080fd5b8015158114620008af57600080fdfe608060405260405161099338038061099383398101604081905261002291610470565b61004d60017fa3f0ad74e5423aebfd80d3ef4346578335a9a72aeaee59ff6cb3582b35133d5161057f565b60008051602061094c83398151915214610069576100696105d0565b6100758282600061007c565b50506105fc565b61008583610156565b6040516001600160a01b038416907f1cf3b03a6cf19fa2baba4df148e9dcabedea7f8a5c07840e207e5c089be95d3e90600090a26000825111806100c65750805b156101515761014f836001600160a01b0316635c60da1b6040518163ffffffff1660e01b815260040160206040518083038186803b15801561010757600080fd5b505afa15801561011b573d6000803e3d6000fd5b505050506040513d601f19601f8201168201806040525081019061013f9190610455565b836102f660201b6100291760201c565b505b505050565b6101698161032260201b6100551760201c565b6101c85760405162461bcd60e51b815260206004820152602560248201527f455243313936373a206e657720626561636f6e206973206e6f74206120636f6e6044820152641d1c9858dd60da1b60648201526084015b60405180910390fd5b61024b816001600160a01b0316635c60da1b6040518163ffffffff1660e01b815260040160206040518083038186803b15801561020457600080fd5b505afa158015610218573d6000803e3d6000fd5b505050506040513d601f19601f8201168201806040525081019061023c9190610455565b61032260201b6100551760201c565b6102b05760405162461bcd60e51b815260206004820152603060248201527f455243313936373a20626561636f6e20696d706c656d656e746174696f6e206960448201526f1cc81b9bdd08184818dbdb9d1c9858dd60821b60648201526084016101bf565b806102d560008051602061094c83398151915260001b61032860201b61005b1760201c565b80546001600160a01b0319166001600160a01b039290921691909117905550565b606061031b838360405180606001604052806027815260200161096c6027913961032b565b9392505050565b3b151590565b90565b6060833b61038a5760405162461bcd60e51b815260206004820152602660248201527f416464726573733a2064656c65676174652063616c6c20746f206e6f6e2d636f6044820152651b9d1c9858dd60d21b60648201526084016101bf565b600080856001600160a01b0316856040516103a59190610530565b600060405180830381855af49150503d80600081146103e0576040519150601f19603f3d011682016040523d82523d6000602084013e6103e5565b606091505b5090925090506103f6828286610400565b9695505050505050565b6060831561040f57508161031b565b82511561041f5782518084602001fd5b8160405162461bcd60e51b81526004016101bf919061054c565b80516001600160a01b038116811461045057600080fd5b919050565b60006020828403121561046757600080fd5b61031b82610439565b6000806040838503121561048357600080fd5b61048c83610439565b60208401519092506001600160401b03808211156104a957600080fd5b818501915085601f8301126104bd57600080fd5b8151818111156104cf576104cf6105e6565b604051601f8201601f19908116603f011681019083821181831017156104f7576104f76105e6565b8160405282815288602084870101111561051057600080fd5b6105218360208301602088016105a4565b80955050505050509250929050565b600082516105428184602087016105a4565b9190910192915050565b602081526000825180602084015261056b8160408501602087016105a4565b601f01601f19169190910160400192915050565b60008282101561059f57634e487b7160e01b600052601160045260246000fd5b500390565b60005b838110156105bf5781810151838201526020016105a7565b8381111561014f5750506000910152565b634e487b7160e01b600052600160045260246000fd5b634e487b7160e01b600052604160045260246000fd5b6103418061060b6000396000f3fe60806040523661001357610011610017565b005b6100115b61002761002261005e565b610106565b565b606061004e83836040518060600160405280602781526020016102e56027913961012a565b9392505050565b3b151590565b90565b60006100917fa3f0ad74e5423aebfd80d3ef4346578335a9a72aeaee59ff6cb3582b35133d50546001600160a01b031690565b6001600160a01b0316635c60da1b6040518163ffffffff1660e01b815260040160206040518083038186803b1580156100c957600080fd5b505afa1580156100dd573d6000803e3d6000fd5b505050506040513d601f19601f82011682018060405250810190610101919061023c565b905090565b3660008037600080366000845af43d6000803e808015610125573d6000f35b3d6000fd5b6060833b61018e5760405162461bcd60e51b815260206004820152602660248201527f416464726573733a2064656c65676174652063616c6c20746f206e6f6e2d636f6044820152651b9d1c9858dd60d21b60648201526084015b60405180910390fd5b600080856001600160a01b0316856040516101a99190610265565b600060405180830381855af49150503d80600081146101e4576040519150601f19603f3d011682016040523d82523d6000602084013e6101e9565b606091505b50915091506101f9828286610203565b9695505050505050565b6060831561021257508161004e565b8251156102225782518084602001fd5b8160405162461bcd60e51b81526004016101859190610281565b60006020828403121561024e57600080fd5b81516001600160a01b038116811461004e57600080fd5b600082516102778184602087016102b4565b9190910192915050565b60208152600082518060208401526102a08160408501602087016102b4565b601f01601f19169190910160400192915050565b60005b838110156102cf5781810151838201526020016102b7565b838111156102de576000848401525b5050505056fe416464726573733a206c6f772d6c6576656c2064656c65676174652063616c6c206661696c6564a2646970667358221220148d20618ce0e4acd0b179dccf12503163fb589ddd8df806d6d9c09a8f4adc1064736f6c63430008070033a3f0ad74e5423aebfd80d3ef4346578335a9a72aeaee59ff6cb3582b35133d50416464726573733a206c6f772d6c6576656c2064656c65676174652063616c6c206661696c656435474681258bb96da53df6137ee08756497e570dab2b550ccc53c5784069ddf4a2646970667358221220f4bc67cd5cc343d2baa20534be50ccbc8c53b4dbd8ece9ef4fc4cdd8cc953ade64736f6c63430008070033",
  "immutableReferences": {},
  "source": "// SPDX-License-Identifier: GPL-3.0\r\n\r\npragma solidity 0.8.7;\r\n\r\n/**\r\n Certis Token is an ERC20 Token that grants its holder the right to:\r\n   - Vote on all the systems propositions (changing system configuraiton etc...)\r\n   - Receive Dividends for all the payments forwarded to the Treasury contract\r\n\r\nBefore every token transfer we contact the token gouvernance Base contracts so that the can update the tokens used for voting if needed\r\n\r\n */\r\n\r\nimport \"@openzeppelin/contracts-upgradeable/proxy/utils/Initializable.sol\";\r\nimport \"../Interfaces/IPool.sol\";\r\nimport \"../Interfaces/ITreasury.sol\";\r\nimport \"../Base/MultiSigContract.sol\";\r\nimport \"../Libraries/ItemsLibrary.sol\";\r\nimport \"../Libraries/UintLibrary.sol\";\r\nimport \"../Libraries/Library.sol\";\r\nimport \"../Libraries/AddressLibrary.sol\";\r\nimport \"@openzeppelin/contracts/proxy/beacon/BeaconProxy.sol\";\r\nimport \"../Base/CreditorBaseContract.sol\";\r\nimport \"../Interfaces/IPayments.sol\";\r\n\r\n contract PublicPool is  IPool, Initializable, MultiSigContract, CreditorBaseContract {\r\n  using ItemsLibrary for *;\r\n  using UintLibrary for *;\r\n  using Library for *;\r\n  using AddressLibrary for *;\r\n\r\n\r\n  // EVENTS /////////////////////////////////////////\r\n  event _NewIssuerRequest(uint256 indexed id, address owner, string name, string symbol, uint256 paymentTokenID);\r\n  event _VoteForIssuer(uint256 indexed id, address voter, bool vote);\r\n  event _IssuerValidation(uint256 indexed id, address NFTMarket);\r\n  event _IssuerRejection(uint256 indexed id);\r\n\r\n  event _CreditReceived(address indexed receiver, uint256 amount, address indexed sender, uint256 paymentTokenID);\r\n  event _CreditUnAssignedReceived(uint256 indexed NFTMarketId, uint256 indexed tokenID, uint256 amount, uint256 paymentTokenID);\r\n  event _CreditAssigned(uint256 indexed NFTMarketId, uint256 indexed tokenID, address indexed receiver, uint256 amount, uint256 factor, uint256 paymentTokenID);\r\n  event _CreditReused(uint256 indexed NFTMarketId, uint256 indexed tokenID, address indexed creditor, uint256 amount, uint256 paymentTokenID);\r\n  event _CreditSpent(uint256 indexed NFTMarketId, address indexed from, uint256 amount, address indexed to, uint256 paymentTokenID);\r\n  event _CreditWithdrawn(address indexed withdrawer, uint256 amount, uint256 paymentTokenID);\r\n  event _CreditWithdrawnFor(address indexed withdrawer, uint256 amount, address indexed sender, uint256 paymentTokenID);\r\n\r\n\r\n  // DATA /////////////////////////////////////////\r\n  struct _unassignedCreditStruct{\r\n    uint256 _credit;\r\n    uint256 _paymentTokenID;\r\n  }\r\n\r\n  mapping(uint256 => address) private _issuers;\r\n  uint256[] private _listOfIssuers;\r\n\r\n  mapping(uint256 => _pendingIssuerStruct) private _pendingIssuers;\r\n  uint256[] private _listOfPendingIssuers;\r\n\r\n  mapping(uint256 => mapping(address => ItemsLibrary._BalanceStruct)) private _creditOfAccount;\r\n  mapping(uint256 => mapping(uint256 => _unassignedCreditStruct)) private _unassignedCreditForMarket;\r\n\r\n\r\n\r\n  // MODIFIERS /////////////////////////////////////////\r\n  modifier IssuerPending(uint256 id){\r\n      require(address(0) != _pendingIssuers[id]._issuer._owner, \"This issuer id is not pending\");\r\n      _;\r\n  }\r\n\r\n  modifier validIssuerRequest(ItemsLibrary._issuerStruct memory requestedIssuer){\r\n    require(address(0) != requestedIssuer._owner, \"NFT Market owner cannot be address 0\");\r\n    Library.validFees(requestedIssuer._feeAmount, requestedIssuer._feeDecimals);\r\n    require(0 < bytes(requestedIssuer._name).length, \"Name is empty\");\r\n    require(0 < bytes(requestedIssuer._symbol).length, \"Symbol is empty\");\r\n     _;\r\n  }\r\n\r\n  modifier isNFTMarket(uint256 MarketId, address MarketAddress){\r\n      isNFTMarketFunc(MarketId, MarketAddress);\r\n      _;\r\n  }\r\n\r\n  function isNFTMarketFunc(uint256 MarketId, address MarketAddress) internal view{\r\n    require(MarketAddress == _issuers[MarketId], \"The Market Id and Address do not correspond\");\r\n  }\r\n\r\n  modifier isTokenUnassignedCreditEmpty(uint256 NFTMarketId, uint256 tokenID){\r\n    isTokenUnassignedCreditEmptyFunc(NFTMarketId, tokenID);\r\n    _;\r\n  }\r\n\r\n  function isTokenUnassignedCreditEmptyFunc(uint256 NFTMarketId, uint256 tokenID) internal view{\r\n    require(0 == _unassignedCreditForMarket[NFTMarketId][tokenID]._credit, \"Unassigned credit for this token is not empty\");\r\n  }\r\n\r\n  modifier checkTotal(uint256 total, uint256[] memory amounts, uint256[] memory factors){\r\n    checkTotalFunc(total, amounts, factors);\r\n    _;\r\n  }\r\n\r\n  function checkTotalFunc(uint256 total, uint256[] memory amounts, uint256[] memory factors) internal pure{\r\n    require(amounts.length == factors.length, \"Provided arrays do not have the same length\");\r\n    uint256 CommonDividend = UintLibrary.ProductOfFactors(factors);\r\n    uint256 calculatedTotal = 0;\r\n    for(uint256 i=0; i < factors.length; i++){\r\n        calculatedTotal += amounts[i] * CommonDividend / factors[i];\r\n    }\r\n    require((total * CommonDividend) == calculatedTotal, \"the total amount is not equal to the calculated one\");\r\n  }\r\n\r\n  modifier isPaymentTokenOK(uint256 paymentTokenID){\r\n    isPaymentTokenOKFunc(paymentTokenID);\r\n    _;\r\n  }\r\n\r\n   function isPaymentTokenOKFunc(uint256 paymentTokenID) internal view{\r\n    IPayments payments = IPayments(_managerContract.retrieveTransparentProxies()[uint256(Library.TransparentProxies.Payments)]);\r\n    Library.PaymentTokenStruct[] memory  paymentTokens = payments.retrieveSettings();\r\n    require(paymentTokenID < paymentTokens.length, \"This payment token is not valid\");\r\n    require(true == paymentTokens[paymentTokenID].active, \"This payment token is not enabled\");\r\n  }\r\n\r\n  // CONSTRUCTOR /////////////////////////////////////////\r\n  function PublicPool_init(address[] memory owners,  uint256 minOwners, address managerContractAddress) public initializer {\r\n      super.MultiSigContract_init(owners, minOwners); \r\n      super.CreditorBaseContract_init(managerContractAddress); \r\n  }\r\n\r\n  // FUNCTIONALITY /////////////////////////////////////////\r\n  function onCreditReceived(address sender, uint256 amount, uint256 paymentTokenID, bytes memory data) internal override\r\n  {\r\n    bytes32[] memory receivedData = Library.BytestoBytes32(data);\r\n    Library.PublicPoolPaymentTypes paymentType = Library.PublicPoolPaymentTypes(uint256(receivedData[0]));\r\n\r\n    if(Library.PublicPoolPaymentTypes.SendCredit == paymentType){\r\n      address account = AddressLibrary.Bytes32ToAddress(receivedData[1]);\r\n      ItemsLibrary.addBalance(_creditOfAccount[paymentTokenID][account], amount, 1);\r\n      emit _CreditReceived(account, amount, sender, paymentTokenID);\r\n    }\r\n\r\n    else{\r\n      uint256 NFTMarketId = UintLibrary.Bytes32ToUint(receivedData[1]);\r\n      uint256 tokenID = UintLibrary.Bytes32ToUint(receivedData[2]);\r\n      internalTransferUnassignedCredit(NFTMarketId, tokenID, amount, paymentTokenID);\r\n      emit _CreditUnAssignedReceived(NFTMarketId, tokenID, amount, paymentTokenID);\r\n    }\r\n     \r\n  }\r\n\r\n  function requestIssuer(ItemsLibrary._issuerStruct memory requestedIssuer, bool FromCredit, uint256 paymentTokenID) external override\r\n    validIssuerRequest(requestedIssuer)\r\n    isPaymentTokenOK(paymentTokenID)\r\n  {\r\n\r\n    (uint256[][] memory Fees, , ) = ITreasury(_managerContract.retrieveTransparentProxies()[uint256(Library.TransparentProxies.Treasury)]).retrieveSettings();\r\n    uint256 NewIssuerFee = Fees[paymentTokenID][uint256(Library.Fees.NewIssuerFee)];\r\n    uint256 AdminNewIssuerFee = Fees[paymentTokenID][uint256(Library.Fees.AdminNewIssuerFee)];\r\n\r\n    if(FromCredit){\r\n      internalSpendCredit(0, msg.sender, NewIssuerFee,  _managerContract.retrieveTransparentProxies()[uint256(Library.TransparentProxies.Treasury)], paymentTokenID);\r\n      internalSpendCredit(0, msg.sender, AdminNewIssuerFee,  _managerContract.retrieveTransparentProxies()[uint256(Library.TransparentProxies.AdminPiggyBank)], paymentTokenID);\r\n    }\r\n    else{\r\n      IPayments payments = IPayments(_managerContract.retrieveTransparentProxies()[uint256(Library.TransparentProxies.Payments)]);\r\n      payments.TransferFrom(msg.sender, _managerContract.retrieveTransparentProxies()[uint256(Library.TransparentProxies.Treasury)], NewIssuerFee, 0, bytes(\"\"), paymentTokenID);\r\n      payments.TransferFrom(msg.sender, _managerContract.retrieveTransparentProxies()[uint256(Library.TransparentProxies.AdminPiggyBank)], AdminNewIssuerFee, 0, bytes(\"\"), paymentTokenID);\r\n    }\r\n\r\n    uint256 IssuerID = getIssuerIdFromName(requestedIssuer._name);\r\n\r\n    addPendingIssuer(IssuerID, requestedIssuer);\r\n\r\n    emit _NewIssuerRequest(IssuerID, requestedIssuer._owner, requestedIssuer._name, requestedIssuer._symbol, paymentTokenID);\r\n  }\r\n\r\n  function addPendingIssuer(uint256 IssuerID, ItemsLibrary._issuerStruct memory requestedIssuer) internal\r\n  {\r\n\r\n    require(address(0) == _pendingIssuers[IssuerID]._issuer._owner && address(0) == _issuers[IssuerID], \"This Issuer Name has already been taken\");\r\n\r\n    _pendingIssuers[IssuerID]._issuer._owner = requestedIssuer._owner;\r\n    _pendingIssuers[IssuerID]._issuer._name = requestedIssuer._name;\r\n    _pendingIssuers[IssuerID]._issuer._symbol = requestedIssuer._symbol;\r\n    _pendingIssuers[IssuerID]._issuer._feeAmount = requestedIssuer._feeAmount;\r\n    _pendingIssuers[IssuerID]._issuer._feeDecimals = requestedIssuer._feeDecimals;\r\n    _pendingIssuers[IssuerID]._issuer._paymentPlan = requestedIssuer._paymentPlan;\r\n    _pendingIssuers[IssuerID]._pendingId = _listOfPendingIssuers.length;\r\n    _listOfPendingIssuers.push(IssuerID);\r\n  }\r\n\r\n  function getIssuerIdFromName(string memory name) internal pure returns(uint256)\r\n  {\r\n    return uint256(keccak256(bytes(name)));\r\n  }\r\n\r\n  function validateIssuer(uint256 id) external override\r\n  {\r\n    voteForIssuer(id, true);\r\n  }\r\n\r\n  function rejectIssuer(uint id) external override\r\n  {\r\n    voteForIssuer(id, false);\r\n  }\r\n\r\n  function voteForIssuer(uint id, bool vote) internal\r\n    isAnOwner(msg.sender, true)\r\n    HasNotAlreadyVoted(msg.sender, _pendingIssuers[id]._voters)\r\n    IssuerPending(id)\r\n  {\r\n    emit _VoteForIssuer(id, msg.sender, vote);\r\n\r\n    _pendingIssuers[id]._voters.push(msg.sender);\r\n        \r\n    if(vote){\r\n        _pendingIssuers[id]._validations++;\r\n\r\n        if(_pendingIssuers[id]._validations >= _minOwners){\r\n            _listOfIssuers.push(id);\r\n            _issuers[id] = GenerateNewNFTMarket(_pendingIssuers[id]._issuer._owner, _pendingIssuers[id]._issuer._name, _pendingIssuers[id]._issuer._symbol, _pendingIssuers[id]._issuer._feeAmount, _pendingIssuers[id]._issuer._feeDecimals, id, _pendingIssuers[id]._issuer._paymentPlan);\r\n            deletingPendingIssuer(id);\r\n            emit _IssuerValidation(id, _issuers[id]);\r\n        }\r\n    }\r\n    else{\r\n        _pendingIssuers[id]._rejections++;\r\n\r\n        if(_pendingIssuers[id]._rejections >= _minOwners){\r\n            deletingPendingIssuer(id);\r\n            emit _IssuerRejection(id);\r\n        }\r\n    }\r\n  }\r\n\r\n  function deletingPendingIssuer(uint256 id) internal\r\n  {\r\n    uint pos = _pendingIssuers[id]._pendingId;\r\n    UintLibrary.UintArrayRemoveResize(pos, _listOfPendingIssuers);\r\n    if(_listOfPendingIssuers.length > pos) _pendingIssuers[_listOfPendingIssuers[pos]]._pendingId = pos;\r\n\r\n    delete(_pendingIssuers[id]._issuer);\r\n    delete(_pendingIssuers[id]._validations);\r\n    delete(_pendingIssuers[id]._rejections);\r\n    delete(_pendingIssuers[id]._voters);\r\n  }\r\n\r\n  function GenerateNewNFTMarket(address owner, string memory name, string memory symbol, uint256 feeAmount, uint256 feeDecimals, uint256 id, Library.PaymentPlans paymentPlan) internal returns(address)\r\n  {\r\n    address beaconAddress = _managerContract.retrieveBeacons()[uint256(Library.Beacons.NFT)];\r\n    ( , , uint256[] memory OffersSettings) = ITreasury(_managerContract.retrieveTransparentProxies()[uint256(Library.TransparentProxies.Treasury)]).retrieveSettings();\r\n    bytes memory data = abi.encodeWithSignature(\"NFTMarket_init(address,address,string,string,uint256,uint256,uint256,uint256,uint8)\", address(_managerContract), owner, name, symbol, OffersSettings[uint256(Library.OffersSettings.OffersLifeTime)], feeAmount, feeDecimals, id, uint8(paymentPlan));\r\n\r\n    BeaconProxy beaconProxy = new BeaconProxy(beaconAddress, data);\r\n\r\n    return address(beaconProxy);\r\n  }\r\n\r\n  function retrieveIssuers() external override view returns (uint[] memory)\r\n  {\r\n    return _listOfIssuers;\r\n  }\r\n\r\n  function retrieveNFTMarketForIssuer(uint id) external override view returns (address)\r\n  {\r\n    return _issuers[id];\r\n  }\r\n\r\n  function retrievePendingIssuers() external override view returns (uint[] memory)\r\n  {\r\n    return _listOfPendingIssuers;\r\n  }\r\n\r\n  function retrievePendingIssuer(uint id) external override view returns (_pendingIssuerStruct memory)\r\n  {\r\n    return _pendingIssuers[id];\r\n  }\r\n\r\n  // Credit Functionality\r\n\r\n  function sendCredit(address addr, uint256 amount, uint256 paymentTokenID) external override\r\n      isPaymentTokenOK(paymentTokenID)\r\n  {\r\n    bytes32[] memory dataArray = new bytes32[](3);\r\n    dataArray[0] = UintLibrary.UintToBytes32(uint256(Library.PublicPoolPaymentTypes.SendCredit));\r\n    dataArray[1] = AddressLibrary.AddressToBytes32(addr);\r\n    bytes memory data = Library.Bytes32ArrayToBytes(dataArray);\r\n\r\n    IPayments payments = IPayments(_managerContract.retrieveTransparentProxies()[uint256(Library.TransparentProxies.Payments)]);\r\n    payments.TransferFrom(msg.sender, address(this), amount, 0, data, paymentTokenID);\r\n  }\r\n\r\n  function addCredit(uint256 NFTMarketId, uint256 tokenID, address[] calldata addrs, uint256[] calldata amounts, uint256[] calldata factors) external override\r\n    isNFTMarket(NFTMarketId, msg.sender)\r\n    checkTotal(_unassignedCreditForMarket[NFTMarketId][tokenID]._credit, amounts, factors)\r\n  {\r\n    require(addrs.length == factors.length, \"Provided arrays do not have the same length\");\r\n    addCreditinternal(NFTMarketId, tokenID, addrs, amounts, factors);\r\n    delete(_unassignedCreditForMarket[NFTMarketId][tokenID]);\r\n  }\r\n\r\n  function addCreditinternal(uint256 NFTMarketId, uint256 tokenID, address[] calldata addrs, uint256[] calldata amounts, uint256[] calldata factors) internal \r\n  {\r\n    uint256 paymentTokenID = _unassignedCreditForMarket[NFTMarketId][tokenID]._paymentTokenID;\r\n    for(uint i=0; i < addrs.length; i++){\r\n      ItemsLibrary.addBalance(_creditOfAccount[paymentTokenID][addrs[i]], amounts[i], factors[i]);\r\n      emit _CreditAssigned(NFTMarketId, tokenID, addrs[i], amounts[i], factors[i], paymentTokenID);\r\n    }\r\n  }\r\n\r\n  function reuseCredit(uint256 NFTMarketId, uint256 tokenID, address addr, uint256 amount, uint256 paymentTokenID) external override\r\n    isNFTMarket(NFTMarketId, msg.sender)\r\n    isTokenUnassignedCreditEmpty(NFTMarketId, tokenID)\r\n    isPaymentTokenOK(paymentTokenID)\r\n  {\r\n    internalWithdraw(address(0), amount, addr, false, bytes(\"\"), paymentTokenID, false);\r\n    internalTransferUnassignedCredit(NFTMarketId, tokenID, amount, paymentTokenID);\r\n    emit _CreditReused(NFTMarketId, tokenID, addr, amount, paymentTokenID);\r\n  }\r\n\r\n  function spendCredit(uint256 NFTMarketId, address from, uint256 amount, address to, uint256 paymentTokenID) external override\r\n    isNFTMarket(NFTMarketId, msg.sender)\r\n    isPaymentTokenOK(paymentTokenID)\r\n  {\r\n    internalSpendCredit(NFTMarketId, from, amount, to, paymentTokenID);\r\n  }\r\n\r\n  function internalSpendCredit(uint256 NFTMarketId, address from, uint256 amount, address to, uint256 paymentTokenID) internal \r\n  {\r\n    internalWithdraw(to, amount, from, true, bytes(\"\"), paymentTokenID, true);\r\n    emit _CreditSpent(NFTMarketId, from, amount, to, paymentTokenID);\r\n  }\r\n\r\n  function withdraw(uint amount, uint256 paymentTokenID) external override\r\n  {\r\n    internalWithdraw(msg.sender, amount, msg.sender, false, bytes(\"\"), paymentTokenID, true);\r\n    emit _CreditWithdrawn(msg.sender, amount, paymentTokenID);\r\n  }\r\n  \r\n  function withdrawAll(uint256 paymentTokenID) external override\r\n  {\r\n    uint amount = ItemsLibrary.checkFullBalance(_creditOfAccount[paymentTokenID][msg.sender]);\r\n    internalWithdraw(msg.sender, amount, msg.sender, false, bytes(\"\"), paymentTokenID, true);\r\n    emit _CreditWithdrawn(msg.sender, amount, paymentTokenID);\r\n  }\r\n  \r\n  function withdrawAllFor(uint256 NFTMarketId, address addr, uint256 paymentTokenID, bytes memory data) external override\r\n    isNFTMarket(NFTMarketId, msg.sender)\r\n  {\r\n    uint amount = ItemsLibrary.checkFullBalance(_creditOfAccount[paymentTokenID][addr]);\r\n    internalWithdraw(addr, amount, addr, true, data, paymentTokenID, true);\r\n    emit _CreditWithdrawnFor(addr, amount, msg.sender, paymentTokenID);\r\n  }\r\n\r\n  function internalTransferUnassignedCredit(uint256 NFTMarketId, uint256 tokenID, uint256 amount, uint256 paymentTokenID) internal\r\n  {\r\n      _unassignedCreditForMarket[NFTMarketId][tokenID]._credit = amount;\r\n      _unassignedCreditForMarket[NFTMarketId][tokenID]._paymentTokenID = paymentTokenID;\r\n  }\r\n\r\n  function internalWithdraw(address to, uint amount, address sender, bool sendData, bytes memory data, uint256 paymentTokenID, bool transfer) internal\r\n  {\r\n    ItemsLibrary.InternalWithdraw(\r\n      _creditOfAccount[paymentTokenID][sender], \r\n      amount, \r\n      to, \r\n      transfer, \r\n      address(IPayments(_managerContract.retrieveTransparentProxies()[uint256(Library.TransparentProxies.Payments)]).retrieveSettings()[paymentTokenID].TokenContract),\r\n      sendData,\r\n      data,\r\n      paymentTokenID\r\n    );\r\n  }\r\n\r\n  function retrieveCredit(address addr, uint256 paymentTokenID) external override view returns (uint256)\r\n  {\r\n    return ItemsLibrary.checkFullBalance(_creditOfAccount[paymentTokenID][addr]);\r\n  }\r\n\r\n\r\n\r\n }",
  "sourcePath": "C:\\Users\\d-aam\\GitHub\\Originals\\contracts\\MainContracts\\PublicPool.sol",
  "compiler": {
    "name": "solc",
    "version": "0.8.7+commit.e28d00a7.Emscripten.clang"
  },
  "schemaVersion": "3.4.3",
  "updatedAt": "2022-03-09T12:36:49.925Z",
  "devdoc": {
    "kind": "dev",
    "methods": {},
    "version": 1
  },
  "userdoc": {
    "kind": "user",
    "methods": {},
    "version": 1
  }
}