{
  "contractName": "PublicPool",
  "abi": [
    {
      "anonymous": false,
      "inputs": [
        {
          "indexed": false,
          "internalType": "address",
          "name": "owner",
          "type": "address"
        }
      ],
      "name": "_AddOwnerRejection",
      "type": "event"
    },
    {
      "anonymous": false,
      "inputs": [
        {
          "indexed": false,
          "internalType": "address",
          "name": "owner",
          "type": "address"
        }
      ],
      "name": "_AddOwnerValidation",
      "type": "event"
    },
    {
      "anonymous": false,
      "inputs": [
        {
          "indexed": true,
          "internalType": "uint256",
          "name": "NFTMarketId",
          "type": "uint256"
        },
        {
          "indexed": true,
          "internalType": "uint256",
          "name": "tokenID",
          "type": "uint256"
        },
        {
          "indexed": true,
          "internalType": "address",
          "name": "receiver",
          "type": "address"
        },
        {
          "indexed": false,
          "internalType": "uint256",
          "name": "amount",
          "type": "uint256"
        },
        {
          "indexed": false,
          "internalType": "uint256",
          "name": "factor",
          "type": "uint256"
        },
        {
          "indexed": false,
          "internalType": "uint256",
          "name": "paymentTokenID",
          "type": "uint256"
        }
      ],
      "name": "_CreditAssigned",
      "type": "event"
    },
    {
      "anonymous": false,
      "inputs": [
        {
          "indexed": true,
          "internalType": "address",
          "name": "receiver",
          "type": "address"
        },
        {
          "indexed": false,
          "internalType": "uint256",
          "name": "amount",
          "type": "uint256"
        },
        {
          "indexed": true,
          "internalType": "address",
          "name": "sender",
          "type": "address"
        },
        {
          "indexed": false,
          "internalType": "uint256",
          "name": "paymentTokenID",
          "type": "uint256"
        }
      ],
      "name": "_CreditReceived",
      "type": "event"
    },
    {
      "anonymous": false,
      "inputs": [
        {
          "indexed": true,
          "internalType": "uint256",
          "name": "NFTMarketId",
          "type": "uint256"
        },
        {
          "indexed": true,
          "internalType": "uint256",
          "name": "tokenID",
          "type": "uint256"
        },
        {
          "indexed": true,
          "internalType": "address",
          "name": "creditor",
          "type": "address"
        },
        {
          "indexed": false,
          "internalType": "uint256",
          "name": "amount",
          "type": "uint256"
        },
        {
          "indexed": false,
          "internalType": "uint256",
          "name": "paymentTokenID",
          "type": "uint256"
        }
      ],
      "name": "_CreditReused",
      "type": "event"
    },
    {
      "anonymous": false,
      "inputs": [
        {
          "indexed": true,
          "internalType": "uint256",
          "name": "NFTMarketId",
          "type": "uint256"
        },
        {
          "indexed": true,
          "internalType": "address",
          "name": "from",
          "type": "address"
        },
        {
          "indexed": false,
          "internalType": "uint256",
          "name": "amount",
          "type": "uint256"
        },
        {
          "indexed": true,
          "internalType": "address",
          "name": "to",
          "type": "address"
        },
        {
          "indexed": false,
          "internalType": "uint256",
          "name": "paymentTokenID",
          "type": "uint256"
        }
      ],
      "name": "_CreditSpent",
      "type": "event"
    },
    {
      "anonymous": false,
      "inputs": [
        {
          "indexed": true,
          "internalType": "uint256",
          "name": "NFTMarketId",
          "type": "uint256"
        },
        {
          "indexed": true,
          "internalType": "uint256",
          "name": "tokenID",
          "type": "uint256"
        },
        {
          "indexed": false,
          "internalType": "uint256",
          "name": "amount",
          "type": "uint256"
        },
        {
          "indexed": false,
          "internalType": "uint256",
          "name": "paymentTokenID",
          "type": "uint256"
        }
      ],
      "name": "_CreditUnAssignedReceived",
      "type": "event"
    },
    {
      "anonymous": false,
      "inputs": [
        {
          "indexed": true,
          "internalType": "address",
          "name": "withdrawer",
          "type": "address"
        },
        {
          "indexed": false,
          "internalType": "uint256",
          "name": "amount",
          "type": "uint256"
        },
        {
          "indexed": false,
          "internalType": "uint256",
          "name": "paymentTokenID",
          "type": "uint256"
        }
      ],
      "name": "_CreditWithdrawn",
      "type": "event"
    },
    {
      "anonymous": false,
      "inputs": [
        {
          "indexed": true,
          "internalType": "address",
          "name": "withdrawer",
          "type": "address"
        },
        {
          "indexed": false,
          "internalType": "uint256",
          "name": "amount",
          "type": "uint256"
        },
        {
          "indexed": true,
          "internalType": "address",
          "name": "sender",
          "type": "address"
        },
        {
          "indexed": false,
          "internalType": "uint256",
          "name": "paymentTokenID",
          "type": "uint256"
        }
      ],
      "name": "_CreditWithdrawnFor",
      "type": "event"
    },
    {
      "anonymous": false,
      "inputs": [
        {
          "indexed": true,
          "internalType": "uint256",
          "name": "id",
          "type": "uint256"
        }
      ],
      "name": "_IssuerRejection",
      "type": "event"
    },
    {
      "anonymous": false,
      "inputs": [
        {
          "indexed": true,
          "internalType": "uint256",
          "name": "id",
          "type": "uint256"
        },
        {
          "indexed": false,
          "internalType": "address",
          "name": "NFTMarket",
          "type": "address"
        }
      ],
      "name": "_IssuerValidation",
      "type": "event"
    },
    {
      "anonymous": false,
      "inputs": [
        {
          "indexed": false,
          "internalType": "uint256",
          "name": "minOwner",
          "type": "uint256"
        }
      ],
      "name": "_MinOwnerRejection",
      "type": "event"
    },
    {
      "anonymous": false,
      "inputs": [
        {
          "indexed": false,
          "internalType": "uint256",
          "name": "minOwner",
          "type": "uint256"
        }
      ],
      "name": "_MinOwnerValidation",
      "type": "event"
    },
    {
      "anonymous": false,
      "inputs": [
        {
          "indexed": true,
          "internalType": "uint256",
          "name": "id",
          "type": "uint256"
        },
        {
          "indexed": false,
          "internalType": "address",
          "name": "owner",
          "type": "address"
        },
        {
          "indexed": false,
          "internalType": "string",
          "name": "name",
          "type": "string"
        },
        {
          "indexed": false,
          "internalType": "string",
          "name": "symbol",
          "type": "string"
        },
        {
          "indexed": false,
          "internalType": "uint256",
          "name": "paymentTokenID",
          "type": "uint256"
        }
      ],
      "name": "_NewIssuerRequest",
      "type": "event"
    },
    {
      "anonymous": false,
      "inputs": [
        {
          "indexed": false,
          "internalType": "address",
          "name": "owner",
          "type": "address"
        }
      ],
      "name": "_RemoveOwnerRejection",
      "type": "event"
    },
    {
      "anonymous": false,
      "inputs": [
        {
          "indexed": false,
          "internalType": "address",
          "name": "owner",
          "type": "address"
        }
      ],
      "name": "_RemoveOwnerValidation",
      "type": "event"
    },
    {
      "anonymous": false,
      "inputs": [
        {
          "indexed": true,
          "internalType": "uint256",
          "name": "id",
          "type": "uint256"
        },
        {
          "indexed": false,
          "internalType": "address",
          "name": "voter",
          "type": "address"
        },
        {
          "indexed": false,
          "internalType": "bool",
          "name": "vote",
          "type": "bool"
        }
      ],
      "name": "_VoteForIssuer",
      "type": "event"
    },
    {
      "anonymous": false,
      "inputs": [
        {
          "indexed": false,
          "internalType": "uint256",
          "name": "minOwner",
          "type": "uint256"
        },
        {
          "indexed": false,
          "internalType": "address",
          "name": "voter",
          "type": "address"
        },
        {
          "indexed": false,
          "internalType": "bool",
          "name": "vote",
          "type": "bool"
        }
      ],
      "name": "_VoteForMinOwner",
      "type": "event"
    },
    {
      "anonymous": false,
      "inputs": [
        {
          "indexed": false,
          "internalType": "address",
          "name": "owner",
          "type": "address"
        },
        {
          "indexed": false,
          "internalType": "address",
          "name": "voter",
          "type": "address"
        },
        {
          "indexed": false,
          "internalType": "bool",
          "name": "vote",
          "type": "bool"
        }
      ],
      "name": "_VoteForOwner",
      "type": "event"
    },
    {
      "inputs": [
        {
          "internalType": "address[]",
          "name": "owners",
          "type": "address[]"
        },
        {
          "internalType": "uint256",
          "name": "minOwners",
          "type": "uint256"
        }
      ],
      "name": "MultiSigContract_init",
      "outputs": [],
      "stateMutability": "nonpayable",
      "type": "function"
    },
    {
      "inputs": [
        {
          "internalType": "address",
          "name": "owner",
          "type": "address"
        }
      ],
      "name": "addOwner",
      "outputs": [],
      "stateMutability": "nonpayable",
      "type": "function"
    },
    {
      "inputs": [
        {
          "internalType": "uint256",
          "name": "newMinOwners",
          "type": "uint256"
        }
      ],
      "name": "changeMinOwners",
      "outputs": [],
      "stateMutability": "nonpayable",
      "type": "function"
    },
    {
      "inputs": [],
      "name": "rejectMinOwners",
      "outputs": [],
      "stateMutability": "nonpayable",
      "type": "function"
    },
    {
      "inputs": [
        {
          "internalType": "address",
          "name": "owner",
          "type": "address"
        }
      ],
      "name": "rejectOwner",
      "outputs": [],
      "stateMutability": "nonpayable",
      "type": "function"
    },
    {
      "inputs": [
        {
          "internalType": "address",
          "name": "owner",
          "type": "address"
        }
      ],
      "name": "removeOwner",
      "outputs": [],
      "stateMutability": "nonpayable",
      "type": "function"
    },
    {
      "inputs": [],
      "name": "retrieveAllOwners",
      "outputs": [
        {
          "internalType": "address[]",
          "name": "",
          "type": "address[]"
        }
      ],
      "stateMutability": "view",
      "type": "function",
      "constant": true
    },
    {
      "inputs": [],
      "name": "retrieveManagerContract",
      "outputs": [
        {
          "internalType": "address",
          "name": "",
          "type": "address"
        }
      ],
      "stateMutability": "view",
      "type": "function",
      "constant": true
    },
    {
      "inputs": [],
      "name": "retrieveMinOwners",
      "outputs": [
        {
          "internalType": "uint256",
          "name": "",
          "type": "uint256"
        }
      ],
      "stateMutability": "view",
      "type": "function",
      "constant": true
    },
    {
      "inputs": [],
      "name": "retrievePendingMinOwners",
      "outputs": [
        {
          "internalType": "uint256",
          "name": "",
          "type": "uint256"
        }
      ],
      "stateMutability": "view",
      "type": "function",
      "constant": true
    },
    {
      "inputs": [],
      "name": "retrievePendingMinOwnersStatus",
      "outputs": [
        {
          "internalType": "uint256",
          "name": "",
          "type": "uint256"
        },
        {
          "internalType": "uint256",
          "name": "",
          "type": "uint256"
        },
        {
          "internalType": "address[]",
          "name": "",
          "type": "address[]"
        }
      ],
      "stateMutability": "view",
      "type": "function",
      "constant": true
    },
    {
      "inputs": [
        {
          "internalType": "bool",
          "name": "addedORremove",
          "type": "bool"
        }
      ],
      "name": "retrievePendingOwners",
      "outputs": [
        {
          "internalType": "address[]",
          "name": "",
          "type": "address[]"
        }
      ],
      "stateMutability": "view",
      "type": "function",
      "constant": true
    },
    {
      "inputs": [],
      "name": "validateMinOwners",
      "outputs": [],
      "stateMutability": "nonpayable",
      "type": "function"
    },
    {
      "inputs": [
        {
          "internalType": "address",
          "name": "owner",
          "type": "address"
        }
      ],
      "name": "validateOwner",
      "outputs": [],
      "stateMutability": "nonpayable",
      "type": "function"
    },
    {
      "inputs": [
        {
          "internalType": "address[]",
          "name": "owners",
          "type": "address[]"
        },
        {
          "internalType": "uint256",
          "name": "minOwners",
          "type": "uint256"
        },
        {
          "internalType": "address",
          "name": "managerContractAddress",
          "type": "address"
        }
      ],
      "name": "PublicPool_init",
      "outputs": [],
      "stateMutability": "nonpayable",
      "type": "function"
    },
    {
      "inputs": [
        {
          "components": [
            {
              "internalType": "address",
              "name": "_owner",
              "type": "address"
            },
            {
              "internalType": "string",
              "name": "_name",
              "type": "string"
            },
            {
              "internalType": "string",
              "name": "_symbol",
              "type": "string"
            },
            {
              "internalType": "uint256",
              "name": "_feeAmount",
              "type": "uint256"
            },
            {
              "internalType": "uint256",
              "name": "_feeDecimals",
              "type": "uint256"
            },
            {
              "internalType": "enum Library.PaymentPlans",
              "name": "_paymentPlan",
              "type": "uint8"
            }
          ],
          "internalType": "struct ItemsLibrary._issuerStruct",
          "name": "requestedIssuer",
          "type": "tuple"
        },
        {
          "internalType": "bool",
          "name": "FromCredit",
          "type": "bool"
        },
        {
          "internalType": "uint256",
          "name": "paymentTokenID",
          "type": "uint256"
        }
      ],
      "name": "requestIssuer",
      "outputs": [],
      "stateMutability": "nonpayable",
      "type": "function"
    },
    {
      "inputs": [
        {
          "internalType": "uint256",
          "name": "id",
          "type": "uint256"
        }
      ],
      "name": "validateIssuer",
      "outputs": [],
      "stateMutability": "nonpayable",
      "type": "function"
    },
    {
      "inputs": [
        {
          "internalType": "uint256",
          "name": "id",
          "type": "uint256"
        }
      ],
      "name": "rejectIssuer",
      "outputs": [],
      "stateMutability": "nonpayable",
      "type": "function"
    },
    {
      "inputs": [],
      "name": "retrieveIssuers",
      "outputs": [
        {
          "internalType": "uint256[]",
          "name": "",
          "type": "uint256[]"
        }
      ],
      "stateMutability": "view",
      "type": "function",
      "constant": true
    },
    {
      "inputs": [
        {
          "internalType": "uint256",
          "name": "id",
          "type": "uint256"
        }
      ],
      "name": "retrieveNFTMarketForIssuer",
      "outputs": [
        {
          "internalType": "address",
          "name": "",
          "type": "address"
        }
      ],
      "stateMutability": "view",
      "type": "function",
      "constant": true
    },
    {
      "inputs": [],
      "name": "retrievePendingIssuers",
      "outputs": [
        {
          "internalType": "uint256[]",
          "name": "",
          "type": "uint256[]"
        }
      ],
      "stateMutability": "view",
      "type": "function",
      "constant": true
    },
    {
      "inputs": [
        {
          "internalType": "uint256",
          "name": "id",
          "type": "uint256"
        }
      ],
      "name": "retrievePendingIssuer",
      "outputs": [
        {
          "components": [
            {
              "components": [
                {
                  "internalType": "address",
                  "name": "_owner",
                  "type": "address"
                },
                {
                  "internalType": "string",
                  "name": "_name",
                  "type": "string"
                },
                {
                  "internalType": "string",
                  "name": "_symbol",
                  "type": "string"
                },
                {
                  "internalType": "uint256",
                  "name": "_feeAmount",
                  "type": "uint256"
                },
                {
                  "internalType": "uint256",
                  "name": "_feeDecimals",
                  "type": "uint256"
                },
                {
                  "internalType": "enum Library.PaymentPlans",
                  "name": "_paymentPlan",
                  "type": "uint8"
                }
              ],
              "internalType": "struct ItemsLibrary._issuerStruct",
              "name": "_issuer",
              "type": "tuple"
            },
            {
              "internalType": "uint256",
              "name": "_pendingId",
              "type": "uint256"
            },
            {
              "internalType": "uint256",
              "name": "_validations",
              "type": "uint256"
            },
            {
              "internalType": "uint256",
              "name": "_rejections",
              "type": "uint256"
            },
            {
              "internalType": "address[]",
              "name": "_voters",
              "type": "address[]"
            }
          ],
          "internalType": "struct IPool._pendingIssuerStruct",
          "name": "",
          "type": "tuple"
        }
      ],
      "stateMutability": "view",
      "type": "function",
      "constant": true
    }
  ],
  "bytecode": "0x608060405234801561001057600080fd5b50614227806100206000396000f3fe60806040523480156200001157600080fd5b50600436106200012a5760003560e01c806303231e5d146200012f578063094a0ed214620001735780630bee185e1462000199578063173825d914620001b2578063280931e714620001c95780632edbe7fc14620001e057806330ade92214620001f357806334f2920714620001fd578063430c37cb1462000214578063538b6aad146200022b5780635888ebb314620002445780635b362e84146200025f57806365b973e514620002775780636b29960414620002805780637065cb4814620002a657806376f8f90f14620002bd578063a0b8ab2b14620002d4578063a93d5ed614620002eb578063c3079ae714620002f5578063c66433ea14620002ff578063ce33d58a1462000316578063d0e13918146200032d575b600080fd5b6200015b6200014036600462003261565b6000908152600a60205260409020546001600160a01b031690565b6040516200016a919062003311565b60405180910390f35b6200018a6200018436600462003261565b62000337565b6040516200016a9190620035b8565b620001b0620001aa36600462002f76565b62000585565b005b620001b0620001c336600462002ea4565b620006f7565b620001b0620001da36600462003261565b6200073a565b6006545b6040519081526020016200016a565b620001b06200074a565b620001b06200020e36600462003261565b62000758565b620001b06200022536600462002fbe565b62000765565b62000235620007f8565b6040516200016a9190620034d7565b6200024e62000852565b6040516200016a93929190620036ac565b6000546201000090046001600160a01b03166200015b565b600554620001e4565b62000297620002913660046200312f565b620008c8565b6040516200016a9190620034c2565b620001b0620002b736600462002ea4565b62000991565b620001b0620002ce36600462002ea4565b620009ad565b620001b0620002e53660046200316f565b62000a05565b62000297620013e8565b620001b06200144d565b620001b06200031036600462003261565b62001459565b620001b06200032736600462002ea4565b620014b0565b62000235620014bd565b6200034162002b77565b6000828152600c6020526040908190208151610160810190925280546001600160a01b031660a08301908152600182018054849291849160c085019190620003899062003786565b80601f0160208091040260200160405190810160405280929190818152602001828054620003b79062003786565b8015620004085780601f10620003dc5761010080835404028352916020019162000408565b820191906000526020600020905b815481529060010190602001808311620003ea57829003601f168201915b50505050508152602001600282018054620004239062003786565b80601f0160208091040260200160405190810160405280929190818152602001828054620004519062003786565b8015620004a25780601f106200047657610100808354040283529160200191620004a2565b820191906000526020600020905b8154815290600101906020018083116200048457829003601f168201915b50505091835250506003820154602082015260048201546040820152600582015460609091019060ff166001811115620004e057620004e0620037f7565b6001811115620004f457620004f4620037f7565b815250508152602001600682015481526020016007820154815260200160088201548152602001600982018054806020026020016040519081016040528092919081815260200182805480156200057557602002820191906000526020600020905b81546001600160a01b0316815260019091019060200180831162000556575b5050505050815250509050919050565b600054610100900460ff16620005a25760005460ff1615620005a6565b303b155b620005ce5760405162461bcd60e51b8152600401620005c5906200356a565b60405180910390fd5b600054610100900460ff16158015620005f1576000805461ffff19166101011790555b81835162000600828262001515565b6001846200060f828262001515565b600586905560005b8751811015620006da5760018060000160008a84815181106200063e576200063e6200380d565b6020908102919091018101516001600160a01b03168252810191909152604001600020805460ff191691151591909117905587516002908990839081106200068a576200068a6200380d565b60209081029190910181015182546001810184556000938452919092200180546001600160a01b0319166001600160a01b0390921691909117905580620006d181620037c3565b91505062000617565b50505050508015620006f2576000805461ff00191690555b505050565b8060016200070682826200153c565b6005546002546200071a906001906200376c565b62000726828262001515565b6200073385600462001595565b5050505050565b6200074781600162001629565b50565b62000756600162001a8d565b565b6200074781600062001629565b600054610100900460ff16620007825760005460ff161562000786565b303b155b620007a55760405162461bcd60e51b8152600401620005c5906200356a565b600054610100900460ff16158015620007c8576000805461ffff19166101011790555b620007d4848462000585565b620007df8262001bf3565b8015620007f2576000805461ff00191690555b50505050565b6060600d8054806020026020016040519081016040528092919081815260200182805480156200084857602002820191906000526020600020905b81548152602001906001019080831162000833575b5050505050905090565b6000806060600754600854600980805480602002602001604051908101604052809291908181526020018280548015620008b657602002820191906000526020600020905b81546001600160a01b0316815260019091019060200180831162000897575b50505050509050925092509250909192565b60608115620009325760038054604080516020808402820181019092528281529291908301828280156200092657602002820191906000526020600020905b81546001600160a01b0316815260019091019060200180831162000907575b50505050509050919050565b600480546040805160208084028201810190925282815292919083018282801562000926576020028201919060005260206000209081546001600160a01b03168152600190910190602001808311620009075750505050509050919050565b806000620009a082826200153c565b620006f283600362001595565b620009b88162001c8e565b151560011415620009f857600254620009d4906001906200376c565b6005541115620009f85760405162461bcd60e51b8152600401620005c5906200354b565b6200074781600162001d13565b825183906001600160a01b031662000a6c5760405162461bcd60e51b8152602060048201526024808201527f4e4654204d61726b6574206f776e65722063616e6e6f742062652061646472656044820152630737320360e41b6064820152608401620005c5565b6060810151608082015160405163bdbff48760e01b815273__Library_______________________________9263bdbff4879262000aad926004016200369e565b60006040518083038186803b15801562000ac657600080fd5b505af415801562000adb573d6000803e3d6000fd5b5050505080602001515160001062000b265760405162461bcd60e51b815260206004820152600d60248201526c4e616d6520697320656d70747960981b6044820152606401620005c5565b80604001515160001062000b6f5760405162461bcd60e51b815260206004820152600f60248201526e53796d626f6c20697320656d70747960881b6044820152606401620005c5565b60008060029054906101000a90046001600160a01b03166001600160a01b031663e220ad956040518163ffffffff1660e01b815260040160006040518083038186803b15801562000bbf57600080fd5b505afa15801562000bd4573d6000803e3d6000fd5b505050506040513d6000823e601f3d908101601f1916820160405262000bfe919081019062002ecb565b60028151811062000c135762000c136200380d565b60200260200101516001600160a01b031663b049473f6040518163ffffffff1660e01b815260040160006040518083038186803b15801562000c5457600080fd5b505afa15801562000c69573d6000803e3d6000fd5b505050506040513d6000823e601f3d908101601f1916820160405262000c9391908101906200301e565b505090508051831062000cf55760405162461bcd60e51b8152602060048201526024808201527f4e6f2073797374656d2070726963657320666f722074686973207061796d656e6044820152631d08125160e21b6064820152608401620005c5565b600081848151811062000d0c5762000d0c6200380d565b60200260200101516000600381111562000d2a5762000d2a620037f7565b8151811062000d3d5762000d3d6200380d565b60200260200101519050600082858151811062000d5e5762000d5e6200380d565b60200260200101516001600381111562000d7c5762000d7c620037f7565b8151811062000d8f5762000d8f6200380d565b6020026020010151905085156200107f5760008060029054906101000a90046001600160a01b03166001600160a01b031663e220ad956040518163ffffffff1660e01b815260040160006040518083038186803b15801562000df057600080fd5b505afa15801562000e05573d6000803e3d6000fd5b505050506040513d6000823e601f3d908101601f1916820160405262000e2f919081019062002ecb565b60078151811062000e445762000e446200380d565b60200260200101519050806001600160a01b03166304226b8860003386600060029054906101000a90046001600160a01b03166001600160a01b031663e220ad956040518163ffffffff1660e01b815260040160006040518083038186803b15801562000eb057600080fd5b505afa15801562000ec5573d6000803e3d6000fd5b505050506040513d6000823e601f3d908101601f1916820160405262000eef919081019062002ecb565b60028151811062000f045762000f046200380d565b60200260200101518b6040518663ffffffff1660e01b815260040162000f2f9594939291906200351d565b600060405180830381600087803b15801562000f4a57600080fd5b505af115801562000f5f573d6000803e3d6000fd5b50505050806001600160a01b03166304226b8860003385600060029054906101000a90046001600160a01b03166001600160a01b031663e220ad956040518163ffffffff1660e01b815260040160006040518083038186803b15801562000fc557600080fd5b505afa15801562000fda573d6000803e3d6000fd5b505050506040513d6000823e601f3d908101601f1916820160405262001004919081019062002ecb565b6005815181106200101957620010196200380d565b60200260200101518b6040518663ffffffff1660e01b8152600401620010449594939291906200351d565b600060405180830381600087803b1580156200105f57600080fd5b505af115801562001074573d6000803e3d6000fd5b50505050506200137b565b60008060029054906101000a90046001600160a01b03166001600160a01b031663e220ad956040518163ffffffff1660e01b815260040160006040518083038186803b158015620010cf57600080fd5b505afa158015620010e4573d6000803e3d6000fd5b505050506040513d6000823e601f3d908101601f191682016040526200110e919081019062002ecb565b6006815181106200112357620011236200380d565b60200260200101519050806001600160a01b0316632c2ec26833600060029054906101000a90046001600160a01b03166001600160a01b031663e220ad956040518163ffffffff1660e01b815260040160006040518083038186803b1580156200118c57600080fd5b505afa158015620011a1573d6000803e3d6000fd5b505050506040513d6000823e601f3d908101601f19168201604052620011cb919081019062002ecb565b600281518110620011e057620011e06200380d565b6020026020010151866000604051806020016040528060008152508c6040518763ffffffff1660e01b81526004016200121f969594939291906200339b565b600060405180830381600087803b1580156200123a57600080fd5b505af11580156200124f573d6000803e3d6000fd5b50505050806001600160a01b0316632c2ec26833600060029054906101000a90046001600160a01b03166001600160a01b031663e220ad956040518163ffffffff1660e01b815260040160006040518083038186803b158015620012b257600080fd5b505afa158015620012c7573d6000803e3d6000fd5b505050506040513d6000823e601f3d908101601f19168201604052620012f1919081019062002ecb565b6005815181106200130657620013066200380d565b6020026020010151856000604051806020016040528060008152508c6040518763ffffffff1660e01b815260040162001345969594939291906200339b565b600060405180830381600087803b1580156200136057600080fd5b505af115801562001375573d6000803e3d6000fd5b50505050505b6020808801518051910120620013928189620021c7565b807fe0b7763e1d87de4309ae9dd735f118335b71f29ef21401f0dd14d9a3e3384f9c89600001518a602001518b604001518a604051620013d6949392919062003476565b60405180910390a25050505050505050565b6060600180018054806020026020016040519081016040528092919081815260200182805480156200084857602002820191906000526020600020905b81546001600160a01b0316815260019091019060200180831162001425575050505050905090565b62000756600062001a8d565b3360016200146882826200153c565b6000620014758162002371565b600254849062001486828262001515565b60018662001495828262001515565b6006889055620014a6600162001a8d565b5050505050505050565b6200074781600062001d13565b6060600b80548060200260200160405190810160405280929190818152602001828054801562000848576020028201919060005260206000209081548152602001906001019080831162000833575050505050905090565b80821115620015385760405162461bcd60e51b8152600401620005c5906200354b565b5050565b6001600160a01b03821660009081526001602052604090205460ff16151581151514620015385760405162461bcd60e51b8152600401620005c5906020808252600490820152634543392d60e01b604082015260600190565b336001620015a482826200153c565b836000620015b38282620023eb565b84546001808201875560008781526020812090920180546001600160a01b0319166001600160a01b038a161790558654620015ef91906200376c565b6001600160a01b03881660009081526001602081905260409091206002018290559091506200162090889062001d13565b50505050505050565b3360016200163882826200153c565b6000848152600c602090815260409182902060090180548351818402810184019094528084523393928301828280156200169c57602002820191906000526020600020905b81546001600160a01b031681526001909101906020018083116200167d575b5050505050620016ad828262002444565b6000868152600c602052604090205486906001600160a01b0316620017155760405162461bcd60e51b815260206004820152601d60248201527f5468697320697373756572206964206973206e6f742070656e64696e670000006044820152606401620005c5565b60408051338152871515602082015288917f5a1a88bd27a0cf1c470b27b132493e61efc1eaf3d1b57db0ab7f73182345d047910160405180910390a26000878152600c602090815260408220600901805460018101825590835291200180546001600160a01b03191633179055851562001a0f576000878152600c60205260408120600701805491620017a883620037c3565b90915550506005546000888152600c60205260409020600701541062001a0957600b805460018181019092557f0175b7a638427703f0dbe7bb9bbf987a2551717b34e79f33b5b1008d1fa01db9018890556000888152600c602052604090208054910180546200197d926001600160a01b03169190620018289062003786565b80601f0160208091040260200160405190810160405280929190818152602001828054620018569062003786565b8015620018a75780601f106200187b57610100808354040283529160200191620018a7565b820191906000526020600020905b8154815290600101906020018083116200188957829003601f168201915b50505060008c8152600c602052604090206002018054909250620018cc915062003786565b80601f0160208091040260200160405190810160405280929190818152602001828054620018fa9062003786565b80156200194b5780601f106200191f576101008083540402835291602001916200194b565b820191906000526020600020905b8154815290600101906020018083116200192d57829003601f168201915b50505060008d8152600c60205260409020600381015460048201546005909201549093509091508d9060ff166200250b565b6000888152600a6020526040902080546001600160a01b0319166001600160a01b0392909216919091179055620019b487620027c6565b6000878152600a60205260409081902054905188917f2cedba2f59ec9c6a70e350caabb40ea15150e2bd297a517df51c1fbdbeacad399162001a00916001600160a01b03169062003311565b60405180910390a25b62001620565b6000878152600c6020526040812060080180549162001a2e83620037c3565b90915550506005546000888152600c602052604090206008015410620016205762001a5987620027c6565b60405187907f403eabfde87045e1433576679912c142f6e51573d2635748e5331c62fbcfecc190600090a250505050505050565b33600162001a9c82826200153c565b600162001aa98162002371565b33600980548060200260200160405190810160405280929190818152602001828054801562001b0257602002820191906000526020600020905b81546001600160a01b0316815260019091019060200180831162001ae3575b505050505062001b13828262002444565b851562001b3b5760016007600082825462001b2f919062003751565b9091555062001b569050565b60016008600082825462001b50919062003751565b90915550505b600980546001810182556000919091527f6e1540171b6c0c960b71a7020d9f60077f6af931a8bbf590da0223dacf75c7af018054336001600160a01b031990911681179091556006546040805191825260208201929092528715158183015290517fb335599a2dd1eaaedeb810215d45e667a6c5ac7bcfd03c29e597db8bf0cddcc69181900360600190a162001beb62002916565b505050505050565b600054610100900460ff1662001c105760005460ff161562001c14565b303b155b62001c335760405162461bcd60e51b8152600401620005c5906200356a565b600054610100900460ff1615801562001c56576000805461ffff19166101011790555b6000805462010000600160b01b031916620100006001600160a01b03851602179055801562001538576000805461ff00191690555050565b6004546001600160a01b03821660009081526001602052604081206002015490911162001cbd57506000919050565b6001600160a01b03821660009081526001602052604090206002015460048054909190811062001cf15762001cf16200380d565b6000918252602090912001546001600160a01b03928316921691909114919050565b33600162001d2282826200153c565b83600162001d318282620023eb565b6001600160a01b038616600090815260016020908152604091829020600501805483518184028101840190945280845233939283018282801562001d9f57602002820191906000526020600020905b81546001600160a01b0316815260019091019060200180831162001d80575b505050505062001db0828262002444565b604080516001600160a01b038a1681523360208201528815158183015290517fc6f241efc3de3ce31d0e682102cc781f0605f0f90d72addfea699e4aea85dd799181900360600190a16001600160a01b038816600090815260016020818152604083206005018054928301815583529091200180546001600160a01b031916331790558615620020cc576001600160a01b038816600090815260016020526040812060030180549162001e6383620037c3565b90915550506005546001600160a01b03891660009081526001602052604090206003015410620020c657600462001e9a89620029bc565b1562001f73575060028054600180820183557f405787fa12a823e0f2b7631cc41b3ba8828b3321ca811111fa75cd3aa3bb5ace90910180546001600160a01b0319166001600160a01b038c169081179091556000908152602082905260409020805460ff191682179055905460039162001f14916200376c565b6001600160a01b038a166000908152600160208190526040918290200191909155517f45bbe5ceeddcb6d0b4045349efc87a3fde966578e3970cda6f53bfc76efaf9f79062001f65908b9062003311565b60405180910390a1620020b8565b6001600160a01b03891660009081526001602081905260409182902001549051633c39c19f60e11b815273__AddressLibrary________________________90637873833e9062001fcc9084906002906004016200369e565b60006040518083038186803b15801562001fe557600080fd5b505af415801562001ffa573d6000803e3d6000fd5b505060025483101591506200205490505780600160000160006001800184815481106200202b576200202b6200380d565b60009182526020808320909101546001600160a01b031683528201929092526040019020600101555b6001600160a01b038a166000908152600160208190526040808320805460ff1916815590910191909155517f82bcab3b042f3e2143a9d33d07fa130afdf763f17a45679670f0e39f12064ca890620020ae908c9062003311565b60405180910390a1505b620020c4898262002a1f565b505b620014a6565b6001600160a01b0388166000908152600160205260408120600401805491620020f583620037c3565b90915550506005546001600160a01b03891660009081526001602052604090206004015410620014a65760046200212c89620029bc565b156200217657506040516003907f622a69297177c029df8c1ba7f4d2d59881089b571ae96800e634aff50d67492e9062002168908b9062003311565b60405180910390a1620021b0565b7f547e31c58b802b63bc89f1109a132a291b0527c9196c97759829aeaecd3c2d3989604051620021a7919062003311565b60405180910390a15b620021bc898262002a1f565b505050505050505050565b6000828152600c60205260409020546001600160a01b03161580156200220257506000828152600a60205260409020546001600160a01b0316155b620022605760405162461bcd60e51b815260206004820152602760248201527f5468697320497373756572204e616d652068617320616c72656164792062656560448201526637103a30b5b2b760c91b6064820152608401620005c5565b80516000838152600c6020908152604090912080546001600160a01b0319166001600160a01b03909316929092178255808301518051620022aa9360010192919091019062002bae565b506040808201516000848152600c60209081529290208151620022d893600290920192919091019062002bae565b5060608101516000838152600c6020526040902060038101919091556080820151600482015560a08201516005909101805460ff191660018381811115620023245762002324620037f7565b021790555050600d80546000838152600c60205260408120600601829055600182018355919091527fd7b6990105719101dabeb77144f2a3385c8033acd3af97e9423a695e81ad1eb50155565b8015620023b157600654620007475760405162461bcd60e51b8152602060048201526005602482015264454333312d60d81b6044820152606401620005c5565b60065415620007475760405162461bcd60e51b8152602060048201526005602482015264454333302d60d81b6044820152606401620005c5565b620023f682620029bc565b80620024085750620024088262001c8e565b151581151514620015385760405162461bcd60e51b8152602060048201526005602482015264454331302d60d81b6044820152606401620005c5565b60405163f7cf62d760e01b815273__AddressLibrary________________________9063f7cf62d7906200247f9085908590600401620033ea565b60206040518083038186803b1580156200249857600080fd5b505af4158015620024ad573d6000803e3d6000fd5b505050506040513d601f19601f82011682018060405250810190620024d391906200314f565b15620015385760405162461bcd60e51b8152600401620005c5906020808252600490820152634543352d60e01b604082015260600190565b600080600060029054906101000a90046001600160a01b03166001600160a01b031663efd621de6040518163ffffffff1660e01b815260040160006040518083038186803b1580156200255d57600080fd5b505afa15801562002572573d6000803e3d6000fd5b505050506040513d6000823e601f3d908101601f191682016040526200259c919081019062002ecb565b600081518110620025b157620025b16200380d565b6020026020010151905060008060029054906101000a90046001600160a01b03166001600160a01b031663e220ad956040518163ffffffff1660e01b815260040160006040518083038186803b1580156200260b57600080fd5b505afa15801562002620573d6000803e3d6000fd5b505050506040513d6000823e601f3d908101601f191682016040526200264a919081019062002ecb565b6002815181106200265f576200265f6200380d565b60200260200101516001600160a01b031663b049473f6040518163ffffffff1660e01b815260040160006040518083038186803b158015620026a057600080fd5b505afa158015620026b5573d6000803e3d6000fd5b505050506040513d6000823e601f3d908101601f19168201604052620026df91908101906200301e565b6000805491945092506201000090046001600160a01b031690508b8b8b8585815181106200271157620027116200380d565b60200260200101518c8c8c8c6001811115620027315762002731620037f7565b6040516024016200274b9998979695949392919062003325565b60408051601f198184030181529181526020820180516001600160e01b03166398a7541d60e01b17905251909150600090849083906200278b9062002c3d565b6200279892919062003448565b604051809103906000f080158015620027b5573d6000803e3d6000fd5b509c9b505050505050505050505050565b6000818152600c60205260409081902060060154905163cffd93cd60e01b815273__UintLibrary___________________________9063cffd93cd9062002815908490600d906004016200369e565b60006040518083038186803b1580156200282e57600080fd5b505af415801562002843573d6000803e3d6000fd5b5050505080600d805490501115620028915780600c6000600d84815481106200287057620028706200380d565b90600052602060002001548152602001908152602001600020600601819055505b6000828152600c6020526040812080546001600160a01b031916815590620028bd600183018262002c4b565b620028cd60028301600062002c4b565b50600060038201819055600482018190556005909101805460ff19169055828152600c602052604081206007810182905560088101829055620015389160099091019062002c8a565b6200292660075460055462002b3a565b15620029725760065460058190556040519081527f09cfdf09b84b5390e2f9e64a6b66bdfd4e3b7a611dfdd07cde2f5289ecdaace7906020015b60405180910390a16200075662002b58565b6200298260085460055462002b3a565b1562000756577f6005dc34d50a3e2ea64571b58119d8a81074b8e2db57a77c28e664641733308f6006546040516200296091815260200190565b6003546001600160a01b038216600090815260016020526040812060020154909111620029eb57506000919050565b6001600160a01b03821660009081526001602052604090206002015460038054909190811062001cf15762001cf16200380d565b6001600160a01b03821660009081526001602052604090819020600201549051633c39c19f60e11b815273__AddressLibrary________________________90637873833e9062002a7790849086906004016200369e565b60006040518083038186803b15801562002a9057600080fd5b505af415801562002aa5573d6000803e3d6000fd5b50505050808280549050111562002afc57806001600001600084848154811062002ad35762002ad36200380d565b60009182526020808320909101546001600160a01b031683528201929092526040019020600201555b6001600160a01b0383166000908152600160205260408120600281018290556003810182905560048101829055620006f29160059091019062002c8a565b60008183101562002b4e5750600062002b52565b5060015b92915050565b6000600681905560078190556008819055620007569060099062002c8a565b6040518060a0016040528062002b8c62002caa565b8152602001600081526020016000815260200160008152602001606081525090565b82805462002bbc9062003786565b90600052602060002090601f01602090048101928262002be0576000855562002c2b565b82601f1062002bfb57805160ff191683800117855562002c2b565b8280016001018555821562002c2b579182015b8281111562002c2b57825182559160200191906001019062002c0e565b5062002c3992915062002cfc565b5090565b610993806200385f83390190565b50805462002c599062003786565b6000825580601f1062002c6a575050565b601f01602090049060005260206000209081019062000747919062002cfc565b508054600082559060005260206000209081019062000747919062002cfc565b6040518060c0016040528060006001600160a01b03168152602001606081526020016060815260200160008152602001600081526020016000600181111562002cf75762002cf7620037f7565b905290565b5b8082111562002c39576000815560010162002cfd565b803562002d208162003839565b919050565b600082601f83011262002d3757600080fd5b8135602062002d5062002d4a836200372b565b620036f8565b80838252828201915082860187848660051b890101111562002d7157600080fd5b60005b8581101562002d9d57813562002d8a8162003839565b8452928401929084019060010162002d74565b5090979650505050505050565b600082601f83011262002dbc57600080fd5b8151602062002dcf62002d4a836200372b565b80838252828201915082860187848660051b890101111562002df057600080fd5b60005b8581101562002d9d5781518452928401929084019060010162002df3565b803562002d20816200384f565b80356002811062002d2057600080fd5b600082601f83011262002e4057600080fd5b81356001600160401b0381111562002e5c5762002e5c62003823565b62002e71601f8201601f1916602001620036f8565b81815284602083860101111562002e8757600080fd5b816020850160208301376000918101602001919091529392505050565b60006020828403121562002eb757600080fd5b813562002ec48162003839565b9392505050565b6000602080838503121562002edf57600080fd5b82516001600160401b0381111562002ef657600080fd5b8301601f8101851362002f0857600080fd5b805162002f1962002d4a826200372b565b80828252848201915084840188868560051b870101111562002f3a57600080fd5b600094505b8385101562002f6a57805162002f558162003839565b83526001949094019391850191850162002f3f565b50979650505050505050565b6000806040838503121562002f8a57600080fd5b82356001600160401b0381111562002fa157600080fd5b62002faf8582860162002d25565b95602094909401359450505050565b60008060006060848603121562002fd457600080fd5b83356001600160401b0381111562002feb57600080fd5b62002ff98682870162002d25565b935050602084013591506040840135620030138162003839565b809150509250925092565b6000806000606084860312156200303457600080fd5b83516001600160401b03808211156200304c57600080fd5b818601915086601f8301126200306157600080fd5b815160206200307462002d4a836200372b565b8083825282820191508286018b848660051b89010111156200309557600080fd5b60005b85811015620030d557815187811115620030b157600080fd5b620030c18e87838c010162002daa565b855250928401929084019060010162003098565b505091890151919750909350505080821115620030f157600080fd5b620030ff8783880162002daa565b935060408601519150808211156200311657600080fd5b50620031258682870162002daa565b9150509250925092565b6000602082840312156200314257600080fd5b813562002ec4816200384f565b6000602082840312156200316257600080fd5b815162002ec4816200384f565b6000806000606084860312156200318557600080fd5b83356001600160401b03808211156200319d57600080fd5b9085019060c08288031215620031b257600080fd5b620031bc620036cd565b620031c78362002d13565b8152602083013582811115620031dc57600080fd5b620031ea8982860162002e2e565b6020830152506040830135828111156200320357600080fd5b620032118982860162002e2e565b60408301525060608301356060820152608083013560808201526200323960a0840162002e1e565b60a08201529450620032519150506020850162002e11565b9150604084013590509250925092565b6000602082840312156200327457600080fd5b5035919050565b600081518084526020808501945080840160005b83811015620032b65781516001600160a01b0316875295820195908201906001016200328f565b509495945050505050565b6000815180845260005b81811015620032e957602081850181015186830182015201620032cb565b81811115620032fc576000602083870101525b50601f01601f19169290920160200192915050565b6001600160a01b0391909116815260200190565b6001600160a01b038a811682528916602082015261012060408201819052600090620033548382018b620032c1565b905082810360608401526200336a818a620032c1565b6080840198909852505060a081019490945260c084019290925260e083015260ff1661010090910152949350505050565b6001600160a01b03878116825286166020820152604081018590526060810184905260c060808201819052600090620033d790830185620032c1565b90508260a0830152979650505050505050565b6001600160a01b038381168252604060208084018290528451918401829052600092858201929091906060860190855b818110156200343a5785518516835294830194918301916001016200341a565b509098975050505050505050565b6001600160a01b03831681526040602082018190526000906200346e90830184620032c1565b949350505050565b6001600160a01b03851681526080602082018190526000906200349c90830186620032c1565b8281036040840152620034b08186620032c1565b91505082606083015295945050505050565b60208152600062002ec460208301846200327b565b6020808252825182820181905260009190848201906040850190845b818110156200351157835183529284019291840191600101620034f3565b50909695505050505050565b9485526001600160a01b03938416602086015260408501929092529091166060830152608082015260a00190565b602080825260059082015264454331392d60d81b604082015260600190565b6020808252602e908201527f496e697469616c697a61626c653a20636f6e747261637420697320616c72656160408201526d191e481a5b9a5d1a585b1a5e995960921b606082015260800190565b602081526000825160a0602084015260018060a01b0381511660c0840152602081015160c060e0850152620035f2610180850182620032c1565b9050604082015160bf1985830301610100860152620036128282620032c1565b9150506060820151610120850152608082015161014085015260a08201519150600282106200365157634e487b7160e01b600052602160045260246000fd5b8161016085015260208501516040850152604085015160608501526060850151608085015260808501519150601f198482030160a08501526200369581836200327b565b95945050505050565b918252602082015260400190565b8381528260208201526060604082015260006200369560608301846200327b565b60405160c081016001600160401b0381118282101715620036f257620036f262003823565b60405290565b604051601f8201601f191681016001600160401b038111828210171562003723576200372362003823565b604052919050565b60006001600160401b0382111562003747576200374762003823565b5060051b60200190565b60008219821115620037675762003767620037e1565b500190565b600082821015620037815762003781620037e1565b500390565b600181811c908216806200379b57607f821691505b60208210811415620037bd57634e487b7160e01b600052602260045260246000fd5b50919050565b6000600019821415620037da57620037da620037e1565b5060010190565b634e487b7160e01b600052601160045260246000fd5b634e487b7160e01b600052602160045260246000fd5b634e487b7160e01b600052603260045260246000fd5b634e487b7160e01b600052604160045260246000fd5b6001600160a01b03811681146200074757600080fd5b80151581146200074757600080fdfe608060405260405161099338038061099383398101604081905261002291610470565b61004d60017fa3f0ad74e5423aebfd80d3ef4346578335a9a72aeaee59ff6cb3582b35133d5161057f565b60008051602061094c83398151915214610069576100696105d0565b6100758282600061007c565b50506105fc565b61008583610156565b6040516001600160a01b038416907f1cf3b03a6cf19fa2baba4df148e9dcabedea7f8a5c07840e207e5c089be95d3e90600090a26000825111806100c65750805b156101515761014f836001600160a01b0316635c60da1b6040518163ffffffff1660e01b815260040160206040518083038186803b15801561010757600080fd5b505afa15801561011b573d6000803e3d6000fd5b505050506040513d601f19601f8201168201806040525081019061013f9190610455565b836102f660201b6100291760201c565b505b505050565b6101698161032260201b6100551760201c565b6101c85760405162461bcd60e51b815260206004820152602560248201527f455243313936373a206e657720626561636f6e206973206e6f74206120636f6e6044820152641d1c9858dd60da1b60648201526084015b60405180910390fd5b61024b816001600160a01b0316635c60da1b6040518163ffffffff1660e01b815260040160206040518083038186803b15801561020457600080fd5b505afa158015610218573d6000803e3d6000fd5b505050506040513d601f19601f8201168201806040525081019061023c9190610455565b61032260201b6100551760201c565b6102b05760405162461bcd60e51b815260206004820152603060248201527f455243313936373a20626561636f6e20696d706c656d656e746174696f6e206960448201526f1cc81b9bdd08184818dbdb9d1c9858dd60821b60648201526084016101bf565b806102d560008051602061094c83398151915260001b61032860201b61005b1760201c565b80546001600160a01b0319166001600160a01b039290921691909117905550565b606061031b838360405180606001604052806027815260200161096c6027913961032b565b9392505050565b3b151590565b90565b6060833b61038a5760405162461bcd60e51b815260206004820152602660248201527f416464726573733a2064656c65676174652063616c6c20746f206e6f6e2d636f6044820152651b9d1c9858dd60d21b60648201526084016101bf565b600080856001600160a01b0316856040516103a59190610530565b600060405180830381855af49150503d80600081146103e0576040519150601f19603f3d011682016040523d82523d6000602084013e6103e5565b606091505b5090925090506103f6828286610400565b9695505050505050565b6060831561040f57508161031b565b82511561041f5782518084602001fd5b8160405162461bcd60e51b81526004016101bf919061054c565b80516001600160a01b038116811461045057600080fd5b919050565b60006020828403121561046757600080fd5b61031b82610439565b6000806040838503121561048357600080fd5b61048c83610439565b60208401519092506001600160401b03808211156104a957600080fd5b818501915085601f8301126104bd57600080fd5b8151818111156104cf576104cf6105e6565b604051601f8201601f19908116603f011681019083821181831017156104f7576104f76105e6565b8160405282815288602084870101111561051057600080fd5b6105218360208301602088016105a4565b80955050505050509250929050565b600082516105428184602087016105a4565b9190910192915050565b602081526000825180602084015261056b8160408501602087016105a4565b601f01601f19169190910160400192915050565b60008282101561059f57634e487b7160e01b600052601160045260246000fd5b500390565b60005b838110156105bf5781810151838201526020016105a7565b8381111561014f5750506000910152565b634e487b7160e01b600052600160045260246000fd5b634e487b7160e01b600052604160045260246000fd5b6103418061060b6000396000f3fe60806040523661001357610011610017565b005b6100115b61002761002261005e565b610106565b565b606061004e83836040518060600160405280602781526020016102e56027913961012a565b9392505050565b3b151590565b90565b60006100917fa3f0ad74e5423aebfd80d3ef4346578335a9a72aeaee59ff6cb3582b35133d50546001600160a01b031690565b6001600160a01b0316635c60da1b6040518163ffffffff1660e01b815260040160206040518083038186803b1580156100c957600080fd5b505afa1580156100dd573d6000803e3d6000fd5b505050506040513d601f19601f82011682018060405250810190610101919061023c565b905090565b3660008037600080366000845af43d6000803e808015610125573d6000f35b3d6000fd5b6060833b61018e5760405162461bcd60e51b815260206004820152602660248201527f416464726573733a2064656c65676174652063616c6c20746f206e6f6e2d636f6044820152651b9d1c9858dd60d21b60648201526084015b60405180910390fd5b600080856001600160a01b0316856040516101a99190610265565b600060405180830381855af49150503d80600081146101e4576040519150601f19603f3d011682016040523d82523d6000602084013e6101e9565b606091505b50915091506101f9828286610203565b9695505050505050565b6060831561021257508161004e565b8251156102225782518084602001fd5b8160405162461bcd60e51b81526004016101859190610281565b60006020828403121561024e57600080fd5b81516001600160a01b038116811461004e57600080fd5b600082516102778184602087016102b4565b9190910192915050565b60208152600082518060208401526102a08160408501602087016102b4565b601f01601f19169190910160400192915050565b60005b838110156102cf5781810151838201526020016102b7565b838111156102de576000848401525b5050505056fe416464726573733a206c6f772d6c6576656c2064656c65676174652063616c6c206661696c6564a2646970667358221220148d20618ce0e4acd0b179dccf12503163fb589ddd8df806d6d9c09a8f4adc1064736f6c63430008070033a3f0ad74e5423aebfd80d3ef4346578335a9a72aeaee59ff6cb3582b35133d50416464726573733a206c6f772d6c6576656c2064656c65676174652063616c6c206661696c6564a2646970667358221220077006387412e0b451f6471221f05e40e0fd88ccb4018a39ca661c1cde571b3c64736f6c63430008070033",
  "immutableReferences": {},
  "source": "// SPDX-License-Identifier: GPL-3.0\r\n\r\npragma solidity 0.8.7;\r\n\r\n/**\r\n Certis Token is an ERC20 Token that grants its holder the right to:\r\n   - Vote on all the systems propositions (changing system configuraiton etc...)\r\n   - Receive Dividends for all the payments forwarded to the Treasury contract\r\n\r\nBefore every token transfer we contact the token gouvernance Base contracts so that the can update the tokens used for voting if needed\r\n\r\n */\r\n\r\nimport \"@openzeppelin/contracts-upgradeable/proxy/utils/Initializable.sol\";\r\nimport \"../Interfaces/IPool.sol\";\r\nimport \"../Interfaces/IMarketsCredits.sol\";\r\nimport \"../Interfaces/ITreasury.sol\";\r\nimport \"../Base/MultiSigContract.sol\";\r\nimport \"../Libraries/ItemsLibrary.sol\";\r\nimport \"../Libraries/UintLibrary.sol\";\r\nimport \"../Libraries/Library.sol\";\r\nimport \"../Libraries/AddressLibrary.sol\";\r\nimport \"../Base/ManagedBaseContract.sol\";\r\nimport \"@openzeppelin/contracts/proxy/beacon/BeaconProxy.sol\";\r\nimport \"../Interfaces/IPayments.sol\";\r\n\r\n contract PublicPool is  IPool, Initializable, ManagedBaseContract, MultiSigContract {\r\n  using ItemsLibrary for *;\r\n  using UintLibrary for *;\r\n  using Library for *;\r\n  using AddressLibrary for *;\r\n\r\n\r\n  // EVENTS /////////////////////////////////////////\r\n  event _NewIssuerRequest(uint256 indexed id, address owner, string name, string symbol, uint256 paymentTokenID);\r\n  event _VoteForIssuer(uint256 indexed id, address voter, bool vote);\r\n  event _IssuerValidation(uint256 indexed id, address NFTMarket);\r\n  event _IssuerRejection(uint256 indexed id);\r\n\r\n  event _CreditReceived(address indexed receiver, uint256 amount, address indexed sender, uint256 paymentTokenID);\r\n  event _CreditUnAssignedReceived(uint256 indexed NFTMarketId, uint256 indexed tokenID, uint256 amount, uint256 paymentTokenID);\r\n  event _CreditAssigned(uint256 indexed NFTMarketId, uint256 indexed tokenID, address indexed receiver, uint256 amount, uint256 factor, uint256 paymentTokenID);\r\n  event _CreditReused(uint256 indexed NFTMarketId, uint256 indexed tokenID, address indexed creditor, uint256 amount, uint256 paymentTokenID);\r\n  event _CreditSpent(uint256 indexed NFTMarketId, address indexed from, uint256 amount, address indexed to, uint256 paymentTokenID);\r\n  event _CreditWithdrawn(address indexed withdrawer, uint256 amount, uint256 paymentTokenID);\r\n  event _CreditWithdrawnFor(address indexed withdrawer, uint256 amount, address indexed sender, uint256 paymentTokenID);\r\n\r\n\r\n  // DATA /////////////////////////////////////////\r\n  struct _unassignedCreditStruct{\r\n    uint256 _credit;\r\n    uint256 _paymentTokenID;\r\n  }\r\n\r\n  mapping(uint256 => address) private _issuers;\r\n  uint256[] private _listOfIssuers;\r\n\r\n  mapping(uint256 => _pendingIssuerStruct) private _pendingIssuers;\r\n  uint256[] private _listOfPendingIssuers;\r\n\r\n\r\n  // MODIFIERS /////////////////////////////////////////\r\n  modifier IssuerPending(uint256 id){\r\n      require(address(0) != _pendingIssuers[id]._issuer._owner, \"This issuer id is not pending\");\r\n      _;\r\n  }\r\n\r\n  modifier validIssuerRequest(ItemsLibrary._issuerStruct memory requestedIssuer){\r\n    require(address(0) != requestedIssuer._owner, \"NFT Market owner cannot be address 0\");\r\n    Library.validFees(requestedIssuer._feeAmount, requestedIssuer._feeDecimals);\r\n    require(0 < bytes(requestedIssuer._name).length, \"Name is empty\");\r\n    require(0 < bytes(requestedIssuer._symbol).length, \"Symbol is empty\");\r\n     _;\r\n  }\r\n\r\n  // CONSTRUCTOR /////////////////////////////////////////\r\n  function PublicPool_init(address[] memory owners, uint256 minOwners, address managerContractAddress) public initializer {\r\n      super.MultiSigContract_init(owners, minOwners); \r\n      super.ManagedBaseContract_init(managerContractAddress); \r\n  }\r\n\r\n  // FUNCTIONALITY /////////////////////////////////////////\r\n  function requestIssuer(ItemsLibrary._issuerStruct memory requestedIssuer, bool FromCredit, uint256 paymentTokenID) external override\r\n    validIssuerRequest(requestedIssuer)\r\n  {\r\n    (uint256[][] memory Fees, , ) = ITreasury(_managerContract.retrieveTransparentProxies()[uint256(Library.TransparentProxies.Treasury)]).retrieveSettings();\r\n    require(paymentTokenID < Fees.length, \"No system prices for this payment ID\");\r\n\r\n    uint256 NewIssuerFee = Fees[paymentTokenID][uint256(Library.Fees.NewIssuerFee)];\r\n    uint256 AdminNewIssuerFee = Fees[paymentTokenID][uint256(Library.Fees.AdminNewIssuerFee)];\r\n\r\n    if(FromCredit){\r\n      IMarketsCredits marketsCredits = IMarketsCredits(_managerContract.retrieveTransparentProxies()[uint256(Library.TransparentProxies.MarketsCredits)]);\r\n      marketsCredits.spendCredit(0, msg.sender, NewIssuerFee, _managerContract.retrieveTransparentProxies()[uint256(Library.TransparentProxies.Treasury)], paymentTokenID);\r\n      marketsCredits.spendCredit(0, msg.sender, AdminNewIssuerFee, _managerContract.retrieveTransparentProxies()[uint256(Library.TransparentProxies.AdminPiggyBank)], paymentTokenID);\r\n    }\r\n    else{\r\n      IPayments payments = IPayments(_managerContract.retrieveTransparentProxies()[uint256(Library.TransparentProxies.Payments)]);\r\n      payments.TransferFrom(msg.sender, _managerContract.retrieveTransparentProxies()[uint256(Library.TransparentProxies.Treasury)], NewIssuerFee, 0, bytes(\"\"), paymentTokenID);\r\n      payments.TransferFrom(msg.sender, _managerContract.retrieveTransparentProxies()[uint256(Library.TransparentProxies.AdminPiggyBank)], AdminNewIssuerFee, 0, bytes(\"\"), paymentTokenID);\r\n    }\r\n\r\n    uint256 IssuerID = getIssuerIdFromName(requestedIssuer._name);\r\n\r\n    addPendingIssuer(IssuerID, requestedIssuer);\r\n\r\n    emit _NewIssuerRequest(IssuerID, requestedIssuer._owner, requestedIssuer._name, requestedIssuer._symbol, paymentTokenID);\r\n  }\r\n\r\n  function addPendingIssuer(uint256 IssuerID, ItemsLibrary._issuerStruct memory requestedIssuer) internal\r\n  {\r\n\r\n    require(address(0) == _pendingIssuers[IssuerID]._issuer._owner && address(0) == _issuers[IssuerID], \"This Issuer Name has already been taken\");\r\n\r\n    _pendingIssuers[IssuerID]._issuer._owner = requestedIssuer._owner;\r\n    _pendingIssuers[IssuerID]._issuer._name = requestedIssuer._name;\r\n    _pendingIssuers[IssuerID]._issuer._symbol = requestedIssuer._symbol;\r\n    _pendingIssuers[IssuerID]._issuer._feeAmount = requestedIssuer._feeAmount;\r\n    _pendingIssuers[IssuerID]._issuer._feeDecimals = requestedIssuer._feeDecimals;\r\n    _pendingIssuers[IssuerID]._issuer._paymentPlan = requestedIssuer._paymentPlan;\r\n    _pendingIssuers[IssuerID]._pendingId = _listOfPendingIssuers.length;\r\n    _listOfPendingIssuers.push(IssuerID);\r\n  }\r\n\r\n  function getIssuerIdFromName(string memory name) internal pure returns(uint256)\r\n  {\r\n    return uint256(keccak256(bytes(name)));\r\n  }\r\n\r\n  function validateIssuer(uint256 id) external override\r\n  {\r\n    voteForIssuer(id, true);\r\n  }\r\n\r\n  function rejectIssuer(uint id) external override\r\n  {\r\n    voteForIssuer(id, false);\r\n  }\r\n\r\n  function voteForIssuer(uint id, bool vote) internal\r\n    isAnOwner(msg.sender, true)\r\n    HasNotAlreadyVoted(msg.sender, _pendingIssuers[id]._voters)\r\n    IssuerPending(id)\r\n  {\r\n    emit _VoteForIssuer(id, msg.sender, vote);\r\n\r\n    _pendingIssuers[id]._voters.push(msg.sender);\r\n        \r\n    if(vote){\r\n        _pendingIssuers[id]._validations++;\r\n\r\n        if(_pendingIssuers[id]._validations >= _minOwners){\r\n            _listOfIssuers.push(id);\r\n            _issuers[id] = GenerateNewNFTMarket(_pendingIssuers[id]._issuer._owner, _pendingIssuers[id]._issuer._name, _pendingIssuers[id]._issuer._symbol, _pendingIssuers[id]._issuer._feeAmount, _pendingIssuers[id]._issuer._feeDecimals, id, _pendingIssuers[id]._issuer._paymentPlan);\r\n            deletingPendingIssuer(id);\r\n            emit _IssuerValidation(id, _issuers[id]);\r\n        }\r\n    }\r\n    else{\r\n        _pendingIssuers[id]._rejections++;\r\n\r\n        if(_pendingIssuers[id]._rejections >= _minOwners){\r\n            deletingPendingIssuer(id);\r\n            emit _IssuerRejection(id);\r\n        }\r\n    }\r\n  }\r\n\r\n  function deletingPendingIssuer(uint256 id) internal\r\n  {\r\n    uint pos = _pendingIssuers[id]._pendingId;\r\n    UintLibrary.UintArrayRemoveResize(pos, _listOfPendingIssuers);\r\n    if(_listOfPendingIssuers.length > pos) _pendingIssuers[_listOfPendingIssuers[pos]]._pendingId = pos;\r\n\r\n    delete(_pendingIssuers[id]._issuer);\r\n    delete(_pendingIssuers[id]._validations);\r\n    delete(_pendingIssuers[id]._rejections);\r\n    delete(_pendingIssuers[id]._voters);\r\n  }\r\n\r\n  function GenerateNewNFTMarket(address owner, string memory name, string memory symbol, uint256 feeAmount, uint256 feeDecimals, uint256 id, Library.PaymentPlans paymentPlan) internal returns(address)\r\n  {\r\n    address beaconAddress = _managerContract.retrieveBeacons()[uint256(Library.Beacons.NFT)];\r\n    ( , , uint256[] memory OffersSettings) = ITreasury(_managerContract.retrieveTransparentProxies()[uint256(Library.TransparentProxies.Treasury)]).retrieveSettings();\r\n    bytes memory data = abi.encodeWithSignature(\"NFTMarket_init(address,address,string,string,uint256,uint256,uint256,uint256,uint8)\", address(_managerContract), owner, name, symbol, OffersSettings[uint256(Library.OffersSettings.OffersLifeTime)], feeAmount, feeDecimals, id, uint8(paymentPlan));\r\n\r\n    BeaconProxy beaconProxy = new BeaconProxy(beaconAddress, data);\r\n\r\n    return address(beaconProxy);\r\n  }\r\n\r\n  function retrieveIssuers() external override view returns (uint[] memory)\r\n  {\r\n    return _listOfIssuers;\r\n  }\r\n\r\n  function retrieveNFTMarketForIssuer(uint id) external override view returns (address)\r\n  {\r\n    return _issuers[id];\r\n  }\r\n\r\n  function retrievePendingIssuers() external override view returns (uint[] memory)\r\n  {\r\n    return _listOfPendingIssuers;\r\n  }\r\n\r\n  function retrievePendingIssuer(uint id) external override view returns (_pendingIssuerStruct memory)\r\n  {\r\n    return _pendingIssuers[id];\r\n  }\r\n\r\n\r\n }",
  "sourcePath": "C:\\Users\\d-aam\\GitHub\\Originals\\contracts\\MainContracts\\PublicPool.sol",
  "compiler": {
    "name": "solc",
    "version": "0.8.7+commit.e28d00a7.Emscripten.clang"
  },
  "schemaVersion": "3.4.3",
  "updatedAt": "2022-03-17T09:33:56.222Z",
  "networkType": "ethereum",
  "devdoc": {
    "kind": "dev",
    "methods": {},
    "version": 1
  },
  "userdoc": {
    "kind": "user",
    "methods": {},
    "version": 1
  }
}