{
  "contractName": "PublicPool",
  "abi": [
    {
      "anonymous": false,
      "inputs": [
        {
          "indexed": false,
          "internalType": "address",
          "name": "owner",
          "type": "address"
        }
      ],
      "name": "_AddOwnerRejection",
      "type": "event"
    },
    {
      "anonymous": false,
      "inputs": [
        {
          "indexed": false,
          "internalType": "address",
          "name": "owner",
          "type": "address"
        }
      ],
      "name": "_AddOwnerValidation",
      "type": "event"
    },
    {
      "anonymous": false,
      "inputs": [
        {
          "indexed": true,
          "internalType": "uint256",
          "name": "id",
          "type": "uint256"
        }
      ],
      "name": "_IssuerRejection",
      "type": "event"
    },
    {
      "anonymous": false,
      "inputs": [
        {
          "indexed": true,
          "internalType": "uint256",
          "name": "id",
          "type": "uint256"
        },
        {
          "indexed": false,
          "internalType": "address",
          "name": "NFTMarket",
          "type": "address"
        }
      ],
      "name": "_IssuerValidation",
      "type": "event"
    },
    {
      "anonymous": false,
      "inputs": [
        {
          "indexed": false,
          "internalType": "uint256",
          "name": "minOwner",
          "type": "uint256"
        }
      ],
      "name": "_MinOwnerRejection",
      "type": "event"
    },
    {
      "anonymous": false,
      "inputs": [
        {
          "indexed": false,
          "internalType": "uint256",
          "name": "minOwner",
          "type": "uint256"
        }
      ],
      "name": "_MinOwnerValidation",
      "type": "event"
    },
    {
      "anonymous": false,
      "inputs": [
        {
          "indexed": true,
          "internalType": "uint256",
          "name": "id",
          "type": "uint256"
        },
        {
          "indexed": false,
          "internalType": "address",
          "name": "owner",
          "type": "address"
        },
        {
          "indexed": false,
          "internalType": "string",
          "name": "name",
          "type": "string"
        },
        {
          "indexed": false,
          "internalType": "string",
          "name": "symbol",
          "type": "string"
        }
      ],
      "name": "_NewIssuerRequest",
      "type": "event"
    },
    {
      "anonymous": false,
      "inputs": [
        {
          "indexed": false,
          "internalType": "address",
          "name": "owner",
          "type": "address"
        }
      ],
      "name": "_RemoveOwnerRejection",
      "type": "event"
    },
    {
      "anonymous": false,
      "inputs": [
        {
          "indexed": false,
          "internalType": "address",
          "name": "owner",
          "type": "address"
        }
      ],
      "name": "_RemoveOwnerValidation",
      "type": "event"
    },
    {
      "anonymous": false,
      "inputs": [
        {
          "indexed": true,
          "internalType": "uint256",
          "name": "id",
          "type": "uint256"
        },
        {
          "indexed": false,
          "internalType": "address",
          "name": "voter",
          "type": "address"
        },
        {
          "indexed": false,
          "internalType": "bool",
          "name": "vote",
          "type": "bool"
        }
      ],
      "name": "_VoteForIssuer",
      "type": "event"
    },
    {
      "anonymous": false,
      "inputs": [
        {
          "indexed": false,
          "internalType": "uint256",
          "name": "minOwner",
          "type": "uint256"
        },
        {
          "indexed": false,
          "internalType": "address",
          "name": "voter",
          "type": "address"
        },
        {
          "indexed": false,
          "internalType": "bool",
          "name": "vote",
          "type": "bool"
        }
      ],
      "name": "_VoteForMinOwner",
      "type": "event"
    },
    {
      "anonymous": false,
      "inputs": [
        {
          "indexed": false,
          "internalType": "address",
          "name": "owner",
          "type": "address"
        },
        {
          "indexed": false,
          "internalType": "address",
          "name": "voter",
          "type": "address"
        },
        {
          "indexed": false,
          "internalType": "bool",
          "name": "vote",
          "type": "bool"
        }
      ],
      "name": "_VoteForOwner",
      "type": "event"
    },
    {
      "inputs": [
        {
          "internalType": "address[]",
          "name": "owners",
          "type": "address[]"
        },
        {
          "internalType": "uint256",
          "name": "minOwners",
          "type": "uint256"
        }
      ],
      "name": "MultiSigContract_init",
      "outputs": [],
      "stateMutability": "nonpayable",
      "type": "function"
    },
    {
      "inputs": [
        {
          "internalType": "address",
          "name": "owner",
          "type": "address"
        }
      ],
      "name": "addOwner",
      "outputs": [],
      "stateMutability": "nonpayable",
      "type": "function"
    },
    {
      "inputs": [
        {
          "internalType": "uint256",
          "name": "newMinOwners",
          "type": "uint256"
        }
      ],
      "name": "changeMinOwners",
      "outputs": [],
      "stateMutability": "nonpayable",
      "type": "function"
    },
    {
      "inputs": [],
      "name": "rejectMinOwners",
      "outputs": [],
      "stateMutability": "nonpayable",
      "type": "function"
    },
    {
      "inputs": [
        {
          "internalType": "address",
          "name": "owner",
          "type": "address"
        }
      ],
      "name": "rejectOwner",
      "outputs": [],
      "stateMutability": "nonpayable",
      "type": "function"
    },
    {
      "inputs": [
        {
          "internalType": "address",
          "name": "owner",
          "type": "address"
        }
      ],
      "name": "removeOwner",
      "outputs": [],
      "stateMutability": "nonpayable",
      "type": "function"
    },
    {
      "inputs": [],
      "name": "retrieveAllOwners",
      "outputs": [
        {
          "internalType": "address[]",
          "name": "",
          "type": "address[]"
        }
      ],
      "stateMutability": "view",
      "type": "function"
    },
    {
      "inputs": [],
      "name": "retrieveManagerContract",
      "outputs": [
        {
          "internalType": "address",
          "name": "",
          "type": "address"
        }
      ],
      "stateMutability": "view",
      "type": "function"
    },
    {
      "inputs": [],
      "name": "retrieveMinOwners",
      "outputs": [
        {
          "internalType": "uint256",
          "name": "",
          "type": "uint256"
        }
      ],
      "stateMutability": "view",
      "type": "function"
    },
    {
      "inputs": [],
      "name": "retrievePendingMinOwners",
      "outputs": [
        {
          "internalType": "uint256",
          "name": "",
          "type": "uint256"
        }
      ],
      "stateMutability": "view",
      "type": "function"
    },
    {
      "inputs": [],
      "name": "retrievePendingMinOwnersStatus",
      "outputs": [
        {
          "internalType": "uint256",
          "name": "",
          "type": "uint256"
        },
        {
          "internalType": "uint256",
          "name": "",
          "type": "uint256"
        },
        {
          "internalType": "address[]",
          "name": "",
          "type": "address[]"
        }
      ],
      "stateMutability": "view",
      "type": "function"
    },
    {
      "inputs": [
        {
          "internalType": "bool",
          "name": "addedORremove",
          "type": "bool"
        }
      ],
      "name": "retrievePendingOwners",
      "outputs": [
        {
          "internalType": "address[]",
          "name": "",
          "type": "address[]"
        }
      ],
      "stateMutability": "view",
      "type": "function"
    },
    {
      "inputs": [],
      "name": "validateMinOwners",
      "outputs": [],
      "stateMutability": "nonpayable",
      "type": "function"
    },
    {
      "inputs": [
        {
          "internalType": "address",
          "name": "owner",
          "type": "address"
        }
      ],
      "name": "validateOwner",
      "outputs": [],
      "stateMutability": "nonpayable",
      "type": "function"
    },
    {
      "inputs": [
        {
          "internalType": "address[]",
          "name": "owners",
          "type": "address[]"
        },
        {
          "internalType": "uint256",
          "name": "minOwners",
          "type": "uint256"
        },
        {
          "internalType": "address",
          "name": "managerContractAddress",
          "type": "address"
        }
      ],
      "name": "PublicPool_init",
      "outputs": [],
      "stateMutability": "nonpayable",
      "type": "function"
    },
    {
      "inputs": [
        {
          "internalType": "address",
          "name": "owner",
          "type": "address"
        },
        {
          "internalType": "string",
          "name": "name",
          "type": "string"
        },
        {
          "internalType": "string",
          "name": "symbol",
          "type": "string"
        },
        {
          "internalType": "uint256",
          "name": "feeAmount",
          "type": "uint256"
        },
        {
          "internalType": "uint256",
          "name": "feeDecimals",
          "type": "uint256"
        },
        {
          "internalType": "enum Library.PaymentPlans",
          "name": "paymentPlan",
          "type": "uint8"
        }
      ],
      "name": "requestIssuer",
      "outputs": [
        {
          "internalType": "uint256",
          "name": "",
          "type": "uint256"
        }
      ],
      "stateMutability": "payable",
      "type": "function"
    },
    {
      "inputs": [
        {
          "internalType": "uint256",
          "name": "id",
          "type": "uint256"
        }
      ],
      "name": "validateIssuer",
      "outputs": [],
      "stateMutability": "nonpayable",
      "type": "function"
    },
    {
      "inputs": [
        {
          "internalType": "uint256",
          "name": "id",
          "type": "uint256"
        }
      ],
      "name": "rejectIssuer",
      "outputs": [],
      "stateMutability": "nonpayable",
      "type": "function"
    },
    {
      "inputs": [],
      "name": "retrieveIssuers",
      "outputs": [
        {
          "internalType": "uint256[]",
          "name": "",
          "type": "uint256[]"
        }
      ],
      "stateMutability": "view",
      "type": "function"
    },
    {
      "inputs": [
        {
          "internalType": "uint256",
          "name": "id",
          "type": "uint256"
        }
      ],
      "name": "retrieveNFTMarketForIssuer",
      "outputs": [
        {
          "internalType": "address",
          "name": "",
          "type": "address"
        }
      ],
      "stateMutability": "view",
      "type": "function"
    },
    {
      "inputs": [],
      "name": "retrievePendingIssuers",
      "outputs": [
        {
          "internalType": "uint256[]",
          "name": "",
          "type": "uint256[]"
        }
      ],
      "stateMutability": "view",
      "type": "function"
    },
    {
      "inputs": [
        {
          "internalType": "uint256",
          "name": "id",
          "type": "uint256"
        }
      ],
      "name": "retrievePendingIssuer",
      "outputs": [
        {
          "components": [
            {
              "components": [
                {
                  "internalType": "address",
                  "name": "_owner",
                  "type": "address"
                },
                {
                  "internalType": "string",
                  "name": "_name",
                  "type": "string"
                },
                {
                  "internalType": "string",
                  "name": "_symbol",
                  "type": "string"
                },
                {
                  "internalType": "uint256",
                  "name": "_feeAmount",
                  "type": "uint256"
                },
                {
                  "internalType": "uint256",
                  "name": "_feeDecimals",
                  "type": "uint256"
                },
                {
                  "internalType": "enum Library.PaymentPlans",
                  "name": "_paymentPlan",
                  "type": "uint8"
                }
              ],
              "internalType": "struct ItemsLibrary._issuerStruct",
              "name": "_issuer",
              "type": "tuple"
            },
            {
              "internalType": "uint256",
              "name": "_pendingId",
              "type": "uint256"
            },
            {
              "internalType": "uint256",
              "name": "_validations",
              "type": "uint256"
            },
            {
              "internalType": "uint256",
              "name": "_rejections",
              "type": "uint256"
            },
            {
              "internalType": "address[]",
              "name": "_voters",
              "type": "address[]"
            }
          ],
          "internalType": "struct ItemsLibrary._pendingIssuerStruct",
          "name": "",
          "type": "tuple"
        }
      ],
      "stateMutability": "view",
      "type": "function"
    }
  ],
  "bytecode": "0x608060405234801561001057600080fd5b50613933806100206000396000f3fe6080604052600436106200011c5760003560e01c806303231e5d1462000121578063094a0ed214620001735780630bee185e14620001a7578063173825d914620001ce578063280931e714620001f35780632edbe7fc146200021857806330ade922146200023957806334f292071462000251578063430c37cb1462000276578063538b6aad146200029b5780635888ebb314620002c25780635b362e8414620002eb57806365b973e5146200030b5780636b29960414620003225780637065cb48146200035657806376f8f90f146200037b578063a93d5ed614620003a0578063c3079ae714620003b8578063c50afbcd14620003d0578063c66433ea14620003e7578063ce33d58a146200040c578063d0e139181462000431575b600080fd5b3480156200012e57600080fd5b506200015b6200014036600462002a20565b6000908152600b60205260409020546001600160a01b031690565b6040516200016a919062002ad0565b60405180910390f35b3480156200018057600080fd5b50620001986200019236600462002a20565b62000449565b6040516200016a919062002cef565b348015620001b457600080fd5b50620001cc620001c6366004620028a4565b62000697565b005b348015620001db57600080fd5b50620001cc620001ed36600462002728565b62000809565b3480156200020057600080fd5b50620001cc6200021236600462002a20565b6200084c565b3480156200022557600080fd5b506006545b6040519081526020016200016a565b3480156200024657600080fd5b50620001cc6200085c565b3480156200025e57600080fd5b50620001cc6200027036600462002a20565b6200086a565b3480156200028357600080fd5b50620001cc62000295366004620028ec565b62000877565b348015620002a857600080fd5b50620002b36200090f565b6040516200016a919062002c3c565b348015620002cf57600080fd5b50620002da62000969565b6040516200016a9392919062002de3565b348015620002f857600080fd5b50600a546001600160a01b03166200015b565b3480156200031857600080fd5b506005546200022a565b3480156200032f57600080fd5b506200034762000341366004620029e0565b620009df565b6040516200016a919062002c27565b3480156200036357600080fd5b50620001cc6200037536600462002728565b62000aa8565b3480156200038857600080fd5b50620001cc6200039a36600462002728565b62000ac4565b348015620003ad57600080fd5b506200034762000b1c565b348015620003c557600080fd5b50620001cc62000b81565b6200022a620003e13660046200274f565b62000b8d565b348015620003f457600080fd5b50620001cc6200040636600462002a20565b620010a7565b3480156200041957600080fd5b50620001cc6200042b36600462002728565b620010fe565b3480156200043e57600080fd5b50620002b36200110b565b6200045362002491565b6000828152600d6020526040908190208151610160810190925280546001600160a01b031660a08301908152600182018054849291849160c0850191906200049b9062002e92565b80601f0160208091040260200160405190810160405280929190818152602001828054620004c99062002e92565b80156200051a5780601f10620004ee576101008083540402835291602001916200051a565b820191906000526020600020905b815481529060010190602001808311620004fc57829003601f168201915b50505050508152602001600282018054620005359062002e92565b80601f0160208091040260200160405190810160405280929190818152602001828054620005639062002e92565b8015620005b45780601f106200058857610100808354040283529160200191620005b4565b820191906000526020600020905b8154815290600101906020018083116200059657829003601f168201915b50505091835250506003820154602082015260048201546040820152600582015460609091019060ff166001811115620005f257620005f262002f03565b600181111562000606576200060662002f03565b815250508152602001600682015481526020016007820154815260200160088201548152602001600982018054806020026020016040519081016040528092919081815260200182805480156200068757602002820191906000526020600020905b81546001600160a01b0316815260019091019060200180831162000668575b5050505050815250509050919050565b600054610100900460ff16620006b45760005460ff1615620006b8565b303b155b620006e05760405162461bcd60e51b8152600401620006d79062002ca1565b60405180910390fd5b600054610100900460ff1615801562000703576000805461ffff19166101011790555b81835162000712828262001163565b60018462000721828262001163565b600586905560005b8751811015620007ec5760018060000160008a848151811062000750576200075062002f19565b6020908102919091018101516001600160a01b03168252810191909152604001600020805460ff191691151591909117905587516002908990839081106200079c576200079c62002f19565b60209081029190910181015182546001810184556000938452919092200180546001600160a01b0319166001600160a01b0390921691909117905580620007e38162002ecf565b91505062000729565b5050505050801562000804576000805461ff00191690555b505050565b8060016200081882826200118a565b6005546002546200082c9060019062002e78565b62000838828262001163565b62000845856004620011e4565b5050505050565b6200085981600162001278565b50565b62000868600162001663565b565b6200085981600062001278565b600054610100900460ff16620008945760005460ff161562000898565b303b155b620008b75760405162461bcd60e51b8152600401620006d79062002ca1565b600054610100900460ff16158015620008da576000805461ffff19166101011790555b620008e6848462000697565b620008f18262001720565b6000600f55801562000909576000805461ff00191690555b50505050565b6060600e8054806020026020016040519081016040528092919081815260200182805480156200095f57602002820191906000526020600020905b8154815260200190600101908083116200094a575b5050505050905090565b6000806060600754600854600980805480602002602001604051908101604052809291908181526020018280548015620009cd57602002820191906000526020600020905b81546001600160a01b03168152600190910190602001808311620009ae575b50505050509050925092509250909192565b6060811562000a4957600380546040805160208084028201810190925282815292919083018282801562000a3d57602002820191906000526020600020905b81546001600160a01b0316815260019091019060200180831162000a1e575b50505050509050919050565b600480546040805160208084028201810190925282815292919083018282801562000a3d576020028201919060005260206000209081546001600160a01b0316815260019091019060200180831162000a1e5750505050509050919050565b80600062000ab782826200118a565b62000804836003620011e4565b62000acf81620017b4565b15156001141562000b0f5760025462000aeb9060019062002e78565b600554111562000b0f5760405162461bcd60e51b8152600401620006d79062002c82565b620008598160016200180a565b6060600180018054806020026020016040519081016040528092919081815260200182805480156200095f57602002820191906000526020600020905b81546001600160a01b0316815260019091019060200180831162000b59575050505050905090565b62000868600062001663565b6000866001600160a01b03811662000bf45760405162461bcd60e51b8152602060048201526024808201527f4e4654204d61726b6574206f776e65722063616e6e6f742062652061646472656044820152630737320360e41b6064820152608401620006d7565b848473__Library_______________________________63bdbff48783836040518363ffffffff1660e01b815260040162000c3192919062002dd5565b60006040518083038186803b15801562000c4a57600080fd5b505af415801562000c5f573d6000803e3d6000fd5b505050506000600a60009054906101000a90046001600160a01b03166001600160a01b031663e220ad956040518163ffffffff1660e01b815260040160006040518083038186803b15801562000cb457600080fd5b505afa15801562000cc9573d6000803e3d6000fd5b505050506040513d6000823e601f3d908101601f1916820160405262000cf39190810190620027f9565b60028151811062000d085762000d0862002f19565b60200260200101516001600160a01b031663b049473f6040518163ffffffff1660e01b815260040160006040518083038186803b15801562000d4957600080fd5b505afa15801562000d5e573d6000803e3d6000fd5b505050506040513d6000823e601f3d908101601f1916820160405262000d8891908101906200294c565b60008151811062000d9d5762000d9d62002f19565b602002602001015190508034101562000df65760405162461bcd60e51b815260206004820152601a60248201527909ccaee4092e6e6eacae4408ccacae640dcdee840cadcdeeaced60331b6044820152606401620006d7565b600a60009054906101000a90046001600160a01b03166001600160a01b031663e220ad956040518163ffffffff1660e01b815260040160006040518083038186803b15801562000e4557600080fd5b505afa15801562000e5a573d6000803e3d6000fd5b505050506040513d6000823e601f3d908101601f1916820160405262000e849190810190620027f9565b60028151811062000e995762000e9962002f19565b60200260200101516001600160a01b0316631b9265b8346040518263ffffffff1660e01b81526004016000604051808303818588803b15801562000edc57600080fd5b505af115801562000ef1573d6000803e3d6000fd5b50505050508a600d6000600f54815260200190815260200160002060000160000160006101000a8154816001600160a01b0302191690836001600160a01b0316021790555089600d6000600f548152602001908152602001600020600001600101908051906020019062000f67929190620024c8565b50600f546000908152600d602090815260409091208a5162000f92926002909201918c0190620024c8565b50600f80546000908152600d60205260408082206003018b9055825482528082206004018a90559154815220600501805487919060ff19166001838181111562000fe05762000fe062002f03565b0217905550600e8054600f80546000908152600d602052604080822060060184905591546001840185559390527fbb7b4a454dc3493923482f07822329ed19e8244eff582cc204f8554c3620c3fd909101829055517f88d341cdb636e2cf41b99330be584ef11888487c9b2aef53410ed90fb2c487ad9062001068908e908e908e9062002be3565b60405180910390a2600f8054906000620010828362002ecf565b91905055506001600f5462001098919062002e78565b9b9a5050505050505050505050565b336001620010b682826200118a565b6000620010c38162001c52565b6002548490620010d4828262001163565b600186620010e3828262001163565b6006889055620010f4600162001663565b5050505050505050565b620008598160006200180a565b6060600c8054806020026020016040519081016040528092919081815260200182805480156200095f57602002820191906000526020600020908154815260200190600101908083116200094a575050505050905090565b80821115620011865760405162461bcd60e51b8152600401620006d79062002c82565b5050565b6001600160a01b03821660009081526001602052604090205460ff165b151581151514620011865760405162461bcd60e51b8152600401620006d7906020808252600490820152634543392d60e01b604082015260600190565b336001620011f382826200118a565b83600062001202828262001ccc565b84546001808201875560008781526020812090920180546001600160a01b0319166001600160a01b038a1617905586546200123e919062002e78565b6001600160a01b03881660009081526001602081905260409091206002018290559091506200126f9088906200180a565b50505050505050565b3360016200128782826200118a565b6000848152600d602052604090205484906001600160a01b0316620012ef5760405162461bcd60e51b815260206004820152601d60248201527f5468697320697373756572206964206973206e6f742070656e64696e670000006044820152606401620006d7565b60408051338152851515602082015286917f5a1a88bd27a0cf1c470b27b132493e61efc1eaf3d1b57db0ab7f73182345d047910160405180910390a26000858152600d602090815260408220600901805460018101825590835291200180546001600160a01b031916331790558315620015e7576000858152600d60205260408120600701805491620013828362002ecf565b90915550506005546000868152600d602052604090206007015410620015e157600c805460018181019092557fdf6966c971051c3d54ec59162606531493a51404a002842f56009d7e5cf4a8c7018690556000868152600d6020526040902080549101805462001555926001600160a01b03169190620014029062002e92565b80601f0160208091040260200160405190810160405280929190818152602001828054620014309062002e92565b8015620014815780601f10620014555761010080835404028352916020019162001481565b820191906000526020600020905b8154815290600101906020018083116200146357829003601f168201915b50505060008a8152600d602052604090206002018054909250620014a6915062002e92565b80601f0160208091040260200160405190810160405280929190818152602001828054620014d49062002e92565b8015620015255780601f10620014f95761010080835404028352916020019162001525565b820191906000526020600020905b8154815290600101906020018083116200150757829003601f168201915b50505060008b8152600d602052604090206003810154600482015460059092015490935090915060ff1662001ce9565b6000868152600b6020526040902080546001600160a01b0319166001600160a01b03929092169190911790556200158c8562001f9e565b6000858152600b60205260409081902054905186917f2cedba2f59ec9c6a70e350caabb40ea15150e2bd297a517df51c1fbdbeacad3991620015d8916001600160a01b03169062002ad0565b60405180910390a25b62000845565b6000858152600d60205260408120600801805491620016068362002ecf565b90915550506005546000868152600d6020526040902060080154106200084557620016318562001f9e565b60405185907f403eabfde87045e1433576679912c142f6e51573d2635748e5331c62fbcfecc190600090a25050505050565b3360016200167282826200118a565b60016200167f8162001c52565b336000600162001691838383620020ee565b8615620016b957600160076000828254620016ad919062002e5d565b90915550620016d49050565b600160086000828254620016ce919062002e5d565b90915550505b600980546001810182556000919091527f6e1540171b6c0c960b71a7020d9f60077f6af931a8bbf590da0223dacf75c7af0180546001600160a01b031916331790556200126f620021db565b600054610100900460ff166200173d5760005460ff161562001741565b303b155b620017605760405162461bcd60e51b8152600401620006d79062002ca1565b600054610100900460ff1615801562001783576000805461ffff19166101011790555b600a80546001600160a01b0319166001600160a01b038416179055801562001186576000805461ff00191690555050565b6001600160a01b038116600090815260016020526040812060020154600480549091908110620017e857620017e862002f19565b6000918252602090912001546001600160a01b03928316921691909114919050565b3360016200181982826200118a565b83600162001828828262001ccc565b3386600062001839838383620020ee565b604080516001600160a01b038b1681523360208201528915158183015290517fc6f241efc3de3ce31d0e682102cc781f0605f0f90d72addfea699e4aea85dd799181900360600190a16001600160a01b038916600090815260016020818152604083206005018054928301815583529091200180546001600160a01b03191633179055871562001b55576001600160a01b0389166000908152600160205260408120600301805491620018ec8362002ecf565b90915550506005546001600160a01b038a166000908152600160205260409020600301541062001b4f576004620019238a62002323565b15620019fc575060028054600180820183557f405787fa12a823e0f2b7631cc41b3ba8828b3321ca811111fa75cd3aa3bb5ace90910180546001600160a01b0319166001600160a01b038d169081179091556000908152602082905260409020805460ff19168217905590546003916200199d9162002e78565b6001600160a01b038b166000908152600160208190526040918290200191909155517f45bbe5ceeddcb6d0b4045349efc87a3fde966578e3970cda6f53bfc76efaf9f790620019ee908c9062002ad0565b60405180910390a162001b41565b6001600160a01b038a1660009081526001602081905260409182902001549051633c39c19f60e11b815273__AddressLibrary________________________90637873833e9062001a5590849060029060040162002dd5565b60006040518083038186803b15801562001a6e57600080fd5b505af415801562001a83573d6000803e3d6000fd5b5050600254831015915062001add905057806001600001600060018001848154811062001ab45762001ab462002f19565b60009182526020808320909101546001600160a01b031683528201929092526040019020600101555b6001600160a01b038b166000908152600160208190526040808320805460ff1916815590910191909155517f82bcab3b042f3e2143a9d33d07fa130afdf763f17a45679670f0e39f12064ca89062001b37908d9062002ad0565b60405180910390a1505b62001b4d8a8262002357565b505b62001c47565b6001600160a01b038916600090815260016020526040812060040180549162001b7e8362002ecf565b90915550506005546001600160a01b038a166000908152600160205260409020600401541062001c4757600462001bb58a62002323565b1562001bff57506040516003907f622a69297177c029df8c1ba7f4d2d59881089b571ae96800e634aff50d67492e9062001bf1908c9062002ad0565b60405180910390a162001c39565b7f547e31c58b802b63bc89f1109a132a291b0527c9196c97759829aeaecd3c2d398a60405162001c30919062002ad0565b60405180910390a15b62001c458a8262002357565b505b505050505050505050565b801562001c9257600654620008595760405162461bcd60e51b8152602060048201526005602482015264454333312d60d81b6044820152606401620006d7565b60065415620008595760405162461bcd60e51b8152602060048201526005602482015264454333302d60d81b6044820152606401620006d7565b62001cd78262002323565b80620011a75750620011a782620017b4565b600080600a60009054906101000a90046001600160a01b03166001600160a01b031663efd621de6040518163ffffffff1660e01b815260040160006040518083038186803b15801562001d3b57600080fd5b505afa15801562001d50573d6000803e3d6000fd5b505050506040513d6000823e601f3d908101601f1916820160405262001d7a9190810190620027f9565b60008151811062001d8f5762001d8f62002f19565b602002602001015190506000600a60009054906101000a90046001600160a01b03166001600160a01b031663e220ad956040518163ffffffff1660e01b815260040160006040518083038186803b15801562001dea57600080fd5b505afa15801562001dff573d6000803e3d6000fd5b505050506040513d6000823e601f3d908101601f1916820160405262001e299190810190620027f9565b60028151811062001e3e5762001e3e62002f19565b60200260200101516001600160a01b031663b049473f6040518163ffffffff1660e01b815260040160006040518083038186803b15801562001e7f57600080fd5b505afa15801562001e94573d6000803e3d6000fd5b505050506040513d6000823e601f3d908101601f1916820160405262001ebe91908101906200294c565b60078151811062001ed35762001ed362002f19565b6020908102919091010151600a549091506000906001600160a01b03168a8a8a858b8b8b600181111562001f0b5762001f0b62002f03565b60405160240162001f2498979695949392919062002ae4565b60408051601f198184030181529181526020820180516001600160e01b0316630d63cc8b60e01b179052519091506000908490839062001f649062002557565b62001f7192919062002bb5565b604051809103906000f08015801562001f8e573d6000803e3d6000fd5b509b9a5050505050505050505050565b6000818152600d60205260409081902060060154905163cffd93cd60e01b815273__UintLibrary___________________________9063cffd93cd9062001fed908490600e9060040162002dd5565b60006040518083038186803b1580156200200657600080fd5b505af41580156200201b573d6000803e3d6000fd5b5050505080600e805490501115620020695780600d6000600e848154811062002048576200204862002f19565b90600052602060002001548152602001908152602001600020600601819055505b6000828152600d6020526040812080546001600160a01b03191681559062002095600183018262002565565b620020a560028301600062002565565b50600060038201819055600482018190556005909101805460ff19169055828152600d6020526040812060078101829055600881018290556200118691600990910190620025a4565b6001600160a01b0382166000908152600160205260409020600501811562002114575060095b60405163f7cf62d760e01b815273__AddressLibrary________________________9063f7cf62d7906200214f908790859060040162002b54565b60206040518083038186803b1580156200216857600080fd5b505af41580156200217d573d6000803e3d6000fd5b505050506040513d601f19601f82011682018060405250810190620021a3919062002a00565b15620009095760405162461bcd60e51b8152600401620006d7906020808252600490820152634543352d60e01b604082015260600190565b60075460055460405163f6001d7d60e01b815273__ItemsLibrary__________________________9263f6001d7d92620022189260040162002dd5565b60206040518083038186803b1580156200223157600080fd5b505af415801562002246573d6000803e3d6000fd5b505050506040513d601f19601f820116820180604052508101906200226c919062002a00565b1562002282576006546005556200086862002472565b60085460055460405163f6001d7d60e01b815273__ItemsLibrary__________________________9263f6001d7d92620022bf9260040162002dd5565b60206040518083038186803b158015620022d857600080fd5b505af4158015620022ed573d6000803e3d6000fd5b505050506040513d601f19601f8201168201806040525081019062002313919062002a00565b1562000868576200086862002472565b6001600160a01b038116600090815260016020526040812060020154600380549091908110620017e857620017e862002f19565b6001600160a01b03821660009081526001602052604090819020600201549051633c39c19f60e11b815273__AddressLibrary________________________90637873833e90620023af908490869060040162002dd5565b60006040518083038186803b158015620023c857600080fd5b505af4158015620023dd573d6000803e3d6000fd5b505050508082805490501115620024345780600160000160008484815481106200240b576200240b62002f19565b60009182526020808320909101546001600160a01b031683528201929092526040019020600201555b6001600160a01b03831660009081526001602052604081206002810182905560038101829055600481018290556200080491600590910190620025a4565b60006006819055600781905560088190556200086890600990620025a4565b6040518060a00160405280620024a6620025c4565b8152602001600081526020016000815260200160008152602001606081525090565b828054620024d69062002e92565b90600052602060002090601f016020900481019282620024fa576000855562002545565b82601f106200251557805160ff191683800117855562002545565b8280016001018555821562002545579182015b828111156200254557825182559160200191906001019062002528565b506200255392915062002616565b5090565b6109938062002f6b83390190565b508054620025739062002e92565b6000825580601f1062002584575050565b601f01602090049060005260206000209081019062000859919062002616565b508054600082559060005260206000209081019062000859919062002616565b6040518060c0016040528060006001600160a01b03168152602001606081526020016060815260200160008152602001600081526020016000600181111562002611576200261162002f03565b905290565b5b8082111562002553576000815560010162002617565b600082601f8301126200263f57600080fd5b8135602062002658620026528362002e37565b62002e04565b80838252828201915082860187848660051b89010111156200267957600080fd5b60005b85811015620026a5578135620026928162002f45565b845292840192908401906001016200267c565b5090979650505050505050565b600082601f830112620026c457600080fd5b81356001600160401b03811115620026e057620026e062002f2f565b620026f5601f8201601f191660200162002e04565b8181528460208386010111156200270b57600080fd5b816020850160208301376000918101602001919091529392505050565b6000602082840312156200273b57600080fd5b8135620027488162002f45565b9392505050565b60008060008060008060c087890312156200276957600080fd5b8635620027768162002f45565b955060208701356001600160401b03808211156200279357600080fd5b620027a18a838b01620026b2565b96506040890135915080821115620027b857600080fd5b50620027c789828a01620026b2565b945050606087013592506080870135915060a087013560028110620027eb57600080fd5b809150509295509295509295565b600060208083850312156200280d57600080fd5b82516001600160401b038111156200282457600080fd5b8301601f810185136200283657600080fd5b805162002847620026528262002e37565b80828252848201915084840188868560051b87010111156200286857600080fd5b600094505b8385101562002898578051620028838162002f45565b8352600194909401939185019185016200286d565b50979650505050505050565b60008060408385031215620028b857600080fd5b82356001600160401b03811115620028cf57600080fd5b620028dd858286016200262d565b95602094909401359450505050565b6000806000606084860312156200290257600080fd5b83356001600160401b038111156200291957600080fd5b62002927868287016200262d565b935050602084013591506040840135620029418162002f45565b809150509250925092565b600060208083850312156200296057600080fd5b82516001600160401b038111156200297757600080fd5b8301601f810185136200298957600080fd5b80516200299a620026528262002e37565b80828252848201915084840188868560051b8701011115620029bb57600080fd5b600094505b8385101562002898578051835260019490940193918501918501620029c0565b600060208284031215620029f357600080fd5b8135620027488162002f5b565b60006020828403121562002a1357600080fd5b8151620027488162002f5b565b60006020828403121562002a3357600080fd5b5035919050565b600081518084526020808501945080840160005b8381101562002a755781516001600160a01b03168752958201959082019060010162002a4e565b509495945050505050565b6000815180845260005b8181101562002aa85760208185018101518683018201520162002a8a565b8181111562002abb576000602083870101525b50601f01601f19169290920160200192915050565b6001600160a01b0391909116815260200190565b6001600160a01b038981168252881660208201526101006040820181905260009062002b138382018a62002a80565b9050828103606084015262002b29818962002a80565b9150508560808301528460a08301528360c083015260ff831660e08301529998505050505050505050565b60006040820160018060a01b03808616845260206040818601528286548085526060870191508760005282600020945060005b8181101562002ba757855485168352600195860195928401920162002b87565b509098975050505050505050565b6001600160a01b038316815260406020820181905260009062002bdb9083018462002a80565b949350505050565b6001600160a01b038416815260606020820181905260009062002c099083018562002a80565b828103604084015262002c1d818562002a80565b9695505050505050565b60208152600062002748602083018462002a3a565b6020808252825182820181905260009190848201906040850190845b8181101562002c765783518352928401929184019160010162002c58565b50909695505050505050565b602080825260059082015264454331392d60d81b604082015260600190565b6020808252602e908201527f496e697469616c697a61626c653a20636f6e747261637420697320616c72656160408201526d191e481a5b9a5d1a585b1a5e995960921b606082015260800190565b602081526000825160a0602084015260018060a01b0381511660c0840152602081015160c060e085015262002d2961018085018262002a80565b9050604082015160bf198583030161010086015262002d49828262002a80565b9150506060820151610120850152608082015161014085015260a082015191506002821062002d8857634e487b7160e01b600052602160045260246000fd5b8161016085015260208501516040850152604085015160608501526060850151608085015260808501519150601f198482030160a085015262002dcc818362002a3a565b95945050505050565b918252602082015260400190565b83815282602082015260606040820152600062002dcc606083018462002a3a565b604051601f8201601f191681016001600160401b038111828210171562002e2f5762002e2f62002f2f565b604052919050565b60006001600160401b0382111562002e535762002e5362002f2f565b5060051b60200190565b6000821982111562002e735762002e7362002eed565b500190565b60008282101562002e8d5762002e8d62002eed565b500390565b600181811c9082168062002ea757607f821691505b6020821081141562002ec957634e487b7160e01b600052602260045260246000fd5b50919050565b600060001982141562002ee65762002ee662002eed565b5060010190565b634e487b7160e01b600052601160045260246000fd5b634e487b7160e01b600052602160045260246000fd5b634e487b7160e01b600052603260045260246000fd5b634e487b7160e01b600052604160045260246000fd5b6001600160a01b03811681146200085957600080fd5b80151581146200085957600080fdfe608060405260405161099338038061099383398101604081905261002291610470565b61004d60017fa3f0ad74e5423aebfd80d3ef4346578335a9a72aeaee59ff6cb3582b35133d5161057f565b60008051602061094c83398151915214610069576100696105d0565b6100758282600061007c565b50506105fc565b61008583610156565b6040516001600160a01b038416907f1cf3b03a6cf19fa2baba4df148e9dcabedea7f8a5c07840e207e5c089be95d3e90600090a26000825111806100c65750805b156101515761014f836001600160a01b0316635c60da1b6040518163ffffffff1660e01b815260040160206040518083038186803b15801561010757600080fd5b505afa15801561011b573d6000803e3d6000fd5b505050506040513d601f19601f8201168201806040525081019061013f9190610455565b836102f660201b6100291760201c565b505b505050565b6101698161032260201b6100551760201c565b6101c85760405162461bcd60e51b815260206004820152602560248201527f455243313936373a206e657720626561636f6e206973206e6f74206120636f6e6044820152641d1c9858dd60da1b60648201526084015b60405180910390fd5b61024b816001600160a01b0316635c60da1b6040518163ffffffff1660e01b815260040160206040518083038186803b15801561020457600080fd5b505afa158015610218573d6000803e3d6000fd5b505050506040513d601f19601f8201168201806040525081019061023c9190610455565b61032260201b6100551760201c565b6102b05760405162461bcd60e51b815260206004820152603060248201527f455243313936373a20626561636f6e20696d706c656d656e746174696f6e206960448201526f1cc81b9bdd08184818dbdb9d1c9858dd60821b60648201526084016101bf565b806102d560008051602061094c83398151915260001b61032860201b61005b1760201c565b80546001600160a01b0319166001600160a01b039290921691909117905550565b606061031b838360405180606001604052806027815260200161096c6027913961032b565b9392505050565b3b151590565b90565b6060833b61038a5760405162461bcd60e51b815260206004820152602660248201527f416464726573733a2064656c65676174652063616c6c20746f206e6f6e2d636f6044820152651b9d1c9858dd60d21b60648201526084016101bf565b600080856001600160a01b0316856040516103a59190610530565b600060405180830381855af49150503d80600081146103e0576040519150601f19603f3d011682016040523d82523d6000602084013e6103e5565b606091505b5090925090506103f6828286610400565b9695505050505050565b6060831561040f57508161031b565b82511561041f5782518084602001fd5b8160405162461bcd60e51b81526004016101bf919061054c565b80516001600160a01b038116811461045057600080fd5b919050565b60006020828403121561046757600080fd5b61031b82610439565b6000806040838503121561048357600080fd5b61048c83610439565b60208401519092506001600160401b03808211156104a957600080fd5b818501915085601f8301126104bd57600080fd5b8151818111156104cf576104cf6105e6565b604051601f8201601f19908116603f011681019083821181831017156104f7576104f76105e6565b8160405282815288602084870101111561051057600080fd5b6105218360208301602088016105a4565b80955050505050509250929050565b600082516105428184602087016105a4565b9190910192915050565b602081526000825180602084015261056b8160408501602087016105a4565b601f01601f19169190910160400192915050565b60008282101561059f57634e487b7160e01b600052601160045260246000fd5b500390565b60005b838110156105bf5781810151838201526020016105a7565b8381111561014f5750506000910152565b634e487b7160e01b600052600160045260246000fd5b634e487b7160e01b600052604160045260246000fd5b6103418061060b6000396000f3fe60806040523661001357610011610017565b005b6100115b61002761002261005e565b610106565b565b606061004e83836040518060600160405280602781526020016102e56027913961012a565b9392505050565b3b151590565b90565b60006100917fa3f0ad74e5423aebfd80d3ef4346578335a9a72aeaee59ff6cb3582b35133d50546001600160a01b031690565b6001600160a01b0316635c60da1b6040518163ffffffff1660e01b815260040160206040518083038186803b1580156100c957600080fd5b505afa1580156100dd573d6000803e3d6000fd5b505050506040513d601f19601f82011682018060405250810190610101919061023c565b905090565b3660008037600080366000845af43d6000803e808015610125573d6000f35b3d6000fd5b6060833b61018e5760405162461bcd60e51b815260206004820152602660248201527f416464726573733a2064656c65676174652063616c6c20746f206e6f6e2d636f6044820152651b9d1c9858dd60d21b60648201526084015b60405180910390fd5b600080856001600160a01b0316856040516101a99190610265565b600060405180830381855af49150503d80600081146101e4576040519150601f19603f3d011682016040523d82523d6000602084013e6101e9565b606091505b50915091506101f9828286610203565b9695505050505050565b6060831561021257508161004e565b8251156102225782518084602001fd5b8160405162461bcd60e51b81526004016101859190610281565b60006020828403121561024e57600080fd5b81516001600160a01b038116811461004e57600080fd5b600082516102778184602087016102b4565b9190910192915050565b60208152600082518060208401526102a08160408501602087016102b4565b601f01601f19169190910160400192915050565b60005b838110156102cf5781810151838201526020016102b7565b838111156102de576000848401525b5050505056fe416464726573733a206c6f772d6c6576656c2064656c65676174652063616c6c206661696c6564a2646970667358221220148d20618ce0e4acd0b179dccf12503163fb589ddd8df806d6d9c09a8f4adc1064736f6c63430008070033a3f0ad74e5423aebfd80d3ef4346578335a9a72aeaee59ff6cb3582b35133d50416464726573733a206c6f772d6c6576656c2064656c65676174652063616c6c206661696c6564a2646970667358221220a59e11de8b29f81c544bed3af8cf7f3f60a40e534078ddad7a9a7259aeb2fd9b64736f6c63430008070033",
  "immutableReferences": {},
  "source": "// SPDX-License-Identifier: GPL-3.0\r\n\r\npragma solidity 0.8.7;\r\n\r\n/**\r\n Certis Token is an ERC20 Token that grants its holder the right to:\r\n   - Vote on all the systems propositions (changing system configuraiton etc...)\r\n   - Receive Dividends for all the payments forwarded to the Treasury contract\r\n\r\nBefore every token transfer we contact the token gouvernance Base contracts so that the can update the tokens used for voting if needed\r\n\r\n */\r\n\r\nimport \"@openzeppelin/contracts-upgradeable/proxy/utils/Initializable.sol\";\r\nimport \"../Interfaces/IPool.sol\";\r\nimport \"../Interfaces/ITreasury.sol\";\r\nimport \"../Base/ManagedBaseContract.sol\";\r\nimport \"../Base/MultiSigContract.sol\";\r\nimport \"../Libraries/ItemsLibrary.sol\";\r\nimport \"../Libraries/UintLibrary.sol\";\r\nimport \"@openzeppelin/contracts/proxy/beacon/BeaconProxy.sol\";\r\n\r\n\r\n\r\n contract PublicPool is  Initializable, MultiSigContract, ManagedBaseContract, IPool {\r\n  using ItemsLibrary for *;\r\n  using UintLibrary for *;\r\n\r\n  // EVENTS /////////////////////////////////////////\r\n  event _NewIssuerRequest(uint256 indexed id, address owner, string name, string symbol);\r\n\r\n  event _VoteForIssuer(uint256 indexed id, address voter, bool vote);\r\n  event _IssuerValidation(uint256 indexed id, address NFTMarket);\r\n  event _IssuerRejection(uint256 indexed id);\r\n\r\n  // DATA /////////////////////////////////////////\r\n  mapping(uint256 => address) _issuers;\r\n  uint256[] _listOfIssuers;\r\n\r\n  mapping(uint256 => ItemsLibrary._pendingIssuerStruct) _pendingIssuers;\r\n  uint256[] _listOfPendingIssuers;\r\n\r\n  uint256 nextIssuerId;\r\n\r\n  // MODIFIERS /////////////////////////////////////////\r\n  modifier validOwner(address owner){\r\n      require(address(0) != owner, \"NFT Market owner cannot be address 0\");\r\n      _;\r\n  }\r\n\r\n  modifier IssuerPending(uint256 id){\r\n      require(address(0) != _pendingIssuers[id]._issuer._owner, \"This issuer id is not pending\");\r\n      _;\r\n  }\r\n\r\n  modifier validFees(uint256 fee, uint256 decimals){\r\n      Library.validFees(fee, decimals);\r\n      _;\r\n  }\r\n\r\n  // CONSTRUCTOR /////////////////////////////////////////\r\n  function PublicPool_init(address[] memory owners,  uint256 minOwners, address managerContractAddress) public initializer {\r\n      super.MultiSigContract_init(owners, minOwners); \r\n      super.ManagedBaseContract_init(managerContractAddress); \r\n\r\n      nextIssuerId = 0;\r\n  }\r\n\r\n  // FUNCTIONALITY /////////////////////////////////////////\r\n  function requestIssuer(address owner, string memory name, string memory symbol, uint256 feeAmount, uint256 feeDecimals, Library.PaymentPlans paymentPlan) external override payable\r\n    validOwner(owner)\r\n    validFees(feeAmount, feeDecimals)\r\n  returns (uint256)\r\n  {\r\n\r\n    uint256 NewIssuerFee = ITreasury(_managerContract.retrieveTransparentProxies()[uint256(Library.TransparentProxies.Treasury)]).retrieveSettings()[uint256(Library.Prices.NewIssuerFee)];\r\n    require(msg.value >= NewIssuerFee, \"New Issuer Fees not enough\");\r\n    ITreasury(_managerContract.retrieveTransparentProxies()[uint256(Library.TransparentProxies.Treasury)]).pay{value:msg.value}();\r\n\r\n    _pendingIssuers[nextIssuerId]._issuer._owner = owner;\r\n    _pendingIssuers[nextIssuerId]._issuer._name = name;\r\n    _pendingIssuers[nextIssuerId]._issuer._symbol = symbol;\r\n    _pendingIssuers[nextIssuerId]._issuer._feeAmount = feeAmount;\r\n    _pendingIssuers[nextIssuerId]._issuer._feeDecimals = feeDecimals;\r\n    _pendingIssuers[nextIssuerId]._issuer._paymentPlan = paymentPlan;\r\n    _pendingIssuers[nextIssuerId]._pendingId = _listOfPendingIssuers.length;\r\n    _listOfPendingIssuers.push(nextIssuerId);\r\n\r\n    emit _NewIssuerRequest(nextIssuerId, owner, name, symbol);\r\n\r\n    nextIssuerId++;\r\n    return(nextIssuerId - 1);\r\n  }\r\n\r\n  function validateIssuer(uint256 id) external override\r\n  {\r\n    voteForIssuer(id, true);\r\n  }\r\n\r\n  function rejectIssuer(uint id) external override\r\n  {\r\n    voteForIssuer(id, false);\r\n  }\r\n\r\n  function voteForIssuer(uint id, bool vote) internal\r\n    isAnOwner(msg.sender, true)\r\n    IssuerPending(id)\r\n  {\r\n    emit _VoteForIssuer(id, msg.sender, vote);\r\n\r\n    _pendingIssuers[id]._voters.push(msg.sender);\r\n        \r\n    if(vote){\r\n        _pendingIssuers[id]._validations++;\r\n\r\n        if(_pendingIssuers[id]._validations >= _minOwners){\r\n            _listOfIssuers.push(id);\r\n            _issuers[id] = GenerateNewNFTMarket(_pendingIssuers[id]._issuer._owner, _pendingIssuers[id]._issuer._name, _pendingIssuers[id]._issuer._symbol, _pendingIssuers[id]._issuer._feeAmount, _pendingIssuers[id]._issuer._feeDecimals, _pendingIssuers[id]._issuer._paymentPlan);\r\n            deletingPendingIssuer(id);\r\n            emit _IssuerValidation(id, _issuers[id]);\r\n        }\r\n    }\r\n    else{\r\n        _pendingIssuers[id]._rejections++;\r\n\r\n        if(_pendingIssuers[id]._rejections >= _minOwners){\r\n            deletingPendingIssuer(id);\r\n            emit _IssuerRejection(id);\r\n        }\r\n    }\r\n  }\r\n\r\n  function deletingPendingIssuer(uint256 id) internal\r\n  {\r\n    uint pos = _pendingIssuers[id]._pendingId;\r\n    UintLibrary.UintArrayRemoveResize(pos, _listOfPendingIssuers);\r\n    if(_listOfPendingIssuers.length > pos) _pendingIssuers[_listOfPendingIssuers[pos]]._pendingId = pos;\r\n\r\n    delete(_pendingIssuers[id]._issuer);\r\n    delete(_pendingIssuers[id]._validations);\r\n    delete(_pendingIssuers[id]._rejections);\r\n    delete(_pendingIssuers[id]._voters);\r\n  }\r\n\r\n  function GenerateNewNFTMarket(address owner, string memory name, string memory symbol, uint256 feeAmount, uint256 feeDecimals, Library.PaymentPlans paymentPlan) internal returns(address)\r\n  {\r\n    address beaconAddress = _managerContract.retrieveBeacons()[uint256(Library.Beacons.NFT)];\r\n    uint256 OffersLifeTime = ITreasury(_managerContract.retrieveTransparentProxies()[uint256(Library.TransparentProxies.Treasury)]).retrieveSettings()[uint256(Library.Prices.OffersLifeTime)];\r\n    bytes memory data = abi.encodeWithSignature(\"NFTMarket_init(address,address,string,string,uint256,uint256,uint256,uint8)\", address(_managerContract), owner, name, symbol, OffersLifeTime, feeAmount, feeDecimals, uint8(paymentPlan));\r\n\r\n    BeaconProxy beaconProxy = new BeaconProxy(beaconAddress, data);\r\n\r\n    return address(beaconProxy);\r\n  }\r\n\r\n  function retrieveIssuers() external override view returns (uint[] memory)\r\n  {\r\n    return _listOfIssuers;\r\n  }\r\n\r\n  function retrieveNFTMarketForIssuer(uint id) external override view returns (address)\r\n  {\r\n    return _issuers[id];\r\n  }\r\n\r\n  function retrievePendingIssuers() external override view returns (uint[] memory)\r\n  {\r\n    return _listOfPendingIssuers;\r\n  }\r\n\r\n  function retrievePendingIssuer(uint id) external override view returns (ItemsLibrary._pendingIssuerStruct memory)\r\n  {\r\n    return _pendingIssuers[id];\r\n  }\r\n\r\n\r\n\r\n }",
  "sourcePath": "C:\\Users\\d-aam\\GitHub\\Originals\\contracts\\MainContracts\\PublicPool.sol",
  "compiler": {
    "name": "solc",
    "version": "0.8.7+commit.e28d00a7.Emscripten.clang"
  },
  "schemaVersion": "3.4.3",
  "updatedAt": "2022-01-25T13:35:48.552Z",
  "devdoc": {
    "kind": "dev",
    "methods": {},
    "version": 1
  },
  "userdoc": {
    "kind": "user",
    "methods": {},
    "version": 1
  }
}