{
  "contractName": "PublicPool",
  "abi": [
    {
      "anonymous": false,
      "inputs": [
        {
          "indexed": false,
          "internalType": "address",
          "name": "owner",
          "type": "address"
        }
      ],
      "name": "_AddOwnerRejection",
      "type": "event"
    },
    {
      "anonymous": false,
      "inputs": [
        {
          "indexed": false,
          "internalType": "address",
          "name": "owner",
          "type": "address"
        }
      ],
      "name": "_AddOwnerValidation",
      "type": "event"
    },
    {
      "anonymous": false,
      "inputs": [
        {
          "indexed": true,
          "internalType": "uint256",
          "name": "NFTMarketId",
          "type": "uint256"
        },
        {
          "indexed": true,
          "internalType": "uint256",
          "name": "tokenID",
          "type": "uint256"
        },
        {
          "indexed": true,
          "internalType": "address",
          "name": "receiver",
          "type": "address"
        },
        {
          "indexed": false,
          "internalType": "uint256",
          "name": "amount",
          "type": "uint256"
        },
        {
          "indexed": false,
          "internalType": "uint256",
          "name": "factor",
          "type": "uint256"
        }
      ],
      "name": "_CreditAssigned",
      "type": "event"
    },
    {
      "anonymous": false,
      "inputs": [
        {
          "indexed": true,
          "internalType": "address",
          "name": "receiver",
          "type": "address"
        },
        {
          "indexed": false,
          "internalType": "uint256",
          "name": "amount",
          "type": "uint256"
        },
        {
          "indexed": true,
          "internalType": "address",
          "name": "sender",
          "type": "address"
        }
      ],
      "name": "_CreditReceived",
      "type": "event"
    },
    {
      "anonymous": false,
      "inputs": [
        {
          "indexed": true,
          "internalType": "uint256",
          "name": "NFTMarketId",
          "type": "uint256"
        },
        {
          "indexed": true,
          "internalType": "uint256",
          "name": "tokenID",
          "type": "uint256"
        },
        {
          "indexed": true,
          "internalType": "address",
          "name": "creditor",
          "type": "address"
        },
        {
          "indexed": false,
          "internalType": "uint256",
          "name": "amount",
          "type": "uint256"
        }
      ],
      "name": "_CreditReused",
      "type": "event"
    },
    {
      "anonymous": false,
      "inputs": [
        {
          "indexed": true,
          "internalType": "uint256",
          "name": "NFTMarketId",
          "type": "uint256"
        },
        {
          "indexed": true,
          "internalType": "address",
          "name": "from",
          "type": "address"
        },
        {
          "indexed": false,
          "internalType": "uint256",
          "name": "amount",
          "type": "uint256"
        },
        {
          "indexed": true,
          "internalType": "address",
          "name": "to",
          "type": "address"
        }
      ],
      "name": "_CreditSpent",
      "type": "event"
    },
    {
      "anonymous": false,
      "inputs": [
        {
          "indexed": true,
          "internalType": "uint256",
          "name": "NFTMarketId",
          "type": "uint256"
        },
        {
          "indexed": true,
          "internalType": "uint256",
          "name": "tokenID",
          "type": "uint256"
        },
        {
          "indexed": false,
          "internalType": "uint256",
          "name": "amount",
          "type": "uint256"
        }
      ],
      "name": "_CreditUnAssignedReceived",
      "type": "event"
    },
    {
      "anonymous": false,
      "inputs": [
        {
          "indexed": true,
          "internalType": "address",
          "name": "withdrawer",
          "type": "address"
        },
        {
          "indexed": false,
          "internalType": "uint256",
          "name": "amount",
          "type": "uint256"
        }
      ],
      "name": "_CreditWithdrawn",
      "type": "event"
    },
    {
      "anonymous": false,
      "inputs": [
        {
          "indexed": true,
          "internalType": "address",
          "name": "withdrawer",
          "type": "address"
        },
        {
          "indexed": false,
          "internalType": "uint256",
          "name": "amount",
          "type": "uint256"
        },
        {
          "indexed": true,
          "internalType": "address",
          "name": "sender",
          "type": "address"
        }
      ],
      "name": "_CreditWithdrawnFor",
      "type": "event"
    },
    {
      "anonymous": false,
      "inputs": [
        {
          "indexed": true,
          "internalType": "uint256",
          "name": "id",
          "type": "uint256"
        }
      ],
      "name": "_IssuerRejection",
      "type": "event"
    },
    {
      "anonymous": false,
      "inputs": [
        {
          "indexed": true,
          "internalType": "uint256",
          "name": "id",
          "type": "uint256"
        },
        {
          "indexed": false,
          "internalType": "address",
          "name": "NFTMarket",
          "type": "address"
        }
      ],
      "name": "_IssuerValidation",
      "type": "event"
    },
    {
      "anonymous": false,
      "inputs": [
        {
          "indexed": false,
          "internalType": "uint256",
          "name": "minOwner",
          "type": "uint256"
        }
      ],
      "name": "_MinOwnerRejection",
      "type": "event"
    },
    {
      "anonymous": false,
      "inputs": [
        {
          "indexed": false,
          "internalType": "uint256",
          "name": "minOwner",
          "type": "uint256"
        }
      ],
      "name": "_MinOwnerValidation",
      "type": "event"
    },
    {
      "anonymous": false,
      "inputs": [
        {
          "indexed": true,
          "internalType": "uint256",
          "name": "id",
          "type": "uint256"
        },
        {
          "indexed": false,
          "internalType": "address",
          "name": "owner",
          "type": "address"
        },
        {
          "indexed": false,
          "internalType": "string",
          "name": "name",
          "type": "string"
        },
        {
          "indexed": false,
          "internalType": "string",
          "name": "symbol",
          "type": "string"
        }
      ],
      "name": "_NewIssuerRequest",
      "type": "event"
    },
    {
      "anonymous": false,
      "inputs": [
        {
          "indexed": false,
          "internalType": "address",
          "name": "owner",
          "type": "address"
        }
      ],
      "name": "_RemoveOwnerRejection",
      "type": "event"
    },
    {
      "anonymous": false,
      "inputs": [
        {
          "indexed": false,
          "internalType": "address",
          "name": "owner",
          "type": "address"
        }
      ],
      "name": "_RemoveOwnerValidation",
      "type": "event"
    },
    {
      "anonymous": false,
      "inputs": [
        {
          "indexed": true,
          "internalType": "uint256",
          "name": "id",
          "type": "uint256"
        },
        {
          "indexed": false,
          "internalType": "address",
          "name": "voter",
          "type": "address"
        },
        {
          "indexed": false,
          "internalType": "bool",
          "name": "vote",
          "type": "bool"
        }
      ],
      "name": "_VoteForIssuer",
      "type": "event"
    },
    {
      "anonymous": false,
      "inputs": [
        {
          "indexed": false,
          "internalType": "uint256",
          "name": "minOwner",
          "type": "uint256"
        },
        {
          "indexed": false,
          "internalType": "address",
          "name": "voter",
          "type": "address"
        },
        {
          "indexed": false,
          "internalType": "bool",
          "name": "vote",
          "type": "bool"
        }
      ],
      "name": "_VoteForMinOwner",
      "type": "event"
    },
    {
      "anonymous": false,
      "inputs": [
        {
          "indexed": false,
          "internalType": "address",
          "name": "owner",
          "type": "address"
        },
        {
          "indexed": false,
          "internalType": "address",
          "name": "voter",
          "type": "address"
        },
        {
          "indexed": false,
          "internalType": "bool",
          "name": "vote",
          "type": "bool"
        }
      ],
      "name": "_VoteForOwner",
      "type": "event"
    },
    {
      "inputs": [
        {
          "internalType": "address",
          "name": "sender",
          "type": "address"
        },
        {
          "internalType": "uint256",
          "name": "amount",
          "type": "uint256"
        },
        {
          "internalType": "bytes",
          "name": "data",
          "type": "bytes"
        }
      ],
      "name": "CreditReceived",
      "outputs": [],
      "stateMutability": "nonpayable",
      "type": "function"
    },
    {
      "inputs": [
        {
          "internalType": "address[]",
          "name": "owners",
          "type": "address[]"
        },
        {
          "internalType": "uint256",
          "name": "minOwners",
          "type": "uint256"
        }
      ],
      "name": "MultiSigContract_init",
      "outputs": [],
      "stateMutability": "nonpayable",
      "type": "function"
    },
    {
      "inputs": [
        {
          "internalType": "address",
          "name": "owner",
          "type": "address"
        }
      ],
      "name": "addOwner",
      "outputs": [],
      "stateMutability": "nonpayable",
      "type": "function"
    },
    {
      "inputs": [
        {
          "internalType": "uint256",
          "name": "newMinOwners",
          "type": "uint256"
        }
      ],
      "name": "changeMinOwners",
      "outputs": [],
      "stateMutability": "nonpayable",
      "type": "function"
    },
    {
      "inputs": [],
      "name": "rejectMinOwners",
      "outputs": [],
      "stateMutability": "nonpayable",
      "type": "function"
    },
    {
      "inputs": [
        {
          "internalType": "address",
          "name": "owner",
          "type": "address"
        }
      ],
      "name": "rejectOwner",
      "outputs": [],
      "stateMutability": "nonpayable",
      "type": "function"
    },
    {
      "inputs": [
        {
          "internalType": "address",
          "name": "owner",
          "type": "address"
        }
      ],
      "name": "removeOwner",
      "outputs": [],
      "stateMutability": "nonpayable",
      "type": "function"
    },
    {
      "inputs": [],
      "name": "retrieveAllOwners",
      "outputs": [
        {
          "internalType": "address[]",
          "name": "",
          "type": "address[]"
        }
      ],
      "stateMutability": "view",
      "type": "function"
    },
    {
      "inputs": [],
      "name": "retrieveManagerContract",
      "outputs": [
        {
          "internalType": "address",
          "name": "",
          "type": "address"
        }
      ],
      "stateMutability": "view",
      "type": "function"
    },
    {
      "inputs": [],
      "name": "retrieveMinOwners",
      "outputs": [
        {
          "internalType": "uint256",
          "name": "",
          "type": "uint256"
        }
      ],
      "stateMutability": "view",
      "type": "function"
    },
    {
      "inputs": [],
      "name": "retrievePendingMinOwners",
      "outputs": [
        {
          "internalType": "uint256",
          "name": "",
          "type": "uint256"
        }
      ],
      "stateMutability": "view",
      "type": "function"
    },
    {
      "inputs": [],
      "name": "retrievePendingMinOwnersStatus",
      "outputs": [
        {
          "internalType": "uint256",
          "name": "",
          "type": "uint256"
        },
        {
          "internalType": "uint256",
          "name": "",
          "type": "uint256"
        },
        {
          "internalType": "address[]",
          "name": "",
          "type": "address[]"
        }
      ],
      "stateMutability": "view",
      "type": "function"
    },
    {
      "inputs": [
        {
          "internalType": "bool",
          "name": "addedORremove",
          "type": "bool"
        }
      ],
      "name": "retrievePendingOwners",
      "outputs": [
        {
          "internalType": "address[]",
          "name": "",
          "type": "address[]"
        }
      ],
      "stateMutability": "view",
      "type": "function"
    },
    {
      "inputs": [],
      "name": "validateMinOwners",
      "outputs": [],
      "stateMutability": "nonpayable",
      "type": "function"
    },
    {
      "inputs": [
        {
          "internalType": "address",
          "name": "owner",
          "type": "address"
        }
      ],
      "name": "validateOwner",
      "outputs": [],
      "stateMutability": "nonpayable",
      "type": "function"
    },
    {
      "inputs": [
        {
          "internalType": "address[]",
          "name": "owners",
          "type": "address[]"
        },
        {
          "internalType": "uint256",
          "name": "minOwners",
          "type": "uint256"
        },
        {
          "internalType": "address",
          "name": "managerContractAddress",
          "type": "address"
        }
      ],
      "name": "PublicPool_init",
      "outputs": [],
      "stateMutability": "nonpayable",
      "type": "function"
    },
    {
      "inputs": [
        {
          "components": [
            {
              "internalType": "address",
              "name": "_owner",
              "type": "address"
            },
            {
              "internalType": "string",
              "name": "_name",
              "type": "string"
            },
            {
              "internalType": "string",
              "name": "_symbol",
              "type": "string"
            },
            {
              "internalType": "uint256",
              "name": "_feeAmount",
              "type": "uint256"
            },
            {
              "internalType": "uint256",
              "name": "_feeDecimals",
              "type": "uint256"
            },
            {
              "internalType": "enum Library.PaymentPlans",
              "name": "_paymentPlan",
              "type": "uint8"
            }
          ],
          "internalType": "struct ItemsLibrary._issuerStruct",
          "name": "requestedIssuer",
          "type": "tuple"
        },
        {
          "internalType": "bool",
          "name": "FromCredit",
          "type": "bool"
        }
      ],
      "name": "requestIssuer",
      "outputs": [],
      "stateMutability": "nonpayable",
      "type": "function"
    },
    {
      "inputs": [
        {
          "internalType": "uint256",
          "name": "id",
          "type": "uint256"
        }
      ],
      "name": "validateIssuer",
      "outputs": [],
      "stateMutability": "nonpayable",
      "type": "function"
    },
    {
      "inputs": [
        {
          "internalType": "uint256",
          "name": "id",
          "type": "uint256"
        }
      ],
      "name": "rejectIssuer",
      "outputs": [],
      "stateMutability": "nonpayable",
      "type": "function"
    },
    {
      "inputs": [],
      "name": "retrieveIssuers",
      "outputs": [
        {
          "internalType": "uint256[]",
          "name": "",
          "type": "uint256[]"
        }
      ],
      "stateMutability": "view",
      "type": "function"
    },
    {
      "inputs": [
        {
          "internalType": "uint256",
          "name": "id",
          "type": "uint256"
        }
      ],
      "name": "retrieveNFTMarketForIssuer",
      "outputs": [
        {
          "internalType": "address",
          "name": "",
          "type": "address"
        }
      ],
      "stateMutability": "view",
      "type": "function"
    },
    {
      "inputs": [],
      "name": "retrievePendingIssuers",
      "outputs": [
        {
          "internalType": "uint256[]",
          "name": "",
          "type": "uint256[]"
        }
      ],
      "stateMutability": "view",
      "type": "function"
    },
    {
      "inputs": [
        {
          "internalType": "uint256",
          "name": "id",
          "type": "uint256"
        }
      ],
      "name": "retrievePendingIssuer",
      "outputs": [
        {
          "components": [
            {
              "components": [
                {
                  "internalType": "address",
                  "name": "_owner",
                  "type": "address"
                },
                {
                  "internalType": "string",
                  "name": "_name",
                  "type": "string"
                },
                {
                  "internalType": "string",
                  "name": "_symbol",
                  "type": "string"
                },
                {
                  "internalType": "uint256",
                  "name": "_feeAmount",
                  "type": "uint256"
                },
                {
                  "internalType": "uint256",
                  "name": "_feeDecimals",
                  "type": "uint256"
                },
                {
                  "internalType": "enum Library.PaymentPlans",
                  "name": "_paymentPlan",
                  "type": "uint8"
                }
              ],
              "internalType": "struct ItemsLibrary._issuerStruct",
              "name": "_issuer",
              "type": "tuple"
            },
            {
              "internalType": "uint256",
              "name": "_pendingId",
              "type": "uint256"
            },
            {
              "internalType": "uint256",
              "name": "_validations",
              "type": "uint256"
            },
            {
              "internalType": "uint256",
              "name": "_rejections",
              "type": "uint256"
            },
            {
              "internalType": "address[]",
              "name": "_voters",
              "type": "address[]"
            }
          ],
          "internalType": "struct IPool._pendingIssuerStruct",
          "name": "",
          "type": "tuple"
        }
      ],
      "stateMutability": "view",
      "type": "function"
    },
    {
      "inputs": [
        {
          "internalType": "address",
          "name": "addr",
          "type": "address"
        },
        {
          "internalType": "uint256",
          "name": "amount",
          "type": "uint256"
        }
      ],
      "name": "sendCredit",
      "outputs": [],
      "stateMutability": "nonpayable",
      "type": "function"
    },
    {
      "inputs": [
        {
          "internalType": "uint256",
          "name": "NFTMarketId",
          "type": "uint256"
        },
        {
          "internalType": "uint256",
          "name": "tokenID",
          "type": "uint256"
        },
        {
          "internalType": "address[]",
          "name": "addrs",
          "type": "address[]"
        },
        {
          "internalType": "uint256[]",
          "name": "amounts",
          "type": "uint256[]"
        },
        {
          "internalType": "uint256[]",
          "name": "factors",
          "type": "uint256[]"
        }
      ],
      "name": "addCredit",
      "outputs": [],
      "stateMutability": "nonpayable",
      "type": "function"
    },
    {
      "inputs": [
        {
          "internalType": "uint256",
          "name": "NFTMarketId",
          "type": "uint256"
        },
        {
          "internalType": "uint256",
          "name": "tokenID",
          "type": "uint256"
        },
        {
          "internalType": "address",
          "name": "addr",
          "type": "address"
        },
        {
          "internalType": "uint256",
          "name": "amount",
          "type": "uint256"
        }
      ],
      "name": "reuseCredit",
      "outputs": [],
      "stateMutability": "nonpayable",
      "type": "function"
    },
    {
      "inputs": [
        {
          "internalType": "uint256",
          "name": "NFTMarketId",
          "type": "uint256"
        },
        {
          "internalType": "address",
          "name": "from",
          "type": "address"
        },
        {
          "internalType": "uint256",
          "name": "amount",
          "type": "uint256"
        },
        {
          "internalType": "address",
          "name": "to",
          "type": "address"
        }
      ],
      "name": "spendCredit",
      "outputs": [],
      "stateMutability": "nonpayable",
      "type": "function"
    },
    {
      "inputs": [
        {
          "internalType": "uint256",
          "name": "amount",
          "type": "uint256"
        }
      ],
      "name": "withdraw",
      "outputs": [],
      "stateMutability": "nonpayable",
      "type": "function"
    },
    {
      "inputs": [],
      "name": "withdrawAll",
      "outputs": [],
      "stateMutability": "nonpayable",
      "type": "function"
    },
    {
      "inputs": [
        {
          "internalType": "uint256",
          "name": "NFTMarketId",
          "type": "uint256"
        },
        {
          "internalType": "address",
          "name": "addr",
          "type": "address"
        },
        {
          "internalType": "bytes",
          "name": "data",
          "type": "bytes"
        }
      ],
      "name": "withdrawAllFor",
      "outputs": [],
      "stateMutability": "nonpayable",
      "type": "function"
    },
    {
      "inputs": [
        {
          "internalType": "address",
          "name": "addr",
          "type": "address"
        }
      ],
      "name": "retrieveCredit",
      "outputs": [
        {
          "internalType": "uint256",
          "name": "",
          "type": "uint256"
        }
      ],
      "stateMutability": "view",
      "type": "function"
    }
  ],
  "bytecode": "0x608060405234801561001057600080fd5b50615cb180620000216000396000f3fe60806040523480156200001157600080fd5b5060043610620001965760003560e01c806303231e5d146200019b578063062a080014620001df578063094a0ed214620001f85780630bee185e146200021e578063173825d91462000235578063280931e7146200024c5780632e1a7d4d14620002635780632edbe7fc146200027a5780632f02a3ec146200028d57806330ade92214620002a457806334f2920714620002ae578063430c37cb14620002c5578063501781e814620002dc578063538b6aad14620002f35780635888ebb3146200030c57806358c1599414620003275780635b362e84146200033e57806365b973e514620003505780636b29960414620003595780637065cb48146200037f57806376f8f90f1462000396578063853828b614620003ad57806391c0734b14620003b7578063a93d5ed614620003ce578063ab3fa2a514620003d8578063c3079ae714620003ef578063c66433ea14620003f9578063ce33d58a1462000410578063d0e139181462000427578063f3882e3a1462000431578063f4968d241462000448575b600080fd5b620001c7620001ac36600462004a53565b6000908152600b60205260409020546001600160a01b031690565b604051620001d6919062004c6e565b60405180910390f35b620001f6620001f036600462004b02565b6200045f565b005b6200020f6200020936600462004a53565b620006c3565b604051620001d6919062004fad565b620001f66200022f36600462004755565b62000911565b620001f662000246366004620045d6565b62000a83565b620001f66200025d36600462004a53565b62000ac6565b620001f66200027436600462004a53565b62000ad6565b6006545b604051908152602001620001d6565b620001f66200029e3660046200464c565b62000af5565b620001f662000ce8565b620001f6620002bf36600462004a53565b62000cf6565b620001f6620002d63660046200479d565b62000d03565b620001f6620002ed3660046200461d565b62000d95565b620002fd620010c8565b604051620001d6919062004e2c565b6200031662001122565b604051620001d69392919062005098565b620001f66200033836600462004ab3565b62001198565b600a546001600160a01b0316620001c7565b6005546200027e565b620003706200036a36600462004891565b620011bc565b604051620001d6919062004e17565b620001f662000390366004620045d6565b62001285565b620001f6620003a7366004620045d6565b620012a1565b620001f6620012f9565b620001f6620003c836600462004b44565b620013b1565b6200037062001656565b620001f6620003e936600462004a6d565b620016bb565b620001f66200177b565b620001f66200040a36600462004a53565b62001787565b620001f662000421366004620045d6565b620017de565b620002fd620017eb565b6200027e62000442366004620045d6565b62001843565b620001f6620004593660046200496a565b620018e9565b83336200046d828262002087565b85856200047b82826200210a565b73__ItemsLibrary__________________________63a86af8fc600f6000896001600160a01b03166001600160a01b0316815260200190815260200160002087600080600a60009054906101000a90046001600160a01b03166001600160a01b031663e220ad956040518163ffffffff1660e01b815260040160006040518083038186803b1580156200050d57600080fd5b505afa15801562000522573d6000803e3d6000fd5b505050506040513d6000823e601f3d908101601f191682016040526200054c9190810190620046aa565b60068151811062000561576200056162005297565b60200260200101516001600160a01b031663b049473f6040518163ffffffff1660e01b815260040160006040518083038186803b158015620005a257600080fd5b505afa158015620005b7573d6000803e3d6000fd5b505050506040513d6000823e601f3d908101601f19168201604052620005e19190810190620046aa565b600081518110620005f657620005f662005297565b60200260200101516000604051806020016040528060008152506040518863ffffffff1660e01b815260040162000634979695949392919062004f3f565b60006040518083038186803b1580156200064d57600080fd5b505af415801562000662573d6000803e3d6000fd5b505050506200067388888762002189565b856001600160a01b031687897fcc2a96ca4f9d89cc3dbd73baa3b6e6d19a2502464e6b9a28e0a9b9b11808bb3488604051620006b191815260200190565b60405180910390a45050505050505050565b620006cd620042e2565b6000828152600d6020526040908190208151610160810190925280546001600160a01b031660a08301908152600182018054849291849160c085019190620007159062005210565b80601f0160208091040260200160405190810160405280929190818152602001828054620007439062005210565b8015620007945780601f10620007685761010080835404028352916020019162000794565b820191906000526020600020905b8154815290600101906020018083116200077657829003601f168201915b50505050508152602001600282018054620007af9062005210565b80601f0160208091040260200160405190810160405280929190818152602001828054620007dd9062005210565b80156200082e5780601f1062000802576101008083540402835291602001916200082e565b820191906000526020600020905b8154815290600101906020018083116200081057829003601f168201915b50505091835250506003820154602082015260048201546040820152600582015460609091019060ff1660018111156200086c576200086c62005281565b600181111562000880576200088062005281565b815250508152602001600682015481526020016007820154815260200160088201548152602001600982018054806020026020016040519081016040528092919081815260200182805480156200090157602002820191906000526020600020905b81546001600160a01b03168152600190910190602001808311620008e2575b5050505050815250509050919050565b600054610100900460ff166200092e5760005460ff161562000932565b303b155b6200095a5760405162461bcd60e51b8152600401620009519062004ea6565b60405180910390fd5b600054610100900460ff161580156200097d576000805461ffff19166101011790555b8183516200098c8282620021a5565b6001846200099b8282620021a5565b600586905560005b875181101562000a665760018060000160008a8481518110620009ca57620009ca62005297565b6020908102919091018101516001600160a01b03168252810191909152604001600020805460ff1916911515919091179055875160029089908390811062000a165762000a1662005297565b60209081029190910181015182546001810184556000938452919092200180546001600160a01b0319166001600160a01b039092169190911790558062000a5d816200524d565b915050620009a3565b5050505050801562000a7e576000805461ff00191690555b505050565b80600162000a928282620021c8565b60055460025462000aa690600190620051c7565b62000ab28282620021a5565b62000abf85600462002221565b5050505050565b62000ad3816001620022b5565b50565b62000ad333826000806040518060200160405280600081525062002719565b600a546040805163e220ad9560e01b8152905133926001600160a01b03169163e220ad95916004808301926000929190829003018186803b15801562000b3a57600080fd5b505afa15801562000b4f573d6000803e3d6000fd5b505050506040513d6000823e601f3d908101601f1916820160405262000b799190810190620046aa565b60018151811062000b8e5762000b8e62005297565b60200260200101516001600160a01b0316816001600160a01b0316148062000c715750600a60009054906101000a90046001600160a01b03166001600160a01b031663e220ad956040518163ffffffff1660e01b815260040160006040518083038186803b15801562000c0057600080fd5b505afa15801562000c15573d6000803e3d6000fd5b505050506040513d6000823e601f3d908101601f1916820160405262000c3f9190810190620046aa565b60068151811062000c545762000c5462005297565b60200260200101516001600160a01b0316816001600160a01b0316145b62000cd55760405162461bcd60e51b815260206004820152602d60248201527f4974206973206e6f742066726f6d206f6e65206f66207468652063657274696660448201526c69656420636f6e74726163747360981b606482015260840162000951565b62000ce284848462002987565b50505050565b62000cf4600162002dac565b565b62000ad3816000620022b5565b600054610100900460ff1662000d205760005460ff161562000d24565b303b155b62000d435760405162461bcd60e51b8152600401620009519062004ea6565b600054610100900460ff1615801562000d66576000805461ffff19166101011790555b62000d72848462000911565b62000d7d8262002f0a565b801562000ce2576000805461ff001916905550505050565b60408051600380825260808201909252600091602082016060803683375050604051631635719760e31b81526000600482015291925073__UintLibrary___________________________9163b1ab8cb8915060240160206040518083038186803b15801562000e0457600080fd5b505af415801562000e19573d6000803e3d6000fd5b505050506040513d601f19601f8201168201806040525081019062000e3f9190620048d1565b8160008151811062000e555762000e5562005297565b602090810291909101015260405163bc215e8560e01b815273__AddressLibrary________________________9063bc215e859062000e9990869060040162004c6e565b60206040518083038186803b15801562000eb257600080fd5b505af415801562000ec7573d6000803e3d6000fd5b505050506040513d601f19601f8201168201806040525081019062000eed9190620048d1565b8160018151811062000f035762000f0362005297565b6020908102919091010152604051632431a7cf60e01b815260009073__Library_______________________________90632431a7cf9062000f4a90859060040162004e2c565b60006040518083038186803b15801562000f6357600080fd5b505af415801562000f78573d6000803e3d6000fd5b505050506040513d6000823e601f3d908101601f1916820160405262000fa29190810190620048eb565b90506000600a60009054906101000a90046001600160a01b03166001600160a01b031663e220ad956040518163ffffffff1660e01b815260040160006040518083038186803b15801562000ff557600080fd5b505afa1580156200100a573d6000803e3d6000fd5b505050506040513d6000823e601f3d908101601f19168201604052620010349190810190620046aa565b60068151811062001049576200104962005297565b60200260200101519050806001600160a01b0316632c2ec26833308760008760006040518763ffffffff1660e01b81526004016200108d9695949392919062004cf8565b600060405180830381600087803b158015620010a857600080fd5b505af1158015620010bd573d6000803e3d6000fd5b505050505050505050565b6060600e8054806020026020016040519081016040528092919081815260200182805480156200111857602002820191906000526020600020905b81548152602001906001019080831162001103575b5050505050905090565b60008060606007546008546009808054806020026020016040519081016040528092919081815260200182805480156200118657602002820191906000526020600020905b81546001600160a01b0316815260019091019060200180831162001167575b50505050509050925092509250909192565b8333620011a6828262002087565b620011b48686868662002f8e565b505050505050565b60608115620012265760038054604080516020808402820181019092528281529291908301828280156200121a57602002820191906000526020600020905b81546001600160a01b03168152600190910190602001808311620011fb575b50505050509050919050565b60048054604080516020808402820181019092528281529291908301828280156200121a576020028201919060005260206000209081546001600160a01b03168152600190910190602001808311620011fb5750505050509050919050565b806000620012948282620021c8565b62000a7e83600362002221565b620012ac81620031c1565b151560011415620012ec57600254620012c890600190620051c7565b6005541115620012ec5760405162461bcd60e51b8152600401620009519062004e87565b62000ad381600162003246565b336000908152600f602052604080822090516326162dc360e01b8152600481019190915273__ItemsLibrary__________________________906326162dc39060240160206040518083038186803b1580156200135557600080fd5b505af41580156200136a573d6000803e3d6000fd5b505050506040513d601f19601f82011682018060405250810190620013909190620048d1565b905062000ad333826000806040518060200160405280600081525062002719565b8733620013bf828262002087565b60008a81526010602090815260408083208c84528252918290205482518883028181018401909452888152909290918991899182919085019084908082843760009201919091525050604080516020808a028281018201909352898252909350899250889182918501908490808284376000920191909152506200144b925085915084905083620036ef565b8986146200146d5760405162461bcd60e51b8152600401620009519062004ef4565b60005b8a8110156200162a5773__ItemsLibrary__________________________6338335327600f60008f8f86818110620014ac57620014ac62005297565b9050602002016020810190620014c39190620045d6565b6001600160a01b03166001600160a01b031681526020019081526020016000208c8c85818110620014f857620014f862005297565b905060200201358b8b8681811062001514576200151462005297565b905060200201356040518463ffffffff1660e01b81526004016200153b9392919062004f97565b60006040518083038186803b1580156200155457600080fd5b505af415801562001569573d6000803e3d6000fd5b505050508b8b8281811062001582576200158262005297565b9050602002016020810190620015999190620045d6565b6001600160a01b03168d8f7f1f0966cb4dbc8738200b37503c6989e77e4e56383816b0632219dbc8c241b8b78d8d86818110620015da57620015da62005297565b905060200201358c8c87818110620015f657620015f662005297565b905060200201356040516200160d9291906200508a565b60405180910390a48062001621816200524d565b91505062001470565b50505060009a8b525050601060209081526040808b20998b529890525050509385209490945550505050565b6060600180018054806020026020016040519081016040528092919081815260200182805480156200111857602002820191906000526020600020905b81546001600160a01b0316815260019091019060200180831162001693575050505050905090565b8233620016c9828262002087565b6001600160a01b0384166000908152600f602052604080822090516326162dc360e01b8152600481019190915273__ItemsLibrary__________________________906326162dc39060240160206040518083038186803b1580156200172e57600080fd5b505af415801562001743573d6000803e3d6000fd5b505050506040513d601f19601f82011682018060405250810190620017699190620048d1565b9050620011b485823360018862002719565b62000cf4600062002dac565b336001620017968282620021c8565b6000620017a381620038a2565b6002548490620017b48282620021a5565b600186620017c38282620021a5565b6006889055620017d4600162002dac565b5050505050505050565b62000ad381600062003246565b6060600c80548060200260200160405190810160405280929190818152602001828054801562001118576020028201919060005260206000209081548152602001906001019080831162001103575050505050905090565b6001600160a01b0381166000908152600f602052604080822090516326162dc360e01b8152600481019190915273__ItemsLibrary__________________________906326162dc39060240160206040518083038186803b158015620018a857600080fd5b505af4158015620018bd573d6000803e3d6000fd5b505050506040513d601f19601f82011682018060405250810190620018e39190620048d1565b92915050565b815182906001600160a01b0316620019505760405162461bcd60e51b8152602060048201526024808201527f4e4654204d61726b6574206f776e65722063616e6e6f742062652061646472656044820152630737320360e41b606482015260840162000951565b6060810151608082015160405163bdbff48760e01b815273__Library_______________________________9263bdbff4879262001991926004016200508a565b60006040518083038186803b158015620019aa57600080fd5b505af4158015620019bf573d6000803e3d6000fd5b5050505080602001515160001062001a0a5760405162461bcd60e51b815260206004820152600d60248201526c4e616d6520697320656d70747960981b604482015260640162000951565b80604001515160001062001a535760405162461bcd60e51b815260206004820152600f60248201526e53796d626f6c20697320656d70747960881b604482015260640162000951565b600a546040805163e220ad9560e01b815290516000926001600160a01b03169163e220ad959160048083019286929190829003018186803b15801562001a9857600080fd5b505afa15801562001aad573d6000803e3d6000fd5b505050506040513d6000823e601f3d908101601f1916820160405262001ad79190810190620046aa565b60028151811062001aec5762001aec62005297565b60200260200101516001600160a01b031663b049473f6040518163ffffffff1660e01b815260040160006040518083038186803b15801562001b2d57600080fd5b505afa15801562001b42573d6000803e3d6000fd5b505050506040513d6000823e601f3d908101601f1916820160405262001b6c9190810190620047fd565b9050600081818151811062001b855762001b8562005297565b602002602001015190506000826001600881111562001ba85762001ba862005281565b8151811062001bbb5762001bbb62005297565b60200260200101519050841562001d2a5762001c8660003384600a60009054906101000a90046001600160a01b03166001600160a01b031663e220ad956040518163ffffffff1660e01b815260040160006040518083038186803b15801562001c2357600080fd5b505afa15801562001c38573d6000803e3d6000fd5b505050506040513d6000823e601f3d908101601f1916820160405262001c629190810190620046aa565b60025b8151811062001c785762001c7862005297565b602002602001015162002f8e565b62001d2460003383600a60009054906101000a90046001600160a01b03166001600160a01b031663e220ad956040518163ffffffff1660e01b815260040160006040518083038186803b15801562001cdd57600080fd5b505afa15801562001cf2573d6000803e3d6000fd5b505050506040513d6000823e601f3d908101601f1916820160405262001d1c9190810190620046aa565b600562001c65565b6200201d565b600a546040805163e220ad9560e01b815290516000926001600160a01b03169163e220ad959160048083019286929190829003018186803b15801562001d6f57600080fd5b505afa15801562001d84573d6000803e3d6000fd5b505050506040513d6000823e601f3d908101601f1916820160405262001dae9190810190620046aa565b60068151811062001dc35762001dc362005297565b60200260200101519050806001600160a01b0316632c2ec26833600a60009054906101000a90046001600160a01b03166001600160a01b031663e220ad956040518163ffffffff1660e01b815260040160006040518083038186803b15801562001e2c57600080fd5b505afa15801562001e41573d6000803e3d6000fd5b505050506040513d6000823e601f3d908101601f1916820160405262001e6b9190810190620046aa565b60028151811062001e805762001e8062005297565b60200260200101518660006040518060200160405280600081525060006040518763ffffffff1660e01b815260040162001ec09695949392919062004cf8565b600060405180830381600087803b15801562001edb57600080fd5b505af115801562001ef0573d6000803e3d6000fd5b50505050806001600160a01b0316632c2ec26833600a60009054906101000a90046001600160a01b03166001600160a01b031663e220ad956040518163ffffffff1660e01b815260040160006040518083038186803b15801562001f5357600080fd5b505afa15801562001f68573d6000803e3d6000fd5b505050506040513d6000823e601f3d908101601f1916820160405262001f929190810190620046aa565b60058151811062001fa75762001fa762005297565b60200260200101518560006040518060200160405280600081525060006040518763ffffffff1660e01b815260040162001fe79695949392919062004cf8565b600060405180830381600087803b1580156200200257600080fd5b505af115801562002017573d6000803e3d6000fd5b50505050505b60208087015180519101206200203481886200391c565b807f88d341cdb636e2cf41b99330be584ef11888487c9b2aef53410ed90fb2c487ad886000015189602001518a60400151604051620020769392919062004dd3565b60405180910390a250505050505050565b6000828152600b60205260409020546001600160a01b03828116911614620021065760405162461bcd60e51b815260206004820152602b60248201527f546865204d61726b657420496420616e64204164647265737320646f206e6f7460448201526a0818dbdc9c995cdc1bdb9960aa1b606482015260840162000951565b5050565b600082815260106020908152604080832084845290915290205415620021065760405162461bcd60e51b815260206004820152602d60248201527f556e61737369676e65642063726564697420666f72207468697320746f6b656e60448201526c206973206e6f7420656d70747960981b606482015260840162000951565b6000928352601060209081526040808520938552929052912055565b80821115620021065760405162461bcd60e51b8152600401620009519062004e87565b6001600160a01b03821660009081526001602052604090205460ff16151581151514620021065760405162461bcd60e51b815260040162000951906020808252600490820152634543392d60e01b604082015260600190565b336001620022308282620021c8565b8360006200223f828262003ac6565b84546001808201875560008781526020812090920180546001600160a01b0319166001600160a01b038a1617905586546200227b9190620051c7565b6001600160a01b0388166000908152600160208190526040909120600201829055909150620022ac90889062003246565b50505050505050565b336001620022c48282620021c8565b6000848152600d602090815260409182902060090180548351818402810184019094528084523393928301828280156200232857602002820191906000526020600020905b81546001600160a01b0316815260019091019060200180831162002309575b505050505062002339828262003b1f565b6000868152600d602052604090205486906001600160a01b0316620023a15760405162461bcd60e51b815260206004820152601d60248201527f5468697320697373756572206964206973206e6f742070656e64696e67000000604482015260640162000951565b60408051338152871515602082015288917f5a1a88bd27a0cf1c470b27b132493e61efc1eaf3d1b57db0ab7f73182345d047910160405180910390a26000878152600d602090815260408220600901805460018101825590835291200180546001600160a01b0319163317905585156200269b576000878152600d6020526040812060070180549162002434836200524d565b90915550506005546000888152600d6020526040902060070154106200269557600c805460018181019092557fdf6966c971051c3d54ec59162606531493a51404a002842f56009d7e5cf4a8c7018890556000888152600d6020526040902080549101805462002609926001600160a01b03169190620024b49062005210565b80601f0160208091040260200160405190810160405280929190818152602001828054620024e29062005210565b8015620025335780601f10620025075761010080835404028352916020019162002533565b820191906000526020600020905b8154815290600101906020018083116200251557829003601f168201915b50505060008c8152600d60205260409020600201805490925062002558915062005210565b80601f0160208091040260200160405190810160405280929190818152602001828054620025869062005210565b8015620025d75780601f10620025ab57610100808354040283529160200191620025d7565b820191906000526020600020905b815481529060010190602001808311620025b957829003601f168201915b50505060008d8152600d60205260409020600381015460048201546005909201549093509091508d9060ff1662003be6565b6000888152600b6020526040902080546001600160a01b0319166001600160a01b0392909216919091179055620026408762003e9e565b6000878152600b60205260409081902054905188917f2cedba2f59ec9c6a70e350caabb40ea15150e2bd297a517df51c1fbdbeacad39916200268c916001600160a01b03169062004c6e565b60405180910390a25b620022ac565b6000878152600d60205260408120600801805491620026ba836200524d565b90915550506005546000888152600d602052604090206008015410620022ac57620026e58762003e9e565b60405187907f403eabfde87045e1433576679912c142f6e51573d2635748e5331c62fbcfecc190600090a250505050505050565b6001600160a01b038086166000908152600f6020526040808220600a54825163e220ad9560e01b8152925173__ItemsLibrary__________________________9563a86af8fc9593948b948d9460019493169263e220ad95926004808201939291829003018186803b1580156200278f57600080fd5b505afa158015620027a4573d6000803e3d6000fd5b505050506040513d6000823e601f3d908101601f19168201604052620027ce9190810190620046aa565b600681518110620027e357620027e362005297565b60200260200101516001600160a01b031663b049473f6040518163ffffffff1660e01b815260040160006040518083038186803b1580156200282457600080fd5b505afa15801562002839573d6000803e3d6000fd5b505050506040513d6000823e601f3d908101601f19168201604052620028639190810190620046aa565b60008151811062002878576200287862005297565b602002602001015188886040518863ffffffff1660e01b8152600401620028a6979695949392919062004f3f565b60006040518083038186803b158015620028bf57600080fd5b505af4158015620028d4573d6000803e3d6000fd5b505050506001600160a01b038316156200293c57826001600160a01b0316856001600160a01b03167f3a7f8bf3f0d95026e8cd9a7d4ab518248a380c6e63e2611c19c360d4ed07469a866040516200292e91815260200190565b60405180910390a362000abf565b846001600160a01b03167f2ea7968b99b8c24c37e3919ac458cdbab6b3d63ff9e271eddd29661aae4f7691856040516200297891815260200190565b60405180910390a25050505050565b60405163caa8f58960e01b815260009073__Library_______________________________9063caa8f58990620029c390859060040162004e72565b60006040518083038186803b158015620029dc57600080fd5b505af4158015620029f1573d6000803e3d6000fd5b505050506040513d6000823e601f3d908101601f1916820160405262002a1b9190810190620047fd565b905060008160008151811062002a355762002a3562005297565b602002602001015160001c600181111562002a545762002a5462005281565b905080600181111562002a6b5762002a6b62005281565b62002bfc57600073__AddressLibrary________________________63f4ce9ae88460018151811062002aa25762002aa262005297565b60200260200101516040518263ffffffff1660e01b815260040162002ac991815260200190565b60206040518083038186803b15801562002ae257600080fd5b505af415801562002af7573d6000803e3d6000fd5b505050506040513d601f19601f8201168201806040525081019062002b1d9190620045fd565b6001600160a01b0381166000908152600f6020526040908190209051633833532760e01b815291925073__ItemsLibrary__________________________9163383353279162002b7591899060019060040162004f97565b60006040518083038186803b15801562002b8e57600080fd5b505af415801562002ba3573d6000803e3d6000fd5b50505050856001600160a01b0316816001600160a01b03167f2db0422b7b00320178055968e2ebe34d54d66b98f662782bec28aaddcf8697e98760405162002bed91815260200190565b60405180910390a35062000abf565b600073__UintLibrary___________________________630bd4715e8460018151811062002c2e5762002c2e62005297565b60200260200101516040518263ffffffff1660e01b815260040162002c5591815260200190565b60206040518083038186803b15801562002c6e57600080fd5b505af415801562002c83573d6000803e3d6000fd5b505050506040513d601f19601f8201168201806040525081019062002ca99190620048d1565b9050600073__UintLibrary___________________________630bd4715e8560028151811062002cdd5762002cdd62005297565b60200260200101516040518263ffffffff1660e01b815260040162002d0491815260200190565b60206040518083038186803b15801562002d1d57600080fd5b505af415801562002d32573d6000803e3d6000fd5b505050506040513d601f19601f8201168201806040525081019062002d589190620048d1565b905062002d6782828862002189565b80827f11d40ce091479b07ca14dc778720652f2760dc3237903b19ab5698a7cf478bcb8860405162002d9b91815260200190565b60405180910390a350505050505050565b33600162002dbb8282620021c8565b600162002dc881620038a2565b33600980548060200260200160405190810160405280929190818152602001828054801562002e2157602002820191906000526020600020905b81546001600160a01b0316815260019091019060200180831162002e02575b505050505062002e32828262003b1f565b851562002e5a5760016007600082825462002e4e919062005167565b9091555062002e759050565b60016008600082825462002e6f919062005167565b90915550505b600980546001810182556000919091527f6e1540171b6c0c960b71a7020d9f60077f6af931a8bbf590da0223dacf75c7af018054336001600160a01b031990911681179091556006546040805191825260208201929092528715158183015290517fb335599a2dd1eaaedeb810215d45e667a6c5ac7bcfd03c29e597db8bf0cddcc69181900360600190a1620011b462003fee565b600054610100900460ff1662002f275760005460ff161562002f2b565b303b155b62002f4a5760405162461bcd60e51b8152600401620009519062004ea6565b600054610100900460ff1615801562002f6d576000805461ffff19166101011790555b62002f788262004094565b801562002106576000805461ff00191690555050565b604080516020808201835260008083526001600160a01b038088168252600f909252838120600a54855163e220ad9560e01b81529551949573__ItemsLibrary__________________________9563a86af8fc9593948a948a9460019491169263e220ad9592600480840193919291829003018186803b1580156200301257600080fd5b505afa15801562003027573d6000803e3d6000fd5b505050506040513d6000823e601f3d908101601f19168201604052620030519190810190620046aa565b60068151811062003066576200306662005297565b60200260200101516001600160a01b031663b049473f6040518163ffffffff1660e01b815260040160006040518083038186803b158015620030a757600080fd5b505afa158015620030bc573d6000803e3d6000fd5b505050506040513d6000823e601f3d908101601f19168201604052620030e69190810190620046aa565b600081518110620030fb57620030fb62005297565b60200260200101516001604051806020016040528060008152506040518863ffffffff1660e01b815260040162003139979695949392919062004f3f565b60006040518083038186803b1580156200315257600080fd5b505af415801562003167573d6000803e3d6000fd5b50505050816001600160a01b0316846001600160a01b0316867fc3552ae9eaa5c3eca3c6179f33194d5bf1df2e81eddf6139d511846be0d4c98586604051620031b291815260200190565b60405180910390a45050505050565b6004546001600160a01b038216600090815260016020526040812060020154909111620031f057506000919050565b6001600160a01b03821660009081526001602052604090206002015460048054909190811062003224576200322462005297565b6000918252602090912001546001600160a01b03928316921691909114919050565b336001620032558282620021c8565b83600162003264828262003ac6565b6001600160a01b0386166000908152600160209081526040918290206005018054835181840281018401909452808452339392830182828015620032d257602002820191906000526020600020905b81546001600160a01b03168152600190910190602001808311620032b3575b5050505050620032e3828262003b1f565b604080516001600160a01b038a1681523360208201528815158183015290517fc6f241efc3de3ce31d0e682102cc781f0605f0f90d72addfea699e4aea85dd799181900360600190a16001600160a01b038816600090815260016020818152604083206005018054928301815583529091200180546001600160a01b031916331790558615620035ff576001600160a01b038816600090815260016020526040812060030180549162003396836200524d565b90915550506005546001600160a01b03891660009081526001602052604090206003015410620035f9576004620033cd8962004128565b15620034a6575060028054600180820183557f405787fa12a823e0f2b7631cc41b3ba8828b3321ca811111fa75cd3aa3bb5ace90910180546001600160a01b0319166001600160a01b038c169081179091556000908152602082905260409020805460ff19168217905590546003916200344791620051c7565b6001600160a01b038a166000908152600160208190526040918290200191909155517f45bbe5ceeddcb6d0b4045349efc87a3fde966578e3970cda6f53bfc76efaf9f79062003498908b9062004c6e565b60405180910390a1620035eb565b6001600160a01b03891660009081526001602081905260409182902001549051633c39c19f60e11b815273__AddressLibrary________________________90637873833e90620034ff9084906002906004016200508a565b60006040518083038186803b1580156200351857600080fd5b505af41580156200352d573d6000803e3d6000fd5b505060025483101591506200358790505780600160000160006001800184815481106200355e576200355e62005297565b60009182526020808320909101546001600160a01b031683528201929092526040019020600101555b6001600160a01b038a166000908152600160208190526040808320805460ff1916815590910191909155517f82bcab3b042f3e2143a9d33d07fa130afdf763f17a45679670f0e39f12064ca890620035e1908c9062004c6e565b60405180910390a1505b620035f789826200418b565b505b620017d4565b6001600160a01b038816600090815260016020526040812060040180549162003628836200524d565b90915550506005546001600160a01b03891660009081526001602052604090206004015410620017d45760046200365f8962004128565b15620036a957506040516003907f622a69297177c029df8c1ba7f4d2d59881089b571ae96800e634aff50d67492e906200369b908b9062004c6e565b60405180910390a1620036e3565b7f547e31c58b802b63bc89f1109a132a291b0527c9196c97759829aeaecd3c2d3989604051620036da919062004c6e565b60405180910390a15b620010bd89826200418b565b8051825114620037135760405162461bcd60e51b8152600401620009519062004ef4565b604051633c952fb360e21b815260009073__UintLibrary___________________________9063f254becc906200374f90859060040162004e2c565b60206040518083038186803b1580156200376857600080fd5b505af41580156200377d573d6000803e3d6000fd5b505050506040513d601f19601f82011682018060405250810190620037a39190620048d1565b90506000805b83518110156200382957838181518110620037c857620037c862005297565b602002602001015183868381518110620037e657620037e662005297565b6020026020010151620037fa9190620051a5565b62003806919062005182565b62003812908362005167565b91508062003820816200524d565b915050620037a9565b5080620038378387620051a5565b1462000abf5760405162461bcd60e51b815260206004820152603360248201527f74686520746f74616c20616d6f756e74206973206e6f7420657175616c20746f604482015272207468652063616c63756c61746564206f6e6560681b606482015260840162000951565b8015620038e25760065462000ad35760405162461bcd60e51b8152602060048201526005602482015264454333312d60d81b604482015260640162000951565b6006541562000ad35760405162461bcd60e51b8152602060048201526005602482015264454333302d60d81b604482015260640162000951565b6000828152600d60205260409020546001600160a01b03161580156200395757506000828152600b60205260409020546001600160a01b0316155b620039b55760405162461bcd60e51b815260206004820152602760248201527f5468697320497373756572204e616d652068617320616c72656164792062656560448201526637103a30b5b2b760c91b606482015260840162000951565b80516000838152600d6020908152604090912080546001600160a01b0319166001600160a01b03909316929092178255808301518051620039ff9360010192919091019062004319565b506040808201516000848152600d6020908152929020815162003a2d93600290920192919091019062004319565b5060608101516000838152600d6020526040902060038101919091556080820151600482015560a08201516005909101805460ff19166001838181111562003a795762003a7962005281565b021790555050600e80546000838152600d60205260408120600601829055600182018355919091527fbb7b4a454dc3493923482f07822329ed19e8244eff582cc204f8554c3620c3fd0155565b62003ad18262004128565b8062003ae3575062003ae382620031c1565b151581151514620021065760405162461bcd60e51b8152602060048201526005602482015264454331302d60d81b604482015260640162000951565b60405163f7cf62d760e01b815273__AddressLibrary________________________9063f7cf62d79062003b5a908590859060040162004d47565b60206040518083038186803b15801562003b7357600080fd5b505af415801562003b88573d6000803e3d6000fd5b505050506040513d601f19601f8201168201806040525081019062003bae9190620048b1565b15620021065760405162461bcd60e51b815260040162000951906020808252600490820152634543352d60e01b604082015260600190565b600080600a60009054906101000a90046001600160a01b03166001600160a01b031663efd621de6040518163ffffffff1660e01b815260040160006040518083038186803b15801562003c3857600080fd5b505afa15801562003c4d573d6000803e3d6000fd5b505050506040513d6000823e601f3d908101601f1916820160405262003c779190810190620046aa565b60008151811062003c8c5762003c8c62005297565b602002602001015190506000600a60009054906101000a90046001600160a01b03166001600160a01b031663e220ad956040518163ffffffff1660e01b815260040160006040518083038186803b15801562003ce757600080fd5b505afa15801562003cfc573d6000803e3d6000fd5b505050506040513d6000823e601f3d908101601f1916820160405262003d269190810190620046aa565b60028151811062003d3b5762003d3b62005297565b60200260200101516001600160a01b031663b049473f6040518163ffffffff1660e01b815260040160006040518083038186803b15801562003d7c57600080fd5b505afa15801562003d91573d6000803e3d6000fd5b505050506040513d6000823e601f3d908101601f1916820160405262003dbb9190810190620047fd565b60088151811062003dd05762003dd062005297565b6020908102919091010151600a549091506000906001600160a01b03168b8b8b858c8c8c8c600181111562003e095762003e0962005281565b60405160240162003e239998979695949392919062004c82565b60408051601f198184030181529181526020820180516001600160e01b03166398a7541d60e01b179052519091506000908490839062003e6390620043a8565b62003e7092919062004da5565b604051809103906000f08015801562003e8d573d6000803e3d6000fd5b509c9b505050505050505050505050565b6000818152600d60205260409081902060060154905163cffd93cd60e01b815273__UintLibrary___________________________9063cffd93cd9062003eed908490600e906004016200508a565b60006040518083038186803b15801562003f0657600080fd5b505af415801562003f1b573d6000803e3d6000fd5b5050505080600e80549050111562003f695780600d6000600e848154811062003f485762003f4862005297565b90600052602060002001548152602001908152602001600020600601819055505b6000828152600d6020526040812080546001600160a01b03191681559062003f956001830182620043b6565b62003fa5600283016000620043b6565b50600060038201819055600482018190556005909101805460ff19169055828152600d6020526040812060078101829055600881018290556200210691600990910190620043f5565b62003ffe600754600554620042a6565b156200404a5760065460058190556040519081527f09cfdf09b84b5390e2f9e64a6b66bdfd4e3b7a611dfdd07cde2f5289ecdaace7906020015b60405180910390a162000cf4620042c3565b6200405a600854600554620042a6565b1562000cf4577f6005dc34d50a3e2ea64571b58119d8a81074b8e2db57a77c28e664641733308f6006546040516200403891815260200190565b600054610100900460ff16620040b15760005460ff1615620040b5565b303b155b620040d45760405162461bcd60e51b8152600401620009519062004ea6565b600054610100900460ff16158015620040f7576000805461ffff19166101011790555b600a80546001600160a01b0319166001600160a01b038416179055801562002106576000805461ff00191690555050565b6003546001600160a01b0382166000908152600160205260408120600201549091116200415757506000919050565b6001600160a01b03821660009081526001602052604090206002015460038054909190811062003224576200322462005297565b6001600160a01b03821660009081526001602052604090819020600201549051633c39c19f60e11b815273__AddressLibrary________________________90637873833e90620041e390849086906004016200508a565b60006040518083038186803b158015620041fc57600080fd5b505af415801562004211573d6000803e3d6000fd5b505050508082805490501115620042685780600160000160008484815481106200423f576200423f62005297565b60009182526020808320909101546001600160a01b031683528201929092526040019020600201555b6001600160a01b038316600090815260016020526040812060028101829055600381018290556004810182905562000a7e91600590910190620043f5565b600081831015620042ba57506000620018e3565b50600192915050565b600060068190556007819055600881905562000cf490600990620043f5565b6040518060a00160405280620042f762004415565b8152602001600081526020016000815260200160008152602001606081525090565b828054620043279062005210565b90600052602060002090601f0160209004810192826200434b576000855562004396565b82601f106200436657805160ff191683800117855562004396565b8280016001018555821562004396579182015b828111156200439657825182559160200191906001019062004379565b50620043a492915062004467565b5090565b61099380620052e983390190565b508054620043c49062005210565b6000825580601f10620043d5575050565b601f01602090049060005260206000209081019062000ad3919062004467565b508054600082559060005260206000209081019062000ad3919062004467565b6040518060c0016040528060006001600160a01b03168152602001606081526020016060815260200160008152602001600081526020016000600181111562004462576200446262005281565b905290565b5b80821115620043a4576000815560010162004468565b80356200448b81620052c3565b919050565b60008083601f840112620044a357600080fd5b5081356001600160401b03811115620044bb57600080fd5b6020830191508360208260051b8501011115620044d757600080fd5b9250929050565b600082601f830112620044f057600080fd5b8135602062004509620045038362005117565b620050e4565b80838252828201915082860187848660051b89010111156200452a57600080fd5b60005b85811015620045565781356200454381620052c3565b845292840192908401906001016200452d565b5090979650505050505050565b80356200448b81620052d9565b600082601f8301126200458257600080fd5b81356200459362004503826200513d565b818152846020838601011115620045a957600080fd5b816020850160208301376000918101602001919091529392505050565b8035600281106200448b57600080fd5b600060208284031215620045e957600080fd5b8135620045f681620052c3565b9392505050565b6000602082840312156200461057600080fd5b8151620045f681620052c3565b600080604083850312156200463157600080fd5b82356200463e81620052c3565b946020939093013593505050565b6000806000606084860312156200466257600080fd5b83356200466f81620052c3565b92506020840135915060408401356001600160401b038111156200469257600080fd5b620046a08682870162004570565b9150509250925092565b60006020808385031215620046be57600080fd5b82516001600160401b03811115620046d557600080fd5b8301601f81018513620046e757600080fd5b8051620046f8620045038262005117565b80828252848201915084840188868560051b87010111156200471957600080fd5b600094505b83851015620047495780516200473481620052c3565b8352600194909401939185019185016200471e565b50979650505050505050565b600080604083850312156200476957600080fd5b82356001600160401b038111156200478057600080fd5b6200478e85828601620044de565b95602094909401359450505050565b600080600060608486031215620047b357600080fd5b83356001600160401b03811115620047ca57600080fd5b620047d886828701620044de565b935050602084013591506040840135620047f281620052c3565b809150509250925092565b600060208083850312156200481157600080fd5b82516001600160401b038111156200482857600080fd5b8301601f810185136200483a57600080fd5b80516200484b620045038262005117565b80828252848201915084840188868560051b87010111156200486c57600080fd5b600094505b838510156200474957805183526001949094019391850191850162004871565b600060208284031215620048a457600080fd5b8135620045f681620052d9565b600060208284031215620048c457600080fd5b8151620045f681620052d9565b600060208284031215620048e457600080fd5b5051919050565b600060208284031215620048fe57600080fd5b81516001600160401b038111156200491557600080fd5b8201601f810184136200492757600080fd5b80516200493862004503826200513d565b8181528560208385010111156200494e57600080fd5b62004961826020830160208601620051e1565b95945050505050565b600080604083850312156200497e57600080fd5b82356001600160401b03808211156200499657600080fd5b9084019060c08287031215620049ab57600080fd5b620049b5620050b9565b620049c0836200447e565b8152602083013582811115620049d557600080fd5b620049e38882860162004570565b602083015250604083013582811115620049fc57600080fd5b62004a0a8882860162004570565b604083015250606083013560608201526080830135608082015262004a3260a08401620045c6565b60a0820152935062004a4a9150506020840162004563565b90509250929050565b60006020828403121562004a6657600080fd5b5035919050565b60008060006060848603121562004a8357600080fd5b83359250602084013562004a9781620052c3565b915060408401356001600160401b038111156200469257600080fd5b6000806000806080858703121562004aca57600080fd5b84359350602085013562004ade81620052c3565b925060408501359150606085013562004af781620052c3565b939692955090935050565b6000806000806080858703121562004b1957600080fd5b8435935060208501359250604085013562004b3481620052c3565b9396929550929360600135925050565b60008060008060008060008060a0898b03121562004b6157600080fd5b883597506020890135965060408901356001600160401b038082111562004b8757600080fd5b62004b958c838d0162004490565b909850965060608b013591508082111562004baf57600080fd5b62004bbd8c838d0162004490565b909650945060808b013591508082111562004bd757600080fd5b5062004be68b828c0162004490565b999c989b5096995094979396929594505050565b600081518084526020808501945080840160005b8381101562004c355781516001600160a01b03168752958201959082019060010162004c0e565b509495945050505050565b6000815180845262004c5a816020860160208601620051e1565b601f01601f19169290920160200192915050565b6001600160a01b0391909116815260200190565b6001600160a01b038a81168252891660208201526101206040820181905260009062004cb18382018b62004c40565b9050828103606084015262004cc7818a62004c40565b6080840198909852505060a081019490945260c084019290925260e083015260ff1661010090910152949350505050565b6001600160a01b03878116825286166020820152604081018590526060810184905260c06080820181905260009062004d349083018562004c40565b90508260a0830152979650505050505050565b6001600160a01b038381168252604060208084018290528451918401829052600092858201929091906060860190855b8181101562004d9757855185168352948301949183019160010162004d77565b509098975050505050505050565b6001600160a01b038316815260406020820181905260009062004dcb9083018462004c40565b949350505050565b6001600160a01b038416815260606020820181905260009062004df99083018562004c40565b828103604084015262004e0d818562004c40565b9695505050505050565b602081526000620045f6602083018462004bfa565b6020808252825182820181905260009190848201906040850190845b8181101562004e665783518352928401929184019160010162004e48565b50909695505050505050565b602081526000620045f6602083018462004c40565b602080825260059082015264454331392d60d81b604082015260600190565b6020808252602e908201527f496e697469616c697a61626c653a20636f6e747261637420697320616c72656160408201526d191e481a5b9a5d1a585b1a5e995960921b606082015260800190565b6020808252602b908201527f50726f76696465642061727261797320646f206e6f742068617665207468652060408201526a0e6c2daca40d8cadccee8d60ab1b606082015260800190565b878152602081018790526001600160a01b03868116604083015285151560608301528416608082015282151560a082015260e060c0820181905260009062004f8a9083018462004c40565b9998505050505050505050565b9283526020830191909152604082015260600190565b602081526000825160a0602084015260018060a01b0381511660c0840152602081015160c060e085015262004fe761018085018262004c40565b9050604082015160bf198583030161010086015262005007828262004c40565b9150506060820151610120850152608082015161014085015260a08201519150600282106200504657634e487b7160e01b600052602160045260246000fd5b8161016085015260208501516040850152604085015160608501526060850151608085015260808501519150601f198482030160a085015262004961818362004bfa565b918252602082015260400190565b83815282602082015260606040820152600062004961606083018462004bfa565b60405160c081016001600160401b0381118282101715620050de57620050de620052ad565b60405290565b604051601f8201601f191681016001600160401b03811182821017156200510f576200510f620052ad565b604052919050565b60006001600160401b03821115620051335762005133620052ad565b5060051b60200190565b60006001600160401b03821115620051595762005159620052ad565b50601f01601f191660200190565b600082198211156200517d576200517d6200526b565b500190565b600082620051a057634e487b7160e01b600052601260045260246000fd5b500490565b6000816000190483118215151615620051c257620051c26200526b565b500290565b600082821015620051dc57620051dc6200526b565b500390565b60005b83811015620051fe578181015183820152602001620051e4565b8381111562000ce25750506000910152565b600181811c908216806200522557607f821691505b602082108114156200524757634e487b7160e01b600052602260045260246000fd5b50919050565b60006000198214156200526457620052646200526b565b5060010190565b634e487b7160e01b600052601160045260246000fd5b634e487b7160e01b600052602160045260246000fd5b634e487b7160e01b600052603260045260246000fd5b634e487b7160e01b600052604160045260246000fd5b6001600160a01b038116811462000ad357600080fd5b801515811462000ad357600080fdfe608060405260405161099338038061099383398101604081905261002291610470565b61004d60017fa3f0ad74e5423aebfd80d3ef4346578335a9a72aeaee59ff6cb3582b35133d5161057f565b60008051602061094c83398151915214610069576100696105d0565b6100758282600061007c565b50506105fc565b61008583610156565b6040516001600160a01b038416907f1cf3b03a6cf19fa2baba4df148e9dcabedea7f8a5c07840e207e5c089be95d3e90600090a26000825111806100c65750805b156101515761014f836001600160a01b0316635c60da1b6040518163ffffffff1660e01b815260040160206040518083038186803b15801561010757600080fd5b505afa15801561011b573d6000803e3d6000fd5b505050506040513d601f19601f8201168201806040525081019061013f9190610455565b836102f660201b6100291760201c565b505b505050565b6101698161032260201b6100551760201c565b6101c85760405162461bcd60e51b815260206004820152602560248201527f455243313936373a206e657720626561636f6e206973206e6f74206120636f6e6044820152641d1c9858dd60da1b60648201526084015b60405180910390fd5b61024b816001600160a01b0316635c60da1b6040518163ffffffff1660e01b815260040160206040518083038186803b15801561020457600080fd5b505afa158015610218573d6000803e3d6000fd5b505050506040513d601f19601f8201168201806040525081019061023c9190610455565b61032260201b6100551760201c565b6102b05760405162461bcd60e51b815260206004820152603060248201527f455243313936373a20626561636f6e20696d706c656d656e746174696f6e206960448201526f1cc81b9bdd08184818dbdb9d1c9858dd60821b60648201526084016101bf565b806102d560008051602061094c83398151915260001b61032860201b61005b1760201c565b80546001600160a01b0319166001600160a01b039290921691909117905550565b606061031b838360405180606001604052806027815260200161096c6027913961032b565b9392505050565b3b151590565b90565b6060833b61038a5760405162461bcd60e51b815260206004820152602660248201527f416464726573733a2064656c65676174652063616c6c20746f206e6f6e2d636f6044820152651b9d1c9858dd60d21b60648201526084016101bf565b600080856001600160a01b0316856040516103a59190610530565b600060405180830381855af49150503d80600081146103e0576040519150601f19603f3d011682016040523d82523d6000602084013e6103e5565b606091505b5090925090506103f6828286610400565b9695505050505050565b6060831561040f57508161031b565b82511561041f5782518084602001fd5b8160405162461bcd60e51b81526004016101bf919061054c565b80516001600160a01b038116811461045057600080fd5b919050565b60006020828403121561046757600080fd5b61031b82610439565b6000806040838503121561048357600080fd5b61048c83610439565b60208401519092506001600160401b03808211156104a957600080fd5b818501915085601f8301126104bd57600080fd5b8151818111156104cf576104cf6105e6565b604051601f8201601f19908116603f011681019083821181831017156104f7576104f76105e6565b8160405282815288602084870101111561051057600080fd5b6105218360208301602088016105a4565b80955050505050509250929050565b600082516105428184602087016105a4565b9190910192915050565b602081526000825180602084015261056b8160408501602087016105a4565b601f01601f19169190910160400192915050565b60008282101561059f57634e487b7160e01b600052601160045260246000fd5b500390565b60005b838110156105bf5781810151838201526020016105a7565b8381111561014f5750506000910152565b634e487b7160e01b600052600160045260246000fd5b634e487b7160e01b600052604160045260246000fd5b6103418061060b6000396000f3fe60806040523661001357610011610017565b005b6100115b61002761002261005e565b610106565b565b606061004e83836040518060600160405280602781526020016102e56027913961012a565b9392505050565b3b151590565b90565b60006100917fa3f0ad74e5423aebfd80d3ef4346578335a9a72aeaee59ff6cb3582b35133d50546001600160a01b031690565b6001600160a01b0316635c60da1b6040518163ffffffff1660e01b815260040160206040518083038186803b1580156100c957600080fd5b505afa1580156100dd573d6000803e3d6000fd5b505050506040513d601f19601f82011682018060405250810190610101919061023c565b905090565b3660008037600080366000845af43d6000803e808015610125573d6000f35b3d6000fd5b6060833b61018e5760405162461bcd60e51b815260206004820152602660248201527f416464726573733a2064656c65676174652063616c6c20746f206e6f6e2d636f6044820152651b9d1c9858dd60d21b60648201526084015b60405180910390fd5b600080856001600160a01b0316856040516101a99190610265565b600060405180830381855af49150503d80600081146101e4576040519150601f19603f3d011682016040523d82523d6000602084013e6101e9565b606091505b50915091506101f9828286610203565b9695505050505050565b6060831561021257508161004e565b8251156102225782518084602001fd5b8160405162461bcd60e51b81526004016101859190610281565b60006020828403121561024e57600080fd5b81516001600160a01b038116811461004e57600080fd5b600082516102778184602087016102b4565b9190910192915050565b60208152600082518060208401526102a08160408501602087016102b4565b601f01601f19169190910160400192915050565b60005b838110156102cf5781810151838201526020016102b7565b838111156102de576000848401525b5050505056fe416464726573733a206c6f772d6c6576656c2064656c65676174652063616c6c206661696c6564a2646970667358221220148d20618ce0e4acd0b179dccf12503163fb589ddd8df806d6d9c09a8f4adc1064736f6c63430008070033a3f0ad74e5423aebfd80d3ef4346578335a9a72aeaee59ff6cb3582b35133d50416464726573733a206c6f772d6c6576656c2064656c65676174652063616c6c206661696c6564a2646970667358221220188a9f0864f1097036943e8cfc37e9b6fcae91b6760b06b16ffab081f10dcb5464736f6c63430008070033",
  "immutableReferences": {},
  "source": "// SPDX-License-Identifier: GPL-3.0\r\n\r\npragma solidity 0.8.7;\r\n\r\n/**\r\n Certis Token is an ERC20 Token that grants its holder the right to:\r\n   - Vote on all the systems propositions (changing system configuraiton etc...)\r\n   - Receive Dividends for all the payments forwarded to the Treasury contract\r\n\r\nBefore every token transfer we contact the token gouvernance Base contracts so that the can update the tokens used for voting if needed\r\n\r\n */\r\n\r\nimport \"@openzeppelin/contracts-upgradeable/proxy/utils/Initializable.sol\";\r\nimport \"../Interfaces/IPool.sol\";\r\nimport \"../Interfaces/ITreasury.sol\";\r\nimport \"../Base/MultiSigContract.sol\";\r\nimport \"../Libraries/ItemsLibrary.sol\";\r\nimport \"../Libraries/UintLibrary.sol\";\r\nimport \"../Libraries/Library.sol\";\r\nimport \"../Libraries/AddressLibrary.sol\";\r\nimport \"@openzeppelin/contracts/proxy/beacon/BeaconProxy.sol\";\r\nimport \"../Base/CreditorBaseContract.sol\";\r\nimport \"../Interfaces/IPayments.sol\";\r\n\r\n contract PublicPool is  Initializable, MultiSigContract, CreditorBaseContract, IPool {\r\n  using ItemsLibrary for *;\r\n  using UintLibrary for *;\r\n  using Library for *;\r\n  using AddressLibrary for *;\r\n\r\n\r\n  // EVENTS /////////////////////////////////////////\r\n  event _NewIssuerRequest(uint256 indexed id, address owner, string name, string symbol);\r\n  event _VoteForIssuer(uint256 indexed id, address voter, bool vote);\r\n  event _IssuerValidation(uint256 indexed id, address NFTMarket);\r\n  event _IssuerRejection(uint256 indexed id);\r\n\r\n  event _CreditReceived(address indexed receiver, uint256 amount, address indexed sender);\r\n  event _CreditUnAssignedReceived(uint256 indexed NFTMarketId, uint256 indexed tokenID, uint256 amount);\r\n  event _CreditAssigned(uint256 indexed NFTMarketId, uint256 indexed tokenID, address indexed receiver, uint256 amount, uint256 factor);\r\n  event _CreditReused(uint256 indexed NFTMarketId, uint256 indexed tokenID, address indexed creditor, uint256 amount);\r\n  event _CreditSpent(uint256 indexed NFTMarketId, address indexed from, uint256 amount, address indexed to);\r\n  event _CreditWithdrawn(address indexed withdrawer, uint256 amount);\r\n  event _CreditWithdrawnFor(address indexed withdrawer, uint256 amount, address indexed sender);\r\n\r\n\r\n  // DATA /////////////////////////////////////////\r\n  mapping(uint256 => address) private _issuers;\r\n  uint256[] private _listOfIssuers;\r\n\r\n  mapping(uint256 => _pendingIssuerStruct) private _pendingIssuers;\r\n  uint256[] private _listOfPendingIssuers;\r\n\r\n  mapping(address => ItemsLibrary._BalanceStruct) private _creditOfAccount;\r\n  mapping(uint256 => mapping(uint256 => uint256)) private _unassignedCreditForMarket;\r\n\r\n\r\n\r\n  // MODIFIERS /////////////////////////////////////////\r\n  modifier IssuerPending(uint256 id){\r\n      require(address(0) != _pendingIssuers[id]._issuer._owner, \"This issuer id is not pending\");\r\n      _;\r\n  }\r\n\r\n  modifier validIssuerRequest(ItemsLibrary._issuerStruct memory requestedIssuer){\r\n    require(address(0) != requestedIssuer._owner, \"NFT Market owner cannot be address 0\");\r\n    Library.validFees(requestedIssuer._feeAmount, requestedIssuer._feeDecimals);\r\n    require(0 < bytes(requestedIssuer._name).length, \"Name is empty\");\r\n    require(0 < bytes(requestedIssuer._symbol).length, \"Symbol is empty\");\r\n     _;\r\n  }\r\n\r\n  modifier isNFTMarket(uint256 MarketId, address MarketAddress){\r\n      isNFTMarketFunc(MarketId, MarketAddress);\r\n      _;\r\n  }\r\n\r\n  function isNFTMarketFunc(uint256 MarketId, address MarketAddress) internal view{\r\n    require(MarketAddress == _issuers[MarketId], \"The Market Id and Address do not correspond\");\r\n  }\r\n\r\n  modifier isTokenUnassignedCreditEmpty(uint256 NFTMarketId, uint256 tokenID){\r\n    isTokenUnassignedCreditEmptyFunc(NFTMarketId, tokenID);\r\n    _;\r\n  }\r\n\r\n  function isTokenUnassignedCreditEmptyFunc(uint256 NFTMarketId, uint256 tokenID) internal view{\r\n    require(0 == _unassignedCreditForMarket[NFTMarketId][tokenID], \"Unassigned credit for this token is not empty\");\r\n  }\r\n\r\n  modifier checkTotal(uint256 total, uint256[] memory amounts, uint256[] memory factors){\r\n    checkTotalFunc(total, amounts, factors);\r\n    _;\r\n  }\r\n\r\n  function checkTotalFunc(uint256 total, uint256[] memory amounts, uint256[] memory factors) internal pure{\r\n    require(amounts.length == factors.length, \"Provided arrays do not have the same length\");\r\n    uint256 CommonDividend = UintLibrary.ProductOfFactors(factors);\r\n    uint256 calculatedTotal = 0;\r\n    for(uint256 i=0; i < factors.length; i++){\r\n        calculatedTotal += amounts[i] * CommonDividend / factors[i];\r\n    }\r\n    require((total * CommonDividend) == calculatedTotal, \"the total amount is not equal to the calculated one\");\r\n  }\r\n\r\n  // CONSTRUCTOR /////////////////////////////////////////\r\n  function PublicPool_init(address[] memory owners,  uint256 minOwners, address managerContractAddress) public initializer {\r\n      super.MultiSigContract_init(owners, minOwners); \r\n      super.CreditorBaseContract_init(managerContractAddress); \r\n  }\r\n\r\n  // FUNCTIONALITY /////////////////////////////////////////\r\n  function onCreditReceived(address sender, uint256 amount, bytes memory data) internal override\r\n  {\r\n    bytes32[] memory receivedData = Library.BytestoBytes32(data);\r\n    Library.PublicPoolPaymentTypes paymentType = Library.PublicPoolPaymentTypes(uint256(receivedData[0]));\r\n\r\n    if(Library.PublicPoolPaymentTypes.SendCredit == paymentType){\r\n      address account = AddressLibrary.Bytes32ToAddress(receivedData[1]);\r\n      ItemsLibrary.addBalance(_creditOfAccount[account], amount, 1);\r\n      emit _CreditReceived(account, amount, sender);\r\n    }\r\n\r\n    else{\r\n      uint256 NFTMarketId = UintLibrary.Bytes32ToUint(receivedData[1]);\r\n      uint256 tokenID = UintLibrary.Bytes32ToUint(receivedData[2]);\r\n      internalTransferUnassignedCredit(NFTMarketId, tokenID, amount);\r\n      emit _CreditUnAssignedReceived(NFTMarketId, tokenID, amount);\r\n    }\r\n     \r\n  }\r\n\r\n  function requestIssuer(ItemsLibrary._issuerStruct memory requestedIssuer, bool FromCredit) external override\r\n    validIssuerRequest(requestedIssuer)\r\n  {\r\n\r\n    uint[] memory Prices = ITreasury(_managerContract.retrieveTransparentProxies()[uint256(Library.TransparentProxies.Treasury)]).retrieveSettings();\r\n    uint256 NewIssuerFee = Prices[uint256(Library.Prices.NewIssuerFee)];\r\n    uint256 AdminNewIssuerFee = Prices[uint256(Library.Prices.AdminNewIssuerFee)];\r\n\r\n    if(FromCredit){\r\n      internalSpendCredit(0, msg.sender, NewIssuerFee,  _managerContract.retrieveTransparentProxies()[uint256(Library.TransparentProxies.Treasury)]);\r\n      internalSpendCredit(0, msg.sender, AdminNewIssuerFee,  _managerContract.retrieveTransparentProxies()[uint256(Library.TransparentProxies.AdminPiggyBank)]);\r\n    }\r\n    else{\r\n      IPayments payments = IPayments(_managerContract.retrieveTransparentProxies()[uint256(Library.TransparentProxies.Payments)]);\r\n      payments.TransferFrom(msg.sender, _managerContract.retrieveTransparentProxies()[uint256(Library.TransparentProxies.Treasury)], NewIssuerFee, 0, bytes(\"\"), 0);\r\n      payments.TransferFrom(msg.sender, _managerContract.retrieveTransparentProxies()[uint256(Library.TransparentProxies.AdminPiggyBank)], AdminNewIssuerFee, 0, bytes(\"\"), 0);\r\n    }\r\n\r\n    uint256 IssuerID = getIssuerIdFromName(requestedIssuer._name);\r\n\r\n    addPendingIssuer(IssuerID, requestedIssuer);\r\n\r\n    emit _NewIssuerRequest(IssuerID, requestedIssuer._owner, requestedIssuer._name, requestedIssuer._symbol);\r\n  }\r\n\r\n  function addPendingIssuer(uint256 IssuerID, ItemsLibrary._issuerStruct memory requestedIssuer) internal\r\n  {\r\n\r\n    require(address(0) == _pendingIssuers[IssuerID]._issuer._owner && address(0) == _issuers[IssuerID], \"This Issuer Name has already been taken\");\r\n\r\n    _pendingIssuers[IssuerID]._issuer._owner = requestedIssuer._owner;\r\n    _pendingIssuers[IssuerID]._issuer._name = requestedIssuer._name;\r\n    _pendingIssuers[IssuerID]._issuer._symbol = requestedIssuer._symbol;\r\n    _pendingIssuers[IssuerID]._issuer._feeAmount = requestedIssuer._feeAmount;\r\n    _pendingIssuers[IssuerID]._issuer._feeDecimals = requestedIssuer._feeDecimals;\r\n    _pendingIssuers[IssuerID]._issuer._paymentPlan = requestedIssuer._paymentPlan;\r\n    _pendingIssuers[IssuerID]._pendingId = _listOfPendingIssuers.length;\r\n    _listOfPendingIssuers.push(IssuerID);\r\n  }\r\n\r\n  function getIssuerIdFromName(string memory name) internal pure returns(uint256)\r\n  {\r\n    return uint256(keccak256(bytes(name)));\r\n  }\r\n\r\n  function validateIssuer(uint256 id) external override\r\n  {\r\n    voteForIssuer(id, true);\r\n  }\r\n\r\n  function rejectIssuer(uint id) external override\r\n  {\r\n    voteForIssuer(id, false);\r\n  }\r\n\r\n  function voteForIssuer(uint id, bool vote) internal\r\n    isAnOwner(msg.sender, true)\r\n    HasNotAlreadyVoted(msg.sender, _pendingIssuers[id]._voters)\r\n    IssuerPending(id)\r\n  {\r\n    emit _VoteForIssuer(id, msg.sender, vote);\r\n\r\n    _pendingIssuers[id]._voters.push(msg.sender);\r\n        \r\n    if(vote){\r\n        _pendingIssuers[id]._validations++;\r\n\r\n        if(_pendingIssuers[id]._validations >= _minOwners){\r\n            _listOfIssuers.push(id);\r\n            _issuers[id] = GenerateNewNFTMarket(_pendingIssuers[id]._issuer._owner, _pendingIssuers[id]._issuer._name, _pendingIssuers[id]._issuer._symbol, _pendingIssuers[id]._issuer._feeAmount, _pendingIssuers[id]._issuer._feeDecimals, id, _pendingIssuers[id]._issuer._paymentPlan);\r\n            deletingPendingIssuer(id);\r\n            emit _IssuerValidation(id, _issuers[id]);\r\n        }\r\n    }\r\n    else{\r\n        _pendingIssuers[id]._rejections++;\r\n\r\n        if(_pendingIssuers[id]._rejections >= _minOwners){\r\n            deletingPendingIssuer(id);\r\n            emit _IssuerRejection(id);\r\n        }\r\n    }\r\n  }\r\n\r\n  function deletingPendingIssuer(uint256 id) internal\r\n  {\r\n    uint pos = _pendingIssuers[id]._pendingId;\r\n    UintLibrary.UintArrayRemoveResize(pos, _listOfPendingIssuers);\r\n    if(_listOfPendingIssuers.length > pos) _pendingIssuers[_listOfPendingIssuers[pos]]._pendingId = pos;\r\n\r\n    delete(_pendingIssuers[id]._issuer);\r\n    delete(_pendingIssuers[id]._validations);\r\n    delete(_pendingIssuers[id]._rejections);\r\n    delete(_pendingIssuers[id]._voters);\r\n  }\r\n\r\n  function GenerateNewNFTMarket(address owner, string memory name, string memory symbol, uint256 feeAmount, uint256 feeDecimals, uint256 id, Library.PaymentPlans paymentPlan) internal returns(address)\r\n  {\r\n    address beaconAddress = _managerContract.retrieveBeacons()[uint256(Library.Beacons.NFT)];\r\n    uint256 OffersLifeTime = ITreasury(_managerContract.retrieveTransparentProxies()[uint256(Library.TransparentProxies.Treasury)]).retrieveSettings()[uint256(Library.Prices.OffersLifeTime)];\r\n    bytes memory data = abi.encodeWithSignature(\"NFTMarket_init(address,address,string,string,uint256,uint256,uint256,uint256,uint8)\", address(_managerContract), owner, name, symbol, OffersLifeTime, feeAmount, feeDecimals, id, uint8(paymentPlan));\r\n\r\n    BeaconProxy beaconProxy = new BeaconProxy(beaconAddress, data);\r\n\r\n    return address(beaconProxy);\r\n  }\r\n\r\n  function retrieveIssuers() external override view returns (uint[] memory)\r\n  {\r\n    return _listOfIssuers;\r\n  }\r\n\r\n  function retrieveNFTMarketForIssuer(uint id) external override view returns (address)\r\n  {\r\n    return _issuers[id];\r\n  }\r\n\r\n  function retrievePendingIssuers() external override view returns (uint[] memory)\r\n  {\r\n    return _listOfPendingIssuers;\r\n  }\r\n\r\n  function retrievePendingIssuer(uint id) external override view returns (_pendingIssuerStruct memory)\r\n  {\r\n    return _pendingIssuers[id];\r\n  }\r\n\r\n  // Credit Functionality\r\n\r\n  function sendCredit(address addr, uint256 amount) external override\r\n  {\r\n    bytes32[] memory dataArray = new bytes32[](3);\r\n    dataArray[0] = UintLibrary.UintToBytes32(uint256(Library.PublicPoolPaymentTypes.SendCredit));\r\n    dataArray[1] = AddressLibrary.AddressToBytes32(addr);\r\n    bytes memory data = Library.Bytes32ArrayToBytes(dataArray);\r\n\r\n    IPayments payments = IPayments(_managerContract.retrieveTransparentProxies()[uint256(Library.TransparentProxies.Payments)]);\r\n    payments.TransferFrom(msg.sender, address(this), amount, 0, data, 0);\r\n  }\r\n\r\n  function addCredit(uint256 NFTMarketId, uint256 tokenID, address[] calldata addrs, uint256[] calldata amounts, uint256[] calldata factors) external override\r\n    isNFTMarket(NFTMarketId, msg.sender)\r\n    checkTotal(_unassignedCreditForMarket[NFTMarketId][tokenID], amounts, factors)\r\n  {\r\n    require(addrs.length == factors.length, \"Provided arrays do not have the same length\");\r\n    for(uint i=0; i < addrs.length; i++){\r\n      ItemsLibrary.addBalance(_creditOfAccount[addrs[i]], amounts[i], factors[i]);\r\n      emit _CreditAssigned(NFTMarketId, tokenID, addrs[i], amounts[i], factors[i]);\r\n    }\r\n    delete(_unassignedCreditForMarket[NFTMarketId][tokenID]);\r\n  }\r\n\r\n  function reuseCredit(uint256 NFTMarketId, uint256 tokenID, address addr, uint256 amount) external override\r\n    isNFTMarket(NFTMarketId, msg.sender)\r\n    isTokenUnassignedCreditEmpty(NFTMarketId, tokenID)\r\n  {\r\n    ItemsLibrary.InternalWithdraw(\r\n      _creditOfAccount[addr], \r\n      amount, \r\n      address(0), \r\n      false, \r\n      IPayments(_managerContract.retrieveTransparentProxies()[uint256(Library.TransparentProxies.Payments)]).retrieveSettings()[0],\r\n      false,\r\n      bytes(\"\")\r\n    );\r\n    internalTransferUnassignedCredit(NFTMarketId, tokenID, amount);\r\n    emit _CreditReused(NFTMarketId, tokenID, addr, amount);\r\n  }\r\n\r\n  function spendCredit(uint256 NFTMarketId, address from, uint256 amount, address to) external override\r\n    isNFTMarket(NFTMarketId, msg.sender)\r\n  {\r\n    internalSpendCredit(NFTMarketId, from, amount, to);\r\n  }\r\n\r\n  function internalSpendCredit(uint256 NFTMarketId, address from, uint256 amount, address to) internal \r\n  {\r\n    bytes memory emptyData = bytes(\"\");\r\n    ItemsLibrary.InternalWithdraw(  \r\n      _creditOfAccount[from], \r\n      amount, \r\n      to, \r\n      true, \r\n      IPayments(_managerContract.retrieveTransparentProxies()[uint256(Library.TransparentProxies.Payments)]).retrieveSettings()[0],\r\n      true,\r\n      bytes(\"\")\r\n    );\r\n    emit _CreditSpent(NFTMarketId, from, amount, to);\r\n  }\r\n\r\n  function withdraw(uint amount) external override\r\n  {\r\n    internalWithdraw(msg.sender, amount, address(0), false, bytes(\"\"));\r\n  }\r\n  \r\n  function withdrawAll() external override\r\n  {\r\n    uint amount = ItemsLibrary.checkFullBalance(_creditOfAccount[msg.sender]);\r\n    internalWithdraw(msg.sender, amount, address(0), false, bytes(\"\"));\r\n  }\r\n  \r\n  function withdrawAllFor(uint256 NFTMarketId, address addr, bytes memory data) external override\r\n    isNFTMarket(NFTMarketId, msg.sender)\r\n  {\r\n    uint amount = ItemsLibrary.checkFullBalance(_creditOfAccount[addr]);\r\n    internalWithdraw(addr, amount, msg.sender, true, data);\r\n  }\r\n\r\n  function internalTransferUnassignedCredit(uint256 NFTMarketId, uint256 tokenID, uint256 amount) internal\r\n  {\r\n      _unassignedCreditForMarket[NFTMarketId][tokenID] = amount;\r\n  }\r\n\r\n  function internalWithdraw(address addr, uint amount, address sender, bool sendData, bytes memory data) internal\r\n  {\r\n    ItemsLibrary.InternalWithdraw(\r\n      _creditOfAccount[addr], \r\n      amount, \r\n      addr, \r\n      true, \r\n      IPayments(_managerContract.retrieveTransparentProxies()[uint256(Library.TransparentProxies.Payments)]).retrieveSettings()[0],\r\n      sendData,\r\n      data\r\n    );\r\n    if(address(0) != sender) emit _CreditWithdrawnFor(addr, amount, sender);\r\n    else emit _CreditWithdrawn(addr, amount);\r\n  }\r\n\r\n  function retrieveCredit(address addr) external override view returns (uint256)\r\n  {\r\n    return ItemsLibrary.checkFullBalance(_creditOfAccount[addr]);\r\n  }\r\n\r\n\r\n\r\n }",
  "sourcePath": "C:\\Users\\d-aam\\GitHub\\Originals\\contracts\\MainContracts\\PublicPool.sol",
  "compiler": {
    "name": "solc",
    "version": "0.8.7+commit.e28d00a7.Emscripten.clang"
  },
  "schemaVersion": "3.4.3",
  "updatedAt": "2022-02-24T09:15:08.393Z",
  "devdoc": {
    "kind": "dev",
    "methods": {},
    "version": 1
  },
  "userdoc": {
    "kind": "user",
    "methods": {},
    "version": 1
  }
}