{
  "contractName": "PublicPool",
  "abi": [
    {
      "anonymous": false,
      "inputs": [
        {
          "indexed": false,
          "internalType": "address",
          "name": "owner",
          "type": "address"
        }
      ],
      "name": "_AddOwnerRejection",
      "type": "event"
    },
    {
      "anonymous": false,
      "inputs": [
        {
          "indexed": false,
          "internalType": "address",
          "name": "owner",
          "type": "address"
        }
      ],
      "name": "_AddOwnerValidation",
      "type": "event"
    },
    {
      "anonymous": false,
      "inputs": [
        {
          "indexed": true,
          "internalType": "uint256",
          "name": "id",
          "type": "uint256"
        }
      ],
      "name": "_IssuerRejection",
      "type": "event"
    },
    {
      "anonymous": false,
      "inputs": [
        {
          "indexed": true,
          "internalType": "uint256",
          "name": "id",
          "type": "uint256"
        },
        {
          "indexed": false,
          "internalType": "address",
          "name": "NFTMarket",
          "type": "address"
        }
      ],
      "name": "_IssuerValidation",
      "type": "event"
    },
    {
      "anonymous": false,
      "inputs": [
        {
          "indexed": false,
          "internalType": "uint256",
          "name": "minOwner",
          "type": "uint256"
        }
      ],
      "name": "_MinOwnerRejection",
      "type": "event"
    },
    {
      "anonymous": false,
      "inputs": [
        {
          "indexed": false,
          "internalType": "uint256",
          "name": "minOwner",
          "type": "uint256"
        }
      ],
      "name": "_MinOwnerValidation",
      "type": "event"
    },
    {
      "anonymous": false,
      "inputs": [
        {
          "indexed": true,
          "internalType": "uint256",
          "name": "id",
          "type": "uint256"
        },
        {
          "indexed": false,
          "internalType": "address",
          "name": "owner",
          "type": "address"
        },
        {
          "indexed": false,
          "internalType": "string",
          "name": "name",
          "type": "string"
        },
        {
          "indexed": false,
          "internalType": "string",
          "name": "symbol",
          "type": "string"
        }
      ],
      "name": "_NewIssuerRequest",
      "type": "event"
    },
    {
      "anonymous": false,
      "inputs": [
        {
          "indexed": false,
          "internalType": "address",
          "name": "owner",
          "type": "address"
        }
      ],
      "name": "_RemoveOwnerRejection",
      "type": "event"
    },
    {
      "anonymous": false,
      "inputs": [
        {
          "indexed": false,
          "internalType": "address",
          "name": "owner",
          "type": "address"
        }
      ],
      "name": "_RemoveOwnerValidation",
      "type": "event"
    },
    {
      "anonymous": false,
      "inputs": [
        {
          "indexed": true,
          "internalType": "uint256",
          "name": "id",
          "type": "uint256"
        },
        {
          "indexed": false,
          "internalType": "address",
          "name": "voter",
          "type": "address"
        },
        {
          "indexed": false,
          "internalType": "bool",
          "name": "vote",
          "type": "bool"
        }
      ],
      "name": "_VoteForIssuer",
      "type": "event"
    },
    {
      "anonymous": false,
      "inputs": [
        {
          "indexed": false,
          "internalType": "uint256",
          "name": "minOwner",
          "type": "uint256"
        },
        {
          "indexed": false,
          "internalType": "address",
          "name": "voter",
          "type": "address"
        },
        {
          "indexed": false,
          "internalType": "bool",
          "name": "vote",
          "type": "bool"
        }
      ],
      "name": "_VoteForMinOwner",
      "type": "event"
    },
    {
      "anonymous": false,
      "inputs": [
        {
          "indexed": false,
          "internalType": "address",
          "name": "owner",
          "type": "address"
        },
        {
          "indexed": false,
          "internalType": "address",
          "name": "voter",
          "type": "address"
        },
        {
          "indexed": false,
          "internalType": "bool",
          "name": "vote",
          "type": "bool"
        }
      ],
      "name": "_VoteForOwner",
      "type": "event"
    },
    {
      "inputs": [
        {
          "internalType": "address[]",
          "name": "owners",
          "type": "address[]"
        },
        {
          "internalType": "uint256",
          "name": "minOwners",
          "type": "uint256"
        }
      ],
      "name": "MultiSigContract_init",
      "outputs": [],
      "stateMutability": "nonpayable",
      "type": "function"
    },
    {
      "inputs": [
        {
          "internalType": "address",
          "name": "owner",
          "type": "address"
        }
      ],
      "name": "addOwner",
      "outputs": [],
      "stateMutability": "nonpayable",
      "type": "function"
    },
    {
      "inputs": [
        {
          "internalType": "uint256",
          "name": "newMinOwners",
          "type": "uint256"
        }
      ],
      "name": "changeMinOwners",
      "outputs": [],
      "stateMutability": "nonpayable",
      "type": "function"
    },
    {
      "inputs": [],
      "name": "rejectMinOwners",
      "outputs": [],
      "stateMutability": "nonpayable",
      "type": "function"
    },
    {
      "inputs": [
        {
          "internalType": "address",
          "name": "owner",
          "type": "address"
        }
      ],
      "name": "rejectOwner",
      "outputs": [],
      "stateMutability": "nonpayable",
      "type": "function"
    },
    {
      "inputs": [
        {
          "internalType": "address",
          "name": "owner",
          "type": "address"
        }
      ],
      "name": "removeOwner",
      "outputs": [],
      "stateMutability": "nonpayable",
      "type": "function"
    },
    {
      "inputs": [],
      "name": "retrieveAllOwners",
      "outputs": [
        {
          "internalType": "address[]",
          "name": "",
          "type": "address[]"
        }
      ],
      "stateMutability": "view",
      "type": "function"
    },
    {
      "inputs": [],
      "name": "retrieveManagerContract",
      "outputs": [
        {
          "internalType": "address",
          "name": "",
          "type": "address"
        }
      ],
      "stateMutability": "view",
      "type": "function"
    },
    {
      "inputs": [],
      "name": "retrieveMinOwners",
      "outputs": [
        {
          "internalType": "uint256",
          "name": "",
          "type": "uint256"
        }
      ],
      "stateMutability": "view",
      "type": "function"
    },
    {
      "inputs": [],
      "name": "retrievePendingMinOwners",
      "outputs": [
        {
          "internalType": "uint256",
          "name": "",
          "type": "uint256"
        }
      ],
      "stateMutability": "view",
      "type": "function"
    },
    {
      "inputs": [],
      "name": "retrievePendingMinOwnersStatus",
      "outputs": [
        {
          "internalType": "uint256",
          "name": "",
          "type": "uint256"
        },
        {
          "internalType": "uint256",
          "name": "",
          "type": "uint256"
        },
        {
          "internalType": "address[]",
          "name": "",
          "type": "address[]"
        }
      ],
      "stateMutability": "view",
      "type": "function"
    },
    {
      "inputs": [
        {
          "internalType": "bool",
          "name": "addedORremove",
          "type": "bool"
        }
      ],
      "name": "retrievePendingOwners",
      "outputs": [
        {
          "internalType": "address[]",
          "name": "",
          "type": "address[]"
        }
      ],
      "stateMutability": "view",
      "type": "function"
    },
    {
      "inputs": [],
      "name": "validateMinOwners",
      "outputs": [],
      "stateMutability": "nonpayable",
      "type": "function"
    },
    {
      "inputs": [
        {
          "internalType": "address",
          "name": "owner",
          "type": "address"
        }
      ],
      "name": "validateOwner",
      "outputs": [],
      "stateMutability": "nonpayable",
      "type": "function"
    },
    {
      "inputs": [
        {
          "internalType": "address[]",
          "name": "owners",
          "type": "address[]"
        },
        {
          "internalType": "uint256",
          "name": "minOwners",
          "type": "uint256"
        },
        {
          "internalType": "address",
          "name": "managerContractAddress",
          "type": "address"
        }
      ],
      "name": "PublicPool_init",
      "outputs": [],
      "stateMutability": "nonpayable",
      "type": "function"
    },
    {
      "inputs": [
        {
          "internalType": "address",
          "name": "owner",
          "type": "address"
        },
        {
          "internalType": "string",
          "name": "name",
          "type": "string"
        },
        {
          "internalType": "string",
          "name": "symbol",
          "type": "string"
        },
        {
          "internalType": "uint256",
          "name": "feeAmount",
          "type": "uint256"
        },
        {
          "internalType": "uint256",
          "name": "feeDecimals",
          "type": "uint256"
        },
        {
          "internalType": "enum Library.PaymentPlans",
          "name": "paymentPlan",
          "type": "uint8"
        }
      ],
      "name": "requestIssuer",
      "outputs": [
        {
          "internalType": "uint256",
          "name": "",
          "type": "uint256"
        }
      ],
      "stateMutability": "payable",
      "type": "function"
    },
    {
      "inputs": [
        {
          "internalType": "uint256",
          "name": "id",
          "type": "uint256"
        }
      ],
      "name": "validateIssuer",
      "outputs": [],
      "stateMutability": "nonpayable",
      "type": "function"
    },
    {
      "inputs": [
        {
          "internalType": "uint256",
          "name": "id",
          "type": "uint256"
        }
      ],
      "name": "rejectIssuer",
      "outputs": [],
      "stateMutability": "nonpayable",
      "type": "function"
    },
    {
      "inputs": [],
      "name": "retrieveIssuers",
      "outputs": [
        {
          "internalType": "uint256[]",
          "name": "",
          "type": "uint256[]"
        }
      ],
      "stateMutability": "view",
      "type": "function"
    },
    {
      "inputs": [
        {
          "internalType": "uint256",
          "name": "id",
          "type": "uint256"
        }
      ],
      "name": "retrieveNFTMarketForIssuer",
      "outputs": [
        {
          "internalType": "address",
          "name": "",
          "type": "address"
        }
      ],
      "stateMutability": "view",
      "type": "function"
    },
    {
      "inputs": [],
      "name": "retrievePendingIssuers",
      "outputs": [
        {
          "internalType": "uint256[]",
          "name": "",
          "type": "uint256[]"
        }
      ],
      "stateMutability": "view",
      "type": "function"
    },
    {
      "inputs": [
        {
          "internalType": "uint256",
          "name": "id",
          "type": "uint256"
        }
      ],
      "name": "retrievePendingIssuer",
      "outputs": [
        {
          "components": [
            {
              "components": [
                {
                  "internalType": "address",
                  "name": "_owner",
                  "type": "address"
                },
                {
                  "internalType": "string",
                  "name": "_name",
                  "type": "string"
                },
                {
                  "internalType": "string",
                  "name": "_symbol",
                  "type": "string"
                },
                {
                  "internalType": "uint256",
                  "name": "_feeAmount",
                  "type": "uint256"
                },
                {
                  "internalType": "uint256",
                  "name": "_feeDecimals",
                  "type": "uint256"
                },
                {
                  "internalType": "enum Library.PaymentPlans",
                  "name": "_paymentPlan",
                  "type": "uint8"
                }
              ],
              "internalType": "struct ItemsLibrary._issuerStruct",
              "name": "_issuer",
              "type": "tuple"
            },
            {
              "internalType": "uint256",
              "name": "_pendingId",
              "type": "uint256"
            },
            {
              "internalType": "uint256",
              "name": "_validations",
              "type": "uint256"
            },
            {
              "internalType": "uint256",
              "name": "_rejections",
              "type": "uint256"
            },
            {
              "internalType": "address[]",
              "name": "_voters",
              "type": "address[]"
            }
          ],
          "internalType": "struct IPool._pendingIssuerStruct",
          "name": "",
          "type": "tuple"
        }
      ],
      "stateMutability": "view",
      "type": "function"
    },
    {
      "inputs": [
        {
          "internalType": "address",
          "name": "addr",
          "type": "address"
        }
      ],
      "name": "sendCredit",
      "outputs": [],
      "stateMutability": "payable",
      "type": "function"
    },
    {
      "inputs": [
        {
          "internalType": "uint256",
          "name": "NFTMarketId",
          "type": "uint256"
        },
        {
          "internalType": "uint256",
          "name": "tokenID",
          "type": "uint256"
        }
      ],
      "name": "transferUnassignedCredit",
      "outputs": [],
      "stateMutability": "payable",
      "type": "function"
    },
    {
      "inputs": [
        {
          "internalType": "uint256",
          "name": "NFTMarketId",
          "type": "uint256"
        },
        {
          "internalType": "uint256",
          "name": "tokenID",
          "type": "uint256"
        },
        {
          "internalType": "address[]",
          "name": "addrs",
          "type": "address[]"
        },
        {
          "internalType": "uint256[]",
          "name": "amounts",
          "type": "uint256[]"
        },
        {
          "internalType": "uint256[]",
          "name": "factors",
          "type": "uint256[]"
        }
      ],
      "name": "addCredit",
      "outputs": [],
      "stateMutability": "nonpayable",
      "type": "function"
    },
    {
      "inputs": [
        {
          "internalType": "uint256",
          "name": "NFTMarketId",
          "type": "uint256"
        },
        {
          "internalType": "uint256",
          "name": "tokenID",
          "type": "uint256"
        },
        {
          "internalType": "address",
          "name": "addr",
          "type": "address"
        },
        {
          "internalType": "uint256",
          "name": "amount",
          "type": "uint256"
        }
      ],
      "name": "reuseCredit",
      "outputs": [],
      "stateMutability": "nonpayable",
      "type": "function"
    },
    {
      "inputs": [
        {
          "internalType": "uint256",
          "name": "amount",
          "type": "uint256"
        }
      ],
      "name": "withdraw",
      "outputs": [],
      "stateMutability": "nonpayable",
      "type": "function"
    },
    {
      "inputs": [],
      "name": "withdrawAll",
      "outputs": [],
      "stateMutability": "nonpayable",
      "type": "function"
    },
    {
      "inputs": [
        {
          "internalType": "uint256",
          "name": "NFTMarketId",
          "type": "uint256"
        },
        {
          "internalType": "address",
          "name": "addr",
          "type": "address"
        }
      ],
      "name": "withdrawAllFor",
      "outputs": [],
      "stateMutability": "nonpayable",
      "type": "function"
    },
    {
      "inputs": [
        {
          "internalType": "address",
          "name": "addr",
          "type": "address"
        }
      ],
      "name": "retrieveCredit",
      "outputs": [
        {
          "internalType": "uint256",
          "name": "",
          "type": "uint256"
        }
      ],
      "stateMutability": "view",
      "type": "function"
    }
  ],
  "bytecode": "0x608060405234801561001057600080fd5b506144e9806100206000396000f3fe6080604052600436106200017c5760003560e01c806303231e5d1462000181578063062a080014620001d3578063094a0ed214620001fa5780630bee185e146200022e578063173825d91462000253578063280931e714620002785780632e1a7d4d146200029d5780632edbe7fc14620002c257806330ade92214620002e357806334f2920714620002fb578063430c37cb1462000320578063538b6aad14620003455780635888ebb3146200036c5780635b362e84146200039557806365b973e514620003b55780636b29960414620003cc5780637065cb48146200040057806376f8f90f14620004255780637b76e09e146200044a578063853828b6146200046157806391c0734b1462000479578063a93d5ed6146200049e578063c3079ae714620004b6578063c50afbcd14620004ce578063c66433ea14620004e5578063ce33d58a146200050a578063d0e13918146200052f578063edb492c81462000547578063eec42872146200055e578063f3882e3a1462000583575b600080fd5b3480156200018e57600080fd5b50620001bb620001a036600462003418565b6000908152600b60205260409020546001600160a01b031690565b604051620001ca919062003630565b60405180910390f35b348015620001e057600080fd5b50620001f8620001f2366004620034a2565b620005a8565b005b3480156200020757600080fd5b506200021f6200021936600462003418565b62000687565b604051620001ca91906200388e565b3480156200023b57600080fd5b50620001f86200024d3660046200329c565b620008d5565b3480156200026057600080fd5b50620001f86200027236600462003120565b62000a47565b3480156200028557600080fd5b50620001f86200029736600462003418565b62000a8a565b348015620002aa57600080fd5b50620001f8620002bc36600462003418565b62000a9a565b348015620002cf57600080fd5b506006545b604051908152602001620001ca565b348015620002f057600080fd5b50620001f862000aa6565b3480156200030857600080fd5b50620001f86200031a36600462003418565b62000ab4565b3480156200032d57600080fd5b50620001f86200033f366004620032e4565b62000ac1565b3480156200035257600080fd5b506200035d62000b59565b604051620001ca91906200379f565b3480156200037957600080fd5b506200038462000bb3565b604051620001ca9392919062003999565b348015620003a257600080fd5b50600a546001600160a01b0316620001bb565b348015620003c257600080fd5b50600554620002d4565b348015620003d957600080fd5b50620003f1620003eb366004620033d8565b62000c29565b604051620001ca91906200378a565b3480156200040d57600080fd5b50620001f86200041f36600462003120565b62000cf2565b3480156200043257600080fd5b50620001f86200044436600462003120565b62000d0e565b620001f86200045b3660046200347f565b62000d66565b3480156200046e57600080fd5b50620001f862000dba565b3480156200048657600080fd5b50620001f862000498366004620034e4565b62000e5f565b348015620004ab57600080fd5b50620003f162001010565b348015620004c357600080fd5b50620001f862001075565b620002d4620004df36600462003147565b62001081565b348015620004f257600080fd5b50620001f86200050436600462003418565b62001721565b3480156200051757600080fd5b50620001f86200052936600462003120565b62001778565b3480156200053c57600080fd5b506200035d62001785565b620001f86200055836600462003120565b620017dd565b3480156200056b57600080fd5b50620001f86200057d3660046200344c565b62001861565b3480156200059057600080fd5b50620002d4620005a236600462003120565b6200191d565b8333620005b68282620019c3565b8585620005c4828262001a46565b6001600160a01b0386166000908152601060205260408082209051637e9f902d60e11b815273__ItemsLibrary__________________________9263fd3f205a92620006199290918a91819060040162003852565b60006040518083038186803b1580156200063257600080fd5b505af415801562000647573d6000803e3d6000fd5b50505060008981526011602090815260408083208b8452909152812080548893509091906200067890849062003a13565b90915550505050505050505050565b6200069162002e3b565b6000828152600d6020526040908190208151610160810190925280546001600160a01b031660a08301908152600182018054849291849160c085019190620006d99062003a48565b80601f0160208091040260200160405190810160405280929190818152602001828054620007079062003a48565b8015620007585780601f106200072c5761010080835404028352916020019162000758565b820191906000526020600020905b8154815290600101906020018083116200073a57829003601f168201915b50505050508152602001600282018054620007739062003a48565b80601f0160208091040260200160405190810160405280929190818152602001828054620007a19062003a48565b8015620007f25780601f10620007c657610100808354040283529160200191620007f2565b820191906000526020600020905b815481529060010190602001808311620007d457829003601f168201915b50505091835250506003820154602082015260048201546040820152600582015460609091019060ff16600181111562000830576200083062003ab9565b600181111562000844576200084462003ab9565b81525050815260200160068201548152602001600782015481526020016008820154815260200160098201805480602002602001604051908101604052809291908181526020018280548015620008c557602002820191906000526020600020905b81546001600160a01b03168152600190910190602001808311620008a6575b5050505050815250509050919050565b600054610100900460ff16620008f25760005460ff1615620008f6565b303b155b6200091e5760405162461bcd60e51b8152600401620009159062003804565b60405180910390fd5b600054610100900460ff1615801562000941576000805461ffff19166101011790555b81835162000950828262001ac5565b6001846200095f828262001ac5565b600586905560005b875181101562000a2a5760018060000160008a84815181106200098e576200098e62003acf565b6020908102919091018101516001600160a01b03168252810191909152604001600020805460ff19169115159190911790558751600290899083908110620009da57620009da62003acf565b60209081029190910181015182546001810184556000938452919092200180546001600160a01b0319166001600160a01b039092169190911790558062000a218162003a85565b91505062000967565b5050505050801562000a42576000805461ff00191690555b505050565b80600162000a56828262001ae8565b60055460025462000a6a9060019062003a2e565b62000a76828262001ac5565b62000a8385600462001b42565b5050505050565b62000a9781600162001bd6565b50565b62000a97338262001fc3565b62000ab2600162002051565b565b62000a9781600062001bd6565b600054610100900460ff1662000ade5760005460ff161562000ae2565b303b155b62000b015760405162461bcd60e51b8152600401620009159062003804565b600054610100900460ff1615801562000b24576000805461ffff19166101011790555b62000b308484620008d5565b62000b3b8262002166565b6000600f55801562000b53576000805461ff00191690555b50505050565b6060600e80548060200260200160405190810160405280929190818152602001828054801562000ba957602002820191906000526020600020905b81548152602001906001019080831162000b94575b5050505050905090565b600080606060075460085460098080548060200260200160405190810160405280929190818152602001828054801562000c1757602002820191906000526020600020905b81546001600160a01b0316815260019091019060200180831162000bf8575b50505050509050925092509250909192565b6060811562000c9357600380546040805160208084028201810190925282815292919083018282801562000c8757602002820191906000526020600020905b81546001600160a01b0316815260019091019060200180831162000c68575b50505050509050919050565b600480546040805160208084028201810190925282815292919083018282801562000c87576020028201919060005260206000209081546001600160a01b0316815260019091019060200180831162000c685750505050509050919050565b80600062000d01828262001ae8565b62000a4283600362001b42565b62000d1981620021fa565b15156001141562000d595760025462000d359060019062003a2e565b600554111562000d595760405162461bcd60e51b81526004016200091590620037e5565b62000a9781600162002250565b813362000d748282620019c3565b838362000d82828262001a46565b60008681526011602090815260408083208884529091528120805434929062000dad90849062003a13565b9091555050505050505050565b3360009081526010602052604080822090516326162dc360e01b8152600481019190915273__ItemsLibrary__________________________906326162dc39060240160206040518083038186803b15801562000e1657600080fd5b505af415801562000e2b573d6000803e3d6000fd5b505050506040513d601f19601f8201168201806040525081019062000e51919062003432565b905062000a97338262001fc3565b873362000e6d8282620019c3565b86831462000ed15760405162461bcd60e51b815260206004820152602a60248201527f50726f766964656420617272617920646f206e6f7420686176652074686520736044820152690c2daca40d8cadccee8d60b31b606482015260840162000915565b60005b8781101562000fe75773__ItemsLibrary__________________________6338335327601060008c8c8681811062000f105762000f1062003acf565b905060200201602081019062000f27919062003120565b6001600160a01b03166001600160a01b0316815260200190815260200160002089898581811062000f5c5762000f5c62003acf565b9050602002013588888681811062000f785762000f7862003acf565b905060200201356040518463ffffffff1660e01b815260040162000f9f9392919062003878565b60006040518083038186803b15801562000fb857600080fd5b505af415801562000fcd573d6000803e3d6000fd5b50505050808062000fde9062003a85565b91505062000ed4565b505050600097885250506011602090815260408088209688529590525050509082209190915550565b60606001800180548060200260200160405190810160405280929190818152602001828054801562000ba957602002820191906000526020600020905b81546001600160a01b031681526001909101906020018083116200104d575050505050905090565b62000ab2600062002051565b6000866001600160a01b038116620010e85760405162461bcd60e51b8152602060048201526024808201527f4e4654204d61726b6574206f776e65722063616e6e6f742062652061646472656044820152630737320360e41b606482015260840162000915565b848473__Library_______________________________63bdbff48783836040518363ffffffff1660e01b8152600401620011259291906200398b565b60006040518083038186803b1580156200113e57600080fd5b505af415801562001153573d6000803e3d6000fd5b505050506000600a60009054906101000a90046001600160a01b03166001600160a01b031663e220ad956040518163ffffffff1660e01b815260040160006040518083038186803b158015620011a857600080fd5b505afa158015620011bd573d6000803e3d6000fd5b505050506040513d6000823e601f3d908101601f19168201604052620011e79190810190620031f1565b600281518110620011fc57620011fc62003acf565b60200260200101516001600160a01b031663b049473f6040518163ffffffff1660e01b815260040160006040518083038186803b1580156200123d57600080fd5b505afa15801562001252573d6000803e3d6000fd5b505050506040513d6000823e601f3d908101601f191682016040526200127c919081019062003344565b9050600081818151811062001295576200129562003acf565b6020026020010151905060008260016008811115620012b857620012b862003ab9565b81518110620012cb57620012cb62003acf565b602002602001015190508082620012e3919062003a13565b341015620013315760405162461bcd60e51b815260206004820152601a60248201527909ccaee4092e6e6eacae4408ccacae640dcdee840cadcdeeaced60331b604482015260640162000915565b73__ItemsLibrary__________________________632ac0cb2383600a60009054906101000a90046001600160a01b03166001600160a01b031663e220ad956040518163ffffffff1660e01b815260040160006040518083038186803b1580156200139b57600080fd5b505afa158015620013b0573d6000803e3d6000fd5b505050506040513d6000823e601f3d908101601f19168201604052620013da9190810190620031f1565b600281518110620013ef57620013ef62003acf565b60200260200101516040518363ffffffff1660e01b81526004016200141692919062003974565b60006040518083038186803b1580156200142f57600080fd5b505af415801562001444573d6000803e3d6000fd5b5050505073__ItemsLibrary__________________________632ac0cb23833462001470919062003a2e565b600a60009054906101000a90046001600160a01b03166001600160a01b031663e220ad956040518163ffffffff1660e01b815260040160006040518083038186803b158015620014bf57600080fd5b505afa158015620014d4573d6000803e3d6000fd5b505050506040513d6000823e601f3d908101601f19168201604052620014fe9190810190620031f1565b60058151811062001513576200151362003acf565b60200260200101516040518363ffffffff1660e01b81526004016200153a92919062003974565b60006040518083038186803b1580156200155357600080fd5b505af415801562001568573d6000803e3d6000fd5b505050508c600d6000600f54815260200190815260200160002060000160000160006101000a8154816001600160a01b0302191690836001600160a01b031602179055508b600d6000600f5481526020019081526020016000206000016001019080519060200190620015dd92919062002e72565b50600f546000908152600d602090815260409091208c5162001608926002909201918e019062002e72565b50600f80546000908152600d60205260408082206003018d9055825482528082206004018c90559154815220600501805489919060ff19166001838181111562001656576200165662003ab9565b0217905550600e80549050600d6000600f54815260200190815260200160002060060181905550600e600f549080600181540180825580915050600190039060005260206000200160009091909190915055600f547f88d341cdb636e2cf41b99330be584ef11888487c9b2aef53410ed90fb2c487ad8e8e8e604051620016e09392919062003746565b60405180910390a2600f8054906000620016fa8362003a85565b91905055506001600f5462001710919062003a2e565b9d9c50505050505050505050505050565b33600162001730828262001ae8565b60006200173d8162002704565b60025484906200174e828262001ac5565b6001866200175d828262001ac5565b60068890556200176e600162002051565b5050505050505050565b62000a9781600062002250565b6060600c80548060200260200160405190810160405280929190818152602001828054801562000ba9576020028201919060005260206000209081548152602001906001019080831162000b94575050505050905090565b6001600160a01b038116600090815260106020526040908190209051633833532760e01b815273__ItemsLibrary__________________________91633833532791620018339190349060019060040162003878565b60006040518083038186803b1580156200184c57600080fd5b505af415801562000a83573d6000803e3d6000fd5b81336200186f8282620019c3565b6001600160a01b03831660009081526010602052604080822090516326162dc360e01b8152600481019190915273__ItemsLibrary__________________________906326162dc39060240160206040518083038186803b158015620018d457600080fd5b505af4158015620018e9573d6000803e3d6000fd5b505050506040513d601f19601f820116820180604052508101906200190f919062003432565b905062000a83848262001fc3565b6001600160a01b03811660009081526010602052604080822090516326162dc360e01b8152600481019190915273__ItemsLibrary__________________________906326162dc39060240160206040518083038186803b1580156200198257600080fd5b505af415801562001997573d6000803e3d6000fd5b505050506040513d601f19601f82011682018060405250810190620019bd919062003432565b92915050565b6000828152600b60205260409020546001600160a01b0382811691161462001a425760405162461bcd60e51b815260206004820152602b60248201527f546865204d61726b657420496420616e64204164647265737320646f206e6f7460448201526a0818dbdc9c995cdc1bdb9960aa1b606482015260840162000915565b5050565b60008281526011602090815260408083208484529091529020541562001a425760405162461bcd60e51b815260206004820152602d60248201527f556e61737369676e65642063726564697420666f72207468697320746f6b656e60448201526c206973206e6f7420656d70747960981b606482015260840162000915565b8082111562001a425760405162461bcd60e51b81526004016200091590620037e5565b6001600160a01b03821660009081526001602052604090205460ff165b15158115151462001a425760405162461bcd60e51b815260040162000915906020808252600490820152634543392d60e01b604082015260600190565b33600162001b51828262001ae8565b83600062001b6082826200277e565b84546001808201875560008781526020812090920180546001600160a01b0319166001600160a01b038a16179055865462001b9c919062003a2e565b6001600160a01b038816600090815260016020819052604090912060020182905590915062001bcd90889062002250565b50505050505050565b33600162001be5828262001ae8565b6000848152600d602052604090205484906001600160a01b031662001c4d5760405162461bcd60e51b815260206004820152601d60248201527f5468697320697373756572206964206973206e6f742070656e64696e67000000604482015260640162000915565b60408051338152851515602082015286917f5a1a88bd27a0cf1c470b27b132493e61efc1eaf3d1b57db0ab7f73182345d047910160405180910390a26000858152600d602090815260408220600901805460018101825590835291200180546001600160a01b03191633179055831562001f47576000858152600d6020526040812060070180549162001ce08362003a85565b90915550506005546000868152600d60205260409020600701541062001f4157600c805460018181019092557fdf6966c971051c3d54ec59162606531493a51404a002842f56009d7e5cf4a8c7018690556000868152600d6020526040902080549101805462001eb5926001600160a01b0316919062001d609062003a48565b80601f016020809104026020016040519081016040528092919081815260200182805462001d8e9062003a48565b801562001ddf5780601f1062001db35761010080835404028352916020019162001ddf565b820191906000526020600020905b81548152906001019060200180831162001dc157829003601f168201915b50505060008a8152600d60205260409020600201805490925062001e04915062003a48565b80601f016020809104026020016040519081016040528092919081815260200182805462001e329062003a48565b801562001e835780601f1062001e575761010080835404028352916020019162001e83565b820191906000526020600020905b81548152906001019060200180831162001e6557829003601f168201915b50505060008b8152600d60205260409020600381015460048201546005909201549093509091508b9060ff166200279b565b6000868152600b6020526040902080546001600160a01b0319166001600160a01b039290921691909117905562001eec8562002a53565b6000858152600b60205260409081902054905186917f2cedba2f59ec9c6a70e350caabb40ea15150e2bd297a517df51c1fbdbeacad399162001f38916001600160a01b03169062003630565b60405180910390a25b62000a83565b6000858152600d6020526040812060080180549162001f668362003a85565b90915550506005546000868152600d60205260409020600801541062000a835762001f918562002a53565b60405185907f403eabfde87045e1433576679912c142f6e51573d2635748e5331c62fbcfecc190600090a25050505050565b6001600160a01b038216600090815260106020526040908190209051637e9f902d60e11b815273__ItemsLibrary__________________________9163fd3f205a916200201b91908590879060019060040162003852565b60006040518083038186803b1580156200203457600080fd5b505af415801562002049573d6000803e3d6000fd5b505050505050565b33600162002060828262001ae8565b60016200206d8162002704565b336009805480602002602001604051908101604052809291908181526020018280548015620020c657602002820191906000526020600020905b81546001600160a01b03168152600190910190602001808311620020a7575b5050505050620020d7828262002ba3565b8515620020ff57600160076000828254620020f3919062003a13565b909155506200211a9050565b60016008600082825462002114919062003a13565b90915550505b600980546001810182556000919091527f6e1540171b6c0c960b71a7020d9f60077f6af931a8bbf590da0223dacf75c7af0180546001600160a01b031916331790556200204962002c6a565b600054610100900460ff16620021835760005460ff161562002187565b303b155b620021a65760405162461bcd60e51b8152600401620009159062003804565b600054610100900460ff16158015620021c9576000805461ffff19166101011790555b600a80546001600160a01b0319166001600160a01b038416179055801562001a42576000805461ff00191690555050565b6001600160a01b0381166000908152600160205260408120600201546004805490919081106200222e576200222e62003acf565b6000918252602090912001546001600160a01b03928316921691909114919050565b3360016200225f828262001ae8565b8360016200226e82826200277e565b6001600160a01b0386166000908152600160209081526040918290206005018054835181840281018401909452808452339392830182828015620022dc57602002820191906000526020600020905b81546001600160a01b03168152600190910190602001808311620022bd575b5050505050620022ed828262002ba3565b604080516001600160a01b038a1681523360208201528815158183015290517fc6f241efc3de3ce31d0e682102cc781f0605f0f90d72addfea699e4aea85dd799181900360600190a16001600160a01b038816600090815260016020818152604083206005018054928301815583529091200180546001600160a01b03191633179055861562002609576001600160a01b0388166000908152600160205260408120600301805491620023a08362003a85565b90915550506005546001600160a01b0389166000908152600160205260409020600301541062002603576004620023d78962002cb0565b15620024b0575060028054600180820183557f405787fa12a823e0f2b7631cc41b3ba8828b3321ca811111fa75cd3aa3bb5ace90910180546001600160a01b0319166001600160a01b038c169081179091556000908152602082905260409020805460ff1916821790559054600391620024519162003a2e565b6001600160a01b038a166000908152600160208190526040918290200191909155517f45bbe5ceeddcb6d0b4045349efc87a3fde966578e3970cda6f53bfc76efaf9f790620024a2908b9062003630565b60405180910390a1620025f5565b6001600160a01b03891660009081526001602081905260409182902001549051633c39c19f60e11b815273__AddressLibrary________________________90637873833e90620025099084906002906004016200398b565b60006040518083038186803b1580156200252257600080fd5b505af415801562002537573d6000803e3d6000fd5b5050600254831015915062002591905057806001600001600060018001848154811062002568576200256862003acf565b60009182526020808320909101546001600160a01b031683528201929092526040019020600101555b6001600160a01b038a166000908152600160208190526040808320805460ff1916815590910191909155517f82bcab3b042f3e2143a9d33d07fa130afdf763f17a45679670f0e39f12064ca890620025eb908c9062003630565b60405180910390a1505b62002601898262002ce4565b505b6200176e565b6001600160a01b0388166000908152600160205260408120600401805491620026328362003a85565b90915550506005546001600160a01b038916600090815260016020526040902060040154106200176e576004620026698962002cb0565b15620026b357506040516003907f622a69297177c029df8c1ba7f4d2d59881089b571ae96800e634aff50d67492e90620026a5908b9062003630565b60405180910390a1620026ed565b7f547e31c58b802b63bc89f1109a132a291b0527c9196c97759829aeaecd3c2d3989604051620026e4919062003630565b60405180910390a15b620026f9898262002ce4565b505050505050505050565b8015620027445760065462000a975760405162461bcd60e51b8152602060048201526005602482015264454333312d60d81b604482015260640162000915565b6006541562000a975760405162461bcd60e51b8152602060048201526005602482015264454333302d60d81b604482015260640162000915565b620027898262002cb0565b8062001b05575062001b0582620021fa565b600080600a60009054906101000a90046001600160a01b03166001600160a01b031663efd621de6040518163ffffffff1660e01b815260040160006040518083038186803b158015620027ed57600080fd5b505afa15801562002802573d6000803e3d6000fd5b505050506040513d6000823e601f3d908101601f191682016040526200282c9190810190620031f1565b60008151811062002841576200284162003acf565b602002602001015190506000600a60009054906101000a90046001600160a01b03166001600160a01b031663e220ad956040518163ffffffff1660e01b815260040160006040518083038186803b1580156200289c57600080fd5b505afa158015620028b1573d6000803e3d6000fd5b505050506040513d6000823e601f3d908101601f19168201604052620028db9190810190620031f1565b600281518110620028f057620028f062003acf565b60200260200101516001600160a01b031663b049473f6040518163ffffffff1660e01b815260040160006040518083038186803b1580156200293157600080fd5b505afa15801562002946573d6000803e3d6000fd5b505050506040513d6000823e601f3d908101601f1916820160405262002970919081019062003344565b60088151811062002985576200298562003acf565b6020908102919091010151600a549091506000906001600160a01b03168b8b8b858c8c8c8c6001811115620029be57620029be62003ab9565b604051602401620029d89998979695949392919062003644565b60408051601f198184030181529181526020820180516001600160e01b03166398a7541d60e01b179052519091506000908490839062002a189062002f01565b62002a2592919062003718565b604051809103906000f08015801562002a42573d6000803e3d6000fd5b509c9b505050505050505050505050565b6000818152600d60205260409081902060060154905163cffd93cd60e01b815273__UintLibrary___________________________9063cffd93cd9062002aa2908490600e906004016200398b565b60006040518083038186803b15801562002abb57600080fd5b505af415801562002ad0573d6000803e3d6000fd5b5050505080600e80549050111562002b1e5780600d6000600e848154811062002afd5762002afd62003acf565b90600052602060002001548152602001908152602001600020600601819055505b6000828152600d6020526040812080546001600160a01b03191681559062002b4a600183018262002f0f565b62002b5a60028301600062002f0f565b50600060038201819055600482018190556005909101805460ff19169055828152600d60205260408120600781018290556008810182905562001a429160099091019062002f4e565b60405163f7cf62d760e01b815273__AddressLibrary________________________9063f7cf62d79062002bde9085908590600401620036ba565b60206040518083038186803b15801562002bf757600080fd5b505af415801562002c0c573d6000803e3d6000fd5b505050506040513d601f19601f8201168201806040525081019062002c329190620033f8565b1562001a425760405162461bcd60e51b815260040162000915906020808252600490820152634543352d60e01b604082015260600190565b62002c7a60075460055462002dff565b1562002c905760065460055562000ab262002e1c565b62002ca060085460055462002dff565b1562000ab25762000ab262002e1c565b6001600160a01b0381166000908152600160205260408120600201546003805490919081106200222e576200222e62003acf565b6001600160a01b03821660009081526001602052604090819020600201549051633c39c19f60e11b815273__AddressLibrary________________________90637873833e9062002d3c90849086906004016200398b565b60006040518083038186803b15801562002d5557600080fd5b505af415801562002d6a573d6000803e3d6000fd5b50505050808280549050111562002dc157806001600001600084848154811062002d985762002d9862003acf565b60009182526020808320909101546001600160a01b031683528201929092526040019020600201555b6001600160a01b038316600090815260016020526040812060028101829055600381018290556004810182905562000a429160059091019062002f4e565b60008183101562002e1357506000620019bd565b50600192915050565b600060068190556007819055600881905562000ab29060099062002f4e565b6040518060a0016040528062002e5062002f6e565b8152602001600081526020016000815260200160008152602001606081525090565b82805462002e809062003a48565b90600052602060002090601f01602090048101928262002ea4576000855562002eef565b82601f1062002ebf57805160ff191683800117855562002eef565b8280016001018555821562002eef579182015b8281111562002eef57825182559160200191906001019062002ed2565b5062002efd92915062002fc0565b5090565b6109938062003b2183390190565b50805462002f1d9062003a48565b6000825580601f1062002f2e575050565b601f01602090049060005260206000209081019062000a97919062002fc0565b508054600082559060005260206000209081019062000a97919062002fc0565b6040518060c0016040528060006001600160a01b03168152602001606081526020016060815260200160008152602001600081526020016000600181111562002fbb5762002fbb62003ab9565b905290565b5b8082111562002efd576000815560010162002fc1565b60008083601f84011262002fea57600080fd5b5081356001600160401b038111156200300257600080fd5b6020830191508360208260051b85010111156200301e57600080fd5b9250929050565b600082601f8301126200303757600080fd5b81356020620030506200304a83620039ed565b620039ba565b80838252828201915082860187848660051b89010111156200307157600080fd5b60005b858110156200309d5781356200308a8162003afb565b8452928401929084019060010162003074565b5090979650505050505050565b600082601f830112620030bc57600080fd5b81356001600160401b03811115620030d857620030d862003ae5565b620030ed601f8201601f1916602001620039ba565b8181528460208386010111156200310357600080fd5b816020850160208301376000918101602001919091529392505050565b6000602082840312156200313357600080fd5b8135620031408162003afb565b9392505050565b60008060008060008060c087890312156200316157600080fd5b86356200316e8162003afb565b955060208701356001600160401b03808211156200318b57600080fd5b620031998a838b01620030aa565b96506040890135915080821115620031b057600080fd5b50620031bf89828a01620030aa565b945050606087013592506080870135915060a087013560028110620031e357600080fd5b809150509295509295509295565b600060208083850312156200320557600080fd5b82516001600160401b038111156200321c57600080fd5b8301601f810185136200322e57600080fd5b80516200323f6200304a82620039ed565b80828252848201915084840188868560051b87010111156200326057600080fd5b600094505b83851015620032905780516200327b8162003afb565b83526001949094019391850191850162003265565b50979650505050505050565b60008060408385031215620032b057600080fd5b82356001600160401b03811115620032c757600080fd5b620032d58582860162003025565b95602094909401359450505050565b600080600060608486031215620032fa57600080fd5b83356001600160401b038111156200331157600080fd5b6200331f8682870162003025565b935050602084013591506040840135620033398162003afb565b809150509250925092565b600060208083850312156200335857600080fd5b82516001600160401b038111156200336f57600080fd5b8301601f810185136200338157600080fd5b8051620033926200304a82620039ed565b80828252848201915084840188868560051b8701011115620033b357600080fd5b600094505b8385101562003290578051835260019490940193918501918501620033b8565b600060208284031215620033eb57600080fd5b8135620031408162003b11565b6000602082840312156200340b57600080fd5b8151620031408162003b11565b6000602082840312156200342b57600080fd5b5035919050565b6000602082840312156200344557600080fd5b5051919050565b600080604083850312156200346057600080fd5b823591506020830135620034748162003afb565b809150509250929050565b600080604083850312156200349357600080fd5b50508035926020909101359150565b60008060008060808587031215620034b957600080fd5b84359350602085013592506040850135620034d48162003afb565b9396929550929360600135925050565b60008060008060008060008060a0898b0312156200350157600080fd5b883597506020890135965060408901356001600160401b03808211156200352757600080fd5b620035358c838d0162002fd7565b909850965060608b01359150808211156200354f57600080fd5b6200355d8c838d0162002fd7565b909650945060808b01359150808211156200357757600080fd5b50620035868b828c0162002fd7565b999c989b5096995094979396929594505050565b600081518084526020808501945080840160005b83811015620035d55781516001600160a01b031687529582019590820190600101620035ae565b509495945050505050565b6000815180845260005b818110156200360857602081850181015186830182015201620035ea565b818111156200361b576000602083870101525b50601f01601f19169290920160200192915050565b6001600160a01b0391909116815260200190565b6001600160a01b038a811682528916602082015261012060408201819052600090620036738382018b620035e0565b9050828103606084015262003689818a620035e0565b6080840198909852505060a081019490945260c084019290925260e083015260ff1661010090910152949350505050565b6001600160a01b038381168252604060208084018290528451918401829052600092858201929091906060860190855b818110156200370a578551851683529483019491830191600101620036ea565b509098975050505050505050565b6001600160a01b03831681526040602082018190526000906200373e90830184620035e0565b949350505050565b6001600160a01b03841681526060602082018190526000906200376c90830185620035e0565b8281036040840152620037808185620035e0565b9695505050505050565b6020815260006200314060208301846200359a565b6020808252825182820181905260009190848201906040850190845b81811015620037d957835183529284019291840191600101620037bb565b50909695505050505050565b602080825260059082015264454331392d60d81b604082015260600190565b6020808252602e908201527f496e697469616c697a61626c653a20636f6e747261637420697320616c72656160408201526d191e481a5b9a5d1a585b1a5e995960921b606082015260800190565b93845260208401929092526001600160a01b031660408301521515606082015260800190565b9283526020830191909152604082015260600190565b602081526000825160a0602084015260018060a01b0381511660c0840152602081015160c060e0850152620038c8610180850182620035e0565b9050604082015160bf1985830301610100860152620038e88282620035e0565b9150506060820151610120850152608082015161014085015260a08201519150600282106200392757634e487b7160e01b600052602160045260246000fd5b8161016085015260208501516040850152604085015160608501526060850151608085015260808501519150601f198482030160a08501526200396b81836200359a565b95945050505050565b9182526001600160a01b0316602082015260400190565b918252602082015260400190565b8381528260208201526060604082015260006200396b60608301846200359a565b604051601f8201601f191681016001600160401b0381118282101715620039e557620039e562003ae5565b604052919050565b60006001600160401b0382111562003a095762003a0962003ae5565b5060051b60200190565b6000821982111562003a295762003a2962003aa3565b500190565b60008282101562003a435762003a4362003aa3565b500390565b600181811c9082168062003a5d57607f821691505b6020821081141562003a7f57634e487b7160e01b600052602260045260246000fd5b50919050565b600060001982141562003a9c5762003a9c62003aa3565b5060010190565b634e487b7160e01b600052601160045260246000fd5b634e487b7160e01b600052602160045260246000fd5b634e487b7160e01b600052603260045260246000fd5b634e487b7160e01b600052604160045260246000fd5b6001600160a01b038116811462000a9757600080fd5b801515811462000a9757600080fdfe608060405260405161099338038061099383398101604081905261002291610470565b61004d60017fa3f0ad74e5423aebfd80d3ef4346578335a9a72aeaee59ff6cb3582b35133d5161057f565b60008051602061094c83398151915214610069576100696105d0565b6100758282600061007c565b50506105fc565b61008583610156565b6040516001600160a01b038416907f1cf3b03a6cf19fa2baba4df148e9dcabedea7f8a5c07840e207e5c089be95d3e90600090a26000825111806100c65750805b156101515761014f836001600160a01b0316635c60da1b6040518163ffffffff1660e01b815260040160206040518083038186803b15801561010757600080fd5b505afa15801561011b573d6000803e3d6000fd5b505050506040513d601f19601f8201168201806040525081019061013f9190610455565b836102f660201b6100291760201c565b505b505050565b6101698161032260201b6100551760201c565b6101c85760405162461bcd60e51b815260206004820152602560248201527f455243313936373a206e657720626561636f6e206973206e6f74206120636f6e6044820152641d1c9858dd60da1b60648201526084015b60405180910390fd5b61024b816001600160a01b0316635c60da1b6040518163ffffffff1660e01b815260040160206040518083038186803b15801561020457600080fd5b505afa158015610218573d6000803e3d6000fd5b505050506040513d601f19601f8201168201806040525081019061023c9190610455565b61032260201b6100551760201c565b6102b05760405162461bcd60e51b815260206004820152603060248201527f455243313936373a20626561636f6e20696d706c656d656e746174696f6e206960448201526f1cc81b9bdd08184818dbdb9d1c9858dd60821b60648201526084016101bf565b806102d560008051602061094c83398151915260001b61032860201b61005b1760201c565b80546001600160a01b0319166001600160a01b039290921691909117905550565b606061031b838360405180606001604052806027815260200161096c6027913961032b565b9392505050565b3b151590565b90565b6060833b61038a5760405162461bcd60e51b815260206004820152602660248201527f416464726573733a2064656c65676174652063616c6c20746f206e6f6e2d636f6044820152651b9d1c9858dd60d21b60648201526084016101bf565b600080856001600160a01b0316856040516103a59190610530565b600060405180830381855af49150503d80600081146103e0576040519150601f19603f3d011682016040523d82523d6000602084013e6103e5565b606091505b5090925090506103f6828286610400565b9695505050505050565b6060831561040f57508161031b565b82511561041f5782518084602001fd5b8160405162461bcd60e51b81526004016101bf919061054c565b80516001600160a01b038116811461045057600080fd5b919050565b60006020828403121561046757600080fd5b61031b82610439565b6000806040838503121561048357600080fd5b61048c83610439565b60208401519092506001600160401b03808211156104a957600080fd5b818501915085601f8301126104bd57600080fd5b8151818111156104cf576104cf6105e6565b604051601f8201601f19908116603f011681019083821181831017156104f7576104f76105e6565b8160405282815288602084870101111561051057600080fd5b6105218360208301602088016105a4565b80955050505050509250929050565b600082516105428184602087016105a4565b9190910192915050565b602081526000825180602084015261056b8160408501602087016105a4565b601f01601f19169190910160400192915050565b60008282101561059f57634e487b7160e01b600052601160045260246000fd5b500390565b60005b838110156105bf5781810151838201526020016105a7565b8381111561014f5750506000910152565b634e487b7160e01b600052600160045260246000fd5b634e487b7160e01b600052604160045260246000fd5b6103418061060b6000396000f3fe60806040523661001357610011610017565b005b6100115b61002761002261005e565b610106565b565b606061004e83836040518060600160405280602781526020016102e56027913961012a565b9392505050565b3b151590565b90565b60006100917fa3f0ad74e5423aebfd80d3ef4346578335a9a72aeaee59ff6cb3582b35133d50546001600160a01b031690565b6001600160a01b0316635c60da1b6040518163ffffffff1660e01b815260040160206040518083038186803b1580156100c957600080fd5b505afa1580156100dd573d6000803e3d6000fd5b505050506040513d601f19601f82011682018060405250810190610101919061023c565b905090565b3660008037600080366000845af43d6000803e808015610125573d6000f35b3d6000fd5b6060833b61018e5760405162461bcd60e51b815260206004820152602660248201527f416464726573733a2064656c65676174652063616c6c20746f206e6f6e2d636f6044820152651b9d1c9858dd60d21b60648201526084015b60405180910390fd5b600080856001600160a01b0316856040516101a99190610265565b600060405180830381855af49150503d80600081146101e4576040519150601f19603f3d011682016040523d82523d6000602084013e6101e9565b606091505b50915091506101f9828286610203565b9695505050505050565b6060831561021257508161004e565b8251156102225782518084602001fd5b8160405162461bcd60e51b81526004016101859190610281565b60006020828403121561024e57600080fd5b81516001600160a01b038116811461004e57600080fd5b600082516102778184602087016102b4565b9190910192915050565b60208152600082518060208401526102a08160408501602087016102b4565b601f01601f19169190910160400192915050565b60005b838110156102cf5781810151838201526020016102b7565b838111156102de576000848401525b5050505056fe416464726573733a206c6f772d6c6576656c2064656c65676174652063616c6c206661696c6564a2646970667358221220148d20618ce0e4acd0b179dccf12503163fb589ddd8df806d6d9c09a8f4adc1064736f6c63430008070033a3f0ad74e5423aebfd80d3ef4346578335a9a72aeaee59ff6cb3582b35133d50416464726573733a206c6f772d6c6576656c2064656c65676174652063616c6c206661696c6564a2646970667358221220a993a1db12f2028b3afdb2f72f46070c13f8f2aca932fd8d2fb66d395ffc797e64736f6c63430008070033",
  "immutableReferences": {},
  "source": "// SPDX-License-Identifier: GPL-3.0\r\n\r\npragma solidity 0.8.7;\r\n\r\n/**\r\n Certis Token is an ERC20 Token that grants its holder the right to:\r\n   - Vote on all the systems propositions (changing system configuraiton etc...)\r\n   - Receive Dividends for all the payments forwarded to the Treasury contract\r\n\r\nBefore every token transfer we contact the token gouvernance Base contracts so that the can update the tokens used for voting if needed\r\n\r\n */\r\n\r\nimport \"@openzeppelin/contracts-upgradeable/proxy/utils/Initializable.sol\";\r\nimport \"../Interfaces/IPool.sol\";\r\nimport \"../Interfaces/ITreasury.sol\";\r\nimport \"../Base/ManagedBaseContract.sol\";\r\nimport \"../Base/MultiSigContract.sol\";\r\nimport \"../Libraries/ItemsLibrary.sol\";\r\nimport \"../Libraries/UintLibrary.sol\";\r\nimport \"@openzeppelin/contracts/proxy/beacon/BeaconProxy.sol\";\r\n\r\n\r\n\r\n contract PublicPool is  Initializable, MultiSigContract, ManagedBaseContract, IPool {\r\n  using ItemsLibrary for *;\r\n  using UintLibrary for *;\r\n\r\n  // EVENTS /////////////////////////////////////////\r\n  event _NewIssuerRequest(uint256 indexed id, address owner, string name, string symbol);\r\n\r\n  event _VoteForIssuer(uint256 indexed id, address voter, bool vote);\r\n  event _IssuerValidation(uint256 indexed id, address NFTMarket);\r\n  event _IssuerRejection(uint256 indexed id);\r\n\r\n  // DATA /////////////////////////////////////////\r\n  mapping(uint256 => address) private _issuers;\r\n  uint256[] private _listOfIssuers;\r\n\r\n  mapping(uint256 => _pendingIssuerStruct) private _pendingIssuers;\r\n  uint256[] private _listOfPendingIssuers;\r\n\r\n  uint256 private nextIssuerId;\r\n\r\n  mapping(address => ItemsLibrary._BalanceStruct) private _creditOfAccount;\r\n  mapping(uint256 => mapping(uint256 => uint256)) private _unassignedCreditForMarket;\r\n\r\n\r\n\r\n  // MODIFIERS /////////////////////////////////////////\r\n  modifier validOwner(address owner){\r\n      require(address(0) != owner, \"NFT Market owner cannot be address 0\");\r\n      _;\r\n  }\r\n\r\n  modifier IssuerPending(uint256 id){\r\n      require(address(0) != _pendingIssuers[id]._issuer._owner, \"This issuer id is not pending\");\r\n      _;\r\n  }\r\n\r\n  modifier validFees(uint256 fee, uint256 decimals){\r\n      Library.validFees(fee, decimals);\r\n      _;\r\n  }\r\n\r\n  modifier isNFTMarket(uint256 MarketId, address MarketAddress){\r\n      isNFTMarketFunc(MarketId, MarketAddress);\r\n      _;\r\n  }\r\n\r\n  function isNFTMarketFunc(uint256 MarketId, address MarketAddress) internal view{\r\n    require(MarketAddress == _issuers[MarketId], \"The Market Id and Address do not correspond\");\r\n  }\r\n\r\n  modifier isTokenUnassignedCreditEmpty(uint256 NFTMarketId, uint256 tokenID){\r\n    isTokenUnassignedCreditEmptyFunc(NFTMarketId, tokenID);\r\n    _;\r\n  }\r\n\r\n  function isTokenUnassignedCreditEmptyFunc(uint256 NFTMarketId, uint256 tokenID) internal view{\r\n    require(0 == _unassignedCreditForMarket[NFTMarketId][tokenID], \"Unassigned credit for this token is not empty\");\r\n  }\r\n\r\n  // CONSTRUCTOR /////////////////////////////////////////\r\n  function PublicPool_init(address[] memory owners,  uint256 minOwners, address managerContractAddress) public initializer {\r\n      super.MultiSigContract_init(owners, minOwners); \r\n      super.ManagedBaseContract_init(managerContractAddress); \r\n\r\n      nextIssuerId = 0;\r\n  }\r\n\r\n  // FUNCTIONALITY /////////////////////////////////////////\r\n  function requestIssuer(address owner, string memory name, string memory symbol, uint256 feeAmount, uint256 feeDecimals, Library.PaymentPlans paymentPlan) external override payable\r\n    validOwner(owner)\r\n    validFees(feeAmount, feeDecimals)\r\n  returns (uint256)\r\n  {\r\n\r\n    uint[] memory Prices = ITreasury(_managerContract.retrieveTransparentProxies()[uint256(Library.TransparentProxies.Treasury)]).retrieveSettings();\r\n    uint256 NewIssuerFee = Prices[uint256(Library.Prices.NewIssuerFee)];\r\n    uint256 AdminNewIssuerFee = Prices[uint256(Library.Prices.AdminNewIssuerFee)];\r\n    require(msg.value >= NewIssuerFee + AdminNewIssuerFee, \"New Issuer Fees not enough\");\r\n\r\n    ItemsLibrary.TransferEtherTo(NewIssuerFee, _managerContract.retrieveTransparentProxies()[uint256(Library.TransparentProxies.Treasury)]);\r\n    ItemsLibrary.TransferEtherTo(msg.value - NewIssuerFee, _managerContract.retrieveTransparentProxies()[uint256(Library.TransparentProxies.AdminPiggyBank)]);\r\n\r\n    _pendingIssuers[nextIssuerId]._issuer._owner = owner;\r\n    _pendingIssuers[nextIssuerId]._issuer._name = name;\r\n    _pendingIssuers[nextIssuerId]._issuer._symbol = symbol;\r\n    _pendingIssuers[nextIssuerId]._issuer._feeAmount = feeAmount;\r\n    _pendingIssuers[nextIssuerId]._issuer._feeDecimals = feeDecimals;\r\n    _pendingIssuers[nextIssuerId]._issuer._paymentPlan = paymentPlan;\r\n    _pendingIssuers[nextIssuerId]._pendingId = _listOfPendingIssuers.length;\r\n    _listOfPendingIssuers.push(nextIssuerId);\r\n\r\n    emit _NewIssuerRequest(nextIssuerId, owner, name, symbol);\r\n\r\n    nextIssuerId++;\r\n    return(nextIssuerId - 1);\r\n  }\r\n\r\n  function validateIssuer(uint256 id) external override\r\n  {\r\n    voteForIssuer(id, true);\r\n  }\r\n\r\n  function rejectIssuer(uint id) external override\r\n  {\r\n    voteForIssuer(id, false);\r\n  }\r\n\r\n  function voteForIssuer(uint id, bool vote) internal\r\n    isAnOwner(msg.sender, true)\r\n    IssuerPending(id)\r\n  {\r\n    emit _VoteForIssuer(id, msg.sender, vote);\r\n\r\n    _pendingIssuers[id]._voters.push(msg.sender);\r\n        \r\n    if(vote){\r\n        _pendingIssuers[id]._validations++;\r\n\r\n        if(_pendingIssuers[id]._validations >= _minOwners){\r\n            _listOfIssuers.push(id);\r\n            _issuers[id] = GenerateNewNFTMarket(_pendingIssuers[id]._issuer._owner, _pendingIssuers[id]._issuer._name, _pendingIssuers[id]._issuer._symbol, _pendingIssuers[id]._issuer._feeAmount, _pendingIssuers[id]._issuer._feeDecimals, id, _pendingIssuers[id]._issuer._paymentPlan);\r\n            deletingPendingIssuer(id);\r\n            emit _IssuerValidation(id, _issuers[id]);\r\n        }\r\n    }\r\n    else{\r\n        _pendingIssuers[id]._rejections++;\r\n\r\n        if(_pendingIssuers[id]._rejections >= _minOwners){\r\n            deletingPendingIssuer(id);\r\n            emit _IssuerRejection(id);\r\n        }\r\n    }\r\n  }\r\n\r\n  function deletingPendingIssuer(uint256 id) internal\r\n  {\r\n    uint pos = _pendingIssuers[id]._pendingId;\r\n    UintLibrary.UintArrayRemoveResize(pos, _listOfPendingIssuers);\r\n    if(_listOfPendingIssuers.length > pos) _pendingIssuers[_listOfPendingIssuers[pos]]._pendingId = pos;\r\n\r\n    delete(_pendingIssuers[id]._issuer);\r\n    delete(_pendingIssuers[id]._validations);\r\n    delete(_pendingIssuers[id]._rejections);\r\n    delete(_pendingIssuers[id]._voters);\r\n  }\r\n\r\n  function GenerateNewNFTMarket(address owner, string memory name, string memory symbol, uint256 feeAmount, uint256 feeDecimals, uint256 id, Library.PaymentPlans paymentPlan) internal returns(address)\r\n  {\r\n    address beaconAddress = _managerContract.retrieveBeacons()[uint256(Library.Beacons.NFT)];\r\n    uint256 OffersLifeTime = ITreasury(_managerContract.retrieveTransparentProxies()[uint256(Library.TransparentProxies.Treasury)]).retrieveSettings()[uint256(Library.Prices.OffersLifeTime)];\r\n    bytes memory data = abi.encodeWithSignature(\"NFTMarket_init(address,address,string,string,uint256,uint256,uint256,uint256,uint8)\", address(_managerContract), owner, name, symbol, OffersLifeTime, feeAmount, feeDecimals, id, uint8(paymentPlan));\r\n\r\n    BeaconProxy beaconProxy = new BeaconProxy(beaconAddress, data);\r\n\r\n    return address(beaconProxy);\r\n  }\r\n\r\n  function retrieveIssuers() external override view returns (uint[] memory)\r\n  {\r\n    return _listOfIssuers;\r\n  }\r\n\r\n  function retrieveNFTMarketForIssuer(uint id) external override view returns (address)\r\n  {\r\n    return _issuers[id];\r\n  }\r\n\r\n  function retrievePendingIssuers() external override view returns (uint[] memory)\r\n  {\r\n    return _listOfPendingIssuers;\r\n  }\r\n\r\n  function retrievePendingIssuer(uint id) external override view returns (_pendingIssuerStruct memory)\r\n  {\r\n    return _pendingIssuers[id];\r\n  }\r\n\r\n  function sendCredit(address addr) external override payable\r\n  {\r\n    ItemsLibrary.addBalance(_creditOfAccount[addr], msg.value, 1);\r\n  }\r\n\r\n  function transferUnassignedCredit(uint256 NFTMarketId, uint256 tokenID) external override payable\r\n    isNFTMarket(NFTMarketId, msg.sender)\r\n    isTokenUnassignedCreditEmpty(NFTMarketId, tokenID)\r\n  {\r\n    _unassignedCreditForMarket[NFTMarketId][tokenID] += msg.value;\r\n  }\r\n\r\n  function addCredit(uint256 NFTMarketId, uint256 tokenID, address[] calldata addrs, uint256[] calldata amounts, uint256[] calldata factors) external override\r\n    isNFTMarket(NFTMarketId, msg.sender)\r\n  {\r\n    require(addrs.length == factors.length, \"Provided array do not have the same length\");\r\n    for(uint i=0; i < addrs.length; i++){\r\n      ItemsLibrary.addBalance(_creditOfAccount[addrs[i]], amounts[i], factors[i]);\r\n    }\r\n    delete(_unassignedCreditForMarket[NFTMarketId][tokenID]);\r\n  }\r\n\r\n  function reuseCredit(uint256 NFTMarketId, uint256 tokenID, address addr, uint256 amount) external override\r\n    isNFTMarket(NFTMarketId, msg.sender)\r\n    isTokenUnassignedCreditEmpty(NFTMarketId, tokenID)\r\n  {\r\n    ItemsLibrary.InternalWithdraw(_creditOfAccount[addr], amount, address(0), false);\r\n    _unassignedCreditForMarket[NFTMarketId][tokenID] += amount;\r\n  }\r\n\r\n  function withdraw(uint amount) external override\r\n  {\r\n    internalWithdraw(msg.sender, amount);\r\n  }\r\n  \r\n  function withdrawAll() external override\r\n  {\r\n    uint amount = ItemsLibrary.checkFullBalance(_creditOfAccount[msg.sender]);\r\n    internalWithdraw(msg.sender, amount);\r\n  }\r\n  \r\n  function withdrawAllFor(uint256 NFTMarketId, address addr) external override\r\n    isNFTMarket(NFTMarketId, msg.sender)\r\n  {\r\n    uint amount = ItemsLibrary.checkFullBalance(_creditOfAccount[addr]);\r\n    internalWithdraw(addr, amount);\r\n  }\r\n\r\n  function internalWithdraw(address addr, uint amount) internal\r\n  {\r\n    ItemsLibrary.InternalWithdraw(_creditOfAccount[addr], amount, addr, true);\r\n  }\r\n\r\n  function retrieveCredit(address addr) external override view returns (uint256)\r\n  {\r\n    return ItemsLibrary.checkFullBalance(_creditOfAccount[addr]);\r\n  }\r\n\r\n\r\n\r\n }",
  "sourcePath": "C:\\Users\\d-aam\\GitHub\\Originals\\contracts\\MainContracts\\PublicPool.sol",
  "compiler": {
    "name": "solc",
    "version": "0.8.7+commit.e28d00a7.Emscripten.clang"
  },
  "schemaVersion": "3.4.3",
  "updatedAt": "2022-01-28T14:36:22.510Z",
  "devdoc": {
    "kind": "dev",
    "methods": {},
    "version": 1
  },
  "userdoc": {
    "kind": "user",
    "methods": {},
    "version": 1
  }
}