{
  "contractName": "PublicPool",
  "abi": [
    {
      "anonymous": false,
      "inputs": [
        {
          "indexed": false,
          "internalType": "address",
          "name": "owner",
          "type": "address"
        }
      ],
      "name": "_AddOwnerRejection",
      "type": "event"
    },
    {
      "anonymous": false,
      "inputs": [
        {
          "indexed": false,
          "internalType": "address",
          "name": "owner",
          "type": "address"
        }
      ],
      "name": "_AddOwnerValidation",
      "type": "event"
    },
    {
      "anonymous": false,
      "inputs": [
        {
          "indexed": true,
          "internalType": "uint256",
          "name": "id",
          "type": "uint256"
        }
      ],
      "name": "_IssuerRejection",
      "type": "event"
    },
    {
      "anonymous": false,
      "inputs": [
        {
          "indexed": true,
          "internalType": "uint256",
          "name": "id",
          "type": "uint256"
        },
        {
          "indexed": false,
          "internalType": "address",
          "name": "NFTMarket",
          "type": "address"
        }
      ],
      "name": "_IssuerValidation",
      "type": "event"
    },
    {
      "anonymous": false,
      "inputs": [
        {
          "indexed": false,
          "internalType": "uint256",
          "name": "minOwner",
          "type": "uint256"
        }
      ],
      "name": "_MinOwnerRejection",
      "type": "event"
    },
    {
      "anonymous": false,
      "inputs": [
        {
          "indexed": false,
          "internalType": "uint256",
          "name": "minOwner",
          "type": "uint256"
        }
      ],
      "name": "_MinOwnerValidation",
      "type": "event"
    },
    {
      "anonymous": false,
      "inputs": [
        {
          "indexed": true,
          "internalType": "uint256",
          "name": "id",
          "type": "uint256"
        },
        {
          "indexed": false,
          "internalType": "address",
          "name": "owner",
          "type": "address"
        },
        {
          "indexed": false,
          "internalType": "string",
          "name": "name",
          "type": "string"
        },
        {
          "indexed": false,
          "internalType": "string",
          "name": "symbol",
          "type": "string"
        }
      ],
      "name": "_NewIssuerRequest",
      "type": "event"
    },
    {
      "anonymous": false,
      "inputs": [
        {
          "indexed": false,
          "internalType": "address",
          "name": "owner",
          "type": "address"
        }
      ],
      "name": "_RemoveOwnerRejection",
      "type": "event"
    },
    {
      "anonymous": false,
      "inputs": [
        {
          "indexed": false,
          "internalType": "address",
          "name": "owner",
          "type": "address"
        }
      ],
      "name": "_RemoveOwnerValidation",
      "type": "event"
    },
    {
      "anonymous": false,
      "inputs": [
        {
          "indexed": true,
          "internalType": "uint256",
          "name": "id",
          "type": "uint256"
        },
        {
          "indexed": false,
          "internalType": "address",
          "name": "voter",
          "type": "address"
        },
        {
          "indexed": false,
          "internalType": "bool",
          "name": "vote",
          "type": "bool"
        }
      ],
      "name": "_VoteForIssuer",
      "type": "event"
    },
    {
      "anonymous": false,
      "inputs": [
        {
          "indexed": false,
          "internalType": "uint256",
          "name": "minOwner",
          "type": "uint256"
        },
        {
          "indexed": false,
          "internalType": "address",
          "name": "voter",
          "type": "address"
        },
        {
          "indexed": false,
          "internalType": "bool",
          "name": "vote",
          "type": "bool"
        }
      ],
      "name": "_VoteForMinOwner",
      "type": "event"
    },
    {
      "anonymous": false,
      "inputs": [
        {
          "indexed": false,
          "internalType": "address",
          "name": "owner",
          "type": "address"
        },
        {
          "indexed": false,
          "internalType": "address",
          "name": "voter",
          "type": "address"
        },
        {
          "indexed": false,
          "internalType": "bool",
          "name": "vote",
          "type": "bool"
        }
      ],
      "name": "_VoteForOwner",
      "type": "event"
    },
    {
      "inputs": [
        {
          "internalType": "address[]",
          "name": "owners",
          "type": "address[]"
        },
        {
          "internalType": "uint256",
          "name": "minOwners",
          "type": "uint256"
        }
      ],
      "name": "MultiSigContract_init",
      "outputs": [],
      "stateMutability": "nonpayable",
      "type": "function"
    },
    {
      "inputs": [
        {
          "internalType": "address",
          "name": "owner",
          "type": "address"
        }
      ],
      "name": "addOwner",
      "outputs": [],
      "stateMutability": "nonpayable",
      "type": "function"
    },
    {
      "inputs": [
        {
          "internalType": "uint256",
          "name": "newMinOwners",
          "type": "uint256"
        }
      ],
      "name": "changeMinOwners",
      "outputs": [],
      "stateMutability": "nonpayable",
      "type": "function"
    },
    {
      "inputs": [],
      "name": "rejectMinOwners",
      "outputs": [],
      "stateMutability": "nonpayable",
      "type": "function"
    },
    {
      "inputs": [
        {
          "internalType": "address",
          "name": "owner",
          "type": "address"
        }
      ],
      "name": "rejectOwner",
      "outputs": [],
      "stateMutability": "nonpayable",
      "type": "function"
    },
    {
      "inputs": [
        {
          "internalType": "address",
          "name": "owner",
          "type": "address"
        }
      ],
      "name": "removeOwner",
      "outputs": [],
      "stateMutability": "nonpayable",
      "type": "function"
    },
    {
      "inputs": [],
      "name": "retrieveAllOwners",
      "outputs": [
        {
          "internalType": "address[]",
          "name": "",
          "type": "address[]"
        }
      ],
      "stateMutability": "view",
      "type": "function"
    },
    {
      "inputs": [],
      "name": "retrieveManagerContract",
      "outputs": [
        {
          "internalType": "address",
          "name": "",
          "type": "address"
        }
      ],
      "stateMutability": "view",
      "type": "function"
    },
    {
      "inputs": [],
      "name": "retrieveMinOwners",
      "outputs": [
        {
          "internalType": "uint256",
          "name": "",
          "type": "uint256"
        }
      ],
      "stateMutability": "view",
      "type": "function"
    },
    {
      "inputs": [],
      "name": "retrievePendingMinOwners",
      "outputs": [
        {
          "internalType": "uint256",
          "name": "",
          "type": "uint256"
        }
      ],
      "stateMutability": "view",
      "type": "function"
    },
    {
      "inputs": [],
      "name": "retrievePendingMinOwnersStatus",
      "outputs": [
        {
          "internalType": "uint256",
          "name": "",
          "type": "uint256"
        },
        {
          "internalType": "uint256",
          "name": "",
          "type": "uint256"
        },
        {
          "internalType": "address[]",
          "name": "",
          "type": "address[]"
        }
      ],
      "stateMutability": "view",
      "type": "function"
    },
    {
      "inputs": [
        {
          "internalType": "bool",
          "name": "addedORremove",
          "type": "bool"
        }
      ],
      "name": "retrievePendingOwners",
      "outputs": [
        {
          "internalType": "address[]",
          "name": "",
          "type": "address[]"
        }
      ],
      "stateMutability": "view",
      "type": "function"
    },
    {
      "inputs": [],
      "name": "validateMinOwners",
      "outputs": [],
      "stateMutability": "nonpayable",
      "type": "function"
    },
    {
      "inputs": [
        {
          "internalType": "address",
          "name": "owner",
          "type": "address"
        }
      ],
      "name": "validateOwner",
      "outputs": [],
      "stateMutability": "nonpayable",
      "type": "function"
    },
    {
      "inputs": [
        {
          "internalType": "address[]",
          "name": "owners",
          "type": "address[]"
        },
        {
          "internalType": "uint256",
          "name": "minOwners",
          "type": "uint256"
        },
        {
          "internalType": "address",
          "name": "managerContractAddress",
          "type": "address"
        }
      ],
      "name": "PublicPool_init",
      "outputs": [],
      "stateMutability": "nonpayable",
      "type": "function"
    },
    {
      "inputs": [
        {
          "internalType": "address",
          "name": "owner",
          "type": "address"
        },
        {
          "internalType": "string",
          "name": "name",
          "type": "string"
        },
        {
          "internalType": "string",
          "name": "symbol",
          "type": "string"
        },
        {
          "internalType": "enum Library.PaymentPlans",
          "name": "paymentPlan",
          "type": "uint8"
        }
      ],
      "name": "requestIssuer",
      "outputs": [
        {
          "internalType": "uint256",
          "name": "",
          "type": "uint256"
        }
      ],
      "stateMutability": "payable",
      "type": "function"
    },
    {
      "inputs": [
        {
          "internalType": "uint256",
          "name": "id",
          "type": "uint256"
        }
      ],
      "name": "validateIssuer",
      "outputs": [],
      "stateMutability": "nonpayable",
      "type": "function"
    },
    {
      "inputs": [
        {
          "internalType": "uint256",
          "name": "id",
          "type": "uint256"
        }
      ],
      "name": "rejectIssuer",
      "outputs": [],
      "stateMutability": "nonpayable",
      "type": "function"
    },
    {
      "inputs": [],
      "name": "retrieveIssuers",
      "outputs": [
        {
          "internalType": "uint256[]",
          "name": "",
          "type": "uint256[]"
        }
      ],
      "stateMutability": "view",
      "type": "function"
    },
    {
      "inputs": [
        {
          "internalType": "uint256",
          "name": "id",
          "type": "uint256"
        }
      ],
      "name": "retrieveNFTMarketForIssuer",
      "outputs": [
        {
          "internalType": "address",
          "name": "",
          "type": "address"
        }
      ],
      "stateMutability": "view",
      "type": "function"
    },
    {
      "inputs": [],
      "name": "retrievePendingIssuers",
      "outputs": [
        {
          "internalType": "uint256[]",
          "name": "",
          "type": "uint256[]"
        }
      ],
      "stateMutability": "view",
      "type": "function"
    },
    {
      "inputs": [
        {
          "internalType": "uint256",
          "name": "id",
          "type": "uint256"
        }
      ],
      "name": "retrievePendingIssuer",
      "outputs": [
        {
          "components": [
            {
              "components": [
                {
                  "internalType": "address",
                  "name": "_owner",
                  "type": "address"
                },
                {
                  "internalType": "string",
                  "name": "_name",
                  "type": "string"
                },
                {
                  "internalType": "string",
                  "name": "_symbol",
                  "type": "string"
                },
                {
                  "internalType": "enum Library.PaymentPlans",
                  "name": "_paymentPlan",
                  "type": "uint8"
                }
              ],
              "internalType": "struct ItemsLibrary._issuerStruct",
              "name": "_issuer",
              "type": "tuple"
            },
            {
              "internalType": "uint256",
              "name": "_pendingId",
              "type": "uint256"
            },
            {
              "internalType": "uint256",
              "name": "_validations",
              "type": "uint256"
            },
            {
              "internalType": "uint256",
              "name": "_rejections",
              "type": "uint256"
            },
            {
              "internalType": "address[]",
              "name": "_voters",
              "type": "address[]"
            }
          ],
          "internalType": "struct ItemsLibrary._pendingIssuerStruct",
          "name": "",
          "type": "tuple"
        }
      ],
      "stateMutability": "view",
      "type": "function"
    }
  ],
  "bytecode": "0x608060405234801561001057600080fd5b506158ce806100206000396000f3fe608060405260043610620001525760003560e01c80635b362e8411620000bb5780639fc4440911620000795780639fc444091462000471578063a93d5ed614620004a7578063c3079ae714620004d7578063c66433ea14620004f1578063ce33d58a146200051f578063d0e13918146200054d5762000152565b80635b362e84146200037157806365b973e514620003a15780636b29960414620003d15780637065cb48146200041557806376f8f90f14620004435762000152565b80632edbe7fc11620001155780632edbe7fc146200026957806330ade922146200029957806334f2920714620002b3578063430c37cb14620002e1578063538b6aad146200030f5780635888ebb3146200033f5762000152565b806303231e5d1462000157578063094a0ed2146200019b5780630bee185e14620001df578063173825d9146200020d578063280931e7146200023b575b600080fd5b3480156200016457600080fd5b506200018360048036038101906200017d91906200365f565b6200057d565b60405162000192919062003c54565b60405180910390f35b348015620001a857600080fd5b50620001c76004803603810190620001c191906200365f565b620005ba565b604051620001d6919062003f6e565b60405180910390f35b348015620001ec57600080fd5b506200020b60048036038101906200020591906200351a565b62000876565b005b3480156200021a57600080fd5b50620002396004803603810190620002339190620033e7565b62000aae565b005b3480156200024857600080fd5b506200026760048036038101906200026191906200365f565b62000af9565b005b3480156200027657600080fd5b506200028162000b09565b60405162000290919062003f92565b60405180910390f35b348015620002a657600080fd5b50620002b162000b13565b005b348015620002c057600080fd5b50620002df6004803603810190620002d991906200365f565b62000b21565b005b348015620002ee57600080fd5b506200030d600480360381019062000307919062003580565b62000b31565b005b3480156200031c57600080fd5b506200032762000c40565b60405162000336919062003e1d565b60405180910390f35b3480156200034c57600080fd5b506200035762000c9a565b604051620003689392919062004063565b60405180910390f35b3480156200037e57600080fd5b506200038962000d3c565b60405162000398919062003c54565b60405180910390f35b348015620003ae57600080fd5b50620003b962000d66565b604051620003c8919062003f92565b60405180910390f35b348015620003de57600080fd5b50620003fd6004803603810190620003f79190620035fb565b62000d70565b6040516200040c919062003df9565b60405180910390f35b3480156200042257600080fd5b506200044160048036038101906200043b9190620033e7565b62000ea1565b005b3480156200045057600080fd5b506200046f6004803603810190620004699190620033e7565b62000ec5565b005b6200048f600480360381019062000489919062003419565b62000f4b565b6040516200049e919062003f92565b60405180910390f35b348015620004b457600080fd5b50620004bf620012d4565b604051620004ce919062003df9565b60405180910390f35b348015620004e457600080fd5b50620004ef62001366565b005b348015620004fe57600080fd5b506200051d60048036038101906200051791906200365f565b62001374565b005b3480156200052c57600080fd5b506200054b6004803603810190620005459190620033e7565b620013d1565b005b3480156200055a57600080fd5b5062000565620013e1565b60405162000574919062003e1d565b60405180910390f35b6000600b600083815260200190815260200160002060009054906101000a900473ffffffffffffffffffffffffffffffffffffffff169050919050565b620005c462002fd2565b600d60008381526020019081526020016000206040518060a0016040529081600082016040518060800160405290816000820160009054906101000a900473ffffffffffffffffffffffffffffffffffffffff1673ffffffffffffffffffffffffffffffffffffffff1673ffffffffffffffffffffffffffffffffffffffff1681526020016001820180546200065a90620043e5565b80601f01602080910402602001604051908101604052809291908181526020018280546200068890620043e5565b8015620006d95780601f10620006ad57610100808354040283529160200191620006d9565b820191906000526020600020905b815481529060010190602001808311620006bb57829003601f168201915b50505050508152602001600282018054620006f490620043e5565b80601f01602080910402602001604051908101604052809291908181526020018280546200072290620043e5565b8015620007735780601f10620007475761010080835404028352916020019162000773565b820191906000526020600020905b8154815290600101906020018083116200075557829003601f168201915b505050505081526020016003820160009054906101000a900460ff166001811115620007a457620007a3620044ec565b5b6001811115620007b957620007b8620044ec565b5b815250508152602001600482015481526020016005820154815260200160068201548152602001600782018054806020026020016040519081016040528092919081815260200182805480156200086657602002820191906000526020600020905b8160009054906101000a900473ffffffffffffffffffffffffffffffffffffffff1673ffffffffffffffffffffffffffffffffffffffff16815260200190600101908083116200081b575b5050505050815250509050919050565b600060019054906101000a900460ff16620008a05760008054906101000a900460ff1615620008ab565b620008aa6200143b565b5b620008ed576040517f08c379a0000000000000000000000000000000000000000000000000000000008152600401620008e49062003ea2565b60405180910390fd5b60008060019054906101000a900460ff1615905080156200093e576001600060016101000a81548160ff02191690831515021790555060016000806101000a81548160ff0219169083151502179055505b8183516200094d82826200144e565b6001846200095c82826200144e565b8560058190555060005b875181101562000a825760018060000160008a84815181106200098e576200098d6200454a565b5b602002602001015173ffffffffffffffffffffffffffffffffffffffff1673ffffffffffffffffffffffffffffffffffffffff16815260200190815260200160002060000160006101000a81548160ff0219169083151502179055506001800188828151811062000a045762000a036200454a565b5b60200260200101519080600181540180825580915050600190039060005260206000200160009091909190916101000a81548173ffffffffffffffffffffffffffffffffffffffff021916908373ffffffffffffffffffffffffffffffffffffffff160217905550808062000a79906200446f565b91505062000966565b5050505050801562000aa95760008060016101000a81548160ff0219169083151502179055505b505050565b80600162000abd828262001498565b6005546001806001018054905062000ad691906200429c565b62000ae282826200144e565b62000af2856001600301620014ef565b5050505050565b62000b06816001620015e6565b50565b6000600654905090565b62000b1f600162001af1565b565b62000b2e816000620015e6565b50565b600060019054906101000a900460ff1662000b5b5760008054906101000a900460ff161562000b66565b62000b656200143b565b5b62000ba8576040517f08c379a000000000000000000000000000000000000000000000000000000000815260040162000b9f9062003ea2565b60405180910390fd5b60008060019054906101000a900460ff16159050801562000bf9576001600060016101000a81548160ff02191690831515021790555060016000806101000a81548160ff0219169083151502179055505b62000c05848462000876565b62000c108262001bdb565b6000600f81905550801562000c3a5760008060016101000a81548160ff0219169083151502179055505b50505050565b6060600e80548060200260200160405190810160405280929190818152602001828054801562000c9057602002820191906000526020600020905b81548152602001906001019080831162000c7b575b5050505050905090565b600080606060075460085460098080548060200260200160405190810160405280929190818152602001828054801562000d2a57602002820191906000526020600020905b8160009054906101000a900473ffffffffffffffffffffffffffffffffffffffff1673ffffffffffffffffffffffffffffffffffffffff168152602001906001019080831162000cdf575b50505050509050925092509250909192565b6000600a60009054906101000a900473ffffffffffffffffffffffffffffffffffffffff16905090565b6000600554905090565b6060811562000e0d57600160020180548060200260200160405190810160405280929190818152602001828054801562000e0057602002820191906000526020600020905b8160009054906101000a900473ffffffffffffffffffffffffffffffffffffffff1673ffffffffffffffffffffffffffffffffffffffff168152602001906001019080831162000db5575b5050505050905062000e9c565b600160030180548060200260200160405190810160405280929190818152602001828054801562000e9457602002820191906000526020600020905b8160009054906101000a900473ffffffffffffffffffffffffffffffffffffffff1673ffffffffffffffffffffffffffffffffffffffff168152602001906001019080831162000e49575b505050505090505b919050565b80600062000eb0828262001498565b62000ec0836001600201620014ef565b505050565b62000ed08162001d0a565b151560011515141562000f3b576001806001018054905062000ef391906200429c565b600554111562000f3a576040517f08c379a000000000000000000000000000000000000000000000000000000000815260040162000f319062003e5e565b60405180910390fd5b5b62000f4881600162001dcb565b50565b6000848073ffffffffffffffffffffffffffffffffffffffff16600073ffffffffffffffffffffffffffffffffffffffff16141562000fc1576040517f08c379a000000000000000000000000000000000000000000000000000000000815260040162000fb89062003ec4565b60405180910390fd5b600a60009054906101000a900473ffffffffffffffffffffffffffffffffffffffff1673ffffffffffffffffffffffffffffffffffffffff1663e220ad956040518163ffffffff1660e01b815260040160006040518083038186803b1580156200102a57600080fd5b505afa1580156200103f573d6000803e3d6000fd5b505050506040513d6000823e3d601f19601f820116820180604052508101906200106a9190620034c9565b60026006811115620010815762001080620044ec565b5b815181106200109557620010946200454a565b5b602002602001015173ffffffffffffffffffffffffffffffffffffffff1663f0c9325e3460006040518363ffffffff1660e01b8152600401620010d9919062003e41565b6000604051808303818588803b158015620010f357600080fd5b505af115801562001108573d6000803e3d6000fd5b505050505085600d6000600f54815260200190815260200160002060000160000160006101000a81548173ffffffffffffffffffffffffffffffffffffffff021916908373ffffffffffffffffffffffffffffffffffffffff16021790555084600d6000600f54815260200190815260200160002060000160010190805190602001906200119892919062003009565b5083600d6000600f5481526020019081526020016000206000016002019080519060200190620011ca92919062003009565b5082600d6000600f54815260200190815260200160002060000160030160006101000a81548160ff021916908360018111156200120c576200120b620044ec565b5b0217905550600e80549050600d6000600f54815260200190815260200160002060040181905550600e600f549080600181540180825580915050600190039060005260206000200160009091909190915055600f547f88d341cdb636e2cf41b99330be584ef11888487c9b2aef53410ed90fb2c487ad878787604051620012969392919062003dae565b60405180910390a2600f6000815480929190620012b3906200446f565b91905055506001600f54620012c991906200429c565b915050949350505050565b6060600180018054806020026020016040519081016040528092919081815260200182805480156200135c57602002820191906000526020600020905b8160009054906101000a900473ffffffffffffffffffffffffffffffffffffffff1673ffffffffffffffffffffffffffffffffffffffff168152602001906001019080831162001311575b5050505050905090565b62001372600062001af1565b565b33600162001383828262001498565b60006200139081620024b6565b836001800180549050620013a582826200144e565b600186620013b482826200144e565b87600681905550620013c7600162001af1565b5050505050505050565b620013de81600062001dcb565b50565b6060600c8054806020026020016040519081016040528092919081815260200182805480156200143157602002820191906000526020600020905b8154815260200190600101908083116200141c575b5050505050905090565b6000620014483062002558565b15905090565b8082111562001494576040517f08c379a00000000000000000000000000000000000000000000000000000000081526004016200148b9062003e5e565b60405180910390fd5b5050565b620014a3826200256b565b151581151514620014eb576040517f08c379a0000000000000000000000000000000000000000000000000000000008152600401620014e29062003f08565b60405180910390fd5b5050565b336001620014fe828262001498565b8360006200150d8282620025c7565b84869080600181540180825580915050600190039060005260206000200160009091909190916101000a81548173ffffffffffffffffffffffffffffffffffffffff021916908373ffffffffffffffffffffffffffffffffffffffff1602179055506000600186805490506200158491906200429c565b905080600160000160008973ffffffffffffffffffffffffffffffffffffffff1673ffffffffffffffffffffffffffffffffffffffff16815260200190815260200160002060020181905550620015dd87600162001dcb565b50505050505050565b336001620015f5828262001498565b83600d600082815260200190815260200160002060000160000160009054906101000a900473ffffffffffffffffffffffffffffffffffffffff1673ffffffffffffffffffffffffffffffffffffffff16600073ffffffffffffffffffffffffffffffffffffffff161415620016a2576040517f08c379a0000000000000000000000000000000000000000000000000000000008152600401620016999062003f4c565b60405180910390fd5b847f5a1a88bd27a0cf1c470b27b132493e61efc1eaf3d1b57db0ab7f73182345d0473386604051620016d692919062003d4d565b60405180910390a2600d6000868152602001908152602001600020600701339080600181540180825580915050600190039060005260206000200160009091909190916101000a81548173ffffffffffffffffffffffffffffffffffffffff021916908373ffffffffffffffffffffffffffffffffffffffff160217905550831562001a6257600d6000868152602001908152602001600020600501600081548092919062001785906200446f565b9190505550600554600d6000878152602001908152602001600020600501541062001a5c57600c85908060018154018082558091505060019003906000526020600020016000909190919091505562001992600d600087815260200190815260200160002060000160000160009054906101000a900473ffffffffffffffffffffffffffffffffffffffff16600d600088815260200190815260200160002060000160010180546200183790620043e5565b80601f01602080910402602001604051908101604052809291908181526020018280546200186590620043e5565b8015620018b65780601f106200188a57610100808354040283529160200191620018b6565b820191906000526020600020905b8154815290600101906020018083116200189857829003601f168201915b5050505050600d60008981526020019081526020016000206000016002018054620018e190620043e5565b80601f01602080910402602001604051908101604052809291908181526020018280546200190f90620043e5565b8015620019605780601f10620019345761010080835404028352916020019162001960565b820191906000526020600020905b8154815290600101906020018083116200194257829003601f168201915b5050505050600d60008a815260200190815260200160002060000160030160009054906101000a900460ff1662002631565b600b600087815260200190815260200160002060006101000a81548173ffffffffffffffffffffffffffffffffffffffff021916908373ffffffffffffffffffffffffffffffffffffffff160217905550620019ee8562002831565b847f2cedba2f59ec9c6a70e350caabb40ea15150e2bd297a517df51c1fbdbeacad39600b600088815260200190815260200160002060009054906101000a900473ffffffffffffffffffffffffffffffffffffffff1660405162001a53919062003c54565b60405180910390a25b62001aea565b600d6000868152602001908152602001600020600601600081548092919062001a8b906200446f565b9190505550600554600d6000878152602001908152602001600020600601541062001ae95762001abb8562002831565b847f403eabfde87045e1433576679912c142f6e51573d2635748e5331c62fbcfecc160405160405180910390a25b5b5050505050565b33600162001b00828262001498565b600162001b0d81620024b6565b336000600162001b1f838383620029d9565b861562001b485760016007600082825462001b3b91906200423f565b9250508190555062001b65565b60016008600082825462001b5d91906200423f565b925050819055505b6009339080600181540180825580915050600190039060005260206000200160009091909190916101000a81548173ffffffffffffffffffffffffffffffffffffffff021916908373ffffffffffffffffffffffffffffffffffffffff16021790555062001bd262002b0c565b50505050505050565b600060019054906101000a900460ff1662001c055760008054906101000a900460ff161562001c10565b62001c0f6200143b565b5b62001c52576040517f08c379a000000000000000000000000000000000000000000000000000000000815260040162001c499062003ea2565b60405180910390fd5b60008060019054906101000a900460ff16159050801562001ca3576001600060016101000a81548160ff02191690831515021790555060016000806101000a81548160ff0219169083151502179055505b81600a60006101000a81548173ffffffffffffffffffffffffffffffffffffffff021916908373ffffffffffffffffffffffffffffffffffffffff160217905550801562001d065760008060016101000a81548160ff0219169083151502179055505b5050565b60006001600301600160000160008473ffffffffffffffffffffffffffffffffffffffff1673ffffffffffffffffffffffffffffffffffffffff168152602001908152602001600020600201548154811062001d6b5762001d6a6200454a565b5b9060005260206000200160009054906101000a900473ffffffffffffffffffffffffffffffffffffffff1673ffffffffffffffffffffffffffffffffffffffff168273ffffffffffffffffffffffffffffffffffffffff16149050919050565b33600162001dda828262001498565b83600162001de98282620025c7565b3386600062001dfa838383620029d9565b7fc6f241efc3de3ce31d0e682102cc781f0605f0f90d72addfea699e4aea85dd7989338a60405162001e2f9392919062003c71565b60405180910390a1600160000160008a73ffffffffffffffffffffffffffffffffffffffff1673ffffffffffffffffffffffffffffffffffffffff168152602001908152602001600020600501339080600181540180825580915050600190039060005260206000200160009091909190916101000a81548173ffffffffffffffffffffffffffffffffffffffff021916908373ffffffffffffffffffffffffffffffffffffffff16021790555087156200235657600160000160008a73ffffffffffffffffffffffffffffffffffffffff1673ffffffffffffffffffffffffffffffffffffffff168152602001908152602001600020600301600081548092919062001f3c906200446f565b9190505550600554600160000160008b73ffffffffffffffffffffffffffffffffffffffff1673ffffffffffffffffffffffffffffffffffffffff1681526020019081526020016000206003015410620023505760006001600301905062001fa48a62002c65565b15620021115760016002019050600180018a9080600181540180825580915050600190039060005260206000200160009091909190916101000a81548173ffffffffffffffffffffffffffffffffffffffff021916908373ffffffffffffffffffffffffffffffffffffffff16021790555060018060000160008c73ffffffffffffffffffffffffffffffffffffffff1673ffffffffffffffffffffffffffffffffffffffff16815260200190815260200160002060000160006101000a81548160ff021916908315150217905550600180600101805490506200208991906200429c565b600160000160008c73ffffffffffffffffffffffffffffffffffffffff1673ffffffffffffffffffffffffffffffffffffffff168152602001908152602001600020600101819055507f45bbe5ceeddcb6d0b4045349efc87a3fde966578e3970cda6f53bfc76efaf9f78a60405162002103919062003c54565b60405180910390a162002342565b6000600160000160008c73ffffffffffffffffffffffffffffffffffffffff1673ffffffffffffffffffffffffffffffffffffffff16815260200190815260200160002060010154905073__AddressLibrary________________________637873833e82600180016040518363ffffffff1660e01b81526004016200219992919062003faf565b60006040518083038186803b158015620021b257600080fd5b505af4158015620021c7573d6000803e3d6000fd5b50505050806001800180549050111562002269578060016000016000600180018481548110620021fc57620021fb6200454a565b5b9060005260206000200160009054906101000a900473ffffffffffffffffffffffffffffffffffffffff1673ffffffffffffffffffffffffffffffffffffffff1673ffffffffffffffffffffffffffffffffffffffff168152602001908152602001600020600101819055505b600160000160008c73ffffffffffffffffffffffffffffffffffffffff1673ffffffffffffffffffffffffffffffffffffffff16815260200190815260200160002060000160006101000a81549060ff0219169055600160000160008c73ffffffffffffffffffffffffffffffffffffffff1673ffffffffffffffffffffffffffffffffffffffff168152602001908152602001600020600101600090557f82bcab3b042f3e2143a9d33d07fa130afdf763f17a45679670f0e39f12064ca88b60405162002338919062003c54565b60405180910390a1505b6200234e8a8262002d26565b505b620024ab565b600160000160008a73ffffffffffffffffffffffffffffffffffffffff1673ffffffffffffffffffffffffffffffffffffffff1681526020019081526020016000206004016000815480929190620023ae906200446f565b9190505550600554600160000160008b73ffffffffffffffffffffffffffffffffffffffff1673ffffffffffffffffffffffffffffffffffffffff1681526020019081526020016000206004015410620024aa57600060016003019050620024168a62002c65565b156200246257600160020190507f622a69297177c029df8c1ba7f4d2d59881089b571ae96800e634aff50d67492e8a60405162002454919062003c54565b60405180910390a16200249c565b7f547e31c58b802b63bc89f1109a132a291b0527c9196c97759829aeaecd3c2d398a60405162002493919062003c54565b60405180910390a15b620024a88a8262002d26565b505b5b505050505050505050565b80156200250c576006546000141562002506576040517f08c379a0000000000000000000000000000000000000000000000000000000008152600401620024fd9062003e80565b60405180910390fd5b62002555565b60065460001462002554576040517f08c379a00000000000000000000000000000000000000000000000000000000081526004016200254b9062003ee6565b60405180910390fd5b5b50565b600080823b905060008111915050919050565b6000600160000160008373ffffffffffffffffffffffffffffffffffffffff1673ffffffffffffffffffffffffffffffffffffffff16815260200190815260200160002060000160009054906101000a900460ff169050919050565b620025d28262002c65565b80620025e55750620025e48262001d0a565b5b1515811515146200262d576040517f08c379a0000000000000000000000000000000000000000000000000000000008152600401620026249062003f08565b60405180910390fd5b5050565b600080600a60009054906101000a900473ffffffffffffffffffffffffffffffffffffffff1673ffffffffffffffffffffffffffffffffffffffff1663efd621de6040518163ffffffff1660e01b815260040160006040518083038186803b1580156200269d57600080fd5b505afa158015620026b2573d6000803e3d6000fd5b505050506040513d6000823e3d601f19601f82011682018060405250810190620026dd9190620034c9565b600080811115620026f357620026f2620044ec565b5b815181106200270757620027066200454a565b5b602002602001015190506000600a60009054906101000a900473ffffffffffffffffffffffffffffffffffffffff168787878760018111156200274f576200274e620044ec565b5b6040516024016200276595949392919062003cae565b6040516020818303038152906040527f65f9b691000000000000000000000000000000000000000000000000000000007bffffffffffffffffffffffffffffffffffffffffffffffffffffffff19166020820180517bffffffffffffffffffffffffffffffffffffffffffffffffffffffff8381831617835250505050905060008282604051620027f6906200309a565b6200280392919062003d7a565b604051809103906000f08015801562002820573d6000803e3d6000fd5b509050809350505050949350505050565b6000600d600083815260200190815260200160002060040154905073__UintLibrary___________________________63cffd93cd82600e6040518363ffffffff1660e01b81526004016200288892919062004009565b60006040518083038186803b158015620028a157600080fd5b505af4158015620028b6573d6000803e3d6000fd5b5050505080600e805490501115620029055780600d6000600e8481548110620028e457620028e36200454a565b5b90600052602060002001548152602001908152602001600020600401819055505b600d6000838152602001908152602001600020600001600080820160006101000a81549073ffffffffffffffffffffffffffffffffffffffff0219169055600182016000620029559190620030a8565b600282016000620029679190620030a8565b6003820160006101000a81549060ff02191690555050600d600083815260200190815260200160002060050160009055600d600083815260200190815260200160002060060160009055600d60008381526020019081526020016000206007016000620029d59190620030ee565b5050565b6000600160000160008473ffffffffffffffffffffffffffffffffffffffff1673ffffffffffffffffffffffffffffffffffffffff1681526020019081526020016000206005019050811562002a2e57600990505b73__AddressLibrary________________________63f7cf62d785836040518363ffffffff1660e01b815260040162002a6992919062003d19565b60206040518083038186803b15801562002a8257600080fd5b505af415801562002a97573d6000803e3d6000fd5b505050506040513d601f19601f8201168201806040525081019062002abd91906200362d565b1515600015151462002b06576040517f08c379a000000000000000000000000000000000000000000000000000000000815260040162002afd9062003f2a565b60405180910390fd5b50505050565b73__ItemsLibrary__________________________63f6001d7d6007546005546040518363ffffffff1660e01b815260040162002b4b92919062004036565b60206040518083038186803b15801562002b6457600080fd5b505af415801562002b79573d6000803e3d6000fd5b505050506040513d601f19601f8201168201806040525081019062002b9f91906200362d565b1562002bbe5760065460058190555062002bb862002fa8565b62002c63565b73__ItemsLibrary__________________________63f6001d7d6008546005546040518363ffffffff1660e01b815260040162002bfd92919062004036565b60206040518083038186803b15801562002c1657600080fd5b505af415801562002c2b573d6000803e3d6000fd5b505050506040513d601f19601f8201168201806040525081019062002c5191906200362d565b1562002c625762002c6162002fa8565b5b5b565b60006001600201600160000160008473ffffffffffffffffffffffffffffffffffffffff1673ffffffffffffffffffffffffffffffffffffffff168152602001908152602001600020600201548154811062002cc65762002cc56200454a565b5b9060005260206000200160009054906101000a900473ffffffffffffffffffffffffffffffffffffffff1673ffffffffffffffffffffffffffffffffffffffff168273ffffffffffffffffffffffffffffffffffffffff16149050919050565b6000600160000160008473ffffffffffffffffffffffffffffffffffffffff1673ffffffffffffffffffffffffffffffffffffffff16815260200190815260200160002060020154905073__AddressLibrary________________________637873833e82846040518363ffffffff1660e01b815260040162002dab92919062003fdc565b60006040518083038186803b15801562002dc457600080fd5b505af415801562002dd9573d6000803e3d6000fd5b50505050808280549050111562002e7557806001600001600084848154811062002e085762002e076200454a565b5b9060005260206000200160009054906101000a900473ffffffffffffffffffffffffffffffffffffffff1673ffffffffffffffffffffffffffffffffffffffff1673ffffffffffffffffffffffffffffffffffffffff168152602001908152602001600020600201819055505b600160000160008473ffffffffffffffffffffffffffffffffffffffff1673ffffffffffffffffffffffffffffffffffffffff16815260200190815260200160002060020160009055600160000160008473ffffffffffffffffffffffffffffffffffffffff1673ffffffffffffffffffffffffffffffffffffffff16815260200190815260200160002060030160009055600160000160008473ffffffffffffffffffffffffffffffffffffffff1673ffffffffffffffffffffffffffffffffffffffff16815260200190815260200160002060040160009055600160000160008473ffffffffffffffffffffffffffffffffffffffff1673ffffffffffffffffffffffffffffffffffffffff168152602001908152602001600020600501600062002fa39190620030ee565b505050565b6000600681905550600060078190555060006008819055506009600062002fd09190620030ee565b565b6040518060a0016040528062002fe762003111565b8152602001600081526020016000815260200160008152602001606081525090565b8280546200301790620043e5565b90600052602060002090601f0160209004810192826200303b576000855562003087565b82601f106200305657805160ff191683800117855562003087565b8280016001018555821562003087579182015b828111156200308657825182559160200191906001019062003069565b5b50905062003096919062003164565b5090565b611083806200481683390190565b508054620030b690620043e5565b6000825580601f10620030ca5750620030eb565b601f016020900490600052602060002090810190620030ea919062003164565b5b50565b50805460008255906000526020600020908101906200310e919062003164565b50565b6040518060800160405280600073ffffffffffffffffffffffffffffffffffffffff1681526020016060815260200160608152602001600060018111156200315e576200315d620044ec565b5b81525090565b5b808211156200317f57600081600090555060010162003165565b5090565b60006200319a6200319484620040d0565b620040a7565b90508083825260208201905082856020860282011115620031c057620031bf620045c2565b5b60005b85811015620031f45781620031d98882620032c4565b845260208401935060208301925050600181019050620031c3565b5050509392505050565b6000620032156200320f84620040d0565b620040a7565b905080838252602082019050828560208602820111156200323b576200323a620045c2565b5b60005b858110156200326f5781620032548882620032db565b8452602084019350602083019250506001810190506200323e565b5050509392505050565b6000620032906200328a84620040ff565b620040a7565b905082815260208101848484011115620032af57620032ae620045c7565b5b620032bc848285620043a0565b509392505050565b600081359050620032d581620047b6565b92915050565b600081519050620032ec81620047b6565b92915050565b600082601f8301126200330a5762003309620045bd565b5b81356200331c84826020860162003183565b91505092915050565b600082601f8301126200333d576200333c620045bd565b5b81516200334f848260208601620031fe565b91505092915050565b6000813590506200336981620047d0565b92915050565b6000815190506200338081620047d0565b92915050565b6000813590506200339781620047ea565b92915050565b600082601f830112620033b557620033b4620045bd565b5b8135620033c784826020860162003279565b91505092915050565b600081359050620033e181620047fb565b92915050565b6000602082840312156200340057620033ff620045d1565b5b60006200341084828501620032c4565b91505092915050565b60008060008060808587031215620034365762003435620045d1565b5b60006200344687828801620032c4565b945050602085013567ffffffffffffffff8111156200346a5762003469620045cc565b5b62003478878288016200339d565b935050604085013567ffffffffffffffff8111156200349c576200349b620045cc565b5b620034aa878288016200339d565b9250506060620034bd8782880162003386565b91505092959194509250565b600060208284031215620034e257620034e1620045d1565b5b600082015167ffffffffffffffff811115620035035762003502620045cc565b5b620035118482850162003325565b91505092915050565b60008060408385031215620035345762003533620045d1565b5b600083013567ffffffffffffffff811115620035555762003554620045cc565b5b6200356385828601620032f2565b92505060206200357685828601620033d0565b9150509250929050565b6000806000606084860312156200359c576200359b620045d1565b5b600084013567ffffffffffffffff811115620035bd57620035bc620045cc565b5b620035cb86828701620032f2565b9350506020620035de86828701620033d0565b9250506040620035f186828701620032c4565b9150509250925092565b600060208284031215620036145762003613620045d1565b5b6000620036248482850162003358565b91505092915050565b600060208284031215620036465762003645620045d1565b5b600062003656848285016200336f565b91505092915050565b600060208284031215620036785762003677620045d1565b5b60006200368884828501620033d0565b91505092915050565b60006200369f8383620036df565b60208301905092915050565b6000620036b9838362003712565b60208301905092915050565b6000620036d3838362003c10565b60208301905092915050565b620036ea81620042f7565b82525050565b620036fb81620042f7565b82525050565b6200370c81620042f7565b82525050565b6200371d81620042f7565b82525050565b600062003730826200416a565b6200373c8185620041c8565b9350620037498362004135565b8060005b838110156200378057815162003764888262003691565b97506200377183620041a1565b9250506001810190506200374d565b5085935050505092915050565b60006200379a826200416a565b620037a68185620041d9565b9350620037b38362004135565b8060005b83811015620037ea578151620037ce888262003691565b9750620037db83620041a1565b925050600181019050620037b7565b5085935050505092915050565b6000620038048262004175565b620038108185620041ea565b93506200381d8362004145565b8060005b838110156200385d576200383582620045a8565b620038418882620036ab565b97506200384e83620041ae565b92505060018101905062003821565b5085935050505092915050565b8082525050565b8082525050565b6000620038858262004180565b620038918185620041fb565b93506200389e836200415a565b8060005b83811015620038d5578151620038b98882620036c5565b9750620038c683620041bb565b925050600181019050620038a2565b5085935050505092915050565b8082525050565b620038f4816200430b565b82525050565b600062003907826200418b565b6200391381856200420c565b935062003925818560208601620043af565b6200393081620045d6565b840191505092915050565b620039468162004378565b82525050565b62003957816200438c565b82525050565b60006200396a8262004196565b6200397681856200421d565b935062003988818560208601620043af565b6200399381620045d6565b840191505092915050565b6000620039ab8262004196565b620039b781856200422e565b9350620039c9818560208601620043af565b620039d481620045d6565b840191505092915050565b6000620039ee6005836200422e565b9150620039fb82620045f4565b602082019050919050565b600062003a156005836200422e565b915062003a22826200461d565b602082019050919050565b600062003a3c602e836200422e565b915062003a498262004646565b604082019050919050565b600062003a636024836200422e565b915062003a708262004695565b604082019050919050565b600062003a8a6005836200422e565b915062003a9782620046e4565b602082019050919050565b600062003ab16004836200422e565b915062003abe826200470d565b602082019050919050565b600062003ad86004836200422e565b915062003ae58262004736565b602082019050919050565b600062003aff601d836200422e565b915062003b0c826200475f565b602082019050919050565b600060808301600083015162003b316000860182620036df565b506020830151848203602086015262003b4b82826200395d565b9150506040830151848203604086015262003b6782826200395d565b915050606083015162003b7e60608601826200393b565b508091505092915050565b600060a083016000830151848203600086015262003ba8828262003b17565b915050602083015162003bbf602086018262003c10565b50604083015162003bd4604086018262003c10565b50606083015162003be9606086018262003c10565b506080830151848203608086015262003c03828262003723565b9150508091505092915050565b62003c1b8162004361565b82525050565b62003c2c8162004361565b82525050565b62003c3d8162004361565b82525050565b62003c4e816200436b565b82525050565b600060208201905062003c6b6000830184620036f0565b92915050565b600060608201905062003c886000830186620036f0565b62003c976020830185620036f0565b62003ca66040830184620038e9565b949350505050565b600060a08201905062003cc56000830188620036f0565b62003cd46020830187620036f0565b818103604083015262003ce881866200399e565b9050818103606083015262003cfe81856200399e565b905062003d0f608083018462003c43565b9695505050505050565b600060408201905062003d30600083018562003701565b818103602083015262003d448184620037f7565b90509392505050565b600060408201905062003d646000830185620036f0565b62003d736020830184620038e9565b9392505050565b600060408201905062003d916000830185620036f0565b818103602083015262003da58184620038fa565b90509392505050565b600060608201905062003dc56000830186620036f0565b818103602083015262003dd981856200399e565b9050818103604083015262003def81846200399e565b9050949350505050565b6000602082019050818103600083015262003e1581846200378d565b905092915050565b6000602082019050818103600083015262003e39818462003878565b905092915050565b600060208201905062003e5860008301846200394c565b92915050565b6000602082019050818103600083015262003e7981620039df565b9050919050565b6000602082019050818103600083015262003e9b8162003a06565b9050919050565b6000602082019050818103600083015262003ebd8162003a2d565b9050919050565b6000602082019050818103600083015262003edf8162003a54565b9050919050565b6000602082019050818103600083015262003f018162003a7b565b9050919050565b6000602082019050818103600083015262003f238162003aa2565b9050919050565b6000602082019050818103600083015262003f458162003ac9565b9050919050565b6000602082019050818103600083015262003f678162003af0565b9050919050565b6000602082019050818103600083015262003f8a818462003b89565b905092915050565b600060208201905062003fa9600083018462003c21565b92915050565b600060408201905062003fc6600083018562003c32565b62003fd5602083018462003871565b9392505050565b600060408201905062003ff3600083018562003c32565b6200400260208301846200386a565b9392505050565b600060408201905062004020600083018562003c32565b6200402f6020830184620038e2565b9392505050565b60006040820190506200404d600083018562003c32565b6200405c602083018462003c32565b9392505050565b60006060820190506200407a600083018662003c21565b62004089602083018562003c21565b81810360408301526200409d81846200378d565b9050949350505050565b6000620040b3620040c6565b9050620040c1828262004439565b919050565b6000604051905090565b600067ffffffffffffffff821115620040ee57620040ed62004579565b5b602082029050602081019050919050565b600067ffffffffffffffff8211156200411d576200411c62004579565b5b6200412882620045d6565b9050602081019050919050565b6000819050602082019050919050565b60008190508160005260206000209050919050565b6000819050602082019050919050565b600081519050919050565b600081549050919050565b600081519050919050565b600081519050919050565b600081519050919050565b6000602082019050919050565b6000600182019050919050565b6000602082019050919050565b600082825260208201905092915050565b600082825260208201905092915050565b600082825260208201905092915050565b600082825260208201905092915050565b600082825260208201905092915050565b600082825260208201905092915050565b600082825260208201905092915050565b60006200424c8262004361565b9150620042598362004361565b9250827fffffffffffffffffffffffffffffffffffffffffffffffffffffffffffffffff03821115620042915762004290620044bd565b5b828201905092915050565b6000620042a98262004361565b9150620042b68362004361565b925082821015620042cc57620042cb620044bd565b5b828203905092915050565b600073ffffffffffffffffffffffffffffffffffffffff82169050919050565b6000620043048262004341565b9050919050565b60008115159050919050565b6000819050620043278262004788565b919050565b60008190506200433c826200479f565b919050565b600073ffffffffffffffffffffffffffffffffffffffff82169050919050565b6000819050919050565b600060ff82169050919050565b6000620043858262004317565b9050919050565b600062004399826200432c565b9050919050565b82818337600083830152505050565b60005b83811015620043cf578082015181840152602081019050620043b2565b83811115620043df576000848401525b50505050565b60006002820490506001821680620043fe57607f821691505b602082108114156200441557620044146200451b565b5b50919050565b6000620044326200442c83620045e7565b620042d7565b9050919050565b6200444482620045d6565b810181811067ffffffffffffffff8211171562004466576200446562004579565b5b80604052505050565b60006200447c8262004361565b91507fffffffffffffffffffffffffffffffffffffffffffffffffffffffffffffffff821415620044b257620044b1620044bd565b5b600182019050919050565b7f4e487b7100000000000000000000000000000000000000000000000000000000600052601160045260246000fd5b7f4e487b7100000000000000000000000000000000000000000000000000000000600052602160045260246000fd5b7f4e487b7100000000000000000000000000000000000000000000000000000000600052602260045260246000fd5b7f4e487b7100000000000000000000000000000000000000000000000000000000600052603260045260246000fd5b7f4e487b7100000000000000000000000000000000000000000000000000000000600052604160045260246000fd5b6000620045b682546200441b565b9050919050565b600080fd5b600080fd5b600080fd5b600080fd5b600080fd5b6000601f19601f8301169050919050565b60008160001c9050919050565b7f454331392d000000000000000000000000000000000000000000000000000000600082015250565b7f454333312d000000000000000000000000000000000000000000000000000000600082015250565b7f496e697469616c697a61626c653a20636f6e747261637420697320616c72656160008201527f647920696e697469616c697a6564000000000000000000000000000000000000602082015250565b7f4e4654204d61726b6574206f776e65722063616e6e6f7420626520616464726560008201527f7373203000000000000000000000000000000000000000000000000000000000602082015250565b7f454333302d000000000000000000000000000000000000000000000000000000600082015250565b7f4543392d00000000000000000000000000000000000000000000000000000000600082015250565b7f4543352d00000000000000000000000000000000000000000000000000000000600082015250565b7f5468697320697373756572206964206973206e6f742070656e64696e67000000600082015250565b600281106200479c576200479b620044ec565b5b50565b60028110620047b357620047b2620044ec565b5b50565b620047c181620042f7565b8114620047cd57600080fd5b50565b620047db816200430b565b8114620047e757600080fd5b50565b60028110620047f857600080fd5b50565b620048068162004361565b81146200481257600080fd5b5056fe608060405260405162001083380380620010838339818101604052810190620000299190620005cf565b60017fa3f0ad74e5423aebfd80d3ef4346578335a9a72aeaee59ff6cb3582b35133d5160001c6200005b919062000856565b60001b7fa3f0ad74e5423aebfd80d3ef4346578335a9a72aeaee59ff6cb3582b35133d5060001b146200009357620000926200093b565b5b620000a782826000620000af60201b60201c565b505062000af4565b620000c083620001b660201b60201c565b8273ffffffffffffffffffffffffffffffffffffffff167f1cf3b03a6cf19fa2baba4df148e9dcabedea7f8a5c07840e207e5c089be95d3e60405160405180910390a2600082511180620001115750805b15620001b157620001af8373ffffffffffffffffffffffffffffffffffffffff16635c60da1b6040518163ffffffff1660e01b815260040160206040518083038186803b1580156200016257600080fd5b505afa15801562000177573d6000803e3d6000fd5b505050506040513d601f19601f820116820180604052508101906200019d91906200059d565b836200036560201b620000371760201c565b505b505050565b620001cc816200039b60201b620000641760201c565b6200020e576040517f08c379a000000000000000000000000000000000000000000000000000000000815260040162000205906200075f565b60405180910390fd5b620002a58173ffffffffffffffffffffffffffffffffffffffff16635c60da1b6040518163ffffffff1660e01b815260040160206040518083038186803b1580156200025957600080fd5b505afa1580156200026e573d6000803e3d6000fd5b505050506040513d601f19601f820116820180604052508101906200029491906200059d565b6200039b60201b620000641760201c565b620002e7576040517f08c379a0000000000000000000000000000000000000000000000000000000008152600401620002de90620007a3565b60405180910390fd5b80620003217fa3f0ad74e5423aebfd80d3ef4346578335a9a72aeaee59ff6cb3582b35133d5060001b620003ae60201b620000771760201c565b60000160006101000a81548173ffffffffffffffffffffffffffffffffffffffff021916908373ffffffffffffffffffffffffffffffffffffffff16021790555050565b60606200039383836040518060600160405280602781526020016200105c60279139620003b860201b60201c565b905092915050565b600080823b905060008111915050919050565b6000819050919050565b6060620003cb846200039b60201b60201c565b6200040d576040517f08c379a0000000000000000000000000000000000000000000000000000000008152600401620004049062000781565b60405180910390fd5b6000808573ffffffffffffffffffffffffffffffffffffffff168560405162000437919062000722565b600060405180830381855af49150503d806000811462000474576040519150601f19603f3d011682016040523d82523d6000602084013e62000479565b606091505b5091509150620004918282866200049c60201b60201c565b925050509392505050565b60608315620004ae5782905062000501565b600083511115620004c25782518084602001fd5b816040517f08c379a0000000000000000000000000000000000000000000000000000000008152600401620004f891906200073b565b60405180910390fd5b9392505050565b60006200051f6200051984620007ee565b620007c5565b9050828152602081018484840111156200053e576200053d620009cd565b5b6200054b848285620008cf565b509392505050565b600081519050620005648162000ada565b92915050565b600082601f830112620005825762000581620009c8565b5b81516200059484826020860162000508565b91505092915050565b600060208284031215620005b657620005b5620009d7565b5b6000620005c68482850162000553565b91505092915050565b60008060408385031215620005e957620005e8620009d7565b5b6000620005f98582860162000553565b925050602083015167ffffffffffffffff8111156200061d576200061c620009d2565b5b6200062b858286016200056a565b9150509250929050565b6000620006428262000824565b6200064e81856200083a565b935062000660818560208601620008cf565b80840191505092915050565b600062000679826200082f565b62000685818562000845565b935062000697818560208601620008cf565b620006a281620009dc565b840191505092915050565b6000620006bc60258362000845565b9150620006c982620009ed565b604082019050919050565b6000620006e360268362000845565b9150620006f08262000a3c565b604082019050919050565b60006200070a60308362000845565b9150620007178262000a8b565b604082019050919050565b600062000730828462000635565b915081905092915050565b600060208201905081810360008301526200075781846200066c565b905092915050565b600060208201905081810360008301526200077a81620006ad565b9050919050565b600060208201905081810360008301526200079c81620006d4565b9050919050565b60006020820190508181036000830152620007be81620006fb565b9050919050565b6000620007d1620007e4565b9050620007df828262000905565b919050565b6000604051905090565b600067ffffffffffffffff8211156200080c576200080b62000999565b5b6200081782620009dc565b9050602081019050919050565b600081519050919050565b600081519050919050565b600081905092915050565b600082825260208201905092915050565b60006200086382620008c5565b91506200087083620008c5565b9250828210156200088657620008856200096a565b5b828203905092915050565b60006200089e82620008a5565b9050919050565b600073ffffffffffffffffffffffffffffffffffffffff82169050919050565b6000819050919050565b60005b83811015620008ef578082015181840152602081019050620008d2565b83811115620008ff576000848401525b50505050565b6200091082620009dc565b810181811067ffffffffffffffff8211171562000932576200093162000999565b5b80604052505050565b7f4e487b7100000000000000000000000000000000000000000000000000000000600052600160045260246000fd5b7f4e487b7100000000000000000000000000000000000000000000000000000000600052601160045260246000fd5b7f4e487b7100000000000000000000000000000000000000000000000000000000600052604160045260246000fd5b600080fd5b600080fd5b600080fd5b600080fd5b6000601f19601f8301169050919050565b7f455243313936373a206e657720626561636f6e206973206e6f74206120636f6e60008201527f7472616374000000000000000000000000000000000000000000000000000000602082015250565b7f416464726573733a2064656c65676174652063616c6c20746f206e6f6e2d636f60008201527f6e74726163740000000000000000000000000000000000000000000000000000602082015250565b7f455243313936373a20626561636f6e20696d706c656d656e746174696f6e206960008201527f73206e6f74206120636f6e747261637400000000000000000000000000000000602082015250565b62000ae58162000891565b811462000af157600080fd5b50565b6105588062000b046000396000f3fe6080604052366100135761001161001d565b005b61001b61001d565b005b610025610081565b610035610030610083565b61010f565b565b606061005c83836040518060600160405280602781526020016104fc60279139610135565b905092915050565b600080823b905060008111915050919050565b6000819050919050565b565b600061008d610202565b73ffffffffffffffffffffffffffffffffffffffff16635c60da1b6040518163ffffffff1660e01b815260040160206040518083038186803b1580156100d257600080fd5b505afa1580156100e6573d6000803e3d6000fd5b505050506040513d601f19601f8201168201806040525081019061010a91906102d5565b905090565b3660008037600080366000845af43d6000803e8060008114610130573d6000f35b3d6000fd5b606061014084610064565b61017f576040517f08c379a0000000000000000000000000000000000000000000000000000000008152600401610176906103c8565b60405180910390fd5b6000808573ffffffffffffffffffffffffffffffffffffffff16856040516101a7919061038f565b600060405180830381855af49150503d80600081146101e2576040519150601f19603f3d011682016040523d82523d6000602084013e6101e7565b606091505b50915091506101f7828286610259565b925050509392505050565b60006102307fa3f0ad74e5423aebfd80d3ef4346578335a9a72aeaee59ff6cb3582b35133d5060001b610077565b60000160009054906101000a900473ffffffffffffffffffffffffffffffffffffffff16905090565b60608315610269578290506102b9565b60008351111561027c5782518084602001fd5b816040517f08c379a00000000000000000000000000000000000000000000000000000000081526004016102b091906103a6565b60405180910390fd5b9392505050565b6000815190506102cf816104e4565b92915050565b6000602082840312156102eb576102ea61047f565b5b60006102f9848285016102c0565b91505092915050565b600061030d826103e8565b61031781856103fe565b935061032781856020860161044c565b80840191505092915050565b600061033e826103f3565b6103488185610409565b935061035881856020860161044c565b61036181610484565b840191505092915050565b6000610379602683610409565b915061038482610495565b604082019050919050565b600061039b8284610302565b915081905092915050565b600060208201905081810360008301526103c08184610333565b905092915050565b600060208201905081810360008301526103e18161036c565b9050919050565b600081519050919050565b600081519050919050565b600081905092915050565b600082825260208201905092915050565b60006104258261042c565b9050919050565b600073ffffffffffffffffffffffffffffffffffffffff82169050919050565b60005b8381101561046a57808201518184015260208101905061044f565b83811115610479576000848401525b50505050565b600080fd5b6000601f19601f8301169050919050565b7f416464726573733a2064656c65676174652063616c6c20746f206e6f6e2d636f60008201527f6e74726163740000000000000000000000000000000000000000000000000000602082015250565b6104ed8161041a565b81146104f857600080fd5b5056fe416464726573733a206c6f772d6c6576656c2064656c65676174652063616c6c206661696c6564a2646970667358221220a68e4ea1742b5dbcfb5cae186e9c8d7bf5b1383368412f6618c86d97fc6ebe9164736f6c63430008070033416464726573733a206c6f772d6c6576656c2064656c65676174652063616c6c206661696c6564a264697066735822122038f4bf1ce263b4345e15eb942d7d157953c88d6be887b957af93d2d87a0cec0364736f6c63430008070033",
  "immutableReferences": {},
  "source": "// SPDX-License-Identifier: GPL-3.0\r\n\r\npragma solidity 0.8.7;\r\n\r\n/**\r\n Certis Token is an ERC20 Token that grants its holder the right to:\r\n   - Vote on all the systems propositions (changing system configuraiton etc...)\r\n   - Receive Dividends for all the payments forwarded to the Treasury contract\r\n\r\nBefore every token transfer we contact the token gouvernance Base contracts so that the can update the tokens used for voting if needed\r\n\r\n */\r\n\r\nimport \"@openzeppelin/contracts-upgradeable/proxy/utils/Initializable.sol\";\r\nimport \"../Interfaces/IPool.sol\";\r\nimport \"../Interfaces/ITreasury.sol\";\r\nimport \"../Base/ManagedBaseContract.sol\";\r\nimport \"../Base/MultiSigContract.sol\";\r\nimport \"../Libraries/ItemsLibrary.sol\";\r\nimport \"../Libraries/UintLibrary.sol\";\r\nimport \"@openzeppelin/contracts/proxy/beacon/BeaconProxy.sol\";\r\n\r\n\r\n\r\n contract PublicPool is  Initializable, MultiSigContract, ManagedBaseContract, IPool {\r\n  using ItemsLibrary for *;\r\n  using UintLibrary for *;\r\n\r\n  // EVENTS /////////////////////////////////////////\r\n  event _NewIssuerRequest(uint256 indexed id, address owner, string name, string symbol);\r\n\r\n  event _VoteForIssuer(uint256 indexed id, address voter, bool vote);\r\n  event _IssuerValidation(uint256 indexed id, address NFTMarket);\r\n  event _IssuerRejection(uint256 indexed id);\r\n\r\n  // DATA /////////////////////////////////////////\r\n  mapping(uint256 => address) _issuers;\r\n  uint256[] _listOfIssuers;\r\n\r\n  mapping(uint256 => ItemsLibrary._pendingIssuerStruct) _pendingIssuers;\r\n  uint256[] _listOfPendingIssuers;\r\n\r\n  uint256 nextIssuerId;\r\n\r\n  // MODIFIERS /////////////////////////////////////////\r\n  modifier validOwners(address owner){\r\n      require(address(0) != owner, \"NFT Market owner cannot be address 0\");\r\n      _;\r\n  }\r\n\r\n  modifier IssuerPending(uint256 id){\r\n      require(address(0) != _pendingIssuers[id]._issuer._owner, \"This issuer id is not pending\");\r\n      _;\r\n  }\r\n\r\n  // CONSTRUCTOR /////////////////////////////////////////\r\n  function PublicPool_init(address[] memory owners,  uint256 minOwners, address managerContractAddress) public initializer {\r\n      super.MultiSigContract_init(owners, minOwners); \r\n      super.ManagedBaseContract_init(managerContractAddress); \r\n\r\n      nextIssuerId = 0;\r\n  }\r\n\r\n  // FUNCTIONALITY /////////////////////////////////////////\r\n  function requestIssuer(address owner, string memory name, string memory symbol, Library.PaymentPlans paymentPlan) external override payable\r\n    validOwners(owner)\r\n  returns (uint256)\r\n  {\r\n    ITreasury(_managerContract.retrieveTransparentProxies()[uint256(Library.TransparentProxies.Treasury)]).pay{value:msg.value}(Library.Prices.NewIssuer);\r\n\r\n    _pendingIssuers[nextIssuerId]._issuer._owner = owner;\r\n    _pendingIssuers[nextIssuerId]._issuer._name = name;\r\n    _pendingIssuers[nextIssuerId]._issuer._symbol = symbol;\r\n    _pendingIssuers[nextIssuerId]._issuer._paymentPlan = paymentPlan;\r\n    _pendingIssuers[nextIssuerId]._pendingId = _listOfPendingIssuers.length;\r\n    _listOfPendingIssuers.push(nextIssuerId);\r\n\r\n    emit _NewIssuerRequest(nextIssuerId, owner, name, symbol);\r\n\r\n    nextIssuerId++;\r\n    return(nextIssuerId - 1);\r\n  }\r\n\r\n  function validateIssuer(uint256 id) external override\r\n  {\r\n    voteForIssuer(id, true);\r\n  }\r\n\r\n  function rejectIssuer(uint id) external override\r\n  {\r\n    voteForIssuer(id, false);\r\n  }\r\n\r\n  function voteForIssuer(uint id, bool vote) internal\r\n    isAnOwner(msg.sender, true)\r\n    IssuerPending(id)\r\n  {\r\n    emit _VoteForIssuer(id, msg.sender, vote);\r\n\r\n    _pendingIssuers[id]._voters.push(msg.sender);\r\n        \r\n    if(vote){\r\n        _pendingIssuers[id]._validations++;\r\n\r\n        if(_pendingIssuers[id]._validations >= _minOwners){\r\n            _listOfIssuers.push(id);\r\n            _issuers[id] = GenerateNewNFTMarket(_pendingIssuers[id]._issuer._owner, _pendingIssuers[id]._issuer._name, _pendingIssuers[id]._issuer._symbol, _pendingIssuers[id]._issuer._paymentPlan);\r\n            deletingPendingIssuer(id);\r\n            emit _IssuerValidation(id, _issuers[id]);\r\n        }\r\n    }\r\n    else{\r\n        _pendingIssuers[id]._rejections++;\r\n\r\n        if(_pendingIssuers[id]._rejections >= _minOwners){\r\n            deletingPendingIssuer(id);\r\n            emit _IssuerRejection(id);\r\n        }\r\n    }\r\n  }\r\n\r\n  function deletingPendingIssuer(uint256 id) internal\r\n  {\r\n    uint pos = _pendingIssuers[id]._pendingId;\r\n    UintLibrary.UintArrayRemoveResize(pos, _listOfPendingIssuers);\r\n    if(_listOfPendingIssuers.length > pos) _pendingIssuers[_listOfPendingIssuers[pos]]._pendingId = pos;\r\n\r\n    delete(_pendingIssuers[id]._issuer);\r\n    delete(_pendingIssuers[id]._validations);\r\n    delete(_pendingIssuers[id]._rejections);\r\n    delete(_pendingIssuers[id]._voters);\r\n  }\r\n\r\n  function GenerateNewNFTMarket(address owner, string memory name, string memory symbol, Library.PaymentPlans paymentPlan) internal returns(address)\r\n  {\r\n    address beaconAddress = _managerContract.retrieveBeacons()[uint256(Library.Beacons.NFT)];\r\n    bytes memory data = abi.encodeWithSignature(\"NFTMarket_init(address,address,string,string,uint8)\", address(_managerContract), owner, name, symbol, uint8(paymentPlan));\r\n\r\n    BeaconProxy beaconProxy = new BeaconProxy(beaconAddress, data);\r\n\r\n    return address(beaconProxy);\r\n  }\r\n\r\n  function retrieveIssuers() external override view returns (uint[] memory)\r\n  {\r\n    return _listOfIssuers;\r\n  }\r\n\r\n  function retrieveNFTMarketForIssuer(uint id) external override view returns (address)\r\n  {\r\n    return _issuers[id];\r\n  }\r\n\r\n  function retrievePendingIssuers() external override view returns (uint[] memory)\r\n  {\r\n    return _listOfPendingIssuers;\r\n  }\r\n\r\n  function retrievePendingIssuer(uint id) external override view returns (ItemsLibrary._pendingIssuerStruct memory)\r\n  {\r\n    return _pendingIssuers[id];\r\n  }\r\n\r\n\r\n\r\n }",
  "sourcePath": "C:\\Users\\d-aam\\GitHub\\Originals\\contracts\\MainContracts\\PublicPool.sol",
  "compiler": {
    "name": "solc",
    "version": "0.8.7+commit.e28d00a7.Emscripten.clang"
  },
  "schemaVersion": "3.4.3",
  "updatedAt": "2022-01-24T13:10:41.972Z",
  "devdoc": {
    "kind": "dev",
    "methods": {},
    "version": 1
  },
  "userdoc": {
    "kind": "user",
    "methods": {},
    "version": 1
  }
}