{
  "contractName": "PublicPool",
  "abi": [
    {
      "anonymous": false,
      "inputs": [
        {
          "indexed": false,
          "internalType": "address",
          "name": "owner",
          "type": "address"
        }
      ],
      "name": "_AddOwnerRejection",
      "type": "event"
    },
    {
      "anonymous": false,
      "inputs": [
        {
          "indexed": false,
          "internalType": "address",
          "name": "owner",
          "type": "address"
        }
      ],
      "name": "_AddOwnerValidation",
      "type": "event"
    },
    {
      "anonymous": false,
      "inputs": [
        {
          "indexed": true,
          "internalType": "uint256",
          "name": "NFTMarketId",
          "type": "uint256"
        },
        {
          "indexed": true,
          "internalType": "uint256",
          "name": "tokenID",
          "type": "uint256"
        },
        {
          "indexed": true,
          "internalType": "address",
          "name": "receiver",
          "type": "address"
        },
        {
          "indexed": false,
          "internalType": "uint256",
          "name": "amount",
          "type": "uint256"
        },
        {
          "indexed": false,
          "internalType": "uint256",
          "name": "factor",
          "type": "uint256"
        }
      ],
      "name": "_CreditAssigned",
      "type": "event"
    },
    {
      "anonymous": false,
      "inputs": [
        {
          "indexed": true,
          "internalType": "address",
          "name": "receiver",
          "type": "address"
        },
        {
          "indexed": false,
          "internalType": "uint256",
          "name": "amount",
          "type": "uint256"
        },
        {
          "indexed": true,
          "internalType": "address",
          "name": "sender",
          "type": "address"
        }
      ],
      "name": "_CreditReceived",
      "type": "event"
    },
    {
      "anonymous": false,
      "inputs": [
        {
          "indexed": true,
          "internalType": "uint256",
          "name": "NFTMarketId",
          "type": "uint256"
        },
        {
          "indexed": true,
          "internalType": "uint256",
          "name": "tokenID",
          "type": "uint256"
        },
        {
          "indexed": true,
          "internalType": "address",
          "name": "creditor",
          "type": "address"
        },
        {
          "indexed": false,
          "internalType": "uint256",
          "name": "amount",
          "type": "uint256"
        }
      ],
      "name": "_CreditReused",
      "type": "event"
    },
    {
      "anonymous": false,
      "inputs": [
        {
          "indexed": true,
          "internalType": "uint256",
          "name": "NFTMarketId",
          "type": "uint256"
        },
        {
          "indexed": true,
          "internalType": "uint256",
          "name": "tokenID",
          "type": "uint256"
        },
        {
          "indexed": false,
          "internalType": "uint256",
          "name": "amount",
          "type": "uint256"
        }
      ],
      "name": "_CreditUnAssignedReceived",
      "type": "event"
    },
    {
      "anonymous": false,
      "inputs": [
        {
          "indexed": true,
          "internalType": "address",
          "name": "withdrawer",
          "type": "address"
        },
        {
          "indexed": false,
          "internalType": "uint256",
          "name": "amount",
          "type": "uint256"
        }
      ],
      "name": "_CreditWithdrawn",
      "type": "event"
    },
    {
      "anonymous": false,
      "inputs": [
        {
          "indexed": true,
          "internalType": "address",
          "name": "withdrawer",
          "type": "address"
        },
        {
          "indexed": false,
          "internalType": "uint256",
          "name": "amount",
          "type": "uint256"
        },
        {
          "indexed": true,
          "internalType": "address",
          "name": "sender",
          "type": "address"
        }
      ],
      "name": "_CreditWithdrawnFor",
      "type": "event"
    },
    {
      "anonymous": false,
      "inputs": [
        {
          "indexed": true,
          "internalType": "uint256",
          "name": "id",
          "type": "uint256"
        }
      ],
      "name": "_IssuerRejection",
      "type": "event"
    },
    {
      "anonymous": false,
      "inputs": [
        {
          "indexed": true,
          "internalType": "uint256",
          "name": "id",
          "type": "uint256"
        },
        {
          "indexed": false,
          "internalType": "address",
          "name": "NFTMarket",
          "type": "address"
        }
      ],
      "name": "_IssuerValidation",
      "type": "event"
    },
    {
      "anonymous": false,
      "inputs": [
        {
          "indexed": false,
          "internalType": "uint256",
          "name": "minOwner",
          "type": "uint256"
        }
      ],
      "name": "_MinOwnerRejection",
      "type": "event"
    },
    {
      "anonymous": false,
      "inputs": [
        {
          "indexed": false,
          "internalType": "uint256",
          "name": "minOwner",
          "type": "uint256"
        }
      ],
      "name": "_MinOwnerValidation",
      "type": "event"
    },
    {
      "anonymous": false,
      "inputs": [
        {
          "indexed": true,
          "internalType": "uint256",
          "name": "id",
          "type": "uint256"
        },
        {
          "indexed": false,
          "internalType": "address",
          "name": "owner",
          "type": "address"
        },
        {
          "indexed": false,
          "internalType": "string",
          "name": "name",
          "type": "string"
        },
        {
          "indexed": false,
          "internalType": "string",
          "name": "symbol",
          "type": "string"
        }
      ],
      "name": "_NewIssuerRequest",
      "type": "event"
    },
    {
      "anonymous": false,
      "inputs": [
        {
          "indexed": false,
          "internalType": "address",
          "name": "owner",
          "type": "address"
        }
      ],
      "name": "_RemoveOwnerRejection",
      "type": "event"
    },
    {
      "anonymous": false,
      "inputs": [
        {
          "indexed": false,
          "internalType": "address",
          "name": "owner",
          "type": "address"
        }
      ],
      "name": "_RemoveOwnerValidation",
      "type": "event"
    },
    {
      "anonymous": false,
      "inputs": [
        {
          "indexed": true,
          "internalType": "uint256",
          "name": "id",
          "type": "uint256"
        },
        {
          "indexed": false,
          "internalType": "address",
          "name": "voter",
          "type": "address"
        },
        {
          "indexed": false,
          "internalType": "bool",
          "name": "vote",
          "type": "bool"
        }
      ],
      "name": "_VoteForIssuer",
      "type": "event"
    },
    {
      "anonymous": false,
      "inputs": [
        {
          "indexed": false,
          "internalType": "uint256",
          "name": "minOwner",
          "type": "uint256"
        },
        {
          "indexed": false,
          "internalType": "address",
          "name": "voter",
          "type": "address"
        },
        {
          "indexed": false,
          "internalType": "bool",
          "name": "vote",
          "type": "bool"
        }
      ],
      "name": "_VoteForMinOwner",
      "type": "event"
    },
    {
      "anonymous": false,
      "inputs": [
        {
          "indexed": false,
          "internalType": "address",
          "name": "owner",
          "type": "address"
        },
        {
          "indexed": false,
          "internalType": "address",
          "name": "voter",
          "type": "address"
        },
        {
          "indexed": false,
          "internalType": "bool",
          "name": "vote",
          "type": "bool"
        }
      ],
      "name": "_VoteForOwner",
      "type": "event"
    },
    {
      "inputs": [
        {
          "internalType": "address",
          "name": "sender",
          "type": "address"
        },
        {
          "internalType": "uint256",
          "name": "amount",
          "type": "uint256"
        },
        {
          "internalType": "bytes",
          "name": "data",
          "type": "bytes"
        }
      ],
      "name": "CreditReceived",
      "outputs": [],
      "stateMutability": "nonpayable",
      "type": "function"
    },
    {
      "inputs": [
        {
          "internalType": "address[]",
          "name": "owners",
          "type": "address[]"
        },
        {
          "internalType": "uint256",
          "name": "minOwners",
          "type": "uint256"
        }
      ],
      "name": "MultiSigContract_init",
      "outputs": [],
      "stateMutability": "nonpayable",
      "type": "function"
    },
    {
      "inputs": [
        {
          "internalType": "address",
          "name": "owner",
          "type": "address"
        }
      ],
      "name": "addOwner",
      "outputs": [],
      "stateMutability": "nonpayable",
      "type": "function"
    },
    {
      "inputs": [
        {
          "internalType": "uint256",
          "name": "newMinOwners",
          "type": "uint256"
        }
      ],
      "name": "changeMinOwners",
      "outputs": [],
      "stateMutability": "nonpayable",
      "type": "function"
    },
    {
      "inputs": [],
      "name": "rejectMinOwners",
      "outputs": [],
      "stateMutability": "nonpayable",
      "type": "function"
    },
    {
      "inputs": [
        {
          "internalType": "address",
          "name": "owner",
          "type": "address"
        }
      ],
      "name": "rejectOwner",
      "outputs": [],
      "stateMutability": "nonpayable",
      "type": "function"
    },
    {
      "inputs": [
        {
          "internalType": "address",
          "name": "owner",
          "type": "address"
        }
      ],
      "name": "removeOwner",
      "outputs": [],
      "stateMutability": "nonpayable",
      "type": "function"
    },
    {
      "inputs": [],
      "name": "retrieveAllOwners",
      "outputs": [
        {
          "internalType": "address[]",
          "name": "",
          "type": "address[]"
        }
      ],
      "stateMutability": "view",
      "type": "function",
      "constant": true
    },
    {
      "inputs": [],
      "name": "retrieveManagerContract",
      "outputs": [
        {
          "internalType": "address",
          "name": "",
          "type": "address"
        }
      ],
      "stateMutability": "view",
      "type": "function",
      "constant": true
    },
    {
      "inputs": [],
      "name": "retrieveMinOwners",
      "outputs": [
        {
          "internalType": "uint256",
          "name": "",
          "type": "uint256"
        }
      ],
      "stateMutability": "view",
      "type": "function",
      "constant": true
    },
    {
      "inputs": [],
      "name": "retrievePendingMinOwners",
      "outputs": [
        {
          "internalType": "uint256",
          "name": "",
          "type": "uint256"
        }
      ],
      "stateMutability": "view",
      "type": "function",
      "constant": true
    },
    {
      "inputs": [],
      "name": "retrievePendingMinOwnersStatus",
      "outputs": [
        {
          "internalType": "uint256",
          "name": "",
          "type": "uint256"
        },
        {
          "internalType": "uint256",
          "name": "",
          "type": "uint256"
        },
        {
          "internalType": "address[]",
          "name": "",
          "type": "address[]"
        }
      ],
      "stateMutability": "view",
      "type": "function",
      "constant": true
    },
    {
      "inputs": [
        {
          "internalType": "bool",
          "name": "addedORremove",
          "type": "bool"
        }
      ],
      "name": "retrievePendingOwners",
      "outputs": [
        {
          "internalType": "address[]",
          "name": "",
          "type": "address[]"
        }
      ],
      "stateMutability": "view",
      "type": "function",
      "constant": true
    },
    {
      "inputs": [],
      "name": "validateMinOwners",
      "outputs": [],
      "stateMutability": "nonpayable",
      "type": "function"
    },
    {
      "inputs": [
        {
          "internalType": "address",
          "name": "owner",
          "type": "address"
        }
      ],
      "name": "validateOwner",
      "outputs": [],
      "stateMutability": "nonpayable",
      "type": "function"
    },
    {
      "inputs": [
        {
          "internalType": "address[]",
          "name": "owners",
          "type": "address[]"
        },
        {
          "internalType": "uint256",
          "name": "minOwners",
          "type": "uint256"
        },
        {
          "internalType": "address",
          "name": "managerContractAddress",
          "type": "address"
        }
      ],
      "name": "PublicPool_init",
      "outputs": [],
      "stateMutability": "nonpayable",
      "type": "function"
    },
    {
      "inputs": [
        {
          "internalType": "address",
          "name": "owner",
          "type": "address"
        },
        {
          "internalType": "string",
          "name": "name",
          "type": "string"
        },
        {
          "internalType": "string",
          "name": "symbol",
          "type": "string"
        },
        {
          "internalType": "uint256",
          "name": "feeAmount",
          "type": "uint256"
        },
        {
          "internalType": "uint256",
          "name": "feeDecimals",
          "type": "uint256"
        },
        {
          "internalType": "enum Library.PaymentPlans",
          "name": "paymentPlan",
          "type": "uint8"
        }
      ],
      "name": "requestIssuer",
      "outputs": [],
      "stateMutability": "nonpayable",
      "type": "function"
    },
    {
      "inputs": [
        {
          "internalType": "uint256",
          "name": "id",
          "type": "uint256"
        }
      ],
      "name": "validateIssuer",
      "outputs": [],
      "stateMutability": "nonpayable",
      "type": "function"
    },
    {
      "inputs": [
        {
          "internalType": "uint256",
          "name": "id",
          "type": "uint256"
        }
      ],
      "name": "rejectIssuer",
      "outputs": [],
      "stateMutability": "nonpayable",
      "type": "function"
    },
    {
      "inputs": [],
      "name": "retrieveIssuers",
      "outputs": [
        {
          "internalType": "uint256[]",
          "name": "",
          "type": "uint256[]"
        }
      ],
      "stateMutability": "view",
      "type": "function",
      "constant": true
    },
    {
      "inputs": [
        {
          "internalType": "uint256",
          "name": "id",
          "type": "uint256"
        }
      ],
      "name": "retrieveNFTMarketForIssuer",
      "outputs": [
        {
          "internalType": "address",
          "name": "",
          "type": "address"
        }
      ],
      "stateMutability": "view",
      "type": "function",
      "constant": true
    },
    {
      "inputs": [],
      "name": "retrievePendingIssuers",
      "outputs": [
        {
          "internalType": "uint256[]",
          "name": "",
          "type": "uint256[]"
        }
      ],
      "stateMutability": "view",
      "type": "function",
      "constant": true
    },
    {
      "inputs": [
        {
          "internalType": "uint256",
          "name": "id",
          "type": "uint256"
        }
      ],
      "name": "retrievePendingIssuer",
      "outputs": [
        {
          "components": [
            {
              "components": [
                {
                  "internalType": "address",
                  "name": "_owner",
                  "type": "address"
                },
                {
                  "internalType": "string",
                  "name": "_name",
                  "type": "string"
                },
                {
                  "internalType": "string",
                  "name": "_symbol",
                  "type": "string"
                },
                {
                  "internalType": "uint256",
                  "name": "_feeAmount",
                  "type": "uint256"
                },
                {
                  "internalType": "uint256",
                  "name": "_feeDecimals",
                  "type": "uint256"
                },
                {
                  "internalType": "enum Library.PaymentPlans",
                  "name": "_paymentPlan",
                  "type": "uint8"
                }
              ],
              "internalType": "struct ItemsLibrary._issuerStruct",
              "name": "_issuer",
              "type": "tuple"
            },
            {
              "internalType": "uint256",
              "name": "_pendingId",
              "type": "uint256"
            },
            {
              "internalType": "uint256",
              "name": "_validations",
              "type": "uint256"
            },
            {
              "internalType": "uint256",
              "name": "_rejections",
              "type": "uint256"
            },
            {
              "internalType": "address[]",
              "name": "_voters",
              "type": "address[]"
            }
          ],
          "internalType": "struct IPool._pendingIssuerStruct",
          "name": "",
          "type": "tuple"
        }
      ],
      "stateMutability": "view",
      "type": "function",
      "constant": true
    },
    {
      "inputs": [
        {
          "internalType": "address",
          "name": "addr",
          "type": "address"
        },
        {
          "internalType": "uint256",
          "name": "amount",
          "type": "uint256"
        }
      ],
      "name": "sendCredit",
      "outputs": [],
      "stateMutability": "nonpayable",
      "type": "function"
    },
    {
      "inputs": [
        {
          "internalType": "uint256",
          "name": "NFTMarketId",
          "type": "uint256"
        },
        {
          "internalType": "uint256",
          "name": "tokenID",
          "type": "uint256"
        },
        {
          "internalType": "address[]",
          "name": "addrs",
          "type": "address[]"
        },
        {
          "internalType": "uint256[]",
          "name": "amounts",
          "type": "uint256[]"
        },
        {
          "internalType": "uint256[]",
          "name": "factors",
          "type": "uint256[]"
        }
      ],
      "name": "addCredit",
      "outputs": [],
      "stateMutability": "nonpayable",
      "type": "function"
    },
    {
      "inputs": [
        {
          "internalType": "uint256",
          "name": "NFTMarketId",
          "type": "uint256"
        },
        {
          "internalType": "uint256",
          "name": "tokenID",
          "type": "uint256"
        },
        {
          "internalType": "address",
          "name": "addr",
          "type": "address"
        },
        {
          "internalType": "uint256",
          "name": "amount",
          "type": "uint256"
        }
      ],
      "name": "reuseCredit",
      "outputs": [],
      "stateMutability": "nonpayable",
      "type": "function"
    },
    {
      "inputs": [
        {
          "internalType": "uint256",
          "name": "amount",
          "type": "uint256"
        }
      ],
      "name": "withdraw",
      "outputs": [],
      "stateMutability": "nonpayable",
      "type": "function"
    },
    {
      "inputs": [],
      "name": "withdrawAll",
      "outputs": [],
      "stateMutability": "nonpayable",
      "type": "function"
    },
    {
      "inputs": [
        {
          "internalType": "uint256",
          "name": "NFTMarketId",
          "type": "uint256"
        },
        {
          "internalType": "address",
          "name": "addr",
          "type": "address"
        }
      ],
      "name": "withdrawAllFor",
      "outputs": [],
      "stateMutability": "nonpayable",
      "type": "function"
    },
    {
      "inputs": [
        {
          "internalType": "address",
          "name": "addr",
          "type": "address"
        }
      ],
      "name": "retrieveCredit",
      "outputs": [
        {
          "internalType": "uint256",
          "name": "",
          "type": "uint256"
        }
      ],
      "stateMutability": "view",
      "type": "function",
      "constant": true
    }
  ],
  "bytecode": "0x608060405234801561001057600080fd5b50615528806100206000396000f3fe60806040523480156200001157600080fd5b50600436106200018a5760003560e01c806303231e5d146200018f578063062a080014620001d3578063094a0ed214620001ec5780630bee185e1462000212578063173825d91462000229578063280931e714620002405780632e1a7d4d14620002575780632edbe7fc146200026e5780632f02a3ec146200028157806330ade922146200029857806334f2920714620002a2578063430c37cb14620002b9578063501781e814620002d0578063538b6aad14620002e75780635888ebb314620003005780635b362e84146200031b57806365b973e5146200032d5780636b29960414620003365780637065cb48146200035c57806376f8f90f1462000373578063853828b6146200038a57806391c0734b1462000394578063a93d5ed614620003ab578063c3079ae714620003b5578063c50afbcd14620003bf578063c66433ea14620003d6578063ce33d58a14620003ed578063d0e139181462000404578063eec42872146200040e578063f3882e3a1462000425575b600080fd5b620001bb620001a036600462004389565b6000908152600b60205260409020546001600160a01b031690565b604051620001ca919062004542565b60405180910390f35b620001ea620001e4366004620043d6565b6200043c565b005b62000203620001fd36600462004389565b620005f7565b604051620001ca91906200484f565b620001ea6200022336600462004174565b62000845565b620001ea6200023a36600462003f3d565b620009b7565b620001ea6200025136600462004389565b620009fa565b620001ea6200026836600462004389565b62000a0a565b6006545b604051908152602001620001ca565b620001ea6200029236600462004056565b62000a18565b620001ea62000b57565b620001ea620002b336600462004389565b62000b65565b620001ea620002ca366004620041bc565b62000b72565b620001ea620002e136600462004027565b62000c04565b620002f162000f34565b604051620001ca9190620046f8565b6200030a62000f8e565b604051620001ca939291906200493a565b600a546001600160a01b0316620001bb565b60055462000272565b6200034d62000347366004620042b0565b62001004565b604051620001ca9190620046e3565b620001ea6200036d36600462003f3d565b620010cd565b620001ea6200038436600462003f3d565b620010e9565b620001ea62001141565b620001ea620003a536600462004418565b620011e8565b6200034d6200148d565b620001ea620014f2565b620001ea620003d036600462003f7d565b620014fe565b620001ea620003e736600462004389565b62001c5e565b620001ea620003fe36600462003f3d565b62001cb5565b620002f162001cc2565b620001ea6200041f366004620043a3565b62001d1a565b620002726200043636600462003f3d565b62001dd7565b83336200044a828262001e7d565b858562000458828262001f00565b73__ItemsLibrary__________________________63c2f0480e600f6000896001600160a01b03166001600160a01b0316815260200190815260200160002087600080600a60009054906101000a90046001600160a01b03166001600160a01b031663e220ad956040518163ffffffff1660e01b815260040160006040518083038186803b158015620004ea57600080fd5b505afa158015620004ff573d6000803e3d6000fd5b505050506040513d6000823e601f3d908101601f19168201604052620005299190810190620040c9565b6006815181106200053e576200053e62004b0e565b60200260200101516040518663ffffffff1660e01b8152600401620005689594939291906200480b565b60006040518083038186803b1580156200058157600080fd5b505af415801562000596573d6000803e3d6000fd5b50505050620005a788888762001f7f565b856001600160a01b031687897fcc2a96ca4f9d89cc3dbd73baa3b6e6d19a2502464e6b9a28e0a9b9b11808bb3488604051620005e591815260200190565b60405180910390a45050505050505050565b6200060162003c67565b6000828152600d6020526040908190208151610160810190925280546001600160a01b031660a08301908152600182018054849291849160c085019190620006499062004a87565b80601f0160208091040260200160405190810160405280929190818152602001828054620006779062004a87565b8015620006c85780601f106200069c57610100808354040283529160200191620006c8565b820191906000526020600020905b815481529060010190602001808311620006aa57829003601f168201915b50505050508152602001600282018054620006e39062004a87565b80601f0160208091040260200160405190810160405280929190818152602001828054620007119062004a87565b8015620007625780601f10620007365761010080835404028352916020019162000762565b820191906000526020600020905b8154815290600101906020018083116200074457829003601f168201915b50505091835250506003820154602082015260048201546040820152600582015460609091019060ff166001811115620007a057620007a062004af8565b6001811115620007b457620007b462004af8565b815250508152602001600682015481526020016007820154815260200160088201548152602001600982018054806020026020016040519081016040528092919081815260200182805480156200083557602002820191906000526020600020905b81546001600160a01b0316815260019091019060200180831162000816575b5050505050815250509050919050565b600054610100900460ff16620008625760005460ff161562000866565b303b155b6200088e5760405162461bcd60e51b8152600401620008859062004772565b60405180910390fd5b600054610100900460ff16158015620008b1576000805461ffff19166101011790555b818351620008c0828262001f9b565b600184620008cf828262001f9b565b600586905560005b87518110156200099a5760018060000160008a8481518110620008fe57620008fe62004b0e565b6020908102919091018101516001600160a01b03168252810191909152604001600020805460ff191691151591909117905587516002908990839081106200094a576200094a62004b0e565b60209081029190910181015182546001810184556000938452919092200180546001600160a01b0319166001600160a01b0390921691909117905580620009918162004ac4565b915050620008d7565b50505050508015620009b2576000805461ff00191690555b505050565b806001620009c6828262001fbe565b600554600254620009da9060019062004a3e565b620009e6828262001f9b565b620009f385600462002017565b5050505050565b62000a07816001620020ab565b50565b62000a07338260006200250f565b3373__Library_______________________________6337ea306382600a60009054906101000a90046001600160a01b03166001600160a01b031663e220ad956040518163ffffffff1660e01b815260040160006040518083038186803b15801562000a8357600080fd5b505afa15801562000a98573d6000803e3d6000fd5b505050506040513d6000823e601f3d908101601f1916820160405262000ac29190810190620040c9565b60068151811062000ad75762000ad762004b0e565b60200260200101516040518363ffffffff1660e01b815260040162000b129291906001600160a01b0392831681529116602082015260400190565b60006040518083038186803b15801562000b2b57600080fd5b505af415801562000b40573d6000803e3d6000fd5b5050505062000b51848484620026e1565b50505050565b62000b63600162002b06565b565b62000a07816000620020ab565b600054610100900460ff1662000b8f5760005460ff161562000b93565b303b155b62000bb25760405162461bcd60e51b8152600401620008859062004772565b600054610100900460ff1615801562000bd5576000805461ffff19166101011790555b62000be1848462000845565b62000bec8262002c6c565b801562000b51576000805461ff001916905550505050565b60408051600380825260808201909252600091602082016060803683375050604051631635719760e31b81526000600482015291925073__UintLibrary___________________________9163b1ab8cb8915060240160206040518083038186803b15801562000c7357600080fd5b505af415801562000c88573d6000803e3d6000fd5b505050506040513d601f19601f8201168201806040525081019062000cae9190620042f0565b8160008151811062000cc45762000cc462004b0e565b602090810291909101015260405163bc215e8560e01b815273__AddressLibrary________________________9063bc215e859062000d0890869060040162004542565b60206040518083038186803b15801562000d2157600080fd5b505af415801562000d36573d6000803e3d6000fd5b505050506040513d601f19601f8201168201806040525081019062000d5c9190620042f0565b8160018151811062000d725762000d7262004b0e565b6020908102919091010152604051632431a7cf60e01b815260009073__Library_______________________________90632431a7cf9062000db9908590600401620046f8565b60006040518083038186803b15801562000dd257600080fd5b505af415801562000de7573d6000803e3d6000fd5b505050506040513d6000823e601f3d908101601f1916820160405262000e1191908101906200430a565b90506000600a60009054906101000a90046001600160a01b03166001600160a01b031663e220ad956040518163ffffffff1660e01b815260040160006040518083038186803b15801562000e6457600080fd5b505afa15801562000e79573d6000803e3d6000fd5b505050506040513d6000823e601f3d908101601f1916820160405262000ea39190810190620040c9565b60068151811062000eb85762000eb862004b0e565b60200260200101519050806001600160a01b031663e2ebbabe3330876000876040518663ffffffff1660e01b815260040162000ef9959493929190620045cc565b600060405180830381600087803b15801562000f1457600080fd5b505af115801562000f29573d6000803e3d6000fd5b505050505050505050565b6060600e80548060200260200160405190810160405280929190818152602001828054801562000f8457602002820191906000526020600020905b81548152602001906001019080831162000f6f575b5050505050905090565b600080606060075460085460098080548060200260200160405190810160405280929190818152602001828054801562000ff257602002820191906000526020600020905b81546001600160a01b0316815260019091019060200180831162000fd3575b50505050509050925092509250909192565b606081156200106e5760038054604080516020808402820181019092528281529291908301828280156200106257602002820191906000526020600020905b81546001600160a01b0316815260019091019060200180831162001043575b50505050509050919050565b600480546040805160208084028201810190925282815292919083018282801562001062576020028201919060005260206000209081546001600160a01b03168152600190910190602001808311620010435750505050509050919050565b806000620010dc828262001fbe565b620009b283600362002017565b620010f48162002cf0565b1515600114156200113457600254620011109060019062004a3e565b6005541115620011345760405162461bcd60e51b8152600401620008859062004753565b62000a0781600162002d75565b336000908152600f602052604080822090516326162dc360e01b8152600481019190915273__ItemsLibrary__________________________906326162dc39060240160206040518083038186803b1580156200119d57600080fd5b505af4158015620011b2573d6000803e3d6000fd5b505050506040513d601f19601f82011682018060405250810190620011d89190620042f0565b905062000a07338260006200250f565b8733620011f6828262001e7d565b60008a81526010602090815260408083208c84528252918290205482518883028181018401909452888152909290918991899182919085019084908082843760009201919091525050604080516020808a02828101820190935289825290935089925088918291850190849080828437600092019190915250620012829250859150849050836200321e565b898614620012a45760405162461bcd60e51b81526004016200088590620047c0565b60005b8a811015620014615773__ItemsLibrary__________________________6338335327600f60008f8f86818110620012e357620012e362004b0e565b9050602002016020810190620012fa919062003f3d565b6001600160a01b03166001600160a01b031681526020019081526020016000208c8c858181106200132f576200132f62004b0e565b905060200201358b8b868181106200134b576200134b62004b0e565b905060200201356040518463ffffffff1660e01b8152600401620013729392919062004839565b60006040518083038186803b1580156200138b57600080fd5b505af4158015620013a0573d6000803e3d6000fd5b505050508b8b82818110620013b957620013b962004b0e565b9050602002016020810190620013d0919062003f3d565b6001600160a01b03168d8f7f1f0966cb4dbc8738200b37503c6989e77e4e56383816b0632219dbc8c241b8b78d8d8681811062001411576200141162004b0e565b905060200201358c8c878181106200142d576200142d62004b0e565b90506020020135604051620014449291906200492c565b60405180910390a480620014588162004ac4565b915050620012a7565b50505060009a8b525050601060209081526040808b20998b529890525050509385209490945550505050565b60606001800180548060200260200160405190810160405280929190818152602001828054801562000f8457602002820191906000526020600020905b81546001600160a01b03168152600190910190602001808311620014ca575050505050905090565b62000b63600062002b06565b856001600160a01b038116620015635760405162461bcd60e51b8152602060048201526024808201527f4e4654204d61726b6574206f776e65722063616e6e6f742062652061646472656044820152630737320360e41b606482015260840162000885565b838373__Library_______________________________63bdbff48783836040518363ffffffff1660e01b8152600401620015a09291906200492c565b60006040518083038186803b158015620015b957600080fd5b505af4158015620015ce573d6000803e3d6000fd5b505050506000600a60009054906101000a90046001600160a01b03166001600160a01b031663e220ad956040518163ffffffff1660e01b815260040160006040518083038186803b1580156200162357600080fd5b505afa15801562001638573d6000803e3d6000fd5b505050506040513d6000823e601f3d908101601f19168201604052620016629190810190620040c9565b60028151811062001677576200167762004b0e565b60200260200101516001600160a01b031663b049473f6040518163ffffffff1660e01b815260040160006040518083038186803b158015620016b857600080fd5b505afa158015620016cd573d6000803e3d6000fd5b505050506040513d6000823e601f3d908101601f19168201604052620016f791908101906200421c565b9050600081818151811062001710576200171062004b0e565b602002602001015190506000826001600881111562001733576200173362004af8565b8151811062001746576200174662004b0e565b602002602001015190506000600a60009054906101000a90046001600160a01b03166001600160a01b031663e220ad956040518163ffffffff1660e01b815260040160006040518083038186803b158015620017a157600080fd5b505afa158015620017b6573d6000803e3d6000fd5b505050506040513d6000823e601f3d908101601f19168201604052620017e09190810190620040c9565b600681518110620017f557620017f562004b0e565b60200260200101519050806001600160a01b031663e2ebbabe33600a60009054906101000a90046001600160a01b03166001600160a01b031663e220ad956040518163ffffffff1660e01b815260040160006040518083038186803b1580156200185e57600080fd5b505afa15801562001873573d6000803e3d6000fd5b505050506040513d6000823e601f3d908101601f191682016040526200189d9190810190620040c9565b600281518110620018b257620018b262004b0e565b6020026020010151866000604051806020016040528060008152506040518663ffffffff1660e01b8152600401620018ef959493929190620045cc565b600060405180830381600087803b1580156200190a57600080fd5b505af11580156200191f573d6000803e3d6000fd5b50505050806001600160a01b031663e2ebbabe33600a60009054906101000a90046001600160a01b03166001600160a01b031663e220ad956040518163ffffffff1660e01b815260040160006040518083038186803b1580156200198257600080fd5b505afa15801562001997573d6000803e3d6000fd5b505050506040513d6000823e601f3d908101601f19168201604052620019c19190810190620040c9565b600581518110620019d657620019d662004b0e565b6020026020010151856000604051806020016040528060008152506040518663ffffffff1660e01b815260040162001a13959493929190620045cc565b600060405180830381600087803b15801562001a2e57600080fd5b505af115801562001a43573d6000803e3d6000fd5b50508d5160208f01206000925090506000818152600d60205260409020549091506001600160a01b031615801562001a9057506000818152600b60205260409020546001600160a01b0316155b62001aee5760405162461bcd60e51b815260206004820152602760248201527f5468697320497373756572204e616d652068617320616c72656164792062656560448201526637103a30b5b2b760c91b606482015260840162000885565b8d600d600083815260200190815260200160002060000160000160006101000a8154816001600160a01b0302191690836001600160a01b031602179055508c600d6000838152602001908152602001600020600001600101908051906020019062001b5b92919062003c9e565b506000818152600d602090815260409091208d5162001b83926002909201918f019062003c9e565b506000818152600d60205260409020600381018c9055600481018b905560050180548a919060ff19166001838181111562001bc25762001bc262004af8565b0217905550600e80549050600d600083815260200190815260200160002060060181905550600e819080600181540180825580915050600190039060005260206000200160009091909190915055807f88d341cdb636e2cf41b99330be584ef11888487c9b2aef53410ed90fb2c487ad8f8f8f60405162001c46939291906200469f565b60405180910390a25050505050505050505050505050565b33600162001c6d828262001fbe565b600062001c7a81620033d1565b600254849062001c8b828262001f9b565b60018662001c9a828262001f9b565b600688905562001cab600162002b06565b5050505050505050565b62000a0781600062002d75565b6060600c80548060200260200160405190810160405280929190818152602001828054801562000f84576020028201919060005260206000209081548152602001906001019080831162000f6f575050505050905090565b813362001d28828262001e7d565b6001600160a01b0383166000908152600f602052604080822090516326162dc360e01b8152600481019190915273__ItemsLibrary__________________________906326162dc39060240160206040518083038186803b15801562001d8d57600080fd5b505af415801562001da2573d6000803e3d6000fd5b505050506040513d601f19601f8201168201806040525081019062001dc89190620042f0565b9050620009f38482336200250f565b6001600160a01b0381166000908152600f602052604080822090516326162dc360e01b8152600481019190915273__ItemsLibrary__________________________906326162dc39060240160206040518083038186803b15801562001e3c57600080fd5b505af415801562001e51573d6000803e3d6000fd5b505050506040513d601f19601f8201168201806040525081019062001e779190620042f0565b92915050565b6000828152600b60205260409020546001600160a01b0382811691161462001efc5760405162461bcd60e51b815260206004820152602b60248201527f546865204d61726b657420496420616e64204164647265737320646f206e6f7460448201526a0818dbdc9c995cdc1bdb9960aa1b606482015260840162000885565b5050565b60008281526010602090815260408083208484529091529020541562001efc5760405162461bcd60e51b815260206004820152602d60248201527f556e61737369676e65642063726564697420666f72207468697320746f6b656e60448201526c206973206e6f7420656d70747960981b606482015260840162000885565b6000928352601060209081526040808520938552929052912055565b8082111562001efc5760405162461bcd60e51b8152600401620008859062004753565b6001600160a01b03821660009081526001602052604090205460ff1615158115151462001efc5760405162461bcd60e51b815260040162000885906020808252600490820152634543392d60e01b604082015260600190565b33600162002026828262001fbe565b8360006200203582826200344b565b84546001808201875560008781526020812090920180546001600160a01b0319166001600160a01b038a16179055865462002071919062004a3e565b6001600160a01b0388166000908152600160208190526040909120600201829055909150620020a290889062002d75565b50505050505050565b336001620020ba828262001fbe565b6000848152600d602090815260409182902060090180548351818402810184019094528084523393928301828280156200211e57602002820191906000526020600020905b81546001600160a01b03168152600190910190602001808311620020ff575b50505050506200212f8282620034a4565b6000868152600d602052604090205486906001600160a01b0316620021975760405162461bcd60e51b815260206004820152601d60248201527f5468697320697373756572206964206973206e6f742070656e64696e67000000604482015260640162000885565b60408051338152871515602082015288917f5a1a88bd27a0cf1c470b27b132493e61efc1eaf3d1b57db0ab7f73182345d047910160405180910390a26000878152600d602090815260408220600901805460018101825590835291200180546001600160a01b03191633179055851562002491576000878152600d602052604081206007018054916200222a8362004ac4565b90915550506005546000888152600d6020526040902060070154106200248b57600c805460018181019092557fdf6966c971051c3d54ec59162606531493a51404a002842f56009d7e5cf4a8c7018890556000888152600d60205260409020805491018054620023ff926001600160a01b03169190620022aa9062004a87565b80601f0160208091040260200160405190810160405280929190818152602001828054620022d89062004a87565b8015620023295780601f10620022fd5761010080835404028352916020019162002329565b820191906000526020600020905b8154815290600101906020018083116200230b57829003601f168201915b50505060008c8152600d6020526040902060020180549092506200234e915062004a87565b80601f01602080910402602001604051908101604052809291908181526020018280546200237c9062004a87565b8015620023cd5780601f10620023a157610100808354040283529160200191620023cd565b820191906000526020600020905b815481529060010190602001808311620023af57829003601f168201915b50505060008d8152600d60205260409020600381015460048201546005909201549093509091508d9060ff166200356b565b6000888152600b6020526040902080546001600160a01b0319166001600160a01b0392909216919091179055620024368762003823565b6000878152600b60205260409081902054905188917f2cedba2f59ec9c6a70e350caabb40ea15150e2bd297a517df51c1fbdbeacad399162002482916001600160a01b03169062004542565b60405180910390a25b620020a2565b6000878152600d60205260408120600801805491620024b08362004ac4565b90915550506005546000888152600d602052604090206008015410620020a257620024db8762003823565b60405187907f403eabfde87045e1433576679912c142f6e51573d2635748e5331c62fbcfecc190600090a250505050505050565b6001600160a01b038084166000908152600f6020526040808220600a54825163e220ad9560e01b8152925173__ItemsLibrary__________________________9563c2f0480e95939489948b9460019493169263e220ad95926004808201939291829003018186803b1580156200258557600080fd5b505afa1580156200259a573d6000803e3d6000fd5b505050506040513d6000823e601f3d908101601f19168201604052620025c49190810190620040c9565b600681518110620025d957620025d962004b0e565b60200260200101516040518663ffffffff1660e01b8152600401620026039594939291906200480b565b60006040518083038186803b1580156200261c57600080fd5b505af415801562002631573d6000803e3d6000fd5b505050506001600160a01b038116156200269857806001600160a01b0316836001600160a01b03167f3a7f8bf3f0d95026e8cd9a7d4ab518248a380c6e63e2611c19c360d4ed07469a846040516200268b91815260200190565b60405180910390a3505050565b826001600160a01b03167f2ea7968b99b8c24c37e3919ac458cdbab6b3d63ff9e271eddd29661aae4f769183604051620026d491815260200190565b60405180910390a2505050565b60405163caa8f58960e01b815260009073__Library_______________________________9063caa8f589906200271d9085906004016200473e565b60006040518083038186803b1580156200273657600080fd5b505af41580156200274b573d6000803e3d6000fd5b505050506040513d6000823e601f3d908101601f191682016040526200277591908101906200421c565b90506000816000815181106200278f576200278f62004b0e565b602002602001015160001c6001811115620027ae57620027ae62004af8565b9050806001811115620027c557620027c562004af8565b6200295657600073__AddressLibrary________________________63f4ce9ae884600181518110620027fc57620027fc62004b0e565b60200260200101516040518263ffffffff1660e01b81526004016200282391815260200190565b60206040518083038186803b1580156200283c57600080fd5b505af415801562002851573d6000803e3d6000fd5b505050506040513d601f19601f8201168201806040525081019062002877919062003f5d565b6001600160a01b0381166000908152600f6020526040908190209051633833532760e01b815291925073__ItemsLibrary__________________________91633833532791620028cf91899060019060040162004839565b60006040518083038186803b158015620028e857600080fd5b505af4158015620028fd573d6000803e3d6000fd5b50505050856001600160a01b0316816001600160a01b03167f2db0422b7b00320178055968e2ebe34d54d66b98f662782bec28aaddcf8697e9876040516200294791815260200190565b60405180910390a350620009f3565b600073__UintLibrary___________________________630bd4715e8460018151811062002988576200298862004b0e565b60200260200101516040518263ffffffff1660e01b8152600401620029af91815260200190565b60206040518083038186803b158015620029c857600080fd5b505af4158015620029dd573d6000803e3d6000fd5b505050506040513d601f19601f8201168201806040525081019062002a039190620042f0565b9050600073__UintLibrary___________________________630bd4715e8560028151811062002a375762002a3762004b0e565b60200260200101516040518263ffffffff1660e01b815260040162002a5e91815260200190565b60206040518083038186803b15801562002a7757600080fd5b505af415801562002a8c573d6000803e3d6000fd5b505050506040513d601f19601f8201168201806040525081019062002ab29190620042f0565b905062002ac182828862001f7f565b80827f11d40ce091479b07ca14dc778720652f2760dc3237903b19ab5698a7cf478bcb8860405162002af591815260200190565b60405180910390a350505050505050565b33600162002b15828262001fbe565b600162002b2281620033d1565b33600980548060200260200160405190810160405280929190818152602001828054801562002b7b57602002820191906000526020600020905b81546001600160a01b0316815260019091019060200180831162002b5c575b505050505062002b8c8282620034a4565b851562002bb45760016007600082825462002ba89190620049de565b9091555062002bcf9050565b60016008600082825462002bc99190620049de565b90915550505b600980546001810182556000919091527f6e1540171b6c0c960b71a7020d9f60077f6af931a8bbf590da0223dacf75c7af018054336001600160a01b031990911681179091556006546040805191825260208201929092528715158183015290517fb335599a2dd1eaaedeb810215d45e667a6c5ac7bcfd03c29e597db8bf0cddcc69181900360600190a162002c6462003973565b505050505050565b600054610100900460ff1662002c895760005460ff161562002c8d565b303b155b62002cac5760405162461bcd60e51b8152600401620008859062004772565b600054610100900460ff1615801562002ccf576000805461ffff19166101011790555b62002cda8262003a19565b801562001efc576000805461ff00191690555050565b6004546001600160a01b03821660009081526001602052604081206002015490911162002d1f57506000919050565b6001600160a01b03821660009081526001602052604090206002015460048054909190811062002d535762002d5362004b0e565b6000918252602090912001546001600160a01b03928316921691909114919050565b33600162002d84828262001fbe565b83600162002d9382826200344b565b6001600160a01b038616600090815260016020908152604091829020600501805483518184028101840190945280845233939283018282801562002e0157602002820191906000526020600020905b81546001600160a01b0316815260019091019060200180831162002de2575b505050505062002e128282620034a4565b604080516001600160a01b038a1681523360208201528815158183015290517fc6f241efc3de3ce31d0e682102cc781f0605f0f90d72addfea699e4aea85dd799181900360600190a16001600160a01b038816600090815260016020818152604083206005018054928301815583529091200180546001600160a01b0319163317905586156200312e576001600160a01b038816600090815260016020526040812060030180549162002ec58362004ac4565b90915550506005546001600160a01b038916600090815260016020526040902060030154106200312857600462002efc8962003aad565b1562002fd5575060028054600180820183557f405787fa12a823e0f2b7631cc41b3ba8828b3321ca811111fa75cd3aa3bb5ace90910180546001600160a01b0319166001600160a01b038c169081179091556000908152602082905260409020805460ff191682179055905460039162002f769162004a3e565b6001600160a01b038a166000908152600160208190526040918290200191909155517f45bbe5ceeddcb6d0b4045349efc87a3fde966578e3970cda6f53bfc76efaf9f79062002fc7908b9062004542565b60405180910390a16200311a565b6001600160a01b03891660009081526001602081905260409182902001549051633c39c19f60e11b815273__AddressLibrary________________________90637873833e906200302e9084906002906004016200492c565b60006040518083038186803b1580156200304757600080fd5b505af41580156200305c573d6000803e3d6000fd5b50506002548310159150620030b690505780600160000160006001800184815481106200308d576200308d62004b0e565b60009182526020808320909101546001600160a01b031683528201929092526040019020600101555b6001600160a01b038a166000908152600160208190526040808320805460ff1916815590910191909155517f82bcab3b042f3e2143a9d33d07fa130afdf763f17a45679670f0e39f12064ca89062003110908c9062004542565b60405180910390a1505b62003126898262003b10565b505b62001cab565b6001600160a01b0388166000908152600160205260408120600401805491620031578362004ac4565b90915550506005546001600160a01b0389166000908152600160205260409020600401541062001cab5760046200318e8962003aad565b15620031d857506040516003907f622a69297177c029df8c1ba7f4d2d59881089b571ae96800e634aff50d67492e90620031ca908b9062004542565b60405180910390a162003212565b7f547e31c58b802b63bc89f1109a132a291b0527c9196c97759829aeaecd3c2d398960405162003209919062004542565b60405180910390a15b62000f29898262003b10565b8051825114620032425760405162461bcd60e51b81526004016200088590620047c0565b604051633c952fb360e21b815260009073__UintLibrary___________________________9063f254becc906200327e908590600401620046f8565b60206040518083038186803b1580156200329757600080fd5b505af4158015620032ac573d6000803e3d6000fd5b505050506040513d601f19601f82011682018060405250810190620032d29190620042f0565b90506000805b83518110156200335857838181518110620032f757620032f762004b0e565b60200260200101518386838151811062003315576200331562004b0e565b602002602001015162003329919062004a1c565b620033359190620049f9565b620033419083620049de565b9150806200334f8162004ac4565b915050620032d8565b508062003366838762004a1c565b14620009f35760405162461bcd60e51b815260206004820152603360248201527f74686520746f74616c20616d6f756e74206973206e6f7420657175616c20746f604482015272207468652063616c63756c61746564206f6e6560681b606482015260840162000885565b8015620034115760065462000a075760405162461bcd60e51b8152602060048201526005602482015264454333312d60d81b604482015260640162000885565b6006541562000a075760405162461bcd60e51b8152602060048201526005602482015264454333302d60d81b604482015260640162000885565b620034568262003aad565b80620034685750620034688262002cf0565b15158115151462001efc5760405162461bcd60e51b8152602060048201526005602482015264454331302d60d81b604482015260640162000885565b60405163f7cf62d760e01b815273__AddressLibrary________________________9063f7cf62d790620034df908590859060040162004613565b60206040518083038186803b158015620034f857600080fd5b505af41580156200350d573d6000803e3d6000fd5b505050506040513d601f19601f82011682018060405250810190620035339190620042d0565b1562001efc5760405162461bcd60e51b815260040162000885906020808252600490820152634543352d60e01b604082015260600190565b600080600a60009054906101000a90046001600160a01b03166001600160a01b031663efd621de6040518163ffffffff1660e01b815260040160006040518083038186803b158015620035bd57600080fd5b505afa158015620035d2573d6000803e3d6000fd5b505050506040513d6000823e601f3d908101601f19168201604052620035fc9190810190620040c9565b60008151811062003611576200361162004b0e565b602002602001015190506000600a60009054906101000a90046001600160a01b03166001600160a01b031663e220ad956040518163ffffffff1660e01b815260040160006040518083038186803b1580156200366c57600080fd5b505afa15801562003681573d6000803e3d6000fd5b505050506040513d6000823e601f3d908101601f19168201604052620036ab9190810190620040c9565b600281518110620036c057620036c062004b0e565b60200260200101516001600160a01b031663b049473f6040518163ffffffff1660e01b815260040160006040518083038186803b1580156200370157600080fd5b505afa15801562003716573d6000803e3d6000fd5b505050506040513d6000823e601f3d908101601f191682016040526200374091908101906200421c565b60088151811062003755576200375562004b0e565b6020908102919091010151600a549091506000906001600160a01b03168b8b8b858c8c8c8c60018111156200378e576200378e62004af8565b604051602401620037a89998979695949392919062004556565b60408051601f198184030181529181526020820180516001600160e01b03166398a7541d60e01b1790525190915060009084908390620037e89062003d2d565b620037f592919062004671565b604051809103906000f08015801562003812573d6000803e3d6000fd5b509c9b505050505050505050505050565b6000818152600d60205260409081902060060154905163cffd93cd60e01b815273__UintLibrary___________________________9063cffd93cd9062003872908490600e906004016200492c565b60006040518083038186803b1580156200388b57600080fd5b505af4158015620038a0573d6000803e3d6000fd5b5050505080600e805490501115620038ee5780600d6000600e8481548110620038cd57620038cd62004b0e565b90600052602060002001548152602001908152602001600020600601819055505b6000828152600d6020526040812080546001600160a01b0319168155906200391a600183018262003d3b565b6200392a60028301600062003d3b565b50600060038201819055600482018190556005909101805460ff19169055828152600d60205260408120600781018290556008810182905562001efc9160099091019062003d7a565b6200398360075460055462003c2b565b15620039cf5760065460058190556040519081527f09cfdf09b84b5390e2f9e64a6b66bdfd4e3b7a611dfdd07cde2f5289ecdaace7906020015b60405180910390a162000b6362003c48565b620039df60085460055462003c2b565b1562000b63577f6005dc34d50a3e2ea64571b58119d8a81074b8e2db57a77c28e664641733308f600654604051620039bd91815260200190565b600054610100900460ff1662003a365760005460ff161562003a3a565b303b155b62003a595760405162461bcd60e51b8152600401620008859062004772565b600054610100900460ff1615801562003a7c576000805461ffff19166101011790555b600a80546001600160a01b0319166001600160a01b038416179055801562001efc576000805461ff00191690555050565b6003546001600160a01b03821660009081526001602052604081206002015490911162003adc57506000919050565b6001600160a01b03821660009081526001602052604090206002015460038054909190811062002d535762002d5362004b0e565b6001600160a01b03821660009081526001602052604090819020600201549051633c39c19f60e11b815273__AddressLibrary________________________90637873833e9062003b6890849086906004016200492c565b60006040518083038186803b15801562003b8157600080fd5b505af415801562003b96573d6000803e3d6000fd5b50505050808280549050111562003bed57806001600001600084848154811062003bc45762003bc462004b0e565b60009182526020808320909101546001600160a01b031683528201929092526040019020600201555b6001600160a01b0383166000908152600160205260408120600281018290556003810182905560048101829055620009b29160059091019062003d7a565b60008183101562003c3f5750600062001e77565b50600192915050565b600060068190556007819055600881905562000b639060099062003d7a565b6040518060a0016040528062003c7c62003d9a565b8152602001600081526020016000815260200160008152602001606081525090565b82805462003cac9062004a87565b90600052602060002090601f01602090048101928262003cd0576000855562003d1b565b82601f1062003ceb57805160ff191683800117855562003d1b565b8280016001018555821562003d1b579182015b8281111562003d1b57825182559160200191906001019062003cfe565b5062003d2992915062003dec565b5090565b6109938062004b6083390190565b50805462003d499062004a87565b6000825580601f1062003d5a575050565b601f01602090049060005260206000209081019062000a07919062003dec565b508054600082559060005260206000209081019062000a07919062003dec565b6040518060c0016040528060006001600160a01b03168152602001606081526020016060815260200160008152602001600081526020016000600181111562003de75762003de762004af8565b905290565b5b8082111562003d29576000815560010162003ded565b600062003e1a62003e1484620049b4565b6200495b565b905082815283838301111562003e2f57600080fd5b828260208301376000602084830101529392505050565b60008083601f84011262003e5957600080fd5b5081356001600160401b0381111562003e7157600080fd5b6020830191508360208260051b850101111562003e8d57600080fd5b9250929050565b600082601f83011262003ea657600080fd5b8135602062003eb962003e14836200498e565b80838252828201915082860187848660051b890101111562003eda57600080fd5b60005b8581101562003f0657813562003ef38162004b3a565b8452928401929084019060010162003edd565b5090979650505050505050565b600082601f83011262003f2557600080fd5b62003f368383356020850162003e03565b9392505050565b60006020828403121562003f5057600080fd5b813562003f368162004b3a565b60006020828403121562003f7057600080fd5b815162003f368162004b3a565b60008060008060008060c0878903121562003f9757600080fd5b863562003fa48162004b3a565b955060208701356001600160401b038082111562003fc157600080fd5b62003fcf8a838b0162003f13565b9650604089013591508082111562003fe657600080fd5b5062003ff589828a0162003f13565b945050606087013592506080870135915060a0870135600281106200401957600080fd5b809150509295509295509295565b600080604083850312156200403b57600080fd5b8235620040488162004b3a565b946020939093013593505050565b6000806000606084860312156200406c57600080fd5b8335620040798162004b3a565b92506020840135915060408401356001600160401b038111156200409c57600080fd5b8401601f81018613620040ae57600080fd5b620040bf8682356020840162003e03565b9150509250925092565b60006020808385031215620040dd57600080fd5b82516001600160401b03811115620040f457600080fd5b8301601f810185136200410657600080fd5b80516200411762003e14826200498e565b80828252848201915084840188868560051b87010111156200413857600080fd5b600094505b8385101562004168578051620041538162004b3a565b8352600194909401939185019185016200413d565b50979650505050505050565b600080604083850312156200418857600080fd5b82356001600160401b038111156200419f57600080fd5b620041ad8582860162003e94565b95602094909401359450505050565b600080600060608486031215620041d257600080fd5b83356001600160401b03811115620041e957600080fd5b620041f78682870162003e94565b935050602084013591506040840135620042118162004b3a565b809150509250925092565b600060208083850312156200423057600080fd5b82516001600160401b038111156200424757600080fd5b8301601f810185136200425957600080fd5b80516200426a62003e14826200498e565b80828252848201915084840188868560051b87010111156200428b57600080fd5b600094505b838510156200416857805183526001949094019391850191850162004290565b600060208284031215620042c357600080fd5b813562003f368162004b50565b600060208284031215620042e357600080fd5b815162003f368162004b50565b6000602082840312156200430357600080fd5b5051919050565b6000602082840312156200431d57600080fd5b81516001600160401b038111156200433457600080fd5b8201601f810184136200434657600080fd5b80516200435762003e1482620049b4565b8181528560208385010111156200436d57600080fd5b6200438082602083016020860162004a58565b95945050505050565b6000602082840312156200439c57600080fd5b5035919050565b60008060408385031215620043b757600080fd5b823591506020830135620043cb8162004b3a565b809150509250929050565b60008060008060808587031215620043ed57600080fd5b84359350602085013592506040850135620044088162004b3a565b9396929550929360600135925050565b60008060008060008060008060a0898b0312156200443557600080fd5b883597506020890135965060408901356001600160401b03808211156200445b57600080fd5b620044698c838d0162003e46565b909850965060608b01359150808211156200448357600080fd5b620044918c838d0162003e46565b909650945060808b0135915080821115620044ab57600080fd5b50620044ba8b828c0162003e46565b999c989b5096995094979396929594505050565b600081518084526020808501945080840160005b83811015620045095781516001600160a01b031687529582019590820190600101620044e2565b509495945050505050565b600081518084526200452e81602086016020860162004a58565b601f01601f19169290920160200192915050565b6001600160a01b0391909116815260200190565b6001600160a01b038a811682528916602082015261012060408201819052600090620045858382018b62004514565b905082810360608401526200459b818a62004514565b6080840198909852505060a081019490945260c084019290925260e083015260ff1661010090910152949350505050565b6001600160a01b03868116825285166020820152604081018490526060810183905260a060808201819052600090620046089083018462004514565b979650505050505050565b6001600160a01b038381168252604060208084018290528451918401829052600092858201929091906060860190855b818110156200466357855185168352948301949183019160010162004643565b509098975050505050505050565b6001600160a01b0383168152604060208201819052600090620046979083018462004514565b949350505050565b6001600160a01b0384168152606060208201819052600090620046c59083018562004514565b8281036040840152620046d9818562004514565b9695505050505050565b60208152600062003f366020830184620044ce565b6020808252825182820181905260009190848201906040850190845b81811015620047325783518352928401929184019160010162004714565b50909695505050505050565b60208152600062003f36602083018462004514565b602080825260059082015264454331392d60d81b604082015260600190565b6020808252602e908201527f496e697469616c697a61626c653a20636f6e747261637420697320616c72656160408201526d191e481a5b9a5d1a585b1a5e995960921b606082015260800190565b6020808252602b908201527f50726f76696465642061727261797320646f206e6f742068617665207468652060408201526a0e6c2daca40d8cadccee8d60ab1b606082015260800190565b94855260208501939093526001600160a01b0391821660408501521515606084015216608082015260a00190565b9283526020830191909152604082015260600190565b602081526000825160a0602084015260018060a01b0381511660c0840152602081015160c060e08501526200488961018085018262004514565b9050604082015160bf1985830301610100860152620048a9828262004514565b9150506060820151610120850152608082015161014085015260a0820151915060028210620048e857634e487b7160e01b600052602160045260246000fd5b8161016085015260208501516040850152604085015160608501526060850151608085015260808501519150601f198482030160a0850152620043808183620044ce565b918252602082015260400190565b838152826020820152606060408201526000620043806060830184620044ce565b604051601f8201601f191681016001600160401b038111828210171562004986576200498662004b24565b604052919050565b60006001600160401b03821115620049aa57620049aa62004b24565b5060051b60200190565b60006001600160401b03821115620049d057620049d062004b24565b50601f01601f191660200190565b60008219821115620049f457620049f462004ae2565b500190565b60008262004a1757634e487b7160e01b600052601260045260246000fd5b500490565b600081600019048311821515161562004a395762004a3962004ae2565b500290565b60008282101562004a535762004a5362004ae2565b500390565b60005b8381101562004a7557818101518382015260200162004a5b565b8381111562000b515750506000910152565b600181811c9082168062004a9c57607f821691505b6020821081141562004abe57634e487b7160e01b600052602260045260246000fd5b50919050565b600060001982141562004adb5762004adb62004ae2565b5060010190565b634e487b7160e01b600052601160045260246000fd5b634e487b7160e01b600052602160045260246000fd5b634e487b7160e01b600052603260045260246000fd5b634e487b7160e01b600052604160045260246000fd5b6001600160a01b038116811462000a0757600080fd5b801515811462000a0757600080fdfe608060405260405161099338038061099383398101604081905261002291610470565b61004d60017fa3f0ad74e5423aebfd80d3ef4346578335a9a72aeaee59ff6cb3582b35133d5161057f565b60008051602061094c83398151915214610069576100696105d0565b6100758282600061007c565b50506105fc565b61008583610156565b6040516001600160a01b038416907f1cf3b03a6cf19fa2baba4df148e9dcabedea7f8a5c07840e207e5c089be95d3e90600090a26000825111806100c65750805b156101515761014f836001600160a01b0316635c60da1b6040518163ffffffff1660e01b815260040160206040518083038186803b15801561010757600080fd5b505afa15801561011b573d6000803e3d6000fd5b505050506040513d601f19601f8201168201806040525081019061013f9190610455565b836102f660201b6100291760201c565b505b505050565b6101698161032260201b6100551760201c565b6101c85760405162461bcd60e51b815260206004820152602560248201527f455243313936373a206e657720626561636f6e206973206e6f74206120636f6e6044820152641d1c9858dd60da1b60648201526084015b60405180910390fd5b61024b816001600160a01b0316635c60da1b6040518163ffffffff1660e01b815260040160206040518083038186803b15801561020457600080fd5b505afa158015610218573d6000803e3d6000fd5b505050506040513d601f19601f8201168201806040525081019061023c9190610455565b61032260201b6100551760201c565b6102b05760405162461bcd60e51b815260206004820152603060248201527f455243313936373a20626561636f6e20696d706c656d656e746174696f6e206960448201526f1cc81b9bdd08184818dbdb9d1c9858dd60821b60648201526084016101bf565b806102d560008051602061094c83398151915260001b61032860201b61005b1760201c565b80546001600160a01b0319166001600160a01b039290921691909117905550565b606061031b838360405180606001604052806027815260200161096c6027913961032b565b9392505050565b3b151590565b90565b6060833b61038a5760405162461bcd60e51b815260206004820152602660248201527f416464726573733a2064656c65676174652063616c6c20746f206e6f6e2d636f6044820152651b9d1c9858dd60d21b60648201526084016101bf565b600080856001600160a01b0316856040516103a59190610530565b600060405180830381855af49150503d80600081146103e0576040519150601f19603f3d011682016040523d82523d6000602084013e6103e5565b606091505b5090925090506103f6828286610400565b9695505050505050565b6060831561040f57508161031b565b82511561041f5782518084602001fd5b8160405162461bcd60e51b81526004016101bf919061054c565b80516001600160a01b038116811461045057600080fd5b919050565b60006020828403121561046757600080fd5b61031b82610439565b6000806040838503121561048357600080fd5b61048c83610439565b60208401519092506001600160401b03808211156104a957600080fd5b818501915085601f8301126104bd57600080fd5b8151818111156104cf576104cf6105e6565b604051601f8201601f19908116603f011681019083821181831017156104f7576104f76105e6565b8160405282815288602084870101111561051057600080fd5b6105218360208301602088016105a4565b80955050505050509250929050565b600082516105428184602087016105a4565b9190910192915050565b602081526000825180602084015261056b8160408501602087016105a4565b601f01601f19169190910160400192915050565b60008282101561059f57634e487b7160e01b600052601160045260246000fd5b500390565b60005b838110156105bf5781810151838201526020016105a7565b8381111561014f5750506000910152565b634e487b7160e01b600052600160045260246000fd5b634e487b7160e01b600052604160045260246000fd5b6103418061060b6000396000f3fe60806040523661001357610011610017565b005b6100115b61002761002261005e565b610106565b565b606061004e83836040518060600160405280602781526020016102e56027913961012a565b9392505050565b3b151590565b90565b60006100917fa3f0ad74e5423aebfd80d3ef4346578335a9a72aeaee59ff6cb3582b35133d50546001600160a01b031690565b6001600160a01b0316635c60da1b6040518163ffffffff1660e01b815260040160206040518083038186803b1580156100c957600080fd5b505afa1580156100dd573d6000803e3d6000fd5b505050506040513d601f19601f82011682018060405250810190610101919061023c565b905090565b3660008037600080366000845af43d6000803e808015610125573d6000f35b3d6000fd5b6060833b61018e5760405162461bcd60e51b815260206004820152602660248201527f416464726573733a2064656c65676174652063616c6c20746f206e6f6e2d636f6044820152651b9d1c9858dd60d21b60648201526084015b60405180910390fd5b600080856001600160a01b0316856040516101a99190610265565b600060405180830381855af49150503d80600081146101e4576040519150601f19603f3d011682016040523d82523d6000602084013e6101e9565b606091505b50915091506101f9828286610203565b9695505050505050565b6060831561021257508161004e565b8251156102225782518084602001fd5b8160405162461bcd60e51b81526004016101859190610281565b60006020828403121561024e57600080fd5b81516001600160a01b038116811461004e57600080fd5b600082516102778184602087016102b4565b9190910192915050565b60208152600082518060208401526102a08160408501602087016102b4565b601f01601f19169190910160400192915050565b60005b838110156102cf5781810151838201526020016102b7565b838111156102de576000848401525b5050505056fe416464726573733a206c6f772d6c6576656c2064656c65676174652063616c6c206661696c6564a2646970667358221220148d20618ce0e4acd0b179dccf12503163fb589ddd8df806d6d9c09a8f4adc1064736f6c63430008070033a3f0ad74e5423aebfd80d3ef4346578335a9a72aeaee59ff6cb3582b35133d50416464726573733a206c6f772d6c6576656c2064656c65676174652063616c6c206661696c6564a26469706673582212208d55517900228f0103f9538236d7e80378c1a090a76b6d10dfe18f98204f4acd64736f6c63430008070033",
  "immutableReferences": {},
  "source": "// SPDX-License-Identifier: GPL-3.0\r\n\r\npragma solidity 0.8.7;\r\n\r\n/**\r\n Certis Token is an ERC20 Token that grants its holder the right to:\r\n   - Vote on all the systems propositions (changing system configuraiton etc...)\r\n   - Receive Dividends for all the payments forwarded to the Treasury contract\r\n\r\nBefore every token transfer we contact the token gouvernance Base contracts so that the can update the tokens used for voting if needed\r\n\r\n */\r\n\r\nimport \"@openzeppelin/contracts-upgradeable/proxy/utils/Initializable.sol\";\r\nimport \"../Interfaces/IPool.sol\";\r\nimport \"../Interfaces/ITreasury.sol\";\r\nimport \"../Base/MultiSigContract.sol\";\r\nimport \"../Libraries/ItemsLibrary.sol\";\r\nimport \"../Libraries/UintLibrary.sol\";\r\nimport \"../Libraries/Library.sol\";\r\nimport \"../Libraries/AddressLibrary.sol\";\r\nimport \"@openzeppelin/contracts/proxy/beacon/BeaconProxy.sol\";\r\nimport \"../Base/CreditorBaseContract.sol\";\r\nimport \"../Interfaces/IPayments.sol\";\r\n\r\n\r\n contract PublicPool is  Initializable, MultiSigContract, CreditorBaseContract, IPool {\r\n  using ItemsLibrary for *;\r\n  using UintLibrary for *;\r\n  using Library for *;\r\n  using AddressLibrary for *;\r\n\r\n\r\n  // EVENTS /////////////////////////////////////////\r\n  event _NewIssuerRequest(uint256 indexed id, address owner, string name, string symbol);\r\n  event _VoteForIssuer(uint256 indexed id, address voter, bool vote);\r\n  event _IssuerValidation(uint256 indexed id, address NFTMarket);\r\n  event _IssuerRejection(uint256 indexed id);\r\n\r\n  event _CreditReceived(address indexed receiver, uint256 amount, address indexed sender);\r\n  event _CreditUnAssignedReceived(uint256 indexed NFTMarketId, uint256 indexed tokenID, uint256 amount);\r\n  event _CreditAssigned(uint256 indexed NFTMarketId, uint256 indexed tokenID, address indexed receiver, uint256 amount, uint256 factor);\r\n  event _CreditReused(uint256 indexed NFTMarketId, uint256 indexed tokenID, address indexed creditor, uint256 amount);\r\n  event _CreditWithdrawn(address indexed withdrawer, uint256 amount);\r\n  event _CreditWithdrawnFor(address indexed withdrawer, uint256 amount, address indexed sender);\r\n\r\n\r\n  // DATA /////////////////////////////////////////\r\n  mapping(uint256 => address) private _issuers;\r\n  uint256[] private _listOfIssuers;\r\n\r\n  mapping(uint256 => _pendingIssuerStruct) private _pendingIssuers;\r\n  uint256[] private _listOfPendingIssuers;\r\n\r\n  mapping(address => ItemsLibrary._BalanceStruct) private _creditOfAccount;\r\n  mapping(uint256 => mapping(uint256 => uint256)) private _unassignedCreditForMarket;\r\n\r\n\r\n\r\n  // MODIFIERS /////////////////////////////////////////\r\n  modifier validOwner(address owner){\r\n      require(address(0) != owner, \"NFT Market owner cannot be address 0\");\r\n      _;\r\n  }\r\n\r\n  modifier IssuerPending(uint256 id){\r\n      require(address(0) != _pendingIssuers[id]._issuer._owner, \"This issuer id is not pending\");\r\n      _;\r\n  }\r\n\r\n  modifier validFees(uint256 fee, uint256 decimals){\r\n      Library.validFees(fee, decimals);\r\n      _;\r\n  }\r\n\r\n  modifier isNFTMarket(uint256 MarketId, address MarketAddress){\r\n      isNFTMarketFunc(MarketId, MarketAddress);\r\n      _;\r\n  }\r\n\r\n  function isNFTMarketFunc(uint256 MarketId, address MarketAddress) internal view{\r\n    require(MarketAddress == _issuers[MarketId], \"The Market Id and Address do not correspond\");\r\n  }\r\n\r\n  modifier isTokenUnassignedCreditEmpty(uint256 NFTMarketId, uint256 tokenID){\r\n    isTokenUnassignedCreditEmptyFunc(NFTMarketId, tokenID);\r\n    _;\r\n  }\r\n\r\n  function isTokenUnassignedCreditEmptyFunc(uint256 NFTMarketId, uint256 tokenID) internal view{\r\n    require(0 == _unassignedCreditForMarket[NFTMarketId][tokenID], \"Unassigned credit for this token is not empty\");\r\n  }\r\n\r\n  modifier checkTotal(uint256 total, uint256[] memory amounts, uint256[] memory factors){\r\n    checkTotalFunc(total, amounts, factors);\r\n    _;\r\n  }\r\n\r\n  function checkTotalFunc(uint256 total, uint256[] memory amounts, uint256[] memory factors) internal pure{\r\n    require(amounts.length == factors.length, \"Provided arrays do not have the same length\");\r\n    uint256 CommonDividend = UintLibrary.ProductOfFactors(factors);\r\n    uint256 calculatedTotal = 0;\r\n    for(uint256 i=0; i < factors.length; i++){\r\n        calculatedTotal += amounts[i] * CommonDividend / factors[i];\r\n    }\r\n    require((total * CommonDividend) == calculatedTotal, \"the total amount is not equal to the calculated one\");\r\n  }\r\n\r\n  // CONSTRUCTOR /////////////////////////////////////////\r\n  function PublicPool_init(address[] memory owners,  uint256 minOwners, address managerContractAddress) public initializer {\r\n      super.MultiSigContract_init(owners, minOwners); \r\n      super.CreditorBaseContract_init(managerContractAddress); \r\n  }\r\n\r\n  // FUNCTIONALITY /////////////////////////////////////////\r\n  function onCreditReceived(address sender, uint256 amount, bytes memory data) internal override\r\n  {\r\n    bytes32[] memory receivedData = Library.BytestoBytes32(data);\r\n    Library.PublicPoolPaymentTypes paymentType = Library.PublicPoolPaymentTypes(uint256(receivedData[0]));\r\n\r\n    if(Library.PublicPoolPaymentTypes.SendCredit == paymentType){\r\n      address account = AddressLibrary.Bytes32ToAddress(receivedData[1]);\r\n      ItemsLibrary.addBalance(_creditOfAccount[account], amount, 1);\r\n      emit _CreditReceived(account, amount, sender);\r\n    }\r\n\r\n    else{\r\n      uint256 NFTMarketId = UintLibrary.Bytes32ToUint(receivedData[1]);\r\n      uint256 tokenID = UintLibrary.Bytes32ToUint(receivedData[2]);\r\n      internalTransferUnassignedCredit(NFTMarketId, tokenID, amount);\r\n      emit _CreditUnAssignedReceived(NFTMarketId, tokenID, amount);\r\n    }\r\n     \r\n  }\r\n\r\n  function requestIssuer(address owner, string memory name, string memory symbol, uint256 feeAmount, uint256 feeDecimals, Library.PaymentPlans paymentPlan) external override\r\n    validOwner(owner)\r\n    validFees(feeAmount, feeDecimals)\r\n  {\r\n\r\n    uint[] memory Prices = ITreasury(_managerContract.retrieveTransparentProxies()[uint256(Library.TransparentProxies.Treasury)]).retrieveSettings();\r\n    uint256 NewIssuerFee = Prices[uint256(Library.Prices.NewIssuerFee)];\r\n    uint256 AdminNewIssuerFee = Prices[uint256(Library.Prices.AdminNewIssuerFee)];\r\n\r\n    IPayments payments = IPayments(_managerContract.retrieveTransparentProxies()[uint256(Library.TransparentProxies.Payments)]);\r\n    payments.TransferFunds(msg.sender, _managerContract.retrieveTransparentProxies()[uint256(Library.TransparentProxies.Treasury)], NewIssuerFee, 0, bytes(\"\"));\r\n    payments.TransferFunds(msg.sender, _managerContract.retrieveTransparentProxies()[uint256(Library.TransparentProxies.AdminPiggyBank)], AdminNewIssuerFee, 0, bytes(\"\"));\r\n\r\n    uint256 IssuerID = getIssuerIdFromName(name);\r\n    require(address(0) == _pendingIssuers[IssuerID]._issuer._owner && address(0) == _issuers[IssuerID], \"This Issuer Name has already been taken\");\r\n\r\n    _pendingIssuers[IssuerID]._issuer._owner = owner;\r\n    _pendingIssuers[IssuerID]._issuer._name = name;\r\n    _pendingIssuers[IssuerID]._issuer._symbol = symbol;\r\n    _pendingIssuers[IssuerID]._issuer._feeAmount = feeAmount;\r\n    _pendingIssuers[IssuerID]._issuer._feeDecimals = feeDecimals;\r\n    _pendingIssuers[IssuerID]._issuer._paymentPlan = paymentPlan;\r\n    _pendingIssuers[IssuerID]._pendingId = _listOfPendingIssuers.length;\r\n    _listOfPendingIssuers.push(IssuerID);\r\n\r\n    emit _NewIssuerRequest(IssuerID, owner, name, symbol);\r\n  }\r\n\r\n  function getIssuerIdFromName(string memory name) internal pure returns(uint256)\r\n  {\r\n    return uint256(keccak256(bytes(name)));\r\n  }\r\n\r\n  function validateIssuer(uint256 id) external override\r\n  {\r\n    voteForIssuer(id, true);\r\n  }\r\n\r\n  function rejectIssuer(uint id) external override\r\n  {\r\n    voteForIssuer(id, false);\r\n  }\r\n\r\n  function voteForIssuer(uint id, bool vote) internal\r\n    isAnOwner(msg.sender, true)\r\n    HasNotAlreadyVoted(msg.sender, _pendingIssuers[id]._voters)\r\n    IssuerPending(id)\r\n  {\r\n    emit _VoteForIssuer(id, msg.sender, vote);\r\n\r\n    _pendingIssuers[id]._voters.push(msg.sender);\r\n        \r\n    if(vote){\r\n        _pendingIssuers[id]._validations++;\r\n\r\n        if(_pendingIssuers[id]._validations >= _minOwners){\r\n            _listOfIssuers.push(id);\r\n            _issuers[id] = GenerateNewNFTMarket(_pendingIssuers[id]._issuer._owner, _pendingIssuers[id]._issuer._name, _pendingIssuers[id]._issuer._symbol, _pendingIssuers[id]._issuer._feeAmount, _pendingIssuers[id]._issuer._feeDecimals, id, _pendingIssuers[id]._issuer._paymentPlan);\r\n            deletingPendingIssuer(id);\r\n            emit _IssuerValidation(id, _issuers[id]);\r\n        }\r\n    }\r\n    else{\r\n        _pendingIssuers[id]._rejections++;\r\n\r\n        if(_pendingIssuers[id]._rejections >= _minOwners){\r\n            deletingPendingIssuer(id);\r\n            emit _IssuerRejection(id);\r\n        }\r\n    }\r\n  }\r\n\r\n  function deletingPendingIssuer(uint256 id) internal\r\n  {\r\n    uint pos = _pendingIssuers[id]._pendingId;\r\n    UintLibrary.UintArrayRemoveResize(pos, _listOfPendingIssuers);\r\n    if(_listOfPendingIssuers.length > pos) _pendingIssuers[_listOfPendingIssuers[pos]]._pendingId = pos;\r\n\r\n    delete(_pendingIssuers[id]._issuer);\r\n    delete(_pendingIssuers[id]._validations);\r\n    delete(_pendingIssuers[id]._rejections);\r\n    delete(_pendingIssuers[id]._voters);\r\n  }\r\n\r\n  function GenerateNewNFTMarket(address owner, string memory name, string memory symbol, uint256 feeAmount, uint256 feeDecimals, uint256 id, Library.PaymentPlans paymentPlan) internal returns(address)\r\n  {\r\n    address beaconAddress = _managerContract.retrieveBeacons()[uint256(Library.Beacons.NFT)];\r\n    uint256 OffersLifeTime = ITreasury(_managerContract.retrieveTransparentProxies()[uint256(Library.TransparentProxies.Treasury)]).retrieveSettings()[uint256(Library.Prices.OffersLifeTime)];\r\n    bytes memory data = abi.encodeWithSignature(\"NFTMarket_init(address,address,string,string,uint256,uint256,uint256,uint256,uint8)\", address(_managerContract), owner, name, symbol, OffersLifeTime, feeAmount, feeDecimals, id, uint8(paymentPlan));\r\n\r\n    BeaconProxy beaconProxy = new BeaconProxy(beaconAddress, data);\r\n\r\n    return address(beaconProxy);\r\n  }\r\n\r\n  function retrieveIssuers() external override view returns (uint[] memory)\r\n  {\r\n    return _listOfIssuers;\r\n  }\r\n\r\n  function retrieveNFTMarketForIssuer(uint id) external override view returns (address)\r\n  {\r\n    return _issuers[id];\r\n  }\r\n\r\n  function retrievePendingIssuers() external override view returns (uint[] memory)\r\n  {\r\n    return _listOfPendingIssuers;\r\n  }\r\n\r\n  function retrievePendingIssuer(uint id) external override view returns (_pendingIssuerStruct memory)\r\n  {\r\n    return _pendingIssuers[id];\r\n  }\r\n\r\n  // Credit Functionality\r\n\r\n  function sendCredit(address addr, uint256 amount) external override\r\n  {\r\n    bytes32[] memory dataArray = new bytes32[](3);\r\n    dataArray[0] = UintLibrary.UintToBytes32(uint256(Library.PublicPoolPaymentTypes.SendCredit));\r\n    dataArray[1] = AddressLibrary.AddressToBytes32(addr);\r\n    bytes memory data = Library.Bytes32ArrayToBytes(dataArray);\r\n\r\n    IPayments payments = IPayments(_managerContract.retrieveTransparentProxies()[uint256(Library.TransparentProxies.Payments)]);\r\n    payments.TransferFunds(msg.sender, address(this), amount, 0, data);\r\n  }\r\n\r\n  function addCredit(uint256 NFTMarketId, uint256 tokenID, address[] calldata addrs, uint256[] calldata amounts, uint256[] calldata factors) external override\r\n    isNFTMarket(NFTMarketId, msg.sender)\r\n    checkTotal(_unassignedCreditForMarket[NFTMarketId][tokenID], amounts, factors)\r\n  {\r\n    require(addrs.length == factors.length, \"Provided arrays do not have the same length\");\r\n    for(uint i=0; i < addrs.length; i++){\r\n      ItemsLibrary.addBalance(_creditOfAccount[addrs[i]], amounts[i], factors[i]);\r\n      emit _CreditAssigned(NFTMarketId, tokenID, addrs[i], amounts[i], factors[i]);\r\n    }\r\n    delete(_unassignedCreditForMarket[NFTMarketId][tokenID]);\r\n  }\r\n\r\n  function reuseCredit(uint256 NFTMarketId, uint256 tokenID, address addr, uint256 amount) external override\r\n    isNFTMarket(NFTMarketId, msg.sender)\r\n    isTokenUnassignedCreditEmpty(NFTMarketId, tokenID)\r\n  {\r\n    ItemsLibrary.InternalWithdraw(_creditOfAccount[addr], amount, address(0), false, _managerContract.retrieveTransparentProxies()[uint256(Library.TransparentProxies.Payments)]);\r\n    internalTransferUnassignedCredit(NFTMarketId, tokenID, amount);\r\n    emit _CreditReused(NFTMarketId, tokenID, addr, amount);\r\n  }\r\n\r\n  function withdraw(uint amount) external override\r\n  {\r\n    internalWithdraw(msg.sender, amount, address(0));\r\n  }\r\n  \r\n  function withdrawAll() external override\r\n  {\r\n    uint amount = ItemsLibrary.checkFullBalance(_creditOfAccount[msg.sender]);\r\n    internalWithdraw(msg.sender, amount, address(0));\r\n  }\r\n  \r\n  function withdrawAllFor(uint256 NFTMarketId, address addr) external override\r\n    isNFTMarket(NFTMarketId, msg.sender)\r\n  {\r\n    uint amount = ItemsLibrary.checkFullBalance(_creditOfAccount[addr]);\r\n    internalWithdraw(addr, amount, msg.sender);\r\n  }\r\n\r\n  function internalTransferUnassignedCredit(uint256 NFTMarketId, uint256 tokenID, uint256 amount) internal\r\n  {\r\n      _unassignedCreditForMarket[NFTMarketId][tokenID] = amount;\r\n  }\r\n\r\n  function internalWithdraw(address addr, uint amount, address sender) internal\r\n  {\r\n    ItemsLibrary.InternalWithdraw(_creditOfAccount[addr], amount, addr, true, _managerContract.retrieveTransparentProxies()[uint256(Library.TransparentProxies.Payments)]);\r\n    if(address(0) != sender) emit _CreditWithdrawnFor(addr, amount, sender);\r\n    else emit _CreditWithdrawn(addr, amount);\r\n  }\r\n\r\n  function retrieveCredit(address addr) external override view returns (uint256)\r\n  {\r\n    return ItemsLibrary.checkFullBalance(_creditOfAccount[addr]);\r\n  }\r\n\r\n\r\n\r\n }",
  "sourcePath": "C:\\Users\\d-aam\\GitHub\\Originals\\contracts\\MainContracts\\PublicPool.sol",
  "compiler": {
    "name": "solc",
    "version": "0.8.7+commit.e28d00a7.Emscripten.clang"
  },
  "schemaVersion": "3.4.3",
  "updatedAt": "2022-02-16T09:10:26.189Z",
  "networkType": "ethereum",
  "devdoc": {
    "kind": "dev",
    "methods": {},
    "version": 1
  },
  "userdoc": {
    "kind": "user",
    "methods": {},
    "version": 1
  }
}