{
  "contractName": "PublicPool",
  "abi": [
    {
      "anonymous": false,
      "inputs": [
        {
          "indexed": false,
          "internalType": "address",
          "name": "owner",
          "type": "address"
        }
      ],
      "name": "_AddOwnerRejection",
      "type": "event"
    },
    {
      "anonymous": false,
      "inputs": [
        {
          "indexed": false,
          "internalType": "address",
          "name": "owner",
          "type": "address"
        }
      ],
      "name": "_AddOwnerValidation",
      "type": "event"
    },
    {
      "anonymous": false,
      "inputs": [
        {
          "indexed": false,
          "internalType": "uint256",
          "name": "id",
          "type": "uint256"
        }
      ],
      "name": "_IssuerRejection",
      "type": "event"
    },
    {
      "anonymous": false,
      "inputs": [
        {
          "indexed": false,
          "internalType": "uint256",
          "name": "id",
          "type": "uint256"
        }
      ],
      "name": "_IssuerValidation",
      "type": "event"
    },
    {
      "anonymous": false,
      "inputs": [
        {
          "indexed": false,
          "internalType": "uint256",
          "name": "minOwner",
          "type": "uint256"
        }
      ],
      "name": "_MinOwnerRejection",
      "type": "event"
    },
    {
      "anonymous": false,
      "inputs": [
        {
          "indexed": false,
          "internalType": "uint256",
          "name": "minOwner",
          "type": "uint256"
        }
      ],
      "name": "_MinOwnerValidation",
      "type": "event"
    },
    {
      "anonymous": false,
      "inputs": [
        {
          "indexed": true,
          "internalType": "address",
          "name": "owner",
          "type": "address"
        },
        {
          "indexed": false,
          "internalType": "string",
          "name": "name",
          "type": "string"
        },
        {
          "indexed": false,
          "internalType": "string",
          "name": "symbol",
          "type": "string"
        }
      ],
      "name": "_NewIssuerRequest",
      "type": "event"
    },
    {
      "anonymous": false,
      "inputs": [
        {
          "indexed": false,
          "internalType": "address",
          "name": "owner",
          "type": "address"
        }
      ],
      "name": "_RemoveOwnerRejection",
      "type": "event"
    },
    {
      "anonymous": false,
      "inputs": [
        {
          "indexed": false,
          "internalType": "address",
          "name": "owner",
          "type": "address"
        }
      ],
      "name": "_RemoveOwnerValidation",
      "type": "event"
    },
    {
      "anonymous": false,
      "inputs": [
        {
          "indexed": false,
          "internalType": "uint256",
          "name": "id",
          "type": "uint256"
        },
        {
          "indexed": false,
          "internalType": "address",
          "name": "voter",
          "type": "address"
        },
        {
          "indexed": false,
          "internalType": "bool",
          "name": "vote",
          "type": "bool"
        }
      ],
      "name": "_VoteForIssuer",
      "type": "event"
    },
    {
      "anonymous": false,
      "inputs": [
        {
          "indexed": false,
          "internalType": "uint256",
          "name": "minOwner",
          "type": "uint256"
        },
        {
          "indexed": false,
          "internalType": "address",
          "name": "voter",
          "type": "address"
        },
        {
          "indexed": false,
          "internalType": "bool",
          "name": "vote",
          "type": "bool"
        }
      ],
      "name": "_VoteForMinOwner",
      "type": "event"
    },
    {
      "anonymous": false,
      "inputs": [
        {
          "indexed": false,
          "internalType": "address",
          "name": "owner",
          "type": "address"
        },
        {
          "indexed": false,
          "internalType": "address",
          "name": "voter",
          "type": "address"
        },
        {
          "indexed": false,
          "internalType": "bool",
          "name": "vote",
          "type": "bool"
        }
      ],
      "name": "_VoteForOwner",
      "type": "event"
    },
    {
      "inputs": [
        {
          "internalType": "address[]",
          "name": "owners",
          "type": "address[]"
        },
        {
          "internalType": "uint256",
          "name": "minOwners",
          "type": "uint256"
        }
      ],
      "name": "MultiSigContract_init",
      "outputs": [],
      "stateMutability": "nonpayable",
      "type": "function"
    },
    {
      "inputs": [
        {
          "internalType": "address",
          "name": "owner",
          "type": "address"
        }
      ],
      "name": "addOwner",
      "outputs": [],
      "stateMutability": "nonpayable",
      "type": "function"
    },
    {
      "inputs": [
        {
          "internalType": "uint256",
          "name": "newMinOwners",
          "type": "uint256"
        }
      ],
      "name": "changeMinOwners",
      "outputs": [],
      "stateMutability": "nonpayable",
      "type": "function"
    },
    {
      "inputs": [],
      "name": "rejectMinOwners",
      "outputs": [],
      "stateMutability": "nonpayable",
      "type": "function"
    },
    {
      "inputs": [
        {
          "internalType": "address",
          "name": "owner",
          "type": "address"
        }
      ],
      "name": "rejectOwner",
      "outputs": [],
      "stateMutability": "nonpayable",
      "type": "function"
    },
    {
      "inputs": [
        {
          "internalType": "address",
          "name": "owner",
          "type": "address"
        }
      ],
      "name": "removeOwner",
      "outputs": [],
      "stateMutability": "nonpayable",
      "type": "function"
    },
    {
      "inputs": [],
      "name": "retrieveAllOwners",
      "outputs": [
        {
          "internalType": "address[]",
          "name": "",
          "type": "address[]"
        }
      ],
      "stateMutability": "view",
      "type": "function"
    },
    {
      "inputs": [],
      "name": "retrieveManagerContract",
      "outputs": [
        {
          "internalType": "address",
          "name": "",
          "type": "address"
        }
      ],
      "stateMutability": "view",
      "type": "function"
    },
    {
      "inputs": [],
      "name": "retrieveMinOwners",
      "outputs": [
        {
          "internalType": "uint256",
          "name": "",
          "type": "uint256"
        }
      ],
      "stateMutability": "view",
      "type": "function"
    },
    {
      "inputs": [],
      "name": "retrievePendingMinOwners",
      "outputs": [
        {
          "internalType": "uint256",
          "name": "",
          "type": "uint256"
        }
      ],
      "stateMutability": "view",
      "type": "function"
    },
    {
      "inputs": [],
      "name": "retrievePendingMinOwnersStatus",
      "outputs": [
        {
          "internalType": "uint256",
          "name": "",
          "type": "uint256"
        },
        {
          "internalType": "uint256",
          "name": "",
          "type": "uint256"
        },
        {
          "internalType": "address[]",
          "name": "",
          "type": "address[]"
        }
      ],
      "stateMutability": "view",
      "type": "function"
    },
    {
      "inputs": [
        {
          "internalType": "bool",
          "name": "addedORremove",
          "type": "bool"
        }
      ],
      "name": "retrievePendingOwners",
      "outputs": [
        {
          "internalType": "address[]",
          "name": "",
          "type": "address[]"
        }
      ],
      "stateMutability": "view",
      "type": "function"
    },
    {
      "inputs": [],
      "name": "validateMinOwners",
      "outputs": [],
      "stateMutability": "nonpayable",
      "type": "function"
    },
    {
      "inputs": [
        {
          "internalType": "address",
          "name": "owner",
          "type": "address"
        }
      ],
      "name": "validateOwner",
      "outputs": [],
      "stateMutability": "nonpayable",
      "type": "function"
    },
    {
      "inputs": [
        {
          "internalType": "address[]",
          "name": "owners",
          "type": "address[]"
        },
        {
          "internalType": "uint256",
          "name": "minOwners",
          "type": "uint256"
        },
        {
          "internalType": "address",
          "name": "managerContractAddress",
          "type": "address"
        }
      ],
      "name": "PublicPool_init",
      "outputs": [],
      "stateMutability": "nonpayable",
      "type": "function"
    },
    {
      "inputs": [
        {
          "internalType": "address",
          "name": "owner",
          "type": "address"
        },
        {
          "internalType": "string",
          "name": "name",
          "type": "string"
        },
        {
          "internalType": "string",
          "name": "symbol",
          "type": "string"
        },
        {
          "internalType": "enum Library.PaymentPlans",
          "name": "paymentPlan",
          "type": "uint8"
        }
      ],
      "name": "requestIssuer",
      "outputs": [
        {
          "internalType": "uint256",
          "name": "",
          "type": "uint256"
        }
      ],
      "stateMutability": "payable",
      "type": "function"
    },
    {
      "inputs": [
        {
          "internalType": "uint256",
          "name": "id",
          "type": "uint256"
        }
      ],
      "name": "validateIssuer",
      "outputs": [],
      "stateMutability": "nonpayable",
      "type": "function"
    },
    {
      "inputs": [
        {
          "internalType": "uint256",
          "name": "id",
          "type": "uint256"
        }
      ],
      "name": "rejectIssuer",
      "outputs": [],
      "stateMutability": "nonpayable",
      "type": "function"
    },
    {
      "inputs": [],
      "name": "retrieveIssuers",
      "outputs": [
        {
          "internalType": "uint256[]",
          "name": "",
          "type": "uint256[]"
        }
      ],
      "stateMutability": "view",
      "type": "function"
    },
    {
      "inputs": [
        {
          "internalType": "uint256",
          "name": "id",
          "type": "uint256"
        }
      ],
      "name": "retrieveNFTMarketForIssuer",
      "outputs": [
        {
          "internalType": "address",
          "name": "",
          "type": "address"
        }
      ],
      "stateMutability": "view",
      "type": "function"
    },
    {
      "inputs": [],
      "name": "retrievePendingIssuers",
      "outputs": [
        {
          "internalType": "uint256[]",
          "name": "",
          "type": "uint256[]"
        }
      ],
      "stateMutability": "view",
      "type": "function"
    },
    {
      "inputs": [
        {
          "internalType": "uint256",
          "name": "id",
          "type": "uint256"
        }
      ],
      "name": "retrievePendingIssuer",
      "outputs": [
        {
          "components": [
            {
              "components": [
                {
                  "internalType": "address",
                  "name": "_owner",
                  "type": "address"
                },
                {
                  "internalType": "string",
                  "name": "_name",
                  "type": "string"
                },
                {
                  "internalType": "string",
                  "name": "_symbol",
                  "type": "string"
                },
                {
                  "internalType": "enum Library.PaymentPlans",
                  "name": "_paymentPlan",
                  "type": "uint8"
                }
              ],
              "internalType": "struct ItemsLibrary._issuerStruct",
              "name": "_issuer",
              "type": "tuple"
            },
            {
              "internalType": "uint256",
              "name": "_pendingId",
              "type": "uint256"
            },
            {
              "internalType": "uint256",
              "name": "_validations",
              "type": "uint256"
            },
            {
              "internalType": "uint256",
              "name": "_rejections",
              "type": "uint256"
            },
            {
              "internalType": "address[]",
              "name": "_voters",
              "type": "address[]"
            }
          ],
          "internalType": "struct ItemsLibrary._pendingIssuerStruct",
          "name": "",
          "type": "tuple"
        }
      ],
      "stateMutability": "view",
      "type": "function"
    }
  ],
  "bytecode": "0x608060405234801561001057600080fd5b50613da8806100206000396000f3fe6080604052600436106101355760003560e01c80635b362e84116100ab5780639fc444091161006f5780639fc4440914610400578063a93d5ed614610430578063c3079ae71461045b578063c66433ea14610472578063ce33d58a1461049b578063d0e13918146104c457610135565b80635b362e841461031b57806365b973e5146103465780636b299604146103715780637065cb48146103ae57806376f8f90f146103d757610135565b80632edbe7fc116100fd5780632edbe7fc1461022f57806330ade9221461025a57806334f2920714610271578063430c37cb1461029a578063538b6aad146102c35780635888ebb3146102ee57610135565b806303231e5d1461013a578063094a0ed2146101775780630bee185e146101b4578063173825d9146101dd578063280931e714610206575b600080fd5b34801561014657600080fd5b50610161600480360381019061015c9190612ecd565b6104ef565b60405161016e9190613395565b60405180910390f35b34801561018357600080fd5b5061019e60048036038101906101999190612ecd565b61052c565b6040516101ab919061355b565b60405180910390f35b3480156101c057600080fd5b506101db60048036038101906101d69190612da8565b6107ce565b005b3480156101e957600080fd5b5061020460048036038101906101ff9190612cdc565b6109ef565b005b34801561021257600080fd5b5061022d60048036038101906102289190612ecd565b610a32565b005b34801561023b57600080fd5b50610244610a40565b604051610251919061357d565b60405180910390f35b34801561026657600080fd5b5061026f610a4a565b005b34801561027d57600080fd5b5061029860048036038101906102939190612ecd565b610a56565b005b3480156102a657600080fd5b506102c160048036038101906102bc9190612e04565b610a64565b005b3480156102cf57600080fd5b506102d8610b66565b6040516102e59190613439565b60405180910390f35b3480156102fa57600080fd5b50610303610bbe565b60405161031293929190613673565b60405180910390f35b34801561032757600080fd5b50610330610c5e565b60405161033d9190613395565b60405180910390f35b34801561035257600080fd5b5061035b610c88565b604051610368919061357d565b60405180910390f35b34801561037d57600080fd5b5061039860048036038101906103939190612e73565b610c92565b6040516103a59190613417565b60405180910390f35b3480156103ba57600080fd5b506103d560048036038101906103d09190612cdc565b610dbd565b005b3480156103e357600080fd5b506103fe60048036038101906103f99190612cdc565b610ddd565b005b61041a60048036038101906104159190612d09565b610e59565b604051610427919061357d565b60405180910390f35b34801561043c57600080fd5b50610445611048565b6040516104529190613417565b60405180910390f35b34801561046757600080fd5b506104706110d8565b005b34801561047e57600080fd5b5061049960048036038101906104949190612ecd565b6110e4565b005b3480156104a757600080fd5b506104c260048036038101906104bd9190612cdc565b611137565b005b3480156104d057600080fd5b506104d9611145565b6040516104e69190613439565b60405180910390f35b6000600b600083815260200190815260200160002060009054906101000a900473ffffffffffffffffffffffffffffffffffffffff169050919050565b6105346129dc565b600d60008381526020019081526020016000206040518060a0016040529081600082016040518060800160405290816000820160009054906101000a900473ffffffffffffffffffffffffffffffffffffffff1673ffffffffffffffffffffffffffffffffffffffff1673ffffffffffffffffffffffffffffffffffffffff1681526020016001820180546105c89061397a565b80601f01602080910402602001604051908101604052809291908181526020018280546105f49061397a565b80156106415780601f1061061657610100808354040283529160200191610641565b820191906000526020600020905b81548152906001019060200180831161062457829003601f168201915b5050505050815260200160028201805461065a9061397a565b80601f01602080910402602001604051908101604052809291908181526020018280546106869061397a565b80156106d35780601f106106a8576101008083540402835291602001916106d3565b820191906000526020600020905b8154815290600101906020018083116106b657829003601f168201915b505050505081526020016003820160009054906101000a900460ff16600181111561070157610700613a6f565b5b600181111561071357610712613a6f565b5b815250508152602001600482015481526020016005820154815260200160068201548152602001600782018054806020026020016040519081016040528092919081815260200182805480156107be57602002820191906000526020600020905b8160009054906101000a900473ffffffffffffffffffffffffffffffffffffffff1673ffffffffffffffffffffffffffffffffffffffff1681526020019060010190808311610774575b5050505050815250509050919050565b600060019054906101000a900460ff166107f65760008054906101000a900460ff16156107ff565b6107fe61119d565b5b61083e576040517f08c379a00000000000000000000000000000000000000000000000000000000081526004016108359061349b565b60405180910390fd5b60008060019054906101000a900460ff16159050801561088e576001600060016101000a81548160ff02191690831515021790555060016000806101000a81548160ff0219169083151502179055505b81835161089b82826111ae565b6001846108a882826111ae565b8560058190555060005b87518110156109c45760018060000160008a84815181106108d6576108d5613acd565b5b602002602001015173ffffffffffffffffffffffffffffffffffffffff1673ffffffffffffffffffffffffffffffffffffffff16815260200190815260200160002060000160006101000a81548160ff0219169083151502179055506001800188828151811061094957610948613acd565b5b60200260200101519080600181540180825580915050600190039060005260206000200160009091909190916101000a81548173ffffffffffffffffffffffffffffffffffffffff021916908373ffffffffffffffffffffffffffffffffffffffff16021790555080806109bc906139f7565b9150506108b2565b505050505080156109ea5760008060016101000a81548160ff0219169083151502179055505b505050565b8060016109fc82826111f5565b60055460018060010180549050610a139190613877565b610a1d82826111ae565b610a2b856001600301611247565b5050505050565b610a3d816001611336565b50565b6000600654905090565b610a546001611783565b565b610a61816000611336565b50565b600060019054906101000a900460ff16610a8c5760008054906101000a900460ff1615610a95565b610a9461119d565b5b610ad4576040517f08c379a0000000000000000000000000000000000000000000000000000000008152600401610acb9061349b565b60405180910390fd5b60008060019054906101000a900460ff161590508015610b24576001600060016101000a81548160ff02191690831515021790555060016000806101000a81548160ff0219169083151502179055505b610b2e84846107ce565b610b378261185f565b6000600f819055508015610b605760008060016101000a81548160ff0219169083151502179055505b50505050565b6060600e805480602002602001604051908101604052809291908181526020018280548015610bb457602002820191906000526020600020905b815481526020019060010190808311610ba0575b5050505050905090565b6000806060600754600854600980805480602002602001604051908101604052809291908181526020018280548015610c4c57602002820191906000526020600020905b8160009054906101000a900473ffffffffffffffffffffffffffffffffffffffff1673ffffffffffffffffffffffffffffffffffffffff1681526020019060010190808311610c02575b50505050509050925092509250909192565b6000600a60009054906101000a900473ffffffffffffffffffffffffffffffffffffffff16905090565b6000600554905090565b60608115610d2b576001600201805480602002602001604051908101604052809291908181526020018280548015610d1f57602002820191906000526020600020905b8160009054906101000a900473ffffffffffffffffffffffffffffffffffffffff1673ffffffffffffffffffffffffffffffffffffffff1681526020019060010190808311610cd5575b50505050509050610db8565b6001600301805480602002602001604051908101604052809291908181526020018280548015610db057602002820191906000526020600020905b8160009054906101000a900473ffffffffffffffffffffffffffffffffffffffff1673ffffffffffffffffffffffffffffffffffffffff1681526020019060010190808311610d66575b505050505090505b919050565b806000610dca82826111f5565b610dd8836001600201611247565b505050565b610de681611985565b1515600115151415610e4b5760018060010180549050610e069190613877565b6005541115610e4a576040517f08c379a0000000000000000000000000000000000000000000000000000000008152600401610e419061345b565b60405180910390fd5b5b610e56816001611a43565b50565b6000848073ffffffffffffffffffffffffffffffffffffffff16600073ffffffffffffffffffffffffffffffffffffffff161415610ecc576040517f08c379a0000000000000000000000000000000000000000000000000000000008152600401610ec3906134bb565b60405180910390fd5b85600d6000600f54815260200190815260200160002060000160000160006101000a81548173ffffffffffffffffffffffffffffffffffffffff021916908373ffffffffffffffffffffffffffffffffffffffff16021790555084600d6000600f5481526020019081526020016000206000016001019080519060200190610f55929190612a11565b5083600d6000600f5481526020019081526020016000206000016002019080519060200190610f85929190612a11565b5082600d6000600f54815260200190815260200160002060000160030160006101000a81548160ff02191690836001811115610fc457610fc3613a6f565b5b0217905550600e80549050600d6000600f54815260200190815260200160002060040181905550600e600f549080600181540180825580915050600190039060005260206000200160009091909190915055600f6000815480929190611029906139f7565b91905055506001600f5461103d9190613877565b915050949350505050565b6060600180018054806020026020016040519081016040528092919081815260200182805480156110ce57602002820191906000526020600020905b8160009054906101000a900473ffffffffffffffffffffffffffffffffffffffff1673ffffffffffffffffffffffffffffffffffffffff1681526020019060010190808311611084575b5050505050905090565b6110e26000611783565b565b3360016110f182826111f5565b60006110fc81612100565b83600180018054905061110f82826111ae565b60018661111c82826111ae565b8760068190555061112d6001611783565b5050505050505050565b611142816000611a43565b50565b6060600c80548060200260200160405190810160405280929190818152602001828054801561119357602002820191906000526020600020905b81548152602001906001019080831161117f575b5050505050905090565b60006111a83061219a565b15905090565b808211156111f1576040517f08c379a00000000000000000000000000000000000000000000000000000000081526004016111e89061345b565b60405180910390fd5b5050565b6111fe826121ad565b151581151514611243576040517f08c379a000000000000000000000000000000000000000000000000000000000815260040161123a906134fb565b60405180910390fd5b5050565b33600161125482826111f5565b8360006112618282612209565b84869080600181540180825580915050600190039060005260206000200160009091909190916101000a81548173ffffffffffffffffffffffffffffffffffffffff021916908373ffffffffffffffffffffffffffffffffffffffff1602179055506000600186805490506112d69190613877565b905080600160000160008973ffffffffffffffffffffffffffffffffffffffff1673ffffffffffffffffffffffffffffffffffffffff1681526020019081526020016000206002018190555061132d876001611a43565b50505050505050565b33600161134382826111f5565b83600d600082815260200190815260200160002060000160000160009054906101000a900473ffffffffffffffffffffffffffffffffffffffff1673ffffffffffffffffffffffffffffffffffffffff16600073ffffffffffffffffffffffffffffffffffffffff1614156113ed576040517f08c379a00000000000000000000000000000000000000000000000000000000081526004016113e49061353b565b60405180910390fd5b7f5a1a88bd27a0cf1c470b27b132493e61efc1eaf3d1b57db0ab7f73182345d04785338660405161142093929190613598565b60405180910390a1600d6000868152602001908152602001600020600701339080600181540180825580915050600190039060005260206000200160009091909190916101000a81548173ffffffffffffffffffffffffffffffffffffffff021916908373ffffffffffffffffffffffffffffffffffffffff160217905550831561172657600d600086815260200190815260200160002060050160008154809291906114cc906139f7565b9190505550600554600d6000878152602001908152602001600020600501541061172157600c8590806001815401808255809150506001900390600052602060002001600090919091909150556116c6600d600087815260200190815260200160002060000160000160009054906101000a900473ffffffffffffffffffffffffffffffffffffffff16600d6000888152602001908152602001600020600001600101805461157a9061397a565b80601f01602080910402602001604051908101604052809291908181526020018280546115a69061397a565b80156115f35780601f106115c8576101008083540402835291602001916115f3565b820191906000526020600020905b8154815290600101906020018083116115d657829003601f168201915b5050505050600d6000898152602001908152602001600020600001600201805461161c9061397a565b80601f01602080910402602001604051908101604052809291908181526020018280546116489061397a565b80156116955780601f1061166a57610100808354040283529160200191611695565b820191906000526020600020905b81548152906001019060200180831161167857829003601f168201915b5050505050600d60008a815260200190815260200160002060000160030160009054906101000a900460ff1661226b565b600b600087815260200190815260200160002060006101000a81548173ffffffffffffffffffffffffffffffffffffffff021916908373ffffffffffffffffffffffffffffffffffffffff16021790555061172085612275565b5b61177c565b600d6000868152602001908152602001600020600601600081548092919061174d906139f7565b9190505550600554600d6000878152602001908152602001600020600601541061177b5761177a85612275565b5b5b5050505050565b33600161179082826111f5565b600161179b81612100565b33600060016117ab83838361240f565b86156117d0576001600760008282546117c49190613821565b925050819055506117eb565b6001600860008282546117e39190613821565b925050819055505b6009339080600181540180825580915050600190039060005260206000200160009091909190916101000a81548173ffffffffffffffffffffffffffffffffffffffff021916908373ffffffffffffffffffffffffffffffffffffffff160217905550611856612538565b50505050505050565b600060019054906101000a900460ff166118875760008054906101000a900460ff1615611890565b61188f61119d565b5b6118cf576040517f08c379a00000000000000000000000000000000000000000000000000000000081526004016118c69061349b565b60405180910390fd5b60008060019054906101000a900460ff16159050801561191f576001600060016101000a81548160ff02191690831515021790555060016000806101000a81548160ff0219169083151502179055505b81600a60006101000a81548173ffffffffffffffffffffffffffffffffffffffff021916908373ffffffffffffffffffffffffffffffffffffffff16021790555080156119815760008060016101000a81548160ff0219169083151502179055505b5050565b60006001600301600160000160008473ffffffffffffffffffffffffffffffffffffffff1673ffffffffffffffffffffffffffffffffffffffff16815260200190815260200160002060020154815481106119e3576119e2613acd565b5b9060005260206000200160009054906101000a900473ffffffffffffffffffffffffffffffffffffffff1673ffffffffffffffffffffffffffffffffffffffff168273ffffffffffffffffffffffffffffffffffffffff16149050919050565b336001611a5082826111f5565b836001611a5d8282612209565b33866000611a6c83838361240f565b7fc6f241efc3de3ce31d0e682102cc781f0605f0f90d72addfea699e4aea85dd7989338a604051611a9f939291906133b0565b60405180910390a1600160000160008a73ffffffffffffffffffffffffffffffffffffffff1673ffffffffffffffffffffffffffffffffffffffff168152602001908152602001600020600501339080600181540180825580915050600190039060005260206000200160009091909190916101000a81548173ffffffffffffffffffffffffffffffffffffffff021916908373ffffffffffffffffffffffffffffffffffffffff1602179055508715611fad57600160000160008a73ffffffffffffffffffffffffffffffffffffffff1673ffffffffffffffffffffffffffffffffffffffff1681526020019081526020016000206003016000815480929190611ba9906139f7565b9190505550600554600160000160008b73ffffffffffffffffffffffffffffffffffffffff1673ffffffffffffffffffffffffffffffffffffffff1681526020019081526020016000206003015410611fa857600060016003019050611c0e8a61267e565b15611d755760016002019050600180018a9080600181540180825580915050600190039060005260206000200160009091909190916101000a81548173ffffffffffffffffffffffffffffffffffffffff021916908373ffffffffffffffffffffffffffffffffffffffff16021790555060018060000160008c73ffffffffffffffffffffffffffffffffffffffff1673ffffffffffffffffffffffffffffffffffffffff16815260200190815260200160002060000160006101000a81548160ff02191690831515021790555060018060010180549050611cf09190613877565b600160000160008c73ffffffffffffffffffffffffffffffffffffffff1673ffffffffffffffffffffffffffffffffffffffff168152602001908152602001600020600101819055507f45bbe5ceeddcb6d0b4045349efc87a3fde966578e3970cda6f53bfc76efaf9f78a604051611d689190613395565b60405180910390a1611f9c565b6000600160000160008c73ffffffffffffffffffffffffffffffffffffffff1673ffffffffffffffffffffffffffffffffffffffff16815260200190815260200160002060010154905073__AddressLibrary________________________637873833e82600180016040518363ffffffff1660e01b8152600401611dfb9291906135cf565b60006040518083038186803b158015611e1357600080fd5b505af4158015611e27573d6000803e3d6000fd5b505050508060018001805490501115611ec5578060016000016000600180018481548110611e5857611e57613acd565b5b9060005260206000200160009054906101000a900473ffffffffffffffffffffffffffffffffffffffff1673ffffffffffffffffffffffffffffffffffffffff1673ffffffffffffffffffffffffffffffffffffffff168152602001908152602001600020600101819055505b600160000160008c73ffffffffffffffffffffffffffffffffffffffff1673ffffffffffffffffffffffffffffffffffffffff16815260200190815260200160002060000160006101000a81549060ff0219169055600160000160008c73ffffffffffffffffffffffffffffffffffffffff1673ffffffffffffffffffffffffffffffffffffffff168152602001908152602001600020600101600090557f82bcab3b042f3e2143a9d33d07fa130afdf763f17a45679670f0e39f12064ca88b604051611f929190613395565b60405180910390a1505b611fa68a8261273c565b505b6120f5565b600160000160008a73ffffffffffffffffffffffffffffffffffffffff1673ffffffffffffffffffffffffffffffffffffffff1681526020019081526020016000206004016000815480929190612003906139f7565b9190505550600554600160000160008b73ffffffffffffffffffffffffffffffffffffffff1673ffffffffffffffffffffffffffffffffffffffff16815260200190815260200160002060040154106120f4576000600160030190506120688a61267e565b156120b057600160020190507f622a69297177c029df8c1ba7f4d2d59881089b571ae96800e634aff50d67492e8a6040516120a39190613395565b60405180910390a16120e8565b7f547e31c58b802b63bc89f1109a132a291b0527c9196c97759829aeaecd3c2d398a6040516120df9190613395565b60405180910390a15b6120f28a8261273c565b505b5b505050505050505050565b8015612151576006546000141561214c576040517f08c379a00000000000000000000000000000000000000000000000000000000081526004016121439061347b565b60405180910390fd5b612197565b600654600014612196576040517f08c379a000000000000000000000000000000000000000000000000000000000815260040161218d906134db565b60405180910390fd5b5b50565b600080823b905060008111915050919050565b6000600160000160008373ffffffffffffffffffffffffffffffffffffffff1673ffffffffffffffffffffffffffffffffffffffff16815260200190815260200160002060000160009054906101000a900460ff169050919050565b6122128261267e565b80612222575061222182611985565b5b151581151514612267576040517f08c379a000000000000000000000000000000000000000000000000000000000815260040161225e906134fb565b60405180910390fd5b5050565b6000949350505050565b6000600d600083815260200190815260200160002060040154905073__UintLibrary___________________________63cffd93cd82600e6040518363ffffffff1660e01b81526004016122ca929190613621565b60006040518083038186803b1580156122e257600080fd5b505af41580156122f6573d6000803e3d6000fd5b5050505080600e8054905011156123415780600d6000600e84815481106123205761231f613acd565b5b90600052602060002001548152602001908152602001600020600401819055505b600d6000838152602001908152602001600020600001600080820160006101000a81549073ffffffffffffffffffffffffffffffffffffffff021916905560018201600061238f9190612a97565b60028201600061239f9190612a97565b6003820160006101000a81549060ff02191690555050600d600083815260200190815260200160002060050160009055600d600083815260200190815260200160002060060160009055600d6000838152602001908152602001600020600701600061240b9190612ad7565b5050565b6000600160000160008473ffffffffffffffffffffffffffffffffffffffff1673ffffffffffffffffffffffffffffffffffffffff1681526020019081526020016000206005019050811561246357600990505b73__AddressLibrary________________________63f7cf62d785836040518363ffffffff1660e01b815260040161249c9291906133e7565b60206040518083038186803b1580156124b457600080fd5b505af41580156124c8573d6000803e3d6000fd5b505050506040513d601f19601f820116820180604052508101906124ec9190612ea0565b15156000151514612532576040517f08c379a00000000000000000000000000000000000000000000000000000000081526004016125299061351b565b60405180910390fd5b50505050565b73__ItemsLibrary__________________________63f6001d7d6007546005546040518363ffffffff1660e01b815260040161257592919061364a565b60206040518083038186803b15801561258d57600080fd5b505af41580156125a1573d6000803e3d6000fd5b505050506040513d601f19601f820116820180604052508101906125c59190612ea0565b156125e0576006546005819055506125db6129b4565b61267c565b73__ItemsLibrary__________________________63f6001d7d6008546005546040518363ffffffff1660e01b815260040161261d92919061364a565b60206040518083038186803b15801561263557600080fd5b505af4158015612649573d6000803e3d6000fd5b505050506040513d601f19601f8201168201806040525081019061266d9190612ea0565b1561267b5761267a6129b4565b5b5b565b60006001600201600160000160008473ffffffffffffffffffffffffffffffffffffffff1673ffffffffffffffffffffffffffffffffffffffff16815260200190815260200160002060020154815481106126dc576126db613acd565b5b9060005260206000200160009054906101000a900473ffffffffffffffffffffffffffffffffffffffff1673ffffffffffffffffffffffffffffffffffffffff168273ffffffffffffffffffffffffffffffffffffffff16149050919050565b6000600160000160008473ffffffffffffffffffffffffffffffffffffffff1673ffffffffffffffffffffffffffffffffffffffff16815260200190815260200160002060020154905073__AddressLibrary________________________637873833e82846040518363ffffffff1660e01b81526004016127bf9291906135f8565b60006040518083038186803b1580156127d757600080fd5b505af41580156127eb573d6000803e3d6000fd5b50505050808280549050111561288357806001600001600084848154811061281657612815613acd565b5b9060005260206000200160009054906101000a900473ffffffffffffffffffffffffffffffffffffffff1673ffffffffffffffffffffffffffffffffffffffff1673ffffffffffffffffffffffffffffffffffffffff168152602001908152602001600020600201819055505b600160000160008473ffffffffffffffffffffffffffffffffffffffff1673ffffffffffffffffffffffffffffffffffffffff16815260200190815260200160002060020160009055600160000160008473ffffffffffffffffffffffffffffffffffffffff1673ffffffffffffffffffffffffffffffffffffffff16815260200190815260200160002060030160009055600160000160008473ffffffffffffffffffffffffffffffffffffffff1673ffffffffffffffffffffffffffffffffffffffff16815260200190815260200160002060040160009055600160000160008473ffffffffffffffffffffffffffffffffffffffff1673ffffffffffffffffffffffffffffffffffffffff16815260200190815260200160002060050160006129af9190612ad7565b505050565b600060068190555060006007819055506000600881905550600960006129da9190612ad7565b565b6040518060a001604052806129ef612af8565b8152602001600081526020016000815260200160008152602001606081525090565b828054612a1d9061397a565b90600052602060002090601f016020900481019282612a3f5760008555612a86565b82601f10612a5857805160ff1916838001178555612a86565b82800160010185558215612a86579182015b82811115612a85578251825591602001919060010190612a6a565b5b509050612a939190612b48565b5090565b508054612aa39061397a565b6000825580601f10612ab55750612ad4565b601f016020900490600052602060002090810190612ad39190612b48565b5b50565b5080546000825590600052602060002090810190612af59190612b48565b50565b6040518060800160405280600073ffffffffffffffffffffffffffffffffffffffff168152602001606081526020016060815260200160006001811115612b4257612b41613a6f565b5b81525090565b5b80821115612b61576000816000905550600101612b49565b5090565b6000612b78612b73846136d6565b6136b1565b90508083825260208201905082856020860282011115612b9b57612b9a613b43565b5b60005b85811015612bcb5781612bb18882612c17565b845260208401935060208301925050600181019050612b9e565b5050509392505050565b6000612be8612be384613702565b6136b1565b905082815260208101848484011115612c0457612c03613b48565b5b612c0f848285613938565b509392505050565b600081359050612c2681613d1d565b92915050565b600082601f830112612c4157612c40613b3e565b5b8135612c51848260208601612b65565b91505092915050565b600081359050612c6981613d34565b92915050565b600081519050612c7e81613d34565b92915050565b600081359050612c9381613d4b565b92915050565b600082601f830112612cae57612cad613b3e565b5b8135612cbe848260208601612bd5565b91505092915050565b600081359050612cd681613d5b565b92915050565b600060208284031215612cf257612cf1613b52565b5b6000612d0084828501612c17565b91505092915050565b60008060008060808587031215612d2357612d22613b52565b5b6000612d3187828801612c17565b945050602085013567ffffffffffffffff811115612d5257612d51613b4d565b5b612d5e87828801612c99565b935050604085013567ffffffffffffffff811115612d7f57612d7e613b4d565b5b612d8b87828801612c99565b9250506060612d9c87828801612c84565b91505092959194509250565b60008060408385031215612dbf57612dbe613b52565b5b600083013567ffffffffffffffff811115612ddd57612ddc613b4d565b5b612de985828601612c2c565b9250506020612dfa85828601612cc7565b9150509250929050565b600080600060608486031215612e1d57612e1c613b52565b5b600084013567ffffffffffffffff811115612e3b57612e3a613b4d565b5b612e4786828701612c2c565b9350506020612e5886828701612cc7565b9250506040612e6986828701612c17565b9150509250925092565b600060208284031215612e8957612e88613b52565b5b6000612e9784828501612c5a565b91505092915050565b600060208284031215612eb657612eb5613b52565b5b6000612ec484828501612c6f565b91505092915050565b600060208284031215612ee357612ee2613b52565b5b6000612ef184828501612cc7565b91505092915050565b6000612f068383612f42565b60208301905092915050565b6000612f1e8383612f6f565b60208301905092915050565b6000612f368383613368565b60208301905092915050565b612f4b816138cb565b82525050565b612f5a816138cb565b82525050565b612f69816138cb565b82525050565b612f78816138cb565b82525050565b6000612f8982613768565b612f9381856137bb565b9350612f9e83613733565b8060005b83811015612fcf578151612fb68882612efa565b9750612fc183613794565b925050600181019050612fa2565b5085935050505092915050565b6000612fe782613768565b612ff181856137cc565b9350612ffc83613733565b8060005b8381101561302d5781516130148882612efa565b975061301f83613794565b925050600181019050613000565b5085935050505092915050565b600061304582613773565b61304f81856137dd565b935061305a83613743565b8060005b838110156130925761306f82613b2b565b6130798882612f12565b9750613084836137a1565b92505060018101905061305e565b5085935050505092915050565b8082525050565b8082525050565b60006130b88261377e565b6130c281856137ee565b93506130cd83613758565b8060005b838110156130fe5781516130e58882612f2a565b97506130f0836137ae565b9250506001810190506130d1565b5085935050505092915050565b8082525050565b61311b816138dd565b82525050565b61312a81613926565b82525050565b600061313b82613789565b61314581856137ff565b9350613155818560208601613947565b61315e81613b57565b840191505092915050565b6000613176600583613810565b915061318182613b75565b602082019050919050565b6000613199600583613810565b91506131a482613b9e565b602082019050919050565b60006131bc602e83613810565b91506131c782613bc7565b604082019050919050565b60006131df602483613810565b91506131ea82613c16565b604082019050919050565b6000613202600583613810565b915061320d82613c65565b602082019050919050565b6000613225600483613810565b915061323082613c8e565b602082019050919050565b6000613248600483613810565b915061325382613cb7565b602082019050919050565b600061326b601d83613810565b915061327682613ce0565b602082019050919050565b60006080830160008301516132996000860182612f42565b50602083015184820360208601526132b18282613130565b915050604083015184820360408601526132cb8282613130565b91505060608301516132e06060860182613121565b508091505092915050565b600060a08301600083015184820360008601526133088282613281565b915050602083015161331d6020860182613368565b5060408301516133306040860182613368565b5060608301516133436060860182613368565b506080830151848203608086015261335b8282612f7e565b9150508091505092915050565b6133718161391c565b82525050565b6133808161391c565b82525050565b61338f8161391c565b82525050565b60006020820190506133aa6000830184612f51565b92915050565b60006060820190506133c56000830186612f51565b6133d26020830185612f51565b6133df6040830184613112565b949350505050565b60006040820190506133fc6000830185612f60565b818103602083015261340e818461303a565b90509392505050565b600060208201905081810360008301526134318184612fdc565b905092915050565b6000602082019050818103600083015261345381846130ad565b905092915050565b6000602082019050818103600083015261347481613169565b9050919050565b600060208201905081810360008301526134948161318c565b9050919050565b600060208201905081810360008301526134b4816131af565b9050919050565b600060208201905081810360008301526134d4816131d2565b9050919050565b600060208201905081810360008301526134f4816131f5565b9050919050565b6000602082019050818103600083015261351481613218565b9050919050565b600060208201905081810360008301526135348161323b565b9050919050565b600060208201905081810360008301526135548161325e565b9050919050565b6000602082019050818103600083015261357581846132eb565b905092915050565b60006020820190506135926000830184613377565b92915050565b60006060820190506135ad6000830186613377565b6135ba6020830185612f51565b6135c76040830184613112565b949350505050565b60006040820190506135e46000830185613386565b6135f160208301846130a6565b9392505050565b600060408201905061360d6000830185613386565b61361a602083018461309f565b9392505050565b60006040820190506136366000830185613386565b613643602083018461310b565b9392505050565b600060408201905061365f6000830185613386565b61366c6020830184613386565b9392505050565b60006060820190506136886000830186613377565b6136956020830185613377565b81810360408301526136a78184612fdc565b9050949350505050565b60006136bb6136cc565b90506136c782826139c6565b919050565b6000604051905090565b600067ffffffffffffffff8211156136f1576136f0613afc565b5b602082029050602081019050919050565b600067ffffffffffffffff82111561371d5761371c613afc565b5b61372682613b57565b9050602081019050919050565b6000819050602082019050919050565b60008190508160005260206000209050919050565b6000819050602082019050919050565b600081519050919050565b600081549050919050565b600081519050919050565b600081519050919050565b6000602082019050919050565b6000600182019050919050565b6000602082019050919050565b600082825260208201905092915050565b600082825260208201905092915050565b600082825260208201905092915050565b600082825260208201905092915050565b600082825260208201905092915050565b600082825260208201905092915050565b600061382c8261391c565b91506138378361391c565b9250827fffffffffffffffffffffffffffffffffffffffffffffffffffffffffffffffff0382111561386c5761386b613a40565b5b828201905092915050565b60006138828261391c565b915061388d8361391c565b9250828210156138a05761389f613a40565b5b828203905092915050565b600073ffffffffffffffffffffffffffffffffffffffff82169050919050565b60006138d6826138fc565b9050919050565b60008115159050919050565b60008190506138f782613d09565b919050565b600073ffffffffffffffffffffffffffffffffffffffff82169050919050565b6000819050919050565b6000613931826138e9565b9050919050565b82818337600083830152505050565b60005b8381101561396557808201518184015260208101905061394a565b83811115613974576000848401525b50505050565b6000600282049050600182168061399257607f821691505b602082108114156139a6576139a5613a9e565b5b50919050565b60006139bf6139ba83613b68565b6138ab565b9050919050565b6139cf82613b57565b810181811067ffffffffffffffff821117156139ee576139ed613afc565b5b80604052505050565b6000613a028261391c565b91507fffffffffffffffffffffffffffffffffffffffffffffffffffffffffffffffff821415613a3557613a34613a40565b5b600182019050919050565b7f4e487b7100000000000000000000000000000000000000000000000000000000600052601160045260246000fd5b7f4e487b7100000000000000000000000000000000000000000000000000000000600052602160045260246000fd5b7f4e487b7100000000000000000000000000000000000000000000000000000000600052602260045260246000fd5b7f4e487b7100000000000000000000000000000000000000000000000000000000600052603260045260246000fd5b7f4e487b7100000000000000000000000000000000000000000000000000000000600052604160045260246000fd5b6000613b3782546139ac565b9050919050565b600080fd5b600080fd5b600080fd5b600080fd5b600080fd5b6000601f19601f8301169050919050565b60008160001c9050919050565b7f454331392d000000000000000000000000000000000000000000000000000000600082015250565b7f454333312d000000000000000000000000000000000000000000000000000000600082015250565b7f496e697469616c697a61626c653a20636f6e747261637420697320616c72656160008201527f647920696e697469616c697a6564000000000000000000000000000000000000602082015250565b7f4e4654204d61726b6574206f776e65722063616e6e6f7420626520616464726560008201527f7373203000000000000000000000000000000000000000000000000000000000602082015250565b7f454333302d000000000000000000000000000000000000000000000000000000600082015250565b7f4543392d00000000000000000000000000000000000000000000000000000000600082015250565b7f4543352d00000000000000000000000000000000000000000000000000000000600082015250565b7f5468697320697373756572206964206973206e6f742070656e64696e67000000600082015250565b60028110613d1a57613d19613a6f565b5b50565b613d26816138cb565b8114613d3157600080fd5b50565b613d3d816138dd565b8114613d4857600080fd5b50565b60028110613d5857600080fd5b50565b613d648161391c565b8114613d6f57600080fd5b5056fea2646970667358221220a8cd45ec06f75c440402ade4241ac92d310fe465d48900aafd53f969fb6b084e64736f6c63430008070033",
  "immutableReferences": {},
  "source": "// SPDX-License-Identifier: GPL-3.0\r\n\r\npragma solidity 0.8.7;\r\n\r\n/**\r\n Certis Token is an ERC20 Token that grants its holder the right to:\r\n   - Vote on all the systems propositions (changing system configuraiton etc...)\r\n   - Receive Dividends for all the payments forwarded to the Treasury contract\r\n\r\nBefore every token transfer we contact the token gouvernance Base contracts so that the can update the tokens used for voting if needed\r\n\r\n */\r\n\r\nimport \"@openzeppelin/contracts-upgradeable/proxy/utils/Initializable.sol\";\r\nimport \"../Interfaces/IPool.sol\";\r\nimport \"../Base/ManagedBaseContract.sol\";\r\nimport \"../Base/MultiSigContract.sol\";\r\nimport \"../Libraries/ItemsLibrary.sol\";\r\nimport \"../Libraries/UintLibrary.sol\";\r\n\r\n\r\n\r\n contract PublicPool is  Initializable, MultiSigContract, ManagedBaseContract, IPool {\r\n  using ItemsLibrary for *;\r\n  using UintLibrary for *;\r\n\r\n  // EVENTS /////////////////////////////////////////\r\n  event _NewIssuerRequest(address indexed owner, string name, string symbol);\r\n\r\n  event _VoteForIssuer(uint256 id, address voter, bool vote);\r\n  event _IssuerValidation(uint256 id);\r\n  event _IssuerRejection(uint256 id);\r\n\r\n  // DATA /////////////////////////////////////////\r\n  mapping(uint256 => address) _issuers;\r\n  uint256[] _listOfIssuers;\r\n\r\n  mapping(uint256 => ItemsLibrary._pendingIssuerStruct) _pendingIssuers;\r\n  uint256[] _listOfPendingIssuers;\r\n\r\n  uint256 nextIssuerId;\r\n\r\n  // MODIFIERS /////////////////////////////////////////\r\n  modifier validOwners(address owner){\r\n      require(address(0) != owner, \"NFT Market owner cannot be address 0\");\r\n      _;\r\n  }\r\n\r\n  modifier IssuerPending(uint256 id){\r\n      require(address(0) != _pendingIssuers[id]._issuer._owner, \"This issuer id is not pending\");\r\n      _;\r\n  }\r\n\r\n  // CONSTRUCTOR /////////////////////////////////////////\r\n  function PublicPool_init(address[] memory owners,  uint256 minOwners, address managerContractAddress) public initializer {\r\n      super.MultiSigContract_init(owners, minOwners); \r\n      super.ManagedBaseContract_init(managerContractAddress); \r\n\r\n      nextIssuerId = 0;\r\n  }\r\n\r\n  // FUNCTIONALITY /////////////////////////////////////////\r\n  function requestIssuer(address owner, string memory name, string memory symbol, Library.PaymentPlans paymentPlan) external override payable\r\n    validOwners(owner)\r\n  returns (uint)\r\n  {\r\n    _pendingIssuers[nextIssuerId]._issuer._owner = owner;\r\n    _pendingIssuers[nextIssuerId]._issuer._name = name;\r\n    _pendingIssuers[nextIssuerId]._issuer._symbol = symbol;\r\n    _pendingIssuers[nextIssuerId]._issuer._paymentPlan = paymentPlan;\r\n    _pendingIssuers[nextIssuerId]._pendingId = _listOfPendingIssuers.length;\r\n    \r\n    _listOfPendingIssuers.push(nextIssuerId);\r\n    nextIssuerId++;\r\n\r\n    return(nextIssuerId - 1);\r\n  }\r\n\r\n  function validateIssuer(uint256 id) external override\r\n  {\r\n    voteForIssuer(id, true);\r\n  }\r\n\r\n  function rejectIssuer(uint id) external override\r\n  {\r\n    voteForIssuer(id, false);\r\n  }\r\n\r\n  function voteForIssuer(uint id, bool vote) internal\r\n    isAnOwner(msg.sender, true)\r\n    IssuerPending(id)\r\n  {\r\n    emit _VoteForIssuer(id, msg.sender, vote);\r\n\r\n    _pendingIssuers[id]._voters.push(msg.sender);\r\n        \r\n    if(vote){\r\n        _pendingIssuers[id]._validations++;\r\n\r\n        if(_pendingIssuers[id]._validations >= _minOwners){\r\n            _listOfIssuers.push(id);\r\n            _issuers[id] = GenerateNewNFTMarket(_pendingIssuers[id]._issuer._owner, _pendingIssuers[id]._issuer._name, _pendingIssuers[id]._issuer._symbol, _pendingIssuers[id]._issuer._paymentPlan);\r\n            deletingPendingIssuer(id);\r\n        }\r\n    }\r\n    else{\r\n        _pendingIssuers[id]._rejections++;\r\n\r\n        if(_pendingIssuers[id]._rejections >= _minOwners){\r\n            deletingPendingIssuer(id);\r\n        }\r\n    }\r\n  }\r\n\r\n  function deletingPendingIssuer(uint256 id) internal\r\n  {\r\n    uint pos = _pendingIssuers[id]._pendingId;\r\n    UintLibrary.UintArrayRemoveResize(pos, _listOfPendingIssuers);\r\n    if(_listOfPendingIssuers.length > pos) _pendingIssuers[_listOfPendingIssuers[pos]]._pendingId = pos;\r\n\r\n    delete(_pendingIssuers[id]._issuer);\r\n    delete(_pendingIssuers[id]._validations);\r\n    delete(_pendingIssuers[id]._rejections);\r\n    delete(_pendingIssuers[id]._voters);\r\n  }\r\n\r\n  function GenerateNewNFTMarket(address owner, string memory name, string memory symbol, Library.PaymentPlans paymentPlan) internal returns(address)\r\n  {\r\n    return address(0);\r\n  }\r\n\r\n  function retrieveIssuers() external override view returns (uint[] memory)\r\n  {\r\n    return _listOfIssuers;\r\n  }\r\n\r\n  function retrieveNFTMarketForIssuer(uint id) external override view returns (address)\r\n  {\r\n    return _issuers[id];\r\n  }\r\n\r\n  function retrievePendingIssuers() external override view returns (uint[] memory)\r\n  {\r\n    return _listOfPendingIssuers;\r\n  }\r\n\r\n  function retrievePendingIssuer(uint id) external override view returns (ItemsLibrary._pendingIssuerStruct memory)\r\n  {\r\n    return _pendingIssuers[id];\r\n  }\r\n\r\n\r\n\r\n }",
  "sourcePath": "C:\\Users\\d-aam\\GitHub\\Originals\\contracts\\MainContracts\\PublicPool.sol",
  "compiler": {
    "name": "solc",
    "version": "0.8.7+commit.e28d00a7.Emscripten.clang"
  },
  "schemaVersion": "3.4.3",
  "updatedAt": "2022-01-24T12:38:14.726Z",
  "devdoc": {
    "kind": "dev",
    "methods": {},
    "version": 1
  },
  "userdoc": {
    "kind": "user",
    "methods": {},
    "version": 1
  }
}