{
  "contractName": "PublicPool",
  "abi": [
    {
      "anonymous": false,
      "inputs": [
        {
          "indexed": false,
          "internalType": "address",
          "name": "owner",
          "type": "address"
        }
      ],
      "name": "_AddOwnerRejection",
      "type": "event"
    },
    {
      "anonymous": false,
      "inputs": [
        {
          "indexed": false,
          "internalType": "address",
          "name": "owner",
          "type": "address"
        }
      ],
      "name": "_AddOwnerValidation",
      "type": "event"
    },
    {
      "anonymous": false,
      "inputs": [
        {
          "indexed": true,
          "internalType": "uint256",
          "name": "NFTMarketId",
          "type": "uint256"
        },
        {
          "indexed": true,
          "internalType": "uint256",
          "name": "tokenID",
          "type": "uint256"
        },
        {
          "indexed": true,
          "internalType": "address",
          "name": "receiver",
          "type": "address"
        },
        {
          "indexed": false,
          "internalType": "uint256",
          "name": "amount",
          "type": "uint256"
        },
        {
          "indexed": false,
          "internalType": "uint256",
          "name": "factor",
          "type": "uint256"
        }
      ],
      "name": "_CreditAssigned",
      "type": "event"
    },
    {
      "anonymous": false,
      "inputs": [
        {
          "indexed": true,
          "internalType": "address",
          "name": "receiver",
          "type": "address"
        },
        {
          "indexed": false,
          "internalType": "uint256",
          "name": "amount",
          "type": "uint256"
        },
        {
          "indexed": true,
          "internalType": "address",
          "name": "sender",
          "type": "address"
        }
      ],
      "name": "_CreditReceived",
      "type": "event"
    },
    {
      "anonymous": false,
      "inputs": [
        {
          "indexed": true,
          "internalType": "uint256",
          "name": "NFTMarketId",
          "type": "uint256"
        },
        {
          "indexed": true,
          "internalType": "uint256",
          "name": "tokenID",
          "type": "uint256"
        },
        {
          "indexed": true,
          "internalType": "address",
          "name": "creditor",
          "type": "address"
        },
        {
          "indexed": false,
          "internalType": "uint256",
          "name": "amount",
          "type": "uint256"
        }
      ],
      "name": "_CreditReused",
      "type": "event"
    },
    {
      "anonymous": false,
      "inputs": [
        {
          "indexed": true,
          "internalType": "uint256",
          "name": "NFTMarketId",
          "type": "uint256"
        },
        {
          "indexed": true,
          "internalType": "address",
          "name": "from",
          "type": "address"
        },
        {
          "indexed": false,
          "internalType": "uint256",
          "name": "amount",
          "type": "uint256"
        },
        {
          "indexed": true,
          "internalType": "address",
          "name": "to",
          "type": "address"
        }
      ],
      "name": "_CreditSpent",
      "type": "event"
    },
    {
      "anonymous": false,
      "inputs": [
        {
          "indexed": true,
          "internalType": "uint256",
          "name": "NFTMarketId",
          "type": "uint256"
        },
        {
          "indexed": true,
          "internalType": "uint256",
          "name": "tokenID",
          "type": "uint256"
        },
        {
          "indexed": false,
          "internalType": "uint256",
          "name": "amount",
          "type": "uint256"
        }
      ],
      "name": "_CreditUnAssignedReceived",
      "type": "event"
    },
    {
      "anonymous": false,
      "inputs": [
        {
          "indexed": true,
          "internalType": "address",
          "name": "withdrawer",
          "type": "address"
        },
        {
          "indexed": false,
          "internalType": "uint256",
          "name": "amount",
          "type": "uint256"
        }
      ],
      "name": "_CreditWithdrawn",
      "type": "event"
    },
    {
      "anonymous": false,
      "inputs": [
        {
          "indexed": true,
          "internalType": "address",
          "name": "withdrawer",
          "type": "address"
        },
        {
          "indexed": false,
          "internalType": "uint256",
          "name": "amount",
          "type": "uint256"
        },
        {
          "indexed": true,
          "internalType": "address",
          "name": "sender",
          "type": "address"
        }
      ],
      "name": "_CreditWithdrawnFor",
      "type": "event"
    },
    {
      "anonymous": false,
      "inputs": [
        {
          "indexed": true,
          "internalType": "uint256",
          "name": "id",
          "type": "uint256"
        }
      ],
      "name": "_IssuerRejection",
      "type": "event"
    },
    {
      "anonymous": false,
      "inputs": [
        {
          "indexed": true,
          "internalType": "uint256",
          "name": "id",
          "type": "uint256"
        },
        {
          "indexed": false,
          "internalType": "address",
          "name": "NFTMarket",
          "type": "address"
        }
      ],
      "name": "_IssuerValidation",
      "type": "event"
    },
    {
      "anonymous": false,
      "inputs": [
        {
          "indexed": false,
          "internalType": "uint256",
          "name": "minOwner",
          "type": "uint256"
        }
      ],
      "name": "_MinOwnerRejection",
      "type": "event"
    },
    {
      "anonymous": false,
      "inputs": [
        {
          "indexed": false,
          "internalType": "uint256",
          "name": "minOwner",
          "type": "uint256"
        }
      ],
      "name": "_MinOwnerValidation",
      "type": "event"
    },
    {
      "anonymous": false,
      "inputs": [
        {
          "indexed": true,
          "internalType": "uint256",
          "name": "id",
          "type": "uint256"
        },
        {
          "indexed": false,
          "internalType": "address",
          "name": "owner",
          "type": "address"
        },
        {
          "indexed": false,
          "internalType": "string",
          "name": "name",
          "type": "string"
        },
        {
          "indexed": false,
          "internalType": "string",
          "name": "symbol",
          "type": "string"
        }
      ],
      "name": "_NewIssuerRequest",
      "type": "event"
    },
    {
      "anonymous": false,
      "inputs": [
        {
          "indexed": false,
          "internalType": "address",
          "name": "owner",
          "type": "address"
        }
      ],
      "name": "_RemoveOwnerRejection",
      "type": "event"
    },
    {
      "anonymous": false,
      "inputs": [
        {
          "indexed": false,
          "internalType": "address",
          "name": "owner",
          "type": "address"
        }
      ],
      "name": "_RemoveOwnerValidation",
      "type": "event"
    },
    {
      "anonymous": false,
      "inputs": [
        {
          "indexed": true,
          "internalType": "uint256",
          "name": "id",
          "type": "uint256"
        },
        {
          "indexed": false,
          "internalType": "address",
          "name": "voter",
          "type": "address"
        },
        {
          "indexed": false,
          "internalType": "bool",
          "name": "vote",
          "type": "bool"
        }
      ],
      "name": "_VoteForIssuer",
      "type": "event"
    },
    {
      "anonymous": false,
      "inputs": [
        {
          "indexed": false,
          "internalType": "uint256",
          "name": "minOwner",
          "type": "uint256"
        },
        {
          "indexed": false,
          "internalType": "address",
          "name": "voter",
          "type": "address"
        },
        {
          "indexed": false,
          "internalType": "bool",
          "name": "vote",
          "type": "bool"
        }
      ],
      "name": "_VoteForMinOwner",
      "type": "event"
    },
    {
      "anonymous": false,
      "inputs": [
        {
          "indexed": false,
          "internalType": "address",
          "name": "owner",
          "type": "address"
        },
        {
          "indexed": false,
          "internalType": "address",
          "name": "voter",
          "type": "address"
        },
        {
          "indexed": false,
          "internalType": "bool",
          "name": "vote",
          "type": "bool"
        }
      ],
      "name": "_VoteForOwner",
      "type": "event"
    },
    {
      "inputs": [
        {
          "internalType": "address",
          "name": "sender",
          "type": "address"
        },
        {
          "internalType": "uint256",
          "name": "amount",
          "type": "uint256"
        },
        {
          "internalType": "uint256",
          "name": "tokenId",
          "type": "uint256"
        },
        {
          "internalType": "bytes",
          "name": "data",
          "type": "bytes"
        }
      ],
      "name": "CreditReceived",
      "outputs": [],
      "stateMutability": "nonpayable",
      "type": "function"
    },
    {
      "inputs": [
        {
          "internalType": "address[]",
          "name": "owners",
          "type": "address[]"
        },
        {
          "internalType": "uint256",
          "name": "minOwners",
          "type": "uint256"
        }
      ],
      "name": "MultiSigContract_init",
      "outputs": [],
      "stateMutability": "nonpayable",
      "type": "function"
    },
    {
      "inputs": [
        {
          "internalType": "address",
          "name": "owner",
          "type": "address"
        }
      ],
      "name": "addOwner",
      "outputs": [],
      "stateMutability": "nonpayable",
      "type": "function"
    },
    {
      "inputs": [
        {
          "internalType": "uint256",
          "name": "newMinOwners",
          "type": "uint256"
        }
      ],
      "name": "changeMinOwners",
      "outputs": [],
      "stateMutability": "nonpayable",
      "type": "function"
    },
    {
      "inputs": [],
      "name": "rejectMinOwners",
      "outputs": [],
      "stateMutability": "nonpayable",
      "type": "function"
    },
    {
      "inputs": [
        {
          "internalType": "address",
          "name": "owner",
          "type": "address"
        }
      ],
      "name": "rejectOwner",
      "outputs": [],
      "stateMutability": "nonpayable",
      "type": "function"
    },
    {
      "inputs": [
        {
          "internalType": "address",
          "name": "owner",
          "type": "address"
        }
      ],
      "name": "removeOwner",
      "outputs": [],
      "stateMutability": "nonpayable",
      "type": "function"
    },
    {
      "inputs": [],
      "name": "retrieveAllOwners",
      "outputs": [
        {
          "internalType": "address[]",
          "name": "",
          "type": "address[]"
        }
      ],
      "stateMutability": "view",
      "type": "function"
    },
    {
      "inputs": [],
      "name": "retrieveManagerContract",
      "outputs": [
        {
          "internalType": "address",
          "name": "",
          "type": "address"
        }
      ],
      "stateMutability": "view",
      "type": "function"
    },
    {
      "inputs": [],
      "name": "retrieveMinOwners",
      "outputs": [
        {
          "internalType": "uint256",
          "name": "",
          "type": "uint256"
        }
      ],
      "stateMutability": "view",
      "type": "function"
    },
    {
      "inputs": [],
      "name": "retrievePendingMinOwners",
      "outputs": [
        {
          "internalType": "uint256",
          "name": "",
          "type": "uint256"
        }
      ],
      "stateMutability": "view",
      "type": "function"
    },
    {
      "inputs": [],
      "name": "retrievePendingMinOwnersStatus",
      "outputs": [
        {
          "internalType": "uint256",
          "name": "",
          "type": "uint256"
        },
        {
          "internalType": "uint256",
          "name": "",
          "type": "uint256"
        },
        {
          "internalType": "address[]",
          "name": "",
          "type": "address[]"
        }
      ],
      "stateMutability": "view",
      "type": "function"
    },
    {
      "inputs": [
        {
          "internalType": "bool",
          "name": "addedORremove",
          "type": "bool"
        }
      ],
      "name": "retrievePendingOwners",
      "outputs": [
        {
          "internalType": "address[]",
          "name": "",
          "type": "address[]"
        }
      ],
      "stateMutability": "view",
      "type": "function"
    },
    {
      "inputs": [],
      "name": "validateMinOwners",
      "outputs": [],
      "stateMutability": "nonpayable",
      "type": "function"
    },
    {
      "inputs": [
        {
          "internalType": "address",
          "name": "owner",
          "type": "address"
        }
      ],
      "name": "validateOwner",
      "outputs": [],
      "stateMutability": "nonpayable",
      "type": "function"
    },
    {
      "inputs": [
        {
          "internalType": "address[]",
          "name": "owners",
          "type": "address[]"
        },
        {
          "internalType": "uint256",
          "name": "minOwners",
          "type": "uint256"
        },
        {
          "internalType": "address",
          "name": "managerContractAddress",
          "type": "address"
        }
      ],
      "name": "PublicPool_init",
      "outputs": [],
      "stateMutability": "nonpayable",
      "type": "function"
    },
    {
      "inputs": [
        {
          "components": [
            {
              "internalType": "address",
              "name": "_owner",
              "type": "address"
            },
            {
              "internalType": "string",
              "name": "_name",
              "type": "string"
            },
            {
              "internalType": "string",
              "name": "_symbol",
              "type": "string"
            },
            {
              "internalType": "uint256",
              "name": "_feeAmount",
              "type": "uint256"
            },
            {
              "internalType": "uint256",
              "name": "_feeDecimals",
              "type": "uint256"
            },
            {
              "internalType": "enum Library.PaymentPlans",
              "name": "_paymentPlan",
              "type": "uint8"
            }
          ],
          "internalType": "struct ItemsLibrary._issuerStruct",
          "name": "requestedIssuer",
          "type": "tuple"
        },
        {
          "internalType": "bool",
          "name": "FromCredit",
          "type": "bool"
        }
      ],
      "name": "requestIssuer",
      "outputs": [],
      "stateMutability": "nonpayable",
      "type": "function"
    },
    {
      "inputs": [
        {
          "internalType": "uint256",
          "name": "id",
          "type": "uint256"
        }
      ],
      "name": "validateIssuer",
      "outputs": [],
      "stateMutability": "nonpayable",
      "type": "function"
    },
    {
      "inputs": [
        {
          "internalType": "uint256",
          "name": "id",
          "type": "uint256"
        }
      ],
      "name": "rejectIssuer",
      "outputs": [],
      "stateMutability": "nonpayable",
      "type": "function"
    },
    {
      "inputs": [],
      "name": "retrieveIssuers",
      "outputs": [
        {
          "internalType": "uint256[]",
          "name": "",
          "type": "uint256[]"
        }
      ],
      "stateMutability": "view",
      "type": "function"
    },
    {
      "inputs": [
        {
          "internalType": "uint256",
          "name": "id",
          "type": "uint256"
        }
      ],
      "name": "retrieveNFTMarketForIssuer",
      "outputs": [
        {
          "internalType": "address",
          "name": "",
          "type": "address"
        }
      ],
      "stateMutability": "view",
      "type": "function"
    },
    {
      "inputs": [],
      "name": "retrievePendingIssuers",
      "outputs": [
        {
          "internalType": "uint256[]",
          "name": "",
          "type": "uint256[]"
        }
      ],
      "stateMutability": "view",
      "type": "function"
    },
    {
      "inputs": [
        {
          "internalType": "uint256",
          "name": "id",
          "type": "uint256"
        }
      ],
      "name": "retrievePendingIssuer",
      "outputs": [
        {
          "components": [
            {
              "components": [
                {
                  "internalType": "address",
                  "name": "_owner",
                  "type": "address"
                },
                {
                  "internalType": "string",
                  "name": "_name",
                  "type": "string"
                },
                {
                  "internalType": "string",
                  "name": "_symbol",
                  "type": "string"
                },
                {
                  "internalType": "uint256",
                  "name": "_feeAmount",
                  "type": "uint256"
                },
                {
                  "internalType": "uint256",
                  "name": "_feeDecimals",
                  "type": "uint256"
                },
                {
                  "internalType": "enum Library.PaymentPlans",
                  "name": "_paymentPlan",
                  "type": "uint8"
                }
              ],
              "internalType": "struct ItemsLibrary._issuerStruct",
              "name": "_issuer",
              "type": "tuple"
            },
            {
              "internalType": "uint256",
              "name": "_pendingId",
              "type": "uint256"
            },
            {
              "internalType": "uint256",
              "name": "_validations",
              "type": "uint256"
            },
            {
              "internalType": "uint256",
              "name": "_rejections",
              "type": "uint256"
            },
            {
              "internalType": "address[]",
              "name": "_voters",
              "type": "address[]"
            }
          ],
          "internalType": "struct IPool._pendingIssuerStruct",
          "name": "",
          "type": "tuple"
        }
      ],
      "stateMutability": "view",
      "type": "function"
    },
    {
      "inputs": [
        {
          "internalType": "address",
          "name": "addr",
          "type": "address"
        },
        {
          "internalType": "uint256",
          "name": "amount",
          "type": "uint256"
        }
      ],
      "name": "sendCredit",
      "outputs": [],
      "stateMutability": "nonpayable",
      "type": "function"
    },
    {
      "inputs": [
        {
          "internalType": "uint256",
          "name": "NFTMarketId",
          "type": "uint256"
        },
        {
          "internalType": "uint256",
          "name": "tokenID",
          "type": "uint256"
        },
        {
          "internalType": "address[]",
          "name": "addrs",
          "type": "address[]"
        },
        {
          "internalType": "uint256[]",
          "name": "amounts",
          "type": "uint256[]"
        },
        {
          "internalType": "uint256[]",
          "name": "factors",
          "type": "uint256[]"
        }
      ],
      "name": "addCredit",
      "outputs": [],
      "stateMutability": "nonpayable",
      "type": "function"
    },
    {
      "inputs": [
        {
          "internalType": "uint256",
          "name": "NFTMarketId",
          "type": "uint256"
        },
        {
          "internalType": "uint256",
          "name": "tokenID",
          "type": "uint256"
        },
        {
          "internalType": "address",
          "name": "addr",
          "type": "address"
        },
        {
          "internalType": "uint256",
          "name": "amount",
          "type": "uint256"
        }
      ],
      "name": "reuseCredit",
      "outputs": [],
      "stateMutability": "nonpayable",
      "type": "function"
    },
    {
      "inputs": [
        {
          "internalType": "uint256",
          "name": "NFTMarketId",
          "type": "uint256"
        },
        {
          "internalType": "address",
          "name": "from",
          "type": "address"
        },
        {
          "internalType": "uint256",
          "name": "amount",
          "type": "uint256"
        },
        {
          "internalType": "address",
          "name": "to",
          "type": "address"
        }
      ],
      "name": "spendCredit",
      "outputs": [],
      "stateMutability": "nonpayable",
      "type": "function"
    },
    {
      "inputs": [
        {
          "internalType": "uint256",
          "name": "amount",
          "type": "uint256"
        }
      ],
      "name": "withdraw",
      "outputs": [],
      "stateMutability": "nonpayable",
      "type": "function"
    },
    {
      "inputs": [],
      "name": "withdrawAll",
      "outputs": [],
      "stateMutability": "nonpayable",
      "type": "function"
    },
    {
      "inputs": [
        {
          "internalType": "uint256",
          "name": "NFTMarketId",
          "type": "uint256"
        },
        {
          "internalType": "address",
          "name": "addr",
          "type": "address"
        },
        {
          "internalType": "bytes",
          "name": "data",
          "type": "bytes"
        }
      ],
      "name": "withdrawAllFor",
      "outputs": [],
      "stateMutability": "nonpayable",
      "type": "function"
    },
    {
      "inputs": [
        {
          "internalType": "address",
          "name": "addr",
          "type": "address"
        }
      ],
      "name": "retrieveCredit",
      "outputs": [
        {
          "internalType": "uint256",
          "name": "",
          "type": "uint256"
        }
      ],
      "stateMutability": "view",
      "type": "function"
    }
  ],
  "bytecode": "0x608060405234801561001057600080fd5b50615f5c80620000216000396000f3fe60806040523480156200001157600080fd5b5060043610620001965760003560e01c806303231e5d146200019b578063062a080014620001df578063094a0ed214620001f85780630bee185e146200021e578063173825d91462000235578063280931e7146200024c5780632e1a7d4d14620002635780632edbe7fc146200027a57806330ade922146200028d57806334f292071462000297578063430c37cb14620002ae578063501781e814620002c5578063538b6aad14620002dc5780635888ebb314620002f557806358c1599414620003105780635b362e84146200032757806365b973e514620003395780636b29960414620003425780637065cb48146200036857806376f8f90f146200037f5780638266251f1462000396578063853828b614620003ad57806391c0734b14620003b7578063a93d5ed614620003ce578063ab3fa2a514620003d8578063c3079ae714620003ef578063c66433ea14620003f9578063ce33d58a1462000410578063d0e139181462000427578063f3882e3a1462000431578063f4968d241462000448575b600080fd5b620001c7620001ac36600462004cc5565b6000908152600b60205260409020546001600160a01b031690565b604051620001d6919062004ef8565b60405180910390f35b620001f6620001f036600462004d8c565b6200045f565b005b6200020f6200020936600462004cc5565b620006ca565b604051620001d6919062005233565b620001f66200022f366004620047c8565b62000918565b620001f6620002463660046200463f565b62000a8a565b620001f66200025d36600462004cc5565b62000acd565b620001f66200027436600462004cc5565b62000add565b6006545b604051908152602001620001d6565b620001f662000afc565b620001f6620002a836600462004cc5565b62000b0a565b620001f6620002bf36600462004810565b62000b17565b620001f6620002d636600462004686565b62000baa565b620002e662000edd565b604051620001d69190620050a8565b620002ff62000f37565b604051620001d6939291906200531e565b620001f66200032136600462004d3d565b62000fad565b600a546001600160a01b0316620001c7565b6005546200027e565b620003596200035336600462004b03565b62000fd1565b604051620001d6919062005093565b620001f6620003793660046200463f565b6200109a565b620001f6620003903660046200463f565b620010b6565b620001f6620003a7366004620046b5565b6200110e565b620001f6620012fc565b620001f6620003c836600462004dce565b620013b4565b6200035962001659565b620001f6620003e936600462004cdf565b620016be565b620001f66200177e565b620001f66200040a36600462004cc5565b6200178a565b620001f6620004213660046200463f565b620017e1565b620002e6620017ee565b6200027e620004423660046200463f565b62001846565b620001f66200045936600462004bdc565b620018ec565b83336200046d8282620020c4565b85856200047b828262002147565b73__ItemsLibrary__________________________6318b84a21600f6000896001600160a01b03166001600160a01b0316815260200190815260200160002087600080600a60009054906101000a90046001600160a01b03166001600160a01b031663e220ad956040518163ffffffff1660e01b815260040160006040518083038186803b1580156200050d57600080fd5b505afa15801562000522573d6000803e3d6000fd5b505050506040513d6000823e601f3d908101601f191682016040526200054c91908101906200471d565b60068151811062000561576200056162005542565b60200260200101516001600160a01b031663b049473f6040518163ffffffff1660e01b815260040160006040518083038186803b158015620005a257600080fd5b505afa158015620005b7573d6000803e3d6000fd5b505050506040513d6000823e601f3d908101601f19168201604052620005e1919081019062004a26565b600081518110620005f657620005f662005542565b60200260200101516000015160006040518060200160405280600081525060006040518963ffffffff1660e01b81526004016200063b989796959493929190620051bb565b60006040518083038186803b1580156200065457600080fd5b505af415801562000669573d6000803e3d6000fd5b505050506200067a888887620021c6565b856001600160a01b031687897fcc2a96ca4f9d89cc3dbd73baa3b6e6d19a2502464e6b9a28e0a9b9b11808bb3488604051620006b891815260200190565b60405180910390a45050505050505050565b620006d46200434b565b6000828152600d6020526040908190208151610160810190925280546001600160a01b031660a08301908152600182018054849291849160c0850191906200071c90620054bb565b80601f01602080910402602001604051908101604052809291908181526020018280546200074a90620054bb565b80156200079b5780601f106200076f576101008083540402835291602001916200079b565b820191906000526020600020905b8154815290600101906020018083116200077d57829003601f168201915b50505050508152602001600282018054620007b690620054bb565b80601f0160208091040260200160405190810160405280929190818152602001828054620007e490620054bb565b8015620008355780601f10620008095761010080835404028352916020019162000835565b820191906000526020600020905b8154815290600101906020018083116200081757829003601f168201915b50505091835250506003820154602082015260048201546040820152600582015460609091019060ff1660018111156200087357620008736200552c565b60018111156200088757620008876200552c565b815250508152602001600682015481526020016007820154815260200160088201548152602001600982018054806020026020016040519081016040528092919081815260200182805480156200090857602002820191906000526020600020905b81546001600160a01b03168152600190910190602001808311620008e9575b5050505050815250509050919050565b600054610100900460ff16620009355760005460ff161562000939565b303b155b620009615760405162461bcd60e51b8152600401620009589062005122565b60405180910390fd5b600054610100900460ff1615801562000984576000805461ffff19166101011790555b818351620009938282620021e2565b600184620009a28282620021e2565b600586905560005b875181101562000a6d5760018060000160008a8481518110620009d157620009d162005542565b6020908102919091018101516001600160a01b03168252810191909152604001600020805460ff1916911515919091179055875160029089908390811062000a1d5762000a1d62005542565b60209081029190910181015182546001810184556000938452919092200180546001600160a01b0319166001600160a01b039092169190911790558062000a6481620054f8565b915050620009aa565b5050505050801562000a85576000805461ff00191690555b505050565b80600162000a99828262002205565b60055460025462000aad9060019062005472565b62000ab98282620021e2565b62000ac68560046200225e565b5050505050565b62000ada816001620022f2565b50565b62000ada33826000806040518060200160405280600081525062002756565b62000b086001620029cb565b565b62000ada816000620022f2565b600054610100900460ff1662000b345760005460ff161562000b38565b303b155b62000b575760405162461bcd60e51b8152600401620009589062005122565b600054610100900460ff1615801562000b7a576000805461ffff19166101011790555b62000b86848462000918565b62000b918262002b29565b801562000ba4576000805461ff00191690555b50505050565b60408051600380825260808201909252600091602082016060803683375050604051631635719760e31b81526000600482015291925073__UintLibrary___________________________9163b1ab8cb8915060240160206040518083038186803b15801562000c1957600080fd5b505af415801562000c2e573d6000803e3d6000fd5b505050506040513d601f19601f8201168201806040525081019062000c54919062004b43565b8160008151811062000c6a5762000c6a62005542565b602090810291909101015260405163bc215e8560e01b815273__AddressLibrary________________________9063bc215e859062000cae90869060040162004ef8565b60206040518083038186803b15801562000cc757600080fd5b505af415801562000cdc573d6000803e3d6000fd5b505050506040513d601f19601f8201168201806040525081019062000d02919062004b43565b8160018151811062000d185762000d1862005542565b6020908102919091010152604051632431a7cf60e01b815260009073__Library_______________________________90632431a7cf9062000d5f908590600401620050a8565b60006040518083038186803b15801562000d7857600080fd5b505af415801562000d8d573d6000803e3d6000fd5b505050506040513d6000823e601f3d908101601f1916820160405262000db7919081019062004b5d565b90506000600a60009054906101000a90046001600160a01b03166001600160a01b031663e220ad956040518163ffffffff1660e01b815260040160006040518083038186803b15801562000e0a57600080fd5b505afa15801562000e1f573d6000803e3d6000fd5b505050506040513d6000823e601f3d908101601f1916820160405262000e4991908101906200471d565b60068151811062000e5e5762000e5e62005542565b60200260200101519050806001600160a01b0316632c2ec26833308760008760006040518763ffffffff1660e01b815260040162000ea29695949392919062004f82565b600060405180830381600087803b15801562000ebd57600080fd5b505af115801562000ed2573d6000803e3d6000fd5b505050505050505050565b6060600e80548060200260200160405190810160405280929190818152602001828054801562000f2d57602002820191906000526020600020905b81548152602001906001019080831162000f18575b5050505050905090565b600080606060075460085460098080548060200260200160405190810160405280929190818152602001828054801562000f9b57602002820191906000526020600020905b81546001600160a01b0316815260019091019060200180831162000f7c575b50505050509050925092509250909192565b833362000fbb8282620020c4565b62000fc98686868662002bad565b505050505050565b606081156200103b5760038054604080516020808402820181019092528281529291908301828280156200102f57602002820191906000526020600020905b81546001600160a01b0316815260019091019060200180831162001010575b50505050509050919050565b60048054604080516020808402820181019092528281529291908301828280156200102f576020028201919060005260206000209081546001600160a01b03168152600190910190602001808311620010105750505050509050919050565b806000620010a9828262002205565b62000a858360036200225e565b620010c18162002de7565b1515600114156200110157600254620010dd9060019062005472565b6005541115620011015760405162461bcd60e51b8152600401620009589062005103565b62000ada81600162002e6c565b600a546040805163e220ad9560e01b8152905133926001600160a01b03169163e220ad95916004808301926000929190829003018186803b1580156200115357600080fd5b505afa15801562001168573d6000803e3d6000fd5b505050506040513d6000823e601f3d908101601f191682016040526200119291908101906200471d565b600181518110620011a757620011a762005542565b60200260200101516001600160a01b0316816001600160a01b031614806200128a5750600a60009054906101000a90046001600160a01b03166001600160a01b031663e220ad956040518163ffffffff1660e01b815260040160006040518083038186803b1580156200121957600080fd5b505afa1580156200122e573d6000803e3d6000fd5b505050506040513d6000823e601f3d908101601f191682016040526200125891908101906200471d565b6006815181106200126d576200126d62005542565b60200260200101516001600160a01b0316816001600160a01b0316145b620012ee5760405162461bcd60e51b815260206004820152602d60248201527f4974206973206e6f742066726f6d206f6e65206f66207468652063657274696660448201526c69656420636f6e74726163747360981b606482015260840162000958565b62000ac68585858562003315565b336000908152600f602052604080822090516326162dc360e01b8152600481019190915273__ItemsLibrary__________________________906326162dc39060240160206040518083038186803b1580156200135857600080fd5b505af41580156200136d573d6000803e3d6000fd5b505050506040513d601f19601f8201168201806040525081019062001393919062004b43565b905062000ada33826000806040518060200160405280600081525062002756565b8733620013c28282620020c4565b60008a81526010602090815260408083208c84528252918290205482518883028181018401909452888152909290918991899182919085019084908082843760009201919091525050604080516020808a028281018201909352898252909350899250889182918501908490808284376000920191909152506200144e9250859150849050836200373b565b898614620014705760405162461bcd60e51b8152600401620009589062005170565b60005b8a8110156200162d5773__ItemsLibrary__________________________6338335327600f60008f8f86818110620014af57620014af62005542565b9050602002016020810190620014c691906200463f565b6001600160a01b03166001600160a01b031681526020019081526020016000208c8c85818110620014fb57620014fb62005542565b905060200201358b8b8681811062001517576200151762005542565b905060200201356040518463ffffffff1660e01b81526004016200153e939291906200521d565b60006040518083038186803b1580156200155757600080fd5b505af41580156200156c573d6000803e3d6000fd5b505050508b8b8281811062001585576200158562005542565b90506020020160208101906200159c91906200463f565b6001600160a01b03168d8f7f1f0966cb4dbc8738200b37503c6989e77e4e56383816b0632219dbc8c241b8b78d8d86818110620015dd57620015dd62005542565b905060200201358c8c87818110620015f957620015f962005542565b905060200201356040516200161092919062005310565b60405180910390a4806200162481620054f8565b91505062001473565b50505060009a8b525050601060209081526040808b20998b529890525050509385209490945550505050565b60606001800180548060200260200160405190810160405280929190818152602001828054801562000f2d57602002820191906000526020600020905b81546001600160a01b0316815260019091019060200180831162001696575050505050905090565b8233620016cc8282620020c4565b6001600160a01b0384166000908152600f602052604080822090516326162dc360e01b8152600481019190915273__ItemsLibrary__________________________906326162dc39060240160206040518083038186803b1580156200173157600080fd5b505af415801562001746573d6000803e3d6000fd5b505050506040513d601f19601f820116820180604052508101906200176c919062004b43565b905062000fc985823360018862002756565b62000b086000620029cb565b33600162001799828262002205565b6000620017a681620038ee565b6002548490620017b78282620021e2565b600186620017c68282620021e2565b6006889055620017d76001620029cb565b5050505050505050565b62000ada81600062002e6c565b6060600c80548060200260200160405190810160405280929190818152602001828054801562000f2d576020028201919060005260206000209081548152602001906001019080831162000f18575050505050905090565b6001600160a01b0381166000908152600f602052604080822090516326162dc360e01b8152600481019190915273__ItemsLibrary__________________________906326162dc39060240160206040518083038186803b158015620018ab57600080fd5b505af4158015620018c0573d6000803e3d6000fd5b505050506040513d601f19601f82011682018060405250810190620018e6919062004b43565b92915050565b815182906001600160a01b0316620019535760405162461bcd60e51b8152602060048201526024808201527f4e4654204d61726b6574206f776e65722063616e6e6f742062652061646472656044820152630737320360e41b606482015260840162000958565b6060810151608082015160405163bdbff48760e01b815273__Library_______________________________9263bdbff48792620019949260040162005310565b60006040518083038186803b158015620019ad57600080fd5b505af4158015620019c2573d6000803e3d6000fd5b5050505080602001515160001062001a0d5760405162461bcd60e51b815260206004820152600d60248201526c4e616d6520697320656d70747960981b604482015260640162000958565b80604001515160001062001a565760405162461bcd60e51b815260206004820152600f60248201526e53796d626f6c20697320656d70747960881b604482015260640162000958565b600a546040805163e220ad9560e01b815290516000926001600160a01b03169163e220ad959160048083019286929190829003018186803b15801562001a9b57600080fd5b505afa15801562001ab0573d6000803e3d6000fd5b505050506040513d6000823e601f3d908101601f1916820160405262001ada91908101906200471d565b60028151811062001aef5762001aef62005542565b60200260200101516001600160a01b031663b049473f6040518163ffffffff1660e01b815260040160006040518083038186803b15801562001b3057600080fd5b505afa15801562001b45573d6000803e3d6000fd5b505050506040513d6000823e601f3d908101601f1916820160405262001b6f919081019062004870565b9050600081818151811062001b885762001b8862005542565b602002602001015160008151811062001ba55762001ba562005542565b602002602001015190506000826001600881111562001bc85762001bc86200552c565b8151811062001bdb5762001bdb62005542565b602002602001015160008151811062001bf85762001bf862005542565b60200260200101519050841562001d675762001cc360003384600a60009054906101000a90046001600160a01b03166001600160a01b031663e220ad956040518163ffffffff1660e01b815260040160006040518083038186803b15801562001c6057600080fd5b505afa15801562001c75573d6000803e3d6000fd5b505050506040513d6000823e601f3d908101601f1916820160405262001c9f91908101906200471d565b60025b8151811062001cb55762001cb562005542565b602002602001015162002bad565b62001d6160003383600a60009054906101000a90046001600160a01b03166001600160a01b031663e220ad956040518163ffffffff1660e01b815260040160006040518083038186803b15801562001d1a57600080fd5b505afa15801562001d2f573d6000803e3d6000fd5b505050506040513d6000823e601f3d908101601f1916820160405262001d5991908101906200471d565b600562001ca2565b6200205a565b600a546040805163e220ad9560e01b815290516000926001600160a01b03169163e220ad959160048083019286929190829003018186803b15801562001dac57600080fd5b505afa15801562001dc1573d6000803e3d6000fd5b505050506040513d6000823e601f3d908101601f1916820160405262001deb91908101906200471d565b60068151811062001e005762001e0062005542565b60200260200101519050806001600160a01b0316632c2ec26833600a60009054906101000a90046001600160a01b03166001600160a01b031663e220ad956040518163ffffffff1660e01b815260040160006040518083038186803b15801562001e6957600080fd5b505afa15801562001e7e573d6000803e3d6000fd5b505050506040513d6000823e601f3d908101601f1916820160405262001ea891908101906200471d565b60028151811062001ebd5762001ebd62005542565b60200260200101518660006040518060200160405280600081525060006040518763ffffffff1660e01b815260040162001efd9695949392919062004f82565b600060405180830381600087803b15801562001f1857600080fd5b505af115801562001f2d573d6000803e3d6000fd5b50505050806001600160a01b0316632c2ec26833600a60009054906101000a90046001600160a01b03166001600160a01b031663e220ad956040518163ffffffff1660e01b815260040160006040518083038186803b15801562001f9057600080fd5b505afa15801562001fa5573d6000803e3d6000fd5b505050506040513d6000823e601f3d908101601f1916820160405262001fcf91908101906200471d565b60058151811062001fe45762001fe462005542565b60200260200101518560006040518060200160405280600081525060006040518763ffffffff1660e01b8152600401620020249695949392919062004f82565b600060405180830381600087803b1580156200203f57600080fd5b505af115801562002054573d6000803e3d6000fd5b50505050505b602080870151805191012062002071818862003968565b807f88d341cdb636e2cf41b99330be584ef11888487c9b2aef53410ed90fb2c487ad886000015189602001518a60400151604051620020b3939291906200504f565b60405180910390a250505050505050565b6000828152600b60205260409020546001600160a01b03828116911614620021435760405162461bcd60e51b815260206004820152602b60248201527f546865204d61726b657420496420616e64204164647265737320646f206e6f7460448201526a0818dbdc9c995cdc1bdb9960aa1b606482015260840162000958565b5050565b600082815260106020908152604080832084845290915290205415620021435760405162461bcd60e51b815260206004820152602d60248201527f556e61737369676e65642063726564697420666f72207468697320746f6b656e60448201526c206973206e6f7420656d70747960981b606482015260840162000958565b6000928352601060209081526040808520938552929052912055565b80821115620021435760405162461bcd60e51b8152600401620009589062005103565b6001600160a01b03821660009081526001602052604090205460ff16151581151514620021435760405162461bcd60e51b815260040162000958906020808252600490820152634543392d60e01b604082015260600190565b3360016200226d828262002205565b8360006200227c828262003b12565b84546001808201875560008781526020812090920180546001600160a01b0319166001600160a01b038a161790558654620022b8919062005472565b6001600160a01b0388166000908152600160208190526040909120600201829055909150620022e990889062002e6c565b50505050505050565b33600162002301828262002205565b6000848152600d602090815260409182902060090180548351818402810184019094528084523393928301828280156200236557602002820191906000526020600020905b81546001600160a01b0316815260019091019060200180831162002346575b505050505062002376828262003b6b565b6000868152600d602052604090205486906001600160a01b0316620023de5760405162461bcd60e51b815260206004820152601d60248201527f5468697320697373756572206964206973206e6f742070656e64696e67000000604482015260640162000958565b60408051338152871515602082015288917f5a1a88bd27a0cf1c470b27b132493e61efc1eaf3d1b57db0ab7f73182345d047910160405180910390a26000878152600d602090815260408220600901805460018101825590835291200180546001600160a01b031916331790558515620026d8576000878152600d602052604081206007018054916200247183620054f8565b90915550506005546000888152600d602052604090206007015410620026d257600c805460018181019092557fdf6966c971051c3d54ec59162606531493a51404a002842f56009d7e5cf4a8c7018890556000888152600d6020526040902080549101805462002646926001600160a01b03169190620024f190620054bb565b80601f01602080910402602001604051908101604052809291908181526020018280546200251f90620054bb565b8015620025705780601f10620025445761010080835404028352916020019162002570565b820191906000526020600020905b8154815290600101906020018083116200255257829003601f168201915b50505060008c8152600d602052604090206002018054909250620025959150620054bb565b80601f0160208091040260200160405190810160405280929190818152602001828054620025c390620054bb565b8015620026145780601f10620025e85761010080835404028352916020019162002614565b820191906000526020600020905b815481529060010190602001808311620025f657829003601f168201915b50505060008d8152600d60205260409020600381015460048201546005909201549093509091508d9060ff1662003c32565b6000888152600b6020526040902080546001600160a01b0319166001600160a01b03929092169190911790556200267d8762003f07565b6000878152600b60205260409081902054905188917f2cedba2f59ec9c6a70e350caabb40ea15150e2bd297a517df51c1fbdbeacad3991620026c9916001600160a01b03169062004ef8565b60405180910390a25b620022e9565b6000878152600d60205260408120600801805491620026f783620054f8565b90915550506005546000888152600d602052604090206008015410620022e957620027228762003f07565b60405187907f403eabfde87045e1433576679912c142f6e51573d2635748e5331c62fbcfecc190600090a250505050505050565b6001600160a01b038086166000908152600f6020526040808220600a54825163e220ad9560e01b8152925173__ItemsLibrary__________________________956318b84a219593948b948d9460019493169263e220ad95926004808201939291829003018186803b158015620027cc57600080fd5b505afa158015620027e1573d6000803e3d6000fd5b505050506040513d6000823e601f3d908101601f191682016040526200280b91908101906200471d565b60068151811062002820576200282062005542565b60200260200101516001600160a01b031663b049473f6040518163ffffffff1660e01b815260040160006040518083038186803b1580156200286157600080fd5b505afa15801562002876573d6000803e3d6000fd5b505050506040513d6000823e601f3d908101601f19168201604052620028a0919081019062004a26565b600081518110620028b557620028b562005542565b602002602001015160000151888860006040518963ffffffff1660e01b8152600401620028ea989796959493929190620051bb565b60006040518083038186803b1580156200290357600080fd5b505af415801562002918573d6000803e3d6000fd5b505050506001600160a01b038316156200298057826001600160a01b0316856001600160a01b03167f3a7f8bf3f0d95026e8cd9a7d4ab518248a380c6e63e2611c19c360d4ed07469a866040516200297291815260200190565b60405180910390a362000ac6565b846001600160a01b03167f2ea7968b99b8c24c37e3919ac458cdbab6b3d63ff9e271eddd29661aae4f769185604051620029bc91815260200190565b60405180910390a25050505050565b336001620029da828262002205565b6001620029e781620038ee565b33600980548060200260200160405190810160405280929190818152602001828054801562002a4057602002820191906000526020600020905b81546001600160a01b0316815260019091019060200180831162002a21575b505050505062002a51828262003b6b565b851562002a795760016007600082825462002a6d919062005412565b9091555062002a949050565b60016008600082825462002a8e919062005412565b90915550505b600980546001810182556000919091527f6e1540171b6c0c960b71a7020d9f60077f6af931a8bbf590da0223dacf75c7af018054336001600160a01b031990911681179091556006546040805191825260208201929092528715158183015290517fb335599a2dd1eaaedeb810215d45e667a6c5ac7bcfd03c29e597db8bf0cddcc69181900360600190a162000fc962004057565b600054610100900460ff1662002b465760005460ff161562002b4a565b303b155b62002b695760405162461bcd60e51b8152600401620009589062005122565b600054610100900460ff1615801562002b8c576000805461ffff19166101011790555b62002b9782620040fd565b801562002143576000805461ff00191690555050565b604080516020808201835260008083526001600160a01b038088168252600f909252838120600a54855163e220ad9560e01b81529551949573__ItemsLibrary__________________________956318b84a219593948a948a9460019491169263e220ad9592600480840193919291829003018186803b15801562002c3157600080fd5b505afa15801562002c46573d6000803e3d6000fd5b505050506040513d6000823e601f3d908101601f1916820160405262002c7091908101906200471d565b60068151811062002c855762002c8562005542565b60200260200101516001600160a01b031663b049473f6040518163ffffffff1660e01b815260040160006040518083038186803b15801562002cc657600080fd5b505afa15801562002cdb573d6000803e3d6000fd5b505050506040513d6000823e601f3d908101601f1916820160405262002d05919081019062004a26565b60008151811062002d1a5762002d1a62005542565b60200260200101516000015160016040518060200160405280600081525060006040518963ffffffff1660e01b815260040162002d5f989796959493929190620051bb565b60006040518083038186803b15801562002d7857600080fd5b505af415801562002d8d573d6000803e3d6000fd5b50505050816001600160a01b0316846001600160a01b0316867fc3552ae9eaa5c3eca3c6179f33194d5bf1df2e81eddf6139d511846be0d4c9858660405162002dd891815260200190565b60405180910390a45050505050565b6004546001600160a01b03821660009081526001602052604081206002015490911162002e1657506000919050565b6001600160a01b03821660009081526001602052604090206002015460048054909190811062002e4a5762002e4a62005542565b6000918252602090912001546001600160a01b03928316921691909114919050565b33600162002e7b828262002205565b83600162002e8a828262003b12565b6001600160a01b038616600090815260016020908152604091829020600501805483518184028101840190945280845233939283018282801562002ef857602002820191906000526020600020905b81546001600160a01b0316815260019091019060200180831162002ed9575b505050505062002f09828262003b6b565b604080516001600160a01b038a1681523360208201528815158183015290517fc6f241efc3de3ce31d0e682102cc781f0605f0f90d72addfea699e4aea85dd799181900360600190a16001600160a01b038816600090815260016020818152604083206005018054928301815583529091200180546001600160a01b03191633179055861562003225576001600160a01b038816600090815260016020526040812060030180549162002fbc83620054f8565b90915550506005546001600160a01b038916600090815260016020526040902060030154106200321f57600462002ff38962004191565b15620030cc575060028054600180820183557f405787fa12a823e0f2b7631cc41b3ba8828b3321ca811111fa75cd3aa3bb5ace90910180546001600160a01b0319166001600160a01b038c169081179091556000908152602082905260409020805460ff19168217905590546003916200306d9162005472565b6001600160a01b038a166000908152600160208190526040918290200191909155517f45bbe5ceeddcb6d0b4045349efc87a3fde966578e3970cda6f53bfc76efaf9f790620030be908b9062004ef8565b60405180910390a162003211565b6001600160a01b03891660009081526001602081905260409182902001549051633c39c19f60e11b815273__AddressLibrary________________________90637873833e906200312590849060029060040162005310565b60006040518083038186803b1580156200313e57600080fd5b505af415801562003153573d6000803e3d6000fd5b50506002548310159150620031ad905057806001600001600060018001848154811062003184576200318462005542565b60009182526020808320909101546001600160a01b031683528201929092526040019020600101555b6001600160a01b038a166000908152600160208190526040808320805460ff1916815590910191909155517f82bcab3b042f3e2143a9d33d07fa130afdf763f17a45679670f0e39f12064ca89062003207908c9062004ef8565b60405180910390a1505b6200321d8982620041f4565b505b620017d7565b6001600160a01b03881660009081526001602052604081206004018054916200324e83620054f8565b90915550506005546001600160a01b03891660009081526001602052604090206004015410620017d7576004620032858962004191565b15620032cf57506040516003907f622a69297177c029df8c1ba7f4d2d59881089b571ae96800e634aff50d67492e90620032c1908b9062004ef8565b60405180910390a162003309565b7f547e31c58b802b63bc89f1109a132a291b0527c9196c97759829aeaecd3c2d398960405162003300919062004ef8565b60405180910390a15b62000ed28982620041f4565b60405163caa8f58960e01b815260009073__Library_______________________________9063caa8f5899062003351908590600401620050ee565b60006040518083038186803b1580156200336a57600080fd5b505af41580156200337f573d6000803e3d6000fd5b505050506040513d6000823e601f3d908101601f19168201604052620033a9919081019062004992565b9050600081600081518110620033c357620033c362005542565b602002602001015160001c6001811115620033e257620033e26200552c565b9050806001811115620033f957620033f96200552c565b6200358a57600073__AddressLibrary________________________63f4ce9ae88460018151811062003430576200343062005542565b60200260200101516040518263ffffffff1660e01b81526004016200345791815260200190565b60206040518083038186803b1580156200347057600080fd5b505af415801562003485573d6000803e3d6000fd5b505050506040513d601f19601f82011682018060405250810190620034ab919062004666565b6001600160a01b0381166000908152600f6020526040908190209051633833532760e01b815291925073__ItemsLibrary__________________________9163383353279162003503918a906001906004016200521d565b60006040518083038186803b1580156200351c57600080fd5b505af415801562003531573d6000803e3d6000fd5b50505050866001600160a01b0316816001600160a01b03167f2db0422b7b00320178055968e2ebe34d54d66b98f662782bec28aaddcf8697e9886040516200357b91815260200190565b60405180910390a35062000fc9565b600073__UintLibrary___________________________630bd4715e84600181518110620035bc57620035bc62005542565b60200260200101516040518263ffffffff1660e01b8152600401620035e391815260200190565b60206040518083038186803b158015620035fc57600080fd5b505af415801562003611573d6000803e3d6000fd5b505050506040513d601f19601f8201168201806040525081019062003637919062004b43565b9050600073__UintLibrary___________________________630bd4715e856002815181106200366b576200366b62005542565b60200260200101516040518263ffffffff1660e01b81526004016200369291815260200190565b60206040518083038186803b158015620036ab57600080fd5b505af4158015620036c0573d6000803e3d6000fd5b505050506040513d601f19601f82011682018060405250810190620036e6919062004b43565b9050620036f5828289620021c6565b80827f11d40ce091479b07ca14dc778720652f2760dc3237903b19ab5698a7cf478bcb896040516200372991815260200190565b60405180910390a35050505050505050565b80518251146200375f5760405162461bcd60e51b8152600401620009589062005170565b604051633c952fb360e21b815260009073__UintLibrary___________________________9063f254becc906200379b908590600401620050a8565b60206040518083038186803b158015620037b457600080fd5b505af4158015620037c9573d6000803e3d6000fd5b505050506040513d601f19601f82011682018060405250810190620037ef919062004b43565b90506000805b8351811015620038755783818151811062003814576200381462005542565b60200260200101518386838151811062003832576200383262005542565b602002602001015162003846919062005450565b6200385291906200542d565b6200385e908362005412565b9150806200386c81620054f8565b915050620037f5565b508062003883838762005450565b1462000ac65760405162461bcd60e51b815260206004820152603360248201527f74686520746f74616c20616d6f756e74206973206e6f7420657175616c20746f604482015272207468652063616c63756c61746564206f6e6560681b606482015260840162000958565b80156200392e5760065462000ada5760405162461bcd60e51b8152602060048201526005602482015264454333312d60d81b604482015260640162000958565b6006541562000ada5760405162461bcd60e51b8152602060048201526005602482015264454333302d60d81b604482015260640162000958565b6000828152600d60205260409020546001600160a01b0316158015620039a357506000828152600b60205260409020546001600160a01b0316155b62003a015760405162461bcd60e51b815260206004820152602760248201527f5468697320497373756572204e616d652068617320616c72656164792062656560448201526637103a30b5b2b760c91b606482015260840162000958565b80516000838152600d6020908152604090912080546001600160a01b0319166001600160a01b0390931692909217825580830151805162003a4b9360010192919091019062004382565b506040808201516000848152600d6020908152929020815162003a7993600290920192919091019062004382565b5060608101516000838152600d6020526040902060038101919091556080820151600482015560a08201516005909101805460ff19166001838181111562003ac55762003ac56200552c565b021790555050600e80546000838152600d60205260408120600601829055600182018355919091527fbb7b4a454dc3493923482f07822329ed19e8244eff582cc204f8554c3620c3fd0155565b62003b1d8262004191565b8062003b2f575062003b2f8262002de7565b151581151514620021435760405162461bcd60e51b8152602060048201526005602482015264454331302d60d81b604482015260640162000958565b60405163f7cf62d760e01b815273__AddressLibrary________________________9063f7cf62d79062003ba6908590859060040162004fd1565b60206040518083038186803b15801562003bbf57600080fd5b505af415801562003bd4573d6000803e3d6000fd5b505050506040513d601f19601f8201168201806040525081019062003bfa919062004b23565b15620021435760405162461bcd60e51b815260040162000958906020808252600490820152634543352d60e01b604082015260600190565b600080600a60009054906101000a90046001600160a01b03166001600160a01b031663efd621de6040518163ffffffff1660e01b815260040160006040518083038186803b15801562003c8457600080fd5b505afa15801562003c99573d6000803e3d6000fd5b505050506040513d6000823e601f3d908101601f1916820160405262003cc391908101906200471d565b60008151811062003cd85762003cd862005542565b602002602001015190506000600a60009054906101000a90046001600160a01b03166001600160a01b031663e220ad956040518163ffffffff1660e01b815260040160006040518083038186803b15801562003d3357600080fd5b505afa15801562003d48573d6000803e3d6000fd5b505050506040513d6000823e601f3d908101601f1916820160405262003d7291908101906200471d565b60028151811062003d875762003d8762005542565b60200260200101516001600160a01b031663b049473f6040518163ffffffff1660e01b815260040160006040518083038186803b15801562003dc857600080fd5b505afa15801562003ddd573d6000803e3d6000fd5b505050506040513d6000823e601f3d908101601f1916820160405262003e07919081019062004870565b60088151811062003e1c5762003e1c62005542565b602002602001015160008151811062003e395762003e3962005542565b6020908102919091010151600a549091506000906001600160a01b03168b8b8b858c8c8c8c600181111562003e725762003e726200552c565b60405160240162003e8c9998979695949392919062004f0c565b60408051601f198184030181529181526020820180516001600160e01b03166398a7541d60e01b179052519091506000908490839062003ecc9062004411565b62003ed992919062005021565b604051809103906000f08015801562003ef6573d6000803e3d6000fd5b509c9b505050505050505050505050565b6000818152600d60205260409081902060060154905163cffd93cd60e01b815273__UintLibrary___________________________9063cffd93cd9062003f56908490600e9060040162005310565b60006040518083038186803b15801562003f6f57600080fd5b505af415801562003f84573d6000803e3d6000fd5b5050505080600e80549050111562003fd25780600d6000600e848154811062003fb15762003fb162005542565b90600052602060002001548152602001908152602001600020600601819055505b6000828152600d6020526040812080546001600160a01b03191681559062003ffe60018301826200441f565b6200400e6002830160006200441f565b50600060038201819055600482018190556005909101805460ff19169055828152600d60205260408120600781018290556008810182905562002143916009909101906200445e565b620040676007546005546200430f565b15620040b35760065460058190556040519081527f09cfdf09b84b5390e2f9e64a6b66bdfd4e3b7a611dfdd07cde2f5289ecdaace7906020015b60405180910390a162000b086200432c565b620040c36008546005546200430f565b1562000b08577f6005dc34d50a3e2ea64571b58119d8a81074b8e2db57a77c28e664641733308f600654604051620040a191815260200190565b600054610100900460ff166200411a5760005460ff16156200411e565b303b155b6200413d5760405162461bcd60e51b8152600401620009589062005122565b600054610100900460ff1615801562004160576000805461ffff19166101011790555b600a80546001600160a01b0319166001600160a01b038416179055801562002143576000805461ff00191690555050565b6003546001600160a01b038216600090815260016020526040812060020154909111620041c057506000919050565b6001600160a01b03821660009081526001602052604090206002015460038054909190811062002e4a5762002e4a62005542565b6001600160a01b03821660009081526001602052604090819020600201549051633c39c19f60e11b815273__AddressLibrary________________________90637873833e906200424c908490869060040162005310565b60006040518083038186803b1580156200426557600080fd5b505af41580156200427a573d6000803e3d6000fd5b505050508082805490501115620042d1578060016000016000848481548110620042a857620042a862005542565b60009182526020808320909101546001600160a01b031683528201929092526040019020600201555b6001600160a01b038316600090815260016020526040812060028101829055600381018290556004810182905562000a85916005909101906200445e565b6000818310156200432357506000620018e6565b50600192915050565b600060068190556007819055600881905562000b08906009906200445e565b6040518060a00160405280620043606200447e565b8152602001600081526020016000815260200160008152602001606081525090565b8280546200439090620054bb565b90600052602060002090601f016020900481019282620043b45760008555620043ff565b82601f10620043cf57805160ff1916838001178555620043ff565b82800160010185558215620043ff579182015b82811115620043ff578251825591602001919060010190620043e2565b506200440d929150620044d0565b5090565b610993806200559483390190565b5080546200442d90620054bb565b6000825580601f106200443e575050565b601f01602090049060005260206000209081019062000ada9190620044d0565b508054600082559060005260206000209081019062000ada9190620044d0565b6040518060c0016040528060006001600160a01b031681526020016060815260200160608152602001600081526020016000815260200160006001811115620044cb57620044cb6200552c565b905290565b5b808211156200440d5760008155600101620044d1565b8035620044f4816200556e565b919050565b60008083601f8401126200450c57600080fd5b5081356001600160401b038111156200452457600080fd5b6020830191508360208260051b85010111156200454057600080fd5b9250929050565b600082601f8301126200455957600080fd5b81356020620045726200456c83620053c2565b6200538f565b80838252828201915082860187848660051b89010111156200459357600080fd5b60005b85811015620045bf578135620045ac816200556e565b8452928401929084019060010162004596565b5090979650505050505050565b8035620044f48162005584565b600082601f830112620045eb57600080fd5b8135620045fc6200456c82620053e8565b8181528460208386010111156200461257600080fd5b816020850160208301376000918101602001919091529392505050565b803560028110620044f457600080fd5b6000602082840312156200465257600080fd5b81356200465f816200556e565b9392505050565b6000602082840312156200467957600080fd5b81516200465f816200556e565b600080604083850312156200469a57600080fd5b8235620046a7816200556e565b946020939093013593505050565b60008060008060808587031215620046cc57600080fd5b8435620046d9816200556e565b9350602085013592506040850135915060608501356001600160401b038111156200470357600080fd5b6200471187828801620045d9565b91505092959194509250565b600060208083850312156200473157600080fd5b82516001600160401b038111156200474857600080fd5b8301601f810185136200475a57600080fd5b80516200476b6200456c82620053c2565b80828252848201915084840188868560051b87010111156200478c57600080fd5b600094505b83851015620047bc578051620047a7816200556e565b83526001949094019391850191850162004791565b50979650505050505050565b60008060408385031215620047dc57600080fd5b82356001600160401b03811115620047f357600080fd5b620048018582860162004547565b95602094909401359450505050565b6000806000606084860312156200482657600080fd5b83356001600160401b038111156200483d57600080fd5b6200484b8682870162004547565b93505060208401359150604084013562004865816200556e565b809150509250925092565b600060208083850312156200488457600080fd5b82516001600160401b03808211156200489c57600080fd5b818501915085601f830112620048b157600080fd5b8151620048c26200456c82620053c2565b80828252858201915085850189878560051b8801011115620048e357600080fd5b60005b848110156200498357815186811115620048ff57600080fd5b8701603f81018c136200491157600080fd5b88810151620049246200456c82620053c2565b808282528b82019150604084018f60408560051b87010111156200494757600080fd5b600094505b838510156200496c578051835260019490940193918c01918c016200494c565b5087525050509287019290870190600101620048e6565b50909998505050505050505050565b60006020808385031215620049a657600080fd5b82516001600160401b03811115620049bd57600080fd5b8301601f81018513620049cf57600080fd5b8051620049e06200456c82620053c2565b80828252848201915084840188868560051b870101111562004a0157600080fd5b600094505b83851015620047bc57805183526001949094019391850191850162004a06565b6000602080838503121562004a3a57600080fd5b82516001600160401b0381111562004a5157600080fd5b8301601f8101851362004a6357600080fd5b805162004a746200456c82620053c2565b80828252848201915084840188868560061b870101111562004a9557600080fd5b60009450845b8481101562004af557604080838c03121562004ab5578687fd5b62004abf6200533f565b835162004acc816200556e565b81528389015162004add8162005584565b818a0152855293870193919091019060010162004a9b565b509098975050505050505050565b60006020828403121562004b1657600080fd5b81356200465f8162005584565b60006020828403121562004b3657600080fd5b81516200465f8162005584565b60006020828403121562004b5657600080fd5b5051919050565b60006020828403121562004b7057600080fd5b81516001600160401b0381111562004b8757600080fd5b8201601f8101841362004b9957600080fd5b805162004baa6200456c82620053e8565b81815285602083850101111562004bc057600080fd5b62004bd38260208301602086016200548c565b95945050505050565b6000806040838503121562004bf057600080fd5b82356001600160401b038082111562004c0857600080fd5b9084019060c0828703121562004c1d57600080fd5b62004c276200536a565b62004c3283620044e7565b815260208301358281111562004c4757600080fd5b62004c5588828601620045d9565b60208301525060408301358281111562004c6e57600080fd5b62004c7c88828601620045d9565b604083015250606083013560608201526080830135608082015262004ca460a084016200462f565b60a0820152935062004cbc91505060208401620045cc565b90509250929050565b60006020828403121562004cd857600080fd5b5035919050565b60008060006060848603121562004cf557600080fd5b83359250602084013562004d09816200556e565b915060408401356001600160401b0381111562004d2557600080fd5b62004d3386828701620045d9565b9150509250925092565b6000806000806080858703121562004d5457600080fd5b84359350602085013562004d68816200556e565b925060408501359150606085013562004d81816200556e565b939692955090935050565b6000806000806080858703121562004da357600080fd5b8435935060208501359250604085013562004dbe816200556e565b9396929550929360600135925050565b60008060008060008060008060a0898b03121562004deb57600080fd5b883597506020890135965060408901356001600160401b038082111562004e1157600080fd5b62004e1f8c838d01620044f9565b909850965060608b013591508082111562004e3957600080fd5b62004e478c838d01620044f9565b909650945060808b013591508082111562004e6157600080fd5b5062004e708b828c01620044f9565b999c989b5096995094979396929594505050565b600081518084526020808501945080840160005b8381101562004ebf5781516001600160a01b03168752958201959082019060010162004e98565b509495945050505050565b6000815180845262004ee48160208601602086016200548c565b601f01601f19169290920160200192915050565b6001600160a01b0391909116815260200190565b6001600160a01b038a81168252891660208201526101206040820181905260009062004f3b8382018b62004eca565b9050828103606084015262004f51818a62004eca565b6080840198909852505060a081019490945260c084019290925260e083015260ff1661010090910152949350505050565b6001600160a01b03878116825286166020820152604081018590526060810184905260c06080820181905260009062004fbe9083018562004eca565b90508260a0830152979650505050505050565b6001600160a01b038381168252604060208084018290528451918401829052600092858201929091906060860190855b8181101562004af557855185168352948301949183019160010162005001565b6001600160a01b0383168152604060208201819052600090620050479083018462004eca565b949350505050565b6001600160a01b0384168152606060208201819052600090620050759083018562004eca565b828103604084015262005089818562004eca565b9695505050505050565b6020815260006200465f602083018462004e84565b6020808252825182820181905260009190848201906040850190845b81811015620050e257835183529284019291840191600101620050c4565b50909695505050505050565b6020815260006200465f602083018462004eca565b602080825260059082015264454331392d60d81b604082015260600190565b6020808252602e908201527f496e697469616c697a61626c653a20636f6e747261637420697320616c72656160408201526d191e481a5b9a5d1a585b1a5e995960921b606082015260800190565b6020808252602b908201527f50726f76696465642061727261797320646f206e6f742068617665207468652060408201526a0e6c2daca40d8cadccee8d60ab1b606082015260800190565b888152602081018890526001600160a01b03878116604083015286151560608301528516608082015283151560a082015261010060c08201819052600090620052078382018662004eca565b9150508260e08301529998505050505050505050565b9283526020830191909152604082015260600190565b602081526000825160a0602084015260018060a01b0381511660c0840152602081015160c060e08501526200526d61018085018262004eca565b9050604082015160bf19858303016101008601526200528d828262004eca565b9150506060820151610120850152608082015161014085015260a0820151915060028210620052cc57634e487b7160e01b600052602160045260246000fd5b8161016085015260208501516040850152604085015160608501526060850151608085015260808501519150601f198482030160a085015262004bd3818362004e84565b918252602082015260400190565b83815282602082015260606040820152600062004bd3606083018462004e84565b604080519081016001600160401b038111828210171562005364576200536462005558565b60405290565b60405160c081016001600160401b038111828210171562005364576200536462005558565b604051601f8201601f191681016001600160401b0381118282101715620053ba57620053ba62005558565b604052919050565b60006001600160401b03821115620053de57620053de62005558565b5060051b60200190565b60006001600160401b0382111562005404576200540462005558565b50601f01601f191660200190565b6000821982111562005428576200542862005516565b500190565b6000826200544b57634e487b7160e01b600052601260045260246000fd5b500490565b60008160001904831182151516156200546d576200546d62005516565b500290565b60008282101562005487576200548762005516565b500390565b60005b83811015620054a95781810151838201526020016200548f565b8381111562000ba45750506000910152565b600181811c90821680620054d057607f821691505b60208210811415620054f257634e487b7160e01b600052602260045260246000fd5b50919050565b60006000198214156200550f576200550f62005516565b5060010190565b634e487b7160e01b600052601160045260246000fd5b634e487b7160e01b600052602160045260246000fd5b634e487b7160e01b600052603260045260246000fd5b634e487b7160e01b600052604160045260246000fd5b6001600160a01b038116811462000ada57600080fd5b801515811462000ada57600080fdfe608060405260405161099338038061099383398101604081905261002291610470565b61004d60017fa3f0ad74e5423aebfd80d3ef4346578335a9a72aeaee59ff6cb3582b35133d5161057f565b60008051602061094c83398151915214610069576100696105d0565b6100758282600061007c565b50506105fc565b61008583610156565b6040516001600160a01b038416907f1cf3b03a6cf19fa2baba4df148e9dcabedea7f8a5c07840e207e5c089be95d3e90600090a26000825111806100c65750805b156101515761014f836001600160a01b0316635c60da1b6040518163ffffffff1660e01b815260040160206040518083038186803b15801561010757600080fd5b505afa15801561011b573d6000803e3d6000fd5b505050506040513d601f19601f8201168201806040525081019061013f9190610455565b836102f660201b6100291760201c565b505b505050565b6101698161032260201b6100551760201c565b6101c85760405162461bcd60e51b815260206004820152602560248201527f455243313936373a206e657720626561636f6e206973206e6f74206120636f6e6044820152641d1c9858dd60da1b60648201526084015b60405180910390fd5b61024b816001600160a01b0316635c60da1b6040518163ffffffff1660e01b815260040160206040518083038186803b15801561020457600080fd5b505afa158015610218573d6000803e3d6000fd5b505050506040513d601f19601f8201168201806040525081019061023c9190610455565b61032260201b6100551760201c565b6102b05760405162461bcd60e51b815260206004820152603060248201527f455243313936373a20626561636f6e20696d706c656d656e746174696f6e206960448201526f1cc81b9bdd08184818dbdb9d1c9858dd60821b60648201526084016101bf565b806102d560008051602061094c83398151915260001b61032860201b61005b1760201c565b80546001600160a01b0319166001600160a01b039290921691909117905550565b606061031b838360405180606001604052806027815260200161096c6027913961032b565b9392505050565b3b151590565b90565b6060833b61038a5760405162461bcd60e51b815260206004820152602660248201527f416464726573733a2064656c65676174652063616c6c20746f206e6f6e2d636f6044820152651b9d1c9858dd60d21b60648201526084016101bf565b600080856001600160a01b0316856040516103a59190610530565b600060405180830381855af49150503d80600081146103e0576040519150601f19603f3d011682016040523d82523d6000602084013e6103e5565b606091505b5090925090506103f6828286610400565b9695505050505050565b6060831561040f57508161031b565b82511561041f5782518084602001fd5b8160405162461bcd60e51b81526004016101bf919061054c565b80516001600160a01b038116811461045057600080fd5b919050565b60006020828403121561046757600080fd5b61031b82610439565b6000806040838503121561048357600080fd5b61048c83610439565b60208401519092506001600160401b03808211156104a957600080fd5b818501915085601f8301126104bd57600080fd5b8151818111156104cf576104cf6105e6565b604051601f8201601f19908116603f011681019083821181831017156104f7576104f76105e6565b8160405282815288602084870101111561051057600080fd5b6105218360208301602088016105a4565b80955050505050509250929050565b600082516105428184602087016105a4565b9190910192915050565b602081526000825180602084015261056b8160408501602087016105a4565b601f01601f19169190910160400192915050565b60008282101561059f57634e487b7160e01b600052601160045260246000fd5b500390565b60005b838110156105bf5781810151838201526020016105a7565b8381111561014f5750506000910152565b634e487b7160e01b600052600160045260246000fd5b634e487b7160e01b600052604160045260246000fd5b6103418061060b6000396000f3fe60806040523661001357610011610017565b005b6100115b61002761002261005e565b610106565b565b606061004e83836040518060600160405280602781526020016102e56027913961012a565b9392505050565b3b151590565b90565b60006100917fa3f0ad74e5423aebfd80d3ef4346578335a9a72aeaee59ff6cb3582b35133d50546001600160a01b031690565b6001600160a01b0316635c60da1b6040518163ffffffff1660e01b815260040160206040518083038186803b1580156100c957600080fd5b505afa1580156100dd573d6000803e3d6000fd5b505050506040513d601f19601f82011682018060405250810190610101919061023c565b905090565b3660008037600080366000845af43d6000803e808015610125573d6000f35b3d6000fd5b6060833b61018e5760405162461bcd60e51b815260206004820152602660248201527f416464726573733a2064656c65676174652063616c6c20746f206e6f6e2d636f6044820152651b9d1c9858dd60d21b60648201526084015b60405180910390fd5b600080856001600160a01b0316856040516101a99190610265565b600060405180830381855af49150503d80600081146101e4576040519150601f19603f3d011682016040523d82523d6000602084013e6101e9565b606091505b50915091506101f9828286610203565b9695505050505050565b6060831561021257508161004e565b8251156102225782518084602001fd5b8160405162461bcd60e51b81526004016101859190610281565b60006020828403121561024e57600080fd5b81516001600160a01b038116811461004e57600080fd5b600082516102778184602087016102b4565b9190910192915050565b60208152600082518060208401526102a08160408501602087016102b4565b601f01601f19169190910160400192915050565b60005b838110156102cf5781810151838201526020016102b7565b838111156102de576000848401525b5050505056fe416464726573733a206c6f772d6c6576656c2064656c65676174652063616c6c206661696c6564a2646970667358221220148d20618ce0e4acd0b179dccf12503163fb589ddd8df806d6d9c09a8f4adc1064736f6c63430008070033a3f0ad74e5423aebfd80d3ef4346578335a9a72aeaee59ff6cb3582b35133d50416464726573733a206c6f772d6c6576656c2064656c65676174652063616c6c206661696c6564a2646970667358221220862289e1eca8663f7221e44f2bde653e0cec725c6c3f07be5a99e0ab21f64a2d64736f6c63430008070033",
  "immutableReferences": {},
  "source": "// SPDX-License-Identifier: GPL-3.0\r\n\r\npragma solidity 0.8.7;\r\n\r\n/**\r\n Certis Token is an ERC20 Token that grants its holder the right to:\r\n   - Vote on all the systems propositions (changing system configuraiton etc...)\r\n   - Receive Dividends for all the payments forwarded to the Treasury contract\r\n\r\nBefore every token transfer we contact the token gouvernance Base contracts so that the can update the tokens used for voting if needed\r\n\r\n */\r\n\r\nimport \"@openzeppelin/contracts-upgradeable/proxy/utils/Initializable.sol\";\r\nimport \"../Interfaces/IPool.sol\";\r\nimport \"../Interfaces/ITreasury.sol\";\r\nimport \"../Base/MultiSigContract.sol\";\r\nimport \"../Libraries/ItemsLibrary.sol\";\r\nimport \"../Libraries/UintLibrary.sol\";\r\nimport \"../Libraries/Library.sol\";\r\nimport \"../Libraries/AddressLibrary.sol\";\r\nimport \"@openzeppelin/contracts/proxy/beacon/BeaconProxy.sol\";\r\nimport \"../Base/CreditorBaseContract.sol\";\r\nimport \"../Interfaces/IPayments.sol\";\r\n\r\n contract PublicPool is  Initializable, MultiSigContract, CreditorBaseContract, IPool {\r\n  using ItemsLibrary for *;\r\n  using UintLibrary for *;\r\n  using Library for *;\r\n  using AddressLibrary for *;\r\n\r\n\r\n  // EVENTS /////////////////////////////////////////\r\n  event _NewIssuerRequest(uint256 indexed id, address owner, string name, string symbol);\r\n  event _VoteForIssuer(uint256 indexed id, address voter, bool vote);\r\n  event _IssuerValidation(uint256 indexed id, address NFTMarket);\r\n  event _IssuerRejection(uint256 indexed id);\r\n\r\n  event _CreditReceived(address indexed receiver, uint256 amount, address indexed sender);\r\n  event _CreditUnAssignedReceived(uint256 indexed NFTMarketId, uint256 indexed tokenID, uint256 amount);\r\n  event _CreditAssigned(uint256 indexed NFTMarketId, uint256 indexed tokenID, address indexed receiver, uint256 amount, uint256 factor);\r\n  event _CreditReused(uint256 indexed NFTMarketId, uint256 indexed tokenID, address indexed creditor, uint256 amount);\r\n  event _CreditSpent(uint256 indexed NFTMarketId, address indexed from, uint256 amount, address indexed to);\r\n  event _CreditWithdrawn(address indexed withdrawer, uint256 amount);\r\n  event _CreditWithdrawnFor(address indexed withdrawer, uint256 amount, address indexed sender);\r\n\r\n\r\n  // DATA /////////////////////////////////////////\r\n  mapping(uint256 => address) private _issuers;\r\n  uint256[] private _listOfIssuers;\r\n\r\n  mapping(uint256 => _pendingIssuerStruct) private _pendingIssuers;\r\n  uint256[] private _listOfPendingIssuers;\r\n\r\n  mapping(address => ItemsLibrary._BalanceStruct) private _creditOfAccount;\r\n  mapping(uint256 => mapping(uint256 => uint256)) private _unassignedCreditForMarket;\r\n\r\n\r\n\r\n  // MODIFIERS /////////////////////////////////////////\r\n  modifier IssuerPending(uint256 id){\r\n      require(address(0) != _pendingIssuers[id]._issuer._owner, \"This issuer id is not pending\");\r\n      _;\r\n  }\r\n\r\n  modifier validIssuerRequest(ItemsLibrary._issuerStruct memory requestedIssuer){\r\n    require(address(0) != requestedIssuer._owner, \"NFT Market owner cannot be address 0\");\r\n    Library.validFees(requestedIssuer._feeAmount, requestedIssuer._feeDecimals);\r\n    require(0 < bytes(requestedIssuer._name).length, \"Name is empty\");\r\n    require(0 < bytes(requestedIssuer._symbol).length, \"Symbol is empty\");\r\n     _;\r\n  }\r\n\r\n  modifier isNFTMarket(uint256 MarketId, address MarketAddress){\r\n      isNFTMarketFunc(MarketId, MarketAddress);\r\n      _;\r\n  }\r\n\r\n  function isNFTMarketFunc(uint256 MarketId, address MarketAddress) internal view{\r\n    require(MarketAddress == _issuers[MarketId], \"The Market Id and Address do not correspond\");\r\n  }\r\n\r\n  modifier isTokenUnassignedCreditEmpty(uint256 NFTMarketId, uint256 tokenID){\r\n    isTokenUnassignedCreditEmptyFunc(NFTMarketId, tokenID);\r\n    _;\r\n  }\r\n\r\n  function isTokenUnassignedCreditEmptyFunc(uint256 NFTMarketId, uint256 tokenID) internal view{\r\n    require(0 == _unassignedCreditForMarket[NFTMarketId][tokenID], \"Unassigned credit for this token is not empty\");\r\n  }\r\n\r\n  modifier checkTotal(uint256 total, uint256[] memory amounts, uint256[] memory factors){\r\n    checkTotalFunc(total, amounts, factors);\r\n    _;\r\n  }\r\n\r\n  function checkTotalFunc(uint256 total, uint256[] memory amounts, uint256[] memory factors) internal pure{\r\n    require(amounts.length == factors.length, \"Provided arrays do not have the same length\");\r\n    uint256 CommonDividend = UintLibrary.ProductOfFactors(factors);\r\n    uint256 calculatedTotal = 0;\r\n    for(uint256 i=0; i < factors.length; i++){\r\n        calculatedTotal += amounts[i] * CommonDividend / factors[i];\r\n    }\r\n    require((total * CommonDividend) == calculatedTotal, \"the total amount is not equal to the calculated one\");\r\n  }\r\n\r\n  // CONSTRUCTOR /////////////////////////////////////////\r\n  function PublicPool_init(address[] memory owners,  uint256 minOwners, address managerContractAddress) public initializer {\r\n      super.MultiSigContract_init(owners, minOwners); \r\n      super.CreditorBaseContract_init(managerContractAddress); \r\n  }\r\n\r\n  // FUNCTIONALITY /////////////////////////////////////////\r\n  function onCreditReceived(address sender, uint256 amount, uint256 tokenId, bytes memory data) internal override\r\n  {\r\n    bytes32[] memory receivedData = Library.BytestoBytes32(data);\r\n    Library.PublicPoolPaymentTypes paymentType = Library.PublicPoolPaymentTypes(uint256(receivedData[0]));\r\n\r\n    if(Library.PublicPoolPaymentTypes.SendCredit == paymentType){\r\n      address account = AddressLibrary.Bytes32ToAddress(receivedData[1]);\r\n      ItemsLibrary.addBalance(_creditOfAccount[account], amount, 1);\r\n      emit _CreditReceived(account, amount, sender);\r\n    }\r\n\r\n    else{\r\n      uint256 NFTMarketId = UintLibrary.Bytes32ToUint(receivedData[1]);\r\n      uint256 tokenID = UintLibrary.Bytes32ToUint(receivedData[2]);\r\n      internalTransferUnassignedCredit(NFTMarketId, tokenID, amount);\r\n      emit _CreditUnAssignedReceived(NFTMarketId, tokenID, amount);\r\n    }\r\n     \r\n  }\r\n\r\n  function requestIssuer(ItemsLibrary._issuerStruct memory requestedIssuer, bool FromCredit) external override\r\n    validIssuerRequest(requestedIssuer)\r\n  {\r\n\r\n    uint[][] memory Prices = ITreasury(_managerContract.retrieveTransparentProxies()[uint256(Library.TransparentProxies.Treasury)]).retrieveSettings();\r\n    uint256 NewIssuerFee = Prices[uint256(Library.Prices.NewIssuerFee)][0];\r\n    uint256 AdminNewIssuerFee = Prices[uint256(Library.Prices.AdminNewIssuerFee)][0];\r\n\r\n    if(FromCredit){\r\n      internalSpendCredit(0, msg.sender, NewIssuerFee,  _managerContract.retrieveTransparentProxies()[uint256(Library.TransparentProxies.Treasury)]);\r\n      internalSpendCredit(0, msg.sender, AdminNewIssuerFee,  _managerContract.retrieveTransparentProxies()[uint256(Library.TransparentProxies.AdminPiggyBank)]);\r\n    }\r\n    else{\r\n      IPayments payments = IPayments(_managerContract.retrieveTransparentProxies()[uint256(Library.TransparentProxies.Payments)]);\r\n      payments.TransferFrom(msg.sender, _managerContract.retrieveTransparentProxies()[uint256(Library.TransparentProxies.Treasury)], NewIssuerFee, 0, bytes(\"\"), 0);\r\n      payments.TransferFrom(msg.sender, _managerContract.retrieveTransparentProxies()[uint256(Library.TransparentProxies.AdminPiggyBank)], AdminNewIssuerFee, 0, bytes(\"\"), 0);\r\n    }\r\n\r\n    uint256 IssuerID = getIssuerIdFromName(requestedIssuer._name);\r\n\r\n    addPendingIssuer(IssuerID, requestedIssuer);\r\n\r\n    emit _NewIssuerRequest(IssuerID, requestedIssuer._owner, requestedIssuer._name, requestedIssuer._symbol);\r\n  }\r\n\r\n  function addPendingIssuer(uint256 IssuerID, ItemsLibrary._issuerStruct memory requestedIssuer) internal\r\n  {\r\n\r\n    require(address(0) == _pendingIssuers[IssuerID]._issuer._owner && address(0) == _issuers[IssuerID], \"This Issuer Name has already been taken\");\r\n\r\n    _pendingIssuers[IssuerID]._issuer._owner = requestedIssuer._owner;\r\n    _pendingIssuers[IssuerID]._issuer._name = requestedIssuer._name;\r\n    _pendingIssuers[IssuerID]._issuer._symbol = requestedIssuer._symbol;\r\n    _pendingIssuers[IssuerID]._issuer._feeAmount = requestedIssuer._feeAmount;\r\n    _pendingIssuers[IssuerID]._issuer._feeDecimals = requestedIssuer._feeDecimals;\r\n    _pendingIssuers[IssuerID]._issuer._paymentPlan = requestedIssuer._paymentPlan;\r\n    _pendingIssuers[IssuerID]._pendingId = _listOfPendingIssuers.length;\r\n    _listOfPendingIssuers.push(IssuerID);\r\n  }\r\n\r\n  function getIssuerIdFromName(string memory name) internal pure returns(uint256)\r\n  {\r\n    return uint256(keccak256(bytes(name)));\r\n  }\r\n\r\n  function validateIssuer(uint256 id) external override\r\n  {\r\n    voteForIssuer(id, true);\r\n  }\r\n\r\n  function rejectIssuer(uint id) external override\r\n  {\r\n    voteForIssuer(id, false);\r\n  }\r\n\r\n  function voteForIssuer(uint id, bool vote) internal\r\n    isAnOwner(msg.sender, true)\r\n    HasNotAlreadyVoted(msg.sender, _pendingIssuers[id]._voters)\r\n    IssuerPending(id)\r\n  {\r\n    emit _VoteForIssuer(id, msg.sender, vote);\r\n\r\n    _pendingIssuers[id]._voters.push(msg.sender);\r\n        \r\n    if(vote){\r\n        _pendingIssuers[id]._validations++;\r\n\r\n        if(_pendingIssuers[id]._validations >= _minOwners){\r\n            _listOfIssuers.push(id);\r\n            _issuers[id] = GenerateNewNFTMarket(_pendingIssuers[id]._issuer._owner, _pendingIssuers[id]._issuer._name, _pendingIssuers[id]._issuer._symbol, _pendingIssuers[id]._issuer._feeAmount, _pendingIssuers[id]._issuer._feeDecimals, id, _pendingIssuers[id]._issuer._paymentPlan);\r\n            deletingPendingIssuer(id);\r\n            emit _IssuerValidation(id, _issuers[id]);\r\n        }\r\n    }\r\n    else{\r\n        _pendingIssuers[id]._rejections++;\r\n\r\n        if(_pendingIssuers[id]._rejections >= _minOwners){\r\n            deletingPendingIssuer(id);\r\n            emit _IssuerRejection(id);\r\n        }\r\n    }\r\n  }\r\n\r\n  function deletingPendingIssuer(uint256 id) internal\r\n  {\r\n    uint pos = _pendingIssuers[id]._pendingId;\r\n    UintLibrary.UintArrayRemoveResize(pos, _listOfPendingIssuers);\r\n    if(_listOfPendingIssuers.length > pos) _pendingIssuers[_listOfPendingIssuers[pos]]._pendingId = pos;\r\n\r\n    delete(_pendingIssuers[id]._issuer);\r\n    delete(_pendingIssuers[id]._validations);\r\n    delete(_pendingIssuers[id]._rejections);\r\n    delete(_pendingIssuers[id]._voters);\r\n  }\r\n\r\n  function GenerateNewNFTMarket(address owner, string memory name, string memory symbol, uint256 feeAmount, uint256 feeDecimals, uint256 id, Library.PaymentPlans paymentPlan) internal returns(address)\r\n  {\r\n    address beaconAddress = _managerContract.retrieveBeacons()[uint256(Library.Beacons.NFT)];\r\n    uint256 OffersLifeTime = ITreasury(_managerContract.retrieveTransparentProxies()[uint256(Library.TransparentProxies.Treasury)]).retrieveSettings()[uint256(Library.Prices.OffersLifeTime)][0];\r\n    bytes memory data = abi.encodeWithSignature(\"NFTMarket_init(address,address,string,string,uint256,uint256,uint256,uint256,uint8)\", address(_managerContract), owner, name, symbol, OffersLifeTime, feeAmount, feeDecimals, id, uint8(paymentPlan));\r\n\r\n    BeaconProxy beaconProxy = new BeaconProxy(beaconAddress, data);\r\n\r\n    return address(beaconProxy);\r\n  }\r\n\r\n  function retrieveIssuers() external override view returns (uint[] memory)\r\n  {\r\n    return _listOfIssuers;\r\n  }\r\n\r\n  function retrieveNFTMarketForIssuer(uint id) external override view returns (address)\r\n  {\r\n    return _issuers[id];\r\n  }\r\n\r\n  function retrievePendingIssuers() external override view returns (uint[] memory)\r\n  {\r\n    return _listOfPendingIssuers;\r\n  }\r\n\r\n  function retrievePendingIssuer(uint id) external override view returns (_pendingIssuerStruct memory)\r\n  {\r\n    return _pendingIssuers[id];\r\n  }\r\n\r\n  // Credit Functionality\r\n\r\n  function sendCredit(address addr, uint256 amount) external override\r\n  {\r\n    bytes32[] memory dataArray = new bytes32[](3);\r\n    dataArray[0] = UintLibrary.UintToBytes32(uint256(Library.PublicPoolPaymentTypes.SendCredit));\r\n    dataArray[1] = AddressLibrary.AddressToBytes32(addr);\r\n    bytes memory data = Library.Bytes32ArrayToBytes(dataArray);\r\n\r\n    IPayments payments = IPayments(_managerContract.retrieveTransparentProxies()[uint256(Library.TransparentProxies.Payments)]);\r\n    payments.TransferFrom(msg.sender, address(this), amount, 0, data, 0);\r\n  }\r\n\r\n  function addCredit(uint256 NFTMarketId, uint256 tokenID, address[] calldata addrs, uint256[] calldata amounts, uint256[] calldata factors) external override\r\n    isNFTMarket(NFTMarketId, msg.sender)\r\n    checkTotal(_unassignedCreditForMarket[NFTMarketId][tokenID], amounts, factors)\r\n  {\r\n    require(addrs.length == factors.length, \"Provided arrays do not have the same length\");\r\n    for(uint i=0; i < addrs.length; i++){\r\n      ItemsLibrary.addBalance(_creditOfAccount[addrs[i]], amounts[i], factors[i]);\r\n      emit _CreditAssigned(NFTMarketId, tokenID, addrs[i], amounts[i], factors[i]);\r\n    }\r\n    delete(_unassignedCreditForMarket[NFTMarketId][tokenID]);\r\n  }\r\n\r\n  function reuseCredit(uint256 NFTMarketId, uint256 tokenID, address addr, uint256 amount) external override\r\n    isNFTMarket(NFTMarketId, msg.sender)\r\n    isTokenUnassignedCreditEmpty(NFTMarketId, tokenID)\r\n  {\r\n    ItemsLibrary.InternalWithdraw(\r\n      _creditOfAccount[addr], \r\n      amount, \r\n      address(0), \r\n      false, \r\n      address(IPayments(_managerContract.retrieveTransparentProxies()[uint256(Library.TransparentProxies.Payments)]).retrieveSettings()[0].TokenContract),\r\n      false,\r\n      bytes(\"\"),\r\n      0\r\n    );\r\n    internalTransferUnassignedCredit(NFTMarketId, tokenID, amount);\r\n    emit _CreditReused(NFTMarketId, tokenID, addr, amount);\r\n  }\r\n\r\n  function spendCredit(uint256 NFTMarketId, address from, uint256 amount, address to) external override\r\n    isNFTMarket(NFTMarketId, msg.sender)\r\n  {\r\n    internalSpendCredit(NFTMarketId, from, amount, to);\r\n  }\r\n\r\n  function internalSpendCredit(uint256 NFTMarketId, address from, uint256 amount, address to) internal \r\n  {\r\n    bytes memory emptyData = bytes(\"\");\r\n    ItemsLibrary.InternalWithdraw(  \r\n      _creditOfAccount[from], \r\n      amount, \r\n      to, \r\n      true, \r\n      address(IPayments(_managerContract.retrieveTransparentProxies()[uint256(Library.TransparentProxies.Payments)]).retrieveSettings()[0].TokenContract),\r\n      true,\r\n      bytes(\"\"),\r\n      0\r\n    );\r\n    emit _CreditSpent(NFTMarketId, from, amount, to);\r\n  }\r\n\r\n  function withdraw(uint amount) external override\r\n  {\r\n    internalWithdraw(msg.sender, amount, address(0), false, bytes(\"\"));\r\n  }\r\n  \r\n  function withdrawAll() external override\r\n  {\r\n    uint amount = ItemsLibrary.checkFullBalance(_creditOfAccount[msg.sender]);\r\n    internalWithdraw(msg.sender, amount, address(0), false, bytes(\"\"));\r\n  }\r\n  \r\n  function withdrawAllFor(uint256 NFTMarketId, address addr, bytes memory data) external override\r\n    isNFTMarket(NFTMarketId, msg.sender)\r\n  {\r\n    uint amount = ItemsLibrary.checkFullBalance(_creditOfAccount[addr]);\r\n    internalWithdraw(addr, amount, msg.sender, true, data);\r\n  }\r\n\r\n  function internalTransferUnassignedCredit(uint256 NFTMarketId, uint256 tokenID, uint256 amount) internal\r\n  {\r\n      _unassignedCreditForMarket[NFTMarketId][tokenID] = amount;\r\n  }\r\n\r\n  function internalWithdraw(address addr, uint amount, address sender, bool sendData, bytes memory data) internal\r\n  {\r\n    ItemsLibrary.InternalWithdraw(\r\n      _creditOfAccount[addr], \r\n      amount, \r\n      addr, \r\n      true, \r\n      address(IPayments(_managerContract.retrieveTransparentProxies()[uint256(Library.TransparentProxies.Payments)]).retrieveSettings()[0].TokenContract),\r\n      sendData,\r\n      data,\r\n      0\r\n    );\r\n    if(address(0) != sender) emit _CreditWithdrawnFor(addr, amount, sender);\r\n    else emit _CreditWithdrawn(addr, amount);\r\n  }\r\n\r\n  function retrieveCredit(address addr) external override view returns (uint256)\r\n  {\r\n    return ItemsLibrary.checkFullBalance(_creditOfAccount[addr]);\r\n  }\r\n\r\n\r\n\r\n }",
  "sourcePath": "C:\\Users\\d-aam\\GitHub\\Originals\\contracts\\MainContracts\\PublicPool.sol",
  "compiler": {
    "name": "solc",
    "version": "0.8.7+commit.e28d00a7.Emscripten.clang"
  },
  "schemaVersion": "3.4.3",
  "updatedAt": "2022-02-25T09:41:27.053Z",
  "devdoc": {
    "kind": "dev",
    "methods": {},
    "version": 1
  },
  "userdoc": {
    "kind": "user",
    "methods": {},
    "version": 1
  }
}