{
  "contractName": "Treasury",
  "abi": [
    {
      "anonymous": false,
      "inputs": [
        {
          "indexed": false,
          "internalType": "uint256",
          "name": "Id",
          "type": "uint256"
        },
        {
          "indexed": true,
          "internalType": "address",
          "name": "Proposer",
          "type": "address"
        },
        {
          "indexed": false,
          "internalType": "uint256",
          "name": "Deadline",
          "type": "uint256"
        },
        {
          "indexed": false,
          "internalType": "uint256",
          "name": "Threshold",
          "type": "uint256"
        }
      ],
      "name": "_AddedProposition",
      "type": "event"
    },
    {
      "anonymous": false,
      "inputs": [
        {
          "indexed": true,
          "internalType": "address",
          "name": "Recipient",
          "type": "address"
        },
        {
          "indexed": false,
          "internalType": "uint256",
          "name": "Amount",
          "type": "uint256"
        },
        {
          "indexed": false,
          "internalType": "uint256",
          "name": "TotalSupply",
          "type": "uint256"
        },
        {
          "indexed": false,
          "internalType": "uint256",
          "name": "tokenContractId",
          "type": "uint256"
        }
      ],
      "name": "_AssignDividend",
      "type": "event"
    },
    {
      "anonymous": false,
      "inputs": [
        {
          "indexed": false,
          "internalType": "uint256",
          "name": "Id",
          "type": "uint256"
        },
        {
          "indexed": true,
          "internalType": "address",
          "name": "Proposer",
          "type": "address"
        }
      ],
      "name": "_CancelledProposition",
      "type": "event"
    },
    {
      "anonymous": false,
      "inputs": [
        {
          "indexed": false,
          "internalType": "uint256[][]",
          "name": "Fees",
          "type": "uint256[][]"
        },
        {
          "indexed": false,
          "internalType": "uint256[]",
          "name": "TransactionFees",
          "type": "uint256[]"
        },
        {
          "indexed": false,
          "internalType": "uint256[]",
          "name": "OfferSettings",
          "type": "uint256[]"
        }
      ],
      "name": "_NewSettings",
      "type": "event"
    },
    {
      "anonymous": false,
      "inputs": [
        {
          "indexed": true,
          "internalType": "address",
          "name": "Payer",
          "type": "address"
        },
        {
          "indexed": false,
          "internalType": "uint256",
          "name": "Amount",
          "type": "uint256"
        },
        {
          "indexed": false,
          "internalType": "uint256",
          "name": "AggregatedAmount",
          "type": "uint256"
        },
        {
          "indexed": false,
          "internalType": "uint256",
          "name": "tokenContractId",
          "type": "uint256"
        }
      ],
      "name": "_Pay",
      "type": "event"
    },
    {
      "anonymous": false,
      "inputs": [
        {
          "indexed": false,
          "internalType": "uint256",
          "name": "Id",
          "type": "uint256"
        },
        {
          "indexed": true,
          "internalType": "address",
          "name": "Proposer",
          "type": "address"
        },
        {
          "indexed": false,
          "internalType": "uint256",
          "name": "VotesFor",
          "type": "uint256"
        },
        {
          "indexed": false,
          "internalType": "uint256",
          "name": "VotesAgainst",
          "type": "uint256"
        }
      ],
      "name": "_PropositionApproved",
      "type": "event"
    },
    {
      "anonymous": false,
      "inputs": [
        {
          "indexed": false,
          "internalType": "uint256",
          "name": "Id",
          "type": "uint256"
        },
        {
          "indexed": true,
          "internalType": "address",
          "name": "Proposer",
          "type": "address"
        },
        {
          "indexed": false,
          "internalType": "uint256",
          "name": "VotesFor",
          "type": "uint256"
        },
        {
          "indexed": false,
          "internalType": "uint256",
          "name": "VotesAgainst",
          "type": "uint256"
        }
      ],
      "name": "_PropositionRejected",
      "type": "event"
    },
    {
      "anonymous": false,
      "inputs": [
        {
          "indexed": false,
          "internalType": "uint256",
          "name": "Id",
          "type": "uint256"
        },
        {
          "indexed": true,
          "internalType": "address",
          "name": "Voter",
          "type": "address"
        },
        {
          "indexed": false,
          "internalType": "bool",
          "name": "Vote",
          "type": "bool"
        },
        {
          "indexed": false,
          "internalType": "uint256",
          "name": "AmountTokens",
          "type": "uint256"
        }
      ],
      "name": "_PropositionVote",
      "type": "event"
    },
    {
      "anonymous": false,
      "inputs": [
        {
          "indexed": true,
          "internalType": "uint256",
          "name": "Id",
          "type": "uint256"
        },
        {
          "indexed": false,
          "internalType": "address",
          "name": "From",
          "type": "address"
        },
        {
          "indexed": false,
          "internalType": "address",
          "name": "To",
          "type": "address"
        },
        {
          "indexed": false,
          "internalType": "uint256",
          "name": "Amount",
          "type": "uint256"
        }
      ],
      "name": "_UsedTokensTransfered",
      "type": "event"
    },
    {
      "anonymous": false,
      "inputs": [
        {
          "indexed": true,
          "internalType": "address",
          "name": "Recipient",
          "type": "address"
        },
        {
          "indexed": false,
          "internalType": "uint256",
          "name": "Amount",
          "type": "uint256"
        },
        {
          "indexed": false,
          "internalType": "uint256",
          "name": "tokenContractId",
          "type": "uint256"
        }
      ],
      "name": "_Withdraw",
      "type": "event"
    },
    {
      "inputs": [
        {
          "internalType": "address",
          "name": "sender",
          "type": "address"
        },
        {
          "internalType": "uint256",
          "name": "amount",
          "type": "uint256"
        },
        {
          "internalType": "uint256",
          "name": "paymentTokenID",
          "type": "uint256"
        },
        {
          "internalType": "bytes",
          "name": "data",
          "type": "bytes"
        }
      ],
      "name": "CreditReceived",
      "outputs": [],
      "stateMutability": "nonpayable",
      "type": "function"
    },
    {
      "inputs": [
        {
          "internalType": "address",
          "name": "chairPerson",
          "type": "address"
        },
        {
          "internalType": "address",
          "name": "managerContractAddress",
          "type": "address"
        }
      ],
      "name": "StdPropositionBaseContract_init",
      "outputs": [],
      "stateMutability": "nonpayable",
      "type": "function"
    },
    {
      "inputs": [],
      "name": "cancelProposition",
      "outputs": [],
      "stateMutability": "nonpayable",
      "type": "function"
    },
    {
      "inputs": [
        {
          "internalType": "address",
          "name": "from",
          "type": "address"
        },
        {
          "internalType": "address",
          "name": "to",
          "type": "address"
        },
        {
          "internalType": "uint256",
          "name": "amount",
          "type": "uint256"
        }
      ],
      "name": "onTokenBalanceChanged",
      "outputs": [],
      "stateMutability": "nonpayable",
      "type": "function"
    },
    {
      "inputs": [],
      "name": "retrieveChairPerson",
      "outputs": [
        {
          "internalType": "address",
          "name": "",
          "type": "address"
        }
      ],
      "stateMutability": "view",
      "type": "function",
      "constant": true
    },
    {
      "inputs": [],
      "name": "retrieveManagerContract",
      "outputs": [
        {
          "internalType": "address",
          "name": "",
          "type": "address"
        }
      ],
      "stateMutability": "view",
      "type": "function",
      "constant": true
    },
    {
      "inputs": [],
      "name": "retrieveNextPropId",
      "outputs": [
        {
          "internalType": "uint256",
          "name": "",
          "type": "uint256"
        }
      ],
      "stateMutability": "view",
      "type": "function",
      "constant": true
    },
    {
      "inputs": [],
      "name": "retrieveProposition",
      "outputs": [
        {
          "internalType": "bytes[]",
          "name": "",
          "type": "bytes[]"
        }
      ],
      "stateMutability": "view",
      "type": "function",
      "constant": true
    },
    {
      "inputs": [],
      "name": "retrievePropositionStatus",
      "outputs": [
        {
          "internalType": "address",
          "name": "",
          "type": "address"
        },
        {
          "internalType": "uint256",
          "name": "",
          "type": "uint256"
        },
        {
          "internalType": "uint256",
          "name": "",
          "type": "uint256"
        },
        {
          "internalType": "uint256",
          "name": "",
          "type": "uint256"
        },
        {
          "internalType": "uint256",
          "name": "",
          "type": "uint256"
        }
      ],
      "stateMutability": "view",
      "type": "function",
      "constant": true
    },
    {
      "inputs": [
        {
          "internalType": "uint256",
          "name": "PropId",
          "type": "uint256"
        },
        {
          "internalType": "address",
          "name": "voter",
          "type": "address"
        }
      ],
      "name": "retrieveVotesForVoter",
      "outputs": [
        {
          "internalType": "uint256",
          "name": "",
          "type": "uint256"
        }
      ],
      "stateMutability": "view",
      "type": "function",
      "constant": true
    },
    {
      "inputs": [
        {
          "internalType": "bytes[]",
          "name": "NewValues",
          "type": "bytes[]"
        }
      ],
      "name": "sendProposition",
      "outputs": [],
      "stateMutability": "nonpayable",
      "type": "function"
    },
    {
      "inputs": [
        {
          "internalType": "bool",
          "name": "vote",
          "type": "bool"
        }
      ],
      "name": "voteProposition",
      "outputs": [],
      "stateMutability": "nonpayable",
      "type": "function"
    },
    {
      "inputs": [
        {
          "internalType": "uint256[][]",
          "name": "Fees",
          "type": "uint256[][]"
        },
        {
          "internalType": "uint256[]",
          "name": "TransferFees",
          "type": "uint256[]"
        },
        {
          "internalType": "uint256[]",
          "name": "OfferSettings",
          "type": "uint256[]"
        },
        {
          "internalType": "address",
          "name": "managerContractAddress",
          "type": "address"
        },
        {
          "internalType": "address",
          "name": "chairPerson",
          "type": "address"
        }
      ],
      "name": "Treasury_init",
      "outputs": [],
      "stateMutability": "nonpayable",
      "type": "function"
    },
    {
      "inputs": [
        {
          "internalType": "uint256",
          "name": "amount",
          "type": "uint256"
        },
        {
          "internalType": "uint256",
          "name": "paymentTokenID",
          "type": "uint256"
        }
      ],
      "name": "withdraw",
      "outputs": [],
      "stateMutability": "nonpayable",
      "type": "function"
    },
    {
      "inputs": [
        {
          "internalType": "uint256",
          "name": "paymentTokenID",
          "type": "uint256"
        }
      ],
      "name": "withdrawAll",
      "outputs": [],
      "stateMutability": "nonpayable",
      "type": "function"
    },
    {
      "inputs": [
        {
          "internalType": "address",
          "name": "addr",
          "type": "address"
        },
        {
          "internalType": "uint256",
          "name": "paymentTokenID",
          "type": "uint256"
        }
      ],
      "name": "retrieveLastAssigned",
      "outputs": [
        {
          "internalType": "uint256",
          "name": "",
          "type": "uint256"
        }
      ],
      "stateMutability": "view",
      "type": "function",
      "constant": true
    },
    {
      "inputs": [
        {
          "internalType": "address",
          "name": "addr",
          "type": "address"
        },
        {
          "internalType": "uint256",
          "name": "paymentTokenID",
          "type": "uint256"
        }
      ],
      "name": "retrieveFullBalance",
      "outputs": [
        {
          "internalType": "uint256",
          "name": "",
          "type": "uint256"
        }
      ],
      "stateMutability": "view",
      "type": "function",
      "constant": true
    },
    {
      "inputs": [],
      "name": "retrieveSettings",
      "outputs": [
        {
          "internalType": "uint256[][]",
          "name": "",
          "type": "uint256[][]"
        },
        {
          "internalType": "uint256[]",
          "name": "",
          "type": "uint256[]"
        },
        {
          "internalType": "uint256[]",
          "name": "",
          "type": "uint256[]"
        }
      ],
      "stateMutability": "view",
      "type": "function",
      "constant": true
    },
    {
      "inputs": [
        {
          "internalType": "uint256",
          "name": "paymentTokenID",
          "type": "uint256"
        }
      ],
      "name": "retrieveAggregatedAmount",
      "outputs": [
        {
          "internalType": "uint256",
          "name": "",
          "type": "uint256"
        }
      ],
      "stateMutability": "view",
      "type": "function",
      "constant": true
    }
  ],
  "bytecode": "0x608060405234801561001057600080fd5b50613a2d806100206000396000f3fe608060405234801561001057600080fd5b50600436106100f15760003560e01c806304cc67a9146100f6578063066fca8f1461010d57806315f9969f146101225780633c7df55d146101575780634044adb21461016a578063441a3e70146101a057806355457ee9146101b35780635b362e84146101bb5780637dacc160146101db5780638266251f146101ee578063840f6d171461020157806391f9167114610242578063958e2d3114610255578063a93316f514610268578063b049473f1461027d578063b1fd235914610294578063b50a46cb146102a7578063db85bc4d146102ba578063e15aa3a6146102cb575b600080fd5b6008545b6040519081526020015b60405180910390f35b61012061011b36600461317c565b6102de565b005b6100fa61013036600461304e565b6000908152600f602090815260408083206001600160a01b03949094168352929052205490565b61012061016536600461300d565b61052d565b6100fa6101783660046134f5565b60009182526009602090815260408084206001600160a01b0393909316845291905290205490565b6101206101ae36600461351a565b61064b565b610120610659565b6000546201000090046001600160a01b03165b60405161010491906135f2565b6100fa6101e936600461304e565b610734565b6101206101fc36600461307a565b6107e1565b600354600454600554600654600754604080516001600160a01b0390961686526020860194909452928401919091526060830152608082015260a001610104565b6101206102503660046134a6565b6109ce565b6101206102633660046134c3565b6109db565b610270610a84565b60405161010491906136ab565b610285610b5d565b60405161010493929190613620565b6101206102a2366004612fd4565b610caa565b6100fa6102b53660046134c3565b610d28565b6001546001600160a01b03166101ce565b6101206102d9366004613322565b610d67565b600054610100900460ff166102f95760005460ff16156102fd565b303b155b6103225760405162461bcd60e51b8152600401610319906137b5565b60405180910390fd5b600054610100900460ff16158015610344576000805461ffff19166101011790555b61034e8284610caa565b600086516001600160401b03811115610369576103696139be565b60405190808252806020026020018201604052801561039c57816020015b60608152602001906001900390816103875790505b508751909150156105075760005b81518110156105055760008882815181106103c7576103c76139a8565b60200260200101515160016103dc91906138f4565b6001600160401b038111156103f3576103f36139be565b60405190808252806020026020018201604052801561041c578160200160208202803683370190505b5090508181600081518110610433576104336139a8565b60200260200101818152505060005b898381518110610454576104546139a8565b6020026020010151518110156104d257898381518110610476576104766139a8565b6020026020010151818151811061048f5761048f6139a8565b6020026020010151828260016104a591906138f4565b815181106104b5576104b56139a8565b6020908102919091010152806104ca81613977565b915050610442565b50808383815181106104e6576104e66139a8565b60200260200101819052505080806104fd90613977565b9150506103aa565b505b610512818787610ddd565b508015610525576000805461ff00191690555b505050505050565b3373__Library_______________________________6337ea306382600060029054906101000a90046001600160a01b03166001600160a01b031663e220ad956040518163ffffffff1660e01b815260040160006040518083038186803b15801561059757600080fd5b505afa1580156105ab573d6000803e3d6000fd5b505050506040513d6000823e601f3d908101601f191682016040526105d391908101906130dc565b6003815181106105e5576105e56139a8565b60200260200101516040518363ffffffff1660e01b815260040161060a929190613606565b60006040518083038186803b15801561062257600080fd5b505af4158015610636573d6000803e3d6000fd5b505050506106458484846112fb565b50505050565b6106558282611378565b5050565b600161066481611587565b6003546040516337ea306360e01b8152339173__Library_______________________________916337ea3063916106aa9185916001600160a01b031690600401613606565b60006040518083038186803b1580156106c257600080fd5b505af41580156106d6573d6000803e3d6000fd5b505050506106e261160b565b6106ea611615565b6003546002546040519081526001600160a01b03909116907f1fe8aec10c0a50fa765076161e08c1f961ced69594ff45cf7d559f593afe1479906020015b60405180910390a25050565b60008181526010602090815260408083206001600160a01b038616845290915280822090516326162dc360e01b8152600481019190915273__ItemsLibrary__________________________906326162dc39060240160206040518083038186803b1580156107a257600080fd5b505af41580156107b6573d6000803e3d6000fd5b505050506040513d601f19601f820116820180604052508101906107da91906134dc565b9392505050565b33600060029054906101000a90046001600160a01b03166001600160a01b031663e220ad956040518163ffffffff1660e01b815260040160006040518083038186803b15801561083057600080fd5b505afa158015610844573d6000803e3d6000fd5b505050506040513d6000823e601f3d908101601f1916820160405261086c91908101906130dc565b60068151811061087e5761087e6139a8565b60200260200101516001600160a01b0316816001600160a01b031614806109595750600060029054906101000a90046001600160a01b03166001600160a01b031663e220ad956040518163ffffffff1660e01b815260040160006040518083038186803b1580156108ee57600080fd5b505afa158015610902573d6000803e3d6000fd5b505050506040513d6000823e601f3d908101601f1916820160405261092a91908101906130dc565b60078151811061093c5761093c6139a8565b60200260200101516001600160a01b0316816001600160a01b0316145b6109bb5760405162461bcd60e51b815260206004820152602d60248201527f4974206973206e6f742066726f6d206f6e65206f66207468652063657274696660448201526c69656420636f6e74726163747360981b6064820152608401610319565b6109c785858585611640565b5050505050565b6109d83382611720565b50565b600081815260106020908152604080832033845290915280822090516326162dc360e01b8152600481019190915273__ItemsLibrary__________________________906326162dc39060240160206040518083038186803b158015610a4057600080fd5b505af4158015610a54573d6000803e3d6000fd5b505050506040513d601f19601f82011682018060405250810190610a7891906134dc565b90506106558183611378565b6060600a805480602002602001604051908101604052809291908181526020016000905b82821015610b54578382906000526020600020018054610ac790613942565b80601f0160208091040260200160405190810160405280929190818152602001828054610af390613942565b8015610b405780601f10610b1557610100808354040283529160200191610b40565b820191906000526020600020905b815481529060010190602001808311610b2357829003601f168201915b505050505081526020019060010190610aa8565b50505050905090565b6060806060600b600c600d82805480602002602001604051908101604052809291908181526020016000905b82821015610bf557600084815260209081902083018054604080518285028101850190915281815292830182828015610be157602002820191906000526020600020905b815481526020019060010190808311610bcd575b505050505081526020019060010190610b89565b50505050925081805480602002602001604051908101604052809291908181526020018280548015610c4657602002820191906000526020600020905b815481526020019060010190808311610c32575b5050505050915080805480602002602001604051908101604052809291908181526020018280548015610c9857602002820191906000526020600020905b815481526020019060010190808311610c84575b50505050509050925092509250909192565b600054610100900460ff16610cc55760005460ff1615610cc9565b303b155b610ce55760405162461bcd60e51b8152600401610319906137b5565b600054610100900460ff16158015610d07576000805461ffff19166101011790555b610d11838361182f565b8015610d23576000805461ff00191690555b505050565b600e54600090821015610d5a57600e8281548110610d4857610d486139a8565b90600052602060002001549050919050565b506000919050565b919050565b610d70816118cb565b610d78611910565b60005b815181101561065557600a828281518110610d9857610d986139a8565b60209081029190910181015182546001810184556000938452928290208151610dca9491909101929190910190612da0565b5080610dd581613977565b915050610d7b565b600b54839015610e9a5760005b8151811015610e9857818181518110610e0557610e056139a8565b602002602001015151600b600081548110610e2257610e226139a8565b600091825260209091200154610e399060016138f4565b14610e865760405162461bcd60e51b815260206004820152601d60248201527f4e756d626572206f66204665657320646f6573206e6f74206d617463680000006044820152606401610319565b80610e9081613977565b915050610dea565b505b600c54839015610f05578051600c5414610f055760405162461bcd60e51b815260206004820152602660248201527f4e756d626572206f66205472616e73666572204665657320646f6573206e6f74604482015265040dac2e8c6d60d31b6064820152608401610319565b600d54839015610f71578051600d5414610f715760405162461bcd60e51b815260206004820152602760248201527f4e756d626572206f66204f666665722053657474696e677320646f6573206e6f6044820152660e840dac2e8c6d60cb1b6064820152608401610319565b60005b86518110156111bc576000878281518110610f9157610f916139a8565b6020026020010151600081518110610fab57610fab6139a8565b60200260200101519050600b8054905081101561107c5760005b600b8281548110610fd857610fd86139a8565b60009182526020909120015481101561107657888381518110610ffd57610ffd6139a8565b602002602001015181600161101291906138f4565b81518110611022576110226139a8565b6020026020010151600b838154811061103d5761103d6139a8565b906000526020600020018281548110611058576110586139a8565b6000918252602090912001558061106e81613977565b915050610fc5565b506111a9565b60006001898481518110611092576110926139a8565b6020026020010151516110a5919061392b565b6001600160401b038111156110bc576110bc6139be565b6040519080825280602002602001820160405280156110e5578160200160208202803683370190505b50905060005b815181101561116257898481518110611106576111066139a8565b602002602001015181600161111b91906138f4565b8151811061112b5761112b6139a8565b6020026020010151828281518110611145576111456139a8565b60209081029190910101528061115a81613977565b9150506110eb565b50600b805460018101825560009190915281516111a6917f0175b7a638427703f0dbe7bb9bbf987a2551717b34e79f33b5b1008d1fa01db901906020840190612e24565b50505b50806111b481613977565b915050610f74565b5060005b855181101561125757600c54811015611211578581815181106111e5576111e56139a8565b6020026020010151600c8281548110611200576112006139a8565b600091825260209091200155611245565b600c868281518110611225576112256139a8565b602090810291909101810151825460018101845560009384529190922001555b8061124f81613977565b9150506111c0565b5060005b84518110156112f257600d548110156112ac57848181518110611280576112806139a8565b6020026020010151600d828154811061129b5761129b6139a8565b6000918252602090912001556112e0565b600d8582815181106112c0576112c06139a8565b602090810291909101810151825460018101845560009384529190922001555b806112ea81613977565b91505061125b565b50505050505050565b611306838383611c5f565b6001600160a01b038316156113405760005b600e5481101561133e5761132c8482611c7c565b8061133681613977565b915050611318565b505b6001600160a01b03821615610d235760005b600e54811015610645576113668382611c7c565b8061137081613977565b915050611352565b6113823382611c7c565b60008181526010602090815260408083203380855292528083208354825163e220ad9560e01b8152925173__ItemsLibrary__________________________956318b84a21959394899493600193620100009091046001600160a01b03169263e220ad959260048082019391829003018186803b15801561140257600080fd5b505afa158015611416573d6000803e3d6000fd5b505050506040513d6000823e601f3d908101601f1916820160405261143e91908101906130dc565b600681518110611450576114506139a8565b60200260200101516001600160a01b031663b049473f6040518163ffffffff1660e01b815260040160006040518083038186803b15801561149057600080fd5b505afa1580156114a4573d6000803e3d6000fd5b505050506040513d6000823e601f3d908101601f191682016040526114cc91908101906133d9565b87815181106114dd576114dd6139a8565b602002602001015160000151600060405180602001604052806000815250896040518963ffffffff1660e01b815260040161151f989796959493929190613803565b60006040518083038186803b15801561153757600080fd5b505af415801561154b573d6000803e3d6000fd5b505060408051858152602081018590523393507fe3a578db023c93c17a32f818b53100ba3479950e72d911afbee045639067f87f925001610728565b80156115ce57611595611da6565b15156001146109d85760405162461bcd60e51b8152602060048201526005602482015264454332352d60d81b6044820152606401610319565b6115d6611da6565b156109d85760405162461bcd60e51b8152602060048201526005602482015264454332342d60d81b6044820152606401610319565b611613611de0565b565b60006002819055600380546001600160a01b0319169055600481905560058190556006819055600755565b600e548210156116825782600e838154811061165e5761165e6139a8565b90600052602060002001600082825461167791906138f4565b909155506116b89050565b600e80546001810182556000919091527fbb7b4a454dc3493923482f07822329ed19e8244eff582cc204f8554c3620c3fd018390555b836001600160a01b03167fa0e5c002871629acffe2f6c9e7932d18ed4493526043875a27b3011d7981370684600e85815481106116f7576116f76139a8565b90600052602060002001548560405161171293929190613863565b60405180910390a250505050565b600161172b81611587565b6002548390600061173c8383611dec565b9050600081116117765760405162461bcd60e51b8152602060048201526005602482015264454332332d60d81b6044820152606401610319565b600061178787600260000154611dec565b905085156117af5780600260040160008282546117a491906138f4565b909155506117ca9050565b80600260050160008282546117c491906138f4565b90915550505b6002546117d8908883611e22565b60025460408051918252871515602083015281018290526001600160a01b038816907f50f654d58981575c05e369cb129aeacb01e1b036af429380242cfc5d1a4b743f9060600160405180910390a26112f2611e5e565b600054610100900460ff1661184a5760005460ff161561184e565b303b155b61186a5760405162461bcd60e51b8152600401610319906137b5565b600054610100900460ff1615801561188c576000805461ffff19166101011790555b61189582611f32565b600180546001600160a01b0319166001600160a01b03851617905560006008558015610d23576000805461ff0019169055505050565b6003815110156109d85760405162461bcd60e51b815260206004820152601060248201526f4d697373696e672053657474696e677360801b6044820152606401610319565b600061191b81611587565b60015433906000906001600160a01b031682141561193b57506001611a71565b600061194683611fc6565b905060008060029054906101000a90046001600160a01b03166001600160a01b031663e220ad956040518163ffffffff1660e01b815260040160006040518083038186803b15801561199757600080fd5b505afa1580156119ab573d6000803e3d6000fd5b505050506040513d6000823e601f3d908101601f191682016040526119d391908101906130dc565b6004815181106119e5576119e56139a8565b60200260200101516001600160a01b031663b049473f6040518163ffffffff1660e01b815260040160606040518083038186803b158015611a2557600080fd5b505afa158015611a39573d6000803e3d6000fd5b505050506040513d601f19601f82011682018060405250810190611a5d919061353c565b9250505080821115611a6e57600192505b50505b600181151514611aab5760405162461bcd60e51b8152602060048201526005602482015264454332322d60d81b6044820152606401610319565b600080600060029054906101000a90046001600160a01b03166001600160a01b031663e220ad956040518163ffffffff1660e01b815260040160006040518083038186803b158015611afc57600080fd5b505afa158015611b10573d6000803e3d6000fd5b505050506040513d6000823e601f3d908101601f19168201604052611b3891908101906130dc565b600481518110611b4a57611b4a6139a8565b60200260200101516001600160a01b031663b049473f6040518163ffffffff1660e01b815260040160606040518083038186803b158015611b8a57600080fd5b505afa158015611b9e573d6000803e3d6000fd5b505050506040513d601f19601f82011682018060405250810190611bc2919061353c565b50600380546001600160a01b031916331790559092509050611be482426138f4565b6004556005819055600880546002819055906000611c0183613977565b90915550506003546002546004546005546040516001600160a01b03909416937f472501d19bf75639b2e316cd36f8568b0c3ab943b82a87de3c086c98c1929df993611c509390929091613863565b60405180910390a25050505050565b611c67611da6565b151560011415610d2357610d238383836120ec565b600e5481101561065557600080611c938484612253565b91509150600e8381548110611caa57611caa6139a8565b6000918252602080832090910154858352600f825260408084206001600160a01b038916855290925291205581156106455760008381526010602090815260408083206001600160a01b0388168452909152908190209051633833532760e01b815273__ItemsLibrary__________________________91633833532791611d39919086908690600401613863565b60006040518083038186803b158015611d5157600080fd5b505af4158015611d65573d6000803e3d6000fd5b50505050836001600160a01b03167fd594bb9b33d8e7d250dcc95a70d74fbd1e03e16d3e7660f60b12149bd7fd2a1283838660405161171293929190613863565b600454600090421015611db95750600190565b6003546001600160a01b031615611dda57611dd261160b565b611dda611615565b50600090565b611613600a6000612e5e565b60008181526009602090815260408083206001600160a01b0386168452909152812054611e1884611fc6565b6107da919061392b565b60008381526009602090815260408083206001600160a01b038616845290915281208054839290611e549084906138f4565b9091555050505050565b60055460065410611ecd57611e71612324565b611e79611615565b6003546002546006546007546040516001600160a01b03909416937f23ca0034cf5aad32571b4a492e9598ea8a490e1643a60970e3cdc6933b55e49f93611ec39390929091613863565b60405180910390a2565b6005546007541061161357611ee061160b565b611ee8611615565b6003546002546006546007546040516001600160a01b03909416937fa58eb6daa3c62c3f883973c4035e5bd3e81aa627c8379de068a7de42df122be293611ec39390929091613863565b600054610100900460ff16611f4d5760005460ff1615611f51565b303b155b611f6d5760405162461bcd60e51b8152600401610319906137b5565b600054610100900460ff16158015611f8f576000805461ffff19166101011790555b6000805462010000600160b01b031916620100006001600160a01b038516021790558015610655576000805461ff00191690555050565b60008060029054906101000a90046001600160a01b03166001600160a01b031663e220ad956040518163ffffffff1660e01b815260040160006040518083038186803b15801561201557600080fd5b505afa158015612029573d6000803e3d6000fd5b505050506040513d6000823e601f3d908101601f1916820160405261205191908101906130dc565b600381518110612063576120636139a8565b60200260200101516001600160a01b03166370a08231836040518263ffffffff1660e01b815260040161209691906135f2565b60206040518083038186803b1580156120ae57600080fd5b505afa1580156120c2573d6000803e3d6000fd5b505050506040513d601f19601f820116820180604052508101906120e691906134dc565b92915050565b6001600160a01b03831615801590612128575060025460009081526009602090815260408083206001600160a01b038716845290915290205415155b15610d235760025460009081526009602090815260408083206001600160a01b03871684529091529020548190811115612184575060025460009081526009602090815260408083206001600160a01b03871684529091529020545b60025460009081526009602090815260408083206001600160a01b0388168452909152812080548392906121b990849061392b565b90915550506001600160a01b038316156122085760025460009081526009602090815260408083206001600160a01b0387168452909152812080548392906122029084906138f4565b90915550505b600254604080516001600160a01b038088168252861660208201529081018390527f65fbd5e5dd32bea4aeca85bd0be0abf0e489d655dee888a7510d43b06dda2dba90606001611712565b6000806000600e80549050841080156122a85750600e848154811061227a5761227a6139a8565b6000918252602080832090910154868352600f825260408084206001600160a01b038a168552909252912054105b1561230f576122b685611fc6565b6000858152600f602090815260408083206001600160a01b038a168452909152902054600e8054879081106122ed576122ed6139a8565b9060005260206000200154612302919061392b565b61230c919061390c565b90505b8061231861232c565b92509250509250929050565b61160b612446565b60008060029054906101000a90046001600160a01b03166001600160a01b031663e220ad956040518163ffffffff1660e01b815260040160006040518083038186803b15801561237b57600080fd5b505afa15801561238f573d6000803e3d6000fd5b505050506040513d6000823e601f3d908101601f191682016040526123b791908101906130dc565b6003815181106123c9576123c96139a8565b60200260200101516001600160a01b03166318160ddd6040518163ffffffff1660e01b815260040160206040518083038186803b15801561240957600080fd5b505afa15801561241d573d6000803e3d6000fd5b505050506040513d601f19601f8201168201806040525081019061244191906134dc565b905090565b600080612451612c51565b9050600073__UintLibrary___________________________630bd4715e838561247a81613977565b96508151811061248c5761248c6139a8565b60200260200101516040518263ffffffff1660e01b81526004016124b291815260200190565b60206040518083038186803b1580156124ca57600080fd5b505af41580156124de573d6000803e3d6000fd5b505050506040513d601f19601f8201168201806040525081019061250291906134dc565b9050600073__UintLibrary___________________________630bd4715e848661252b81613977565b97508151811061253d5761253d6139a8565b60200260200101516040518263ffffffff1660e01b815260040161256391815260200190565b60206040518083038186803b15801561257b57600080fd5b505af415801561258f573d6000803e3d6000fd5b505050506040513d601f19601f820116820180604052508101906125b391906134dc565b905060006125c28260016138f4565b9050600073__UintLibrary___________________________630bd4715e86886125eb81613977565b9950815181106125fd576125fd6139a8565b60200260200101516040518263ffffffff1660e01b815260040161262391815260200190565b60206040518083038186803b15801561263b57600080fd5b505af415801561264f573d6000803e3d6000fd5b505050506040513d601f19601f8201168201806040525081019061267391906134dc565b90506000846001600160401b0381111561268f5761268f6139be565b6040519080825280602002602001820160405280156126c257816020015b60608152602001906001900390816126ad5790505b5090506000826001600160401b038111156126df576126df6139be565b604051908082528060200260200182016040528015612708578160200160208202803683370190505b50905060008389612719878a61390c565b8a51612725919061392b565b61272f919061392b565b612739919061392b565b6001600160401b03811115612750576127506139be565b604051908082528060200260200182016040528015612779578160200160208202803683370190505b50905083612787868961390c565b612791908b6138f4565b61279b91906138f4565b885110156127ff5760405162461bcd60e51b815260206004820152602b60248201527f54686572652061726520736f6d65206d697373696e67206665657320616e642f60448201526a6f722073657474696e677360a81b6064820152608401610319565b600c54841461285f5760405162461bcd60e51b815260206004820152602660248201527f4e756d626572206f66205472616e73666572206665657320646f6573206e6f74604482015265040dac2e8c6d60d31b6064820152608401610319565b600d548151146128c15760405162461bcd60e51b815260206004820152602760248201527f4e756d626572206f66204f666665722073657474696e677320646f6573206e6f6044820152660e840dac2e8c6d60cb1b6064820152608401610319565b8860005b88811015612a2d576000876001600160401b038111156128e7576128e76139be565b604051908082528060200260200182016040528015612910578160200160208202803683370190505b50905060005b888110156129fa5773__UintLibrary___________________________630bd4715e8d8661294381613977565b975081518110612955576129556139a8565b60200260200101516040518263ffffffff1660e01b815260040161297b91815260200190565b60206040518083038186803b15801561299357600080fd5b505af41580156129a7573d6000803e3d6000fd5b505050506040513d601f19601f820116820180604052508101906129cb91906134dc565b8282815181106129dd576129dd6139a8565b6020908102919091010152806129f281613977565b915050612916565b5080868381518110612a0e57612a0e6139a8565b6020026020010181905250508080612a2590613977565b9150506128c5565b5060005b85811015612b155773__UintLibrary___________________________630bd4715e8b84612a5e81613977565b955081518110612a7057612a706139a8565b60200260200101516040518263ffffffff1660e01b8152600401612a9691815260200190565b60206040518083038186803b158015612aae57600080fd5b505af4158015612ac2573d6000803e3d6000fd5b505050506040513d601f19601f82011682018060405250810190612ae691906134dc565b848281518110612af857612af86139a8565b602090810291909101015280612b0d81613977565b915050612a31565b5060005b8251811015612bfe5773__UintLibrary___________________________630bd4715e8b84612b4781613977565b955081518110612b5957612b596139a8565b60200260200101516040518263ffffffff1660e01b8152600401612b7f91815260200190565b60206040518083038186803b158015612b9757600080fd5b505af4158015612bab573d6000803e3d6000fd5b505050506040513d601f19601f82011682018060405250810190612bcf91906134dc565b838281518110612be157612be16139a8565b602090810291909101015280612bf681613977565b915050612b19565b50612c0a848484610ddd565b7f09b3b89daeb2f093dfbba34628427631adc467324bf0a40cfe8a7ab63cd2befb848484604051612c3d93929190613620565b60405180910390a150505050505050505050565b600a546060906000906001600160401b03811115612c7157612c716139be565b604051908082528060200260200182016040528015612c9a578160200160208202803683370190505b50905060005b600a54811015612d9a5773__Library_______________________________63caa8f589600a8381548110612cd757612cd76139a8565b906000526020600020016040518263ffffffff1660e01b8152600401612cfd919061370d565b60006040518083038186803b158015612d1557600080fd5b505af4158015612d29573d6000803e3d6000fd5b505050506040513d6000823e601f3d908101601f19168201604052612d519190810190613297565b600081518110612d6357612d636139a8565b6020026020010151828281518110612d7d57612d7d6139a8565b602090810291909101015280612d9281613977565b915050612ca0565b50919050565b828054612dac90613942565b90600052602060002090601f016020900481019282612dce5760008555612e14565b82601f10612de757805160ff1916838001178555612e14565b82800160010185558215612e14579182015b82811115612e14578251825591602001919060010190612df9565b50612e20929150612e7c565b5090565b828054828255906000526020600020908101928215612e145791602002820182811115612e14578251825591602001919060010190612df9565b50805460008255906000526020600020908101906109d89190612e91565b5b80821115612e205760008155600101612e7d565b80821115612e20576000612ea58282612eae565b50600101612e91565b508054612eba90613942565b6000825580601f10612eca575050565b601f0160209004906000526020600020908101906109d89190612e7c565b8035610d62816139d4565b600082601f830112612f0457600080fd5b81356020612f19612f14836138d1565b6138a1565b80838252828201915082860187848660051b8901011115612f3957600080fd5b60005b85811015612f5857813584529284019290840190600101612f3c565b5090979650505050505050565b600082601f830112612f7657600080fd5b81356001600160401b03811115612f8f57612f8f6139be565b612fa2601f8201601f19166020016138a1565b818152846020838601011115612fb757600080fd5b816020850160208301376000918101602001919091529392505050565b60008060408385031215612fe757600080fd5b8235612ff2816139d4565b91506020830135613002816139d4565b809150509250929050565b60008060006060848603121561302257600080fd5b833561302d816139d4565b9250602084013561303d816139d4565b929592945050506040919091013590565b6000806040838503121561306157600080fd5b823561306c816139d4565b946020939093013593505050565b6000806000806080858703121561309057600080fd5b843561309b816139d4565b9350602085013592506040850135915060608501356001600160401b038111156130c457600080fd5b6130d087828801612f65565b91505092959194509250565b600060208083850312156130ef57600080fd5b82516001600160401b0381111561310557600080fd5b8301601f8101851361311657600080fd5b8051613124612f14826138d1565b80828252848201915084840188868560051b870101111561314457600080fd5b600094505b8385101561317057805161315c816139d4565b835260019490940193918501918501613149565b50979650505050505050565b600080600080600060a0868803121561319457600080fd5b6001600160401b0386358110156131aa57600080fd5b8635870188601f8201126131bd57600080fd5b803560206131cd612f14836138d1565b8083825282820191508285018d848660051b88010111156131ed57600080fd5b60005b8581101561322757878235111561320657600080fd5b6132158f8684358a0101612ef3565b845292840192908401906001016131f0565b50909a5050508901359150508181111561324057600080fd5b61324c89828a01612ef3565b95505060408701358181111561326157600080fd5b61326d89828a01612ef3565b9450505061327d60608701612ee8565b915061328b60808701612ee8565b90509295509295909350565b600060208083850312156132aa57600080fd5b82516001600160401b038111156132c057600080fd5b8301601f810185136132d157600080fd5b80516132df612f14826138d1565b80828252848201915084840188868560051b87010111156132ff57600080fd5b600094505b83851015613170578051835260019490940193918501918501613304565b6000602080838503121561333557600080fd5b82356001600160401b038082111561334c57600080fd5b818501915085601f83011261336057600080fd5b813561336e612f14826138d1565b80828252858201915085850189878560051b880101111561338e57600080fd5b6000805b858110156133c9578235878111156133a8578283fd5b6133b68d8b838c0101612f65565b8652509388019391880191600101613392565b50919a9950505050505050505050565b600060208083850312156133ec57600080fd5b82516001600160401b0381111561340257600080fd5b8301601f8101851361341357600080fd5b8051613421612f14826138d1565b80828252848201915084840188868560061b870101111561344157600080fd5b60009450845b8481101561349857604080838c03121561345f578687fd5b613467613879565b8351613472816139d4565b815283890151613481816139e9565b818a01528552938701939190910190600101613447565b509098975050505050505050565b6000602082840312156134b857600080fd5b81356107da816139e9565b6000602082840312156134d557600080fd5b5035919050565b6000602082840312156134ee57600080fd5b5051919050565b6000806040838503121561350857600080fd5b823591506020830135613002816139d4565b6000806040838503121561352d57600080fd5b50508035926020909101359150565b60008060006060848603121561355157600080fd5b8351925060208401519150604084015190509250925092565b600081518084526020808501945080840160005b8381101561359a5781518752958201959082019060010161357e565b509495945050505050565b6000815180845260005b818110156135cb576020818501810151868301820152016135af565b818111156135dd576000602083870101525b50601f01601f19169290920160200192915050565b6001600160a01b0391909116815260200190565b6001600160a01b0392831681529116602082015260400190565b6000606082016060835280865180835260808501915060808160051b8601019250602080890160005b8381101561367757607f1988870301855261366586835161356a565b95509382019390820190600101613649565b50508584038187015250505061368d818661356a565b905082810360408401526136a1818561356a565b9695505050505050565b6000602080830181845280855180835260408601915060408160051b870101925083870160005b8281101561370057603f198886030184526136ee8583516135a5565b945092850192908501906001016136d2565b5092979650505050505050565b600060208083526000845481600182811c91508083168061372f57607f831692505b85831081141561374d57634e487b7160e01b85526022600452602485fd5b87860183815260200181801561376a576001811461377b576137a6565b60ff198616825287820196506137a6565b60008b81526020902060005b868110156137a057815484820152908501908901613787565b83019750505b50949998505050505050505050565b6020808252602e908201527f496e697469616c697a61626c653a20636f6e747261637420697320616c72656160408201526d191e481a5b9a5d1a585b1a5e995960921b606082015260800190565b888152602081018890526001600160a01b03878116604083015286151560608301528516608082015283151560a082015261010060c0820181905260009061384d838201866135a5565b9150508260e08301529998505050505050505050565b9283526020830191909152604082015260600190565b604080519081016001600160401b038111828210171561389b5761389b6139be565b60405290565b604051601f8201601f191681016001600160401b03811182821017156138c9576138c96139be565b604052919050565b60006001600160401b038211156138ea576138ea6139be565b5060051b60200190565b6000821982111561390757613907613992565b500190565b600081600019048311821515161561392657613926613992565b500290565b60008282101561393d5761393d613992565b500390565b600181811c9082168061395657607f821691505b60208210811415612d9a57634e487b7160e01b600052602260045260246000fd5b600060001982141561398b5761398b613992565b5060010190565b634e487b7160e01b600052601160045260246000fd5b634e487b7160e01b600052603260045260246000fd5b634e487b7160e01b600052604160045260246000fd5b6001600160a01b03811681146109d857600080fd5b80151581146109d857600080fdfea2646970667358221220ec7177b501e8ad0a63cd599769bf52ae06bfd4a9bc7719b3e0152a9c5044102c64736f6c63430008070033",
  "immutableReferences": {},
  "source": "// SPDX-License-Identifier: GPL-3.0\r\n\r\npragma solidity 0.8.7;\r\n\r\n/**\r\n Treasury receives all the payments and assigns dividends to token holders.\r\n Public Certificate Pool contract can ask for its owners to eb refunded even if they do not own tokens.\r\n\r\n First dividends must be assigned to an account and then the account owner can withdraw the funds.\r\n Both actions must be triggered by the account owner.\r\n\r\n  Events : \r\n    - New Prices Added : list of prices\r\n    - Payment recieved : payer, amount, new total aggregated contract amount\r\n    - Refund : who, amount, among how many\r\n    - Assign Dividends : who, amount (number of tokens), among how many (total supply)\r\n    - Withdraw : who, how much\r\n */\r\n\r\nimport \"../Interfaces/ITreasury.sol\";\r\nimport \"../Libraries/UintLibrary.sol\";\r\nimport \"../Libraries/ItemsLibrary.sol\";\r\nimport \"../Libraries/Library.sol\";\r\nimport \"../Base/StdPropositionBaseContract.sol\";\r\nimport \"@openzeppelin/contracts-upgradeable/token/ERC20/IERC20Upgradeable.sol\";\r\nimport \"../Base/CreditorBaseContract.sol\";\r\nimport \"../Interfaces/IPayments.sol\";\r\n\r\n\r\ncontract Treasury is ITreasury, StdPropositionBaseContract, CreditorBaseContract{\r\n    using Library for *;\r\n    using UintLibrary for *;\r\n    using ItemsLibrary for *;\r\n\r\n    // EVENTS /////////////////////////////////////////\r\n    event _NewSettings(uint[][] Fees, uint[] TransactionFees, uint[] OfferSettings);\r\n    event _Pay(address indexed Payer, uint Amount, uint AggregatedAmount, uint256 tokenContractId);\r\n    event _AssignDividend(address indexed Recipient, uint Amount, uint TotalSupply, uint256 tokenContractId);\r\n    event _Withdraw(address indexed Recipient, uint Amount, uint256 tokenContractId);\r\n\r\n    // DATA /////////////////////////////////////////\r\n    // prices parameters\r\n    uint256[][] private _Fees;\r\n    uint256[] private _TransferFees;\r\n    uint256[] private _OfferSettings;\r\n\r\n    // last amount at which dividends where assigned for each token owner\r\n    uint256[] private _AggregatedDividendAmount;\r\n    mapping(uint256 => mapping(address => uint256)) private _lastAssigned;\r\n\r\n    // dividends per token owner\r\n    mapping(uint256 => mapping(address => ItemsLibrary._BalanceStruct)) private _balances;\r\n\r\n    // MODIFIERS /////////////////////////////////////////\r\n    modifier FeesOK(uint256[][] memory Fees){\r\n        if(_Fees.length > 0){\r\n            for(uint256 i=0; i < Fees.length; i++){\r\n                require(_Fees[0].length + 1 == Fees[i].length, \"Number of Fees does not match\");\r\n            }\r\n        }\r\n        _;\r\n    }\r\n    modifier TransferFeesOK(uint256[] memory TransferFees){\r\n        if(_TransferFees.length > 0){\r\n            require(_TransferFees.length == TransferFees.length, \"Number of Transfer Fees does not match\");\r\n        }\r\n        _;\r\n    }\r\n    modifier OfferSettingsOK(uint256[] memory OfferSettings){\r\n        if(_OfferSettings.length > 0){\r\n            require(_OfferSettings.length == OfferSettings.length, \"Number of Offer Settings does not match\");\r\n        }\r\n        _;\r\n    }\r\n    // CONSTRUCTOR /////////////////////////////////////////\r\n    function Treasury_init(uint256[][] memory Fees, uint256[] memory TransferFees, uint256[] memory OfferSettings, address managerContractAddress, address chairPerson) public initializer \r\n    {\r\n        super.StdPropositionBaseContract_init(chairPerson, managerContractAddress);\r\n\r\n        uint256[][] memory initFees = new uint256[][](Fees.length);\r\n\r\n        if(Fees.length > 0){\r\n            for(uint i=0; i < initFees.length; i++){\r\n                uint256[] memory FeesForToken = new uint256[](Fees[i].length + 1);\r\n                FeesForToken[0] = i;\r\n                for(uint j=0; j < Fees[i].length; j++){\r\n                    FeesForToken[j + 1] = Fees[i][j];\r\n                }\r\n                initFees[i] = FeesForToken;\r\n            }\r\n        }\r\n\r\n        InternalupdateSettings(initFees, TransferFees, OfferSettings);\r\n    }\r\n\r\n    // GOVERNANCE /////////////////////////////////////////\r\n    function checkProposition(bytes[] memory NewValues) internal override \r\n    {\r\n        require(NewValues.length >= 3, \"Missing Settings\");\r\n    }\r\n\r\n    function UpdateAll() internal override\r\n    {\r\n        uint256 count;\r\n        bytes32[] memory ProposedNewValues = PropositionsToBytes32();\r\n        uint256 numberOfTokens = UintLibrary.Bytes32ToUint(ProposedNewValues[count++]);\r\n        uint256 FeesPerToken = UintLibrary.Bytes32ToUint(ProposedNewValues[count++]);\r\n        uint256 ItemsPerToken = FeesPerToken + 1;\r\n        uint256 numberOfTransferFees = UintLibrary.Bytes32ToUint(ProposedNewValues[count++]);\r\n        uint256[][] memory newFees = new uint256[][](numberOfTokens);\r\n        uint256[] memory newTransferFees = new uint256[](numberOfTransferFees);\r\n        uint256[] memory newOfferSettings = new uint256[](ProposedNewValues.length - (numberOfTokens * ItemsPerToken) - count - numberOfTransferFees);\r\n\r\n        require(ProposedNewValues.length >= count + (numberOfTokens * ItemsPerToken) + numberOfTransferFees, \"There are some missing fees and/or settings\");\r\n        require(numberOfTransferFees == _TransferFees.length, \"Number of Transfer fees does not match\");\r\n        require(newOfferSettings.length == _OfferSettings.length, \"Number of Offer settings does not match\");\r\n\r\n        uint index = count;\r\n\r\n        for (uint256 i=0; i < numberOfTokens; i++) {\r\n            uint256[] memory newFeesForToken = new uint256[](ItemsPerToken);\r\n            for(uint256 j=0; j < ItemsPerToken; j++){\r\n                newFeesForToken[j] = UintLibrary.Bytes32ToUint(ProposedNewValues[index++]);\r\n            }\r\n            newFees[i] = newFeesForToken;\r\n        }\r\n\r\n        for (uint256 j=0; j < numberOfTransferFees; j++) {\r\n            newTransferFees[j] = UintLibrary.Bytes32ToUint(ProposedNewValues[index++]);\r\n        }\r\n\r\n        for (uint256 k=0; k < newOfferSettings.length; k++) {\r\n            newOfferSettings[k] = UintLibrary.Bytes32ToUint(ProposedNewValues[index++]);\r\n        }\r\n\r\n        InternalupdateSettings(newFees, newTransferFees, newOfferSettings);\r\n\r\n        emit _NewSettings(newFees, newTransferFees, newOfferSettings);\r\n    }\r\n\r\n    function InternalupdateSettings(uint256[][] memory Fees, uint256[] memory TransferFees, uint256[] memory OfferSettings) internal\r\n        FeesOK(Fees)\r\n        TransferFeesOK(TransferFees)\r\n        OfferSettingsOK(OfferSettings)\r\n    {\r\n        for (uint i=0; i < Fees.length; i++) {\r\n            uint256 paymentTokenID = Fees[i][0];\r\n            if(paymentTokenID < _Fees.length){\r\n                for(uint p=0; p < _Fees[paymentTokenID].length; p++){\r\n                    _Fees[paymentTokenID][p] = Fees[i][p + 1];\r\n                }\r\n            }\r\n            else {\r\n                uint256[] memory FeesForNewPaymentID = new uint256[](Fees[i].length - 1);\r\n                for(uint p=0; p < FeesForNewPaymentID.length; p++){\r\n                    FeesForNewPaymentID[p] = Fees[i][p + 1];\r\n                }\r\n                _Fees.push(FeesForNewPaymentID);\r\n            }\r\n        }\r\n\r\n        for (uint j=0; j < TransferFees.length; j++) {\r\n            if(j < _TransferFees.length) _TransferFees[j] = TransferFees[j];\r\n            else _TransferFees.push(TransferFees[j]);\r\n        }\r\n\r\n        for (uint k=0; k < OfferSettings.length; k++) {\r\n            if(k < _OfferSettings.length) _OfferSettings[k] = OfferSettings[k];\r\n            else _OfferSettings.push(OfferSettings[k]);\r\n        }\r\n    }\r\n\r\n    // FUNCTIONALITY /////////////////////////////////////////\r\n    function onCreditReceived(address sender, uint256 amount, uint256 paymentTokenID, bytes memory data) internal override\r\n    {\r\n        if(paymentTokenID < _AggregatedDividendAmount.length) _AggregatedDividendAmount[paymentTokenID] += amount;\r\n        else _AggregatedDividendAmount.push(amount);\r\n\r\n        emit _Pay(sender, amount, _AggregatedDividendAmount[paymentTokenID], paymentTokenID);\r\n    }\r\n\r\n    function InternalonTokenBalanceChanged(address from, address to, uint256 amount) internal override\r\n    {\r\n        super.InternalonTokenBalanceChanged(from, to, amount);\r\n        if(address(0) != from) {\r\n            for(uint256 i=0; i < _AggregatedDividendAmount.length; i++){\r\n                InternalAssignDividends(from, i);\r\n            }\r\n        }\r\n        if(address(0) != to) {\r\n            for(uint256 i=0; i < _AggregatedDividendAmount.length; i++){\r\n                InternalAssignDividends(to, i);\r\n            }\r\n        }\r\n    }\r\n\r\n    function InternalAssignDividends(address recipient, uint256 paymentTokenID) internal\r\n    {\r\n        if(paymentTokenID < _AggregatedDividendAmount.length){\r\n            (uint totalOffBalance, uint DividendOffBalance) = sumUpTotalOffBalance(recipient, paymentTokenID);\r\n            _lastAssigned[paymentTokenID][recipient] = _AggregatedDividendAmount[paymentTokenID];\r\n        \r\n            if(totalOffBalance > 0){   \r\n            ItemsLibrary.addBalance(_balances[paymentTokenID][recipient], totalOffBalance, DividendOffBalance);\r\n            emit _AssignDividend(recipient, totalOffBalance, DividendOffBalance, paymentTokenID);\r\n            }\r\n        }  \r\n    }\r\n\r\n    function withdraw(uint amount, uint256 paymentTokenID) external override\r\n    {\r\n        InternalWithdraw(amount, paymentTokenID);\r\n    }\r\n\r\n    function withdrawAll(uint256 paymentTokenID) external override\r\n    {\r\n        uint All = ItemsLibrary.checkFullBalance(_balances[paymentTokenID][msg.sender]);\r\n        InternalWithdraw(All, paymentTokenID);\r\n    }\r\n\r\n    function InternalWithdraw(uint amount, uint256 paymentTokenID) internal \r\n    {\r\n        InternalAssignDividends(msg.sender, paymentTokenID);\r\n        ItemsLibrary.InternalWithdraw(\r\n            _balances[paymentTokenID][msg.sender], \r\n            amount, \r\n            msg.sender, \r\n            true, \r\n            address(IPayments(_managerContract.retrieveTransparentProxies()[uint256(Library.TransparentProxies.Payments)]).retrieveSettings()[paymentTokenID].TokenContract),\r\n            false,\r\n            bytes(\"\"),\r\n            paymentTokenID\r\n        );\r\n\r\n        emit _Withdraw(msg.sender, amount, paymentTokenID);\r\n    }\r\n\r\n    function retrieveLastAssigned(address addr, uint256 paymentTokenID) external override view returns(uint)\r\n    {\r\n        return _lastAssigned[paymentTokenID][addr];\r\n    }\r\n\r\n    function retrieveFullBalance(address addr, uint256 paymentTokenID) external override view returns(uint)\r\n    {\r\n        return ItemsLibrary.checkFullBalance(_balances[paymentTokenID][addr]);\r\n    }\r\n\r\n    function retrieveSettings() external override view returns(uint256[][] memory, uint256[] memory, uint256[] memory)\r\n    {\r\n        return(_Fees, _TransferFees, _OfferSettings);\r\n    }\r\n\r\n    function retrieveAggregatedAmount(uint256 paymentTokenID) external override view returns(uint){\r\n        if(paymentTokenID < _AggregatedDividendAmount.length) return _AggregatedDividendAmount[paymentTokenID];\r\n        else return 0;\r\n    }\r\n\r\n    function sumUpTotal(address addr, uint256 paymentTokenID) internal view returns (uint, uint)\r\n    {\r\n        (uint totalOnBalance, uint commonDividendOnBalance) = sumUpTotalOnBalance(addr, paymentTokenID);\r\n        (uint totalOffBalance, uint DividendOffBalance) = sumUpTotalOffBalance(addr, paymentTokenID);\r\n\r\n        uint total = (totalOnBalance * DividendOffBalance) + (totalOffBalance * commonDividendOnBalance);\r\n        uint CommonDividend = commonDividendOnBalance * DividendOffBalance;\r\n\r\n        return (total, CommonDividend);\r\n    }\r\n\r\n    function sumUpTotalOnBalance(address addr, uint256 paymentTokenID) internal view returns (uint, uint)\r\n    {\r\n        return ItemsLibrary.sumUpTotal(_balances[paymentTokenID][addr]);\r\n    }\r\n\r\n    function sumUpTotalOffBalance(address addr, uint256 paymentTokenID) internal view returns (uint, uint)\r\n    {\r\n        uint total = 0;\r\n\r\n        if(paymentTokenID < _AggregatedDividendAmount.length && \r\n            _lastAssigned[paymentTokenID][addr] < _AggregatedDividendAmount[paymentTokenID])\r\n        {\r\n            total = (_AggregatedDividendAmount[paymentTokenID] - _lastAssigned[paymentTokenID][addr]) * GetTokensBalance(addr);           \r\n        }\r\n\r\n        return (total, totalSupply());\r\n    }\r\n\r\n\r\n}",
  "sourcePath": "C:\\Users\\d-aam\\GitHub\\Originals\\contracts\\MainContracts\\Treasury.sol",
  "compiler": {
    "name": "solc",
    "version": "0.8.7+commit.e28d00a7.Emscripten.clang"
  },
  "schemaVersion": "3.4.3",
  "updatedAt": "2022-03-11T14:13:31.203Z",
  "networkType": "ethereum",
  "devdoc": {
    "kind": "dev",
    "methods": {},
    "version": 1
  },
  "userdoc": {
    "kind": "user",
    "methods": {},
    "version": 1
  }
}