{
  "contractName": "Treasury",
  "abi": [
    {
      "anonymous": false,
      "inputs": [
        {
          "indexed": false,
          "internalType": "uint256",
          "name": "Id",
          "type": "uint256"
        },
        {
          "indexed": true,
          "internalType": "address",
          "name": "Proposer",
          "type": "address"
        },
        {
          "indexed": false,
          "internalType": "uint256",
          "name": "Deadline",
          "type": "uint256"
        },
        {
          "indexed": false,
          "internalType": "uint256",
          "name": "Threshold",
          "type": "uint256"
        }
      ],
      "name": "_AddedProposition",
      "type": "event"
    },
    {
      "anonymous": false,
      "inputs": [
        {
          "indexed": true,
          "internalType": "address",
          "name": "Recipient",
          "type": "address"
        },
        {
          "indexed": false,
          "internalType": "uint256",
          "name": "Amount",
          "type": "uint256"
        },
        {
          "indexed": false,
          "internalType": "uint256",
          "name": "TotalSupply",
          "type": "uint256"
        },
        {
          "indexed": false,
          "internalType": "uint256",
          "name": "tokenContractId",
          "type": "uint256"
        }
      ],
      "name": "_AssignDividend",
      "type": "event"
    },
    {
      "anonymous": false,
      "inputs": [
        {
          "indexed": false,
          "internalType": "uint256",
          "name": "Id",
          "type": "uint256"
        },
        {
          "indexed": true,
          "internalType": "address",
          "name": "Proposer",
          "type": "address"
        }
      ],
      "name": "_CancelledProposition",
      "type": "event"
    },
    {
      "anonymous": false,
      "inputs": [
        {
          "indexed": false,
          "internalType": "uint256[][]",
          "name": "Prices",
          "type": "uint256[][]"
        }
      ],
      "name": "_NewFees",
      "type": "event"
    },
    {
      "anonymous": false,
      "inputs": [
        {
          "indexed": true,
          "internalType": "address",
          "name": "Payer",
          "type": "address"
        },
        {
          "indexed": false,
          "internalType": "uint256",
          "name": "Amount",
          "type": "uint256"
        },
        {
          "indexed": false,
          "internalType": "uint256",
          "name": "AggregatedAmount",
          "type": "uint256"
        },
        {
          "indexed": false,
          "internalType": "uint256",
          "name": "tokenContractId",
          "type": "uint256"
        }
      ],
      "name": "_Pay",
      "type": "event"
    },
    {
      "anonymous": false,
      "inputs": [
        {
          "indexed": false,
          "internalType": "uint256",
          "name": "Id",
          "type": "uint256"
        },
        {
          "indexed": true,
          "internalType": "address",
          "name": "Proposer",
          "type": "address"
        },
        {
          "indexed": false,
          "internalType": "uint256",
          "name": "VotesFor",
          "type": "uint256"
        },
        {
          "indexed": false,
          "internalType": "uint256",
          "name": "VotesAgainst",
          "type": "uint256"
        }
      ],
      "name": "_PropositionApproved",
      "type": "event"
    },
    {
      "anonymous": false,
      "inputs": [
        {
          "indexed": false,
          "internalType": "uint256",
          "name": "Id",
          "type": "uint256"
        },
        {
          "indexed": true,
          "internalType": "address",
          "name": "Proposer",
          "type": "address"
        },
        {
          "indexed": false,
          "internalType": "uint256",
          "name": "VotesFor",
          "type": "uint256"
        },
        {
          "indexed": false,
          "internalType": "uint256",
          "name": "VotesAgainst",
          "type": "uint256"
        }
      ],
      "name": "_PropositionRejected",
      "type": "event"
    },
    {
      "anonymous": false,
      "inputs": [
        {
          "indexed": false,
          "internalType": "uint256",
          "name": "Id",
          "type": "uint256"
        },
        {
          "indexed": true,
          "internalType": "address",
          "name": "Voter",
          "type": "address"
        },
        {
          "indexed": false,
          "internalType": "bool",
          "name": "Vote",
          "type": "bool"
        },
        {
          "indexed": false,
          "internalType": "uint256",
          "name": "AmountTokens",
          "type": "uint256"
        }
      ],
      "name": "_PropositionVote",
      "type": "event"
    },
    {
      "anonymous": false,
      "inputs": [
        {
          "indexed": true,
          "internalType": "uint256",
          "name": "Id",
          "type": "uint256"
        },
        {
          "indexed": false,
          "internalType": "address",
          "name": "From",
          "type": "address"
        },
        {
          "indexed": false,
          "internalType": "address",
          "name": "To",
          "type": "address"
        },
        {
          "indexed": false,
          "internalType": "uint256",
          "name": "Amount",
          "type": "uint256"
        }
      ],
      "name": "_UsedTokensTransfered",
      "type": "event"
    },
    {
      "anonymous": false,
      "inputs": [
        {
          "indexed": true,
          "internalType": "address",
          "name": "Recipient",
          "type": "address"
        },
        {
          "indexed": false,
          "internalType": "uint256",
          "name": "Amount",
          "type": "uint256"
        },
        {
          "indexed": false,
          "internalType": "uint256",
          "name": "tokenContractId",
          "type": "uint256"
        }
      ],
      "name": "_Withdraw",
      "type": "event"
    },
    {
      "inputs": [
        {
          "internalType": "address",
          "name": "sender",
          "type": "address"
        },
        {
          "internalType": "uint256",
          "name": "amount",
          "type": "uint256"
        },
        {
          "internalType": "uint256",
          "name": "paymentTokenID",
          "type": "uint256"
        },
        {
          "internalType": "bytes",
          "name": "data",
          "type": "bytes"
        }
      ],
      "name": "CreditReceived",
      "outputs": [],
      "stateMutability": "nonpayable",
      "type": "function"
    },
    {
      "inputs": [
        {
          "internalType": "address",
          "name": "chairPerson",
          "type": "address"
        },
        {
          "internalType": "address",
          "name": "managerContractAddress",
          "type": "address"
        }
      ],
      "name": "StdPropositionBaseContract_init",
      "outputs": [],
      "stateMutability": "nonpayable",
      "type": "function"
    },
    {
      "inputs": [],
      "name": "cancelProposition",
      "outputs": [],
      "stateMutability": "nonpayable",
      "type": "function"
    },
    {
      "inputs": [
        {
          "internalType": "address",
          "name": "from",
          "type": "address"
        },
        {
          "internalType": "address",
          "name": "to",
          "type": "address"
        },
        {
          "internalType": "uint256",
          "name": "amount",
          "type": "uint256"
        }
      ],
      "name": "onTokenBalanceChanged",
      "outputs": [],
      "stateMutability": "nonpayable",
      "type": "function"
    },
    {
      "inputs": [],
      "name": "retrieveChairPerson",
      "outputs": [
        {
          "internalType": "address",
          "name": "",
          "type": "address"
        }
      ],
      "stateMutability": "view",
      "type": "function"
    },
    {
      "inputs": [],
      "name": "retrieveManagerContract",
      "outputs": [
        {
          "internalType": "address",
          "name": "",
          "type": "address"
        }
      ],
      "stateMutability": "view",
      "type": "function"
    },
    {
      "inputs": [],
      "name": "retrieveNextPropId",
      "outputs": [
        {
          "internalType": "uint256",
          "name": "",
          "type": "uint256"
        }
      ],
      "stateMutability": "view",
      "type": "function"
    },
    {
      "inputs": [],
      "name": "retrieveProposition",
      "outputs": [
        {
          "internalType": "bytes[]",
          "name": "",
          "type": "bytes[]"
        }
      ],
      "stateMutability": "view",
      "type": "function"
    },
    {
      "inputs": [],
      "name": "retrievePropositionStatus",
      "outputs": [
        {
          "internalType": "address",
          "name": "",
          "type": "address"
        },
        {
          "internalType": "uint256",
          "name": "",
          "type": "uint256"
        },
        {
          "internalType": "uint256",
          "name": "",
          "type": "uint256"
        },
        {
          "internalType": "uint256",
          "name": "",
          "type": "uint256"
        },
        {
          "internalType": "uint256",
          "name": "",
          "type": "uint256"
        }
      ],
      "stateMutability": "view",
      "type": "function"
    },
    {
      "inputs": [
        {
          "internalType": "uint256",
          "name": "PropId",
          "type": "uint256"
        },
        {
          "internalType": "address",
          "name": "voter",
          "type": "address"
        }
      ],
      "name": "retrieveVotesForVoter",
      "outputs": [
        {
          "internalType": "uint256",
          "name": "",
          "type": "uint256"
        }
      ],
      "stateMutability": "view",
      "type": "function"
    },
    {
      "inputs": [
        {
          "internalType": "bytes[]",
          "name": "NewValues",
          "type": "bytes[]"
        }
      ],
      "name": "sendProposition",
      "outputs": [],
      "stateMutability": "nonpayable",
      "type": "function"
    },
    {
      "inputs": [
        {
          "internalType": "bool",
          "name": "vote",
          "type": "bool"
        }
      ],
      "name": "voteProposition",
      "outputs": [],
      "stateMutability": "nonpayable",
      "type": "function"
    },
    {
      "inputs": [
        {
          "internalType": "uint256[][]",
          "name": "Fees",
          "type": "uint256[][]"
        },
        {
          "internalType": "uint256[]",
          "name": "TransferFees",
          "type": "uint256[]"
        },
        {
          "internalType": "uint256[]",
          "name": "OfferSettings",
          "type": "uint256[]"
        },
        {
          "internalType": "address",
          "name": "managerContractAddress",
          "type": "address"
        },
        {
          "internalType": "address",
          "name": "chairPerson",
          "type": "address"
        }
      ],
      "name": "Treasury_init",
      "outputs": [],
      "stateMutability": "nonpayable",
      "type": "function"
    },
    {
      "inputs": [
        {
          "internalType": "uint256",
          "name": "amount",
          "type": "uint256"
        },
        {
          "internalType": "uint256",
          "name": "paymentTokenID",
          "type": "uint256"
        }
      ],
      "name": "withdraw",
      "outputs": [],
      "stateMutability": "nonpayable",
      "type": "function"
    },
    {
      "inputs": [
        {
          "internalType": "uint256",
          "name": "paymentTokenID",
          "type": "uint256"
        }
      ],
      "name": "withdrawAll",
      "outputs": [],
      "stateMutability": "nonpayable",
      "type": "function"
    },
    {
      "inputs": [
        {
          "internalType": "address",
          "name": "addr",
          "type": "address"
        },
        {
          "internalType": "uint256",
          "name": "paymentTokenID",
          "type": "uint256"
        }
      ],
      "name": "retrieveLastAssigned",
      "outputs": [
        {
          "internalType": "uint256",
          "name": "",
          "type": "uint256"
        }
      ],
      "stateMutability": "view",
      "type": "function"
    },
    {
      "inputs": [
        {
          "internalType": "address",
          "name": "addr",
          "type": "address"
        },
        {
          "internalType": "uint256",
          "name": "paymentTokenID",
          "type": "uint256"
        }
      ],
      "name": "retrieveFullBalance",
      "outputs": [
        {
          "internalType": "uint256",
          "name": "",
          "type": "uint256"
        }
      ],
      "stateMutability": "view",
      "type": "function"
    },
    {
      "inputs": [],
      "name": "retrieveSettings",
      "outputs": [
        {
          "internalType": "uint256[][]",
          "name": "",
          "type": "uint256[][]"
        },
        {
          "internalType": "uint256[]",
          "name": "",
          "type": "uint256[]"
        },
        {
          "internalType": "uint256[]",
          "name": "",
          "type": "uint256[]"
        }
      ],
      "stateMutability": "view",
      "type": "function"
    },
    {
      "inputs": [
        {
          "internalType": "uint256",
          "name": "paymentTokenID",
          "type": "uint256"
        }
      ],
      "name": "retrieveAggregatedAmount",
      "outputs": [
        {
          "internalType": "uint256",
          "name": "",
          "type": "uint256"
        }
      ],
      "stateMutability": "view",
      "type": "function"
    }
  ],
  "bytecode": "0x608060405234801561001057600080fd5b50613066806100206000396000f3fe608060405234801561001057600080fd5b50600436106100f15760003560e01c806304cc67a9146100f6578063066fca8f1461010d57806315f9969f146101225780633c7df55d146101575780634044adb21461016a578063441a3e70146101a057806355457ee9146101b35780635b362e84146101bb5780637dacc160146101db5780638266251f146101ee578063840f6d171461020157806391f9167114610242578063958e2d3114610255578063a93316f514610268578063b049473f1461027d578063b1fd235914610294578063b50a46cb146102a7578063db85bc4d146102ba578063e15aa3a6146102cb575b600080fd5b6008545b6040519081526020015b60405180910390f35b61012061011b36600461274f565b6102de565b005b6100fa610130366004612621565b6000908152600f602090815260408083206001600160a01b03949094168352929052205490565b6101206101653660046125e0565b6103f9565b6100fa610178366004612ac8565b60009182526009602090815260408084206001600160a01b0393909316845291905290205490565b6101206101ae366004612aed565b610517565b610120610525565b6000546201000090046001600160a01b03165b6040516101049190612bc5565b6100fa6101e9366004612621565b610600565b6101206101fc36600461264d565b6106ad565b600354600454600554600654600754604080516001600160a01b0390961686526020860194909452928401919091526060830152608082015260a001610104565b610120610250366004612a79565b61089a565b610120610263366004612a96565b6108a7565b610270610950565b6040516101049190612cc2565b610285610a29565b60405161010493929190612bf3565b6101206102a23660046125a7565b610b76565b6100fa6102b5366004612a96565b610bf4565b6001546001600160a01b03166101ce565b6101206102d93660046128f5565b610c33565b600054610100900460ff166102f95760005460ff16156102fd565b303b155b6103225760405162461bcd60e51b815260040161031990612dcc565b60405180910390fd5b600054610100900460ff16158015610344576000805461ffff19166101011790555b61034e8284610b76565b8551600087818361036157610361612fe1565b6020908102919091010151518751875191925090600081836103838688612f45565b61038d9190612f0b565b6103979190612f0b565b6001600160401b038111156103ae576103ae612ff7565b6040519080825280602002602001820160405280156103d7578160200160208202803683370190505b509050505050505080156103f1576000805461ff00191690555b505050505050565b3373__Library_______________________________6337ea306382600060029054906101000a90046001600160a01b03166001600160a01b031663e220ad956040518163ffffffff1660e01b815260040160006040518083038186803b15801561046357600080fd5b505afa158015610477573d6000803e3d6000fd5b505050506040513d6000823e601f3d908101601f1916820160405261049f91908101906126af565b6003815181106104b1576104b1612fe1565b60200260200101516040518363ffffffff1660e01b81526004016104d6929190612bd9565b60006040518083038186803b1580156104ee57600080fd5b505af4158015610502573d6000803e3d6000fd5b50505050610511848484610ca9565b50505050565b6105218282610d26565b5050565b600161053081610f35565b6003546040516337ea306360e01b8152339173__Library_______________________________916337ea3063916105769185916001600160a01b031690600401612bd9565b60006040518083038186803b15801561058e57600080fd5b505af41580156105a2573d6000803e3d6000fd5b505050506105ae610fb9565b6105b6610fc3565b6003546002546040519081526001600160a01b03909116907f1fe8aec10c0a50fa765076161e08c1f961ced69594ff45cf7d559f593afe1479906020015b60405180910390a25050565b60008181526010602090815260408083206001600160a01b038616845290915280822090516326162dc360e01b8152600481019190915273__ItemsLibrary__________________________906326162dc39060240160206040518083038186803b15801561066e57600080fd5b505af4158015610682573d6000803e3d6000fd5b505050506040513d601f19601f820116820180604052508101906106a69190612aaf565b9392505050565b33600060029054906101000a90046001600160a01b03166001600160a01b031663e220ad956040518163ffffffff1660e01b815260040160006040518083038186803b1580156106fc57600080fd5b505afa158015610710573d6000803e3d6000fd5b505050506040513d6000823e601f3d908101601f1916820160405261073891908101906126af565b60018151811061074a5761074a612fe1565b60200260200101516001600160a01b0316816001600160a01b031614806108255750600060029054906101000a90046001600160a01b03166001600160a01b031663e220ad956040518163ffffffff1660e01b815260040160006040518083038186803b1580156107ba57600080fd5b505afa1580156107ce573d6000803e3d6000fd5b505050506040513d6000823e601f3d908101601f191682016040526107f691908101906126af565b60068151811061080857610808612fe1565b60200260200101516001600160a01b0316816001600160a01b0316145b6108875760405162461bcd60e51b815260206004820152602d60248201527f4974206973206e6f742066726f6d206f6e65206f66207468652063657274696660448201526c69656420636f6e74726163747360981b6064820152608401610319565b61089385858585610fee565b5050505050565b6108a433826110ce565b50565b600081815260106020908152604080832033845290915280822090516326162dc360e01b8152600481019190915273__ItemsLibrary__________________________906326162dc39060240160206040518083038186803b15801561090c57600080fd5b505af4158015610920573d6000803e3d6000fd5b505050506040513d601f19601f820116820180604052508101906109449190612aaf565b90506105218183610d26565b6060600a805480602002602001604051908101604052809291908181526020016000905b82821015610a2057838290600052602060002001805461099390612f7b565b80601f01602080910402602001604051908101604052809291908181526020018280546109bf90612f7b565b8015610a0c5780601f106109e157610100808354040283529160200191610a0c565b820191906000526020600020905b8154815290600101906020018083116109ef57829003601f168201915b505050505081526020019060010190610974565b50505050905090565b6060806060600b600c600d82805480602002602001604051908101604052809291908181526020016000905b82821015610ac157600084815260209081902083018054604080518285028101850190915281815292830182828015610aad57602002820191906000526020600020905b815481526020019060010190808311610a99575b505050505081526020019060010190610a55565b50505050925081805480602002602001604051908101604052809291908181526020018280548015610b1257602002820191906000526020600020905b815481526020019060010190808311610afe575b5050505050915080805480602002602001604051908101604052809291908181526020018280548015610b6457602002820191906000526020600020905b815481526020019060010190808311610b50575b50505050509050925092509250909192565b600054610100900460ff16610b915760005460ff1615610b95565b303b155b610bb15760405162461bcd60e51b815260040161031990612dcc565b600054610100900460ff16158015610bd3576000805461ffff19166101011790555b610bdd83836111e6565b8015610bef576000805461ff00191690555b505050565b600e54600090821015610c2657600e8281548110610c1457610c14612fe1565b90600052602060002001549050919050565b506000919050565b919050565b610c3c81611282565b610c446112c7565b60005b815181101561052157600a828281518110610c6457610c64612fe1565b60209081029190910181015182546001810184556000938452928290208151610c969491909101929190910190612373565b5080610ca181612fb0565b915050610c47565b610cb4838383611616565b6001600160a01b03831615610cee5760005b600e54811015610cec57610cda8482611633565b80610ce481612fb0565b915050610cc6565b505b6001600160a01b03821615610bef5760005b600e5481101561051157610d148382611633565b80610d1e81612fb0565b915050610d00565b610d303382611633565b60008181526010602090815260408083203380855292528083208354825163e220ad9560e01b8152925173__ItemsLibrary__________________________956318b84a21959394899493600193620100009091046001600160a01b03169263e220ad959260048082019391829003018186803b158015610db057600080fd5b505afa158015610dc4573d6000803e3d6000fd5b505050506040513d6000823e601f3d908101601f19168201604052610dec91908101906126af565b600681518110610dfe57610dfe612fe1565b60200260200101516001600160a01b031663b049473f6040518163ffffffff1660e01b815260040160006040518083038186803b158015610e3e57600080fd5b505afa158015610e52573d6000803e3d6000fd5b505050506040513d6000823e601f3d908101601f19168201604052610e7a91908101906129ac565b8781518110610e8b57610e8b612fe1565b602002602001015160000151600060405180602001604052806000815250896040518963ffffffff1660e01b8152600401610ecd989796959493929190612e1a565b60006040518083038186803b158015610ee557600080fd5b505af4158015610ef9573d6000803e3d6000fd5b505060408051858152602081018590523393507fe3a578db023c93c17a32f818b53100ba3479950e72d911afbee045639067f87f9250016105f4565b8015610f7c57610f4361175d565b15156001146108a45760405162461bcd60e51b8152602060048201526005602482015264454332352d60d81b6044820152606401610319565b610f8461175d565b156108a45760405162461bcd60e51b8152602060048201526005602482015264454332342d60d81b6044820152606401610319565b610fc1611797565b565b60006002819055600380546001600160a01b0319169055600481905560058190556006819055600755565b600e548210156110305782600e838154811061100c5761100c612fe1565b9060005260206000200160008282546110259190612f0b565b909155506110669050565b600e80546001810182556000919091527fbb7b4a454dc3493923482f07822329ed19e8244eff582cc204f8554c3620c3fd018390555b836001600160a01b03167fa0e5c002871629acffe2f6c9e7932d18ed4493526043875a27b3011d7981370684600e85815481106110a5576110a5612fe1565b9060005260206000200154856040516110c093929190612e7a565b60405180910390a250505050565b60016110d981610f35565b600254839060006110ea83836117a3565b9050600081116111245760405162461bcd60e51b8152602060048201526005602482015264454332332d60d81b6044820152606401610319565b6000611135876002600001546117a3565b9050851561115d5780600260040160008282546111529190612f0b565b909155506111789050565b80600260050160008282546111729190612f0b565b90915550505b6002546111869088836117d9565b60025460408051918252871515602083015281018290526001600160a01b038816907f50f654d58981575c05e369cb129aeacb01e1b036af429380242cfc5d1a4b743f9060600160405180910390a26111dd611815565b50505050505050565b600054610100900460ff166112015760005460ff1615611205565b303b155b6112215760405162461bcd60e51b815260040161031990612dcc565b600054610100900460ff16158015611243576000805461ffff19166101011790555b61124c826118e9565b600180546001600160a01b0319166001600160a01b03851617905560006008558015610bef576000805461ff0019169055505050565b6003815110156108a45760405162461bcd60e51b815260206004820152601060248201526f4d697373696e672053657474696e677360801b6044820152606401610319565b60006112d281610f35565b60015433906000906001600160a01b03168214156112f257506001611428565b60006112fd8361197d565b905060008060029054906101000a90046001600160a01b03166001600160a01b031663e220ad956040518163ffffffff1660e01b815260040160006040518083038186803b15801561134e57600080fd5b505afa158015611362573d6000803e3d6000fd5b505050506040513d6000823e601f3d908101601f1916820160405261138a91908101906126af565b60048151811061139c5761139c612fe1565b60200260200101516001600160a01b031663b049473f6040518163ffffffff1660e01b815260040160606040518083038186803b1580156113dc57600080fd5b505afa1580156113f0573d6000803e3d6000fd5b505050506040513d601f19601f820116820180604052508101906114149190612b0f565b925050508082111561142557600192505b50505b6001811515146114625760405162461bcd60e51b8152602060048201526005602482015264454332322d60d81b6044820152606401610319565b600080600060029054906101000a90046001600160a01b03166001600160a01b031663e220ad956040518163ffffffff1660e01b815260040160006040518083038186803b1580156114b357600080fd5b505afa1580156114c7573d6000803e3d6000fd5b505050506040513d6000823e601f3d908101601f191682016040526114ef91908101906126af565b60048151811061150157611501612fe1565b60200260200101516001600160a01b031663b049473f6040518163ffffffff1660e01b815260040160606040518083038186803b15801561154157600080fd5b505afa158015611555573d6000803e3d6000fd5b505050506040513d601f19601f820116820180604052508101906115799190612b0f565b50600380546001600160a01b03191633179055909250905061159b8242612f0b565b60045560058190556008805460028190559060006115b883612fb0565b90915550506003546002546004546005546040516001600160a01b03909416937f472501d19bf75639b2e316cd36f8568b0c3ab943b82a87de3c086c98c1929df9936116079390929091612e7a565b60405180910390a25050505050565b61161e61175d565b151560011415610bef57610bef838383611aa3565b600e548110156105215760008061164a8484611c0a565b91509150600e838154811061166157611661612fe1565b6000918252602080832090910154858352600f825260408084206001600160a01b038916855290925291205581156105115760008381526010602090815260408083206001600160a01b0388168452909152908190209051633833532760e01b815273__ItemsLibrary__________________________916338335327916116f0919086908690600401612e7a565b60006040518083038186803b15801561170857600080fd5b505af415801561171c573d6000803e3d6000fd5b50505050836001600160a01b03167fd594bb9b33d8e7d250dcc95a70d74fbd1e03e16d3e7660f60b12149bd7fd2a128383866040516110c093929190612e7a565b6004546000904210156117705750600190565b6003546001600160a01b03161561179157611789610fb9565b611791610fc3565b50600090565b610fc1600a60006123f7565b60008181526009602090815260408083206001600160a01b03861684529091528120546117cf8461197d565b6106a69190612f64565b60008381526009602090815260408083206001600160a01b03861684529091528120805483929061180b908490612f0b565b9091555050505050565b6005546006541061188457611828611cdb565b611830610fc3565b6003546002546006546007546040516001600160a01b03909416937f23ca0034cf5aad32571b4a492e9598ea8a490e1643a60970e3cdc6933b55e49f9361187a9390929091612e7a565b60405180910390a2565b60055460075410610fc157611897610fb9565b61189f610fc3565b6003546002546006546007546040516001600160a01b03909416937fa58eb6daa3c62c3f883973c4035e5bd3e81aa627c8379de068a7de42df122be29361187a9390929091612e7a565b600054610100900460ff166119045760005460ff1615611908565b303b155b6119245760405162461bcd60e51b815260040161031990612dcc565b600054610100900460ff16158015611946576000805461ffff19166101011790555b6000805462010000600160b01b031916620100006001600160a01b038516021790558015610521576000805461ff00191690555050565b60008060029054906101000a90046001600160a01b03166001600160a01b031663e220ad956040518163ffffffff1660e01b815260040160006040518083038186803b1580156119cc57600080fd5b505afa1580156119e0573d6000803e3d6000fd5b505050506040513d6000823e601f3d908101601f19168201604052611a0891908101906126af565b600381518110611a1a57611a1a612fe1565b60200260200101516001600160a01b03166370a08231836040518263ffffffff1660e01b8152600401611a4d9190612bc5565b60206040518083038186803b158015611a6557600080fd5b505afa158015611a79573d6000803e3d6000fd5b505050506040513d601f19601f82011682018060405250810190611a9d9190612aaf565b92915050565b6001600160a01b03831615801590611adf575060025460009081526009602090815260408083206001600160a01b038716845290915290205415155b15610bef5760025460009081526009602090815260408083206001600160a01b03871684529091529020548190811115611b3b575060025460009081526009602090815260408083206001600160a01b03871684529091529020545b60025460009081526009602090815260408083206001600160a01b038816845290915281208054839290611b70908490612f64565b90915550506001600160a01b03831615611bbf5760025460009081526009602090815260408083206001600160a01b038716845290915281208054839290611bb9908490612f0b565b90915550505b600254604080516001600160a01b038088168252861660208201529081018390527f65fbd5e5dd32bea4aeca85bd0be0abf0e489d655dee888a7510d43b06dda2dba906060016110c0565b6000806000600e8054905084108015611c5f5750600e8481548110611c3157611c31612fe1565b6000918252602080832090910154868352600f825260408084206001600160a01b038a168552909252912054105b15611cc657611c6d8561197d565b6000858152600f602090815260408083206001600160a01b038a168452909152902054600e805487908110611ca457611ca4612fe1565b9060005260206000200154611cb99190612f64565b611cc39190612f45565b90505b80611ccf611ce3565b92509250509250929050565b610fb9611dfd565b60008060029054906101000a90046001600160a01b03166001600160a01b031663e220ad956040518163ffffffff1660e01b815260040160006040518083038186803b158015611d3257600080fd5b505afa158015611d46573d6000803e3d6000fd5b505050506040513d6000823e601f3d908101601f19168201604052611d6e91908101906126af565b600381518110611d8057611d80612fe1565b60200260200101516001600160a01b03166318160ddd6040518163ffffffff1660e01b815260040160206040518083038186803b158015611dc057600080fd5b505afa158015611dd4573d6000803e3d6000fd5b505050506040513d601f19601f82011682018060405250810190611df89190612aaf565b905090565b600080611e08611ea2565b9050600073__UintLibrary___________________________63d86b7a60836040518263ffffffff1660e01b8152600401611e439190612c7e565b60006040518083038186803b158015611e5b57600080fd5b505af4158015611e6f573d6000803e3d6000fd5b505050506040513d6000823e601f3d908101601f19168201604052611e97919081019061286a565b9050610bef81611ff1565b600a546060906000906001600160401b03811115611ec257611ec2612ff7565b604051908082528060200260200182016040528015611eeb578160200160208202803683370190505b50905060005b600a54811015611feb5773__Library_______________________________63caa8f589600a8381548110611f2857611f28612fe1565b906000526020600020016040518263ffffffff1660e01b8152600401611f4e9190612d24565b60006040518083038186803b158015611f6657600080fd5b505af4158015611f7a573d6000803e3d6000fd5b505050506040513d6000823e601f3d908101601f19168201604052611fa2919081019061286a565b600081518110611fb457611fb4612fe1565b6020026020010151828281518110611fce57611fce612fe1565b602090810291909101015280611fe381612fb0565b915050611ef1565b50919050565b60008080838161200081612fb0565b94508151811061201257612012612fe1565b60200260200101519050600084848061202a90612fb0565b95508151811061203c5761203c612fe1565b60200260200101519050600085858061205490612fb0565b96508151811061206657612066612fe1565b602002602001015190508493508082846120809190612f45565b61208a9087612f0b565b6120949190612f0b565b865110156120f85760405162461bcd60e51b815260206004820152602b60248201527f54686572652061726520736f6d65206d697373696e67206665657320616e642f60448201526a6f722073657474696e677360a81b6064820152608401610319565b835b6121048385612f45565b61210e9086612f0b565b8110156121ed576000836121228884612f64565b61212c9190612f23565b600b5490915081101561218c57600b818154811061214c5761214c612fe1565b9060005260206000200188838151811061216857612168612fe1565b602090810291909101810151825460018101845560009384529190922001556121da565b600b60405180602001604052808a85815181106121ab576121ab612fe1565b6020908102919091018101519091528254600181810185556000948552919093206121d893019190612415565b505b50806121e581612fb0565b9150506120fa565b506121f88284612f45565b6122029085612f0b565b9350835b6122108286612f0b565b8110156122b957600c546122248683612f64565b10156122735786818151811061223c5761223c612fe1565b6020026020010151600c86836122529190612f64565b8154811061226257612262612fe1565b6000918252602090912001556122a7565b600c87828151811061228757612287612fe1565b602090810291909101810151825460018101845560009384529190922001555b806122b181612fb0565b915050612206565b506122c48185612f0b565b9350835b86518110156111dd57600d546122de8683612f64565b101561232d578681815181106122f6576122f6612fe1565b6020026020010151600d868361230c9190612f64565b8154811061231c5761231c612fe1565b600091825260209091200155612361565b600d87828151811061234157612341612fe1565b602090810291909101810151825460018101845560009384529190922001555b8061236b81612fb0565b9150506122c8565b82805461237f90612f7b565b90600052602060002090601f0160209004810192826123a157600085556123e7565b82601f106123ba57805160ff19168380011785556123e7565b828001600101855582156123e7579182015b828111156123e75782518255916020019190600101906123cc565b506123f392915061244f565b5090565b50805460008255906000526020600020908101906108a49190612464565b8280548282559060005260206000209081019282156123e757916020028201828111156123e75782518255916020019190600101906123cc565b5b808211156123f35760008155600101612450565b808211156123f35760006124788282612481565b50600101612464565b50805461248d90612f7b565b6000825580601f1061249d575050565b601f0160209004906000526020600020908101906108a4919061244f565b8035610c2e8161300d565b600082601f8301126124d757600080fd5b813560206124ec6124e783612ee8565b612eb8565b80838252828201915082860187848660051b890101111561250c57600080fd5b60005b8581101561252b5781358452928401929084019060010161250f565b5090979650505050505050565b600082601f83011261254957600080fd5b81356001600160401b0381111561256257612562612ff7565b612575601f8201601f1916602001612eb8565b81815284602083860101111561258a57600080fd5b816020850160208301376000918101602001919091529392505050565b600080604083850312156125ba57600080fd5b82356125c58161300d565b915060208301356125d58161300d565b809150509250929050565b6000806000606084860312156125f557600080fd5b83356126008161300d565b925060208401356126108161300d565b929592945050506040919091013590565b6000806040838503121561263457600080fd5b823561263f8161300d565b946020939093013593505050565b6000806000806080858703121561266357600080fd5b843561266e8161300d565b9350602085013592506040850135915060608501356001600160401b0381111561269757600080fd5b6126a387828801612538565b91505092959194509250565b600060208083850312156126c257600080fd5b82516001600160401b038111156126d857600080fd5b8301601f810185136126e957600080fd5b80516126f76124e782612ee8565b80828252848201915084840188868560051b870101111561271757600080fd5b600094505b8385101561274357805161272f8161300d565b83526001949094019391850191850161271c565b50979650505050505050565b600080600080600060a0868803121561276757600080fd5b6001600160401b03863581101561277d57600080fd5b8635870188601f82011261279057600080fd5b803560206127a06124e783612ee8565b8083825282820191508285018d848660051b88010111156127c057600080fd5b60005b858110156127fa5787823511156127d957600080fd5b6127e88f8684358a01016124c6565b845292840192908401906001016127c3565b50909a5050508901359150508181111561281357600080fd5b61281f89828a016124c6565b95505060408701358181111561283457600080fd5b61284089828a016124c6565b94505050612850606087016124bb565b915061285e608087016124bb565b90509295509295909350565b6000602080838503121561287d57600080fd5b82516001600160401b0381111561289357600080fd5b8301601f810185136128a457600080fd5b80516128b26124e782612ee8565b80828252848201915084840188868560051b87010111156128d257600080fd5b600094505b838510156127435780518352600194909401939185019185016128d7565b6000602080838503121561290857600080fd5b82356001600160401b038082111561291f57600080fd5b818501915085601f83011261293357600080fd5b81356129416124e782612ee8565b80828252858201915085850189878560051b880101111561296157600080fd5b6000805b8581101561299c5782358781111561297b578283fd5b6129898d8b838c0101612538565b8652509388019391880191600101612965565b50919a9950505050505050505050565b600060208083850312156129bf57600080fd5b82516001600160401b038111156129d557600080fd5b8301601f810185136129e657600080fd5b80516129f46124e782612ee8565b80828252848201915084840188868560061b8701011115612a1457600080fd5b60009450845b84811015612a6b57604080838c031215612a32578687fd5b612a3a612e90565b8351612a458161300d565b815283890151612a5481613022565b818a01528552938701939190910190600101612a1a565b509098975050505050505050565b600060208284031215612a8b57600080fd5b81356106a681613022565b600060208284031215612aa857600080fd5b5035919050565b600060208284031215612ac157600080fd5b5051919050565b60008060408385031215612adb57600080fd5b8235915060208301356125d58161300d565b60008060408385031215612b0057600080fd5b50508035926020909101359150565b600080600060608486031215612b2457600080fd5b8351925060208401519150604084015190509250925092565b600081518084526020808501945080840160005b83811015612b6d57815187529582019590820190600101612b51565b509495945050505050565b6000815180845260005b81811015612b9e57602081850181015186830182015201612b82565b81811115612bb0576000602083870101525b50601f01601f19169290920160200192915050565b6001600160a01b0391909116815260200190565b6001600160a01b0392831681529116602082015260400190565b6000606082016060835280865180835260808501915060808160051b8601019250602080890160005b83811015612c4a57607f19888703018552612c38868351612b3d565b95509382019390820190600101612c1c565b505085840381870152505050612c608186612b3d565b90508281036040840152612c748185612b3d565b9695505050505050565b6020808252825182820181905260009190848201906040850190845b81811015612cb657835183529284019291840191600101612c9a565b50909695505050505050565b6000602080830181845280855180835260408601915060408160051b870101925083870160005b82811015612d1757603f19888603018452612d05858351612b78565b94509285019290850190600101612ce9565b5092979650505050505050565b600060208083526000845481600182811c915080831680612d4657607f831692505b858310811415612d6457634e487b7160e01b85526022600452602485fd5b878601838152602001818015612d815760018114612d9257612dbd565b60ff19861682528782019650612dbd565b60008b81526020902060005b86811015612db757815484820152908501908901612d9e565b83019750505b50949998505050505050505050565b6020808252602e908201527f496e697469616c697a61626c653a20636f6e747261637420697320616c72656160408201526d191e481a5b9a5d1a585b1a5e995960921b606082015260800190565b888152602081018890526001600160a01b03878116604083015286151560608301528516608082015283151560a082015261010060c08201819052600090612e6483820186612b78565b9150508260e08301529998505050505050505050565b9283526020830191909152604082015260600190565b604080519081016001600160401b0381118282101715612eb257612eb2612ff7565b60405290565b604051601f8201601f191681016001600160401b0381118282101715612ee057612ee0612ff7565b604052919050565b60006001600160401b03821115612f0157612f01612ff7565b5060051b60200190565b60008219821115612f1e57612f1e612fcb565b500190565b600082612f4057634e487b7160e01b600052601260045260246000fd5b500490565b6000816000190483118215151615612f5f57612f5f612fcb565b500290565b600082821015612f7657612f76612fcb565b500390565b600181811c90821680612f8f57607f821691505b60208210811415611feb57634e487b7160e01b600052602260045260246000fd5b6000600019821415612fc457612fc4612fcb565b5060010190565b634e487b7160e01b600052601160045260246000fd5b634e487b7160e01b600052603260045260246000fd5b634e487b7160e01b600052604160045260246000fd5b6001600160a01b03811681146108a457600080fd5b80151581146108a457600080fdfea2646970667358221220e33cc6004ad5f71b13507a047b9c3c6b6012cc971e380d955a7d0fd55ce0a75d64736f6c63430008070033",
  "immutableReferences": {},
  "source": "// SPDX-License-Identifier: GPL-3.0\r\n\r\npragma solidity 0.8.7;\r\n\r\n/**\r\n Treasury receives all the payments and assigns dividends to token holders.\r\n Public Certificate Pool contract can ask for its owners to eb refunded even if they do not own tokens.\r\n\r\n First dividends must be assigned to an account and then the account owner can withdraw the funds.\r\n Both actions must be triggered by the account owner.\r\n\r\n  Events : \r\n    - New Prices Added : list of prices\r\n    - Payment recieved : payer, amount, new total aggregated contract amount\r\n    - Refund : who, amount, among how many\r\n    - Assign Dividends : who, amount (number of tokens), among how many (total supply)\r\n    - Withdraw : who, how much\r\n */\r\n\r\nimport \"../Interfaces/ITreasury.sol\";\r\nimport \"../Libraries/UintLibrary.sol\";\r\nimport \"../Libraries/ItemsLibrary.sol\";\r\nimport \"../Libraries/Library.sol\";\r\nimport \"../Base/StdPropositionBaseContract.sol\";\r\nimport \"@openzeppelin/contracts-upgradeable/token/ERC20/IERC20Upgradeable.sol\";\r\nimport \"../Base/CreditorBaseContract.sol\";\r\nimport \"../Interfaces/IPayments.sol\";\r\n\r\n\r\ncontract Treasury is ITreasury, StdPropositionBaseContract, CreditorBaseContract{\r\n    using Library for *;\r\n    using UintLibrary for *;\r\n    using ItemsLibrary for *;\r\n\r\n    // EVENTS /////////////////////////////////////////\r\n    event _NewFees(uint[][] Prices);\r\n    event _Pay(address indexed Payer, uint Amount, uint AggregatedAmount, uint256 tokenContractId);\r\n    event _AssignDividend(address indexed Recipient, uint Amount, uint TotalSupply, uint256 tokenContractId);\r\n    event _Withdraw(address indexed Recipient, uint Amount, uint256 tokenContractId);\r\n\r\n    // DATA /////////////////////////////////////////\r\n    // prices parameters\r\n    uint256[][] private _Fees;\r\n    uint256[] private _TransferFees;\r\n    uint256[] private _OfferSettings;\r\n\r\n    // last amount at which dividends where assigned for each token owner\r\n    uint256[] private _AggregatedDividendAmount;\r\n    mapping(uint256 => mapping(address => uint256)) private _lastAssigned;\r\n\r\n    // dividends per token owner\r\n    mapping(uint256 => mapping(address => ItemsLibrary._BalanceStruct)) private _balances;\r\n\r\n    // MODIFIERS /////////////////////////////////////////\r\n    \r\n    // CONSTRUCTOR /////////////////////////////////////////\r\n    function Treasury_init(uint256[][] memory Fees, uint256[] memory TransferFees, uint256[] memory OfferSettings, address managerContractAddress, address chairPerson) public initializer \r\n    {\r\n        super.StdPropositionBaseContract_init(chairPerson, managerContractAddress);\r\n\r\n        uint256 numberOfTokens = Fees.length;\r\n        uint256 FeesPerToken = Fees[0].length;\r\n        uint256 numberOfTransferFees = TransferFees.length;\r\n        uint256 numberOfSettings = OfferSettings.length;\r\n\r\n        uint256[] memory Settings = new uint256[]((numberOfTokens * FeesPerToken) + numberOfTransferFees + numberOfSettings);\r\n\r\n\r\n        //InternalupdateSettings(Fees, TransferFees, OfferSettings);\r\n    }\r\n\r\n    // GOVERNANCE /////////////////////////////////////////\r\n    function checkProposition(bytes[] memory NewValues) internal override \r\n    {\r\n        require(NewValues.length >= 3, \"Missing Settings\");\r\n    }\r\n\r\n    /*function UpdateAll() internal override\r\n    {\r\n        uint256 count;\r\n        bytes32[] memory ProposedNewValues = PropositionsToBytes32();\r\n        uint256 numberOfTokens = UintLibrary.Bytes32ToUint(ProposedNewValues[count++]);\r\n        uint256 FeesPerToken = UintLibrary.Bytes32ToUint(ProposedNewValues[count++]);\r\n        uint256 numberOfTransferFees = UintLibrary.Bytes32ToUint(ProposedNewValues[count++]);\r\n        uint256[][] memory newFees;\r\n        uint256[] memory newTransferFees;\r\n        uint256[] memory newOfferSettings;\r\n\r\n        require(ProposedNewValues.length >= count + (numberOfTokens * FeesPerToken) + numberOfTransferFees, \"There are some missing fees and/or settings\");\r\n\r\n        for (uint256 i=count; i < (numberOfTokens * FeesPerToken) + count; i++) {\r\n            uint256 paymentTokenID = (i - count) / FeesPerToken;\r\n            if(paymentTokenID < newFees.length) newFees[paymentTokenID].push(UintLibrary.Bytes32ToUint(ProposedNewValues[i]));\r\n            else newFees.push([UintLibrary.Bytes32ToUint(ProposedNewValues[i])]);\r\n        }\r\n\r\n        for (uint256 j=(numberOfTokens * FeesPerToken) + count; j < (numberOfTokens * FeesPerToken) + count + numberOfTransferFees; j++) {\r\n            newTransferFees[j - ((numberOfTokens * FeesPerToken) + count)] = UintLibrary.Bytes32ToUint(ProposedNewValues[j]);\r\n        }\r\n\r\n        for (uint256 k=(numberOfTokens * FeesPerToken) + count + numberOfTransferFees; k < ProposedNewValues.length; k++) {\r\n            newOfferSettings[k - ((numberOfTokens * FeesPerToken) + count + numberOfTransferFees)] = UintLibrary.Bytes32ToUint(ProposedNewValues[k]);\r\n        }\r\n\r\n        InternalupdateSettings(newFees, newTransferFees, newOfferSettings);\r\n\r\n        emit _NewFees(newFees);\r\n    }*/\r\n\r\n    function UpdateAll() internal override\r\n    {\r\n        uint256 count;\r\n        bytes32[] memory ProposedNewValues = PropositionsToBytes32();\r\n        uint256[] memory newSettings = UintLibrary.Bytes32ArrayToUintArray(ProposedNewValues);\r\n\r\n        InternalupdateSettings(newSettings);\r\n\r\n        //emit _NewFees(newSettings);\r\n    }\r\n\r\n    /*function InternalupdateSettings(uint256[][] memory Fees, uint256[] memory TransferFees, uint256[] memory OfferSettings) internal\r\n    {\r\n        for (uint i=0; i < Fees.length; i++) {\r\n            if(i < _Fees.length){\r\n                for(uint p=0; p < Fees[i].length; p++){\r\n                    if(p < _Fees[i].length)_Fees[i][p] = Fees[i][p];\r\n                    else _Fees[i].push(Fees[i][p]);\r\n                }\r\n            }\r\n            else {\r\n                _Fees.push(Fees[i]);\r\n            }\r\n        }\r\n        for (uint j=0; j < TransferFees.length; j++) {\r\n            if(j < _TransferFees.length)_TransferFees[j] = TransferFees[j];\r\n            else _TransferFees.push(TransferFees[j]);\r\n        }\r\n        for (uint k=0; k < OfferSettings.length; k++) {\r\n            if(k < _OfferSettings.length)_OfferSettings[k] = OfferSettings[k];\r\n            else _OfferSettings.push(OfferSettings[k]);\r\n        }\r\n    }*/\r\n\r\n    function InternalupdateSettings(uint256[] memory Settings) internal\r\n    {\r\n        uint256 count;\r\n        uint256 init;\r\n        uint256 numberOfTokens = Settings[count++];\r\n        uint256 FeesPerToken = Settings[count++];\r\n        uint256 numberOfTransferFees = Settings[count++];\r\n\r\n        init = count;\r\n\r\n        require(Settings.length >= count + (numberOfTokens * FeesPerToken) + numberOfTransferFees, \"There are some missing fees and/or settings\");\r\n\r\n        for (uint256 i=init; i < init + (numberOfTokens * FeesPerToken); i++) {\r\n            uint256 paymentTokenID = (i - count) / FeesPerToken;\r\n            if(paymentTokenID < _Fees.length) _Fees[paymentTokenID].push(Settings[i]);\r\n            else _Fees.push([Settings[i]]);\r\n        }\r\n\r\n        init = init + (numberOfTokens * FeesPerToken);\r\n\r\n        for (uint256 j=init; j < init + numberOfTransferFees; j++) {\r\n            if((j - init) < _TransferFees.length)_TransferFees[j - init] = Settings[j];\r\n            else _TransferFees.push(Settings[j]);\r\n        }\r\n\r\n        init = init + numberOfTransferFees;\r\n\r\n        for (uint256 k=init; k < Settings.length; k++) {\r\n            if((k - init) < _OfferSettings.length)_OfferSettings[k - init] = Settings[k];\r\n            else _OfferSettings.push(Settings[k]);\r\n        }\r\n    }\r\n\r\n    // FUNCTIONALITY /////////////////////////////////////////\r\n    function onCreditReceived(address sender, uint256 amount, uint256 paymentTokenID, bytes memory data) internal override\r\n    {\r\n        if(paymentTokenID < _AggregatedDividendAmount.length) _AggregatedDividendAmount[paymentTokenID] += amount;\r\n        else _AggregatedDividendAmount.push(amount);\r\n\r\n        emit _Pay(sender, amount, _AggregatedDividendAmount[paymentTokenID], paymentTokenID);\r\n    }\r\n\r\n    function InternalonTokenBalanceChanged(address from, address to, uint256 amount) internal override\r\n    {\r\n        super.InternalonTokenBalanceChanged(from, to, amount);\r\n        if(address(0) != from) {\r\n            for(uint256 i=0; i < _AggregatedDividendAmount.length; i++){\r\n                InternalAssignDividends(from, i);\r\n            }\r\n        }\r\n        if(address(0) != to) {\r\n            for(uint256 i=0; i < _AggregatedDividendAmount.length; i++){\r\n                InternalAssignDividends(to, i);\r\n            }\r\n        }\r\n    }\r\n\r\n    function InternalAssignDividends(address recipient, uint256 paymentTokenID) internal\r\n    {\r\n        if(paymentTokenID < _AggregatedDividendAmount.length){\r\n            (uint totalOffBalance, uint DividendOffBalance) = sumUpTotalOffBalance(recipient, paymentTokenID);\r\n            _lastAssigned[paymentTokenID][recipient] = _AggregatedDividendAmount[paymentTokenID];\r\n        \r\n            if(totalOffBalance > 0){   \r\n            ItemsLibrary.addBalance(_balances[paymentTokenID][recipient], totalOffBalance, DividendOffBalance);\r\n            emit _AssignDividend(recipient, totalOffBalance, DividendOffBalance, paymentTokenID);\r\n            }\r\n        }  \r\n    }\r\n\r\n    function withdraw(uint amount, uint256 paymentTokenID) external override\r\n    {\r\n        InternalWithdraw(amount, paymentTokenID);\r\n    }\r\n\r\n    function withdrawAll(uint256 paymentTokenID) external override\r\n    {\r\n        uint All = ItemsLibrary.checkFullBalance(_balances[paymentTokenID][msg.sender]);\r\n        InternalWithdraw(All, paymentTokenID);\r\n    }\r\n\r\n    function InternalWithdraw(uint amount, uint256 paymentTokenID) internal \r\n    {\r\n        InternalAssignDividends(msg.sender, paymentTokenID);\r\n        ItemsLibrary.InternalWithdraw(\r\n            _balances[paymentTokenID][msg.sender], \r\n            amount, \r\n            msg.sender, \r\n            true, \r\n            address(IPayments(_managerContract.retrieveTransparentProxies()[uint256(Library.TransparentProxies.Payments)]).retrieveSettings()[paymentTokenID].TokenContract),\r\n            false,\r\n            bytes(\"\"),\r\n            paymentTokenID\r\n        );\r\n\r\n        emit _Withdraw(msg.sender, amount, paymentTokenID);\r\n    }\r\n\r\n    function retrieveLastAssigned(address addr, uint256 paymentTokenID) external override view returns(uint)\r\n    {\r\n        return _lastAssigned[paymentTokenID][addr];\r\n    }\r\n\r\n    function retrieveFullBalance(address addr, uint256 paymentTokenID) external override view returns(uint)\r\n    {\r\n        return ItemsLibrary.checkFullBalance(_balances[paymentTokenID][addr]);\r\n    }\r\n\r\n    function retrieveSettings() external override view returns(uint256[][] memory, uint256[] memory, uint256[] memory)\r\n    {\r\n        return(_Fees, _TransferFees, _OfferSettings);\r\n    }\r\n\r\n    function retrieveAggregatedAmount(uint256 paymentTokenID) external override view returns(uint){\r\n        if(paymentTokenID < _AggregatedDividendAmount.length) return _AggregatedDividendAmount[paymentTokenID];\r\n        else return 0;\r\n    }\r\n\r\n    function sumUpTotal(address addr, uint256 paymentTokenID) internal view returns (uint, uint)\r\n    {\r\n        (uint totalOnBalance, uint commonDividendOnBalance) = sumUpTotalOnBalance(addr, paymentTokenID);\r\n        (uint totalOffBalance, uint DividendOffBalance) = sumUpTotalOffBalance(addr, paymentTokenID);\r\n\r\n        uint total = (totalOnBalance * DividendOffBalance) + (totalOffBalance * commonDividendOnBalance);\r\n        uint CommonDividend = commonDividendOnBalance * DividendOffBalance;\r\n\r\n        return (total, CommonDividend);\r\n    }\r\n\r\n    function sumUpTotalOnBalance(address addr, uint256 paymentTokenID) internal view returns (uint, uint)\r\n    {\r\n        return ItemsLibrary.sumUpTotal(_balances[paymentTokenID][addr]);\r\n    }\r\n\r\n    function sumUpTotalOffBalance(address addr, uint256 paymentTokenID) internal view returns (uint, uint)\r\n    {\r\n        uint total = 0;\r\n\r\n        if(paymentTokenID < _AggregatedDividendAmount.length && \r\n            _lastAssigned[paymentTokenID][addr] < _AggregatedDividendAmount[paymentTokenID])\r\n        {\r\n            total = (_AggregatedDividendAmount[paymentTokenID] - _lastAssigned[paymentTokenID][addr]) * GetTokensBalance(addr);           \r\n        }\r\n\r\n        return (total, totalSupply());\r\n    }\r\n\r\n\r\n}",
  "sourcePath": "C:\\Users\\d-aam\\GitHub\\Originals\\contracts\\MainContracts\\Treasury.sol",
  "compiler": {
    "name": "solc",
    "version": "0.8.7+commit.e28d00a7.Emscripten.clang"
  },
  "schemaVersion": "3.4.3",
  "updatedAt": "2022-03-01T10:52:29.525Z",
  "devdoc": {
    "kind": "dev",
    "methods": {},
    "version": 1
  },
  "userdoc": {
    "kind": "user",
    "methods": {},
    "version": 1
  }
}