{
  "contractName": "Treasury",
  "abi": [
    {
      "anonymous": false,
      "inputs": [
        {
          "indexed": false,
          "internalType": "uint256",
          "name": "Id",
          "type": "uint256"
        },
        {
          "indexed": true,
          "internalType": "address",
          "name": "Proposer",
          "type": "address"
        },
        {
          "indexed": false,
          "internalType": "uint256",
          "name": "Deadline",
          "type": "uint256"
        },
        {
          "indexed": false,
          "internalType": "uint256",
          "name": "Threshold",
          "type": "uint256"
        }
      ],
      "name": "_AddedProposition",
      "type": "event"
    },
    {
      "anonymous": false,
      "inputs": [
        {
          "indexed": true,
          "internalType": "address",
          "name": "Recipient",
          "type": "address"
        },
        {
          "indexed": false,
          "internalType": "uint256",
          "name": "Amount",
          "type": "uint256"
        },
        {
          "indexed": false,
          "internalType": "uint256",
          "name": "TotalSupply",
          "type": "uint256"
        }
      ],
      "name": "_AssignDividend",
      "type": "event"
    },
    {
      "anonymous": false,
      "inputs": [
        {
          "indexed": false,
          "internalType": "uint256",
          "name": "Id",
          "type": "uint256"
        },
        {
          "indexed": true,
          "internalType": "address",
          "name": "Proposer",
          "type": "address"
        }
      ],
      "name": "_CancelledProposition",
      "type": "event"
    },
    {
      "anonymous": false,
      "inputs": [
        {
          "indexed": false,
          "internalType": "uint256[]",
          "name": "Prices",
          "type": "uint256[]"
        }
      ],
      "name": "_NewPrices",
      "type": "event"
    },
    {
      "anonymous": false,
      "inputs": [
        {
          "indexed": true,
          "internalType": "address",
          "name": "Payer",
          "type": "address"
        },
        {
          "indexed": false,
          "internalType": "uint256",
          "name": "Amount",
          "type": "uint256"
        },
        {
          "indexed": false,
          "internalType": "uint256",
          "name": "AggregatedAmount",
          "type": "uint256"
        }
      ],
      "name": "_Pay",
      "type": "event"
    },
    {
      "anonymous": false,
      "inputs": [
        {
          "indexed": false,
          "internalType": "uint256",
          "name": "Id",
          "type": "uint256"
        },
        {
          "indexed": true,
          "internalType": "address",
          "name": "Proposer",
          "type": "address"
        },
        {
          "indexed": false,
          "internalType": "uint256",
          "name": "VotesFor",
          "type": "uint256"
        },
        {
          "indexed": false,
          "internalType": "uint256",
          "name": "VotesAgainst",
          "type": "uint256"
        }
      ],
      "name": "_PropositionApproved",
      "type": "event"
    },
    {
      "anonymous": false,
      "inputs": [
        {
          "indexed": false,
          "internalType": "uint256",
          "name": "Id",
          "type": "uint256"
        },
        {
          "indexed": true,
          "internalType": "address",
          "name": "Proposer",
          "type": "address"
        },
        {
          "indexed": false,
          "internalType": "uint256",
          "name": "VotesFor",
          "type": "uint256"
        },
        {
          "indexed": false,
          "internalType": "uint256",
          "name": "VotesAgainst",
          "type": "uint256"
        }
      ],
      "name": "_PropositionRejected",
      "type": "event"
    },
    {
      "anonymous": false,
      "inputs": [
        {
          "indexed": false,
          "internalType": "uint256",
          "name": "Id",
          "type": "uint256"
        },
        {
          "indexed": true,
          "internalType": "address",
          "name": "Voter",
          "type": "address"
        },
        {
          "indexed": false,
          "internalType": "bool",
          "name": "Vote",
          "type": "bool"
        },
        {
          "indexed": false,
          "internalType": "uint256",
          "name": "AmountTokens",
          "type": "uint256"
        }
      ],
      "name": "_PropositionVote",
      "type": "event"
    },
    {
      "anonymous": false,
      "inputs": [
        {
          "indexed": true,
          "internalType": "uint256",
          "name": "Id",
          "type": "uint256"
        },
        {
          "indexed": false,
          "internalType": "address",
          "name": "From",
          "type": "address"
        },
        {
          "indexed": false,
          "internalType": "address",
          "name": "To",
          "type": "address"
        },
        {
          "indexed": false,
          "internalType": "uint256",
          "name": "Amount",
          "type": "uint256"
        }
      ],
      "name": "_UsedTokensTransfered",
      "type": "event"
    },
    {
      "anonymous": false,
      "inputs": [
        {
          "indexed": true,
          "internalType": "address",
          "name": "Recipient",
          "type": "address"
        },
        {
          "indexed": false,
          "internalType": "uint256",
          "name": "Amount",
          "type": "uint256"
        }
      ],
      "name": "_Withdraw",
      "type": "event"
    },
    {
      "inputs": [
        {
          "internalType": "address",
          "name": "sender",
          "type": "address"
        },
        {
          "internalType": "uint256",
          "name": "amount",
          "type": "uint256"
        },
        {
          "internalType": "bytes",
          "name": "data",
          "type": "bytes"
        }
      ],
      "name": "CreditReceived",
      "outputs": [],
      "stateMutability": "nonpayable",
      "type": "function"
    },
    {
      "inputs": [
        {
          "internalType": "address",
          "name": "chairPerson",
          "type": "address"
        },
        {
          "internalType": "address",
          "name": "managerContractAddress",
          "type": "address"
        }
      ],
      "name": "StdPropositionBaseContract_init",
      "outputs": [],
      "stateMutability": "nonpayable",
      "type": "function"
    },
    {
      "inputs": [],
      "name": "cancelProposition",
      "outputs": [],
      "stateMutability": "nonpayable",
      "type": "function"
    },
    {
      "inputs": [
        {
          "internalType": "address",
          "name": "from",
          "type": "address"
        },
        {
          "internalType": "address",
          "name": "to",
          "type": "address"
        },
        {
          "internalType": "uint256",
          "name": "amount",
          "type": "uint256"
        }
      ],
      "name": "onTokenBalanceChanged",
      "outputs": [],
      "stateMutability": "nonpayable",
      "type": "function"
    },
    {
      "inputs": [],
      "name": "retrieveChairPerson",
      "outputs": [
        {
          "internalType": "address",
          "name": "",
          "type": "address"
        }
      ],
      "stateMutability": "view",
      "type": "function"
    },
    {
      "inputs": [],
      "name": "retrieveManagerContract",
      "outputs": [
        {
          "internalType": "address",
          "name": "",
          "type": "address"
        }
      ],
      "stateMutability": "view",
      "type": "function"
    },
    {
      "inputs": [],
      "name": "retrieveNextPropId",
      "outputs": [
        {
          "internalType": "uint256",
          "name": "",
          "type": "uint256"
        }
      ],
      "stateMutability": "view",
      "type": "function"
    },
    {
      "inputs": [],
      "name": "retrieveProposition",
      "outputs": [
        {
          "internalType": "bytes[]",
          "name": "",
          "type": "bytes[]"
        }
      ],
      "stateMutability": "view",
      "type": "function"
    },
    {
      "inputs": [],
      "name": "retrievePropositionStatus",
      "outputs": [
        {
          "internalType": "address",
          "name": "",
          "type": "address"
        },
        {
          "internalType": "uint256",
          "name": "",
          "type": "uint256"
        },
        {
          "internalType": "uint256",
          "name": "",
          "type": "uint256"
        },
        {
          "internalType": "uint256",
          "name": "",
          "type": "uint256"
        },
        {
          "internalType": "uint256",
          "name": "",
          "type": "uint256"
        }
      ],
      "stateMutability": "view",
      "type": "function"
    },
    {
      "inputs": [
        {
          "internalType": "uint256",
          "name": "PropId",
          "type": "uint256"
        },
        {
          "internalType": "address",
          "name": "voter",
          "type": "address"
        }
      ],
      "name": "retrieveVotesForVoter",
      "outputs": [
        {
          "internalType": "uint256",
          "name": "",
          "type": "uint256"
        }
      ],
      "stateMutability": "view",
      "type": "function"
    },
    {
      "inputs": [
        {
          "internalType": "bytes[]",
          "name": "NewValues",
          "type": "bytes[]"
        }
      ],
      "name": "sendProposition",
      "outputs": [],
      "stateMutability": "nonpayable",
      "type": "function"
    },
    {
      "inputs": [
        {
          "internalType": "bool",
          "name": "vote",
          "type": "bool"
        }
      ],
      "name": "voteProposition",
      "outputs": [],
      "stateMutability": "nonpayable",
      "type": "function"
    },
    {
      "inputs": [
        {
          "internalType": "uint256[]",
          "name": "Prices",
          "type": "uint256[]"
        },
        {
          "internalType": "address",
          "name": "managerContractAddress",
          "type": "address"
        },
        {
          "internalType": "address",
          "name": "chairPerson",
          "type": "address"
        }
      ],
      "name": "Treasury_init",
      "outputs": [],
      "stateMutability": "nonpayable",
      "type": "function"
    },
    {
      "inputs": [
        {
          "internalType": "uint256",
          "name": "amount",
          "type": "uint256"
        }
      ],
      "name": "withdraw",
      "outputs": [],
      "stateMutability": "nonpayable",
      "type": "function"
    },
    {
      "inputs": [],
      "name": "withdrawAll",
      "outputs": [],
      "stateMutability": "nonpayable",
      "type": "function"
    },
    {
      "inputs": [
        {
          "internalType": "address",
          "name": "addr",
          "type": "address"
        }
      ],
      "name": "retrieveLastAssigned",
      "outputs": [
        {
          "internalType": "uint256",
          "name": "",
          "type": "uint256"
        }
      ],
      "stateMutability": "view",
      "type": "function"
    },
    {
      "inputs": [
        {
          "internalType": "address",
          "name": "addr",
          "type": "address"
        }
      ],
      "name": "retrieveFullBalance",
      "outputs": [
        {
          "internalType": "uint256",
          "name": "",
          "type": "uint256"
        }
      ],
      "stateMutability": "view",
      "type": "function"
    },
    {
      "inputs": [],
      "name": "retrieveSettings",
      "outputs": [
        {
          "internalType": "uint256[]",
          "name": "",
          "type": "uint256[]"
        }
      ],
      "stateMutability": "view",
      "type": "function"
    },
    {
      "inputs": [],
      "name": "retrieveAggregatedAmount",
      "outputs": [
        {
          "internalType": "uint256",
          "name": "",
          "type": "uint256"
        }
      ],
      "stateMutability": "view",
      "type": "function"
    }
  ],
  "bytecode": "0x608060405234801561001057600080fd5b5061275b806100206000396000f3fe608060405234801561001057600080fd5b50600436106100f15760003560e01c806304cc67a9146100f65780632e1a7d4d1461010d5780632f02a3ec146101225780633c7df55d146101355780634044adb21461014857806355457ee91461017e5780635b362e8414610186578063840f6d17146101a6578063853828b6146101e757806391f91671146101ef578063a93316f514610202578063b049473f14610217578063b1fd23591461022c578063d5920d491461023f578063d6184d1514610247578063db85bc4d14610270578063e15aa3a614610281578063e3e956a814610294578063e83988ff146102a7575b600080fd5b6008545b6040519081526020015b60405180910390f35b61012061011b3660046122d5565b6102ba565b005b610120610130366004611fbb565b6102c6565b610120610143366004611f7a565b6104b6565b6100fa610156366004612307565b60009182526009602090815260408084206001600160a01b0393909316845291905290205490565b6101206105ce565b6000546201000090046001600160a01b03165b60405161010491906123a7565b600354600454600554600654600754604080516001600160a01b0390961686526020860194909452928401919091526060830152608082015260a001610104565b6101206106a8565b6101206101fd3660046122b3565b610746565b61020a610750565b60405161010491906123d5565b61021f610829565b6040516101049190612437565b61012061023a366004611f41565b610881565b600c546100fa565b6100fa610255366004611f24565b6001600160a01b03166000908152600d602052604090205490565b6001546001600160a01b0316610199565b61012061028f366004612143565b6108ff565b6101206102a23660046121fa565b610970565b6100fa6102b5366004611f24565b6109f7565b6102c381610a99565b50565b33600060029054906101000a90046001600160a01b03166001600160a01b031663e220ad956040518163ffffffff1660e01b815260040160006040518083038186803b15801561031557600080fd5b505afa158015610329573d6000803e3d6000fd5b505050506040513d6000823e601f3d908101601f191682016040526103519190810190612013565b600181518110610363576103636126e4565b60200260200101516001600160a01b0316816001600160a01b0316148061043e5750600060029054906101000a90046001600160a01b03166001600160a01b031663e220ad956040518163ffffffff1660e01b815260040160006040518083038186803b1580156103d357600080fd5b505afa1580156103e7573d6000803e3d6000fd5b505050506040513d6000823e601f3d908101601f1916820160405261040f9190810190612013565b600681518110610421576104216126e4565b60200260200101516001600160a01b0316816001600160a01b0316145b6104a55760405162461bcd60e51b815260206004820152602d60248201527f4974206973206e6f742066726f6d206f6e65206f66207468652063657274696660448201526c69656420636f6e74726163747360981b60648201526084015b60405180910390fd5b6104b0848484610c99565b50505050565b3373__Library_______________________________6337ea306382600060029054906101000a90046001600160a01b03166001600160a01b031663e220ad956040518163ffffffff1660e01b815260040160006040518083038186803b15801561052057600080fd5b505afa158015610534573d6000803e3d6000fd5b505050506040513d6000823e601f3d908101601f1916820160405261055c9190810190612013565b60038151811061056e5761056e6126e4565b60200260200101516040518363ffffffff1660e01b81526004016105939291906123bb565b60006040518083038186803b1580156105ab57600080fd5b505af41580156105bf573d6000803e3d6000fd5b505050506104b0848484610d02565b60016105d981610d3d565b6003546040516337ea306360e01b8152339173__Library_______________________________916337ea30639161061f9185916001600160a01b0316906004016123bb565b60006040518083038186803b15801561063757600080fd5b505af415801561064b573d6000803e3d6000fd5b50505050610657610dc1565b61065f610dcb565b6003546002546040519081526001600160a01b03909116907f1fe8aec10c0a50fa765076161e08c1f961ced69594ff45cf7d559f593afe14799060200160405180910390a25050565b336000908152600e602052604080822090516326162dc360e01b8152600481019190915273__ItemsLibrary__________________________906326162dc39060240160206040518083038186803b15801561070357600080fd5b505af4158015610717573d6000803e3d6000fd5b505050506040513d601f19601f8201168201806040525081019061073b91906122ee565b90506102c381610a99565b6102c33382610df6565b6060600a805480602002602001604051908101604052809291908181526020016000905b828210156108205783829060005260206000200180546107939061267e565b80601f01602080910402602001604051908101604052809291908181526020018280546107bf9061267e565b801561080c5780601f106107e15761010080835404028352916020019161080c565b820191906000526020600020905b8154815290600101906020018083116107ef57829003601f168201915b505050505081526020019060010190610774565b50505050905090565b6060600b80548060200260200160405190810160405280929190818152602001828054801561087757602002820191906000526020600020905b815481526020019060010190808311610863575b5050505050905090565b600054610100900460ff1661089c5760005460ff16156108a0565b303b155b6108bc5760405162461bcd60e51b815260040161049c90612523565b600054610100900460ff161580156108de576000805461ffff19166101011790555b6108e88383610f0e565b80156108fa576000805461ff00191690555b505050565b610907610faa565b60005b815181101561096c57600a828281518110610927576109276126e4565b602090810291909101810151825460018101845560009384529282902081516109599491909101929190910190611d97565b5080610964816126b3565b91505061090a565b5050565b600054610100900460ff1661098b5760005460ff161561098f565b303b155b6109ab5760405162461bcd60e51b815260040161049c90612523565b600054610100900460ff161580156109cd576000805461ffff19166101011790555b6109d78284610881565b6109e0846112f9565b80156104b0576000805461ff001916905550505050565b6001600160a01b0381166000908152600e602052604080822090516326162dc360e01b8152600481019190915273__ItemsLibrary__________________________906326162dc39060240160206040518083038186803b158015610a5b57600080fd5b505af4158015610a6f573d6000803e3d6000fd5b505050506040513d601f19601f82011682018060405250810190610a9391906122ee565b92915050565b610aa233611393565b336000818152600e60205260408082208254825163e220ad9560e01b8152925173__ItemsLibrary__________________________9563a86af8fc95939488949193600193620100009091046001600160a01b03169263e220ad959260048082019391829003018186803b158015610b1957600080fd5b505afa158015610b2d573d6000803e3d6000fd5b505050506040513d6000823e601f3d908101601f19168201604052610b559190810190612013565b600681518110610b6757610b676126e4565b60200260200101516001600160a01b031663b049473f6040518163ffffffff1660e01b815260040160006040518083038186803b158015610ba757600080fd5b505afa158015610bbb573d6000803e3d6000fd5b505050506040513d6000823e601f3d908101601f19168201604052610be39190810190612013565b600081518110610bf557610bf56126e4565b60200260200101516000604051806020016040528060008152506040518863ffffffff1660e01b8152600401610c319796959493929190612571565b60006040518083038186803b158015610c4957600080fd5b505af4158015610c5d573d6000803e3d6000fd5b50506040518381523392507f732ea8a38f70c2018ed8dfd6e97bf6381f60102061beae0ac4d9a5abd15a0602915060200160405180910390a250565b81600c6000828254610cab9190612630565b9091555050600c546040516001600160a01b038516917faef711f818f5d24f55a9c2d7da0afa5edd0420e1505ff8e60c344ce836e3e86e91610cf591868252602082015260400190565b60405180910390a2505050565b610d0d83838361148a565b6001600160a01b03831615610d2557610d2583611393565b6001600160a01b038216156108fa576108fa82611393565b8015610d8457610d4b6114a7565b15156001146102c35760405162461bcd60e51b8152602060048201526005602482015264454332352d60d81b604482015260640161049c565b610d8c6114a7565b156102c35760405162461bcd60e51b8152602060048201526005602482015264454332342d60d81b604482015260640161049c565b610dc96114e1565b565b60006002819055600380546001600160a01b0319169055600481905560058190556006819055600755565b6001610e0181610d3d565b60025483906000610e1283836114ed565b905060008111610e4c5760405162461bcd60e51b8152602060048201526005602482015264454332332d60d81b604482015260640161049c565b6000610e5d876002600001546114ed565b90508515610e85578060026004016000828254610e7a9190612630565b90915550610ea09050565b8060026005016000828254610e9a9190612630565b90915550505b600254610eae90888361152a565b60025460408051918252871515602083015281018290526001600160a01b038816907f50f654d58981575c05e369cb129aeacb01e1b036af429380242cfc5d1a4b743f9060600160405180910390a2610f05611566565b50505050505050565b600054610100900460ff16610f295760005460ff1615610f2d565b303b155b610f495760405162461bcd60e51b815260040161049c90612523565b600054610100900460ff16158015610f6b576000805461ffff19166101011790555b610f748261163a565b600180546001600160a01b0319166001600160a01b038516179055600060085580156108fa576000805461ff0019169055505050565b6000610fb581610d3d565b60015433906000906001600160a01b0316821415610fd55750600161110b565b6000610fe0836116ce565b905060008060029054906101000a90046001600160a01b03166001600160a01b031663e220ad956040518163ffffffff1660e01b815260040160006040518083038186803b15801561103157600080fd5b505afa158015611045573d6000803e3d6000fd5b505050506040513d6000823e601f3d908101601f1916820160405261106d9190810190612013565b60048151811061107f5761107f6126e4565b60200260200101516001600160a01b031663b049473f6040518163ffffffff1660e01b815260040160606040518083038186803b1580156110bf57600080fd5b505afa1580156110d3573d6000803e3d6000fd5b505050506040513d601f19601f820116820180604052508101906110f7919061232c565b925050508082111561110857600192505b50505b6001811515146111455760405162461bcd60e51b8152602060048201526005602482015264454332322d60d81b604482015260640161049c565b600080600060029054906101000a90046001600160a01b03166001600160a01b031663e220ad956040518163ffffffff1660e01b815260040160006040518083038186803b15801561119657600080fd5b505afa1580156111aa573d6000803e3d6000fd5b505050506040513d6000823e601f3d908101601f191682016040526111d29190810190612013565b6004815181106111e4576111e46126e4565b60200260200101516001600160a01b031663b049473f6040518163ffffffff1660e01b815260040160606040518083038186803b15801561122457600080fd5b505afa158015611238573d6000803e3d6000fd5b505050506040513d601f19601f8201168201806040525081019061125c919061232c565b50600380546001600160a01b03191633179055909250905061127e8242612630565b600455600581905560088054600281905590600061129b836126b3565b90915550506003546002546004546005546040516001600160a01b03909416937f472501d19bf75639b2e316cd36f8568b0c3ab943b82a87de3c086c98c1929df9936112ea93909290916125c7565b60405180910390a25050505050565b60005b815181101561096c57600b5481101561134d57818181518110611321576113216126e4565b6020026020010151600b828154811061133c5761133c6126e4565b600091825260209091200155611381565b600b828281518110611361576113616126e4565b602090810291909101810151825460018101845560009384529190922001555b8061138b816126b3565b9150506112fc565b60008061139f836117ca565b600c546001600160a01b0386166000908152600d6020526040902055909250905081156108fa576001600160a01b0383166000908152600e6020526040908190209051633833532760e01b815273__ItemsLibrary__________________________916338335327916114199190869086906004016125c7565b60006040518083038186803b15801561143157600080fd5b505af4158015611445573d6000803e3d6000fd5b505060408051858152602081018590526001600160a01b03871693507fe983a49d27e04c64952da756088988cab0349d02969d01e8fecd907888b2e120925001610cf5565b6114926114a7565b1515600114156108fa576108fa838383611841565b6004546000904210156114ba5750600190565b6003546001600160a01b0316156114db576114d3610dc1565b6114db610dcb565b50600090565b610dc9600a6000611e1b565b60008181526009602090815260408083206001600160a01b0386168452909152812054611519846116ce565b6115239190612667565b9392505050565b60008381526009602090815260408083206001600160a01b03861684529091528120805483929061155c908490612630565b9091555050505050565b600554600654106115d5576115796119b1565b611581610dcb565b6003546002546006546007546040516001600160a01b03909416937f23ca0034cf5aad32571b4a492e9598ea8a490e1643a60970e3cdc6933b55e49f936115cb93909290916125c7565b60405180910390a2565b60055460075410610dc9576115e8610dc1565b6115f0610dcb565b6003546002546006546007546040516001600160a01b03909416937fa58eb6daa3c62c3f883973c4035e5bd3e81aa627c8379de068a7de42df122be2936115cb93909290916125c7565b600054610100900460ff166116555760005460ff1615611659565b303b155b6116755760405162461bcd60e51b815260040161049c90612523565b600054610100900460ff16158015611697576000805461ffff19166101011790555b6000805462010000600160b01b031916620100006001600160a01b03851602179055801561096c576000805461ff00191690555050565b60008060029054906101000a90046001600160a01b03166001600160a01b031663e220ad956040518163ffffffff1660e01b815260040160006040518083038186803b15801561171d57600080fd5b505afa158015611731573d6000803e3d6000fd5b505050506040513d6000823e601f3d908101601f191682016040526117599190810190612013565b60038151811061176b5761176b6126e4565b60200260200101516001600160a01b03166370a08231836040518263ffffffff1660e01b815260040161179e91906123a7565b60206040518083038186803b1580156117b657600080fd5b505afa158015610a6f573d6000803e3d6000fd5b600c546001600160a01b0382166000908152600d6020526040812054909182918291111561182e576117fb846116ce565b6001600160a01b0385166000908152600d6020526040902054600c546118219190612667565b61182b9190612648565b90505b806118376119b9565b9250925050915091565b6001600160a01b0383161580159061187d575060025460009081526009602090815260408083206001600160a01b038716845290915290205415155b156108fa5760025460009081526009602090815260408083206001600160a01b038716845290915290205481908111156118d9575060025460009081526009602090815260408083206001600160a01b03871684529091529020545b60025460009081526009602090815260408083206001600160a01b03881684529091528120805483929061190e908490612667565b90915550506001600160a01b0383161561195d5760025460009081526009602090815260408083206001600160a01b038716845290915281208054839290611957908490612630565b90915550505b600254604080516001600160a01b038088168252861660208201529081018390527f65fbd5e5dd32bea4aeca85bd0be0abf0e489d655dee888a7510d43b06dda2dba9060600160405180910390a250505050565b610dc1611ad3565b60008060029054906101000a90046001600160a01b03166001600160a01b031663e220ad956040518163ffffffff1660e01b815260040160006040518083038186803b158015611a0857600080fd5b505afa158015611a1c573d6000803e3d6000fd5b505050506040513d6000823e601f3d908101601f19168201604052611a449190810190612013565b600381518110611a5657611a566126e4565b60200260200101516001600160a01b03166318160ddd6040518163ffffffff1660e01b815260040160206040518083038186803b158015611a9657600080fd5b505afa158015611aaa573d6000803e3d6000fd5b505050506040513d601f19601f82011682018060405250810190611ace91906122ee565b905090565b6000611add611c48565b9050600081516001600160401b03811115611afa57611afa6126fa565b604051908082528060200260200182016040528015611b23578160200160208202803683370190505b50905060005b8251811015611c035773__UintLibrary___________________________630bd4715e848381518110611b5e57611b5e6126e4565b60200260200101516040518263ffffffff1660e01b8152600401611b8491815260200190565b60206040518083038186803b158015611b9c57600080fd5b505af4158015611bb0573d6000803e3d6000fd5b505050506040513d601f19601f82011682018060405250810190611bd491906122ee565b828281518110611be657611be66126e4565b602090810291909101015280611bfb816126b3565b915050611b29565b50611c0d816112f9565b7f58ac3d73cbdfbf2104d2d20803e05d2eb9094831c3a2d07280a4e11962e3ce9881604051611c3c9190612437565b60405180910390a15050565b600a546060906000906001600160401b03811115611c6857611c686126fa565b604051908082528060200260200182016040528015611c91578160200160208202803683370190505b50905060005b600a54811015611d915773__Library_______________________________63caa8f589600a8381548110611cce57611cce6126e4565b906000526020600020016040518263ffffffff1660e01b8152600401611cf4919061247b565b60006040518083038186803b158015611d0c57600080fd5b505af4158015611d20573d6000803e3d6000fd5b505050506040513d6000823e601f3d908101601f19168201604052611d4891908101906120b8565b600081518110611d5a57611d5a6126e4565b6020026020010151828281518110611d7457611d746126e4565b602090810291909101015280611d89816126b3565b915050611c97565b50919050565b828054611da39061267e565b90600052602060002090601f016020900481019282611dc55760008555611e0b565b82601f10611dde57805160ff1916838001178555611e0b565b82800160010185558215611e0b579182015b82811115611e0b578251825591602001919060010190611df0565b50611e17929150611e39565b5090565b50805460008255906000526020600020908101906102c39190611e4e565b5b80821115611e175760008155600101611e3a565b80821115611e17576000611e628282611e6b565b50600101611e4e565b508054611e779061267e565b6000825580601f10611e87575050565b601f0160209004906000526020600020908101906102c39190611e39565b8035611eb081612710565b919050565b600082601f830112611ec657600080fd5b81356001600160401b03811115611edf57611edf6126fa565b611ef2601f8201601f19166020016125dd565b818152846020838601011115611f0757600080fd5b816020850160208301376000918101602001919091529392505050565b600060208284031215611f3657600080fd5b813561152381612710565b60008060408385031215611f5457600080fd5b8235611f5f81612710565b91506020830135611f6f81612710565b809150509250929050565b600080600060608486031215611f8f57600080fd5b8335611f9a81612710565b92506020840135611faa81612710565b929592945050506040919091013590565b600080600060608486031215611fd057600080fd5b8335611fdb81612710565b92506020840135915060408401356001600160401b03811115611ffd57600080fd5b61200986828701611eb5565b9150509250925092565b6000602080838503121561202657600080fd5b82516001600160401b0381111561203c57600080fd5b8301601f8101851361204d57600080fd5b805161206061205b8261260d565b6125dd565b80828252848201915084840188868560051b870101111561208057600080fd5b600094505b838510156120ac57805161209881612710565b835260019490940193918501918501612085565b50979650505050505050565b600060208083850312156120cb57600080fd5b82516001600160401b038111156120e157600080fd5b8301601f810185136120f257600080fd5b805161210061205b8261260d565b80828252848201915084840188868560051b870101111561212057600080fd5b600094505b838510156120ac578051835260019490940193918501918501612125565b6000602080838503121561215657600080fd5b82356001600160401b038082111561216d57600080fd5b818501915085601f83011261218157600080fd5b813561218f61205b8261260d565b80828252858201915085850189878560051b88010111156121af57600080fd5b6000805b858110156121ea578235878111156121c9578283fd5b6121d78d8b838c0101611eb5565b86525093880193918801916001016121b3565b50919a9950505050505050505050565b60008060006060848603121561220f57600080fd5b83356001600160401b0381111561222557600080fd5b8401601f8101861361223657600080fd5b8035602061224661205b8361260d565b8083825282820191508285018a848660051b880101111561226657600080fd5b600095505b8486101561228957803583526001959095019491830191830161226b565b5096506122999050878201611ea5565b94505050506122aa60408501611ea5565b90509250925092565b6000602082840312156122c557600080fd5b8135801515811461152357600080fd5b6000602082840312156122e757600080fd5b5035919050565b60006020828403121561230057600080fd5b5051919050565b6000806040838503121561231a57600080fd5b823591506020830135611f6f81612710565b60008060006060848603121561234157600080fd5b8351925060208401519150604084015190509250925092565b6000815180845260005b8181101561238057602081850181015186830182015201612364565b81811115612392576000602083870101525b50601f01601f19169290920160200192915050565b6001600160a01b0391909116815260200190565b6001600160a01b0392831681529116602082015260400190565b6000602080830181845280855180835260408601915060408160051b870101925083870160005b8281101561242a57603f1988860301845261241885835161235a565b945092850192908501906001016123fc565b5092979650505050505050565b6020808252825182820181905260009190848201906040850190845b8181101561246f57835183529284019291840191600101612453565b50909695505050505050565b600060208083526000845481600182811c91508083168061249d57607f831692505b8583108114156124bb57634e487b7160e01b85526022600452602485fd5b8786018381526020018180156124d857600181146124e957612514565b60ff19861682528782019650612514565b60008b81526020902060005b8681101561250e578154848201529085019089016124f5565b83019750505b50949998505050505050505050565b6020808252602e908201527f496e697469616c697a61626c653a20636f6e747261637420697320616c72656160408201526d191e481a5b9a5d1a585b1a5e995960921b606082015260800190565b878152602081018790526001600160a01b03868116604083015285151560608301528416608082015282151560a082015260e060c082018190526000906125ba9083018461235a565b9998505050505050505050565b9283526020830191909152604082015260600190565b604051601f8201601f191681016001600160401b0381118282101715612605576126056126fa565b604052919050565b60006001600160401b03821115612626576126266126fa565b5060051b60200190565b60008219821115612643576126436126ce565b500190565b6000816000190483118215151615612662576126626126ce565b500290565b600082821015612679576126796126ce565b500390565b600181811c9082168061269257607f821691505b60208210811415611d9157634e487b7160e01b600052602260045260246000fd5b60006000198214156126c7576126c76126ce565b5060010190565b634e487b7160e01b600052601160045260246000fd5b634e487b7160e01b600052603260045260246000fd5b634e487b7160e01b600052604160045260246000fd5b6001600160a01b03811681146102c357600080fdfea26469706673582212202a4fdca865327a68fa73bd68c2ac04bda21994f8933ec0294eebc042881d88e264736f6c63430008070033",
  "immutableReferences": {},
  "source": "// SPDX-License-Identifier: GPL-3.0\r\n\r\npragma solidity 0.8.7;\r\n\r\n/**\r\n Treasury receives all the payments and assigns dividends to token holders.\r\n Public Certificate Pool contract can ask for its owners to eb refunded even if they do not own tokens.\r\n\r\n First dividends must be assigned to an account and then the account owner can withdraw the funds.\r\n Both actions must be triggered by the account owner.\r\n\r\n  Events : \r\n    - New Prices Added : list of prices\r\n    - Payment recieved : payer, amount, new total aggregated contract amount\r\n    - Refund : who, amount, among how many\r\n    - Assign Dividends : who, amount (number of tokens), among how many (total supply)\r\n    - Withdraw : who, how much\r\n */\r\n\r\nimport \"../Interfaces/ITreasury.sol\";\r\nimport \"../Libraries/UintLibrary.sol\";\r\nimport \"../Libraries/ItemsLibrary.sol\";\r\nimport \"../Libraries/Library.sol\";\r\nimport \"../Base/StdPropositionBaseContract.sol\";\r\nimport \"@openzeppelin/contracts-upgradeable/token/ERC20/IERC20Upgradeable.sol\";\r\nimport \"../Base/CreditorBaseContract.sol\";\r\nimport \"../Interfaces/IPayments.sol\";\r\n\r\n\r\ncontract Treasury is ITreasury, StdPropositionBaseContract, CreditorBaseContract{\r\n    using Library for *;\r\n    using UintLibrary for *;\r\n    using ItemsLibrary for *;\r\n\r\n    // EVENTS /////////////////////////////////////////\r\n    event _NewPrices(uint[] Prices);\r\n    event _Pay(address indexed Payer, uint Amount, uint AggregatedAmount);\r\n    event _AssignDividend(address indexed Recipient, uint Amount, uint TotalSupply);\r\n    event _Withdraw(address indexed Recipient, uint Amount);\r\n\r\n    // DATA /////////////////////////////////////////\r\n    // prices parameters usd\r\n    uint256[] private _Prices;\r\n\r\n    // last amount at which dividends where assigned for each token owner\r\n    uint256 private _AggregatedDividendAmount;\r\n    mapping(address => uint256) private _lastAssigned;\r\n\r\n    // dividends per token owner\r\n    mapping(address => ItemsLibrary._BalanceStruct) private _balances;\r\n\r\n    // MODIFIERS /////////////////////////////////////////\r\n    \r\n    // CONSTRUCTOR /////////////////////////////////////////\r\n    function Treasury_init(uint256[] memory Prices, address managerContractAddress, address chairPerson) public initializer \r\n    {\r\n        super.StdPropositionBaseContract_init(chairPerson, managerContractAddress);\r\n        InternalupdatePrices(Prices);\r\n    }\r\n\r\n    // GOVERNANCE /////////////////////////////////////////\r\n    function checkProposition(bytes[] memory NewValues) internal override \r\n    {}\r\n\r\n    function UpdateAll() internal override\r\n    {\r\n        bytes32[] memory ProposedNewValues = PropositionsToBytes32();\r\n        uint256[] memory newPrices = new uint256[](ProposedNewValues.length);\r\n\r\n        for (uint i=0; i < ProposedNewValues.length; i++) {\r\n            newPrices[i] = UintLibrary.Bytes32ToUint(ProposedNewValues[i]);\r\n        }\r\n\r\n        InternalupdatePrices(newPrices);\r\n\r\n        emit _NewPrices(newPrices);\r\n    }\r\n\r\n    function InternalupdatePrices(uint256[] memory Prices) internal\r\n    {\r\n        for (uint i=0; i < Prices.length; i++) {\r\n            if(i < _Prices.length)_Prices[i] = Prices[i];\r\n            else _Prices.push(Prices[i]);\r\n        }\r\n    }\r\n\r\n    // FUNCTIONALITY /////////////////////////////////////////\r\n    function onCreditReceived(address sender, uint256 amount, bytes memory data) internal override\r\n    {\r\n        _AggregatedDividendAmount += amount;\r\n\r\n        emit _Pay(sender, amount, _AggregatedDividendAmount);\r\n    }\r\n\r\n    function InternalonTokenBalanceChanged(address from, address to, uint256 amount) internal override\r\n    {\r\n        super.InternalonTokenBalanceChanged(from, to, amount);\r\n        if(address(0) != from) InternalAssignDividends(from);\r\n        if(address(0) != to) InternalAssignDividends(to);\r\n    }\r\n\r\n    function InternalAssignDividends(address recipient) internal\r\n    {\r\n        (uint totalOffBalance, uint DividendOffBalance) = sumUpTotalOffBalance(recipient);\r\n        _lastAssigned[recipient] = _AggregatedDividendAmount;\r\n        \r\n        if(totalOffBalance > 0){   \r\n           ItemsLibrary.addBalance(_balances[recipient], totalOffBalance, DividendOffBalance);\r\n           emit _AssignDividend(recipient, totalOffBalance, DividendOffBalance);\r\n        }\r\n    }\r\n\r\n    function withdraw(uint amount) external \r\n    override\r\n    {\r\n        InternalWithdraw(amount);\r\n    }\r\n\r\n    function withdrawAll() external override\r\n    {\r\n        uint All = ItemsLibrary.checkFullBalance(_balances[msg.sender]);\r\n        InternalWithdraw(All);\r\n    }\r\n\r\n    function InternalWithdraw(uint amount) internal \r\n    {\r\n        InternalAssignDividends(msg.sender);\r\n        ItemsLibrary.InternalWithdraw(\r\n            _balances[msg.sender], \r\n            amount, \r\n            msg.sender, \r\n            true, \r\n            IPayments(_managerContract.retrieveTransparentProxies()[uint256(Library.TransparentProxies.Payments)]).retrieveSettings()[0],\r\n            false,\r\n            bytes(\"\")\r\n        );\r\n\r\n        emit _Withdraw(msg.sender, amount);\r\n    }\r\n\r\n    function retrieveLastAssigned(address addr) external override view returns(uint)\r\n    {\r\n        return _lastAssigned[addr];\r\n    }\r\n\r\n    function retrieveFullBalance(address addr) external override view returns(uint)\r\n    {\r\n        return ItemsLibrary.checkFullBalance(_balances[addr]);\r\n    }\r\n\r\n    function retrieveSettings() external override view returns(uint[] memory)\r\n    {\r\n        return(_Prices);\r\n    }\r\n\r\n    function retrieveAggregatedAmount() external override view returns(uint){\r\n        return _AggregatedDividendAmount;\r\n    }\r\n\r\n    function sumUpTotal(address addr) internal view returns (uint, uint)\r\n    {\r\n        (uint totalOnBalance, uint commonDividendOnBalance) = sumUpTotalOnBalance(addr);\r\n        (uint totalOffBalance, uint DividendOffBalance) = sumUpTotalOffBalance(addr);\r\n\r\n        uint total = (totalOnBalance * DividendOffBalance) + (totalOffBalance * commonDividendOnBalance);\r\n        uint CommonDividend = commonDividendOnBalance * DividendOffBalance;\r\n\r\n        return (total, CommonDividend);\r\n    }\r\n\r\n    function sumUpTotalOnBalance(address addr) internal view returns (uint, uint)\r\n    {\r\n        return ItemsLibrary.sumUpTotal(_balances[addr]);\r\n    }\r\n\r\n    function sumUpTotalOffBalance(address addr) internal view returns (uint, uint)\r\n    {\r\n        uint total = 0;\r\n\r\n        if(_lastAssigned[addr] < _AggregatedDividendAmount)\r\n        {\r\n            total = (_AggregatedDividendAmount - _lastAssigned[addr]) * GetTokensBalance(addr);           \r\n        }\r\n\r\n        return (total, totalSupply());\r\n    }\r\n\r\n\r\n}",
  "sourcePath": "C:\\Users\\d-aam\\GitHub\\Originals\\contracts\\MainContracts\\Treasury.sol",
  "compiler": {
    "name": "solc",
    "version": "0.8.7+commit.e28d00a7.Emscripten.clang"
  },
  "schemaVersion": "3.4.3",
  "updatedAt": "2022-02-24T09:15:08.418Z",
  "devdoc": {
    "kind": "dev",
    "methods": {},
    "version": 1
  },
  "userdoc": {
    "kind": "user",
    "methods": {},
    "version": 1
  }
}