{
  "contractName": "Treasury",
  "abi": [
    {
      "anonymous": false,
      "inputs": [
        {
          "indexed": false,
          "internalType": "uint256",
          "name": "Id",
          "type": "uint256"
        },
        {
          "indexed": true,
          "internalType": "address",
          "name": "Proposer",
          "type": "address"
        },
        {
          "indexed": false,
          "internalType": "uint256",
          "name": "Deadline",
          "type": "uint256"
        },
        {
          "indexed": false,
          "internalType": "uint256",
          "name": "Threshold",
          "type": "uint256"
        }
      ],
      "name": "_AddedProposition",
      "type": "event"
    },
    {
      "anonymous": false,
      "inputs": [
        {
          "indexed": true,
          "internalType": "address",
          "name": "Recipient",
          "type": "address"
        },
        {
          "indexed": false,
          "internalType": "uint256",
          "name": "Amount",
          "type": "uint256"
        },
        {
          "indexed": false,
          "internalType": "uint256",
          "name": "TotalSupply",
          "type": "uint256"
        },
        {
          "indexed": false,
          "internalType": "uint256",
          "name": "tokenContractId",
          "type": "uint256"
        }
      ],
      "name": "_AssignDividend",
      "type": "event"
    },
    {
      "anonymous": false,
      "inputs": [
        {
          "indexed": false,
          "internalType": "uint256",
          "name": "Id",
          "type": "uint256"
        },
        {
          "indexed": true,
          "internalType": "address",
          "name": "Proposer",
          "type": "address"
        }
      ],
      "name": "_CancelledProposition",
      "type": "event"
    },
    {
      "anonymous": false,
      "inputs": [
        {
          "indexed": false,
          "internalType": "uint256[][]",
          "name": "Prices",
          "type": "uint256[][]"
        }
      ],
      "name": "_NewPrices",
      "type": "event"
    },
    {
      "anonymous": false,
      "inputs": [
        {
          "indexed": true,
          "internalType": "address",
          "name": "Payer",
          "type": "address"
        },
        {
          "indexed": false,
          "internalType": "uint256",
          "name": "Amount",
          "type": "uint256"
        },
        {
          "indexed": false,
          "internalType": "uint256",
          "name": "AggregatedAmount",
          "type": "uint256"
        },
        {
          "indexed": false,
          "internalType": "uint256",
          "name": "tokenContractId",
          "type": "uint256"
        }
      ],
      "name": "_Pay",
      "type": "event"
    },
    {
      "anonymous": false,
      "inputs": [
        {
          "indexed": false,
          "internalType": "uint256",
          "name": "Id",
          "type": "uint256"
        },
        {
          "indexed": true,
          "internalType": "address",
          "name": "Proposer",
          "type": "address"
        },
        {
          "indexed": false,
          "internalType": "uint256",
          "name": "VotesFor",
          "type": "uint256"
        },
        {
          "indexed": false,
          "internalType": "uint256",
          "name": "VotesAgainst",
          "type": "uint256"
        }
      ],
      "name": "_PropositionApproved",
      "type": "event"
    },
    {
      "anonymous": false,
      "inputs": [
        {
          "indexed": false,
          "internalType": "uint256",
          "name": "Id",
          "type": "uint256"
        },
        {
          "indexed": true,
          "internalType": "address",
          "name": "Proposer",
          "type": "address"
        },
        {
          "indexed": false,
          "internalType": "uint256",
          "name": "VotesFor",
          "type": "uint256"
        },
        {
          "indexed": false,
          "internalType": "uint256",
          "name": "VotesAgainst",
          "type": "uint256"
        }
      ],
      "name": "_PropositionRejected",
      "type": "event"
    },
    {
      "anonymous": false,
      "inputs": [
        {
          "indexed": false,
          "internalType": "uint256",
          "name": "Id",
          "type": "uint256"
        },
        {
          "indexed": true,
          "internalType": "address",
          "name": "Voter",
          "type": "address"
        },
        {
          "indexed": false,
          "internalType": "bool",
          "name": "Vote",
          "type": "bool"
        },
        {
          "indexed": false,
          "internalType": "uint256",
          "name": "AmountTokens",
          "type": "uint256"
        }
      ],
      "name": "_PropositionVote",
      "type": "event"
    },
    {
      "anonymous": false,
      "inputs": [
        {
          "indexed": true,
          "internalType": "uint256",
          "name": "Id",
          "type": "uint256"
        },
        {
          "indexed": false,
          "internalType": "address",
          "name": "From",
          "type": "address"
        },
        {
          "indexed": false,
          "internalType": "address",
          "name": "To",
          "type": "address"
        },
        {
          "indexed": false,
          "internalType": "uint256",
          "name": "Amount",
          "type": "uint256"
        }
      ],
      "name": "_UsedTokensTransfered",
      "type": "event"
    },
    {
      "anonymous": false,
      "inputs": [
        {
          "indexed": true,
          "internalType": "address",
          "name": "Recipient",
          "type": "address"
        },
        {
          "indexed": false,
          "internalType": "uint256",
          "name": "Amount",
          "type": "uint256"
        },
        {
          "indexed": false,
          "internalType": "uint256",
          "name": "tokenContractId",
          "type": "uint256"
        }
      ],
      "name": "_Withdraw",
      "type": "event"
    },
    {
      "inputs": [
        {
          "internalType": "address",
          "name": "sender",
          "type": "address"
        },
        {
          "internalType": "uint256",
          "name": "amount",
          "type": "uint256"
        },
        {
          "internalType": "uint256",
          "name": "paymentTokenID",
          "type": "uint256"
        },
        {
          "internalType": "bytes",
          "name": "data",
          "type": "bytes"
        }
      ],
      "name": "CreditReceived",
      "outputs": [],
      "stateMutability": "nonpayable",
      "type": "function"
    },
    {
      "inputs": [
        {
          "internalType": "address",
          "name": "chairPerson",
          "type": "address"
        },
        {
          "internalType": "address",
          "name": "managerContractAddress",
          "type": "address"
        }
      ],
      "name": "StdPropositionBaseContract_init",
      "outputs": [],
      "stateMutability": "nonpayable",
      "type": "function"
    },
    {
      "inputs": [],
      "name": "cancelProposition",
      "outputs": [],
      "stateMutability": "nonpayable",
      "type": "function"
    },
    {
      "inputs": [
        {
          "internalType": "address",
          "name": "from",
          "type": "address"
        },
        {
          "internalType": "address",
          "name": "to",
          "type": "address"
        },
        {
          "internalType": "uint256",
          "name": "amount",
          "type": "uint256"
        }
      ],
      "name": "onTokenBalanceChanged",
      "outputs": [],
      "stateMutability": "nonpayable",
      "type": "function"
    },
    {
      "inputs": [],
      "name": "retrieveChairPerson",
      "outputs": [
        {
          "internalType": "address",
          "name": "",
          "type": "address"
        }
      ],
      "stateMutability": "view",
      "type": "function"
    },
    {
      "inputs": [],
      "name": "retrieveManagerContract",
      "outputs": [
        {
          "internalType": "address",
          "name": "",
          "type": "address"
        }
      ],
      "stateMutability": "view",
      "type": "function"
    },
    {
      "inputs": [],
      "name": "retrieveNextPropId",
      "outputs": [
        {
          "internalType": "uint256",
          "name": "",
          "type": "uint256"
        }
      ],
      "stateMutability": "view",
      "type": "function"
    },
    {
      "inputs": [],
      "name": "retrieveProposition",
      "outputs": [
        {
          "internalType": "bytes[]",
          "name": "",
          "type": "bytes[]"
        }
      ],
      "stateMutability": "view",
      "type": "function"
    },
    {
      "inputs": [],
      "name": "retrievePropositionStatus",
      "outputs": [
        {
          "internalType": "address",
          "name": "",
          "type": "address"
        },
        {
          "internalType": "uint256",
          "name": "",
          "type": "uint256"
        },
        {
          "internalType": "uint256",
          "name": "",
          "type": "uint256"
        },
        {
          "internalType": "uint256",
          "name": "",
          "type": "uint256"
        },
        {
          "internalType": "uint256",
          "name": "",
          "type": "uint256"
        }
      ],
      "stateMutability": "view",
      "type": "function"
    },
    {
      "inputs": [
        {
          "internalType": "uint256",
          "name": "PropId",
          "type": "uint256"
        },
        {
          "internalType": "address",
          "name": "voter",
          "type": "address"
        }
      ],
      "name": "retrieveVotesForVoter",
      "outputs": [
        {
          "internalType": "uint256",
          "name": "",
          "type": "uint256"
        }
      ],
      "stateMutability": "view",
      "type": "function"
    },
    {
      "inputs": [
        {
          "internalType": "bytes[]",
          "name": "NewValues",
          "type": "bytes[]"
        }
      ],
      "name": "sendProposition",
      "outputs": [],
      "stateMutability": "nonpayable",
      "type": "function"
    },
    {
      "inputs": [
        {
          "internalType": "bool",
          "name": "vote",
          "type": "bool"
        }
      ],
      "name": "voteProposition",
      "outputs": [],
      "stateMutability": "nonpayable",
      "type": "function"
    },
    {
      "inputs": [
        {
          "internalType": "uint256[][]",
          "name": "Prices",
          "type": "uint256[][]"
        },
        {
          "internalType": "address",
          "name": "managerContractAddress",
          "type": "address"
        },
        {
          "internalType": "address",
          "name": "chairPerson",
          "type": "address"
        }
      ],
      "name": "Treasury_init",
      "outputs": [],
      "stateMutability": "nonpayable",
      "type": "function"
    },
    {
      "inputs": [
        {
          "internalType": "uint256",
          "name": "amount",
          "type": "uint256"
        },
        {
          "internalType": "uint256",
          "name": "paymentTokenID",
          "type": "uint256"
        }
      ],
      "name": "withdraw",
      "outputs": [],
      "stateMutability": "nonpayable",
      "type": "function"
    },
    {
      "inputs": [
        {
          "internalType": "uint256",
          "name": "paymentTokenID",
          "type": "uint256"
        }
      ],
      "name": "withdrawAll",
      "outputs": [],
      "stateMutability": "nonpayable",
      "type": "function"
    },
    {
      "inputs": [
        {
          "internalType": "address",
          "name": "addr",
          "type": "address"
        },
        {
          "internalType": "uint256",
          "name": "paymentTokenID",
          "type": "uint256"
        }
      ],
      "name": "retrieveLastAssigned",
      "outputs": [
        {
          "internalType": "uint256",
          "name": "",
          "type": "uint256"
        }
      ],
      "stateMutability": "view",
      "type": "function"
    },
    {
      "inputs": [
        {
          "internalType": "address",
          "name": "addr",
          "type": "address"
        },
        {
          "internalType": "uint256",
          "name": "paymentTokenID",
          "type": "uint256"
        }
      ],
      "name": "retrieveFullBalance",
      "outputs": [
        {
          "internalType": "uint256",
          "name": "",
          "type": "uint256"
        }
      ],
      "stateMutability": "view",
      "type": "function"
    },
    {
      "inputs": [],
      "name": "retrieveSettings",
      "outputs": [
        {
          "internalType": "uint256[][]",
          "name": "",
          "type": "uint256[][]"
        }
      ],
      "stateMutability": "view",
      "type": "function"
    },
    {
      "inputs": [
        {
          "internalType": "uint256",
          "name": "paymentTokenID",
          "type": "uint256"
        }
      ],
      "name": "retrieveAggregatedAmount",
      "outputs": [
        {
          "internalType": "uint256",
          "name": "",
          "type": "uint256"
        }
      ],
      "stateMutability": "view",
      "type": "function"
    }
  ],
  "bytecode": "0x608060405234801561001057600080fd5b50612cb1806100206000396000f3fe608060405234801561001057600080fd5b50600436106100f15760003560e01c806304cc67a9146100f657806315f9969f1461010d5780633c7df55d146101425780634044adb214610157578063441a3e701461018d57806355457ee9146101a05780635b362e84146101a85780635bd1287a146101c85780637dacc160146101db5780638266251f146101ee578063840f6d171461020157806391f9167114610242578063958e2d3114610255578063a93316f514610268578063b049473f1461027d578063b1fd235914610292578063b50a46cb146102a5578063db85bc4d146102b8578063e15aa3a6146102c9575b600080fd5b6008545b6040519081526020015b60405180910390f35b6100fa61011b3660046122ac565b6000908152600d602090815260408083206001600160a01b03949094168352929052205490565b61015561015036600461226b565b6102dc565b005b6100fa610165366004612777565b60009182526009602090815260408084206001600160a01b0393909316845291905290205490565b61015561019b36600461279c565b6103fa565b610155610408565b6000546201000090046001600160a01b03165b6040516101049190612839565b6101556101d63660046123df565b6104e3565b6100fa6101e93660046122ac565b610573565b6101556101fc3660046122d8565b610620565b600354600454600554600654600754604080516001600160a01b0390961686526020860194909452928401919091526060830152608082015260a001610104565b610155610250366004612728565b61080d565b610155610263366004612745565b61081a565b6102706108c3565b60405161010491906128f1565b61028561099c565b6040516101049190612867565b6101556102a0366004612232565b610a2c565b6100fa6102b3366004612745565b610aaa565b6001546001600160a01b03166101bb565b6101556102d73660046125a4565b610ad1565b3373__Library_______________________________6337ea306382600060029054906101000a90046001600160a01b03166001600160a01b031663e220ad956040518163ffffffff1660e01b815260040160006040518083038186803b15801561034657600080fd5b505afa15801561035a573d6000803e3d6000fd5b505050506040513d6000823e601f3d908101601f19168201604052610382919081019061233a565b60038151811061039457610394612c2c565b60200260200101516040518363ffffffff1660e01b81526004016103b992919061284d565b60006040518083038186803b1580156103d157600080fd5b505af41580156103e5573d6000803e3d6000fd5b505050506103f4848484610b3e565b50505050565b6104048282610bbb565b5050565b600161041381610dca565b6003546040516337ea306360e01b8152339173__Library_______________________________916337ea3063916104599185916001600160a01b03169060040161284d565b60006040518083038186803b15801561047157600080fd5b505af4158015610485573d6000803e3d6000fd5b50505050610491610e4e565b610499610e58565b6003546002546040519081526001600160a01b03909116907f1fe8aec10c0a50fa765076161e08c1f961ced69594ff45cf7d559f593afe1479906020015b60405180910390a25050565b600054610100900460ff166104fe5760005460ff1615610502565b303b155b6105275760405162461bcd60e51b815260040161051e906129fb565b60405180910390fd5b600054610100900460ff16158015610549576000805461ffff19166101011790555b6105538284610a2c565b61055c84610e83565b80156103f4576000805461ff001916905550505050565b6000818152600e602090815260408083206001600160a01b038616845290915280822090516326162dc360e01b8152600481019190915273__ItemsLibrary__________________________906326162dc39060240160206040518083038186803b1580156105e157600080fd5b505af41580156105f5573d6000803e3d6000fd5b505050506040513d601f19601f82011682018060405250810190610619919061275e565b9392505050565b33600060029054906101000a90046001600160a01b03166001600160a01b031663e220ad956040518163ffffffff1660e01b815260040160006040518083038186803b15801561066f57600080fd5b505afa158015610683573d6000803e3d6000fd5b505050506040513d6000823e601f3d908101601f191682016040526106ab919081019061233a565b6001815181106106bd576106bd612c2c565b60200260200101516001600160a01b0316816001600160a01b031614806107985750600060029054906101000a90046001600160a01b03166001600160a01b031663e220ad956040518163ffffffff1660e01b815260040160006040518083038186803b15801561072d57600080fd5b505afa158015610741573d6000803e3d6000fd5b505050506040513d6000823e601f3d908101601f19168201604052610769919081019061233a565b60068151811061077b5761077b612c2c565b60200260200101516001600160a01b0316816001600160a01b0316145b6107fa5760405162461bcd60e51b815260206004820152602d60248201527f4974206973206e6f742066726f6d206f6e65206f66207468652063657274696660448201526c69656420636f6e74726163747360981b606482015260840161051e565b61080685858585610f43565b5050505050565b6108173382611023565b50565b6000818152600e6020908152604080832033845290915280822090516326162dc360e01b8152600481019190915273__ItemsLibrary__________________________906326162dc39060240160206040518083038186803b15801561087f57600080fd5b505af4158015610893573d6000803e3d6000fd5b505050506040513d601f19601f820116820180604052508101906108b7919061275e565b90506104048183610bbb565b6060600a805480602002602001604051908101604052809291908181526020016000905b8282101561099357838290600052602060002001805461090690612b9c565b80601f016020809104026020016040519081016040528092919081815260200182805461093290612b9c565b801561097f5780601f106109545761010080835404028352916020019161097f565b820191906000526020600020905b81548152906001019060200180831161096257829003601f168201915b5050505050815260200190600101906108e7565b50505050905090565b6060600b805480602002602001604051908101604052809291908181526020016000905b8282101561099357600084815260209081902083018054604080518285028101850190915281815292830182828015610a1857602002820191906000526020600020905b815481526020019060010190808311610a04575b5050505050815260200190600101906109c0565b600054610100900460ff16610a475760005460ff1615610a4b565b303b155b610a675760405162461bcd60e51b815260040161051e906129fb565b600054610100900460ff16158015610a89576000805461ffff19166101011790555b610a93838361113b565b8015610aa5576000805461ff00191690555b505050565b6000600c8281548110610abf57610abf612c2c565b90600052602060002001549050919050565b610ad96111d7565b60005b815181101561040457600a828281518110610af957610af9612c2c565b60209081029190910181015182546001810184556000938452928290208151610b2b949190910192919091019061206b565b5080610b3681612bd1565b915050610adc565b610b49838383611526565b6001600160a01b03831615610b835760005b600c54811015610b8157610b6f8482611543565b80610b7981612bd1565b915050610b5b565b505b6001600160a01b03821615610aa55760005b600c548110156103f457610ba98382611543565b80610bb381612bd1565b915050610b95565b610bc53382611543565b6000818152600e602090815260408083203380855292528083208354825163e220ad9560e01b8152925173__ItemsLibrary__________________________956318b84a21959394899493600193620100009091046001600160a01b03169263e220ad959260048082019391829003018186803b158015610c4557600080fd5b505afa158015610c59573d6000803e3d6000fd5b505050506040513d6000823e601f3d908101601f19168201604052610c81919081019061233a565b600681518110610c9357610c93612c2c565b60200260200101516001600160a01b031663b049473f6040518163ffffffff1660e01b815260040160006040518083038186803b158015610cd357600080fd5b505afa158015610ce7573d6000803e3d6000fd5b505050506040513d6000823e601f3d908101601f19168201604052610d0f919081019061265b565b8781518110610d2057610d20612c2c565b602002602001015160000151600060405180602001604052806000815250896040518963ffffffff1660e01b8152600401610d62989796959493929190612a49565b60006040518083038186803b158015610d7a57600080fd5b505af4158015610d8e573d6000803e3d6000fd5b505060408051858152602081018590523393507fe3a578db023c93c17a32f818b53100ba3479950e72d911afbee045639067f87f9250016104d7565b8015610e1157610dd8611663565b15156001146108175760405162461bcd60e51b8152602060048201526005602482015264454332352d60d81b604482015260640161051e565b610e19611663565b156108175760405162461bcd60e51b8152602060048201526005602482015264454332342d60d81b604482015260640161051e565b610e5661169d565b565b60006002819055600380546001600160a01b0319169055600481905560058190556006819055600755565b60005b815181101561040457600b54811015610ee957818181518110610eab57610eab612c2c565b6020026020010151600b8281548110610ec657610ec6612c2c565b906000526020600020019080519060200190610ee39291906120ef565b50610f31565b600b828281518110610efd57610efd612c2c565b60209081029190910181015182546001810184556000938452928290208151610f2f94919091019291909101906120ef565b505b80610f3b81612bd1565b915050610e86565b600c54821015610f855782600c8381548110610f6157610f61612c2c565b906000526020600020016000828254610f7a9190612b3a565b90915550610fbb9050565b600c80546001810182556000919091527fdf6966c971051c3d54ec59162606531493a51404a002842f56009d7e5cf4a8c7018390555b836001600160a01b03167fa0e5c002871629acffe2f6c9e7932d18ed4493526043875a27b3011d7981370684600c8581548110610ffa57610ffa612c2c565b90600052602060002001548560405161101593929190612aa9565b60405180910390a250505050565b600161102e81610dca565b6002548390600061103f83836116a9565b9050600081116110795760405162461bcd60e51b8152602060048201526005602482015264454332332d60d81b604482015260640161051e565b600061108a876002600001546116a9565b905085156110b25780600260040160008282546110a79190612b3a565b909155506110cd9050565b80600260050160008282546110c79190612b3a565b90915550505b6002546110db9088836116df565b60025460408051918252871515602083015281018290526001600160a01b038816907f50f654d58981575c05e369cb129aeacb01e1b036af429380242cfc5d1a4b743f9060600160405180910390a261113261171b565b50505050505050565b600054610100900460ff166111565760005460ff161561115a565b303b155b6111765760405162461bcd60e51b815260040161051e906129fb565b600054610100900460ff16158015611198576000805461ffff19166101011790555b6111a1826117ef565b600180546001600160a01b0319166001600160a01b03851617905560006008558015610aa5576000805461ff0019169055505050565b60006111e281610dca565b60015433906000906001600160a01b031682141561120257506001611338565b600061120d83611883565b905060008060029054906101000a90046001600160a01b03166001600160a01b031663e220ad956040518163ffffffff1660e01b815260040160006040518083038186803b15801561125e57600080fd5b505afa158015611272573d6000803e3d6000fd5b505050506040513d6000823e601f3d908101601f1916820160405261129a919081019061233a565b6004815181106112ac576112ac612c2c565b60200260200101516001600160a01b031663b049473f6040518163ffffffff1660e01b815260040160606040518083038186803b1580156112ec57600080fd5b505afa158015611300573d6000803e3d6000fd5b505050506040513d601f19601f8201168201806040525081019061132491906127be565b925050508082111561133557600192505b50505b6001811515146113725760405162461bcd60e51b8152602060048201526005602482015264454332322d60d81b604482015260640161051e565b600080600060029054906101000a90046001600160a01b03166001600160a01b031663e220ad956040518163ffffffff1660e01b815260040160006040518083038186803b1580156113c357600080fd5b505afa1580156113d7573d6000803e3d6000fd5b505050506040513d6000823e601f3d908101601f191682016040526113ff919081019061233a565b60048151811061141157611411612c2c565b60200260200101516001600160a01b031663b049473f6040518163ffffffff1660e01b815260040160606040518083038186803b15801561145157600080fd5b505afa158015611465573d6000803e3d6000fd5b505050506040513d601f19601f8201168201806040525081019061148991906127be565b50600380546001600160a01b0319163317905590925090506114ab8242612b3a565b60045560058190556008805460028190559060006114c883612bd1565b90915550506003546002546004546005546040516001600160a01b03909416937f472501d19bf75639b2e316cd36f8568b0c3ab943b82a87de3c086c98c1929df9936115179390929091612aa9565b60405180910390a25050505050565b61152e611663565b151560011415610aa557610aa58383836119a9565b6000806115508484611b10565b91509150600c838154811061156757611567612c2c565b6000918252602080832090910154858352600d825260408084206001600160a01b038916855290925291205581156103f4576000838152600e602090815260408083206001600160a01b0388168452909152908190209051633833532760e01b815273__ItemsLibrary__________________________916338335327916115f6919086908690600401612aa9565b60006040518083038186803b15801561160e57600080fd5b505af4158015611622573d6000803e3d6000fd5b50505050836001600160a01b03167fd594bb9b33d8e7d250dcc95a70d74fbd1e03e16d3e7660f60b12149bd7fd2a1283838660405161101593929190612aa9565b6004546000904210156116765750600190565b6003546001600160a01b0316156116975761168f610e4e565b611697610e58565b50600090565b610e56600a6000612129565b60008181526009602090815260408083206001600160a01b03861684529091528120546116d584611883565b6106199190612b85565b60008381526009602090815260408083206001600160a01b038616845290915281208054839290611711908490612b3a565b9091555050505050565b6005546006541061178a5761172e611bd1565b611736610e58565b6003546002546006546007546040516001600160a01b03909416937f23ca0034cf5aad32571b4a492e9598ea8a490e1643a60970e3cdc6933b55e49f936117809390929091612aa9565b60405180910390a2565b60055460075410610e565761179d610e4e565b6117a5610e58565b6003546002546006546007546040516001600160a01b03909416937fa58eb6daa3c62c3f883973c4035e5bd3e81aa627c8379de068a7de42df122be2936117809390929091612aa9565b600054610100900460ff1661180a5760005460ff161561180e565b303b155b61182a5760405162461bcd60e51b815260040161051e906129fb565b600054610100900460ff1615801561184c576000805461ffff19166101011790555b6000805462010000600160b01b031916620100006001600160a01b038516021790558015610404576000805461ff00191690555050565b60008060029054906101000a90046001600160a01b03166001600160a01b031663e220ad956040518163ffffffff1660e01b815260040160006040518083038186803b1580156118d257600080fd5b505afa1580156118e6573d6000803e3d6000fd5b505050506040513d6000823e601f3d908101601f1916820160405261190e919081019061233a565b60038151811061192057611920612c2c565b60200260200101516001600160a01b03166370a08231836040518263ffffffff1660e01b81526004016119539190612839565b60206040518083038186803b15801561196b57600080fd5b505afa15801561197f573d6000803e3d6000fd5b505050506040513d601f19601f820116820180604052508101906119a3919061275e565b92915050565b6001600160a01b038316158015906119e5575060025460009081526009602090815260408083206001600160a01b038716845290915290205415155b15610aa55760025460009081526009602090815260408083206001600160a01b03871684529091529020548190811115611a41575060025460009081526009602090815260408083206001600160a01b03871684529091529020545b60025460009081526009602090815260408083206001600160a01b038816845290915281208054839290611a76908490612b85565b90915550506001600160a01b03831615611ac55760025460009081526009602090815260408083206001600160a01b038716845290915281208054839290611abf908490612b3a565b90915550505b600254604080516001600160a01b038088168252861660208201529081018390527f65fbd5e5dd32bea4aeca85bd0be0abf0e489d655dee888a7510d43b06dda2dba90606001611015565b6000806000600c8481548110611b2857611b28612c2c565b6000918252602080832090910154868352600d825260408084206001600160a01b038a1685529092529120541015611bbc57611b6385611883565b6000858152600d602090815260408083206001600160a01b038a168452909152902054600c805487908110611b9a57611b9a612c2c565b9060005260206000200154611baf9190612b85565b611bb99190612b66565b90505b80611bc5611bd9565b92509250509250929050565b610e4e611cf3565b60008060029054906101000a90046001600160a01b03166001600160a01b031663e220ad956040518163ffffffff1660e01b815260040160006040518083038186803b158015611c2857600080fd5b505afa158015611c3c573d6000803e3d6000fd5b505050506040513d6000823e601f3d908101601f19168201604052611c64919081019061233a565b600381518110611c7657611c76612c2c565b60200260200101516001600160a01b03166318160ddd6040518163ffffffff1660e01b815260040160206040518083038186803b158015611cb657600080fd5b505afa158015611cca573d6000803e3d6000fd5b505050506040513d601f19601f82011682018060405250810190611cee919061275e565b905090565b6000611cfd611f1c565b9050600073__UintLibrary___________________________630bd4715e83600081518110611d2e57611d2e612c2c565b60200260200101516040518263ffffffff1660e01b8152600401611d5491815260200190565b60206040518083038186803b158015611d6c57600080fd5b505af4158015611d80573d6000803e3d6000fd5b505050506040513d601f19601f82011682018060405250810190611da4919061275e565b9050606060015b8351811015611ed657600083611dc2600184612b85565b611dcc9190612b52565b9050600084611ddc600185612b85565b611de69190612bec565b905073__UintLibrary___________________________630bd4715e878581518110611e1457611e14612c2c565b60200260200101516040518263ffffffff1660e01b8152600401611e3a91815260200190565b60206040518083038186803b158015611e5257600080fd5b505af4158015611e66573d6000803e3d6000fd5b505050506040513d601f19601f82011682018060405250810190611e8a919061275e565b848281518110611e9c57611e9c612c2c565b60200260200101518381518110611eb557611eb5612c2c565b60200260200101818152505050508080611ece90612bd1565b915050611dab565b50611ee081610e83565b7feea05ea3991d45235d8df9fcf8034a2bdbb2eae1de0afcfc111e8a3c9219153b81604051611f0f9190612867565b60405180910390a1505050565b600a546060906000906001600160401b03811115611f3c57611f3c612c42565b604051908082528060200260200182016040528015611f65578160200160208202803683370190505b50905060005b600a548110156120655773__Library_______________________________63caa8f589600a8381548110611fa257611fa2612c2c565b906000526020600020016040518263ffffffff1660e01b8152600401611fc89190612953565b60006040518083038186803b158015611fe057600080fd5b505af4158015611ff4573d6000803e3d6000fd5b505050506040513d6000823e601f3d908101601f1916820160405261201c9190810190612519565b60008151811061202e5761202e612c2c565b602002602001015182828151811061204857612048612c2c565b60209081029190910101528061205d81612bd1565b915050611f6b565b50919050565b82805461207790612b9c565b90600052602060002090601f01602090048101928261209957600085556120df565b82601f106120b257805160ff19168380011785556120df565b828001600101855582156120df579182015b828111156120df5782518255916020019190600101906120c4565b506120eb929150612147565b5090565b8280548282559060005260206000209081019282156120df57916020028201828111156120df5782518255916020019190600101906120c4565b5080546000825590600052602060002090810190610817919061215c565b5b808211156120eb5760008155600101612148565b808211156120eb5760006121708282612179565b5060010161215c565b50805461218590612b9c565b6000825580601f10612195575050565b601f0160209004906000526020600020908101906108179190612147565b80356121be81612c58565b919050565b600082601f8301126121d457600080fd5b81356001600160401b038111156121ed576121ed612c42565b612200601f8201601f1916602001612ae7565b81815284602083860101111561221557600080fd5b816020850160208301376000918101602001919091529392505050565b6000806040838503121561224557600080fd5b823561225081612c58565b9150602083013561226081612c58565b809150509250929050565b60008060006060848603121561228057600080fd5b833561228b81612c58565b9250602084013561229b81612c58565b929592945050506040919091013590565b600080604083850312156122bf57600080fd5b82356122ca81612c58565b946020939093013593505050565b600080600080608085870312156122ee57600080fd5b84356122f981612c58565b9350602085013592506040850135915060608501356001600160401b0381111561232257600080fd5b61232e878288016121c3565b91505092959194509250565b6000602080838503121561234d57600080fd5b82516001600160401b0381111561236357600080fd5b8301601f8101851361237457600080fd5b805161238761238282612b17565b612ae7565b80828252848201915084840188868560051b87010111156123a757600080fd5b600094505b838510156123d35780516123bf81612c58565b8352600194909401939185019185016123ac565b50979650505050505050565b6000806000606084860312156123f457600080fd5b6001600160401b03843581101561240a57600080fd5b8435850186601f82011261241d57600080fd5b61242a6123828235612b17565b808235825260208201915060208301896020853560051b860101111561244f57600080fd5b60005b84358110156124ed57858235111561246957600080fd5b813585018b603f82011261247c57600080fd5b602081013561248d61238282612b17565b80828252602082019150604084018f60408560051b87010111156124b057600080fd5b600094505b838510156124d4578035835260019490940193602092830192016124b5565b5087525050602094850194929092019150600101612452565b505080965050505050612502602085016121b3565b9150612510604085016121b3565b90509250925092565b6000602080838503121561252c57600080fd5b82516001600160401b0381111561254257600080fd5b8301601f8101851361255357600080fd5b805161256161238282612b17565b80828252848201915084840188868560051b870101111561258157600080fd5b600094505b838510156123d3578051835260019490940193918501918501612586565b600060208083850312156125b757600080fd5b82356001600160401b03808211156125ce57600080fd5b818501915085601f8301126125e257600080fd5b81356125f061238282612b17565b80828252858201915085850189878560051b880101111561261057600080fd5b6000805b8581101561264b5782358781111561262a578283fd5b6126388d8b838c01016121c3565b8652509388019391880191600101612614565b50919a9950505050505050505050565b6000602080838503121561266e57600080fd5b82516001600160401b0381111561268457600080fd5b8301601f8101851361269557600080fd5b80516126a361238282612b17565b80828252848201915084840188868560061b87010111156126c357600080fd5b60009450845b8481101561271a57604080838c0312156126e1578687fd5b6126e9612abf565b83516126f481612c58565b81528389015161270381612c6d565b818a015285529387019391909101906001016126c9565b509098975050505050505050565b60006020828403121561273a57600080fd5b813561061981612c6d565b60006020828403121561275757600080fd5b5035919050565b60006020828403121561277057600080fd5b5051919050565b6000806040838503121561278a57600080fd5b82359150602083013561226081612c58565b600080604083850312156127af57600080fd5b50508035926020909101359150565b6000806000606084860312156127d357600080fd5b8351925060208401519150604084015190509250925092565b6000815180845260005b81811015612812576020818501810151868301820152016127f6565b81811115612824576000602083870101525b50601f01601f19169290920160200192915050565b6001600160a01b0391909116815260200190565b6001600160a01b0392831681529116602082015260400190565b6000602080830181845280855180835260408601915060408160051b87010192508387016000805b838110156128e357888603603f19018552825180518088529088019088880190845b818110156128cd5783518352928a0192918a01916001016128b1565b509097505050938601939186019160010161288f565b509398975050505050505050565b6000602080830181845280855180835260408601915060408160051b870101925083870160005b8281101561294657603f198886030184526129348583516127ec565b94509285019290850190600101612918565b5092979650505050505050565b600060208083526000845481600182811c91508083168061297557607f831692505b85831081141561299357634e487b7160e01b85526022600452602485fd5b8786018381526020018180156129b057600181146129c1576129ec565b60ff198616825287820196506129ec565b60008b81526020902060005b868110156129e6578154848201529085019089016129cd565b83019750505b50949998505050505050505050565b6020808252602e908201527f496e697469616c697a61626c653a20636f6e747261637420697320616c72656160408201526d191e481a5b9a5d1a585b1a5e995960921b606082015260800190565b888152602081018890526001600160a01b03878116604083015286151560608301528516608082015283151560a082015261010060c08201819052600090612a93838201866127ec565b9150508260e08301529998505050505050505050565b9283526020830191909152604082015260600190565b604080519081016001600160401b0381118282101715612ae157612ae1612c42565b60405290565b604051601f8201601f191681016001600160401b0381118282101715612b0f57612b0f612c42565b604052919050565b60006001600160401b03821115612b3057612b30612c42565b5060051b60200190565b60008219821115612b4d57612b4d612c00565b500190565b600082612b6157612b61612c16565b500490565b6000816000190483118215151615612b8057612b80612c00565b500290565b600082821015612b9757612b97612c00565b500390565b600181811c90821680612bb057607f821691505b6020821081141561206557634e487b7160e01b600052602260045260246000fd5b6000600019821415612be557612be5612c00565b5060010190565b600082612bfb57612bfb612c16565b500690565b634e487b7160e01b600052601160045260246000fd5b634e487b7160e01b600052601260045260246000fd5b634e487b7160e01b600052603260045260246000fd5b634e487b7160e01b600052604160045260246000fd5b6001600160a01b038116811461081757600080fd5b801515811461081757600080fdfea26469706673582212204730d3a88a6be066ab5f12299229dd673ef6a008de1f145d739662d1c8a2ac9064736f6c63430008070033",
  "immutableReferences": {},
  "source": "// SPDX-License-Identifier: GPL-3.0\r\n\r\npragma solidity 0.8.7;\r\n\r\n/**\r\n Treasury receives all the payments and assigns dividends to token holders.\r\n Public Certificate Pool contract can ask for its owners to eb refunded even if they do not own tokens.\r\n\r\n First dividends must be assigned to an account and then the account owner can withdraw the funds.\r\n Both actions must be triggered by the account owner.\r\n\r\n  Events : \r\n    - New Prices Added : list of prices\r\n    - Payment recieved : payer, amount, new total aggregated contract amount\r\n    - Refund : who, amount, among how many\r\n    - Assign Dividends : who, amount (number of tokens), among how many (total supply)\r\n    - Withdraw : who, how much\r\n */\r\n\r\nimport \"../Interfaces/ITreasury.sol\";\r\nimport \"../Libraries/UintLibrary.sol\";\r\nimport \"../Libraries/ItemsLibrary.sol\";\r\nimport \"../Libraries/Library.sol\";\r\nimport \"../Base/StdPropositionBaseContract.sol\";\r\nimport \"@openzeppelin/contracts-upgradeable/token/ERC20/IERC20Upgradeable.sol\";\r\nimport \"../Base/CreditorBaseContract.sol\";\r\nimport \"../Interfaces/IPayments.sol\";\r\n\r\n\r\ncontract Treasury is ITreasury, StdPropositionBaseContract, CreditorBaseContract{\r\n    using Library for *;\r\n    using UintLibrary for *;\r\n    using ItemsLibrary for *;\r\n\r\n    // EVENTS /////////////////////////////////////////\r\n    event _NewPrices(uint[][] Prices);\r\n    event _Pay(address indexed Payer, uint Amount, uint AggregatedAmount, uint256 tokenContractId);\r\n    event _AssignDividend(address indexed Recipient, uint Amount, uint TotalSupply, uint256 tokenContractId);\r\n    event _Withdraw(address indexed Recipient, uint Amount, uint256 tokenContractId);\r\n    /*event _NewPrices(uint[] Prices);\r\n    event _Pay(address indexed Payer, uint Amount, uint AggregatedAmount);\r\n    event _AssignDividend(address indexed Recipient, uint Amount, uint TotalSupply);\r\n    event _Withdraw(address indexed Recipient, uint Amount);*/\r\n\r\n    // DATA /////////////////////////////////////////\r\n    // prices parameters usd\r\n    uint256[][] private _Prices;\r\n    //uint256[] private _Prices;\r\n\r\n    // last amount at which dividends where assigned for each token owner\r\n    uint256[] private _AggregatedDividendAmount;\r\n    //uint256 private _AggregatedDividendAmount;\r\n    mapping(uint256 => mapping(address => uint256)) private _lastAssigned;\r\n    //mapping(address => uint256) private _lastAssigned;\r\n\r\n    // dividends per token owner\r\n    mapping(uint256 => mapping(address => ItemsLibrary._BalanceStruct)) private _balances;\r\n    //mapping(address => ItemsLibrary._BalanceStruct) private _balances;\r\n\r\n    // MODIFIERS /////////////////////////////////////////\r\n    \r\n    // CONSTRUCTOR /////////////////////////////////////////\r\n    function Treasury_init(uint256[][] memory Prices, address managerContractAddress, address chairPerson) public initializer \r\n    {\r\n        super.StdPropositionBaseContract_init(chairPerson, managerContractAddress);\r\n        InternalupdatePrices(Prices);\r\n    }\r\n\r\n    // GOVERNANCE /////////////////////////////////////////\r\n    function checkProposition(bytes[] memory NewValues) internal override \r\n    {}\r\n\r\n    function UpdateAll() internal override\r\n    {\r\n        bytes32[] memory ProposedNewValues = PropositionsToBytes32();\r\n        uint256 PricesPerToken = UintLibrary.Bytes32ToUint(ProposedNewValues[0]);\r\n        uint256[][] memory newPrices;\r\n\r\n        for (uint256 i=1; i < ProposedNewValues.length; i++) {\r\n            uint256 paymentTokenID = (i - 1) / PricesPerToken;\r\n            uint256 PriceId = (i - 1) % PricesPerToken;\r\n            newPrices[PriceId][paymentTokenID] = UintLibrary.Bytes32ToUint(ProposedNewValues[i]);\r\n        }\r\n\r\n        InternalupdatePrices(newPrices);\r\n\r\n        emit _NewPrices(newPrices);\r\n    }\r\n\r\n    function InternalupdatePrices(uint256[][] memory Prices) internal\r\n    {\r\n        for (uint i=0; i < Prices.length; i++) {\r\n            if(i < _Prices.length)_Prices[i] = Prices[i];\r\n            else _Prices.push(Prices[i]);\r\n        }\r\n    }\r\n\r\n    // FUNCTIONALITY /////////////////////////////////////////\r\n    function onCreditReceived(address sender, uint256 amount, uint256 paymentTokenID, bytes memory data) internal override\r\n    {\r\n        if(paymentTokenID < _AggregatedDividendAmount.length) _AggregatedDividendAmount[paymentTokenID] += amount;\r\n        else _AggregatedDividendAmount.push(amount);\r\n\r\n        emit _Pay(sender, amount, _AggregatedDividendAmount[paymentTokenID], paymentTokenID);\r\n    }\r\n\r\n    function InternalonTokenBalanceChanged(address from, address to, uint256 amount) internal override\r\n    {\r\n        super.InternalonTokenBalanceChanged(from, to, amount);\r\n        if(address(0) != from) {\r\n            for(uint256 i=0; i < _AggregatedDividendAmount.length; i++){\r\n                InternalAssignDividends(from, i);\r\n            }\r\n        }\r\n        if(address(0) != to) {\r\n            for(uint256 i=0; i < _AggregatedDividendAmount.length; i++){\r\n                InternalAssignDividends(to, i);\r\n            }\r\n        }\r\n    }\r\n\r\n    function InternalAssignDividends(address recipient, uint256 paymentTokenID) internal\r\n    {\r\n        (uint totalOffBalance, uint DividendOffBalance) = sumUpTotalOffBalance(recipient, paymentTokenID);\r\n        _lastAssigned[paymentTokenID][recipient] = _AggregatedDividendAmount[paymentTokenID];\r\n        \r\n        if(totalOffBalance > 0){   \r\n           ItemsLibrary.addBalance(_balances[paymentTokenID][recipient], totalOffBalance, DividendOffBalance);\r\n           emit _AssignDividend(recipient, totalOffBalance, DividendOffBalance, paymentTokenID);\r\n        }\r\n    }\r\n\r\n    function withdraw(uint amount, uint256 paymentTokenID) external \r\n    override\r\n    {\r\n        InternalWithdraw(amount, paymentTokenID);\r\n    }\r\n\r\n    function withdrawAll(uint256 paymentTokenID) external override\r\n    {\r\n        uint All = ItemsLibrary.checkFullBalance(_balances[paymentTokenID][msg.sender]);\r\n        InternalWithdraw(All, paymentTokenID);\r\n    }\r\n\r\n    function InternalWithdraw(uint amount, uint256 paymentTokenID) internal \r\n    {\r\n        InternalAssignDividends(msg.sender, paymentTokenID);\r\n        ItemsLibrary.InternalWithdraw(\r\n            _balances[paymentTokenID][msg.sender], \r\n            amount, \r\n            msg.sender, \r\n            true, \r\n            address(IPayments(_managerContract.retrieveTransparentProxies()[uint256(Library.TransparentProxies.Payments)]).retrieveSettings()[paymentTokenID].TokenContract),\r\n            false,\r\n            bytes(\"\"),\r\n            paymentTokenID\r\n        );\r\n\r\n        emit _Withdraw(msg.sender, amount, paymentTokenID);\r\n    }\r\n\r\n    function retrieveLastAssigned(address addr, uint256 paymentTokenID) external override view returns(uint)\r\n    {\r\n        return _lastAssigned[paymentTokenID][addr];\r\n    }\r\n\r\n    function retrieveFullBalance(address addr, uint256 paymentTokenID) external override view returns(uint)\r\n    {\r\n        return ItemsLibrary.checkFullBalance(_balances[paymentTokenID][addr]);\r\n    }\r\n\r\n    function retrieveSettings() external override view returns(uint[][] memory)\r\n    {\r\n        return(_Prices);\r\n    }\r\n\r\n    function retrieveAggregatedAmount(uint256 paymentTokenID) external override view returns(uint){\r\n        return _AggregatedDividendAmount[paymentTokenID];\r\n    }\r\n\r\n    function sumUpTotal(address addr, uint256 paymentTokenID) internal view returns (uint, uint)\r\n    {\r\n        (uint totalOnBalance, uint commonDividendOnBalance) = sumUpTotalOnBalance(addr, paymentTokenID);\r\n        (uint totalOffBalance, uint DividendOffBalance) = sumUpTotalOffBalance(addr, paymentTokenID);\r\n\r\n        uint total = (totalOnBalance * DividendOffBalance) + (totalOffBalance * commonDividendOnBalance);\r\n        uint CommonDividend = commonDividendOnBalance * DividendOffBalance;\r\n\r\n        return (total, CommonDividend);\r\n    }\r\n\r\n    function sumUpTotalOnBalance(address addr, uint256 paymentTokenID) internal view returns (uint, uint)\r\n    {\r\n        return ItemsLibrary.sumUpTotal(_balances[paymentTokenID][addr]);\r\n    }\r\n\r\n    function sumUpTotalOffBalance(address addr, uint256 paymentTokenID) internal view returns (uint, uint)\r\n    {\r\n        uint total = 0;\r\n\r\n        if(_lastAssigned[paymentTokenID][addr] < _AggregatedDividendAmount[paymentTokenID])\r\n        {\r\n            total = (_AggregatedDividendAmount[paymentTokenID] - _lastAssigned[paymentTokenID][addr]) * GetTokensBalance(addr);           \r\n        }\r\n\r\n        return (total, totalSupply());\r\n    }\r\n\r\n\r\n}",
  "sourcePath": "C:\\Users\\d-aam\\GitHub\\Originals\\contracts\\MainContracts\\Treasury.sol",
  "compiler": {
    "name": "solc",
    "version": "0.8.7+commit.e28d00a7.Emscripten.clang"
  },
  "schemaVersion": "3.4.3",
  "updatedAt": "2022-02-25T10:30:31.577Z",
  "devdoc": {
    "kind": "dev",
    "methods": {},
    "version": 1
  },
  "userdoc": {
    "kind": "user",
    "methods": {},
    "version": 1
  }
}