{
  "contractName": "Treasury",
  "abi": [
    {
      "anonymous": false,
      "inputs": [
        {
          "indexed": false,
          "internalType": "uint256",
          "name": "Id",
          "type": "uint256"
        },
        {
          "indexed": true,
          "internalType": "address",
          "name": "Proposer",
          "type": "address"
        },
        {
          "indexed": false,
          "internalType": "uint256",
          "name": "Deadline",
          "type": "uint256"
        },
        {
          "indexed": false,
          "internalType": "uint256",
          "name": "Threshold",
          "type": "uint256"
        }
      ],
      "name": "_AddedProposition",
      "type": "event"
    },
    {
      "anonymous": false,
      "inputs": [
        {
          "indexed": true,
          "internalType": "address",
          "name": "Recipient",
          "type": "address"
        },
        {
          "indexed": false,
          "internalType": "uint256",
          "name": "Amount",
          "type": "uint256"
        },
        {
          "indexed": false,
          "internalType": "uint256",
          "name": "TotalSupply",
          "type": "uint256"
        }
      ],
      "name": "_AssignDividend",
      "type": "event"
    },
    {
      "anonymous": false,
      "inputs": [
        {
          "indexed": false,
          "internalType": "uint256",
          "name": "Id",
          "type": "uint256"
        },
        {
          "indexed": true,
          "internalType": "address",
          "name": "Proposer",
          "type": "address"
        }
      ],
      "name": "_CancelledProposition",
      "type": "event"
    },
    {
      "anonymous": false,
      "inputs": [
        {
          "indexed": false,
          "internalType": "uint256[]",
          "name": "Prices",
          "type": "uint256[]"
        }
      ],
      "name": "_NewPrices",
      "type": "event"
    },
    {
      "anonymous": false,
      "inputs": [
        {
          "indexed": true,
          "internalType": "address",
          "name": "Payer",
          "type": "address"
        },
        {
          "indexed": false,
          "internalType": "uint256",
          "name": "Amount",
          "type": "uint256"
        },
        {
          "indexed": false,
          "internalType": "uint256",
          "name": "AggregatedAmount",
          "type": "uint256"
        }
      ],
      "name": "_Pay",
      "type": "event"
    },
    {
      "anonymous": false,
      "inputs": [
        {
          "indexed": false,
          "internalType": "uint256",
          "name": "Id",
          "type": "uint256"
        },
        {
          "indexed": true,
          "internalType": "address",
          "name": "Proposer",
          "type": "address"
        },
        {
          "indexed": false,
          "internalType": "uint256",
          "name": "VotesFor",
          "type": "uint256"
        },
        {
          "indexed": false,
          "internalType": "uint256",
          "name": "VotesAgainst",
          "type": "uint256"
        }
      ],
      "name": "_PropositionApproved",
      "type": "event"
    },
    {
      "anonymous": false,
      "inputs": [
        {
          "indexed": false,
          "internalType": "uint256",
          "name": "Id",
          "type": "uint256"
        },
        {
          "indexed": true,
          "internalType": "address",
          "name": "Proposer",
          "type": "address"
        },
        {
          "indexed": false,
          "internalType": "uint256",
          "name": "VotesFor",
          "type": "uint256"
        },
        {
          "indexed": false,
          "internalType": "uint256",
          "name": "VotesAgainst",
          "type": "uint256"
        }
      ],
      "name": "_PropositionRejected",
      "type": "event"
    },
    {
      "anonymous": false,
      "inputs": [
        {
          "indexed": false,
          "internalType": "uint256",
          "name": "Id",
          "type": "uint256"
        },
        {
          "indexed": true,
          "internalType": "address",
          "name": "Voter",
          "type": "address"
        },
        {
          "indexed": false,
          "internalType": "bool",
          "name": "Vote",
          "type": "bool"
        },
        {
          "indexed": false,
          "internalType": "uint256",
          "name": "AmountTokens",
          "type": "uint256"
        }
      ],
      "name": "_PropositionVote",
      "type": "event"
    },
    {
      "anonymous": false,
      "inputs": [
        {
          "indexed": true,
          "internalType": "uint256",
          "name": "Id",
          "type": "uint256"
        },
        {
          "indexed": false,
          "internalType": "address",
          "name": "From",
          "type": "address"
        },
        {
          "indexed": false,
          "internalType": "address",
          "name": "To",
          "type": "address"
        },
        {
          "indexed": false,
          "internalType": "uint256",
          "name": "Amount",
          "type": "uint256"
        }
      ],
      "name": "_UsedTokensTransfered",
      "type": "event"
    },
    {
      "anonymous": false,
      "inputs": [
        {
          "indexed": true,
          "internalType": "address",
          "name": "Recipient",
          "type": "address"
        },
        {
          "indexed": false,
          "internalType": "uint256",
          "name": "Amount",
          "type": "uint256"
        }
      ],
      "name": "_Withdraw",
      "type": "event"
    },
    {
      "inputs": [
        {
          "internalType": "address",
          "name": "sender",
          "type": "address"
        },
        {
          "internalType": "uint256",
          "name": "amount",
          "type": "uint256"
        },
        {
          "internalType": "bytes",
          "name": "data",
          "type": "bytes"
        }
      ],
      "name": "CreditReceived",
      "outputs": [],
      "stateMutability": "nonpayable",
      "type": "function"
    },
    {
      "inputs": [
        {
          "internalType": "address",
          "name": "chairPerson",
          "type": "address"
        },
        {
          "internalType": "address",
          "name": "managerContractAddress",
          "type": "address"
        }
      ],
      "name": "StdPropositionBaseContract_init",
      "outputs": [],
      "stateMutability": "nonpayable",
      "type": "function"
    },
    {
      "inputs": [],
      "name": "cancelProposition",
      "outputs": [],
      "stateMutability": "nonpayable",
      "type": "function"
    },
    {
      "inputs": [
        {
          "internalType": "address",
          "name": "from",
          "type": "address"
        },
        {
          "internalType": "address",
          "name": "to",
          "type": "address"
        },
        {
          "internalType": "uint256",
          "name": "amount",
          "type": "uint256"
        }
      ],
      "name": "onTokenBalanceChanged",
      "outputs": [],
      "stateMutability": "nonpayable",
      "type": "function"
    },
    {
      "inputs": [],
      "name": "retrieveChairPerson",
      "outputs": [
        {
          "internalType": "address",
          "name": "",
          "type": "address"
        }
      ],
      "stateMutability": "view",
      "type": "function",
      "constant": true
    },
    {
      "inputs": [],
      "name": "retrieveManagerContract",
      "outputs": [
        {
          "internalType": "address",
          "name": "",
          "type": "address"
        }
      ],
      "stateMutability": "view",
      "type": "function",
      "constant": true
    },
    {
      "inputs": [],
      "name": "retrieveNextPropId",
      "outputs": [
        {
          "internalType": "uint256",
          "name": "",
          "type": "uint256"
        }
      ],
      "stateMutability": "view",
      "type": "function",
      "constant": true
    },
    {
      "inputs": [],
      "name": "retrieveProposition",
      "outputs": [
        {
          "internalType": "bytes[]",
          "name": "",
          "type": "bytes[]"
        }
      ],
      "stateMutability": "view",
      "type": "function",
      "constant": true
    },
    {
      "inputs": [],
      "name": "retrievePropositionStatus",
      "outputs": [
        {
          "internalType": "address",
          "name": "",
          "type": "address"
        },
        {
          "internalType": "uint256",
          "name": "",
          "type": "uint256"
        },
        {
          "internalType": "uint256",
          "name": "",
          "type": "uint256"
        },
        {
          "internalType": "uint256",
          "name": "",
          "type": "uint256"
        },
        {
          "internalType": "uint256",
          "name": "",
          "type": "uint256"
        }
      ],
      "stateMutability": "view",
      "type": "function",
      "constant": true
    },
    {
      "inputs": [
        {
          "internalType": "uint256",
          "name": "PropId",
          "type": "uint256"
        },
        {
          "internalType": "address",
          "name": "voter",
          "type": "address"
        }
      ],
      "name": "retrieveVotesForVoter",
      "outputs": [
        {
          "internalType": "uint256",
          "name": "",
          "type": "uint256"
        }
      ],
      "stateMutability": "view",
      "type": "function",
      "constant": true
    },
    {
      "inputs": [
        {
          "internalType": "bytes[]",
          "name": "NewValues",
          "type": "bytes[]"
        }
      ],
      "name": "sendProposition",
      "outputs": [],
      "stateMutability": "nonpayable",
      "type": "function"
    },
    {
      "inputs": [
        {
          "internalType": "bool",
          "name": "vote",
          "type": "bool"
        }
      ],
      "name": "voteProposition",
      "outputs": [],
      "stateMutability": "nonpayable",
      "type": "function"
    },
    {
      "inputs": [
        {
          "internalType": "uint256[]",
          "name": "Prices",
          "type": "uint256[]"
        },
        {
          "internalType": "address",
          "name": "managerContractAddress",
          "type": "address"
        },
        {
          "internalType": "address",
          "name": "chairPerson",
          "type": "address"
        }
      ],
      "name": "Treasury_init",
      "outputs": [],
      "stateMutability": "nonpayable",
      "type": "function"
    },
    {
      "inputs": [
        {
          "internalType": "uint256",
          "name": "amount",
          "type": "uint256"
        }
      ],
      "name": "withdraw",
      "outputs": [],
      "stateMutability": "nonpayable",
      "type": "function"
    },
    {
      "inputs": [],
      "name": "withdrawAll",
      "outputs": [],
      "stateMutability": "nonpayable",
      "type": "function"
    },
    {
      "inputs": [
        {
          "internalType": "address",
          "name": "addr",
          "type": "address"
        }
      ],
      "name": "retrieveLastAssigned",
      "outputs": [
        {
          "internalType": "uint256",
          "name": "",
          "type": "uint256"
        }
      ],
      "stateMutability": "view",
      "type": "function",
      "constant": true
    },
    {
      "inputs": [
        {
          "internalType": "address",
          "name": "addr",
          "type": "address"
        }
      ],
      "name": "retrieveFullBalance",
      "outputs": [
        {
          "internalType": "uint256",
          "name": "",
          "type": "uint256"
        }
      ],
      "stateMutability": "view",
      "type": "function",
      "constant": true
    },
    {
      "inputs": [],
      "name": "retrieveSettings",
      "outputs": [
        {
          "internalType": "uint256[]",
          "name": "",
          "type": "uint256[]"
        }
      ],
      "stateMutability": "view",
      "type": "function",
      "constant": true
    },
    {
      "inputs": [],
      "name": "retrieveAggregatedAmount",
      "outputs": [
        {
          "internalType": "uint256",
          "name": "",
          "type": "uint256"
        }
      ],
      "stateMutability": "view",
      "type": "function",
      "constant": true
    }
  ],
  "bytecode": "0x608060405234801561001057600080fd5b5061275a806100206000396000f3fe608060405234801561001057600080fd5b50600436106100f15760003560e01c806304cc67a9146100f65780632e1a7d4d1461010d5780632f02a3ec146101225780633c7df55d146101355780634044adb21461014857806355457ee91461017e5780635b362e8414610186578063840f6d17146101a6578063853828b6146101e757806391f91671146101ef578063a93316f514610202578063b049473f14610217578063b1fd23591461022c578063d5920d491461023f578063d6184d1514610247578063db85bc4d14610270578063e15aa3a614610281578063e3e956a814610294578063e83988ff146102a7575b600080fd5b6008545b6040519081526020015b60405180910390f35b61012061011b3660046122d4565b6102ba565b005b610120610130366004611fba565b6102c6565b610120610143366004611f79565b6104b6565b6100fa610156366004612306565b60009182526009602090815260408084206001600160a01b0393909316845291905290205490565b6101206105ce565b6000546201000090046001600160a01b03165b60405161010491906123a6565b600354600454600554600654600754604080516001600160a01b0390961686526020860194909452928401919091526060830152608082015260a001610104565b6101206106a8565b6101206101fd3660046122b2565b610746565b61020a610750565b60405161010491906123d4565b61021f610829565b6040516101049190612436565b61012061023a366004611f40565b610881565b600c546100fa565b6100fa610255366004611f06565b6001600160a01b03166000908152600d602052604090205490565b6001546001600160a01b0316610199565b61012061028f366004612142565b6108ff565b6101206102a23660046121f9565b610970565b6100fa6102b5366004611f06565b6109f7565b6102c381610a99565b50565b33600060029054906101000a90046001600160a01b03166001600160a01b031663e220ad956040518163ffffffff1660e01b815260040160006040518083038186803b15801561031557600080fd5b505afa158015610329573d6000803e3d6000fd5b505050506040513d6000823e601f3d908101601f191682016040526103519190810190612012565b600181518110610363576103636126e3565b60200260200101516001600160a01b0316816001600160a01b0316148061043e5750600060029054906101000a90046001600160a01b03166001600160a01b031663e220ad956040518163ffffffff1660e01b815260040160006040518083038186803b1580156103d357600080fd5b505afa1580156103e7573d6000803e3d6000fd5b505050506040513d6000823e601f3d908101601f1916820160405261040f9190810190612012565b600681518110610421576104216126e3565b60200260200101516001600160a01b0316816001600160a01b0316145b6104a55760405162461bcd60e51b815260206004820152602d60248201527f4974206973206e6f742066726f6d206f6e65206f66207468652063657274696660448201526c69656420636f6e74726163747360981b60648201526084015b60405180910390fd5b6104b0848484610c7b565b50505050565b3373__Library_______________________________6337ea306382600060029054906101000a90046001600160a01b03166001600160a01b031663e220ad956040518163ffffffff1660e01b815260040160006040518083038186803b15801561052057600080fd5b505afa158015610534573d6000803e3d6000fd5b505050506040513d6000823e601f3d908101601f1916820160405261055c9190810190612012565b60038151811061056e5761056e6126e3565b60200260200101516040518363ffffffff1660e01b81526004016105939291906123ba565b60006040518083038186803b1580156105ab57600080fd5b505af41580156105bf573d6000803e3d6000fd5b505050506104b0848484610ce4565b60016105d981610d1f565b6003546040516337ea306360e01b8152339173__Library_______________________________916337ea30639161061f9185916001600160a01b0316906004016123ba565b60006040518083038186803b15801561063757600080fd5b505af415801561064b573d6000803e3d6000fd5b50505050610657610da3565b61065f610dad565b6003546002546040519081526001600160a01b03909116907f1fe8aec10c0a50fa765076161e08c1f961ced69594ff45cf7d559f593afe14799060200160405180910390a25050565b336000908152600e602052604080822090516326162dc360e01b8152600481019190915273__ItemsLibrary__________________________906326162dc39060240160206040518083038186803b15801561070357600080fd5b505af4158015610717573d6000803e3d6000fd5b505050506040513d601f19601f8201168201806040525081019061073b91906122ed565b90506102c381610a99565b6102c33382610dd8565b6060600a805480602002602001604051908101604052809291908181526020016000905b828210156108205783829060005260206000200180546107939061267d565b80601f01602080910402602001604051908101604052809291908181526020018280546107bf9061267d565b801561080c5780601f106107e15761010080835404028352916020019161080c565b820191906000526020600020905b8154815290600101906020018083116107ef57829003601f168201915b505050505081526020019060010190610774565b50505050905090565b6060600b80548060200260200160405190810160405280929190818152602001828054801561087757602002820191906000526020600020905b815481526020019060010190808311610863575b5050505050905090565b600054610100900460ff1661089c5760005460ff16156108a0565b303b155b6108bc5760405162461bcd60e51b815260040161049c90612522565b600054610100900460ff161580156108de576000805461ffff19166101011790555b6108e88383610ef0565b80156108fa576000805461ff00191690555b505050565b610907610f8c565b60005b815181101561096c57600a828281518110610927576109276126e3565b602090810291909101810151825460018101845560009384529282902081516109599491909101929190910190611d79565b5080610964816126b2565b91505061090a565b5050565b600054610100900460ff1661098b5760005460ff161561098f565b303b155b6109ab5760405162461bcd60e51b815260040161049c90612522565b600054610100900460ff161580156109cd576000805461ffff19166101011790555b6109d78284610881565b6109e0846112db565b80156104b0576000805461ff001916905550505050565b6001600160a01b0381166000908152600e602052604080822090516326162dc360e01b8152600481019190915273__ItemsLibrary__________________________906326162dc39060240160206040518083038186803b158015610a5b57600080fd5b505af4158015610a6f573d6000803e3d6000fd5b505050506040513d601f19601f82011682018060405250810190610a9391906122ed565b92915050565b610aa233611375565b336000818152600e60205260408082208254825163e220ad9560e01b8152925173__ItemsLibrary__________________________9563a86af8fc95939488949193600193620100009091046001600160a01b03169263e220ad959260048082019391829003018186803b158015610b1957600080fd5b505afa158015610b2d573d6000803e3d6000fd5b505050506040513d6000823e601f3d908101601f19168201604052610b559190810190612012565b600681518110610b6757610b676126e3565b60200260200101516001600160a01b031663b049473f6040518163ffffffff1660e01b815260040160206040518083038186803b158015610ba757600080fd5b505afa158015610bbb573d6000803e3d6000fd5b505050506040513d601f19601f82011682018060405250810190610bdf9190611f23565b6000604051806020016040528060008152506040518863ffffffff1660e01b8152600401610c139796959493929190612570565b60006040518083038186803b158015610c2b57600080fd5b505af4158015610c3f573d6000803e3d6000fd5b50506040518381523392507f732ea8a38f70c2018ed8dfd6e97bf6381f60102061beae0ac4d9a5abd15a0602915060200160405180910390a250565b81600c6000828254610c8d919061262f565b9091555050600c546040516001600160a01b038516917faef711f818f5d24f55a9c2d7da0afa5edd0420e1505ff8e60c344ce836e3e86e91610cd791868252602082015260400190565b60405180910390a2505050565b610cef83838361146c565b6001600160a01b03831615610d0757610d0783611375565b6001600160a01b038216156108fa576108fa82611375565b8015610d6657610d2d611489565b15156001146102c35760405162461bcd60e51b8152602060048201526005602482015264454332352d60d81b604482015260640161049c565b610d6e611489565b156102c35760405162461bcd60e51b8152602060048201526005602482015264454332342d60d81b604482015260640161049c565b610dab6114c3565b565b60006002819055600380546001600160a01b0319169055600481905560058190556006819055600755565b6001610de381610d1f565b60025483906000610df483836114cf565b905060008111610e2e5760405162461bcd60e51b8152602060048201526005602482015264454332332d60d81b604482015260640161049c565b6000610e3f876002600001546114cf565b90508515610e67578060026004016000828254610e5c919061262f565b90915550610e829050565b8060026005016000828254610e7c919061262f565b90915550505b600254610e9090888361150c565b60025460408051918252871515602083015281018290526001600160a01b038816907f50f654d58981575c05e369cb129aeacb01e1b036af429380242cfc5d1a4b743f9060600160405180910390a2610ee7611548565b50505050505050565b600054610100900460ff16610f0b5760005460ff1615610f0f565b303b155b610f2b5760405162461bcd60e51b815260040161049c90612522565b600054610100900460ff16158015610f4d576000805461ffff19166101011790555b610f568261161c565b600180546001600160a01b0319166001600160a01b038516179055600060085580156108fa576000805461ff0019169055505050565b6000610f9781610d1f565b60015433906000906001600160a01b0316821415610fb7575060016110ed565b6000610fc2836116b0565b905060008060029054906101000a90046001600160a01b03166001600160a01b031663e220ad956040518163ffffffff1660e01b815260040160006040518083038186803b15801561101357600080fd5b505afa158015611027573d6000803e3d6000fd5b505050506040513d6000823e601f3d908101601f1916820160405261104f9190810190612012565b600481518110611061576110616126e3565b60200260200101516001600160a01b031663b049473f6040518163ffffffff1660e01b815260040160606040518083038186803b1580156110a157600080fd5b505afa1580156110b5573d6000803e3d6000fd5b505050506040513d601f19601f820116820180604052508101906110d9919061232b565b92505050808211156110ea57600192505b50505b6001811515146111275760405162461bcd60e51b8152602060048201526005602482015264454332322d60d81b604482015260640161049c565b600080600060029054906101000a90046001600160a01b03166001600160a01b031663e220ad956040518163ffffffff1660e01b815260040160006040518083038186803b15801561117857600080fd5b505afa15801561118c573d6000803e3d6000fd5b505050506040513d6000823e601f3d908101601f191682016040526111b49190810190612012565b6004815181106111c6576111c66126e3565b60200260200101516001600160a01b031663b049473f6040518163ffffffff1660e01b815260040160606040518083038186803b15801561120657600080fd5b505afa15801561121a573d6000803e3d6000fd5b505050506040513d601f19601f8201168201806040525081019061123e919061232b565b50600380546001600160a01b031916331790559092509050611260824261262f565b600455600581905560088054600281905590600061127d836126b2565b90915550506003546002546004546005546040516001600160a01b03909416937f472501d19bf75639b2e316cd36f8568b0c3ab943b82a87de3c086c98c1929df9936112cc93909290916125c6565b60405180910390a25050505050565b60005b815181101561096c57600b5481101561132f57818181518110611303576113036126e3565b6020026020010151600b828154811061131e5761131e6126e3565b600091825260209091200155611363565b600b828281518110611343576113436126e3565b602090810291909101810151825460018101845560009384529190922001555b8061136d816126b2565b9150506112de565b600080611381836117ac565b600c546001600160a01b0386166000908152600d6020526040902055909250905081156108fa576001600160a01b0383166000908152600e6020526040908190209051633833532760e01b815273__ItemsLibrary__________________________916338335327916113fb9190869086906004016125c6565b60006040518083038186803b15801561141357600080fd5b505af4158015611427573d6000803e3d6000fd5b505060408051858152602081018590526001600160a01b03871693507fe983a49d27e04c64952da756088988cab0349d02969d01e8fecd907888b2e120925001610cd7565b611474611489565b1515600114156108fa576108fa838383611823565b60045460009042101561149c5750600190565b6003546001600160a01b0316156114bd576114b5610da3565b6114bd610dad565b50600090565b610dab600a6000611dfd565b60008181526009602090815260408083206001600160a01b03861684529091528120546114fb846116b0565b6115059190612666565b9392505050565b60008381526009602090815260408083206001600160a01b03861684529091528120805483929061153e90849061262f565b9091555050505050565b600554600654106115b75761155b611993565b611563610dad565b6003546002546006546007546040516001600160a01b03909416937f23ca0034cf5aad32571b4a492e9598ea8a490e1643a60970e3cdc6933b55e49f936115ad93909290916125c6565b60405180910390a2565b60055460075410610dab576115ca610da3565b6115d2610dad565b6003546002546006546007546040516001600160a01b03909416937fa58eb6daa3c62c3f883973c4035e5bd3e81aa627c8379de068a7de42df122be2936115ad93909290916125c6565b600054610100900460ff166116375760005460ff161561163b565b303b155b6116575760405162461bcd60e51b815260040161049c90612522565b600054610100900460ff16158015611679576000805461ffff19166101011790555b6000805462010000600160b01b031916620100006001600160a01b03851602179055801561096c576000805461ff00191690555050565b60008060029054906101000a90046001600160a01b03166001600160a01b031663e220ad956040518163ffffffff1660e01b815260040160006040518083038186803b1580156116ff57600080fd5b505afa158015611713573d6000803e3d6000fd5b505050506040513d6000823e601f3d908101601f1916820160405261173b9190810190612012565b60038151811061174d5761174d6126e3565b60200260200101516001600160a01b03166370a08231836040518263ffffffff1660e01b815260040161178091906123a6565b60206040518083038186803b15801561179857600080fd5b505afa158015610a6f573d6000803e3d6000fd5b600c546001600160a01b0382166000908152600d60205260408120549091829182911115611810576117dd846116b0565b6001600160a01b0385166000908152600d6020526040902054600c546118039190612666565b61180d9190612647565b90505b8061181961199b565b9250925050915091565b6001600160a01b0383161580159061185f575060025460009081526009602090815260408083206001600160a01b038716845290915290205415155b156108fa5760025460009081526009602090815260408083206001600160a01b038716845290915290205481908111156118bb575060025460009081526009602090815260408083206001600160a01b03871684529091529020545b60025460009081526009602090815260408083206001600160a01b0388168452909152812080548392906118f0908490612666565b90915550506001600160a01b0383161561193f5760025460009081526009602090815260408083206001600160a01b03871684529091528120805483929061193990849061262f565b90915550505b600254604080516001600160a01b038088168252861660208201529081018390527f65fbd5e5dd32bea4aeca85bd0be0abf0e489d655dee888a7510d43b06dda2dba9060600160405180910390a250505050565b610da3611ab5565b60008060029054906101000a90046001600160a01b03166001600160a01b031663e220ad956040518163ffffffff1660e01b815260040160006040518083038186803b1580156119ea57600080fd5b505afa1580156119fe573d6000803e3d6000fd5b505050506040513d6000823e601f3d908101601f19168201604052611a269190810190612012565b600381518110611a3857611a386126e3565b60200260200101516001600160a01b03166318160ddd6040518163ffffffff1660e01b815260040160206040518083038186803b158015611a7857600080fd5b505afa158015611a8c573d6000803e3d6000fd5b505050506040513d601f19601f82011682018060405250810190611ab091906122ed565b905090565b6000611abf611c2a565b9050600081516001600160401b03811115611adc57611adc6126f9565b604051908082528060200260200182016040528015611b05578160200160208202803683370190505b50905060005b8251811015611be55773__UintLibrary___________________________630bd4715e848381518110611b4057611b406126e3565b60200260200101516040518263ffffffff1660e01b8152600401611b6691815260200190565b60206040518083038186803b158015611b7e57600080fd5b505af4158015611b92573d6000803e3d6000fd5b505050506040513d601f19601f82011682018060405250810190611bb691906122ed565b828281518110611bc857611bc86126e3565b602090810291909101015280611bdd816126b2565b915050611b0b565b50611bef816112db565b7f58ac3d73cbdfbf2104d2d20803e05d2eb9094831c3a2d07280a4e11962e3ce9881604051611c1e9190612436565b60405180910390a15050565b600a546060906000906001600160401b03811115611c4a57611c4a6126f9565b604051908082528060200260200182016040528015611c73578160200160208202803683370190505b50905060005b600a54811015611d735773__Library_______________________________63caa8f589600a8381548110611cb057611cb06126e3565b906000526020600020016040518263ffffffff1660e01b8152600401611cd6919061247a565b60006040518083038186803b158015611cee57600080fd5b505af4158015611d02573d6000803e3d6000fd5b505050506040513d6000823e601f3d908101601f19168201604052611d2a91908101906120b7565b600081518110611d3c57611d3c6126e3565b6020026020010151828281518110611d5657611d566126e3565b602090810291909101015280611d6b816126b2565b915050611c79565b50919050565b828054611d859061267d565b90600052602060002090601f016020900481019282611da75760008555611ded565b82601f10611dc057805160ff1916838001178555611ded565b82800160010185558215611ded579182015b82811115611ded578251825591602001919060010190611dd2565b50611df9929150611e1b565b5090565b50805460008255906000526020600020908101906102c39190611e30565b5b80821115611df95760008155600101611e1c565b80821115611df9576000611e448282611e4d565b50600101611e30565b508054611e599061267d565b6000825580601f10611e69575050565b601f0160209004906000526020600020908101906102c39190611e1b565b8035611e928161270f565b919050565b600082601f830112611ea857600080fd5b81356001600160401b03811115611ec157611ec16126f9565b611ed4601f8201601f19166020016125dc565b818152846020838601011115611ee957600080fd5b816020850160208301376000918101602001919091529392505050565b600060208284031215611f1857600080fd5b81356115058161270f565b600060208284031215611f3557600080fd5b81516115058161270f565b60008060408385031215611f5357600080fd5b8235611f5e8161270f565b91506020830135611f6e8161270f565b809150509250929050565b600080600060608486031215611f8e57600080fd5b8335611f998161270f565b92506020840135611fa98161270f565b929592945050506040919091013590565b600080600060608486031215611fcf57600080fd5b8335611fda8161270f565b92506020840135915060408401356001600160401b03811115611ffc57600080fd5b61200886828701611e97565b9150509250925092565b6000602080838503121561202557600080fd5b82516001600160401b0381111561203b57600080fd5b8301601f8101851361204c57600080fd5b805161205f61205a8261260c565b6125dc565b80828252848201915084840188868560051b870101111561207f57600080fd5b600094505b838510156120ab5780516120978161270f565b835260019490940193918501918501612084565b50979650505050505050565b600060208083850312156120ca57600080fd5b82516001600160401b038111156120e057600080fd5b8301601f810185136120f157600080fd5b80516120ff61205a8261260c565b80828252848201915084840188868560051b870101111561211f57600080fd5b600094505b838510156120ab578051835260019490940193918501918501612124565b6000602080838503121561215557600080fd5b82356001600160401b038082111561216c57600080fd5b818501915085601f83011261218057600080fd5b813561218e61205a8261260c565b80828252858201915085850189878560051b88010111156121ae57600080fd5b6000805b858110156121e9578235878111156121c8578283fd5b6121d68d8b838c0101611e97565b86525093880193918801916001016121b2565b50919a9950505050505050505050565b60008060006060848603121561220e57600080fd5b83356001600160401b0381111561222457600080fd5b8401601f8101861361223557600080fd5b8035602061224561205a8361260c565b8083825282820191508285018a848660051b880101111561226557600080fd5b600095505b8486101561228857803583526001959095019491830191830161226a565b5096506122989050878201611e87565b94505050506122a960408501611e87565b90509250925092565b6000602082840312156122c457600080fd5b8135801515811461150557600080fd5b6000602082840312156122e657600080fd5b5035919050565b6000602082840312156122ff57600080fd5b5051919050565b6000806040838503121561231957600080fd5b823591506020830135611f6e8161270f565b60008060006060848603121561234057600080fd5b8351925060208401519150604084015190509250925092565b6000815180845260005b8181101561237f57602081850181015186830182015201612363565b81811115612391576000602083870101525b50601f01601f19169290920160200192915050565b6001600160a01b0391909116815260200190565b6001600160a01b0392831681529116602082015260400190565b6000602080830181845280855180835260408601915060408160051b870101925083870160005b8281101561242957603f19888603018452612417858351612359565b945092850192908501906001016123fb565b5092979650505050505050565b6020808252825182820181905260009190848201906040850190845b8181101561246e57835183529284019291840191600101612452565b50909695505050505050565b600060208083526000845481600182811c91508083168061249c57607f831692505b8583108114156124ba57634e487b7160e01b85526022600452602485fd5b8786018381526020018180156124d757600181146124e857612513565b60ff19861682528782019650612513565b60008b81526020902060005b8681101561250d578154848201529085019089016124f4565b83019750505b50949998505050505050505050565b6020808252602e908201527f496e697469616c697a61626c653a20636f6e747261637420697320616c72656160408201526d191e481a5b9a5d1a585b1a5e995960921b606082015260800190565b878152602081018790526001600160a01b03868116604083015285151560608301528416608082015282151560a082015260e060c082018190526000906125b990830184612359565b9998505050505050505050565b9283526020830191909152604082015260600190565b604051601f8201601f191681016001600160401b0381118282101715612604576126046126f9565b604052919050565b60006001600160401b03821115612625576126256126f9565b5060051b60200190565b60008219821115612642576126426126cd565b500190565b6000816000190483118215151615612661576126616126cd565b500290565b600082821015612678576126786126cd565b500390565b600181811c9082168061269157607f821691505b60208210811415611d7357634e487b7160e01b600052602260045260246000fd5b60006000198214156126c6576126c66126cd565b5060010190565b634e487b7160e01b600052601160045260246000fd5b634e487b7160e01b600052603260045260246000fd5b634e487b7160e01b600052604160045260246000fd5b6001600160a01b03811681146102c357600080fdfea26469706673582212208728968c470bcb89ea9b62f368b74224bfd360a3ec75877b63d40e8ad08e867d64736f6c63430008070033",
  "immutableReferences": {},
  "source": "// SPDX-License-Identifier: GPL-3.0\r\n\r\npragma solidity 0.8.7;\r\n\r\n/**\r\n Treasury receives all the payments and assigns dividends to token holders.\r\n Public Certificate Pool contract can ask for its owners to eb refunded even if they do not own tokens.\r\n\r\n First dividends must be assigned to an account and then the account owner can withdraw the funds.\r\n Both actions must be triggered by the account owner.\r\n\r\n  Events : \r\n    - New Prices Added : list of prices\r\n    - Payment recieved : payer, amount, new total aggregated contract amount\r\n    - Refund : who, amount, among how many\r\n    - Assign Dividends : who, amount (number of tokens), among how many (total supply)\r\n    - Withdraw : who, how much\r\n */\r\n\r\nimport \"../Interfaces/ITreasury.sol\";\r\nimport \"../Libraries/UintLibrary.sol\";\r\nimport \"../Libraries/ItemsLibrary.sol\";\r\nimport \"../Libraries/Library.sol\";\r\nimport \"../Base/StdPropositionBaseContract.sol\";\r\nimport \"@openzeppelin/contracts-upgradeable/token/ERC20/IERC20Upgradeable.sol\";\r\nimport \"../Base/CreditorBaseContract.sol\";\r\nimport \"../Interfaces/IPayments.sol\";\r\n\r\n\r\ncontract Treasury is ITreasury, StdPropositionBaseContract, CreditorBaseContract{\r\n    using Library for *;\r\n    using UintLibrary for *;\r\n    using ItemsLibrary for *;\r\n\r\n    // EVENTS /////////////////////////////////////////\r\n    event _NewPrices(uint[] Prices);\r\n    event _Pay(address indexed Payer, uint Amount, uint AggregatedAmount);\r\n    event _AssignDividend(address indexed Recipient, uint Amount, uint TotalSupply);\r\n    event _Withdraw(address indexed Recipient, uint Amount);\r\n\r\n    // DATA /////////////////////////////////////////\r\n    // prices parameters usd\r\n    uint256[] private _Prices;\r\n\r\n    // last amount at which dividends where assigned for each token owner\r\n    uint256 private _AggregatedDividendAmount;\r\n    mapping(address => uint256) private _lastAssigned;\r\n\r\n    // dividends per token owner\r\n    mapping(address => ItemsLibrary._BalanceStruct) private _balances;\r\n\r\n    // MODIFIERS /////////////////////////////////////////\r\n    \r\n    // CONSTRUCTOR /////////////////////////////////////////\r\n    function Treasury_init(uint256[] memory Prices, address managerContractAddress, address chairPerson) public initializer \r\n    {\r\n        super.StdPropositionBaseContract_init(chairPerson, managerContractAddress);\r\n        InternalupdatePrices(Prices);\r\n    }\r\n\r\n    // GOVERNANCE /////////////////////////////////////////\r\n    function checkProposition(bytes[] memory NewValues) internal override \r\n    {}\r\n\r\n    function UpdateAll() internal override\r\n    {\r\n        bytes32[] memory ProposedNewValues = PropositionsToBytes32();\r\n        uint256[] memory newPrices = new uint256[](ProposedNewValues.length);\r\n\r\n        for (uint i=0; i < ProposedNewValues.length; i++) {\r\n            newPrices[i] = UintLibrary.Bytes32ToUint(ProposedNewValues[i]);\r\n        }\r\n\r\n        InternalupdatePrices(newPrices);\r\n\r\n        emit _NewPrices(newPrices);\r\n    }\r\n\r\n    function InternalupdatePrices(uint256[] memory Prices) internal\r\n    {\r\n        for (uint i=0; i < Prices.length; i++) {\r\n            if(i < _Prices.length)_Prices[i] = Prices[i];\r\n            else _Prices.push(Prices[i]);\r\n        }\r\n    }\r\n\r\n    // FUNCTIONALITY /////////////////////////////////////////\r\n    function onCreditReceived(address sender, uint256 amount, bytes memory data) internal override\r\n    {\r\n        _AggregatedDividendAmount += amount;\r\n\r\n        emit _Pay(sender, amount, _AggregatedDividendAmount);\r\n    }\r\n\r\n    function InternalonTokenBalanceChanged(address from, address to, uint256 amount) internal override\r\n    {\r\n        super.InternalonTokenBalanceChanged(from, to, amount);\r\n        if(address(0) != from) InternalAssignDividends(from);\r\n        if(address(0) != to) InternalAssignDividends(to);\r\n    }\r\n\r\n    function InternalAssignDividends(address recipient) internal\r\n    {\r\n        (uint totalOffBalance, uint DividendOffBalance) = sumUpTotalOffBalance(recipient);\r\n        _lastAssigned[recipient] = _AggregatedDividendAmount;\r\n        \r\n        if(totalOffBalance > 0){   \r\n           ItemsLibrary.addBalance(_balances[recipient], totalOffBalance, DividendOffBalance);\r\n           emit _AssignDividend(recipient, totalOffBalance, DividendOffBalance);\r\n        }\r\n    }\r\n\r\n    function withdraw(uint amount) external \r\n    override\r\n    {\r\n        InternalWithdraw(amount);\r\n    }\r\n\r\n    function withdrawAll() external override\r\n    {\r\n        uint All = ItemsLibrary.checkFullBalance(_balances[msg.sender]);\r\n        InternalWithdraw(All);\r\n    }\r\n\r\n    function InternalWithdraw(uint amount) internal \r\n    {\r\n        InternalAssignDividends(msg.sender);\r\n        ItemsLibrary.InternalWithdraw(\r\n            _balances[msg.sender], \r\n            amount, \r\n            msg.sender, \r\n            true, \r\n            IPayments(_managerContract.retrieveTransparentProxies()[uint256(Library.TransparentProxies.Payments)]).retrieveSettings(),\r\n            false,\r\n            bytes(\"\")\r\n        );\r\n\r\n        emit _Withdraw(msg.sender, amount);\r\n    }\r\n\r\n    function retrieveLastAssigned(address addr) external override view returns(uint)\r\n    {\r\n        return _lastAssigned[addr];\r\n    }\r\n\r\n    function retrieveFullBalance(address addr) external override view returns(uint)\r\n    {\r\n        return ItemsLibrary.checkFullBalance(_balances[addr]);\r\n    }\r\n\r\n    function retrieveSettings() external override view returns(uint[] memory)\r\n    {\r\n        return(_Prices);\r\n    }\r\n\r\n    function retrieveAggregatedAmount() external override view returns(uint){\r\n        return _AggregatedDividendAmount;\r\n    }\r\n\r\n    function sumUpTotal(address addr) internal view returns (uint, uint)\r\n    {\r\n        (uint totalOnBalance, uint commonDividendOnBalance) = sumUpTotalOnBalance(addr);\r\n        (uint totalOffBalance, uint DividendOffBalance) = sumUpTotalOffBalance(addr);\r\n\r\n        uint total = (totalOnBalance * DividendOffBalance) + (totalOffBalance * commonDividendOnBalance);\r\n        uint CommonDividend = commonDividendOnBalance * DividendOffBalance;\r\n\r\n        return (total, CommonDividend);\r\n    }\r\n\r\n    function sumUpTotalOnBalance(address addr) internal view returns (uint, uint)\r\n    {\r\n        return ItemsLibrary.sumUpTotal(_balances[addr]);\r\n    }\r\n\r\n    function sumUpTotalOffBalance(address addr) internal view returns (uint, uint)\r\n    {\r\n        uint total = 0;\r\n\r\n        if(_lastAssigned[addr] < _AggregatedDividendAmount)\r\n        {\r\n            total = (_AggregatedDividendAmount - _lastAssigned[addr]) * GetTokensBalance(addr);           \r\n        }\r\n\r\n        return (total, totalSupply());\r\n    }\r\n\r\n\r\n}",
  "sourcePath": "C:\\Users\\d-aam\\GitHub\\Originals\\contracts\\MainContracts\\Treasury.sol",
  "compiler": {
    "name": "solc",
    "version": "0.8.7+commit.e28d00a7.Emscripten.clang"
  },
  "schemaVersion": "3.4.3",
  "updatedAt": "2022-02-24T07:26:56.687Z",
  "networkType": "ethereum",
  "devdoc": {
    "kind": "dev",
    "methods": {},
    "version": 1
  },
  "userdoc": {
    "kind": "user",
    "methods": {},
    "version": 1
  }
}