{
  "contractName": "Treasury",
  "abi": [
    {
      "anonymous": false,
      "inputs": [
        {
          "indexed": false,
          "internalType": "uint256",
          "name": "Id",
          "type": "uint256"
        },
        {
          "indexed": true,
          "internalType": "address",
          "name": "Proposer",
          "type": "address"
        },
        {
          "indexed": false,
          "internalType": "uint256",
          "name": "Deadline",
          "type": "uint256"
        },
        {
          "indexed": false,
          "internalType": "uint256",
          "name": "Threshold",
          "type": "uint256"
        }
      ],
      "name": "_AddedProposition",
      "type": "event"
    },
    {
      "anonymous": false,
      "inputs": [
        {
          "indexed": true,
          "internalType": "address",
          "name": "Recipient",
          "type": "address"
        },
        {
          "indexed": false,
          "internalType": "uint256",
          "name": "Amount",
          "type": "uint256"
        },
        {
          "indexed": false,
          "internalType": "uint256",
          "name": "TotalSupply",
          "type": "uint256"
        }
      ],
      "name": "_AssignDividend",
      "type": "event"
    },
    {
      "anonymous": false,
      "inputs": [
        {
          "indexed": false,
          "internalType": "uint256",
          "name": "Id",
          "type": "uint256"
        },
        {
          "indexed": true,
          "internalType": "address",
          "name": "Proposer",
          "type": "address"
        }
      ],
      "name": "_CancelledProposition",
      "type": "event"
    },
    {
      "anonymous": false,
      "inputs": [
        {
          "indexed": false,
          "internalType": "uint256[]",
          "name": "Prices",
          "type": "uint256[]"
        }
      ],
      "name": "_NewPrices",
      "type": "event"
    },
    {
      "anonymous": false,
      "inputs": [
        {
          "indexed": true,
          "internalType": "address",
          "name": "Payer",
          "type": "address"
        },
        {
          "indexed": false,
          "internalType": "uint256",
          "name": "Amount",
          "type": "uint256"
        },
        {
          "indexed": false,
          "internalType": "uint256",
          "name": "AggregatedAmount",
          "type": "uint256"
        }
      ],
      "name": "_Pay",
      "type": "event"
    },
    {
      "anonymous": false,
      "inputs": [
        {
          "indexed": false,
          "internalType": "uint256",
          "name": "Id",
          "type": "uint256"
        },
        {
          "indexed": true,
          "internalType": "address",
          "name": "Proposer",
          "type": "address"
        },
        {
          "indexed": false,
          "internalType": "uint256",
          "name": "VotesFor",
          "type": "uint256"
        },
        {
          "indexed": false,
          "internalType": "uint256",
          "name": "VotesAgainst",
          "type": "uint256"
        }
      ],
      "name": "_PropositionApproved",
      "type": "event"
    },
    {
      "anonymous": false,
      "inputs": [
        {
          "indexed": false,
          "internalType": "uint256",
          "name": "Id",
          "type": "uint256"
        },
        {
          "indexed": true,
          "internalType": "address",
          "name": "Proposer",
          "type": "address"
        },
        {
          "indexed": false,
          "internalType": "uint256",
          "name": "VotesFor",
          "type": "uint256"
        },
        {
          "indexed": false,
          "internalType": "uint256",
          "name": "VotesAgainst",
          "type": "uint256"
        }
      ],
      "name": "_PropositionRejected",
      "type": "event"
    },
    {
      "anonymous": false,
      "inputs": [
        {
          "indexed": false,
          "internalType": "uint256",
          "name": "Id",
          "type": "uint256"
        },
        {
          "indexed": true,
          "internalType": "address",
          "name": "Voter",
          "type": "address"
        },
        {
          "indexed": false,
          "internalType": "bool",
          "name": "Vote",
          "type": "bool"
        },
        {
          "indexed": false,
          "internalType": "uint256",
          "name": "AmountTokens",
          "type": "uint256"
        }
      ],
      "name": "_PropositionVote",
      "type": "event"
    },
    {
      "anonymous": false,
      "inputs": [
        {
          "indexed": true,
          "internalType": "uint256",
          "name": "Id",
          "type": "uint256"
        },
        {
          "indexed": false,
          "internalType": "address",
          "name": "From",
          "type": "address"
        },
        {
          "indexed": false,
          "internalType": "address",
          "name": "To",
          "type": "address"
        },
        {
          "indexed": false,
          "internalType": "uint256",
          "name": "Amount",
          "type": "uint256"
        }
      ],
      "name": "_UsedTokensTransfered",
      "type": "event"
    },
    {
      "anonymous": false,
      "inputs": [
        {
          "indexed": true,
          "internalType": "address",
          "name": "Recipient",
          "type": "address"
        },
        {
          "indexed": false,
          "internalType": "uint256",
          "name": "Amount",
          "type": "uint256"
        }
      ],
      "name": "_Withdraw",
      "type": "event"
    },
    {
      "inputs": [
        {
          "internalType": "address",
          "name": "chairPerson",
          "type": "address"
        },
        {
          "internalType": "address",
          "name": "managerContractAddress",
          "type": "address"
        }
      ],
      "name": "StdPropositionBaseContract_init",
      "outputs": [],
      "stateMutability": "nonpayable",
      "type": "function"
    },
    {
      "inputs": [],
      "name": "cancelProposition",
      "outputs": [],
      "stateMutability": "nonpayable",
      "type": "function"
    },
    {
      "inputs": [
        {
          "internalType": "address",
          "name": "from",
          "type": "address"
        },
        {
          "internalType": "address",
          "name": "to",
          "type": "address"
        },
        {
          "internalType": "uint256",
          "name": "amount",
          "type": "uint256"
        }
      ],
      "name": "onTokenBalanceChanged",
      "outputs": [],
      "stateMutability": "nonpayable",
      "type": "function"
    },
    {
      "inputs": [],
      "name": "retrieveChairPerson",
      "outputs": [
        {
          "internalType": "address",
          "name": "",
          "type": "address"
        }
      ],
      "stateMutability": "view",
      "type": "function"
    },
    {
      "inputs": [],
      "name": "retrieveManagerContract",
      "outputs": [
        {
          "internalType": "address",
          "name": "",
          "type": "address"
        }
      ],
      "stateMutability": "view",
      "type": "function"
    },
    {
      "inputs": [],
      "name": "retrieveNextPropId",
      "outputs": [
        {
          "internalType": "uint256",
          "name": "",
          "type": "uint256"
        }
      ],
      "stateMutability": "view",
      "type": "function"
    },
    {
      "inputs": [],
      "name": "retrieveProposition",
      "outputs": [
        {
          "internalType": "bytes[]",
          "name": "",
          "type": "bytes[]"
        }
      ],
      "stateMutability": "view",
      "type": "function"
    },
    {
      "inputs": [],
      "name": "retrievePropositionStatus",
      "outputs": [
        {
          "internalType": "address",
          "name": "",
          "type": "address"
        },
        {
          "internalType": "uint256",
          "name": "",
          "type": "uint256"
        },
        {
          "internalType": "uint256",
          "name": "",
          "type": "uint256"
        },
        {
          "internalType": "uint256",
          "name": "",
          "type": "uint256"
        },
        {
          "internalType": "uint256",
          "name": "",
          "type": "uint256"
        }
      ],
      "stateMutability": "view",
      "type": "function"
    },
    {
      "inputs": [
        {
          "internalType": "uint256",
          "name": "PropId",
          "type": "uint256"
        },
        {
          "internalType": "address",
          "name": "voter",
          "type": "address"
        }
      ],
      "name": "retrieveVotesForVoter",
      "outputs": [
        {
          "internalType": "uint256",
          "name": "",
          "type": "uint256"
        }
      ],
      "stateMutability": "view",
      "type": "function"
    },
    {
      "inputs": [
        {
          "internalType": "bytes[]",
          "name": "NewValues",
          "type": "bytes[]"
        }
      ],
      "name": "sendProposition",
      "outputs": [],
      "stateMutability": "nonpayable",
      "type": "function"
    },
    {
      "inputs": [
        {
          "internalType": "bool",
          "name": "vote",
          "type": "bool"
        }
      ],
      "name": "voteProposition",
      "outputs": [],
      "stateMutability": "nonpayable",
      "type": "function"
    },
    {
      "inputs": [
        {
          "internalType": "uint256[]",
          "name": "Prices",
          "type": "uint256[]"
        },
        {
          "internalType": "address",
          "name": "managerContractAddress",
          "type": "address"
        },
        {
          "internalType": "address",
          "name": "chairPerson",
          "type": "address"
        }
      ],
      "name": "Treasury_init",
      "outputs": [],
      "stateMutability": "nonpayable",
      "type": "function"
    },
    {
      "inputs": [],
      "name": "pay",
      "outputs": [],
      "stateMutability": "payable",
      "type": "function"
    },
    {
      "inputs": [
        {
          "internalType": "uint256",
          "name": "amount",
          "type": "uint256"
        }
      ],
      "name": "withdraw",
      "outputs": [],
      "stateMutability": "nonpayable",
      "type": "function"
    },
    {
      "inputs": [],
      "name": "withdrawAll",
      "outputs": [],
      "stateMutability": "nonpayable",
      "type": "function"
    },
    {
      "inputs": [
        {
          "internalType": "address",
          "name": "addr",
          "type": "address"
        }
      ],
      "name": "retrieveLastAssigned",
      "outputs": [
        {
          "internalType": "uint256",
          "name": "",
          "type": "uint256"
        }
      ],
      "stateMutability": "view",
      "type": "function"
    },
    {
      "inputs": [
        {
          "internalType": "address",
          "name": "addr",
          "type": "address"
        }
      ],
      "name": "retrieveFullBalance",
      "outputs": [
        {
          "internalType": "uint256",
          "name": "",
          "type": "uint256"
        }
      ],
      "stateMutability": "view",
      "type": "function"
    },
    {
      "inputs": [],
      "name": "retrieveSettings",
      "outputs": [
        {
          "internalType": "uint256[]",
          "name": "",
          "type": "uint256[]"
        }
      ],
      "stateMutability": "view",
      "type": "function"
    },
    {
      "inputs": [],
      "name": "retrieveAggregatedAmount",
      "outputs": [
        {
          "internalType": "uint256",
          "name": "",
          "type": "uint256"
        }
      ],
      "stateMutability": "view",
      "type": "function"
    }
  ],
  "bytecode": "0x608060405234801561001057600080fd5b5061242b806100206000396000f3fe6080604052600436106100e45760003560e01c806304cc67a9146100e95780631b9265b81461010d5780632e1a7d4d146101175780633c7df55d146101375780634044adb21461015757806355457ee91461019a5780635b362e84146101af578063840f6d17146101dc578063853828b61461022a57806391f916711461023f578063a93316f51461025f578063b049473f14610281578063b1fd2359146102a3578063d5920d49146102c3578063d6184d15146102d8578063db85bc4d1461030e578063e15aa3a61461032c578063e3e956a81461034c578063e83988ff1461036c575b600080fd5b3480156100f557600080fd5b506008545b6040519081526020015b60405180910390f35b61011561038c565b005b34801561012357600080fd5b5061011561013236600461200f565b6103e9565b34801561014357600080fd5b50610115610152366004611cb9565b6103f5565b34801561016357600080fd5b506100fa610172366004612041565b60009182526009602090815260408084206001600160a01b0393909316845291905290205490565b3480156101a657600080fd5b50610115610513565b3480156101bb57600080fd5b506000546201000090046001600160a01b03165b6040516101049190612094565b3480156101e857600080fd5b50600354600454600554600654600754604080516001600160a01b0390961686526020860194909452928401919091526060830152608082015260a001610104565b34801561023657600080fd5b506101156105ed565b34801561024b57600080fd5b5061011561025a366004611fed565b61068b565b34801561026b57600080fd5b50610274610695565b60405161010491906120c2565b34801561028d57600080fd5b5061029661076e565b604051610104919061215d565b3480156102af57600080fd5b506101156102be366004611c80565b6107c6565b3480156102cf57600080fd5b50600c546100fa565b3480156102e457600080fd5b506100fa6102f3366004611c63565b6001600160a01b03166000908152600d602052604090205490565b34801561031a57600080fd5b506001546001600160a01b03166101cf565b34801561033857600080fd5b50610115610347366004611e2a565b61084d565b34801561035857600080fd5b50610115610367366004611f34565b6108be565b34801561037857600080fd5b506100fa610387366004611c63565b610945565b34600c600082825461039e9190612300565b9091555050600c5460405133917faef711f818f5d24f55a9c2d7da0afa5edd0420e1505ff8e60c344ce836e3e86e916103df91348252602082015260400190565b60405180910390a2565b6103f2816109e7565b50565b3373__Library_______________________________6337ea306382600060029054906101000a90046001600160a01b03166001600160a01b031663e220ad956040518163ffffffff1660e01b815260040160006040518083038186803b15801561045f57600080fd5b505afa158015610473573d6000803e3d6000fd5b505050506040513d6000823e601f3d908101601f1916820160405261049b9190810190611cfa565b6003815181106104ad576104ad6123b4565b60200260200101516040518363ffffffff1660e01b81526004016104d29291906120a8565b60006040518083038186803b1580156104ea57600080fd5b505af41580156104fe573d6000803e3d6000fd5b5050505061050d848484610ab2565b50505050565b600161051e81610aed565b6003546040516337ea306360e01b8152339173__Library_______________________________916337ea3063916105649185916001600160a01b0316906004016120a8565b60006040518083038186803b15801561057c57600080fd5b505af4158015610590573d6000803e3d6000fd5b5050505061059c610b71565b6105a4610b7b565b6003546002546040519081526001600160a01b03909116907f1fe8aec10c0a50fa765076161e08c1f961ced69594ff45cf7d559f593afe14799060200160405180910390a25050565b336000908152600e602052604080822090516326162dc360e01b8152600481019190915273__ItemsLibrary__________________________906326162dc39060240160206040518083038186803b15801561064857600080fd5b505af415801561065c573d6000803e3d6000fd5b505050506040513d601f19601f820116820180604052508101906106809190612028565b90506103f2816109e7565b6103f23382610ba6565b6060600a805480602002602001604051908101604052809291908181526020016000905b828210156107655783829060005260206000200180546106d89061234e565b80601f01602080910402602001604051908101604052809291908181526020018280546107049061234e565b80156107515780601f1061072657610100808354040283529160200191610751565b820191906000526020600020905b81548152906001019060200180831161073457829003601f168201915b5050505050815260200190600101906106b9565b50505050905090565b6060600b8054806020026020016040519081016040528092919081815260200182805480156107bc57602002820191906000526020600020905b8154815260200190600101908083116107a8575b5050505050905090565b600054610100900460ff166107e15760005460ff16156107e5565b303b155b61080a5760405162461bcd60e51b815260040161080190612249565b60405180910390fd5b600054610100900460ff1615801561082c576000805461ffff19166101011790555b6108368383610cbe565b8015610848576000805461ff00191690555b505050565b610855610d5a565b60005b81518110156108ba57600a828281518110610875576108756123b4565b602090810291909101810151825460018101845560009384529282902081516108a79491909101929190910190611b45565b50806108b281612383565b915050610858565b5050565b600054610100900460ff166108d95760005460ff16156108dd565b303b155b6108f95760405162461bcd60e51b815260040161080190612249565b600054610100900460ff1615801561091b576000805461ffff19166101011790555b61092582846107c6565b61092e846110a9565b801561050d576000805461ff001916905550505050565b6001600160a01b0381166000908152600e602052604080822090516326162dc360e01b8152600481019190915273__ItemsLibrary__________________________906326162dc39060240160206040518083038186803b1580156109a957600080fd5b505af41580156109bd573d6000803e3d6000fd5b505050506040513d601f19601f820116820180604052508101906109e19190612028565b92915050565b6109f033611143565b336000818152600e6020526040908190209051637e9f902d60e11b815260048101919091526024810183905260448101919091526001606482015273__ItemsLibrary__________________________9063fd3f205a9060840160006040518083038186803b158015610a6257600080fd5b505af4158015610a76573d6000803e3d6000fd5b50506040518381523392507f732ea8a38f70c2018ed8dfd6e97bf6381f60102061beae0ac4d9a5abd15a0602915060200160405180910390a250565b610abd838383611242565b6001600160a01b03831615610ad557610ad583611143565b6001600160a01b038216156108485761084882611143565b8015610b3457610afb61125f565b15156001146103f25760405162461bcd60e51b8152602060048201526005602482015264454332352d60d81b6044820152606401610801565b610b3c61125f565b156103f25760405162461bcd60e51b8152602060048201526005602482015264454332342d60d81b6044820152606401610801565b610b79611299565b565b60006002819055600380546001600160a01b0319169055600481905560058190556006819055600755565b6001610bb181610aed565b60025483906000610bc283836112a5565b905060008111610bfc5760405162461bcd60e51b8152602060048201526005602482015264454332332d60d81b6044820152606401610801565b6000610c0d876002600001546112a5565b90508515610c35578060026004016000828254610c2a9190612300565b90915550610c509050565b8060026005016000828254610c4a9190612300565b90915550505b600254610c5e9088836112e2565b60025460408051918252871515602083015281018290526001600160a01b038816907f50f654d58981575c05e369cb129aeacb01e1b036af429380242cfc5d1a4b743f9060600160405180910390a2610cb561131e565b50505050505050565b600054610100900460ff16610cd95760005460ff1615610cdd565b303b155b610cf95760405162461bcd60e51b815260040161080190612249565b600054610100900460ff16158015610d1b576000805461ffff19166101011790555b610d24826113e8565b600180546001600160a01b0319166001600160a01b03851617905560006008558015610848576000805461ff0019169055505050565b6000610d6581610aed565b60015433906000906001600160a01b0316821415610d8557506001610ebb565b6000610d908361147c565b905060008060029054906101000a90046001600160a01b03166001600160a01b031663e220ad956040518163ffffffff1660e01b815260040160006040518083038186803b158015610de157600080fd5b505afa158015610df5573d6000803e3d6000fd5b505050506040513d6000823e601f3d908101601f19168201604052610e1d9190810190611cfa565b600481518110610e2f57610e2f6123b4565b60200260200101516001600160a01b031663b049473f6040518163ffffffff1660e01b815260040160606040518083038186803b158015610e6f57600080fd5b505afa158015610e83573d6000803e3d6000fd5b505050506040513d601f19601f82011682018060405250810190610ea79190612066565b9250505080821115610eb857600192505b50505b600181151514610ef55760405162461bcd60e51b8152602060048201526005602482015264454332322d60d81b6044820152606401610801565b600080600060029054906101000a90046001600160a01b03166001600160a01b031663e220ad956040518163ffffffff1660e01b815260040160006040518083038186803b158015610f4657600080fd5b505afa158015610f5a573d6000803e3d6000fd5b505050506040513d6000823e601f3d908101601f19168201604052610f829190810190611cfa565b600481518110610f9457610f946123b4565b60200260200101516001600160a01b031663b049473f6040518163ffffffff1660e01b815260040160606040518083038186803b158015610fd457600080fd5b505afa158015610fe8573d6000803e3d6000fd5b505050506040513d601f19601f8201168201806040525081019061100c9190612066565b50600380546001600160a01b03191633179055909250905061102e8242612300565b600455600581905560088054600281905590600061104b83612383565b90915550506003546002546004546005546040516001600160a01b03909416937f472501d19bf75639b2e316cd36f8568b0c3ab943b82a87de3c086c98c1929df99361109a9390929091612297565b60405180910390a25050505050565b60005b81518110156108ba57600b548110156110fd578181815181106110d1576110d16123b4565b6020026020010151600b82815481106110ec576110ec6123b4565b600091825260209091200155611131565b600b828281518110611111576111116123b4565b602090810291909101810151825460018101845560009384529190922001555b8061113b81612383565b9150506110ac565b60008061114f83611578565b600c546001600160a01b0386166000908152600d602052604090205590925090508115610848576001600160a01b0383166000908152600e6020526040908190209051633833532760e01b815273__ItemsLibrary__________________________916338335327916111c9919086908690600401612297565b60006040518083038186803b1580156111e157600080fd5b505af41580156111f5573d6000803e3d6000fd5b505060408051858152602081018590526001600160a01b03871693507fe983a49d27e04c64952da756088988cab0349d02969d01e8fecd907888b2e12092500160405180910390a2505050565b61124a61125f565b151560011415610848576108488383836115ef565b6004546000904210156112725750600190565b6003546001600160a01b0316156112935761128b610b71565b611293610b7b565b50600090565b610b79600a6000611bc9565b60008181526009602090815260408083206001600160a01b03861684529091528120546112d18461147c565b6112db9190612337565b9392505050565b60008381526009602090815260408083206001600160a01b038616845290915281208054839290611314908490612300565b9091555050505050565b600554600654106113835761133161175f565b611339610b7b565b6003546002546006546007546040516001600160a01b03909416937f23ca0034cf5aad32571b4a492e9598ea8a490e1643a60970e3cdc6933b55e49f936103df9390929091612297565b60055460075410610b7957611396610b71565b61139e610b7b565b6003546002546006546007546040516001600160a01b03909416937fa58eb6daa3c62c3f883973c4035e5bd3e81aa627c8379de068a7de42df122be2936103df9390929091612297565b600054610100900460ff166114035760005460ff1615611407565b303b155b6114235760405162461bcd60e51b815260040161080190612249565b600054610100900460ff16158015611445576000805461ffff19166101011790555b6000805462010000600160b01b031916620100006001600160a01b0385160217905580156108ba576000805461ff00191690555050565b60008060029054906101000a90046001600160a01b03166001600160a01b031663e220ad956040518163ffffffff1660e01b815260040160006040518083038186803b1580156114cb57600080fd5b505afa1580156114df573d6000803e3d6000fd5b505050506040513d6000823e601f3d908101601f191682016040526115079190810190611cfa565b600381518110611519576115196123b4565b60200260200101516001600160a01b03166370a08231836040518263ffffffff1660e01b815260040161154c9190612094565b60206040518083038186803b15801561156457600080fd5b505afa1580156109bd573d6000803e3d6000fd5b600c546001600160a01b0382166000908152600d602052604081205490918291829111156115dc576115a98461147c565b6001600160a01b0385166000908152600d6020526040902054600c546115cf9190612337565b6115d99190612318565b90505b806115e5611767565b9250925050915091565b6001600160a01b0383161580159061162b575060025460009081526009602090815260408083206001600160a01b038716845290915290205415155b156108485760025460009081526009602090815260408083206001600160a01b03871684529091529020548190811115611687575060025460009081526009602090815260408083206001600160a01b03871684529091529020545b60025460009081526009602090815260408083206001600160a01b0388168452909152812080548392906116bc908490612337565b90915550506001600160a01b0383161561170b5760025460009081526009602090815260408083206001600160a01b038716845290915281208054839290611705908490612300565b90915550505b600254604080516001600160a01b038088168252861660208201529081018390527f65fbd5e5dd32bea4aeca85bd0be0abf0e489d655dee888a7510d43b06dda2dba9060600160405180910390a250505050565b610b71611881565b60008060029054906101000a90046001600160a01b03166001600160a01b031663e220ad956040518163ffffffff1660e01b815260040160006040518083038186803b1580156117b657600080fd5b505afa1580156117ca573d6000803e3d6000fd5b505050506040513d6000823e601f3d908101601f191682016040526117f29190810190611cfa565b600381518110611804576118046123b4565b60200260200101516001600160a01b03166318160ddd6040518163ffffffff1660e01b815260040160206040518083038186803b15801561184457600080fd5b505afa158015611858573d6000803e3d6000fd5b505050506040513d601f19601f8201168201806040525081019061187c9190612028565b905090565b600061188b6119f6565b9050600081516001600160401b038111156118a8576118a86123ca565b6040519080825280602002602001820160405280156118d1578160200160208202803683370190505b50905060005b82518110156119b15773__UintLibrary___________________________630bd4715e84838151811061190c5761190c6123b4565b60200260200101516040518263ffffffff1660e01b815260040161193291815260200190565b60206040518083038186803b15801561194a57600080fd5b505af415801561195e573d6000803e3d6000fd5b505050506040513d601f19601f820116820180604052508101906119829190612028565b828281518110611994576119946123b4565b6020908102919091010152806119a981612383565b9150506118d7565b506119bb816110a9565b7f58ac3d73cbdfbf2104d2d20803e05d2eb9094831c3a2d07280a4e11962e3ce98816040516119ea919061215d565b60405180910390a15050565b600a546060906000906001600160401b03811115611a1657611a166123ca565b604051908082528060200260200182016040528015611a3f578160200160208202803683370190505b50905060005b600a54811015611b3f5773__Library_______________________________63caa8f589600a8381548110611a7c57611a7c6123b4565b906000526020600020016040518263ffffffff1660e01b8152600401611aa291906121a1565b60006040518083038186803b158015611aba57600080fd5b505af4158015611ace573d6000803e3d6000fd5b505050506040513d6000823e601f3d908101601f19168201604052611af69190810190611d9f565b600081518110611b0857611b086123b4565b6020026020010151828281518110611b2257611b226123b4565b602090810291909101015280611b3781612383565b915050611a45565b50919050565b828054611b519061234e565b90600052602060002090601f016020900481019282611b735760008555611bb9565b82601f10611b8c57805160ff1916838001178555611bb9565b82800160010185558215611bb9579182015b82811115611bb9578251825591602001919060010190611b9e565b50611bc5929150611be7565b5090565b50805460008255906000526020600020908101906103f29190611bfc565b5b80821115611bc55760008155600101611be8565b80821115611bc5576000611c108282611c19565b50600101611bfc565b508054611c259061234e565b6000825580601f10611c35575050565b601f0160209004906000526020600020908101906103f29190611be7565b8035611c5e816123e0565b919050565b600060208284031215611c7557600080fd5b81356112db816123e0565b60008060408385031215611c9357600080fd5b8235611c9e816123e0565b91506020830135611cae816123e0565b809150509250929050565b600080600060608486031215611cce57600080fd5b8335611cd9816123e0565b92506020840135611ce9816123e0565b929592945050506040919091013590565b60006020808385031215611d0d57600080fd5b82516001600160401b03811115611d2357600080fd5b8301601f81018513611d3457600080fd5b8051611d47611d42826122dd565b6122ad565b80828252848201915084840188868560051b8701011115611d6757600080fd5b600094505b83851015611d93578051611d7f816123e0565b835260019490940193918501918501611d6c565b50979650505050505050565b60006020808385031215611db257600080fd5b82516001600160401b03811115611dc857600080fd5b8301601f81018513611dd957600080fd5b8051611de7611d42826122dd565b80828252848201915084840188868560051b8701011115611e0757600080fd5b600094505b83851015611d93578051835260019490940193918501918501611e0c565b60006020808385031215611e3d57600080fd5b82356001600160401b0380821115611e5457600080fd5b8185019150601f8681840112611e6957600080fd5b8235611e77611d42826122dd565b8082825286820191508686018a888560051b8901011115611e9757600080fd5b60005b84811015611f2457813587811115611eb157600080fd5b8801603f81018d13611ec257600080fd5b89810135604089821115611ed857611ed86123ca565b611ee9828a01601f19168d016122ad565b8281528f82848601011115611efd57600080fd5b828285018e83013760009281018d0192909252508552509288019290880190600101611e9a565b50909a9950505050505050505050565b600080600060608486031215611f4957600080fd5b83356001600160401b03811115611f5f57600080fd5b8401601f81018613611f7057600080fd5b80356020611f80611d42836122dd565b8083825282820191508285018a848660051b8801011115611fa057600080fd5b600095505b84861015611fc3578035835260019590950194918301918301611fa5565b509650611fd39050878201611c53565b9450505050611fe460408501611c53565b90509250925092565b600060208284031215611fff57600080fd5b813580151581146112db57600080fd5b60006020828403121561202157600080fd5b5035919050565b60006020828403121561203a57600080fd5b5051919050565b6000806040838503121561205457600080fd5b823591506020830135611cae816123e0565b60008060006060848603121561207b57600080fd5b8351925060208401519150604084015190509250925092565b6001600160a01b0391909116815260200190565b6001600160a01b0392831681529116602082015260400190565b6000602080830181845280855180835260408601915060408160051b87010192508387016000805b8381101561214f57888603603f1901855282518051808852835b8181101561211f578281018a01518982018b01528901612104565b8181111561212f57848a838b0101525b50601f01601f1916969096018701955093860193918601916001016120ea565b509398975050505050505050565b6020808252825182820181905260009190848201906040850190845b8181101561219557835183529284019291840191600101612179565b50909695505050505050565b600060208083526000845481600182811c9150808316806121c357607f831692505b8583108114156121e157634e487b7160e01b85526022600452602485fd5b8786018381526020018180156121fe576001811461220f5761223a565b60ff1986168252878201965061223a565b60008b81526020902060005b868110156122345781548482015290850190890161221b565b83019750505b50949998505050505050505050565b6020808252602e908201527f496e697469616c697a61626c653a20636f6e747261637420697320616c72656160408201526d191e481a5b9a5d1a585b1a5e995960921b606082015260800190565b9283526020830191909152604082015260600190565b604051601f8201601f191681016001600160401b03811182821017156122d5576122d56123ca565b604052919050565b60006001600160401b038211156122f6576122f66123ca565b5060051b60200190565b600082198211156123135761231361239e565b500190565b60008160001904831182151516156123325761233261239e565b500290565b6000828210156123495761234961239e565b500390565b600181811c9082168061236257607f821691505b60208210811415611b3f57634e487b7160e01b600052602260045260246000fd5b60006000198214156123975761239761239e565b5060010190565b634e487b7160e01b600052601160045260246000fd5b634e487b7160e01b600052603260045260246000fd5b634e487b7160e01b600052604160045260246000fd5b6001600160a01b03811681146103f257600080fdfea2646970667358221220969a04c241aa4644245bec4ee90e01c8ded5f8a8fbf679d43c96d071a91ca34464736f6c63430008070033",
  "immutableReferences": {},
  "source": "// SPDX-License-Identifier: GPL-3.0\r\n\r\npragma solidity 0.8.7;\r\n\r\n/**\r\n Treasury receives all the payments and assigns dividends to token holders.\r\n Public Certificate Pool contract can ask for its owners to eb refunded even if they do not own tokens.\r\n\r\n First dividends must be assigned to an account and then the account owner can withdraw the funds.\r\n Both actions must be triggered by the account owner.\r\n\r\n  Events : \r\n    - New Prices Added : list of prices\r\n    - Payment recieved : payer, amount, new total aggregated contract amount\r\n    - Refund : who, amount, among how many\r\n    - Assign Dividends : who, amount (number of tokens), among how many (total supply)\r\n    - Withdraw : who, how much\r\n */\r\n\r\nimport \"../Interfaces/ITreasury.sol\";\r\nimport \"../Libraries/UintLibrary.sol\";\r\nimport \"../Libraries/ItemsLibrary.sol\";\r\nimport \"../Libraries/Library.sol\";\r\nimport \"../Base/StdPropositionBaseContract.sol\";\r\nimport \"@openzeppelin/contracts-upgradeable/token/ERC20/IERC20Upgradeable.sol\";\r\n\r\n\r\ncontract Treasury is ITreasury, StdPropositionBaseContract{\r\n    using Library for *;\r\n    using UintLibrary for *;\r\n    using ItemsLibrary for *;\r\n\r\n    // EVENTS /////////////////////////////////////////\r\n    event _NewPrices(uint[] Prices);\r\n    event _Pay(address indexed Payer, uint Amount, uint AggregatedAmount);\r\n    event _AssignDividend(address indexed Recipient, uint Amount, uint TotalSupply);\r\n    event _Withdraw(address indexed Recipient, uint Amount);\r\n\r\n    // DATA /////////////////////////////////////////\r\n    // prices parameters usd\r\n    uint[] private _Prices;\r\n\r\n    // last amount at which dividends where assigned for each token owner\r\n    uint private _AggregatedDividendAmount;\r\n    mapping(address => uint) private _lastAssigned;\r\n\r\n    // dividends per token owner\r\n    mapping(address => ItemsLibrary._BalanceStruct) private _balances;\r\n\r\n    // MODIFIERS /////////////////////////////////////////\r\n    \r\n    // CONSTRUCTOR /////////////////////////////////////////\r\n    function Treasury_init(uint256[] memory Prices, address managerContractAddress, address chairPerson) public initializer \r\n    {\r\n        super.StdPropositionBaseContract_init(chairPerson, managerContractAddress);\r\n        InternalupdatePrices(Prices);\r\n    }\r\n\r\n    // GOVERNANCE /////////////////////////////////////////\r\n    function checkProposition(bytes[] memory NewValues) internal override \r\n    {}\r\n\r\n    function UpdateAll() internal override\r\n    {\r\n        bytes32[] memory ProposedNewValues = PropositionsToBytes32();\r\n        uint256[] memory newPrices = new uint256[](ProposedNewValues.length);\r\n\r\n        for (uint i=0; i < ProposedNewValues.length; i++) {\r\n            newPrices[i] = UintLibrary.Bytes32ToUint(ProposedNewValues[i]);\r\n        }\r\n\r\n        InternalupdatePrices(newPrices);\r\n\r\n        emit _NewPrices(newPrices);\r\n    }\r\n\r\n    function InternalupdatePrices(uint256[] memory Prices) internal\r\n    {\r\n        for (uint i=0; i < Prices.length; i++) {\r\n            if(i < _Prices.length)_Prices[i] = Prices[i];\r\n            else _Prices.push(Prices[i]);\r\n        }\r\n    }\r\n\r\n    // FUNCTIONALITY /////////////////////////////////////////\r\n    function pay() external \r\n    override payable\r\n    {\r\n        _AggregatedDividendAmount += msg.value;\r\n\r\n        emit _Pay(msg.sender, msg.value, _AggregatedDividendAmount);\r\n    }\r\n\r\n    function InternalonTokenBalanceChanged(address from, address to, uint256 amount) internal override\r\n    {\r\n        super.InternalonTokenBalanceChanged(from, to, amount);\r\n        if(address(0) != from) InternalAssignDividends(from);\r\n        if(address(0) != to) InternalAssignDividends(to);\r\n    }\r\n\r\n    function InternalAssignDividends(address recipient) internal\r\n    {\r\n        (uint totalOffBalance, uint DividendOffBalance) = sumUpTotalOffBalance(recipient);\r\n        _lastAssigned[recipient] = _AggregatedDividendAmount;\r\n        \r\n        if(totalOffBalance > 0){   \r\n           ItemsLibrary.addBalance(_balances[recipient], totalOffBalance, DividendOffBalance);\r\n           emit _AssignDividend(recipient, totalOffBalance, DividendOffBalance);\r\n        }\r\n    }\r\n\r\n    function withdraw(uint amount) external \r\n    override\r\n    {\r\n        InternalWithdraw(amount);\r\n    }\r\n\r\n    function withdrawAll() external override\r\n    {\r\n        uint All = ItemsLibrary.checkFullBalance(_balances[msg.sender]);\r\n        InternalWithdraw(All);\r\n    }\r\n\r\n    function InternalWithdraw(uint amount) internal \r\n    {\r\n        InternalAssignDividends(msg.sender);\r\n        ItemsLibrary.InternalWithdraw(_balances[msg.sender], amount, msg.sender, true);\r\n\r\n        emit _Withdraw(msg.sender, amount);\r\n    }\r\n\r\n    function retrieveLastAssigned(address addr) external override view returns(uint)\r\n    {\r\n        return _lastAssigned[addr];\r\n    }\r\n\r\n    function retrieveFullBalance(address addr) external override view returns(uint)\r\n    {\r\n        return ItemsLibrary.checkFullBalance(_balances[addr]);\r\n    }\r\n\r\n    function retrieveSettings() external override view returns(uint[] memory)\r\n    {\r\n        return(_Prices);\r\n    }\r\n\r\n    function retrieveAggregatedAmount() external override view returns(uint){\r\n        return _AggregatedDividendAmount;\r\n    }\r\n\r\n    function sumUpTotal(address addr) internal view returns (uint, uint)\r\n    {\r\n        (uint totalOnBalance, uint commonDividendOnBalance) = sumUpTotalOnBalance(addr);\r\n        (uint totalOffBalance, uint DividendOffBalance) = sumUpTotalOffBalance(addr);\r\n\r\n        uint total = (totalOnBalance * DividendOffBalance) + (totalOffBalance * commonDividendOnBalance);\r\n        uint CommonDividend = commonDividendOnBalance * DividendOffBalance;\r\n\r\n        return (total, CommonDividend);\r\n    }\r\n\r\n    function sumUpTotalOnBalance(address addr) internal view returns (uint, uint)\r\n    {\r\n        return ItemsLibrary.sumUpTotal(_balances[addr]);\r\n    }\r\n\r\n    function sumUpTotalOffBalance(address addr) internal view returns (uint, uint)\r\n    {\r\n        uint total = 0;\r\n\r\n        if(_lastAssigned[addr] < _AggregatedDividendAmount)\r\n        {\r\n            total = (_AggregatedDividendAmount - _lastAssigned[addr]) * GetTokensBalance(addr);           \r\n        }\r\n\r\n        return (total, totalSupply());\r\n    }\r\n\r\n\r\n}",
  "sourcePath": "C:\\Users\\d-aam\\GitHub\\Originals\\contracts\\MainContracts\\Treasury.sol",
  "compiler": {
    "name": "solc",
    "version": "0.8.7+commit.e28d00a7.Emscripten.clang"
  },
  "schemaVersion": "3.4.3",
  "updatedAt": "2022-01-25T15:06:12.022Z",
  "devdoc": {
    "kind": "dev",
    "methods": {},
    "version": 1
  },
  "userdoc": {
    "kind": "user",
    "methods": {},
    "version": 1
  }
}