{
  "contractName": "Treasury",
  "abi": [
    {
      "anonymous": false,
      "inputs": [
        {
          "indexed": false,
          "internalType": "uint256",
          "name": "Id",
          "type": "uint256"
        },
        {
          "indexed": true,
          "internalType": "address",
          "name": "Proposer",
          "type": "address"
        },
        {
          "indexed": false,
          "internalType": "uint256",
          "name": "Deadline",
          "type": "uint256"
        },
        {
          "indexed": false,
          "internalType": "uint256",
          "name": "Threshold",
          "type": "uint256"
        }
      ],
      "name": "_AddedProposition",
      "type": "event"
    },
    {
      "anonymous": false,
      "inputs": [
        {
          "indexed": true,
          "internalType": "address",
          "name": "Recipient",
          "type": "address"
        },
        {
          "indexed": false,
          "internalType": "uint256",
          "name": "Amount",
          "type": "uint256"
        },
        {
          "indexed": false,
          "internalType": "uint256",
          "name": "TotalSupply",
          "type": "uint256"
        }
      ],
      "name": "_AssignDividend",
      "type": "event"
    },
    {
      "anonymous": false,
      "inputs": [
        {
          "indexed": false,
          "internalType": "uint256",
          "name": "Id",
          "type": "uint256"
        },
        {
          "indexed": true,
          "internalType": "address",
          "name": "Proposer",
          "type": "address"
        }
      ],
      "name": "_CancelledProposition",
      "type": "event"
    },
    {
      "anonymous": false,
      "inputs": [
        {
          "indexed": false,
          "internalType": "uint256[]",
          "name": "Prices",
          "type": "uint256[]"
        }
      ],
      "name": "_NewPrices",
      "type": "event"
    },
    {
      "anonymous": false,
      "inputs": [
        {
          "indexed": true,
          "internalType": "address",
          "name": "Payer",
          "type": "address"
        },
        {
          "indexed": false,
          "internalType": "uint256",
          "name": "Amount",
          "type": "uint256"
        },
        {
          "indexed": false,
          "internalType": "uint256",
          "name": "AggregatedAmount",
          "type": "uint256"
        }
      ],
      "name": "_Pay",
      "type": "event"
    },
    {
      "anonymous": false,
      "inputs": [
        {
          "indexed": false,
          "internalType": "uint256",
          "name": "Id",
          "type": "uint256"
        },
        {
          "indexed": true,
          "internalType": "address",
          "name": "Proposer",
          "type": "address"
        },
        {
          "indexed": false,
          "internalType": "uint256",
          "name": "VotesFor",
          "type": "uint256"
        },
        {
          "indexed": false,
          "internalType": "uint256",
          "name": "VotesAgainst",
          "type": "uint256"
        }
      ],
      "name": "_PropositionApproved",
      "type": "event"
    },
    {
      "anonymous": false,
      "inputs": [
        {
          "indexed": false,
          "internalType": "uint256",
          "name": "Id",
          "type": "uint256"
        },
        {
          "indexed": true,
          "internalType": "address",
          "name": "Proposer",
          "type": "address"
        },
        {
          "indexed": false,
          "internalType": "uint256",
          "name": "VotesFor",
          "type": "uint256"
        },
        {
          "indexed": false,
          "internalType": "uint256",
          "name": "VotesAgainst",
          "type": "uint256"
        }
      ],
      "name": "_PropositionRejected",
      "type": "event"
    },
    {
      "anonymous": false,
      "inputs": [
        {
          "indexed": false,
          "internalType": "uint256",
          "name": "Id",
          "type": "uint256"
        },
        {
          "indexed": true,
          "internalType": "address",
          "name": "Voter",
          "type": "address"
        },
        {
          "indexed": false,
          "internalType": "bool",
          "name": "Vote",
          "type": "bool"
        },
        {
          "indexed": false,
          "internalType": "uint256",
          "name": "AmountTokens",
          "type": "uint256"
        }
      ],
      "name": "_PropositionVote",
      "type": "event"
    },
    {
      "anonymous": false,
      "inputs": [
        {
          "indexed": true,
          "internalType": "uint256",
          "name": "Id",
          "type": "uint256"
        },
        {
          "indexed": false,
          "internalType": "address",
          "name": "From",
          "type": "address"
        },
        {
          "indexed": false,
          "internalType": "address",
          "name": "To",
          "type": "address"
        },
        {
          "indexed": false,
          "internalType": "uint256",
          "name": "Amount",
          "type": "uint256"
        }
      ],
      "name": "_UsedTokensTransfered",
      "type": "event"
    },
    {
      "anonymous": false,
      "inputs": [
        {
          "indexed": true,
          "internalType": "address",
          "name": "Recipient",
          "type": "address"
        },
        {
          "indexed": false,
          "internalType": "uint256",
          "name": "Amount",
          "type": "uint256"
        }
      ],
      "name": "_Withdraw",
      "type": "event"
    },
    {
      "inputs": [
        {
          "internalType": "address",
          "name": "chairPerson",
          "type": "address"
        },
        {
          "internalType": "address",
          "name": "managerContractAddress",
          "type": "address"
        }
      ],
      "name": "StdPropositionBaseContract_init",
      "outputs": [],
      "stateMutability": "nonpayable",
      "type": "function"
    },
    {
      "inputs": [],
      "name": "cancelProposition",
      "outputs": [],
      "stateMutability": "nonpayable",
      "type": "function"
    },
    {
      "inputs": [
        {
          "internalType": "address",
          "name": "from",
          "type": "address"
        },
        {
          "internalType": "address",
          "name": "to",
          "type": "address"
        },
        {
          "internalType": "uint256",
          "name": "amount",
          "type": "uint256"
        }
      ],
      "name": "onTokenBalanceChanged",
      "outputs": [],
      "stateMutability": "nonpayable",
      "type": "function"
    },
    {
      "inputs": [],
      "name": "retrieveChairPerson",
      "outputs": [
        {
          "internalType": "address",
          "name": "",
          "type": "address"
        }
      ],
      "stateMutability": "view",
      "type": "function"
    },
    {
      "inputs": [],
      "name": "retrieveManagerContract",
      "outputs": [
        {
          "internalType": "address",
          "name": "",
          "type": "address"
        }
      ],
      "stateMutability": "view",
      "type": "function"
    },
    {
      "inputs": [],
      "name": "retrieveNextPropId",
      "outputs": [
        {
          "internalType": "uint256",
          "name": "",
          "type": "uint256"
        }
      ],
      "stateMutability": "view",
      "type": "function"
    },
    {
      "inputs": [],
      "name": "retrieveProposition",
      "outputs": [
        {
          "internalType": "bytes[]",
          "name": "",
          "type": "bytes[]"
        }
      ],
      "stateMutability": "view",
      "type": "function"
    },
    {
      "inputs": [],
      "name": "retrievePropositionStatus",
      "outputs": [
        {
          "internalType": "address",
          "name": "",
          "type": "address"
        },
        {
          "internalType": "uint256",
          "name": "",
          "type": "uint256"
        },
        {
          "internalType": "uint256",
          "name": "",
          "type": "uint256"
        },
        {
          "internalType": "uint256",
          "name": "",
          "type": "uint256"
        },
        {
          "internalType": "uint256",
          "name": "",
          "type": "uint256"
        }
      ],
      "stateMutability": "view",
      "type": "function"
    },
    {
      "inputs": [
        {
          "internalType": "uint256",
          "name": "PropId",
          "type": "uint256"
        },
        {
          "internalType": "address",
          "name": "voter",
          "type": "address"
        }
      ],
      "name": "retrieveVotesForVoter",
      "outputs": [
        {
          "internalType": "uint256",
          "name": "",
          "type": "uint256"
        }
      ],
      "stateMutability": "view",
      "type": "function"
    },
    {
      "inputs": [
        {
          "internalType": "bytes[]",
          "name": "NewValues",
          "type": "bytes[]"
        }
      ],
      "name": "sendProposition",
      "outputs": [],
      "stateMutability": "nonpayable",
      "type": "function"
    },
    {
      "inputs": [
        {
          "internalType": "bool",
          "name": "vote",
          "type": "bool"
        }
      ],
      "name": "voteProposition",
      "outputs": [],
      "stateMutability": "nonpayable",
      "type": "function"
    },
    {
      "stateMutability": "payable",
      "type": "receive"
    },
    {
      "inputs": [
        {
          "internalType": "uint256[]",
          "name": "Prices",
          "type": "uint256[]"
        },
        {
          "internalType": "address",
          "name": "managerContractAddress",
          "type": "address"
        },
        {
          "internalType": "address",
          "name": "chairPerson",
          "type": "address"
        }
      ],
      "name": "Treasury_init",
      "outputs": [],
      "stateMutability": "nonpayable",
      "type": "function"
    },
    {
      "inputs": [
        {
          "internalType": "uint256",
          "name": "amount",
          "type": "uint256"
        }
      ],
      "name": "withdraw",
      "outputs": [],
      "stateMutability": "nonpayable",
      "type": "function"
    },
    {
      "inputs": [],
      "name": "withdrawAll",
      "outputs": [],
      "stateMutability": "nonpayable",
      "type": "function"
    },
    {
      "inputs": [
        {
          "internalType": "address",
          "name": "addr",
          "type": "address"
        }
      ],
      "name": "retrieveLastAssigned",
      "outputs": [
        {
          "internalType": "uint256",
          "name": "",
          "type": "uint256"
        }
      ],
      "stateMutability": "view",
      "type": "function"
    },
    {
      "inputs": [
        {
          "internalType": "address",
          "name": "addr",
          "type": "address"
        }
      ],
      "name": "retrieveFullBalance",
      "outputs": [
        {
          "internalType": "uint256",
          "name": "",
          "type": "uint256"
        }
      ],
      "stateMutability": "view",
      "type": "function"
    },
    {
      "inputs": [],
      "name": "retrieveSettings",
      "outputs": [
        {
          "internalType": "uint256[]",
          "name": "",
          "type": "uint256[]"
        }
      ],
      "stateMutability": "view",
      "type": "function"
    },
    {
      "inputs": [],
      "name": "retrieveAggregatedAmount",
      "outputs": [
        {
          "internalType": "uint256",
          "name": "",
          "type": "uint256"
        }
      ],
      "stateMutability": "view",
      "type": "function"
    }
  ],
  "bytecode": "0x608060405234801561001057600080fd5b5061242b806100206000396000f3fe6080604052600436106100dd5760003560e01c806304cc67a9146101445780632e1a7d4d146101685780633c7df55d1461018a5780634044adb2146101aa57806355457ee9146101ed5780635b362e8414610202578063840f6d171461022f578063853828b61461027d57806391f9167114610292578063a93316f5146102b2578063b049473f146102d4578063b1fd2359146102f6578063d5920d4914610316578063d6184d151461032b578063db85bc4d14610361578063e15aa3a61461037f578063e3e956a81461039f578063e83988ff146103bf57600080fd5b3661013f5734600c60008282546100f49190612300565b9091555050600c5460405133917faef711f818f5d24f55a9c2d7da0afa5edd0420e1505ff8e60c344ce836e3e86e9161013591348252602082015260400190565b60405180910390a2005b600080fd5b34801561015057600080fd5b506008545b6040519081526020015b60405180910390f35b34801561017457600080fd5b5061018861018336600461200f565b6103df565b005b34801561019657600080fd5b506101886101a5366004611cb9565b6103eb565b3480156101b657600080fd5b506101556101c5366004612041565b60009182526009602090815260408084206001600160a01b0393909316845291905290205490565b3480156101f957600080fd5b50610188610509565b34801561020e57600080fd5b506000546201000090046001600160a01b03165b60405161015f9190612094565b34801561023b57600080fd5b50600354600454600554600654600754604080516001600160a01b0390961686526020860194909452928401919091526060830152608082015260a00161015f565b34801561028957600080fd5b506101886105e3565b34801561029e57600080fd5b506101886102ad366004611fed565b610681565b3480156102be57600080fd5b506102c761068b565b60405161015f91906120c2565b3480156102e057600080fd5b506102e9610764565b60405161015f919061215d565b34801561030257600080fd5b50610188610311366004611c80565b6107bc565b34801561032257600080fd5b50600c54610155565b34801561033757600080fd5b50610155610346366004611c63565b6001600160a01b03166000908152600d602052604090205490565b34801561036d57600080fd5b506001546001600160a01b0316610222565b34801561038b57600080fd5b5061018861039a366004611e2a565b610843565b3480156103ab57600080fd5b506101886103ba366004611f34565b6108b4565b3480156103cb57600080fd5b506101556103da366004611c63565b61093b565b6103e8816109dd565b50565b3373__Library_______________________________6337ea306382600060029054906101000a90046001600160a01b03166001600160a01b031663e220ad956040518163ffffffff1660e01b815260040160006040518083038186803b15801561045557600080fd5b505afa158015610469573d6000803e3d6000fd5b505050506040513d6000823e601f3d908101601f191682016040526104919190810190611cfa565b6003815181106104a3576104a36123b4565b60200260200101516040518363ffffffff1660e01b81526004016104c89291906120a8565b60006040518083038186803b1580156104e057600080fd5b505af41580156104f4573d6000803e3d6000fd5b50505050610503848484610aa8565b50505050565b600161051481610ae3565b6003546040516337ea306360e01b8152339173__Library_______________________________916337ea30639161055a9185916001600160a01b0316906004016120a8565b60006040518083038186803b15801561057257600080fd5b505af4158015610586573d6000803e3d6000fd5b50505050610592610b67565b61059a610b71565b6003546002546040519081526001600160a01b03909116907f1fe8aec10c0a50fa765076161e08c1f961ced69594ff45cf7d559f593afe14799060200160405180910390a25050565b336000908152600e602052604080822090516326162dc360e01b8152600481019190915273__ItemsLibrary__________________________906326162dc39060240160206040518083038186803b15801561063e57600080fd5b505af4158015610652573d6000803e3d6000fd5b505050506040513d601f19601f820116820180604052508101906106769190612028565b90506103e8816109dd565b6103e83382610b9c565b6060600a805480602002602001604051908101604052809291908181526020016000905b8282101561075b5783829060005260206000200180546106ce9061234e565b80601f01602080910402602001604051908101604052809291908181526020018280546106fa9061234e565b80156107475780601f1061071c57610100808354040283529160200191610747565b820191906000526020600020905b81548152906001019060200180831161072a57829003601f168201915b5050505050815260200190600101906106af565b50505050905090565b6060600b8054806020026020016040519081016040528092919081815260200182805480156107b257602002820191906000526020600020905b81548152602001906001019080831161079e575b5050505050905090565b600054610100900460ff166107d75760005460ff16156107db565b303b155b6108005760405162461bcd60e51b81526004016107f790612249565b60405180910390fd5b600054610100900460ff16158015610822576000805461ffff19166101011790555b61082c8383610cb4565b801561083e576000805461ff00191690555b505050565b61084b610d50565b60005b81518110156108b057600a82828151811061086b5761086b6123b4565b6020908102919091018101518254600181018455600093845292829020815161089d9491909101929190910190611b45565b50806108a881612383565b91505061084e565b5050565b600054610100900460ff166108cf5760005460ff16156108d3565b303b155b6108ef5760405162461bcd60e51b81526004016107f790612249565b600054610100900460ff16158015610911576000805461ffff19166101011790555b61091b82846107bc565b6109248461109f565b8015610503576000805461ff001916905550505050565b6001600160a01b0381166000908152600e602052604080822090516326162dc360e01b8152600481019190915273__ItemsLibrary__________________________906326162dc39060240160206040518083038186803b15801561099f57600080fd5b505af41580156109b3573d6000803e3d6000fd5b505050506040513d601f19601f820116820180604052508101906109d79190612028565b92915050565b6109e633611139565b336000818152600e6020526040908190209051637e9f902d60e11b815260048101919091526024810183905260448101919091526001606482015273__ItemsLibrary__________________________9063fd3f205a9060840160006040518083038186803b158015610a5857600080fd5b505af4158015610a6c573d6000803e3d6000fd5b50506040518381523392507f732ea8a38f70c2018ed8dfd6e97bf6381f60102061beae0ac4d9a5abd15a0602915060200160405180910390a250565b610ab3838383611238565b6001600160a01b03831615610acb57610acb83611139565b6001600160a01b0382161561083e5761083e82611139565b8015610b2a57610af1611255565b15156001146103e85760405162461bcd60e51b8152602060048201526005602482015264454332352d60d81b60448201526064016107f7565b610b32611255565b156103e85760405162461bcd60e51b8152602060048201526005602482015264454332342d60d81b60448201526064016107f7565b610b6f61128f565b565b60006002819055600380546001600160a01b0319169055600481905560058190556006819055600755565b6001610ba781610ae3565b60025483906000610bb8838361129b565b905060008111610bf25760405162461bcd60e51b8152602060048201526005602482015264454332332d60d81b60448201526064016107f7565b6000610c038760026000015461129b565b90508515610c2b578060026004016000828254610c209190612300565b90915550610c469050565b8060026005016000828254610c409190612300565b90915550505b600254610c549088836112d8565b60025460408051918252871515602083015281018290526001600160a01b038816907f50f654d58981575c05e369cb129aeacb01e1b036af429380242cfc5d1a4b743f9060600160405180910390a2610cab611314565b50505050505050565b600054610100900460ff16610ccf5760005460ff1615610cd3565b303b155b610cef5760405162461bcd60e51b81526004016107f790612249565b600054610100900460ff16158015610d11576000805461ffff19166101011790555b610d1a826113e8565b600180546001600160a01b0319166001600160a01b0385161790556000600855801561083e576000805461ff0019169055505050565b6000610d5b81610ae3565b60015433906000906001600160a01b0316821415610d7b57506001610eb1565b6000610d868361147c565b905060008060029054906101000a90046001600160a01b03166001600160a01b031663e220ad956040518163ffffffff1660e01b815260040160006040518083038186803b158015610dd757600080fd5b505afa158015610deb573d6000803e3d6000fd5b505050506040513d6000823e601f3d908101601f19168201604052610e139190810190611cfa565b600481518110610e2557610e256123b4565b60200260200101516001600160a01b031663b049473f6040518163ffffffff1660e01b815260040160606040518083038186803b158015610e6557600080fd5b505afa158015610e79573d6000803e3d6000fd5b505050506040513d601f19601f82011682018060405250810190610e9d9190612066565b9250505080821115610eae57600192505b50505b600181151514610eeb5760405162461bcd60e51b8152602060048201526005602482015264454332322d60d81b60448201526064016107f7565b600080600060029054906101000a90046001600160a01b03166001600160a01b031663e220ad956040518163ffffffff1660e01b815260040160006040518083038186803b158015610f3c57600080fd5b505afa158015610f50573d6000803e3d6000fd5b505050506040513d6000823e601f3d908101601f19168201604052610f789190810190611cfa565b600481518110610f8a57610f8a6123b4565b60200260200101516001600160a01b031663b049473f6040518163ffffffff1660e01b815260040160606040518083038186803b158015610fca57600080fd5b505afa158015610fde573d6000803e3d6000fd5b505050506040513d601f19601f820116820180604052508101906110029190612066565b50600380546001600160a01b0319163317905590925090506110248242612300565b600455600581905560088054600281905590600061104183612383565b90915550506003546002546004546005546040516001600160a01b03909416937f472501d19bf75639b2e316cd36f8568b0c3ab943b82a87de3c086c98c1929df9936110909390929091612297565b60405180910390a25050505050565b60005b81518110156108b057600b548110156110f3578181815181106110c7576110c76123b4565b6020026020010151600b82815481106110e2576110e26123b4565b600091825260209091200155611127565b600b828281518110611107576111076123b4565b602090810291909101810151825460018101845560009384529190922001555b8061113181612383565b9150506110a2565b60008061114583611578565b600c546001600160a01b0386166000908152600d60205260409020559092509050811561083e576001600160a01b0383166000908152600e6020526040908190209051633833532760e01b815273__ItemsLibrary__________________________916338335327916111bf919086908690600401612297565b60006040518083038186803b1580156111d757600080fd5b505af41580156111eb573d6000803e3d6000fd5b505060408051858152602081018590526001600160a01b03871693507fe983a49d27e04c64952da756088988cab0349d02969d01e8fecd907888b2e12092500160405180910390a2505050565b611240611255565b15156001141561083e5761083e8383836115ef565b6004546000904210156112685750600190565b6003546001600160a01b03161561128957611281610b67565b611289610b71565b50600090565b610b6f600a6000611bc9565b60008181526009602090815260408083206001600160a01b03861684529091528120546112c78461147c565b6112d19190612337565b9392505050565b60008381526009602090815260408083206001600160a01b03861684529091528120805483929061130a908490612300565b9091555050505050565b600554600654106113835761132761175f565b61132f610b71565b6003546002546006546007546040516001600160a01b03909416937f23ca0034cf5aad32571b4a492e9598ea8a490e1643a60970e3cdc6933b55e49f936113799390929091612297565b60405180910390a2565b60055460075410610b6f57611396610b67565b61139e610b71565b6003546002546006546007546040516001600160a01b03909416937fa58eb6daa3c62c3f883973c4035e5bd3e81aa627c8379de068a7de42df122be2936113799390929091612297565b600054610100900460ff166114035760005460ff1615611407565b303b155b6114235760405162461bcd60e51b81526004016107f790612249565b600054610100900460ff16158015611445576000805461ffff19166101011790555b6000805462010000600160b01b031916620100006001600160a01b0385160217905580156108b0576000805461ff00191690555050565b60008060029054906101000a90046001600160a01b03166001600160a01b031663e220ad956040518163ffffffff1660e01b815260040160006040518083038186803b1580156114cb57600080fd5b505afa1580156114df573d6000803e3d6000fd5b505050506040513d6000823e601f3d908101601f191682016040526115079190810190611cfa565b600381518110611519576115196123b4565b60200260200101516001600160a01b03166370a08231836040518263ffffffff1660e01b815260040161154c9190612094565b60206040518083038186803b15801561156457600080fd5b505afa1580156109b3573d6000803e3d6000fd5b600c546001600160a01b0382166000908152600d602052604081205490918291829111156115dc576115a98461147c565b6001600160a01b0385166000908152600d6020526040902054600c546115cf9190612337565b6115d99190612318565b90505b806115e5611767565b9250925050915091565b6001600160a01b0383161580159061162b575060025460009081526009602090815260408083206001600160a01b038716845290915290205415155b1561083e5760025460009081526009602090815260408083206001600160a01b03871684529091529020548190811115611687575060025460009081526009602090815260408083206001600160a01b03871684529091529020545b60025460009081526009602090815260408083206001600160a01b0388168452909152812080548392906116bc908490612337565b90915550506001600160a01b0383161561170b5760025460009081526009602090815260408083206001600160a01b038716845290915281208054839290611705908490612300565b90915550505b600254604080516001600160a01b038088168252861660208201529081018390527f65fbd5e5dd32bea4aeca85bd0be0abf0e489d655dee888a7510d43b06dda2dba9060600160405180910390a250505050565b610b67611881565b60008060029054906101000a90046001600160a01b03166001600160a01b031663e220ad956040518163ffffffff1660e01b815260040160006040518083038186803b1580156117b657600080fd5b505afa1580156117ca573d6000803e3d6000fd5b505050506040513d6000823e601f3d908101601f191682016040526117f29190810190611cfa565b600381518110611804576118046123b4565b60200260200101516001600160a01b03166318160ddd6040518163ffffffff1660e01b815260040160206040518083038186803b15801561184457600080fd5b505afa158015611858573d6000803e3d6000fd5b505050506040513d601f19601f8201168201806040525081019061187c9190612028565b905090565b600061188b6119f6565b9050600081516001600160401b038111156118a8576118a86123ca565b6040519080825280602002602001820160405280156118d1578160200160208202803683370190505b50905060005b82518110156119b15773__UintLibrary___________________________630bd4715e84838151811061190c5761190c6123b4565b60200260200101516040518263ffffffff1660e01b815260040161193291815260200190565b60206040518083038186803b15801561194a57600080fd5b505af415801561195e573d6000803e3d6000fd5b505050506040513d601f19601f820116820180604052508101906119829190612028565b828281518110611994576119946123b4565b6020908102919091010152806119a981612383565b9150506118d7565b506119bb8161109f565b7f58ac3d73cbdfbf2104d2d20803e05d2eb9094831c3a2d07280a4e11962e3ce98816040516119ea919061215d565b60405180910390a15050565b600a546060906000906001600160401b03811115611a1657611a166123ca565b604051908082528060200260200182016040528015611a3f578160200160208202803683370190505b50905060005b600a54811015611b3f5773__Library_______________________________63caa8f589600a8381548110611a7c57611a7c6123b4565b906000526020600020016040518263ffffffff1660e01b8152600401611aa291906121a1565b60006040518083038186803b158015611aba57600080fd5b505af4158015611ace573d6000803e3d6000fd5b505050506040513d6000823e601f3d908101601f19168201604052611af69190810190611d9f565b600081518110611b0857611b086123b4565b6020026020010151828281518110611b2257611b226123b4565b602090810291909101015280611b3781612383565b915050611a45565b50919050565b828054611b519061234e565b90600052602060002090601f016020900481019282611b735760008555611bb9565b82601f10611b8c57805160ff1916838001178555611bb9565b82800160010185558215611bb9579182015b82811115611bb9578251825591602001919060010190611b9e565b50611bc5929150611be7565b5090565b50805460008255906000526020600020908101906103e89190611bfc565b5b80821115611bc55760008155600101611be8565b80821115611bc5576000611c108282611c19565b50600101611bfc565b508054611c259061234e565b6000825580601f10611c35575050565b601f0160209004906000526020600020908101906103e89190611be7565b8035611c5e816123e0565b919050565b600060208284031215611c7557600080fd5b81356112d1816123e0565b60008060408385031215611c9357600080fd5b8235611c9e816123e0565b91506020830135611cae816123e0565b809150509250929050565b600080600060608486031215611cce57600080fd5b8335611cd9816123e0565b92506020840135611ce9816123e0565b929592945050506040919091013590565b60006020808385031215611d0d57600080fd5b82516001600160401b03811115611d2357600080fd5b8301601f81018513611d3457600080fd5b8051611d47611d42826122dd565b6122ad565b80828252848201915084840188868560051b8701011115611d6757600080fd5b600094505b83851015611d93578051611d7f816123e0565b835260019490940193918501918501611d6c565b50979650505050505050565b60006020808385031215611db257600080fd5b82516001600160401b03811115611dc857600080fd5b8301601f81018513611dd957600080fd5b8051611de7611d42826122dd565b80828252848201915084840188868560051b8701011115611e0757600080fd5b600094505b83851015611d93578051835260019490940193918501918501611e0c565b60006020808385031215611e3d57600080fd5b82356001600160401b0380821115611e5457600080fd5b8185019150601f8681840112611e6957600080fd5b8235611e77611d42826122dd565b8082825286820191508686018a888560051b8901011115611e9757600080fd5b60005b84811015611f2457813587811115611eb157600080fd5b8801603f81018d13611ec257600080fd5b89810135604089821115611ed857611ed86123ca565b611ee9828a01601f19168d016122ad565b8281528f82848601011115611efd57600080fd5b828285018e83013760009281018d0192909252508552509288019290880190600101611e9a565b50909a9950505050505050505050565b600080600060608486031215611f4957600080fd5b83356001600160401b03811115611f5f57600080fd5b8401601f81018613611f7057600080fd5b80356020611f80611d42836122dd565b8083825282820191508285018a848660051b8801011115611fa057600080fd5b600095505b84861015611fc3578035835260019590950194918301918301611fa5565b509650611fd39050878201611c53565b9450505050611fe460408501611c53565b90509250925092565b600060208284031215611fff57600080fd5b813580151581146112d157600080fd5b60006020828403121561202157600080fd5b5035919050565b60006020828403121561203a57600080fd5b5051919050565b6000806040838503121561205457600080fd5b823591506020830135611cae816123e0565b60008060006060848603121561207b57600080fd5b8351925060208401519150604084015190509250925092565b6001600160a01b0391909116815260200190565b6001600160a01b0392831681529116602082015260400190565b6000602080830181845280855180835260408601915060408160051b87010192508387016000805b8381101561214f57888603603f1901855282518051808852835b8181101561211f578281018a01518982018b01528901612104565b8181111561212f57848a838b0101525b50601f01601f1916969096018701955093860193918601916001016120ea565b509398975050505050505050565b6020808252825182820181905260009190848201906040850190845b8181101561219557835183529284019291840191600101612179565b50909695505050505050565b600060208083526000845481600182811c9150808316806121c357607f831692505b8583108114156121e157634e487b7160e01b85526022600452602485fd5b8786018381526020018180156121fe576001811461220f5761223a565b60ff1986168252878201965061223a565b60008b81526020902060005b868110156122345781548482015290850190890161221b565b83019750505b50949998505050505050505050565b6020808252602e908201527f496e697469616c697a61626c653a20636f6e747261637420697320616c72656160408201526d191e481a5b9a5d1a585b1a5e995960921b606082015260800190565b9283526020830191909152604082015260600190565b604051601f8201601f191681016001600160401b03811182821017156122d5576122d56123ca565b604052919050565b60006001600160401b038211156122f6576122f66123ca565b5060051b60200190565b600082198211156123135761231361239e565b500190565b60008160001904831182151516156123325761233261239e565b500290565b6000828210156123495761234961239e565b500390565b600181811c9082168061236257607f821691505b60208210811415611b3f57634e487b7160e01b600052602260045260246000fd5b60006000198214156123975761239761239e565b5060010190565b634e487b7160e01b600052601160045260246000fd5b634e487b7160e01b600052603260045260246000fd5b634e487b7160e01b600052604160045260246000fd5b6001600160a01b03811681146103e857600080fdfea2646970667358221220e68359ded633aa8be831ce242e3b45e60dcf9083d6c6f21a90b38e82bcadf01064736f6c63430008070033",
  "immutableReferences": {},
  "source": "// SPDX-License-Identifier: GPL-3.0\r\n\r\npragma solidity 0.8.7;\r\n\r\n/**\r\n Treasury receives all the payments and assigns dividends to token holders.\r\n Public Certificate Pool contract can ask for its owners to eb refunded even if they do not own tokens.\r\n\r\n First dividends must be assigned to an account and then the account owner can withdraw the funds.\r\n Both actions must be triggered by the account owner.\r\n\r\n  Events : \r\n    - New Prices Added : list of prices\r\n    - Payment recieved : payer, amount, new total aggregated contract amount\r\n    - Refund : who, amount, among how many\r\n    - Assign Dividends : who, amount (number of tokens), among how many (total supply)\r\n    - Withdraw : who, how much\r\n */\r\n\r\nimport \"../Interfaces/ITreasury.sol\";\r\nimport \"../Libraries/UintLibrary.sol\";\r\nimport \"../Libraries/ItemsLibrary.sol\";\r\nimport \"../Libraries/Library.sol\";\r\nimport \"../Base/StdPropositionBaseContract.sol\";\r\nimport \"@openzeppelin/contracts-upgradeable/token/ERC20/IERC20Upgradeable.sol\";\r\n\r\n\r\ncontract Treasury is ITreasury, StdPropositionBaseContract{\r\n    using Library for *;\r\n    using UintLibrary for *;\r\n    using ItemsLibrary for *;\r\n\r\n    // EVENTS /////////////////////////////////////////\r\n    event _NewPrices(uint[] Prices);\r\n    event _Pay(address indexed Payer, uint Amount, uint AggregatedAmount);\r\n    event _AssignDividend(address indexed Recipient, uint Amount, uint TotalSupply);\r\n    event _Withdraw(address indexed Recipient, uint Amount);\r\n\r\n    // DATA /////////////////////////////////////////\r\n    // prices parameters usd\r\n    uint256[] private _Prices;\r\n\r\n    // last amount at which dividends where assigned for each token owner\r\n    uint256 private _AggregatedDividendAmount;\r\n    mapping(address => uint256) private _lastAssigned;\r\n\r\n    // dividends per token owner\r\n    mapping(address => ItemsLibrary._BalanceStruct) private _balances;\r\n\r\n    // MODIFIERS /////////////////////////////////////////\r\n    \r\n    // CONSTRUCTOR /////////////////////////////////////////\r\n    function Treasury_init(uint256[] memory Prices, address managerContractAddress, address chairPerson) public initializer \r\n    {\r\n        super.StdPropositionBaseContract_init(chairPerson, managerContractAddress);\r\n        InternalupdatePrices(Prices);\r\n    }\r\n\r\n    // GOVERNANCE /////////////////////////////////////////\r\n    function checkProposition(bytes[] memory NewValues) internal override \r\n    {}\r\n\r\n    function UpdateAll() internal override\r\n    {\r\n        bytes32[] memory ProposedNewValues = PropositionsToBytes32();\r\n        uint256[] memory newPrices = new uint256[](ProposedNewValues.length);\r\n\r\n        for (uint i=0; i < ProposedNewValues.length; i++) {\r\n            newPrices[i] = UintLibrary.Bytes32ToUint(ProposedNewValues[i]);\r\n        }\r\n\r\n        InternalupdatePrices(newPrices);\r\n\r\n        emit _NewPrices(newPrices);\r\n    }\r\n\r\n    function InternalupdatePrices(uint256[] memory Prices) internal\r\n    {\r\n        for (uint i=0; i < Prices.length; i++) {\r\n            if(i < _Prices.length)_Prices[i] = Prices[i];\r\n            else _Prices.push(Prices[i]);\r\n        }\r\n    }\r\n\r\n    // FUNCTIONALITY /////////////////////////////////////////\r\n    receive() external payable\r\n    {\r\n        _AggregatedDividendAmount += msg.value;\r\n\r\n        emit _Pay(msg.sender, msg.value, _AggregatedDividendAmount);\r\n    }\r\n\r\n    function InternalonTokenBalanceChanged(address from, address to, uint256 amount) internal override\r\n    {\r\n        super.InternalonTokenBalanceChanged(from, to, amount);\r\n        if(address(0) != from) InternalAssignDividends(from);\r\n        if(address(0) != to) InternalAssignDividends(to);\r\n    }\r\n\r\n    function InternalAssignDividends(address recipient) internal\r\n    {\r\n        (uint totalOffBalance, uint DividendOffBalance) = sumUpTotalOffBalance(recipient);\r\n        _lastAssigned[recipient] = _AggregatedDividendAmount;\r\n        \r\n        if(totalOffBalance > 0){   \r\n           ItemsLibrary.addBalance(_balances[recipient], totalOffBalance, DividendOffBalance);\r\n           emit _AssignDividend(recipient, totalOffBalance, DividendOffBalance);\r\n        }\r\n    }\r\n\r\n    function withdraw(uint amount) external \r\n    override\r\n    {\r\n        InternalWithdraw(amount);\r\n    }\r\n\r\n    function withdrawAll() external override\r\n    {\r\n        uint All = ItemsLibrary.checkFullBalance(_balances[msg.sender]);\r\n        InternalWithdraw(All);\r\n    }\r\n\r\n    function InternalWithdraw(uint amount) internal \r\n    {\r\n        InternalAssignDividends(msg.sender);\r\n        ItemsLibrary.InternalWithdraw(_balances[msg.sender], amount, msg.sender, true);\r\n\r\n        emit _Withdraw(msg.sender, amount);\r\n    }\r\n\r\n    function retrieveLastAssigned(address addr) external override view returns(uint)\r\n    {\r\n        return _lastAssigned[addr];\r\n    }\r\n\r\n    function retrieveFullBalance(address addr) external override view returns(uint)\r\n    {\r\n        return ItemsLibrary.checkFullBalance(_balances[addr]);\r\n    }\r\n\r\n    function retrieveSettings() external override view returns(uint[] memory)\r\n    {\r\n        return(_Prices);\r\n    }\r\n\r\n    function retrieveAggregatedAmount() external override view returns(uint){\r\n        return _AggregatedDividendAmount;\r\n    }\r\n\r\n    function sumUpTotal(address addr) internal view returns (uint, uint)\r\n    {\r\n        (uint totalOnBalance, uint commonDividendOnBalance) = sumUpTotalOnBalance(addr);\r\n        (uint totalOffBalance, uint DividendOffBalance) = sumUpTotalOffBalance(addr);\r\n\r\n        uint total = (totalOnBalance * DividendOffBalance) + (totalOffBalance * commonDividendOnBalance);\r\n        uint CommonDividend = commonDividendOnBalance * DividendOffBalance;\r\n\r\n        return (total, CommonDividend);\r\n    }\r\n\r\n    function sumUpTotalOnBalance(address addr) internal view returns (uint, uint)\r\n    {\r\n        return ItemsLibrary.sumUpTotal(_balances[addr]);\r\n    }\r\n\r\n    function sumUpTotalOffBalance(address addr) internal view returns (uint, uint)\r\n    {\r\n        uint total = 0;\r\n\r\n        if(_lastAssigned[addr] < _AggregatedDividendAmount)\r\n        {\r\n            total = (_AggregatedDividendAmount - _lastAssigned[addr]) * GetTokensBalance(addr);           \r\n        }\r\n\r\n        return (total, totalSupply());\r\n    }\r\n\r\n\r\n}",
  "sourcePath": "C:\\Users\\d-aam\\GitHub\\Originals\\contracts\\MainContracts\\Treasury.sol",
  "compiler": {
    "name": "solc",
    "version": "0.8.7+commit.e28d00a7.Emscripten.clang"
  },
  "schemaVersion": "3.4.3",
  "updatedAt": "2022-01-27T08:30:34.674Z",
  "devdoc": {
    "kind": "dev",
    "methods": {},
    "version": 1
  },
  "userdoc": {
    "kind": "user",
    "methods": {},
    "version": 1
  }
}