{
  "contractName": "UintLibrary",
  "abi": [
    {
      "inputs": [
        {
          "internalType": "uint256",
          "name": "value",
          "type": "uint256"
        },
        {
          "internalType": "uint256[]",
          "name": "list",
          "type": "uint256[]"
        }
      ],
      "name": "FindUintPosition",
      "outputs": [
        {
          "internalType": "uint256",
          "name": "",
          "type": "uint256"
        }
      ],
      "stateMutability": "pure",
      "type": "function"
    },
    {
      "inputs": [
        {
          "internalType": "uint256[]",
          "name": "factors",
          "type": "uint256[]"
        }
      ],
      "name": "ProductOfFactors",
      "outputs": [
        {
          "internalType": "uint256",
          "name": "",
          "type": "uint256"
        }
      ],
      "stateMutability": "pure",
      "type": "function"
    },
    {
      "inputs": [
        {
          "internalType": "uint256",
          "name": "element",
          "type": "uint256"
        }
      ],
      "name": "UintToBytes32",
      "outputs": [
        {
          "internalType": "bytes32",
          "name": "",
          "type": "bytes32"
        }
      ],
      "stateMutability": "pure",
      "type": "function"
    },
    {
      "inputs": [
        {
          "internalType": "bytes32",
          "name": "element",
          "type": "bytes32"
        }
      ],
      "name": "Bytes32ToUint",
      "outputs": [
        {
          "internalType": "uint256",
          "name": "",
          "type": "uint256"
        }
      ],
      "stateMutability": "pure",
      "type": "function"
    },
    {
      "inputs": [
        {
          "internalType": "bytes32[]",
          "name": "element",
          "type": "bytes32[]"
        }
      ],
      "name": "Bytes32ArrayToUintArray",
      "outputs": [
        {
          "internalType": "uint256[]",
          "name": "",
          "type": "uint256[]"
        }
      ],
      "stateMutability": "pure",
      "type": "function"
    }
  ],
  "bytecode": "0x61061761003a600b82828239805160001a60731461002d57634e487b7160e01b600052600060045260246000fd5b30600052607381538281f3fe730000000000000000000000000000000000000000301460806040526004361061006c5760003560e01c80630bd4715e14610071578063b1ab8cb814610071578063c5fc6b0214610095578063cffd93cd146100a8578063d86b7a60146100ca578063f254becc146100ea575b600080fd5b61008261007f366004610408565b90565b6040519081526020015b60405180910390f35b6100826100a3366004610421565b6100fd565b8180156100b457600080fd5b506100c86100c3366004610467565b61015b565b005b6100dd6100d8366004610335565b6101d0565b60405161008c9190610489565b6100826100f83660046103cc565b61027b565b6000805b82518110156101445782818151811061011c5761011c6105b5565b6020026020010151841415610132579050610155565b8061013c8161056e565b915050610101565b508151610152906001610520565b90505b92915050565b8054819061016b90600190610557565b8154811061017b5761017b6105b5565b9060005260206000200154818381548110610198576101986105b5565b9060005260206000200181905550808054806101b6576101b661059f565b600190038181906000526020600020016000905590555050565b6060600082516001600160401b038111156101ed576101ed6105cb565b604051908082528060200260200182016040528015610216578160200160208202803683370190505b50905060005b83518110156102745761024584828151811061023a5761023a6105b5565b602002602001015190565b828281518110610257576102576105b5565b60209081029190910101528061026c8161056e565b91505061021c565b5092915050565b60006001815b83518110156102745783818151811061029c5761029c6105b5565b6020026020010151826102af9190610538565b9150806102bb8161056e565b915050610281565b600082601f8301126102d457600080fd5b813560206102e96102e4836104fd565b6104cd565b80838252828201915082860187848660051b890101111561030957600080fd5b60005b858110156103285781358452928401929084019060010161030c565b5090979650505050505050565b6000602080838503121561034857600080fd5b82356001600160401b0381111561035e57600080fd5b8301601f8101851361036f57600080fd5b803561037d6102e4826104fd565b80828252848201915084840188868560051b870101111561039d57600080fd5b600094505b838510156103c05780358352600194909401939185019185016103a2565b50979650505050505050565b6000602082840312156103de57600080fd5b81356001600160401b038111156103f457600080fd5b610400848285016102c3565b949350505050565b60006020828403121561041a57600080fd5b5035919050565b6000806040838503121561043457600080fd5b8235915060208301356001600160401b0381111561045157600080fd5b61045d858286016102c3565b9150509250929050565b6000806040838503121561047a57600080fd5b50508035926020909101359150565b6020808252825182820181905260009190848201906040850190845b818110156104c1578351835292840192918401916001016104a5565b50909695505050505050565b604051601f8201601f191681016001600160401b03811182821017156104f5576104f56105cb565b604052919050565b60006001600160401b03821115610516576105166105cb565b5060051b60200190565b6000821982111561053357610533610589565b500190565b600081600019048311821515161561055257610552610589565b500290565b60008282101561056957610569610589565b500390565b600060001982141561058257610582610589565b5060010190565b634e487b7160e01b600052601160045260246000fd5b634e487b7160e01b600052603160045260246000fd5b634e487b7160e01b600052603260045260246000fd5b634e487b7160e01b600052604160045260246000fdfea264697066735822122089eb1817d9e8e1519e036e12d401262fe37a17d73a2c32be832619e275eedddc64736f6c63430008070033",
  "immutableReferences": {},
  "source": "// SPDX-License-Identifier: GPL-3.0\r\n\r\npragma solidity 0.8.7;\r\n\r\n/**\r\n Uint data type common functionality\r\n */\r\n\r\nlibrary UintLibrary{\r\n\r\n    // AUX FUNCTIONALITY /////////////////////////////////////////\r\n    function FindUintPosition(uint value, uint[] memory list) public pure returns (uint)\r\n    {\r\n        for(uint i=0; i < list.length; i++){\r\n            if(value == list[i]) return i;\r\n        }\r\n\r\n        return list.length + 1;\r\n    }\r\n\r\n    function ProductOfFactors(uint[] memory factors) public pure returns (uint)\r\n    {\r\n        uint result = 1;\r\n         for(uint i=0; i < factors.length; i++){\r\n            result = result * factors[i];\r\n        }\r\n\r\n        return result;\r\n    }\r\n\r\n    function UintArrayRemoveResize(uint index, uint[] storage array) public \r\n    {\r\n        array[index] = array[array.length - 1];\r\n        array.pop();\r\n    }\r\n\r\n    function UintToBytes32(uint element) public pure returns(bytes32)\r\n    {\r\n        return bytes32(element);\r\n    }\r\n\r\n    function Bytes32ToUint(bytes32 element) public pure returns(uint)\r\n    {\r\n        return uint256(element);\r\n    }\r\n\r\n    function Bytes32ArrayToUintArray(bytes32[] memory element) public pure returns(uint256[] memory)\r\n    {\r\n        uint256[] memory elementInt = new uint256[](element.length);\r\n        for(uint256 i=0; i < element.length; i++){\r\n            elementInt[i] = Bytes32ToUint(element[i]);\r\n        }\r\n        return elementInt;\r\n    }\r\n\r\n}",
  "sourcePath": "C:\\Users\\d-aam\\GitHub\\Originals\\contracts\\Libraries\\UintLibrary.sol",
  "compiler": {
    "name": "solc",
    "version": "0.8.7+commit.e28d00a7.Emscripten.clang"
  },
  "schemaVersion": "3.4.3",
  "updatedAt": "2022-03-01T10:52:29.361Z",
  "devdoc": {
    "kind": "dev",
    "methods": {},
    "version": 1
  },
  "userdoc": {
    "kind": "user",
    "methods": {},
    "notice": "Uint data type common functionality",
    "version": 1
  }
}