{
  "contractName": "UintLibrary",
  "abi": [
    {
      "inputs": [
        {
          "internalType": "uint256",
          "name": "value",
          "type": "uint256"
        },
        {
          "internalType": "uint256[]",
          "name": "list",
          "type": "uint256[]"
        }
      ],
      "name": "FindUintPosition",
      "outputs": [
        {
          "internalType": "uint256",
          "name": "",
          "type": "uint256"
        }
      ],
      "stateMutability": "pure",
      "type": "function"
    },
    {
      "inputs": [
        {
          "internalType": "uint256[]",
          "name": "factors",
          "type": "uint256[]"
        }
      ],
      "name": "ProductOfFactors",
      "outputs": [
        {
          "internalType": "uint256",
          "name": "",
          "type": "uint256"
        }
      ],
      "stateMutability": "pure",
      "type": "function"
    },
    {
      "inputs": [
        {
          "internalType": "uint256",
          "name": "element",
          "type": "uint256"
        }
      ],
      "name": "UintToBytes32",
      "outputs": [
        {
          "internalType": "bytes32",
          "name": "",
          "type": "bytes32"
        }
      ],
      "stateMutability": "pure",
      "type": "function"
    },
    {
      "inputs": [
        {
          "internalType": "bytes32",
          "name": "element",
          "type": "bytes32"
        }
      ],
      "name": "Bytes32ToUint",
      "outputs": [
        {
          "internalType": "uint256",
          "name": "",
          "type": "uint256"
        }
      ],
      "stateMutability": "pure",
      "type": "function"
    }
  ],
  "bytecode": "0x61083b610053600b82828239805160001a607314610046577f4e487b7100000000000000000000000000000000000000000000000000000000600052600060045260246000fd5b30600052607381538281f3fe73000000000000000000000000000000000000000030146080604052600436106100615760003560e01c80630bd4715e14610066578063b1ab8cb814610096578063c5fc6b02146100c6578063cffd93cd146100f6578063f254becc1461011f575b600080fd5b610080600480360381019061007b91906103c8565b61014f565b60405161008d91906104f7565b60405180910390f35b6100b060048036038101906100ab91906103f5565b61015c565b6040516100bd91906104dc565b60405180910390f35b6100e060048036038101906100db9190610422565b610169565b6040516100ed91906104f7565b60405180910390f35b81801561010257600080fd5b5061011d6004803603810190610118919061047e565b6101d0565b005b6101396004803603810190610134919061037f565b61024a565b60405161014691906104f7565b60405180910390f35b60008160001c9050919050565b60008160001b9050919050565b600080600090505b82518110156101b85782818151811061018d5761018c61073d565b5b60200260200101518414156101a557809150506101ca565b80806101b090610696565b915050610171565b50600182516101c79190610563565b90505b92915050565b80600182805490506101e29190610613565b815481106101f3576101f261073d565b5b90600052602060002001548183815481106102115761021061073d565b5b9060005260206000200181905550808054806102305761022f61070e565b5b600190038181906000526020600020016000905590555050565b6000806001905060005b8351811015610298578381815181106102705761026f61073d565b5b60200260200101518261028391906105b9565b9150808061029090610696565b915050610254565b5080915050919050565b60006102b56102b084610537565b610512565b905080838252602082019050828560208602820111156102d8576102d76107a0565b5b60005b8581101561030857816102ee888261036a565b8452602084019350602083019250506001810190506102db565b5050509392505050565b600082601f8301126103275761032661079b565b5b81356103378482602086016102a2565b91505092915050565b60008135905061034f816107c0565b92915050565b600081359050610364816107d7565b92915050565b600081359050610379816107ee565b92915050565b600060208284031215610395576103946107aa565b5b600082013567ffffffffffffffff8111156103b3576103b26107a5565b5b6103bf84828501610312565b91505092915050565b6000602082840312156103de576103dd6107aa565b5b60006103ec84828501610355565b91505092915050565b60006020828403121561040b5761040a6107aa565b5b60006104198482850161036a565b91505092915050565b60008060408385031215610439576104386107aa565b5b60006104478582860161036a565b925050602083013567ffffffffffffffff811115610468576104676107a5565b5b61047485828601610312565b9150509250929050565b60008060408385031215610495576104946107aa565b5b60006104a38582860161036a565b92505060206104b485828601610340565b9150509250929050565b6104c781610651565b82525050565b6104d68161065b565b82525050565b60006020820190506104f160008301846104be565b92915050565b600060208201905061050c60008301846104cd565b92915050565b600061051c61052d565b90506105288282610665565b919050565b6000604051905090565b600067ffffffffffffffff8211156105525761055161076c565b5b602082029050602081019050919050565b600061056e8261065b565b91506105798361065b565b9250827fffffffffffffffffffffffffffffffffffffffffffffffffffffffffffffffff038211156105ae576105ad6106df565b5b828201905092915050565b60006105c48261065b565b91506105cf8361065b565b9250817fffffffffffffffffffffffffffffffffffffffffffffffffffffffffffffffff0483118215151615610608576106076106df565b5b828202905092915050565b600061061e8261065b565b91506106298361065b565b92508282101561063c5761063b6106df565b5b828203905092915050565b6000819050919050565b6000819050919050565b6000819050919050565b61066e826107af565b810181811067ffffffffffffffff8211171561068d5761068c61076c565b5b80604052505050565b60006106a18261065b565b91507fffffffffffffffffffffffffffffffffffffffffffffffffffffffffffffffff8214156106d4576106d36106df565b5b600182019050919050565b7f4e487b7100000000000000000000000000000000000000000000000000000000600052601160045260246000fd5b7f4e487b7100000000000000000000000000000000000000000000000000000000600052603160045260246000fd5b7f4e487b7100000000000000000000000000000000000000000000000000000000600052603260045260246000fd5b7f4e487b7100000000000000000000000000000000000000000000000000000000600052604160045260246000fd5b600080fd5b600080fd5b600080fd5b600080fd5b6000601f19601f8301169050919050565b6107c981610647565b81146107d457600080fd5b50565b6107e081610651565b81146107eb57600080fd5b50565b6107f78161065b565b811461080257600080fd5b5056fea26469706673582212208a40ba74aa7f222031b7fca5d0338d070e327dca1b8874649316badc4e90142664736f6c63430008070033",
  "immutableReferences": {},
  "source": "// SPDX-License-Identifier: GPL-3.0\r\n\r\npragma solidity 0.8.7;\r\n\r\n/**\r\n Uint data type common functionality\r\n */\r\n\r\nimport \"./Library.sol\";\r\n\r\nlibrary UintLibrary{\r\n    using Library for *;\r\n\r\n    // AUX FUNCTIONALITY /////////////////////////////////////////\r\n    function FindUintPosition(uint value, uint[] memory list) public pure returns (uint)\r\n    {\r\n        for(uint i=0; i < list.length; i++){\r\n            if(value == list[i]) return i;\r\n        }\r\n\r\n        return list.length + 1;\r\n    }\r\n\r\n    function ProductOfFactors(uint[] memory factors) public pure returns (uint)\r\n    {\r\n        uint result = 1;\r\n         for(uint i=0; i < factors.length; i++){\r\n            result = result * factors[i];\r\n        }\r\n\r\n        return result;\r\n    }\r\n\r\n    function UintArrayRemoveResize(uint index, uint[] storage array) public \r\n    {\r\n        array[index] = array[array.length - 1];\r\n        array.pop();\r\n    }\r\n\r\n    function UintToBytes32(uint element) public pure returns(bytes32)\r\n    {\r\n        return bytes32(element);\r\n    }\r\n\r\n    function Bytes32ToUint(bytes32 element) public pure returns(uint)\r\n    {\r\n        return uint256(element);\r\n    }\r\n\r\n}",
  "sourcePath": "C:\\Users\\d-aam\\GitHub\\Originals\\contracts\\Libraries\\UintLibrary.sol",
  "compiler": {
    "name": "solc",
    "version": "0.8.7+commit.e28d00a7.Emscripten.clang"
  },
  "schemaVersion": "3.4.3",
  "updatedAt": "2022-01-21T14:15:36.722Z",
  "devdoc": {
    "kind": "dev",
    "methods": {},
    "version": 1
  },
  "userdoc": {
    "kind": "user",
    "methods": {},
    "version": 1
  }
}